{
  "_format": "hh-sol-artifact-1",
  "contractName": "DexhunePriceDAO",
  "sourceName": "contracts/DexhunePriceDAO.sol",
  "abi": [
    {
      "inputs": [],
      "stateMutability": "nonpayable",
      "type": "constructor"
    },
    {
      "inputs": [],
      "name": "AlreadyVoted",
      "type": "error"
    },
    {
      "inputs": [],
      "name": "NoActiveProposal",
      "type": "error"
    },
    {
      "inputs": [],
      "name": "NotEligible",
      "type": "error"
    },
    {
      "inputs": [],
      "name": "ProposalAlreadyFinalized",
      "type": "error"
    },
    {
      "inputs": [],
      "name": "ProposalDoesNotExist",
      "type": "error"
    },
    {
      "inputs": [],
      "name": "ProposalHasExpired",
      "type": "error"
    },
    {
      "inputs": [],
      "name": "ProposalIsStillActive",
      "type": "error"
    },
    {
      "inputs": [
        {
          "internalType": "address",
          "name": "account",
          "type": "address"
        }
      ],
      "name": "UnauthorizedAccount",
      "type": "error"
    },
    {
      "inputs": [],
      "name": "VotingDeactivated",
      "type": "error"
    },
    {
      "anonymous": false,
      "inputs": [
        {
          "indexed": false,
          "internalType": "address",
          "name": "addr",
          "type": "address"
        }
      ],
      "name": "AssignedNFTCollection",
      "type": "event"
    },
    {
      "anonymous": false,
      "inputs": [
        {
          "indexed": false,
          "internalType": "address",
          "name": "addr",
          "type": "address"
        }
      ],
      "name": "AssignedToken",
      "type": "event"
    },
    {
      "anonymous": false,
      "inputs": [
        {
          "indexed": false,
          "internalType": "string",
          "name": "price",
          "type": "string"
        },
        {
          "indexed": false,
          "internalType": "string",
          "name": "description",
          "type": "string"
        },
        {
          "indexed": false,
          "internalType": "address",
          "name": "proposer",
          "type": "address"
        }
      ],
      "name": "ProposalCreated",
      "type": "event"
    },
    {
      "anonymous": false,
      "inputs": [
        {
          "indexed": false,
          "internalType": "uint16",
          "name": "_for",
          "type": "uint16"
        },
        {
          "indexed": false,
          "internalType": "uint16",
          "name": "_against",
          "type": "uint16"
        }
      ],
      "name": "ProposalDenied",
      "type": "event"
    },
    {
      "anonymous": false,
      "inputs": [
        {
          "indexed": false,
          "internalType": "uint16",
          "name": "_for",
          "type": "uint16"
        },
        {
          "indexed": false,
          "internalType": "uint16",
          "name": "_against",
          "type": "uint16"
        },
        {
          "indexed": false,
          "internalType": "string",
          "name": "newPrice",
          "type": "string"
        }
      ],
      "name": "ProposalPassed",
      "type": "event"
    },
    {
      "anonymous": false,
      "inputs": [
        {
          "indexed": false,
          "internalType": "address",
          "name": "addr",
          "type": "address"
        },
        {
          "indexed": false,
          "internalType": "uint256",
          "name": "amount",
          "type": "uint256"
        }
      ],
      "name": "RewardedProposer",
      "type": "event"
    },
    {
      "anonymous": false,
      "inputs": [
        {
          "indexed": false,
          "internalType": "address",
          "name": "oldOwner",
          "type": "address"
        },
        {
          "indexed": false,
          "internalType": "address",
          "name": "newOwner",
          "type": "address"
        }
      ],
      "name": "TransferredOwnership",
      "type": "event"
    },
    {
      "anonymous": false,
      "inputs": [
        {
          "indexed": false,
          "internalType": "address",
          "name": "voter",
          "type": "address"
        },
        {
          "indexed": false,
          "internalType": "uint16",
          "name": "votes",
          "type": "uint16"
        }
      ],
      "name": "VotedDown",
      "type": "event"
    },
    {
      "anonymous": false,
      "inputs": [
        {
          "indexed": false,
          "internalType": "address",
          "name": "voter",
          "type": "address"
        },
        {
          "indexed": false,
          "internalType": "uint16",
          "name": "votes",
          "type": "uint16"
        }
      ],
      "name": "VotedUp",
      "type": "event"
    },
    {
      "inputs": [
        {
          "internalType": "address",
          "name": "addr",
          "type": "address"
        }
      ],
      "name": "assignNFTCollection",
      "outputs": [],
      "stateMutability": "nonpayable",
      "type": "function"
    },
    {
      "inputs": [
        {
          "internalType": "address",
          "name": "addr",
          "type": "address"
        }
      ],
      "name": "assignTokenAddress",
      "outputs": [],
      "stateMutability": "nonpayable",
      "type": "function"
    },
    {
      "inputs": [],
      "name": "finalizeProposal",
      "outputs": [],
      "stateMutability": "nonpayable",
      "type": "function"
    },
    {
      "inputs": [],
      "name": "getPrice",
      "outputs": [
        {
          "internalType": "string",
          "name": "",
          "type": "string"
        }
      ],
      "stateMutability": "view",
      "type": "function"
    },
    {
      "inputs": [],
      "name": "latestProposal",
      "outputs": [
        {
          "components": [
            {
              "internalType": "address",
              "name": "proposerAddr",
              "type": "address"
            },
            {
              "internalType": "string",
              "name": "value",
              "type": "string"
            },
            {
              "internalType": "string",
              "name": "description",
              "type": "string"
            },
            {
              "internalType": "bool",
              "name": "finalized",
              "type": "bool"
            }
          ],
          "internalType": "struct DexhunePriceDAOBase.PriceProposal",
          "name": "",
          "type": "tuple"
        }
      ],
      "stateMutability": "view",
      "type": "function"
    },
    {
      "inputs": [],
      "name": "owner",
      "outputs": [
        {
          "internalType": "address",
          "name": "",
          "type": "address"
        }
      ],
      "stateMutability": "view",
      "type": "function"
    },
    {
      "inputs": [],
      "name": "proposalEndsAfter",
      "outputs": [
        {
          "internalType": "uint256",
          "name": "",
          "type": "uint256"
        }
      ],
      "stateMutability": "view",
      "type": "function"
    },
    {
      "inputs": [
        {
          "internalType": "string",
          "name": "price",
          "type": "string"
        },
        {
          "internalType": "string",
          "name": "description",
          "type": "string"
        }
      ],
      "name": "proposePrice",
      "outputs": [],
      "stateMutability": "nonpayable",
      "type": "function"
    },
    {
      "inputs": [
        {
          "internalType": "address",
          "name": "_address",
          "type": "address"
        }
      ],
      "name": "transferOwnership",
      "outputs": [],
      "stateMutability": "nonpayable",
      "type": "function"
    },
    {
      "inputs": [],
      "name": "voteDown",
      "outputs": [],
      "stateMutability": "nonpayable",
      "type": "function"
    },
    {
      "inputs": [],
      "name": "voteUp",
      "outputs": [],
      "stateMutability": "nonpayable",
      "type": "function"
    },
    {
      "inputs": [],
      "name": "votingEndsAfter",
      "outputs": [
        {
          "internalType": "uint256",
          "name": "",
          "type": "uint256"
        }
      ],
      "stateMutability": "view",
      "type": "function"
    }
  ],
  "bytecode": "0x60806040523480156200001157600080fd5b50336000806101000a81548173ffffffffffffffffffffffffffffffffffffffff021916908373ffffffffffffffffffffffffffffffffffffffff160217905550604051806080016040528060008054906101000a900473ffffffffffffffffffffffffffffffffffffffff1673ffffffffffffffffffffffffffffffffffffffff1681526020016040518060400160405280600481526020017f4e554c4c0000000000000000000000000000000000000000000000000000000081525081526020016040518060400160405280600481526020017f4e554c4c00000000000000000000000000000000000000000000000000000000815250815260200160011515815250600860008201518160000160006101000a81548173ffffffffffffffffffffffffffffffffffffffff021916908373ffffffffffffffffffffffffffffffffffffffff160217905550602082015181600101908162000176919062000432565b5060408201518160020190816200018e919062000432565b5060608201518160030160006101000a81548160ff02191690831515021790555090505062000519565b600081519050919050565b7f4e487b7100000000000000000000000000000000000000000000000000000000600052604160045260246000fd5b7f4e487b7100000000000000000000000000000000000000000000000000000000600052602260045260246000fd5b600060028204905060018216806200023a57607f821691505b60208210810362000250576200024f620001f2565b5b50919050565b60008190508160005260206000209050919050565b60006020601f8301049050919050565b600082821b905092915050565b600060088302620002ba7fffffffffffffffffffffffffffffffffffffffffffffffffffffffffffffffff826200027b565b620002c686836200027b565b95508019841693508086168417925050509392505050565b6000819050919050565b6000819050919050565b6000620003136200030d6200030784620002de565b620002e8565b620002de565b9050919050565b6000819050919050565b6200032f83620002f2565b620003476200033e826200031a565b84845462000288565b825550505050565b600090565b6200035e6200034f565b6200036b81848462000324565b505050565b5b8181101562000393576200038760008262000354565b60018101905062000371565b5050565b601f821115620003e257620003ac8162000256565b620003b7846200026b565b81016020851015620003c7578190505b620003df620003d6856200026b565b83018262000370565b50505b505050565b600082821c905092915050565b60006200040760001984600802620003e7565b1980831691505092915050565b6000620004228383620003f4565b9150826002028217905092915050565b6200043d82620001b8565b67ffffffffffffffff811115620004595762000458620001c3565b5b62000465825462000221565b6200047282828562000397565b600060209050601f831160018114620004aa576000841562000495578287015190505b620004a1858262000414565b86555062000511565b601f198416620004ba8662000256565b60005b82811015620004e457848901518255600182019150602085019450602081019050620004bd565b8683101562000504578489015162000500601f891682620003f4565b8355505b6001600288020188555050505b505050505050565b611ff580620005296000396000f3fe608060405234801561001057600080fd5b50600436106100b45760003560e01c8063b96762ae11610071578063b96762ae14610141578063c2b798361461015d578063c4dc15561461017b578063c70d33e314610185578063f2fde38b146101a3578063f863b454146101bf576100b4565b806302de9f2e146100b95780633d75da94146100d55780638da5cb5b146100f157806398d5fdca1461010f578063b07672ae1461012d578063b525ef0d14610137575b600080fd5b6100d360048036038101906100ce9190611496565b6101dd565b005b6100ef60048036038101906100ea919061156c565b6103ac565b005b6100f96104f1565b60405161010691906115a8565b60405180910390f35b610117610515565b6040516101249190611642565b60405180910390f35b6101356105a7565b005b61013f6106b5565b005b61015b6004803603810190610156919061156c565b6107cc565b005b610165610911565b6040516101729190611742565b60405180910390f35b610183610ac0565b005b61018d610d8a565b60405161019a919061177d565b60405180910390f35b6101bd60048036038101906101b8919061156c565b610db9565b005b6101c7610e84565b6040516101d4919061177d565b60405180910390f35b60006101e7610eb3565b1161021e576040517ff8eb54de00000000000000000000000000000000000000000000000000000000815260040160405180910390fd5b600860030160009054906101000a900460ff161561027357426006541115610272576040517fa9174b1700000000000000000000000000000000000000000000000000000000815260040160405180910390fd5b5b6102584261028191906117c7565b60068190555061012c4261029591906117c7565b60078190555060405180608001604052803373ffffffffffffffffffffffffffffffffffffffff16815260200183815260200182815260200160001515815250600860008201518160000160006101000a81548173ffffffffffffffffffffffffffffffffffffffff021916908373ffffffffffffffffffffffffffffffffffffffff16021790555060208201518160010190816103339190611a07565b5060408201518160020190816103499190611a07565b5060608201518160030160006101000a81548160ff0219169083151502179055509050507f7ee0a17a4563c16d1072d423dc4448c5d14ac076b5982abc0762421172beea618282336040516103a093929190611ad9565b60405180910390a15050565b6103b4610f56565b60008190508073ffffffffffffffffffffffffffffffffffffffff166370a08231306040518263ffffffff1660e01b81526004016103f291906115a8565b602060405180830381865afa15801561040f573d6000803e3d6000fd5b505050506040513d601f19601f820116820180604052508101906104339190611b4a565b5080600160006101000a81548173ffffffffffffffffffffffffffffffffffffffff021916908373ffffffffffffffffffffffffffffffffffffffff16021790555081600460006101000a81548173ffffffffffffffffffffffffffffffffffffffff021916908373ffffffffffffffffffffffffffffffffffffffff1602179055507f26317221e726b9c268b3046da713d2019ae4bc96acad9c2e1c534da90fc5e9d4826040516104e591906115a8565b60405180910390a15050565b60008054906101000a900473ffffffffffffffffffffffffffffffffffffffff1681565b6060600580546105249061182a565b80601f01602080910402602001604051908101604052809291908181526020018280546105509061182a565b801561059d5780601f106105725761010080835404028352916020019161059d565b820191906000526020600020905b81548152906001019060200180831161058057829003601f168201915b5050505050905090565b60006105b1610fe8565b90506000339050600c819080600181540180825580915050600190039060005260206000200160009091909190916101000a81548173ffffffffffffffffffffffffffffffffffffffff021916908373ffffffffffffffffffffffffffffffffffffffff16021790555081600d60008373ffffffffffffffffffffffffffffffffffffffff1673ffffffffffffffffffffffffffffffffffffffff16815260200190815260200160002060006101000a81548161ffff021916908360010b61ffff1602179055507f33fabba9378c138b4fd0872656523539fe2ca7f3ca14a28c15be6922c925dd8781836040516106a9929190611b94565b60405180910390a15050565b60006106bf610fe8565b90506000339050600c819080600181540180825580915050600190039060005260206000200160009091909190916101000a81548173ffffffffffffffffffffffffffffffffffffffff021916908373ffffffffffffffffffffffffffffffffffffffff1602179055508161073390611bca565b600d60008373ffffffffffffffffffffffffffffffffffffffff1673ffffffffffffffffffffffffffffffffffffffff16815260200190815260200160002060006101000a81548161ffff021916908360010b61ffff1602179055507faab3f0444f9ebdc2f3123616cd1ef4cd06e39f5d865030bc51aa785362965c7c81836040516107c0929190611b94565b60405180910390a15050565b6107d4610f56565b60008190508073ffffffffffffffffffffffffffffffffffffffff166370a08231306040518263ffffffff1660e01b815260040161081291906115a8565b602060405180830381865afa15801561082f573d6000803e3d6000fd5b505050506040513d601f19601f820116820180604052508101906108539190611b4a565b5080600260006101000a81548173ffffffffffffffffffffffffffffffffffffffff021916908373ffffffffffffffffffffffffffffffffffffffff16021790555081600360006101000a81548173ffffffffffffffffffffffffffffffffffffffff021916908373ffffffffffffffffffffffffffffffffffffffff1602179055507f708e1e0cc2637dd479a4cb4ab8dc07655e145e2b159249aca7146ab62b67d0058260405161090591906115a8565b60405180910390a15050565b6109196112fc565b60086040518060800160405290816000820160009054906101000a900473ffffffffffffffffffffffffffffffffffffffff1673ffffffffffffffffffffffffffffffffffffffff1673ffffffffffffffffffffffffffffffffffffffff16815260200160018201805461098c9061182a565b80601f01602080910402602001604051908101604052809291908181526020018280546109b89061182a565b8015610a055780601f106109da57610100808354040283529160200191610a05565b820191906000526020600020905b8154815290600101906020018083116109e857829003601f168201915b50505050508152602001600282018054610a1e9061182a565b80601f0160208091040260200160405190810160405280929190818152602001828054610a4a9061182a565b8015610a975780601f10610a6c57610100808354040283529160200191610a97565b820191906000526020600020905b815481529060010190602001808311610a7a57829003601f168201915b505050505081526020016003820160009054906101000a900460ff161515151581525050905090565b426007541115610afc576040517fa9174b1700000000000000000000000000000000000000000000000000000000815260040160405180910390fd5b6006544210610b37576040517fc1f1c4df00000000000000000000000000000000000000000000000000000000815260040160405180910390fd5b600860030160009054906101000a900460ff1615610b81576040517f9c93eb2d00000000000000000000000000000000000000000000000000000000815260040160405180910390fd5b6000806000806000806001600c80549050610b9c9190611c12565b90505b60008110610cb157600c8181548110610bbb57610bba611c46565b5b9060005260206000200160009054906101000a900473ffffffffffffffffffffffffffffffffffffffff169150600d60008373ffffffffffffffffffffffffffffffffffffffff1673ffffffffffffffffffffffffffffffffffffffff16815260200190815260200160002060009054906101000a900460010b9350610c4082611105565b92508261ffff16610c50856111aa565b61ffff1603610c9e5760008460010b1315610c78578386610c719190611c75565b9550610c9d565b60008460010b1215610c9c5783610c8e90611bca565b85610c999190611c75565b94505b5b5b8080610ca990611cab565b915050610b9f565b506001600860030160006101000a81548160ff0219169083151502179055508361ffff168561ffff161115610d4957610cf48486610cef9190611c75565b6111cf565b600860010160059081610d079190611cff565b507fc965d144fc58d48e5f9a6aa80cd6057c77af099482c91f56a9c36920ed60c27885856005604051610d3c93929190611e6b565b60405180910390a1610d83565b7faeedba74278bf0d29c304a846608f0c3e654216bb74466df6969108e1ac2b1c88585604051610d7a929190611ea9565b60405180910390a15b5050505050565b600080429050806006541015610da4576000915050610db6565b80600654610db29190611c12565b9150505b90565b610dc1610f56565b60008060009054906101000a900473ffffffffffffffffffffffffffffffffffffffff169050816000806101000a81548173ffffffffffffffffffffffffffffffffffffffff021916908373ffffffffffffffffffffffffffffffffffffffff1602179055507f850b3df64837d7d518b45f5aa64d104652c3b80eb5b34a8e3d9eb666cb7cdea58160008054906101000a900473ffffffffffffffffffffffffffffffffffffffff16604051610e78929190611ed2565b60405180910390a15050565b600080429050806007541015610e9e576000915050610eb0565b80600754610eac9190611c12565b9150505b90565b6000600260009054906101000a900473ffffffffffffffffffffffffffffffffffffffff1673ffffffffffffffffffffffffffffffffffffffff166370a08231336040518263ffffffff1660e01b8152600401610f1091906115a8565b602060405180830381865afa158015610f2d573d6000803e3d6000fd5b505050506040513d601f19601f82011682018060405250810190610f519190611b4a565b905090565b60008054906101000a900473ffffffffffffffffffffffffffffffffffffffff1673ffffffffffffffffffffffffffffffffffffffff163373ffffffffffffffffffffffffffffffffffffffff1614610fe657336040517f32b2baa3000000000000000000000000000000000000000000000000000000008152600401610fdd91906115a8565b60405180910390fd5b565b60006007544210611025576040517f3dc1d21400000000000000000000000000000000000000000000000000000000815260040160405180910390fd5b6000600d60003373ffffffffffffffffffffffffffffffffffffffff1673ffffffffffffffffffffffffffffffffffffffff16815260200190815260200160002060009054906101000a900460010b905060008160010b146110b3576040517f7c9a1cf900000000000000000000000000000000000000000000000000000000815260040160405180910390fd5b60006110bd610eb3565b905060008161ffff16116110fd576040517ff8eb54de00000000000000000000000000000000000000000000000000000000815260040160405180910390fd5b809250505090565b6000600260009054906101000a900473ffffffffffffffffffffffffffffffffffffffff1673ffffffffffffffffffffffffffffffffffffffff166370a08231836040518263ffffffff1660e01b815260040161116291906115a8565b602060405180830381865afa15801561117f573d6000803e3d6000fd5b505050506040513d601f19601f820116820180604052508101906111a39190611b4a565b9050919050565b6000808260010b12156111c657816111c190611bca565b6111c8565b815b9050919050565b6000600860000160009054906101000a900473ffffffffffffffffffffffffffffffffffffffff169050600060148361ffff1661120c9190611efb565b9050614e2081111561121e57614e2090505b600160009054906101000a900473ffffffffffffffffffffffffffffffffffffffff1673ffffffffffffffffffffffffffffffffffffffff1663a9059cbb83836040518363ffffffff1660e01b815260040161127b929190611f3d565b6020604051808303816000875af19250505080156112b757506040513d601f19601f820116820180604052508101906112b49190611f92565b60015b156112f757507fca770103cdd14b19db75e20f62f734f176926315f9d140ddb5ba416422a6c08e82826040516112ee929190611f3d565b60405180910390a15b505050565b6040518060800160405280600073ffffffffffffffffffffffffffffffffffffffff16815260200160608152602001606081526020016000151581525090565b6000604051905090565b600080fd5b600080fd5b600080fd5b600080fd5b6000601f19601f8301169050919050565b7f4e487b7100000000000000000000000000000000000000000000000000000000600052604160045260246000fd5b6113a38261135a565b810181811067ffffffffffffffff821117156113c2576113c161136b565b5b80604052505050565b60006113d561133c565b90506113e1828261139a565b919050565b600067ffffffffffffffff8211156114015761140061136b565b5b61140a8261135a565b9050602081019050919050565b82818337600083830152505050565b6000611439611434846113e6565b6113cb565b90508281526020810184848401111561145557611454611355565b5b611460848285611417565b509392505050565b600082601f83011261147d5761147c611350565b5b813561148d848260208601611426565b91505092915050565b600080604083850312156114ad576114ac611346565b5b600083013567ffffffffffffffff8111156114cb576114ca61134b565b5b6114d785828601611468565b925050602083013567ffffffffffffffff8111156114f8576114f761134b565b5b61150485828601611468565b9150509250929050565b600073ffffffffffffffffffffffffffffffffffffffff82169050919050565b60006115398261150e565b9050919050565b6115498161152e565b811461155457600080fd5b50565b60008135905061156681611540565b92915050565b60006020828403121561158257611581611346565b5b600061159084828501611557565b91505092915050565b6115a28161152e565b82525050565b60006020820190506115bd6000830184611599565b92915050565b600081519050919050565b600082825260208201905092915050565b60005b838110156115fd5780820151818401526020810190506115e2565b60008484015250505050565b6000611614826115c3565b61161e81856115ce565b935061162e8185602086016115df565b6116378161135a565b840191505092915050565b6000602082019050818103600083015261165c8184611609565b905092915050565b61166d8161152e565b82525050565b600082825260208201905092915050565b600061168f826115c3565b6116998185611673565b93506116a98185602086016115df565b6116b28161135a565b840191505092915050565b60008115159050919050565b6116d2816116bd565b82525050565b60006080830160008301516116f06000860182611664565b50602083015184820360208601526117088282611684565b915050604083015184820360408601526117228282611684565b915050606083015161173760608601826116c9565b508091505092915050565b6000602082019050818103600083015261175c81846116d8565b905092915050565b6000819050919050565b61177781611764565b82525050565b6000602082019050611792600083018461176e565b92915050565b7f4e487b7100000000000000000000000000000000000000000000000000000000600052601160045260246000fd5b60006117d282611764565b91506117dd83611764565b92508282019050808211156117f5576117f4611798565b5b92915050565b7f4e487b7100000000000000000000000000000000000000000000000000000000600052602260045260246000fd5b6000600282049050600182168061184257607f821691505b602082108103611855576118546117fb565b5b50919050565b60008190508160005260206000209050919050565b60006020601f8301049050919050565b600082821b905092915050565b6000600883026118bd7fffffffffffffffffffffffffffffffffffffffffffffffffffffffffffffffff82611880565b6118c78683611880565b95508019841693508086168417925050509392505050565b6000819050919050565b60006119046118ff6118fa84611764565b6118df565b611764565b9050919050565b6000819050919050565b61191e836118e9565b61193261192a8261190b565b84845461188d565b825550505050565b600090565b61194761193a565b611952818484611915565b505050565b5b818110156119765761196b60008261193f565b600181019050611958565b5050565b601f8211156119bb5761198c8161185b565b61199584611870565b810160208510156119a4578190505b6119b86119b085611870565b830182611957565b50505b505050565b600082821c905092915050565b60006119de600019846008026119c0565b1980831691505092915050565b60006119f783836119cd565b9150826002028217905092915050565b611a10826115c3565b67ffffffffffffffff811115611a2957611a2861136b565b5b611a33825461182a565b611a3e82828561197a565b600060209050601f831160018114611a715760008415611a5f578287015190505b611a6985826119eb565b865550611ad1565b601f198416611a7f8661185b565b60005b82811015611aa757848901518255600182019150602085019450602081019050611a82565b86831015611ac45784890151611ac0601f8916826119cd565b8355505b6001600288020188555050505b505050505050565b60006060820190508181036000830152611af38186611609565b90508181036020830152611b078185611609565b9050611b166040830184611599565b949350505050565b611b2781611764565b8114611b3257600080fd5b50565b600081519050611b4481611b1e565b92915050565b600060208284031215611b6057611b5f611346565b5b6000611b6e84828501611b35565b91505092915050565b600061ffff82169050919050565b611b8e81611b77565b82525050565b6000604082019050611ba96000830185611599565b611bb66020830184611b85565b9392505050565b60008160010b9050919050565b6000611bd582611bbd565b91507fffffffffffffffffffffffffffffffffffffffffffffffffffffffffffff80008203611c0757611c06611798565b5b816000039050919050565b6000611c1d82611764565b9150611c2883611764565b9250828203905081811115611c4057611c3f611798565b5b92915050565b7f4e487b7100000000000000000000000000000000000000000000000000000000600052603260045260246000fd5b6000611c8082611b77565b9150611c8b83611b77565b9250828201905061ffff811115611ca557611ca4611798565b5b92915050565b6000611cb682611764565b915060008203611cc957611cc8611798565b5b600182039050919050565b600081549050611ce38161182a565b9050919050565b60008190508160005260206000209050919050565b818103611d0d575050611de5565b611d1682611cd4565b67ffffffffffffffff811115611d2f57611d2e61136b565b5b611d39825461182a565b611d4482828561197a565b6000601f831160018114611d735760008415611d61578287015490505b611d6b85826119eb565b865550611dde565b601f198416611d8187611cea565b9650611d8c8661185b565b60005b82811015611db457848901548255600182019150600185019450602081019050611d8f565b86831015611dd15784890154611dcd601f8916826119cd565b8355505b6001600288020188555050505b5050505050505b565b60008154611df48161182a565b611dfe81866115ce565b94506001821660008114611e195760018114611e2f57611e62565b60ff198316865281151560200286019350611e62565b611e388561185b565b60005b83811015611e5a57815481890152600182019150602081019050611e3b565b808801955050505b50505092915050565b6000606082019050611e806000830186611b85565b611e8d6020830185611b85565b8181036040830152611e9f8184611de7565b9050949350505050565b6000604082019050611ebe6000830185611b85565b611ecb6020830184611b85565b9392505050565b6000604082019050611ee76000830185611599565b611ef46020830184611599565b9392505050565b6000611f0682611764565b9150611f1183611764565b9250828202611f1f81611764565b91508282048414831517611f3657611f35611798565b5b5092915050565b6000604082019050611f526000830185611599565b611f5f602083018461176e565b9392505050565b611f6f816116bd565b8114611f7a57600080fd5b50565b600081519050611f8c81611f66565b92915050565b600060208284031215611fa857611fa7611346565b5b6000611fb684828501611f7d565b9150509291505056fea2646970667358221220e2a05770128cbc7bb7103e7bd279c37488f79385d0dc4bac757ec76efff133d564736f6c63430008150033",
  "linkReferences": {},
  "deployedLinkReferences": {}
}