{
  "_format": "hh-sol-artifact-1",
  "contractName": "DexhunePriceDAO",
  "sourceName": "contracts/DexhunePriceDAO.sol",
  "abi": [
    {
      "inputs": [],
      "stateMutability": "nonpayable",
      "type": "constructor"
    },
    {
      "inputs": [],
      "name": "AlreadyVoted",
      "type": "error"
    },
    {
      "inputs": [],
      "name": "NoActiveProposal",
      "type": "error"
    },
    {
      "inputs": [],
      "name": "NotEligible",
      "type": "error"
    },
    {
      "inputs": [],
      "name": "ProposalAlreadyFinalized",
      "type": "error"
    },
    {
      "inputs": [],
      "name": "ProposalHasExpired",
      "type": "error"
    },
    {
      "inputs": [],
      "name": "ProposalIsStillActive",
      "type": "error"
    },
    {
      "inputs": [
        {
          "internalType": "address",
          "name": "account",
          "type": "address"
        }
      ],
      "name": "UnauthorizedAccount",
      "type": "error"
    },
    {
      "anonymous": false,
      "inputs": [
        {
          "indexed": false,
          "internalType": "address",
          "name": "addr",
          "type": "address"
        }
      ],
      "name": "AssignedNFTCollection",
      "type": "event"
    },
    {
      "anonymous": false,
      "inputs": [
        {
          "indexed": false,
          "internalType": "address",
          "name": "addr",
          "type": "address"
        }
      ],
      "name": "AssignedToken",
      "type": "event"
    },
    {
      "anonymous": false,
      "inputs": [
        {
          "indexed": false,
          "internalType": "string",
          "name": "price",
          "type": "string"
        },
        {
          "indexed": false,
          "internalType": "string",
          "name": "description",
          "type": "string"
        },
        {
          "indexed": false,
          "internalType": "address",
          "name": "proposer",
          "type": "address"
        }
      ],
      "name": "ProposalCreated",
      "type": "event"
    },
    {
      "anonymous": false,
      "inputs": [
        {
          "indexed": false,
          "internalType": "uint16",
          "name": "_for",
          "type": "uint16"
        },
        {
          "indexed": false,
          "internalType": "uint16",
          "name": "_against",
          "type": "uint16"
        }
      ],
      "name": "ProposalDenied",
      "type": "event"
    },
    {
      "anonymous": false,
      "inputs": [
        {
          "indexed": false,
          "internalType": "uint16",
          "name": "_for",
          "type": "uint16"
        },
        {
          "indexed": false,
          "internalType": "uint16",
          "name": "_against",
          "type": "uint16"
        },
        {
          "indexed": false,
          "internalType": "string",
          "name": "newPrice",
          "type": "string"
        }
      ],
      "name": "ProposalPassed",
      "type": "event"
    },
    {
      "anonymous": false,
      "inputs": [
        {
          "indexed": false,
          "internalType": "address",
          "name": "addr",
          "type": "address"
        },
        {
          "indexed": false,
          "internalType": "uint256",
          "name": "amount",
          "type": "uint256"
        }
      ],
      "name": "RewardedProposer",
      "type": "event"
    },
    {
      "anonymous": false,
      "inputs": [
        {
          "indexed": false,
          "internalType": "address",
          "name": "oldOwner",
          "type": "address"
        },
        {
          "indexed": false,
          "internalType": "address",
          "name": "newOwner",
          "type": "address"
        }
      ],
      "name": "TransferredOwnership",
      "type": "event"
    },
    {
      "anonymous": false,
      "inputs": [
        {
          "indexed": false,
          "internalType": "address",
          "name": "voter",
          "type": "address"
        },
        {
          "indexed": false,
          "internalType": "uint16",
          "name": "votes",
          "type": "uint16"
        }
      ],
      "name": "VotedDown",
      "type": "event"
    },
    {
      "anonymous": false,
      "inputs": [
        {
          "indexed": false,
          "internalType": "address",
          "name": "voter",
          "type": "address"
        },
        {
          "indexed": false,
          "internalType": "uint16",
          "name": "votes",
          "type": "uint16"
        }
      ],
      "name": "VotedUp",
      "type": "event"
    },
    {
      "inputs": [
        {
          "internalType": "address",
          "name": "addr",
          "type": "address"
        }
      ],
      "name": "assignNFTCollection",
      "outputs": [],
      "stateMutability": "nonpayable",
      "type": "function"
    },
    {
      "inputs": [
        {
          "internalType": "address",
          "name": "addr",
          "type": "address"
        }
      ],
      "name": "assignTokenAddress",
      "outputs": [],
      "stateMutability": "nonpayable",
      "type": "function"
    },
    {
      "inputs": [],
      "name": "finalizeProposal",
      "outputs": [],
      "stateMutability": "nonpayable",
      "type": "function"
    },
    {
      "inputs": [],
      "name": "getPrice",
      "outputs": [
        {
          "internalType": "string",
          "name": "",
          "type": "string"
        }
      ],
      "stateMutability": "view",
      "type": "function"
    },
    {
      "inputs": [],
      "name": "latestProposal",
      "outputs": [
        {
          "components": [
            {
              "internalType": "address",
              "name": "proposerAddr",
              "type": "address"
            },
            {
              "internalType": "string",
              "name": "value",
              "type": "string"
            },
            {
              "internalType": "string",
              "name": "description",
              "type": "string"
            },
            {
              "internalType": "bool",
              "name": "finalized",
              "type": "bool"
            }
          ],
          "internalType": "struct DexhunePriceDAOBase.PriceProposal",
          "name": "",
          "type": "tuple"
        }
      ],
      "stateMutability": "view",
      "type": "function"
    },
    {
      "inputs": [],
      "name": "nftAddress",
      "outputs": [
        {
          "internalType": "address",
          "name": "",
          "type": "address"
        }
      ],
      "stateMutability": "view",
      "type": "function"
    },
    {
      "inputs": [],
      "name": "owner",
      "outputs": [
        {
          "internalType": "address",
          "name": "",
          "type": "address"
        }
      ],
      "stateMutability": "view",
      "type": "function"
    },
    {
      "inputs": [],
      "name": "proposalEndsAfter",
      "outputs": [
        {
          "internalType": "uint256",
          "name": "",
          "type": "uint256"
        }
      ],
      "stateMutability": "view",
      "type": "function"
    },
    {
      "inputs": [
        {
          "internalType": "string",
          "name": "price",
          "type": "string"
        },
        {
          "internalType": "string",
          "name": "description",
          "type": "string"
        }
      ],
      "name": "proposePrice",
      "outputs": [],
      "stateMutability": "nonpayable",
      "type": "function"
    },
    {
      "inputs": [],
      "name": "tokenAddress",
      "outputs": [
        {
          "internalType": "address",
          "name": "",
          "type": "address"
        }
      ],
      "stateMutability": "view",
      "type": "function"
    },
    {
      "inputs": [
        {
          "internalType": "address",
          "name": "_address",
          "type": "address"
        }
      ],
      "name": "transferOwnership",
      "outputs": [],
      "stateMutability": "nonpayable",
      "type": "function"
    },
    {
      "inputs": [],
      "name": "voteDown",
      "outputs": [],
      "stateMutability": "nonpayable",
      "type": "function"
    },
    {
      "inputs": [],
      "name": "voteUp",
      "outputs": [],
      "stateMutability": "nonpayable",
      "type": "function"
    },
    {
      "inputs": [],
      "name": "votingEndsAfter",
      "outputs": [
        {
          "internalType": "uint256",
          "name": "",
          "type": "uint256"
        }
      ],
      "stateMutability": "view",
      "type": "function"
    }
  ],
  "bytecode": "0x60806040523480156200001157600080fd5b5060008054336001600160a01b0319918216811790925560408051608081018252928352805180820182526004808252631395531360e21b60208084018290528087019384528451808601865292835282015291840191909152600160608401528251600880549093166001600160a01b0390911617825551600990620000999082620001e6565b5060408201516002820190620000b09082620001e6565b50606091909101516003909101805460ff1916911515919091179055620002b6565b634e487b7160e01b600052604160045260246000fd5b634e487b7160e01b600052602260045260246000fd5b6002810460018216806200011357607f821691505b602082108103620001285762000128620000e8565b50919050565b60006200013f6200013c8381565b90565b92915050565b62000150836200012e565b815460001960089490940293841b1916921b91909117905550565b60006200017a81848462000145565b505050565b818110156200019e57620001956000826200016b565b6001016200017f565b5050565b601f8211156200017a576000818152602090206020601f85010481016020851015620001cb5750805b620001df6020601f8601048301826200017f565b5050505050565b81516001600160401b03811115620002025762000202620000d2565b6200020e8254620000fe565b6200021b828285620001a2565b6020601f831160018114620002525760008415620002395750858201515b600019600886021c1981166002860217865550620002ae565b600085815260208120601f198616915b8281101562000284578885015182556020948501946001909201910162000262565b86831015620002a15784890151600019601f89166008021c191682555b6001600288020188555050505b505050505050565b61159380620002c66000396000f3fe608060405234801561001057600080fd5b50600436106100ea5760003560e01c8063b525ef0d1161008c578063c4dc155611610066578063c4dc1556146101b3578063c70d33e3146101bb578063f2fde38b146101d0578063f863b454146101e357600080fd5b8063b525ef0d14610183578063b96762ae1461018b578063c2b798361461019e57600080fd5b80638da5cb5b116100c85780638da5cb5b1461014057806398d5fdca146101535780639d76ea5814610168578063b07672ae1461017b57600080fd5b806302de9f2e146100ef5780633d75da94146101045780635bf8633a14610117575b600080fd5b6101026100fd366004610e8d565b6101eb565b005b610102610112366004610f32565b610311565b60035461012a906001600160a01b031681565b6040516101379190610f62565b60405180910390f35b60005461012a906001600160a01b031681565b61015b6103e9565b6040516101379190610fc6565b60045461012a906001600160a01b031681565b61010261047b565b610102610519565b610102610199366004610f32565b6105d3565b6101a66106ab565b6040516101379190611041565b610102610838565b6101c3610a31565b6040516101379190611058565b6101026101de366004610f32565b610a5d565b6101c3610ab7565b60006101f5610add565b1161021357604051637c75aa6f60e11b815260040160405180910390fd5b600b5460ff16610240574260065411156102405760405163a9174b1760e01b815260040160405180910390fd5b61024c6102584261107c565b60065561025b61012c4261107c565b60075560408051608081018252338082526020820185905291810183905260006060820152600880546001600160a01b03191690921782559060096102a08582611169565b50604082015160028201906102b59082611169565b50606091909101516003909101805460ff19169115159190911790556040517f7ee0a17a4563c16d1072d423dc4448c5d14ac076b5982abc0762421172beea619061030590849084903390611231565b60405180910390a15050565b610319610b54565b6040516370a0823160e01b815281906001600160a01b038216906370a0823190610347903090600401610f62565b602060405180830381865afa158015610364573d6000803e3d6000fd5b505050506040513d601f19601f820116820180604052508101906103889190611276565b50600180546001600160a01b038084166001600160a01b03199283161790925560048054928516929091169190911790556040517f26317221e726b9c268b3046da713d2019ae4bc96acad9c2e1c534da90fc5e9d490610305908490610f62565b6060600580546103f8906110a5565b80601f0160208091040260200160405190810160405280929190818152602001828054610424906110a5565b80156104715780601f1061044657610100808354040283529160200191610471565b820191906000526020600020905b81548152906001019060200180831161045457829003601f168201915b5050505050905090565b6000610485610b8c565b600c8054600181019091557fdf6966c971051c3d54ec59162606531493a51404a002842f56009d7e5cf4a8c7018054336001600160a01b031990911681179091556000818152600d602052604090819020805461ffff191661ffff851617905551919250907f33fabba9378c138b4fd0872656523539fe2ca7f3ca14a28c15be6922c925dd879061030590839085906112a1565b6000610523610b8c565b600c80546001810182556000919091527fdf6966c971051c3d54ec59162606531493a51404a002842f56009d7e5cf4a8c70180546001600160a01b03191633908117909155909150610574826112bc565b6001600160a01b0382166000908152600d602052604090819020805461ffff191661ffff9390931692909217909155517faab3f0444f9ebdc2f3123616cd1ef4cd06e39f5d865030bc51aa785362965c7c9061030590839085906112a1565b6105db610b54565b6040516370a0823160e01b815281906001600160a01b038216906370a0823190610609903090600401610f62565b602060405180830381865afa158015610626573d6000803e3d6000fd5b505050506040513d601f19601f8201168201806040525081019061064a9190611276565b50600280546001600160a01b038084166001600160a01b03199283161790925560038054928516929091169190911790556040517f708e1e0cc2637dd479a4cb4ab8dc07655e145e2b159249aca7146ab62b67d00590610305908490610f62565b6106e1604051806080016040528060006001600160a01b0316815260200160608152602001606081526020016000151581525090565b6040805160808101909152600880546001600160a01b031682526009805460208401919061070e906110a5565b80601f016020809104026020016040519081016040528092919081815260200182805461073a906110a5565b80156107875780601f1061075c57610100808354040283529160200191610787565b820191906000526020600020905b81548152906001019060200180831161076a57829003601f168201915b505050505081526020016002820180546107a0906110a5565b80601f01602080910402602001604051908101604052809291908181526020018280546107cc906110a5565b80156108195780601f106107ee57610100808354040283529160200191610819565b820191906000526020600020905b8154815290600101906020018083116107fc57829003601f168201915b50505091835250506003919091015460ff161515602090910152919050565b42600754111561085b5760405163a9174b1760e01b815260040160405180910390fd5b600654421061087d5760405163c1f1c4df60e01b815260040160405180910390fd5b600b5460ff16156108a157604051639c93eb2d60e01b815260040160405180910390fd5b600c5460009081908190819081905b801561097257600c6108c36001836112e3565b815481106108d3576108d36112f6565b60009182526020808320909101546001600160a01b0316808352600d90915260409091205460010b9450915061090882610c19565b92508261ffff1661091885610c8b565b61ffff16036109605760008460010b131561093e57610937848761130c565b9550610960565b60008460010b121561096057610953846112bc565b61095d908661130c565b94505b8061096a8161132a565b9150506108b0565b50600b805460ff1916600117905561ffff80851690861611156109f0576109a161099c858761130c565b610caa565b60056109ae60098261134c565b507fc965d144fc58d48e5f9a6aa80cd6057c77af099482c91f56a9c36920ed60c278858560056040516109e393929190611490565b60405180910390a1610a2a565b7faeedba74278bf0d29c304a846608f0c3e654216bb74466df6969108e1ac2b1c88585604051610a219291906114c6565b60405180910390a15b5050505050565b600080429050806006541015610a4957600091505090565b80600654610a5791906112e3565b91505090565b610a65610b54565b600080546001600160a01b038381166001600160a01b0319831681179093556040519116917f850b3df64837d7d518b45f5aa64d104652c3b80eb5b34a8e3d9eb666cb7cdea5916103059184916114d4565b600080429050806007541015610acf57600091505090565b80600754610a5791906112e3565b6002546040516370a0823160e01b81526000916001600160a01b0316906370a0823190610b0e903390600401610f62565b602060405180830381865afa158015610b2b573d6000803e3d6000fd5b505050506040513d601f19601f82011682018060405250810190610b4f9190611276565b905090565b6000546001600160a01b03163314610b8a57336040516332b2baa360e01b8152600401610b819190610f62565b60405180910390fd5b565b60006007544210610bb057604051630f70748560e21b815260040160405180910390fd5b336000908152600d602052604090205460010b8015610be257604051637c9a1cf960e01b815260040160405180910390fd5b6000610bec610add565b905060008161ffff1611610c1357604051637c75aa6f60e11b815260040160405180910390fd5b92915050565b6002546040516370a0823160e01b81526000916001600160a01b0316906370a0823190610c4a908590600401610f62565b602060405180830381865afa158015610c67573d6000803e3d6000fd5b505050506040513d601f19601f82011682018060405250810190610c139190611276565b6000808260010b1215610ca657610ca1826112bc565b610c13565b5090565b6008546001600160a01b03166000610cc7601461ffff85166114ef565b9050614e20811115610cd85750614e205b60015460405163a9059cbb60e01b81526001600160a01b039091169063a9059cbb90610d0a908590859060040161150e565b6020604051808303816000875af1925050508015610d45575060408051601f3d908101601f19168201909252610d429181019061153c565b60015b15610d8557507fca770103cdd14b19db75e20f62f734f176926315f9d140ddb5ba416422a6c08e8282604051610d7c92919061150e565b60405180910390a15b505050565b634e487b7160e01b600052604160045260246000fd5b601f19601f830116810181811067ffffffffffffffff82111715610dc657610dc6610d8a565b6040525050565b6000610dd860405190565b9050610de48282610da0565b919050565b600067ffffffffffffffff821115610e0357610e03610d8a565b601f19601f83011660200192915050565b82818337506000910152565b6000610e33610e2e84610de9565b610dcd565b905082815260208101848484011115610e4e57610e4e600080fd5b610e59848285610e14565b509392505050565b600082601f830112610e7557610e75600080fd5b8135610e85848260208601610e20565b949350505050565b60008060408385031215610ea357610ea3600080fd5b823567ffffffffffffffff811115610ebd57610ebd600080fd5b610ec985828601610e61565b925050602083013567ffffffffffffffff811115610ee957610ee9600080fd5b610ef585828601610e61565b9150509250929050565b60006001600160a01b038216610c13565b610f1981610eff565b8114610f2457600080fd5b50565b8035610c1381610f10565b600060208284031215610f4757610f47600080fd5b6000610e858484610f27565b610f5c81610eff565b82525050565b60208101610c138284610f53565b60005b83811015610f8b578181015183820152602001610f73565b50506000910152565b6000610f9e825190565b808452602084019350610fb5818560208601610f70565b601f01601f19169290920192915050565b60208082528101610fd78184610f94565b9392505050565b801515610f5c565b80516000906080840190610ffa8582610f53565b50602083015184820360208601526110128282610f94565b9150506040830151848203604086015261102c8282610f94565b9150506060830151610e596060860182610fde565b60208082528101610fd78184610fe6565b80610f5c565b60208101610c138284611052565b634e487b7160e01b600052601160045260246000fd5b80820180821115610c1357610c13611066565b634e487b7160e01b600052602260045260246000fd5b6002810460018216806110b957607f821691505b6020821081036110cb576110cb61108f565b50919050565b6000610c136110dd8381565b90565b6110e9836110d1565b815460001960089490940293841b1916921b91909117905550565b6000610d858184846110e0565b8181101561112c57611124600082611104565b600101611111565b5050565b601f821115610d85576000818152602090206020601f850104810160208510156111575750805b610a2a6020601f860104830182611111565b815167ffffffffffffffff81111561118357611183610d8a565b61118d82546110a5565b611198828285611130565b6020601f8311600181146111cd57600084156111b45750858201515b600019600886021c19811660028602175b865550611229565b600085815260208120601f198616915b828110156111fd57888501518255602094850194600190920191016111dd565b8683101561121c57888501516000196008601f8a16021c1981165b8355505b6001600288020188555050505b505050505050565b606080825281016112428186610f94565b905081810360208301526112568185610f94565b9050610e856040830184610f53565b80610f19565b8051610c1381611265565b60006020828403121561128b5761128b600080fd5b6000610e85848461126b565b61ffff8116610f5c565b604081016112af8285610f53565b610fd76020830184611297565b60006112c88260010b90565b9150617fff1982036112dc576112dc611066565b5060000390565b81810381811115610c1357610c13611066565b634e487b7160e01b600052603260045260246000fd5b61ffff918216919081169082820190811115610c1357610c13611066565b60008161133957611339611066565b506000190190565b8054610c13816110a5565b818103611357575050565b61136082611341565b67ffffffffffffffff81111561137857611378610d8a565b61138282546110a5565b61138d828285611130565b6000601f8311600181146113bd57600084156111b4575081860154600019600886021c19811660028602176111c5565b600095865260208087208688529087209096601f19861691905b828110156113f757888501548255600194850194909101906020016113d7565b8683101561121c57888501546000196008601f8a16021c198116611218565b60008154611423816110a5565b808552602085019450600182168015611443576001811461145957611487565b60ff198316865260208215150286019350611487565b60008581526020902060005b8381101561148157815488820152600190910190602001611465565b87019450505b50505092915050565b6060810161149e8286611297565b6114ab6020830185611297565b81810360408301526114bd8184611416565b95945050505050565b604081016112af8285611297565b604081016114e28285610f53565b610fd76020830184610f53565b81810280821583820485141761150757611507611066565b5092915050565b6040810161151c8285610f53565b610fd76020830184611052565b801515610f19565b8051610c1381611529565b60006020828403121561155157611551600080fd5b6000610e85848461153156fea26469706673582212206548fc7634cf351d3e3b3ca045fda040015823e84a91a21adff17a72ef3eefb664736f6c63430008160033",
  "linkReferences": {},
  "deployedLinkReferences": {}
}