{"contracts/exchange/DexhuneExchange.sol":{"DexhuneExchange":{"abi":[{"inputs":[],"stateMutability":"nonpayable","type":"constructor"},{"inputs":[],"name":"DepositFailed","type":"error"},{"inputs":[],"name":"FailedStringToNumberConversion","type":"error"},{"inputs":[{"internalType":"uint256","name":"balance","type":"uint256"}],"name":"InsufficientBalance","type":"error"},{"inputs":[{"internalType":"uint256","name":"listingPrice","type":"uint256"}],"name":"InsufficientBalanceForListing","type":"error"},{"inputs":[],"name":"InvalidTokenContract","type":"error"},{"inputs":[],"name":"OnlyOwnerMustSetDefaultToken","type":"error"},{"inputs":[],"name":"OrderLimitReachedTryLater","type":"error"},{"inputs":[{"internalType":"uint256","name":"x","type":"uint256"},{"internalType":"uint256","name":"y","type":"uint256"},{"internalType":"uint256","name":"denominator","type":"uint256"}],"name":"PRBMath_MulDiv_Overflow","type":"error"},{"inputs":[],"name":"ParityShouldNotHavePrice","type":"error"},{"inputs":[{"internalType":"address","name":"contractAddr","type":"address"}],"name":"TokenAlreadyExists","type":"error"},{"inputs":[],"name":"TokenLimitReached","type":"error"},{"inputs":[],"name":"TokenNotListed","type":"error"},{"inputs":[],"name":"TokenNotSupported_TooManyDecimals","type":"error"},{"inputs":[{"internalType":"address","name":"account","type":"address"}],"name":"UnauthorizedAccount","type":"error"},{"inputs":[{"internalType":"address","name":"tokenAddr","type":"address"}],"name":"createBuyOrder","outputs":[],"stateMutability":"payable","type":"function"},{"inputs":[{"internalType":"address","name":"tokenAddr","type":"address"},{"internalType":"uint256","name":"amount","type":"uint256"}],"name":"createSellOrder","outputs":[],"stateMutability":"nonpayable","type":"function"},{"inputs":[{"internalType":"address","name":"tokenAddr","type":"address"}],"name":"deposit","outputs":[],"stateMutability":"payable","type":"function"},{"inputs":[{"internalType":"address","name":"tokenAddr","type":"address"},{"internalType":"address","name":"fromAddress","type":"address"},{"internalType":"uint256","name":"amount","type":"uint256"}],"name":"depositToken","outputs":[],"stateMutability":"nonpayable","type":"function"},{"inputs":[],"name":"getBalance","outputs":[{"internalType":"uint256","name":"","type":"uint256"}],"stateMutability":"view","type":"function"},{"inputs":[{"internalType":"address","name":"tokenAddr","type":"address"},{"internalType":"enum DexhuneExchangeBase.PricingScheme","name":"scheme","type":"uint8"},{"internalType":"uint256","name":"reward","type":"uint256"},{"internalType":"uint256","name":"rewardThreshold","type":"uint256"},{"internalType":"address","name":"parityAddr","type":"address"},{"internalType":"string","name":"price","type":"string"}],"name":"listToken","outputs":[],"stateMutability":"nonpayable","type":"function"},{"inputs":[{"internalType":"address","name":"tokenAddr","type":"address"},{"internalType":"bool","name":"isAVAX","type":"bool"}],"name":"queryBalance","outputs":[{"internalType":"uint256","name":"","type":"uint256"}],"stateMutability":"view","type":"function"},{"inputs":[{"internalType":"address","name":"tokenAddr","type":"address"},{"internalType":"bool","name":"orderType","type":"bool"}],"name":"settleOrders","outputs":[],"stateMutability":"nonpayable","type":"function"},{"inputs":[{"internalType":"address","name":"tokenAddr","type":"address"}],"name":"viewToken","outputs":[{"components":[{"internalType":"uint256","name":"tokenNo","type":"uint256"},{"internalType":"string","name":"name","type":"string"},{"internalType":"string","name":"sym","type":"string"},{"internalType":"address","name":"addr","type":"address"},{"internalType":"address","name":"parityAddr","type":"address"},{"internalType":"uint256","name":"reward","type":"uint256"},{"internalType":"uint256","name":"rewardThreshold","type":"uint256"},{"internalType":"enum DexhuneExchangeBase.PricingScheme","name":"scheme","type":"uint8"},{"internalType":"uint256","name":"price","type":"uint256"},{"internalType":"uint256","name":"orders","type":"uint256"}],"internalType":"struct DexhuneExchangeBase.TokenDataModel","name":"","type":"tuple"}],"stateMutability":"view","type":"function"},{"inputs":[{"internalType":"uint256","name":"tokenNo","type":"uint256"}],"name":"viewToken","outputs":[{"components":[{"internalType":"uint256","name":"tokenNo","type":"uint256"},{"internalType":"string","name":"name","type":"string"},{"internalType":"string","name":"sym","type":"string"},{"internalType":"address","name":"addr","type":"address"},{"internalType":"address","name":"parityAddr","type":"address"},{"internalType":"uint256","name":"reward","type":"uint256"},{"internalType":"uint256","name":"rewardThreshold","type":"uint256"},{"internalType":"enum DexhuneExchangeBase.PricingScheme","name":"scheme","type":"uint8"},{"internalType":"uint256","name":"price","type":"uint256"},{"internalType":"uint256","name":"orders","type":"uint256"}],"internalType":"struct DexhuneExchangeBase.TokenDataModel","name":"","type":"tuple"}],"stateMutability":"view","type":"function"}],"evm":{"bytecode":{"linkReferences":{},"object":"60806040526103e8600a5534801561001657600080fd5b5033600560006101000a81548173ffffffffffffffffffffffffffffffffffffffff021916908373ffffffffffffffffffffffffffffffffffffffff16021790555061371b806100676000396000f3fe6080604052600436106100915760003560e01c8063a262b73f11610059578063a262b73f146101a1578063c201e47c146101ca578063d2980065146101f3578063f340fa011461020f578063fb0f97a81461022b57610091565b806312065fe0146100965780633b174f0f146100c1578063673cf82a146100fe5780638334d1951461013b57806392e6b82914610178575b600080fd5b3480156100a257600080fd5b506100ab610254565b6040516100b891906126db565b60405180910390f35b3480156100cd57600080fd5b506100e860048036038101906100e391906127a0565b61025c565b6040516100f591906126db565b60405180910390f35b34801561010a57600080fd5b50610125600480360381019061012091906127e0565b61028e565b6040516101329190612a13565b60405180910390f35b34801561014757600080fd5b50610162600480360381019061015d9190612a61565b610325565b60405161016f9190612a13565b60405180910390f35b34801561018457600080fd5b5061019f600480360381019061019a9190612be8565b61037b565b005b3480156101ad57600080fd5b506101c860048036038101906101c39190612c91565b610a96565b005b3480156101d657600080fd5b506101f160048036038101906101ec91906127a0565b610ab4565b005b61020d600480360381019061020891906127e0565b610f0c565b005b610229600480360381019061022491906127e0565b610f2f565b005b34801561023757600080fd5b50610252600480360381019061024d9190612cd1565b610f60565b005b600047905090565b60008061026884610fd2565b9050821561027e57806101400151915050610288565b8061016001519150505b92915050565b610296612533565b6000600260008473ffffffffffffffffffffffffffffffffffffffff1673ffffffffffffffffffffffffffffffffffffffff16815260200190815260200160002054905060008103610314576040517fc5f0a1ee00000000000000000000000000000000000000000000000000000000815260040160405180910390fd5b61031d81611308565b915050919050565b61032d612533565b600080549050821061036b576040517fc5f0a1ee00000000000000000000000000000000000000000000000000000000815260040160405180910390fd5b61037482611308565b9050919050565b600080805490500361040f57600560009054906101000a900473ffffffffffffffffffffffffffffffffffffffff1673ffffffffffffffffffffffffffffffffffffffff163373ffffffffffffffffffffffffffffffffffffffff161461040e576040517fac966a5200000000000000000000000000000000000000000000000000000000815260040160405180910390fd5b5b60008690506000600260008373ffffffffffffffffffffffffffffffffffffffff1673ffffffffffffffffffffffffffffffffffffffff1681526020019081526020016000205490506000811415801561046d575060008080549050115b156104af57816040517f15ef3a570000000000000000000000000000000000000000000000000000000081526004016104a69190612d33565b60405180910390fd5b620f4240600080549050106104f0576040517f53bb24f900000000000000000000000000000000000000000000000000000000815260040160405180910390fd5b600082905060006060808373ffffffffffffffffffffffffffffffffffffffff166370a08231600560009054906101000a900473ffffffffffffffffffffffffffffffffffffffff166040518263ffffffff1660e01b81526004016105559190612d33565b602060405180830381865afa92505050801561058f57506040513d601f19601f8201168201806040525081019061058c9190612d63565b60015b6105c5576040517f29bdfb3400000000000000000000000000000000000000000000000000000000815260040160405180910390fd5b508373ffffffffffffffffffffffffffffffffffffffff1663313ce5676040518163ffffffff1660e01b8152600401602060405180830381865afa92505050801561062e57506040513d601f19601f8201168201806040525081019061062b9190612dc9565b60015b61063b5760129250610640565b809350505b601260ff168360ff161115610681576040517f432c0a5d00000000000000000000000000000000000000000000000000000000815260040160405180910390fd5b8373ffffffffffffffffffffffffffffffffffffffff166306fdde036040518163ffffffff1660e01b8152600401600060405180830381865afa9250505080156106ee57506040513d6000823e3d601f19601f820116820180604052508101906106eb9190612e66565b60015b156106f857809250505b8373ffffffffffffffffffffffffffffffffffffffff166395d89b416040518163ffffffff1660e01b8152600401600060405180830381865afa92505050801561076557506040513d6000823e3d601f19601f820116820180604052508101906107629190612e66565b60015b1561076f57809150505b600061077d8460ff166116a9565b9050600061078a896116cb565b9050600073ffffffffffffffffffffffffffffffffffffffff168a73ffffffffffffffffffffffffffffffffffffffff16141580156107c95750600081115b15610800576040517f4f7af06a00000000000000000000000000000000000000000000000000000000815260040160405180910390fd5b61080861171e565b6000604051806101a001604052808681526020018581526020018760ff1681526020018481526020018a73ffffffffffffffffffffffffffffffffffffffff1681526020018c73ffffffffffffffffffffffffffffffffffffffff1681526020018f600181111561087c5761087b6128bb565b5b81526020018e81526020018d815260200183815260200160008152602001600081526020016000815250905060008190806001815401808255809150506001900390600052602060002090600c020160009091909190915060008201518160000190816108e991906130bb565b5060208201518160010190816108ff91906130bb565b5060408201518160020160006101000a81548160ff021916908360ff1602179055506060820151816003015560808201518160040160006101000a81548173ffffffffffffffffffffffffffffffffffffffff021916908373ffffffffffffffffffffffffffffffffffffffff16021790555060a08201518160050160006101000a81548173ffffffffffffffffffffffffffffffffffffffff021916908373ffffffffffffffffffffffffffffffffffffffff16021790555060c08201518160050160146101000a81548160ff021916908360018111156109e4576109e36128bb565b5b021790555060e0820151816006015561010082015181600701556101208201518160080155610140820151816009015561016082015181600a015561018082015181600b015550506001600080549050610a3e91906131bc565b60026000836080015173ffffffffffffffffffffffffffffffffffffffff1673ffffffffffffffffffffffffffffffffffffffff16815260200190815260200160002081905550505050505050505050505050505050565b6000610aa183610fd2565b9050610aaf81600084611a4f565b505050565b6000610abf83610fd2565b9050600060036000836080015173ffffffffffffffffffffffffffffffffffffffff1673ffffffffffffffffffffffffffffffffffffffff1681526020019081526020016000209050610b106125c4565b60008085610b2357846101400151610b2a565b8461016001515b9050600060018580549050610b3f91906131bc565b90505b600082118015610b53575060008110155b15610f02576000858281548110610b6d57610b6c6131f0565b5b9060005260206000200154905060018181548110610b8e57610b8d6131f0565b5b90600052602060002090600602016040518060e00160405290816000820160009054906101000a900473ffffffffffffffffffffffffffffffffffffffff1673ffffffffffffffffffffffffffffffffffffffff1673ffffffffffffffffffffffffffffffffffffffff1681526020016000820160149054906101000a900460ff161515151581526020016001820154815260200160028201548152602001600382015481526020016004820154815260200160058201548152505094508715158560200151151514610c615750610eef565b8715610c7f57610c72878685611ebb565b8094508195505050610c92565b610c898584611f99565b80945081955050505b83610c9d5750610eef565b60018680549050610cae91906131bc565b8214610d04578560018780549050610cc691906131bc565b81548110610cd757610cd66131f0565b5b9060005260206000200154868381548110610cf557610cf46131f0565b5b90600052602060002001819055505b60018080549050610d1591906131bc565b8114610e38576001808080549050610d2d91906131bc565b81548110610d3e57610d3d6131f0565b5b906000526020600020906006020160018281548110610d6057610d5f6131f0565b5b90600052602060002090600602016000820160009054906101000a900473ffffffffffffffffffffffffffffffffffffffff168160000160006101000a81548173ffffffffffffffffffffffffffffffffffffffff021916908373ffffffffffffffffffffffffffffffffffffffff1602179055506000820160149054906101000a900460ff168160000160146101000a81548160ff02191690831515021790555060018201548160010155600282015481600201556003820154816003015560048201548160040155600582015481600501559050505b85805480610e4957610e4861321f565b5b600190038181906000526020600020016000905590556001805480610e7157610e7061321f565b5b6001900381819060005260206000209060060201600080820160006101000a81549073ffffffffffffffffffffffffffffffffffffffff02191690556000820160146101000a81549060ff02191690556001820160009055600282016000905560038201600090556004820160009055600582016000905550509055505b8080610efa9061324e565b915050610b42565b5050505050505050565b60003490506000610f1c83610fd2565b9050610f2a81600184611a4f565b505050565b6000610f3a82610fd2565b90506000349050808261014001818151610f549190613277565b91508181525050505050565b6000610f6b84610fd2565b9050610f7c81608001518484611ffe565b610fb2576040517f79cacff100000000000000000000000000000000000000000000000000000000815260040160405180910390fd5b818161016001818151610fc59190613277565b9150818152505050505050565b610fda612619565b6000600260008473ffffffffffffffffffffffffffffffffffffffff1673ffffffffffffffffffffffffffffffffffffffff16815260200190815260200160002054905060008103611058576040517fc5f0a1ee00000000000000000000000000000000000000000000000000000000815260040160405180910390fd5b600060018261106791906131bc565b81548110611078576110776131f0565b5b90600052602060002090600c0201604051806101a00160405290816000820180546110a290612ede565b80601f01602080910402602001604051908101604052809291908181526020018280546110ce90612ede565b801561111b5780601f106110f05761010080835404028352916020019161111b565b820191906000526020600020905b8154815290600101906020018083116110fe57829003601f168201915b5050505050815260200160018201805461113490612ede565b80601f016020809104026020016040519081016040528092919081815260200182805461116090612ede565b80156111ad5780601f10611182576101008083540402835291602001916111ad565b820191906000526020600020905b81548152906001019060200180831161119057829003601f168201915b505050505081526020016002820160009054906101000a900460ff1660ff1660ff168152602001600382015481526020016004820160009054906101000a900473ffffffffffffffffffffffffffffffffffffffff1673ffffffffffffffffffffffffffffffffffffffff1673ffffffffffffffffffffffffffffffffffffffff1681526020016005820160009054906101000a900473ffffffffffffffffffffffffffffffffffffffff1673ffffffffffffffffffffffffffffffffffffffff1673ffffffffffffffffffffffffffffffffffffffff1681526020016005820160149054906101000a900460ff1660018111156112ae576112ad6128bb565b5b60018111156112c0576112bf6128bb565b5b815260200160068201548152602001600782015481526020016008820154815260200160098201548152602001600a8201548152602001600b82015481525050915050919050565b611310612533565b6000808381548110611325576113246131f0565b5b90600052602060002090600c0201604051806101a001604052908160008201805461134f90612ede565b80601f016020809104026020016040519081016040528092919081815260200182805461137b90612ede565b80156113c85780601f1061139d576101008083540402835291602001916113c8565b820191906000526020600020905b8154815290600101906020018083116113ab57829003601f168201915b505050505081526020016001820180546113e190612ede565b80601f016020809104026020016040519081016040528092919081815260200182805461140d90612ede565b801561145a5780601f1061142f5761010080835404028352916020019161145a565b820191906000526020600020905b81548152906001019060200180831161143d57829003601f168201915b505050505081526020016002820160009054906101000a900460ff1660ff1660ff168152602001600382015481526020016004820160009054906101000a900473ffffffffffffffffffffffffffffffffffffffff1673ffffffffffffffffffffffffffffffffffffffff1673ffffffffffffffffffffffffffffffffffffffff1681526020016005820160009054906101000a900473ffffffffffffffffffffffffffffffffffffffff1673ffffffffffffffffffffffffffffffffffffffff1673ffffffffffffffffffffffffffffffffffffffff1681526020016005820160149054906101000a900460ff16600181111561155b5761155a6128bb565b5b600181111561156d5761156c6128bb565b5b815260200160068201548152602001600782015481526020016008820154815260200160098201548152602001600a8201548152602001600b820154815250509050600060036000836080015173ffffffffffffffffffffffffffffffffffffffff1673ffffffffffffffffffffffffffffffffffffffff1681526020019081526020016000208054905090506040518061014001604052808581526020018360000151815260200183602001518152602001836080015173ffffffffffffffffffffffffffffffffffffffff1681526020018360a0015173ffffffffffffffffffffffffffffffffffffffff1681526020018360e00151815260200183610100015181526020018360c00151600181111561168c5761168b6128bb565b5b815260200183610120015181526020018281525092505050919050565b6000601282036116bc57600190506116c6565b81601203600a0a90505b919050565b60008060006116d984612098565b9150915080611714576040517fe6f7d2c700000000000000000000000000000000000000000000000000000000815260040160405180910390fd5b8192505050919050565b600080600081548110611734576117336131f0565b5b90600052602060002090600c0201604051806101a001604052908160008201805461175e90612ede565b80601f016020809104026020016040519081016040528092919081815260200182805461178a90612ede565b80156117d75780601f106117ac576101008083540402835291602001916117d7565b820191906000526020600020905b8154815290600101906020018083116117ba57829003601f168201915b505050505081526020016001820180546117f090612ede565b80601f016020809104026020016040519081016040528092919081815260200182805461181c90612ede565b80156118695780601f1061183e57610100808354040283529160200191611869565b820191906000526020600020905b81548152906001019060200180831161184c57829003601f168201915b505050505081526020016002820160009054906101000a900460ff1660ff1660ff168152602001600382015481526020016004820160009054906101000a900473ffffffffffffffffffffffffffffffffffffffff1673ffffffffffffffffffffffffffffffffffffffff1673ffffffffffffffffffffffffffffffffffffffff1681526020016005820160009054906101000a900473ffffffffffffffffffffffffffffffffffffffff1673ffffffffffffffffffffffffffffffffffffffff1673ffffffffffffffffffffffffffffffffffffffff1681526020016005820160149054906101000a900460ff16600181111561196a576119696128bb565b5b600181111561197c5761197b6128bb565b5b815260200160068201548152602001600782015481526020016008820154815260200160098201548152602001600a8201548152602001600b8201548152505090506119cf816080015133600a54611ffe565b611a1257600a546040517fca114a02000000000000000000000000000000000000000000000000000000008152600401611a0991906126db565b60405180910390fd5b60006103e86005600a54611a2691906132ab565b611a30919061331c565b905080600a6000828254611a449190613277565b925050819055505050565b6000806001811115611a6457611a636128bb565b5b8460c001516001811115611a7b57611a7a6128bb565b5b03611aa057611a886121f1565b611a996008548561012001516122d8565b9050611c4c565b600180811115611ab357611ab26128bb565b5b8460c001516001811115611aca57611ac96128bb565b5b03611c4b57600060f085610180015142611ae491906131bc565b101590508015611c49576000856080015190506000600660009054906101000a900473ffffffffffffffffffffffffffffffffffffffff16905060008273ffffffffffffffffffffffffffffffffffffffff166370a082318960a001516040518263ffffffff1660e01b8152600401611b5d9190612d33565b602060405180830381865afa158015611b7a573d6000803e3d6000fd5b505050506040513d601f19601f82011682018060405250810190611b9e9190612d63565b905060008273ffffffffffffffffffffffffffffffffffffffff166370a082318a60a001516040518263ffffffff1660e01b8152600401611bdf9190612d33565b602060405180830381865afa158015611bfc573d6000803e3d6000fd5b505050506040513d601f19601f82011682018060405250810190611c209190612d63565b9050611c2c81836122d8565b955085896101200181815250504289610180018181525050505050505b505b5b600080611c6083876040015160ff1661230f565b90506000611c7285601260ff1661230f565b9050611c908183611c8391906132ab565b886040015160ff16612334565b925060008761010001518510611ca8578760e0015190505b60006040518060e001604052803373ffffffffffffffffffffffffffffffffffffffff1681526020018915158152602001428152602001838152602001878152602001888152602001868152509050600181908060018154018082558091505060019003906000526020600020906006020160009091909190915060008201518160000160006101000a81548173ffffffffffffffffffffffffffffffffffffffff021916908373ffffffffffffffffffffffffffffffffffffffff16021790555060208201518160000160146101000a81548160ff02191690831515021790555060408201518160010155606082015181600201556080820151816003015560a0820151816004015560c0820151816005015550506000600460003373ffffffffffffffffffffffffffffffffffffffff1673ffffffffffffffffffffffffffffffffffffffff16815260200190815260200160002090506000600360008c6080015173ffffffffffffffffffffffffffffffffffffffff1673ffffffffffffffffffffffffffffffffffffffff1681526020019081526020016000209050600060018080549050611e5b91906131bc565b90508281908060018154018082558091505060019003906000526020600020016000909190919091505581819080600181540180825580915050600190039060005260206000200160009091909190915055505050505050505050505050565b6000806000808560a00151851090508015611ed857849150611ee0565b8560a0015191505b6000876080015190508073ffffffffffffffffffffffffffffffffffffffff1663a9059cbb8860000151856040518363ffffffff1660e01b8152600401611f289291906133a2565b6020604051808303816000875af1925050508015611f6457506040513d601f19601f82011682018060405250810190611f6191906133e0565b60015b611f775760008694509450505050611f91565b508286611f8491906131bc565b9550811586945094505050505b935093915050565b6000806000808560a00151851090508015611fb657849150611fbe565b8560a0015191505b611fcc866000015183612359565b15611fed578185611fdd91906131bc565b9450600185935093505050611ff7565b6000859350935050505b9250929050565b6000808490508073ffffffffffffffffffffffffffffffffffffffff166323b872dd8530866040518463ffffffff1660e01b81526004016120419392919061340d565b6020604051808303816000875af192505050801561207d57506040513d601f19601f8201168201806040525081019061207a91906133e0565b60015b61208b576000915050612091565b80925050505b9392505050565b60008060008060008590506000806000806000905060005b8551811080156120be575083155b156121c2578581815181106120d6576120d56131f0565b5b602001015160f81c60f81b60f81c945060308560ff16101580156120fe575060398560ff1611155b1561217557869750821561211f57818061211790613444565b92505061212f565b600a8761212c91906132ab565b96505b81600a61213c91906135a0565b60308661214991906135eb565b60ff1661215691906132ab565b876121619190613277565b96508688111561217057600193505b6121af565b602e8560ff16036121ae57821561218b57600193505b600192506012915081600a6121a091906135a0565b876121ab91906132ab565b96505b5b80806121ba90613620565b9150506120b0565b50816121df57670de0b6b3a7640000866121dc91906132ab565b95505b85839850985050505050505050915091565b60f06009544261220191906131bc565b106122d657426009819055506000600760009054906101000a900473ffffffffffffffffffffffffffffffffffffffff16905060008173ffffffffffffffffffffffffffffffffffffffff166398d5fdca6040518163ffffffff1660e01b8152600401600060405180830381865afa158015612281573d6000803e3d6000fd5b505050506040513d6000823e3d601f19601f820116820180604052508101906122aa9190612e66565b90506000806122b883612098565b9150915080156122ca57816008819055505b42600981905550505050505b565b6000806122e4846123d0565b905060006122f1846123d0565b905061230561230083836123da565b61240f565b9250505092915050565b60006001821461232a57818361232591906132ab565b61232c565b825b905092915050565b60006001821461234f57818361234a919061331c565b612351565b825b905092915050565b6000808373ffffffffffffffffffffffffffffffffffffffff168360405161238090613699565b60006040518083038185875af1925050503d80600081146123bd576040519150601f19603f3d011682016040523d82523d6000602084013e6123c2565b606091505b505090508091505092915050565b6000819050919050565b60006124076124026123eb8561240f565b670de0b6b3a76400006123fd8661240f565b612419565b6123d0565b905092915050565b6000819050919050565b60008060008019858709858702925082811083820303915050600081036124545783828161244a576124496132ed565b5b049250505061252c565b83811061249c578585856040517f63a05778000000000000000000000000000000000000000000000000000000008152600401612493939291906136ae565b60405180910390fd5b60008486880990508281118203915080830392506000600186190186169050600081870496508185049450600182836000030401905080840285179450600060028860030218905080880260020381029050808802600203810290508088026002038102905080880260020381029050808802600203810290508088026002038102905080860296505050505050505b9392505050565b604051806101400160405280600081526020016060815260200160608152602001600073ffffffffffffffffffffffffffffffffffffffff168152602001600073ffffffffffffffffffffffffffffffffffffffff1681526020016000815260200160008152602001600060018111156125b0576125af6128bb565b5b815260200160008152602001600081525090565b6040518060e00160405280600073ffffffffffffffffffffffffffffffffffffffff16815260200160001515815260200160008152602001600081526020016000815260200160008152602001600081525090565b604051806101a001604052806060815260200160608152602001600060ff16815260200160008152602001600073ffffffffffffffffffffffffffffffffffffffff168152602001600073ffffffffffffffffffffffffffffffffffffffff16815260200160006001811115612692576126916128bb565b5b81526020016000815260200160008152602001600081526020016000815260200160008152602001600081525090565b6000819050919050565b6126d5816126c2565b82525050565b60006020820190506126f060008301846126cc565b92915050565b6000604051905090565b600080fd5b600080fd5b600073ffffffffffffffffffffffffffffffffffffffff82169050919050565b60006127358261270a565b9050919050565b6127458161272a565b811461275057600080fd5b50565b6000813590506127628161273c565b92915050565b60008115159050919050565b61277d81612768565b811461278857600080fd5b50565b60008135905061279a81612774565b92915050565b600080604083850312156127b7576127b6612700565b5b60006127c585828601612753565b92505060206127d68582860161278b565b9150509250929050565b6000602082840312156127f6576127f5612700565b5b600061280484828501612753565b91505092915050565b612816816126c2565b82525050565b600081519050919050565b600082825260208201905092915050565b60005b8381101561285657808201518184015260208101905061283b565b60008484015250505050565b6000601f19601f8301169050919050565b600061287e8261281c565b6128888185612827565b9350612898818560208601612838565b6128a181612862565b840191505092915050565b6128b58161272a565b82525050565b7f4e487b7100000000000000000000000000000000000000000000000000000000600052602160045260246000fd5b600281106128fb576128fa6128bb565b5b50565b600081905061290c826128ea565b919050565b600061291c826128fe565b9050919050565b61292c81612911565b82525050565b60006101408301600083015161294b600086018261280d565b50602083015184820360208601526129638282612873565b9150506040830151848203604086015261297d8282612873565b915050606083015161299260608601826128ac565b5060808301516129a560808601826128ac565b5060a08301516129b860a086018261280d565b5060c08301516129cb60c086018261280d565b5060e08301516129de60e0860182612923565b506101008301516129f361010086018261280d565b50610120830151612a0861012086018261280d565b508091505092915050565b60006020820190508181036000830152612a2d8184612932565b905092915050565b612a3e816126c2565b8114612a4957600080fd5b50565b600081359050612a5b81612a35565b92915050565b600060208284031215612a7757612a76612700565b5b6000612a8584828501612a4c565b91505092915050565b60028110612a9b57600080fd5b50565b600081359050612aad81612a8e565b92915050565b600080fd5b600080fd5b7f4e487b7100000000000000000000000000000000000000000000000000000000600052604160045260246000fd5b612af582612862565b810181811067ffffffffffffffff82111715612b1457612b13612abd565b5b80604052505050565b6000612b276126f6565b9050612b338282612aec565b919050565b600067ffffffffffffffff821115612b5357612b52612abd565b5b612b5c82612862565b9050602081019050919050565b82818337600083830152505050565b6000612b8b612b8684612b38565b612b1d565b905082815260208101848484011115612ba757612ba6612ab8565b5b612bb2848285612b69565b509392505050565b600082601f830112612bcf57612bce612ab3565b5b8135612bdf848260208601612b78565b91505092915050565b60008060008060008060c08789031215612c0557612c04612700565b5b6000612c1389828a01612753565b9650506020612c2489828a01612a9e565b9550506040612c3589828a01612a4c565b9450506060612c4689828a01612a4c565b9350506080612c5789828a01612753565b92505060a087013567ffffffffffffffff811115612c7857612c77612705565b5b612c8489828a01612bba565b9150509295509295509295565b60008060408385031215612ca857612ca7612700565b5b6000612cb685828601612753565b9250506020612cc785828601612a4c565b9150509250929050565b600080600060608486031215612cea57612ce9612700565b5b6000612cf886828701612753565b9350506020612d0986828701612753565b9250506040612d1a86828701612a4c565b9150509250925092565b612d2d8161272a565b82525050565b6000602082019050612d486000830184612d24565b92915050565b600081519050612d5d81612a35565b92915050565b600060208284031215612d7957612d78612700565b5b6000612d8784828501612d4e565b91505092915050565b600060ff82169050919050565b612da681612d90565b8114612db157600080fd5b50565b600081519050612dc381612d9d565b92915050565b600060208284031215612ddf57612dde612700565b5b6000612ded84828501612db4565b91505092915050565b6000612e09612e0484612b38565b612b1d565b905082815260208101848484011115612e2557612e24612ab8565b5b612e30848285612838565b509392505050565b600082601f830112612e4d57612e4c612ab3565b5b8151612e5d848260208601612df6565b91505092915050565b600060208284031215612e7c57612e7b612700565b5b600082015167ffffffffffffffff811115612e9a57612e99612705565b5b612ea684828501612e38565b91505092915050565b7f4e487b7100000000000000000000000000000000000000000000000000000000600052602260045260246000fd5b60006002820490506001821680612ef657607f821691505b602082108103612f0957612f08612eaf565b5b50919050565b60008190508160005260206000209050919050565b60006020601f8301049050919050565b600082821b905092915050565b600060088302612f717fffffffffffffffffffffffffffffffffffffffffffffffffffffffffffffffff82612f34565b612f7b8683612f34565b95508019841693508086168417925050509392505050565b6000819050919050565b6000612fb8612fb3612fae846126c2565b612f93565b6126c2565b9050919050565b6000819050919050565b612fd283612f9d565b612fe6612fde82612fbf565b848454612f41565b825550505050565b600090565b612ffb612fee565b613006818484612fc9565b505050565b5b8181101561302a5761301f600082612ff3565b60018101905061300c565b5050565b601f82111561306f5761304081612f0f565b61304984612f24565b81016020851015613058578190505b61306c61306485612f24565b83018261300b565b50505b505050565b600082821c905092915050565b600061309260001984600802613074565b1980831691505092915050565b60006130ab8383613081565b9150826002028217905092915050565b6130c48261281c565b67ffffffffffffffff8111156130dd576130dc612abd565b5b6130e78254612ede565b6130f282828561302e565b600060209050601f8311600181146131255760008415613113578287015190505b61311d858261309f565b865550613185565b601f19841661313386612f0f565b60005b8281101561315b57848901518255600182019150602085019450602081019050613136565b868310156131785784890151613174601f891682613081565b8355505b6001600288020188555050505b505050505050565b7f4e487b7100000000000000000000000000000000000000000000000000000000600052601160045260246000fd5b60006131c7826126c2565b91506131d2836126c2565b92508282039050818111156131ea576131e961318d565b5b92915050565b7f4e487b7100000000000000000000000000000000000000000000000000000000600052603260045260246000fd5b7f4e487b7100000000000000000000000000000000000000000000000000000000600052603160045260246000fd5b6000613259826126c2565b91506000820361326c5761326b61318d565b5b600182039050919050565b6000613282826126c2565b915061328d836126c2565b92508282019050808211156132a5576132a461318d565b5b92915050565b60006132b6826126c2565b91506132c1836126c2565b92508282026132cf816126c2565b915082820484148315176132e6576132e561318d565b5b5092915050565b7f4e487b7100000000000000000000000000000000000000000000000000000000600052601260045260246000fd5b6000613327826126c2565b9150613332836126c2565b925082613342576133416132ed565b5b828204905092915050565b600061336861336361335e8461270a565b612f93565b61270a565b9050919050565b600061337a8261334d565b9050919050565b600061338c8261336f565b9050919050565b61339c81613381565b82525050565b60006040820190506133b76000830185613393565b6133c460208301846126cc565b9392505050565b6000815190506133da81612774565b92915050565b6000602082840312156133f6576133f5612700565b5b6000613404848285016133cb565b91505092915050565b60006060820190506134226000830186612d24565b61342f6020830185612d24565b61343c60408301846126cc565b949350505050565b600061344f82612d90565b9150600082036134625761346161318d565b5b600182039050919050565b60008160011c9050919050565b6000808291508390505b60018511156134c4578086048111156134a05761349f61318d565b5b60018516156134af5780820291505b80810290506134bd8561346d565b9450613484565b94509492505050565b6000826134dd5760019050613599565b816134eb5760009050613599565b8160018114613501576002811461350b5761353a565b6001915050613599565b60ff84111561351d5761351c61318d565b5b8360020a9150848211156135345761353361318d565b5b50613599565b5060208310610133831016604e8410600b841016171561356f5782820a90508381111561356a5761356961318d565b5b613599565b61357c848484600161347a565b925090508184048111156135935761359261318d565b5b81810290505b9392505050565b60006135ab826126c2565b91506135b683612d90565b92506135e37fffffffffffffffffffffffffffffffffffffffffffffffffffffffffffffffff84846134cd565b905092915050565b60006135f682612d90565b915061360183612d90565b9250828203905060ff81111561361a5761361961318d565b5b92915050565b600061362b826126c2565b91507fffffffffffffffffffffffffffffffffffffffffffffffffffffffffffffffff820361365d5761365c61318d565b5b600182019050919050565b600081905092915050565b50565b6000613683600083613668565b915061368e82613673565b600082019050919050565b60006136a482613676565b9150819050919050565b60006060820190506136c360008301866126cc565b6136d060208301856126cc565b6136dd60408301846126cc565b94935050505056fea26469706673582212206392ebc815cda396f6bea7a1b1d3b592603022a275fbfdd38ba4f7e70d42b0a364736f6c63430008150033","opcodes":"PUSH1 0x80 PUSH1 0x40 MSTORE PUSH2 0x3E8 PUSH1 0xA SSTORE CALLVALUE DUP1 ISZERO PUSH2 0x16 JUMPI PUSH1 0x0 DUP1 REVERT JUMPDEST POP CALLER PUSH1 0x5 PUSH1 0x0 PUSH2 0x100 EXP DUP2 SLOAD DUP2 PUSH20 0xFFFFFFFFFFFFFFFFFFFFFFFFFFFFFFFFFFFFFFFF MUL NOT AND SWAP1 DUP4 PUSH20 0xFFFFFFFFFFFFFFFFFFFFFFFFFFFFFFFFFFFFFFFF AND MUL OR SWAP1 SSTORE POP PUSH2 0x371B DUP1 PUSH2 0x67 PUSH1 0x0 CODECOPY PUSH1 0x0 RETURN INVALID PUSH1 0x80 PUSH1 0x40 MSTORE PUSH1 0x4 CALLDATASIZE LT PUSH2 0x91 JUMPI PUSH1 0x0 CALLDATALOAD PUSH1 0xE0 SHR DUP1 PUSH4 0xA262B73F GT PUSH2 0x59 JUMPI DUP1 PUSH4 0xA262B73F EQ PUSH2 0x1A1 JUMPI DUP1 PUSH4 0xC201E47C EQ PUSH2 0x1CA JUMPI DUP1 PUSH4 0xD2980065 EQ PUSH2 0x1F3 JUMPI DUP1 PUSH4 0xF340FA01 EQ PUSH2 0x20F JUMPI DUP1 PUSH4 0xFB0F97A8 EQ PUSH2 0x22B JUMPI PUSH2 0x91 JUMP JUMPDEST DUP1 PUSH4 0x12065FE0 EQ PUSH2 0x96 JUMPI DUP1 PUSH4 0x3B174F0F EQ PUSH2 0xC1 JUMPI DUP1 PUSH4 0x673CF82A EQ PUSH2 0xFE JUMPI DUP1 PUSH4 0x8334D195 EQ PUSH2 0x13B JUMPI DUP1 PUSH4 0x92E6B829 EQ PUSH2 0x178 JUMPI JUMPDEST PUSH1 0x0 DUP1 REVERT JUMPDEST CALLVALUE DUP1 ISZERO PUSH2 0xA2 JUMPI PUSH1 0x0 DUP1 REVERT JUMPDEST POP PUSH2 0xAB PUSH2 0x254 JUMP JUMPDEST PUSH1 0x40 MLOAD PUSH2 0xB8 SWAP2 SWAP1 PUSH2 0x26DB JUMP JUMPDEST PUSH1 0x40 MLOAD DUP1 SWAP2 SUB SWAP1 RETURN JUMPDEST CALLVALUE DUP1 ISZERO PUSH2 0xCD JUMPI PUSH1 0x0 DUP1 REVERT JUMPDEST POP PUSH2 0xE8 PUSH1 0x4 DUP1 CALLDATASIZE SUB DUP2 ADD SWAP1 PUSH2 0xE3 SWAP2 SWAP1 PUSH2 0x27A0 JUMP JUMPDEST PUSH2 0x25C JUMP JUMPDEST PUSH1 0x40 MLOAD PUSH2 0xF5 SWAP2 SWAP1 PUSH2 0x26DB JUMP JUMPDEST PUSH1 0x40 MLOAD DUP1 SWAP2 SUB SWAP1 RETURN JUMPDEST CALLVALUE DUP1 ISZERO PUSH2 0x10A JUMPI PUSH1 0x0 DUP1 REVERT JUMPDEST POP PUSH2 0x125 PUSH1 0x4 DUP1 CALLDATASIZE SUB DUP2 ADD SWAP1 PUSH2 0x120 SWAP2 SWAP1 PUSH2 0x27E0 JUMP JUMPDEST PUSH2 0x28E JUMP JUMPDEST PUSH1 0x40 MLOAD PUSH2 0x132 SWAP2 SWAP1 PUSH2 0x2A13 JUMP JUMPDEST PUSH1 0x40 MLOAD DUP1 SWAP2 SUB SWAP1 RETURN JUMPDEST CALLVALUE DUP1 ISZERO PUSH2 0x147 JUMPI PUSH1 0x0 DUP1 REVERT JUMPDEST POP PUSH2 0x162 PUSH1 0x4 DUP1 CALLDATASIZE SUB DUP2 ADD SWAP1 PUSH2 0x15D SWAP2 SWAP1 PUSH2 0x2A61 JUMP JUMPDEST PUSH2 0x325 JUMP JUMPDEST PUSH1 0x40 MLOAD PUSH2 0x16F SWAP2 SWAP1 PUSH2 0x2A13 JUMP JUMPDEST PUSH1 0x40 MLOAD DUP1 SWAP2 SUB SWAP1 RETURN JUMPDEST CALLVALUE DUP1 ISZERO PUSH2 0x184 JUMPI PUSH1 0x0 DUP1 REVERT JUMPDEST POP PUSH2 0x19F PUSH1 0x4 DUP1 CALLDATASIZE SUB DUP2 ADD SWAP1 PUSH2 0x19A SWAP2 SWAP1 PUSH2 0x2BE8 JUMP JUMPDEST PUSH2 0x37B JUMP JUMPDEST STOP JUMPDEST CALLVALUE DUP1 ISZERO PUSH2 0x1AD JUMPI PUSH1 0x0 DUP1 REVERT JUMPDEST POP PUSH2 0x1C8 PUSH1 0x4 DUP1 CALLDATASIZE SUB DUP2 ADD SWAP1 PUSH2 0x1C3 SWAP2 SWAP1 PUSH2 0x2C91 JUMP JUMPDEST PUSH2 0xA96 JUMP JUMPDEST STOP JUMPDEST CALLVALUE DUP1 ISZERO PUSH2 0x1D6 JUMPI PUSH1 0x0 DUP1 REVERT JUMPDEST POP PUSH2 0x1F1 PUSH1 0x4 DUP1 CALLDATASIZE SUB DUP2 ADD SWAP1 PUSH2 0x1EC SWAP2 SWAP1 PUSH2 0x27A0 JUMP JUMPDEST PUSH2 0xAB4 JUMP JUMPDEST STOP JUMPDEST PUSH2 0x20D PUSH1 0x4 DUP1 CALLDATASIZE SUB DUP2 ADD SWAP1 PUSH2 0x208 SWAP2 SWAP1 PUSH2 0x27E0 JUMP JUMPDEST PUSH2 0xF0C JUMP JUMPDEST STOP JUMPDEST PUSH2 0x229 PUSH1 0x4 DUP1 CALLDATASIZE SUB DUP2 ADD SWAP1 PUSH2 0x224 SWAP2 SWAP1 PUSH2 0x27E0 JUMP JUMPDEST PUSH2 0xF2F JUMP JUMPDEST STOP JUMPDEST CALLVALUE DUP1 ISZERO PUSH2 0x237 JUMPI PUSH1 0x0 DUP1 REVERT JUMPDEST POP PUSH2 0x252 PUSH1 0x4 DUP1 CALLDATASIZE SUB DUP2 ADD SWAP1 PUSH2 0x24D SWAP2 SWAP1 PUSH2 0x2CD1 JUMP JUMPDEST PUSH2 0xF60 JUMP JUMPDEST STOP JUMPDEST PUSH1 0x0 SELFBALANCE SWAP1 POP SWAP1 JUMP JUMPDEST PUSH1 0x0 DUP1 PUSH2 0x268 DUP5 PUSH2 0xFD2 JUMP JUMPDEST SWAP1 POP DUP3 ISZERO PUSH2 0x27E JUMPI DUP1 PUSH2 0x140 ADD MLOAD SWAP2 POP POP PUSH2 0x288 JUMP JUMPDEST DUP1 PUSH2 0x160 ADD MLOAD SWAP2 POP POP JUMPDEST SWAP3 SWAP2 POP POP JUMP JUMPDEST PUSH2 0x296 PUSH2 0x2533 JUMP JUMPDEST PUSH1 0x0 PUSH1 0x2 PUSH1 0x0 DUP5 PUSH20 0xFFFFFFFFFFFFFFFFFFFFFFFFFFFFFFFFFFFFFFFF AND PUSH20 0xFFFFFFFFFFFFFFFFFFFFFFFFFFFFFFFFFFFFFFFF AND DUP2 MSTORE PUSH1 0x20 ADD SWAP1 DUP2 MSTORE PUSH1 0x20 ADD PUSH1 0x0 KECCAK256 SLOAD SWAP1 POP PUSH1 0x0 DUP2 SUB PUSH2 0x314 JUMPI PUSH1 0x40 MLOAD PUSH32 0xC5F0A1EE00000000000000000000000000000000000000000000000000000000 DUP2 MSTORE PUSH1 0x4 ADD PUSH1 0x40 MLOAD DUP1 SWAP2 SUB SWAP1 REVERT JUMPDEST PUSH2 0x31D DUP2 PUSH2 0x1308 JUMP JUMPDEST SWAP2 POP POP SWAP2 SWAP1 POP JUMP JUMPDEST PUSH2 0x32D PUSH2 0x2533 JUMP JUMPDEST PUSH1 0x0 DUP1 SLOAD SWAP1 POP DUP3 LT PUSH2 0x36B JUMPI PUSH1 0x40 MLOAD PUSH32 0xC5F0A1EE00000000000000000000000000000000000000000000000000000000 DUP2 MSTORE PUSH1 0x4 ADD PUSH1 0x40 MLOAD DUP1 SWAP2 SUB SWAP1 REVERT JUMPDEST PUSH2 0x374 DUP3 PUSH2 0x1308 JUMP JUMPDEST SWAP1 POP SWAP2 SWAP1 POP JUMP JUMPDEST PUSH1 0x0 DUP1 DUP1 SLOAD SWAP1 POP SUB PUSH2 0x40F JUMPI PUSH1 0x5 PUSH1 0x0 SWAP1 SLOAD SWAP1 PUSH2 0x100 EXP SWAP1 DIV PUSH20 0xFFFFFFFFFFFFFFFFFFFFFFFFFFFFFFFFFFFFFFFF AND PUSH20 0xFFFFFFFFFFFFFFFFFFFFFFFFFFFFFFFFFFFFFFFF AND CALLER PUSH20 0xFFFFFFFFFFFFFFFFFFFFFFFFFFFFFFFFFFFFFFFF AND EQ PUSH2 0x40E JUMPI PUSH1 0x40 MLOAD PUSH32 0xAC966A5200000000000000000000000000000000000000000000000000000000 DUP2 MSTORE PUSH1 0x4 ADD PUSH1 0x40 MLOAD DUP1 SWAP2 SUB SWAP1 REVERT JUMPDEST JUMPDEST PUSH1 0x0 DUP7 SWAP1 POP PUSH1 0x0 PUSH1 0x2 PUSH1 0x0 DUP4 PUSH20 0xFFFFFFFFFFFFFFFFFFFFFFFFFFFFFFFFFFFFFFFF AND PUSH20 0xFFFFFFFFFFFFFFFFFFFFFFFFFFFFFFFFFFFFFFFF AND DUP2 MSTORE PUSH1 0x20 ADD SWAP1 DUP2 MSTORE PUSH1 0x20 ADD PUSH1 0x0 KECCAK256 SLOAD SWAP1 POP PUSH1 0x0 DUP2 EQ ISZERO DUP1 ISZERO PUSH2 0x46D JUMPI POP PUSH1 0x0 DUP1 DUP1 SLOAD SWAP1 POP GT JUMPDEST ISZERO PUSH2 0x4AF JUMPI DUP2 PUSH1 0x40 MLOAD PUSH32 0x15EF3A5700000000000000000000000000000000000000000000000000000000 DUP2 MSTORE PUSH1 0x4 ADD PUSH2 0x4A6 SWAP2 SWAP1 PUSH2 0x2D33 JUMP JUMPDEST PUSH1 0x40 MLOAD DUP1 SWAP2 SUB SWAP1 REVERT JUMPDEST PUSH3 0xF4240 PUSH1 0x0 DUP1 SLOAD SWAP1 POP LT PUSH2 0x4F0 JUMPI PUSH1 0x40 MLOAD PUSH32 0x53BB24F900000000000000000000000000000000000000000000000000000000 DUP2 MSTORE PUSH1 0x4 ADD PUSH1 0x40 MLOAD DUP1 SWAP2 SUB SWAP1 REVERT JUMPDEST PUSH1 0x0 DUP3 SWAP1 POP PUSH1 0x0 PUSH1 0x60 DUP1 DUP4 PUSH20 0xFFFFFFFFFFFFFFFFFFFFFFFFFFFFFFFFFFFFFFFF AND PUSH4 0x70A08231 PUSH1 0x5 PUSH1 0x0 SWAP1 SLOAD SWAP1 PUSH2 0x100 EXP SWAP1 DIV PUSH20 0xFFFFFFFFFFFFFFFFFFFFFFFFFFFFFFFFFFFFFFFF AND PUSH1 0x40 MLOAD DUP3 PUSH4 0xFFFFFFFF AND PUSH1 0xE0 SHL DUP2 MSTORE PUSH1 0x4 ADD PUSH2 0x555 SWAP2 SWAP1 PUSH2 0x2D33 JUMP JUMPDEST PUSH1 0x20 PUSH1 0x40 MLOAD DUP1 DUP4 SUB DUP2 DUP7 GAS STATICCALL SWAP3 POP POP POP DUP1 ISZERO PUSH2 0x58F JUMPI POP PUSH1 0x40 MLOAD RETURNDATASIZE PUSH1 0x1F NOT PUSH1 0x1F DUP3 ADD AND DUP3 ADD DUP1 PUSH1 0x40 MSTORE POP DUP2 ADD SWAP1 PUSH2 0x58C SWAP2 SWAP1 PUSH2 0x2D63 JUMP JUMPDEST PUSH1 0x1 JUMPDEST PUSH2 0x5C5 JUMPI PUSH1 0x40 MLOAD PUSH32 0x29BDFB3400000000000000000000000000000000000000000000000000000000 DUP2 MSTORE PUSH1 0x4 ADD PUSH1 0x40 MLOAD DUP1 SWAP2 SUB SWAP1 REVERT JUMPDEST POP DUP4 PUSH20 0xFFFFFFFFFFFFFFFFFFFFFFFFFFFFFFFFFFFFFFFF AND PUSH4 0x313CE567 PUSH1 0x40 MLOAD DUP2 PUSH4 0xFFFFFFFF AND PUSH1 0xE0 SHL DUP2 MSTORE PUSH1 0x4 ADD PUSH1 0x20 PUSH1 0x40 MLOAD DUP1 DUP4 SUB DUP2 DUP7 GAS STATICCALL SWAP3 POP POP POP DUP1 ISZERO PUSH2 0x62E JUMPI POP PUSH1 0x40 MLOAD RETURNDATASIZE PUSH1 0x1F NOT PUSH1 0x1F DUP3 ADD AND DUP3 ADD DUP1 PUSH1 0x40 MSTORE POP DUP2 ADD SWAP1 PUSH2 0x62B SWAP2 SWAP1 PUSH2 0x2DC9 JUMP JUMPDEST PUSH1 0x1 JUMPDEST PUSH2 0x63B JUMPI PUSH1 0x12 SWAP3 POP PUSH2 0x640 JUMP JUMPDEST DUP1 SWAP4 POP POP JUMPDEST PUSH1 0x12 PUSH1 0xFF AND DUP4 PUSH1 0xFF AND GT ISZERO PUSH2 0x681 JUMPI PUSH1 0x40 MLOAD PUSH32 0x432C0A5D00000000000000000000000000000000000000000000000000000000 DUP2 MSTORE PUSH1 0x4 ADD PUSH1 0x40 MLOAD DUP1 SWAP2 SUB SWAP1 REVERT JUMPDEST DUP4 PUSH20 0xFFFFFFFFFFFFFFFFFFFFFFFFFFFFFFFFFFFFFFFF AND PUSH4 0x6FDDE03 PUSH1 0x40 MLOAD DUP2 PUSH4 0xFFFFFFFF AND PUSH1 0xE0 SHL DUP2 MSTORE PUSH1 0x4 ADD PUSH1 0x0 PUSH1 0x40 MLOAD DUP1 DUP4 SUB DUP2 DUP7 GAS STATICCALL SWAP3 POP POP POP DUP1 ISZERO PUSH2 0x6EE JUMPI POP PUSH1 0x40 MLOAD RETURNDATASIZE PUSH1 0x0 DUP3 RETURNDATACOPY RETURNDATASIZE PUSH1 0x1F NOT PUSH1 0x1F DUP3 ADD AND DUP3 ADD DUP1 PUSH1 0x40 MSTORE POP DUP2 ADD SWAP1 PUSH2 0x6EB SWAP2 SWAP1 PUSH2 0x2E66 JUMP JUMPDEST PUSH1 0x1 JUMPDEST ISZERO PUSH2 0x6F8 JUMPI DUP1 SWAP3 POP POP JUMPDEST DUP4 PUSH20 0xFFFFFFFFFFFFFFFFFFFFFFFFFFFFFFFFFFFFFFFF AND PUSH4 0x95D89B41 PUSH1 0x40 MLOAD DUP2 PUSH4 0xFFFFFFFF AND PUSH1 0xE0 SHL DUP2 MSTORE PUSH1 0x4 ADD PUSH1 0x0 PUSH1 0x40 MLOAD DUP1 DUP4 SUB DUP2 DUP7 GAS STATICCALL SWAP3 POP POP POP DUP1 ISZERO PUSH2 0x765 JUMPI POP PUSH1 0x40 MLOAD RETURNDATASIZE PUSH1 0x0 DUP3 RETURNDATACOPY RETURNDATASIZE PUSH1 0x1F NOT PUSH1 0x1F DUP3 ADD AND DUP3 ADD DUP1 PUSH1 0x40 MSTORE POP DUP2 ADD SWAP1 PUSH2 0x762 SWAP2 SWAP1 PUSH2 0x2E66 JUMP JUMPDEST PUSH1 0x1 JUMPDEST ISZERO PUSH2 0x76F JUMPI DUP1 SWAP2 POP POP JUMPDEST PUSH1 0x0 PUSH2 0x77D DUP5 PUSH1 0xFF AND PUSH2 0x16A9 JUMP JUMPDEST SWAP1 POP PUSH1 0x0 PUSH2 0x78A DUP10 PUSH2 0x16CB JUMP JUMPDEST SWAP1 POP PUSH1 0x0 PUSH20 0xFFFFFFFFFFFFFFFFFFFFFFFFFFFFFFFFFFFFFFFF AND DUP11 PUSH20 0xFFFFFFFFFFFFFFFFFFFFFFFFFFFFFFFFFFFFFFFF AND EQ ISZERO DUP1 ISZERO PUSH2 0x7C9 JUMPI POP PUSH1 0x0 DUP2 GT JUMPDEST ISZERO PUSH2 0x800 JUMPI PUSH1 0x40 MLOAD PUSH32 0x4F7AF06A00000000000000000000000000000000000000000000000000000000 DUP2 MSTORE PUSH1 0x4 ADD PUSH1 0x40 MLOAD DUP1 SWAP2 SUB SWAP1 REVERT JUMPDEST PUSH2 0x808 PUSH2 0x171E JUMP JUMPDEST PUSH1 0x0 PUSH1 0x40 MLOAD DUP1 PUSH2 0x1A0 ADD PUSH1 0x40 MSTORE DUP1 DUP7 DUP2 MSTORE PUSH1 0x20 ADD DUP6 DUP2 MSTORE PUSH1 0x20 ADD DUP8 PUSH1 0xFF AND DUP2 MSTORE PUSH1 0x20 ADD DUP5 DUP2 MSTORE PUSH1 0x20 ADD DUP11 PUSH20 0xFFFFFFFFFFFFFFFFFFFFFFFFFFFFFFFFFFFFFFFF AND DUP2 MSTORE PUSH1 0x20 ADD DUP13 PUSH20 0xFFFFFFFFFFFFFFFFFFFFFFFFFFFFFFFFFFFFFFFF AND DUP2 MSTORE PUSH1 0x20 ADD DUP16 PUSH1 0x1 DUP2 GT ISZERO PUSH2 0x87C JUMPI PUSH2 0x87B PUSH2 0x28BB JUMP JUMPDEST JUMPDEST DUP2 MSTORE PUSH1 0x20 ADD DUP15 DUP2 MSTORE PUSH1 0x20 ADD DUP14 DUP2 MSTORE PUSH1 0x20 ADD DUP4 DUP2 MSTORE PUSH1 0x20 ADD PUSH1 0x0 DUP2 MSTORE PUSH1 0x20 ADD PUSH1 0x0 DUP2 MSTORE PUSH1 0x20 ADD PUSH1 0x0 DUP2 MSTORE POP SWAP1 POP PUSH1 0x0 DUP2 SWAP1 DUP1 PUSH1 0x1 DUP2 SLOAD ADD DUP1 DUP3 SSTORE DUP1 SWAP2 POP POP PUSH1 0x1 SWAP1 SUB SWAP1 PUSH1 0x0 MSTORE PUSH1 0x20 PUSH1 0x0 KECCAK256 SWAP1 PUSH1 0xC MUL ADD PUSH1 0x0 SWAP1 SWAP2 SWAP1 SWAP2 SWAP1 SWAP2 POP PUSH1 0x0 DUP3 ADD MLOAD DUP2 PUSH1 0x0 ADD SWAP1 DUP2 PUSH2 0x8E9 SWAP2 SWAP1 PUSH2 0x30BB JUMP JUMPDEST POP PUSH1 0x20 DUP3 ADD MLOAD DUP2 PUSH1 0x1 ADD SWAP1 DUP2 PUSH2 0x8FF SWAP2 SWAP1 PUSH2 0x30BB JUMP JUMPDEST POP PUSH1 0x40 DUP3 ADD MLOAD DUP2 PUSH1 0x2 ADD PUSH1 0x0 PUSH2 0x100 EXP DUP2 SLOAD DUP2 PUSH1 0xFF MUL NOT AND SWAP1 DUP4 PUSH1 0xFF AND MUL OR SWAP1 SSTORE POP PUSH1 0x60 DUP3 ADD MLOAD DUP2 PUSH1 0x3 ADD SSTORE PUSH1 0x80 DUP3 ADD MLOAD DUP2 PUSH1 0x4 ADD PUSH1 0x0 PUSH2 0x100 EXP DUP2 SLOAD DUP2 PUSH20 0xFFFFFFFFFFFFFFFFFFFFFFFFFFFFFFFFFFFFFFFF MUL NOT AND SWAP1 DUP4 PUSH20 0xFFFFFFFFFFFFFFFFFFFFFFFFFFFFFFFFFFFFFFFF AND MUL OR SWAP1 SSTORE POP PUSH1 0xA0 DUP3 ADD MLOAD DUP2 PUSH1 0x5 ADD PUSH1 0x0 PUSH2 0x100 EXP DUP2 SLOAD DUP2 PUSH20 0xFFFFFFFFFFFFFFFFFFFFFFFFFFFFFFFFFFFFFFFF MUL NOT AND SWAP1 DUP4 PUSH20 0xFFFFFFFFFFFFFFFFFFFFFFFFFFFFFFFFFFFFFFFF AND MUL OR SWAP1 SSTORE POP PUSH1 0xC0 DUP3 ADD MLOAD DUP2 PUSH1 0x5 ADD PUSH1 0x14 PUSH2 0x100 EXP DUP2 SLOAD DUP2 PUSH1 0xFF MUL NOT AND SWAP1 DUP4 PUSH1 0x1 DUP2 GT ISZERO PUSH2 0x9E4 JUMPI PUSH2 0x9E3 PUSH2 0x28BB JUMP JUMPDEST JUMPDEST MUL OR SWAP1 SSTORE POP PUSH1 0xE0 DUP3 ADD MLOAD DUP2 PUSH1 0x6 ADD SSTORE PUSH2 0x100 DUP3 ADD MLOAD DUP2 PUSH1 0x7 ADD SSTORE PUSH2 0x120 DUP3 ADD MLOAD DUP2 PUSH1 0x8 ADD SSTORE PUSH2 0x140 DUP3 ADD MLOAD DUP2 PUSH1 0x9 ADD SSTORE PUSH2 0x160 DUP3 ADD MLOAD DUP2 PUSH1 0xA ADD SSTORE PUSH2 0x180 DUP3 ADD MLOAD DUP2 PUSH1 0xB ADD SSTORE POP POP PUSH1 0x1 PUSH1 0x0 DUP1 SLOAD SWAP1 POP PUSH2 0xA3E SWAP2 SWAP1 PUSH2 0x31BC JUMP JUMPDEST PUSH1 0x2 PUSH1 0x0 DUP4 PUSH1 0x80 ADD MLOAD PUSH20 0xFFFFFFFFFFFFFFFFFFFFFFFFFFFFFFFFFFFFFFFF AND PUSH20 0xFFFFFFFFFFFFFFFFFFFFFFFFFFFFFFFFFFFFFFFF AND DUP2 MSTORE PUSH1 0x20 ADD SWAP1 DUP2 MSTORE PUSH1 0x20 ADD PUSH1 0x0 KECCAK256 DUP2 SWAP1 SSTORE POP POP POP POP POP POP POP POP POP POP POP POP POP POP POP POP JUMP JUMPDEST PUSH1 0x0 PUSH2 0xAA1 DUP4 PUSH2 0xFD2 JUMP JUMPDEST SWAP1 POP PUSH2 0xAAF DUP2 PUSH1 0x0 DUP5 PUSH2 0x1A4F JUMP JUMPDEST POP POP POP JUMP JUMPDEST PUSH1 0x0 PUSH2 0xABF DUP4 PUSH2 0xFD2 JUMP JUMPDEST SWAP1 POP PUSH1 0x0 PUSH1 0x3 PUSH1 0x0 DUP4 PUSH1 0x80 ADD MLOAD PUSH20 0xFFFFFFFFFFFFFFFFFFFFFFFFFFFFFFFFFFFFFFFF AND PUSH20 0xFFFFFFFFFFFFFFFFFFFFFFFFFFFFFFFFFFFFFFFF AND DUP2 MSTORE PUSH1 0x20 ADD SWAP1 DUP2 MSTORE PUSH1 0x20 ADD PUSH1 0x0 KECCAK256 SWAP1 POP PUSH2 0xB10 PUSH2 0x25C4 JUMP JUMPDEST PUSH1 0x0 DUP1 DUP6 PUSH2 0xB23 JUMPI DUP5 PUSH2 0x140 ADD MLOAD PUSH2 0xB2A JUMP JUMPDEST DUP5 PUSH2 0x160 ADD MLOAD JUMPDEST SWAP1 POP PUSH1 0x0 PUSH1 0x1 DUP6 DUP1 SLOAD SWAP1 POP PUSH2 0xB3F SWAP2 SWAP1 PUSH2 0x31BC JUMP JUMPDEST SWAP1 POP JUMPDEST PUSH1 0x0 DUP3 GT DUP1 ISZERO PUSH2 0xB53 JUMPI POP PUSH1 0x0 DUP2 LT ISZERO JUMPDEST ISZERO PUSH2 0xF02 JUMPI PUSH1 0x0 DUP6 DUP3 DUP2 SLOAD DUP2 LT PUSH2 0xB6D JUMPI PUSH2 0xB6C PUSH2 0x31F0 JUMP JUMPDEST JUMPDEST SWAP1 PUSH1 0x0 MSTORE PUSH1 0x20 PUSH1 0x0 KECCAK256 ADD SLOAD SWAP1 POP PUSH1 0x1 DUP2 DUP2 SLOAD DUP2 LT PUSH2 0xB8E JUMPI PUSH2 0xB8D PUSH2 0x31F0 JUMP JUMPDEST JUMPDEST SWAP1 PUSH1 0x0 MSTORE PUSH1 0x20 PUSH1 0x0 KECCAK256 SWAP1 PUSH1 0x6 MUL ADD PUSH1 0x40 MLOAD DUP1 PUSH1 0xE0 ADD PUSH1 0x40 MSTORE SWAP1 DUP2 PUSH1 0x0 DUP3 ADD PUSH1 0x0 SWAP1 SLOAD SWAP1 PUSH2 0x100 EXP SWAP1 DIV PUSH20 0xFFFFFFFFFFFFFFFFFFFFFFFFFFFFFFFFFFFFFFFF AND PUSH20 0xFFFFFFFFFFFFFFFFFFFFFFFFFFFFFFFFFFFFFFFF AND PUSH20 0xFFFFFFFFFFFFFFFFFFFFFFFFFFFFFFFFFFFFFFFF AND DUP2 MSTORE PUSH1 0x20 ADD PUSH1 0x0 DUP3 ADD PUSH1 0x14 SWAP1 SLOAD SWAP1 PUSH2 0x100 EXP SWAP1 DIV PUSH1 0xFF AND ISZERO ISZERO ISZERO ISZERO DUP2 MSTORE PUSH1 0x20 ADD PUSH1 0x1 DUP3 ADD SLOAD DUP2 MSTORE PUSH1 0x20 ADD PUSH1 0x2 DUP3 ADD SLOAD DUP2 MSTORE PUSH1 0x20 ADD PUSH1 0x3 DUP3 ADD SLOAD DUP2 MSTORE PUSH1 0x20 ADD PUSH1 0x4 DUP3 ADD SLOAD DUP2 MSTORE PUSH1 0x20 ADD PUSH1 0x5 DUP3 ADD SLOAD DUP2 MSTORE POP POP SWAP5 POP DUP8 ISZERO ISZERO DUP6 PUSH1 0x20 ADD MLOAD ISZERO ISZERO EQ PUSH2 0xC61 JUMPI POP PUSH2 0xEEF JUMP JUMPDEST DUP8 ISZERO PUSH2 0xC7F JUMPI PUSH2 0xC72 DUP8 DUP7 DUP6 PUSH2 0x1EBB JUMP JUMPDEST DUP1 SWAP5 POP DUP2 SWAP6 POP POP POP PUSH2 0xC92 JUMP JUMPDEST PUSH2 0xC89 DUP6 DUP5 PUSH2 0x1F99 JUMP JUMPDEST DUP1 SWAP5 POP DUP2 SWAP6 POP POP POP JUMPDEST DUP4 PUSH2 0xC9D JUMPI POP PUSH2 0xEEF JUMP JUMPDEST PUSH1 0x1 DUP7 DUP1 SLOAD SWAP1 POP PUSH2 0xCAE SWAP2 SWAP1 PUSH2 0x31BC JUMP JUMPDEST DUP3 EQ PUSH2 0xD04 JUMPI DUP6 PUSH1 0x1 DUP8 DUP1 SLOAD SWAP1 POP PUSH2 0xCC6 SWAP2 SWAP1 PUSH2 0x31BC JUMP JUMPDEST DUP2 SLOAD DUP2 LT PUSH2 0xCD7 JUMPI PUSH2 0xCD6 PUSH2 0x31F0 JUMP JUMPDEST JUMPDEST SWAP1 PUSH1 0x0 MSTORE PUSH1 0x20 PUSH1 0x0 KECCAK256 ADD SLOAD DUP7 DUP4 DUP2 SLOAD DUP2 LT PUSH2 0xCF5 JUMPI PUSH2 0xCF4 PUSH2 0x31F0 JUMP JUMPDEST JUMPDEST SWAP1 PUSH1 0x0 MSTORE PUSH1 0x20 PUSH1 0x0 KECCAK256 ADD DUP2 SWAP1 SSTORE POP JUMPDEST PUSH1 0x1 DUP1 DUP1 SLOAD SWAP1 POP PUSH2 0xD15 SWAP2 SWAP1 PUSH2 0x31BC JUMP JUMPDEST DUP2 EQ PUSH2 0xE38 JUMPI PUSH1 0x1 DUP1 DUP1 DUP1 SLOAD SWAP1 POP PUSH2 0xD2D SWAP2 SWAP1 PUSH2 0x31BC JUMP JUMPDEST DUP2 SLOAD DUP2 LT PUSH2 0xD3E JUMPI PUSH2 0xD3D PUSH2 0x31F0 JUMP JUMPDEST JUMPDEST SWAP1 PUSH1 0x0 MSTORE PUSH1 0x20 PUSH1 0x0 KECCAK256 SWAP1 PUSH1 0x6 MUL ADD PUSH1 0x1 DUP3 DUP2 SLOAD DUP2 LT PUSH2 0xD60 JUMPI PUSH2 0xD5F PUSH2 0x31F0 JUMP JUMPDEST JUMPDEST SWAP1 PUSH1 0x0 MSTORE PUSH1 0x20 PUSH1 0x0 KECCAK256 SWAP1 PUSH1 0x6 MUL ADD PUSH1 0x0 DUP3 ADD PUSH1 0x0 SWAP1 SLOAD SWAP1 PUSH2 0x100 EXP SWAP1 DIV PUSH20 0xFFFFFFFFFFFFFFFFFFFFFFFFFFFFFFFFFFFFFFFF AND DUP2 PUSH1 0x0 ADD PUSH1 0x0 PUSH2 0x100 EXP DUP2 SLOAD DUP2 PUSH20 0xFFFFFFFFFFFFFFFFFFFFFFFFFFFFFFFFFFFFFFFF MUL NOT AND SWAP1 DUP4 PUSH20 0xFFFFFFFFFFFFFFFFFFFFFFFFFFFFFFFFFFFFFFFF AND MUL OR SWAP1 SSTORE POP PUSH1 0x0 DUP3 ADD PUSH1 0x14 SWAP1 SLOAD SWAP1 PUSH2 0x100 EXP SWAP1 DIV PUSH1 0xFF AND DUP2 PUSH1 0x0 ADD PUSH1 0x14 PUSH2 0x100 EXP DUP2 SLOAD DUP2 PUSH1 0xFF MUL NOT AND SWAP1 DUP4 ISZERO ISZERO MUL OR SWAP1 SSTORE POP PUSH1 0x1 DUP3 ADD SLOAD DUP2 PUSH1 0x1 ADD SSTORE PUSH1 0x2 DUP3 ADD SLOAD DUP2 PUSH1 0x2 ADD SSTORE PUSH1 0x3 DUP3 ADD SLOAD DUP2 PUSH1 0x3 ADD SSTORE PUSH1 0x4 DUP3 ADD SLOAD DUP2 PUSH1 0x4 ADD SSTORE PUSH1 0x5 DUP3 ADD SLOAD DUP2 PUSH1 0x5 ADD SSTORE SWAP1 POP POP JUMPDEST DUP6 DUP1 SLOAD DUP1 PUSH2 0xE49 JUMPI PUSH2 0xE48 PUSH2 0x321F JUMP JUMPDEST JUMPDEST PUSH1 0x1 SWAP1 SUB DUP2 DUP2 SWAP1 PUSH1 0x0 MSTORE PUSH1 0x20 PUSH1 0x0 KECCAK256 ADD PUSH1 0x0 SWAP1 SSTORE SWAP1 SSTORE PUSH1 0x1 DUP1 SLOAD DUP1 PUSH2 0xE71 JUMPI PUSH2 0xE70 PUSH2 0x321F JUMP JUMPDEST JUMPDEST PUSH1 0x1 SWAP1 SUB DUP2 DUP2 SWAP1 PUSH1 0x0 MSTORE PUSH1 0x20 PUSH1 0x0 KECCAK256 SWAP1 PUSH1 0x6 MUL ADD PUSH1 0x0 DUP1 DUP3 ADD PUSH1 0x0 PUSH2 0x100 EXP DUP2 SLOAD SWAP1 PUSH20 0xFFFFFFFFFFFFFFFFFFFFFFFFFFFFFFFFFFFFFFFF MUL NOT AND SWAP1 SSTORE PUSH1 0x0 DUP3 ADD PUSH1 0x14 PUSH2 0x100 EXP DUP2 SLOAD SWAP1 PUSH1 0xFF MUL NOT AND SWAP1 SSTORE PUSH1 0x1 DUP3 ADD PUSH1 0x0 SWAP1 SSTORE PUSH1 0x2 DUP3 ADD PUSH1 0x0 SWAP1 SSTORE PUSH1 0x3 DUP3 ADD PUSH1 0x0 SWAP1 SSTORE PUSH1 0x4 DUP3 ADD PUSH1 0x0 SWAP1 SSTORE PUSH1 0x5 DUP3 ADD PUSH1 0x0 SWAP1 SSTORE POP POP SWAP1 SSTORE POP JUMPDEST DUP1 DUP1 PUSH2 0xEFA SWAP1 PUSH2 0x324E JUMP JUMPDEST SWAP2 POP POP PUSH2 0xB42 JUMP JUMPDEST POP POP POP POP POP POP POP POP JUMP JUMPDEST PUSH1 0x0 CALLVALUE SWAP1 POP PUSH1 0x0 PUSH2 0xF1C DUP4 PUSH2 0xFD2 JUMP JUMPDEST SWAP1 POP PUSH2 0xF2A DUP2 PUSH1 0x1 DUP5 PUSH2 0x1A4F JUMP JUMPDEST POP POP POP JUMP JUMPDEST PUSH1 0x0 PUSH2 0xF3A DUP3 PUSH2 0xFD2 JUMP JUMPDEST SWAP1 POP PUSH1 0x0 CALLVALUE SWAP1 POP DUP1 DUP3 PUSH2 0x140 ADD DUP2 DUP2 MLOAD PUSH2 0xF54 SWAP2 SWAP1 PUSH2 0x3277 JUMP JUMPDEST SWAP2 POP DUP2 DUP2 MSTORE POP POP POP POP POP JUMP JUMPDEST PUSH1 0x0 PUSH2 0xF6B DUP5 PUSH2 0xFD2 JUMP JUMPDEST SWAP1 POP PUSH2 0xF7C DUP2 PUSH1 0x80 ADD MLOAD DUP5 DUP5 PUSH2 0x1FFE JUMP JUMPDEST PUSH2 0xFB2 JUMPI PUSH1 0x40 MLOAD PUSH32 0x79CACFF100000000000000000000000000000000000000000000000000000000 DUP2 MSTORE PUSH1 0x4 ADD PUSH1 0x40 MLOAD DUP1 SWAP2 SUB SWAP1 REVERT JUMPDEST DUP2 DUP2 PUSH2 0x160 ADD DUP2 DUP2 MLOAD PUSH2 0xFC5 SWAP2 SWAP1 PUSH2 0x3277 JUMP JUMPDEST SWAP2 POP DUP2 DUP2 MSTORE POP POP POP POP POP POP JUMP JUMPDEST PUSH2 0xFDA PUSH2 0x2619 JUMP JUMPDEST PUSH1 0x0 PUSH1 0x2 PUSH1 0x0 DUP5 PUSH20 0xFFFFFFFFFFFFFFFFFFFFFFFFFFFFFFFFFFFFFFFF AND PUSH20 0xFFFFFFFFFFFFFFFFFFFFFFFFFFFFFFFFFFFFFFFF AND DUP2 MSTORE PUSH1 0x20 ADD SWAP1 DUP2 MSTORE PUSH1 0x20 ADD PUSH1 0x0 KECCAK256 SLOAD SWAP1 POP PUSH1 0x0 DUP2 SUB PUSH2 0x1058 JUMPI PUSH1 0x40 MLOAD PUSH32 0xC5F0A1EE00000000000000000000000000000000000000000000000000000000 DUP2 MSTORE PUSH1 0x4 ADD PUSH1 0x40 MLOAD DUP1 SWAP2 SUB SWAP1 REVERT JUMPDEST PUSH1 0x0 PUSH1 0x1 DUP3 PUSH2 0x1067 SWAP2 SWAP1 PUSH2 0x31BC JUMP JUMPDEST DUP2 SLOAD DUP2 LT PUSH2 0x1078 JUMPI PUSH2 0x1077 PUSH2 0x31F0 JUMP JUMPDEST JUMPDEST SWAP1 PUSH1 0x0 MSTORE PUSH1 0x20 PUSH1 0x0 KECCAK256 SWAP1 PUSH1 0xC MUL ADD PUSH1 0x40 MLOAD DUP1 PUSH2 0x1A0 ADD PUSH1 0x40 MSTORE SWAP1 DUP2 PUSH1 0x0 DUP3 ADD DUP1 SLOAD PUSH2 0x10A2 SWAP1 PUSH2 0x2EDE JUMP JUMPDEST DUP1 PUSH1 0x1F ADD PUSH1 0x20 DUP1 SWAP2 DIV MUL PUSH1 0x20 ADD PUSH1 0x40 MLOAD SWAP1 DUP2 ADD PUSH1 0x40 MSTORE DUP1 SWAP3 SWAP2 SWAP1 DUP2 DUP2 MSTORE PUSH1 0x20 ADD DUP3 DUP1 SLOAD PUSH2 0x10CE SWAP1 PUSH2 0x2EDE JUMP JUMPDEST DUP1 ISZERO PUSH2 0x111B JUMPI DUP1 PUSH1 0x1F LT PUSH2 0x10F0 JUMPI PUSH2 0x100 DUP1 DUP4 SLOAD DIV MUL DUP4 MSTORE SWAP2 PUSH1 0x20 ADD SWAP2 PUSH2 0x111B JUMP JUMPDEST DUP3 ADD SWAP2 SWAP1 PUSH1 0x0 MSTORE PUSH1 0x20 PUSH1 0x0 KECCAK256 SWAP1 JUMPDEST DUP2 SLOAD DUP2 MSTORE SWAP1 PUSH1 0x1 ADD SWAP1 PUSH1 0x20 ADD DUP1 DUP4 GT PUSH2 0x10FE JUMPI DUP3 SWAP1 SUB PUSH1 0x1F AND DUP3 ADD SWAP2 JUMPDEST POP POP POP POP POP DUP2 MSTORE PUSH1 0x20 ADD PUSH1 0x1 DUP3 ADD DUP1 SLOAD PUSH2 0x1134 SWAP1 PUSH2 0x2EDE JUMP JUMPDEST DUP1 PUSH1 0x1F ADD PUSH1 0x20 DUP1 SWAP2 DIV MUL PUSH1 0x20 ADD PUSH1 0x40 MLOAD SWAP1 DUP2 ADD PUSH1 0x40 MSTORE DUP1 SWAP3 SWAP2 SWAP1 DUP2 DUP2 MSTORE PUSH1 0x20 ADD DUP3 DUP1 SLOAD PUSH2 0x1160 SWAP1 PUSH2 0x2EDE JUMP JUMPDEST DUP1 ISZERO PUSH2 0x11AD JUMPI DUP1 PUSH1 0x1F LT PUSH2 0x1182 JUMPI PUSH2 0x100 DUP1 DUP4 SLOAD DIV MUL DUP4 MSTORE SWAP2 PUSH1 0x20 ADD SWAP2 PUSH2 0x11AD JUMP JUMPDEST DUP3 ADD SWAP2 SWAP1 PUSH1 0x0 MSTORE PUSH1 0x20 PUSH1 0x0 KECCAK256 SWAP1 JUMPDEST DUP2 SLOAD DUP2 MSTORE SWAP1 PUSH1 0x1 ADD SWAP1 PUSH1 0x20 ADD DUP1 DUP4 GT PUSH2 0x1190 JUMPI DUP3 SWAP1 SUB PUSH1 0x1F AND DUP3 ADD SWAP2 JUMPDEST POP POP POP POP POP DUP2 MSTORE PUSH1 0x20 ADD PUSH1 0x2 DUP3 ADD PUSH1 0x0 SWAP1 SLOAD SWAP1 PUSH2 0x100 EXP SWAP1 DIV PUSH1 0xFF AND PUSH1 0xFF AND PUSH1 0xFF AND DUP2 MSTORE PUSH1 0x20 ADD PUSH1 0x3 DUP3 ADD SLOAD DUP2 MSTORE PUSH1 0x20 ADD PUSH1 0x4 DUP3 ADD PUSH1 0x0 SWAP1 SLOAD SWAP1 PUSH2 0x100 EXP SWAP1 DIV PUSH20 0xFFFFFFFFFFFFFFFFFFFFFFFFFFFFFFFFFFFFFFFF AND PUSH20 0xFFFFFFFFFFFFFFFFFFFFFFFFFFFFFFFFFFFFFFFF AND PUSH20 0xFFFFFFFFFFFFFFFFFFFFFFFFFFFFFFFFFFFFFFFF AND DUP2 MSTORE PUSH1 0x20 ADD PUSH1 0x5 DUP3 ADD PUSH1 0x0 SWAP1 SLOAD SWAP1 PUSH2 0x100 EXP SWAP1 DIV PUSH20 0xFFFFFFFFFFFFFFFFFFFFFFFFFFFFFFFFFFFFFFFF AND PUSH20 0xFFFFFFFFFFFFFFFFFFFFFFFFFFFFFFFFFFFFFFFF AND PUSH20 0xFFFFFFFFFFFFFFFFFFFFFFFFFFFFFFFFFFFFFFFF AND DUP2 MSTORE PUSH1 0x20 ADD PUSH1 0x5 DUP3 ADD PUSH1 0x14 SWAP1 SLOAD SWAP1 PUSH2 0x100 EXP SWAP1 DIV PUSH1 0xFF AND PUSH1 0x1 DUP2 GT ISZERO PUSH2 0x12AE JUMPI PUSH2 0x12AD PUSH2 0x28BB JUMP JUMPDEST JUMPDEST PUSH1 0x1 DUP2 GT ISZERO PUSH2 0x12C0 JUMPI PUSH2 0x12BF PUSH2 0x28BB JUMP JUMPDEST JUMPDEST DUP2 MSTORE PUSH1 0x20 ADD PUSH1 0x6 DUP3 ADD SLOAD DUP2 MSTORE PUSH1 0x20 ADD PUSH1 0x7 DUP3 ADD SLOAD DUP2 MSTORE PUSH1 0x20 ADD PUSH1 0x8 DUP3 ADD SLOAD DUP2 MSTORE PUSH1 0x20 ADD PUSH1 0x9 DUP3 ADD SLOAD DUP2 MSTORE PUSH1 0x20 ADD PUSH1 0xA DUP3 ADD SLOAD DUP2 MSTORE PUSH1 0x20 ADD PUSH1 0xB DUP3 ADD SLOAD DUP2 MSTORE POP POP SWAP2 POP POP SWAP2 SWAP1 POP JUMP JUMPDEST PUSH2 0x1310 PUSH2 0x2533 JUMP JUMPDEST PUSH1 0x0 DUP1 DUP4 DUP2 SLOAD DUP2 LT PUSH2 0x1325 JUMPI PUSH2 0x1324 PUSH2 0x31F0 JUMP JUMPDEST JUMPDEST SWAP1 PUSH1 0x0 MSTORE PUSH1 0x20 PUSH1 0x0 KECCAK256 SWAP1 PUSH1 0xC MUL ADD PUSH1 0x40 MLOAD DUP1 PUSH2 0x1A0 ADD PUSH1 0x40 MSTORE SWAP1 DUP2 PUSH1 0x0 DUP3 ADD DUP1 SLOAD PUSH2 0x134F SWAP1 PUSH2 0x2EDE JUMP JUMPDEST DUP1 PUSH1 0x1F ADD PUSH1 0x20 DUP1 SWAP2 DIV MUL PUSH1 0x20 ADD PUSH1 0x40 MLOAD SWAP1 DUP2 ADD PUSH1 0x40 MSTORE DUP1 SWAP3 SWAP2 SWAP1 DUP2 DUP2 MSTORE PUSH1 0x20 ADD DUP3 DUP1 SLOAD PUSH2 0x137B SWAP1 PUSH2 0x2EDE JUMP JUMPDEST DUP1 ISZERO PUSH2 0x13C8 JUMPI DUP1 PUSH1 0x1F LT PUSH2 0x139D JUMPI PUSH2 0x100 DUP1 DUP4 SLOAD DIV MUL DUP4 MSTORE SWAP2 PUSH1 0x20 ADD SWAP2 PUSH2 0x13C8 JUMP JUMPDEST DUP3 ADD SWAP2 SWAP1 PUSH1 0x0 MSTORE PUSH1 0x20 PUSH1 0x0 KECCAK256 SWAP1 JUMPDEST DUP2 SLOAD DUP2 MSTORE SWAP1 PUSH1 0x1 ADD SWAP1 PUSH1 0x20 ADD DUP1 DUP4 GT PUSH2 0x13AB JUMPI DUP3 SWAP1 SUB PUSH1 0x1F AND DUP3 ADD SWAP2 JUMPDEST POP POP POP POP POP DUP2 MSTORE PUSH1 0x20 ADD PUSH1 0x1 DUP3 ADD DUP1 SLOAD PUSH2 0x13E1 SWAP1 PUSH2 0x2EDE JUMP JUMPDEST DUP1 PUSH1 0x1F ADD PUSH1 0x20 DUP1 SWAP2 DIV MUL PUSH1 0x20 ADD PUSH1 0x40 MLOAD SWAP1 DUP2 ADD PUSH1 0x40 MSTORE DUP1 SWAP3 SWAP2 SWAP1 DUP2 DUP2 MSTORE PUSH1 0x20 ADD DUP3 DUP1 SLOAD PUSH2 0x140D SWAP1 PUSH2 0x2EDE JUMP JUMPDEST DUP1 ISZERO PUSH2 0x145A JUMPI DUP1 PUSH1 0x1F LT PUSH2 0x142F JUMPI PUSH2 0x100 DUP1 DUP4 SLOAD DIV MUL DUP4 MSTORE SWAP2 PUSH1 0x20 ADD SWAP2 PUSH2 0x145A JUMP JUMPDEST DUP3 ADD SWAP2 SWAP1 PUSH1 0x0 MSTORE PUSH1 0x20 PUSH1 0x0 KECCAK256 SWAP1 JUMPDEST DUP2 SLOAD DUP2 MSTORE SWAP1 PUSH1 0x1 ADD SWAP1 PUSH1 0x20 ADD DUP1 DUP4 GT PUSH2 0x143D JUMPI DUP3 SWAP1 SUB PUSH1 0x1F AND DUP3 ADD SWAP2 JUMPDEST POP POP POP POP POP DUP2 MSTORE PUSH1 0x20 ADD PUSH1 0x2 DUP3 ADD PUSH1 0x0 SWAP1 SLOAD SWAP1 PUSH2 0x100 EXP SWAP1 DIV PUSH1 0xFF AND PUSH1 0xFF AND PUSH1 0xFF AND DUP2 MSTORE PUSH1 0x20 ADD PUSH1 0x3 DUP3 ADD SLOAD DUP2 MSTORE PUSH1 0x20 ADD PUSH1 0x4 DUP3 ADD PUSH1 0x0 SWAP1 SLOAD SWAP1 PUSH2 0x100 EXP SWAP1 DIV PUSH20 0xFFFFFFFFFFFFFFFFFFFFFFFFFFFFFFFFFFFFFFFF AND PUSH20 0xFFFFFFFFFFFFFFFFFFFFFFFFFFFFFFFFFFFFFFFF AND PUSH20 0xFFFFFFFFFFFFFFFFFFFFFFFFFFFFFFFFFFFFFFFF AND DUP2 MSTORE PUSH1 0x20 ADD PUSH1 0x5 DUP3 ADD PUSH1 0x0 SWAP1 SLOAD SWAP1 PUSH2 0x100 EXP SWAP1 DIV PUSH20 0xFFFFFFFFFFFFFFFFFFFFFFFFFFFFFFFFFFFFFFFF AND PUSH20 0xFFFFFFFFFFFFFFFFFFFFFFFFFFFFFFFFFFFFFFFF AND PUSH20 0xFFFFFFFFFFFFFFFFFFFFFFFFFFFFFFFFFFFFFFFF AND DUP2 MSTORE PUSH1 0x20 ADD PUSH1 0x5 DUP3 ADD PUSH1 0x14 SWAP1 SLOAD SWAP1 PUSH2 0x100 EXP SWAP1 DIV PUSH1 0xFF AND PUSH1 0x1 DUP2 GT ISZERO PUSH2 0x155B JUMPI PUSH2 0x155A PUSH2 0x28BB JUMP JUMPDEST JUMPDEST PUSH1 0x1 DUP2 GT ISZERO PUSH2 0x156D JUMPI PUSH2 0x156C PUSH2 0x28BB JUMP JUMPDEST JUMPDEST DUP2 MSTORE PUSH1 0x20 ADD PUSH1 0x6 DUP3 ADD SLOAD DUP2 MSTORE PUSH1 0x20 ADD PUSH1 0x7 DUP3 ADD SLOAD DUP2 MSTORE PUSH1 0x20 ADD PUSH1 0x8 DUP3 ADD SLOAD DUP2 MSTORE PUSH1 0x20 ADD PUSH1 0x9 DUP3 ADD SLOAD DUP2 MSTORE PUSH1 0x20 ADD PUSH1 0xA DUP3 ADD SLOAD DUP2 MSTORE PUSH1 0x20 ADD PUSH1 0xB DUP3 ADD SLOAD DUP2 MSTORE POP POP SWAP1 POP PUSH1 0x0 PUSH1 0x3 PUSH1 0x0 DUP4 PUSH1 0x80 ADD MLOAD PUSH20 0xFFFFFFFFFFFFFFFFFFFFFFFFFFFFFFFFFFFFFFFF AND PUSH20 0xFFFFFFFFFFFFFFFFFFFFFFFFFFFFFFFFFFFFFFFF AND DUP2 MSTORE PUSH1 0x20 ADD SWAP1 DUP2 MSTORE PUSH1 0x20 ADD PUSH1 0x0 KECCAK256 DUP1 SLOAD SWAP1 POP SWAP1 POP PUSH1 0x40 MLOAD DUP1 PUSH2 0x140 ADD PUSH1 0x40 MSTORE DUP1 DUP6 DUP2 MSTORE PUSH1 0x20 ADD DUP4 PUSH1 0x0 ADD MLOAD DUP2 MSTORE PUSH1 0x20 ADD DUP4 PUSH1 0x20 ADD MLOAD DUP2 MSTORE PUSH1 0x20 ADD DUP4 PUSH1 0x80 ADD MLOAD PUSH20 0xFFFFFFFFFFFFFFFFFFFFFFFFFFFFFFFFFFFFFFFF AND DUP2 MSTORE PUSH1 0x20 ADD DUP4 PUSH1 0xA0 ADD MLOAD PUSH20 0xFFFFFFFFFFFFFFFFFFFFFFFFFFFFFFFFFFFFFFFF AND DUP2 MSTORE PUSH1 0x20 ADD DUP4 PUSH1 0xE0 ADD MLOAD DUP2 MSTORE PUSH1 0x20 ADD DUP4 PUSH2 0x100 ADD MLOAD DUP2 MSTORE PUSH1 0x20 ADD DUP4 PUSH1 0xC0 ADD MLOAD PUSH1 0x1 DUP2 GT ISZERO PUSH2 0x168C JUMPI PUSH2 0x168B PUSH2 0x28BB JUMP JUMPDEST JUMPDEST DUP2 MSTORE PUSH1 0x20 ADD DUP4 PUSH2 0x120 ADD MLOAD DUP2 MSTORE PUSH1 0x20 ADD DUP3 DUP2 MSTORE POP SWAP3 POP POP POP SWAP2 SWAP1 POP JUMP JUMPDEST PUSH1 0x0 PUSH1 0x12 DUP3 SUB PUSH2 0x16BC JUMPI PUSH1 0x1 SWAP1 POP PUSH2 0x16C6 JUMP JUMPDEST DUP2 PUSH1 0x12 SUB PUSH1 0xA EXP SWAP1 POP JUMPDEST SWAP2 SWAP1 POP JUMP JUMPDEST PUSH1 0x0 DUP1 PUSH1 0x0 PUSH2 0x16D9 DUP5 PUSH2 0x2098 JUMP JUMPDEST SWAP2 POP SWAP2 POP DUP1 PUSH2 0x1714 JUMPI PUSH1 0x40 MLOAD PUSH32 0xE6F7D2C700000000000000000000000000000000000000000000000000000000 DUP2 MSTORE PUSH1 0x4 ADD PUSH1 0x40 MLOAD DUP1 SWAP2 SUB SWAP1 REVERT JUMPDEST DUP2 SWAP3 POP POP POP SWAP2 SWAP1 POP JUMP JUMPDEST PUSH1 0x0 DUP1 PUSH1 0x0 DUP2 SLOAD DUP2 LT PUSH2 0x1734 JUMPI PUSH2 0x1733 PUSH2 0x31F0 JUMP JUMPDEST JUMPDEST SWAP1 PUSH1 0x0 MSTORE PUSH1 0x20 PUSH1 0x0 KECCAK256 SWAP1 PUSH1 0xC MUL ADD PUSH1 0x40 MLOAD DUP1 PUSH2 0x1A0 ADD PUSH1 0x40 MSTORE SWAP1 DUP2 PUSH1 0x0 DUP3 ADD DUP1 SLOAD PUSH2 0x175E SWAP1 PUSH2 0x2EDE JUMP JUMPDEST DUP1 PUSH1 0x1F ADD PUSH1 0x20 DUP1 SWAP2 DIV MUL PUSH1 0x20 ADD PUSH1 0x40 MLOAD SWAP1 DUP2 ADD PUSH1 0x40 MSTORE DUP1 SWAP3 SWAP2 SWAP1 DUP2 DUP2 MSTORE PUSH1 0x20 ADD DUP3 DUP1 SLOAD PUSH2 0x178A SWAP1 PUSH2 0x2EDE JUMP JUMPDEST DUP1 ISZERO PUSH2 0x17D7 JUMPI DUP1 PUSH1 0x1F LT PUSH2 0x17AC JUMPI PUSH2 0x100 DUP1 DUP4 SLOAD DIV MUL DUP4 MSTORE SWAP2 PUSH1 0x20 ADD SWAP2 PUSH2 0x17D7 JUMP JUMPDEST DUP3 ADD SWAP2 SWAP1 PUSH1 0x0 MSTORE PUSH1 0x20 PUSH1 0x0 KECCAK256 SWAP1 JUMPDEST DUP2 SLOAD DUP2 MSTORE SWAP1 PUSH1 0x1 ADD SWAP1 PUSH1 0x20 ADD DUP1 DUP4 GT PUSH2 0x17BA JUMPI DUP3 SWAP1 SUB PUSH1 0x1F AND DUP3 ADD SWAP2 JUMPDEST POP POP POP POP POP DUP2 MSTORE PUSH1 0x20 ADD PUSH1 0x1 DUP3 ADD DUP1 SLOAD PUSH2 0x17F0 SWAP1 PUSH2 0x2EDE JUMP JUMPDEST DUP1 PUSH1 0x1F ADD PUSH1 0x20 DUP1 SWAP2 DIV MUL PUSH1 0x20 ADD PUSH1 0x40 MLOAD SWAP1 DUP2 ADD PUSH1 0x40 MSTORE DUP1 SWAP3 SWAP2 SWAP1 DUP2 DUP2 MSTORE PUSH1 0x20 ADD DUP3 DUP1 SLOAD PUSH2 0x181C SWAP1 PUSH2 0x2EDE JUMP JUMPDEST DUP1 ISZERO PUSH2 0x1869 JUMPI DUP1 PUSH1 0x1F LT PUSH2 0x183E JUMPI PUSH2 0x100 DUP1 DUP4 SLOAD DIV MUL DUP4 MSTORE SWAP2 PUSH1 0x20 ADD SWAP2 PUSH2 0x1869 JUMP JUMPDEST DUP3 ADD SWAP2 SWAP1 PUSH1 0x0 MSTORE PUSH1 0x20 PUSH1 0x0 KECCAK256 SWAP1 JUMPDEST DUP2 SLOAD DUP2 MSTORE SWAP1 PUSH1 0x1 ADD SWAP1 PUSH1 0x20 ADD DUP1 DUP4 GT PUSH2 0x184C JUMPI DUP3 SWAP1 SUB PUSH1 0x1F AND DUP3 ADD SWAP2 JUMPDEST POP POP POP POP POP DUP2 MSTORE PUSH1 0x20 ADD PUSH1 0x2 DUP3 ADD PUSH1 0x0 SWAP1 SLOAD SWAP1 PUSH2 0x100 EXP SWAP1 DIV PUSH1 0xFF AND PUSH1 0xFF AND PUSH1 0xFF AND DUP2 MSTORE PUSH1 0x20 ADD PUSH1 0x3 DUP3 ADD SLOAD DUP2 MSTORE PUSH1 0x20 ADD PUSH1 0x4 DUP3 ADD PUSH1 0x0 SWAP1 SLOAD SWAP1 PUSH2 0x100 EXP SWAP1 DIV PUSH20 0xFFFFFFFFFFFFFFFFFFFFFFFFFFFFFFFFFFFFFFFF AND PUSH20 0xFFFFFFFFFFFFFFFFFFFFFFFFFFFFFFFFFFFFFFFF AND PUSH20 0xFFFFFFFFFFFFFFFFFFFFFFFFFFFFFFFFFFFFFFFF AND DUP2 MSTORE PUSH1 0x20 ADD PUSH1 0x5 DUP3 ADD PUSH1 0x0 SWAP1 SLOAD SWAP1 PUSH2 0x100 EXP SWAP1 DIV PUSH20 0xFFFFFFFFFFFFFFFFFFFFFFFFFFFFFFFFFFFFFFFF AND PUSH20 0xFFFFFFFFFFFFFFFFFFFFFFFFFFFFFFFFFFFFFFFF AND PUSH20 0xFFFFFFFFFFFFFFFFFFFFFFFFFFFFFFFFFFFFFFFF AND DUP2 MSTORE PUSH1 0x20 ADD PUSH1 0x5 DUP3 ADD PUSH1 0x14 SWAP1 SLOAD SWAP1 PUSH2 0x100 EXP SWAP1 DIV PUSH1 0xFF AND PUSH1 0x1 DUP2 GT ISZERO PUSH2 0x196A JUMPI PUSH2 0x1969 PUSH2 0x28BB JUMP JUMPDEST JUMPDEST PUSH1 0x1 DUP2 GT ISZERO PUSH2 0x197C JUMPI PUSH2 0x197B PUSH2 0x28BB JUMP JUMPDEST JUMPDEST DUP2 MSTORE PUSH1 0x20 ADD PUSH1 0x6 DUP3 ADD SLOAD DUP2 MSTORE PUSH1 0x20 ADD PUSH1 0x7 DUP3 ADD SLOAD DUP2 MSTORE PUSH1 0x20 ADD PUSH1 0x8 DUP3 ADD SLOAD DUP2 MSTORE PUSH1 0x20 ADD PUSH1 0x9 DUP3 ADD SLOAD DUP2 MSTORE PUSH1 0x20 ADD PUSH1 0xA DUP3 ADD SLOAD DUP2 MSTORE PUSH1 0x20 ADD PUSH1 0xB DUP3 ADD SLOAD DUP2 MSTORE POP POP SWAP1 POP PUSH2 0x19CF DUP2 PUSH1 0x80 ADD MLOAD CALLER PUSH1 0xA SLOAD PUSH2 0x1FFE JUMP JUMPDEST PUSH2 0x1A12 JUMPI PUSH1 0xA SLOAD PUSH1 0x40 MLOAD PUSH32 0xCA114A0200000000000000000000000000000000000000000000000000000000 DUP2 MSTORE PUSH1 0x4 ADD PUSH2 0x1A09 SWAP2 SWAP1 PUSH2 0x26DB JUMP JUMPDEST PUSH1 0x40 MLOAD DUP1 SWAP2 SUB SWAP1 REVERT JUMPDEST PUSH1 0x0 PUSH2 0x3E8 PUSH1 0x5 PUSH1 0xA SLOAD PUSH2 0x1A26 SWAP2 SWAP1 PUSH2 0x32AB JUMP JUMPDEST PUSH2 0x1A30 SWAP2 SWAP1 PUSH2 0x331C JUMP JUMPDEST SWAP1 POP DUP1 PUSH1 0xA PUSH1 0x0 DUP3 DUP3 SLOAD PUSH2 0x1A44 SWAP2 SWAP1 PUSH2 0x3277 JUMP JUMPDEST SWAP3 POP POP DUP2 SWAP1 SSTORE POP POP POP JUMP JUMPDEST PUSH1 0x0 DUP1 PUSH1 0x1 DUP2 GT ISZERO PUSH2 0x1A64 JUMPI PUSH2 0x1A63 PUSH2 0x28BB JUMP JUMPDEST JUMPDEST DUP5 PUSH1 0xC0 ADD MLOAD PUSH1 0x1 DUP2 GT ISZERO PUSH2 0x1A7B JUMPI PUSH2 0x1A7A PUSH2 0x28BB JUMP JUMPDEST JUMPDEST SUB PUSH2 0x1AA0 JUMPI PUSH2 0x1A88 PUSH2 0x21F1 JUMP JUMPDEST PUSH2 0x1A99 PUSH1 0x8 SLOAD DUP6 PUSH2 0x120 ADD MLOAD PUSH2 0x22D8 JUMP JUMPDEST SWAP1 POP PUSH2 0x1C4C JUMP JUMPDEST PUSH1 0x1 DUP1 DUP2 GT ISZERO PUSH2 0x1AB3 JUMPI PUSH2 0x1AB2 PUSH2 0x28BB JUMP JUMPDEST JUMPDEST DUP5 PUSH1 0xC0 ADD MLOAD PUSH1 0x1 DUP2 GT ISZERO PUSH2 0x1ACA JUMPI PUSH2 0x1AC9 PUSH2 0x28BB JUMP JUMPDEST JUMPDEST SUB PUSH2 0x1C4B JUMPI PUSH1 0x0 PUSH1 0xF0 DUP6 PUSH2 0x180 ADD MLOAD TIMESTAMP PUSH2 0x1AE4 SWAP2 SWAP1 PUSH2 0x31BC JUMP JUMPDEST LT ISZERO SWAP1 POP DUP1 ISZERO PUSH2 0x1C49 JUMPI PUSH1 0x0 DUP6 PUSH1 0x80 ADD MLOAD SWAP1 POP PUSH1 0x0 PUSH1 0x6 PUSH1 0x0 SWAP1 SLOAD SWAP1 PUSH2 0x100 EXP SWAP1 DIV PUSH20 0xFFFFFFFFFFFFFFFFFFFFFFFFFFFFFFFFFFFFFFFF AND SWAP1 POP PUSH1 0x0 DUP3 PUSH20 0xFFFFFFFFFFFFFFFFFFFFFFFFFFFFFFFFFFFFFFFF AND PUSH4 0x70A08231 DUP10 PUSH1 0xA0 ADD MLOAD PUSH1 0x40 MLOAD DUP3 PUSH4 0xFFFFFFFF AND PUSH1 0xE0 SHL DUP2 MSTORE PUSH1 0x4 ADD PUSH2 0x1B5D SWAP2 SWAP1 PUSH2 0x2D33 JUMP JUMPDEST PUSH1 0x20 PUSH1 0x40 MLOAD DUP1 DUP4 SUB DUP2 DUP7 GAS STATICCALL ISZERO DUP1 ISZERO PUSH2 0x1B7A JUMPI RETURNDATASIZE PUSH1 0x0 DUP1 RETURNDATACOPY RETURNDATASIZE PUSH1 0x0 REVERT JUMPDEST POP POP POP POP PUSH1 0x40 MLOAD RETURNDATASIZE PUSH1 0x1F NOT PUSH1 0x1F DUP3 ADD AND DUP3 ADD DUP1 PUSH1 0x40 MSTORE POP DUP2 ADD SWAP1 PUSH2 0x1B9E SWAP2 SWAP1 PUSH2 0x2D63 JUMP JUMPDEST SWAP1 POP PUSH1 0x0 DUP3 PUSH20 0xFFFFFFFFFFFFFFFFFFFFFFFFFFFFFFFFFFFFFFFF AND PUSH4 0x70A08231 DUP11 PUSH1 0xA0 ADD MLOAD PUSH1 0x40 MLOAD DUP3 PUSH4 0xFFFFFFFF AND PUSH1 0xE0 SHL DUP2 MSTORE PUSH1 0x4 ADD PUSH2 0x1BDF SWAP2 SWAP1 PUSH2 0x2D33 JUMP JUMPDEST PUSH1 0x20 PUSH1 0x40 MLOAD DUP1 DUP4 SUB DUP2 DUP7 GAS STATICCALL ISZERO DUP1 ISZERO PUSH2 0x1BFC JUMPI RETURNDATASIZE PUSH1 0x0 DUP1 RETURNDATACOPY RETURNDATASIZE PUSH1 0x0 REVERT JUMPDEST POP POP POP POP PUSH1 0x40 MLOAD RETURNDATASIZE PUSH1 0x1F NOT PUSH1 0x1F DUP3 ADD AND DUP3 ADD DUP1 PUSH1 0x40 MSTORE POP DUP2 ADD SWAP1 PUSH2 0x1C20 SWAP2 SWAP1 PUSH2 0x2D63 JUMP JUMPDEST SWAP1 POP PUSH2 0x1C2C DUP2 DUP4 PUSH2 0x22D8 JUMP JUMPDEST SWAP6 POP DUP6 DUP10 PUSH2 0x120 ADD DUP2 DUP2 MSTORE POP POP TIMESTAMP DUP10 PUSH2 0x180 ADD DUP2 DUP2 MSTORE POP POP POP POP POP POP JUMPDEST POP JUMPDEST JUMPDEST PUSH1 0x0 DUP1 PUSH2 0x1C60 DUP4 DUP8 PUSH1 0x40 ADD MLOAD PUSH1 0xFF AND PUSH2 0x230F JUMP JUMPDEST SWAP1 POP PUSH1 0x0 PUSH2 0x1C72 DUP6 PUSH1 0x12 PUSH1 0xFF AND PUSH2 0x230F JUMP JUMPDEST SWAP1 POP PUSH2 0x1C90 DUP2 DUP4 PUSH2 0x1C83 SWAP2 SWAP1 PUSH2 0x32AB JUMP JUMPDEST DUP9 PUSH1 0x40 ADD MLOAD PUSH1 0xFF AND PUSH2 0x2334 JUMP JUMPDEST SWAP3 POP PUSH1 0x0 DUP8 PUSH2 0x100 ADD MLOAD DUP6 LT PUSH2 0x1CA8 JUMPI DUP8 PUSH1 0xE0 ADD MLOAD SWAP1 POP JUMPDEST PUSH1 0x0 PUSH1 0x40 MLOAD DUP1 PUSH1 0xE0 ADD PUSH1 0x40 MSTORE DUP1 CALLER PUSH20 0xFFFFFFFFFFFFFFFFFFFFFFFFFFFFFFFFFFFFFFFF AND DUP2 MSTORE PUSH1 0x20 ADD DUP10 ISZERO ISZERO DUP2 MSTORE PUSH1 0x20 ADD TIMESTAMP DUP2 MSTORE PUSH1 0x20 ADD DUP4 DUP2 MSTORE PUSH1 0x20 ADD DUP8 DUP2 MSTORE PUSH1 0x20 ADD DUP9 DUP2 MSTORE PUSH1 0x20 ADD DUP7 DUP2 MSTORE POP SWAP1 POP PUSH1 0x1 DUP2 SWAP1 DUP1 PUSH1 0x1 DUP2 SLOAD ADD DUP1 DUP3 SSTORE DUP1 SWAP2 POP POP PUSH1 0x1 SWAP1 SUB SWAP1 PUSH1 0x0 MSTORE PUSH1 0x20 PUSH1 0x0 KECCAK256 SWAP1 PUSH1 0x6 MUL ADD PUSH1 0x0 SWAP1 SWAP2 SWAP1 SWAP2 SWAP1 SWAP2 POP PUSH1 0x0 DUP3 ADD MLOAD DUP2 PUSH1 0x0 ADD PUSH1 0x0 PUSH2 0x100 EXP DUP2 SLOAD DUP2 PUSH20 0xFFFFFFFFFFFFFFFFFFFFFFFFFFFFFFFFFFFFFFFF MUL NOT AND SWAP1 DUP4 PUSH20 0xFFFFFFFFFFFFFFFFFFFFFFFFFFFFFFFFFFFFFFFF AND MUL OR SWAP1 SSTORE POP PUSH1 0x20 DUP3 ADD MLOAD DUP2 PUSH1 0x0 ADD PUSH1 0x14 PUSH2 0x100 EXP DUP2 SLOAD DUP2 PUSH1 0xFF MUL NOT AND SWAP1 DUP4 ISZERO ISZERO MUL OR SWAP1 SSTORE POP PUSH1 0x40 DUP3 ADD MLOAD DUP2 PUSH1 0x1 ADD SSTORE PUSH1 0x60 DUP3 ADD MLOAD DUP2 PUSH1 0x2 ADD SSTORE PUSH1 0x80 DUP3 ADD MLOAD DUP2 PUSH1 0x3 ADD SSTORE PUSH1 0xA0 DUP3 ADD MLOAD DUP2 PUSH1 0x4 ADD SSTORE PUSH1 0xC0 DUP3 ADD MLOAD DUP2 PUSH1 0x5 ADD SSTORE POP POP PUSH1 0x0 PUSH1 0x4 PUSH1 0x0 CALLER PUSH20 0xFFFFFFFFFFFFFFFFFFFFFFFFFFFFFFFFFFFFFFFF AND PUSH20 0xFFFFFFFFFFFFFFFFFFFFFFFFFFFFFFFFFFFFFFFF AND DUP2 MSTORE PUSH1 0x20 ADD SWAP1 DUP2 MSTORE PUSH1 0x20 ADD PUSH1 0x0 KECCAK256 SWAP1 POP PUSH1 0x0 PUSH1 0x3 PUSH1 0x0 DUP13 PUSH1 0x80 ADD MLOAD PUSH20 0xFFFFFFFFFFFFFFFFFFFFFFFFFFFFFFFFFFFFFFFF AND PUSH20 0xFFFFFFFFFFFFFFFFFFFFFFFFFFFFFFFFFFFFFFFF AND DUP2 MSTORE PUSH1 0x20 ADD SWAP1 DUP2 MSTORE PUSH1 0x20 ADD PUSH1 0x0 KECCAK256 SWAP1 POP PUSH1 0x0 PUSH1 0x1 DUP1 DUP1 SLOAD SWAP1 POP PUSH2 0x1E5B SWAP2 SWAP1 PUSH2 0x31BC JUMP JUMPDEST SWAP1 POP DUP3 DUP2 SWAP1 DUP1 PUSH1 0x1 DUP2 SLOAD ADD DUP1 DUP3 SSTORE DUP1 SWAP2 POP POP PUSH1 0x1 SWAP1 SUB SWAP1 PUSH1 0x0 MSTORE PUSH1 0x20 PUSH1 0x0 KECCAK256 ADD PUSH1 0x0 SWAP1 SWAP2 SWAP1 SWAP2 SWAP1 SWAP2 POP SSTORE DUP2 DUP2 SWAP1 DUP1 PUSH1 0x1 DUP2 SLOAD ADD DUP1 DUP3 SSTORE DUP1 SWAP2 POP POP PUSH1 0x1 SWAP1 SUB SWAP1 PUSH1 0x0 MSTORE PUSH1 0x20 PUSH1 0x0 KECCAK256 ADD PUSH1 0x0 SWAP1 SWAP2 SWAP1 SWAP2 SWAP1 SWAP2 POP SSTORE POP POP POP POP POP POP POP POP POP POP POP POP JUMP JUMPDEST PUSH1 0x0 DUP1 PUSH1 0x0 DUP1 DUP6 PUSH1 0xA0 ADD MLOAD DUP6 LT SWAP1 POP DUP1 ISZERO PUSH2 0x1ED8 JUMPI DUP5 SWAP2 POP PUSH2 0x1EE0 JUMP JUMPDEST DUP6 PUSH1 0xA0 ADD MLOAD SWAP2 POP JUMPDEST PUSH1 0x0 DUP8 PUSH1 0x80 ADD MLOAD SWAP1 POP DUP1 PUSH20 0xFFFFFFFFFFFFFFFFFFFFFFFFFFFFFFFFFFFFFFFF AND PUSH4 0xA9059CBB DUP9 PUSH1 0x0 ADD MLOAD DUP6 PUSH1 0x40 MLOAD DUP4 PUSH4 0xFFFFFFFF AND PUSH1 0xE0 SHL DUP2 MSTORE PUSH1 0x4 ADD PUSH2 0x1F28 SWAP3 SWAP2 SWAP1 PUSH2 0x33A2 JUMP JUMPDEST PUSH1 0x20 PUSH1 0x40 MLOAD DUP1 DUP4 SUB DUP2 PUSH1 0x0 DUP8 GAS CALL SWAP3 POP POP POP DUP1 ISZERO PUSH2 0x1F64 JUMPI POP PUSH1 0x40 MLOAD RETURNDATASIZE PUSH1 0x1F NOT PUSH1 0x1F DUP3 ADD AND DUP3 ADD DUP1 PUSH1 0x40 MSTORE POP DUP2 ADD SWAP1 PUSH2 0x1F61 SWAP2 SWAP1 PUSH2 0x33E0 JUMP JUMPDEST PUSH1 0x1 JUMPDEST PUSH2 0x1F77 JUMPI PUSH1 0x0 DUP7 SWAP5 POP SWAP5 POP POP POP POP PUSH2 0x1F91 JUMP JUMPDEST POP DUP3 DUP7 PUSH2 0x1F84 SWAP2 SWAP1 PUSH2 0x31BC JUMP JUMPDEST SWAP6 POP DUP2 ISZERO DUP7 SWAP5 POP SWAP5 POP POP POP POP JUMPDEST SWAP4 POP SWAP4 SWAP2 POP POP JUMP JUMPDEST PUSH1 0x0 DUP1 PUSH1 0x0 DUP1 DUP6 PUSH1 0xA0 ADD MLOAD DUP6 LT SWAP1 POP DUP1 ISZERO PUSH2 0x1FB6 JUMPI DUP5 SWAP2 POP PUSH2 0x1FBE JUMP JUMPDEST DUP6 PUSH1 0xA0 ADD MLOAD SWAP2 POP JUMPDEST PUSH2 0x1FCC DUP7 PUSH1 0x0 ADD MLOAD DUP4 PUSH2 0x2359 JUMP JUMPDEST ISZERO PUSH2 0x1FED JUMPI DUP2 DUP6 PUSH2 0x1FDD SWAP2 SWAP1 PUSH2 0x31BC JUMP JUMPDEST SWAP5 POP PUSH1 0x1 DUP6 SWAP4 POP SWAP4 POP POP POP PUSH2 0x1FF7 JUMP JUMPDEST PUSH1 0x0 DUP6 SWAP4 POP SWAP4 POP POP POP JUMPDEST SWAP3 POP SWAP3 SWAP1 POP JUMP JUMPDEST PUSH1 0x0 DUP1 DUP5 SWAP1 POP DUP1 PUSH20 0xFFFFFFFFFFFFFFFFFFFFFFFFFFFFFFFFFFFFFFFF AND PUSH4 0x23B872DD DUP6 ADDRESS DUP7 PUSH1 0x40 MLOAD DUP5 PUSH4 0xFFFFFFFF AND PUSH1 0xE0 SHL DUP2 MSTORE PUSH1 0x4 ADD PUSH2 0x2041 SWAP4 SWAP3 SWAP2 SWAP1 PUSH2 0x340D JUMP JUMPDEST PUSH1 0x20 PUSH1 0x40 MLOAD DUP1 DUP4 SUB DUP2 PUSH1 0x0 DUP8 GAS CALL SWAP3 POP POP POP DUP1 ISZERO PUSH2 0x207D JUMPI POP PUSH1 0x40 MLOAD RETURNDATASIZE PUSH1 0x1F NOT PUSH1 0x1F DUP3 ADD AND DUP3 ADD DUP1 PUSH1 0x40 MSTORE POP DUP2 ADD SWAP1 PUSH2 0x207A SWAP2 SWAP1 PUSH2 0x33E0 JUMP JUMPDEST PUSH1 0x1 JUMPDEST PUSH2 0x208B JUMPI PUSH1 0x0 SWAP2 POP POP PUSH2 0x2091 JUMP JUMPDEST DUP1 SWAP3 POP POP POP JUMPDEST SWAP4 SWAP3 POP POP POP JUMP JUMPDEST PUSH1 0x0 DUP1 PUSH1 0x0 DUP1 PUSH1 0x0 DUP6 SWAP1 POP PUSH1 0x0 DUP1 PUSH1 0x0 DUP1 PUSH1 0x0 SWAP1 POP PUSH1 0x0 JUMPDEST DUP6 MLOAD DUP2 LT DUP1 ISZERO PUSH2 0x20BE JUMPI POP DUP4 ISZERO JUMPDEST ISZERO PUSH2 0x21C2 JUMPI DUP6 DUP2 DUP2 MLOAD DUP2 LT PUSH2 0x20D6 JUMPI PUSH2 0x20D5 PUSH2 0x31F0 JUMP JUMPDEST JUMPDEST PUSH1 0x20 ADD ADD MLOAD PUSH1 0xF8 SHR PUSH1 0xF8 SHL PUSH1 0xF8 SHR SWAP5 POP PUSH1 0x30 DUP6 PUSH1 0xFF AND LT ISZERO DUP1 ISZERO PUSH2 0x20FE JUMPI POP PUSH1 0x39 DUP6 PUSH1 0xFF AND GT ISZERO JUMPDEST ISZERO PUSH2 0x2175 JUMPI DUP7 SWAP8 POP DUP3 ISZERO PUSH2 0x211F JUMPI DUP2 DUP1 PUSH2 0x2117 SWAP1 PUSH2 0x3444 JUMP JUMPDEST SWAP3 POP POP PUSH2 0x212F JUMP JUMPDEST PUSH1 0xA DUP8 PUSH2 0x212C SWAP2 SWAP1 PUSH2 0x32AB JUMP JUMPDEST SWAP7 POP JUMPDEST DUP2 PUSH1 0xA PUSH2 0x213C SWAP2 SWAP1 PUSH2 0x35A0 JUMP JUMPDEST PUSH1 0x30 DUP7 PUSH2 0x2149 SWAP2 SWAP1 PUSH2 0x35EB JUMP JUMPDEST PUSH1 0xFF AND PUSH2 0x2156 SWAP2 SWAP1 PUSH2 0x32AB JUMP JUMPDEST DUP8 PUSH2 0x2161 SWAP2 SWAP1 PUSH2 0x3277 JUMP JUMPDEST SWAP7 POP DUP7 DUP9 GT ISZERO PUSH2 0x2170 JUMPI PUSH1 0x1 SWAP4 POP JUMPDEST PUSH2 0x21AF JUMP JUMPDEST PUSH1 0x2E DUP6 PUSH1 0xFF AND SUB PUSH2 0x21AE JUMPI DUP3 ISZERO PUSH2 0x218B JUMPI PUSH1 0x1 SWAP4 POP JUMPDEST PUSH1 0x1 SWAP3 POP PUSH1 0x12 SWAP2 POP DUP2 PUSH1 0xA PUSH2 0x21A0 SWAP2 SWAP1 PUSH2 0x35A0 JUMP JUMPDEST DUP8 PUSH2 0x21AB SWAP2 SWAP1 PUSH2 0x32AB JUMP JUMPDEST SWAP7 POP JUMPDEST JUMPDEST DUP1 DUP1 PUSH2 0x21BA SWAP1 PUSH2 0x3620 JUMP JUMPDEST SWAP2 POP POP PUSH2 0x20B0 JUMP JUMPDEST POP DUP2 PUSH2 0x21DF JUMPI PUSH8 0xDE0B6B3A7640000 DUP7 PUSH2 0x21DC SWAP2 SWAP1 PUSH2 0x32AB JUMP JUMPDEST SWAP6 POP JUMPDEST DUP6 DUP4 SWAP9 POP SWAP9 POP POP POP POP POP POP POP POP SWAP2 POP SWAP2 JUMP JUMPDEST PUSH1 0xF0 PUSH1 0x9 SLOAD TIMESTAMP PUSH2 0x2201 SWAP2 SWAP1 PUSH2 0x31BC JUMP JUMPDEST LT PUSH2 0x22D6 JUMPI TIMESTAMP PUSH1 0x9 DUP2 SWAP1 SSTORE POP PUSH1 0x0 PUSH1 0x7 PUSH1 0x0 SWAP1 SLOAD SWAP1 PUSH2 0x100 EXP SWAP1 DIV PUSH20 0xFFFFFFFFFFFFFFFFFFFFFFFFFFFFFFFFFFFFFFFF AND SWAP1 POP PUSH1 0x0 DUP2 PUSH20 0xFFFFFFFFFFFFFFFFFFFFFFFFFFFFFFFFFFFFFFFF AND PUSH4 0x98D5FDCA PUSH1 0x40 MLOAD DUP2 PUSH4 0xFFFFFFFF AND PUSH1 0xE0 SHL DUP2 MSTORE PUSH1 0x4 ADD PUSH1 0x0 PUSH1 0x40 MLOAD DUP1 DUP4 SUB DUP2 DUP7 GAS STATICCALL ISZERO DUP1 ISZERO PUSH2 0x2281 JUMPI RETURNDATASIZE PUSH1 0x0 DUP1 RETURNDATACOPY RETURNDATASIZE PUSH1 0x0 REVERT JUMPDEST POP POP POP POP PUSH1 0x40 MLOAD RETURNDATASIZE PUSH1 0x0 DUP3 RETURNDATACOPY RETURNDATASIZE PUSH1 0x1F NOT PUSH1 0x1F DUP3 ADD AND DUP3 ADD DUP1 PUSH1 0x40 MSTORE POP DUP2 ADD SWAP1 PUSH2 0x22AA SWAP2 SWAP1 PUSH2 0x2E66 JUMP JUMPDEST SWAP1 POP PUSH1 0x0 DUP1 PUSH2 0x22B8 DUP4 PUSH2 0x2098 JUMP JUMPDEST SWAP2 POP SWAP2 POP DUP1 ISZERO PUSH2 0x22CA JUMPI DUP2 PUSH1 0x8 DUP2 SWAP1 SSTORE POP JUMPDEST TIMESTAMP PUSH1 0x9 DUP2 SWAP1 SSTORE POP POP POP POP POP JUMPDEST JUMP JUMPDEST PUSH1 0x0 DUP1 PUSH2 0x22E4 DUP5 PUSH2 0x23D0 JUMP JUMPDEST SWAP1 POP PUSH1 0x0 PUSH2 0x22F1 DUP5 PUSH2 0x23D0 JUMP JUMPDEST SWAP1 POP PUSH2 0x2305 PUSH2 0x2300 DUP4 DUP4 PUSH2 0x23DA JUMP JUMPDEST PUSH2 0x240F JUMP JUMPDEST SWAP3 POP POP POP SWAP3 SWAP2 POP POP JUMP JUMPDEST PUSH1 0x0 PUSH1 0x1 DUP3 EQ PUSH2 0x232A JUMPI DUP2 DUP4 PUSH2 0x2325 SWAP2 SWAP1 PUSH2 0x32AB JUMP JUMPDEST PUSH2 0x232C JUMP JUMPDEST DUP3 JUMPDEST SWAP1 POP SWAP3 SWAP2 POP POP JUMP JUMPDEST PUSH1 0x0 PUSH1 0x1 DUP3 EQ PUSH2 0x234F JUMPI DUP2 DUP4 PUSH2 0x234A SWAP2 SWAP1 PUSH2 0x331C JUMP JUMPDEST PUSH2 0x2351 JUMP JUMPDEST DUP3 JUMPDEST SWAP1 POP SWAP3 SWAP2 POP POP JUMP JUMPDEST PUSH1 0x0 DUP1 DUP4 PUSH20 0xFFFFFFFFFFFFFFFFFFFFFFFFFFFFFFFFFFFFFFFF AND DUP4 PUSH1 0x40 MLOAD PUSH2 0x2380 SWAP1 PUSH2 0x3699 JUMP JUMPDEST PUSH1 0x0 PUSH1 0x40 MLOAD DUP1 DUP4 SUB DUP2 DUP6 DUP8 GAS CALL SWAP3 POP POP POP RETURNDATASIZE DUP1 PUSH1 0x0 DUP2 EQ PUSH2 0x23BD JUMPI PUSH1 0x40 MLOAD SWAP2 POP PUSH1 0x1F NOT PUSH1 0x3F RETURNDATASIZE ADD AND DUP3 ADD PUSH1 0x40 MSTORE RETURNDATASIZE DUP3 MSTORE RETURNDATASIZE PUSH1 0x0 PUSH1 0x20 DUP5 ADD RETURNDATACOPY PUSH2 0x23C2 JUMP JUMPDEST PUSH1 0x60 SWAP2 POP JUMPDEST POP POP SWAP1 POP DUP1 SWAP2 POP POP SWAP3 SWAP2 POP POP JUMP JUMPDEST PUSH1 0x0 DUP2 SWAP1 POP SWAP2 SWAP1 POP JUMP JUMPDEST PUSH1 0x0 PUSH2 0x2407 PUSH2 0x2402 PUSH2 0x23EB DUP6 PUSH2 0x240F JUMP JUMPDEST PUSH8 0xDE0B6B3A7640000 PUSH2 0x23FD DUP7 PUSH2 0x240F JUMP JUMPDEST PUSH2 0x2419 JUMP JUMPDEST PUSH2 0x23D0 JUMP JUMPDEST SWAP1 POP SWAP3 SWAP2 POP POP JUMP JUMPDEST PUSH1 0x0 DUP2 SWAP1 POP SWAP2 SWAP1 POP JUMP JUMPDEST PUSH1 0x0 DUP1 PUSH1 0x0 DUP1 NOT DUP6 DUP8 MULMOD DUP6 DUP8 MUL SWAP3 POP DUP3 DUP2 LT DUP4 DUP3 SUB SUB SWAP2 POP POP PUSH1 0x0 DUP2 SUB PUSH2 0x2454 JUMPI DUP4 DUP3 DUP2 PUSH2 0x244A JUMPI PUSH2 0x2449 PUSH2 0x32ED JUMP JUMPDEST JUMPDEST DIV SWAP3 POP POP POP PUSH2 0x252C JUMP JUMPDEST DUP4 DUP2 LT PUSH2 0x249C JUMPI DUP6 DUP6 DUP6 PUSH1 0x40 MLOAD PUSH32 0x63A0577800000000000000000000000000000000000000000000000000000000 DUP2 MSTORE PUSH1 0x4 ADD PUSH2 0x2493 SWAP4 SWAP3 SWAP2 SWAP1 PUSH2 0x36AE JUMP JUMPDEST PUSH1 0x40 MLOAD DUP1 SWAP2 SUB SWAP1 REVERT JUMPDEST PUSH1 0x0 DUP5 DUP7 DUP9 MULMOD SWAP1 POP DUP3 DUP2 GT DUP3 SUB SWAP2 POP DUP1 DUP4 SUB SWAP3 POP PUSH1 0x0 PUSH1 0x1 DUP7 NOT ADD DUP7 AND SWAP1 POP PUSH1 0x0 DUP2 DUP8 DIV SWAP7 POP DUP2 DUP6 DIV SWAP5 POP PUSH1 0x1 DUP3 DUP4 PUSH1 0x0 SUB DIV ADD SWAP1 POP DUP1 DUP5 MUL DUP6 OR SWAP5 POP PUSH1 0x0 PUSH1 0x2 DUP9 PUSH1 0x3 MUL XOR SWAP1 POP DUP1 DUP9 MUL PUSH1 0x2 SUB DUP2 MUL SWAP1 POP DUP1 DUP9 MUL PUSH1 0x2 SUB DUP2 MUL SWAP1 POP DUP1 DUP9 MUL PUSH1 0x2 SUB DUP2 MUL SWAP1 POP DUP1 DUP9 MUL PUSH1 0x2 SUB DUP2 MUL SWAP1 POP DUP1 DUP9 MUL PUSH1 0x2 SUB DUP2 MUL SWAP1 POP DUP1 DUP9 MUL PUSH1 0x2 SUB DUP2 MUL SWAP1 POP DUP1 DUP7 MUL SWAP7 POP POP POP POP POP POP POP JUMPDEST SWAP4 SWAP3 POP POP POP JUMP JUMPDEST PUSH1 0x40 MLOAD DUP1 PUSH2 0x140 ADD PUSH1 0x40 MSTORE DUP1 PUSH1 0x0 DUP2 MSTORE PUSH1 0x20 ADD PUSH1 0x60 DUP2 MSTORE PUSH1 0x20 ADD PUSH1 0x60 DUP2 MSTORE PUSH1 0x20 ADD PUSH1 0x0 PUSH20 0xFFFFFFFFFFFFFFFFFFFFFFFFFFFFFFFFFFFFFFFF AND DUP2 MSTORE PUSH1 0x20 ADD PUSH1 0x0 PUSH20 0xFFFFFFFFFFFFFFFFFFFFFFFFFFFFFFFFFFFFFFFF AND DUP2 MSTORE PUSH1 0x20 ADD PUSH1 0x0 DUP2 MSTORE PUSH1 0x20 ADD PUSH1 0x0 DUP2 MSTORE PUSH1 0x20 ADD PUSH1 0x0 PUSH1 0x1 DUP2 GT ISZERO PUSH2 0x25B0 JUMPI PUSH2 0x25AF PUSH2 0x28BB JUMP JUMPDEST JUMPDEST DUP2 MSTORE PUSH1 0x20 ADD PUSH1 0x0 DUP2 MSTORE PUSH1 0x20 ADD PUSH1 0x0 DUP2 MSTORE POP SWAP1 JUMP JUMPDEST PUSH1 0x40 MLOAD DUP1 PUSH1 0xE0 ADD PUSH1 0x40 MSTORE DUP1 PUSH1 0x0 PUSH20 0xFFFFFFFFFFFFFFFFFFFFFFFFFFFFFFFFFFFFFFFF AND DUP2 MSTORE PUSH1 0x20 ADD PUSH1 0x0 ISZERO ISZERO DUP2 MSTORE PUSH1 0x20 ADD PUSH1 0x0 DUP2 MSTORE PUSH1 0x20 ADD PUSH1 0x0 DUP2 MSTORE PUSH1 0x20 ADD PUSH1 0x0 DUP2 MSTORE PUSH1 0x20 ADD PUSH1 0x0 DUP2 MSTORE PUSH1 0x20 ADD PUSH1 0x0 DUP2 MSTORE POP SWAP1 JUMP JUMPDEST PUSH1 0x40 MLOAD DUP1 PUSH2 0x1A0 ADD PUSH1 0x40 MSTORE DUP1 PUSH1 0x60 DUP2 MSTORE PUSH1 0x20 ADD PUSH1 0x60 DUP2 MSTORE PUSH1 0x20 ADD PUSH1 0x0 PUSH1 0xFF AND DUP2 MSTORE PUSH1 0x20 ADD PUSH1 0x0 DUP2 MSTORE PUSH1 0x20 ADD PUSH1 0x0 PUSH20 0xFFFFFFFFFFFFFFFFFFFFFFFFFFFFFFFFFFFFFFFF AND DUP2 MSTORE PUSH1 0x20 ADD PUSH1 0x0 PUSH20 0xFFFFFFFFFFFFFFFFFFFFFFFFFFFFFFFFFFFFFFFF AND DUP2 MSTORE PUSH1 0x20 ADD PUSH1 0x0 PUSH1 0x1 DUP2 GT ISZERO PUSH2 0x2692 JUMPI PUSH2 0x2691 PUSH2 0x28BB JUMP JUMPDEST JUMPDEST DUP2 MSTORE PUSH1 0x20 ADD PUSH1 0x0 DUP2 MSTORE PUSH1 0x20 ADD PUSH1 0x0 DUP2 MSTORE PUSH1 0x20 ADD PUSH1 0x0 DUP2 MSTORE PUSH1 0x20 ADD PUSH1 0x0 DUP2 MSTORE PUSH1 0x20 ADD PUSH1 0x0 DUP2 MSTORE PUSH1 0x20 ADD PUSH1 0x0 DUP2 MSTORE POP SWAP1 JUMP JUMPDEST PUSH1 0x0 DUP2 SWAP1 POP SWAP2 SWAP1 POP JUMP JUMPDEST PUSH2 0x26D5 DUP2 PUSH2 0x26C2 JUMP JUMPDEST DUP3 MSTORE POP POP JUMP JUMPDEST PUSH1 0x0 PUSH1 0x20 DUP3 ADD SWAP1 POP PUSH2 0x26F0 PUSH1 0x0 DUP4 ADD DUP5 PUSH2 0x26CC JUMP JUMPDEST SWAP3 SWAP2 POP POP JUMP JUMPDEST PUSH1 0x0 PUSH1 0x40 MLOAD SWAP1 POP SWAP1 JUMP JUMPDEST PUSH1 0x0 DUP1 REVERT JUMPDEST PUSH1 0x0 DUP1 REVERT JUMPDEST PUSH1 0x0 PUSH20 0xFFFFFFFFFFFFFFFFFFFFFFFFFFFFFFFFFFFFFFFF DUP3 AND SWAP1 POP SWAP2 SWAP1 POP JUMP JUMPDEST PUSH1 0x0 PUSH2 0x2735 DUP3 PUSH2 0x270A JUMP JUMPDEST SWAP1 POP SWAP2 SWAP1 POP JUMP JUMPDEST PUSH2 0x2745 DUP2 PUSH2 0x272A JUMP JUMPDEST DUP2 EQ PUSH2 0x2750 JUMPI PUSH1 0x0 DUP1 REVERT JUMPDEST POP JUMP JUMPDEST PUSH1 0x0 DUP2 CALLDATALOAD SWAP1 POP PUSH2 0x2762 DUP2 PUSH2 0x273C JUMP JUMPDEST SWAP3 SWAP2 POP POP JUMP JUMPDEST PUSH1 0x0 DUP2 ISZERO ISZERO SWAP1 POP SWAP2 SWAP1 POP JUMP JUMPDEST PUSH2 0x277D DUP2 PUSH2 0x2768 JUMP JUMPDEST DUP2 EQ PUSH2 0x2788 JUMPI PUSH1 0x0 DUP1 REVERT JUMPDEST POP JUMP JUMPDEST PUSH1 0x0 DUP2 CALLDATALOAD SWAP1 POP PUSH2 0x279A DUP2 PUSH2 0x2774 JUMP JUMPDEST SWAP3 SWAP2 POP POP JUMP JUMPDEST PUSH1 0x0 DUP1 PUSH1 0x40 DUP4 DUP6 SUB SLT ISZERO PUSH2 0x27B7 JUMPI PUSH2 0x27B6 PUSH2 0x2700 JUMP JUMPDEST JUMPDEST PUSH1 0x0 PUSH2 0x27C5 DUP6 DUP3 DUP7 ADD PUSH2 0x2753 JUMP JUMPDEST SWAP3 POP POP PUSH1 0x20 PUSH2 0x27D6 DUP6 DUP3 DUP7 ADD PUSH2 0x278B JUMP JUMPDEST SWAP2 POP POP SWAP3 POP SWAP3 SWAP1 POP JUMP JUMPDEST PUSH1 0x0 PUSH1 0x20 DUP3 DUP5 SUB SLT ISZERO PUSH2 0x27F6 JUMPI PUSH2 0x27F5 PUSH2 0x2700 JUMP JUMPDEST JUMPDEST PUSH1 0x0 PUSH2 0x2804 DUP5 DUP3 DUP6 ADD PUSH2 0x2753 JUMP JUMPDEST SWAP2 POP POP SWAP3 SWAP2 POP POP JUMP JUMPDEST PUSH2 0x2816 DUP2 PUSH2 0x26C2 JUMP JUMPDEST DUP3 MSTORE POP POP JUMP JUMPDEST PUSH1 0x0 DUP2 MLOAD SWAP1 POP SWAP2 SWAP1 POP JUMP JUMPDEST PUSH1 0x0 DUP3 DUP3 MSTORE PUSH1 0x20 DUP3 ADD SWAP1 POP SWAP3 SWAP2 POP POP JUMP JUMPDEST PUSH1 0x0 JUMPDEST DUP4 DUP2 LT ISZERO PUSH2 0x2856 JUMPI DUP1 DUP3 ADD MLOAD DUP2 DUP5 ADD MSTORE PUSH1 0x20 DUP2 ADD SWAP1 POP PUSH2 0x283B JUMP JUMPDEST PUSH1 0x0 DUP5 DUP5 ADD MSTORE POP POP POP POP JUMP JUMPDEST PUSH1 0x0 PUSH1 0x1F NOT PUSH1 0x1F DUP4 ADD AND SWAP1 POP SWAP2 SWAP1 POP JUMP JUMPDEST PUSH1 0x0 PUSH2 0x287E DUP3 PUSH2 0x281C JUMP JUMPDEST PUSH2 0x2888 DUP2 DUP6 PUSH2 0x2827 JUMP JUMPDEST SWAP4 POP PUSH2 0x2898 DUP2 DUP6 PUSH1 0x20 DUP7 ADD PUSH2 0x2838 JUMP JUMPDEST PUSH2 0x28A1 DUP2 PUSH2 0x2862 JUMP JUMPDEST DUP5 ADD SWAP2 POP POP SWAP3 SWAP2 POP POP JUMP JUMPDEST PUSH2 0x28B5 DUP2 PUSH2 0x272A JUMP JUMPDEST DUP3 MSTORE POP POP JUMP JUMPDEST PUSH32 0x4E487B7100000000000000000000000000000000000000000000000000000000 PUSH1 0x0 MSTORE PUSH1 0x21 PUSH1 0x4 MSTORE PUSH1 0x24 PUSH1 0x0 REVERT JUMPDEST PUSH1 0x2 DUP2 LT PUSH2 0x28FB JUMPI PUSH2 0x28FA PUSH2 0x28BB JUMP JUMPDEST JUMPDEST POP JUMP JUMPDEST PUSH1 0x0 DUP2 SWAP1 POP PUSH2 0x290C DUP3 PUSH2 0x28EA JUMP JUMPDEST SWAP2 SWAP1 POP JUMP JUMPDEST PUSH1 0x0 PUSH2 0x291C DUP3 PUSH2 0x28FE JUMP JUMPDEST SWAP1 POP SWAP2 SWAP1 POP JUMP JUMPDEST PUSH2 0x292C DUP2 PUSH2 0x2911 JUMP JUMPDEST DUP3 MSTORE POP POP JUMP JUMPDEST PUSH1 0x0 PUSH2 0x140 DUP4 ADD PUSH1 0x0 DUP4 ADD MLOAD PUSH2 0x294B PUSH1 0x0 DUP7 ADD DUP3 PUSH2 0x280D JUMP JUMPDEST POP PUSH1 0x20 DUP4 ADD MLOAD DUP5 DUP3 SUB PUSH1 0x20 DUP7 ADD MSTORE PUSH2 0x2963 DUP3 DUP3 PUSH2 0x2873 JUMP JUMPDEST SWAP2 POP POP PUSH1 0x40 DUP4 ADD MLOAD DUP5 DUP3 SUB PUSH1 0x40 DUP7 ADD MSTORE PUSH2 0x297D DUP3 DUP3 PUSH2 0x2873 JUMP JUMPDEST SWAP2 POP POP PUSH1 0x60 DUP4 ADD MLOAD PUSH2 0x2992 PUSH1 0x60 DUP7 ADD DUP3 PUSH2 0x28AC JUMP JUMPDEST POP PUSH1 0x80 DUP4 ADD MLOAD PUSH2 0x29A5 PUSH1 0x80 DUP7 ADD DUP3 PUSH2 0x28AC JUMP JUMPDEST POP PUSH1 0xA0 DUP4 ADD MLOAD PUSH2 0x29B8 PUSH1 0xA0 DUP7 ADD DUP3 PUSH2 0x280D JUMP JUMPDEST POP PUSH1 0xC0 DUP4 ADD MLOAD PUSH2 0x29CB PUSH1 0xC0 DUP7 ADD DUP3 PUSH2 0x280D JUMP JUMPDEST POP PUSH1 0xE0 DUP4 ADD MLOAD PUSH2 0x29DE PUSH1 0xE0 DUP7 ADD DUP3 PUSH2 0x2923 JUMP JUMPDEST POP PUSH2 0x100 DUP4 ADD MLOAD PUSH2 0x29F3 PUSH2 0x100 DUP7 ADD DUP3 PUSH2 0x280D JUMP JUMPDEST POP PUSH2 0x120 DUP4 ADD MLOAD PUSH2 0x2A08 PUSH2 0x120 DUP7 ADD DUP3 PUSH2 0x280D JUMP JUMPDEST POP DUP1 SWAP2 POP POP SWAP3 SWAP2 POP POP JUMP JUMPDEST PUSH1 0x0 PUSH1 0x20 DUP3 ADD SWAP1 POP DUP2 DUP2 SUB PUSH1 0x0 DUP4 ADD MSTORE PUSH2 0x2A2D DUP2 DUP5 PUSH2 0x2932 JUMP JUMPDEST SWAP1 POP SWAP3 SWAP2 POP POP JUMP JUMPDEST PUSH2 0x2A3E DUP2 PUSH2 0x26C2 JUMP JUMPDEST DUP2 EQ PUSH2 0x2A49 JUMPI PUSH1 0x0 DUP1 REVERT JUMPDEST POP JUMP JUMPDEST PUSH1 0x0 DUP2 CALLDATALOAD SWAP1 POP PUSH2 0x2A5B DUP2 PUSH2 0x2A35 JUMP JUMPDEST SWAP3 SWAP2 POP POP JUMP JUMPDEST PUSH1 0x0 PUSH1 0x20 DUP3 DUP5 SUB SLT ISZERO PUSH2 0x2A77 JUMPI PUSH2 0x2A76 PUSH2 0x2700 JUMP JUMPDEST JUMPDEST PUSH1 0x0 PUSH2 0x2A85 DUP5 DUP3 DUP6 ADD PUSH2 0x2A4C JUMP JUMPDEST SWAP2 POP POP SWAP3 SWAP2 POP POP JUMP JUMPDEST PUSH1 0x2 DUP2 LT PUSH2 0x2A9B JUMPI PUSH1 0x0 DUP1 REVERT JUMPDEST POP JUMP JUMPDEST PUSH1 0x0 DUP2 CALLDATALOAD SWAP1 POP PUSH2 0x2AAD DUP2 PUSH2 0x2A8E JUMP JUMPDEST SWAP3 SWAP2 POP POP JUMP JUMPDEST PUSH1 0x0 DUP1 REVERT JUMPDEST PUSH1 0x0 DUP1 REVERT JUMPDEST PUSH32 0x4E487B7100000000000000000000000000000000000000000000000000000000 PUSH1 0x0 MSTORE PUSH1 0x41 PUSH1 0x4 MSTORE PUSH1 0x24 PUSH1 0x0 REVERT JUMPDEST PUSH2 0x2AF5 DUP3 PUSH2 0x2862 JUMP JUMPDEST DUP2 ADD DUP2 DUP2 LT PUSH8 0xFFFFFFFFFFFFFFFF DUP3 GT OR ISZERO PUSH2 0x2B14 JUMPI PUSH2 0x2B13 PUSH2 0x2ABD JUMP JUMPDEST JUMPDEST DUP1 PUSH1 0x40 MSTORE POP POP POP JUMP JUMPDEST PUSH1 0x0 PUSH2 0x2B27 PUSH2 0x26F6 JUMP JUMPDEST SWAP1 POP PUSH2 0x2B33 DUP3 DUP3 PUSH2 0x2AEC JUMP JUMPDEST SWAP2 SWAP1 POP JUMP JUMPDEST PUSH1 0x0 PUSH8 0xFFFFFFFFFFFFFFFF DUP3 GT ISZERO PUSH2 0x2B53 JUMPI PUSH2 0x2B52 PUSH2 0x2ABD JUMP JUMPDEST JUMPDEST PUSH2 0x2B5C DUP3 PUSH2 0x2862 JUMP JUMPDEST SWAP1 POP PUSH1 0x20 DUP2 ADD SWAP1 POP SWAP2 SWAP1 POP JUMP JUMPDEST DUP3 DUP2 DUP4 CALLDATACOPY PUSH1 0x0 DUP4 DUP4 ADD MSTORE POP POP POP JUMP JUMPDEST PUSH1 0x0 PUSH2 0x2B8B PUSH2 0x2B86 DUP5 PUSH2 0x2B38 JUMP JUMPDEST PUSH2 0x2B1D JUMP JUMPDEST SWAP1 POP DUP3 DUP2 MSTORE PUSH1 0x20 DUP2 ADD DUP5 DUP5 DUP5 ADD GT ISZERO PUSH2 0x2BA7 JUMPI PUSH2 0x2BA6 PUSH2 0x2AB8 JUMP JUMPDEST JUMPDEST PUSH2 0x2BB2 DUP5 DUP3 DUP6 PUSH2 0x2B69 JUMP JUMPDEST POP SWAP4 SWAP3 POP POP POP JUMP JUMPDEST PUSH1 0x0 DUP3 PUSH1 0x1F DUP4 ADD SLT PUSH2 0x2BCF JUMPI PUSH2 0x2BCE PUSH2 0x2AB3 JUMP JUMPDEST JUMPDEST DUP2 CALLDATALOAD PUSH2 0x2BDF DUP5 DUP3 PUSH1 0x20 DUP7 ADD PUSH2 0x2B78 JUMP JUMPDEST SWAP2 POP POP SWAP3 SWAP2 POP POP JUMP JUMPDEST PUSH1 0x0 DUP1 PUSH1 0x0 DUP1 PUSH1 0x0 DUP1 PUSH1 0xC0 DUP8 DUP10 SUB SLT ISZERO PUSH2 0x2C05 JUMPI PUSH2 0x2C04 PUSH2 0x2700 JUMP JUMPDEST JUMPDEST PUSH1 0x0 PUSH2 0x2C13 DUP10 DUP3 DUP11 ADD PUSH2 0x2753 JUMP JUMPDEST SWAP7 POP POP PUSH1 0x20 PUSH2 0x2C24 DUP10 DUP3 DUP11 ADD PUSH2 0x2A9E JUMP JUMPDEST SWAP6 POP POP PUSH1 0x40 PUSH2 0x2C35 DUP10 DUP3 DUP11 ADD PUSH2 0x2A4C JUMP JUMPDEST SWAP5 POP POP PUSH1 0x60 PUSH2 0x2C46 DUP10 DUP3 DUP11 ADD PUSH2 0x2A4C JUMP JUMPDEST SWAP4 POP POP PUSH1 0x80 PUSH2 0x2C57 DUP10 DUP3 DUP11 ADD PUSH2 0x2753 JUMP JUMPDEST SWAP3 POP POP PUSH1 0xA0 DUP8 ADD CALLDATALOAD PUSH8 0xFFFFFFFFFFFFFFFF DUP2 GT ISZERO PUSH2 0x2C78 JUMPI PUSH2 0x2C77 PUSH2 0x2705 JUMP JUMPDEST JUMPDEST PUSH2 0x2C84 DUP10 DUP3 DUP11 ADD PUSH2 0x2BBA JUMP JUMPDEST SWAP2 POP POP SWAP3 SWAP6 POP SWAP3 SWAP6 POP SWAP3 SWAP6 JUMP JUMPDEST PUSH1 0x0 DUP1 PUSH1 0x40 DUP4 DUP6 SUB SLT ISZERO PUSH2 0x2CA8 JUMPI PUSH2 0x2CA7 PUSH2 0x2700 JUMP JUMPDEST JUMPDEST PUSH1 0x0 PUSH2 0x2CB6 DUP6 DUP3 DUP7 ADD PUSH2 0x2753 JUMP JUMPDEST SWAP3 POP POP PUSH1 0x20 PUSH2 0x2CC7 DUP6 DUP3 DUP7 ADD PUSH2 0x2A4C JUMP JUMPDEST SWAP2 POP POP SWAP3 POP SWAP3 SWAP1 POP JUMP JUMPDEST PUSH1 0x0 DUP1 PUSH1 0x0 PUSH1 0x60 DUP5 DUP7 SUB SLT ISZERO PUSH2 0x2CEA JUMPI PUSH2 0x2CE9 PUSH2 0x2700 JUMP JUMPDEST JUMPDEST PUSH1 0x0 PUSH2 0x2CF8 DUP7 DUP3 DUP8 ADD PUSH2 0x2753 JUMP JUMPDEST SWAP4 POP POP PUSH1 0x20 PUSH2 0x2D09 DUP7 DUP3 DUP8 ADD PUSH2 0x2753 JUMP JUMPDEST SWAP3 POP POP PUSH1 0x40 PUSH2 0x2D1A DUP7 DUP3 DUP8 ADD PUSH2 0x2A4C JUMP JUMPDEST SWAP2 POP POP SWAP3 POP SWAP3 POP SWAP3 JUMP JUMPDEST PUSH2 0x2D2D DUP2 PUSH2 0x272A JUMP JUMPDEST DUP3 MSTORE POP POP JUMP JUMPDEST PUSH1 0x0 PUSH1 0x20 DUP3 ADD SWAP1 POP PUSH2 0x2D48 PUSH1 0x0 DUP4 ADD DUP5 PUSH2 0x2D24 JUMP JUMPDEST SWAP3 SWAP2 POP POP JUMP JUMPDEST PUSH1 0x0 DUP2 MLOAD SWAP1 POP PUSH2 0x2D5D DUP2 PUSH2 0x2A35 JUMP JUMPDEST SWAP3 SWAP2 POP POP JUMP JUMPDEST PUSH1 0x0 PUSH1 0x20 DUP3 DUP5 SUB SLT ISZERO PUSH2 0x2D79 JUMPI PUSH2 0x2D78 PUSH2 0x2700 JUMP JUMPDEST JUMPDEST PUSH1 0x0 PUSH2 0x2D87 DUP5 DUP3 DUP6 ADD PUSH2 0x2D4E JUMP JUMPDEST SWAP2 POP POP SWAP3 SWAP2 POP POP JUMP JUMPDEST PUSH1 0x0 PUSH1 0xFF DUP3 AND SWAP1 POP SWAP2 SWAP1 POP JUMP JUMPDEST PUSH2 0x2DA6 DUP2 PUSH2 0x2D90 JUMP JUMPDEST DUP2 EQ PUSH2 0x2DB1 JUMPI PUSH1 0x0 DUP1 REVERT JUMPDEST POP JUMP JUMPDEST PUSH1 0x0 DUP2 MLOAD SWAP1 POP PUSH2 0x2DC3 DUP2 PUSH2 0x2D9D JUMP JUMPDEST SWAP3 SWAP2 POP POP JUMP JUMPDEST PUSH1 0x0 PUSH1 0x20 DUP3 DUP5 SUB SLT ISZERO PUSH2 0x2DDF JUMPI PUSH2 0x2DDE PUSH2 0x2700 JUMP JUMPDEST JUMPDEST PUSH1 0x0 PUSH2 0x2DED DUP5 DUP3 DUP6 ADD PUSH2 0x2DB4 JUMP JUMPDEST SWAP2 POP POP SWAP3 SWAP2 POP POP JUMP JUMPDEST PUSH1 0x0 PUSH2 0x2E09 PUSH2 0x2E04 DUP5 PUSH2 0x2B38 JUMP JUMPDEST PUSH2 0x2B1D JUMP JUMPDEST SWAP1 POP DUP3 DUP2 MSTORE PUSH1 0x20 DUP2 ADD DUP5 DUP5 DUP5 ADD GT ISZERO PUSH2 0x2E25 JUMPI PUSH2 0x2E24 PUSH2 0x2AB8 JUMP JUMPDEST JUMPDEST PUSH2 0x2E30 DUP5 DUP3 DUP6 PUSH2 0x2838 JUMP JUMPDEST POP SWAP4 SWAP3 POP POP POP JUMP JUMPDEST PUSH1 0x0 DUP3 PUSH1 0x1F DUP4 ADD SLT PUSH2 0x2E4D JUMPI PUSH2 0x2E4C PUSH2 0x2AB3 JUMP JUMPDEST JUMPDEST DUP2 MLOAD PUSH2 0x2E5D DUP5 DUP3 PUSH1 0x20 DUP7 ADD PUSH2 0x2DF6 JUMP JUMPDEST SWAP2 POP POP SWAP3 SWAP2 POP POP JUMP JUMPDEST PUSH1 0x0 PUSH1 0x20 DUP3 DUP5 SUB SLT ISZERO PUSH2 0x2E7C JUMPI PUSH2 0x2E7B PUSH2 0x2700 JUMP JUMPDEST JUMPDEST PUSH1 0x0 DUP3 ADD MLOAD PUSH8 0xFFFFFFFFFFFFFFFF DUP2 GT ISZERO PUSH2 0x2E9A JUMPI PUSH2 0x2E99 PUSH2 0x2705 JUMP JUMPDEST JUMPDEST PUSH2 0x2EA6 DUP5 DUP3 DUP6 ADD PUSH2 0x2E38 JUMP JUMPDEST SWAP2 POP POP SWAP3 SWAP2 POP POP JUMP JUMPDEST PUSH32 0x4E487B7100000000000000000000000000000000000000000000000000000000 PUSH1 0x0 MSTORE PUSH1 0x22 PUSH1 0x4 MSTORE PUSH1 0x24 PUSH1 0x0 REVERT JUMPDEST PUSH1 0x0 PUSH1 0x2 DUP3 DIV SWAP1 POP PUSH1 0x1 DUP3 AND DUP1 PUSH2 0x2EF6 JUMPI PUSH1 0x7F DUP3 AND SWAP2 POP JUMPDEST PUSH1 0x20 DUP3 LT DUP2 SUB PUSH2 0x2F09 JUMPI PUSH2 0x2F08 PUSH2 0x2EAF JUMP JUMPDEST JUMPDEST POP SWAP2 SWAP1 POP JUMP JUMPDEST PUSH1 0x0 DUP2 SWAP1 POP DUP2 PUSH1 0x0 MSTORE PUSH1 0x20 PUSH1 0x0 KECCAK256 SWAP1 POP SWAP2 SWAP1 POP JUMP JUMPDEST PUSH1 0x0 PUSH1 0x20 PUSH1 0x1F DUP4 ADD DIV SWAP1 POP SWAP2 SWAP1 POP JUMP JUMPDEST PUSH1 0x0 DUP3 DUP3 SHL SWAP1 POP SWAP3 SWAP2 POP POP JUMP JUMPDEST PUSH1 0x0 PUSH1 0x8 DUP4 MUL PUSH2 0x2F71 PUSH32 0xFFFFFFFFFFFFFFFFFFFFFFFFFFFFFFFFFFFFFFFFFFFFFFFFFFFFFFFFFFFFFFFF DUP3 PUSH2 0x2F34 JUMP JUMPDEST PUSH2 0x2F7B DUP7 DUP4 PUSH2 0x2F34 JUMP JUMPDEST SWAP6 POP DUP1 NOT DUP5 AND SWAP4 POP DUP1 DUP7 AND DUP5 OR SWAP3 POP POP POP SWAP4 SWAP3 POP POP POP JUMP JUMPDEST PUSH1 0x0 DUP2 SWAP1 POP SWAP2 SWAP1 POP JUMP JUMPDEST PUSH1 0x0 PUSH2 0x2FB8 PUSH2 0x2FB3 PUSH2 0x2FAE DUP5 PUSH2 0x26C2 JUMP JUMPDEST PUSH2 0x2F93 JUMP JUMPDEST PUSH2 0x26C2 JUMP JUMPDEST SWAP1 POP SWAP2 SWAP1 POP JUMP JUMPDEST PUSH1 0x0 DUP2 SWAP1 POP SWAP2 SWAP1 POP JUMP JUMPDEST PUSH2 0x2FD2 DUP4 PUSH2 0x2F9D JUMP JUMPDEST PUSH2 0x2FE6 PUSH2 0x2FDE DUP3 PUSH2 0x2FBF JUMP JUMPDEST DUP5 DUP5 SLOAD PUSH2 0x2F41 JUMP JUMPDEST DUP3 SSTORE POP POP POP POP JUMP JUMPDEST PUSH1 0x0 SWAP1 JUMP JUMPDEST PUSH2 0x2FFB PUSH2 0x2FEE JUMP JUMPDEST PUSH2 0x3006 DUP2 DUP5 DUP5 PUSH2 0x2FC9 JUMP JUMPDEST POP POP POP JUMP JUMPDEST JUMPDEST DUP2 DUP2 LT ISZERO PUSH2 0x302A JUMPI PUSH2 0x301F PUSH1 0x0 DUP3 PUSH2 0x2FF3 JUMP JUMPDEST PUSH1 0x1 DUP2 ADD SWAP1 POP PUSH2 0x300C JUMP JUMPDEST POP POP JUMP JUMPDEST PUSH1 0x1F DUP3 GT ISZERO PUSH2 0x306F JUMPI PUSH2 0x3040 DUP2 PUSH2 0x2F0F JUMP JUMPDEST PUSH2 0x3049 DUP5 PUSH2 0x2F24 JUMP JUMPDEST DUP2 ADD PUSH1 0x20 DUP6 LT ISZERO PUSH2 0x3058 JUMPI DUP2 SWAP1 POP JUMPDEST PUSH2 0x306C PUSH2 0x3064 DUP6 PUSH2 0x2F24 JUMP JUMPDEST DUP4 ADD DUP3 PUSH2 0x300B JUMP JUMPDEST POP POP JUMPDEST POP POP POP JUMP JUMPDEST PUSH1 0x0 DUP3 DUP3 SHR SWAP1 POP SWAP3 SWAP2 POP POP JUMP JUMPDEST PUSH1 0x0 PUSH2 0x3092 PUSH1 0x0 NOT DUP5 PUSH1 0x8 MUL PUSH2 0x3074 JUMP JUMPDEST NOT DUP1 DUP4 AND SWAP2 POP POP SWAP3 SWAP2 POP POP JUMP JUMPDEST PUSH1 0x0 PUSH2 0x30AB DUP4 DUP4 PUSH2 0x3081 JUMP JUMPDEST SWAP2 POP DUP3 PUSH1 0x2 MUL DUP3 OR SWAP1 POP SWAP3 SWAP2 POP POP JUMP JUMPDEST PUSH2 0x30C4 DUP3 PUSH2 0x281C JUMP JUMPDEST PUSH8 0xFFFFFFFFFFFFFFFF DUP2 GT ISZERO PUSH2 0x30DD JUMPI PUSH2 0x30DC PUSH2 0x2ABD JUMP JUMPDEST JUMPDEST PUSH2 0x30E7 DUP3 SLOAD PUSH2 0x2EDE JUMP JUMPDEST PUSH2 0x30F2 DUP3 DUP3 DUP6 PUSH2 0x302E JUMP JUMPDEST PUSH1 0x0 PUSH1 0x20 SWAP1 POP PUSH1 0x1F DUP4 GT PUSH1 0x1 DUP2 EQ PUSH2 0x3125 JUMPI PUSH1 0x0 DUP5 ISZERO PUSH2 0x3113 JUMPI DUP3 DUP8 ADD MLOAD SWAP1 POP JUMPDEST PUSH2 0x311D DUP6 DUP3 PUSH2 0x309F JUMP JUMPDEST DUP7 SSTORE POP PUSH2 0x3185 JUMP JUMPDEST PUSH1 0x1F NOT DUP5 AND PUSH2 0x3133 DUP7 PUSH2 0x2F0F JUMP JUMPDEST PUSH1 0x0 JUMPDEST DUP3 DUP2 LT ISZERO PUSH2 0x315B JUMPI DUP5 DUP10 ADD MLOAD DUP3 SSTORE PUSH1 0x1 DUP3 ADD SWAP2 POP PUSH1 0x20 DUP6 ADD SWAP5 POP PUSH1 0x20 DUP2 ADD SWAP1 POP PUSH2 0x3136 JUMP JUMPDEST DUP7 DUP4 LT ISZERO PUSH2 0x3178 JUMPI DUP5 DUP10 ADD MLOAD PUSH2 0x3174 PUSH1 0x1F DUP10 AND DUP3 PUSH2 0x3081 JUMP JUMPDEST DUP4 SSTORE POP JUMPDEST PUSH1 0x1 PUSH1 0x2 DUP9 MUL ADD DUP9 SSTORE POP POP POP JUMPDEST POP POP POP POP POP POP JUMP JUMPDEST PUSH32 0x4E487B7100000000000000000000000000000000000000000000000000000000 PUSH1 0x0 MSTORE PUSH1 0x11 PUSH1 0x4 MSTORE PUSH1 0x24 PUSH1 0x0 REVERT JUMPDEST PUSH1 0x0 PUSH2 0x31C7 DUP3 PUSH2 0x26C2 JUMP JUMPDEST SWAP2 POP PUSH2 0x31D2 DUP4 PUSH2 0x26C2 JUMP JUMPDEST SWAP3 POP DUP3 DUP3 SUB SWAP1 POP DUP2 DUP2 GT ISZERO PUSH2 0x31EA JUMPI PUSH2 0x31E9 PUSH2 0x318D JUMP JUMPDEST JUMPDEST SWAP3 SWAP2 POP POP JUMP JUMPDEST PUSH32 0x4E487B7100000000000000000000000000000000000000000000000000000000 PUSH1 0x0 MSTORE PUSH1 0x32 PUSH1 0x4 MSTORE PUSH1 0x24 PUSH1 0x0 REVERT JUMPDEST PUSH32 0x4E487B7100000000000000000000000000000000000000000000000000000000 PUSH1 0x0 MSTORE PUSH1 0x31 PUSH1 0x4 MSTORE PUSH1 0x24 PUSH1 0x0 REVERT JUMPDEST PUSH1 0x0 PUSH2 0x3259 DUP3 PUSH2 0x26C2 JUMP JUMPDEST SWAP2 POP PUSH1 0x0 DUP3 SUB PUSH2 0x326C JUMPI PUSH2 0x326B PUSH2 0x318D JUMP JUMPDEST JUMPDEST PUSH1 0x1 DUP3 SUB SWAP1 POP SWAP2 SWAP1 POP JUMP JUMPDEST PUSH1 0x0 PUSH2 0x3282 DUP3 PUSH2 0x26C2 JUMP JUMPDEST SWAP2 POP PUSH2 0x328D DUP4 PUSH2 0x26C2 JUMP JUMPDEST SWAP3 POP DUP3 DUP3 ADD SWAP1 POP DUP1 DUP3 GT ISZERO PUSH2 0x32A5 JUMPI PUSH2 0x32A4 PUSH2 0x318D JUMP JUMPDEST JUMPDEST SWAP3 SWAP2 POP POP JUMP JUMPDEST PUSH1 0x0 PUSH2 0x32B6 DUP3 PUSH2 0x26C2 JUMP JUMPDEST SWAP2 POP PUSH2 0x32C1 DUP4 PUSH2 0x26C2 JUMP JUMPDEST SWAP3 POP DUP3 DUP3 MUL PUSH2 0x32CF DUP2 PUSH2 0x26C2 JUMP JUMPDEST SWAP2 POP DUP3 DUP3 DIV DUP5 EQ DUP4 ISZERO OR PUSH2 0x32E6 JUMPI PUSH2 0x32E5 PUSH2 0x318D JUMP JUMPDEST JUMPDEST POP SWAP3 SWAP2 POP POP JUMP JUMPDEST PUSH32 0x4E487B7100000000000000000000000000000000000000000000000000000000 PUSH1 0x0 MSTORE PUSH1 0x12 PUSH1 0x4 MSTORE PUSH1 0x24 PUSH1 0x0 REVERT JUMPDEST PUSH1 0x0 PUSH2 0x3327 DUP3 PUSH2 0x26C2 JUMP JUMPDEST SWAP2 POP PUSH2 0x3332 DUP4 PUSH2 0x26C2 JUMP JUMPDEST SWAP3 POP DUP3 PUSH2 0x3342 JUMPI PUSH2 0x3341 PUSH2 0x32ED JUMP JUMPDEST JUMPDEST DUP3 DUP3 DIV SWAP1 POP SWAP3 SWAP2 POP POP JUMP JUMPDEST PUSH1 0x0 PUSH2 0x3368 PUSH2 0x3363 PUSH2 0x335E DUP5 PUSH2 0x270A JUMP JUMPDEST PUSH2 0x2F93 JUMP JUMPDEST PUSH2 0x270A JUMP JUMPDEST SWAP1 POP SWAP2 SWAP1 POP JUMP JUMPDEST PUSH1 0x0 PUSH2 0x337A DUP3 PUSH2 0x334D JUMP JUMPDEST SWAP1 POP SWAP2 SWAP1 POP JUMP JUMPDEST PUSH1 0x0 PUSH2 0x338C DUP3 PUSH2 0x336F JUMP JUMPDEST SWAP1 POP SWAP2 SWAP1 POP JUMP JUMPDEST PUSH2 0x339C DUP2 PUSH2 0x3381 JUMP JUMPDEST DUP3 MSTORE POP POP JUMP JUMPDEST PUSH1 0x0 PUSH1 0x40 DUP3 ADD SWAP1 POP PUSH2 0x33B7 PUSH1 0x0 DUP4 ADD DUP6 PUSH2 0x3393 JUMP JUMPDEST PUSH2 0x33C4 PUSH1 0x20 DUP4 ADD DUP5 PUSH2 0x26CC JUMP JUMPDEST SWAP4 SWAP3 POP POP POP JUMP JUMPDEST PUSH1 0x0 DUP2 MLOAD SWAP1 POP PUSH2 0x33DA DUP2 PUSH2 0x2774 JUMP JUMPDEST SWAP3 SWAP2 POP POP JUMP JUMPDEST PUSH1 0x0 PUSH1 0x20 DUP3 DUP5 SUB SLT ISZERO PUSH2 0x33F6 JUMPI PUSH2 0x33F5 PUSH2 0x2700 JUMP JUMPDEST JUMPDEST PUSH1 0x0 PUSH2 0x3404 DUP5 DUP3 DUP6 ADD PUSH2 0x33CB JUMP JUMPDEST SWAP2 POP POP SWAP3 SWAP2 POP POP JUMP JUMPDEST PUSH1 0x0 PUSH1 0x60 DUP3 ADD SWAP1 POP PUSH2 0x3422 PUSH1 0x0 DUP4 ADD DUP7 PUSH2 0x2D24 JUMP JUMPDEST PUSH2 0x342F PUSH1 0x20 DUP4 ADD DUP6 PUSH2 0x2D24 JUMP JUMPDEST PUSH2 0x343C PUSH1 0x40 DUP4 ADD DUP5 PUSH2 0x26CC JUMP JUMPDEST SWAP5 SWAP4 POP POP POP POP JUMP JUMPDEST PUSH1 0x0 PUSH2 0x344F DUP3 PUSH2 0x2D90 JUMP JUMPDEST SWAP2 POP PUSH1 0x0 DUP3 SUB PUSH2 0x3462 JUMPI PUSH2 0x3461 PUSH2 0x318D JUMP JUMPDEST JUMPDEST PUSH1 0x1 DUP3 SUB SWAP1 POP SWAP2 SWAP1 POP JUMP JUMPDEST PUSH1 0x0 DUP2 PUSH1 0x1 SHR SWAP1 POP SWAP2 SWAP1 POP JUMP JUMPDEST PUSH1 0x0 DUP1 DUP3 SWAP2 POP DUP4 SWAP1 POP JUMPDEST PUSH1 0x1 DUP6 GT ISZERO PUSH2 0x34C4 JUMPI DUP1 DUP7 DIV DUP2 GT ISZERO PUSH2 0x34A0 JUMPI PUSH2 0x349F PUSH2 0x318D JUMP JUMPDEST JUMPDEST PUSH1 0x1 DUP6 AND ISZERO PUSH2 0x34AF JUMPI DUP1 DUP3 MUL SWAP2 POP JUMPDEST DUP1 DUP2 MUL SWAP1 POP PUSH2 0x34BD DUP6 PUSH2 0x346D JUMP JUMPDEST SWAP5 POP PUSH2 0x3484 JUMP JUMPDEST SWAP5 POP SWAP5 SWAP3 POP POP POP JUMP JUMPDEST PUSH1 0x0 DUP3 PUSH2 0x34DD JUMPI PUSH1 0x1 SWAP1 POP PUSH2 0x3599 JUMP JUMPDEST DUP2 PUSH2 0x34EB JUMPI PUSH1 0x0 SWAP1 POP PUSH2 0x3599 JUMP JUMPDEST DUP2 PUSH1 0x1 DUP2 EQ PUSH2 0x3501 JUMPI PUSH1 0x2 DUP2 EQ PUSH2 0x350B JUMPI PUSH2 0x353A JUMP JUMPDEST PUSH1 0x1 SWAP2 POP POP PUSH2 0x3599 JUMP JUMPDEST PUSH1 0xFF DUP5 GT ISZERO PUSH2 0x351D JUMPI PUSH2 0x351C PUSH2 0x318D JUMP JUMPDEST JUMPDEST DUP4 PUSH1 0x2 EXP SWAP2 POP DUP5 DUP3 GT ISZERO PUSH2 0x3534 JUMPI PUSH2 0x3533 PUSH2 0x318D JUMP JUMPDEST JUMPDEST POP PUSH2 0x3599 JUMP JUMPDEST POP PUSH1 0x20 DUP4 LT PUSH2 0x133 DUP4 LT AND PUSH1 0x4E DUP5 LT PUSH1 0xB DUP5 LT AND OR ISZERO PUSH2 0x356F JUMPI DUP3 DUP3 EXP SWAP1 POP DUP4 DUP2 GT ISZERO PUSH2 0x356A JUMPI PUSH2 0x3569 PUSH2 0x318D JUMP JUMPDEST JUMPDEST PUSH2 0x3599 JUMP JUMPDEST PUSH2 0x357C DUP5 DUP5 DUP5 PUSH1 0x1 PUSH2 0x347A JUMP JUMPDEST SWAP3 POP SWAP1 POP DUP2 DUP5 DIV DUP2 GT ISZERO PUSH2 0x3593 JUMPI PUSH2 0x3592 PUSH2 0x318D JUMP JUMPDEST JUMPDEST DUP2 DUP2 MUL SWAP1 POP JUMPDEST SWAP4 SWAP3 POP POP POP JUMP JUMPDEST PUSH1 0x0 PUSH2 0x35AB DUP3 PUSH2 0x26C2 JUMP JUMPDEST SWAP2 POP PUSH2 0x35B6 DUP4 PUSH2 0x2D90 JUMP JUMPDEST SWAP3 POP PUSH2 0x35E3 PUSH32 0xFFFFFFFFFFFFFFFFFFFFFFFFFFFFFFFFFFFFFFFFFFFFFFFFFFFFFFFFFFFFFFFF DUP5 DUP5 PUSH2 0x34CD JUMP JUMPDEST SWAP1 POP SWAP3 SWAP2 POP POP JUMP JUMPDEST PUSH1 0x0 PUSH2 0x35F6 DUP3 PUSH2 0x2D90 JUMP JUMPDEST SWAP2 POP PUSH2 0x3601 DUP4 PUSH2 0x2D90 JUMP JUMPDEST SWAP3 POP DUP3 DUP3 SUB SWAP1 POP PUSH1 0xFF DUP2 GT ISZERO PUSH2 0x361A JUMPI PUSH2 0x3619 PUSH2 0x318D JUMP JUMPDEST JUMPDEST SWAP3 SWAP2 POP POP JUMP JUMPDEST PUSH1 0x0 PUSH2 0x362B DUP3 PUSH2 0x26C2 JUMP JUMPDEST SWAP2 POP PUSH32 0xFFFFFFFFFFFFFFFFFFFFFFFFFFFFFFFFFFFFFFFFFFFFFFFFFFFFFFFFFFFFFFFF DUP3 SUB PUSH2 0x365D JUMPI PUSH2 0x365C PUSH2 0x318D JUMP JUMPDEST JUMPDEST PUSH1 0x1 DUP3 ADD SWAP1 POP SWAP2 SWAP1 POP JUMP JUMPDEST PUSH1 0x0 DUP2 SWAP1 POP SWAP3 SWAP2 POP POP JUMP JUMPDEST POP JUMP JUMPDEST PUSH1 0x0 PUSH2 0x3683 PUSH1 0x0 DUP4 PUSH2 0x3668 JUMP JUMPDEST SWAP2 POP PUSH2 0x368E DUP3 PUSH2 0x3673 JUMP JUMPDEST PUSH1 0x0 DUP3 ADD SWAP1 POP SWAP2 SWAP1 POP JUMP JUMPDEST PUSH1 0x0 PUSH2 0x36A4 DUP3 PUSH2 0x3676 JUMP JUMPDEST SWAP2 POP DUP2 SWAP1 POP SWAP2 SWAP1 POP JUMP JUMPDEST PUSH1 0x0 PUSH1 0x60 DUP3 ADD SWAP1 POP PUSH2 0x36C3 PUSH1 0x0 DUP4 ADD DUP7 PUSH2 0x26CC JUMP JUMPDEST PUSH2 0x36D0 PUSH1 0x20 DUP4 ADD DUP6 PUSH2 0x26CC JUMP JUMPDEST PUSH2 0x36DD PUSH1 0x40 DUP4 ADD DUP5 PUSH2 0x26CC JUMP JUMPDEST SWAP5 SWAP4 POP POP POP POP JUMP INVALID LOG2 PUSH5 0x6970667358 0x22 SLT KECCAK256 PUSH4 0x92EBC815 0xCD LOG3 SWAP7 0xF6 0xBE 0xA7 LOG1 0xB1 0xD3 0xB5 SWAP3 PUSH1 0x30 0x22 LOG2 PUSH22 0xFBFDD38BA4F7E70D42B0A364736F6C63430008150033 "},"methodIdentifiers":{"createBuyOrder(address)":"d2980065","createSellOrder(address,uint256)":"a262b73f","deposit(address)":"f340fa01","depositToken(address,address,uint256)":"fb0f97a8","getBalance()":"12065fe0","listToken(address,uint8,uint256,uint256,address,string)":"92e6b829","queryBalance(address,bool)":"3b174f0f","settleOrders(address,bool)":"c201e47c","viewToken(address)":"673cf82a","viewToken(uint256)":"8334d195"}}}}}