{"contracts/DexhunePriceDAO.sol":{"DexhunePriceDAO":{"abi":[{"inputs":[],"name":"AlreadyVoted","type":"error"},{"inputs":[],"name":"NotEligibleToVote","type":"error"},{"inputs":[],"name":"ProposalDoesNotExist","type":"error"},{"inputs":[],"name":"ProposalHasExpired","type":"error"},{"inputs":[],"name":"ProposalIsStillActive","type":"error"},{"inputs":[],"name":"VotingDeactivated","type":"error"},{"anonymous":false,"inputs":[{"indexed":false,"internalType":"string","name":"oldPrice","type":"string"},{"indexed":false,"internalType":"string","name":"newPrice","type":"string"}],"name":"PriceUpdated","type":"event"},{"anonymous":false,"inputs":[{"indexed":false,"internalType":"uint256","name":"id","type":"uint256"},{"indexed":false,"internalType":"string","name":"description","type":"string"},{"indexed":false,"internalType":"address","name":"proposer","type":"address"}],"name":"ProposalCreated","type":"event"},{"anonymous":false,"inputs":[{"indexed":false,"internalType":"uint256","name":"id","type":"uint256"},{"indexed":false,"internalType":"bool","name":"passed","type":"bool"}],"name":"ProposalFinalized","type":"event"},{"anonymous":false,"inputs":[{"indexed":false,"internalType":"address","name":"voter","type":"address"},{"indexed":false,"internalType":"uint256","name":"proposalId","type":"uint256"}],"name":"VotedDown","type":"event"},{"anonymous":false,"inputs":[{"indexed":false,"internalType":"address","name":"voter","type":"address"},{"indexed":false,"internalType":"uint256","name":"proposalId","type":"uint256"}],"name":"VotedUp","type":"event"},{"anonymous":false,"inputs":[{"indexed":false,"internalType":"uint256","name":"id","type":"uint256"},{"indexed":false,"internalType":"address","name":"collectionAddress","type":"address"}],"name":"addedNFTCollection","type":"event"},{"anonymous":false,"inputs":[{"indexed":false,"internalType":"uint256","name":"id","type":"uint256"},{"indexed":false,"internalType":"address","name":"collectionAddress","type":"address"}],"name":"removedNFTCollection","type":"event"},{"anonymous":false,"inputs":[{"indexed":false,"internalType":"address","name":"from","type":"address"},{"indexed":false,"internalType":"address","name":"to","type":"address"}],"name":"transferredOwnership","type":"event"},{"inputs":[{"internalType":"uint256","name":"","type":"uint256"}],"name":"NFTCollections","outputs":[{"internalType":"address","name":"","type":"address"}],"stateMutability":"view","type":"function"},{"inputs":[{"internalType":"uint256","name":"","type":"uint256"}],"name":"PriceProposals","outputs":[{"internalType":"string","name":"description","type":"string"},{"internalType":"string","name":"value","type":"string"},{"internalType":"uint256","name":"votesUp","type":"uint256"},{"internalType":"uint256","name":"votesDown","type":"uint256"},{"internalType":"bool","name":"finalized","type":"bool"}],"stateMutability":"view","type":"function"},{"inputs":[{"internalType":"address","name":"_contractAddress","type":"address"}],"name":"addNFTCollection","outputs":[],"stateMutability":"nonpayable","type":"function"},{"inputs":[],"name":"cooldownTimeout","outputs":[{"internalType":"uint256","name":"","type":"uint256"}],"stateMutability":"view","type":"function"},{"inputs":[],"name":"currentProposal","outputs":[{"components":[{"internalType":"string","name":"description","type":"string"},{"internalType":"string","name":"value","type":"string"},{"internalType":"uint256","name":"votesUp","type":"uint256"},{"internalType":"uint256","name":"votesDown","type":"uint256"},{"internalType":"bool","name":"finalized","type":"bool"}],"internalType":"struct DexhuneBase.PriceProposal","name":"","type":"tuple"}],"stateMutability":"view","type":"function"},{"inputs":[],"name":"finalizeProposal","outputs":[],"stateMutability":"nonpayable","type":"function"},{"inputs":[],"name":"getPrice","outputs":[{"internalType":"string","name":"","type":"string"}],"stateMutability":"view","type":"function"},{"inputs":[],"name":"owner","outputs":[{"internalType":"address","name":"","type":"address"}],"stateMutability":"view","type":"function"},{"inputs":[],"name":"proposalExpiresAt","outputs":[{"internalType":"uint256","name":"","type":"uint256"}],"stateMutability":"view","type":"function"},{"inputs":[{"internalType":"string","name":"_desc","type":"string"},{"internalType":"string","name":"_price","type":"string"}],"name":"proposePrice","outputs":[],"stateMutability":"nonpayable","type":"function"},{"inputs":[{"internalType":"uint256","name":"_index","type":"uint256"}],"name":"removeNFTCollection","outputs":[],"stateMutability":"nonpayable","type":"function"},{"inputs":[{"internalType":"uint256","name":"_timeout","type":"uint256"}],"name":"setCooldownTimeout","outputs":[],"stateMutability":"nonpayable","type":"function"},{"inputs":[{"internalType":"bool","name":"_enabled","type":"bool"}],"name":"setTransferTimeout","outputs":[],"stateMutability":"nonpayable","type":"function"},{"inputs":[],"name":"transferCooldown","outputs":[{"internalType":"bool","name":"","type":"bool"}],"stateMutability":"view","type":"function"},{"inputs":[{"internalType":"address","name":"_address","type":"address"}],"name":"transferOwnership","outputs":[],"stateMutability":"nonpayable","type":"function"},{"inputs":[],"name":"voteDown","outputs":[],"stateMutability":"nonpayable","type":"function"},{"inputs":[],"name":"voteUp","outputs":[],"stateMutability":"nonpayable","type":"function"},{"inputs":[],"name":"votingEndsAt","outputs":[{"internalType":"uint256","name":"","type":"uint256"}],"stateMutability":"view","type":"function"}],"evm":{"bytecode":{"linkReferences":{},"object":"608060405260016000806101000a81548160ff021916908315150217905550603c60026200002e9190620001d3565b6001553480156200003e57600080fd5b5033600260006101000a81548173ffffffffffffffffffffffffffffffffffffffff021916908373ffffffffffffffffffffffffffffffffffffffff160217905550600067ffffffffffffffff8111156200009e576200009d6200021e565b5b604051908082528060200260200182016040528015620000cd5781602001602082028036833780820191505090505b5060049080519060200190620000e5929190620000ec565b506200024d565b82805482825590600052602060002090810192821562000168579160200282015b82811115620001675782518260006101000a81548173ffffffffffffffffffffffffffffffffffffffff021916908373ffffffffffffffffffffffffffffffffffffffff160217905550916020019190600101906200010d565b5b5090506200017791906200017b565b5090565b5b80821115620001965760008160009055506001016200017c565b5090565b6000819050919050565b7f4e487b7100000000000000000000000000000000000000000000000000000000600052601160045260246000fd5b6000620001e0826200019a565b9150620001ed836200019a565b9250828202620001fd816200019a565b91508282048414831517620002175762000216620001a4565b5b5092915050565b7f4e487b7100000000000000000000000000000000000000000000000000000000600052604160045260246000fd5b61251d806200025d6000396000f3fe608060405234801561001057600080fd5b50600436106101165760003560e01c80638da5cb5b116100a2578063bbf7924611610071578063bbf7924614610299578063c2d52751146102b7578063c4dc1556146102d3578063d65ced17146102dd578063f2fde38b146102fb57610116565b80638da5cb5b1461024957806398d5fdca14610267578063b07672ae14610285578063b525ef0d1461028f57610116565b8063605c736e116100e9578063605c736e1461018f57806368f16293146101c35780637c14a418146101e15780637ec24d7c146101fd5780638b98ecaa1461022d57610116565b806302de9f2e1461011b5780632b49d4251461013757806330002eef14610155578063578a72d314610171575b600080fd5b6101356004803603810190610130919061176a565b610317565b005b61013f6104ea565b60405161014c9190611912565b60405180910390f35b61016f600480360381019061016a9190611992565b610688565b005b6101796107a9565b60405161018691906119ce565b60405180910390f35b6101a960048036038101906101a49190611a15565b6107b3565b6040516101ba959493929190611a9b565b60405180910390f35b6101cb610916565b6040516101d89190611afc565b60405180910390f35b6101fb60048036038101906101f69190611b43565b610927565b005b61021760048036038101906102129190611a15565b61094b565b6040516102249190611b7f565b60405180910390f35b61024760048036038101906102429190611a15565b61098a565b005b610251610b59565b60405161025e9190611b7f565b60405180910390f35b61026f610b7f565b60405161027c9190611b9a565b60405180910390f35b61028d610c11565b005b610297610e3f565b005b6102a161108c565b6040516102ae91906119ce565b60405180910390f35b6102d160048036038101906102cc9190611a15565b611092565b005b6102db6110a4565b005b6102e5611258565b6040516102f291906119ce565b60405180910390f35b61031560048036038101906103109190611992565b611262565b005b6000600380549050905060008111156103ab5760036001826103399190611beb565b8154811061034a57610349611c1f565b5b906000526020600020906005020160040160009054906101000a900460ff166103aa574360075411156103a9576040517fa9174b1700000000000000000000000000000000000000000000000000000000815260040160405180910390fd5b5b5b60006040518060a00160405280858152602001848152602001600081526020016000815260200160001515815250905061012c60026103ea9190611c4e565b436103f59190611c90565b600681905550610258600261040a9190611c4e565b436104159190611c90565b6007819055506003819080600181540180825580915050600190039060005260206000209060050201600090919091909150600082015181600001908161045c9190611ed0565b5060208201518160010190816104729190611ed0565b50604082015181600201556060820151816003015560808201518160040160006101000a81548160ff02191690831515021790555050507fc8c078bfee58e5822588f08b4509ed1eb5058e03f666cca84dd2d44bf5c288a88285336040516104dc93929190611fa2565b60405180910390a150505050565b6104f26115df565b600360016003805490506105069190611beb565b8154811061051757610516611c1f565b5b90600052602060002090600502016040518060a001604052908160008201805461054090611cf3565b80601f016020809104026020016040519081016040528092919081815260200182805461056c90611cf3565b80156105b95780601f1061058e576101008083540402835291602001916105b9565b820191906000526020600020905b81548152906001019060200180831161059c57829003601f168201915b505050505081526020016001820180546105d290611cf3565b80601f01602080910402602001604051908101604052809291908181526020018280546105fe90611cf3565b801561064b5780601f106106205761010080835404028352916020019161064b565b820191906000526020600020905b81548152906001019060200180831161062e57829003601f168201915b5050505050815260200160028201548152602001600382015481526020016004820160009054906101000a900460ff161515151581525050905090565b610690611331565b600073ffffffffffffffffffffffffffffffffffffffff168173ffffffffffffffffffffffffffffffffffffffff16036106ff576040517f08c379a00000000000000000000000000000000000000000000000000000000081526004016106f690612052565b60405180910390fd5b600060048054905090506004829080600181540180825580915050600190039060005260206000200160009091909190916101000a81548173ffffffffffffffffffffffffffffffffffffffff021916908373ffffffffffffffffffffffffffffffffffffffff1602179055507f82eda5d64185c894c1ba8ca4d84b96a074187302830b342fa1611e06c6805f28818360405161079d929190612072565b60405180910390a15050565b6000600654905090565b600381815481106107c357600080fd5b90600052602060002090600502016000915090508060000180546107e690611cf3565b80601f016020809104026020016040519081016040528092919081815260200182805461081290611cf3565b801561085f5780601f106108345761010080835404028352916020019161085f565b820191906000526020600020905b81548152906001019060200180831161084257829003601f168201915b50505050509080600101805461087490611cf3565b80601f01602080910402602001604051908101604052809291908181526020018280546108a090611cf3565b80156108ed5780601f106108c2576101008083540402835291602001916108ed565b820191906000526020600020905b8154815290600101906020018083116108d057829003601f168201915b5050505050908060020154908060030154908060040160009054906101000a900460ff16905085565b60008054906101000a900460ff1681565b61092f611331565b806000806101000a81548160ff02191690831515021790555050565b6004818154811061095b57600080fd5b906000526020600020016000915054906101000a900473ffffffffffffffffffffffffffffffffffffffff1681565b610992611331565b600081101580156109a7575060048054905081105b6109e6576040517f08c379a00000000000000000000000000000000000000000000000000000000081526004016109dd9061210d565b60405180910390fd5b6000600482815481106109fc576109fb611c1f565b5b9060005260206000200160009054906101000a900473ffffffffffffffffffffffffffffffffffffffff16905060046001600480549050610a3d9190611beb565b81548110610a4e57610a4d611c1f565b5b9060005260206000200160009054906101000a900473ffffffffffffffffffffffffffffffffffffffff1660048381548110610a8d57610a8c611c1f565b5b9060005260206000200160006101000a81548173ffffffffffffffffffffffffffffffffffffffff021916908373ffffffffffffffffffffffffffffffffffffffff1602179055506004805480610ae757610ae661212d565b5b6001900381819060005260206000200160006101000a81549073ffffffffffffffffffffffffffffffffffffffff021916905590557fb6f7db2d5083e9ae2b0b0e374dbcdc50d76e778e5e84b9186adbe5968b134dbb8282604051610b4d929190612072565b60405180910390a15050565b600260009054906101000a900473ffffffffffffffffffffffffffffffffffffffff1681565b606060058054610b8e90611cf3565b80601f0160208091040260200160405190810160405280929190818152602001828054610bba90611cf3565b8015610c075780601f10610bdc57610100808354040283529160200191610c07565b820191906000526020600020905b815481529060010190602001808311610bea57829003601f168201915b5050505050905090565b610c196113c3565b610c4f576040517f7fb16f1b00000000000000000000000000000000000000000000000000000000815260040160405180910390fd5b60006001600380549050610c639190611beb565b90506000610c7082611576565b90506006544310610cad576040517f9bd4d19f00000000000000000000000000000000000000000000000000000000815260040160405180910390fd5b60006008600084815260200190815260200160002060003373ffffffffffffffffffffffffffffffffffffffff1673ffffffffffffffffffffffffffffffffffffffff16815260200190815260200160002060009054906101000a900460000b905060018160000b1480610d4357507fffffffffffffffffffffffffffffffffffffffffffffffffffffffffffffffff8160000b145b15610d7a576040517f7c9a1cf900000000000000000000000000000000000000000000000000000000815260040160405180910390fd5b816002016000815480929190610d8f9061215c565b919050555060016008600085815260200190815260200160002060003373ffffffffffffffffffffffffffffffffffffffff1673ffffffffffffffffffffffffffffffffffffffff16815260200190815260200160002060006101000a81548160ff021916908360000b60ff1602179055507f39c53468031ad719fb1805945cb8128e48f9c189c15308e05b73c48e98b4bc243384604051610e329291906121a4565b60405180910390a1505050565b610e476113c3565b610e7d576040517f7fb16f1b00000000000000000000000000000000000000000000000000000000815260040160405180910390fd5b60006001600380549050610e919190611beb565b90506000610e9e82611576565b90506006544310610edb576040517f9bd4d19f00000000000000000000000000000000000000000000000000000000815260040160405180910390fd5b60006008600084815260200190815260200160002060003373ffffffffffffffffffffffffffffffffffffffff1673ffffffffffffffffffffffffffffffffffffffff16815260200190815260200160002060009054906101000a900460000b905060018160000b1480610f7157507fffffffffffffffffffffffffffffffffffffffffffffffffffffffffffffffff8160000b145b15610fa8576040517f7c9a1cf900000000000000000000000000000000000000000000000000000000815260040160405180910390fd5b816003016000815480929190610fbd9061215c565b91905055507fffffffffffffffffffffffffffffffffffffffffffffffffffffffffffffffff6008600085815260200190815260200160002060003373ffffffffffffffffffffffffffffffffffffffff1673ffffffffffffffffffffffffffffffffffffffff16815260200190815260200160002060006101000a81548160ff021916908360000b60ff1602179055507fec5739509ee72ce4062c5e252e7186d35b5a2c72221af047c2a53b1cb5c90ef4338460405161107f9291906121a4565b60405180910390a1505050565b60015481565b61109a611331565b8060018190555050565b600060016003805490506110b89190611beb565b905060006110c582611576565b9050436006541115611103576040517fa9174b1700000000000000000000000000000000000000000000000000000000815260040160405180910390fd5b600754431061113e576040517fc1f1c4df00000000000000000000000000000000000000000000000000000000815260040160405180910390fd5b8060040160009054906101000a900460ff161561115c575050611256565b8060030154816002015411156111fb577f4d599ac90c3e5e1d64df26da87c79a4e007380a838c05d4d211f33c111e690bd6005826001016040516111a1929190612251565b60405180910390a180600101600590816111bb91906122b3565b507fb5ac567fcf1b069e0235e4f16734625c6cf54c1b40517fd9eb85517f6e1265a78260016040516111ee92919061239b565b60405180910390a1611236565b7fb5ac567fcf1b069e0235e4f16734625c6cf54c1b40517fd9eb85517f6e1265a782600060405161122d92919061239b565b60405180910390a15b60018160040160006101000a81548160ff02191690831515021790555050505b565b6000600754905090565b61126a611331565b6000600260009054906101000a900473ffffffffffffffffffffffffffffffffffffffff16905081600260006101000a81548173ffffffffffffffffffffffffffffffffffffffff021916908373ffffffffffffffffffffffffffffffffffffffff1602179055507fa77b1597453f945cb89178ec89d7d37698b9f9b07adbbb854775e48131186d2581600260009054906101000a900473ffffffffffffffffffffffffffffffffffffffff166040516113259291906123c4565b60405180910390a15050565b600260009054906101000a900473ffffffffffffffffffffffffffffffffffffffff1673ffffffffffffffffffffffffffffffffffffffff163373ffffffffffffffffffffffffffffffffffffffff16146113c1576040517f08c379a00000000000000000000000000000000000000000000000000000000081526004016113b890612485565b60405180910390fd5b565b6000600960003373ffffffffffffffffffffffffffffffffffffffff1673ffffffffffffffffffffffffffffffffffffffff168152602001908152602001600020544310156114155760019050611573565b60005b60048054905081101561156d5760006004828154811061143b5761143a611c1f565b5b9060005260206000200160009054906101000a900473ffffffffffffffffffffffffffffffffffffffff169050600081905060008173ffffffffffffffffffffffffffffffffffffffff166370a08231336040518263ffffffff1660e01b81526004016114a89190611b7f565b602060405180830381865afa1580156114c5573d6000803e3d6000fd5b505050506040513d601f19601f820116820180604052508101906114e991906124ba565b111561155857610e1060026114fe9190611c4e565b436115099190611c90565b600960003373ffffffffffffffffffffffffffffffffffffffff1673ffffffffffffffffffffffffffffffffffffffff1681526020019081526020016000208190555060019350505050611573565b505080806115659061215c565b915050611418565b50600090505b90565b600060038054905082106115b6576040517fd9c78e0200000000000000000000000000000000000000000000000000000000815260040160405180910390fd5b600382815481106115ca576115c9611c1f565b5b90600052602060002090600502019050919050565b6040518060a00160405280606081526020016060815260200160008152602001600081526020016000151581525090565b6000604051905090565b600080fd5b600080fd5b600080fd5b600080fd5b6000601f19601f8301169050919050565b7f4e487b7100000000000000000000000000000000000000000000000000000000600052604160045260246000fd5b6116778261162e565b810181811067ffffffffffffffff821117156116965761169561163f565b5b80604052505050565b60006116a9611610565b90506116b5828261166e565b919050565b600067ffffffffffffffff8211156116d5576116d461163f565b5b6116de8261162e565b9050602081019050919050565b82818337600083830152505050565b600061170d611708846116ba565b61169f565b90508281526020810184848401111561172957611728611629565b5b6117348482856116eb565b509392505050565b600082601f83011261175157611750611624565b5b81356117618482602086016116fa565b91505092915050565b600080604083850312156117815761178061161a565b5b600083013567ffffffffffffffff81111561179f5761179e61161f565b5b6117ab8582860161173c565b925050602083013567ffffffffffffffff8111156117cc576117cb61161f565b5b6117d88582860161173c565b9150509250929050565b600081519050919050565b600082825260208201905092915050565b60005b8381101561181c578082015181840152602081019050611801565b60008484015250505050565b6000611833826117e2565b61183d81856117ed565b935061184d8185602086016117fe565b6118568161162e565b840191505092915050565b6000819050919050565b61187481611861565b82525050565b60008115159050919050565b61188f8161187a565b82525050565b600060a08301600083015184820360008601526118b28282611828565b915050602083015184820360208601526118cc8282611828565b91505060408301516118e1604086018261186b565b5060608301516118f4606086018261186b565b5060808301516119076080860182611886565b508091505092915050565b6000602082019050818103600083015261192c8184611895565b905092915050565b600073ffffffffffffffffffffffffffffffffffffffff82169050919050565b600061195f82611934565b9050919050565b61196f81611954565b811461197a57600080fd5b50565b60008135905061198c81611966565b92915050565b6000602082840312156119a8576119a761161a565b5b60006119b68482850161197d565b91505092915050565b6119c881611861565b82525050565b60006020820190506119e360008301846119bf565b92915050565b6119f281611861565b81146119fd57600080fd5b50565b600081359050611a0f816119e9565b92915050565b600060208284031215611a2b57611a2a61161a565b5b6000611a3984828501611a00565b91505092915050565b600082825260208201905092915050565b6000611a5e826117e2565b611a688185611a42565b9350611a788185602086016117fe565b611a818161162e565b840191505092915050565b611a958161187a565b82525050565b600060a0820190508181036000830152611ab58188611a53565b90508181036020830152611ac98187611a53565b9050611ad860408301866119bf565b611ae560608301856119bf565b611af26080830184611a8c565b9695505050505050565b6000602082019050611b116000830184611a8c565b92915050565b611b208161187a565b8114611b2b57600080fd5b50565b600081359050611b3d81611b17565b92915050565b600060208284031215611b5957611b5861161a565b5b6000611b6784828501611b2e565b91505092915050565b611b7981611954565b82525050565b6000602082019050611b946000830184611b70565b92915050565b60006020820190508181036000830152611bb48184611a53565b905092915050565b7f4e487b7100000000000000000000000000000000000000000000000000000000600052601160045260246000fd5b6000611bf682611861565b9150611c0183611861565b9250828203905081811115611c1957611c18611bbc565b5b92915050565b7f4e487b7100000000000000000000000000000000000000000000000000000000600052603260045260246000fd5b6000611c5982611861565b9150611c6483611861565b9250828202611c7281611861565b91508282048414831517611c8957611c88611bbc565b5b5092915050565b6000611c9b82611861565b9150611ca683611861565b9250828201905080821115611cbe57611cbd611bbc565b5b92915050565b7f4e487b7100000000000000000000000000000000000000000000000000000000600052602260045260246000fd5b60006002820490506001821680611d0b57607f821691505b602082108103611d1e57611d1d611cc4565b5b50919050565b60008190508160005260206000209050919050565b60006020601f8301049050919050565b600082821b905092915050565b600060088302611d867fffffffffffffffffffffffffffffffffffffffffffffffffffffffffffffffff82611d49565b611d908683611d49565b95508019841693508086168417925050509392505050565b6000819050919050565b6000611dcd611dc8611dc384611861565b611da8565b611861565b9050919050565b6000819050919050565b611de783611db2565b611dfb611df382611dd4565b848454611d56565b825550505050565b600090565b611e10611e03565b611e1b818484611dde565b505050565b5b81811015611e3f57611e34600082611e08565b600181019050611e21565b5050565b601f821115611e8457611e5581611d24565b611e5e84611d39565b81016020851015611e6d578190505b611e81611e7985611d39565b830182611e20565b50505b505050565b600082821c905092915050565b6000611ea760001984600802611e89565b1980831691505092915050565b6000611ec08383611e96565b9150826002028217905092915050565b611ed9826117e2565b67ffffffffffffffff811115611ef257611ef161163f565b5b611efc8254611cf3565b611f07828285611e43565b600060209050601f831160018114611f3a5760008415611f28578287015190505b611f328582611eb4565b865550611f9a565b601f198416611f4886611d24565b60005b82811015611f7057848901518255600182019150602085019450602081019050611f4b565b86831015611f8d5784890151611f89601f891682611e96565b8355505b6001600288020188555050505b505050505050565b6000606082019050611fb760008301866119bf565b8181036020830152611fc98185611a53565b9050611fd86040830184611b70565b949350505050565b7f416e204e465420636f6c6c656374696f6e2063616e6e6f74206861766520616e60008201527f20656d7074792061646472657373000000000000000000000000000000000000602082015250565b600061203c602e83611a42565b915061204782611fe0565b604082019050919050565b6000602082019050818103600083015261206b8161202f565b9050919050565b600060408201905061208760008301856119bf565b6120946020830184611b70565b9392505050565b7f54686520726571756573746564204e465420636f6c6c656374696f6e20646f6560008201527f73206e6f74206578697374000000000000000000000000000000000000000000602082015250565b60006120f7602b83611a42565b91506121028261209b565b604082019050919050565b60006020820190508181036000830152612126816120ea565b9050919050565b7f4e487b7100000000000000000000000000000000000000000000000000000000600052603160045260246000fd5b600061216782611861565b91507fffffffffffffffffffffffffffffffffffffffffffffffffffffffffffffffff820361219957612198611bbc565b5b600182019050919050565b60006040820190506121b96000830185611b70565b6121c660208301846119bf565b9392505050565b600081546121da81611cf3565b6121e48186611a42565b945060018216600081146121ff576001811461221557612248565b60ff198316865281151560200286019350612248565b61221e85611d24565b60005b8381101561224057815481890152600182019150602081019050612221565b808801955050505b50505092915050565b6000604082019050818103600083015261226b81856121cd565b9050818103602083015261227f81846121cd565b90509392505050565b60008154905061229781611cf3565b9050919050565b60008190508160005260206000209050919050565b8181036122c1575050612399565b6122ca82612288565b67ffffffffffffffff8111156122e3576122e261163f565b5b6122ed8254611cf3565b6122f8828285611e43565b6000601f8311600181146123275760008415612315578287015490505b61231f8582611eb4565b865550612392565b601f1984166123358761229e565b965061234086611d24565b60005b8281101561236857848901548255600182019150600185019450602081019050612343565b868310156123855784890154612381601f891682611e96565b8355505b6001600288020188555050505b5050505050505b565b60006040820190506123b060008301856119bf565b6123bd6020830184611a8c565b9392505050565b60006040820190506123d96000830185611b70565b6123e66020830184611b70565b9392505050565b7f54686973206d6574686f642063616e206f6e6c792062652063616c6c6564206260008201527f7920746865206f776e6572206f66207468697320736d61727420636f6e74726160208201527f6374000000000000000000000000000000000000000000000000000000000000604082015250565b600061246f604283611a42565b915061247a826123ed565b606082019050919050565b6000602082019050818103600083015261249e81612462565b9050919050565b6000815190506124b4816119e9565b92915050565b6000602082840312156124d0576124cf61161a565b5b60006124de848285016124a5565b9150509291505056fea2646970667358221220bae2c92881a2884ecb5b699a389416734531c263654d20c339fb2a37d0ff3d7464736f6c63430008120033","opcodes":"PUSH1 0x80 PUSH1 0x40 MSTORE PUSH1 0x1 PUSH1 0x0 DUP1 PUSH2 0x100 EXP DUP2 SLOAD DUP2 PUSH1 0xFF MUL NOT AND SWAP1 DUP4 ISZERO ISZERO MUL OR SWAP1 SSTORE POP PUSH1 0x3C PUSH1 0x2 PUSH3 0x2E SWAP2 SWAP1 PUSH3 0x1D3 JUMP JUMPDEST PUSH1 0x1 SSTORE CALLVALUE DUP1 ISZERO PUSH3 0x3E JUMPI PUSH1 0x0 DUP1 REVERT JUMPDEST POP CALLER PUSH1 0x2 PUSH1 0x0 PUSH2 0x100 EXP DUP2 SLOAD DUP2 PUSH20 0xFFFFFFFFFFFFFFFFFFFFFFFFFFFFFFFFFFFFFFFF MUL NOT AND SWAP1 DUP4 PUSH20 0xFFFFFFFFFFFFFFFFFFFFFFFFFFFFFFFFFFFFFFFF AND MUL OR SWAP1 SSTORE POP PUSH1 0x0 PUSH8 0xFFFFFFFFFFFFFFFF DUP2 GT ISZERO PUSH3 0x9E JUMPI PUSH3 0x9D PUSH3 0x21E JUMP JUMPDEST JUMPDEST PUSH1 0x40 MLOAD SWAP1 DUP1 DUP3 MSTORE DUP1 PUSH1 0x20 MUL PUSH1 0x20 ADD DUP3 ADD PUSH1 0x40 MSTORE DUP1 ISZERO PUSH3 0xCD JUMPI DUP2 PUSH1 0x20 ADD PUSH1 0x20 DUP3 MUL DUP1 CALLDATASIZE DUP4 CALLDATACOPY DUP1 DUP3 ADD SWAP2 POP POP SWAP1 POP JUMPDEST POP PUSH1 0x4 SWAP1 DUP1 MLOAD SWAP1 PUSH1 0x20 ADD SWAP1 PUSH3 0xE5 SWAP3 SWAP2 SWAP1 PUSH3 0xEC JUMP JUMPDEST POP PUSH3 0x24D JUMP JUMPDEST DUP3 DUP1 SLOAD DUP3 DUP3 SSTORE SWAP1 PUSH1 0x0 MSTORE PUSH1 0x20 PUSH1 0x0 KECCAK256 SWAP1 DUP2 ADD SWAP3 DUP3 ISZERO PUSH3 0x168 JUMPI SWAP2 PUSH1 0x20 MUL DUP3 ADD JUMPDEST DUP3 DUP2 GT ISZERO PUSH3 0x167 JUMPI DUP3 MLOAD DUP3 PUSH1 0x0 PUSH2 0x100 EXP DUP2 SLOAD DUP2 PUSH20 0xFFFFFFFFFFFFFFFFFFFFFFFFFFFFFFFFFFFFFFFF MUL NOT AND SWAP1 DUP4 PUSH20 0xFFFFFFFFFFFFFFFFFFFFFFFFFFFFFFFFFFFFFFFF AND MUL OR SWAP1 SSTORE POP SWAP2 PUSH1 0x20 ADD SWAP2 SWAP1 PUSH1 0x1 ADD SWAP1 PUSH3 0x10D JUMP JUMPDEST JUMPDEST POP SWAP1 POP PUSH3 0x177 SWAP2 SWAP1 PUSH3 0x17B JUMP JUMPDEST POP SWAP1 JUMP JUMPDEST JUMPDEST DUP1 DUP3 GT ISZERO PUSH3 0x196 JUMPI PUSH1 0x0 DUP2 PUSH1 0x0 SWAP1 SSTORE POP PUSH1 0x1 ADD PUSH3 0x17C JUMP JUMPDEST POP SWAP1 JUMP JUMPDEST PUSH1 0x0 DUP2 SWAP1 POP SWAP2 SWAP1 POP JUMP JUMPDEST PUSH32 0x4E487B7100000000000000000000000000000000000000000000000000000000 PUSH1 0x0 MSTORE PUSH1 0x11 PUSH1 0x4 MSTORE PUSH1 0x24 PUSH1 0x0 REVERT JUMPDEST PUSH1 0x0 PUSH3 0x1E0 DUP3 PUSH3 0x19A JUMP JUMPDEST SWAP2 POP PUSH3 0x1ED DUP4 PUSH3 0x19A JUMP JUMPDEST SWAP3 POP DUP3 DUP3 MUL PUSH3 0x1FD DUP2 PUSH3 0x19A JUMP JUMPDEST SWAP2 POP DUP3 DUP3 DIV DUP5 EQ DUP4 ISZERO OR PUSH3 0x217 JUMPI PUSH3 0x216 PUSH3 0x1A4 JUMP JUMPDEST JUMPDEST POP SWAP3 SWAP2 POP POP JUMP JUMPDEST PUSH32 0x4E487B7100000000000000000000000000000000000000000000000000000000 PUSH1 0x0 MSTORE PUSH1 0x41 PUSH1 0x4 MSTORE PUSH1 0x24 PUSH1 0x0 REVERT JUMPDEST PUSH2 0x251D DUP1 PUSH3 0x25D PUSH1 0x0 CODECOPY PUSH1 0x0 RETURN INVALID PUSH1 0x80 PUSH1 0x40 MSTORE CALLVALUE DUP1 ISZERO PUSH2 0x10 JUMPI PUSH1 0x0 DUP1 REVERT JUMPDEST POP PUSH1 0x4 CALLDATASIZE LT PUSH2 0x116 JUMPI PUSH1 0x0 CALLDATALOAD PUSH1 0xE0 SHR DUP1 PUSH4 0x8DA5CB5B GT PUSH2 0xA2 JUMPI DUP1 PUSH4 0xBBF79246 GT PUSH2 0x71 JUMPI DUP1 PUSH4 0xBBF79246 EQ PUSH2 0x299 JUMPI DUP1 PUSH4 0xC2D52751 EQ PUSH2 0x2B7 JUMPI DUP1 PUSH4 0xC4DC1556 EQ PUSH2 0x2D3 JUMPI DUP1 PUSH4 0xD65CED17 EQ PUSH2 0x2DD JUMPI DUP1 PUSH4 0xF2FDE38B EQ PUSH2 0x2FB JUMPI PUSH2 0x116 JUMP JUMPDEST DUP1 PUSH4 0x8DA5CB5B EQ PUSH2 0x249 JUMPI DUP1 PUSH4 0x98D5FDCA EQ PUSH2 0x267 JUMPI DUP1 PUSH4 0xB07672AE EQ PUSH2 0x285 JUMPI DUP1 PUSH4 0xB525EF0D EQ PUSH2 0x28F JUMPI PUSH2 0x116 JUMP JUMPDEST DUP1 PUSH4 0x605C736E GT PUSH2 0xE9 JUMPI DUP1 PUSH4 0x605C736E EQ PUSH2 0x18F JUMPI DUP1 PUSH4 0x68F16293 EQ PUSH2 0x1C3 JUMPI DUP1 PUSH4 0x7C14A418 EQ PUSH2 0x1E1 JUMPI DUP1 PUSH4 0x7EC24D7C EQ PUSH2 0x1FD JUMPI DUP1 PUSH4 0x8B98ECAA EQ PUSH2 0x22D JUMPI PUSH2 0x116 JUMP JUMPDEST DUP1 PUSH4 0x2DE9F2E EQ PUSH2 0x11B JUMPI DUP1 PUSH4 0x2B49D425 EQ PUSH2 0x137 JUMPI DUP1 PUSH4 0x30002EEF EQ PUSH2 0x155 JUMPI DUP1 PUSH4 0x578A72D3 EQ PUSH2 0x171 JUMPI JUMPDEST PUSH1 0x0 DUP1 REVERT JUMPDEST PUSH2 0x135 PUSH1 0x4 DUP1 CALLDATASIZE SUB DUP2 ADD SWAP1 PUSH2 0x130 SWAP2 SWAP1 PUSH2 0x176A JUMP JUMPDEST PUSH2 0x317 JUMP JUMPDEST STOP JUMPDEST PUSH2 0x13F PUSH2 0x4EA JUMP JUMPDEST PUSH1 0x40 MLOAD PUSH2 0x14C SWAP2 SWAP1 PUSH2 0x1912 JUMP JUMPDEST PUSH1 0x40 MLOAD DUP1 SWAP2 SUB SWAP1 RETURN JUMPDEST PUSH2 0x16F PUSH1 0x4 DUP1 CALLDATASIZE SUB DUP2 ADD SWAP1 PUSH2 0x16A SWAP2 SWAP1 PUSH2 0x1992 JUMP JUMPDEST PUSH2 0x688 JUMP JUMPDEST STOP JUMPDEST PUSH2 0x179 PUSH2 0x7A9 JUMP JUMPDEST PUSH1 0x40 MLOAD PUSH2 0x186 SWAP2 SWAP1 PUSH2 0x19CE JUMP JUMPDEST PUSH1 0x40 MLOAD DUP1 SWAP2 SUB SWAP1 RETURN JUMPDEST PUSH2 0x1A9 PUSH1 0x4 DUP1 CALLDATASIZE SUB DUP2 ADD SWAP1 PUSH2 0x1A4 SWAP2 SWAP1 PUSH2 0x1A15 JUMP JUMPDEST PUSH2 0x7B3 JUMP JUMPDEST PUSH1 0x40 MLOAD PUSH2 0x1BA SWAP6 SWAP5 SWAP4 SWAP3 SWAP2 SWAP1 PUSH2 0x1A9B JUMP JUMPDEST PUSH1 0x40 MLOAD DUP1 SWAP2 SUB SWAP1 RETURN JUMPDEST PUSH2 0x1CB PUSH2 0x916 JUMP JUMPDEST PUSH1 0x40 MLOAD PUSH2 0x1D8 SWAP2 SWAP1 PUSH2 0x1AFC JUMP JUMPDEST PUSH1 0x40 MLOAD DUP1 SWAP2 SUB SWAP1 RETURN JUMPDEST PUSH2 0x1FB PUSH1 0x4 DUP1 CALLDATASIZE SUB DUP2 ADD SWAP1 PUSH2 0x1F6 SWAP2 SWAP1 PUSH2 0x1B43 JUMP JUMPDEST PUSH2 0x927 JUMP JUMPDEST STOP JUMPDEST PUSH2 0x217 PUSH1 0x4 DUP1 CALLDATASIZE SUB DUP2 ADD SWAP1 PUSH2 0x212 SWAP2 SWAP1 PUSH2 0x1A15 JUMP JUMPDEST PUSH2 0x94B JUMP JUMPDEST PUSH1 0x40 MLOAD PUSH2 0x224 SWAP2 SWAP1 PUSH2 0x1B7F JUMP JUMPDEST PUSH1 0x40 MLOAD DUP1 SWAP2 SUB SWAP1 RETURN JUMPDEST PUSH2 0x247 PUSH1 0x4 DUP1 CALLDATASIZE SUB DUP2 ADD SWAP1 PUSH2 0x242 SWAP2 SWAP1 PUSH2 0x1A15 JUMP JUMPDEST PUSH2 0x98A JUMP JUMPDEST STOP JUMPDEST PUSH2 0x251 PUSH2 0xB59 JUMP JUMPDEST PUSH1 0x40 MLOAD PUSH2 0x25E SWAP2 SWAP1 PUSH2 0x1B7F JUMP JUMPDEST PUSH1 0x40 MLOAD DUP1 SWAP2 SUB SWAP1 RETURN JUMPDEST PUSH2 0x26F PUSH2 0xB7F JUMP JUMPDEST PUSH1 0x40 MLOAD PUSH2 0x27C SWAP2 SWAP1 PUSH2 0x1B9A JUMP JUMPDEST PUSH1 0x40 MLOAD DUP1 SWAP2 SUB SWAP1 RETURN JUMPDEST PUSH2 0x28D PUSH2 0xC11 JUMP JUMPDEST STOP JUMPDEST PUSH2 0x297 PUSH2 0xE3F JUMP JUMPDEST STOP JUMPDEST PUSH2 0x2A1 PUSH2 0x108C JUMP JUMPDEST PUSH1 0x40 MLOAD PUSH2 0x2AE SWAP2 SWAP1 PUSH2 0x19CE JUMP JUMPDEST PUSH1 0x40 MLOAD DUP1 SWAP2 SUB SWAP1 RETURN JUMPDEST PUSH2 0x2D1 PUSH1 0x4 DUP1 CALLDATASIZE SUB DUP2 ADD SWAP1 PUSH2 0x2CC SWAP2 SWAP1 PUSH2 0x1A15 JUMP JUMPDEST PUSH2 0x1092 JUMP JUMPDEST STOP JUMPDEST PUSH2 0x2DB PUSH2 0x10A4 JUMP JUMPDEST STOP JUMPDEST PUSH2 0x2E5 PUSH2 0x1258 JUMP JUMPDEST PUSH1 0x40 MLOAD PUSH2 0x2F2 SWAP2 SWAP1 PUSH2 0x19CE JUMP JUMPDEST PUSH1 0x40 MLOAD DUP1 SWAP2 SUB SWAP1 RETURN JUMPDEST PUSH2 0x315 PUSH1 0x4 DUP1 CALLDATASIZE SUB DUP2 ADD SWAP1 PUSH2 0x310 SWAP2 SWAP1 PUSH2 0x1992 JUMP JUMPDEST PUSH2 0x1262 JUMP JUMPDEST STOP JUMPDEST PUSH1 0x0 PUSH1 0x3 DUP1 SLOAD SWAP1 POP SWAP1 POP PUSH1 0x0 DUP2 GT ISZERO PUSH2 0x3AB JUMPI PUSH1 0x3 PUSH1 0x1 DUP3 PUSH2 0x339 SWAP2 SWAP1 PUSH2 0x1BEB JUMP JUMPDEST DUP2 SLOAD DUP2 LT PUSH2 0x34A JUMPI PUSH2 0x349 PUSH2 0x1C1F JUMP JUMPDEST JUMPDEST SWAP1 PUSH1 0x0 MSTORE PUSH1 0x20 PUSH1 0x0 KECCAK256 SWAP1 PUSH1 0x5 MUL ADD PUSH1 0x4 ADD PUSH1 0x0 SWAP1 SLOAD SWAP1 PUSH2 0x100 EXP SWAP1 DIV PUSH1 0xFF AND PUSH2 0x3AA JUMPI NUMBER PUSH1 0x7 SLOAD GT ISZERO PUSH2 0x3A9 JUMPI PUSH1 0x40 MLOAD PUSH32 0xA9174B1700000000000000000000000000000000000000000000000000000000 DUP2 MSTORE PUSH1 0x4 ADD PUSH1 0x40 MLOAD DUP1 SWAP2 SUB SWAP1 REVERT JUMPDEST JUMPDEST JUMPDEST PUSH1 0x0 PUSH1 0x40 MLOAD DUP1 PUSH1 0xA0 ADD PUSH1 0x40 MSTORE DUP1 DUP6 DUP2 MSTORE PUSH1 0x20 ADD DUP5 DUP2 MSTORE PUSH1 0x20 ADD PUSH1 0x0 DUP2 MSTORE PUSH1 0x20 ADD PUSH1 0x0 DUP2 MSTORE PUSH1 0x20 ADD PUSH1 0x0 ISZERO ISZERO DUP2 MSTORE POP SWAP1 POP PUSH2 0x12C PUSH1 0x2 PUSH2 0x3EA SWAP2 SWAP1 PUSH2 0x1C4E JUMP JUMPDEST NUMBER PUSH2 0x3F5 SWAP2 SWAP1 PUSH2 0x1C90 JUMP JUMPDEST PUSH1 0x6 DUP2 SWAP1 SSTORE POP PUSH2 0x258 PUSH1 0x2 PUSH2 0x40A SWAP2 SWAP1 PUSH2 0x1C4E JUMP JUMPDEST NUMBER PUSH2 0x415 SWAP2 SWAP1 PUSH2 0x1C90 JUMP JUMPDEST PUSH1 0x7 DUP2 SWAP1 SSTORE POP PUSH1 0x3 DUP2 SWAP1 DUP1 PUSH1 0x1 DUP2 SLOAD ADD DUP1 DUP3 SSTORE DUP1 SWAP2 POP POP PUSH1 0x1 SWAP1 SUB SWAP1 PUSH1 0x0 MSTORE PUSH1 0x20 PUSH1 0x0 KECCAK256 SWAP1 PUSH1 0x5 MUL ADD PUSH1 0x0 SWAP1 SWAP2 SWAP1 SWAP2 SWAP1 SWAP2 POP PUSH1 0x0 DUP3 ADD MLOAD DUP2 PUSH1 0x0 ADD SWAP1 DUP2 PUSH2 0x45C SWAP2 SWAP1 PUSH2 0x1ED0 JUMP JUMPDEST POP PUSH1 0x20 DUP3 ADD MLOAD DUP2 PUSH1 0x1 ADD SWAP1 DUP2 PUSH2 0x472 SWAP2 SWAP1 PUSH2 0x1ED0 JUMP JUMPDEST POP PUSH1 0x40 DUP3 ADD MLOAD DUP2 PUSH1 0x2 ADD SSTORE PUSH1 0x60 DUP3 ADD MLOAD DUP2 PUSH1 0x3 ADD SSTORE PUSH1 0x80 DUP3 ADD MLOAD DUP2 PUSH1 0x4 ADD PUSH1 0x0 PUSH2 0x100 EXP DUP2 SLOAD DUP2 PUSH1 0xFF MUL NOT AND SWAP1 DUP4 ISZERO ISZERO MUL OR SWAP1 SSTORE POP POP POP PUSH32 0xC8C078BFEE58E5822588F08B4509ED1EB5058E03F666CCA84DD2D44BF5C288A8 DUP3 DUP6 CALLER PUSH1 0x40 MLOAD PUSH2 0x4DC SWAP4 SWAP3 SWAP2 SWAP1 PUSH2 0x1FA2 JUMP JUMPDEST PUSH1 0x40 MLOAD DUP1 SWAP2 SUB SWAP1 LOG1 POP POP POP POP JUMP JUMPDEST PUSH2 0x4F2 PUSH2 0x15DF JUMP JUMPDEST PUSH1 0x3 PUSH1 0x1 PUSH1 0x3 DUP1 SLOAD SWAP1 POP PUSH2 0x506 SWAP2 SWAP1 PUSH2 0x1BEB JUMP JUMPDEST DUP2 SLOAD DUP2 LT PUSH2 0x517 JUMPI PUSH2 0x516 PUSH2 0x1C1F JUMP JUMPDEST JUMPDEST SWAP1 PUSH1 0x0 MSTORE PUSH1 0x20 PUSH1 0x0 KECCAK256 SWAP1 PUSH1 0x5 MUL ADD PUSH1 0x40 MLOAD DUP1 PUSH1 0xA0 ADD PUSH1 0x40 MSTORE SWAP1 DUP2 PUSH1 0x0 DUP3 ADD DUP1 SLOAD PUSH2 0x540 SWAP1 PUSH2 0x1CF3 JUMP JUMPDEST DUP1 PUSH1 0x1F ADD PUSH1 0x20 DUP1 SWAP2 DIV MUL PUSH1 0x20 ADD PUSH1 0x40 MLOAD SWAP1 DUP2 ADD PUSH1 0x40 MSTORE DUP1 SWAP3 SWAP2 SWAP1 DUP2 DUP2 MSTORE PUSH1 0x20 ADD DUP3 DUP1 SLOAD PUSH2 0x56C SWAP1 PUSH2 0x1CF3 JUMP JUMPDEST DUP1 ISZERO PUSH2 0x5B9 JUMPI DUP1 PUSH1 0x1F LT PUSH2 0x58E JUMPI PUSH2 0x100 DUP1 DUP4 SLOAD DIV MUL DUP4 MSTORE SWAP2 PUSH1 0x20 ADD SWAP2 PUSH2 0x5B9 JUMP JUMPDEST DUP3 ADD SWAP2 SWAP1 PUSH1 0x0 MSTORE PUSH1 0x20 PUSH1 0x0 KECCAK256 SWAP1 JUMPDEST DUP2 SLOAD DUP2 MSTORE SWAP1 PUSH1 0x1 ADD SWAP1 PUSH1 0x20 ADD DUP1 DUP4 GT PUSH2 0x59C JUMPI DUP3 SWAP1 SUB PUSH1 0x1F AND DUP3 ADD SWAP2 JUMPDEST POP POP POP POP POP DUP2 MSTORE PUSH1 0x20 ADD PUSH1 0x1 DUP3 ADD DUP1 SLOAD PUSH2 0x5D2 SWAP1 PUSH2 0x1CF3 JUMP JUMPDEST DUP1 PUSH1 0x1F ADD PUSH1 0x20 DUP1 SWAP2 DIV MUL PUSH1 0x20 ADD PUSH1 0x40 MLOAD SWAP1 DUP2 ADD PUSH1 0x40 MSTORE DUP1 SWAP3 SWAP2 SWAP1 DUP2 DUP2 MSTORE PUSH1 0x20 ADD DUP3 DUP1 SLOAD PUSH2 0x5FE SWAP1 PUSH2 0x1CF3 JUMP JUMPDEST DUP1 ISZERO PUSH2 0x64B JUMPI DUP1 PUSH1 0x1F LT PUSH2 0x620 JUMPI PUSH2 0x100 DUP1 DUP4 SLOAD DIV MUL DUP4 MSTORE SWAP2 PUSH1 0x20 ADD SWAP2 PUSH2 0x64B JUMP JUMPDEST DUP3 ADD SWAP2 SWAP1 PUSH1 0x0 MSTORE PUSH1 0x20 PUSH1 0x0 KECCAK256 SWAP1 JUMPDEST DUP2 SLOAD DUP2 MSTORE SWAP1 PUSH1 0x1 ADD SWAP1 PUSH1 0x20 ADD DUP1 DUP4 GT PUSH2 0x62E JUMPI DUP3 SWAP1 SUB PUSH1 0x1F AND DUP3 ADD SWAP2 JUMPDEST POP POP POP POP POP DUP2 MSTORE PUSH1 0x20 ADD PUSH1 0x2 DUP3 ADD SLOAD DUP2 MSTORE PUSH1 0x20 ADD PUSH1 0x3 DUP3 ADD SLOAD DUP2 MSTORE PUSH1 0x20 ADD PUSH1 0x4 DUP3 ADD PUSH1 0x0 SWAP1 SLOAD SWAP1 PUSH2 0x100 EXP SWAP1 DIV PUSH1 0xFF AND ISZERO ISZERO ISZERO ISZERO DUP2 MSTORE POP POP SWAP1 POP SWAP1 JUMP JUMPDEST PUSH2 0x690 PUSH2 0x1331 JUMP JUMPDEST PUSH1 0x0 PUSH20 0xFFFFFFFFFFFFFFFFFFFFFFFFFFFFFFFFFFFFFFFF AND DUP2 PUSH20 0xFFFFFFFFFFFFFFFFFFFFFFFFFFFFFFFFFFFFFFFF AND SUB PUSH2 0x6FF JUMPI PUSH1 0x40 MLOAD PUSH32 0x8C379A000000000000000000000000000000000000000000000000000000000 DUP2 MSTORE PUSH1 0x4 ADD PUSH2 0x6F6 SWAP1 PUSH2 0x2052 JUMP JUMPDEST PUSH1 0x40 MLOAD DUP1 SWAP2 SUB SWAP1 REVERT JUMPDEST PUSH1 0x0 PUSH1 0x4 DUP1 SLOAD SWAP1 POP SWAP1 POP PUSH1 0x4 DUP3 SWAP1 DUP1 PUSH1 0x1 DUP2 SLOAD ADD DUP1 DUP3 SSTORE DUP1 SWAP2 POP POP PUSH1 0x1 SWAP1 SUB SWAP1 PUSH1 0x0 MSTORE PUSH1 0x20 PUSH1 0x0 KECCAK256 ADD PUSH1 0x0 SWAP1 SWAP2 SWAP1 SWAP2 SWAP1 SWAP2 PUSH2 0x100 EXP DUP2 SLOAD DUP2 PUSH20 0xFFFFFFFFFFFFFFFFFFFFFFFFFFFFFFFFFFFFFFFF MUL NOT AND SWAP1 DUP4 PUSH20 0xFFFFFFFFFFFFFFFFFFFFFFFFFFFFFFFFFFFFFFFF AND MUL OR SWAP1 SSTORE POP PUSH32 0x82EDA5D64185C894C1BA8CA4D84B96A074187302830B342FA1611E06C6805F28 DUP2 DUP4 PUSH1 0x40 MLOAD PUSH2 0x79D SWAP3 SWAP2 SWAP1 PUSH2 0x2072 JUMP JUMPDEST PUSH1 0x40 MLOAD DUP1 SWAP2 SUB SWAP1 LOG1 POP POP JUMP JUMPDEST PUSH1 0x0 PUSH1 0x6 SLOAD SWAP1 POP SWAP1 JUMP JUMPDEST PUSH1 0x3 DUP2 DUP2 SLOAD DUP2 LT PUSH2 0x7C3 JUMPI PUSH1 0x0 DUP1 REVERT JUMPDEST SWAP1 PUSH1 0x0 MSTORE PUSH1 0x20 PUSH1 0x0 KECCAK256 SWAP1 PUSH1 0x5 MUL ADD PUSH1 0x0 SWAP2 POP SWAP1 POP DUP1 PUSH1 0x0 ADD DUP1 SLOAD PUSH2 0x7E6 SWAP1 PUSH2 0x1CF3 JUMP JUMPDEST DUP1 PUSH1 0x1F ADD PUSH1 0x20 DUP1 SWAP2 DIV MUL PUSH1 0x20 ADD PUSH1 0x40 MLOAD SWAP1 DUP2 ADD PUSH1 0x40 MSTORE DUP1 SWAP3 SWAP2 SWAP1 DUP2 DUP2 MSTORE PUSH1 0x20 ADD DUP3 DUP1 SLOAD PUSH2 0x812 SWAP1 PUSH2 0x1CF3 JUMP JUMPDEST DUP1 ISZERO PUSH2 0x85F JUMPI DUP1 PUSH1 0x1F LT PUSH2 0x834 JUMPI PUSH2 0x100 DUP1 DUP4 SLOAD DIV MUL DUP4 MSTORE SWAP2 PUSH1 0x20 ADD SWAP2 PUSH2 0x85F JUMP JUMPDEST DUP3 ADD SWAP2 SWAP1 PUSH1 0x0 MSTORE PUSH1 0x20 PUSH1 0x0 KECCAK256 SWAP1 JUMPDEST DUP2 SLOAD DUP2 MSTORE SWAP1 PUSH1 0x1 ADD SWAP1 PUSH1 0x20 ADD DUP1 DUP4 GT PUSH2 0x842 JUMPI DUP3 SWAP1 SUB PUSH1 0x1F AND DUP3 ADD SWAP2 JUMPDEST POP POP POP POP POP SWAP1 DUP1 PUSH1 0x1 ADD DUP1 SLOAD PUSH2 0x874 SWAP1 PUSH2 0x1CF3 JUMP JUMPDEST DUP1 PUSH1 0x1F ADD PUSH1 0x20 DUP1 SWAP2 DIV MUL PUSH1 0x20 ADD PUSH1 0x40 MLOAD SWAP1 DUP2 ADD PUSH1 0x40 MSTORE DUP1 SWAP3 SWAP2 SWAP1 DUP2 DUP2 MSTORE PUSH1 0x20 ADD DUP3 DUP1 SLOAD PUSH2 0x8A0 SWAP1 PUSH2 0x1CF3 JUMP JUMPDEST DUP1 ISZERO PUSH2 0x8ED JUMPI DUP1 PUSH1 0x1F LT PUSH2 0x8C2 JUMPI PUSH2 0x100 DUP1 DUP4 SLOAD DIV MUL DUP4 MSTORE SWAP2 PUSH1 0x20 ADD SWAP2 PUSH2 0x8ED JUMP JUMPDEST DUP3 ADD SWAP2 SWAP1 PUSH1 0x0 MSTORE PUSH1 0x20 PUSH1 0x0 KECCAK256 SWAP1 JUMPDEST DUP2 SLOAD DUP2 MSTORE SWAP1 PUSH1 0x1 ADD SWAP1 PUSH1 0x20 ADD DUP1 DUP4 GT PUSH2 0x8D0 JUMPI DUP3 SWAP1 SUB PUSH1 0x1F AND DUP3 ADD SWAP2 JUMPDEST POP POP POP POP POP SWAP1 DUP1 PUSH1 0x2 ADD SLOAD SWAP1 DUP1 PUSH1 0x3 ADD SLOAD SWAP1 DUP1 PUSH1 0x4 ADD PUSH1 0x0 SWAP1 SLOAD SWAP1 PUSH2 0x100 EXP SWAP1 DIV PUSH1 0xFF AND SWAP1 POP DUP6 JUMP JUMPDEST PUSH1 0x0 DUP1 SLOAD SWAP1 PUSH2 0x100 EXP SWAP1 DIV PUSH1 0xFF AND DUP2 JUMP JUMPDEST PUSH2 0x92F PUSH2 0x1331 JUMP JUMPDEST DUP1 PUSH1 0x0 DUP1 PUSH2 0x100 EXP DUP2 SLOAD DUP2 PUSH1 0xFF MUL NOT AND SWAP1 DUP4 ISZERO ISZERO MUL OR SWAP1 SSTORE POP POP JUMP JUMPDEST PUSH1 0x4 DUP2 DUP2 SLOAD DUP2 LT PUSH2 0x95B JUMPI PUSH1 0x0 DUP1 REVERT JUMPDEST SWAP1 PUSH1 0x0 MSTORE PUSH1 0x20 PUSH1 0x0 KECCAK256 ADD PUSH1 0x0 SWAP2 POP SLOAD SWAP1 PUSH2 0x100 EXP SWAP1 DIV PUSH20 0xFFFFFFFFFFFFFFFFFFFFFFFFFFFFFFFFFFFFFFFF AND DUP2 JUMP JUMPDEST PUSH2 0x992 PUSH2 0x1331 JUMP JUMPDEST PUSH1 0x0 DUP2 LT ISZERO DUP1 ISZERO PUSH2 0x9A7 JUMPI POP PUSH1 0x4 DUP1 SLOAD SWAP1 POP DUP2 LT JUMPDEST PUSH2 0x9E6 JUMPI PUSH1 0x40 MLOAD PUSH32 0x8C379A000000000000000000000000000000000000000000000000000000000 DUP2 MSTORE PUSH1 0x4 ADD PUSH2 0x9DD SWAP1 PUSH2 0x210D JUMP JUMPDEST PUSH1 0x40 MLOAD DUP1 SWAP2 SUB SWAP1 REVERT JUMPDEST PUSH1 0x0 PUSH1 0x4 DUP3 DUP2 SLOAD DUP2 LT PUSH2 0x9FC JUMPI PUSH2 0x9FB PUSH2 0x1C1F JUMP JUMPDEST JUMPDEST SWAP1 PUSH1 0x0 MSTORE PUSH1 0x20 PUSH1 0x0 KECCAK256 ADD PUSH1 0x0 SWAP1 SLOAD SWAP1 PUSH2 0x100 EXP SWAP1 DIV PUSH20 0xFFFFFFFFFFFFFFFFFFFFFFFFFFFFFFFFFFFFFFFF AND SWAP1 POP PUSH1 0x4 PUSH1 0x1 PUSH1 0x4 DUP1 SLOAD SWAP1 POP PUSH2 0xA3D SWAP2 SWAP1 PUSH2 0x1BEB JUMP JUMPDEST DUP2 SLOAD DUP2 LT PUSH2 0xA4E JUMPI PUSH2 0xA4D PUSH2 0x1C1F JUMP JUMPDEST JUMPDEST SWAP1 PUSH1 0x0 MSTORE PUSH1 0x20 PUSH1 0x0 KECCAK256 ADD PUSH1 0x0 SWAP1 SLOAD SWAP1 PUSH2 0x100 EXP SWAP1 DIV PUSH20 0xFFFFFFFFFFFFFFFFFFFFFFFFFFFFFFFFFFFFFFFF AND PUSH1 0x4 DUP4 DUP2 SLOAD DUP2 LT PUSH2 0xA8D JUMPI PUSH2 0xA8C PUSH2 0x1C1F JUMP JUMPDEST JUMPDEST SWAP1 PUSH1 0x0 MSTORE PUSH1 0x20 PUSH1 0x0 KECCAK256 ADD PUSH1 0x0 PUSH2 0x100 EXP DUP2 SLOAD DUP2 PUSH20 0xFFFFFFFFFFFFFFFFFFFFFFFFFFFFFFFFFFFFFFFF MUL NOT AND SWAP1 DUP4 PUSH20 0xFFFFFFFFFFFFFFFFFFFFFFFFFFFFFFFFFFFFFFFF AND MUL OR SWAP1 SSTORE POP PUSH1 0x4 DUP1 SLOAD DUP1 PUSH2 0xAE7 JUMPI PUSH2 0xAE6 PUSH2 0x212D JUMP JUMPDEST JUMPDEST PUSH1 0x1 SWAP1 SUB DUP2 DUP2 SWAP1 PUSH1 0x0 MSTORE PUSH1 0x20 PUSH1 0x0 KECCAK256 ADD PUSH1 0x0 PUSH2 0x100 EXP DUP2 SLOAD SWAP1 PUSH20 0xFFFFFFFFFFFFFFFFFFFFFFFFFFFFFFFFFFFFFFFF MUL NOT AND SWAP1 SSTORE SWAP1 SSTORE PUSH32 0xB6F7DB2D5083E9AE2B0B0E374DBCDC50D76E778E5E84B9186ADBE5968B134DBB DUP3 DUP3 PUSH1 0x40 MLOAD PUSH2 0xB4D SWAP3 SWAP2 SWAP1 PUSH2 0x2072 JUMP JUMPDEST PUSH1 0x40 MLOAD DUP1 SWAP2 SUB SWAP1 LOG1 POP POP JUMP JUMPDEST PUSH1 0x2 PUSH1 0x0 SWAP1 SLOAD SWAP1 PUSH2 0x100 EXP SWAP1 DIV PUSH20 0xFFFFFFFFFFFFFFFFFFFFFFFFFFFFFFFFFFFFFFFF AND DUP2 JUMP JUMPDEST PUSH1 0x60 PUSH1 0x5 DUP1 SLOAD PUSH2 0xB8E SWAP1 PUSH2 0x1CF3 JUMP JUMPDEST DUP1 PUSH1 0x1F ADD PUSH1 0x20 DUP1 SWAP2 DIV MUL PUSH1 0x20 ADD PUSH1 0x40 MLOAD SWAP1 DUP2 ADD PUSH1 0x40 MSTORE DUP1 SWAP3 SWAP2 SWAP1 DUP2 DUP2 MSTORE PUSH1 0x20 ADD DUP3 DUP1 SLOAD PUSH2 0xBBA SWAP1 PUSH2 0x1CF3 JUMP JUMPDEST DUP1 ISZERO PUSH2 0xC07 JUMPI DUP1 PUSH1 0x1F LT PUSH2 0xBDC JUMPI PUSH2 0x100 DUP1 DUP4 SLOAD DIV MUL DUP4 MSTORE SWAP2 PUSH1 0x20 ADD SWAP2 PUSH2 0xC07 JUMP JUMPDEST DUP3 ADD SWAP2 SWAP1 PUSH1 0x0 MSTORE PUSH1 0x20 PUSH1 0x0 KECCAK256 SWAP1 JUMPDEST DUP2 SLOAD DUP2 MSTORE SWAP1 PUSH1 0x1 ADD SWAP1 PUSH1 0x20 ADD DUP1 DUP4 GT PUSH2 0xBEA JUMPI DUP3 SWAP1 SUB PUSH1 0x1F AND DUP3 ADD SWAP2 JUMPDEST POP POP POP POP POP SWAP1 POP SWAP1 JUMP JUMPDEST PUSH2 0xC19 PUSH2 0x13C3 JUMP JUMPDEST PUSH2 0xC4F JUMPI PUSH1 0x40 MLOAD PUSH32 0x7FB16F1B00000000000000000000000000000000000000000000000000000000 DUP2 MSTORE PUSH1 0x4 ADD PUSH1 0x40 MLOAD DUP1 SWAP2 SUB SWAP1 REVERT JUMPDEST PUSH1 0x0 PUSH1 0x1 PUSH1 0x3 DUP1 SLOAD SWAP1 POP PUSH2 0xC63 SWAP2 SWAP1 PUSH2 0x1BEB JUMP JUMPDEST SWAP1 POP PUSH1 0x0 PUSH2 0xC70 DUP3 PUSH2 0x1576 JUMP JUMPDEST SWAP1 POP PUSH1 0x6 SLOAD NUMBER LT PUSH2 0xCAD JUMPI PUSH1 0x40 MLOAD PUSH32 0x9BD4D19F00000000000000000000000000000000000000000000000000000000 DUP2 MSTORE PUSH1 0x4 ADD PUSH1 0x40 MLOAD DUP1 SWAP2 SUB SWAP1 REVERT JUMPDEST PUSH1 0x0 PUSH1 0x8 PUSH1 0x0 DUP5 DUP2 MSTORE PUSH1 0x20 ADD SWAP1 DUP2 MSTORE PUSH1 0x20 ADD PUSH1 0x0 KECCAK256 PUSH1 0x0 CALLER PUSH20 0xFFFFFFFFFFFFFFFFFFFFFFFFFFFFFFFFFFFFFFFF AND PUSH20 0xFFFFFFFFFFFFFFFFFFFFFFFFFFFFFFFFFFFFFFFF AND DUP2 MSTORE PUSH1 0x20 ADD SWAP1 DUP2 MSTORE PUSH1 0x20 ADD PUSH1 0x0 KECCAK256 PUSH1 0x0 SWAP1 SLOAD SWAP1 PUSH2 0x100 EXP SWAP1 DIV PUSH1 0x0 SIGNEXTEND SWAP1 POP PUSH1 0x1 DUP2 PUSH1 0x0 SIGNEXTEND EQ DUP1 PUSH2 0xD43 JUMPI POP PUSH32 0xFFFFFFFFFFFFFFFFFFFFFFFFFFFFFFFFFFFFFFFFFFFFFFFFFFFFFFFFFFFFFFFF DUP2 PUSH1 0x0 SIGNEXTEND EQ JUMPDEST ISZERO PUSH2 0xD7A JUMPI PUSH1 0x40 MLOAD PUSH32 0x7C9A1CF900000000000000000000000000000000000000000000000000000000 DUP2 MSTORE PUSH1 0x4 ADD PUSH1 0x40 MLOAD DUP1 SWAP2 SUB SWAP1 REVERT JUMPDEST DUP2 PUSH1 0x2 ADD PUSH1 0x0 DUP2 SLOAD DUP1 SWAP3 SWAP2 SWAP1 PUSH2 0xD8F SWAP1 PUSH2 0x215C JUMP JUMPDEST SWAP2 SWAP1 POP SSTORE POP PUSH1 0x1 PUSH1 0x8 PUSH1 0x0 DUP6 DUP2 MSTORE PUSH1 0x20 ADD SWAP1 DUP2 MSTORE PUSH1 0x20 ADD PUSH1 0x0 KECCAK256 PUSH1 0x0 CALLER PUSH20 0xFFFFFFFFFFFFFFFFFFFFFFFFFFFFFFFFFFFFFFFF AND PUSH20 0xFFFFFFFFFFFFFFFFFFFFFFFFFFFFFFFFFFFFFFFF AND DUP2 MSTORE PUSH1 0x20 ADD SWAP1 DUP2 MSTORE PUSH1 0x20 ADD PUSH1 0x0 KECCAK256 PUSH1 0x0 PUSH2 0x100 EXP DUP2 SLOAD DUP2 PUSH1 0xFF MUL NOT AND SWAP1 DUP4 PUSH1 0x0 SIGNEXTEND PUSH1 0xFF AND MUL OR SWAP1 SSTORE POP PUSH32 0x39C53468031AD719FB1805945CB8128E48F9C189C15308E05B73C48E98B4BC24 CALLER DUP5 PUSH1 0x40 MLOAD PUSH2 0xE32 SWAP3 SWAP2 SWAP1 PUSH2 0x21A4 JUMP JUMPDEST PUSH1 0x40 MLOAD DUP1 SWAP2 SUB SWAP1 LOG1 POP POP POP JUMP JUMPDEST PUSH2 0xE47 PUSH2 0x13C3 JUMP JUMPDEST PUSH2 0xE7D JUMPI PUSH1 0x40 MLOAD PUSH32 0x7FB16F1B00000000000000000000000000000000000000000000000000000000 DUP2 MSTORE PUSH1 0x4 ADD PUSH1 0x40 MLOAD DUP1 SWAP2 SUB SWAP1 REVERT JUMPDEST PUSH1 0x0 PUSH1 0x1 PUSH1 0x3 DUP1 SLOAD SWAP1 POP PUSH2 0xE91 SWAP2 SWAP1 PUSH2 0x1BEB JUMP JUMPDEST SWAP1 POP PUSH1 0x0 PUSH2 0xE9E DUP3 PUSH2 0x1576 JUMP JUMPDEST SWAP1 POP PUSH1 0x6 SLOAD NUMBER LT PUSH2 0xEDB JUMPI PUSH1 0x40 MLOAD PUSH32 0x9BD4D19F00000000000000000000000000000000000000000000000000000000 DUP2 MSTORE PUSH1 0x4 ADD PUSH1 0x40 MLOAD DUP1 SWAP2 SUB SWAP1 REVERT JUMPDEST PUSH1 0x0 PUSH1 0x8 PUSH1 0x0 DUP5 DUP2 MSTORE PUSH1 0x20 ADD SWAP1 DUP2 MSTORE PUSH1 0x20 ADD PUSH1 0x0 KECCAK256 PUSH1 0x0 CALLER PUSH20 0xFFFFFFFFFFFFFFFFFFFFFFFFFFFFFFFFFFFFFFFF AND PUSH20 0xFFFFFFFFFFFFFFFFFFFFFFFFFFFFFFFFFFFFFFFF AND DUP2 MSTORE PUSH1 0x20 ADD SWAP1 DUP2 MSTORE PUSH1 0x20 ADD PUSH1 0x0 KECCAK256 PUSH1 0x0 SWAP1 SLOAD SWAP1 PUSH2 0x100 EXP SWAP1 DIV PUSH1 0x0 SIGNEXTEND SWAP1 POP PUSH1 0x1 DUP2 PUSH1 0x0 SIGNEXTEND EQ DUP1 PUSH2 0xF71 JUMPI POP PUSH32 0xFFFFFFFFFFFFFFFFFFFFFFFFFFFFFFFFFFFFFFFFFFFFFFFFFFFFFFFFFFFFFFFF DUP2 PUSH1 0x0 SIGNEXTEND EQ JUMPDEST ISZERO PUSH2 0xFA8 JUMPI PUSH1 0x40 MLOAD PUSH32 0x7C9A1CF900000000000000000000000000000000000000000000000000000000 DUP2 MSTORE PUSH1 0x4 ADD PUSH1 0x40 MLOAD DUP1 SWAP2 SUB SWAP1 REVERT JUMPDEST DUP2 PUSH1 0x3 ADD PUSH1 0x0 DUP2 SLOAD DUP1 SWAP3 SWAP2 SWAP1 PUSH2 0xFBD SWAP1 PUSH2 0x215C JUMP JUMPDEST SWAP2 SWAP1 POP SSTORE POP PUSH32 0xFFFFFFFFFFFFFFFFFFFFFFFFFFFFFFFFFFFFFFFFFFFFFFFFFFFFFFFFFFFFFFFF PUSH1 0x8 PUSH1 0x0 DUP6 DUP2 MSTORE PUSH1 0x20 ADD SWAP1 DUP2 MSTORE PUSH1 0x20 ADD PUSH1 0x0 KECCAK256 PUSH1 0x0 CALLER PUSH20 0xFFFFFFFFFFFFFFFFFFFFFFFFFFFFFFFFFFFFFFFF AND PUSH20 0xFFFFFFFFFFFFFFFFFFFFFFFFFFFFFFFFFFFFFFFF AND DUP2 MSTORE PUSH1 0x20 ADD SWAP1 DUP2 MSTORE PUSH1 0x20 ADD PUSH1 0x0 KECCAK256 PUSH1 0x0 PUSH2 0x100 EXP DUP2 SLOAD DUP2 PUSH1 0xFF MUL NOT AND SWAP1 DUP4 PUSH1 0x0 SIGNEXTEND PUSH1 0xFF AND MUL OR SWAP1 SSTORE POP PUSH32 0xEC5739509EE72CE4062C5E252E7186D35B5A2C72221AF047C2A53B1CB5C90EF4 CALLER DUP5 PUSH1 0x40 MLOAD PUSH2 0x107F SWAP3 SWAP2 SWAP1 PUSH2 0x21A4 JUMP JUMPDEST PUSH1 0x40 MLOAD DUP1 SWAP2 SUB SWAP1 LOG1 POP POP POP JUMP JUMPDEST PUSH1 0x1 SLOAD DUP2 JUMP JUMPDEST PUSH2 0x109A PUSH2 0x1331 JUMP JUMPDEST DUP1 PUSH1 0x1 DUP2 SWAP1 SSTORE POP POP JUMP JUMPDEST PUSH1 0x0 PUSH1 0x1 PUSH1 0x3 DUP1 SLOAD SWAP1 POP PUSH2 0x10B8 SWAP2 SWAP1 PUSH2 0x1BEB JUMP JUMPDEST SWAP1 POP PUSH1 0x0 PUSH2 0x10C5 DUP3 PUSH2 0x1576 JUMP JUMPDEST SWAP1 POP NUMBER PUSH1 0x6 SLOAD GT ISZERO PUSH2 0x1103 JUMPI PUSH1 0x40 MLOAD PUSH32 0xA9174B1700000000000000000000000000000000000000000000000000000000 DUP2 MSTORE PUSH1 0x4 ADD PUSH1 0x40 MLOAD DUP1 SWAP2 SUB SWAP1 REVERT JUMPDEST PUSH1 0x7 SLOAD NUMBER LT PUSH2 0x113E JUMPI PUSH1 0x40 MLOAD PUSH32 0xC1F1C4DF00000000000000000000000000000000000000000000000000000000 DUP2 MSTORE PUSH1 0x4 ADD PUSH1 0x40 MLOAD DUP1 SWAP2 SUB SWAP1 REVERT JUMPDEST DUP1 PUSH1 0x4 ADD PUSH1 0x0 SWAP1 SLOAD SWAP1 PUSH2 0x100 EXP SWAP1 DIV PUSH1 0xFF AND ISZERO PUSH2 0x115C JUMPI POP POP PUSH2 0x1256 JUMP JUMPDEST DUP1 PUSH1 0x3 ADD SLOAD DUP2 PUSH1 0x2 ADD SLOAD GT ISZERO PUSH2 0x11FB JUMPI PUSH32 0x4D599AC90C3E5E1D64DF26DA87C79A4E007380A838C05D4D211F33C111E690BD PUSH1 0x5 DUP3 PUSH1 0x1 ADD PUSH1 0x40 MLOAD PUSH2 0x11A1 SWAP3 SWAP2 SWAP1 PUSH2 0x2251 JUMP JUMPDEST PUSH1 0x40 MLOAD DUP1 SWAP2 SUB SWAP1 LOG1 DUP1 PUSH1 0x1 ADD PUSH1 0x5 SWAP1 DUP2 PUSH2 0x11BB SWAP2 SWAP1 PUSH2 0x22B3 JUMP JUMPDEST POP PUSH32 0xB5AC567FCF1B069E0235E4F16734625C6CF54C1B40517FD9EB85517F6E1265A7 DUP3 PUSH1 0x1 PUSH1 0x40 MLOAD PUSH2 0x11EE SWAP3 SWAP2 SWAP1 PUSH2 0x239B JUMP JUMPDEST PUSH1 0x40 MLOAD DUP1 SWAP2 SUB SWAP1 LOG1 PUSH2 0x1236 JUMP JUMPDEST PUSH32 0xB5AC567FCF1B069E0235E4F16734625C6CF54C1B40517FD9EB85517F6E1265A7 DUP3 PUSH1 0x0 PUSH1 0x40 MLOAD PUSH2 0x122D SWAP3 SWAP2 SWAP1 PUSH2 0x239B JUMP JUMPDEST PUSH1 0x40 MLOAD DUP1 SWAP2 SUB SWAP1 LOG1 JUMPDEST PUSH1 0x1 DUP2 PUSH1 0x4 ADD PUSH1 0x0 PUSH2 0x100 EXP DUP2 SLOAD DUP2 PUSH1 0xFF MUL NOT AND SWAP1 DUP4 ISZERO ISZERO MUL OR SWAP1 SSTORE POP POP POP JUMPDEST JUMP JUMPDEST PUSH1 0x0 PUSH1 0x7 SLOAD SWAP1 POP SWAP1 JUMP JUMPDEST PUSH2 0x126A PUSH2 0x1331 JUMP JUMPDEST PUSH1 0x0 PUSH1 0x2 PUSH1 0x0 SWAP1 SLOAD SWAP1 PUSH2 0x100 EXP SWAP1 DIV PUSH20 0xFFFFFFFFFFFFFFFFFFFFFFFFFFFFFFFFFFFFFFFF AND SWAP1 POP DUP2 PUSH1 0x2 PUSH1 0x0 PUSH2 0x100 EXP DUP2 SLOAD DUP2 PUSH20 0xFFFFFFFFFFFFFFFFFFFFFFFFFFFFFFFFFFFFFFFF MUL NOT AND SWAP1 DUP4 PUSH20 0xFFFFFFFFFFFFFFFFFFFFFFFFFFFFFFFFFFFFFFFF AND MUL OR SWAP1 SSTORE POP PUSH32 0xA77B1597453F945CB89178EC89D7D37698B9F9B07ADBBB854775E48131186D25 DUP2 PUSH1 0x2 PUSH1 0x0 SWAP1 SLOAD SWAP1 PUSH2 0x100 EXP SWAP1 DIV PUSH20 0xFFFFFFFFFFFFFFFFFFFFFFFFFFFFFFFFFFFFFFFF AND PUSH1 0x40 MLOAD PUSH2 0x1325 SWAP3 SWAP2 SWAP1 PUSH2 0x23C4 JUMP JUMPDEST PUSH1 0x40 MLOAD DUP1 SWAP2 SUB SWAP1 LOG1 POP POP JUMP JUMPDEST PUSH1 0x2 PUSH1 0x0 SWAP1 SLOAD SWAP1 PUSH2 0x100 EXP SWAP1 DIV PUSH20 0xFFFFFFFFFFFFFFFFFFFFFFFFFFFFFFFFFFFFFFFF AND PUSH20 0xFFFFFFFFFFFFFFFFFFFFFFFFFFFFFFFFFFFFFFFF AND CALLER PUSH20 0xFFFFFFFFFFFFFFFFFFFFFFFFFFFFFFFFFFFFFFFF AND EQ PUSH2 0x13C1 JUMPI PUSH1 0x40 MLOAD PUSH32 0x8C379A000000000000000000000000000000000000000000000000000000000 DUP2 MSTORE PUSH1 0x4 ADD PUSH2 0x13B8 SWAP1 PUSH2 0x2485 JUMP JUMPDEST PUSH1 0x40 MLOAD DUP1 SWAP2 SUB SWAP1 REVERT JUMPDEST JUMP JUMPDEST PUSH1 0x0 PUSH1 0x9 PUSH1 0x0 CALLER PUSH20 0xFFFFFFFFFFFFFFFFFFFFFFFFFFFFFFFFFFFFFFFF AND PUSH20 0xFFFFFFFFFFFFFFFFFFFFFFFFFFFFFFFFFFFFFFFF AND DUP2 MSTORE PUSH1 0x20 ADD SWAP1 DUP2 MSTORE PUSH1 0x20 ADD PUSH1 0x0 KECCAK256 SLOAD NUMBER LT ISZERO PUSH2 0x1415 JUMPI PUSH1 0x1 SWAP1 POP PUSH2 0x1573 JUMP JUMPDEST PUSH1 0x0 JUMPDEST PUSH1 0x4 DUP1 SLOAD SWAP1 POP DUP2 LT ISZERO PUSH2 0x156D JUMPI PUSH1 0x0 PUSH1 0x4 DUP3 DUP2 SLOAD DUP2 LT PUSH2 0x143B JUMPI PUSH2 0x143A PUSH2 0x1C1F JUMP JUMPDEST JUMPDEST SWAP1 PUSH1 0x0 MSTORE PUSH1 0x20 PUSH1 0x0 KECCAK256 ADD PUSH1 0x0 SWAP1 SLOAD SWAP1 PUSH2 0x100 EXP SWAP1 DIV PUSH20 0xFFFFFFFFFFFFFFFFFFFFFFFFFFFFFFFFFFFFFFFF AND SWAP1 POP PUSH1 0x0 DUP2 SWAP1 POP PUSH1 0x0 DUP2 PUSH20 0xFFFFFFFFFFFFFFFFFFFFFFFFFFFFFFFFFFFFFFFF AND PUSH4 0x70A08231 CALLER PUSH1 0x40 MLOAD DUP3 PUSH4 0xFFFFFFFF AND PUSH1 0xE0 SHL DUP2 MSTORE PUSH1 0x4 ADD PUSH2 0x14A8 SWAP2 SWAP1 PUSH2 0x1B7F JUMP JUMPDEST PUSH1 0x20 PUSH1 0x40 MLOAD DUP1 DUP4 SUB DUP2 DUP7 GAS STATICCALL ISZERO DUP1 ISZERO PUSH2 0x14C5 JUMPI RETURNDATASIZE PUSH1 0x0 DUP1 RETURNDATACOPY RETURNDATASIZE PUSH1 0x0 REVERT JUMPDEST POP POP POP POP PUSH1 0x40 MLOAD RETURNDATASIZE PUSH1 0x1F NOT PUSH1 0x1F DUP3 ADD AND DUP3 ADD DUP1 PUSH1 0x40 MSTORE POP DUP2 ADD SWAP1 PUSH2 0x14E9 SWAP2 SWAP1 PUSH2 0x24BA JUMP JUMPDEST GT ISZERO PUSH2 0x1558 JUMPI PUSH2 0xE10 PUSH1 0x2 PUSH2 0x14FE SWAP2 SWAP1 PUSH2 0x1C4E JUMP JUMPDEST NUMBER PUSH2 0x1509 SWAP2 SWAP1 PUSH2 0x1C90 JUMP JUMPDEST PUSH1 0x9 PUSH1 0x0 CALLER PUSH20 0xFFFFFFFFFFFFFFFFFFFFFFFFFFFFFFFFFFFFFFFF AND PUSH20 0xFFFFFFFFFFFFFFFFFFFFFFFFFFFFFFFFFFFFFFFF AND DUP2 MSTORE PUSH1 0x20 ADD SWAP1 DUP2 MSTORE PUSH1 0x20 ADD PUSH1 0x0 KECCAK256 DUP2 SWAP1 SSTORE POP PUSH1 0x1 SWAP4 POP POP POP POP PUSH2 0x1573 JUMP JUMPDEST POP POP DUP1 DUP1 PUSH2 0x1565 SWAP1 PUSH2 0x215C JUMP JUMPDEST SWAP2 POP POP PUSH2 0x1418 JUMP JUMPDEST POP PUSH1 0x0 SWAP1 POP JUMPDEST SWAP1 JUMP JUMPDEST PUSH1 0x0 PUSH1 0x3 DUP1 SLOAD SWAP1 POP DUP3 LT PUSH2 0x15B6 JUMPI PUSH1 0x40 MLOAD PUSH32 0xD9C78E0200000000000000000000000000000000000000000000000000000000 DUP2 MSTORE PUSH1 0x4 ADD PUSH1 0x40 MLOAD DUP1 SWAP2 SUB SWAP1 REVERT JUMPDEST PUSH1 0x3 DUP3 DUP2 SLOAD DUP2 LT PUSH2 0x15CA JUMPI PUSH2 0x15C9 PUSH2 0x1C1F JUMP JUMPDEST JUMPDEST SWAP1 PUSH1 0x0 MSTORE PUSH1 0x20 PUSH1 0x0 KECCAK256 SWAP1 PUSH1 0x5 MUL ADD SWAP1 POP SWAP2 SWAP1 POP JUMP JUMPDEST PUSH1 0x40 MLOAD DUP1 PUSH1 0xA0 ADD PUSH1 0x40 MSTORE DUP1 PUSH1 0x60 DUP2 MSTORE PUSH1 0x20 ADD PUSH1 0x60 DUP2 MSTORE PUSH1 0x20 ADD PUSH1 0x0 DUP2 MSTORE PUSH1 0x20 ADD PUSH1 0x0 DUP2 MSTORE PUSH1 0x20 ADD PUSH1 0x0 ISZERO ISZERO DUP2 MSTORE POP SWAP1 JUMP JUMPDEST PUSH1 0x0 PUSH1 0x40 MLOAD SWAP1 POP SWAP1 JUMP JUMPDEST PUSH1 0x0 DUP1 REVERT JUMPDEST PUSH1 0x0 DUP1 REVERT JUMPDEST PUSH1 0x0 DUP1 REVERT JUMPDEST PUSH1 0x0 DUP1 REVERT JUMPDEST PUSH1 0x0 PUSH1 0x1F NOT PUSH1 0x1F DUP4 ADD AND SWAP1 POP SWAP2 SWAP1 POP JUMP JUMPDEST PUSH32 0x4E487B7100000000000000000000000000000000000000000000000000000000 PUSH1 0x0 MSTORE PUSH1 0x41 PUSH1 0x4 MSTORE PUSH1 0x24 PUSH1 0x0 REVERT JUMPDEST PUSH2 0x1677 DUP3 PUSH2 0x162E JUMP JUMPDEST DUP2 ADD DUP2 DUP2 LT PUSH8 0xFFFFFFFFFFFFFFFF DUP3 GT OR ISZERO PUSH2 0x1696 JUMPI PUSH2 0x1695 PUSH2 0x163F JUMP JUMPDEST JUMPDEST DUP1 PUSH1 0x40 MSTORE POP POP POP JUMP JUMPDEST PUSH1 0x0 PUSH2 0x16A9 PUSH2 0x1610 JUMP JUMPDEST SWAP1 POP PUSH2 0x16B5 DUP3 DUP3 PUSH2 0x166E JUMP JUMPDEST SWAP2 SWAP1 POP JUMP JUMPDEST PUSH1 0x0 PUSH8 0xFFFFFFFFFFFFFFFF DUP3 GT ISZERO PUSH2 0x16D5 JUMPI PUSH2 0x16D4 PUSH2 0x163F JUMP JUMPDEST JUMPDEST PUSH2 0x16DE DUP3 PUSH2 0x162E JUMP JUMPDEST SWAP1 POP PUSH1 0x20 DUP2 ADD SWAP1 POP SWAP2 SWAP1 POP JUMP JUMPDEST DUP3 DUP2 DUP4 CALLDATACOPY PUSH1 0x0 DUP4 DUP4 ADD MSTORE POP POP POP JUMP JUMPDEST PUSH1 0x0 PUSH2 0x170D PUSH2 0x1708 DUP5 PUSH2 0x16BA JUMP JUMPDEST PUSH2 0x169F JUMP JUMPDEST SWAP1 POP DUP3 DUP2 MSTORE PUSH1 0x20 DUP2 ADD DUP5 DUP5 DUP5 ADD GT ISZERO PUSH2 0x1729 JUMPI PUSH2 0x1728 PUSH2 0x1629 JUMP JUMPDEST JUMPDEST PUSH2 0x1734 DUP5 DUP3 DUP6 PUSH2 0x16EB JUMP JUMPDEST POP SWAP4 SWAP3 POP POP POP JUMP JUMPDEST PUSH1 0x0 DUP3 PUSH1 0x1F DUP4 ADD SLT PUSH2 0x1751 JUMPI PUSH2 0x1750 PUSH2 0x1624 JUMP JUMPDEST JUMPDEST DUP2 CALLDATALOAD PUSH2 0x1761 DUP5 DUP3 PUSH1 0x20 DUP7 ADD PUSH2 0x16FA JUMP JUMPDEST SWAP2 POP POP SWAP3 SWAP2 POP POP JUMP JUMPDEST PUSH1 0x0 DUP1 PUSH1 0x40 DUP4 DUP6 SUB SLT ISZERO PUSH2 0x1781 JUMPI PUSH2 0x1780 PUSH2 0x161A JUMP JUMPDEST JUMPDEST PUSH1 0x0 DUP4 ADD CALLDATALOAD PUSH8 0xFFFFFFFFFFFFFFFF DUP2 GT ISZERO PUSH2 0x179F JUMPI PUSH2 0x179E PUSH2 0x161F JUMP JUMPDEST JUMPDEST PUSH2 0x17AB DUP6 DUP3 DUP7 ADD PUSH2 0x173C JUMP JUMPDEST SWAP3 POP POP PUSH1 0x20 DUP4 ADD CALLDATALOAD PUSH8 0xFFFFFFFFFFFFFFFF DUP2 GT ISZERO PUSH2 0x17CC JUMPI PUSH2 0x17CB PUSH2 0x161F JUMP JUMPDEST JUMPDEST PUSH2 0x17D8 DUP6 DUP3 DUP7 ADD PUSH2 0x173C JUMP JUMPDEST SWAP2 POP POP SWAP3 POP SWAP3 SWAP1 POP JUMP JUMPDEST PUSH1 0x0 DUP2 MLOAD SWAP1 POP SWAP2 SWAP1 POP JUMP JUMPDEST PUSH1 0x0 DUP3 DUP3 MSTORE PUSH1 0x20 DUP3 ADD SWAP1 POP SWAP3 SWAP2 POP POP JUMP JUMPDEST PUSH1 0x0 JUMPDEST DUP4 DUP2 LT ISZERO PUSH2 0x181C JUMPI DUP1 DUP3 ADD MLOAD DUP2 DUP5 ADD MSTORE PUSH1 0x20 DUP2 ADD SWAP1 POP PUSH2 0x1801 JUMP JUMPDEST PUSH1 0x0 DUP5 DUP5 ADD MSTORE POP POP POP POP JUMP JUMPDEST PUSH1 0x0 PUSH2 0x1833 DUP3 PUSH2 0x17E2 JUMP JUMPDEST PUSH2 0x183D DUP2 DUP6 PUSH2 0x17ED JUMP JUMPDEST SWAP4 POP PUSH2 0x184D DUP2 DUP6 PUSH1 0x20 DUP7 ADD PUSH2 0x17FE JUMP JUMPDEST PUSH2 0x1856 DUP2 PUSH2 0x162E JUMP JUMPDEST DUP5 ADD SWAP2 POP POP SWAP3 SWAP2 POP POP JUMP JUMPDEST PUSH1 0x0 DUP2 SWAP1 POP SWAP2 SWAP1 POP JUMP JUMPDEST PUSH2 0x1874 DUP2 PUSH2 0x1861 JUMP JUMPDEST DUP3 MSTORE POP POP JUMP JUMPDEST PUSH1 0x0 DUP2 ISZERO ISZERO SWAP1 POP SWAP2 SWAP1 POP JUMP JUMPDEST PUSH2 0x188F DUP2 PUSH2 0x187A JUMP JUMPDEST DUP3 MSTORE POP POP JUMP JUMPDEST PUSH1 0x0 PUSH1 0xA0 DUP4 ADD PUSH1 0x0 DUP4 ADD MLOAD DUP5 DUP3 SUB PUSH1 0x0 DUP7 ADD MSTORE PUSH2 0x18B2 DUP3 DUP3 PUSH2 0x1828 JUMP JUMPDEST SWAP2 POP POP PUSH1 0x20 DUP4 ADD MLOAD DUP5 DUP3 SUB PUSH1 0x20 DUP7 ADD MSTORE PUSH2 0x18CC DUP3 DUP3 PUSH2 0x1828 JUMP JUMPDEST SWAP2 POP POP PUSH1 0x40 DUP4 ADD MLOAD PUSH2 0x18E1 PUSH1 0x40 DUP7 ADD DUP3 PUSH2 0x186B JUMP JUMPDEST POP PUSH1 0x60 DUP4 ADD MLOAD PUSH2 0x18F4 PUSH1 0x60 DUP7 ADD DUP3 PUSH2 0x186B JUMP JUMPDEST POP PUSH1 0x80 DUP4 ADD MLOAD PUSH2 0x1907 PUSH1 0x80 DUP7 ADD DUP3 PUSH2 0x1886 JUMP JUMPDEST POP DUP1 SWAP2 POP POP SWAP3 SWAP2 POP POP JUMP JUMPDEST PUSH1 0x0 PUSH1 0x20 DUP3 ADD SWAP1 POP DUP2 DUP2 SUB PUSH1 0x0 DUP4 ADD MSTORE PUSH2 0x192C DUP2 DUP5 PUSH2 0x1895 JUMP JUMPDEST SWAP1 POP SWAP3 SWAP2 POP POP JUMP JUMPDEST PUSH1 0x0 PUSH20 0xFFFFFFFFFFFFFFFFFFFFFFFFFFFFFFFFFFFFFFFF DUP3 AND SWAP1 POP SWAP2 SWAP1 POP JUMP JUMPDEST PUSH1 0x0 PUSH2 0x195F DUP3 PUSH2 0x1934 JUMP JUMPDEST SWAP1 POP SWAP2 SWAP1 POP JUMP JUMPDEST PUSH2 0x196F DUP2 PUSH2 0x1954 JUMP JUMPDEST DUP2 EQ PUSH2 0x197A JUMPI PUSH1 0x0 DUP1 REVERT JUMPDEST POP JUMP JUMPDEST PUSH1 0x0 DUP2 CALLDATALOAD SWAP1 POP PUSH2 0x198C DUP2 PUSH2 0x1966 JUMP JUMPDEST SWAP3 SWAP2 POP POP JUMP JUMPDEST PUSH1 0x0 PUSH1 0x20 DUP3 DUP5 SUB SLT ISZERO PUSH2 0x19A8 JUMPI PUSH2 0x19A7 PUSH2 0x161A JUMP JUMPDEST JUMPDEST PUSH1 0x0 PUSH2 0x19B6 DUP5 DUP3 DUP6 ADD PUSH2 0x197D JUMP JUMPDEST SWAP2 POP POP SWAP3 SWAP2 POP POP JUMP JUMPDEST PUSH2 0x19C8 DUP2 PUSH2 0x1861 JUMP JUMPDEST DUP3 MSTORE POP POP JUMP JUMPDEST PUSH1 0x0 PUSH1 0x20 DUP3 ADD SWAP1 POP PUSH2 0x19E3 PUSH1 0x0 DUP4 ADD DUP5 PUSH2 0x19BF JUMP JUMPDEST SWAP3 SWAP2 POP POP JUMP JUMPDEST PUSH2 0x19F2 DUP2 PUSH2 0x1861 JUMP JUMPDEST DUP2 EQ PUSH2 0x19FD JUMPI PUSH1 0x0 DUP1 REVERT JUMPDEST POP JUMP JUMPDEST PUSH1 0x0 DUP2 CALLDATALOAD SWAP1 POP PUSH2 0x1A0F DUP2 PUSH2 0x19E9 JUMP JUMPDEST SWAP3 SWAP2 POP POP JUMP JUMPDEST PUSH1 0x0 PUSH1 0x20 DUP3 DUP5 SUB SLT ISZERO PUSH2 0x1A2B JUMPI PUSH2 0x1A2A PUSH2 0x161A JUMP JUMPDEST JUMPDEST PUSH1 0x0 PUSH2 0x1A39 DUP5 DUP3 DUP6 ADD PUSH2 0x1A00 JUMP JUMPDEST SWAP2 POP POP SWAP3 SWAP2 POP POP JUMP JUMPDEST PUSH1 0x0 DUP3 DUP3 MSTORE PUSH1 0x20 DUP3 ADD SWAP1 POP SWAP3 SWAP2 POP POP JUMP JUMPDEST PUSH1 0x0 PUSH2 0x1A5E DUP3 PUSH2 0x17E2 JUMP JUMPDEST PUSH2 0x1A68 DUP2 DUP6 PUSH2 0x1A42 JUMP JUMPDEST SWAP4 POP PUSH2 0x1A78 DUP2 DUP6 PUSH1 0x20 DUP7 ADD PUSH2 0x17FE JUMP JUMPDEST PUSH2 0x1A81 DUP2 PUSH2 0x162E JUMP JUMPDEST DUP5 ADD SWAP2 POP POP SWAP3 SWAP2 POP POP JUMP JUMPDEST PUSH2 0x1A95 DUP2 PUSH2 0x187A JUMP JUMPDEST DUP3 MSTORE POP POP JUMP JUMPDEST PUSH1 0x0 PUSH1 0xA0 DUP3 ADD SWAP1 POP DUP2 DUP2 SUB PUSH1 0x0 DUP4 ADD MSTORE PUSH2 0x1AB5 DUP2 DUP9 PUSH2 0x1A53 JUMP JUMPDEST SWAP1 POP DUP2 DUP2 SUB PUSH1 0x20 DUP4 ADD MSTORE PUSH2 0x1AC9 DUP2 DUP8 PUSH2 0x1A53 JUMP JUMPDEST SWAP1 POP PUSH2 0x1AD8 PUSH1 0x40 DUP4 ADD DUP7 PUSH2 0x19BF JUMP JUMPDEST PUSH2 0x1AE5 PUSH1 0x60 DUP4 ADD DUP6 PUSH2 0x19BF JUMP JUMPDEST PUSH2 0x1AF2 PUSH1 0x80 DUP4 ADD DUP5 PUSH2 0x1A8C JUMP JUMPDEST SWAP7 SWAP6 POP POP POP POP POP POP JUMP JUMPDEST PUSH1 0x0 PUSH1 0x20 DUP3 ADD SWAP1 POP PUSH2 0x1B11 PUSH1 0x0 DUP4 ADD DUP5 PUSH2 0x1A8C JUMP JUMPDEST SWAP3 SWAP2 POP POP JUMP JUMPDEST PUSH2 0x1B20 DUP2 PUSH2 0x187A JUMP JUMPDEST DUP2 EQ PUSH2 0x1B2B JUMPI PUSH1 0x0 DUP1 REVERT JUMPDEST POP JUMP JUMPDEST PUSH1 0x0 DUP2 CALLDATALOAD SWAP1 POP PUSH2 0x1B3D DUP2 PUSH2 0x1B17 JUMP JUMPDEST SWAP3 SWAP2 POP POP JUMP JUMPDEST PUSH1 0x0 PUSH1 0x20 DUP3 DUP5 SUB SLT ISZERO PUSH2 0x1B59 JUMPI PUSH2 0x1B58 PUSH2 0x161A JUMP JUMPDEST JUMPDEST PUSH1 0x0 PUSH2 0x1B67 DUP5 DUP3 DUP6 ADD PUSH2 0x1B2E JUMP JUMPDEST SWAP2 POP POP SWAP3 SWAP2 POP POP JUMP JUMPDEST PUSH2 0x1B79 DUP2 PUSH2 0x1954 JUMP JUMPDEST DUP3 MSTORE POP POP JUMP JUMPDEST PUSH1 0x0 PUSH1 0x20 DUP3 ADD SWAP1 POP PUSH2 0x1B94 PUSH1 0x0 DUP4 ADD DUP5 PUSH2 0x1B70 JUMP JUMPDEST SWAP3 SWAP2 POP POP JUMP JUMPDEST PUSH1 0x0 PUSH1 0x20 DUP3 ADD SWAP1 POP DUP2 DUP2 SUB PUSH1 0x0 DUP4 ADD MSTORE PUSH2 0x1BB4 DUP2 DUP5 PUSH2 0x1A53 JUMP JUMPDEST SWAP1 POP SWAP3 SWAP2 POP POP JUMP JUMPDEST PUSH32 0x4E487B7100000000000000000000000000000000000000000000000000000000 PUSH1 0x0 MSTORE PUSH1 0x11 PUSH1 0x4 MSTORE PUSH1 0x24 PUSH1 0x0 REVERT JUMPDEST PUSH1 0x0 PUSH2 0x1BF6 DUP3 PUSH2 0x1861 JUMP JUMPDEST SWAP2 POP PUSH2 0x1C01 DUP4 PUSH2 0x1861 JUMP JUMPDEST SWAP3 POP DUP3 DUP3 SUB SWAP1 POP DUP2 DUP2 GT ISZERO PUSH2 0x1C19 JUMPI PUSH2 0x1C18 PUSH2 0x1BBC JUMP JUMPDEST JUMPDEST SWAP3 SWAP2 POP POP JUMP JUMPDEST PUSH32 0x4E487B7100000000000000000000000000000000000000000000000000000000 PUSH1 0x0 MSTORE PUSH1 0x32 PUSH1 0x4 MSTORE PUSH1 0x24 PUSH1 0x0 REVERT JUMPDEST PUSH1 0x0 PUSH2 0x1C59 DUP3 PUSH2 0x1861 JUMP JUMPDEST SWAP2 POP PUSH2 0x1C64 DUP4 PUSH2 0x1861 JUMP JUMPDEST SWAP3 POP DUP3 DUP3 MUL PUSH2 0x1C72 DUP2 PUSH2 0x1861 JUMP JUMPDEST SWAP2 POP DUP3 DUP3 DIV DUP5 EQ DUP4 ISZERO OR PUSH2 0x1C89 JUMPI PUSH2 0x1C88 PUSH2 0x1BBC JUMP JUMPDEST JUMPDEST POP SWAP3 SWAP2 POP POP JUMP JUMPDEST PUSH1 0x0 PUSH2 0x1C9B DUP3 PUSH2 0x1861 JUMP JUMPDEST SWAP2 POP PUSH2 0x1CA6 DUP4 PUSH2 0x1861 JUMP JUMPDEST SWAP3 POP DUP3 DUP3 ADD SWAP1 POP DUP1 DUP3 GT ISZERO PUSH2 0x1CBE JUMPI PUSH2 0x1CBD PUSH2 0x1BBC JUMP JUMPDEST JUMPDEST SWAP3 SWAP2 POP POP JUMP JUMPDEST PUSH32 0x4E487B7100000000000000000000000000000000000000000000000000000000 PUSH1 0x0 MSTORE PUSH1 0x22 PUSH1 0x4 MSTORE PUSH1 0x24 PUSH1 0x0 REVERT JUMPDEST PUSH1 0x0 PUSH1 0x2 DUP3 DIV SWAP1 POP PUSH1 0x1 DUP3 AND DUP1 PUSH2 0x1D0B JUMPI PUSH1 0x7F DUP3 AND SWAP2 POP JUMPDEST PUSH1 0x20 DUP3 LT DUP2 SUB PUSH2 0x1D1E JUMPI PUSH2 0x1D1D PUSH2 0x1CC4 JUMP JUMPDEST JUMPDEST POP SWAP2 SWAP1 POP JUMP JUMPDEST PUSH1 0x0 DUP2 SWAP1 POP DUP2 PUSH1 0x0 MSTORE PUSH1 0x20 PUSH1 0x0 KECCAK256 SWAP1 POP SWAP2 SWAP1 POP JUMP JUMPDEST PUSH1 0x0 PUSH1 0x20 PUSH1 0x1F DUP4 ADD DIV SWAP1 POP SWAP2 SWAP1 POP JUMP JUMPDEST PUSH1 0x0 DUP3 DUP3 SHL SWAP1 POP SWAP3 SWAP2 POP POP JUMP JUMPDEST PUSH1 0x0 PUSH1 0x8 DUP4 MUL PUSH2 0x1D86 PUSH32 0xFFFFFFFFFFFFFFFFFFFFFFFFFFFFFFFFFFFFFFFFFFFFFFFFFFFFFFFFFFFFFFFF DUP3 PUSH2 0x1D49 JUMP JUMPDEST PUSH2 0x1D90 DUP7 DUP4 PUSH2 0x1D49 JUMP JUMPDEST SWAP6 POP DUP1 NOT DUP5 AND SWAP4 POP DUP1 DUP7 AND DUP5 OR SWAP3 POP POP POP SWAP4 SWAP3 POP POP POP JUMP JUMPDEST PUSH1 0x0 DUP2 SWAP1 POP SWAP2 SWAP1 POP JUMP JUMPDEST PUSH1 0x0 PUSH2 0x1DCD PUSH2 0x1DC8 PUSH2 0x1DC3 DUP5 PUSH2 0x1861 JUMP JUMPDEST PUSH2 0x1DA8 JUMP JUMPDEST PUSH2 0x1861 JUMP JUMPDEST SWAP1 POP SWAP2 SWAP1 POP JUMP JUMPDEST PUSH1 0x0 DUP2 SWAP1 POP SWAP2 SWAP1 POP JUMP JUMPDEST PUSH2 0x1DE7 DUP4 PUSH2 0x1DB2 JUMP JUMPDEST PUSH2 0x1DFB PUSH2 0x1DF3 DUP3 PUSH2 0x1DD4 JUMP JUMPDEST DUP5 DUP5 SLOAD PUSH2 0x1D56 JUMP JUMPDEST DUP3 SSTORE POP POP POP POP JUMP JUMPDEST PUSH1 0x0 SWAP1 JUMP JUMPDEST PUSH2 0x1E10 PUSH2 0x1E03 JUMP JUMPDEST PUSH2 0x1E1B DUP2 DUP5 DUP5 PUSH2 0x1DDE JUMP JUMPDEST POP POP POP JUMP JUMPDEST JUMPDEST DUP2 DUP2 LT ISZERO PUSH2 0x1E3F JUMPI PUSH2 0x1E34 PUSH1 0x0 DUP3 PUSH2 0x1E08 JUMP JUMPDEST PUSH1 0x1 DUP2 ADD SWAP1 POP PUSH2 0x1E21 JUMP JUMPDEST POP POP JUMP JUMPDEST PUSH1 0x1F DUP3 GT ISZERO PUSH2 0x1E84 JUMPI PUSH2 0x1E55 DUP2 PUSH2 0x1D24 JUMP JUMPDEST PUSH2 0x1E5E DUP5 PUSH2 0x1D39 JUMP JUMPDEST DUP2 ADD PUSH1 0x20 DUP6 LT ISZERO PUSH2 0x1E6D JUMPI DUP2 SWAP1 POP JUMPDEST PUSH2 0x1E81 PUSH2 0x1E79 DUP6 PUSH2 0x1D39 JUMP JUMPDEST DUP4 ADD DUP3 PUSH2 0x1E20 JUMP JUMPDEST POP POP JUMPDEST POP POP POP JUMP JUMPDEST PUSH1 0x0 DUP3 DUP3 SHR SWAP1 POP SWAP3 SWAP2 POP POP JUMP JUMPDEST PUSH1 0x0 PUSH2 0x1EA7 PUSH1 0x0 NOT DUP5 PUSH1 0x8 MUL PUSH2 0x1E89 JUMP JUMPDEST NOT DUP1 DUP4 AND SWAP2 POP POP SWAP3 SWAP2 POP POP JUMP JUMPDEST PUSH1 0x0 PUSH2 0x1EC0 DUP4 DUP4 PUSH2 0x1E96 JUMP JUMPDEST SWAP2 POP DUP3 PUSH1 0x2 MUL DUP3 OR SWAP1 POP SWAP3 SWAP2 POP POP JUMP JUMPDEST PUSH2 0x1ED9 DUP3 PUSH2 0x17E2 JUMP JUMPDEST PUSH8 0xFFFFFFFFFFFFFFFF DUP2 GT ISZERO PUSH2 0x1EF2 JUMPI PUSH2 0x1EF1 PUSH2 0x163F JUMP JUMPDEST JUMPDEST PUSH2 0x1EFC DUP3 SLOAD PUSH2 0x1CF3 JUMP JUMPDEST PUSH2 0x1F07 DUP3 DUP3 DUP6 PUSH2 0x1E43 JUMP JUMPDEST PUSH1 0x0 PUSH1 0x20 SWAP1 POP PUSH1 0x1F DUP4 GT PUSH1 0x1 DUP2 EQ PUSH2 0x1F3A JUMPI PUSH1 0x0 DUP5 ISZERO PUSH2 0x1F28 JUMPI DUP3 DUP8 ADD MLOAD SWAP1 POP JUMPDEST PUSH2 0x1F32 DUP6 DUP3 PUSH2 0x1EB4 JUMP JUMPDEST DUP7 SSTORE POP PUSH2 0x1F9A JUMP JUMPDEST PUSH1 0x1F NOT DUP5 AND PUSH2 0x1F48 DUP7 PUSH2 0x1D24 JUMP JUMPDEST PUSH1 0x0 JUMPDEST DUP3 DUP2 LT ISZERO PUSH2 0x1F70 JUMPI DUP5 DUP10 ADD MLOAD DUP3 SSTORE PUSH1 0x1 DUP3 ADD SWAP2 POP PUSH1 0x20 DUP6 ADD SWAP5 POP PUSH1 0x20 DUP2 ADD SWAP1 POP PUSH2 0x1F4B JUMP JUMPDEST DUP7 DUP4 LT ISZERO PUSH2 0x1F8D JUMPI DUP5 DUP10 ADD MLOAD PUSH2 0x1F89 PUSH1 0x1F DUP10 AND DUP3 PUSH2 0x1E96 JUMP JUMPDEST DUP4 SSTORE POP JUMPDEST PUSH1 0x1 PUSH1 0x2 DUP9 MUL ADD DUP9 SSTORE POP POP POP JUMPDEST POP POP POP POP POP POP JUMP JUMPDEST PUSH1 0x0 PUSH1 0x60 DUP3 ADD SWAP1 POP PUSH2 0x1FB7 PUSH1 0x0 DUP4 ADD DUP7 PUSH2 0x19BF JUMP JUMPDEST DUP2 DUP2 SUB PUSH1 0x20 DUP4 ADD MSTORE PUSH2 0x1FC9 DUP2 DUP6 PUSH2 0x1A53 JUMP JUMPDEST SWAP1 POP PUSH2 0x1FD8 PUSH1 0x40 DUP4 ADD DUP5 PUSH2 0x1B70 JUMP JUMPDEST SWAP5 SWAP4 POP POP POP POP JUMP JUMPDEST PUSH32 0x416E204E465420636F6C6C656374696F6E2063616E6E6F74206861766520616E PUSH1 0x0 DUP3 ADD MSTORE PUSH32 0x20656D7074792061646472657373000000000000000000000000000000000000 PUSH1 0x20 DUP3 ADD MSTORE POP JUMP JUMPDEST PUSH1 0x0 PUSH2 0x203C PUSH1 0x2E DUP4 PUSH2 0x1A42 JUMP JUMPDEST SWAP2 POP PUSH2 0x2047 DUP3 PUSH2 0x1FE0 JUMP JUMPDEST PUSH1 0x40 DUP3 ADD SWAP1 POP SWAP2 SWAP1 POP JUMP JUMPDEST PUSH1 0x0 PUSH1 0x20 DUP3 ADD SWAP1 POP DUP2 DUP2 SUB PUSH1 0x0 DUP4 ADD MSTORE PUSH2 0x206B DUP2 PUSH2 0x202F JUMP JUMPDEST SWAP1 POP SWAP2 SWAP1 POP JUMP JUMPDEST PUSH1 0x0 PUSH1 0x40 DUP3 ADD SWAP1 POP PUSH2 0x2087 PUSH1 0x0 DUP4 ADD DUP6 PUSH2 0x19BF JUMP JUMPDEST PUSH2 0x2094 PUSH1 0x20 DUP4 ADD DUP5 PUSH2 0x1B70 JUMP JUMPDEST SWAP4 SWAP3 POP POP POP JUMP JUMPDEST PUSH32 0x54686520726571756573746564204E465420636F6C6C656374696F6E20646F65 PUSH1 0x0 DUP3 ADD MSTORE PUSH32 0x73206E6F74206578697374000000000000000000000000000000000000000000 PUSH1 0x20 DUP3 ADD MSTORE POP JUMP JUMPDEST PUSH1 0x0 PUSH2 0x20F7 PUSH1 0x2B DUP4 PUSH2 0x1A42 JUMP JUMPDEST SWAP2 POP PUSH2 0x2102 DUP3 PUSH2 0x209B JUMP JUMPDEST PUSH1 0x40 DUP3 ADD SWAP1 POP SWAP2 SWAP1 POP JUMP JUMPDEST PUSH1 0x0 PUSH1 0x20 DUP3 ADD SWAP1 POP DUP2 DUP2 SUB PUSH1 0x0 DUP4 ADD MSTORE PUSH2 0x2126 DUP2 PUSH2 0x20EA JUMP JUMPDEST SWAP1 POP SWAP2 SWAP1 POP JUMP JUMPDEST PUSH32 0x4E487B7100000000000000000000000000000000000000000000000000000000 PUSH1 0x0 MSTORE PUSH1 0x31 PUSH1 0x4 MSTORE PUSH1 0x24 PUSH1 0x0 REVERT JUMPDEST PUSH1 0x0 PUSH2 0x2167 DUP3 PUSH2 0x1861 JUMP JUMPDEST SWAP2 POP PUSH32 0xFFFFFFFFFFFFFFFFFFFFFFFFFFFFFFFFFFFFFFFFFFFFFFFFFFFFFFFFFFFFFFFF DUP3 SUB PUSH2 0x2199 JUMPI PUSH2 0x2198 PUSH2 0x1BBC JUMP JUMPDEST JUMPDEST PUSH1 0x1 DUP3 ADD SWAP1 POP SWAP2 SWAP1 POP JUMP JUMPDEST PUSH1 0x0 PUSH1 0x40 DUP3 ADD SWAP1 POP PUSH2 0x21B9 PUSH1 0x0 DUP4 ADD DUP6 PUSH2 0x1B70 JUMP JUMPDEST PUSH2 0x21C6 PUSH1 0x20 DUP4 ADD DUP5 PUSH2 0x19BF JUMP JUMPDEST SWAP4 SWAP3 POP POP POP JUMP JUMPDEST PUSH1 0x0 DUP2 SLOAD PUSH2 0x21DA DUP2 PUSH2 0x1CF3 JUMP JUMPDEST PUSH2 0x21E4 DUP2 DUP7 PUSH2 0x1A42 JUMP JUMPDEST SWAP5 POP PUSH1 0x1 DUP3 AND PUSH1 0x0 DUP2 EQ PUSH2 0x21FF JUMPI PUSH1 0x1 DUP2 EQ PUSH2 0x2215 JUMPI PUSH2 0x2248 JUMP JUMPDEST PUSH1 0xFF NOT DUP4 AND DUP7 MSTORE DUP2 ISZERO ISZERO PUSH1 0x20 MUL DUP7 ADD SWAP4 POP PUSH2 0x2248 JUMP JUMPDEST PUSH2 0x221E DUP6 PUSH2 0x1D24 JUMP JUMPDEST PUSH1 0x0 JUMPDEST DUP4 DUP2 LT ISZERO PUSH2 0x2240 JUMPI DUP2 SLOAD DUP2 DUP10 ADD MSTORE PUSH1 0x1 DUP3 ADD SWAP2 POP PUSH1 0x20 DUP2 ADD SWAP1 POP PUSH2 0x2221 JUMP JUMPDEST DUP1 DUP9 ADD SWAP6 POP POP POP JUMPDEST POP POP POP SWAP3 SWAP2 POP POP JUMP JUMPDEST PUSH1 0x0 PUSH1 0x40 DUP3 ADD SWAP1 POP DUP2 DUP2 SUB PUSH1 0x0 DUP4 ADD MSTORE PUSH2 0x226B DUP2 DUP6 PUSH2 0x21CD JUMP JUMPDEST SWAP1 POP DUP2 DUP2 SUB PUSH1 0x20 DUP4 ADD MSTORE PUSH2 0x227F DUP2 DUP5 PUSH2 0x21CD JUMP JUMPDEST SWAP1 POP SWAP4 SWAP3 POP POP POP JUMP JUMPDEST PUSH1 0x0 DUP2 SLOAD SWAP1 POP PUSH2 0x2297 DUP2 PUSH2 0x1CF3 JUMP JUMPDEST SWAP1 POP SWAP2 SWAP1 POP JUMP JUMPDEST PUSH1 0x0 DUP2 SWAP1 POP DUP2 PUSH1 0x0 MSTORE PUSH1 0x20 PUSH1 0x0 KECCAK256 SWAP1 POP SWAP2 SWAP1 POP JUMP JUMPDEST DUP2 DUP2 SUB PUSH2 0x22C1 JUMPI POP POP PUSH2 0x2399 JUMP JUMPDEST PUSH2 0x22CA DUP3 PUSH2 0x2288 JUMP JUMPDEST PUSH8 0xFFFFFFFFFFFFFFFF DUP2 GT ISZERO PUSH2 0x22E3 JUMPI PUSH2 0x22E2 PUSH2 0x163F JUMP JUMPDEST JUMPDEST PUSH2 0x22ED DUP3 SLOAD PUSH2 0x1CF3 JUMP JUMPDEST PUSH2 0x22F8 DUP3 DUP3 DUP6 PUSH2 0x1E43 JUMP JUMPDEST PUSH1 0x0 PUSH1 0x1F DUP4 GT PUSH1 0x1 DUP2 EQ PUSH2 0x2327 JUMPI PUSH1 0x0 DUP5 ISZERO PUSH2 0x2315 JUMPI DUP3 DUP8 ADD SLOAD SWAP1 POP JUMPDEST PUSH2 0x231F DUP6 DUP3 PUSH2 0x1EB4 JUMP JUMPDEST DUP7 SSTORE POP PUSH2 0x2392 JUMP JUMPDEST PUSH1 0x1F NOT DUP5 AND PUSH2 0x2335 DUP8 PUSH2 0x229E JUMP JUMPDEST SWAP7 POP PUSH2 0x2340 DUP7 PUSH2 0x1D24 JUMP JUMPDEST PUSH1 0x0 JUMPDEST DUP3 DUP2 LT ISZERO PUSH2 0x2368 JUMPI DUP5 DUP10 ADD SLOAD DUP3 SSTORE PUSH1 0x1 DUP3 ADD SWAP2 POP PUSH1 0x1 DUP6 ADD SWAP5 POP PUSH1 0x20 DUP2 ADD SWAP1 POP PUSH2 0x2343 JUMP JUMPDEST DUP7 DUP4 LT ISZERO PUSH2 0x2385 JUMPI DUP5 DUP10 ADD SLOAD PUSH2 0x2381 PUSH1 0x1F DUP10 AND DUP3 PUSH2 0x1E96 JUMP JUMPDEST DUP4 SSTORE POP JUMPDEST PUSH1 0x1 PUSH1 0x2 DUP9 MUL ADD DUP9 SSTORE POP POP POP JUMPDEST POP POP POP POP POP POP JUMPDEST JUMP JUMPDEST PUSH1 0x0 PUSH1 0x40 DUP3 ADD SWAP1 POP PUSH2 0x23B0 PUSH1 0x0 DUP4 ADD DUP6 PUSH2 0x19BF JUMP JUMPDEST PUSH2 0x23BD PUSH1 0x20 DUP4 ADD DUP5 PUSH2 0x1A8C JUMP JUMPDEST SWAP4 SWAP3 POP POP POP JUMP JUMPDEST PUSH1 0x0 PUSH1 0x40 DUP3 ADD SWAP1 POP PUSH2 0x23D9 PUSH1 0x0 DUP4 ADD DUP6 PUSH2 0x1B70 JUMP JUMPDEST PUSH2 0x23E6 PUSH1 0x20 DUP4 ADD DUP5 PUSH2 0x1B70 JUMP JUMPDEST SWAP4 SWAP3 POP POP POP JUMP JUMPDEST PUSH32 0x54686973206D6574686F642063616E206F6E6C792062652063616C6C65642062 PUSH1 0x0 DUP3 ADD MSTORE PUSH32 0x7920746865206F776E6572206F66207468697320736D61727420636F6E747261 PUSH1 0x20 DUP3 ADD MSTORE PUSH32 0x6374000000000000000000000000000000000000000000000000000000000000 PUSH1 0x40 DUP3 ADD MSTORE POP JUMP JUMPDEST PUSH1 0x0 PUSH2 0x246F PUSH1 0x42 DUP4 PUSH2 0x1A42 JUMP JUMPDEST SWAP2 POP PUSH2 0x247A DUP3 PUSH2 0x23ED JUMP JUMPDEST PUSH1 0x60 DUP3 ADD SWAP1 POP SWAP2 SWAP1 POP JUMP JUMPDEST PUSH1 0x0 PUSH1 0x20 DUP3 ADD SWAP1 POP DUP2 DUP2 SUB PUSH1 0x0 DUP4 ADD MSTORE PUSH2 0x249E DUP2 PUSH2 0x2462 JUMP JUMPDEST SWAP1 POP SWAP2 SWAP1 POP JUMP JUMPDEST PUSH1 0x0 DUP2 MLOAD SWAP1 POP PUSH2 0x24B4 DUP2 PUSH2 0x19E9 JUMP JUMPDEST SWAP3 SWAP2 POP POP JUMP JUMPDEST PUSH1 0x0 PUSH1 0x20 DUP3 DUP5 SUB SLT ISZERO PUSH2 0x24D0 JUMPI PUSH2 0x24CF PUSH2 0x161A JUMP JUMPDEST JUMPDEST PUSH1 0x0 PUSH2 0x24DE DUP5 DUP3 DUP6 ADD PUSH2 0x24A5 JUMP JUMPDEST SWAP2 POP POP SWAP3 SWAP2 POP POP JUMP INVALID LOG2 PUSH5 0x6970667358 0x22 SLT KECCAK256 0xBA 0xE2 0xC9 0x28 DUP2 LOG2 DUP9 0x4E 0xCB JUMPDEST PUSH10 0x9A389416734531C26365 0x4D KECCAK256 0xC3 CODECOPY 0xFB 0x2A CALLDATACOPY 0xD0 SELFDESTRUCT RETURNDATASIZE PUSH21 0x64736F6C6343000812003300000000000000000000 "},"methodIdentifiers":{"NFTCollections(uint256)":"7ec24d7c","PriceProposals(uint256)":"605c736e","addNFTCollection(address)":"30002eef","cooldownTimeout()":"bbf79246","currentProposal()":"2b49d425","finalizeProposal()":"c4dc1556","getPrice()":"98d5fdca","owner()":"8da5cb5b","proposalExpiresAt()":"d65ced17","proposePrice(string,string)":"02de9f2e","removeNFTCollection(uint256)":"8b98ecaa","setCooldownTimeout(uint256)":"c2d52751","setTransferTimeout(bool)":"7c14a418","transferCooldown()":"68f16293","transferOwnership(address)":"f2fde38b","voteDown()":"b525ef0d","voteUp()":"b07672ae","votingEndsAt()":"578a72d3"}}}}}