{"contracts/DexhuneExchange.sol":{"DexhuneExchange":{"abi":[{"inputs":[],"stateMutability":"nonpayable","type":"constructor"},{"inputs":[],"name":"DepositFailed","type":"error"},{"inputs":[],"name":"FailedStringToNumberConversion","type":"error"},{"inputs":[],"name":"FailedToSendReward","type":"error"},{"inputs":[],"name":"FailedToTakeOrder","type":"error"},{"inputs":[{"internalType":"uint256","name":"balance","type":"uint256"}],"name":"InsufficientBalance","type":"error"},{"inputs":[{"internalType":"uint256","name":"listingPrice","type":"uint256"}],"name":"InsufficientBalanceForListing","type":"error"},{"inputs":[],"name":"InvalidTokenContract","type":"error"},{"inputs":[],"name":"NoSuitableOrderFound","type":"error"},{"inputs":[],"name":"OnlyOwnerMustSetDefaultToken","type":"error"},{"inputs":[],"name":"OrderLimitReachedTryLater","type":"error"},{"inputs":[{"internalType":"uint256","name":"x","type":"uint256"},{"internalType":"uint256","name":"y","type":"uint256"}],"name":"PRBMath_MulDiv18_Overflow","type":"error"},{"inputs":[{"internalType":"uint256","name":"x","type":"uint256"},{"internalType":"uint256","name":"y","type":"uint256"},{"internalType":"uint256","name":"denominator","type":"uint256"}],"name":"PRBMath_MulDiv_Overflow","type":"error"},{"inputs":[],"name":"ParityShouldNotHavePrice","type":"error"},{"inputs":[{"internalType":"address","name":"contractAddr","type":"address"}],"name":"TokenAlreadyExists","type":"error"},{"inputs":[],"name":"TokenLimitReached","type":"error"},{"inputs":[],"name":"TokenNotListed","type":"error"},{"inputs":[],"name":"TokenNotSupported_TooManyDecimals","type":"error"},{"inputs":[{"internalType":"address","name":"account","type":"address"}],"name":"UnauthorizedAccount","type":"error"},{"anonymous":false,"inputs":[{"indexed":false,"internalType":"address","name":"oldOwner","type":"address"},{"indexed":false,"internalType":"address","name":"newOwner","type":"address"}],"name":"TransferredOwnership","type":"event"},{"inputs":[],"name":"clearOrders","outputs":[],"stateMutability":"nonpayable","type":"function"},{"inputs":[{"internalType":"address","name":"tokenAddr","type":"address"}],"name":"createBuyOrder","outputs":[],"stateMutability":"payable","type":"function"},{"inputs":[{"internalType":"address","name":"tokenAddr","type":"address"},{"internalType":"uint256","name":"amount","type":"uint256"}],"name":"createSellOrder","outputs":[],"stateMutability":"nonpayable","type":"function"},{"inputs":[{"internalType":"address","name":"tokenAddr","type":"address"}],"name":"deposit","outputs":[],"stateMutability":"payable","type":"function"},{"inputs":[{"internalType":"address","name":"tokenAddr","type":"address"},{"internalType":"address","name":"fromAddress","type":"address"},{"internalType":"uint256","name":"amount","type":"uint256"}],"name":"depositToken","outputs":[],"stateMutability":"nonpayable","type":"function"},{"inputs":[],"name":"getBalance","outputs":[{"internalType":"uint256","name":"","type":"uint256"}],"stateMutability":"view","type":"function"},{"inputs":[{"internalType":"address","name":"tokenAddr","type":"address"},{"internalType":"enum DexhuneExchangeBase.PricingScheme","name":"scheme","type":"uint8"},{"internalType":"uint256","name":"reward","type":"uint256"},{"internalType":"uint256","name":"rewardThreshold","type":"uint256"},{"internalType":"address","name":"parityAddr","type":"address"},{"internalType":"string","name":"price","type":"string"}],"name":"listToken","outputs":[],"stateMutability":"nonpayable","type":"function"},{"inputs":[],"name":"owner","outputs":[{"internalType":"address","name":"","type":"address"}],"stateMutability":"view","type":"function"},{"inputs":[{"internalType":"address","name":"tokenAddr","type":"address"},{"internalType":"bool","name":"isAVAX","type":"bool"}],"name":"queryBalance","outputs":[{"internalType":"uint256","name":"","type":"uint256"}],"stateMutability":"view","type":"function"},{"inputs":[{"internalType":"address","name":"tokenAddr","type":"address"},{"internalType":"bool","name":"orderType","type":"bool"}],"name":"settleOrders","outputs":[],"stateMutability":"nonpayable","type":"function"},{"inputs":[{"internalType":"address","name":"tokenAddr","type":"address"},{"internalType":"uint256","name":"amount","type":"uint256"}],"name":"takeBuyOrder","outputs":[],"stateMutability":"nonpayable","type":"function"},{"inputs":[{"internalType":"address","name":"tokenAddr","type":"address"}],"name":"takeSellOrder","outputs":[],"stateMutability":"payable","type":"function"},{"inputs":[{"internalType":"address","name":"_address","type":"address"}],"name":"transferOwnership","outputs":[],"stateMutability":"nonpayable","type":"function"},{"inputs":[{"internalType":"address","name":"tokenAddr","type":"address"}],"name":"viewToken","outputs":[{"components":[{"internalType":"uint256","name":"tokenNo","type":"uint256"},{"internalType":"string","name":"name","type":"string"},{"internalType":"string","name":"sym","type":"string"},{"internalType":"address","name":"addr","type":"address"},{"internalType":"address","name":"parityAddr","type":"address"},{"internalType":"uint256","name":"reward","type":"uint256"},{"internalType":"uint256","name":"rewardThreshold","type":"uint256"},{"internalType":"enum DexhuneExchangeBase.PricingScheme","name":"scheme","type":"uint8"},{"internalType":"uint256","name":"price","type":"uint256"},{"internalType":"uint256","name":"orders","type":"uint256"}],"internalType":"struct DexhuneExchangeBase.TokenDataModel","name":"","type":"tuple"}],"stateMutability":"view","type":"function"},{"inputs":[{"internalType":"uint256","name":"tokenNo","type":"uint256"}],"name":"viewToken","outputs":[{"components":[{"internalType":"uint256","name":"tokenNo","type":"uint256"},{"internalType":"string","name":"name","type":"string"},{"internalType":"string","name":"sym","type":"string"},{"internalType":"address","name":"addr","type":"address"},{"internalType":"address","name":"parityAddr","type":"address"},{"internalType":"uint256","name":"reward","type":"uint256"},{"internalType":"uint256","name":"rewardThreshold","type":"uint256"},{"internalType":"enum DexhuneExchangeBase.PricingScheme","name":"scheme","type":"uint8"},{"internalType":"uint256","name":"price","type":"uint256"},{"internalType":"uint256","name":"orders","type":"uint256"}],"internalType":"struct DexhuneExchangeBase.TokenDataModel","name":"","type":"tuple"}],"stateMutability":"view","type":"function"}],"evm":{"bytecode":{"linkReferences":{},"object":"60806040526103e860015534801561001657600080fd5b50336000806101000a81548173ffffffffffffffffffffffffffffffffffffffff021916908373ffffffffffffffffffffffffffffffffffffffff16021790555061500b806100666000396000f3fe6080604052600436106100e85760003560e01c80639351769f1161008a578063db34a67911610059578063db34a679146102c4578063f2fde38b146102ed578063f340fa0114610316578063fb0f97a814610332576100e8565b80639351769f1461023f578063a262b73f14610256578063c201e47c1461027f578063d2980065146102a8576100e8565b80636daf6945116100c65780636daf6945146101925780638334d195146101ae5780638da5cb5b146101eb57806392e6b82914610216576100e8565b806312065fe0146100ed5780633b174f0f14610118578063673cf82a14610155575b600080fd5b3480156100f957600080fd5b5061010261035b565b60405161010f9190613f50565b60405180910390f35b34801561012457600080fd5b5061013f600480360381019061013a9190614015565b610363565b60405161014c9190613f50565b60405180910390f35b34801561016157600080fd5b5061017c60048036038101906101779190614055565b610395565b6040516101899190614288565b60405180910390f35b6101ac60048036038101906101a79190614055565b61042c565b005b3480156101ba57600080fd5b506101d560048036038101906101d091906142d6565b61049e565b6040516101e29190614288565b60405180910390f35b3480156101f757600080fd5b506102006104f4565b60405161020d9190614312565b60405180910390f35b34801561022257600080fd5b5061023d60048036038101906102389190614487565b610518565b005b34801561024b57600080fd5b50610254610a2d565b005b34801561026257600080fd5b5061027d60048036038101906102789190614530565b610e3d565b005b34801561028b57600080fd5b506102a660048036038101906102a19190614015565b610ebb565b005b6102c260048036038101906102bd9190614055565b611152565b005b3480156102d057600080fd5b506102eb60048036038101906102e69190614530565b61118f565b005b3480156102f957600080fd5b50610314600480360381019061030f9190614055565b611250565b005b610330600480360381019061032b9190614055565b61131b565b005b34801561033e57600080fd5b5061035960048036038101906103549190614570565b61134c565b005b600047905090565b60008061036f846113bf565b905082156103855780610140015191505061038f565b8061016001519150505b92915050565b61039d613d6d565b6000600460008473ffffffffffffffffffffffffffffffffffffffff1673ffffffffffffffffffffffffffffffffffffffff1681526020019081526020016000205490506000810361041b576040517fc5f0a1ee00000000000000000000000000000000000000000000000000000000815260040160405180910390fd5b6104248161141c565b915050919050565b6000349050610439613dfe565b6000806104468585611814565b80945081955082935050505080610489576040517f2050d62b00000000000000000000000000000000000000000000000000000000815260040160405180910390fd5b610497836000848789611a37565b5050505050565b6104a6613d6d565b60028054905082106104e4576040517fc5f0a1ee00000000000000000000000000000000000000000000000000000000815260040160405180910390fd5b6104ed8261141c565b9050919050565b60008054906101000a900473ffffffffffffffffffffffffffffffffffffffff1681565b6000600280549050036105ab5760008054906101000a900473ffffffffffffffffffffffffffffffffffffffff1673ffffffffffffffffffffffffffffffffffffffff163373ffffffffffffffffffffffffffffffffffffffff16146105aa576040517fac966a5200000000000000000000000000000000000000000000000000000000815260040160405180910390fd5b5b60008690506000600460008373ffffffffffffffffffffffffffffffffffffffff1673ffffffffffffffffffffffffffffffffffffffff1681526020019081526020016000205490506000811415801561060a57506000600280549050115b1561064c57816040517f15ef3a570000000000000000000000000000000000000000000000000000000081526004016106439190614312565b60405180910390fd5b620f42406002805490501061068d576040517f53bb24f900000000000000000000000000000000000000000000000000000000815260040160405180910390fd5b600060608060008061069e87611dc8565b809550819650829750839850849950505050505060006106bd89612059565b9050600073ffffffffffffffffffffffffffffffffffffffff168a73ffffffffffffffffffffffffffffffffffffffff16141580156106fc5750600081115b15610733576040517f4f7af06a00000000000000000000000000000000000000000000000000000000815260040160405180910390fd5b61073b6120ac565b6000604051806101c001604052808781526020018681526020018560ff1681526020018481526020018a73ffffffffffffffffffffffffffffffffffffffff1681526020018c73ffffffffffffffffffffffffffffffffffffffff1681526020018f60018111156107af576107ae614130565b5b81526020018e81526020018d81526020018381526020016000815260200160008152602001600081526020018873ffffffffffffffffffffffffffffffffffffffff16815250905060028190806001815401808255809150506001900390600052602060002090600d0201600090919091909150600082015181600001908161083891906147cf565b50602082015181600101908161084e91906147cf565b5060408201518160020160006101000a81548160ff021916908360ff1602179055506060820151816003015560808201518160040160006101000a81548173ffffffffffffffffffffffffffffffffffffffff021916908373ffffffffffffffffffffffffffffffffffffffff16021790555060a08201518160050160006101000a81548173ffffffffffffffffffffffffffffffffffffffff021916908373ffffffffffffffffffffffffffffffffffffffff16021790555060c08201518160050160146101000a81548160ff0219169083600181111561093357610932614130565b5b021790555060e0820151816006015561010082015181600701556101208201518160080155610140820151816009015561016082015181600a015561018082015181600b01556101a082015181600c0160006101000a81548173ffffffffffffffffffffffffffffffffffffffff021916908373ffffffffffffffffffffffffffffffffffffffff160217905550505060016002805490506109d591906148d0565b60046000836080015173ffffffffffffffffffffffffffffffffffffffff1673ffffffffffffffffffffffffffffffffffffffff16815260200190815260200160002081905550505050505050505050505050505050565b6000600660003373ffffffffffffffffffffffffffffffffffffffff1673ffffffffffffffffffffffffffffffffffffffff1681526020019081526020016000209050600080828054905011905060008082610a8a576064610a8d565b60325b9050600080429050610a9d613dfe565b600060038054905011610ab65750505050505050610e3b565b8515610c9257600060018880549050610acf91906148d0565b90505b60008110158015610ae35750848611155b15610c8557878181548110610afb57610afa614904565b5b9060005260206000200154935060038481548110610b1c57610b1b614904565b5b9060005260206000209060070201604051806101000160405290816000820160009054906101000a900473ffffffffffffffffffffffffffffffffffffffff1673ffffffffffffffffffffffffffffffffffffffff1673ffffffffffffffffffffffffffffffffffffffff1681526020016001820160009054906101000a900473ffffffffffffffffffffffffffffffffffffffff1673ffffffffffffffffffffffffffffffffffffffff1673ffffffffffffffffffffffffffffffffffffffff1681526020016001820160149054906101000a900460ff161515151581526020016002820154815260200160038201548152602001600482015481526020016005820154815260200160068201548152505091506028826060015184610c4391906148d0565b1115610c7257610c538285612451565b15610c7157610c62888261250c565b8580610c6d90614933565b9650505b5b8080610c7d9061497b565b915050610ad2565b5050505050505050610e3b565b60006001600380549050610ca691906148d0565b90505b60008110158015610cba5750848611155b15610e325760038181548110610cd357610cd2614904565b5b9060005260206000209060070201604051806101000160405290816000820160009054906101000a900473ffffffffffffffffffffffffffffffffffffffff1673ffffffffffffffffffffffffffffffffffffffff1673ffffffffffffffffffffffffffffffffffffffff1681526020016001820160009054906101000a900473ffffffffffffffffffffffffffffffffffffffff1673ffffffffffffffffffffffffffffffffffffffff1673ffffffffffffffffffffffffffffffffffffffff1681526020016001820160149054906101000a900460ff161515151581526020016002820154815260200160038201548152602001600482015481526020016005820154815260200160068201548152505091506028826060015184610dfa91906148d0565b1115610e1f57610e0a8285612451565b15610e1e578580610e1a90614933565b9650505b5b8080610e2a9061497b565b915050610ca9565b50505050505050505b565b6000610e48836113bf565b9050610e5a816101a001513384612594565b610e90576040517f79cacff100000000000000000000000000000000000000000000000000000000815260040160405180910390fd5b818161016001818151610ea391906149a4565b91508181525050610eb681600084612628565b505050565b6000610ec6836113bf565b9050600060056000836080015173ffffffffffffffffffffffffffffffffffffffff1673ffffffffffffffffffffffffffffffffffffffff1681526020019081526020016000209050610f17613dfe565b60008085610f2a57846101400151610f31565b8461016001515b9050600060018580549050610f4691906148d0565b90505b600082118015610f5a575060008110155b15611126576000858281548110610f7457610f73614904565b5b9060005260206000200154905060038181548110610f9557610f94614904565b5b9060005260206000209060070201604051806101000160405290816000820160009054906101000a900473ffffffffffffffffffffffffffffffffffffffff1673ffffffffffffffffffffffffffffffffffffffff1673ffffffffffffffffffffffffffffffffffffffff1681526020016001820160009054906101000a900473ffffffffffffffffffffffffffffffffffffffff1673ffffffffffffffffffffffffffffffffffffffff1673ffffffffffffffffffffffffffffffffffffffff1681526020016001820160149054906101000a900460ff1615151515815260200160028201548152602001600382015481526020016004820154815260200160058201548152602001600682015481525050945087151585604001511515146110bf5750611113565b87156110dd576110d0878685612e78565b80945081955050506110f1565b6110e8878685612fc8565b80945081955050505b836110fc5750611113565b611106868361250c565b61111160038261309f565b505b808061111e9061497b565b915050610f49565b50851561113d578085610160018181525050611149565b80856101400181815250505b50505050505050565b60003490506000611162836113bf565b905081816101400181815161117791906149a4565b9150818152505061118a81600184612628565b505050565b600061119a836113bf565b90506111a4613dfe565b6000806111b18686611814565b809450819550829350505050806111f4576040517f2050d62b00000000000000000000000000000000000000000000000000000000815260040160405180910390fd5b611204846101a001518787612594565b61123a576040517f79cacff100000000000000000000000000000000000000000000000000000000815260040160405180910390fd5b61124883600184888a611a37565b505050505050565b6112586132e7565b60008060009054906101000a900473ffffffffffffffffffffffffffffffffffffffff169050816000806101000a81548173ffffffffffffffffffffffffffffffffffffffff021916908373ffffffffffffffffffffffffffffffffffffffff1602179055507f850b3df64837d7d518b45f5aa64d104652c3b80eb5b34a8e3d9eb666cb7cdea58160008054906101000a900473ffffffffffffffffffffffffffffffffffffffff1660405161130f9291906149d8565b60405180910390a15050565b6000611326826113bf565b9050600034905080826101400181815161134091906149a4565b91508181525050505050565b6000611357846113bf565b9050611369816101a001518484612594565b61139f576040517f79cacff100000000000000000000000000000000000000000000000000000000815260040160405180910390fd5b8181610160018181516113b291906149a4565b9150818152505050505050565b6113c7613e71565b6000600460008473ffffffffffffffffffffffffffffffffffffffff1673ffffffffffffffffffffffffffffffffffffffff16815260200190815260200160002054905061141481613379565b915050919050565b611424613d6d565b60006002838154811061143a57611439614904565b5b90600052602060002090600d0201604051806101c0016040529081600082018054611464906145f2565b80601f0160208091040260200160405190810160405280929190818152602001828054611490906145f2565b80156114dd5780601f106114b2576101008083540402835291602001916114dd565b820191906000526020600020905b8154815290600101906020018083116114c057829003601f168201915b505050505081526020016001820180546114f6906145f2565b80601f0160208091040260200160405190810160405280929190818152602001828054611522906145f2565b801561156f5780601f106115445761010080835404028352916020019161156f565b820191906000526020600020905b81548152906001019060200180831161155257829003601f168201915b505050505081526020016002820160009054906101000a900460ff1660ff1660ff168152602001600382015481526020016004820160009054906101000a900473ffffffffffffffffffffffffffffffffffffffff1673ffffffffffffffffffffffffffffffffffffffff1673ffffffffffffffffffffffffffffffffffffffff1681526020016005820160009054906101000a900473ffffffffffffffffffffffffffffffffffffffff1673ffffffffffffffffffffffffffffffffffffffff1673ffffffffffffffffffffffffffffffffffffffff1681526020016005820160149054906101000a900460ff1660018111156116705761166f614130565b5b600181111561168257611681614130565b5b815260200160068201548152602001600782015481526020016008820154815260200160098201548152602001600a8201548152602001600b8201548152602001600c820160009054906101000a900473ffffffffffffffffffffffffffffffffffffffff1673ffffffffffffffffffffffffffffffffffffffff1673ffffffffffffffffffffffffffffffffffffffff16815250509050600060056000836080015173ffffffffffffffffffffffffffffffffffffffff1673ffffffffffffffffffffffffffffffffffffffff1681526020019081526020016000208054905090506040518061014001604052808581526020018360000151815260200183602001518152602001836080015173ffffffffffffffffffffffffffffffffffffffff1681526020018360a0015173ffffffffffffffffffffffffffffffffffffffff1681526020018360e00151815260200183610100015181526020018360c0015160018111156117f7576117f6614130565b5b815260200183610120015181526020018281525092505050919050565b600061181e613dfe565b6000611828613dfe565b6000600560008873ffffffffffffffffffffffffffffffffffffffff1673ffffffffffffffffffffffffffffffffffffffff168152602001908152602001600020905060008060006001848054905061188191906148d0565b90505b60008110611a225760008482815481106118a1576118a0614904565b5b90600052602060002001549050600381815481106118c2576118c1614904565b5b9060005260206000209060070201604051806101000160405290816000820160009054906101000a900473ffffffffffffffffffffffffffffffffffffffff1673ffffffffffffffffffffffffffffffffffffffff1673ffffffffffffffffffffffffffffffffffffffff1681526020016001820160009054906101000a900473ffffffffffffffffffffffffffffffffffffffff1673ffffffffffffffffffffffffffffffffffffffff1673ffffffffffffffffffffffffffffffffffffffff1681526020016001820160149054906101000a900460ff16151515158152602001600282015481526020016003820154815260200160048201548152602001600582015481526020016006820154815250509550898660e00151036119ef576001935081925050611a22565b83158015611a015750898660e0015110155b15611a0e57600193508192505b508080611a1a9061497b565b915050611884565b50818482965096509650505050509250925092565b6000611a42826113bf565b905060038481548110611a5857611a57614904565b5b9060005260206000209060070201604051806101000160405290816000820160009054906101000a900473ffffffffffffffffffffffffffffffffffffffff1673ffffffffffffffffffffffffffffffffffffffff1673ffffffffffffffffffffffffffffffffffffffff1681526020016001820160009054906101000a900473ffffffffffffffffffffffffffffffffffffffff1673ffffffffffffffffffffffffffffffffffffffff1673ffffffffffffffffffffffffffffffffffffffff1681526020016001820160149054906101000a900460ff161515151581526020016002820154815260200160038201548152602001600482015481526020016005820154815260200160068201548152505095506000838760e00151141590506000848860e00151611b8b91906148d0565b905060008860c0015190506000808415611bfd576000611bb4876101200151601260ff166136d1565b90506000611bc986896040015160ff166136d1565b905060008c611bdc578860400151611bdf565b60125b9050611bf7611bee83856136f6565b8260ff1661372d565b95505050505b8915611c0e57829150839050611c15565b8391508290505b6000808b15611c2d573391508c600001519050611c38565b8c6000015191503390505b611c48886101a001518287613752565b611c7e576040517f4de4e1d000000000000000000000000000000000000000000000000000000000815260040160405180910390fd5b611c8882876137e4565b611cbe576040517f4de4e1d000000000000000000000000000000000000000000000000000000000815260040160405180910390fd5b858861014001818151611cd191906148d0565b91508181525050848861016001818151611ceb91906148d0565b915081815250508615611d2f57858d60e001818151611d0a91906148d0565b91508181525050848d60c001818151611d2391906148d0565b91508181525050611d3b565b611d3a60038c61309f565b5b60008860e0015111611d54575050505050505050611dc1565b876101000151831015611d6e575050505050505050611dc1565b611d82886101a00151828a60e00151613752565b611db8576040517fc96d18b500000000000000000000000000000000000000000000000000000000815260040160405180910390fd5b50505050505050505b5050505050565b600060608060008060008690506060806000808473ffffffffffffffffffffffffffffffffffffffff166370a08231306040518263ffffffff1660e01b8152600401611e149190614312565b602060405180830381865afa925050508015611e4e57506040513d601f19601f82011682018060405250810190611e4b9190614a16565b60015b611e84576040517f29bdfb3400000000000000000000000000000000000000000000000000000000815260040160405180910390fd5b508473ffffffffffffffffffffffffffffffffffffffff1663313ce5676040518163ffffffff1660e01b8152600401602060405180830381865afa925050508015611eed57506040513d601f19601f82011682018060405250810190611eea9190614a7c565b60015b611efa5760129050611eff565b809150505b601260ff168160ff161115611f40576040517f432c0a5d00000000000000000000000000000000000000000000000000000000815260040160405180910390fd5b611f4c8160ff1661385b565b91508473ffffffffffffffffffffffffffffffffffffffff166306fdde036040518163ffffffff1660e01b8152600401600060405180830381865afa925050508015611fbb57506040513d6000823e3d601f19601f82011682018060405250810190611fb89190614b19565b60015b15611fc557809450505b8473ffffffffffffffffffffffffffffffffffffffff166395d89b416040518163ffffffff1660e01b8152600401600060405180830381865afa92505050801561203257506040513d6000823e3d601f19601f8201168201806040525081019061202f9190614b19565b60015b1561203c57809350505b848484838599509950995099509950505050505091939590929450565b60008060006120678461387d565b91509150806120a2576040517fe6f7d2c700000000000000000000000000000000000000000000000000000000815260040160405180910390fd5b8192505050919050565b600060026000815481106120c3576120c2614904565b5b90600052602060002090600d0201604051806101c00160405290816000820180546120ed906145f2565b80601f0160208091040260200160405190810160405280929190818152602001828054612119906145f2565b80156121665780601f1061213b57610100808354040283529160200191612166565b820191906000526020600020905b81548152906001019060200180831161214957829003601f168201915b5050505050815260200160018201805461217f906145f2565b80601f01602080910402602001604051908101604052809291908181526020018280546121ab906145f2565b80156121f85780601f106121cd576101008083540402835291602001916121f8565b820191906000526020600020905b8154815290600101906020018083116121db57829003601f168201915b505050505081526020016002820160009054906101000a900460ff1660ff1660ff168152602001600382015481526020016004820160009054906101000a900473ffffffffffffffffffffffffffffffffffffffff1673ffffffffffffffffffffffffffffffffffffffff1673ffffffffffffffffffffffffffffffffffffffff1681526020016005820160009054906101000a900473ffffffffffffffffffffffffffffffffffffffff1673ffffffffffffffffffffffffffffffffffffffff1673ffffffffffffffffffffffffffffffffffffffff1681526020016005820160149054906101000a900460ff1660018111156122f9576122f8614130565b5b600181111561230b5761230a614130565b5b815260200160068201548152602001600782015481526020016008820154815260200160098201548152602001600a8201548152602001600b8201548152602001600c820160009054906101000a900473ffffffffffffffffffffffffffffffffffffffff1673ffffffffffffffffffffffffffffffffffffffff1673ffffffffffffffffffffffffffffffffffffffff168152505090506123b5816101a0015133600154612594565b6123f8576001546040517fca114a020000000000000000000000000000000000000000000000000000000081526004016123ef9190613f50565b60405180910390fd5b600154816101600181815161240d91906149a4565b9150818152505060006103e860056001546124289190614b62565b6124329190614bd3565b9050806001600082825461244691906149a4565b925050819055505050565b60008061246184602001516113bf565b90508360400151156124b05761247f84600001518560c001516137e4565b61248d576000915050612506565b8360c0015181610140018181516124a491906148d0565b915081815250506124f5565b6124c8816101a0015185600001518660c00151613752565b6124d6576000915050612506565b8360c0015181610160018181516124ed91906148d0565b915081815250505b61250060038461309f565b60019150505b92915050565b60006001838054905061251f91906148d0565b90508082146125685782818154811061253b5761253a614904565b5b906000526020600020015483838154811061255957612558614904565b5b90600052602060002001819055505b8280548061257957612578614c04565b5b60019003818190600052602060002001600090559055505050565b60008373ffffffffffffffffffffffffffffffffffffffff166323b872dd8430856040518463ffffffff1660e01b81526004016125d393929190614c33565b6020604051808303816000875af192505050801561260f57506040513d601f19601f8201168201806040525081019061260c9190614c7f565b60015b61261c5760009050612621565b809150505b9392505050565b600080600181111561263d5761263c614130565b5b8460c00151600181111561265457612653614130565b5b036126af576126616139d6565b6000612673600954601260ff166136d1565b9050600061268d866101200151876040015160ff166136d1565b90506126a661269c83836136f6565b601260ff1661372d565b92505050612b6a565b6001808111156126c2576126c1614130565b5b8460c0015160018111156126d9576126d8614130565b5b03612b6957600060f0856101800151426126f391906148d0565b101590508015612b67576000600260008154811061271457612713614904565b5b90600052602060002090600d0201604051806101c001604052908160008201805461273e906145f2565b80601f016020809104026020016040519081016040528092919081815260200182805461276a906145f2565b80156127b75780601f1061278c576101008083540402835291602001916127b7565b820191906000526020600020905b81548152906001019060200180831161279a57829003601f168201915b505050505081526020016001820180546127d0906145f2565b80601f01602080910402602001604051908101604052809291908181526020018280546127fc906145f2565b80156128495780601f1061281e57610100808354040283529160200191612849565b820191906000526020600020905b81548152906001019060200180831161282c57829003601f168201915b505050505081526020016002820160009054906101000a900460ff1660ff1660ff168152602001600382015481526020016004820160009054906101000a900473ffffffffffffffffffffffffffffffffffffffff1673ffffffffffffffffffffffffffffffffffffffff1673ffffffffffffffffffffffffffffffffffffffff1681526020016005820160009054906101000a900473ffffffffffffffffffffffffffffffffffffffff1673ffffffffffffffffffffffffffffffffffffffff1673ffffffffffffffffffffffffffffffffffffffff1681526020016005820160149054906101000a900460ff16600181111561294a57612949614130565b5b600181111561295c5761295b614130565b5b815260200160068201548152602001600782015481526020016008820154815260200160098201548152602001600a8201548152602001600b8201548152602001600c820160009054906101000a900473ffffffffffffffffffffffffffffffffffffffff1673ffffffffffffffffffffffffffffffffffffffff1673ffffffffffffffffffffffffffffffffffffffff168152505090506000866101a0015190506000826101a00151905060008273ffffffffffffffffffffffffffffffffffffffff166370a082318a60a001516040518263ffffffff1660e01b8152600401612a479190614312565b602060405180830381865afa158015612a64573d6000803e3d6000fd5b505050506040513d601f19601f82011682018060405250810190612a889190614a16565b905060008273ffffffffffffffffffffffffffffffffffffffff166370a082318b60a001516040518263ffffffff1660e01b8152600401612ac99190614312565b602060405180830381865afa158015612ae6573d6000803e3d6000fd5b505050506040513d601f19601f82011682018060405250810190612b0a9190614a16565b9050612b1d828b6040015160ff166136d1565b9150612b3081866040015160ff166136d1565b9050612b49612b3f82846136f6565b601260ff1661372d565b9650868a610120018181525050428a61018001818152505050505050505b505b5b6000806000612b7d84601260ff166136d1565b90508515612bb657612b9385601260ff166136d1565b9150612baf612ba28284613abd565b886040015160ff1661372d565b9250612be6565b612bc785886040015160ff166136d1565b9150612be3612bd683836136f6565b886040015160ff1661372d565b92505b60008761010001518510612bfc578760e0015190505b60006040518061010001604052803373ffffffffffffffffffffffffffffffffffffffff1681526020018a6080015173ffffffffffffffffffffffffffffffffffffffff1681526020018915158152602001428152602001838152602001878152602001888152602001868152509050600381908060018154018082558091505060019003906000526020600020906007020160009091909190915060008201518160000160006101000a81548173ffffffffffffffffffffffffffffffffffffffff021916908373ffffffffffffffffffffffffffffffffffffffff16021790555060208201518160010160006101000a81548173ffffffffffffffffffffffffffffffffffffffff021916908373ffffffffffffffffffffffffffffffffffffffff16021790555060408201518160010160146101000a81548160ff021916908315150217905550606082015181600201556080820151816003015560a0820151816004015560c0820151816005015560e0820151816006015550506000600660003373ffffffffffffffffffffffffffffffffffffffff1673ffffffffffffffffffffffffffffffffffffffff16815260200190815260200160002090506000600560008c6080015173ffffffffffffffffffffffffffffffffffffffff1673ffffffffffffffffffffffffffffffffffffffff168152602001908152602001600020905060006001600380549050612e1891906148d0565b90508281908060018154018082558091505060019003906000526020600020016000909190919091505581819080600181540180825580915050600190039060005260206000200160009091909190915055505050505050505050505050565b6000806000808560e00151851090508015612e9557849150612e9d565b8560e0015191505b6000876101a0015190508073ffffffffffffffffffffffffffffffffffffffff1663a9059cbb8860000151856040518363ffffffff1660e01b8152600401612ee6929190614d01565b6020604051808303816000875af1925050508015612f2257506040513d601f19601f82011682018060405250810190612f1f9190614c7f565b60015b612f355760008694509450505050612fc0565b508286612f4291906148d0565b95508115612fb557828760e001818151612f5c91906148d0565b915081815250506000612f7a8860e001518a6040015160ff166136d1565b90506000612f908960a00151601260ff166136d1565b9050612fa9612f9f83836136f6565b601260ff1661372d565b8960c001818152505050505b811586945094505050505b935093915050565b6000806000808560e00151851090508015612fe557849150612fed565b8560e0015191505b612ffb8660000151836137e4565b1561308d57818561300c91906148d0565b9450801561307f57818660e00181815161302691906148d0565b9150818152505060006130418760e00151601260ff166136d1565b905060006130578860a00151601260ff166136d1565b905061307361306683836136f6565b8a6040015160ff1661372d565b8860c001818152505050505b600185935093505050613097565b6000859350935050505b935093915050565b6000600183805490506130b291906148d0565b905080821461322e578281815481106130ce576130cd614904565b5b90600052602060002090600702018383815481106130ef576130ee614904565b5b90600052602060002090600702016000820160009054906101000a900473ffffffffffffffffffffffffffffffffffffffff168160000160006101000a81548173ffffffffffffffffffffffffffffffffffffffff021916908373ffffffffffffffffffffffffffffffffffffffff1602179055506001820160009054906101000a900473ffffffffffffffffffffffffffffffffffffffff168160010160006101000a81548173ffffffffffffffffffffffffffffffffffffffff021916908373ffffffffffffffffffffffffffffffffffffffff1602179055506001820160149054906101000a900460ff168160010160146101000a81548160ff02191690831515021790555060028201548160020155600382015481600301556004820154816004015560058201548160050155600682015481600601559050505b8280548061323f5761323e614c04565b5b6001900381819060005260206000209060070201600080820160006101000a81549073ffffffffffffffffffffffffffffffffffffffff02191690556001820160006101000a81549073ffffffffffffffffffffffffffffffffffffffff02191690556001820160146101000a81549060ff02191690556002820160009055600382016000905560048201600090556005820160009055600682016000905550509055505050565b60008054906101000a900473ffffffffffffffffffffffffffffffffffffffff1673ffffffffffffffffffffffffffffffffffffffff163373ffffffffffffffffffffffffffffffffffffffff161461337757336040517f32b2baa300000000000000000000000000000000000000000000000000000000815260040161336e9190614312565b60405180910390fd5b565b613381613e71565b600082148061339557506002805490508210155b156133cc576040517fc5f0a1ee00000000000000000000000000000000000000000000000000000000815260040160405180910390fd5b60026001836133db91906148d0565b815481106133ec576133eb614904565b5b90600052602060002090600d0201604051806101c0016040529081600082018054613416906145f2565b80601f0160208091040260200160405190810160405280929190818152602001828054613442906145f2565b801561348f5780601f106134645761010080835404028352916020019161348f565b820191906000526020600020905b81548152906001019060200180831161347257829003601f168201915b505050505081526020016001820180546134a8906145f2565b80601f01602080910402602001604051908101604052809291908181526020018280546134d4906145f2565b80156135215780601f106134f657610100808354040283529160200191613521565b820191906000526020600020905b81548152906001019060200180831161350457829003601f168201915b505050505081526020016002820160009054906101000a900460ff1660ff1660ff168152602001600382015481526020016004820160009054906101000a900473ffffffffffffffffffffffffffffffffffffffff1673ffffffffffffffffffffffffffffffffffffffff1673ffffffffffffffffffffffffffffffffffffffff1681526020016005820160009054906101000a900473ffffffffffffffffffffffffffffffffffffffff1673ffffffffffffffffffffffffffffffffffffffff1673ffffffffffffffffffffffffffffffffffffffff1681526020016005820160149054906101000a900460ff16600181111561362257613621614130565b5b600181111561363457613633614130565b5b815260200160068201548152602001600782015481526020016008820154815260200160098201548152602001600a8201548152602001600b8201548152602001600c820160009054906101000a900473ffffffffffffffffffffffffffffffffffffffff1673ffffffffffffffffffffffffffffffffffffffff1673ffffffffffffffffffffffffffffffffffffffff16815250509050919050565b6000600182146136ec5781836136e79190614b62565b6136ee565b825b905092915050565b60008061370284613af4565b9050600061370f84613af4565b905061372361371e8383613afe565b613b33565b9250505092915050565b6000600182146137485781836137439190614bd3565b61374a565b825b905092915050565b60008373ffffffffffffffffffffffffffffffffffffffff1663a9059cbb84846040518363ffffffff1660e01b815260040161378f929190614d2a565b6020604051808303816000875af19250505080156137cb57506040513d601f19601f820116820180604052508101906137c89190614c7f565b60015b6137d857600090506137dd565b809150505b9392505050565b6000808373ffffffffffffffffffffffffffffffffffffffff168360405161380b90614d84565b60006040518083038185875af1925050503d8060008114613848576040519150601f19603f3d011682016040523d82523d6000602084013e61384d565b606091505b505090508091505092915050565b60006012820361386e5760019050613878565b81601203600a0a90505b919050565b60008060008060008590506000806000806000905060005b8551811080156138a3575083155b156139a7578581815181106138bb576138ba614904565b5b602001015160f81c60f81b60f81c945060308560ff16101580156138e3575060398560ff1611155b1561395a5786975082156139045781806138fc90614d99565b925050613914565b600a876139119190614b62565b96505b81600a6139219190614ef5565b60308661392e9190614f40565b60ff1661393b9190614b62565b8761394691906149a4565b96508688111561395557600193505b613994565b602e8560ff160361399357821561397057600193505b600192506012915081600a6139859190614ef5565b876139909190614b62565b96505b5b808061399f90614933565b915050613895565b50816139c457670de0b6b3a7640000866139c19190614b62565b95505b85839850985050505050505050915091565b60f0600a54426139e691906148d0565b10613abb5742600a819055506000600860009054906101000a900473ffffffffffffffffffffffffffffffffffffffff16905060008173ffffffffffffffffffffffffffffffffffffffff166398d5fdca6040518163ffffffff1660e01b8152600401600060405180830381865afa158015613a66573d6000803e3d6000fd5b505050506040513d6000823e3d601f19601f82011682018060405250810190613a8f9190614b19565b9050600080613a9d8361387d565b915091508015613aaf57816009819055505b42600a81905550505050505b565b600080613ac984613af4565b90506000613ad684613af4565b9050613aea613ae58383613b3d565b613b33565b9250505092915050565b6000819050919050565b6000613b2b613b26613b0f85613b33565b670de0b6b3a7640000613b2186613b33565b613b69565b613af4565b905092915050565b6000819050919050565b6000613b61613b5c613b4e85613b33565b613b5785613b33565b613c83565b613af4565b905092915050565b6000806000801985870985870292508281108382030391505060008103613ba457838281613b9a57613b99614ba4565b5b0492505050613c7c565b838110613bec578585856040517f63a05778000000000000000000000000000000000000000000000000000000008152600401613be393929190614f75565b60405180910390fd5b60008486880990508281118203915080830392506000600186190186169050600081870496508185049450600182836000030401905080840285179450600060028860030218905080880260020381029050808802600203810290508088026002038102905080880260020381029050808802600203810290508088026002038102905080860296505050505050505b9392505050565b6000806000801984860984860292508281108382030391505060008103613cc657670de0b6b3a76400008281613cbc57613cbb614ba4565b5b0492505050613d67565b670de0b6b3a76400008110613d145784846040517f5173648d000000000000000000000000000000000000000000000000000000008152600401613d0b929190614fac565b60405180910390fd5b6000670de0b6b3a764000085870990507faccb18165bd6fe31ae1cf318dc5b51eee0e1ba569b88cd74c1773b91fac106696001620400008060000304018483118403026204000083860304170293505050505b92915050565b604051806101400160405280600081526020016060815260200160608152602001600073ffffffffffffffffffffffffffffffffffffffff168152602001600073ffffffffffffffffffffffffffffffffffffffff168152602001600081526020016000815260200160006001811115613dea57613de9614130565b5b815260200160008152602001600081525090565b604051806101000160405280600073ffffffffffffffffffffffffffffffffffffffff168152602001600073ffffffffffffffffffffffffffffffffffffffff16815260200160001515815260200160008152602001600081526020016000815260200160008152602001600081525090565b604051806101c001604052806060815260200160608152602001600060ff16815260200160008152602001600073ffffffffffffffffffffffffffffffffffffffff168152602001600073ffffffffffffffffffffffffffffffffffffffff16815260200160006001811115613eea57613ee9614130565b5b8152602001600081526020016000815260200160008152602001600081526020016000815260200160008152602001600073ffffffffffffffffffffffffffffffffffffffff1681525090565b6000819050919050565b613f4a81613f37565b82525050565b6000602082019050613f656000830184613f41565b92915050565b6000604051905090565b600080fd5b600080fd5b600073ffffffffffffffffffffffffffffffffffffffff82169050919050565b6000613faa82613f7f565b9050919050565b613fba81613f9f565b8114613fc557600080fd5b50565b600081359050613fd781613fb1565b92915050565b60008115159050919050565b613ff281613fdd565b8114613ffd57600080fd5b50565b60008135905061400f81613fe9565b92915050565b6000806040838503121561402c5761402b613f75565b5b600061403a85828601613fc8565b925050602061404b85828601614000565b9150509250929050565b60006020828403121561406b5761406a613f75565b5b600061407984828501613fc8565b91505092915050565b61408b81613f37565b82525050565b600081519050919050565b600082825260208201905092915050565b60005b838110156140cb5780820151818401526020810190506140b0565b60008484015250505050565b6000601f19601f8301169050919050565b60006140f382614091565b6140fd818561409c565b935061410d8185602086016140ad565b614116816140d7565b840191505092915050565b61412a81613f9f565b82525050565b7f4e487b7100000000000000000000000000000000000000000000000000000000600052602160045260246000fd5b600281106141705761416f614130565b5b50565b60008190506141818261415f565b919050565b600061419182614173565b9050919050565b6141a181614186565b82525050565b6000610140830160008301516141c06000860182614082565b50602083015184820360208601526141d882826140e8565b915050604083015184820360408601526141f282826140e8565b91505060608301516142076060860182614121565b50608083015161421a6080860182614121565b5060a083015161422d60a0860182614082565b5060c083015161424060c0860182614082565b5060e083015161425360e0860182614198565b50610100830151614268610100860182614082565b5061012083015161427d610120860182614082565b508091505092915050565b600060208201905081810360008301526142a281846141a7565b905092915050565b6142b381613f37565b81146142be57600080fd5b50565b6000813590506142d0816142aa565b92915050565b6000602082840312156142ec576142eb613f75565b5b60006142fa848285016142c1565b91505092915050565b61430c81613f9f565b82525050565b60006020820190506143276000830184614303565b92915050565b6002811061433a57600080fd5b50565b60008135905061434c8161432d565b92915050565b600080fd5b600080fd5b7f4e487b7100000000000000000000000000000000000000000000000000000000600052604160045260246000fd5b614394826140d7565b810181811067ffffffffffffffff821117156143b3576143b261435c565b5b80604052505050565b60006143c6613f6b565b90506143d2828261438b565b919050565b600067ffffffffffffffff8211156143f2576143f161435c565b5b6143fb826140d7565b9050602081019050919050565b82818337600083830152505050565b600061442a614425846143d7565b6143bc565b90508281526020810184848401111561444657614445614357565b5b614451848285614408565b509392505050565b600082601f83011261446e5761446d614352565b5b813561447e848260208601614417565b91505092915050565b60008060008060008060c087890312156144a4576144a3613f75565b5b60006144b289828a01613fc8565b96505060206144c389828a0161433d565b95505060406144d489828a016142c1565b94505060606144e589828a016142c1565b93505060806144f689828a01613fc8565b92505060a087013567ffffffffffffffff81111561451757614516613f7a565b5b61452389828a01614459565b9150509295509295509295565b6000806040838503121561454757614546613f75565b5b600061455585828601613fc8565b9250506020614566858286016142c1565b9150509250929050565b60008060006060848603121561458957614588613f75565b5b600061459786828701613fc8565b93505060206145a886828701613fc8565b92505060406145b9868287016142c1565b9150509250925092565b7f4e487b7100000000000000000000000000000000000000000000000000000000600052602260045260246000fd5b6000600282049050600182168061460a57607f821691505b60208210810361461d5761461c6145c3565b5b50919050565b60008190508160005260206000209050919050565b60006020601f8301049050919050565b600082821b905092915050565b6000600883026146857fffffffffffffffffffffffffffffffffffffffffffffffffffffffffffffffff82614648565b61468f8683614648565b95508019841693508086168417925050509392505050565b6000819050919050565b60006146cc6146c76146c284613f37565b6146a7565b613f37565b9050919050565b6000819050919050565b6146e6836146b1565b6146fa6146f2826146d3565b848454614655565b825550505050565b600090565b61470f614702565b61471a8184846146dd565b505050565b5b8181101561473e57614733600082614707565b600181019050614720565b5050565b601f8211156147835761475481614623565b61475d84614638565b8101602085101561476c578190505b61478061477885614638565b83018261471f565b50505b505050565b600082821c905092915050565b60006147a660001984600802614788565b1980831691505092915050565b60006147bf8383614795565b9150826002028217905092915050565b6147d882614091565b67ffffffffffffffff8111156147f1576147f061435c565b5b6147fb82546145f2565b614806828285614742565b600060209050601f8311600181146148395760008415614827578287015190505b61483185826147b3565b865550614899565b601f19841661484786614623565b60005b8281101561486f5784890151825560018201915060208501945060208101905061484a565b8683101561488c5784890151614888601f891682614795565b8355505b6001600288020188555050505b505050505050565b7f4e487b7100000000000000000000000000000000000000000000000000000000600052601160045260246000fd5b60006148db82613f37565b91506148e683613f37565b92508282039050818111156148fe576148fd6148a1565b5b92915050565b7f4e487b7100000000000000000000000000000000000000000000000000000000600052603260045260246000fd5b600061493e82613f37565b91507fffffffffffffffffffffffffffffffffffffffffffffffffffffffffffffffff82036149705761496f6148a1565b5b600182019050919050565b600061498682613f37565b915060008203614999576149986148a1565b5b600182039050919050565b60006149af82613f37565b91506149ba83613f37565b92508282019050808211156149d2576149d16148a1565b5b92915050565b60006040820190506149ed6000830185614303565b6149fa6020830184614303565b9392505050565b600081519050614a10816142aa565b92915050565b600060208284031215614a2c57614a2b613f75565b5b6000614a3a84828501614a01565b91505092915050565b600060ff82169050919050565b614a5981614a43565b8114614a6457600080fd5b50565b600081519050614a7681614a50565b92915050565b600060208284031215614a9257614a91613f75565b5b6000614aa084828501614a67565b91505092915050565b6000614abc614ab7846143d7565b6143bc565b905082815260208101848484011115614ad857614ad7614357565b5b614ae38482856140ad565b509392505050565b600082601f830112614b0057614aff614352565b5b8151614b10848260208601614aa9565b91505092915050565b600060208284031215614b2f57614b2e613f75565b5b600082015167ffffffffffffffff811115614b4d57614b4c613f7a565b5b614b5984828501614aeb565b91505092915050565b6000614b6d82613f37565b9150614b7883613f37565b9250828202614b8681613f37565b91508282048414831517614b9d57614b9c6148a1565b5b5092915050565b7f4e487b7100000000000000000000000000000000000000000000000000000000600052601260045260246000fd5b6000614bde82613f37565b9150614be983613f37565b925082614bf957614bf8614ba4565b5b828204905092915050565b7f4e487b7100000000000000000000000000000000000000000000000000000000600052603160045260246000fd5b6000606082019050614c486000830186614303565b614c556020830185614303565b614c626040830184613f41565b949350505050565b600081519050614c7981613fe9565b92915050565b600060208284031215614c9557614c94613f75565b5b6000614ca384828501614c6a565b91505092915050565b6000614cc7614cc2614cbd84613f7f565b6146a7565b613f7f565b9050919050565b6000614cd982614cac565b9050919050565b6000614ceb82614cce565b9050919050565b614cfb81614ce0565b82525050565b6000604082019050614d166000830185614cf2565b614d236020830184613f41565b9392505050565b6000604082019050614d3f6000830185614303565b614d4c6020830184613f41565b9392505050565b600081905092915050565b50565b6000614d6e600083614d53565b9150614d7982614d5e565b600082019050919050565b6000614d8f82614d61565b9150819050919050565b6000614da482614a43565b915060008203614db757614db66148a1565b5b600182039050919050565b60008160011c9050919050565b6000808291508390505b6001851115614e1957808604811115614df557614df46148a1565b5b6001851615614e045780820291505b8081029050614e1285614dc2565b9450614dd9565b94509492505050565b600082614e325760019050614eee565b81614e405760009050614eee565b8160018114614e565760028114614e6057614e8f565b6001915050614eee565b60ff841115614e7257614e716148a1565b5b8360020a915084821115614e8957614e886148a1565b5b50614eee565b5060208310610133831016604e8410600b8410161715614ec45782820a905083811115614ebf57614ebe6148a1565b5b614eee565b614ed18484846001614dcf565b92509050818404811115614ee857614ee76148a1565b5b81810290505b9392505050565b6000614f0082613f37565b9150614f0b83614a43565b9250614f387fffffffffffffffffffffffffffffffffffffffffffffffffffffffffffffffff8484614e22565b905092915050565b6000614f4b82614a43565b9150614f5683614a43565b9250828203905060ff811115614f6f57614f6e6148a1565b5b92915050565b6000606082019050614f8a6000830186613f41565b614f976020830185613f41565b614fa46040830184613f41565b949350505050565b6000604082019050614fc16000830185613f41565b614fce6020830184613f41565b939250505056fea26469706673582212208a0710731900f2fcd04931001d067db209d1c53fe202b5481201291d21026d2d64736f6c63430008150033","opcodes":"PUSH1 0x80 PUSH1 0x40 MSTORE PUSH2 0x3E8 PUSH1 0x1 SSTORE CALLVALUE DUP1 ISZERO PUSH2 0x16 JUMPI PUSH1 0x0 DUP1 REVERT JUMPDEST POP CALLER PUSH1 0x0 DUP1 PUSH2 0x100 EXP DUP2 SLOAD DUP2 PUSH20 0xFFFFFFFFFFFFFFFFFFFFFFFFFFFFFFFFFFFFFFFF MUL NOT AND SWAP1 DUP4 PUSH20 0xFFFFFFFFFFFFFFFFFFFFFFFFFFFFFFFFFFFFFFFF AND MUL OR SWAP1 SSTORE POP PUSH2 0x500B DUP1 PUSH2 0x66 PUSH1 0x0 CODECOPY PUSH1 0x0 RETURN INVALID PUSH1 0x80 PUSH1 0x40 MSTORE PUSH1 0x4 CALLDATASIZE LT PUSH2 0xE8 JUMPI PUSH1 0x0 CALLDATALOAD PUSH1 0xE0 SHR DUP1 PUSH4 0x9351769F GT PUSH2 0x8A JUMPI DUP1 PUSH4 0xDB34A679 GT PUSH2 0x59 JUMPI DUP1 PUSH4 0xDB34A679 EQ PUSH2 0x2C4 JUMPI DUP1 PUSH4 0xF2FDE38B EQ PUSH2 0x2ED JUMPI DUP1 PUSH4 0xF340FA01 EQ PUSH2 0x316 JUMPI DUP1 PUSH4 0xFB0F97A8 EQ PUSH2 0x332 JUMPI PUSH2 0xE8 JUMP JUMPDEST DUP1 PUSH4 0x9351769F EQ PUSH2 0x23F JUMPI DUP1 PUSH4 0xA262B73F EQ PUSH2 0x256 JUMPI DUP1 PUSH4 0xC201E47C EQ PUSH2 0x27F JUMPI DUP1 PUSH4 0xD2980065 EQ PUSH2 0x2A8 JUMPI PUSH2 0xE8 JUMP JUMPDEST DUP1 PUSH4 0x6DAF6945 GT PUSH2 0xC6 JUMPI DUP1 PUSH4 0x6DAF6945 EQ PUSH2 0x192 JUMPI DUP1 PUSH4 0x8334D195 EQ PUSH2 0x1AE JUMPI DUP1 PUSH4 0x8DA5CB5B EQ PUSH2 0x1EB JUMPI DUP1 PUSH4 0x92E6B829 EQ PUSH2 0x216 JUMPI PUSH2 0xE8 JUMP JUMPDEST DUP1 PUSH4 0x12065FE0 EQ PUSH2 0xED JUMPI DUP1 PUSH4 0x3B174F0F EQ PUSH2 0x118 JUMPI DUP1 PUSH4 0x673CF82A EQ PUSH2 0x155 JUMPI JUMPDEST PUSH1 0x0 DUP1 REVERT JUMPDEST CALLVALUE DUP1 ISZERO PUSH2 0xF9 JUMPI PUSH1 0x0 DUP1 REVERT JUMPDEST POP PUSH2 0x102 PUSH2 0x35B JUMP JUMPDEST PUSH1 0x40 MLOAD PUSH2 0x10F SWAP2 SWAP1 PUSH2 0x3F50 JUMP JUMPDEST PUSH1 0x40 MLOAD DUP1 SWAP2 SUB SWAP1 RETURN JUMPDEST CALLVALUE DUP1 ISZERO PUSH2 0x124 JUMPI PUSH1 0x0 DUP1 REVERT JUMPDEST POP PUSH2 0x13F PUSH1 0x4 DUP1 CALLDATASIZE SUB DUP2 ADD SWAP1 PUSH2 0x13A SWAP2 SWAP1 PUSH2 0x4015 JUMP JUMPDEST PUSH2 0x363 JUMP JUMPDEST PUSH1 0x40 MLOAD PUSH2 0x14C SWAP2 SWAP1 PUSH2 0x3F50 JUMP JUMPDEST PUSH1 0x40 MLOAD DUP1 SWAP2 SUB SWAP1 RETURN JUMPDEST CALLVALUE DUP1 ISZERO PUSH2 0x161 JUMPI PUSH1 0x0 DUP1 REVERT JUMPDEST POP PUSH2 0x17C PUSH1 0x4 DUP1 CALLDATASIZE SUB DUP2 ADD SWAP1 PUSH2 0x177 SWAP2 SWAP1 PUSH2 0x4055 JUMP JUMPDEST PUSH2 0x395 JUMP JUMPDEST PUSH1 0x40 MLOAD PUSH2 0x189 SWAP2 SWAP1 PUSH2 0x4288 JUMP JUMPDEST PUSH1 0x40 MLOAD DUP1 SWAP2 SUB SWAP1 RETURN JUMPDEST PUSH2 0x1AC PUSH1 0x4 DUP1 CALLDATASIZE SUB DUP2 ADD SWAP1 PUSH2 0x1A7 SWAP2 SWAP1 PUSH2 0x4055 JUMP JUMPDEST PUSH2 0x42C JUMP JUMPDEST STOP JUMPDEST CALLVALUE DUP1 ISZERO PUSH2 0x1BA JUMPI PUSH1 0x0 DUP1 REVERT JUMPDEST POP PUSH2 0x1D5 PUSH1 0x4 DUP1 CALLDATASIZE SUB DUP2 ADD SWAP1 PUSH2 0x1D0 SWAP2 SWAP1 PUSH2 0x42D6 JUMP JUMPDEST PUSH2 0x49E JUMP JUMPDEST PUSH1 0x40 MLOAD PUSH2 0x1E2 SWAP2 SWAP1 PUSH2 0x4288 JUMP JUMPDEST PUSH1 0x40 MLOAD DUP1 SWAP2 SUB SWAP1 RETURN JUMPDEST CALLVALUE DUP1 ISZERO PUSH2 0x1F7 JUMPI PUSH1 0x0 DUP1 REVERT JUMPDEST POP PUSH2 0x200 PUSH2 0x4F4 JUMP JUMPDEST PUSH1 0x40 MLOAD PUSH2 0x20D SWAP2 SWAP1 PUSH2 0x4312 JUMP JUMPDEST PUSH1 0x40 MLOAD DUP1 SWAP2 SUB SWAP1 RETURN JUMPDEST CALLVALUE DUP1 ISZERO PUSH2 0x222 JUMPI PUSH1 0x0 DUP1 REVERT JUMPDEST POP PUSH2 0x23D PUSH1 0x4 DUP1 CALLDATASIZE SUB DUP2 ADD SWAP1 PUSH2 0x238 SWAP2 SWAP1 PUSH2 0x4487 JUMP JUMPDEST PUSH2 0x518 JUMP JUMPDEST STOP JUMPDEST CALLVALUE DUP1 ISZERO PUSH2 0x24B JUMPI PUSH1 0x0 DUP1 REVERT JUMPDEST POP PUSH2 0x254 PUSH2 0xA2D JUMP JUMPDEST STOP JUMPDEST CALLVALUE DUP1 ISZERO PUSH2 0x262 JUMPI PUSH1 0x0 DUP1 REVERT JUMPDEST POP PUSH2 0x27D PUSH1 0x4 DUP1 CALLDATASIZE SUB DUP2 ADD SWAP1 PUSH2 0x278 SWAP2 SWAP1 PUSH2 0x4530 JUMP JUMPDEST PUSH2 0xE3D JUMP JUMPDEST STOP JUMPDEST CALLVALUE DUP1 ISZERO PUSH2 0x28B JUMPI PUSH1 0x0 DUP1 REVERT JUMPDEST POP PUSH2 0x2A6 PUSH1 0x4 DUP1 CALLDATASIZE SUB DUP2 ADD SWAP1 PUSH2 0x2A1 SWAP2 SWAP1 PUSH2 0x4015 JUMP JUMPDEST PUSH2 0xEBB JUMP JUMPDEST STOP JUMPDEST PUSH2 0x2C2 PUSH1 0x4 DUP1 CALLDATASIZE SUB DUP2 ADD SWAP1 PUSH2 0x2BD SWAP2 SWAP1 PUSH2 0x4055 JUMP JUMPDEST PUSH2 0x1152 JUMP JUMPDEST STOP JUMPDEST CALLVALUE DUP1 ISZERO PUSH2 0x2D0 JUMPI PUSH1 0x0 DUP1 REVERT JUMPDEST POP PUSH2 0x2EB PUSH1 0x4 DUP1 CALLDATASIZE SUB DUP2 ADD SWAP1 PUSH2 0x2E6 SWAP2 SWAP1 PUSH2 0x4530 JUMP JUMPDEST PUSH2 0x118F JUMP JUMPDEST STOP JUMPDEST CALLVALUE DUP1 ISZERO PUSH2 0x2F9 JUMPI PUSH1 0x0 DUP1 REVERT JUMPDEST POP PUSH2 0x314 PUSH1 0x4 DUP1 CALLDATASIZE SUB DUP2 ADD SWAP1 PUSH2 0x30F SWAP2 SWAP1 PUSH2 0x4055 JUMP JUMPDEST PUSH2 0x1250 JUMP JUMPDEST STOP JUMPDEST PUSH2 0x330 PUSH1 0x4 DUP1 CALLDATASIZE SUB DUP2 ADD SWAP1 PUSH2 0x32B SWAP2 SWAP1 PUSH2 0x4055 JUMP JUMPDEST PUSH2 0x131B JUMP JUMPDEST STOP JUMPDEST CALLVALUE DUP1 ISZERO PUSH2 0x33E JUMPI PUSH1 0x0 DUP1 REVERT JUMPDEST POP PUSH2 0x359 PUSH1 0x4 DUP1 CALLDATASIZE SUB DUP2 ADD SWAP1 PUSH2 0x354 SWAP2 SWAP1 PUSH2 0x4570 JUMP JUMPDEST PUSH2 0x134C JUMP JUMPDEST STOP JUMPDEST PUSH1 0x0 SELFBALANCE SWAP1 POP SWAP1 JUMP JUMPDEST PUSH1 0x0 DUP1 PUSH2 0x36F DUP5 PUSH2 0x13BF JUMP JUMPDEST SWAP1 POP DUP3 ISZERO PUSH2 0x385 JUMPI DUP1 PUSH2 0x140 ADD MLOAD SWAP2 POP POP PUSH2 0x38F JUMP JUMPDEST DUP1 PUSH2 0x160 ADD MLOAD SWAP2 POP POP JUMPDEST SWAP3 SWAP2 POP POP JUMP JUMPDEST PUSH2 0x39D PUSH2 0x3D6D JUMP JUMPDEST PUSH1 0x0 PUSH1 0x4 PUSH1 0x0 DUP5 PUSH20 0xFFFFFFFFFFFFFFFFFFFFFFFFFFFFFFFFFFFFFFFF AND PUSH20 0xFFFFFFFFFFFFFFFFFFFFFFFFFFFFFFFFFFFFFFFF AND DUP2 MSTORE PUSH1 0x20 ADD SWAP1 DUP2 MSTORE PUSH1 0x20 ADD PUSH1 0x0 KECCAK256 SLOAD SWAP1 POP PUSH1 0x0 DUP2 SUB PUSH2 0x41B JUMPI PUSH1 0x40 MLOAD PUSH32 0xC5F0A1EE00000000000000000000000000000000000000000000000000000000 DUP2 MSTORE PUSH1 0x4 ADD PUSH1 0x40 MLOAD DUP1 SWAP2 SUB SWAP1 REVERT JUMPDEST PUSH2 0x424 DUP2 PUSH2 0x141C JUMP JUMPDEST SWAP2 POP POP SWAP2 SWAP1 POP JUMP JUMPDEST PUSH1 0x0 CALLVALUE SWAP1 POP PUSH2 0x439 PUSH2 0x3DFE JUMP JUMPDEST PUSH1 0x0 DUP1 PUSH2 0x446 DUP6 DUP6 PUSH2 0x1814 JUMP JUMPDEST DUP1 SWAP5 POP DUP2 SWAP6 POP DUP3 SWAP4 POP POP POP POP DUP1 PUSH2 0x489 JUMPI PUSH1 0x40 MLOAD PUSH32 0x2050D62B00000000000000000000000000000000000000000000000000000000 DUP2 MSTORE PUSH1 0x4 ADD PUSH1 0x40 MLOAD DUP1 SWAP2 SUB SWAP1 REVERT JUMPDEST PUSH2 0x497 DUP4 PUSH1 0x0 DUP5 DUP8 DUP10 PUSH2 0x1A37 JUMP JUMPDEST POP POP POP POP POP JUMP JUMPDEST PUSH2 0x4A6 PUSH2 0x3D6D JUMP JUMPDEST PUSH1 0x2 DUP1 SLOAD SWAP1 POP DUP3 LT PUSH2 0x4E4 JUMPI PUSH1 0x40 MLOAD PUSH32 0xC5F0A1EE00000000000000000000000000000000000000000000000000000000 DUP2 MSTORE PUSH1 0x4 ADD PUSH1 0x40 MLOAD DUP1 SWAP2 SUB SWAP1 REVERT JUMPDEST PUSH2 0x4ED DUP3 PUSH2 0x141C JUMP JUMPDEST SWAP1 POP SWAP2 SWAP1 POP JUMP JUMPDEST PUSH1 0x0 DUP1 SLOAD SWAP1 PUSH2 0x100 EXP SWAP1 DIV PUSH20 0xFFFFFFFFFFFFFFFFFFFFFFFFFFFFFFFFFFFFFFFF AND DUP2 JUMP JUMPDEST PUSH1 0x0 PUSH1 0x2 DUP1 SLOAD SWAP1 POP SUB PUSH2 0x5AB JUMPI PUSH1 0x0 DUP1 SLOAD SWAP1 PUSH2 0x100 EXP SWAP1 DIV PUSH20 0xFFFFFFFFFFFFFFFFFFFFFFFFFFFFFFFFFFFFFFFF AND PUSH20 0xFFFFFFFFFFFFFFFFFFFFFFFFFFFFFFFFFFFFFFFF AND CALLER PUSH20 0xFFFFFFFFFFFFFFFFFFFFFFFFFFFFFFFFFFFFFFFF AND EQ PUSH2 0x5AA JUMPI PUSH1 0x40 MLOAD PUSH32 0xAC966A5200000000000000000000000000000000000000000000000000000000 DUP2 MSTORE PUSH1 0x4 ADD PUSH1 0x40 MLOAD DUP1 SWAP2 SUB SWAP1 REVERT JUMPDEST JUMPDEST PUSH1 0x0 DUP7 SWAP1 POP PUSH1 0x0 PUSH1 0x4 PUSH1 0x0 DUP4 PUSH20 0xFFFFFFFFFFFFFFFFFFFFFFFFFFFFFFFFFFFFFFFF AND PUSH20 0xFFFFFFFFFFFFFFFFFFFFFFFFFFFFFFFFFFFFFFFF AND DUP2 MSTORE PUSH1 0x20 ADD SWAP1 DUP2 MSTORE PUSH1 0x20 ADD PUSH1 0x0 KECCAK256 SLOAD SWAP1 POP PUSH1 0x0 DUP2 EQ ISZERO DUP1 ISZERO PUSH2 0x60A JUMPI POP PUSH1 0x0 PUSH1 0x2 DUP1 SLOAD SWAP1 POP GT JUMPDEST ISZERO PUSH2 0x64C JUMPI DUP2 PUSH1 0x40 MLOAD PUSH32 0x15EF3A5700000000000000000000000000000000000000000000000000000000 DUP2 MSTORE PUSH1 0x4 ADD PUSH2 0x643 SWAP2 SWAP1 PUSH2 0x4312 JUMP JUMPDEST PUSH1 0x40 MLOAD DUP1 SWAP2 SUB SWAP1 REVERT JUMPDEST PUSH3 0xF4240 PUSH1 0x2 DUP1 SLOAD SWAP1 POP LT PUSH2 0x68D JUMPI PUSH1 0x40 MLOAD PUSH32 0x53BB24F900000000000000000000000000000000000000000000000000000000 DUP2 MSTORE PUSH1 0x4 ADD PUSH1 0x40 MLOAD DUP1 SWAP2 SUB SWAP1 REVERT JUMPDEST PUSH1 0x0 PUSH1 0x60 DUP1 PUSH1 0x0 DUP1 PUSH2 0x69E DUP8 PUSH2 0x1DC8 JUMP JUMPDEST DUP1 SWAP6 POP DUP2 SWAP7 POP DUP3 SWAP8 POP DUP4 SWAP9 POP DUP5 SWAP10 POP POP POP POP POP POP PUSH1 0x0 PUSH2 0x6BD DUP10 PUSH2 0x2059 JUMP JUMPDEST SWAP1 POP PUSH1 0x0 PUSH20 0xFFFFFFFFFFFFFFFFFFFFFFFFFFFFFFFFFFFFFFFF AND DUP11 PUSH20 0xFFFFFFFFFFFFFFFFFFFFFFFFFFFFFFFFFFFFFFFF AND EQ ISZERO DUP1 ISZERO PUSH2 0x6FC JUMPI POP PUSH1 0x0 DUP2 GT JUMPDEST ISZERO PUSH2 0x733 JUMPI PUSH1 0x40 MLOAD PUSH32 0x4F7AF06A00000000000000000000000000000000000000000000000000000000 DUP2 MSTORE PUSH1 0x4 ADD PUSH1 0x40 MLOAD DUP1 SWAP2 SUB SWAP1 REVERT JUMPDEST PUSH2 0x73B PUSH2 0x20AC JUMP JUMPDEST PUSH1 0x0 PUSH1 0x40 MLOAD DUP1 PUSH2 0x1C0 ADD PUSH1 0x40 MSTORE DUP1 DUP8 DUP2 MSTORE PUSH1 0x20 ADD DUP7 DUP2 MSTORE PUSH1 0x20 ADD DUP6 PUSH1 0xFF AND DUP2 MSTORE PUSH1 0x20 ADD DUP5 DUP2 MSTORE PUSH1 0x20 ADD DUP11 PUSH20 0xFFFFFFFFFFFFFFFFFFFFFFFFFFFFFFFFFFFFFFFF AND DUP2 MSTORE PUSH1 0x20 ADD DUP13 PUSH20 0xFFFFFFFFFFFFFFFFFFFFFFFFFFFFFFFFFFFFFFFF AND DUP2 MSTORE PUSH1 0x20 ADD DUP16 PUSH1 0x1 DUP2 GT ISZERO PUSH2 0x7AF JUMPI PUSH2 0x7AE PUSH2 0x4130 JUMP JUMPDEST JUMPDEST DUP2 MSTORE PUSH1 0x20 ADD DUP15 DUP2 MSTORE PUSH1 0x20 ADD DUP14 DUP2 MSTORE PUSH1 0x20 ADD DUP4 DUP2 MSTORE PUSH1 0x20 ADD PUSH1 0x0 DUP2 MSTORE PUSH1 0x20 ADD PUSH1 0x0 DUP2 MSTORE PUSH1 0x20 ADD PUSH1 0x0 DUP2 MSTORE PUSH1 0x20 ADD DUP9 PUSH20 0xFFFFFFFFFFFFFFFFFFFFFFFFFFFFFFFFFFFFFFFF AND DUP2 MSTORE POP SWAP1 POP PUSH1 0x2 DUP2 SWAP1 DUP1 PUSH1 0x1 DUP2 SLOAD ADD DUP1 DUP3 SSTORE DUP1 SWAP2 POP POP PUSH1 0x1 SWAP1 SUB SWAP1 PUSH1 0x0 MSTORE PUSH1 0x20 PUSH1 0x0 KECCAK256 SWAP1 PUSH1 0xD MUL ADD PUSH1 0x0 SWAP1 SWAP2 SWAP1 SWAP2 SWAP1 SWAP2 POP PUSH1 0x0 DUP3 ADD MLOAD DUP2 PUSH1 0x0 ADD SWAP1 DUP2 PUSH2 0x838 SWAP2 SWAP1 PUSH2 0x47CF JUMP JUMPDEST POP PUSH1 0x20 DUP3 ADD MLOAD DUP2 PUSH1 0x1 ADD SWAP1 DUP2 PUSH2 0x84E SWAP2 SWAP1 PUSH2 0x47CF JUMP JUMPDEST POP PUSH1 0x40 DUP3 ADD MLOAD DUP2 PUSH1 0x2 ADD PUSH1 0x0 PUSH2 0x100 EXP DUP2 SLOAD DUP2 PUSH1 0xFF MUL NOT AND SWAP1 DUP4 PUSH1 0xFF AND MUL OR SWAP1 SSTORE POP PUSH1 0x60 DUP3 ADD MLOAD DUP2 PUSH1 0x3 ADD SSTORE PUSH1 0x80 DUP3 ADD MLOAD DUP2 PUSH1 0x4 ADD PUSH1 0x0 PUSH2 0x100 EXP DUP2 SLOAD DUP2 PUSH20 0xFFFFFFFFFFFFFFFFFFFFFFFFFFFFFFFFFFFFFFFF MUL NOT AND SWAP1 DUP4 PUSH20 0xFFFFFFFFFFFFFFFFFFFFFFFFFFFFFFFFFFFFFFFF AND MUL OR SWAP1 SSTORE POP PUSH1 0xA0 DUP3 ADD MLOAD DUP2 PUSH1 0x5 ADD PUSH1 0x0 PUSH2 0x100 EXP DUP2 SLOAD DUP2 PUSH20 0xFFFFFFFFFFFFFFFFFFFFFFFFFFFFFFFFFFFFFFFF MUL NOT AND SWAP1 DUP4 PUSH20 0xFFFFFFFFFFFFFFFFFFFFFFFFFFFFFFFFFFFFFFFF AND MUL OR SWAP1 SSTORE POP PUSH1 0xC0 DUP3 ADD MLOAD DUP2 PUSH1 0x5 ADD PUSH1 0x14 PUSH2 0x100 EXP DUP2 SLOAD DUP2 PUSH1 0xFF MUL NOT AND SWAP1 DUP4 PUSH1 0x1 DUP2 GT ISZERO PUSH2 0x933 JUMPI PUSH2 0x932 PUSH2 0x4130 JUMP JUMPDEST JUMPDEST MUL OR SWAP1 SSTORE POP PUSH1 0xE0 DUP3 ADD MLOAD DUP2 PUSH1 0x6 ADD SSTORE PUSH2 0x100 DUP3 ADD MLOAD DUP2 PUSH1 0x7 ADD SSTORE PUSH2 0x120 DUP3 ADD MLOAD DUP2 PUSH1 0x8 ADD SSTORE PUSH2 0x140 DUP3 ADD MLOAD DUP2 PUSH1 0x9 ADD SSTORE PUSH2 0x160 DUP3 ADD MLOAD DUP2 PUSH1 0xA ADD SSTORE PUSH2 0x180 DUP3 ADD MLOAD DUP2 PUSH1 0xB ADD SSTORE PUSH2 0x1A0 DUP3 ADD MLOAD DUP2 PUSH1 0xC ADD PUSH1 0x0 PUSH2 0x100 EXP DUP2 SLOAD DUP2 PUSH20 0xFFFFFFFFFFFFFFFFFFFFFFFFFFFFFFFFFFFFFFFF MUL NOT AND SWAP1 DUP4 PUSH20 0xFFFFFFFFFFFFFFFFFFFFFFFFFFFFFFFFFFFFFFFF AND MUL OR SWAP1 SSTORE POP POP POP PUSH1 0x1 PUSH1 0x2 DUP1 SLOAD SWAP1 POP PUSH2 0x9D5 SWAP2 SWAP1 PUSH2 0x48D0 JUMP JUMPDEST PUSH1 0x4 PUSH1 0x0 DUP4 PUSH1 0x80 ADD MLOAD PUSH20 0xFFFFFFFFFFFFFFFFFFFFFFFFFFFFFFFFFFFFFFFF AND PUSH20 0xFFFFFFFFFFFFFFFFFFFFFFFFFFFFFFFFFFFFFFFF AND DUP2 MSTORE PUSH1 0x20 ADD SWAP1 DUP2 MSTORE PUSH1 0x20 ADD PUSH1 0x0 KECCAK256 DUP2 SWAP1 SSTORE POP POP POP POP POP POP POP POP POP POP POP POP POP POP POP POP JUMP JUMPDEST PUSH1 0x0 PUSH1 0x6 PUSH1 0x0 CALLER PUSH20 0xFFFFFFFFFFFFFFFFFFFFFFFFFFFFFFFFFFFFFFFF AND PUSH20 0xFFFFFFFFFFFFFFFFFFFFFFFFFFFFFFFFFFFFFFFF AND DUP2 MSTORE PUSH1 0x20 ADD SWAP1 DUP2 MSTORE PUSH1 0x20 ADD PUSH1 0x0 KECCAK256 SWAP1 POP PUSH1 0x0 DUP1 DUP3 DUP1 SLOAD SWAP1 POP GT SWAP1 POP PUSH1 0x0 DUP1 DUP3 PUSH2 0xA8A JUMPI PUSH1 0x64 PUSH2 0xA8D JUMP JUMPDEST PUSH1 0x32 JUMPDEST SWAP1 POP PUSH1 0x0 DUP1 TIMESTAMP SWAP1 POP PUSH2 0xA9D PUSH2 0x3DFE JUMP JUMPDEST PUSH1 0x0 PUSH1 0x3 DUP1 SLOAD SWAP1 POP GT PUSH2 0xAB6 JUMPI POP POP POP POP POP POP POP PUSH2 0xE3B JUMP JUMPDEST DUP6 ISZERO PUSH2 0xC92 JUMPI PUSH1 0x0 PUSH1 0x1 DUP9 DUP1 SLOAD SWAP1 POP PUSH2 0xACF SWAP2 SWAP1 PUSH2 0x48D0 JUMP JUMPDEST SWAP1 POP JUMPDEST PUSH1 0x0 DUP2 LT ISZERO DUP1 ISZERO PUSH2 0xAE3 JUMPI POP DUP5 DUP7 GT ISZERO JUMPDEST ISZERO PUSH2 0xC85 JUMPI DUP8 DUP2 DUP2 SLOAD DUP2 LT PUSH2 0xAFB JUMPI PUSH2 0xAFA PUSH2 0x4904 JUMP JUMPDEST JUMPDEST SWAP1 PUSH1 0x0 MSTORE PUSH1 0x20 PUSH1 0x0 KECCAK256 ADD SLOAD SWAP4 POP PUSH1 0x3 DUP5 DUP2 SLOAD DUP2 LT PUSH2 0xB1C JUMPI PUSH2 0xB1B PUSH2 0x4904 JUMP JUMPDEST JUMPDEST SWAP1 PUSH1 0x0 MSTORE PUSH1 0x20 PUSH1 0x0 KECCAK256 SWAP1 PUSH1 0x7 MUL ADD PUSH1 0x40 MLOAD DUP1 PUSH2 0x100 ADD PUSH1 0x40 MSTORE SWAP1 DUP2 PUSH1 0x0 DUP3 ADD PUSH1 0x0 SWAP1 SLOAD SWAP1 PUSH2 0x100 EXP SWAP1 DIV PUSH20 0xFFFFFFFFFFFFFFFFFFFFFFFFFFFFFFFFFFFFFFFF AND PUSH20 0xFFFFFFFFFFFFFFFFFFFFFFFFFFFFFFFFFFFFFFFF AND PUSH20 0xFFFFFFFFFFFFFFFFFFFFFFFFFFFFFFFFFFFFFFFF AND DUP2 MSTORE PUSH1 0x20 ADD PUSH1 0x1 DUP3 ADD PUSH1 0x0 SWAP1 SLOAD SWAP1 PUSH2 0x100 EXP SWAP1 DIV PUSH20 0xFFFFFFFFFFFFFFFFFFFFFFFFFFFFFFFFFFFFFFFF AND PUSH20 0xFFFFFFFFFFFFFFFFFFFFFFFFFFFFFFFFFFFFFFFF AND PUSH20 0xFFFFFFFFFFFFFFFFFFFFFFFFFFFFFFFFFFFFFFFF AND DUP2 MSTORE PUSH1 0x20 ADD PUSH1 0x1 DUP3 ADD PUSH1 0x14 SWAP1 SLOAD SWAP1 PUSH2 0x100 EXP SWAP1 DIV PUSH1 0xFF AND ISZERO ISZERO ISZERO ISZERO DUP2 MSTORE PUSH1 0x20 ADD PUSH1 0x2 DUP3 ADD SLOAD DUP2 MSTORE PUSH1 0x20 ADD PUSH1 0x3 DUP3 ADD SLOAD DUP2 MSTORE PUSH1 0x20 ADD PUSH1 0x4 DUP3 ADD SLOAD DUP2 MSTORE PUSH1 0x20 ADD PUSH1 0x5 DUP3 ADD SLOAD DUP2 MSTORE PUSH1 0x20 ADD PUSH1 0x6 DUP3 ADD SLOAD DUP2 MSTORE POP POP SWAP2 POP PUSH1 0x28 DUP3 PUSH1 0x60 ADD MLOAD DUP5 PUSH2 0xC43 SWAP2 SWAP1 PUSH2 0x48D0 JUMP JUMPDEST GT ISZERO PUSH2 0xC72 JUMPI PUSH2 0xC53 DUP3 DUP6 PUSH2 0x2451 JUMP JUMPDEST ISZERO PUSH2 0xC71 JUMPI PUSH2 0xC62 DUP9 DUP3 PUSH2 0x250C JUMP JUMPDEST DUP6 DUP1 PUSH2 0xC6D SWAP1 PUSH2 0x4933 JUMP JUMPDEST SWAP7 POP POP JUMPDEST JUMPDEST DUP1 DUP1 PUSH2 0xC7D SWAP1 PUSH2 0x497B JUMP JUMPDEST SWAP2 POP POP PUSH2 0xAD2 JUMP JUMPDEST POP POP POP POP POP POP POP POP PUSH2 0xE3B JUMP JUMPDEST PUSH1 0x0 PUSH1 0x1 PUSH1 0x3 DUP1 SLOAD SWAP1 POP PUSH2 0xCA6 SWAP2 SWAP1 PUSH2 0x48D0 JUMP JUMPDEST SWAP1 POP JUMPDEST PUSH1 0x0 DUP2 LT ISZERO DUP1 ISZERO PUSH2 0xCBA JUMPI POP DUP5 DUP7 GT ISZERO JUMPDEST ISZERO PUSH2 0xE32 JUMPI PUSH1 0x3 DUP2 DUP2 SLOAD DUP2 LT PUSH2 0xCD3 JUMPI PUSH2 0xCD2 PUSH2 0x4904 JUMP JUMPDEST JUMPDEST SWAP1 PUSH1 0x0 MSTORE PUSH1 0x20 PUSH1 0x0 KECCAK256 SWAP1 PUSH1 0x7 MUL ADD PUSH1 0x40 MLOAD DUP1 PUSH2 0x100 ADD PUSH1 0x40 MSTORE SWAP1 DUP2 PUSH1 0x0 DUP3 ADD PUSH1 0x0 SWAP1 SLOAD SWAP1 PUSH2 0x100 EXP SWAP1 DIV PUSH20 0xFFFFFFFFFFFFFFFFFFFFFFFFFFFFFFFFFFFFFFFF AND PUSH20 0xFFFFFFFFFFFFFFFFFFFFFFFFFFFFFFFFFFFFFFFF AND PUSH20 0xFFFFFFFFFFFFFFFFFFFFFFFFFFFFFFFFFFFFFFFF AND DUP2 MSTORE PUSH1 0x20 ADD PUSH1 0x1 DUP3 ADD PUSH1 0x0 SWAP1 SLOAD SWAP1 PUSH2 0x100 EXP SWAP1 DIV PUSH20 0xFFFFFFFFFFFFFFFFFFFFFFFFFFFFFFFFFFFFFFFF AND PUSH20 0xFFFFFFFFFFFFFFFFFFFFFFFFFFFFFFFFFFFFFFFF AND PUSH20 0xFFFFFFFFFFFFFFFFFFFFFFFFFFFFFFFFFFFFFFFF AND DUP2 MSTORE PUSH1 0x20 ADD PUSH1 0x1 DUP3 ADD PUSH1 0x14 SWAP1 SLOAD SWAP1 PUSH2 0x100 EXP SWAP1 DIV PUSH1 0xFF AND ISZERO ISZERO ISZERO ISZERO DUP2 MSTORE PUSH1 0x20 ADD PUSH1 0x2 DUP3 ADD SLOAD DUP2 MSTORE PUSH1 0x20 ADD PUSH1 0x3 DUP3 ADD SLOAD DUP2 MSTORE PUSH1 0x20 ADD PUSH1 0x4 DUP3 ADD SLOAD DUP2 MSTORE PUSH1 0x20 ADD PUSH1 0x5 DUP3 ADD SLOAD DUP2 MSTORE PUSH1 0x20 ADD PUSH1 0x6 DUP3 ADD SLOAD DUP2 MSTORE POP POP SWAP2 POP PUSH1 0x28 DUP3 PUSH1 0x60 ADD MLOAD DUP5 PUSH2 0xDFA SWAP2 SWAP1 PUSH2 0x48D0 JUMP JUMPDEST GT ISZERO PUSH2 0xE1F JUMPI PUSH2 0xE0A DUP3 DUP6 PUSH2 0x2451 JUMP JUMPDEST ISZERO PUSH2 0xE1E JUMPI DUP6 DUP1 PUSH2 0xE1A SWAP1 PUSH2 0x4933 JUMP JUMPDEST SWAP7 POP POP JUMPDEST JUMPDEST DUP1 DUP1 PUSH2 0xE2A SWAP1 PUSH2 0x497B JUMP JUMPDEST SWAP2 POP POP PUSH2 0xCA9 JUMP JUMPDEST POP POP POP POP POP POP POP POP JUMPDEST JUMP JUMPDEST PUSH1 0x0 PUSH2 0xE48 DUP4 PUSH2 0x13BF JUMP JUMPDEST SWAP1 POP PUSH2 0xE5A DUP2 PUSH2 0x1A0 ADD MLOAD CALLER DUP5 PUSH2 0x2594 JUMP JUMPDEST PUSH2 0xE90 JUMPI PUSH1 0x40 MLOAD PUSH32 0x79CACFF100000000000000000000000000000000000000000000000000000000 DUP2 MSTORE PUSH1 0x4 ADD PUSH1 0x40 MLOAD DUP1 SWAP2 SUB SWAP1 REVERT JUMPDEST DUP2 DUP2 PUSH2 0x160 ADD DUP2 DUP2 MLOAD PUSH2 0xEA3 SWAP2 SWAP1 PUSH2 0x49A4 JUMP JUMPDEST SWAP2 POP DUP2 DUP2 MSTORE POP POP PUSH2 0xEB6 DUP2 PUSH1 0x0 DUP5 PUSH2 0x2628 JUMP JUMPDEST POP POP POP JUMP JUMPDEST PUSH1 0x0 PUSH2 0xEC6 DUP4 PUSH2 0x13BF JUMP JUMPDEST SWAP1 POP PUSH1 0x0 PUSH1 0x5 PUSH1 0x0 DUP4 PUSH1 0x80 ADD MLOAD PUSH20 0xFFFFFFFFFFFFFFFFFFFFFFFFFFFFFFFFFFFFFFFF AND PUSH20 0xFFFFFFFFFFFFFFFFFFFFFFFFFFFFFFFFFFFFFFFF AND DUP2 MSTORE PUSH1 0x20 ADD SWAP1 DUP2 MSTORE PUSH1 0x20 ADD PUSH1 0x0 KECCAK256 SWAP1 POP PUSH2 0xF17 PUSH2 0x3DFE JUMP JUMPDEST PUSH1 0x0 DUP1 DUP6 PUSH2 0xF2A JUMPI DUP5 PUSH2 0x140 ADD MLOAD PUSH2 0xF31 JUMP JUMPDEST DUP5 PUSH2 0x160 ADD MLOAD JUMPDEST SWAP1 POP PUSH1 0x0 PUSH1 0x1 DUP6 DUP1 SLOAD SWAP1 POP PUSH2 0xF46 SWAP2 SWAP1 PUSH2 0x48D0 JUMP JUMPDEST SWAP1 POP JUMPDEST PUSH1 0x0 DUP3 GT DUP1 ISZERO PUSH2 0xF5A JUMPI POP PUSH1 0x0 DUP2 LT ISZERO JUMPDEST ISZERO PUSH2 0x1126 JUMPI PUSH1 0x0 DUP6 DUP3 DUP2 SLOAD DUP2 LT PUSH2 0xF74 JUMPI PUSH2 0xF73 PUSH2 0x4904 JUMP JUMPDEST JUMPDEST SWAP1 PUSH1 0x0 MSTORE PUSH1 0x20 PUSH1 0x0 KECCAK256 ADD SLOAD SWAP1 POP PUSH1 0x3 DUP2 DUP2 SLOAD DUP2 LT PUSH2 0xF95 JUMPI PUSH2 0xF94 PUSH2 0x4904 JUMP JUMPDEST JUMPDEST SWAP1 PUSH1 0x0 MSTORE PUSH1 0x20 PUSH1 0x0 KECCAK256 SWAP1 PUSH1 0x7 MUL ADD PUSH1 0x40 MLOAD DUP1 PUSH2 0x100 ADD PUSH1 0x40 MSTORE SWAP1 DUP2 PUSH1 0x0 DUP3 ADD PUSH1 0x0 SWAP1 SLOAD SWAP1 PUSH2 0x100 EXP SWAP1 DIV PUSH20 0xFFFFFFFFFFFFFFFFFFFFFFFFFFFFFFFFFFFFFFFF AND PUSH20 0xFFFFFFFFFFFFFFFFFFFFFFFFFFFFFFFFFFFFFFFF AND PUSH20 0xFFFFFFFFFFFFFFFFFFFFFFFFFFFFFFFFFFFFFFFF AND DUP2 MSTORE PUSH1 0x20 ADD PUSH1 0x1 DUP3 ADD PUSH1 0x0 SWAP1 SLOAD SWAP1 PUSH2 0x100 EXP SWAP1 DIV PUSH20 0xFFFFFFFFFFFFFFFFFFFFFFFFFFFFFFFFFFFFFFFF AND PUSH20 0xFFFFFFFFFFFFFFFFFFFFFFFFFFFFFFFFFFFFFFFF AND PUSH20 0xFFFFFFFFFFFFFFFFFFFFFFFFFFFFFFFFFFFFFFFF AND DUP2 MSTORE PUSH1 0x20 ADD PUSH1 0x1 DUP3 ADD PUSH1 0x14 SWAP1 SLOAD SWAP1 PUSH2 0x100 EXP SWAP1 DIV PUSH1 0xFF AND ISZERO ISZERO ISZERO ISZERO DUP2 MSTORE PUSH1 0x20 ADD PUSH1 0x2 DUP3 ADD SLOAD DUP2 MSTORE PUSH1 0x20 ADD PUSH1 0x3 DUP3 ADD SLOAD DUP2 MSTORE PUSH1 0x20 ADD PUSH1 0x4 DUP3 ADD SLOAD DUP2 MSTORE PUSH1 0x20 ADD PUSH1 0x5 DUP3 ADD SLOAD DUP2 MSTORE PUSH1 0x20 ADD PUSH1 0x6 DUP3 ADD SLOAD DUP2 MSTORE POP POP SWAP5 POP DUP8 ISZERO ISZERO DUP6 PUSH1 0x40 ADD MLOAD ISZERO ISZERO EQ PUSH2 0x10BF JUMPI POP PUSH2 0x1113 JUMP JUMPDEST DUP8 ISZERO PUSH2 0x10DD JUMPI PUSH2 0x10D0 DUP8 DUP7 DUP6 PUSH2 0x2E78 JUMP JUMPDEST DUP1 SWAP5 POP DUP2 SWAP6 POP POP POP PUSH2 0x10F1 JUMP JUMPDEST PUSH2 0x10E8 DUP8 DUP7 DUP6 PUSH2 0x2FC8 JUMP JUMPDEST DUP1 SWAP5 POP DUP2 SWAP6 POP POP POP JUMPDEST DUP4 PUSH2 0x10FC JUMPI POP PUSH2 0x1113 JUMP JUMPDEST PUSH2 0x1106 DUP7 DUP4 PUSH2 0x250C JUMP JUMPDEST PUSH2 0x1111 PUSH1 0x3 DUP3 PUSH2 0x309F JUMP JUMPDEST POP JUMPDEST DUP1 DUP1 PUSH2 0x111E SWAP1 PUSH2 0x497B JUMP JUMPDEST SWAP2 POP POP PUSH2 0xF49 JUMP JUMPDEST POP DUP6 ISZERO PUSH2 0x113D JUMPI DUP1 DUP6 PUSH2 0x160 ADD DUP2 DUP2 MSTORE POP POP PUSH2 0x1149 JUMP JUMPDEST DUP1 DUP6 PUSH2 0x140 ADD DUP2 DUP2 MSTORE POP POP JUMPDEST POP POP POP POP POP POP POP JUMP JUMPDEST PUSH1 0x0 CALLVALUE SWAP1 POP PUSH1 0x0 PUSH2 0x1162 DUP4 PUSH2 0x13BF JUMP JUMPDEST SWAP1 POP DUP2 DUP2 PUSH2 0x140 ADD DUP2 DUP2 MLOAD PUSH2 0x1177 SWAP2 SWAP1 PUSH2 0x49A4 JUMP JUMPDEST SWAP2 POP DUP2 DUP2 MSTORE POP POP PUSH2 0x118A DUP2 PUSH1 0x1 DUP5 PUSH2 0x2628 JUMP JUMPDEST POP POP POP JUMP JUMPDEST PUSH1 0x0 PUSH2 0x119A DUP4 PUSH2 0x13BF JUMP JUMPDEST SWAP1 POP PUSH2 0x11A4 PUSH2 0x3DFE JUMP JUMPDEST PUSH1 0x0 DUP1 PUSH2 0x11B1 DUP7 DUP7 PUSH2 0x1814 JUMP JUMPDEST DUP1 SWAP5 POP DUP2 SWAP6 POP DUP3 SWAP4 POP POP POP POP DUP1 PUSH2 0x11F4 JUMPI PUSH1 0x40 MLOAD PUSH32 0x2050D62B00000000000000000000000000000000000000000000000000000000 DUP2 MSTORE PUSH1 0x4 ADD PUSH1 0x40 MLOAD DUP1 SWAP2 SUB SWAP1 REVERT JUMPDEST PUSH2 0x1204 DUP5 PUSH2 0x1A0 ADD MLOAD DUP8 DUP8 PUSH2 0x2594 JUMP JUMPDEST PUSH2 0x123A JUMPI PUSH1 0x40 MLOAD PUSH32 0x79CACFF100000000000000000000000000000000000000000000000000000000 DUP2 MSTORE PUSH1 0x4 ADD PUSH1 0x40 MLOAD DUP1 SWAP2 SUB SWAP1 REVERT JUMPDEST PUSH2 0x1248 DUP4 PUSH1 0x1 DUP5 DUP9 DUP11 PUSH2 0x1A37 JUMP JUMPDEST POP POP POP POP POP POP JUMP JUMPDEST PUSH2 0x1258 PUSH2 0x32E7 JUMP JUMPDEST PUSH1 0x0 DUP1 PUSH1 0x0 SWAP1 SLOAD SWAP1 PUSH2 0x100 EXP SWAP1 DIV PUSH20 0xFFFFFFFFFFFFFFFFFFFFFFFFFFFFFFFFFFFFFFFF AND SWAP1 POP DUP2 PUSH1 0x0 DUP1 PUSH2 0x100 EXP DUP2 SLOAD DUP2 PUSH20 0xFFFFFFFFFFFFFFFFFFFFFFFFFFFFFFFFFFFFFFFF MUL NOT AND SWAP1 DUP4 PUSH20 0xFFFFFFFFFFFFFFFFFFFFFFFFFFFFFFFFFFFFFFFF AND MUL OR SWAP1 SSTORE POP PUSH32 0x850B3DF64837D7D518B45F5AA64D104652C3B80EB5B34A8E3D9EB666CB7CDEA5 DUP2 PUSH1 0x0 DUP1 SLOAD SWAP1 PUSH2 0x100 EXP SWAP1 DIV PUSH20 0xFFFFFFFFFFFFFFFFFFFFFFFFFFFFFFFFFFFFFFFF AND PUSH1 0x40 MLOAD PUSH2 0x130F SWAP3 SWAP2 SWAP1 PUSH2 0x49D8 JUMP JUMPDEST PUSH1 0x40 MLOAD DUP1 SWAP2 SUB SWAP1 LOG1 POP POP JUMP JUMPDEST PUSH1 0x0 PUSH2 0x1326 DUP3 PUSH2 0x13BF JUMP JUMPDEST SWAP1 POP PUSH1 0x0 CALLVALUE SWAP1 POP DUP1 DUP3 PUSH2 0x140 ADD DUP2 DUP2 MLOAD PUSH2 0x1340 SWAP2 SWAP1 PUSH2 0x49A4 JUMP JUMPDEST SWAP2 POP DUP2 DUP2 MSTORE POP POP POP POP POP JUMP JUMPDEST PUSH1 0x0 PUSH2 0x1357 DUP5 PUSH2 0x13BF JUMP JUMPDEST SWAP1 POP PUSH2 0x1369 DUP2 PUSH2 0x1A0 ADD MLOAD DUP5 DUP5 PUSH2 0x2594 JUMP JUMPDEST PUSH2 0x139F JUMPI PUSH1 0x40 MLOAD PUSH32 0x79CACFF100000000000000000000000000000000000000000000000000000000 DUP2 MSTORE PUSH1 0x4 ADD PUSH1 0x40 MLOAD DUP1 SWAP2 SUB SWAP1 REVERT JUMPDEST DUP2 DUP2 PUSH2 0x160 ADD DUP2 DUP2 MLOAD PUSH2 0x13B2 SWAP2 SWAP1 PUSH2 0x49A4 JUMP JUMPDEST SWAP2 POP DUP2 DUP2 MSTORE POP POP POP POP POP POP JUMP JUMPDEST PUSH2 0x13C7 PUSH2 0x3E71 JUMP JUMPDEST PUSH1 0x0 PUSH1 0x4 PUSH1 0x0 DUP5 PUSH20 0xFFFFFFFFFFFFFFFFFFFFFFFFFFFFFFFFFFFFFFFF AND PUSH20 0xFFFFFFFFFFFFFFFFFFFFFFFFFFFFFFFFFFFFFFFF AND DUP2 MSTORE PUSH1 0x20 ADD SWAP1 DUP2 MSTORE PUSH1 0x20 ADD PUSH1 0x0 KECCAK256 SLOAD SWAP1 POP PUSH2 0x1414 DUP2 PUSH2 0x3379 JUMP JUMPDEST SWAP2 POP POP SWAP2 SWAP1 POP JUMP JUMPDEST PUSH2 0x1424 PUSH2 0x3D6D JUMP JUMPDEST PUSH1 0x0 PUSH1 0x2 DUP4 DUP2 SLOAD DUP2 LT PUSH2 0x143A JUMPI PUSH2 0x1439 PUSH2 0x4904 JUMP JUMPDEST JUMPDEST SWAP1 PUSH1 0x0 MSTORE PUSH1 0x20 PUSH1 0x0 KECCAK256 SWAP1 PUSH1 0xD MUL ADD PUSH1 0x40 MLOAD DUP1 PUSH2 0x1C0 ADD PUSH1 0x40 MSTORE SWAP1 DUP2 PUSH1 0x0 DUP3 ADD DUP1 SLOAD PUSH2 0x1464 SWAP1 PUSH2 0x45F2 JUMP JUMPDEST DUP1 PUSH1 0x1F ADD PUSH1 0x20 DUP1 SWAP2 DIV MUL PUSH1 0x20 ADD PUSH1 0x40 MLOAD SWAP1 DUP2 ADD PUSH1 0x40 MSTORE DUP1 SWAP3 SWAP2 SWAP1 DUP2 DUP2 MSTORE PUSH1 0x20 ADD DUP3 DUP1 SLOAD PUSH2 0x1490 SWAP1 PUSH2 0x45F2 JUMP JUMPDEST DUP1 ISZERO PUSH2 0x14DD JUMPI DUP1 PUSH1 0x1F LT PUSH2 0x14B2 JUMPI PUSH2 0x100 DUP1 DUP4 SLOAD DIV MUL DUP4 MSTORE SWAP2 PUSH1 0x20 ADD SWAP2 PUSH2 0x14DD JUMP JUMPDEST DUP3 ADD SWAP2 SWAP1 PUSH1 0x0 MSTORE PUSH1 0x20 PUSH1 0x0 KECCAK256 SWAP1 JUMPDEST DUP2 SLOAD DUP2 MSTORE SWAP1 PUSH1 0x1 ADD SWAP1 PUSH1 0x20 ADD DUP1 DUP4 GT PUSH2 0x14C0 JUMPI DUP3 SWAP1 SUB PUSH1 0x1F AND DUP3 ADD SWAP2 JUMPDEST POP POP POP POP POP DUP2 MSTORE PUSH1 0x20 ADD PUSH1 0x1 DUP3 ADD DUP1 SLOAD PUSH2 0x14F6 SWAP1 PUSH2 0x45F2 JUMP JUMPDEST DUP1 PUSH1 0x1F ADD PUSH1 0x20 DUP1 SWAP2 DIV MUL PUSH1 0x20 ADD PUSH1 0x40 MLOAD SWAP1 DUP2 ADD PUSH1 0x40 MSTORE DUP1 SWAP3 SWAP2 SWAP1 DUP2 DUP2 MSTORE PUSH1 0x20 ADD DUP3 DUP1 SLOAD PUSH2 0x1522 SWAP1 PUSH2 0x45F2 JUMP JUMPDEST DUP1 ISZERO PUSH2 0x156F JUMPI DUP1 PUSH1 0x1F LT PUSH2 0x1544 JUMPI PUSH2 0x100 DUP1 DUP4 SLOAD DIV MUL DUP4 MSTORE SWAP2 PUSH1 0x20 ADD SWAP2 PUSH2 0x156F JUMP JUMPDEST DUP3 ADD SWAP2 SWAP1 PUSH1 0x0 MSTORE PUSH1 0x20 PUSH1 0x0 KECCAK256 SWAP1 JUMPDEST DUP2 SLOAD DUP2 MSTORE SWAP1 PUSH1 0x1 ADD SWAP1 PUSH1 0x20 ADD DUP1 DUP4 GT PUSH2 0x1552 JUMPI DUP3 SWAP1 SUB PUSH1 0x1F AND DUP3 ADD SWAP2 JUMPDEST POP POP POP POP POP DUP2 MSTORE PUSH1 0x20 ADD PUSH1 0x2 DUP3 ADD PUSH1 0x0 SWAP1 SLOAD SWAP1 PUSH2 0x100 EXP SWAP1 DIV PUSH1 0xFF AND PUSH1 0xFF AND PUSH1 0xFF AND DUP2 MSTORE PUSH1 0x20 ADD PUSH1 0x3 DUP3 ADD SLOAD DUP2 MSTORE PUSH1 0x20 ADD PUSH1 0x4 DUP3 ADD PUSH1 0x0 SWAP1 SLOAD SWAP1 PUSH2 0x100 EXP SWAP1 DIV PUSH20 0xFFFFFFFFFFFFFFFFFFFFFFFFFFFFFFFFFFFFFFFF AND PUSH20 0xFFFFFFFFFFFFFFFFFFFFFFFFFFFFFFFFFFFFFFFF AND PUSH20 0xFFFFFFFFFFFFFFFFFFFFFFFFFFFFFFFFFFFFFFFF AND DUP2 MSTORE PUSH1 0x20 ADD PUSH1 0x5 DUP3 ADD PUSH1 0x0 SWAP1 SLOAD SWAP1 PUSH2 0x100 EXP SWAP1 DIV PUSH20 0xFFFFFFFFFFFFFFFFFFFFFFFFFFFFFFFFFFFFFFFF AND PUSH20 0xFFFFFFFFFFFFFFFFFFFFFFFFFFFFFFFFFFFFFFFF AND PUSH20 0xFFFFFFFFFFFFFFFFFFFFFFFFFFFFFFFFFFFFFFFF AND DUP2 MSTORE PUSH1 0x20 ADD PUSH1 0x5 DUP3 ADD PUSH1 0x14 SWAP1 SLOAD SWAP1 PUSH2 0x100 EXP SWAP1 DIV PUSH1 0xFF AND PUSH1 0x1 DUP2 GT ISZERO PUSH2 0x1670 JUMPI PUSH2 0x166F PUSH2 0x4130 JUMP JUMPDEST JUMPDEST PUSH1 0x1 DUP2 GT ISZERO PUSH2 0x1682 JUMPI PUSH2 0x1681 PUSH2 0x4130 JUMP JUMPDEST JUMPDEST DUP2 MSTORE PUSH1 0x20 ADD PUSH1 0x6 DUP3 ADD SLOAD DUP2 MSTORE PUSH1 0x20 ADD PUSH1 0x7 DUP3 ADD SLOAD DUP2 MSTORE PUSH1 0x20 ADD PUSH1 0x8 DUP3 ADD SLOAD DUP2 MSTORE PUSH1 0x20 ADD PUSH1 0x9 DUP3 ADD SLOAD DUP2 MSTORE PUSH1 0x20 ADD PUSH1 0xA DUP3 ADD SLOAD DUP2 MSTORE PUSH1 0x20 ADD PUSH1 0xB DUP3 ADD SLOAD DUP2 MSTORE PUSH1 0x20 ADD PUSH1 0xC DUP3 ADD PUSH1 0x0 SWAP1 SLOAD SWAP1 PUSH2 0x100 EXP SWAP1 DIV PUSH20 0xFFFFFFFFFFFFFFFFFFFFFFFFFFFFFFFFFFFFFFFF AND PUSH20 0xFFFFFFFFFFFFFFFFFFFFFFFFFFFFFFFFFFFFFFFF AND PUSH20 0xFFFFFFFFFFFFFFFFFFFFFFFFFFFFFFFFFFFFFFFF AND DUP2 MSTORE POP POP SWAP1 POP PUSH1 0x0 PUSH1 0x5 PUSH1 0x0 DUP4 PUSH1 0x80 ADD MLOAD PUSH20 0xFFFFFFFFFFFFFFFFFFFFFFFFFFFFFFFFFFFFFFFF AND PUSH20 0xFFFFFFFFFFFFFFFFFFFFFFFFFFFFFFFFFFFFFFFF AND DUP2 MSTORE PUSH1 0x20 ADD SWAP1 DUP2 MSTORE PUSH1 0x20 ADD PUSH1 0x0 KECCAK256 DUP1 SLOAD SWAP1 POP SWAP1 POP PUSH1 0x40 MLOAD DUP1 PUSH2 0x140 ADD PUSH1 0x40 MSTORE DUP1 DUP6 DUP2 MSTORE PUSH1 0x20 ADD DUP4 PUSH1 0x0 ADD MLOAD DUP2 MSTORE PUSH1 0x20 ADD DUP4 PUSH1 0x20 ADD MLOAD DUP2 MSTORE PUSH1 0x20 ADD DUP4 PUSH1 0x80 ADD MLOAD PUSH20 0xFFFFFFFFFFFFFFFFFFFFFFFFFFFFFFFFFFFFFFFF AND DUP2 MSTORE PUSH1 0x20 ADD DUP4 PUSH1 0xA0 ADD MLOAD PUSH20 0xFFFFFFFFFFFFFFFFFFFFFFFFFFFFFFFFFFFFFFFF AND DUP2 MSTORE PUSH1 0x20 ADD DUP4 PUSH1 0xE0 ADD MLOAD DUP2 MSTORE PUSH1 0x20 ADD DUP4 PUSH2 0x100 ADD MLOAD DUP2 MSTORE PUSH1 0x20 ADD DUP4 PUSH1 0xC0 ADD MLOAD PUSH1 0x1 DUP2 GT ISZERO PUSH2 0x17F7 JUMPI PUSH2 0x17F6 PUSH2 0x4130 JUMP JUMPDEST JUMPDEST DUP2 MSTORE PUSH1 0x20 ADD DUP4 PUSH2 0x120 ADD MLOAD DUP2 MSTORE PUSH1 0x20 ADD DUP3 DUP2 MSTORE POP SWAP3 POP POP POP SWAP2 SWAP1 POP JUMP JUMPDEST PUSH1 0x0 PUSH2 0x181E PUSH2 0x3DFE JUMP JUMPDEST PUSH1 0x0 PUSH2 0x1828 PUSH2 0x3DFE JUMP JUMPDEST PUSH1 0x0 PUSH1 0x5 PUSH1 0x0 DUP9 PUSH20 0xFFFFFFFFFFFFFFFFFFFFFFFFFFFFFFFFFFFFFFFF AND PUSH20 0xFFFFFFFFFFFFFFFFFFFFFFFFFFFFFFFFFFFFFFFF AND DUP2 MSTORE PUSH1 0x20 ADD SWAP1 DUP2 MSTORE PUSH1 0x20 ADD PUSH1 0x0 KECCAK256 SWAP1 POP PUSH1 0x0 DUP1 PUSH1 0x0 PUSH1 0x1 DUP5 DUP1 SLOAD SWAP1 POP PUSH2 0x1881 SWAP2 SWAP1 PUSH2 0x48D0 JUMP JUMPDEST SWAP1 POP JUMPDEST PUSH1 0x0 DUP2 LT PUSH2 0x1A22 JUMPI PUSH1 0x0 DUP5 DUP3 DUP2 SLOAD DUP2 LT PUSH2 0x18A1 JUMPI PUSH2 0x18A0 PUSH2 0x4904 JUMP JUMPDEST JUMPDEST SWAP1 PUSH1 0x0 MSTORE PUSH1 0x20 PUSH1 0x0 KECCAK256 ADD SLOAD SWAP1 POP PUSH1 0x3 DUP2 DUP2 SLOAD DUP2 LT PUSH2 0x18C2 JUMPI PUSH2 0x18C1 PUSH2 0x4904 JUMP JUMPDEST JUMPDEST SWAP1 PUSH1 0x0 MSTORE PUSH1 0x20 PUSH1 0x0 KECCAK256 SWAP1 PUSH1 0x7 MUL ADD PUSH1 0x40 MLOAD DUP1 PUSH2 0x100 ADD PUSH1 0x40 MSTORE SWAP1 DUP2 PUSH1 0x0 DUP3 ADD PUSH1 0x0 SWAP1 SLOAD SWAP1 PUSH2 0x100 EXP SWAP1 DIV PUSH20 0xFFFFFFFFFFFFFFFFFFFFFFFFFFFFFFFFFFFFFFFF AND PUSH20 0xFFFFFFFFFFFFFFFFFFFFFFFFFFFFFFFFFFFFFFFF AND PUSH20 0xFFFFFFFFFFFFFFFFFFFFFFFFFFFFFFFFFFFFFFFF AND DUP2 MSTORE PUSH1 0x20 ADD PUSH1 0x1 DUP3 ADD PUSH1 0x0 SWAP1 SLOAD SWAP1 PUSH2 0x100 EXP SWAP1 DIV PUSH20 0xFFFFFFFFFFFFFFFFFFFFFFFFFFFFFFFFFFFFFFFF AND PUSH20 0xFFFFFFFFFFFFFFFFFFFFFFFFFFFFFFFFFFFFFFFF AND PUSH20 0xFFFFFFFFFFFFFFFFFFFFFFFFFFFFFFFFFFFFFFFF AND DUP2 MSTORE PUSH1 0x20 ADD PUSH1 0x1 DUP3 ADD PUSH1 0x14 SWAP1 SLOAD SWAP1 PUSH2 0x100 EXP SWAP1 DIV PUSH1 0xFF AND ISZERO ISZERO ISZERO ISZERO DUP2 MSTORE PUSH1 0x20 ADD PUSH1 0x2 DUP3 ADD SLOAD DUP2 MSTORE PUSH1 0x20 ADD PUSH1 0x3 DUP3 ADD SLOAD DUP2 MSTORE PUSH1 0x20 ADD PUSH1 0x4 DUP3 ADD SLOAD DUP2 MSTORE PUSH1 0x20 ADD PUSH1 0x5 DUP3 ADD SLOAD DUP2 MSTORE PUSH1 0x20 ADD PUSH1 0x6 DUP3 ADD SLOAD DUP2 MSTORE POP POP SWAP6 POP DUP10 DUP7 PUSH1 0xE0 ADD MLOAD SUB PUSH2 0x19EF JUMPI PUSH1 0x1 SWAP4 POP DUP2 SWAP3 POP POP PUSH2 0x1A22 JUMP JUMPDEST DUP4 ISZERO DUP1 ISZERO PUSH2 0x1A01 JUMPI POP DUP10 DUP7 PUSH1 0xE0 ADD MLOAD LT ISZERO JUMPDEST ISZERO PUSH2 0x1A0E JUMPI PUSH1 0x1 SWAP4 POP DUP2 SWAP3 POP JUMPDEST POP DUP1 DUP1 PUSH2 0x1A1A SWAP1 PUSH2 0x497B JUMP JUMPDEST SWAP2 POP POP PUSH2 0x1884 JUMP JUMPDEST POP DUP2 DUP5 DUP3 SWAP7 POP SWAP7 POP SWAP7 POP POP POP POP POP SWAP3 POP SWAP3 POP SWAP3 JUMP JUMPDEST PUSH1 0x0 PUSH2 0x1A42 DUP3 PUSH2 0x13BF JUMP JUMPDEST SWAP1 POP PUSH1 0x3 DUP5 DUP2 SLOAD DUP2 LT PUSH2 0x1A58 JUMPI PUSH2 0x1A57 PUSH2 0x4904 JUMP JUMPDEST JUMPDEST SWAP1 PUSH1 0x0 MSTORE PUSH1 0x20 PUSH1 0x0 KECCAK256 SWAP1 PUSH1 0x7 MUL ADD PUSH1 0x40 MLOAD DUP1 PUSH2 0x100 ADD PUSH1 0x40 MSTORE SWAP1 DUP2 PUSH1 0x0 DUP3 ADD PUSH1 0x0 SWAP1 SLOAD SWAP1 PUSH2 0x100 EXP SWAP1 DIV PUSH20 0xFFFFFFFFFFFFFFFFFFFFFFFFFFFFFFFFFFFFFFFF AND PUSH20 0xFFFFFFFFFFFFFFFFFFFFFFFFFFFFFFFFFFFFFFFF AND PUSH20 0xFFFFFFFFFFFFFFFFFFFFFFFFFFFFFFFFFFFFFFFF AND DUP2 MSTORE PUSH1 0x20 ADD PUSH1 0x1 DUP3 ADD PUSH1 0x0 SWAP1 SLOAD SWAP1 PUSH2 0x100 EXP SWAP1 DIV PUSH20 0xFFFFFFFFFFFFFFFFFFFFFFFFFFFFFFFFFFFFFFFF AND PUSH20 0xFFFFFFFFFFFFFFFFFFFFFFFFFFFFFFFFFFFFFFFF AND PUSH20 0xFFFFFFFFFFFFFFFFFFFFFFFFFFFFFFFFFFFFFFFF AND DUP2 MSTORE PUSH1 0x20 ADD PUSH1 0x1 DUP3 ADD PUSH1 0x14 SWAP1 SLOAD SWAP1 PUSH2 0x100 EXP SWAP1 DIV PUSH1 0xFF AND ISZERO ISZERO ISZERO ISZERO DUP2 MSTORE PUSH1 0x20 ADD PUSH1 0x2 DUP3 ADD SLOAD DUP2 MSTORE PUSH1 0x20 ADD PUSH1 0x3 DUP3 ADD SLOAD DUP2 MSTORE PUSH1 0x20 ADD PUSH1 0x4 DUP3 ADD SLOAD DUP2 MSTORE PUSH1 0x20 ADD PUSH1 0x5 DUP3 ADD SLOAD DUP2 MSTORE PUSH1 0x20 ADD PUSH1 0x6 DUP3 ADD SLOAD DUP2 MSTORE POP POP SWAP6 POP PUSH1 0x0 DUP4 DUP8 PUSH1 0xE0 ADD MLOAD EQ ISZERO SWAP1 POP PUSH1 0x0 DUP5 DUP9 PUSH1 0xE0 ADD MLOAD PUSH2 0x1B8B SWAP2 SWAP1 PUSH2 0x48D0 JUMP JUMPDEST SWAP1 POP PUSH1 0x0 DUP9 PUSH1 0xC0 ADD MLOAD SWAP1 POP PUSH1 0x0 DUP1 DUP5 ISZERO PUSH2 0x1BFD JUMPI PUSH1 0x0 PUSH2 0x1BB4 DUP8 PUSH2 0x120 ADD MLOAD PUSH1 0x12 PUSH1 0xFF AND PUSH2 0x36D1 JUMP JUMPDEST SWAP1 POP PUSH1 0x0 PUSH2 0x1BC9 DUP7 DUP10 PUSH1 0x40 ADD MLOAD PUSH1 0xFF AND PUSH2 0x36D1 JUMP JUMPDEST SWAP1 POP PUSH1 0x0 DUP13 PUSH2 0x1BDC JUMPI DUP9 PUSH1 0x40 ADD MLOAD PUSH2 0x1BDF JUMP JUMPDEST PUSH1 0x12 JUMPDEST SWAP1 POP PUSH2 0x1BF7 PUSH2 0x1BEE DUP4 DUP6 PUSH2 0x36F6 JUMP JUMPDEST DUP3 PUSH1 0xFF AND PUSH2 0x372D JUMP JUMPDEST SWAP6 POP POP POP POP JUMPDEST DUP10 ISZERO PUSH2 0x1C0E JUMPI DUP3 SWAP2 POP DUP4 SWAP1 POP PUSH2 0x1C15 JUMP JUMPDEST DUP4 SWAP2 POP DUP3 SWAP1 POP JUMPDEST PUSH1 0x0 DUP1 DUP12 ISZERO PUSH2 0x1C2D JUMPI CALLER SWAP2 POP DUP13 PUSH1 0x0 ADD MLOAD SWAP1 POP PUSH2 0x1C38 JUMP JUMPDEST DUP13 PUSH1 0x0 ADD MLOAD SWAP2 POP CALLER SWAP1 POP JUMPDEST PUSH2 0x1C48 DUP9 PUSH2 0x1A0 ADD MLOAD DUP3 DUP8 PUSH2 0x3752 JUMP JUMPDEST PUSH2 0x1C7E JUMPI PUSH1 0x40 MLOAD PUSH32 0x4DE4E1D000000000000000000000000000000000000000000000000000000000 DUP2 MSTORE PUSH1 0x4 ADD PUSH1 0x40 MLOAD DUP1 SWAP2 SUB SWAP1 REVERT JUMPDEST PUSH2 0x1C88 DUP3 DUP8 PUSH2 0x37E4 JUMP JUMPDEST PUSH2 0x1CBE JUMPI PUSH1 0x40 MLOAD PUSH32 0x4DE4E1D000000000000000000000000000000000000000000000000000000000 DUP2 MSTORE PUSH1 0x4 ADD PUSH1 0x40 MLOAD DUP1 SWAP2 SUB SWAP1 REVERT JUMPDEST DUP6 DUP9 PUSH2 0x140 ADD DUP2 DUP2 MLOAD PUSH2 0x1CD1 SWAP2 SWAP1 PUSH2 0x48D0 JUMP JUMPDEST SWAP2 POP DUP2 DUP2 MSTORE POP POP DUP5 DUP9 PUSH2 0x160 ADD DUP2 DUP2 MLOAD PUSH2 0x1CEB SWAP2 SWAP1 PUSH2 0x48D0 JUMP JUMPDEST SWAP2 POP DUP2 DUP2 MSTORE POP POP DUP7 ISZERO PUSH2 0x1D2F JUMPI DUP6 DUP14 PUSH1 0xE0 ADD DUP2 DUP2 MLOAD PUSH2 0x1D0A SWAP2 SWAP1 PUSH2 0x48D0 JUMP JUMPDEST SWAP2 POP DUP2 DUP2 MSTORE POP POP DUP5 DUP14 PUSH1 0xC0 ADD DUP2 DUP2 MLOAD PUSH2 0x1D23 SWAP2 SWAP1 PUSH2 0x48D0 JUMP JUMPDEST SWAP2 POP DUP2 DUP2 MSTORE POP POP PUSH2 0x1D3B JUMP JUMPDEST PUSH2 0x1D3A PUSH1 0x3 DUP13 PUSH2 0x309F JUMP JUMPDEST JUMPDEST PUSH1 0x0 DUP9 PUSH1 0xE0 ADD MLOAD GT PUSH2 0x1D54 JUMPI POP POP POP POP POP POP POP POP PUSH2 0x1DC1 JUMP JUMPDEST DUP8 PUSH2 0x100 ADD MLOAD DUP4 LT ISZERO PUSH2 0x1D6E JUMPI POP POP POP POP POP POP POP POP PUSH2 0x1DC1 JUMP JUMPDEST PUSH2 0x1D82 DUP9 PUSH2 0x1A0 ADD MLOAD DUP3 DUP11 PUSH1 0xE0 ADD MLOAD PUSH2 0x3752 JUMP JUMPDEST PUSH2 0x1DB8 JUMPI PUSH1 0x40 MLOAD PUSH32 0xC96D18B500000000000000000000000000000000000000000000000000000000 DUP2 MSTORE PUSH1 0x4 ADD PUSH1 0x40 MLOAD DUP1 SWAP2 SUB SWAP1 REVERT JUMPDEST POP POP POP POP POP POP POP POP JUMPDEST POP POP POP POP POP JUMP JUMPDEST PUSH1 0x0 PUSH1 0x60 DUP1 PUSH1 0x0 DUP1 PUSH1 0x0 DUP7 SWAP1 POP PUSH1 0x60 DUP1 PUSH1 0x0 DUP1 DUP5 PUSH20 0xFFFFFFFFFFFFFFFFFFFFFFFFFFFFFFFFFFFFFFFF AND PUSH4 0x70A08231 ADDRESS PUSH1 0x40 MLOAD DUP3 PUSH4 0xFFFFFFFF AND PUSH1 0xE0 SHL DUP2 MSTORE PUSH1 0x4 ADD PUSH2 0x1E14 SWAP2 SWAP1 PUSH2 0x4312 JUMP JUMPDEST PUSH1 0x20 PUSH1 0x40 MLOAD DUP1 DUP4 SUB DUP2 DUP7 GAS STATICCALL SWAP3 POP POP POP DUP1 ISZERO PUSH2 0x1E4E JUMPI POP PUSH1 0x40 MLOAD RETURNDATASIZE PUSH1 0x1F NOT PUSH1 0x1F DUP3 ADD AND DUP3 ADD DUP1 PUSH1 0x40 MSTORE POP DUP2 ADD SWAP1 PUSH2 0x1E4B SWAP2 SWAP1 PUSH2 0x4A16 JUMP JUMPDEST PUSH1 0x1 JUMPDEST PUSH2 0x1E84 JUMPI PUSH1 0x40 MLOAD PUSH32 0x29BDFB3400000000000000000000000000000000000000000000000000000000 DUP2 MSTORE PUSH1 0x4 ADD PUSH1 0x40 MLOAD DUP1 SWAP2 SUB SWAP1 REVERT JUMPDEST POP DUP5 PUSH20 0xFFFFFFFFFFFFFFFFFFFFFFFFFFFFFFFFFFFFFFFF AND PUSH4 0x313CE567 PUSH1 0x40 MLOAD DUP2 PUSH4 0xFFFFFFFF AND PUSH1 0xE0 SHL DUP2 MSTORE PUSH1 0x4 ADD PUSH1 0x20 PUSH1 0x40 MLOAD DUP1 DUP4 SUB DUP2 DUP7 GAS STATICCALL SWAP3 POP POP POP DUP1 ISZERO PUSH2 0x1EED JUMPI POP PUSH1 0x40 MLOAD RETURNDATASIZE PUSH1 0x1F NOT PUSH1 0x1F DUP3 ADD AND DUP3 ADD DUP1 PUSH1 0x40 MSTORE POP DUP2 ADD SWAP1 PUSH2 0x1EEA SWAP2 SWAP1 PUSH2 0x4A7C JUMP JUMPDEST PUSH1 0x1 JUMPDEST PUSH2 0x1EFA JUMPI PUSH1 0x12 SWAP1 POP PUSH2 0x1EFF JUMP JUMPDEST DUP1 SWAP2 POP POP JUMPDEST PUSH1 0x12 PUSH1 0xFF AND DUP2 PUSH1 0xFF AND GT ISZERO PUSH2 0x1F40 JUMPI PUSH1 0x40 MLOAD PUSH32 0x432C0A5D00000000000000000000000000000000000000000000000000000000 DUP2 MSTORE PUSH1 0x4 ADD PUSH1 0x40 MLOAD DUP1 SWAP2 SUB SWAP1 REVERT JUMPDEST PUSH2 0x1F4C DUP2 PUSH1 0xFF AND PUSH2 0x385B JUMP JUMPDEST SWAP2 POP DUP5 PUSH20 0xFFFFFFFFFFFFFFFFFFFFFFFFFFFFFFFFFFFFFFFF AND PUSH4 0x6FDDE03 PUSH1 0x40 MLOAD DUP2 PUSH4 0xFFFFFFFF AND PUSH1 0xE0 SHL DUP2 MSTORE PUSH1 0x4 ADD PUSH1 0x0 PUSH1 0x40 MLOAD DUP1 DUP4 SUB DUP2 DUP7 GAS STATICCALL SWAP3 POP POP POP DUP1 ISZERO PUSH2 0x1FBB JUMPI POP PUSH1 0x40 MLOAD RETURNDATASIZE PUSH1 0x0 DUP3 RETURNDATACOPY RETURNDATASIZE PUSH1 0x1F NOT PUSH1 0x1F DUP3 ADD AND DUP3 ADD DUP1 PUSH1 0x40 MSTORE POP DUP2 ADD SWAP1 PUSH2 0x1FB8 SWAP2 SWAP1 PUSH2 0x4B19 JUMP JUMPDEST PUSH1 0x1 JUMPDEST ISZERO PUSH2 0x1FC5 JUMPI DUP1 SWAP5 POP POP JUMPDEST DUP5 PUSH20 0xFFFFFFFFFFFFFFFFFFFFFFFFFFFFFFFFFFFFFFFF AND PUSH4 0x95D89B41 PUSH1 0x40 MLOAD DUP2 PUSH4 0xFFFFFFFF AND PUSH1 0xE0 SHL DUP2 MSTORE PUSH1 0x4 ADD PUSH1 0x0 PUSH1 0x40 MLOAD DUP1 DUP4 SUB DUP2 DUP7 GAS STATICCALL SWAP3 POP POP POP DUP1 ISZERO PUSH2 0x2032 JUMPI POP PUSH1 0x40 MLOAD RETURNDATASIZE PUSH1 0x0 DUP3 RETURNDATACOPY RETURNDATASIZE PUSH1 0x1F NOT PUSH1 0x1F DUP3 ADD AND DUP3 ADD DUP1 PUSH1 0x40 MSTORE POP DUP2 ADD SWAP1 PUSH2 0x202F SWAP2 SWAP1 PUSH2 0x4B19 JUMP JUMPDEST PUSH1 0x1 JUMPDEST ISZERO PUSH2 0x203C JUMPI DUP1 SWAP4 POP POP JUMPDEST DUP5 DUP5 DUP5 DUP4 DUP6 SWAP10 POP SWAP10 POP SWAP10 POP SWAP10 POP SWAP10 POP POP POP POP POP POP SWAP2 SWAP4 SWAP6 SWAP1 SWAP3 SWAP5 POP JUMP JUMPDEST PUSH1 0x0 DUP1 PUSH1 0x0 PUSH2 0x2067 DUP5 PUSH2 0x387D JUMP JUMPDEST SWAP2 POP SWAP2 POP DUP1 PUSH2 0x20A2 JUMPI PUSH1 0x40 MLOAD PUSH32 0xE6F7D2C700000000000000000000000000000000000000000000000000000000 DUP2 MSTORE PUSH1 0x4 ADD PUSH1 0x40 MLOAD DUP1 SWAP2 SUB SWAP1 REVERT JUMPDEST DUP2 SWAP3 POP POP POP SWAP2 SWAP1 POP JUMP JUMPDEST PUSH1 0x0 PUSH1 0x2 PUSH1 0x0 DUP2 SLOAD DUP2 LT PUSH2 0x20C3 JUMPI PUSH2 0x20C2 PUSH2 0x4904 JUMP JUMPDEST JUMPDEST SWAP1 PUSH1 0x0 MSTORE PUSH1 0x20 PUSH1 0x0 KECCAK256 SWAP1 PUSH1 0xD MUL ADD PUSH1 0x40 MLOAD DUP1 PUSH2 0x1C0 ADD PUSH1 0x40 MSTORE SWAP1 DUP2 PUSH1 0x0 DUP3 ADD DUP1 SLOAD PUSH2 0x20ED SWAP1 PUSH2 0x45F2 JUMP JUMPDEST DUP1 PUSH1 0x1F ADD PUSH1 0x20 DUP1 SWAP2 DIV MUL PUSH1 0x20 ADD PUSH1 0x40 MLOAD SWAP1 DUP2 ADD PUSH1 0x40 MSTORE DUP1 SWAP3 SWAP2 SWAP1 DUP2 DUP2 MSTORE PUSH1 0x20 ADD DUP3 DUP1 SLOAD PUSH2 0x2119 SWAP1 PUSH2 0x45F2 JUMP JUMPDEST DUP1 ISZERO PUSH2 0x2166 JUMPI DUP1 PUSH1 0x1F LT PUSH2 0x213B JUMPI PUSH2 0x100 DUP1 DUP4 SLOAD DIV MUL DUP4 MSTORE SWAP2 PUSH1 0x20 ADD SWAP2 PUSH2 0x2166 JUMP JUMPDEST DUP3 ADD SWAP2 SWAP1 PUSH1 0x0 MSTORE PUSH1 0x20 PUSH1 0x0 KECCAK256 SWAP1 JUMPDEST DUP2 SLOAD DUP2 MSTORE SWAP1 PUSH1 0x1 ADD SWAP1 PUSH1 0x20 ADD DUP1 DUP4 GT PUSH2 0x2149 JUMPI DUP3 SWAP1 SUB PUSH1 0x1F AND DUP3 ADD SWAP2 JUMPDEST POP POP POP POP POP DUP2 MSTORE PUSH1 0x20 ADD PUSH1 0x1 DUP3 ADD DUP1 SLOAD PUSH2 0x217F SWAP1 PUSH2 0x45F2 JUMP JUMPDEST DUP1 PUSH1 0x1F ADD PUSH1 0x20 DUP1 SWAP2 DIV MUL PUSH1 0x20 ADD PUSH1 0x40 MLOAD SWAP1 DUP2 ADD PUSH1 0x40 MSTORE DUP1 SWAP3 SWAP2 SWAP1 DUP2 DUP2 MSTORE PUSH1 0x20 ADD DUP3 DUP1 SLOAD PUSH2 0x21AB SWAP1 PUSH2 0x45F2 JUMP JUMPDEST DUP1 ISZERO PUSH2 0x21F8 JUMPI DUP1 PUSH1 0x1F LT PUSH2 0x21CD JUMPI PUSH2 0x100 DUP1 DUP4 SLOAD DIV MUL DUP4 MSTORE SWAP2 PUSH1 0x20 ADD SWAP2 PUSH2 0x21F8 JUMP JUMPDEST DUP3 ADD SWAP2 SWAP1 PUSH1 0x0 MSTORE PUSH1 0x20 PUSH1 0x0 KECCAK256 SWAP1 JUMPDEST DUP2 SLOAD DUP2 MSTORE SWAP1 PUSH1 0x1 ADD SWAP1 PUSH1 0x20 ADD DUP1 DUP4 GT PUSH2 0x21DB JUMPI DUP3 SWAP1 SUB PUSH1 0x1F AND DUP3 ADD SWAP2 JUMPDEST POP POP POP POP POP DUP2 MSTORE PUSH1 0x20 ADD PUSH1 0x2 DUP3 ADD PUSH1 0x0 SWAP1 SLOAD SWAP1 PUSH2 0x100 EXP SWAP1 DIV PUSH1 0xFF AND PUSH1 0xFF AND PUSH1 0xFF AND DUP2 MSTORE PUSH1 0x20 ADD PUSH1 0x3 DUP3 ADD SLOAD DUP2 MSTORE PUSH1 0x20 ADD PUSH1 0x4 DUP3 ADD PUSH1 0x0 SWAP1 SLOAD SWAP1 PUSH2 0x100 EXP SWAP1 DIV PUSH20 0xFFFFFFFFFFFFFFFFFFFFFFFFFFFFFFFFFFFFFFFF AND PUSH20 0xFFFFFFFFFFFFFFFFFFFFFFFFFFFFFFFFFFFFFFFF AND PUSH20 0xFFFFFFFFFFFFFFFFFFFFFFFFFFFFFFFFFFFFFFFF AND DUP2 MSTORE PUSH1 0x20 ADD PUSH1 0x5 DUP3 ADD PUSH1 0x0 SWAP1 SLOAD SWAP1 PUSH2 0x100 EXP SWAP1 DIV PUSH20 0xFFFFFFFFFFFFFFFFFFFFFFFFFFFFFFFFFFFFFFFF AND PUSH20 0xFFFFFFFFFFFFFFFFFFFFFFFFFFFFFFFFFFFFFFFF AND PUSH20 0xFFFFFFFFFFFFFFFFFFFFFFFFFFFFFFFFFFFFFFFF AND DUP2 MSTORE PUSH1 0x20 ADD PUSH1 0x5 DUP3 ADD PUSH1 0x14 SWAP1 SLOAD SWAP1 PUSH2 0x100 EXP SWAP1 DIV PUSH1 0xFF AND PUSH1 0x1 DUP2 GT ISZERO PUSH2 0x22F9 JUMPI PUSH2 0x22F8 PUSH2 0x4130 JUMP JUMPDEST JUMPDEST PUSH1 0x1 DUP2 GT ISZERO PUSH2 0x230B JUMPI PUSH2 0x230A PUSH2 0x4130 JUMP JUMPDEST JUMPDEST DUP2 MSTORE PUSH1 0x20 ADD PUSH1 0x6 DUP3 ADD SLOAD DUP2 MSTORE PUSH1 0x20 ADD PUSH1 0x7 DUP3 ADD SLOAD DUP2 MSTORE PUSH1 0x20 ADD PUSH1 0x8 DUP3 ADD SLOAD DUP2 MSTORE PUSH1 0x20 ADD PUSH1 0x9 DUP3 ADD SLOAD DUP2 MSTORE PUSH1 0x20 ADD PUSH1 0xA DUP3 ADD SLOAD DUP2 MSTORE PUSH1 0x20 ADD PUSH1 0xB DUP3 ADD SLOAD DUP2 MSTORE PUSH1 0x20 ADD PUSH1 0xC DUP3 ADD PUSH1 0x0 SWAP1 SLOAD SWAP1 PUSH2 0x100 EXP SWAP1 DIV PUSH20 0xFFFFFFFFFFFFFFFFFFFFFFFFFFFFFFFFFFFFFFFF AND PUSH20 0xFFFFFFFFFFFFFFFFFFFFFFFFFFFFFFFFFFFFFFFF AND PUSH20 0xFFFFFFFFFFFFFFFFFFFFFFFFFFFFFFFFFFFFFFFF AND DUP2 MSTORE POP POP SWAP1 POP PUSH2 0x23B5 DUP2 PUSH2 0x1A0 ADD MLOAD CALLER PUSH1 0x1 SLOAD PUSH2 0x2594 JUMP JUMPDEST PUSH2 0x23F8 JUMPI PUSH1 0x1 SLOAD PUSH1 0x40 MLOAD PUSH32 0xCA114A0200000000000000000000000000000000000000000000000000000000 DUP2 MSTORE PUSH1 0x4 ADD PUSH2 0x23EF SWAP2 SWAP1 PUSH2 0x3F50 JUMP JUMPDEST PUSH1 0x40 MLOAD DUP1 SWAP2 SUB SWAP1 REVERT JUMPDEST PUSH1 0x1 SLOAD DUP2 PUSH2 0x160 ADD DUP2 DUP2 MLOAD PUSH2 0x240D SWAP2 SWAP1 PUSH2 0x49A4 JUMP JUMPDEST SWAP2 POP DUP2 DUP2 MSTORE POP POP PUSH1 0x0 PUSH2 0x3E8 PUSH1 0x5 PUSH1 0x1 SLOAD PUSH2 0x2428 SWAP2 SWAP1 PUSH2 0x4B62 JUMP JUMPDEST PUSH2 0x2432 SWAP2 SWAP1 PUSH2 0x4BD3 JUMP JUMPDEST SWAP1 POP DUP1 PUSH1 0x1 PUSH1 0x0 DUP3 DUP3 SLOAD PUSH2 0x2446 SWAP2 SWAP1 PUSH2 0x49A4 JUMP JUMPDEST SWAP3 POP POP DUP2 SWAP1 SSTORE POP POP POP JUMP JUMPDEST PUSH1 0x0 DUP1 PUSH2 0x2461 DUP5 PUSH1 0x20 ADD MLOAD PUSH2 0x13BF JUMP JUMPDEST SWAP1 POP DUP4 PUSH1 0x40 ADD MLOAD ISZERO PUSH2 0x24B0 JUMPI PUSH2 0x247F DUP5 PUSH1 0x0 ADD MLOAD DUP6 PUSH1 0xC0 ADD MLOAD PUSH2 0x37E4 JUMP JUMPDEST PUSH2 0x248D JUMPI PUSH1 0x0 SWAP2 POP POP PUSH2 0x2506 JUMP JUMPDEST DUP4 PUSH1 0xC0 ADD MLOAD DUP2 PUSH2 0x140 ADD DUP2 DUP2 MLOAD PUSH2 0x24A4 SWAP2 SWAP1 PUSH2 0x48D0 JUMP JUMPDEST SWAP2 POP DUP2 DUP2 MSTORE POP POP PUSH2 0x24F5 JUMP JUMPDEST PUSH2 0x24C8 DUP2 PUSH2 0x1A0 ADD MLOAD DUP6 PUSH1 0x0 ADD MLOAD DUP7 PUSH1 0xC0 ADD MLOAD PUSH2 0x3752 JUMP JUMPDEST PUSH2 0x24D6 JUMPI PUSH1 0x0 SWAP2 POP POP PUSH2 0x2506 JUMP JUMPDEST DUP4 PUSH1 0xC0 ADD MLOAD DUP2 PUSH2 0x160 ADD DUP2 DUP2 MLOAD PUSH2 0x24ED SWAP2 SWAP1 PUSH2 0x48D0 JUMP JUMPDEST SWAP2 POP DUP2 DUP2 MSTORE POP POP JUMPDEST PUSH2 0x2500 PUSH1 0x3 DUP5 PUSH2 0x309F JUMP JUMPDEST PUSH1 0x1 SWAP2 POP POP JUMPDEST SWAP3 SWAP2 POP POP JUMP JUMPDEST PUSH1 0x0 PUSH1 0x1 DUP4 DUP1 SLOAD SWAP1 POP PUSH2 0x251F SWAP2 SWAP1 PUSH2 0x48D0 JUMP JUMPDEST SWAP1 POP DUP1 DUP3 EQ PUSH2 0x2568 JUMPI DUP3 DUP2 DUP2 SLOAD DUP2 LT PUSH2 0x253B JUMPI PUSH2 0x253A PUSH2 0x4904 JUMP JUMPDEST JUMPDEST SWAP1 PUSH1 0x0 MSTORE PUSH1 0x20 PUSH1 0x0 KECCAK256 ADD SLOAD DUP4 DUP4 DUP2 SLOAD DUP2 LT PUSH2 0x2559 JUMPI PUSH2 0x2558 PUSH2 0x4904 JUMP JUMPDEST JUMPDEST SWAP1 PUSH1 0x0 MSTORE PUSH1 0x20 PUSH1 0x0 KECCAK256 ADD DUP2 SWAP1 SSTORE POP JUMPDEST DUP3 DUP1 SLOAD DUP1 PUSH2 0x2579 JUMPI PUSH2 0x2578 PUSH2 0x4C04 JUMP JUMPDEST JUMPDEST PUSH1 0x1 SWAP1 SUB DUP2 DUP2 SWAP1 PUSH1 0x0 MSTORE PUSH1 0x20 PUSH1 0x0 KECCAK256 ADD PUSH1 0x0 SWAP1 SSTORE SWAP1 SSTORE POP POP POP JUMP JUMPDEST PUSH1 0x0 DUP4 PUSH20 0xFFFFFFFFFFFFFFFFFFFFFFFFFFFFFFFFFFFFFFFF AND PUSH4 0x23B872DD DUP5 ADDRESS DUP6 PUSH1 0x40 MLOAD DUP5 PUSH4 0xFFFFFFFF AND PUSH1 0xE0 SHL DUP2 MSTORE PUSH1 0x4 ADD PUSH2 0x25D3 SWAP4 SWAP3 SWAP2 SWAP1 PUSH2 0x4C33 JUMP JUMPDEST PUSH1 0x20 PUSH1 0x40 MLOAD DUP1 DUP4 SUB DUP2 PUSH1 0x0 DUP8 GAS CALL SWAP3 POP POP POP DUP1 ISZERO PUSH2 0x260F JUMPI POP PUSH1 0x40 MLOAD RETURNDATASIZE PUSH1 0x1F NOT PUSH1 0x1F DUP3 ADD AND DUP3 ADD DUP1 PUSH1 0x40 MSTORE POP DUP2 ADD SWAP1 PUSH2 0x260C SWAP2 SWAP1 PUSH2 0x4C7F JUMP JUMPDEST PUSH1 0x1 JUMPDEST PUSH2 0x261C JUMPI PUSH1 0x0 SWAP1 POP PUSH2 0x2621 JUMP JUMPDEST DUP1 SWAP2 POP POP JUMPDEST SWAP4 SWAP3 POP POP POP JUMP JUMPDEST PUSH1 0x0 DUP1 PUSH1 0x1 DUP2 GT ISZERO PUSH2 0x263D JUMPI PUSH2 0x263C PUSH2 0x4130 JUMP JUMPDEST JUMPDEST DUP5 PUSH1 0xC0 ADD MLOAD PUSH1 0x1 DUP2 GT ISZERO PUSH2 0x2654 JUMPI PUSH2 0x2653 PUSH2 0x4130 JUMP JUMPDEST JUMPDEST SUB PUSH2 0x26AF JUMPI PUSH2 0x2661 PUSH2 0x39D6 JUMP JUMPDEST PUSH1 0x0 PUSH2 0x2673 PUSH1 0x9 SLOAD PUSH1 0x12 PUSH1 0xFF AND PUSH2 0x36D1 JUMP JUMPDEST SWAP1 POP PUSH1 0x0 PUSH2 0x268D DUP7 PUSH2 0x120 ADD MLOAD DUP8 PUSH1 0x40 ADD MLOAD PUSH1 0xFF AND PUSH2 0x36D1 JUMP JUMPDEST SWAP1 POP PUSH2 0x26A6 PUSH2 0x269C DUP4 DUP4 PUSH2 0x36F6 JUMP JUMPDEST PUSH1 0x12 PUSH1 0xFF AND PUSH2 0x372D JUMP JUMPDEST SWAP3 POP POP POP PUSH2 0x2B6A JUMP JUMPDEST PUSH1 0x1 DUP1 DUP2 GT ISZERO PUSH2 0x26C2 JUMPI PUSH2 0x26C1 PUSH2 0x4130 JUMP JUMPDEST JUMPDEST DUP5 PUSH1 0xC0 ADD MLOAD PUSH1 0x1 DUP2 GT ISZERO PUSH2 0x26D9 JUMPI PUSH2 0x26D8 PUSH2 0x4130 JUMP JUMPDEST JUMPDEST SUB PUSH2 0x2B69 JUMPI PUSH1 0x0 PUSH1 0xF0 DUP6 PUSH2 0x180 ADD MLOAD TIMESTAMP PUSH2 0x26F3 SWAP2 SWAP1 PUSH2 0x48D0 JUMP JUMPDEST LT ISZERO SWAP1 POP DUP1 ISZERO PUSH2 0x2B67 JUMPI PUSH1 0x0 PUSH1 0x2 PUSH1 0x0 DUP2 SLOAD DUP2 LT PUSH2 0x2714 JUMPI PUSH2 0x2713 PUSH2 0x4904 JUMP JUMPDEST JUMPDEST SWAP1 PUSH1 0x0 MSTORE PUSH1 0x20 PUSH1 0x0 KECCAK256 SWAP1 PUSH1 0xD MUL ADD PUSH1 0x40 MLOAD DUP1 PUSH2 0x1C0 ADD PUSH1 0x40 MSTORE SWAP1 DUP2 PUSH1 0x0 DUP3 ADD DUP1 SLOAD PUSH2 0x273E SWAP1 PUSH2 0x45F2 JUMP JUMPDEST DUP1 PUSH1 0x1F ADD PUSH1 0x20 DUP1 SWAP2 DIV MUL PUSH1 0x20 ADD PUSH1 0x40 MLOAD SWAP1 DUP2 ADD PUSH1 0x40 MSTORE DUP1 SWAP3 SWAP2 SWAP1 DUP2 DUP2 MSTORE PUSH1 0x20 ADD DUP3 DUP1 SLOAD PUSH2 0x276A SWAP1 PUSH2 0x45F2 JUMP JUMPDEST DUP1 ISZERO PUSH2 0x27B7 JUMPI DUP1 PUSH1 0x1F LT PUSH2 0x278C JUMPI PUSH2 0x100 DUP1 DUP4 SLOAD DIV MUL DUP4 MSTORE SWAP2 PUSH1 0x20 ADD SWAP2 PUSH2 0x27B7 JUMP JUMPDEST DUP3 ADD SWAP2 SWAP1 PUSH1 0x0 MSTORE PUSH1 0x20 PUSH1 0x0 KECCAK256 SWAP1 JUMPDEST DUP2 SLOAD DUP2 MSTORE SWAP1 PUSH1 0x1 ADD SWAP1 PUSH1 0x20 ADD DUP1 DUP4 GT PUSH2 0x279A JUMPI DUP3 SWAP1 SUB PUSH1 0x1F AND DUP3 ADD SWAP2 JUMPDEST POP POP POP POP POP DUP2 MSTORE PUSH1 0x20 ADD PUSH1 0x1 DUP3 ADD DUP1 SLOAD PUSH2 0x27D0 SWAP1 PUSH2 0x45F2 JUMP JUMPDEST DUP1 PUSH1 0x1F ADD PUSH1 0x20 DUP1 SWAP2 DIV MUL PUSH1 0x20 ADD PUSH1 0x40 MLOAD SWAP1 DUP2 ADD PUSH1 0x40 MSTORE DUP1 SWAP3 SWAP2 SWAP1 DUP2 DUP2 MSTORE PUSH1 0x20 ADD DUP3 DUP1 SLOAD PUSH2 0x27FC SWAP1 PUSH2 0x45F2 JUMP JUMPDEST DUP1 ISZERO PUSH2 0x2849 JUMPI DUP1 PUSH1 0x1F LT PUSH2 0x281E JUMPI PUSH2 0x100 DUP1 DUP4 SLOAD DIV MUL DUP4 MSTORE SWAP2 PUSH1 0x20 ADD SWAP2 PUSH2 0x2849 JUMP JUMPDEST DUP3 ADD SWAP2 SWAP1 PUSH1 0x0 MSTORE PUSH1 0x20 PUSH1 0x0 KECCAK256 SWAP1 JUMPDEST DUP2 SLOAD DUP2 MSTORE SWAP1 PUSH1 0x1 ADD SWAP1 PUSH1 0x20 ADD DUP1 DUP4 GT PUSH2 0x282C JUMPI DUP3 SWAP1 SUB PUSH1 0x1F AND DUP3 ADD SWAP2 JUMPDEST POP POP POP POP POP DUP2 MSTORE PUSH1 0x20 ADD PUSH1 0x2 DUP3 ADD PUSH1 0x0 SWAP1 SLOAD SWAP1 PUSH2 0x100 EXP SWAP1 DIV PUSH1 0xFF AND PUSH1 0xFF AND PUSH1 0xFF AND DUP2 MSTORE PUSH1 0x20 ADD PUSH1 0x3 DUP3 ADD SLOAD DUP2 MSTORE PUSH1 0x20 ADD PUSH1 0x4 DUP3 ADD PUSH1 0x0 SWAP1 SLOAD SWAP1 PUSH2 0x100 EXP SWAP1 DIV PUSH20 0xFFFFFFFFFFFFFFFFFFFFFFFFFFFFFFFFFFFFFFFF AND PUSH20 0xFFFFFFFFFFFFFFFFFFFFFFFFFFFFFFFFFFFFFFFF AND PUSH20 0xFFFFFFFFFFFFFFFFFFFFFFFFFFFFFFFFFFFFFFFF AND DUP2 MSTORE PUSH1 0x20 ADD PUSH1 0x5 DUP3 ADD PUSH1 0x0 SWAP1 SLOAD SWAP1 PUSH2 0x100 EXP SWAP1 DIV PUSH20 0xFFFFFFFFFFFFFFFFFFFFFFFFFFFFFFFFFFFFFFFF AND PUSH20 0xFFFFFFFFFFFFFFFFFFFFFFFFFFFFFFFFFFFFFFFF AND PUSH20 0xFFFFFFFFFFFFFFFFFFFFFFFFFFFFFFFFFFFFFFFF AND DUP2 MSTORE PUSH1 0x20 ADD PUSH1 0x5 DUP3 ADD PUSH1 0x14 SWAP1 SLOAD SWAP1 PUSH2 0x100 EXP SWAP1 DIV PUSH1 0xFF AND PUSH1 0x1 DUP2 GT ISZERO PUSH2 0x294A JUMPI PUSH2 0x2949 PUSH2 0x4130 JUMP JUMPDEST JUMPDEST PUSH1 0x1 DUP2 GT ISZERO PUSH2 0x295C JUMPI PUSH2 0x295B PUSH2 0x4130 JUMP JUMPDEST JUMPDEST DUP2 MSTORE PUSH1 0x20 ADD PUSH1 0x6 DUP3 ADD SLOAD DUP2 MSTORE PUSH1 0x20 ADD PUSH1 0x7 DUP3 ADD SLOAD DUP2 MSTORE PUSH1 0x20 ADD PUSH1 0x8 DUP3 ADD SLOAD DUP2 MSTORE PUSH1 0x20 ADD PUSH1 0x9 DUP3 ADD SLOAD DUP2 MSTORE PUSH1 0x20 ADD PUSH1 0xA DUP3 ADD SLOAD DUP2 MSTORE PUSH1 0x20 ADD PUSH1 0xB DUP3 ADD SLOAD DUP2 MSTORE PUSH1 0x20 ADD PUSH1 0xC DUP3 ADD PUSH1 0x0 SWAP1 SLOAD SWAP1 PUSH2 0x100 EXP SWAP1 DIV PUSH20 0xFFFFFFFFFFFFFFFFFFFFFFFFFFFFFFFFFFFFFFFF AND PUSH20 0xFFFFFFFFFFFFFFFFFFFFFFFFFFFFFFFFFFFFFFFF AND PUSH20 0xFFFFFFFFFFFFFFFFFFFFFFFFFFFFFFFFFFFFFFFF AND DUP2 MSTORE POP POP SWAP1 POP PUSH1 0x0 DUP7 PUSH2 0x1A0 ADD MLOAD SWAP1 POP PUSH1 0x0 DUP3 PUSH2 0x1A0 ADD MLOAD SWAP1 POP PUSH1 0x0 DUP3 PUSH20 0xFFFFFFFFFFFFFFFFFFFFFFFFFFFFFFFFFFFFFFFF AND PUSH4 0x70A08231 DUP11 PUSH1 0xA0 ADD MLOAD PUSH1 0x40 MLOAD DUP3 PUSH4 0xFFFFFFFF AND PUSH1 0xE0 SHL DUP2 MSTORE PUSH1 0x4 ADD PUSH2 0x2A47 SWAP2 SWAP1 PUSH2 0x4312 JUMP JUMPDEST PUSH1 0x20 PUSH1 0x40 MLOAD DUP1 DUP4 SUB DUP2 DUP7 GAS STATICCALL ISZERO DUP1 ISZERO PUSH2 0x2A64 JUMPI RETURNDATASIZE PUSH1 0x0 DUP1 RETURNDATACOPY RETURNDATASIZE PUSH1 0x0 REVERT JUMPDEST POP POP POP POP PUSH1 0x40 MLOAD RETURNDATASIZE PUSH1 0x1F NOT PUSH1 0x1F DUP3 ADD AND DUP3 ADD DUP1 PUSH1 0x40 MSTORE POP DUP2 ADD SWAP1 PUSH2 0x2A88 SWAP2 SWAP1 PUSH2 0x4A16 JUMP JUMPDEST SWAP1 POP PUSH1 0x0 DUP3 PUSH20 0xFFFFFFFFFFFFFFFFFFFFFFFFFFFFFFFFFFFFFFFF AND PUSH4 0x70A08231 DUP12 PUSH1 0xA0 ADD MLOAD PUSH1 0x40 MLOAD DUP3 PUSH4 0xFFFFFFFF AND PUSH1 0xE0 SHL DUP2 MSTORE PUSH1 0x4 ADD PUSH2 0x2AC9 SWAP2 SWAP1 PUSH2 0x4312 JUMP JUMPDEST PUSH1 0x20 PUSH1 0x40 MLOAD DUP1 DUP4 SUB DUP2 DUP7 GAS STATICCALL ISZERO DUP1 ISZERO PUSH2 0x2AE6 JUMPI RETURNDATASIZE PUSH1 0x0 DUP1 RETURNDATACOPY RETURNDATASIZE PUSH1 0x0 REVERT JUMPDEST POP POP POP POP PUSH1 0x40 MLOAD RETURNDATASIZE PUSH1 0x1F NOT PUSH1 0x1F DUP3 ADD AND DUP3 ADD DUP1 PUSH1 0x40 MSTORE POP DUP2 ADD SWAP1 PUSH2 0x2B0A SWAP2 SWAP1 PUSH2 0x4A16 JUMP JUMPDEST SWAP1 POP PUSH2 0x2B1D DUP3 DUP12 PUSH1 0x40 ADD MLOAD PUSH1 0xFF AND PUSH2 0x36D1 JUMP JUMPDEST SWAP2 POP PUSH2 0x2B30 DUP2 DUP7 PUSH1 0x40 ADD MLOAD PUSH1 0xFF AND PUSH2 0x36D1 JUMP JUMPDEST SWAP1 POP PUSH2 0x2B49 PUSH2 0x2B3F DUP3 DUP5 PUSH2 0x36F6 JUMP JUMPDEST PUSH1 0x12 PUSH1 0xFF AND PUSH2 0x372D JUMP JUMPDEST SWAP7 POP DUP7 DUP11 PUSH2 0x120 ADD DUP2 DUP2 MSTORE POP POP TIMESTAMP DUP11 PUSH2 0x180 ADD DUP2 DUP2 MSTORE POP POP POP POP POP POP POP JUMPDEST POP JUMPDEST JUMPDEST PUSH1 0x0 DUP1 PUSH1 0x0 PUSH2 0x2B7D DUP5 PUSH1 0x12 PUSH1 0xFF AND PUSH2 0x36D1 JUMP JUMPDEST SWAP1 POP DUP6 ISZERO PUSH2 0x2BB6 JUMPI PUSH2 0x2B93 DUP6 PUSH1 0x12 PUSH1 0xFF AND PUSH2 0x36D1 JUMP JUMPDEST SWAP2 POP PUSH2 0x2BAF PUSH2 0x2BA2 DUP3 DUP5 PUSH2 0x3ABD JUMP JUMPDEST DUP9 PUSH1 0x40 ADD MLOAD PUSH1 0xFF AND PUSH2 0x372D JUMP JUMPDEST SWAP3 POP PUSH2 0x2BE6 JUMP JUMPDEST PUSH2 0x2BC7 DUP6 DUP9 PUSH1 0x40 ADD MLOAD PUSH1 0xFF AND PUSH2 0x36D1 JUMP JUMPDEST SWAP2 POP PUSH2 0x2BE3 PUSH2 0x2BD6 DUP4 DUP4 PUSH2 0x36F6 JUMP JUMPDEST DUP9 PUSH1 0x40 ADD MLOAD PUSH1 0xFF AND PUSH2 0x372D JUMP JUMPDEST SWAP3 POP JUMPDEST PUSH1 0x0 DUP8 PUSH2 0x100 ADD MLOAD DUP6 LT PUSH2 0x2BFC JUMPI DUP8 PUSH1 0xE0 ADD MLOAD SWAP1 POP JUMPDEST PUSH1 0x0 PUSH1 0x40 MLOAD DUP1 PUSH2 0x100 ADD PUSH1 0x40 MSTORE DUP1 CALLER PUSH20 0xFFFFFFFFFFFFFFFFFFFFFFFFFFFFFFFFFFFFFFFF AND DUP2 MSTORE PUSH1 0x20 ADD DUP11 PUSH1 0x80 ADD MLOAD PUSH20 0xFFFFFFFFFFFFFFFFFFFFFFFFFFFFFFFFFFFFFFFF AND DUP2 MSTORE PUSH1 0x20 ADD DUP10 ISZERO ISZERO DUP2 MSTORE PUSH1 0x20 ADD TIMESTAMP DUP2 MSTORE PUSH1 0x20 ADD DUP4 DUP2 MSTORE PUSH1 0x20 ADD DUP8 DUP2 MSTORE PUSH1 0x20 ADD DUP9 DUP2 MSTORE PUSH1 0x20 ADD DUP7 DUP2 MSTORE POP SWAP1 POP PUSH1 0x3 DUP2 SWAP1 DUP1 PUSH1 0x1 DUP2 SLOAD ADD DUP1 DUP3 SSTORE DUP1 SWAP2 POP POP PUSH1 0x1 SWAP1 SUB SWAP1 PUSH1 0x0 MSTORE PUSH1 0x20 PUSH1 0x0 KECCAK256 SWAP1 PUSH1 0x7 MUL ADD PUSH1 0x0 SWAP1 SWAP2 SWAP1 SWAP2 SWAP1 SWAP2 POP PUSH1 0x0 DUP3 ADD MLOAD DUP2 PUSH1 0x0 ADD PUSH1 0x0 PUSH2 0x100 EXP DUP2 SLOAD DUP2 PUSH20 0xFFFFFFFFFFFFFFFFFFFFFFFFFFFFFFFFFFFFFFFF MUL NOT AND SWAP1 DUP4 PUSH20 0xFFFFFFFFFFFFFFFFFFFFFFFFFFFFFFFFFFFFFFFF AND MUL OR SWAP1 SSTORE POP PUSH1 0x20 DUP3 ADD MLOAD DUP2 PUSH1 0x1 ADD PUSH1 0x0 PUSH2 0x100 EXP DUP2 SLOAD DUP2 PUSH20 0xFFFFFFFFFFFFFFFFFFFFFFFFFFFFFFFFFFFFFFFF MUL NOT AND SWAP1 DUP4 PUSH20 0xFFFFFFFFFFFFFFFFFFFFFFFFFFFFFFFFFFFFFFFF AND MUL OR SWAP1 SSTORE POP PUSH1 0x40 DUP3 ADD MLOAD DUP2 PUSH1 0x1 ADD PUSH1 0x14 PUSH2 0x100 EXP DUP2 SLOAD DUP2 PUSH1 0xFF MUL NOT AND SWAP1 DUP4 ISZERO ISZERO MUL OR SWAP1 SSTORE POP PUSH1 0x60 DUP3 ADD MLOAD DUP2 PUSH1 0x2 ADD SSTORE PUSH1 0x80 DUP3 ADD MLOAD DUP2 PUSH1 0x3 ADD SSTORE PUSH1 0xA0 DUP3 ADD MLOAD DUP2 PUSH1 0x4 ADD SSTORE PUSH1 0xC0 DUP3 ADD MLOAD DUP2 PUSH1 0x5 ADD SSTORE PUSH1 0xE0 DUP3 ADD MLOAD DUP2 PUSH1 0x6 ADD SSTORE POP POP PUSH1 0x0 PUSH1 0x6 PUSH1 0x0 CALLER PUSH20 0xFFFFFFFFFFFFFFFFFFFFFFFFFFFFFFFFFFFFFFFF AND PUSH20 0xFFFFFFFFFFFFFFFFFFFFFFFFFFFFFFFFFFFFFFFF AND DUP2 MSTORE PUSH1 0x20 ADD SWAP1 DUP2 MSTORE PUSH1 0x20 ADD PUSH1 0x0 KECCAK256 SWAP1 POP PUSH1 0x0 PUSH1 0x5 PUSH1 0x0 DUP13 PUSH1 0x80 ADD MLOAD PUSH20 0xFFFFFFFFFFFFFFFFFFFFFFFFFFFFFFFFFFFFFFFF AND PUSH20 0xFFFFFFFFFFFFFFFFFFFFFFFFFFFFFFFFFFFFFFFF AND DUP2 MSTORE PUSH1 0x20 ADD SWAP1 DUP2 MSTORE PUSH1 0x20 ADD PUSH1 0x0 KECCAK256 SWAP1 POP PUSH1 0x0 PUSH1 0x1 PUSH1 0x3 DUP1 SLOAD SWAP1 POP PUSH2 0x2E18 SWAP2 SWAP1 PUSH2 0x48D0 JUMP JUMPDEST SWAP1 POP DUP3 DUP2 SWAP1 DUP1 PUSH1 0x1 DUP2 SLOAD ADD DUP1 DUP3 SSTORE DUP1 SWAP2 POP POP PUSH1 0x1 SWAP1 SUB SWAP1 PUSH1 0x0 MSTORE PUSH1 0x20 PUSH1 0x0 KECCAK256 ADD PUSH1 0x0 SWAP1 SWAP2 SWAP1 SWAP2 SWAP1 SWAP2 POP SSTORE DUP2 DUP2 SWAP1 DUP1 PUSH1 0x1 DUP2 SLOAD ADD DUP1 DUP3 SSTORE DUP1 SWAP2 POP POP PUSH1 0x1 SWAP1 SUB SWAP1 PUSH1 0x0 MSTORE PUSH1 0x20 PUSH1 0x0 KECCAK256 ADD PUSH1 0x0 SWAP1 SWAP2 SWAP1 SWAP2 SWAP1 SWAP2 POP SSTORE POP POP POP POP POP POP POP POP POP POP POP POP JUMP JUMPDEST PUSH1 0x0 DUP1 PUSH1 0x0 DUP1 DUP6 PUSH1 0xE0 ADD MLOAD DUP6 LT SWAP1 POP DUP1 ISZERO PUSH2 0x2E95 JUMPI DUP5 SWAP2 POP PUSH2 0x2E9D JUMP JUMPDEST DUP6 PUSH1 0xE0 ADD MLOAD SWAP2 POP JUMPDEST PUSH1 0x0 DUP8 PUSH2 0x1A0 ADD MLOAD SWAP1 POP DUP1 PUSH20 0xFFFFFFFFFFFFFFFFFFFFFFFFFFFFFFFFFFFFFFFF AND PUSH4 0xA9059CBB DUP9 PUSH1 0x0 ADD MLOAD DUP6 PUSH1 0x40 MLOAD DUP4 PUSH4 0xFFFFFFFF AND PUSH1 0xE0 SHL DUP2 MSTORE PUSH1 0x4 ADD PUSH2 0x2EE6 SWAP3 SWAP2 SWAP1 PUSH2 0x4D01 JUMP JUMPDEST PUSH1 0x20 PUSH1 0x40 MLOAD DUP1 DUP4 SUB DUP2 PUSH1 0x0 DUP8 GAS CALL SWAP3 POP POP POP DUP1 ISZERO PUSH2 0x2F22 JUMPI POP PUSH1 0x40 MLOAD RETURNDATASIZE PUSH1 0x1F NOT PUSH1 0x1F DUP3 ADD AND DUP3 ADD DUP1 PUSH1 0x40 MSTORE POP DUP2 ADD SWAP1 PUSH2 0x2F1F SWAP2 SWAP1 PUSH2 0x4C7F JUMP JUMPDEST PUSH1 0x1 JUMPDEST PUSH2 0x2F35 JUMPI PUSH1 0x0 DUP7 SWAP5 POP SWAP5 POP POP POP POP PUSH2 0x2FC0 JUMP JUMPDEST POP DUP3 DUP7 PUSH2 0x2F42 SWAP2 SWAP1 PUSH2 0x48D0 JUMP JUMPDEST SWAP6 POP DUP2 ISZERO PUSH2 0x2FB5 JUMPI DUP3 DUP8 PUSH1 0xE0 ADD DUP2 DUP2 MLOAD PUSH2 0x2F5C SWAP2 SWAP1 PUSH2 0x48D0 JUMP JUMPDEST SWAP2 POP DUP2 DUP2 MSTORE POP POP PUSH1 0x0 PUSH2 0x2F7A DUP9 PUSH1 0xE0 ADD MLOAD DUP11 PUSH1 0x40 ADD MLOAD PUSH1 0xFF AND PUSH2 0x36D1 JUMP JUMPDEST SWAP1 POP PUSH1 0x0 PUSH2 0x2F90 DUP10 PUSH1 0xA0 ADD MLOAD PUSH1 0x12 PUSH1 0xFF AND PUSH2 0x36D1 JUMP JUMPDEST SWAP1 POP PUSH2 0x2FA9 PUSH2 0x2F9F DUP4 DUP4 PUSH2 0x36F6 JUMP JUMPDEST PUSH1 0x12 PUSH1 0xFF AND PUSH2 0x372D JUMP JUMPDEST DUP10 PUSH1 0xC0 ADD DUP2 DUP2 MSTORE POP POP POP POP JUMPDEST DUP2 ISZERO DUP7 SWAP5 POP SWAP5 POP POP POP POP JUMPDEST SWAP4 POP SWAP4 SWAP2 POP POP JUMP JUMPDEST PUSH1 0x0 DUP1 PUSH1 0x0 DUP1 DUP6 PUSH1 0xE0 ADD MLOAD DUP6 LT SWAP1 POP DUP1 ISZERO PUSH2 0x2FE5 JUMPI DUP5 SWAP2 POP PUSH2 0x2FED JUMP JUMPDEST DUP6 PUSH1 0xE0 ADD MLOAD SWAP2 POP JUMPDEST PUSH2 0x2FFB DUP7 PUSH1 0x0 ADD MLOAD DUP4 PUSH2 0x37E4 JUMP JUMPDEST ISZERO PUSH2 0x308D JUMPI DUP2 DUP6 PUSH2 0x300C SWAP2 SWAP1 PUSH2 0x48D0 JUMP JUMPDEST SWAP5 POP DUP1 ISZERO PUSH2 0x307F JUMPI DUP2 DUP7 PUSH1 0xE0 ADD DUP2 DUP2 MLOAD PUSH2 0x3026 SWAP2 SWAP1 PUSH2 0x48D0 JUMP JUMPDEST SWAP2 POP DUP2 DUP2 MSTORE POP POP PUSH1 0x0 PUSH2 0x3041 DUP8 PUSH1 0xE0 ADD MLOAD PUSH1 0x12 PUSH1 0xFF AND PUSH2 0x36D1 JUMP JUMPDEST SWAP1 POP PUSH1 0x0 PUSH2 0x3057 DUP9 PUSH1 0xA0 ADD MLOAD PUSH1 0x12 PUSH1 0xFF AND PUSH2 0x36D1 JUMP JUMPDEST SWAP1 POP PUSH2 0x3073 PUSH2 0x3066 DUP4 DUP4 PUSH2 0x36F6 JUMP JUMPDEST DUP11 PUSH1 0x40 ADD MLOAD PUSH1 0xFF AND PUSH2 0x372D JUMP JUMPDEST DUP9 PUSH1 0xC0 ADD DUP2 DUP2 MSTORE POP POP POP POP JUMPDEST PUSH1 0x1 DUP6 SWAP4 POP SWAP4 POP POP POP PUSH2 0x3097 JUMP JUMPDEST PUSH1 0x0 DUP6 SWAP4 POP SWAP4 POP POP POP JUMPDEST SWAP4 POP SWAP4 SWAP2 POP POP JUMP JUMPDEST PUSH1 0x0 PUSH1 0x1 DUP4 DUP1 SLOAD SWAP1 POP PUSH2 0x30B2 SWAP2 SWAP1 PUSH2 0x48D0 JUMP JUMPDEST SWAP1 POP DUP1 DUP3 EQ PUSH2 0x322E JUMPI DUP3 DUP2 DUP2 SLOAD DUP2 LT PUSH2 0x30CE JUMPI PUSH2 0x30CD PUSH2 0x4904 JUMP JUMPDEST JUMPDEST SWAP1 PUSH1 0x0 MSTORE PUSH1 0x20 PUSH1 0x0 KECCAK256 SWAP1 PUSH1 0x7 MUL ADD DUP4 DUP4 DUP2 SLOAD DUP2 LT PUSH2 0x30EF JUMPI PUSH2 0x30EE PUSH2 0x4904 JUMP JUMPDEST JUMPDEST SWAP1 PUSH1 0x0 MSTORE PUSH1 0x20 PUSH1 0x0 KECCAK256 SWAP1 PUSH1 0x7 MUL ADD PUSH1 0x0 DUP3 ADD PUSH1 0x0 SWAP1 SLOAD SWAP1 PUSH2 0x100 EXP SWAP1 DIV PUSH20 0xFFFFFFFFFFFFFFFFFFFFFFFFFFFFFFFFFFFFFFFF AND DUP2 PUSH1 0x0 ADD PUSH1 0x0 PUSH2 0x100 EXP DUP2 SLOAD DUP2 PUSH20 0xFFFFFFFFFFFFFFFFFFFFFFFFFFFFFFFFFFFFFFFF MUL NOT AND SWAP1 DUP4 PUSH20 0xFFFFFFFFFFFFFFFFFFFFFFFFFFFFFFFFFFFFFFFF AND MUL OR SWAP1 SSTORE POP PUSH1 0x1 DUP3 ADD PUSH1 0x0 SWAP1 SLOAD SWAP1 PUSH2 0x100 EXP SWAP1 DIV PUSH20 0xFFFFFFFFFFFFFFFFFFFFFFFFFFFFFFFFFFFFFFFF AND DUP2 PUSH1 0x1 ADD PUSH1 0x0 PUSH2 0x100 EXP DUP2 SLOAD DUP2 PUSH20 0xFFFFFFFFFFFFFFFFFFFFFFFFFFFFFFFFFFFFFFFF MUL NOT AND SWAP1 DUP4 PUSH20 0xFFFFFFFFFFFFFFFFFFFFFFFFFFFFFFFFFFFFFFFF AND MUL OR SWAP1 SSTORE POP PUSH1 0x1 DUP3 ADD PUSH1 0x14 SWAP1 SLOAD SWAP1 PUSH2 0x100 EXP SWAP1 DIV PUSH1 0xFF AND DUP2 PUSH1 0x1 ADD PUSH1 0x14 PUSH2 0x100 EXP DUP2 SLOAD DUP2 PUSH1 0xFF MUL NOT AND SWAP1 DUP4 ISZERO ISZERO MUL OR SWAP1 SSTORE POP PUSH1 0x2 DUP3 ADD SLOAD DUP2 PUSH1 0x2 ADD SSTORE PUSH1 0x3 DUP3 ADD SLOAD DUP2 PUSH1 0x3 ADD SSTORE PUSH1 0x4 DUP3 ADD SLOAD DUP2 PUSH1 0x4 ADD SSTORE PUSH1 0x5 DUP3 ADD SLOAD DUP2 PUSH1 0x5 ADD SSTORE PUSH1 0x6 DUP3 ADD SLOAD DUP2 PUSH1 0x6 ADD SSTORE SWAP1 POP POP JUMPDEST DUP3 DUP1 SLOAD DUP1 PUSH2 0x323F JUMPI PUSH2 0x323E PUSH2 0x4C04 JUMP JUMPDEST JUMPDEST PUSH1 0x1 SWAP1 SUB DUP2 DUP2 SWAP1 PUSH1 0x0 MSTORE PUSH1 0x20 PUSH1 0x0 KECCAK256 SWAP1 PUSH1 0x7 MUL ADD PUSH1 0x0 DUP1 DUP3 ADD PUSH1 0x0 PUSH2 0x100 EXP DUP2 SLOAD SWAP1 PUSH20 0xFFFFFFFFFFFFFFFFFFFFFFFFFFFFFFFFFFFFFFFF MUL NOT AND SWAP1 SSTORE PUSH1 0x1 DUP3 ADD PUSH1 0x0 PUSH2 0x100 EXP DUP2 SLOAD SWAP1 PUSH20 0xFFFFFFFFFFFFFFFFFFFFFFFFFFFFFFFFFFFFFFFF MUL NOT AND SWAP1 SSTORE PUSH1 0x1 DUP3 ADD PUSH1 0x14 PUSH2 0x100 EXP DUP2 SLOAD SWAP1 PUSH1 0xFF MUL NOT AND SWAP1 SSTORE PUSH1 0x2 DUP3 ADD PUSH1 0x0 SWAP1 SSTORE PUSH1 0x3 DUP3 ADD PUSH1 0x0 SWAP1 SSTORE PUSH1 0x4 DUP3 ADD PUSH1 0x0 SWAP1 SSTORE PUSH1 0x5 DUP3 ADD PUSH1 0x0 SWAP1 SSTORE PUSH1 0x6 DUP3 ADD PUSH1 0x0 SWAP1 SSTORE POP POP SWAP1 SSTORE POP POP POP JUMP JUMPDEST PUSH1 0x0 DUP1 SLOAD SWAP1 PUSH2 0x100 EXP SWAP1 DIV PUSH20 0xFFFFFFFFFFFFFFFFFFFFFFFFFFFFFFFFFFFFFFFF AND PUSH20 0xFFFFFFFFFFFFFFFFFFFFFFFFFFFFFFFFFFFFFFFF AND CALLER PUSH20 0xFFFFFFFFFFFFFFFFFFFFFFFFFFFFFFFFFFFFFFFF AND EQ PUSH2 0x3377 JUMPI CALLER PUSH1 0x40 MLOAD PUSH32 0x32B2BAA300000000000000000000000000000000000000000000000000000000 DUP2 MSTORE PUSH1 0x4 ADD PUSH2 0x336E SWAP2 SWAP1 PUSH2 0x4312 JUMP JUMPDEST PUSH1 0x40 MLOAD DUP1 SWAP2 SUB SWAP1 REVERT JUMPDEST JUMP JUMPDEST PUSH2 0x3381 PUSH2 0x3E71 JUMP JUMPDEST PUSH1 0x0 DUP3 EQ DUP1 PUSH2 0x3395 JUMPI POP PUSH1 0x2 DUP1 SLOAD SWAP1 POP DUP3 LT ISZERO JUMPDEST ISZERO PUSH2 0x33CC JUMPI PUSH1 0x40 MLOAD PUSH32 0xC5F0A1EE00000000000000000000000000000000000000000000000000000000 DUP2 MSTORE PUSH1 0x4 ADD PUSH1 0x40 MLOAD DUP1 SWAP2 SUB SWAP1 REVERT JUMPDEST PUSH1 0x2 PUSH1 0x1 DUP4 PUSH2 0x33DB SWAP2 SWAP1 PUSH2 0x48D0 JUMP JUMPDEST DUP2 SLOAD DUP2 LT PUSH2 0x33EC JUMPI PUSH2 0x33EB PUSH2 0x4904 JUMP JUMPDEST JUMPDEST SWAP1 PUSH1 0x0 MSTORE PUSH1 0x20 PUSH1 0x0 KECCAK256 SWAP1 PUSH1 0xD MUL ADD PUSH1 0x40 MLOAD DUP1 PUSH2 0x1C0 ADD PUSH1 0x40 MSTORE SWAP1 DUP2 PUSH1 0x0 DUP3 ADD DUP1 SLOAD PUSH2 0x3416 SWAP1 PUSH2 0x45F2 JUMP JUMPDEST DUP1 PUSH1 0x1F ADD PUSH1 0x20 DUP1 SWAP2 DIV MUL PUSH1 0x20 ADD PUSH1 0x40 MLOAD SWAP1 DUP2 ADD PUSH1 0x40 MSTORE DUP1 SWAP3 SWAP2 SWAP1 DUP2 DUP2 MSTORE PUSH1 0x20 ADD DUP3 DUP1 SLOAD PUSH2 0x3442 SWAP1 PUSH2 0x45F2 JUMP JUMPDEST DUP1 ISZERO PUSH2 0x348F JUMPI DUP1 PUSH1 0x1F LT PUSH2 0x3464 JUMPI PUSH2 0x100 DUP1 DUP4 SLOAD DIV MUL DUP4 MSTORE SWAP2 PUSH1 0x20 ADD SWAP2 PUSH2 0x348F JUMP JUMPDEST DUP3 ADD SWAP2 SWAP1 PUSH1 0x0 MSTORE PUSH1 0x20 PUSH1 0x0 KECCAK256 SWAP1 JUMPDEST DUP2 SLOAD DUP2 MSTORE SWAP1 PUSH1 0x1 ADD SWAP1 PUSH1 0x20 ADD DUP1 DUP4 GT PUSH2 0x3472 JUMPI DUP3 SWAP1 SUB PUSH1 0x1F AND DUP3 ADD SWAP2 JUMPDEST POP POP POP POP POP DUP2 MSTORE PUSH1 0x20 ADD PUSH1 0x1 DUP3 ADD DUP1 SLOAD PUSH2 0x34A8 SWAP1 PUSH2 0x45F2 JUMP JUMPDEST DUP1 PUSH1 0x1F ADD PUSH1 0x20 DUP1 SWAP2 DIV MUL PUSH1 0x20 ADD PUSH1 0x40 MLOAD SWAP1 DUP2 ADD PUSH1 0x40 MSTORE DUP1 SWAP3 SWAP2 SWAP1 DUP2 DUP2 MSTORE PUSH1 0x20 ADD DUP3 DUP1 SLOAD PUSH2 0x34D4 SWAP1 PUSH2 0x45F2 JUMP JUMPDEST DUP1 ISZERO PUSH2 0x3521 JUMPI DUP1 PUSH1 0x1F LT PUSH2 0x34F6 JUMPI PUSH2 0x100 DUP1 DUP4 SLOAD DIV MUL DUP4 MSTORE SWAP2 PUSH1 0x20 ADD SWAP2 PUSH2 0x3521 JUMP JUMPDEST DUP3 ADD SWAP2 SWAP1 PUSH1 0x0 MSTORE PUSH1 0x20 PUSH1 0x0 KECCAK256 SWAP1 JUMPDEST DUP2 SLOAD DUP2 MSTORE SWAP1 PUSH1 0x1 ADD SWAP1 PUSH1 0x20 ADD DUP1 DUP4 GT PUSH2 0x3504 JUMPI DUP3 SWAP1 SUB PUSH1 0x1F AND DUP3 ADD SWAP2 JUMPDEST POP POP POP POP POP DUP2 MSTORE PUSH1 0x20 ADD PUSH1 0x2 DUP3 ADD PUSH1 0x0 SWAP1 SLOAD SWAP1 PUSH2 0x100 EXP SWAP1 DIV PUSH1 0xFF AND PUSH1 0xFF AND PUSH1 0xFF AND DUP2 MSTORE PUSH1 0x20 ADD PUSH1 0x3 DUP3 ADD SLOAD DUP2 MSTORE PUSH1 0x20 ADD PUSH1 0x4 DUP3 ADD PUSH1 0x0 SWAP1 SLOAD SWAP1 PUSH2 0x100 EXP SWAP1 DIV PUSH20 0xFFFFFFFFFFFFFFFFFFFFFFFFFFFFFFFFFFFFFFFF AND PUSH20 0xFFFFFFFFFFFFFFFFFFFFFFFFFFFFFFFFFFFFFFFF AND PUSH20 0xFFFFFFFFFFFFFFFFFFFFFFFFFFFFFFFFFFFFFFFF AND DUP2 MSTORE PUSH1 0x20 ADD PUSH1 0x5 DUP3 ADD PUSH1 0x0 SWAP1 SLOAD SWAP1 PUSH2 0x100 EXP SWAP1 DIV PUSH20 0xFFFFFFFFFFFFFFFFFFFFFFFFFFFFFFFFFFFFFFFF AND PUSH20 0xFFFFFFFFFFFFFFFFFFFFFFFFFFFFFFFFFFFFFFFF AND PUSH20 0xFFFFFFFFFFFFFFFFFFFFFFFFFFFFFFFFFFFFFFFF AND DUP2 MSTORE PUSH1 0x20 ADD PUSH1 0x5 DUP3 ADD PUSH1 0x14 SWAP1 SLOAD SWAP1 PUSH2 0x100 EXP SWAP1 DIV PUSH1 0xFF AND PUSH1 0x1 DUP2 GT ISZERO PUSH2 0x3622 JUMPI PUSH2 0x3621 PUSH2 0x4130 JUMP JUMPDEST JUMPDEST PUSH1 0x1 DUP2 GT ISZERO PUSH2 0x3634 JUMPI PUSH2 0x3633 PUSH2 0x4130 JUMP JUMPDEST JUMPDEST DUP2 MSTORE PUSH1 0x20 ADD PUSH1 0x6 DUP3 ADD SLOAD DUP2 MSTORE PUSH1 0x20 ADD PUSH1 0x7 DUP3 ADD SLOAD DUP2 MSTORE PUSH1 0x20 ADD PUSH1 0x8 DUP3 ADD SLOAD DUP2 MSTORE PUSH1 0x20 ADD PUSH1 0x9 DUP3 ADD SLOAD DUP2 MSTORE PUSH1 0x20 ADD PUSH1 0xA DUP3 ADD SLOAD DUP2 MSTORE PUSH1 0x20 ADD PUSH1 0xB DUP3 ADD SLOAD DUP2 MSTORE PUSH1 0x20 ADD PUSH1 0xC DUP3 ADD PUSH1 0x0 SWAP1 SLOAD SWAP1 PUSH2 0x100 EXP SWAP1 DIV PUSH20 0xFFFFFFFFFFFFFFFFFFFFFFFFFFFFFFFFFFFFFFFF AND PUSH20 0xFFFFFFFFFFFFFFFFFFFFFFFFFFFFFFFFFFFFFFFF AND PUSH20 0xFFFFFFFFFFFFFFFFFFFFFFFFFFFFFFFFFFFFFFFF AND DUP2 MSTORE POP POP SWAP1 POP SWAP2 SWAP1 POP JUMP JUMPDEST PUSH1 0x0 PUSH1 0x1 DUP3 EQ PUSH2 0x36EC JUMPI DUP2 DUP4 PUSH2 0x36E7 SWAP2 SWAP1 PUSH2 0x4B62 JUMP JUMPDEST PUSH2 0x36EE JUMP JUMPDEST DUP3 JUMPDEST SWAP1 POP SWAP3 SWAP2 POP POP JUMP JUMPDEST PUSH1 0x0 DUP1 PUSH2 0x3702 DUP5 PUSH2 0x3AF4 JUMP JUMPDEST SWAP1 POP PUSH1 0x0 PUSH2 0x370F DUP5 PUSH2 0x3AF4 JUMP JUMPDEST SWAP1 POP PUSH2 0x3723 PUSH2 0x371E DUP4 DUP4 PUSH2 0x3AFE JUMP JUMPDEST PUSH2 0x3B33 JUMP JUMPDEST SWAP3 POP POP POP SWAP3 SWAP2 POP POP JUMP JUMPDEST PUSH1 0x0 PUSH1 0x1 DUP3 EQ PUSH2 0x3748 JUMPI DUP2 DUP4 PUSH2 0x3743 SWAP2 SWAP1 PUSH2 0x4BD3 JUMP JUMPDEST PUSH2 0x374A JUMP JUMPDEST DUP3 JUMPDEST SWAP1 POP SWAP3 SWAP2 POP POP JUMP JUMPDEST PUSH1 0x0 DUP4 PUSH20 0xFFFFFFFFFFFFFFFFFFFFFFFFFFFFFFFFFFFFFFFF AND PUSH4 0xA9059CBB DUP5 DUP5 PUSH1 0x40 MLOAD DUP4 PUSH4 0xFFFFFFFF AND PUSH1 0xE0 SHL DUP2 MSTORE PUSH1 0x4 ADD PUSH2 0x378F SWAP3 SWAP2 SWAP1 PUSH2 0x4D2A JUMP JUMPDEST PUSH1 0x20 PUSH1 0x40 MLOAD DUP1 DUP4 SUB DUP2 PUSH1 0x0 DUP8 GAS CALL SWAP3 POP POP POP DUP1 ISZERO PUSH2 0x37CB JUMPI POP PUSH1 0x40 MLOAD RETURNDATASIZE PUSH1 0x1F NOT PUSH1 0x1F DUP3 ADD AND DUP3 ADD DUP1 PUSH1 0x40 MSTORE POP DUP2 ADD SWAP1 PUSH2 0x37C8 SWAP2 SWAP1 PUSH2 0x4C7F JUMP JUMPDEST PUSH1 0x1 JUMPDEST PUSH2 0x37D8 JUMPI PUSH1 0x0 SWAP1 POP PUSH2 0x37DD JUMP JUMPDEST DUP1 SWAP2 POP POP JUMPDEST SWAP4 SWAP3 POP POP POP JUMP JUMPDEST PUSH1 0x0 DUP1 DUP4 PUSH20 0xFFFFFFFFFFFFFFFFFFFFFFFFFFFFFFFFFFFFFFFF AND DUP4 PUSH1 0x40 MLOAD PUSH2 0x380B SWAP1 PUSH2 0x4D84 JUMP JUMPDEST PUSH1 0x0 PUSH1 0x40 MLOAD DUP1 DUP4 SUB DUP2 DUP6 DUP8 GAS CALL SWAP3 POP POP POP RETURNDATASIZE DUP1 PUSH1 0x0 DUP2 EQ PUSH2 0x3848 JUMPI PUSH1 0x40 MLOAD SWAP2 POP PUSH1 0x1F NOT PUSH1 0x3F RETURNDATASIZE ADD AND DUP3 ADD PUSH1 0x40 MSTORE RETURNDATASIZE DUP3 MSTORE RETURNDATASIZE PUSH1 0x0 PUSH1 0x20 DUP5 ADD RETURNDATACOPY PUSH2 0x384D JUMP JUMPDEST PUSH1 0x60 SWAP2 POP JUMPDEST POP POP SWAP1 POP DUP1 SWAP2 POP POP SWAP3 SWAP2 POP POP JUMP JUMPDEST PUSH1 0x0 PUSH1 0x12 DUP3 SUB PUSH2 0x386E JUMPI PUSH1 0x1 SWAP1 POP PUSH2 0x3878 JUMP JUMPDEST DUP2 PUSH1 0x12 SUB PUSH1 0xA EXP SWAP1 POP JUMPDEST SWAP2 SWAP1 POP JUMP JUMPDEST PUSH1 0x0 DUP1 PUSH1 0x0 DUP1 PUSH1 0x0 DUP6 SWAP1 POP PUSH1 0x0 DUP1 PUSH1 0x0 DUP1 PUSH1 0x0 SWAP1 POP PUSH1 0x0 JUMPDEST DUP6 MLOAD DUP2 LT DUP1 ISZERO PUSH2 0x38A3 JUMPI POP DUP4 ISZERO JUMPDEST ISZERO PUSH2 0x39A7 JUMPI DUP6 DUP2 DUP2 MLOAD DUP2 LT PUSH2 0x38BB JUMPI PUSH2 0x38BA PUSH2 0x4904 JUMP JUMPDEST JUMPDEST PUSH1 0x20 ADD ADD MLOAD PUSH1 0xF8 SHR PUSH1 0xF8 SHL PUSH1 0xF8 SHR SWAP5 POP PUSH1 0x30 DUP6 PUSH1 0xFF AND LT ISZERO DUP1 ISZERO PUSH2 0x38E3 JUMPI POP PUSH1 0x39 DUP6 PUSH1 0xFF AND GT ISZERO JUMPDEST ISZERO PUSH2 0x395A JUMPI DUP7 SWAP8 POP DUP3 ISZERO PUSH2 0x3904 JUMPI DUP2 DUP1 PUSH2 0x38FC SWAP1 PUSH2 0x4D99 JUMP JUMPDEST SWAP3 POP POP PUSH2 0x3914 JUMP JUMPDEST PUSH1 0xA DUP8 PUSH2 0x3911 SWAP2 SWAP1 PUSH2 0x4B62 JUMP JUMPDEST SWAP7 POP JUMPDEST DUP2 PUSH1 0xA PUSH2 0x3921 SWAP2 SWAP1 PUSH2 0x4EF5 JUMP JUMPDEST PUSH1 0x30 DUP7 PUSH2 0x392E SWAP2 SWAP1 PUSH2 0x4F40 JUMP JUMPDEST PUSH1 0xFF AND PUSH2 0x393B SWAP2 SWAP1 PUSH2 0x4B62 JUMP JUMPDEST DUP8 PUSH2 0x3946 SWAP2 SWAP1 PUSH2 0x49A4 JUMP JUMPDEST SWAP7 POP DUP7 DUP9 GT ISZERO PUSH2 0x3955 JUMPI PUSH1 0x1 SWAP4 POP JUMPDEST PUSH2 0x3994 JUMP JUMPDEST PUSH1 0x2E DUP6 PUSH1 0xFF AND SUB PUSH2 0x3993 JUMPI DUP3 ISZERO PUSH2 0x3970 JUMPI PUSH1 0x1 SWAP4 POP JUMPDEST PUSH1 0x1 SWAP3 POP PUSH1 0x12 SWAP2 POP DUP2 PUSH1 0xA PUSH2 0x3985 SWAP2 SWAP1 PUSH2 0x4EF5 JUMP JUMPDEST DUP8 PUSH2 0x3990 SWAP2 SWAP1 PUSH2 0x4B62 JUMP JUMPDEST SWAP7 POP JUMPDEST JUMPDEST DUP1 DUP1 PUSH2 0x399F SWAP1 PUSH2 0x4933 JUMP JUMPDEST SWAP2 POP POP PUSH2 0x3895 JUMP JUMPDEST POP DUP2 PUSH2 0x39C4 JUMPI PUSH8 0xDE0B6B3A7640000 DUP7 PUSH2 0x39C1 SWAP2 SWAP1 PUSH2 0x4B62 JUMP JUMPDEST SWAP6 POP JUMPDEST DUP6 DUP4 SWAP9 POP SWAP9 POP POP POP POP POP POP POP POP SWAP2 POP SWAP2 JUMP JUMPDEST PUSH1 0xF0 PUSH1 0xA SLOAD TIMESTAMP PUSH2 0x39E6 SWAP2 SWAP1 PUSH2 0x48D0 JUMP JUMPDEST LT PUSH2 0x3ABB JUMPI TIMESTAMP PUSH1 0xA DUP2 SWAP1 SSTORE POP PUSH1 0x0 PUSH1 0x8 PUSH1 0x0 SWAP1 SLOAD SWAP1 PUSH2 0x100 EXP SWAP1 DIV PUSH20 0xFFFFFFFFFFFFFFFFFFFFFFFFFFFFFFFFFFFFFFFF AND SWAP1 POP PUSH1 0x0 DUP2 PUSH20 0xFFFFFFFFFFFFFFFFFFFFFFFFFFFFFFFFFFFFFFFF AND PUSH4 0x98D5FDCA PUSH1 0x40 MLOAD DUP2 PUSH4 0xFFFFFFFF AND PUSH1 0xE0 SHL DUP2 MSTORE PUSH1 0x4 ADD PUSH1 0x0 PUSH1 0x40 MLOAD DUP1 DUP4 SUB DUP2 DUP7 GAS STATICCALL ISZERO DUP1 ISZERO PUSH2 0x3A66 JUMPI RETURNDATASIZE PUSH1 0x0 DUP1 RETURNDATACOPY RETURNDATASIZE PUSH1 0x0 REVERT JUMPDEST POP POP POP POP PUSH1 0x40 MLOAD RETURNDATASIZE PUSH1 0x0 DUP3 RETURNDATACOPY RETURNDATASIZE PUSH1 0x1F NOT PUSH1 0x1F DUP3 ADD AND DUP3 ADD DUP1 PUSH1 0x40 MSTORE POP DUP2 ADD SWAP1 PUSH2 0x3A8F SWAP2 SWAP1 PUSH2 0x4B19 JUMP JUMPDEST SWAP1 POP PUSH1 0x0 DUP1 PUSH2 0x3A9D DUP4 PUSH2 0x387D JUMP JUMPDEST SWAP2 POP SWAP2 POP DUP1 ISZERO PUSH2 0x3AAF JUMPI DUP2 PUSH1 0x9 DUP2 SWAP1 SSTORE POP JUMPDEST TIMESTAMP PUSH1 0xA DUP2 SWAP1 SSTORE POP POP POP POP POP JUMPDEST JUMP JUMPDEST PUSH1 0x0 DUP1 PUSH2 0x3AC9 DUP5 PUSH2 0x3AF4 JUMP JUMPDEST SWAP1 POP PUSH1 0x0 PUSH2 0x3AD6 DUP5 PUSH2 0x3AF4 JUMP JUMPDEST SWAP1 POP PUSH2 0x3AEA PUSH2 0x3AE5 DUP4 DUP4 PUSH2 0x3B3D JUMP JUMPDEST PUSH2 0x3B33 JUMP JUMPDEST SWAP3 POP POP POP SWAP3 SWAP2 POP POP JUMP JUMPDEST PUSH1 0x0 DUP2 SWAP1 POP SWAP2 SWAP1 POP JUMP JUMPDEST PUSH1 0x0 PUSH2 0x3B2B PUSH2 0x3B26 PUSH2 0x3B0F DUP6 PUSH2 0x3B33 JUMP JUMPDEST PUSH8 0xDE0B6B3A7640000 PUSH2 0x3B21 DUP7 PUSH2 0x3B33 JUMP JUMPDEST PUSH2 0x3B69 JUMP JUMPDEST PUSH2 0x3AF4 JUMP JUMPDEST SWAP1 POP SWAP3 SWAP2 POP POP JUMP JUMPDEST PUSH1 0x0 DUP2 SWAP1 POP SWAP2 SWAP1 POP JUMP JUMPDEST PUSH1 0x0 PUSH2 0x3B61 PUSH2 0x3B5C PUSH2 0x3B4E DUP6 PUSH2 0x3B33 JUMP JUMPDEST PUSH2 0x3B57 DUP6 PUSH2 0x3B33 JUMP JUMPDEST PUSH2 0x3C83 JUMP JUMPDEST PUSH2 0x3AF4 JUMP JUMPDEST SWAP1 POP SWAP3 SWAP2 POP POP JUMP JUMPDEST PUSH1 0x0 DUP1 PUSH1 0x0 DUP1 NOT DUP6 DUP8 MULMOD DUP6 DUP8 MUL SWAP3 POP DUP3 DUP2 LT DUP4 DUP3 SUB SUB SWAP2 POP POP PUSH1 0x0 DUP2 SUB PUSH2 0x3BA4 JUMPI DUP4 DUP3 DUP2 PUSH2 0x3B9A JUMPI PUSH2 0x3B99 PUSH2 0x4BA4 JUMP JUMPDEST JUMPDEST DIV SWAP3 POP POP POP PUSH2 0x3C7C JUMP JUMPDEST DUP4 DUP2 LT PUSH2 0x3BEC JUMPI DUP6 DUP6 DUP6 PUSH1 0x40 MLOAD PUSH32 0x63A0577800000000000000000000000000000000000000000000000000000000 DUP2 MSTORE PUSH1 0x4 ADD PUSH2 0x3BE3 SWAP4 SWAP3 SWAP2 SWAP1 PUSH2 0x4F75 JUMP JUMPDEST PUSH1 0x40 MLOAD DUP1 SWAP2 SUB SWAP1 REVERT JUMPDEST PUSH1 0x0 DUP5 DUP7 DUP9 MULMOD SWAP1 POP DUP3 DUP2 GT DUP3 SUB SWAP2 POP DUP1 DUP4 SUB SWAP3 POP PUSH1 0x0 PUSH1 0x1 DUP7 NOT ADD DUP7 AND SWAP1 POP PUSH1 0x0 DUP2 DUP8 DIV SWAP7 POP DUP2 DUP6 DIV SWAP5 POP PUSH1 0x1 DUP3 DUP4 PUSH1 0x0 SUB DIV ADD SWAP1 POP DUP1 DUP5 MUL DUP6 OR SWAP5 POP PUSH1 0x0 PUSH1 0x2 DUP9 PUSH1 0x3 MUL XOR SWAP1 POP DUP1 DUP9 MUL PUSH1 0x2 SUB DUP2 MUL SWAP1 POP DUP1 DUP9 MUL PUSH1 0x2 SUB DUP2 MUL SWAP1 POP DUP1 DUP9 MUL PUSH1 0x2 SUB DUP2 MUL SWAP1 POP DUP1 DUP9 MUL PUSH1 0x2 SUB DUP2 MUL SWAP1 POP DUP1 DUP9 MUL PUSH1 0x2 SUB DUP2 MUL SWAP1 POP DUP1 DUP9 MUL PUSH1 0x2 SUB DUP2 MUL SWAP1 POP DUP1 DUP7 MUL SWAP7 POP POP POP POP POP POP POP JUMPDEST SWAP4 SWAP3 POP POP POP JUMP JUMPDEST PUSH1 0x0 DUP1 PUSH1 0x0 DUP1 NOT DUP5 DUP7 MULMOD DUP5 DUP7 MUL SWAP3 POP DUP3 DUP2 LT DUP4 DUP3 SUB SUB SWAP2 POP POP PUSH1 0x0 DUP2 SUB PUSH2 0x3CC6 JUMPI PUSH8 0xDE0B6B3A7640000 DUP3 DUP2 PUSH2 0x3CBC JUMPI PUSH2 0x3CBB PUSH2 0x4BA4 JUMP JUMPDEST JUMPDEST DIV SWAP3 POP POP POP PUSH2 0x3D67 JUMP JUMPDEST PUSH8 0xDE0B6B3A7640000 DUP2 LT PUSH2 0x3D14 JUMPI DUP5 DUP5 PUSH1 0x40 MLOAD PUSH32 0x5173648D00000000000000000000000000000000000000000000000000000000 DUP2 MSTORE PUSH1 0x4 ADD PUSH2 0x3D0B SWAP3 SWAP2 SWAP1 PUSH2 0x4FAC JUMP JUMPDEST PUSH1 0x40 MLOAD DUP1 SWAP2 SUB SWAP1 REVERT JUMPDEST PUSH1 0x0 PUSH8 0xDE0B6B3A7640000 DUP6 DUP8 MULMOD SWAP1 POP PUSH32 0xACCB18165BD6FE31AE1CF318DC5B51EEE0E1BA569B88CD74C1773B91FAC10669 PUSH1 0x1 PUSH3 0x40000 DUP1 PUSH1 0x0 SUB DIV ADD DUP5 DUP4 GT DUP5 SUB MUL PUSH3 0x40000 DUP4 DUP7 SUB DIV OR MUL SWAP4 POP POP POP POP JUMPDEST SWAP3 SWAP2 POP POP JUMP JUMPDEST PUSH1 0x40 MLOAD DUP1 PUSH2 0x140 ADD PUSH1 0x40 MSTORE DUP1 PUSH1 0x0 DUP2 MSTORE PUSH1 0x20 ADD PUSH1 0x60 DUP2 MSTORE PUSH1 0x20 ADD PUSH1 0x60 DUP2 MSTORE PUSH1 0x20 ADD PUSH1 0x0 PUSH20 0xFFFFFFFFFFFFFFFFFFFFFFFFFFFFFFFFFFFFFFFF AND DUP2 MSTORE PUSH1 0x20 ADD PUSH1 0x0 PUSH20 0xFFFFFFFFFFFFFFFFFFFFFFFFFFFFFFFFFFFFFFFF AND DUP2 MSTORE PUSH1 0x20 ADD PUSH1 0x0 DUP2 MSTORE PUSH1 0x20 ADD PUSH1 0x0 DUP2 MSTORE PUSH1 0x20 ADD PUSH1 0x0 PUSH1 0x1 DUP2 GT ISZERO PUSH2 0x3DEA JUMPI PUSH2 0x3DE9 PUSH2 0x4130 JUMP JUMPDEST JUMPDEST DUP2 MSTORE PUSH1 0x20 ADD PUSH1 0x0 DUP2 MSTORE PUSH1 0x20 ADD PUSH1 0x0 DUP2 MSTORE POP SWAP1 JUMP JUMPDEST PUSH1 0x40 MLOAD DUP1 PUSH2 0x100 ADD PUSH1 0x40 MSTORE DUP1 PUSH1 0x0 PUSH20 0xFFFFFFFFFFFFFFFFFFFFFFFFFFFFFFFFFFFFFFFF AND DUP2 MSTORE PUSH1 0x20 ADD PUSH1 0x0 PUSH20 0xFFFFFFFFFFFFFFFFFFFFFFFFFFFFFFFFFFFFFFFF AND DUP2 MSTORE PUSH1 0x20 ADD PUSH1 0x0 ISZERO ISZERO DUP2 MSTORE PUSH1 0x20 ADD PUSH1 0x0 DUP2 MSTORE PUSH1 0x20 ADD PUSH1 0x0 DUP2 MSTORE PUSH1 0x20 ADD PUSH1 0x0 DUP2 MSTORE PUSH1 0x20 ADD PUSH1 0x0 DUP2 MSTORE PUSH1 0x20 ADD PUSH1 0x0 DUP2 MSTORE POP SWAP1 JUMP JUMPDEST PUSH1 0x40 MLOAD DUP1 PUSH2 0x1C0 ADD PUSH1 0x40 MSTORE DUP1 PUSH1 0x60 DUP2 MSTORE PUSH1 0x20 ADD PUSH1 0x60 DUP2 MSTORE PUSH1 0x20 ADD PUSH1 0x0 PUSH1 0xFF AND DUP2 MSTORE PUSH1 0x20 ADD PUSH1 0x0 DUP2 MSTORE PUSH1 0x20 ADD PUSH1 0x0 PUSH20 0xFFFFFFFFFFFFFFFFFFFFFFFFFFFFFFFFFFFFFFFF AND DUP2 MSTORE PUSH1 0x20 ADD PUSH1 0x0 PUSH20 0xFFFFFFFFFFFFFFFFFFFFFFFFFFFFFFFFFFFFFFFF AND DUP2 MSTORE PUSH1 0x20 ADD PUSH1 0x0 PUSH1 0x1 DUP2 GT ISZERO PUSH2 0x3EEA JUMPI PUSH2 0x3EE9 PUSH2 0x4130 JUMP JUMPDEST JUMPDEST DUP2 MSTORE PUSH1 0x20 ADD PUSH1 0x0 DUP2 MSTORE PUSH1 0x20 ADD PUSH1 0x0 DUP2 MSTORE PUSH1 0x20 ADD PUSH1 0x0 DUP2 MSTORE PUSH1 0x20 ADD PUSH1 0x0 DUP2 MSTORE PUSH1 0x20 ADD PUSH1 0x0 DUP2 MSTORE PUSH1 0x20 ADD PUSH1 0x0 DUP2 MSTORE PUSH1 0x20 ADD PUSH1 0x0 PUSH20 0xFFFFFFFFFFFFFFFFFFFFFFFFFFFFFFFFFFFFFFFF AND DUP2 MSTORE POP SWAP1 JUMP JUMPDEST PUSH1 0x0 DUP2 SWAP1 POP SWAP2 SWAP1 POP JUMP JUMPDEST PUSH2 0x3F4A DUP2 PUSH2 0x3F37 JUMP JUMPDEST DUP3 MSTORE POP POP JUMP JUMPDEST PUSH1 0x0 PUSH1 0x20 DUP3 ADD SWAP1 POP PUSH2 0x3F65 PUSH1 0x0 DUP4 ADD DUP5 PUSH2 0x3F41 JUMP JUMPDEST SWAP3 SWAP2 POP POP JUMP JUMPDEST PUSH1 0x0 PUSH1 0x40 MLOAD SWAP1 POP SWAP1 JUMP JUMPDEST PUSH1 0x0 DUP1 REVERT JUMPDEST PUSH1 0x0 DUP1 REVERT JUMPDEST PUSH1 0x0 PUSH20 0xFFFFFFFFFFFFFFFFFFFFFFFFFFFFFFFFFFFFFFFF DUP3 AND SWAP1 POP SWAP2 SWAP1 POP JUMP JUMPDEST PUSH1 0x0 PUSH2 0x3FAA DUP3 PUSH2 0x3F7F JUMP JUMPDEST SWAP1 POP SWAP2 SWAP1 POP JUMP JUMPDEST PUSH2 0x3FBA DUP2 PUSH2 0x3F9F JUMP JUMPDEST DUP2 EQ PUSH2 0x3FC5 JUMPI PUSH1 0x0 DUP1 REVERT JUMPDEST POP JUMP JUMPDEST PUSH1 0x0 DUP2 CALLDATALOAD SWAP1 POP PUSH2 0x3FD7 DUP2 PUSH2 0x3FB1 JUMP JUMPDEST SWAP3 SWAP2 POP POP JUMP JUMPDEST PUSH1 0x0 DUP2 ISZERO ISZERO SWAP1 POP SWAP2 SWAP1 POP JUMP JUMPDEST PUSH2 0x3FF2 DUP2 PUSH2 0x3FDD JUMP JUMPDEST DUP2 EQ PUSH2 0x3FFD JUMPI PUSH1 0x0 DUP1 REVERT JUMPDEST POP JUMP JUMPDEST PUSH1 0x0 DUP2 CALLDATALOAD SWAP1 POP PUSH2 0x400F DUP2 PUSH2 0x3FE9 JUMP JUMPDEST SWAP3 SWAP2 POP POP JUMP JUMPDEST PUSH1 0x0 DUP1 PUSH1 0x40 DUP4 DUP6 SUB SLT ISZERO PUSH2 0x402C JUMPI PUSH2 0x402B PUSH2 0x3F75 JUMP JUMPDEST JUMPDEST PUSH1 0x0 PUSH2 0x403A DUP6 DUP3 DUP7 ADD PUSH2 0x3FC8 JUMP JUMPDEST SWAP3 POP POP PUSH1 0x20 PUSH2 0x404B DUP6 DUP3 DUP7 ADD PUSH2 0x4000 JUMP JUMPDEST SWAP2 POP POP SWAP3 POP SWAP3 SWAP1 POP JUMP JUMPDEST PUSH1 0x0 PUSH1 0x20 DUP3 DUP5 SUB SLT ISZERO PUSH2 0x406B JUMPI PUSH2 0x406A PUSH2 0x3F75 JUMP JUMPDEST JUMPDEST PUSH1 0x0 PUSH2 0x4079 DUP5 DUP3 DUP6 ADD PUSH2 0x3FC8 JUMP JUMPDEST SWAP2 POP POP SWAP3 SWAP2 POP POP JUMP JUMPDEST PUSH2 0x408B DUP2 PUSH2 0x3F37 JUMP JUMPDEST DUP3 MSTORE POP POP JUMP JUMPDEST PUSH1 0x0 DUP2 MLOAD SWAP1 POP SWAP2 SWAP1 POP JUMP JUMPDEST PUSH1 0x0 DUP3 DUP3 MSTORE PUSH1 0x20 DUP3 ADD SWAP1 POP SWAP3 SWAP2 POP POP JUMP JUMPDEST PUSH1 0x0 JUMPDEST DUP4 DUP2 LT ISZERO PUSH2 0x40CB JUMPI DUP1 DUP3 ADD MLOAD DUP2 DUP5 ADD MSTORE PUSH1 0x20 DUP2 ADD SWAP1 POP PUSH2 0x40B0 JUMP JUMPDEST PUSH1 0x0 DUP5 DUP5 ADD MSTORE POP POP POP POP JUMP JUMPDEST PUSH1 0x0 PUSH1 0x1F NOT PUSH1 0x1F DUP4 ADD AND SWAP1 POP SWAP2 SWAP1 POP JUMP JUMPDEST PUSH1 0x0 PUSH2 0x40F3 DUP3 PUSH2 0x4091 JUMP JUMPDEST PUSH2 0x40FD DUP2 DUP6 PUSH2 0x409C JUMP JUMPDEST SWAP4 POP PUSH2 0x410D DUP2 DUP6 PUSH1 0x20 DUP7 ADD PUSH2 0x40AD JUMP JUMPDEST PUSH2 0x4116 DUP2 PUSH2 0x40D7 JUMP JUMPDEST DUP5 ADD SWAP2 POP POP SWAP3 SWAP2 POP POP JUMP JUMPDEST PUSH2 0x412A DUP2 PUSH2 0x3F9F JUMP JUMPDEST DUP3 MSTORE POP POP JUMP JUMPDEST PUSH32 0x4E487B7100000000000000000000000000000000000000000000000000000000 PUSH1 0x0 MSTORE PUSH1 0x21 PUSH1 0x4 MSTORE PUSH1 0x24 PUSH1 0x0 REVERT JUMPDEST PUSH1 0x2 DUP2 LT PUSH2 0x4170 JUMPI PUSH2 0x416F PUSH2 0x4130 JUMP JUMPDEST JUMPDEST POP JUMP JUMPDEST PUSH1 0x0 DUP2 SWAP1 POP PUSH2 0x4181 DUP3 PUSH2 0x415F JUMP JUMPDEST SWAP2 SWAP1 POP JUMP JUMPDEST PUSH1 0x0 PUSH2 0x4191 DUP3 PUSH2 0x4173 JUMP JUMPDEST SWAP1 POP SWAP2 SWAP1 POP JUMP JUMPDEST PUSH2 0x41A1 DUP2 PUSH2 0x4186 JUMP JUMPDEST DUP3 MSTORE POP POP JUMP JUMPDEST PUSH1 0x0 PUSH2 0x140 DUP4 ADD PUSH1 0x0 DUP4 ADD MLOAD PUSH2 0x41C0 PUSH1 0x0 DUP7 ADD DUP3 PUSH2 0x4082 JUMP JUMPDEST POP PUSH1 0x20 DUP4 ADD MLOAD DUP5 DUP3 SUB PUSH1 0x20 DUP7 ADD MSTORE PUSH2 0x41D8 DUP3 DUP3 PUSH2 0x40E8 JUMP JUMPDEST SWAP2 POP POP PUSH1 0x40 DUP4 ADD MLOAD DUP5 DUP3 SUB PUSH1 0x40 DUP7 ADD MSTORE PUSH2 0x41F2 DUP3 DUP3 PUSH2 0x40E8 JUMP JUMPDEST SWAP2 POP POP PUSH1 0x60 DUP4 ADD MLOAD PUSH2 0x4207 PUSH1 0x60 DUP7 ADD DUP3 PUSH2 0x4121 JUMP JUMPDEST POP PUSH1 0x80 DUP4 ADD MLOAD PUSH2 0x421A PUSH1 0x80 DUP7 ADD DUP3 PUSH2 0x4121 JUMP JUMPDEST POP PUSH1 0xA0 DUP4 ADD MLOAD PUSH2 0x422D PUSH1 0xA0 DUP7 ADD DUP3 PUSH2 0x4082 JUMP JUMPDEST POP PUSH1 0xC0 DUP4 ADD MLOAD PUSH2 0x4240 PUSH1 0xC0 DUP7 ADD DUP3 PUSH2 0x4082 JUMP JUMPDEST POP PUSH1 0xE0 DUP4 ADD MLOAD PUSH2 0x4253 PUSH1 0xE0 DUP7 ADD DUP3 PUSH2 0x4198 JUMP JUMPDEST POP PUSH2 0x100 DUP4 ADD MLOAD PUSH2 0x4268 PUSH2 0x100 DUP7 ADD DUP3 PUSH2 0x4082 JUMP JUMPDEST POP PUSH2 0x120 DUP4 ADD MLOAD PUSH2 0x427D PUSH2 0x120 DUP7 ADD DUP3 PUSH2 0x4082 JUMP JUMPDEST POP DUP1 SWAP2 POP POP SWAP3 SWAP2 POP POP JUMP JUMPDEST PUSH1 0x0 PUSH1 0x20 DUP3 ADD SWAP1 POP DUP2 DUP2 SUB PUSH1 0x0 DUP4 ADD MSTORE PUSH2 0x42A2 DUP2 DUP5 PUSH2 0x41A7 JUMP JUMPDEST SWAP1 POP SWAP3 SWAP2 POP POP JUMP JUMPDEST PUSH2 0x42B3 DUP2 PUSH2 0x3F37 JUMP JUMPDEST DUP2 EQ PUSH2 0x42BE JUMPI PUSH1 0x0 DUP1 REVERT JUMPDEST POP JUMP JUMPDEST PUSH1 0x0 DUP2 CALLDATALOAD SWAP1 POP PUSH2 0x42D0 DUP2 PUSH2 0x42AA JUMP JUMPDEST SWAP3 SWAP2 POP POP JUMP JUMPDEST PUSH1 0x0 PUSH1 0x20 DUP3 DUP5 SUB SLT ISZERO PUSH2 0x42EC JUMPI PUSH2 0x42EB PUSH2 0x3F75 JUMP JUMPDEST JUMPDEST PUSH1 0x0 PUSH2 0x42FA DUP5 DUP3 DUP6 ADD PUSH2 0x42C1 JUMP JUMPDEST SWAP2 POP POP SWAP3 SWAP2 POP POP JUMP JUMPDEST PUSH2 0x430C DUP2 PUSH2 0x3F9F JUMP JUMPDEST DUP3 MSTORE POP POP JUMP JUMPDEST PUSH1 0x0 PUSH1 0x20 DUP3 ADD SWAP1 POP PUSH2 0x4327 PUSH1 0x0 DUP4 ADD DUP5 PUSH2 0x4303 JUMP JUMPDEST SWAP3 SWAP2 POP POP JUMP JUMPDEST PUSH1 0x2 DUP2 LT PUSH2 0x433A JUMPI PUSH1 0x0 DUP1 REVERT JUMPDEST POP JUMP JUMPDEST PUSH1 0x0 DUP2 CALLDATALOAD SWAP1 POP PUSH2 0x434C DUP2 PUSH2 0x432D JUMP JUMPDEST SWAP3 SWAP2 POP POP JUMP JUMPDEST PUSH1 0x0 DUP1 REVERT JUMPDEST PUSH1 0x0 DUP1 REVERT JUMPDEST PUSH32 0x4E487B7100000000000000000000000000000000000000000000000000000000 PUSH1 0x0 MSTORE PUSH1 0x41 PUSH1 0x4 MSTORE PUSH1 0x24 PUSH1 0x0 REVERT JUMPDEST PUSH2 0x4394 DUP3 PUSH2 0x40D7 JUMP JUMPDEST DUP2 ADD DUP2 DUP2 LT PUSH8 0xFFFFFFFFFFFFFFFF DUP3 GT OR ISZERO PUSH2 0x43B3 JUMPI PUSH2 0x43B2 PUSH2 0x435C JUMP JUMPDEST JUMPDEST DUP1 PUSH1 0x40 MSTORE POP POP POP JUMP JUMPDEST PUSH1 0x0 PUSH2 0x43C6 PUSH2 0x3F6B JUMP JUMPDEST SWAP1 POP PUSH2 0x43D2 DUP3 DUP3 PUSH2 0x438B JUMP JUMPDEST SWAP2 SWAP1 POP JUMP JUMPDEST PUSH1 0x0 PUSH8 0xFFFFFFFFFFFFFFFF DUP3 GT ISZERO PUSH2 0x43F2 JUMPI PUSH2 0x43F1 PUSH2 0x435C JUMP JUMPDEST JUMPDEST PUSH2 0x43FB DUP3 PUSH2 0x40D7 JUMP JUMPDEST SWAP1 POP PUSH1 0x20 DUP2 ADD SWAP1 POP SWAP2 SWAP1 POP JUMP JUMPDEST DUP3 DUP2 DUP4 CALLDATACOPY PUSH1 0x0 DUP4 DUP4 ADD MSTORE POP POP POP JUMP JUMPDEST PUSH1 0x0 PUSH2 0x442A PUSH2 0x4425 DUP5 PUSH2 0x43D7 JUMP JUMPDEST PUSH2 0x43BC JUMP JUMPDEST SWAP1 POP DUP3 DUP2 MSTORE PUSH1 0x20 DUP2 ADD DUP5 DUP5 DUP5 ADD GT ISZERO PUSH2 0x4446 JUMPI PUSH2 0x4445 PUSH2 0x4357 JUMP JUMPDEST JUMPDEST PUSH2 0x4451 DUP5 DUP3 DUP6 PUSH2 0x4408 JUMP JUMPDEST POP SWAP4 SWAP3 POP POP POP JUMP JUMPDEST PUSH1 0x0 DUP3 PUSH1 0x1F DUP4 ADD SLT PUSH2 0x446E JUMPI PUSH2 0x446D PUSH2 0x4352 JUMP JUMPDEST JUMPDEST DUP2 CALLDATALOAD PUSH2 0x447E DUP5 DUP3 PUSH1 0x20 DUP7 ADD PUSH2 0x4417 JUMP JUMPDEST SWAP2 POP POP SWAP3 SWAP2 POP POP JUMP JUMPDEST PUSH1 0x0 DUP1 PUSH1 0x0 DUP1 PUSH1 0x0 DUP1 PUSH1 0xC0 DUP8 DUP10 SUB SLT ISZERO PUSH2 0x44A4 JUMPI PUSH2 0x44A3 PUSH2 0x3F75 JUMP JUMPDEST JUMPDEST PUSH1 0x0 PUSH2 0x44B2 DUP10 DUP3 DUP11 ADD PUSH2 0x3FC8 JUMP JUMPDEST SWAP7 POP POP PUSH1 0x20 PUSH2 0x44C3 DUP10 DUP3 DUP11 ADD PUSH2 0x433D JUMP JUMPDEST SWAP6 POP POP PUSH1 0x40 PUSH2 0x44D4 DUP10 DUP3 DUP11 ADD PUSH2 0x42C1 JUMP JUMPDEST SWAP5 POP POP PUSH1 0x60 PUSH2 0x44E5 DUP10 DUP3 DUP11 ADD PUSH2 0x42C1 JUMP JUMPDEST SWAP4 POP POP PUSH1 0x80 PUSH2 0x44F6 DUP10 DUP3 DUP11 ADD PUSH2 0x3FC8 JUMP JUMPDEST SWAP3 POP POP PUSH1 0xA0 DUP8 ADD CALLDATALOAD PUSH8 0xFFFFFFFFFFFFFFFF DUP2 GT ISZERO PUSH2 0x4517 JUMPI PUSH2 0x4516 PUSH2 0x3F7A JUMP JUMPDEST JUMPDEST PUSH2 0x4523 DUP10 DUP3 DUP11 ADD PUSH2 0x4459 JUMP JUMPDEST SWAP2 POP POP SWAP3 SWAP6 POP SWAP3 SWAP6 POP SWAP3 SWAP6 JUMP JUMPDEST PUSH1 0x0 DUP1 PUSH1 0x40 DUP4 DUP6 SUB SLT ISZERO PUSH2 0x4547 JUMPI PUSH2 0x4546 PUSH2 0x3F75 JUMP JUMPDEST JUMPDEST PUSH1 0x0 PUSH2 0x4555 DUP6 DUP3 DUP7 ADD PUSH2 0x3FC8 JUMP JUMPDEST SWAP3 POP POP PUSH1 0x20 PUSH2 0x4566 DUP6 DUP3 DUP7 ADD PUSH2 0x42C1 JUMP JUMPDEST SWAP2 POP POP SWAP3 POP SWAP3 SWAP1 POP JUMP JUMPDEST PUSH1 0x0 DUP1 PUSH1 0x0 PUSH1 0x60 DUP5 DUP7 SUB SLT ISZERO PUSH2 0x4589 JUMPI PUSH2 0x4588 PUSH2 0x3F75 JUMP JUMPDEST JUMPDEST PUSH1 0x0 PUSH2 0x4597 DUP7 DUP3 DUP8 ADD PUSH2 0x3FC8 JUMP JUMPDEST SWAP4 POP POP PUSH1 0x20 PUSH2 0x45A8 DUP7 DUP3 DUP8 ADD PUSH2 0x3FC8 JUMP JUMPDEST SWAP3 POP POP PUSH1 0x40 PUSH2 0x45B9 DUP7 DUP3 DUP8 ADD PUSH2 0x42C1 JUMP JUMPDEST SWAP2 POP POP SWAP3 POP SWAP3 POP SWAP3 JUMP JUMPDEST PUSH32 0x4E487B7100000000000000000000000000000000000000000000000000000000 PUSH1 0x0 MSTORE PUSH1 0x22 PUSH1 0x4 MSTORE PUSH1 0x24 PUSH1 0x0 REVERT JUMPDEST PUSH1 0x0 PUSH1 0x2 DUP3 DIV SWAP1 POP PUSH1 0x1 DUP3 AND DUP1 PUSH2 0x460A JUMPI PUSH1 0x7F DUP3 AND SWAP2 POP JUMPDEST PUSH1 0x20 DUP3 LT DUP2 SUB PUSH2 0x461D JUMPI PUSH2 0x461C PUSH2 0x45C3 JUMP JUMPDEST JUMPDEST POP SWAP2 SWAP1 POP JUMP JUMPDEST PUSH1 0x0 DUP2 SWAP1 POP DUP2 PUSH1 0x0 MSTORE PUSH1 0x20 PUSH1 0x0 KECCAK256 SWAP1 POP SWAP2 SWAP1 POP JUMP JUMPDEST PUSH1 0x0 PUSH1 0x20 PUSH1 0x1F DUP4 ADD DIV SWAP1 POP SWAP2 SWAP1 POP JUMP JUMPDEST PUSH1 0x0 DUP3 DUP3 SHL SWAP1 POP SWAP3 SWAP2 POP POP JUMP JUMPDEST PUSH1 0x0 PUSH1 0x8 DUP4 MUL PUSH2 0x4685 PUSH32 0xFFFFFFFFFFFFFFFFFFFFFFFFFFFFFFFFFFFFFFFFFFFFFFFFFFFFFFFFFFFFFFFF DUP3 PUSH2 0x4648 JUMP JUMPDEST PUSH2 0x468F DUP7 DUP4 PUSH2 0x4648 JUMP JUMPDEST SWAP6 POP DUP1 NOT DUP5 AND SWAP4 POP DUP1 DUP7 AND DUP5 OR SWAP3 POP POP POP SWAP4 SWAP3 POP POP POP JUMP JUMPDEST PUSH1 0x0 DUP2 SWAP1 POP SWAP2 SWAP1 POP JUMP JUMPDEST PUSH1 0x0 PUSH2 0x46CC PUSH2 0x46C7 PUSH2 0x46C2 DUP5 PUSH2 0x3F37 JUMP JUMPDEST PUSH2 0x46A7 JUMP JUMPDEST PUSH2 0x3F37 JUMP JUMPDEST SWAP1 POP SWAP2 SWAP1 POP JUMP JUMPDEST PUSH1 0x0 DUP2 SWAP1 POP SWAP2 SWAP1 POP JUMP JUMPDEST PUSH2 0x46E6 DUP4 PUSH2 0x46B1 JUMP JUMPDEST PUSH2 0x46FA PUSH2 0x46F2 DUP3 PUSH2 0x46D3 JUMP JUMPDEST DUP5 DUP5 SLOAD PUSH2 0x4655 JUMP JUMPDEST DUP3 SSTORE POP POP POP POP JUMP JUMPDEST PUSH1 0x0 SWAP1 JUMP JUMPDEST PUSH2 0x470F PUSH2 0x4702 JUMP JUMPDEST PUSH2 0x471A DUP2 DUP5 DUP5 PUSH2 0x46DD JUMP JUMPDEST POP POP POP JUMP JUMPDEST JUMPDEST DUP2 DUP2 LT ISZERO PUSH2 0x473E JUMPI PUSH2 0x4733 PUSH1 0x0 DUP3 PUSH2 0x4707 JUMP JUMPDEST PUSH1 0x1 DUP2 ADD SWAP1 POP PUSH2 0x4720 JUMP JUMPDEST POP POP JUMP JUMPDEST PUSH1 0x1F DUP3 GT ISZERO PUSH2 0x4783 JUMPI PUSH2 0x4754 DUP2 PUSH2 0x4623 JUMP JUMPDEST PUSH2 0x475D DUP5 PUSH2 0x4638 JUMP JUMPDEST DUP2 ADD PUSH1 0x20 DUP6 LT ISZERO PUSH2 0x476C JUMPI DUP2 SWAP1 POP JUMPDEST PUSH2 0x4780 PUSH2 0x4778 DUP6 PUSH2 0x4638 JUMP JUMPDEST DUP4 ADD DUP3 PUSH2 0x471F JUMP JUMPDEST POP POP JUMPDEST POP POP POP JUMP JUMPDEST PUSH1 0x0 DUP3 DUP3 SHR SWAP1 POP SWAP3 SWAP2 POP POP JUMP JUMPDEST PUSH1 0x0 PUSH2 0x47A6 PUSH1 0x0 NOT DUP5 PUSH1 0x8 MUL PUSH2 0x4788 JUMP JUMPDEST NOT DUP1 DUP4 AND SWAP2 POP POP SWAP3 SWAP2 POP POP JUMP JUMPDEST PUSH1 0x0 PUSH2 0x47BF DUP4 DUP4 PUSH2 0x4795 JUMP JUMPDEST SWAP2 POP DUP3 PUSH1 0x2 MUL DUP3 OR SWAP1 POP SWAP3 SWAP2 POP POP JUMP JUMPDEST PUSH2 0x47D8 DUP3 PUSH2 0x4091 JUMP JUMPDEST PUSH8 0xFFFFFFFFFFFFFFFF DUP2 GT ISZERO PUSH2 0x47F1 JUMPI PUSH2 0x47F0 PUSH2 0x435C JUMP JUMPDEST JUMPDEST PUSH2 0x47FB DUP3 SLOAD PUSH2 0x45F2 JUMP JUMPDEST PUSH2 0x4806 DUP3 DUP3 DUP6 PUSH2 0x4742 JUMP JUMPDEST PUSH1 0x0 PUSH1 0x20 SWAP1 POP PUSH1 0x1F DUP4 GT PUSH1 0x1 DUP2 EQ PUSH2 0x4839 JUMPI PUSH1 0x0 DUP5 ISZERO PUSH2 0x4827 JUMPI DUP3 DUP8 ADD MLOAD SWAP1 POP JUMPDEST PUSH2 0x4831 DUP6 DUP3 PUSH2 0x47B3 JUMP JUMPDEST DUP7 SSTORE POP PUSH2 0x4899 JUMP JUMPDEST PUSH1 0x1F NOT DUP5 AND PUSH2 0x4847 DUP7 PUSH2 0x4623 JUMP JUMPDEST PUSH1 0x0 JUMPDEST DUP3 DUP2 LT ISZERO PUSH2 0x486F JUMPI DUP5 DUP10 ADD MLOAD DUP3 SSTORE PUSH1 0x1 DUP3 ADD SWAP2 POP PUSH1 0x20 DUP6 ADD SWAP5 POP PUSH1 0x20 DUP2 ADD SWAP1 POP PUSH2 0x484A JUMP JUMPDEST DUP7 DUP4 LT ISZERO PUSH2 0x488C JUMPI DUP5 DUP10 ADD MLOAD PUSH2 0x4888 PUSH1 0x1F DUP10 AND DUP3 PUSH2 0x4795 JUMP JUMPDEST DUP4 SSTORE POP JUMPDEST PUSH1 0x1 PUSH1 0x2 DUP9 MUL ADD DUP9 SSTORE POP POP POP JUMPDEST POP POP POP POP POP POP JUMP JUMPDEST PUSH32 0x4E487B7100000000000000000000000000000000000000000000000000000000 PUSH1 0x0 MSTORE PUSH1 0x11 PUSH1 0x4 MSTORE PUSH1 0x24 PUSH1 0x0 REVERT JUMPDEST PUSH1 0x0 PUSH2 0x48DB DUP3 PUSH2 0x3F37 JUMP JUMPDEST SWAP2 POP PUSH2 0x48E6 DUP4 PUSH2 0x3F37 JUMP JUMPDEST SWAP3 POP DUP3 DUP3 SUB SWAP1 POP DUP2 DUP2 GT ISZERO PUSH2 0x48FE JUMPI PUSH2 0x48FD PUSH2 0x48A1 JUMP JUMPDEST JUMPDEST SWAP3 SWAP2 POP POP JUMP JUMPDEST PUSH32 0x4E487B7100000000000000000000000000000000000000000000000000000000 PUSH1 0x0 MSTORE PUSH1 0x32 PUSH1 0x4 MSTORE PUSH1 0x24 PUSH1 0x0 REVERT JUMPDEST PUSH1 0x0 PUSH2 0x493E DUP3 PUSH2 0x3F37 JUMP JUMPDEST SWAP2 POP PUSH32 0xFFFFFFFFFFFFFFFFFFFFFFFFFFFFFFFFFFFFFFFFFFFFFFFFFFFFFFFFFFFFFFFF DUP3 SUB PUSH2 0x4970 JUMPI PUSH2 0x496F PUSH2 0x48A1 JUMP JUMPDEST JUMPDEST PUSH1 0x1 DUP3 ADD SWAP1 POP SWAP2 SWAP1 POP JUMP JUMPDEST PUSH1 0x0 PUSH2 0x4986 DUP3 PUSH2 0x3F37 JUMP JUMPDEST SWAP2 POP PUSH1 0x0 DUP3 SUB PUSH2 0x4999 JUMPI PUSH2 0x4998 PUSH2 0x48A1 JUMP JUMPDEST JUMPDEST PUSH1 0x1 DUP3 SUB SWAP1 POP SWAP2 SWAP1 POP JUMP JUMPDEST PUSH1 0x0 PUSH2 0x49AF DUP3 PUSH2 0x3F37 JUMP JUMPDEST SWAP2 POP PUSH2 0x49BA DUP4 PUSH2 0x3F37 JUMP JUMPDEST SWAP3 POP DUP3 DUP3 ADD SWAP1 POP DUP1 DUP3 GT ISZERO PUSH2 0x49D2 JUMPI PUSH2 0x49D1 PUSH2 0x48A1 JUMP JUMPDEST JUMPDEST SWAP3 SWAP2 POP POP JUMP JUMPDEST PUSH1 0x0 PUSH1 0x40 DUP3 ADD SWAP1 POP PUSH2 0x49ED PUSH1 0x0 DUP4 ADD DUP6 PUSH2 0x4303 JUMP JUMPDEST PUSH2 0x49FA PUSH1 0x20 DUP4 ADD DUP5 PUSH2 0x4303 JUMP JUMPDEST SWAP4 SWAP3 POP POP POP JUMP JUMPDEST PUSH1 0x0 DUP2 MLOAD SWAP1 POP PUSH2 0x4A10 DUP2 PUSH2 0x42AA JUMP JUMPDEST SWAP3 SWAP2 POP POP JUMP JUMPDEST PUSH1 0x0 PUSH1 0x20 DUP3 DUP5 SUB SLT ISZERO PUSH2 0x4A2C JUMPI PUSH2 0x4A2B PUSH2 0x3F75 JUMP JUMPDEST JUMPDEST PUSH1 0x0 PUSH2 0x4A3A DUP5 DUP3 DUP6 ADD PUSH2 0x4A01 JUMP JUMPDEST SWAP2 POP POP SWAP3 SWAP2 POP POP JUMP JUMPDEST PUSH1 0x0 PUSH1 0xFF DUP3 AND SWAP1 POP SWAP2 SWAP1 POP JUMP JUMPDEST PUSH2 0x4A59 DUP2 PUSH2 0x4A43 JUMP JUMPDEST DUP2 EQ PUSH2 0x4A64 JUMPI PUSH1 0x0 DUP1 REVERT JUMPDEST POP JUMP JUMPDEST PUSH1 0x0 DUP2 MLOAD SWAP1 POP PUSH2 0x4A76 DUP2 PUSH2 0x4A50 JUMP JUMPDEST SWAP3 SWAP2 POP POP JUMP JUMPDEST PUSH1 0x0 PUSH1 0x20 DUP3 DUP5 SUB SLT ISZERO PUSH2 0x4A92 JUMPI PUSH2 0x4A91 PUSH2 0x3F75 JUMP JUMPDEST JUMPDEST PUSH1 0x0 PUSH2 0x4AA0 DUP5 DUP3 DUP6 ADD PUSH2 0x4A67 JUMP JUMPDEST SWAP2 POP POP SWAP3 SWAP2 POP POP JUMP JUMPDEST PUSH1 0x0 PUSH2 0x4ABC PUSH2 0x4AB7 DUP5 PUSH2 0x43D7 JUMP JUMPDEST PUSH2 0x43BC JUMP JUMPDEST SWAP1 POP DUP3 DUP2 MSTORE PUSH1 0x20 DUP2 ADD DUP5 DUP5 DUP5 ADD GT ISZERO PUSH2 0x4AD8 JUMPI PUSH2 0x4AD7 PUSH2 0x4357 JUMP JUMPDEST JUMPDEST PUSH2 0x4AE3 DUP5 DUP3 DUP6 PUSH2 0x40AD JUMP JUMPDEST POP SWAP4 SWAP3 POP POP POP JUMP JUMPDEST PUSH1 0x0 DUP3 PUSH1 0x1F DUP4 ADD SLT PUSH2 0x4B00 JUMPI PUSH2 0x4AFF PUSH2 0x4352 JUMP JUMPDEST JUMPDEST DUP2 MLOAD PUSH2 0x4B10 DUP5 DUP3 PUSH1 0x20 DUP7 ADD PUSH2 0x4AA9 JUMP JUMPDEST SWAP2 POP POP SWAP3 SWAP2 POP POP JUMP JUMPDEST PUSH1 0x0 PUSH1 0x20 DUP3 DUP5 SUB SLT ISZERO PUSH2 0x4B2F JUMPI PUSH2 0x4B2E PUSH2 0x3F75 JUMP JUMPDEST JUMPDEST PUSH1 0x0 DUP3 ADD MLOAD PUSH8 0xFFFFFFFFFFFFFFFF DUP2 GT ISZERO PUSH2 0x4B4D JUMPI PUSH2 0x4B4C PUSH2 0x3F7A JUMP JUMPDEST JUMPDEST PUSH2 0x4B59 DUP5 DUP3 DUP6 ADD PUSH2 0x4AEB JUMP JUMPDEST SWAP2 POP POP SWAP3 SWAP2 POP POP JUMP JUMPDEST PUSH1 0x0 PUSH2 0x4B6D DUP3 PUSH2 0x3F37 JUMP JUMPDEST SWAP2 POP PUSH2 0x4B78 DUP4 PUSH2 0x3F37 JUMP JUMPDEST SWAP3 POP DUP3 DUP3 MUL PUSH2 0x4B86 DUP2 PUSH2 0x3F37 JUMP JUMPDEST SWAP2 POP DUP3 DUP3 DIV DUP5 EQ DUP4 ISZERO OR PUSH2 0x4B9D JUMPI PUSH2 0x4B9C PUSH2 0x48A1 JUMP JUMPDEST JUMPDEST POP SWAP3 SWAP2 POP POP JUMP JUMPDEST PUSH32 0x4E487B7100000000000000000000000000000000000000000000000000000000 PUSH1 0x0 MSTORE PUSH1 0x12 PUSH1 0x4 MSTORE PUSH1 0x24 PUSH1 0x0 REVERT JUMPDEST PUSH1 0x0 PUSH2 0x4BDE DUP3 PUSH2 0x3F37 JUMP JUMPDEST SWAP2 POP PUSH2 0x4BE9 DUP4 PUSH2 0x3F37 JUMP JUMPDEST SWAP3 POP DUP3 PUSH2 0x4BF9 JUMPI PUSH2 0x4BF8 PUSH2 0x4BA4 JUMP JUMPDEST JUMPDEST DUP3 DUP3 DIV SWAP1 POP SWAP3 SWAP2 POP POP JUMP JUMPDEST PUSH32 0x4E487B7100000000000000000000000000000000000000000000000000000000 PUSH1 0x0 MSTORE PUSH1 0x31 PUSH1 0x4 MSTORE PUSH1 0x24 PUSH1 0x0 REVERT JUMPDEST PUSH1 0x0 PUSH1 0x60 DUP3 ADD SWAP1 POP PUSH2 0x4C48 PUSH1 0x0 DUP4 ADD DUP7 PUSH2 0x4303 JUMP JUMPDEST PUSH2 0x4C55 PUSH1 0x20 DUP4 ADD DUP6 PUSH2 0x4303 JUMP JUMPDEST PUSH2 0x4C62 PUSH1 0x40 DUP4 ADD DUP5 PUSH2 0x3F41 JUMP JUMPDEST SWAP5 SWAP4 POP POP POP POP JUMP JUMPDEST PUSH1 0x0 DUP2 MLOAD SWAP1 POP PUSH2 0x4C79 DUP2 PUSH2 0x3FE9 JUMP JUMPDEST SWAP3 SWAP2 POP POP JUMP JUMPDEST PUSH1 0x0 PUSH1 0x20 DUP3 DUP5 SUB SLT ISZERO PUSH2 0x4C95 JUMPI PUSH2 0x4C94 PUSH2 0x3F75 JUMP JUMPDEST JUMPDEST PUSH1 0x0 PUSH2 0x4CA3 DUP5 DUP3 DUP6 ADD PUSH2 0x4C6A JUMP JUMPDEST SWAP2 POP POP SWAP3 SWAP2 POP POP JUMP JUMPDEST PUSH1 0x0 PUSH2 0x4CC7 PUSH2 0x4CC2 PUSH2 0x4CBD DUP5 PUSH2 0x3F7F JUMP JUMPDEST PUSH2 0x46A7 JUMP JUMPDEST PUSH2 0x3F7F JUMP JUMPDEST SWAP1 POP SWAP2 SWAP1 POP JUMP JUMPDEST PUSH1 0x0 PUSH2 0x4CD9 DUP3 PUSH2 0x4CAC JUMP JUMPDEST SWAP1 POP SWAP2 SWAP1 POP JUMP JUMPDEST PUSH1 0x0 PUSH2 0x4CEB DUP3 PUSH2 0x4CCE JUMP JUMPDEST SWAP1 POP SWAP2 SWAP1 POP JUMP JUMPDEST PUSH2 0x4CFB DUP2 PUSH2 0x4CE0 JUMP JUMPDEST DUP3 MSTORE POP POP JUMP JUMPDEST PUSH1 0x0 PUSH1 0x40 DUP3 ADD SWAP1 POP PUSH2 0x4D16 PUSH1 0x0 DUP4 ADD DUP6 PUSH2 0x4CF2 JUMP JUMPDEST PUSH2 0x4D23 PUSH1 0x20 DUP4 ADD DUP5 PUSH2 0x3F41 JUMP JUMPDEST SWAP4 SWAP3 POP POP POP JUMP JUMPDEST PUSH1 0x0 PUSH1 0x40 DUP3 ADD SWAP1 POP PUSH2 0x4D3F PUSH1 0x0 DUP4 ADD DUP6 PUSH2 0x4303 JUMP JUMPDEST PUSH2 0x4D4C PUSH1 0x20 DUP4 ADD DUP5 PUSH2 0x3F41 JUMP JUMPDEST SWAP4 SWAP3 POP POP POP JUMP JUMPDEST PUSH1 0x0 DUP2 SWAP1 POP SWAP3 SWAP2 POP POP JUMP JUMPDEST POP JUMP JUMPDEST PUSH1 0x0 PUSH2 0x4D6E PUSH1 0x0 DUP4 PUSH2 0x4D53 JUMP JUMPDEST SWAP2 POP PUSH2 0x4D79 DUP3 PUSH2 0x4D5E JUMP JUMPDEST PUSH1 0x0 DUP3 ADD SWAP1 POP SWAP2 SWAP1 POP JUMP JUMPDEST PUSH1 0x0 PUSH2 0x4D8F DUP3 PUSH2 0x4D61 JUMP JUMPDEST SWAP2 POP DUP2 SWAP1 POP SWAP2 SWAP1 POP JUMP JUMPDEST PUSH1 0x0 PUSH2 0x4DA4 DUP3 PUSH2 0x4A43 JUMP JUMPDEST SWAP2 POP PUSH1 0x0 DUP3 SUB PUSH2 0x4DB7 JUMPI PUSH2 0x4DB6 PUSH2 0x48A1 JUMP JUMPDEST JUMPDEST PUSH1 0x1 DUP3 SUB SWAP1 POP SWAP2 SWAP1 POP JUMP JUMPDEST PUSH1 0x0 DUP2 PUSH1 0x1 SHR SWAP1 POP SWAP2 SWAP1 POP JUMP JUMPDEST PUSH1 0x0 DUP1 DUP3 SWAP2 POP DUP4 SWAP1 POP JUMPDEST PUSH1 0x1 DUP6 GT ISZERO PUSH2 0x4E19 JUMPI DUP1 DUP7 DIV DUP2 GT ISZERO PUSH2 0x4DF5 JUMPI PUSH2 0x4DF4 PUSH2 0x48A1 JUMP JUMPDEST JUMPDEST PUSH1 0x1 DUP6 AND ISZERO PUSH2 0x4E04 JUMPI DUP1 DUP3 MUL SWAP2 POP JUMPDEST DUP1 DUP2 MUL SWAP1 POP PUSH2 0x4E12 DUP6 PUSH2 0x4DC2 JUMP JUMPDEST SWAP5 POP PUSH2 0x4DD9 JUMP JUMPDEST SWAP5 POP SWAP5 SWAP3 POP POP POP JUMP JUMPDEST PUSH1 0x0 DUP3 PUSH2 0x4E32 JUMPI PUSH1 0x1 SWAP1 POP PUSH2 0x4EEE JUMP JUMPDEST DUP2 PUSH2 0x4E40 JUMPI PUSH1 0x0 SWAP1 POP PUSH2 0x4EEE JUMP JUMPDEST DUP2 PUSH1 0x1 DUP2 EQ PUSH2 0x4E56 JUMPI PUSH1 0x2 DUP2 EQ PUSH2 0x4E60 JUMPI PUSH2 0x4E8F JUMP JUMPDEST PUSH1 0x1 SWAP2 POP POP PUSH2 0x4EEE JUMP JUMPDEST PUSH1 0xFF DUP5 GT ISZERO PUSH2 0x4E72 JUMPI PUSH2 0x4E71 PUSH2 0x48A1 JUMP JUMPDEST JUMPDEST DUP4 PUSH1 0x2 EXP SWAP2 POP DUP5 DUP3 GT ISZERO PUSH2 0x4E89 JUMPI PUSH2 0x4E88 PUSH2 0x48A1 JUMP JUMPDEST JUMPDEST POP PUSH2 0x4EEE JUMP JUMPDEST POP PUSH1 0x20 DUP4 LT PUSH2 0x133 DUP4 LT AND PUSH1 0x4E DUP5 LT PUSH1 0xB DUP5 LT AND OR ISZERO PUSH2 0x4EC4 JUMPI DUP3 DUP3 EXP SWAP1 POP DUP4 DUP2 GT ISZERO PUSH2 0x4EBF JUMPI PUSH2 0x4EBE PUSH2 0x48A1 JUMP JUMPDEST JUMPDEST PUSH2 0x4EEE JUMP JUMPDEST PUSH2 0x4ED1 DUP5 DUP5 DUP5 PUSH1 0x1 PUSH2 0x4DCF JUMP JUMPDEST SWAP3 POP SWAP1 POP DUP2 DUP5 DIV DUP2 GT ISZERO PUSH2 0x4EE8 JUMPI PUSH2 0x4EE7 PUSH2 0x48A1 JUMP JUMPDEST JUMPDEST DUP2 DUP2 MUL SWAP1 POP JUMPDEST SWAP4 SWAP3 POP POP POP JUMP JUMPDEST PUSH1 0x0 PUSH2 0x4F00 DUP3 PUSH2 0x3F37 JUMP JUMPDEST SWAP2 POP PUSH2 0x4F0B DUP4 PUSH2 0x4A43 JUMP JUMPDEST SWAP3 POP PUSH2 0x4F38 PUSH32 0xFFFFFFFFFFFFFFFFFFFFFFFFFFFFFFFFFFFFFFFFFFFFFFFFFFFFFFFFFFFFFFFF DUP5 DUP5 PUSH2 0x4E22 JUMP JUMPDEST SWAP1 POP SWAP3 SWAP2 POP POP JUMP JUMPDEST PUSH1 0x0 PUSH2 0x4F4B DUP3 PUSH2 0x4A43 JUMP JUMPDEST SWAP2 POP PUSH2 0x4F56 DUP4 PUSH2 0x4A43 JUMP JUMPDEST SWAP3 POP DUP3 DUP3 SUB SWAP1 POP PUSH1 0xFF DUP2 GT ISZERO PUSH2 0x4F6F JUMPI PUSH2 0x4F6E PUSH2 0x48A1 JUMP JUMPDEST JUMPDEST SWAP3 SWAP2 POP POP JUMP JUMPDEST PUSH1 0x0 PUSH1 0x60 DUP3 ADD SWAP1 POP PUSH2 0x4F8A PUSH1 0x0 DUP4 ADD DUP7 PUSH2 0x3F41 JUMP JUMPDEST PUSH2 0x4F97 PUSH1 0x20 DUP4 ADD DUP6 PUSH2 0x3F41 JUMP JUMPDEST PUSH2 0x4FA4 PUSH1 0x40 DUP4 ADD DUP5 PUSH2 0x3F41 JUMP JUMPDEST SWAP5 SWAP4 POP POP POP POP JUMP JUMPDEST PUSH1 0x0 PUSH1 0x40 DUP3 ADD SWAP1 POP PUSH2 0x4FC1 PUSH1 0x0 DUP4 ADD DUP6 PUSH2 0x3F41 JUMP JUMPDEST PUSH2 0x4FCE PUSH1 0x20 DUP4 ADD DUP5 PUSH2 0x3F41 JUMP JUMPDEST SWAP4 SWAP3 POP POP POP JUMP INVALID LOG2 PUSH5 0x6970667358 0x22 SLT KECCAK256 DUP11 SMOD LT PUSH20 0x1900F2FCD04931001D067DB209D1C53FE202B548 SLT ADD 0x29 SAR 0x21 MUL PUSH14 0x2D64736F6C634300081500330000 "},"methodIdentifiers":{"clearOrders()":"9351769f","createBuyOrder(address)":"d2980065","createSellOrder(address,uint256)":"a262b73f","deposit(address)":"f340fa01","depositToken(address,address,uint256)":"fb0f97a8","getBalance()":"12065fe0","listToken(address,uint8,uint256,uint256,address,string)":"92e6b829","owner()":"8da5cb5b","queryBalance(address,bool)":"3b174f0f","settleOrders(address,bool)":"c201e47c","takeBuyOrder(address,uint256)":"db34a679","takeSellOrder(address)":"6daf6945","transferOwnership(address)":"f2fde38b","viewToken(address)":"673cf82a","viewToken(uint256)":"8334d195"}}}}}