{"contracts/DexhunePriceDAO.sol":{"DexhunePriceDAO":{"abi":[{"inputs":[],"stateMutability":"nonpayable","type":"constructor"},{"inputs":[],"name":"AlreadyVoted","type":"error"},{"inputs":[],"name":"NoActiveProposal","type":"error"},{"inputs":[],"name":"NotEligible","type":"error"},{"inputs":[],"name":"ProposalAlreadyFinalized","type":"error"},{"inputs":[],"name":"ProposalDoesNotExist","type":"error"},{"inputs":[],"name":"ProposalHasExpired","type":"error"},{"inputs":[],"name":"ProposalIsStillActive","type":"error"},{"inputs":[{"internalType":"address","name":"account","type":"address"}],"name":"UnauthorizedAccount","type":"error"},{"inputs":[],"name":"VotingDeactivated","type":"error"},{"anonymous":false,"inputs":[{"indexed":false,"internalType":"address","name":"addr","type":"address"}],"name":"AssignedNFTCollection","type":"event"},{"anonymous":false,"inputs":[{"indexed":false,"internalType":"address","name":"addr","type":"address"}],"name":"AssignedToken","type":"event"},{"anonymous":false,"inputs":[{"indexed":false,"internalType":"string","name":"price","type":"string"},{"indexed":false,"internalType":"string","name":"description","type":"string"},{"indexed":false,"internalType":"address","name":"proposer","type":"address"}],"name":"ProposalCreated","type":"event"},{"anonymous":false,"inputs":[{"indexed":false,"internalType":"uint16","name":"_for","type":"uint16"},{"indexed":false,"internalType":"uint16","name":"_against","type":"uint16"}],"name":"ProposalDenied","type":"event"},{"anonymous":false,"inputs":[{"indexed":false,"internalType":"uint16","name":"_for","type":"uint16"},{"indexed":false,"internalType":"uint16","name":"_against","type":"uint16"},{"indexed":false,"internalType":"string","name":"newPrice","type":"string"}],"name":"ProposalPassed","type":"event"},{"anonymous":false,"inputs":[{"indexed":false,"internalType":"address","name":"addr","type":"address"},{"indexed":false,"internalType":"uint256","name":"amount","type":"uint256"}],"name":"RewardedProposer","type":"event"},{"anonymous":false,"inputs":[{"indexed":false,"internalType":"address","name":"oldOwner","type":"address"},{"indexed":false,"internalType":"address","name":"newOwner","type":"address"}],"name":"TransferredOwnership","type":"event"},{"anonymous":false,"inputs":[{"indexed":false,"internalType":"address","name":"voter","type":"address"},{"indexed":false,"internalType":"uint16","name":"votes","type":"uint16"}],"name":"VotedDown","type":"event"},{"anonymous":false,"inputs":[{"indexed":false,"internalType":"address","name":"voter","type":"address"},{"indexed":false,"internalType":"uint16","name":"votes","type":"uint16"}],"name":"VotedUp","type":"event"},{"inputs":[{"internalType":"address","name":"addr","type":"address"}],"name":"assignNFTCollection","outputs":[],"stateMutability":"nonpayable","type":"function"},{"inputs":[{"internalType":"address","name":"addr","type":"address"}],"name":"assignTokenAddress","outputs":[],"stateMutability":"nonpayable","type":"function"},{"inputs":[],"name":"finalizeProposal","outputs":[],"stateMutability":"nonpayable","type":"function"},{"inputs":[],"name":"getPrice","outputs":[{"internalType":"string","name":"","type":"string"}],"stateMutability":"view","type":"function"},{"inputs":[],"name":"latestProposal","outputs":[{"components":[{"internalType":"address","name":"proposerAddr","type":"address"},{"internalType":"string","name":"value","type":"string"},{"internalType":"string","name":"description","type":"string"},{"internalType":"bool","name":"finalized","type":"bool"}],"internalType":"struct DexhunePriceDAOBase.PriceProposal","name":"","type":"tuple"}],"stateMutability":"view","type":"function"},{"inputs":[],"name":"owner","outputs":[{"internalType":"address","name":"","type":"address"}],"stateMutability":"view","type":"function"},{"inputs":[],"name":"proposalEndsAfter","outputs":[{"internalType":"uint256","name":"","type":"uint256"}],"stateMutability":"view","type":"function"},{"inputs":[{"internalType":"string","name":"price","type":"string"},{"internalType":"string","name":"description","type":"string"}],"name":"proposePrice","outputs":[],"stateMutability":"nonpayable","type":"function"},{"inputs":[{"internalType":"address","name":"_address","type":"address"}],"name":"transferOwnership","outputs":[],"stateMutability":"nonpayable","type":"function"},{"inputs":[],"name":"voteDown","outputs":[],"stateMutability":"nonpayable","type":"function"},{"inputs":[],"name":"voteUp","outputs":[],"stateMutability":"nonpayable","type":"function"},{"inputs":[],"name":"votingEndsAfter","outputs":[{"internalType":"uint256","name":"","type":"uint256"}],"stateMutability":"view","type":"function"}],"evm":{"bytecode":{"linkReferences":{},"object":"60806040523480156200001157600080fd5b50336000806101000a81548173ffffffffffffffffffffffffffffffffffffffff021916908373ffffffffffffffffffffffffffffffffffffffff160217905550604051806080016040528060008054906101000a900473ffffffffffffffffffffffffffffffffffffffff1673ffffffffffffffffffffffffffffffffffffffff1681526020016040518060400160405280600481526020017f4e554c4c0000000000000000000000000000000000000000000000000000000081525081526020016040518060400160405280600481526020017f4e554c4c00000000000000000000000000000000000000000000000000000000815250815260200160011515815250600860008201518160000160006101000a81548173ffffffffffffffffffffffffffffffffffffffff021916908373ffffffffffffffffffffffffffffffffffffffff160217905550602082015181600101908162000176919062000432565b5060408201518160020190816200018e919062000432565b5060608201518160030160006101000a81548160ff02191690831515021790555090505062000519565b600081519050919050565b7f4e487b7100000000000000000000000000000000000000000000000000000000600052604160045260246000fd5b7f4e487b7100000000000000000000000000000000000000000000000000000000600052602260045260246000fd5b600060028204905060018216806200023a57607f821691505b60208210810362000250576200024f620001f2565b5b50919050565b60008190508160005260206000209050919050565b60006020601f8301049050919050565b600082821b905092915050565b600060088302620002ba7fffffffffffffffffffffffffffffffffffffffffffffffffffffffffffffffff826200027b565b620002c686836200027b565b95508019841693508086168417925050509392505050565b6000819050919050565b6000819050919050565b6000620003136200030d6200030784620002de565b620002e8565b620002de565b9050919050565b6000819050919050565b6200032f83620002f2565b620003476200033e826200031a565b84845462000288565b825550505050565b600090565b6200035e6200034f565b6200036b81848462000324565b505050565b5b8181101562000393576200038760008262000354565b60018101905062000371565b5050565b601f821115620003e257620003ac8162000256565b620003b7846200026b565b81016020851015620003c7578190505b620003df620003d6856200026b565b83018262000370565b50505b505050565b600082821c905092915050565b60006200040760001984600802620003e7565b1980831691505092915050565b6000620004228383620003f4565b9150826002028217905092915050565b6200043d82620001b8565b67ffffffffffffffff811115620004595762000458620001c3565b5b62000465825462000221565b6200047282828562000397565b600060209050601f831160018114620004aa576000841562000495578287015190505b620004a1858262000414565b86555062000511565b601f198416620004ba8662000256565b60005b82811015620004e457848901518255600182019150602085019450602081019050620004bd565b8683101562000504578489015162000500601f891682620003f4565b8355505b6001600288020188555050505b505050505050565b611ff580620005296000396000f3fe608060405234801561001057600080fd5b50600436106100b45760003560e01c8063b96762ae11610071578063b96762ae14610141578063c2b798361461015d578063c4dc15561461017b578063c70d33e314610185578063f2fde38b146101a3578063f863b454146101bf576100b4565b806302de9f2e146100b95780633d75da94146100d55780638da5cb5b146100f157806398d5fdca1461010f578063b07672ae1461012d578063b525ef0d14610137575b600080fd5b6100d360048036038101906100ce9190611496565b6101dd565b005b6100ef60048036038101906100ea919061156c565b6103ac565b005b6100f96104f1565b60405161010691906115a8565b60405180910390f35b610117610515565b6040516101249190611642565b60405180910390f35b6101356105a7565b005b61013f6106b5565b005b61015b6004803603810190610156919061156c565b6107cc565b005b610165610911565b6040516101729190611742565b60405180910390f35b610183610ac0565b005b61018d610d8a565b60405161019a919061177d565b60405180910390f35b6101bd60048036038101906101b8919061156c565b610db9565b005b6101c7610e84565b6040516101d4919061177d565b60405180910390f35b60006101e7610eb3565b1161021e576040517ff8eb54de00000000000000000000000000000000000000000000000000000000815260040160405180910390fd5b600860030160009054906101000a900460ff161561027357426006541115610272576040517fa9174b1700000000000000000000000000000000000000000000000000000000815260040160405180910390fd5b5b6102584261028191906117c7565b60068190555061012c4261029591906117c7565b60078190555060405180608001604052803373ffffffffffffffffffffffffffffffffffffffff16815260200183815260200182815260200160001515815250600860008201518160000160006101000a81548173ffffffffffffffffffffffffffffffffffffffff021916908373ffffffffffffffffffffffffffffffffffffffff16021790555060208201518160010190816103339190611a07565b5060408201518160020190816103499190611a07565b5060608201518160030160006101000a81548160ff0219169083151502179055509050507f7ee0a17a4563c16d1072d423dc4448c5d14ac076b5982abc0762421172beea618282336040516103a093929190611ad9565b60405180910390a15050565b6103b4610f56565b60008190508073ffffffffffffffffffffffffffffffffffffffff166370a08231306040518263ffffffff1660e01b81526004016103f291906115a8565b602060405180830381865afa15801561040f573d6000803e3d6000fd5b505050506040513d601f19601f820116820180604052508101906104339190611b4a565b5080600160006101000a81548173ffffffffffffffffffffffffffffffffffffffff021916908373ffffffffffffffffffffffffffffffffffffffff16021790555081600460006101000a81548173ffffffffffffffffffffffffffffffffffffffff021916908373ffffffffffffffffffffffffffffffffffffffff1602179055507f26317221e726b9c268b3046da713d2019ae4bc96acad9c2e1c534da90fc5e9d4826040516104e591906115a8565b60405180910390a15050565b60008054906101000a900473ffffffffffffffffffffffffffffffffffffffff1681565b6060600580546105249061182a565b80601f01602080910402602001604051908101604052809291908181526020018280546105509061182a565b801561059d5780601f106105725761010080835404028352916020019161059d565b820191906000526020600020905b81548152906001019060200180831161058057829003601f168201915b5050505050905090565b60006105b1610fe8565b90506000339050600c819080600181540180825580915050600190039060005260206000200160009091909190916101000a81548173ffffffffffffffffffffffffffffffffffffffff021916908373ffffffffffffffffffffffffffffffffffffffff16021790555081600d60008373ffffffffffffffffffffffffffffffffffffffff1673ffffffffffffffffffffffffffffffffffffffff16815260200190815260200160002060006101000a81548161ffff021916908360010b61ffff1602179055507f33fabba9378c138b4fd0872656523539fe2ca7f3ca14a28c15be6922c925dd8781836040516106a9929190611b94565b60405180910390a15050565b60006106bf610fe8565b90506000339050600c819080600181540180825580915050600190039060005260206000200160009091909190916101000a81548173ffffffffffffffffffffffffffffffffffffffff021916908373ffffffffffffffffffffffffffffffffffffffff1602179055508161073390611bca565b600d60008373ffffffffffffffffffffffffffffffffffffffff1673ffffffffffffffffffffffffffffffffffffffff16815260200190815260200160002060006101000a81548161ffff021916908360010b61ffff1602179055507faab3f0444f9ebdc2f3123616cd1ef4cd06e39f5d865030bc51aa785362965c7c81836040516107c0929190611b94565b60405180910390a15050565b6107d4610f56565b60008190508073ffffffffffffffffffffffffffffffffffffffff166370a08231306040518263ffffffff1660e01b815260040161081291906115a8565b602060405180830381865afa15801561082f573d6000803e3d6000fd5b505050506040513d601f19601f820116820180604052508101906108539190611b4a565b5080600260006101000a81548173ffffffffffffffffffffffffffffffffffffffff021916908373ffffffffffffffffffffffffffffffffffffffff16021790555081600360006101000a81548173ffffffffffffffffffffffffffffffffffffffff021916908373ffffffffffffffffffffffffffffffffffffffff1602179055507f708e1e0cc2637dd479a4cb4ab8dc07655e145e2b159249aca7146ab62b67d0058260405161090591906115a8565b60405180910390a15050565b6109196112fc565b60086040518060800160405290816000820160009054906101000a900473ffffffffffffffffffffffffffffffffffffffff1673ffffffffffffffffffffffffffffffffffffffff1673ffffffffffffffffffffffffffffffffffffffff16815260200160018201805461098c9061182a565b80601f01602080910402602001604051908101604052809291908181526020018280546109b89061182a565b8015610a055780601f106109da57610100808354040283529160200191610a05565b820191906000526020600020905b8154815290600101906020018083116109e857829003601f168201915b50505050508152602001600282018054610a1e9061182a565b80601f0160208091040260200160405190810160405280929190818152602001828054610a4a9061182a565b8015610a975780601f10610a6c57610100808354040283529160200191610a97565b820191906000526020600020905b815481529060010190602001808311610a7a57829003601f168201915b505050505081526020016003820160009054906101000a900460ff161515151581525050905090565b426007541115610afc576040517fa9174b1700000000000000000000000000000000000000000000000000000000815260040160405180910390fd5b6006544210610b37576040517fc1f1c4df00000000000000000000000000000000000000000000000000000000815260040160405180910390fd5b600860030160009054906101000a900460ff1615610b81576040517f9c93eb2d00000000000000000000000000000000000000000000000000000000815260040160405180910390fd5b6000806000806000806001600c80549050610b9c9190611c12565b90505b60008110610cb157600c8181548110610bbb57610bba611c46565b5b9060005260206000200160009054906101000a900473ffffffffffffffffffffffffffffffffffffffff169150600d60008373ffffffffffffffffffffffffffffffffffffffff1673ffffffffffffffffffffffffffffffffffffffff16815260200190815260200160002060009054906101000a900460010b9350610c4082611105565b92508261ffff16610c50856111aa565b61ffff1603610c9e5760008460010b1315610c78578386610c719190611c75565b9550610c9d565b60008460010b1215610c9c5783610c8e90611bca565b85610c999190611c75565b94505b5b5b8080610ca990611cab565b915050610b9f565b506001600860030160006101000a81548160ff0219169083151502179055508361ffff168561ffff161115610d4957610cf48486610cef9190611c75565b6111cf565b600860010160059081610d079190611cff565b507fc965d144fc58d48e5f9a6aa80cd6057c77af099482c91f56a9c36920ed60c27885856005604051610d3c93929190611e6b565b60405180910390a1610d83565b7faeedba74278bf0d29c304a846608f0c3e654216bb74466df6969108e1ac2b1c88585604051610d7a929190611ea9565b60405180910390a15b5050505050565b600080429050806006541015610da4576000915050610db6565b80600654610db29190611c12565b9150505b90565b610dc1610f56565b60008060009054906101000a900473ffffffffffffffffffffffffffffffffffffffff169050816000806101000a81548173ffffffffffffffffffffffffffffffffffffffff021916908373ffffffffffffffffffffffffffffffffffffffff1602179055507f850b3df64837d7d518b45f5aa64d104652c3b80eb5b34a8e3d9eb666cb7cdea58160008054906101000a900473ffffffffffffffffffffffffffffffffffffffff16604051610e78929190611ed2565b60405180910390a15050565b600080429050806007541015610e9e576000915050610eb0565b80600754610eac9190611c12565b9150505b90565b6000600260009054906101000a900473ffffffffffffffffffffffffffffffffffffffff1673ffffffffffffffffffffffffffffffffffffffff166370a08231336040518263ffffffff1660e01b8152600401610f1091906115a8565b602060405180830381865afa158015610f2d573d6000803e3d6000fd5b505050506040513d601f19601f82011682018060405250810190610f519190611b4a565b905090565b60008054906101000a900473ffffffffffffffffffffffffffffffffffffffff1673ffffffffffffffffffffffffffffffffffffffff163373ffffffffffffffffffffffffffffffffffffffff1614610fe657336040517f32b2baa3000000000000000000000000000000000000000000000000000000008152600401610fdd91906115a8565b60405180910390fd5b565b60006007544210611025576040517f3dc1d21400000000000000000000000000000000000000000000000000000000815260040160405180910390fd5b6000600d60003373ffffffffffffffffffffffffffffffffffffffff1673ffffffffffffffffffffffffffffffffffffffff16815260200190815260200160002060009054906101000a900460010b905060008160010b146110b3576040517f7c9a1cf900000000000000000000000000000000000000000000000000000000815260040160405180910390fd5b60006110bd610eb3565b905060008161ffff16116110fd576040517ff8eb54de00000000000000000000000000000000000000000000000000000000815260040160405180910390fd5b809250505090565b6000600260009054906101000a900473ffffffffffffffffffffffffffffffffffffffff1673ffffffffffffffffffffffffffffffffffffffff166370a08231836040518263ffffffff1660e01b815260040161116291906115a8565b602060405180830381865afa15801561117f573d6000803e3d6000fd5b505050506040513d601f19601f820116820180604052508101906111a39190611b4a565b9050919050565b6000808260010b12156111c657816111c190611bca565b6111c8565b815b9050919050565b6000600860000160009054906101000a900473ffffffffffffffffffffffffffffffffffffffff169050600060148361ffff1661120c9190611efb565b9050614e2081111561121e57614e2090505b600160009054906101000a900473ffffffffffffffffffffffffffffffffffffffff1673ffffffffffffffffffffffffffffffffffffffff1663a9059cbb83836040518363ffffffff1660e01b815260040161127b929190611f3d565b6020604051808303816000875af19250505080156112b757506040513d601f19601f820116820180604052508101906112b49190611f92565b60015b156112f757507fca770103cdd14b19db75e20f62f734f176926315f9d140ddb5ba416422a6c08e82826040516112ee929190611f3d565b60405180910390a15b505050565b6040518060800160405280600073ffffffffffffffffffffffffffffffffffffffff16815260200160608152602001606081526020016000151581525090565b6000604051905090565b600080fd5b600080fd5b600080fd5b600080fd5b6000601f19601f8301169050919050565b7f4e487b7100000000000000000000000000000000000000000000000000000000600052604160045260246000fd5b6113a38261135a565b810181811067ffffffffffffffff821117156113c2576113c161136b565b5b80604052505050565b60006113d561133c565b90506113e1828261139a565b919050565b600067ffffffffffffffff8211156114015761140061136b565b5b61140a8261135a565b9050602081019050919050565b82818337600083830152505050565b6000611439611434846113e6565b6113cb565b90508281526020810184848401111561145557611454611355565b5b611460848285611417565b509392505050565b600082601f83011261147d5761147c611350565b5b813561148d848260208601611426565b91505092915050565b600080604083850312156114ad576114ac611346565b5b600083013567ffffffffffffffff8111156114cb576114ca61134b565b5b6114d785828601611468565b925050602083013567ffffffffffffffff8111156114f8576114f761134b565b5b61150485828601611468565b9150509250929050565b600073ffffffffffffffffffffffffffffffffffffffff82169050919050565b60006115398261150e565b9050919050565b6115498161152e565b811461155457600080fd5b50565b60008135905061156681611540565b92915050565b60006020828403121561158257611581611346565b5b600061159084828501611557565b91505092915050565b6115a28161152e565b82525050565b60006020820190506115bd6000830184611599565b92915050565b600081519050919050565b600082825260208201905092915050565b60005b838110156115fd5780820151818401526020810190506115e2565b60008484015250505050565b6000611614826115c3565b61161e81856115ce565b935061162e8185602086016115df565b6116378161135a565b840191505092915050565b6000602082019050818103600083015261165c8184611609565b905092915050565b61166d8161152e565b82525050565b600082825260208201905092915050565b600061168f826115c3565b6116998185611673565b93506116a98185602086016115df565b6116b28161135a565b840191505092915050565b60008115159050919050565b6116d2816116bd565b82525050565b60006080830160008301516116f06000860182611664565b50602083015184820360208601526117088282611684565b915050604083015184820360408601526117228282611684565b915050606083015161173760608601826116c9565b508091505092915050565b6000602082019050818103600083015261175c81846116d8565b905092915050565b6000819050919050565b61177781611764565b82525050565b6000602082019050611792600083018461176e565b92915050565b7f4e487b7100000000000000000000000000000000000000000000000000000000600052601160045260246000fd5b60006117d282611764565b91506117dd83611764565b92508282019050808211156117f5576117f4611798565b5b92915050565b7f4e487b7100000000000000000000000000000000000000000000000000000000600052602260045260246000fd5b6000600282049050600182168061184257607f821691505b602082108103611855576118546117fb565b5b50919050565b60008190508160005260206000209050919050565b60006020601f8301049050919050565b600082821b905092915050565b6000600883026118bd7fffffffffffffffffffffffffffffffffffffffffffffffffffffffffffffffff82611880565b6118c78683611880565b95508019841693508086168417925050509392505050565b6000819050919050565b60006119046118ff6118fa84611764565b6118df565b611764565b9050919050565b6000819050919050565b61191e836118e9565b61193261192a8261190b565b84845461188d565b825550505050565b600090565b61194761193a565b611952818484611915565b505050565b5b818110156119765761196b60008261193f565b600181019050611958565b5050565b601f8211156119bb5761198c8161185b565b61199584611870565b810160208510156119a4578190505b6119b86119b085611870565b830182611957565b50505b505050565b600082821c905092915050565b60006119de600019846008026119c0565b1980831691505092915050565b60006119f783836119cd565b9150826002028217905092915050565b611a10826115c3565b67ffffffffffffffff811115611a2957611a2861136b565b5b611a33825461182a565b611a3e82828561197a565b600060209050601f831160018114611a715760008415611a5f578287015190505b611a6985826119eb565b865550611ad1565b601f198416611a7f8661185b565b60005b82811015611aa757848901518255600182019150602085019450602081019050611a82565b86831015611ac45784890151611ac0601f8916826119cd565b8355505b6001600288020188555050505b505050505050565b60006060820190508181036000830152611af38186611609565b90508181036020830152611b078185611609565b9050611b166040830184611599565b949350505050565b611b2781611764565b8114611b3257600080fd5b50565b600081519050611b4481611b1e565b92915050565b600060208284031215611b6057611b5f611346565b5b6000611b6e84828501611b35565b91505092915050565b600061ffff82169050919050565b611b8e81611b77565b82525050565b6000604082019050611ba96000830185611599565b611bb66020830184611b85565b9392505050565b60008160010b9050919050565b6000611bd582611bbd565b91507fffffffffffffffffffffffffffffffffffffffffffffffffffffffffffff80008203611c0757611c06611798565b5b816000039050919050565b6000611c1d82611764565b9150611c2883611764565b9250828203905081811115611c4057611c3f611798565b5b92915050565b7f4e487b7100000000000000000000000000000000000000000000000000000000600052603260045260246000fd5b6000611c8082611b77565b9150611c8b83611b77565b9250828201905061ffff811115611ca557611ca4611798565b5b92915050565b6000611cb682611764565b915060008203611cc957611cc8611798565b5b600182039050919050565b600081549050611ce38161182a565b9050919050565b60008190508160005260206000209050919050565b818103611d0d575050611de5565b611d1682611cd4565b67ffffffffffffffff811115611d2f57611d2e61136b565b5b611d39825461182a565b611d4482828561197a565b6000601f831160018114611d735760008415611d61578287015490505b611d6b85826119eb565b865550611dde565b601f198416611d8187611cea565b9650611d8c8661185b565b60005b82811015611db457848901548255600182019150600185019450602081019050611d8f565b86831015611dd15784890154611dcd601f8916826119cd565b8355505b6001600288020188555050505b5050505050505b565b60008154611df48161182a565b611dfe81866115ce565b94506001821660008114611e195760018114611e2f57611e62565b60ff198316865281151560200286019350611e62565b611e388561185b565b60005b83811015611e5a57815481890152600182019150602081019050611e3b565b808801955050505b50505092915050565b6000606082019050611e806000830186611b85565b611e8d6020830185611b85565b8181036040830152611e9f8184611de7565b9050949350505050565b6000604082019050611ebe6000830185611b85565b611ecb6020830184611b85565b9392505050565b6000604082019050611ee76000830185611599565b611ef46020830184611599565b9392505050565b6000611f0682611764565b9150611f1183611764565b9250828202611f1f81611764565b91508282048414831517611f3657611f35611798565b5b5092915050565b6000604082019050611f526000830185611599565b611f5f602083018461176e565b9392505050565b611f6f816116bd565b8114611f7a57600080fd5b50565b600081519050611f8c81611f66565b92915050565b600060208284031215611fa857611fa7611346565b5b6000611fb684828501611f7d565b9150509291505056fea2646970667358221220e2a05770128cbc7bb7103e7bd279c37488f79385d0dc4bac757ec76efff133d564736f6c63430008150033","opcodes":"PUSH1 0x80 PUSH1 0x40 MSTORE CALLVALUE DUP1 ISZERO PUSH3 0x11 JUMPI PUSH1 0x0 DUP1 REVERT JUMPDEST POP CALLER PUSH1 0x0 DUP1 PUSH2 0x100 EXP DUP2 SLOAD DUP2 PUSH20 0xFFFFFFFFFFFFFFFFFFFFFFFFFFFFFFFFFFFFFFFF MUL NOT AND SWAP1 DUP4 PUSH20 0xFFFFFFFFFFFFFFFFFFFFFFFFFFFFFFFFFFFFFFFF AND MUL OR SWAP1 SSTORE POP PUSH1 0x40 MLOAD DUP1 PUSH1 0x80 ADD PUSH1 0x40 MSTORE DUP1 PUSH1 0x0 DUP1 SLOAD SWAP1 PUSH2 0x100 EXP SWAP1 DIV PUSH20 0xFFFFFFFFFFFFFFFFFFFFFFFFFFFFFFFFFFFFFFFF AND PUSH20 0xFFFFFFFFFFFFFFFFFFFFFFFFFFFFFFFFFFFFFFFF AND DUP2 MSTORE PUSH1 0x20 ADD PUSH1 0x40 MLOAD DUP1 PUSH1 0x40 ADD PUSH1 0x40 MSTORE DUP1 PUSH1 0x4 DUP2 MSTORE PUSH1 0x20 ADD PUSH32 0x4E554C4C00000000000000000000000000000000000000000000000000000000 DUP2 MSTORE POP DUP2 MSTORE PUSH1 0x20 ADD PUSH1 0x40 MLOAD DUP1 PUSH1 0x40 ADD PUSH1 0x40 MSTORE DUP1 PUSH1 0x4 DUP2 MSTORE PUSH1 0x20 ADD PUSH32 0x4E554C4C00000000000000000000000000000000000000000000000000000000 DUP2 MSTORE POP DUP2 MSTORE PUSH1 0x20 ADD PUSH1 0x1 ISZERO ISZERO DUP2 MSTORE POP PUSH1 0x8 PUSH1 0x0 DUP3 ADD MLOAD DUP2 PUSH1 0x0 ADD PUSH1 0x0 PUSH2 0x100 EXP DUP2 SLOAD DUP2 PUSH20 0xFFFFFFFFFFFFFFFFFFFFFFFFFFFFFFFFFFFFFFFF MUL NOT AND SWAP1 DUP4 PUSH20 0xFFFFFFFFFFFFFFFFFFFFFFFFFFFFFFFFFFFFFFFF AND MUL OR SWAP1 SSTORE POP PUSH1 0x20 DUP3 ADD MLOAD DUP2 PUSH1 0x1 ADD SWAP1 DUP2 PUSH3 0x176 SWAP2 SWAP1 PUSH3 0x432 JUMP JUMPDEST POP PUSH1 0x40 DUP3 ADD MLOAD DUP2 PUSH1 0x2 ADD SWAP1 DUP2 PUSH3 0x18E SWAP2 SWAP1 PUSH3 0x432 JUMP JUMPDEST POP PUSH1 0x60 DUP3 ADD MLOAD DUP2 PUSH1 0x3 ADD PUSH1 0x0 PUSH2 0x100 EXP DUP2 SLOAD DUP2 PUSH1 0xFF MUL NOT AND SWAP1 DUP4 ISZERO ISZERO MUL OR SWAP1 SSTORE POP SWAP1 POP POP PUSH3 0x519 JUMP JUMPDEST PUSH1 0x0 DUP2 MLOAD SWAP1 POP SWAP2 SWAP1 POP JUMP JUMPDEST PUSH32 0x4E487B7100000000000000000000000000000000000000000000000000000000 PUSH1 0x0 MSTORE PUSH1 0x41 PUSH1 0x4 MSTORE PUSH1 0x24 PUSH1 0x0 REVERT JUMPDEST PUSH32 0x4E487B7100000000000000000000000000000000000000000000000000000000 PUSH1 0x0 MSTORE PUSH1 0x22 PUSH1 0x4 MSTORE PUSH1 0x24 PUSH1 0x0 REVERT JUMPDEST PUSH1 0x0 PUSH1 0x2 DUP3 DIV SWAP1 POP PUSH1 0x1 DUP3 AND DUP1 PUSH3 0x23A JUMPI PUSH1 0x7F DUP3 AND SWAP2 POP JUMPDEST PUSH1 0x20 DUP3 LT DUP2 SUB PUSH3 0x250 JUMPI PUSH3 0x24F PUSH3 0x1F2 JUMP JUMPDEST JUMPDEST POP SWAP2 SWAP1 POP JUMP JUMPDEST PUSH1 0x0 DUP2 SWAP1 POP DUP2 PUSH1 0x0 MSTORE PUSH1 0x20 PUSH1 0x0 KECCAK256 SWAP1 POP SWAP2 SWAP1 POP JUMP JUMPDEST PUSH1 0x0 PUSH1 0x20 PUSH1 0x1F DUP4 ADD DIV SWAP1 POP SWAP2 SWAP1 POP JUMP JUMPDEST PUSH1 0x0 DUP3 DUP3 SHL SWAP1 POP SWAP3 SWAP2 POP POP JUMP JUMPDEST PUSH1 0x0 PUSH1 0x8 DUP4 MUL PUSH3 0x2BA PUSH32 0xFFFFFFFFFFFFFFFFFFFFFFFFFFFFFFFFFFFFFFFFFFFFFFFFFFFFFFFFFFFFFFFF DUP3 PUSH3 0x27B JUMP JUMPDEST PUSH3 0x2C6 DUP7 DUP4 PUSH3 0x27B JUMP JUMPDEST SWAP6 POP DUP1 NOT DUP5 AND SWAP4 POP DUP1 DUP7 AND DUP5 OR SWAP3 POP POP POP SWAP4 SWAP3 POP POP POP JUMP JUMPDEST PUSH1 0x0 DUP2 SWAP1 POP SWAP2 SWAP1 POP JUMP JUMPDEST PUSH1 0x0 DUP2 SWAP1 POP SWAP2 SWAP1 POP JUMP JUMPDEST PUSH1 0x0 PUSH3 0x313 PUSH3 0x30D PUSH3 0x307 DUP5 PUSH3 0x2DE JUMP JUMPDEST PUSH3 0x2E8 JUMP JUMPDEST PUSH3 0x2DE JUMP JUMPDEST SWAP1 POP SWAP2 SWAP1 POP JUMP JUMPDEST PUSH1 0x0 DUP2 SWAP1 POP SWAP2 SWAP1 POP JUMP JUMPDEST PUSH3 0x32F DUP4 PUSH3 0x2F2 JUMP JUMPDEST PUSH3 0x347 PUSH3 0x33E DUP3 PUSH3 0x31A JUMP JUMPDEST DUP5 DUP5 SLOAD PUSH3 0x288 JUMP JUMPDEST DUP3 SSTORE POP POP POP POP JUMP JUMPDEST PUSH1 0x0 SWAP1 JUMP JUMPDEST PUSH3 0x35E PUSH3 0x34F JUMP JUMPDEST PUSH3 0x36B DUP2 DUP5 DUP5 PUSH3 0x324 JUMP JUMPDEST POP POP POP JUMP JUMPDEST JUMPDEST DUP2 DUP2 LT ISZERO PUSH3 0x393 JUMPI PUSH3 0x387 PUSH1 0x0 DUP3 PUSH3 0x354 JUMP JUMPDEST PUSH1 0x1 DUP2 ADD SWAP1 POP PUSH3 0x371 JUMP JUMPDEST POP POP JUMP JUMPDEST PUSH1 0x1F DUP3 GT ISZERO PUSH3 0x3E2 JUMPI PUSH3 0x3AC DUP2 PUSH3 0x256 JUMP JUMPDEST PUSH3 0x3B7 DUP5 PUSH3 0x26B JUMP JUMPDEST DUP2 ADD PUSH1 0x20 DUP6 LT ISZERO PUSH3 0x3C7 JUMPI DUP2 SWAP1 POP JUMPDEST PUSH3 0x3DF PUSH3 0x3D6 DUP6 PUSH3 0x26B JUMP JUMPDEST DUP4 ADD DUP3 PUSH3 0x370 JUMP JUMPDEST POP POP JUMPDEST POP POP POP JUMP JUMPDEST PUSH1 0x0 DUP3 DUP3 SHR SWAP1 POP SWAP3 SWAP2 POP POP JUMP JUMPDEST PUSH1 0x0 PUSH3 0x407 PUSH1 0x0 NOT DUP5 PUSH1 0x8 MUL PUSH3 0x3E7 JUMP JUMPDEST NOT DUP1 DUP4 AND SWAP2 POP POP SWAP3 SWAP2 POP POP JUMP JUMPDEST PUSH1 0x0 PUSH3 0x422 DUP4 DUP4 PUSH3 0x3F4 JUMP JUMPDEST SWAP2 POP DUP3 PUSH1 0x2 MUL DUP3 OR SWAP1 POP SWAP3 SWAP2 POP POP JUMP JUMPDEST PUSH3 0x43D DUP3 PUSH3 0x1B8 JUMP JUMPDEST PUSH8 0xFFFFFFFFFFFFFFFF DUP2 GT ISZERO PUSH3 0x459 JUMPI PUSH3 0x458 PUSH3 0x1C3 JUMP JUMPDEST JUMPDEST PUSH3 0x465 DUP3 SLOAD PUSH3 0x221 JUMP JUMPDEST PUSH3 0x472 DUP3 DUP3 DUP6 PUSH3 0x397 JUMP JUMPDEST PUSH1 0x0 PUSH1 0x20 SWAP1 POP PUSH1 0x1F DUP4 GT PUSH1 0x1 DUP2 EQ PUSH3 0x4AA JUMPI PUSH1 0x0 DUP5 ISZERO PUSH3 0x495 JUMPI DUP3 DUP8 ADD MLOAD SWAP1 POP JUMPDEST PUSH3 0x4A1 DUP6 DUP3 PUSH3 0x414 JUMP JUMPDEST DUP7 SSTORE POP PUSH3 0x511 JUMP JUMPDEST PUSH1 0x1F NOT DUP5 AND PUSH3 0x4BA DUP7 PUSH3 0x256 JUMP JUMPDEST PUSH1 0x0 JUMPDEST DUP3 DUP2 LT ISZERO PUSH3 0x4E4 JUMPI DUP5 DUP10 ADD MLOAD DUP3 SSTORE PUSH1 0x1 DUP3 ADD SWAP2 POP PUSH1 0x20 DUP6 ADD SWAP5 POP PUSH1 0x20 DUP2 ADD SWAP1 POP PUSH3 0x4BD JUMP JUMPDEST DUP7 DUP4 LT ISZERO PUSH3 0x504 JUMPI DUP5 DUP10 ADD MLOAD PUSH3 0x500 PUSH1 0x1F DUP10 AND DUP3 PUSH3 0x3F4 JUMP JUMPDEST DUP4 SSTORE POP JUMPDEST PUSH1 0x1 PUSH1 0x2 DUP9 MUL ADD DUP9 SSTORE POP POP POP JUMPDEST POP POP POP POP POP POP JUMP JUMPDEST PUSH2 0x1FF5 DUP1 PUSH3 0x529 PUSH1 0x0 CODECOPY PUSH1 0x0 RETURN INVALID PUSH1 0x80 PUSH1 0x40 MSTORE CALLVALUE DUP1 ISZERO PUSH2 0x10 JUMPI PUSH1 0x0 DUP1 REVERT JUMPDEST POP PUSH1 0x4 CALLDATASIZE LT PUSH2 0xB4 JUMPI PUSH1 0x0 CALLDATALOAD PUSH1 0xE0 SHR DUP1 PUSH4 0xB96762AE GT PUSH2 0x71 JUMPI DUP1 PUSH4 0xB96762AE EQ PUSH2 0x141 JUMPI DUP1 PUSH4 0xC2B79836 EQ PUSH2 0x15D JUMPI DUP1 PUSH4 0xC4DC1556 EQ PUSH2 0x17B JUMPI DUP1 PUSH4 0xC70D33E3 EQ PUSH2 0x185 JUMPI DUP1 PUSH4 0xF2FDE38B EQ PUSH2 0x1A3 JUMPI DUP1 PUSH4 0xF863B454 EQ PUSH2 0x1BF JUMPI PUSH2 0xB4 JUMP JUMPDEST DUP1 PUSH4 0x2DE9F2E EQ PUSH2 0xB9 JUMPI DUP1 PUSH4 0x3D75DA94 EQ PUSH2 0xD5 JUMPI DUP1 PUSH4 0x8DA5CB5B EQ PUSH2 0xF1 JUMPI DUP1 PUSH4 0x98D5FDCA EQ PUSH2 0x10F JUMPI DUP1 PUSH4 0xB07672AE EQ PUSH2 0x12D JUMPI DUP1 PUSH4 0xB525EF0D EQ PUSH2 0x137 JUMPI JUMPDEST PUSH1 0x0 DUP1 REVERT JUMPDEST PUSH2 0xD3 PUSH1 0x4 DUP1 CALLDATASIZE SUB DUP2 ADD SWAP1 PUSH2 0xCE SWAP2 SWAP1 PUSH2 0x1496 JUMP JUMPDEST PUSH2 0x1DD JUMP JUMPDEST STOP JUMPDEST PUSH2 0xEF PUSH1 0x4 DUP1 CALLDATASIZE SUB DUP2 ADD SWAP1 PUSH2 0xEA SWAP2 SWAP1 PUSH2 0x156C JUMP JUMPDEST PUSH2 0x3AC JUMP JUMPDEST STOP JUMPDEST PUSH2 0xF9 PUSH2 0x4F1 JUMP JUMPDEST PUSH1 0x40 MLOAD PUSH2 0x106 SWAP2 SWAP1 PUSH2 0x15A8 JUMP JUMPDEST PUSH1 0x40 MLOAD DUP1 SWAP2 SUB SWAP1 RETURN JUMPDEST PUSH2 0x117 PUSH2 0x515 JUMP JUMPDEST PUSH1 0x40 MLOAD PUSH2 0x124 SWAP2 SWAP1 PUSH2 0x1642 JUMP JUMPDEST PUSH1 0x40 MLOAD DUP1 SWAP2 SUB SWAP1 RETURN JUMPDEST PUSH2 0x135 PUSH2 0x5A7 JUMP JUMPDEST STOP JUMPDEST PUSH2 0x13F PUSH2 0x6B5 JUMP JUMPDEST STOP JUMPDEST PUSH2 0x15B PUSH1 0x4 DUP1 CALLDATASIZE SUB DUP2 ADD SWAP1 PUSH2 0x156 SWAP2 SWAP1 PUSH2 0x156C JUMP JUMPDEST PUSH2 0x7CC JUMP JUMPDEST STOP JUMPDEST PUSH2 0x165 PUSH2 0x911 JUMP JUMPDEST PUSH1 0x40 MLOAD PUSH2 0x172 SWAP2 SWAP1 PUSH2 0x1742 JUMP JUMPDEST PUSH1 0x40 MLOAD DUP1 SWAP2 SUB SWAP1 RETURN JUMPDEST PUSH2 0x183 PUSH2 0xAC0 JUMP JUMPDEST STOP JUMPDEST PUSH2 0x18D PUSH2 0xD8A JUMP JUMPDEST PUSH1 0x40 MLOAD PUSH2 0x19A SWAP2 SWAP1 PUSH2 0x177D JUMP JUMPDEST PUSH1 0x40 MLOAD DUP1 SWAP2 SUB SWAP1 RETURN JUMPDEST PUSH2 0x1BD PUSH1 0x4 DUP1 CALLDATASIZE SUB DUP2 ADD SWAP1 PUSH2 0x1B8 SWAP2 SWAP1 PUSH2 0x156C JUMP JUMPDEST PUSH2 0xDB9 JUMP JUMPDEST STOP JUMPDEST PUSH2 0x1C7 PUSH2 0xE84 JUMP JUMPDEST PUSH1 0x40 MLOAD PUSH2 0x1D4 SWAP2 SWAP1 PUSH2 0x177D JUMP JUMPDEST PUSH1 0x40 MLOAD DUP1 SWAP2 SUB SWAP1 RETURN JUMPDEST PUSH1 0x0 PUSH2 0x1E7 PUSH2 0xEB3 JUMP JUMPDEST GT PUSH2 0x21E JUMPI PUSH1 0x40 MLOAD PUSH32 0xF8EB54DE00000000000000000000000000000000000000000000000000000000 DUP2 MSTORE PUSH1 0x4 ADD PUSH1 0x40 MLOAD DUP1 SWAP2 SUB SWAP1 REVERT JUMPDEST PUSH1 0x8 PUSH1 0x3 ADD PUSH1 0x0 SWAP1 SLOAD SWAP1 PUSH2 0x100 EXP SWAP1 DIV PUSH1 0xFF AND ISZERO PUSH2 0x273 JUMPI TIMESTAMP PUSH1 0x6 SLOAD GT ISZERO PUSH2 0x272 JUMPI PUSH1 0x40 MLOAD PUSH32 0xA9174B1700000000000000000000000000000000000000000000000000000000 DUP2 MSTORE PUSH1 0x4 ADD PUSH1 0x40 MLOAD DUP1 SWAP2 SUB SWAP1 REVERT JUMPDEST JUMPDEST PUSH2 0x258 TIMESTAMP PUSH2 0x281 SWAP2 SWAP1 PUSH2 0x17C7 JUMP JUMPDEST PUSH1 0x6 DUP2 SWAP1 SSTORE POP PUSH2 0x12C TIMESTAMP PUSH2 0x295 SWAP2 SWAP1 PUSH2 0x17C7 JUMP JUMPDEST PUSH1 0x7 DUP2 SWAP1 SSTORE POP PUSH1 0x40 MLOAD DUP1 PUSH1 0x80 ADD PUSH1 0x40 MSTORE DUP1 CALLER PUSH20 0xFFFFFFFFFFFFFFFFFFFFFFFFFFFFFFFFFFFFFFFF AND DUP2 MSTORE PUSH1 0x20 ADD DUP4 DUP2 MSTORE PUSH1 0x20 ADD DUP3 DUP2 MSTORE PUSH1 0x20 ADD PUSH1 0x0 ISZERO ISZERO DUP2 MSTORE POP PUSH1 0x8 PUSH1 0x0 DUP3 ADD MLOAD DUP2 PUSH1 0x0 ADD PUSH1 0x0 PUSH2 0x100 EXP DUP2 SLOAD DUP2 PUSH20 0xFFFFFFFFFFFFFFFFFFFFFFFFFFFFFFFFFFFFFFFF MUL NOT AND SWAP1 DUP4 PUSH20 0xFFFFFFFFFFFFFFFFFFFFFFFFFFFFFFFFFFFFFFFF AND MUL OR SWAP1 SSTORE POP PUSH1 0x20 DUP3 ADD MLOAD DUP2 PUSH1 0x1 ADD SWAP1 DUP2 PUSH2 0x333 SWAP2 SWAP1 PUSH2 0x1A07 JUMP JUMPDEST POP PUSH1 0x40 DUP3 ADD MLOAD DUP2 PUSH1 0x2 ADD SWAP1 DUP2 PUSH2 0x349 SWAP2 SWAP1 PUSH2 0x1A07 JUMP JUMPDEST POP PUSH1 0x60 DUP3 ADD MLOAD DUP2 PUSH1 0x3 ADD PUSH1 0x0 PUSH2 0x100 EXP DUP2 SLOAD DUP2 PUSH1 0xFF MUL NOT AND SWAP1 DUP4 ISZERO ISZERO MUL OR SWAP1 SSTORE POP SWAP1 POP POP PUSH32 0x7EE0A17A4563C16D1072D423DC4448C5D14AC076B5982ABC0762421172BEEA61 DUP3 DUP3 CALLER PUSH1 0x40 MLOAD PUSH2 0x3A0 SWAP4 SWAP3 SWAP2 SWAP1 PUSH2 0x1AD9 JUMP JUMPDEST PUSH1 0x40 MLOAD DUP1 SWAP2 SUB SWAP1 LOG1 POP POP JUMP JUMPDEST PUSH2 0x3B4 PUSH2 0xF56 JUMP JUMPDEST PUSH1 0x0 DUP2 SWAP1 POP DUP1 PUSH20 0xFFFFFFFFFFFFFFFFFFFFFFFFFFFFFFFFFFFFFFFF AND PUSH4 0x70A08231 ADDRESS PUSH1 0x40 MLOAD DUP3 PUSH4 0xFFFFFFFF AND PUSH1 0xE0 SHL DUP2 MSTORE PUSH1 0x4 ADD PUSH2 0x3F2 SWAP2 SWAP1 PUSH2 0x15A8 JUMP JUMPDEST PUSH1 0x20 PUSH1 0x40 MLOAD DUP1 DUP4 SUB DUP2 DUP7 GAS STATICCALL ISZERO DUP1 ISZERO PUSH2 0x40F JUMPI RETURNDATASIZE PUSH1 0x0 DUP1 RETURNDATACOPY RETURNDATASIZE PUSH1 0x0 REVERT JUMPDEST POP POP POP POP PUSH1 0x40 MLOAD RETURNDATASIZE PUSH1 0x1F NOT PUSH1 0x1F DUP3 ADD AND DUP3 ADD DUP1 PUSH1 0x40 MSTORE POP DUP2 ADD SWAP1 PUSH2 0x433 SWAP2 SWAP1 PUSH2 0x1B4A JUMP JUMPDEST POP DUP1 PUSH1 0x1 PUSH1 0x0 PUSH2 0x100 EXP DUP2 SLOAD DUP2 PUSH20 0xFFFFFFFFFFFFFFFFFFFFFFFFFFFFFFFFFFFFFFFF MUL NOT AND SWAP1 DUP4 PUSH20 0xFFFFFFFFFFFFFFFFFFFFFFFFFFFFFFFFFFFFFFFF AND MUL OR SWAP1 SSTORE POP DUP2 PUSH1 0x4 PUSH1 0x0 PUSH2 0x100 EXP DUP2 SLOAD DUP2 PUSH20 0xFFFFFFFFFFFFFFFFFFFFFFFFFFFFFFFFFFFFFFFF MUL NOT AND SWAP1 DUP4 PUSH20 0xFFFFFFFFFFFFFFFFFFFFFFFFFFFFFFFFFFFFFFFF AND MUL OR SWAP1 SSTORE POP PUSH32 0x26317221E726B9C268B3046DA713D2019AE4BC96ACAD9C2E1C534DA90FC5E9D4 DUP3 PUSH1 0x40 MLOAD PUSH2 0x4E5 SWAP2 SWAP1 PUSH2 0x15A8 JUMP JUMPDEST PUSH1 0x40 MLOAD DUP1 SWAP2 SUB SWAP1 LOG1 POP POP JUMP JUMPDEST PUSH1 0x0 DUP1 SLOAD SWAP1 PUSH2 0x100 EXP SWAP1 DIV PUSH20 0xFFFFFFFFFFFFFFFFFFFFFFFFFFFFFFFFFFFFFFFF AND DUP2 JUMP JUMPDEST PUSH1 0x60 PUSH1 0x5 DUP1 SLOAD PUSH2 0x524 SWAP1 PUSH2 0x182A JUMP JUMPDEST DUP1 PUSH1 0x1F ADD PUSH1 0x20 DUP1 SWAP2 DIV MUL PUSH1 0x20 ADD PUSH1 0x40 MLOAD SWAP1 DUP2 ADD PUSH1 0x40 MSTORE DUP1 SWAP3 SWAP2 SWAP1 DUP2 DUP2 MSTORE PUSH1 0x20 ADD DUP3 DUP1 SLOAD PUSH2 0x550 SWAP1 PUSH2 0x182A JUMP JUMPDEST DUP1 ISZERO PUSH2 0x59D JUMPI DUP1 PUSH1 0x1F LT PUSH2 0x572 JUMPI PUSH2 0x100 DUP1 DUP4 SLOAD DIV MUL DUP4 MSTORE SWAP2 PUSH1 0x20 ADD SWAP2 PUSH2 0x59D JUMP JUMPDEST DUP3 ADD SWAP2 SWAP1 PUSH1 0x0 MSTORE PUSH1 0x20 PUSH1 0x0 KECCAK256 SWAP1 JUMPDEST DUP2 SLOAD DUP2 MSTORE SWAP1 PUSH1 0x1 ADD SWAP1 PUSH1 0x20 ADD DUP1 DUP4 GT PUSH2 0x580 JUMPI DUP3 SWAP1 SUB PUSH1 0x1F AND DUP3 ADD SWAP2 JUMPDEST POP POP POP POP POP SWAP1 POP SWAP1 JUMP JUMPDEST PUSH1 0x0 PUSH2 0x5B1 PUSH2 0xFE8 JUMP JUMPDEST SWAP1 POP PUSH1 0x0 CALLER SWAP1 POP PUSH1 0xC DUP2 SWAP1 DUP1 PUSH1 0x1 DUP2 SLOAD ADD DUP1 DUP3 SSTORE DUP1 SWAP2 POP POP PUSH1 0x1 SWAP1 SUB SWAP1 PUSH1 0x0 MSTORE PUSH1 0x20 PUSH1 0x0 KECCAK256 ADD PUSH1 0x0 SWAP1 SWAP2 SWAP1 SWAP2 SWAP1 SWAP2 PUSH2 0x100 EXP DUP2 SLOAD DUP2 PUSH20 0xFFFFFFFFFFFFFFFFFFFFFFFFFFFFFFFFFFFFFFFF MUL NOT AND SWAP1 DUP4 PUSH20 0xFFFFFFFFFFFFFFFFFFFFFFFFFFFFFFFFFFFFFFFF AND MUL OR SWAP1 SSTORE POP DUP2 PUSH1 0xD PUSH1 0x0 DUP4 PUSH20 0xFFFFFFFFFFFFFFFFFFFFFFFFFFFFFFFFFFFFFFFF AND PUSH20 0xFFFFFFFFFFFFFFFFFFFFFFFFFFFFFFFFFFFFFFFF AND DUP2 MSTORE PUSH1 0x20 ADD SWAP1 DUP2 MSTORE PUSH1 0x20 ADD PUSH1 0x0 KECCAK256 PUSH1 0x0 PUSH2 0x100 EXP DUP2 SLOAD DUP2 PUSH2 0xFFFF MUL NOT AND SWAP1 DUP4 PUSH1 0x1 SIGNEXTEND PUSH2 0xFFFF AND MUL OR SWAP1 SSTORE POP PUSH32 0x33FABBA9378C138B4FD0872656523539FE2CA7F3CA14A28C15BE6922C925DD87 DUP2 DUP4 PUSH1 0x40 MLOAD PUSH2 0x6A9 SWAP3 SWAP2 SWAP1 PUSH2 0x1B94 JUMP JUMPDEST PUSH1 0x40 MLOAD DUP1 SWAP2 SUB SWAP1 LOG1 POP POP JUMP JUMPDEST PUSH1 0x0 PUSH2 0x6BF PUSH2 0xFE8 JUMP JUMPDEST SWAP1 POP PUSH1 0x0 CALLER SWAP1 POP PUSH1 0xC DUP2 SWAP1 DUP1 PUSH1 0x1 DUP2 SLOAD ADD DUP1 DUP3 SSTORE DUP1 SWAP2 POP POP PUSH1 0x1 SWAP1 SUB SWAP1 PUSH1 0x0 MSTORE PUSH1 0x20 PUSH1 0x0 KECCAK256 ADD PUSH1 0x0 SWAP1 SWAP2 SWAP1 SWAP2 SWAP1 SWAP2 PUSH2 0x100 EXP DUP2 SLOAD DUP2 PUSH20 0xFFFFFFFFFFFFFFFFFFFFFFFFFFFFFFFFFFFFFFFF MUL NOT AND SWAP1 DUP4 PUSH20 0xFFFFFFFFFFFFFFFFFFFFFFFFFFFFFFFFFFFFFFFF AND MUL OR SWAP1 SSTORE POP DUP2 PUSH2 0x733 SWAP1 PUSH2 0x1BCA JUMP JUMPDEST PUSH1 0xD PUSH1 0x0 DUP4 PUSH20 0xFFFFFFFFFFFFFFFFFFFFFFFFFFFFFFFFFFFFFFFF AND PUSH20 0xFFFFFFFFFFFFFFFFFFFFFFFFFFFFFFFFFFFFFFFF AND DUP2 MSTORE PUSH1 0x20 ADD SWAP1 DUP2 MSTORE PUSH1 0x20 ADD PUSH1 0x0 KECCAK256 PUSH1 0x0 PUSH2 0x100 EXP DUP2 SLOAD DUP2 PUSH2 0xFFFF MUL NOT AND SWAP1 DUP4 PUSH1 0x1 SIGNEXTEND PUSH2 0xFFFF AND MUL OR SWAP1 SSTORE POP PUSH32 0xAAB3F0444F9EBDC2F3123616CD1EF4CD06E39F5D865030BC51AA785362965C7C DUP2 DUP4 PUSH1 0x40 MLOAD PUSH2 0x7C0 SWAP3 SWAP2 SWAP1 PUSH2 0x1B94 JUMP JUMPDEST PUSH1 0x40 MLOAD DUP1 SWAP2 SUB SWAP1 LOG1 POP POP JUMP JUMPDEST PUSH2 0x7D4 PUSH2 0xF56 JUMP JUMPDEST PUSH1 0x0 DUP2 SWAP1 POP DUP1 PUSH20 0xFFFFFFFFFFFFFFFFFFFFFFFFFFFFFFFFFFFFFFFF AND PUSH4 0x70A08231 ADDRESS PUSH1 0x40 MLOAD DUP3 PUSH4 0xFFFFFFFF AND PUSH1 0xE0 SHL DUP2 MSTORE PUSH1 0x4 ADD PUSH2 0x812 SWAP2 SWAP1 PUSH2 0x15A8 JUMP JUMPDEST PUSH1 0x20 PUSH1 0x40 MLOAD DUP1 DUP4 SUB DUP2 DUP7 GAS STATICCALL ISZERO DUP1 ISZERO PUSH2 0x82F JUMPI RETURNDATASIZE PUSH1 0x0 DUP1 RETURNDATACOPY RETURNDATASIZE PUSH1 0x0 REVERT JUMPDEST POP POP POP POP PUSH1 0x40 MLOAD RETURNDATASIZE PUSH1 0x1F NOT PUSH1 0x1F DUP3 ADD AND DUP3 ADD DUP1 PUSH1 0x40 MSTORE POP DUP2 ADD SWAP1 PUSH2 0x853 SWAP2 SWAP1 PUSH2 0x1B4A JUMP JUMPDEST POP DUP1 PUSH1 0x2 PUSH1 0x0 PUSH2 0x100 EXP DUP2 SLOAD DUP2 PUSH20 0xFFFFFFFFFFFFFFFFFFFFFFFFFFFFFFFFFFFFFFFF MUL NOT AND SWAP1 DUP4 PUSH20 0xFFFFFFFFFFFFFFFFFFFFFFFFFFFFFFFFFFFFFFFF AND MUL OR SWAP1 SSTORE POP DUP2 PUSH1 0x3 PUSH1 0x0 PUSH2 0x100 EXP DUP2 SLOAD DUP2 PUSH20 0xFFFFFFFFFFFFFFFFFFFFFFFFFFFFFFFFFFFFFFFF MUL NOT AND SWAP1 DUP4 PUSH20 0xFFFFFFFFFFFFFFFFFFFFFFFFFFFFFFFFFFFFFFFF AND MUL OR SWAP1 SSTORE POP PUSH32 0x708E1E0CC2637DD479A4CB4AB8DC07655E145E2B159249ACA7146AB62B67D005 DUP3 PUSH1 0x40 MLOAD PUSH2 0x905 SWAP2 SWAP1 PUSH2 0x15A8 JUMP JUMPDEST PUSH1 0x40 MLOAD DUP1 SWAP2 SUB SWAP1 LOG1 POP POP JUMP JUMPDEST PUSH2 0x919 PUSH2 0x12FC JUMP JUMPDEST PUSH1 0x8 PUSH1 0x40 MLOAD DUP1 PUSH1 0x80 ADD PUSH1 0x40 MSTORE SWAP1 DUP2 PUSH1 0x0 DUP3 ADD PUSH1 0x0 SWAP1 SLOAD SWAP1 PUSH2 0x100 EXP SWAP1 DIV PUSH20 0xFFFFFFFFFFFFFFFFFFFFFFFFFFFFFFFFFFFFFFFF AND PUSH20 0xFFFFFFFFFFFFFFFFFFFFFFFFFFFFFFFFFFFFFFFF AND PUSH20 0xFFFFFFFFFFFFFFFFFFFFFFFFFFFFFFFFFFFFFFFF AND DUP2 MSTORE PUSH1 0x20 ADD PUSH1 0x1 DUP3 ADD DUP1 SLOAD PUSH2 0x98C SWAP1 PUSH2 0x182A JUMP JUMPDEST DUP1 PUSH1 0x1F ADD PUSH1 0x20 DUP1 SWAP2 DIV MUL PUSH1 0x20 ADD PUSH1 0x40 MLOAD SWAP1 DUP2 ADD PUSH1 0x40 MSTORE DUP1 SWAP3 SWAP2 SWAP1 DUP2 DUP2 MSTORE PUSH1 0x20 ADD DUP3 DUP1 SLOAD PUSH2 0x9B8 SWAP1 PUSH2 0x182A JUMP JUMPDEST DUP1 ISZERO PUSH2 0xA05 JUMPI DUP1 PUSH1 0x1F LT PUSH2 0x9DA JUMPI PUSH2 0x100 DUP1 DUP4 SLOAD DIV MUL DUP4 MSTORE SWAP2 PUSH1 0x20 ADD SWAP2 PUSH2 0xA05 JUMP JUMPDEST DUP3 ADD SWAP2 SWAP1 PUSH1 0x0 MSTORE PUSH1 0x20 PUSH1 0x0 KECCAK256 SWAP1 JUMPDEST DUP2 SLOAD DUP2 MSTORE SWAP1 PUSH1 0x1 ADD SWAP1 PUSH1 0x20 ADD DUP1 DUP4 GT PUSH2 0x9E8 JUMPI DUP3 SWAP1 SUB PUSH1 0x1F AND DUP3 ADD SWAP2 JUMPDEST POP POP POP POP POP DUP2 MSTORE PUSH1 0x20 ADD PUSH1 0x2 DUP3 ADD DUP1 SLOAD PUSH2 0xA1E SWAP1 PUSH2 0x182A JUMP JUMPDEST DUP1 PUSH1 0x1F ADD PUSH1 0x20 DUP1 SWAP2 DIV MUL PUSH1 0x20 ADD PUSH1 0x40 MLOAD SWAP1 DUP2 ADD PUSH1 0x40 MSTORE DUP1 SWAP3 SWAP2 SWAP1 DUP2 DUP2 MSTORE PUSH1 0x20 ADD DUP3 DUP1 SLOAD PUSH2 0xA4A SWAP1 PUSH2 0x182A JUMP JUMPDEST DUP1 ISZERO PUSH2 0xA97 JUMPI DUP1 PUSH1 0x1F LT PUSH2 0xA6C JUMPI PUSH2 0x100 DUP1 DUP4 SLOAD DIV MUL DUP4 MSTORE SWAP2 PUSH1 0x20 ADD SWAP2 PUSH2 0xA97 JUMP JUMPDEST DUP3 ADD SWAP2 SWAP1 PUSH1 0x0 MSTORE PUSH1 0x20 PUSH1 0x0 KECCAK256 SWAP1 JUMPDEST DUP2 SLOAD DUP2 MSTORE SWAP1 PUSH1 0x1 ADD SWAP1 PUSH1 0x20 ADD DUP1 DUP4 GT PUSH2 0xA7A JUMPI DUP3 SWAP1 SUB PUSH1 0x1F AND DUP3 ADD SWAP2 JUMPDEST POP POP POP POP POP DUP2 MSTORE PUSH1 0x20 ADD PUSH1 0x3 DUP3 ADD PUSH1 0x0 SWAP1 SLOAD SWAP1 PUSH2 0x100 EXP SWAP1 DIV PUSH1 0xFF AND ISZERO ISZERO ISZERO ISZERO DUP2 MSTORE POP POP SWAP1 POP SWAP1 JUMP JUMPDEST TIMESTAMP PUSH1 0x7 SLOAD GT ISZERO PUSH2 0xAFC JUMPI PUSH1 0x40 MLOAD PUSH32 0xA9174B1700000000000000000000000000000000000000000000000000000000 DUP2 MSTORE PUSH1 0x4 ADD PUSH1 0x40 MLOAD DUP1 SWAP2 SUB SWAP1 REVERT JUMPDEST PUSH1 0x6 SLOAD TIMESTAMP LT PUSH2 0xB37 JUMPI PUSH1 0x40 MLOAD PUSH32 0xC1F1C4DF00000000000000000000000000000000000000000000000000000000 DUP2 MSTORE PUSH1 0x4 ADD PUSH1 0x40 MLOAD DUP1 SWAP2 SUB SWAP1 REVERT JUMPDEST PUSH1 0x8 PUSH1 0x3 ADD PUSH1 0x0 SWAP1 SLOAD SWAP1 PUSH2 0x100 EXP SWAP1 DIV PUSH1 0xFF AND ISZERO PUSH2 0xB81 JUMPI PUSH1 0x40 MLOAD PUSH32 0x9C93EB2D00000000000000000000000000000000000000000000000000000000 DUP2 MSTORE PUSH1 0x4 ADD PUSH1 0x40 MLOAD DUP1 SWAP2 SUB SWAP1 REVERT JUMPDEST PUSH1 0x0 DUP1 PUSH1 0x0 DUP1 PUSH1 0x0 DUP1 PUSH1 0x1 PUSH1 0xC DUP1 SLOAD SWAP1 POP PUSH2 0xB9C SWAP2 SWAP1 PUSH2 0x1C12 JUMP JUMPDEST SWAP1 POP JUMPDEST PUSH1 0x0 DUP2 LT PUSH2 0xCB1 JUMPI PUSH1 0xC DUP2 DUP2 SLOAD DUP2 LT PUSH2 0xBBB JUMPI PUSH2 0xBBA PUSH2 0x1C46 JUMP JUMPDEST JUMPDEST SWAP1 PUSH1 0x0 MSTORE PUSH1 0x20 PUSH1 0x0 KECCAK256 ADD PUSH1 0x0 SWAP1 SLOAD SWAP1 PUSH2 0x100 EXP SWAP1 DIV PUSH20 0xFFFFFFFFFFFFFFFFFFFFFFFFFFFFFFFFFFFFFFFF AND SWAP2 POP PUSH1 0xD PUSH1 0x0 DUP4 PUSH20 0xFFFFFFFFFFFFFFFFFFFFFFFFFFFFFFFFFFFFFFFF AND PUSH20 0xFFFFFFFFFFFFFFFFFFFFFFFFFFFFFFFFFFFFFFFF AND DUP2 MSTORE PUSH1 0x20 ADD SWAP1 DUP2 MSTORE PUSH1 0x20 ADD PUSH1 0x0 KECCAK256 PUSH1 0x0 SWAP1 SLOAD SWAP1 PUSH2 0x100 EXP SWAP1 DIV PUSH1 0x1 SIGNEXTEND SWAP4 POP PUSH2 0xC40 DUP3 PUSH2 0x1105 JUMP JUMPDEST SWAP3 POP DUP3 PUSH2 0xFFFF AND PUSH2 0xC50 DUP6 PUSH2 0x11AA JUMP JUMPDEST PUSH2 0xFFFF AND SUB PUSH2 0xC9E JUMPI PUSH1 0x0 DUP5 PUSH1 0x1 SIGNEXTEND SGT ISZERO PUSH2 0xC78 JUMPI DUP4 DUP7 PUSH2 0xC71 SWAP2 SWAP1 PUSH2 0x1C75 JUMP JUMPDEST SWAP6 POP PUSH2 0xC9D JUMP JUMPDEST PUSH1 0x0 DUP5 PUSH1 0x1 SIGNEXTEND SLT ISZERO PUSH2 0xC9C JUMPI DUP4 PUSH2 0xC8E SWAP1 PUSH2 0x1BCA JUMP JUMPDEST DUP6 PUSH2 0xC99 SWAP2 SWAP1 PUSH2 0x1C75 JUMP JUMPDEST SWAP5 POP JUMPDEST JUMPDEST JUMPDEST DUP1 DUP1 PUSH2 0xCA9 SWAP1 PUSH2 0x1CAB JUMP JUMPDEST SWAP2 POP POP PUSH2 0xB9F JUMP JUMPDEST POP PUSH1 0x1 PUSH1 0x8 PUSH1 0x3 ADD PUSH1 0x0 PUSH2 0x100 EXP DUP2 SLOAD DUP2 PUSH1 0xFF MUL NOT AND SWAP1 DUP4 ISZERO ISZERO MUL OR SWAP1 SSTORE POP DUP4 PUSH2 0xFFFF AND DUP6 PUSH2 0xFFFF AND GT ISZERO PUSH2 0xD49 JUMPI PUSH2 0xCF4 DUP5 DUP7 PUSH2 0xCEF SWAP2 SWAP1 PUSH2 0x1C75 JUMP JUMPDEST PUSH2 0x11CF JUMP JUMPDEST PUSH1 0x8 PUSH1 0x1 ADD PUSH1 0x5 SWAP1 DUP2 PUSH2 0xD07 SWAP2 SWAP1 PUSH2 0x1CFF JUMP JUMPDEST POP PUSH32 0xC965D144FC58D48E5F9A6AA80CD6057C77AF099482C91F56A9C36920ED60C278 DUP6 DUP6 PUSH1 0x5 PUSH1 0x40 MLOAD PUSH2 0xD3C SWAP4 SWAP3 SWAP2 SWAP1 PUSH2 0x1E6B JUMP JUMPDEST PUSH1 0x40 MLOAD DUP1 SWAP2 SUB SWAP1 LOG1 PUSH2 0xD83 JUMP JUMPDEST PUSH32 0xAEEDBA74278BF0D29C304A846608F0C3E654216BB74466DF6969108E1AC2B1C8 DUP6 DUP6 PUSH1 0x40 MLOAD PUSH2 0xD7A SWAP3 SWAP2 SWAP1 PUSH2 0x1EA9 JUMP JUMPDEST PUSH1 0x40 MLOAD DUP1 SWAP2 SUB SWAP1 LOG1 JUMPDEST POP POP POP POP POP JUMP JUMPDEST PUSH1 0x0 DUP1 TIMESTAMP SWAP1 POP DUP1 PUSH1 0x6 SLOAD LT ISZERO PUSH2 0xDA4 JUMPI PUSH1 0x0 SWAP2 POP POP PUSH2 0xDB6 JUMP JUMPDEST DUP1 PUSH1 0x6 SLOAD PUSH2 0xDB2 SWAP2 SWAP1 PUSH2 0x1C12 JUMP JUMPDEST SWAP2 POP POP JUMPDEST SWAP1 JUMP JUMPDEST PUSH2 0xDC1 PUSH2 0xF56 JUMP JUMPDEST PUSH1 0x0 DUP1 PUSH1 0x0 SWAP1 SLOAD SWAP1 PUSH2 0x100 EXP SWAP1 DIV PUSH20 0xFFFFFFFFFFFFFFFFFFFFFFFFFFFFFFFFFFFFFFFF AND SWAP1 POP DUP2 PUSH1 0x0 DUP1 PUSH2 0x100 EXP DUP2 SLOAD DUP2 PUSH20 0xFFFFFFFFFFFFFFFFFFFFFFFFFFFFFFFFFFFFFFFF MUL NOT AND SWAP1 DUP4 PUSH20 0xFFFFFFFFFFFFFFFFFFFFFFFFFFFFFFFFFFFFFFFF AND MUL OR SWAP1 SSTORE POP PUSH32 0x850B3DF64837D7D518B45F5AA64D104652C3B80EB5B34A8E3D9EB666CB7CDEA5 DUP2 PUSH1 0x0 DUP1 SLOAD SWAP1 PUSH2 0x100 EXP SWAP1 DIV PUSH20 0xFFFFFFFFFFFFFFFFFFFFFFFFFFFFFFFFFFFFFFFF AND PUSH1 0x40 MLOAD PUSH2 0xE78 SWAP3 SWAP2 SWAP1 PUSH2 0x1ED2 JUMP JUMPDEST PUSH1 0x40 MLOAD DUP1 SWAP2 SUB SWAP1 LOG1 POP POP JUMP JUMPDEST PUSH1 0x0 DUP1 TIMESTAMP SWAP1 POP DUP1 PUSH1 0x7 SLOAD LT ISZERO PUSH2 0xE9E JUMPI PUSH1 0x0 SWAP2 POP POP PUSH2 0xEB0 JUMP JUMPDEST DUP1 PUSH1 0x7 SLOAD PUSH2 0xEAC SWAP2 SWAP1 PUSH2 0x1C12 JUMP JUMPDEST SWAP2 POP POP JUMPDEST SWAP1 JUMP JUMPDEST PUSH1 0x0 PUSH1 0x2 PUSH1 0x0 SWAP1 SLOAD SWAP1 PUSH2 0x100 EXP SWAP1 DIV PUSH20 0xFFFFFFFFFFFFFFFFFFFFFFFFFFFFFFFFFFFFFFFF AND PUSH20 0xFFFFFFFFFFFFFFFFFFFFFFFFFFFFFFFFFFFFFFFF AND PUSH4 0x70A08231 CALLER PUSH1 0x40 MLOAD DUP3 PUSH4 0xFFFFFFFF AND PUSH1 0xE0 SHL DUP2 MSTORE PUSH1 0x4 ADD PUSH2 0xF10 SWAP2 SWAP1 PUSH2 0x15A8 JUMP JUMPDEST PUSH1 0x20 PUSH1 0x40 MLOAD DUP1 DUP4 SUB DUP2 DUP7 GAS STATICCALL ISZERO DUP1 ISZERO PUSH2 0xF2D JUMPI RETURNDATASIZE PUSH1 0x0 DUP1 RETURNDATACOPY RETURNDATASIZE PUSH1 0x0 REVERT JUMPDEST POP POP POP POP PUSH1 0x40 MLOAD RETURNDATASIZE PUSH1 0x1F NOT PUSH1 0x1F DUP3 ADD AND DUP3 ADD DUP1 PUSH1 0x40 MSTORE POP DUP2 ADD SWAP1 PUSH2 0xF51 SWAP2 SWAP1 PUSH2 0x1B4A JUMP JUMPDEST SWAP1 POP SWAP1 JUMP JUMPDEST PUSH1 0x0 DUP1 SLOAD SWAP1 PUSH2 0x100 EXP SWAP1 DIV PUSH20 0xFFFFFFFFFFFFFFFFFFFFFFFFFFFFFFFFFFFFFFFF AND PUSH20 0xFFFFFFFFFFFFFFFFFFFFFFFFFFFFFFFFFFFFFFFF AND CALLER PUSH20 0xFFFFFFFFFFFFFFFFFFFFFFFFFFFFFFFFFFFFFFFF AND EQ PUSH2 0xFE6 JUMPI CALLER PUSH1 0x40 MLOAD PUSH32 0x32B2BAA300000000000000000000000000000000000000000000000000000000 DUP2 MSTORE PUSH1 0x4 ADD PUSH2 0xFDD SWAP2 SWAP1 PUSH2 0x15A8 JUMP JUMPDEST PUSH1 0x40 MLOAD DUP1 SWAP2 SUB SWAP1 REVERT JUMPDEST JUMP JUMPDEST PUSH1 0x0 PUSH1 0x7 SLOAD TIMESTAMP LT PUSH2 0x1025 JUMPI PUSH1 0x40 MLOAD PUSH32 0x3DC1D21400000000000000000000000000000000000000000000000000000000 DUP2 MSTORE PUSH1 0x4 ADD PUSH1 0x40 MLOAD DUP1 SWAP2 SUB SWAP1 REVERT JUMPDEST PUSH1 0x0 PUSH1 0xD PUSH1 0x0 CALLER PUSH20 0xFFFFFFFFFFFFFFFFFFFFFFFFFFFFFFFFFFFFFFFF AND PUSH20 0xFFFFFFFFFFFFFFFFFFFFFFFFFFFFFFFFFFFFFFFF AND DUP2 MSTORE PUSH1 0x20 ADD SWAP1 DUP2 MSTORE PUSH1 0x20 ADD PUSH1 0x0 KECCAK256 PUSH1 0x0 SWAP1 SLOAD SWAP1 PUSH2 0x100 EXP SWAP1 DIV PUSH1 0x1 SIGNEXTEND SWAP1 POP PUSH1 0x0 DUP2 PUSH1 0x1 SIGNEXTEND EQ PUSH2 0x10B3 JUMPI PUSH1 0x40 MLOAD PUSH32 0x7C9A1CF900000000000000000000000000000000000000000000000000000000 DUP2 MSTORE PUSH1 0x4 ADD PUSH1 0x40 MLOAD DUP1 SWAP2 SUB SWAP1 REVERT JUMPDEST PUSH1 0x0 PUSH2 0x10BD PUSH2 0xEB3 JUMP JUMPDEST SWAP1 POP PUSH1 0x0 DUP2 PUSH2 0xFFFF AND GT PUSH2 0x10FD JUMPI PUSH1 0x40 MLOAD PUSH32 0xF8EB54DE00000000000000000000000000000000000000000000000000000000 DUP2 MSTORE PUSH1 0x4 ADD PUSH1 0x40 MLOAD DUP1 SWAP2 SUB SWAP1 REVERT JUMPDEST DUP1 SWAP3 POP POP POP SWAP1 JUMP JUMPDEST PUSH1 0x0 PUSH1 0x2 PUSH1 0x0 SWAP1 SLOAD SWAP1 PUSH2 0x100 EXP SWAP1 DIV PUSH20 0xFFFFFFFFFFFFFFFFFFFFFFFFFFFFFFFFFFFFFFFF AND PUSH20 0xFFFFFFFFFFFFFFFFFFFFFFFFFFFFFFFFFFFFFFFF AND PUSH4 0x70A08231 DUP4 PUSH1 0x40 MLOAD DUP3 PUSH4 0xFFFFFFFF AND PUSH1 0xE0 SHL DUP2 MSTORE PUSH1 0x4 ADD PUSH2 0x1162 SWAP2 SWAP1 PUSH2 0x15A8 JUMP JUMPDEST PUSH1 0x20 PUSH1 0x40 MLOAD DUP1 DUP4 SUB DUP2 DUP7 GAS STATICCALL ISZERO DUP1 ISZERO PUSH2 0x117F JUMPI RETURNDATASIZE PUSH1 0x0 DUP1 RETURNDATACOPY RETURNDATASIZE PUSH1 0x0 REVERT JUMPDEST POP POP POP POP PUSH1 0x40 MLOAD RETURNDATASIZE PUSH1 0x1F NOT PUSH1 0x1F DUP3 ADD AND DUP3 ADD DUP1 PUSH1 0x40 MSTORE POP DUP2 ADD SWAP1 PUSH2 0x11A3 SWAP2 SWAP1 PUSH2 0x1B4A JUMP JUMPDEST SWAP1 POP SWAP2 SWAP1 POP JUMP JUMPDEST PUSH1 0x0 DUP1 DUP3 PUSH1 0x1 SIGNEXTEND SLT ISZERO PUSH2 0x11C6 JUMPI DUP2 PUSH2 0x11C1 SWAP1 PUSH2 0x1BCA JUMP JUMPDEST PUSH2 0x11C8 JUMP JUMPDEST DUP2 JUMPDEST SWAP1 POP SWAP2 SWAP1 POP JUMP JUMPDEST PUSH1 0x0 PUSH1 0x8 PUSH1 0x0 ADD PUSH1 0x0 SWAP1 SLOAD SWAP1 PUSH2 0x100 EXP SWAP1 DIV PUSH20 0xFFFFFFFFFFFFFFFFFFFFFFFFFFFFFFFFFFFFFFFF AND SWAP1 POP PUSH1 0x0 PUSH1 0x14 DUP4 PUSH2 0xFFFF AND PUSH2 0x120C SWAP2 SWAP1 PUSH2 0x1EFB JUMP JUMPDEST SWAP1 POP PUSH2 0x4E20 DUP2 GT ISZERO PUSH2 0x121E JUMPI PUSH2 0x4E20 SWAP1 POP JUMPDEST PUSH1 0x1 PUSH1 0x0 SWAP1 SLOAD SWAP1 PUSH2 0x100 EXP SWAP1 DIV PUSH20 0xFFFFFFFFFFFFFFFFFFFFFFFFFFFFFFFFFFFFFFFF AND PUSH20 0xFFFFFFFFFFFFFFFFFFFFFFFFFFFFFFFFFFFFFFFF AND PUSH4 0xA9059CBB DUP4 DUP4 PUSH1 0x40 MLOAD DUP4 PUSH4 0xFFFFFFFF AND PUSH1 0xE0 SHL DUP2 MSTORE PUSH1 0x4 ADD PUSH2 0x127B SWAP3 SWAP2 SWAP1 PUSH2 0x1F3D JUMP JUMPDEST PUSH1 0x20 PUSH1 0x40 MLOAD DUP1 DUP4 SUB DUP2 PUSH1 0x0 DUP8 GAS CALL SWAP3 POP POP POP DUP1 ISZERO PUSH2 0x12B7 JUMPI POP PUSH1 0x40 MLOAD RETURNDATASIZE PUSH1 0x1F NOT PUSH1 0x1F DUP3 ADD AND DUP3 ADD DUP1 PUSH1 0x40 MSTORE POP DUP2 ADD SWAP1 PUSH2 0x12B4 SWAP2 SWAP1 PUSH2 0x1F92 JUMP JUMPDEST PUSH1 0x1 JUMPDEST ISZERO PUSH2 0x12F7 JUMPI POP PUSH32 0xCA770103CDD14B19DB75E20F62F734F176926315F9D140DDB5BA416422A6C08E DUP3 DUP3 PUSH1 0x40 MLOAD PUSH2 0x12EE SWAP3 SWAP2 SWAP1 PUSH2 0x1F3D JUMP JUMPDEST PUSH1 0x40 MLOAD DUP1 SWAP2 SUB SWAP1 LOG1 JUMPDEST POP POP POP JUMP JUMPDEST PUSH1 0x40 MLOAD DUP1 PUSH1 0x80 ADD PUSH1 0x40 MSTORE DUP1 PUSH1 0x0 PUSH20 0xFFFFFFFFFFFFFFFFFFFFFFFFFFFFFFFFFFFFFFFF AND DUP2 MSTORE PUSH1 0x20 ADD PUSH1 0x60 DUP2 MSTORE PUSH1 0x20 ADD PUSH1 0x60 DUP2 MSTORE PUSH1 0x20 ADD PUSH1 0x0 ISZERO ISZERO DUP2 MSTORE POP SWAP1 JUMP JUMPDEST PUSH1 0x0 PUSH1 0x40 MLOAD SWAP1 POP SWAP1 JUMP JUMPDEST PUSH1 0x0 DUP1 REVERT JUMPDEST PUSH1 0x0 DUP1 REVERT JUMPDEST PUSH1 0x0 DUP1 REVERT JUMPDEST PUSH1 0x0 DUP1 REVERT JUMPDEST PUSH1 0x0 PUSH1 0x1F NOT PUSH1 0x1F DUP4 ADD AND SWAP1 POP SWAP2 SWAP1 POP JUMP JUMPDEST PUSH32 0x4E487B7100000000000000000000000000000000000000000000000000000000 PUSH1 0x0 MSTORE PUSH1 0x41 PUSH1 0x4 MSTORE PUSH1 0x24 PUSH1 0x0 REVERT JUMPDEST PUSH2 0x13A3 DUP3 PUSH2 0x135A JUMP JUMPDEST DUP2 ADD DUP2 DUP2 LT PUSH8 0xFFFFFFFFFFFFFFFF DUP3 GT OR ISZERO PUSH2 0x13C2 JUMPI PUSH2 0x13C1 PUSH2 0x136B JUMP JUMPDEST JUMPDEST DUP1 PUSH1 0x40 MSTORE POP POP POP JUMP JUMPDEST PUSH1 0x0 PUSH2 0x13D5 PUSH2 0x133C JUMP JUMPDEST SWAP1 POP PUSH2 0x13E1 DUP3 DUP3 PUSH2 0x139A JUMP JUMPDEST SWAP2 SWAP1 POP JUMP JUMPDEST PUSH1 0x0 PUSH8 0xFFFFFFFFFFFFFFFF DUP3 GT ISZERO PUSH2 0x1401 JUMPI PUSH2 0x1400 PUSH2 0x136B JUMP JUMPDEST JUMPDEST PUSH2 0x140A DUP3 PUSH2 0x135A JUMP JUMPDEST SWAP1 POP PUSH1 0x20 DUP2 ADD SWAP1 POP SWAP2 SWAP1 POP JUMP JUMPDEST DUP3 DUP2 DUP4 CALLDATACOPY PUSH1 0x0 DUP4 DUP4 ADD MSTORE POP POP POP JUMP JUMPDEST PUSH1 0x0 PUSH2 0x1439 PUSH2 0x1434 DUP5 PUSH2 0x13E6 JUMP JUMPDEST PUSH2 0x13CB JUMP JUMPDEST SWAP1 POP DUP3 DUP2 MSTORE PUSH1 0x20 DUP2 ADD DUP5 DUP5 DUP5 ADD GT ISZERO PUSH2 0x1455 JUMPI PUSH2 0x1454 PUSH2 0x1355 JUMP JUMPDEST JUMPDEST PUSH2 0x1460 DUP5 DUP3 DUP6 PUSH2 0x1417 JUMP JUMPDEST POP SWAP4 SWAP3 POP POP POP JUMP JUMPDEST PUSH1 0x0 DUP3 PUSH1 0x1F DUP4 ADD SLT PUSH2 0x147D JUMPI PUSH2 0x147C PUSH2 0x1350 JUMP JUMPDEST JUMPDEST DUP2 CALLDATALOAD PUSH2 0x148D DUP5 DUP3 PUSH1 0x20 DUP7 ADD PUSH2 0x1426 JUMP JUMPDEST SWAP2 POP POP SWAP3 SWAP2 POP POP JUMP JUMPDEST PUSH1 0x0 DUP1 PUSH1 0x40 DUP4 DUP6 SUB SLT ISZERO PUSH2 0x14AD JUMPI PUSH2 0x14AC PUSH2 0x1346 JUMP JUMPDEST JUMPDEST PUSH1 0x0 DUP4 ADD CALLDATALOAD PUSH8 0xFFFFFFFFFFFFFFFF DUP2 GT ISZERO PUSH2 0x14CB JUMPI PUSH2 0x14CA PUSH2 0x134B JUMP JUMPDEST JUMPDEST PUSH2 0x14D7 DUP6 DUP3 DUP7 ADD PUSH2 0x1468 JUMP JUMPDEST SWAP3 POP POP PUSH1 0x20 DUP4 ADD CALLDATALOAD PUSH8 0xFFFFFFFFFFFFFFFF DUP2 GT ISZERO PUSH2 0x14F8 JUMPI PUSH2 0x14F7 PUSH2 0x134B JUMP JUMPDEST JUMPDEST PUSH2 0x1504 DUP6 DUP3 DUP7 ADD PUSH2 0x1468 JUMP JUMPDEST SWAP2 POP POP SWAP3 POP SWAP3 SWAP1 POP JUMP JUMPDEST PUSH1 0x0 PUSH20 0xFFFFFFFFFFFFFFFFFFFFFFFFFFFFFFFFFFFFFFFF DUP3 AND SWAP1 POP SWAP2 SWAP1 POP JUMP JUMPDEST PUSH1 0x0 PUSH2 0x1539 DUP3 PUSH2 0x150E JUMP JUMPDEST SWAP1 POP SWAP2 SWAP1 POP JUMP JUMPDEST PUSH2 0x1549 DUP2 PUSH2 0x152E JUMP JUMPDEST DUP2 EQ PUSH2 0x1554 JUMPI PUSH1 0x0 DUP1 REVERT JUMPDEST POP JUMP JUMPDEST PUSH1 0x0 DUP2 CALLDATALOAD SWAP1 POP PUSH2 0x1566 DUP2 PUSH2 0x1540 JUMP JUMPDEST SWAP3 SWAP2 POP POP JUMP JUMPDEST PUSH1 0x0 PUSH1 0x20 DUP3 DUP5 SUB SLT ISZERO PUSH2 0x1582 JUMPI PUSH2 0x1581 PUSH2 0x1346 JUMP JUMPDEST JUMPDEST PUSH1 0x0 PUSH2 0x1590 DUP5 DUP3 DUP6 ADD PUSH2 0x1557 JUMP JUMPDEST SWAP2 POP POP SWAP3 SWAP2 POP POP JUMP JUMPDEST PUSH2 0x15A2 DUP2 PUSH2 0x152E JUMP JUMPDEST DUP3 MSTORE POP POP JUMP JUMPDEST PUSH1 0x0 PUSH1 0x20 DUP3 ADD SWAP1 POP PUSH2 0x15BD PUSH1 0x0 DUP4 ADD DUP5 PUSH2 0x1599 JUMP JUMPDEST SWAP3 SWAP2 POP POP JUMP JUMPDEST PUSH1 0x0 DUP2 MLOAD SWAP1 POP SWAP2 SWAP1 POP JUMP JUMPDEST PUSH1 0x0 DUP3 DUP3 MSTORE PUSH1 0x20 DUP3 ADD SWAP1 POP SWAP3 SWAP2 POP POP JUMP JUMPDEST PUSH1 0x0 JUMPDEST DUP4 DUP2 LT ISZERO PUSH2 0x15FD JUMPI DUP1 DUP3 ADD MLOAD DUP2 DUP5 ADD MSTORE PUSH1 0x20 DUP2 ADD SWAP1 POP PUSH2 0x15E2 JUMP JUMPDEST PUSH1 0x0 DUP5 DUP5 ADD MSTORE POP POP POP POP JUMP JUMPDEST PUSH1 0x0 PUSH2 0x1614 DUP3 PUSH2 0x15C3 JUMP JUMPDEST PUSH2 0x161E DUP2 DUP6 PUSH2 0x15CE JUMP JUMPDEST SWAP4 POP PUSH2 0x162E DUP2 DUP6 PUSH1 0x20 DUP7 ADD PUSH2 0x15DF JUMP JUMPDEST PUSH2 0x1637 DUP2 PUSH2 0x135A JUMP JUMPDEST DUP5 ADD SWAP2 POP POP SWAP3 SWAP2 POP POP JUMP JUMPDEST PUSH1 0x0 PUSH1 0x20 DUP3 ADD SWAP1 POP DUP2 DUP2 SUB PUSH1 0x0 DUP4 ADD MSTORE PUSH2 0x165C DUP2 DUP5 PUSH2 0x1609 JUMP JUMPDEST SWAP1 POP SWAP3 SWAP2 POP POP JUMP JUMPDEST PUSH2 0x166D DUP2 PUSH2 0x152E JUMP JUMPDEST DUP3 MSTORE POP POP JUMP JUMPDEST PUSH1 0x0 DUP3 DUP3 MSTORE PUSH1 0x20 DUP3 ADD SWAP1 POP SWAP3 SWAP2 POP POP JUMP JUMPDEST PUSH1 0x0 PUSH2 0x168F DUP3 PUSH2 0x15C3 JUMP JUMPDEST PUSH2 0x1699 DUP2 DUP6 PUSH2 0x1673 JUMP JUMPDEST SWAP4 POP PUSH2 0x16A9 DUP2 DUP6 PUSH1 0x20 DUP7 ADD PUSH2 0x15DF JUMP JUMPDEST PUSH2 0x16B2 DUP2 PUSH2 0x135A JUMP JUMPDEST DUP5 ADD SWAP2 POP POP SWAP3 SWAP2 POP POP JUMP JUMPDEST PUSH1 0x0 DUP2 ISZERO ISZERO SWAP1 POP SWAP2 SWAP1 POP JUMP JUMPDEST PUSH2 0x16D2 DUP2 PUSH2 0x16BD JUMP JUMPDEST DUP3 MSTORE POP POP JUMP JUMPDEST PUSH1 0x0 PUSH1 0x80 DUP4 ADD PUSH1 0x0 DUP4 ADD MLOAD PUSH2 0x16F0 PUSH1 0x0 DUP7 ADD DUP3 PUSH2 0x1664 JUMP JUMPDEST POP PUSH1 0x20 DUP4 ADD MLOAD DUP5 DUP3 SUB PUSH1 0x20 DUP7 ADD MSTORE PUSH2 0x1708 DUP3 DUP3 PUSH2 0x1684 JUMP JUMPDEST SWAP2 POP POP PUSH1 0x40 DUP4 ADD MLOAD DUP5 DUP3 SUB PUSH1 0x40 DUP7 ADD MSTORE PUSH2 0x1722 DUP3 DUP3 PUSH2 0x1684 JUMP JUMPDEST SWAP2 POP POP PUSH1 0x60 DUP4 ADD MLOAD PUSH2 0x1737 PUSH1 0x60 DUP7 ADD DUP3 PUSH2 0x16C9 JUMP JUMPDEST POP DUP1 SWAP2 POP POP SWAP3 SWAP2 POP POP JUMP JUMPDEST PUSH1 0x0 PUSH1 0x20 DUP3 ADD SWAP1 POP DUP2 DUP2 SUB PUSH1 0x0 DUP4 ADD MSTORE PUSH2 0x175C DUP2 DUP5 PUSH2 0x16D8 JUMP JUMPDEST SWAP1 POP SWAP3 SWAP2 POP POP JUMP JUMPDEST PUSH1 0x0 DUP2 SWAP1 POP SWAP2 SWAP1 POP JUMP JUMPDEST PUSH2 0x1777 DUP2 PUSH2 0x1764 JUMP JUMPDEST DUP3 MSTORE POP POP JUMP JUMPDEST PUSH1 0x0 PUSH1 0x20 DUP3 ADD SWAP1 POP PUSH2 0x1792 PUSH1 0x0 DUP4 ADD DUP5 PUSH2 0x176E JUMP JUMPDEST SWAP3 SWAP2 POP POP JUMP JUMPDEST PUSH32 0x4E487B7100000000000000000000000000000000000000000000000000000000 PUSH1 0x0 MSTORE PUSH1 0x11 PUSH1 0x4 MSTORE PUSH1 0x24 PUSH1 0x0 REVERT JUMPDEST PUSH1 0x0 PUSH2 0x17D2 DUP3 PUSH2 0x1764 JUMP JUMPDEST SWAP2 POP PUSH2 0x17DD DUP4 PUSH2 0x1764 JUMP JUMPDEST SWAP3 POP DUP3 DUP3 ADD SWAP1 POP DUP1 DUP3 GT ISZERO PUSH2 0x17F5 JUMPI PUSH2 0x17F4 PUSH2 0x1798 JUMP JUMPDEST JUMPDEST SWAP3 SWAP2 POP POP JUMP JUMPDEST PUSH32 0x4E487B7100000000000000000000000000000000000000000000000000000000 PUSH1 0x0 MSTORE PUSH1 0x22 PUSH1 0x4 MSTORE PUSH1 0x24 PUSH1 0x0 REVERT JUMPDEST PUSH1 0x0 PUSH1 0x2 DUP3 DIV SWAP1 POP PUSH1 0x1 DUP3 AND DUP1 PUSH2 0x1842 JUMPI PUSH1 0x7F DUP3 AND SWAP2 POP JUMPDEST PUSH1 0x20 DUP3 LT DUP2 SUB PUSH2 0x1855 JUMPI PUSH2 0x1854 PUSH2 0x17FB JUMP JUMPDEST JUMPDEST POP SWAP2 SWAP1 POP JUMP JUMPDEST PUSH1 0x0 DUP2 SWAP1 POP DUP2 PUSH1 0x0 MSTORE PUSH1 0x20 PUSH1 0x0 KECCAK256 SWAP1 POP SWAP2 SWAP1 POP JUMP JUMPDEST PUSH1 0x0 PUSH1 0x20 PUSH1 0x1F DUP4 ADD DIV SWAP1 POP SWAP2 SWAP1 POP JUMP JUMPDEST PUSH1 0x0 DUP3 DUP3 SHL SWAP1 POP SWAP3 SWAP2 POP POP JUMP JUMPDEST PUSH1 0x0 PUSH1 0x8 DUP4 MUL PUSH2 0x18BD PUSH32 0xFFFFFFFFFFFFFFFFFFFFFFFFFFFFFFFFFFFFFFFFFFFFFFFFFFFFFFFFFFFFFFFF DUP3 PUSH2 0x1880 JUMP JUMPDEST PUSH2 0x18C7 DUP7 DUP4 PUSH2 0x1880 JUMP JUMPDEST SWAP6 POP DUP1 NOT DUP5 AND SWAP4 POP DUP1 DUP7 AND DUP5 OR SWAP3 POP POP POP SWAP4 SWAP3 POP POP POP JUMP JUMPDEST PUSH1 0x0 DUP2 SWAP1 POP SWAP2 SWAP1 POP JUMP JUMPDEST PUSH1 0x0 PUSH2 0x1904 PUSH2 0x18FF PUSH2 0x18FA DUP5 PUSH2 0x1764 JUMP JUMPDEST PUSH2 0x18DF JUMP JUMPDEST PUSH2 0x1764 JUMP JUMPDEST SWAP1 POP SWAP2 SWAP1 POP JUMP JUMPDEST PUSH1 0x0 DUP2 SWAP1 POP SWAP2 SWAP1 POP JUMP JUMPDEST PUSH2 0x191E DUP4 PUSH2 0x18E9 JUMP JUMPDEST PUSH2 0x1932 PUSH2 0x192A DUP3 PUSH2 0x190B JUMP JUMPDEST DUP5 DUP5 SLOAD PUSH2 0x188D JUMP JUMPDEST DUP3 SSTORE POP POP POP POP JUMP JUMPDEST PUSH1 0x0 SWAP1 JUMP JUMPDEST PUSH2 0x1947 PUSH2 0x193A JUMP JUMPDEST PUSH2 0x1952 DUP2 DUP5 DUP5 PUSH2 0x1915 JUMP JUMPDEST POP POP POP JUMP JUMPDEST JUMPDEST DUP2 DUP2 LT ISZERO PUSH2 0x1976 JUMPI PUSH2 0x196B PUSH1 0x0 DUP3 PUSH2 0x193F JUMP JUMPDEST PUSH1 0x1 DUP2 ADD SWAP1 POP PUSH2 0x1958 JUMP JUMPDEST POP POP JUMP JUMPDEST PUSH1 0x1F DUP3 GT ISZERO PUSH2 0x19BB JUMPI PUSH2 0x198C DUP2 PUSH2 0x185B JUMP JUMPDEST PUSH2 0x1995 DUP5 PUSH2 0x1870 JUMP JUMPDEST DUP2 ADD PUSH1 0x20 DUP6 LT ISZERO PUSH2 0x19A4 JUMPI DUP2 SWAP1 POP JUMPDEST PUSH2 0x19B8 PUSH2 0x19B0 DUP6 PUSH2 0x1870 JUMP JUMPDEST DUP4 ADD DUP3 PUSH2 0x1957 JUMP JUMPDEST POP POP JUMPDEST POP POP POP JUMP JUMPDEST PUSH1 0x0 DUP3 DUP3 SHR SWAP1 POP SWAP3 SWAP2 POP POP JUMP JUMPDEST PUSH1 0x0 PUSH2 0x19DE PUSH1 0x0 NOT DUP5 PUSH1 0x8 MUL PUSH2 0x19C0 JUMP JUMPDEST NOT DUP1 DUP4 AND SWAP2 POP POP SWAP3 SWAP2 POP POP JUMP JUMPDEST PUSH1 0x0 PUSH2 0x19F7 DUP4 DUP4 PUSH2 0x19CD JUMP JUMPDEST SWAP2 POP DUP3 PUSH1 0x2 MUL DUP3 OR SWAP1 POP SWAP3 SWAP2 POP POP JUMP JUMPDEST PUSH2 0x1A10 DUP3 PUSH2 0x15C3 JUMP JUMPDEST PUSH8 0xFFFFFFFFFFFFFFFF DUP2 GT ISZERO PUSH2 0x1A29 JUMPI PUSH2 0x1A28 PUSH2 0x136B JUMP JUMPDEST JUMPDEST PUSH2 0x1A33 DUP3 SLOAD PUSH2 0x182A JUMP JUMPDEST PUSH2 0x1A3E DUP3 DUP3 DUP6 PUSH2 0x197A JUMP JUMPDEST PUSH1 0x0 PUSH1 0x20 SWAP1 POP PUSH1 0x1F DUP4 GT PUSH1 0x1 DUP2 EQ PUSH2 0x1A71 JUMPI PUSH1 0x0 DUP5 ISZERO PUSH2 0x1A5F JUMPI DUP3 DUP8 ADD MLOAD SWAP1 POP JUMPDEST PUSH2 0x1A69 DUP6 DUP3 PUSH2 0x19EB JUMP JUMPDEST DUP7 SSTORE POP PUSH2 0x1AD1 JUMP JUMPDEST PUSH1 0x1F NOT DUP5 AND PUSH2 0x1A7F DUP7 PUSH2 0x185B JUMP JUMPDEST PUSH1 0x0 JUMPDEST DUP3 DUP2 LT ISZERO PUSH2 0x1AA7 JUMPI DUP5 DUP10 ADD MLOAD DUP3 SSTORE PUSH1 0x1 DUP3 ADD SWAP2 POP PUSH1 0x20 DUP6 ADD SWAP5 POP PUSH1 0x20 DUP2 ADD SWAP1 POP PUSH2 0x1A82 JUMP JUMPDEST DUP7 DUP4 LT ISZERO PUSH2 0x1AC4 JUMPI DUP5 DUP10 ADD MLOAD PUSH2 0x1AC0 PUSH1 0x1F DUP10 AND DUP3 PUSH2 0x19CD JUMP JUMPDEST DUP4 SSTORE POP JUMPDEST PUSH1 0x1 PUSH1 0x2 DUP9 MUL ADD DUP9 SSTORE POP POP POP JUMPDEST POP POP POP POP POP POP JUMP JUMPDEST PUSH1 0x0 PUSH1 0x60 DUP3 ADD SWAP1 POP DUP2 DUP2 SUB PUSH1 0x0 DUP4 ADD MSTORE PUSH2 0x1AF3 DUP2 DUP7 PUSH2 0x1609 JUMP JUMPDEST SWAP1 POP DUP2 DUP2 SUB PUSH1 0x20 DUP4 ADD MSTORE PUSH2 0x1B07 DUP2 DUP6 PUSH2 0x1609 JUMP JUMPDEST SWAP1 POP PUSH2 0x1B16 PUSH1 0x40 DUP4 ADD DUP5 PUSH2 0x1599 JUMP JUMPDEST SWAP5 SWAP4 POP POP POP POP JUMP JUMPDEST PUSH2 0x1B27 DUP2 PUSH2 0x1764 JUMP JUMPDEST DUP2 EQ PUSH2 0x1B32 JUMPI PUSH1 0x0 DUP1 REVERT JUMPDEST POP JUMP JUMPDEST PUSH1 0x0 DUP2 MLOAD SWAP1 POP PUSH2 0x1B44 DUP2 PUSH2 0x1B1E JUMP JUMPDEST SWAP3 SWAP2 POP POP JUMP JUMPDEST PUSH1 0x0 PUSH1 0x20 DUP3 DUP5 SUB SLT ISZERO PUSH2 0x1B60 JUMPI PUSH2 0x1B5F PUSH2 0x1346 JUMP JUMPDEST JUMPDEST PUSH1 0x0 PUSH2 0x1B6E DUP5 DUP3 DUP6 ADD PUSH2 0x1B35 JUMP JUMPDEST SWAP2 POP POP SWAP3 SWAP2 POP POP JUMP JUMPDEST PUSH1 0x0 PUSH2 0xFFFF DUP3 AND SWAP1 POP SWAP2 SWAP1 POP JUMP JUMPDEST PUSH2 0x1B8E DUP2 PUSH2 0x1B77 JUMP JUMPDEST DUP3 MSTORE POP POP JUMP JUMPDEST PUSH1 0x0 PUSH1 0x40 DUP3 ADD SWAP1 POP PUSH2 0x1BA9 PUSH1 0x0 DUP4 ADD DUP6 PUSH2 0x1599 JUMP JUMPDEST PUSH2 0x1BB6 PUSH1 0x20 DUP4 ADD DUP5 PUSH2 0x1B85 JUMP JUMPDEST SWAP4 SWAP3 POP POP POP JUMP JUMPDEST PUSH1 0x0 DUP2 PUSH1 0x1 SIGNEXTEND SWAP1 POP SWAP2 SWAP1 POP JUMP JUMPDEST PUSH1 0x0 PUSH2 0x1BD5 DUP3 PUSH2 0x1BBD JUMP JUMPDEST SWAP2 POP PUSH32 0xFFFFFFFFFFFFFFFFFFFFFFFFFFFFFFFFFFFFFFFFFFFFFFFFFFFFFFFFFFFF8000 DUP3 SUB PUSH2 0x1C07 JUMPI PUSH2 0x1C06 PUSH2 0x1798 JUMP JUMPDEST JUMPDEST DUP2 PUSH1 0x0 SUB SWAP1 POP SWAP2 SWAP1 POP JUMP JUMPDEST PUSH1 0x0 PUSH2 0x1C1D DUP3 PUSH2 0x1764 JUMP JUMPDEST SWAP2 POP PUSH2 0x1C28 DUP4 PUSH2 0x1764 JUMP JUMPDEST SWAP3 POP DUP3 DUP3 SUB SWAP1 POP DUP2 DUP2 GT ISZERO PUSH2 0x1C40 JUMPI PUSH2 0x1C3F PUSH2 0x1798 JUMP JUMPDEST JUMPDEST SWAP3 SWAP2 POP POP JUMP JUMPDEST PUSH32 0x4E487B7100000000000000000000000000000000000000000000000000000000 PUSH1 0x0 MSTORE PUSH1 0x32 PUSH1 0x4 MSTORE PUSH1 0x24 PUSH1 0x0 REVERT JUMPDEST PUSH1 0x0 PUSH2 0x1C80 DUP3 PUSH2 0x1B77 JUMP JUMPDEST SWAP2 POP PUSH2 0x1C8B DUP4 PUSH2 0x1B77 JUMP JUMPDEST SWAP3 POP DUP3 DUP3 ADD SWAP1 POP PUSH2 0xFFFF DUP2 GT ISZERO PUSH2 0x1CA5 JUMPI PUSH2 0x1CA4 PUSH2 0x1798 JUMP JUMPDEST JUMPDEST SWAP3 SWAP2 POP POP JUMP JUMPDEST PUSH1 0x0 PUSH2 0x1CB6 DUP3 PUSH2 0x1764 JUMP JUMPDEST SWAP2 POP PUSH1 0x0 DUP3 SUB PUSH2 0x1CC9 JUMPI PUSH2 0x1CC8 PUSH2 0x1798 JUMP JUMPDEST JUMPDEST PUSH1 0x1 DUP3 SUB SWAP1 POP SWAP2 SWAP1 POP JUMP JUMPDEST PUSH1 0x0 DUP2 SLOAD SWAP1 POP PUSH2 0x1CE3 DUP2 PUSH2 0x182A JUMP JUMPDEST SWAP1 POP SWAP2 SWAP1 POP JUMP JUMPDEST PUSH1 0x0 DUP2 SWAP1 POP DUP2 PUSH1 0x0 MSTORE PUSH1 0x20 PUSH1 0x0 KECCAK256 SWAP1 POP SWAP2 SWAP1 POP JUMP JUMPDEST DUP2 DUP2 SUB PUSH2 0x1D0D JUMPI POP POP PUSH2 0x1DE5 JUMP JUMPDEST PUSH2 0x1D16 DUP3 PUSH2 0x1CD4 JUMP JUMPDEST PUSH8 0xFFFFFFFFFFFFFFFF DUP2 GT ISZERO PUSH2 0x1D2F JUMPI PUSH2 0x1D2E PUSH2 0x136B JUMP JUMPDEST JUMPDEST PUSH2 0x1D39 DUP3 SLOAD PUSH2 0x182A JUMP JUMPDEST PUSH2 0x1D44 DUP3 DUP3 DUP6 PUSH2 0x197A JUMP JUMPDEST PUSH1 0x0 PUSH1 0x1F DUP4 GT PUSH1 0x1 DUP2 EQ PUSH2 0x1D73 JUMPI PUSH1 0x0 DUP5 ISZERO PUSH2 0x1D61 JUMPI DUP3 DUP8 ADD SLOAD SWAP1 POP JUMPDEST PUSH2 0x1D6B DUP6 DUP3 PUSH2 0x19EB JUMP JUMPDEST DUP7 SSTORE POP PUSH2 0x1DDE JUMP JUMPDEST PUSH1 0x1F NOT DUP5 AND PUSH2 0x1D81 DUP8 PUSH2 0x1CEA JUMP JUMPDEST SWAP7 POP PUSH2 0x1D8C DUP7 PUSH2 0x185B JUMP JUMPDEST PUSH1 0x0 JUMPDEST DUP3 DUP2 LT ISZERO PUSH2 0x1DB4 JUMPI DUP5 DUP10 ADD SLOAD DUP3 SSTORE PUSH1 0x1 DUP3 ADD SWAP2 POP PUSH1 0x1 DUP6 ADD SWAP5 POP PUSH1 0x20 DUP2 ADD SWAP1 POP PUSH2 0x1D8F JUMP JUMPDEST DUP7 DUP4 LT ISZERO PUSH2 0x1DD1 JUMPI DUP5 DUP10 ADD SLOAD PUSH2 0x1DCD PUSH1 0x1F DUP10 AND DUP3 PUSH2 0x19CD JUMP JUMPDEST DUP4 SSTORE POP JUMPDEST PUSH1 0x1 PUSH1 0x2 DUP9 MUL ADD DUP9 SSTORE POP POP POP JUMPDEST POP POP POP POP POP POP JUMPDEST JUMP JUMPDEST PUSH1 0x0 DUP2 SLOAD PUSH2 0x1DF4 DUP2 PUSH2 0x182A JUMP JUMPDEST PUSH2 0x1DFE DUP2 DUP7 PUSH2 0x15CE JUMP JUMPDEST SWAP5 POP PUSH1 0x1 DUP3 AND PUSH1 0x0 DUP2 EQ PUSH2 0x1E19 JUMPI PUSH1 0x1 DUP2 EQ PUSH2 0x1E2F JUMPI PUSH2 0x1E62 JUMP JUMPDEST PUSH1 0xFF NOT DUP4 AND DUP7 MSTORE DUP2 ISZERO ISZERO PUSH1 0x20 MUL DUP7 ADD SWAP4 POP PUSH2 0x1E62 JUMP JUMPDEST PUSH2 0x1E38 DUP6 PUSH2 0x185B JUMP JUMPDEST PUSH1 0x0 JUMPDEST DUP4 DUP2 LT ISZERO PUSH2 0x1E5A JUMPI DUP2 SLOAD DUP2 DUP10 ADD MSTORE PUSH1 0x1 DUP3 ADD SWAP2 POP PUSH1 0x20 DUP2 ADD SWAP1 POP PUSH2 0x1E3B JUMP JUMPDEST DUP1 DUP9 ADD SWAP6 POP POP POP JUMPDEST POP POP POP SWAP3 SWAP2 POP POP JUMP JUMPDEST PUSH1 0x0 PUSH1 0x60 DUP3 ADD SWAP1 POP PUSH2 0x1E80 PUSH1 0x0 DUP4 ADD DUP7 PUSH2 0x1B85 JUMP JUMPDEST PUSH2 0x1E8D PUSH1 0x20 DUP4 ADD DUP6 PUSH2 0x1B85 JUMP JUMPDEST DUP2 DUP2 SUB PUSH1 0x40 DUP4 ADD MSTORE PUSH2 0x1E9F DUP2 DUP5 PUSH2 0x1DE7 JUMP JUMPDEST SWAP1 POP SWAP5 SWAP4 POP POP POP POP JUMP JUMPDEST PUSH1 0x0 PUSH1 0x40 DUP3 ADD SWAP1 POP PUSH2 0x1EBE PUSH1 0x0 DUP4 ADD DUP6 PUSH2 0x1B85 JUMP JUMPDEST PUSH2 0x1ECB PUSH1 0x20 DUP4 ADD DUP5 PUSH2 0x1B85 JUMP JUMPDEST SWAP4 SWAP3 POP POP POP JUMP JUMPDEST PUSH1 0x0 PUSH1 0x40 DUP3 ADD SWAP1 POP PUSH2 0x1EE7 PUSH1 0x0 DUP4 ADD DUP6 PUSH2 0x1599 JUMP JUMPDEST PUSH2 0x1EF4 PUSH1 0x20 DUP4 ADD DUP5 PUSH2 0x1599 JUMP JUMPDEST SWAP4 SWAP3 POP POP POP JUMP JUMPDEST PUSH1 0x0 PUSH2 0x1F06 DUP3 PUSH2 0x1764 JUMP JUMPDEST SWAP2 POP PUSH2 0x1F11 DUP4 PUSH2 0x1764 JUMP JUMPDEST SWAP3 POP DUP3 DUP3 MUL PUSH2 0x1F1F DUP2 PUSH2 0x1764 JUMP JUMPDEST SWAP2 POP DUP3 DUP3 DIV DUP5 EQ DUP4 ISZERO OR PUSH2 0x1F36 JUMPI PUSH2 0x1F35 PUSH2 0x1798 JUMP JUMPDEST JUMPDEST POP SWAP3 SWAP2 POP POP JUMP JUMPDEST PUSH1 0x0 PUSH1 0x40 DUP3 ADD SWAP1 POP PUSH2 0x1F52 PUSH1 0x0 DUP4 ADD DUP6 PUSH2 0x1599 JUMP JUMPDEST PUSH2 0x1F5F PUSH1 0x20 DUP4 ADD DUP5 PUSH2 0x176E JUMP JUMPDEST SWAP4 SWAP3 POP POP POP JUMP JUMPDEST PUSH2 0x1F6F DUP2 PUSH2 0x16BD JUMP JUMPDEST DUP2 EQ PUSH2 0x1F7A JUMPI PUSH1 0x0 DUP1 REVERT JUMPDEST POP JUMP JUMPDEST PUSH1 0x0 DUP2 MLOAD SWAP1 POP PUSH2 0x1F8C DUP2 PUSH2 0x1F66 JUMP JUMPDEST SWAP3 SWAP2 POP POP JUMP JUMPDEST PUSH1 0x0 PUSH1 0x20 DUP3 DUP5 SUB SLT ISZERO PUSH2 0x1FA8 JUMPI PUSH2 0x1FA7 PUSH2 0x1346 JUMP JUMPDEST JUMPDEST PUSH1 0x0 PUSH2 0x1FB6 DUP5 DUP3 DUP6 ADD PUSH2 0x1F7D JUMP JUMPDEST SWAP2 POP POP SWAP3 SWAP2 POP POP JUMP INVALID LOG2 PUSH5 0x6970667358 0x22 SLT KECCAK256 0xE2 LOG0 JUMPI PUSH17 0x128CBC7BB7103E7BD279C37488F79385D0 0xDC 0x4B 0xAC PUSH22 0x7EC76EFFF133D564736F6C6343000815003300000000 "},"methodIdentifiers":{"assignNFTCollection(address)":"b96762ae","assignTokenAddress(address)":"3d75da94","finalizeProposal()":"c4dc1556","getPrice()":"98d5fdca","latestProposal()":"c2b79836","owner()":"8da5cb5b","proposalEndsAfter()":"c70d33e3","proposePrice(string,string)":"02de9f2e","transferOwnership(address)":"f2fde38b","voteDown()":"b525ef0d","voteUp()":"b07672ae","votingEndsAfter()":"f863b454"}}}}}