{"contracts/mockups/MockERC20.sol":{"MockERC20":{"abi":[{"anonymous":false,"inputs":[{"indexed":true,"internalType":"address","name":"owner","type":"address"},{"indexed":true,"internalType":"address","name":"spender","type":"address"},{"indexed":false,"internalType":"uint256","name":"value","type":"uint256"}],"name":"Approval","type":"event"},{"anonymous":false,"inputs":[{"indexed":true,"internalType":"address","name":"from","type":"address"},{"indexed":true,"internalType":"address","name":"to","type":"address"},{"indexed":false,"internalType":"uint256","name":"value","type":"uint256"}],"name":"Transfer","type":"event"},{"inputs":[{"internalType":"address","name":"owner","type":"address"},{"internalType":"address","name":"spender","type":"address"}],"name":"allowance","outputs":[{"internalType":"uint256","name":"","type":"uint256"}],"stateMutability":"pure","type":"function"},{"inputs":[{"internalType":"address","name":"spender","type":"address"},{"internalType":"uint256","name":"value","type":"uint256"}],"name":"approve","outputs":[{"internalType":"bool","name":"","type":"bool"}],"stateMutability":"pure","type":"function"},{"inputs":[{"internalType":"address","name":"account","type":"address"}],"name":"balanceOf","outputs":[{"internalType":"uint256","name":"","type":"uint256"}],"stateMutability":"view","type":"function"},{"inputs":[],"name":"decimals","outputs":[{"internalType":"uint8","name":"","type":"uint8"}],"stateMutability":"view","type":"function"},{"inputs":[],"name":"name","outputs":[{"internalType":"string","name":"","type":"string"}],"stateMutability":"pure","type":"function"},{"inputs":[{"internalType":"address","name":"addr","type":"address"},{"internalType":"uint256","name":"balance","type":"uint256"}],"name":"setBalance","outputs":[],"stateMutability":"nonpayable","type":"function"},{"inputs":[{"internalType":"uint8","name":"dec","type":"uint8"}],"name":"setDecimals","outputs":[],"stateMutability":"nonpayable","type":"function"},{"inputs":[],"name":"symbol","outputs":[{"internalType":"string","name":"","type":"string"}],"stateMutability":"pure","type":"function"},{"inputs":[],"name":"totalSupply","outputs":[{"internalType":"uint256","name":"","type":"uint256"}],"stateMutability":"pure","type":"function"},{"inputs":[{"internalType":"address","name":"to","type":"address"},{"internalType":"uint256","name":"value","type":"uint256"}],"name":"transfer","outputs":[{"internalType":"bool","name":"","type":"bool"}],"stateMutability":"nonpayable","type":"function"},{"inputs":[{"internalType":"address","name":"from","type":"address"},{"internalType":"address","name":"to","type":"address"},{"internalType":"uint256","name":"value","type":"uint256"}],"name":"transferFrom","outputs":[{"internalType":"bool","name":"","type":"bool"}],"stateMutability":"nonpayable","type":"function"}],"evm":{"bytecode":{"linkReferences":{},"object":"60806040526001805460ff1916601217905534801561001d57600080fd5b5061058f8061002d6000396000f3fe608060405234801561001057600080fd5b50600436106100a95760003560e01c806370a082311161007157806370a082311461013c5780637a1395aa1461016557806395d89b411461018b578063a9059cbb146101af578063dd62ed3e146101c2578063e30443bc146101d857600080fd5b806306fdde03146100ae578063095ea7b3146100e557806318160ddd1461010557806323b872dd14610116578063313ce56714610129575b600080fd5b60408051808201909152600981526804d6f636b45524332360bc1b60208201525b6040516100dc9190610360565b60405180910390f35b6100f86100f33660046103bc565b610202565b6040516100dc9190610403565b6000195b6040516100dc9190610417565b6100f8610124366004610425565b61020b565b60015460ff166040516100dc919061047e565b61010961014a36600461048c565b6001600160a01b031660009081526020819052604090205490565b6101896101733660046104c9565b6001805460ff191660ff92909216919091179055565b005b60408051808201909152600881526704d434b45524332360c41b60208201526100cf565b6100f86101bd3660046103bc565b610294565b6101096101d03660046104ea565b600092915050565b6101896101e63660046103bc565b6001600160a01b03909116600090815260208190526040902055565b60015b92915050565b6001600160a01b03831660009081526020819052604081205482111561023057600080fd5b6001600160a01b03841660009081526020819052604081208054849290610258908490610533565b90915550506001600160a01b03831660009081526020819052604081208054849290610285908490610546565b90915550600195945050505050565b336000908152602081905260408120548211156102b057600080fd5b33600090815260208190526040812080548492906102cf908490610533565b90915550506001600160a01b038316600090815260208190526040812080548492906102fc908490610546565b909155506001949350505050565b60005b8381101561032557818101518382015260200161030d565b50506000910152565b6000610338825190565b80845260208401935061034f81856020860161030a565b601f01601f19169290920192915050565b60208082528101610371818461032e565b9392505050565b60006001600160a01b038216610205565b61039281610378565b811461039d57600080fd5b50565b803561020581610389565b80610392565b8035610205816103ab565b600080604083850312156103d2576103d2600080fd5b60006103de85856103a0565b92505060206103ef858286016103b1565b9150509250929050565b8015155b82525050565b6020810161020582846103f9565b806103fd565b602081016102058284610411565b60008060006060848603121561043d5761043d600080fd5b600061044986866103a0565b935050602061045a868287016103a0565b925050604061046b868287016103b1565b9150509250925092565b60ff81166103fd565b602081016102058284610475565b6000602082840312156104a1576104a1600080fd5b60006104ad84846103a0565b949350505050565b60ff8116610392565b8035610205816104b5565b6000602082840312156104de576104de600080fd5b60006104ad84846104be565b6000806040838503121561050057610500600080fd5b600061050c85856103a0565b92505060206103ef858286016103a0565b634e487b7160e01b600052601160045260246000fd5b818103818111156102055761020561051d565b808201808211156102055761020561051d56fea264697066735822122044b0357a466f25c0f1b7a9ec62dc055f22326b993a484e77f93312845e6596b264736f6c63430008160033","opcodes":"PUSH1 0x80 PUSH1 0x40 MSTORE PUSH1 0x1 DUP1 SLOAD PUSH1 0xFF NOT AND PUSH1 0x12 OR SWAP1 SSTORE CALLVALUE DUP1 ISZERO PUSH2 0x1D JUMPI PUSH1 0x0 DUP1 REVERT JUMPDEST POP PUSH2 0x58F DUP1 PUSH2 0x2D PUSH1 0x0 CODECOPY PUSH1 0x0 RETURN INVALID PUSH1 0x80 PUSH1 0x40 MSTORE CALLVALUE DUP1 ISZERO PUSH2 0x10 JUMPI PUSH1 0x0 DUP1 REVERT JUMPDEST POP PUSH1 0x4 CALLDATASIZE LT PUSH2 0xA9 JUMPI PUSH1 0x0 CALLDATALOAD PUSH1 0xE0 SHR DUP1 PUSH4 0x70A08231 GT PUSH2 0x71 JUMPI DUP1 PUSH4 0x70A08231 EQ PUSH2 0x13C JUMPI DUP1 PUSH4 0x7A1395AA EQ PUSH2 0x165 JUMPI DUP1 PUSH4 0x95D89B41 EQ PUSH2 0x18B JUMPI DUP1 PUSH4 0xA9059CBB EQ PUSH2 0x1AF JUMPI DUP1 PUSH4 0xDD62ED3E EQ PUSH2 0x1C2 JUMPI DUP1 PUSH4 0xE30443BC EQ PUSH2 0x1D8 JUMPI PUSH1 0x0 DUP1 REVERT JUMPDEST DUP1 PUSH4 0x6FDDE03 EQ PUSH2 0xAE JUMPI DUP1 PUSH4 0x95EA7B3 EQ PUSH2 0xE5 JUMPI DUP1 PUSH4 0x18160DDD EQ PUSH2 0x105 JUMPI DUP1 PUSH4 0x23B872DD EQ PUSH2 0x116 JUMPI DUP1 PUSH4 0x313CE567 EQ PUSH2 0x129 JUMPI JUMPDEST PUSH1 0x0 DUP1 REVERT JUMPDEST PUSH1 0x40 DUP1 MLOAD DUP1 DUP3 ADD SWAP1 SWAP2 MSTORE PUSH1 0x9 DUP2 MSTORE PUSH9 0x4D6F636B455243323 PUSH1 0xBC SHL PUSH1 0x20 DUP3 ADD MSTORE JUMPDEST PUSH1 0x40 MLOAD PUSH2 0xDC SWAP2 SWAP1 PUSH2 0x360 JUMP JUMPDEST PUSH1 0x40 MLOAD DUP1 SWAP2 SUB SWAP1 RETURN JUMPDEST PUSH2 0xF8 PUSH2 0xF3 CALLDATASIZE PUSH1 0x4 PUSH2 0x3BC JUMP JUMPDEST PUSH2 0x202 JUMP JUMPDEST PUSH1 0x40 MLOAD PUSH2 0xDC SWAP2 SWAP1 PUSH2 0x403 JUMP JUMPDEST PUSH1 0x0 NOT JUMPDEST PUSH1 0x40 MLOAD PUSH2 0xDC SWAP2 SWAP1 PUSH2 0x417 JUMP JUMPDEST PUSH2 0xF8 PUSH2 0x124 CALLDATASIZE PUSH1 0x4 PUSH2 0x425 JUMP JUMPDEST PUSH2 0x20B JUMP JUMPDEST PUSH1 0x1 SLOAD PUSH1 0xFF AND PUSH1 0x40 MLOAD PUSH2 0xDC SWAP2 SWAP1 PUSH2 0x47E JUMP JUMPDEST PUSH2 0x109 PUSH2 0x14A CALLDATASIZE PUSH1 0x4 PUSH2 0x48C JUMP JUMPDEST PUSH1 0x1 PUSH1 0x1 PUSH1 0xA0 SHL SUB AND PUSH1 0x0 SWAP1 DUP2 MSTORE PUSH1 0x20 DUP2 SWAP1 MSTORE PUSH1 0x40 SWAP1 KECCAK256 SLOAD SWAP1 JUMP JUMPDEST PUSH2 0x189 PUSH2 0x173 CALLDATASIZE PUSH1 0x4 PUSH2 0x4C9 JUMP JUMPDEST PUSH1 0x1 DUP1 SLOAD PUSH1 0xFF NOT AND PUSH1 0xFF SWAP3 SWAP1 SWAP3 AND SWAP2 SWAP1 SWAP2 OR SWAP1 SSTORE JUMP JUMPDEST STOP JUMPDEST PUSH1 0x40 DUP1 MLOAD DUP1 DUP3 ADD SWAP1 SWAP2 MSTORE PUSH1 0x8 DUP2 MSTORE PUSH8 0x4D434B455243323 PUSH1 0xC4 SHL PUSH1 0x20 DUP3 ADD MSTORE PUSH2 0xCF JUMP JUMPDEST PUSH2 0xF8 PUSH2 0x1BD CALLDATASIZE PUSH1 0x4 PUSH2 0x3BC JUMP JUMPDEST PUSH2 0x294 JUMP JUMPDEST PUSH2 0x109 PUSH2 0x1D0 CALLDATASIZE PUSH1 0x4 PUSH2 0x4EA JUMP JUMPDEST PUSH1 0x0 SWAP3 SWAP2 POP POP JUMP JUMPDEST PUSH2 0x189 PUSH2 0x1E6 CALLDATASIZE PUSH1 0x4 PUSH2 0x3BC JUMP JUMPDEST PUSH1 0x1 PUSH1 0x1 PUSH1 0xA0 SHL SUB SWAP1 SWAP2 AND PUSH1 0x0 SWAP1 DUP2 MSTORE PUSH1 0x20 DUP2 SWAP1 MSTORE PUSH1 0x40 SWAP1 KECCAK256 SSTORE JUMP JUMPDEST PUSH1 0x1 JUMPDEST SWAP3 SWAP2 POP POP JUMP JUMPDEST PUSH1 0x1 PUSH1 0x1 PUSH1 0xA0 SHL SUB DUP4 AND PUSH1 0x0 SWAP1 DUP2 MSTORE PUSH1 0x20 DUP2 SWAP1 MSTORE PUSH1 0x40 DUP2 KECCAK256 SLOAD DUP3 GT ISZERO PUSH2 0x230 JUMPI PUSH1 0x0 DUP1 REVERT JUMPDEST PUSH1 0x1 PUSH1 0x1 PUSH1 0xA0 SHL SUB DUP5 AND PUSH1 0x0 SWAP1 DUP2 MSTORE PUSH1 0x20 DUP2 SWAP1 MSTORE PUSH1 0x40 DUP2 KECCAK256 DUP1 SLOAD DUP5 SWAP3 SWAP1 PUSH2 0x258 SWAP1 DUP5 SWAP1 PUSH2 0x533 JUMP JUMPDEST SWAP1 SWAP2 SSTORE POP POP PUSH1 0x1 PUSH1 0x1 PUSH1 0xA0 SHL SUB DUP4 AND PUSH1 0x0 SWAP1 DUP2 MSTORE PUSH1 0x20 DUP2 SWAP1 MSTORE PUSH1 0x40 DUP2 KECCAK256 DUP1 SLOAD DUP5 SWAP3 SWAP1 PUSH2 0x285 SWAP1 DUP5 SWAP1 PUSH2 0x546 JUMP JUMPDEST SWAP1 SWAP2 SSTORE POP PUSH1 0x1 SWAP6 SWAP5 POP POP POP POP POP JUMP JUMPDEST CALLER PUSH1 0x0 SWAP1 DUP2 MSTORE PUSH1 0x20 DUP2 SWAP1 MSTORE PUSH1 0x40 DUP2 KECCAK256 SLOAD DUP3 GT ISZERO PUSH2 0x2B0 JUMPI PUSH1 0x0 DUP1 REVERT JUMPDEST CALLER PUSH1 0x0 SWAP1 DUP2 MSTORE PUSH1 0x20 DUP2 SWAP1 MSTORE PUSH1 0x40 DUP2 KECCAK256 DUP1 SLOAD DUP5 SWAP3 SWAP1 PUSH2 0x2CF SWAP1 DUP5 SWAP1 PUSH2 0x533 JUMP JUMPDEST SWAP1 SWAP2 SSTORE POP POP PUSH1 0x1 PUSH1 0x1 PUSH1 0xA0 SHL SUB DUP4 AND PUSH1 0x0 SWAP1 DUP2 MSTORE PUSH1 0x20 DUP2 SWAP1 MSTORE PUSH1 0x40 DUP2 KECCAK256 DUP1 SLOAD DUP5 SWAP3 SWAP1 PUSH2 0x2FC SWAP1 DUP5 SWAP1 PUSH2 0x546 JUMP JUMPDEST SWAP1 SWAP2 SSTORE POP PUSH1 0x1 SWAP5 SWAP4 POP POP POP POP JUMP JUMPDEST PUSH1 0x0 JUMPDEST DUP4 DUP2 LT ISZERO PUSH2 0x325 JUMPI DUP2 DUP2 ADD MLOAD DUP4 DUP3 ADD MSTORE PUSH1 0x20 ADD PUSH2 0x30D JUMP JUMPDEST POP POP PUSH1 0x0 SWAP2 ADD MSTORE JUMP JUMPDEST PUSH1 0x0 PUSH2 0x338 DUP3 MLOAD SWAP1 JUMP JUMPDEST DUP1 DUP5 MSTORE PUSH1 0x20 DUP5 ADD SWAP4 POP PUSH2 0x34F DUP2 DUP6 PUSH1 0x20 DUP7 ADD PUSH2 0x30A JUMP JUMPDEST PUSH1 0x1F ADD PUSH1 0x1F NOT AND SWAP3 SWAP1 SWAP3 ADD SWAP3 SWAP2 POP POP JUMP JUMPDEST PUSH1 0x20 DUP1 DUP3 MSTORE DUP2 ADD PUSH2 0x371 DUP2 DUP5 PUSH2 0x32E JUMP JUMPDEST SWAP4 SWAP3 POP POP POP JUMP JUMPDEST PUSH1 0x0 PUSH1 0x1 PUSH1 0x1 PUSH1 0xA0 SHL SUB DUP3 AND PUSH2 0x205 JUMP JUMPDEST PUSH2 0x392 DUP2 PUSH2 0x378 JUMP JUMPDEST DUP2 EQ PUSH2 0x39D JUMPI PUSH1 0x0 DUP1 REVERT JUMPDEST POP JUMP JUMPDEST DUP1 CALLDATALOAD PUSH2 0x205 DUP2 PUSH2 0x389 JUMP JUMPDEST DUP1 PUSH2 0x392 JUMP JUMPDEST DUP1 CALLDATALOAD PUSH2 0x205 DUP2 PUSH2 0x3AB JUMP JUMPDEST PUSH1 0x0 DUP1 PUSH1 0x40 DUP4 DUP6 SUB SLT ISZERO PUSH2 0x3D2 JUMPI PUSH2 0x3D2 PUSH1 0x0 DUP1 REVERT JUMPDEST PUSH1 0x0 PUSH2 0x3DE DUP6 DUP6 PUSH2 0x3A0 JUMP JUMPDEST SWAP3 POP POP PUSH1 0x20 PUSH2 0x3EF DUP6 DUP3 DUP7 ADD PUSH2 0x3B1 JUMP JUMPDEST SWAP2 POP POP SWAP3 POP SWAP3 SWAP1 POP JUMP JUMPDEST DUP1 ISZERO ISZERO JUMPDEST DUP3 MSTORE POP POP JUMP JUMPDEST PUSH1 0x20 DUP2 ADD PUSH2 0x205 DUP3 DUP5 PUSH2 0x3F9 JUMP JUMPDEST DUP1 PUSH2 0x3FD JUMP JUMPDEST PUSH1 0x20 DUP2 ADD PUSH2 0x205 DUP3 DUP5 PUSH2 0x411 JUMP JUMPDEST PUSH1 0x0 DUP1 PUSH1 0x0 PUSH1 0x60 DUP5 DUP7 SUB SLT ISZERO PUSH2 0x43D JUMPI PUSH2 0x43D PUSH1 0x0 DUP1 REVERT JUMPDEST PUSH1 0x0 PUSH2 0x449 DUP7 DUP7 PUSH2 0x3A0 JUMP JUMPDEST SWAP4 POP POP PUSH1 0x20 PUSH2 0x45A DUP7 DUP3 DUP8 ADD PUSH2 0x3A0 JUMP JUMPDEST SWAP3 POP POP PUSH1 0x40 PUSH2 0x46B DUP7 DUP3 DUP8 ADD PUSH2 0x3B1 JUMP JUMPDEST SWAP2 POP POP SWAP3 POP SWAP3 POP SWAP3 JUMP JUMPDEST PUSH1 0xFF DUP2 AND PUSH2 0x3FD JUMP JUMPDEST PUSH1 0x20 DUP2 ADD PUSH2 0x205 DUP3 DUP5 PUSH2 0x475 JUMP JUMPDEST PUSH1 0x0 PUSH1 0x20 DUP3 DUP5 SUB SLT ISZERO PUSH2 0x4A1 JUMPI PUSH2 0x4A1 PUSH1 0x0 DUP1 REVERT JUMPDEST PUSH1 0x0 PUSH2 0x4AD DUP5 DUP5 PUSH2 0x3A0 JUMP JUMPDEST SWAP5 SWAP4 POP POP POP POP JUMP JUMPDEST PUSH1 0xFF DUP2 AND PUSH2 0x392 JUMP JUMPDEST DUP1 CALLDATALOAD PUSH2 0x205 DUP2 PUSH2 0x4B5 JUMP JUMPDEST PUSH1 0x0 PUSH1 0x20 DUP3 DUP5 SUB SLT ISZERO PUSH2 0x4DE JUMPI PUSH2 0x4DE PUSH1 0x0 DUP1 REVERT JUMPDEST PUSH1 0x0 PUSH2 0x4AD DUP5 DUP5 PUSH2 0x4BE JUMP JUMPDEST PUSH1 0x0 DUP1 PUSH1 0x40 DUP4 DUP6 SUB SLT ISZERO PUSH2 0x500 JUMPI PUSH2 0x500 PUSH1 0x0 DUP1 REVERT JUMPDEST PUSH1 0x0 PUSH2 0x50C DUP6 DUP6 PUSH2 0x3A0 JUMP JUMPDEST SWAP3 POP POP PUSH1 0x20 PUSH2 0x3EF DUP6 DUP3 DUP7 ADD PUSH2 0x3A0 JUMP JUMPDEST PUSH4 0x4E487B71 PUSH1 0xE0 SHL PUSH1 0x0 MSTORE PUSH1 0x11 PUSH1 0x4 MSTORE PUSH1 0x24 PUSH1 0x0 REVERT JUMPDEST DUP2 DUP2 SUB DUP2 DUP2 GT ISZERO PUSH2 0x205 JUMPI PUSH2 0x205 PUSH2 0x51D JUMP JUMPDEST DUP1 DUP3 ADD DUP1 DUP3 GT ISZERO PUSH2 0x205 JUMPI PUSH2 0x205 PUSH2 0x51D JUMP INVALID LOG2 PUSH5 0x6970667358 0x22 SLT KECCAK256 PREVRANDAO 0xB0 CALLDATALOAD PUSH27 0x466F25C0F1B7A9EC62DC055F22326B993A484E77F93312845E6596 0xB2 PUSH5 0x736F6C6343 STOP ADDMOD AND STOP CALLER "},"methodIdentifiers":{"allowance(address,address)":"dd62ed3e","approve(address,uint256)":"095ea7b3","balanceOf(address)":"70a08231","decimals()":"313ce567","name()":"06fdde03","setBalance(address,uint256)":"e30443bc","setDecimals(uint8)":"7a1395aa","symbol()":"95d89b41","totalSupply()":"18160ddd","transfer(address,uint256)":"a9059cbb","transferFrom(address,address,uint256)":"23b872dd"}}}}}