{"contracts/DexhuneERC20.sol":{"DexhuneERC20":{"abi":[{"inputs":[],"name":"DuplicateTransferAddress","type":"error"},{"inputs":[],"name":"ExchangeAddressNotSet","type":"error"},{"inputs":[],"name":"InsufficientBalance","type":"error"},{"inputs":[{"internalType":"address","name":"addr","type":"address"},{"internalType":"int128","name":"balance","type":"int128"}],"name":"InvalidBalance","type":"error"},{"inputs":[],"name":"InvalidTransferAddress","type":"error"},{"inputs":[],"name":"MintLimitReached","type":"error"},{"inputs":[{"internalType":"uint256","name":"timeRemaining","type":"uint256"}],"name":"MintedTooEarly","type":"error"},{"inputs":[{"internalType":"uint256","name":"allowance","type":"uint256"},{"internalType":"uint256","name":"expectedAllowance","type":"uint256"}],"name":"NotEnoughAllowance","type":"error"},{"inputs":[],"name":"PriceDaoAddressNotSet","type":"error"},{"inputs":[{"internalType":"address","name":"account","type":"address"}],"name":"UnauthorizedAccount","type":"error"},{"anonymous":false,"inputs":[{"indexed":true,"internalType":"address","name":"owner","type":"address"},{"indexed":true,"internalType":"address","name":"spender","type":"address"},{"indexed":false,"internalType":"uint256","name":"value","type":"uint256"}],"name":"Approval","type":"event"},{"anonymous":false,"inputs":[{"indexed":true,"internalType":"address","name":"from","type":"address"},{"indexed":true,"internalType":"address","name":"to","type":"address"},{"indexed":false,"internalType":"uint256","name":"value","type":"uint256"}],"name":"Transfer","type":"event"},{"inputs":[{"internalType":"address","name":"_owner","type":"address"},{"internalType":"address","name":"_spender","type":"address"}],"name":"allowance","outputs":[{"internalType":"uint256","name":"remaining","type":"uint256"}],"stateMutability":"view","type":"function"},{"inputs":[{"internalType":"address","name":"_spender","type":"address"},{"internalType":"uint256","name":"_amount","type":"uint256"}],"name":"approve","outputs":[{"internalType":"bool","name":"","type":"bool"}],"stateMutability":"nonpayable","type":"function"},{"inputs":[{"internalType":"address","name":"owner","type":"address"}],"name":"balanceOf","outputs":[{"internalType":"uint256","name":"balance","type":"uint256"}],"stateMutability":"view","type":"function"},{"inputs":[],"name":"daoMintingStartsAfter","outputs":[{"internalType":"uint256","name":"","type":"uint256"}],"stateMutability":"view","type":"function"},{"inputs":[],"name":"decimals","outputs":[{"internalType":"uint8","name":"","type":"uint8"}],"stateMutability":"pure","type":"function"},{"inputs":[],"name":"exchangeMintingStartsAfter","outputs":[{"internalType":"uint256","name":"","type":"uint256"}],"stateMutability":"view","type":"function"},{"inputs":[],"name":"getOwner","outputs":[{"internalType":"address","name":"","type":"address"}],"stateMutability":"view","type":"function"},{"inputs":[],"name":"mint","outputs":[],"stateMutability":"nonpayable","type":"function"},{"inputs":[],"name":"mintToDao","outputs":[],"stateMutability":"nonpayable","type":"function"},{"inputs":[],"name":"mintToExchange","outputs":[],"stateMutability":"nonpayable","type":"function"},{"inputs":[],"name":"mintingStartsAfter","outputs":[{"internalType":"uint256","name":"","type":"uint256"}],"stateMutability":"view","type":"function"},{"inputs":[],"name":"name","outputs":[{"internalType":"string","name":"","type":"string"}],"stateMutability":"pure","type":"function"},{"inputs":[{"internalType":"address","name":"addr","type":"address"}],"name":"setDaoAddress","outputs":[],"stateMutability":"nonpayable","type":"function"},{"inputs":[{"internalType":"address","name":"addr","type":"address"}],"name":"setExchangeAddress","outputs":[],"stateMutability":"nonpayable","type":"function"},{"inputs":[],"name":"symbol","outputs":[{"internalType":"string","name":"","type":"string"}],"stateMutability":"pure","type":"function"},{"inputs":[],"name":"totalSupply","outputs":[{"internalType":"uint256","name":"","type":"uint256"}],"stateMutability":"view","type":"function"},{"inputs":[{"internalType":"address","name":"_to","type":"address"},{"internalType":"uint256","name":"_value","type":"uint256"}],"name":"transfer","outputs":[{"internalType":"bool","name":"","type":"bool"}],"stateMutability":"nonpayable","type":"function"},{"inputs":[{"internalType":"address","name":"from","type":"address"},{"internalType":"address","name":"to","type":"address"},{"internalType":"uint256","name":"value","type":"uint256"}],"name":"transferFrom","outputs":[{"internalType":"bool","name":"","type":"bool"}],"stateMutability":"nonpayable","type":"function"}],"evm":{"bytecode":{"linkReferences":{},"object":"6080604052600180546001600160a01b0319908116909155600280549091169055600680546001600160901b03191690556000600781905560088190556009553480156200004c57600080fd5b50600080546001600160a01b03191633908117909155600680546001600160801b031916629896801790819055620000889190600f0b6200008e565b6200021e565b6001600160a01b038216600090815260056020526040812054600f0b90819003620000ff57600480546001810182556000919091527f8a35acfbc15ff81a39ae7d344fd709f28e8600b4aa8c65c6b64bfe7fe36bd19b0180546001600160a01b0319166001600160a01b0385161790555b6200010b828262000197565b6001600160a01b0384166000818152600560205260409081902080546001600160801b0319166001600160801b038516179055519192509030907fddf252ad1be2c89b69c2b068fc378daa952ba7f163c4a11628f55a4df523b3ef90620001749086906200020e565b60405180910390a3505050565b634e487b7160e01b600052601160045260246000fd5b6000620001a482600f0b90565b9150620001b183600f0b90565b92505080820160016001607f1b03811360016001607f1b031982121715620001dd57620001dd62000181565b92915050565b6000620001dd620001fa6001600160801b03841681565b90565b6200020881620001e3565b82525050565b60208101620001dd8284620001fd565b611042806200022e6000396000f3fe608060405234801561001057600080fd5b50600436106101165760003560e01c806370a08231116100a2578063a9059cbb11610071578063a9059cbb14610230578063d082ea8c14610243578063d20a02cf14610256578063dd62ed3e1461025e578063f8f4c3431461029757600080fd5b806370a08231146101d2578063893d20e8146101e557806395d89b41146101fe5780639a3cac6a1461021d57600080fd5b806318160ddd116100e957806318160ddd1461018f57806323b872dd146101a0578063313ce567146101b35780633808721d146101c25780636f01f40e146101ca57600080fd5b806306fdde031461011b578063095ea7b3146101505780631249c58b146101705780631275d2a91461017a575b600080fd5b60408051808201909152600781526644657868756e6560c81b60208201525b6040516101479190610c6f565b60405180910390f35b61016361015e366004610cc1565b61029f565b6040516101479190610d08565b61017861030a565b005b6101826104b2565b6040516101479190610d1c565b6006546001600160801b0316610182565b6101636101ae366004610d2a565b6104de565b60006040516101479190610d83565b610178610571565b6101786105dd565b6101826101e0366004610d91565b610645565b6000546001600160a01b03166040516101479190610dc3565b604080518082019091526003815262088b0960eb1b602082015261013a565b61017861022b366004610d91565b610650565b61016361023e366004610cc1565b61069d565b610178610251366004610d91565b6106b3565b6101826106fd565b61018261026c366004610dd1565b6001600160a01b039182166000908152600a6020908152604080832093909416825291909152205490565b610182610723565b336000818152600a602090815260408083206001600160a01b038716808552925280832085905551919290917f8c5be1e5ebec7d5bd14f71427d1e84f3dd0314c0f7b2291e5b200ac8c7c3b925906102f8908690610d1c565b60405180910390a35060015b92915050565b600654610e42600160801b90910460010b126103395760405163303b682f60e01b815260040160405180910390fd5b600754421015610373576007546103509042610e1a565b60405163f461f5dd60e01b815260040161036a9190610d1c565b60405180910390fd5b60068054600160801b900460010b90601061038d83610e2d565b825461ffff9182166101009390930a9283029190920219909116179055506103b86205460042610e53565b600755600654600f0b60006127106103d1600c84610e66565b6103db9190610ebb565b905060006103e882610749565b905060006103f68284610f05565b9050600081600f0b131561046d576001546001600160a01b0316156104305760015461042b906001600160a01b03168261086a565b61046d565b6002546001600160a01b0316156104575760025461042b906001600160a01b03168261086a565b60005461046d906001600160a01b03168261086a565b60068054849190600090610485908490600f0b610f46565b92506101000a8154816001600160801b030219169083600f0b6001600160801b0316021790555050505050565b6000804290508060095410156104ca57600091505090565b806009546104d89190610e1a565b91505090565b6001600160a01b0383166000908152600a602090815260408083203384529091528120548083111561052757828160405163460c66b360e01b815260040161036a929190610f87565b6105318382610e1a565b6001600160a01b0386166000908152600a6020908152604080832033845290915290208190559050610564858585610958565b60019150505b9392505050565b42600854111561058957426008546103509190610e1a565b6001546001600160a01b03166105b25760405163099fd12960e31b815260040160405180910390fd5b6105bf6201518042610e53565b6008556001546105db906001600160a01b0316620493e061086a565b565b6009544210156105f4576009546103509042610e1a565b6002546001600160a01b031661061d576040516337a7527b60e01b815260040160405180910390fd5b61062a6201518042610e53565b6009556002546105db906001600160a01b031661168061086a565b600061030482610a95565b610658610aaf565b600280546001600160a01b0319166001600160a01b0383811691909117909155600154161561069a5761069a600080546001600160a01b03191661dead179055565b50565b60006106aa338484610958565b50600192915050565b6106bb610aaf565b600180546001600160a01b0319166001600160a01b0383811691909117909155600254161561069a5761069a600080546001600160a01b03191661dead179055565b60008042905080600854101561071557600091505090565b806008546104d89190610e1a565b60008042905080600754101561073b57600091505090565b806007546104d89190610e1a565b600080808080805b600454811015610860576004818154811061076e5761076e610fa2565b60009182526020808320909101546001600160a01b03168083526005909152604090912054600654919650600f90810b95500b6107ab8886610e66565b6107b59190610ebb565b92506107c18385610f46565b93506107cd8383610f46565b6001600160a01b038616600090815260056020526040812080546001600160801b0319166001600160801b038816179055909250600f84900b131561085857846001600160a01b0316306001600160a01b03167fddf252ad1be2c89b69c2b068fc378daa952ba7f163c4a11628f55a4df523b3ef8560405161084f9190610fd9565b60405180910390a35b600101610751565b5095945050505050565b6001600160a01b038216600090815260056020526040812054600f0b908190036108da57600480546001810182556000919091527f8a35acfbc15ff81a39ae7d344fd709f28e8600b4aa8c65c6b64bfe7fe36bd19b0180546001600160a01b0319166001600160a01b0385161790555b6108e48282610f46565b6001600160a01b0384166000818152600560205260409081902080546001600160801b0319166001600160801b038516179055519192509030907fddf252ad1be2c89b69c2b068fc378daa952ba7f163c4a11628f55a4df523b3ef9061094b908690610fd9565b60405180910390a3505050565b600061096384610a95565b90508082111561098657604051631e9acf1760e31b815260040160405180910390fd5b826001600160a01b0316846001600160a01b0316036109b8576040516388e2993360e01b815260040160405180910390fd5b306001600160a01b038516036109e15760405163293adf9760e01b815260040160405180910390fd5b306001600160a01b03841603610a0a5760405163293adf9760e01b815260040160405180910390fd5b610a148282610e1a565b90506000610a2184610a95565b9050610a2d8382610e53565b9050610a398583610adc565b610a438482610adc565b836001600160a01b0316856001600160a01b03167fddf252ad1be2c89b69c2b068fc378daa952ba7f163c4a11628f55a4df523b3ef85604051610a869190610d1c565b60405180910390a35050505050565b6000610aa082610aea565b6001600160801b031692915050565b6000546001600160a01b031633146105db57336040516332b2baa360e01b815260040161036a9190610dc3565b610ae68282610b17565b5050565b6001600160a01b038116600090815260056020526040812054600f0b818112156103045750600092915050565b600081600f0b1215610b4057818160405163244da4cd60e11b815260040161036a929190610ff1565b80600f0b600003610b5057506000195b6001600160a01b038216600090815260056020526040902054600f0b80158015610b7e575081600f0b600019145b15610b8857505050565b80600f0b600003610bdf57600480546001810182556000919091527f8a35acfbc15ff81a39ae7d344fd709f28e8600b4aa8c65c6b64bfe7fe36bd19b0180546001600160a01b0319166001600160a01b0385161790555b506001600160a01b0391909116600090815260056020526040902080546001600160801b0319166001600160801b03909216919091179055565b60005b83811015610c34578181015183820152602001610c1c565b50506000910152565b6000610c47825190565b808452602084019350610c5e818560208601610c19565b601f01601f19169290920192915050565b6020808252810161056a8184610c3d565b60006001600160a01b038216610304565b610c9a81610c80565b811461069a57600080fd5b803561030481610c91565b80610c9a565b803561030481610cb0565b60008060408385031215610cd757610cd7600080fd5b6000610ce38585610ca5565b9250506020610cf485828601610cb6565b9150509250929050565b8015155b82525050565b602081016103048284610cfe565b80610d02565b602081016103048284610d16565b600080600060608486031215610d4257610d42600080fd5b6000610d4e8686610ca5565b9350506020610d5f86828701610ca5565b9250506040610d7086828701610cb6565b9150509250925092565b60ff8116610d02565b602081016103048284610d7a565b600060208284031215610da657610da6600080fd5b6000610db28484610ca5565b949350505050565b610d0281610c80565b602081016103048284610dba565b60008060408385031215610de757610de7600080fd5b6000610df38585610ca5565b9250506020610cf485828601610ca5565b634e487b7160e01b600052601160045260246000fd5b8181038181111561030457610304610e04565b6000610e398260010b90565b9150617fff8203610e4c57610e4c610e04565b5060010190565b8082018082111561030457610304610e04565b6000610e7282600f0b90565b9150610e7e83600f0b90565b9250828202610e8d81600f0b90565b9150808214610e9e57610e9e610e04565b5092915050565b634e487b7160e01b600052601260045260246000fd5b6000610ec782600f0b90565b9150610ed383600f0b90565b925082610ee257610ee2610ea5565b60016001607f1b0319821460001984141615610f0057610f00610e04565b500590565b6000610f1182600f0b90565b9150610f1d83600f0b90565b92505081810360016001607f1b0319811260016001607f1b038213171561030457610304610e04565b6000610f5282600f0b90565b9150610f5e83600f0b90565b92505080820160016001607f1b03811360016001607f1b03198212171561030457610304610e04565b60408101610f958285610d16565b61056a6020830184610d16565b634e487b7160e01b600052603260045260246000fd5b6000610304610fcd6001600160801b03841681565b90565b610d0281610fb8565b602081016103048284610fd0565b610d0281600f0b90565b60408101610fff8285610dba565b61056a6020830184610fe756fea26469706673582212202ccc8067cf750ac802685becd23912798a2acb4be2747030849f397831283eb164736f6c63430008160033","opcodes":"PUSH1 0x80 PUSH1 0x40 MSTORE PUSH1 0x1 DUP1 SLOAD PUSH1 0x1 PUSH1 0x1 PUSH1 0xA0 SHL SUB NOT SWAP1 DUP2 AND SWAP1 SWAP2 SSTORE PUSH1 0x2 DUP1 SLOAD SWAP1 SWAP2 AND SWAP1 SSTORE PUSH1 0x6 DUP1 SLOAD PUSH1 0x1 PUSH1 0x1 PUSH1 0x90 SHL SUB NOT AND SWAP1 SSTORE PUSH1 0x0 PUSH1 0x7 DUP2 SWAP1 SSTORE PUSH1 0x8 DUP2 SWAP1 SSTORE PUSH1 0x9 SSTORE CALLVALUE DUP1 ISZERO PUSH3 0x4C JUMPI PUSH1 0x0 DUP1 REVERT JUMPDEST POP PUSH1 0x0 DUP1 SLOAD PUSH1 0x1 PUSH1 0x1 PUSH1 0xA0 SHL SUB NOT AND CALLER SWAP1 DUP2 OR SWAP1 SWAP2 SSTORE PUSH1 0x6 DUP1 SLOAD PUSH1 0x1 PUSH1 0x1 PUSH1 0x80 SHL SUB NOT AND PUSH3 0x989680 OR SWAP1 DUP2 SWAP1 SSTORE PUSH3 0x88 SWAP2 SWAP1 PUSH1 0xF SIGNEXTEND PUSH3 0x8E JUMP JUMPDEST PUSH3 0x21E JUMP JUMPDEST PUSH1 0x1 PUSH1 0x1 PUSH1 0xA0 SHL SUB DUP3 AND PUSH1 0x0 SWAP1 DUP2 MSTORE PUSH1 0x5 PUSH1 0x20 MSTORE PUSH1 0x40 DUP2 KECCAK256 SLOAD PUSH1 0xF SIGNEXTEND SWAP1 DUP2 SWAP1 SUB PUSH3 0xFF JUMPI PUSH1 0x4 DUP1 SLOAD PUSH1 0x1 DUP2 ADD DUP3 SSTORE PUSH1 0x0 SWAP2 SWAP1 SWAP2 MSTORE PUSH32 0x8A35ACFBC15FF81A39AE7D344FD709F28E8600B4AA8C65C6B64BFE7FE36BD19B ADD DUP1 SLOAD PUSH1 0x1 PUSH1 0x1 PUSH1 0xA0 SHL SUB NOT AND PUSH1 0x1 PUSH1 0x1 PUSH1 0xA0 SHL SUB DUP6 AND OR SWAP1 SSTORE JUMPDEST PUSH3 0x10B DUP3 DUP3 PUSH3 0x197 JUMP JUMPDEST PUSH1 0x1 PUSH1 0x1 PUSH1 0xA0 SHL SUB DUP5 AND PUSH1 0x0 DUP2 DUP2 MSTORE PUSH1 0x5 PUSH1 0x20 MSTORE PUSH1 0x40 SWAP1 DUP2 SWAP1 KECCAK256 DUP1 SLOAD PUSH1 0x1 PUSH1 0x1 PUSH1 0x80 SHL SUB NOT AND PUSH1 0x1 PUSH1 0x1 PUSH1 0x80 SHL SUB DUP6 AND OR SWAP1 SSTORE MLOAD SWAP2 SWAP3 POP SWAP1 ADDRESS SWAP1 PUSH32 0xDDF252AD1BE2C89B69C2B068FC378DAA952BA7F163C4A11628F55A4DF523B3EF SWAP1 PUSH3 0x174 SWAP1 DUP7 SWAP1 PUSH3 0x20E JUMP JUMPDEST PUSH1 0x40 MLOAD DUP1 SWAP2 SUB SWAP1 LOG3 POP POP POP JUMP JUMPDEST PUSH4 0x4E487B71 PUSH1 0xE0 SHL PUSH1 0x0 MSTORE PUSH1 0x11 PUSH1 0x4 MSTORE PUSH1 0x24 PUSH1 0x0 REVERT JUMPDEST PUSH1 0x0 PUSH3 0x1A4 DUP3 PUSH1 0xF SIGNEXTEND SWAP1 JUMP JUMPDEST SWAP2 POP PUSH3 0x1B1 DUP4 PUSH1 0xF SIGNEXTEND SWAP1 JUMP JUMPDEST SWAP3 POP POP DUP1 DUP3 ADD PUSH1 0x1 PUSH1 0x1 PUSH1 0x7F SHL SUB DUP2 SGT PUSH1 0x1 PUSH1 0x1 PUSH1 0x7F SHL SUB NOT DUP3 SLT OR ISZERO PUSH3 0x1DD JUMPI PUSH3 0x1DD PUSH3 0x181 JUMP JUMPDEST SWAP3 SWAP2 POP POP JUMP JUMPDEST PUSH1 0x0 PUSH3 0x1DD PUSH3 0x1FA PUSH1 0x1 PUSH1 0x1 PUSH1 0x80 SHL SUB DUP5 AND DUP2 JUMP JUMPDEST SWAP1 JUMP JUMPDEST PUSH3 0x208 DUP2 PUSH3 0x1E3 JUMP JUMPDEST DUP3 MSTORE POP POP JUMP JUMPDEST PUSH1 0x20 DUP2 ADD PUSH3 0x1DD DUP3 DUP5 PUSH3 0x1FD JUMP JUMPDEST PUSH2 0x1042 DUP1 PUSH3 0x22E PUSH1 0x0 CODECOPY PUSH1 0x0 RETURN INVALID PUSH1 0x80 PUSH1 0x40 MSTORE CALLVALUE DUP1 ISZERO PUSH2 0x10 JUMPI PUSH1 0x0 DUP1 REVERT JUMPDEST POP PUSH1 0x4 CALLDATASIZE LT PUSH2 0x116 JUMPI PUSH1 0x0 CALLDATALOAD PUSH1 0xE0 SHR DUP1 PUSH4 0x70A08231 GT PUSH2 0xA2 JUMPI DUP1 PUSH4 0xA9059CBB GT PUSH2 0x71 JUMPI DUP1 PUSH4 0xA9059CBB EQ PUSH2 0x230 JUMPI DUP1 PUSH4 0xD082EA8C EQ PUSH2 0x243 JUMPI DUP1 PUSH4 0xD20A02CF EQ PUSH2 0x256 JUMPI DUP1 PUSH4 0xDD62ED3E EQ PUSH2 0x25E JUMPI DUP1 PUSH4 0xF8F4C343 EQ PUSH2 0x297 JUMPI PUSH1 0x0 DUP1 REVERT JUMPDEST DUP1 PUSH4 0x70A08231 EQ PUSH2 0x1D2 JUMPI DUP1 PUSH4 0x893D20E8 EQ PUSH2 0x1E5 JUMPI DUP1 PUSH4 0x95D89B41 EQ PUSH2 0x1FE JUMPI DUP1 PUSH4 0x9A3CAC6A EQ PUSH2 0x21D JUMPI PUSH1 0x0 DUP1 REVERT JUMPDEST DUP1 PUSH4 0x18160DDD GT PUSH2 0xE9 JUMPI DUP1 PUSH4 0x18160DDD EQ PUSH2 0x18F JUMPI DUP1 PUSH4 0x23B872DD EQ PUSH2 0x1A0 JUMPI DUP1 PUSH4 0x313CE567 EQ PUSH2 0x1B3 JUMPI DUP1 PUSH4 0x3808721D EQ PUSH2 0x1C2 JUMPI DUP1 PUSH4 0x6F01F40E EQ PUSH2 0x1CA JUMPI PUSH1 0x0 DUP1 REVERT JUMPDEST DUP1 PUSH4 0x6FDDE03 EQ PUSH2 0x11B JUMPI DUP1 PUSH4 0x95EA7B3 EQ PUSH2 0x150 JUMPI DUP1 PUSH4 0x1249C58B EQ PUSH2 0x170 JUMPI DUP1 PUSH4 0x1275D2A9 EQ PUSH2 0x17A JUMPI JUMPDEST PUSH1 0x0 DUP1 REVERT JUMPDEST PUSH1 0x40 DUP1 MLOAD DUP1 DUP3 ADD SWAP1 SWAP2 MSTORE PUSH1 0x7 DUP2 MSTORE PUSH7 0x44657868756E65 PUSH1 0xC8 SHL PUSH1 0x20 DUP3 ADD MSTORE JUMPDEST PUSH1 0x40 MLOAD PUSH2 0x147 SWAP2 SWAP1 PUSH2 0xC6F JUMP JUMPDEST PUSH1 0x40 MLOAD DUP1 SWAP2 SUB SWAP1 RETURN JUMPDEST PUSH2 0x163 PUSH2 0x15E CALLDATASIZE PUSH1 0x4 PUSH2 0xCC1 JUMP JUMPDEST PUSH2 0x29F JUMP JUMPDEST PUSH1 0x40 MLOAD PUSH2 0x147 SWAP2 SWAP1 PUSH2 0xD08 JUMP JUMPDEST PUSH2 0x178 PUSH2 0x30A JUMP JUMPDEST STOP JUMPDEST PUSH2 0x182 PUSH2 0x4B2 JUMP JUMPDEST PUSH1 0x40 MLOAD PUSH2 0x147 SWAP2 SWAP1 PUSH2 0xD1C JUMP JUMPDEST PUSH1 0x6 SLOAD PUSH1 0x1 PUSH1 0x1 PUSH1 0x80 SHL SUB AND PUSH2 0x182 JUMP JUMPDEST PUSH2 0x163 PUSH2 0x1AE CALLDATASIZE PUSH1 0x4 PUSH2 0xD2A JUMP JUMPDEST PUSH2 0x4DE JUMP JUMPDEST PUSH1 0x0 PUSH1 0x40 MLOAD PUSH2 0x147 SWAP2 SWAP1 PUSH2 0xD83 JUMP JUMPDEST PUSH2 0x178 PUSH2 0x571 JUMP JUMPDEST PUSH2 0x178 PUSH2 0x5DD JUMP JUMPDEST PUSH2 0x182 PUSH2 0x1E0 CALLDATASIZE PUSH1 0x4 PUSH2 0xD91 JUMP JUMPDEST PUSH2 0x645 JUMP JUMPDEST PUSH1 0x0 SLOAD PUSH1 0x1 PUSH1 0x1 PUSH1 0xA0 SHL SUB AND PUSH1 0x40 MLOAD PUSH2 0x147 SWAP2 SWAP1 PUSH2 0xDC3 JUMP JUMPDEST PUSH1 0x40 DUP1 MLOAD DUP1 DUP3 ADD SWAP1 SWAP2 MSTORE PUSH1 0x3 DUP2 MSTORE PUSH3 0x88B09 PUSH1 0xEB SHL PUSH1 0x20 DUP3 ADD MSTORE PUSH2 0x13A JUMP JUMPDEST PUSH2 0x178 PUSH2 0x22B CALLDATASIZE PUSH1 0x4 PUSH2 0xD91 JUMP JUMPDEST PUSH2 0x650 JUMP JUMPDEST PUSH2 0x163 PUSH2 0x23E CALLDATASIZE PUSH1 0x4 PUSH2 0xCC1 JUMP JUMPDEST PUSH2 0x69D JUMP JUMPDEST PUSH2 0x178 PUSH2 0x251 CALLDATASIZE PUSH1 0x4 PUSH2 0xD91 JUMP JUMPDEST PUSH2 0x6B3 JUMP JUMPDEST PUSH2 0x182 PUSH2 0x6FD JUMP JUMPDEST PUSH2 0x182 PUSH2 0x26C CALLDATASIZE PUSH1 0x4 PUSH2 0xDD1 JUMP JUMPDEST PUSH1 0x1 PUSH1 0x1 PUSH1 0xA0 SHL SUB SWAP2 DUP3 AND PUSH1 0x0 SWAP1 DUP2 MSTORE PUSH1 0xA PUSH1 0x20 SWAP1 DUP2 MSTORE PUSH1 0x40 DUP1 DUP4 KECCAK256 SWAP4 SWAP1 SWAP5 AND DUP3 MSTORE SWAP2 SWAP1 SWAP2 MSTORE KECCAK256 SLOAD SWAP1 JUMP JUMPDEST PUSH2 0x182 PUSH2 0x723 JUMP JUMPDEST CALLER PUSH1 0x0 DUP2 DUP2 MSTORE PUSH1 0xA PUSH1 0x20 SWAP1 DUP2 MSTORE PUSH1 0x40 DUP1 DUP4 KECCAK256 PUSH1 0x1 PUSH1 0x1 PUSH1 0xA0 SHL SUB DUP8 AND DUP1 DUP6 MSTORE SWAP3 MSTORE DUP1 DUP4 KECCAK256 DUP6 SWAP1 SSTORE MLOAD SWAP2 SWAP3 SWAP1 SWAP2 PUSH32 0x8C5BE1E5EBEC7D5BD14F71427D1E84F3DD0314C0F7B2291E5B200AC8C7C3B925 SWAP1 PUSH2 0x2F8 SWAP1 DUP7 SWAP1 PUSH2 0xD1C JUMP JUMPDEST PUSH1 0x40 MLOAD DUP1 SWAP2 SUB SWAP1 LOG3 POP PUSH1 0x1 JUMPDEST SWAP3 SWAP2 POP POP JUMP JUMPDEST PUSH1 0x6 SLOAD PUSH2 0xE42 PUSH1 0x1 PUSH1 0x80 SHL SWAP1 SWAP2 DIV PUSH1 0x1 SIGNEXTEND SLT PUSH2 0x339 JUMPI PUSH1 0x40 MLOAD PUSH4 0x303B682F PUSH1 0xE0 SHL DUP2 MSTORE PUSH1 0x4 ADD PUSH1 0x40 MLOAD DUP1 SWAP2 SUB SWAP1 REVERT JUMPDEST PUSH1 0x7 SLOAD TIMESTAMP LT ISZERO PUSH2 0x373 JUMPI PUSH1 0x7 SLOAD PUSH2 0x350 SWAP1 TIMESTAMP PUSH2 0xE1A JUMP JUMPDEST PUSH1 0x40 MLOAD PUSH4 0xF461F5DD PUSH1 0xE0 SHL DUP2 MSTORE PUSH1 0x4 ADD PUSH2 0x36A SWAP2 SWAP1 PUSH2 0xD1C JUMP JUMPDEST PUSH1 0x40 MLOAD DUP1 SWAP2 SUB SWAP1 REVERT JUMPDEST PUSH1 0x6 DUP1 SLOAD PUSH1 0x1 PUSH1 0x80 SHL SWAP1 DIV PUSH1 0x1 SIGNEXTEND SWAP1 PUSH1 0x10 PUSH2 0x38D DUP4 PUSH2 0xE2D JUMP JUMPDEST DUP3 SLOAD PUSH2 0xFFFF SWAP2 DUP3 AND PUSH2 0x100 SWAP4 SWAP1 SWAP4 EXP SWAP3 DUP4 MUL SWAP2 SWAP1 SWAP3 MUL NOT SWAP1 SWAP2 AND OR SWAP1 SSTORE POP PUSH2 0x3B8 PUSH3 0x54600 TIMESTAMP PUSH2 0xE53 JUMP JUMPDEST PUSH1 0x7 SSTORE PUSH1 0x6 SLOAD PUSH1 0xF SIGNEXTEND PUSH1 0x0 PUSH2 0x2710 PUSH2 0x3D1 PUSH1 0xC DUP5 PUSH2 0xE66 JUMP JUMPDEST PUSH2 0x3DB SWAP2 SWAP1 PUSH2 0xEBB JUMP JUMPDEST SWAP1 POP PUSH1 0x0 PUSH2 0x3E8 DUP3 PUSH2 0x749 JUMP JUMPDEST SWAP1 POP PUSH1 0x0 PUSH2 0x3F6 DUP3 DUP5 PUSH2 0xF05 JUMP JUMPDEST SWAP1 POP PUSH1 0x0 DUP2 PUSH1 0xF SIGNEXTEND SGT ISZERO PUSH2 0x46D JUMPI PUSH1 0x1 SLOAD PUSH1 0x1 PUSH1 0x1 PUSH1 0xA0 SHL SUB AND ISZERO PUSH2 0x430 JUMPI PUSH1 0x1 SLOAD PUSH2 0x42B SWAP1 PUSH1 0x1 PUSH1 0x1 PUSH1 0xA0 SHL SUB AND DUP3 PUSH2 0x86A JUMP JUMPDEST PUSH2 0x46D JUMP JUMPDEST PUSH1 0x2 SLOAD PUSH1 0x1 PUSH1 0x1 PUSH1 0xA0 SHL SUB AND ISZERO PUSH2 0x457 JUMPI PUSH1 0x2 SLOAD PUSH2 0x42B SWAP1 PUSH1 0x1 PUSH1 0x1 PUSH1 0xA0 SHL SUB AND DUP3 PUSH2 0x86A JUMP JUMPDEST PUSH1 0x0 SLOAD PUSH2 0x46D SWAP1 PUSH1 0x1 PUSH1 0x1 PUSH1 0xA0 SHL SUB AND DUP3 PUSH2 0x86A JUMP JUMPDEST PUSH1 0x6 DUP1 SLOAD DUP5 SWAP2 SWAP1 PUSH1 0x0 SWAP1 PUSH2 0x485 SWAP1 DUP5 SWAP1 PUSH1 0xF SIGNEXTEND PUSH2 0xF46 JUMP JUMPDEST SWAP3 POP PUSH2 0x100 EXP DUP2 SLOAD DUP2 PUSH1 0x1 PUSH1 0x1 PUSH1 0x80 SHL SUB MUL NOT AND SWAP1 DUP4 PUSH1 0xF SIGNEXTEND PUSH1 0x1 PUSH1 0x1 PUSH1 0x80 SHL SUB AND MUL OR SWAP1 SSTORE POP POP POP POP POP JUMP JUMPDEST PUSH1 0x0 DUP1 TIMESTAMP SWAP1 POP DUP1 PUSH1 0x9 SLOAD LT ISZERO PUSH2 0x4CA JUMPI PUSH1 0x0 SWAP2 POP POP SWAP1 JUMP JUMPDEST DUP1 PUSH1 0x9 SLOAD PUSH2 0x4D8 SWAP2 SWAP1 PUSH2 0xE1A JUMP JUMPDEST SWAP2 POP POP SWAP1 JUMP JUMPDEST PUSH1 0x1 PUSH1 0x1 PUSH1 0xA0 SHL SUB DUP4 AND PUSH1 0x0 SWAP1 DUP2 MSTORE PUSH1 0xA PUSH1 0x20 SWAP1 DUP2 MSTORE PUSH1 0x40 DUP1 DUP4 KECCAK256 CALLER DUP5 MSTORE SWAP1 SWAP2 MSTORE DUP2 KECCAK256 SLOAD DUP1 DUP4 GT ISZERO PUSH2 0x527 JUMPI DUP3 DUP2 PUSH1 0x40 MLOAD PUSH4 0x460C66B3 PUSH1 0xE0 SHL DUP2 MSTORE PUSH1 0x4 ADD PUSH2 0x36A SWAP3 SWAP2 SWAP1 PUSH2 0xF87 JUMP JUMPDEST PUSH2 0x531 DUP4 DUP3 PUSH2 0xE1A JUMP JUMPDEST PUSH1 0x1 PUSH1 0x1 PUSH1 0xA0 SHL SUB DUP7 AND PUSH1 0x0 SWAP1 DUP2 MSTORE PUSH1 0xA PUSH1 0x20 SWAP1 DUP2 MSTORE PUSH1 0x40 DUP1 DUP4 KECCAK256 CALLER DUP5 MSTORE SWAP1 SWAP2 MSTORE SWAP1 KECCAK256 DUP2 SWAP1 SSTORE SWAP1 POP PUSH2 0x564 DUP6 DUP6 DUP6 PUSH2 0x958 JUMP JUMPDEST PUSH1 0x1 SWAP2 POP POP JUMPDEST SWAP4 SWAP3 POP POP POP JUMP JUMPDEST TIMESTAMP PUSH1 0x8 SLOAD GT ISZERO PUSH2 0x589 JUMPI TIMESTAMP PUSH1 0x8 SLOAD PUSH2 0x350 SWAP2 SWAP1 PUSH2 0xE1A JUMP JUMPDEST PUSH1 0x1 SLOAD PUSH1 0x1 PUSH1 0x1 PUSH1 0xA0 SHL SUB AND PUSH2 0x5B2 JUMPI PUSH1 0x40 MLOAD PUSH4 0x99FD129 PUSH1 0xE3 SHL DUP2 MSTORE PUSH1 0x4 ADD PUSH1 0x40 MLOAD DUP1 SWAP2 SUB SWAP1 REVERT JUMPDEST PUSH2 0x5BF PUSH3 0x15180 TIMESTAMP PUSH2 0xE53 JUMP JUMPDEST PUSH1 0x8 SSTORE PUSH1 0x1 SLOAD PUSH2 0x5DB SWAP1 PUSH1 0x1 PUSH1 0x1 PUSH1 0xA0 SHL SUB AND PUSH3 0x493E0 PUSH2 0x86A JUMP JUMPDEST JUMP JUMPDEST PUSH1 0x9 SLOAD TIMESTAMP LT ISZERO PUSH2 0x5F4 JUMPI PUSH1 0x9 SLOAD PUSH2 0x350 SWAP1 TIMESTAMP PUSH2 0xE1A JUMP JUMPDEST PUSH1 0x2 SLOAD PUSH1 0x1 PUSH1 0x1 PUSH1 0xA0 SHL SUB AND PUSH2 0x61D JUMPI PUSH1 0x40 MLOAD PUSH4 0x37A7527B PUSH1 0xE0 SHL DUP2 MSTORE PUSH1 0x4 ADD PUSH1 0x40 MLOAD DUP1 SWAP2 SUB SWAP1 REVERT JUMPDEST PUSH2 0x62A PUSH3 0x15180 TIMESTAMP PUSH2 0xE53 JUMP JUMPDEST PUSH1 0x9 SSTORE PUSH1 0x2 SLOAD PUSH2 0x5DB SWAP1 PUSH1 0x1 PUSH1 0x1 PUSH1 0xA0 SHL SUB AND PUSH2 0x1680 PUSH2 0x86A JUMP JUMPDEST PUSH1 0x0 PUSH2 0x304 DUP3 PUSH2 0xA95 JUMP JUMPDEST PUSH2 0x658 PUSH2 0xAAF JUMP JUMPDEST PUSH1 0x2 DUP1 SLOAD PUSH1 0x1 PUSH1 0x1 PUSH1 0xA0 SHL SUB NOT AND PUSH1 0x1 PUSH1 0x1 PUSH1 0xA0 SHL SUB DUP4 DUP2 AND SWAP2 SWAP1 SWAP2 OR SWAP1 SWAP2 SSTORE PUSH1 0x1 SLOAD AND ISZERO PUSH2 0x69A JUMPI PUSH2 0x69A PUSH1 0x0 DUP1 SLOAD PUSH1 0x1 PUSH1 0x1 PUSH1 0xA0 SHL SUB NOT AND PUSH2 0xDEAD OR SWAP1 SSTORE JUMP JUMPDEST POP JUMP JUMPDEST PUSH1 0x0 PUSH2 0x6AA CALLER DUP5 DUP5 PUSH2 0x958 JUMP JUMPDEST POP PUSH1 0x1 SWAP3 SWAP2 POP POP JUMP JUMPDEST PUSH2 0x6BB PUSH2 0xAAF JUMP JUMPDEST PUSH1 0x1 DUP1 SLOAD PUSH1 0x1 PUSH1 0x1 PUSH1 0xA0 SHL SUB NOT AND PUSH1 0x1 PUSH1 0x1 PUSH1 0xA0 SHL SUB DUP4 DUP2 AND SWAP2 SWAP1 SWAP2 OR SWAP1 SWAP2 SSTORE PUSH1 0x2 SLOAD AND ISZERO PUSH2 0x69A JUMPI PUSH2 0x69A PUSH1 0x0 DUP1 SLOAD PUSH1 0x1 PUSH1 0x1 PUSH1 0xA0 SHL SUB NOT AND PUSH2 0xDEAD OR SWAP1 SSTORE JUMP JUMPDEST PUSH1 0x0 DUP1 TIMESTAMP SWAP1 POP DUP1 PUSH1 0x8 SLOAD LT ISZERO PUSH2 0x715 JUMPI PUSH1 0x0 SWAP2 POP POP SWAP1 JUMP JUMPDEST DUP1 PUSH1 0x8 SLOAD PUSH2 0x4D8 SWAP2 SWAP1 PUSH2 0xE1A JUMP JUMPDEST PUSH1 0x0 DUP1 TIMESTAMP SWAP1 POP DUP1 PUSH1 0x7 SLOAD LT ISZERO PUSH2 0x73B JUMPI PUSH1 0x0 SWAP2 POP POP SWAP1 JUMP JUMPDEST DUP1 PUSH1 0x7 SLOAD PUSH2 0x4D8 SWAP2 SWAP1 PUSH2 0xE1A JUMP JUMPDEST PUSH1 0x0 DUP1 DUP1 DUP1 DUP1 DUP1 JUMPDEST PUSH1 0x4 SLOAD DUP2 LT ISZERO PUSH2 0x860 JUMPI PUSH1 0x4 DUP2 DUP2 SLOAD DUP2 LT PUSH2 0x76E JUMPI PUSH2 0x76E PUSH2 0xFA2 JUMP JUMPDEST PUSH1 0x0 SWAP2 DUP3 MSTORE PUSH1 0x20 DUP1 DUP4 KECCAK256 SWAP1 SWAP2 ADD SLOAD PUSH1 0x1 PUSH1 0x1 PUSH1 0xA0 SHL SUB AND DUP1 DUP4 MSTORE PUSH1 0x5 SWAP1 SWAP2 MSTORE PUSH1 0x40 SWAP1 SWAP2 KECCAK256 SLOAD PUSH1 0x6 SLOAD SWAP2 SWAP7 POP PUSH1 0xF SWAP1 DUP2 SIGNEXTEND SWAP6 POP SIGNEXTEND PUSH2 0x7AB DUP9 DUP7 PUSH2 0xE66 JUMP JUMPDEST PUSH2 0x7B5 SWAP2 SWAP1 PUSH2 0xEBB JUMP JUMPDEST SWAP3 POP PUSH2 0x7C1 DUP4 DUP6 PUSH2 0xF46 JUMP JUMPDEST SWAP4 POP PUSH2 0x7CD DUP4 DUP4 PUSH2 0xF46 JUMP JUMPDEST PUSH1 0x1 PUSH1 0x1 PUSH1 0xA0 SHL SUB DUP7 AND PUSH1 0x0 SWAP1 DUP2 MSTORE PUSH1 0x5 PUSH1 0x20 MSTORE PUSH1 0x40 DUP2 KECCAK256 DUP1 SLOAD PUSH1 0x1 PUSH1 0x1 PUSH1 0x80 SHL SUB NOT AND PUSH1 0x1 PUSH1 0x1 PUSH1 0x80 SHL SUB DUP9 AND OR SWAP1 SSTORE SWAP1 SWAP3 POP PUSH1 0xF DUP5 SWAP1 SIGNEXTEND SGT ISZERO PUSH2 0x858 JUMPI DUP5 PUSH1 0x1 PUSH1 0x1 PUSH1 0xA0 SHL SUB AND ADDRESS PUSH1 0x1 PUSH1 0x1 PUSH1 0xA0 SHL SUB AND PUSH32 0xDDF252AD1BE2C89B69C2B068FC378DAA952BA7F163C4A11628F55A4DF523B3EF DUP6 PUSH1 0x40 MLOAD PUSH2 0x84F SWAP2 SWAP1 PUSH2 0xFD9 JUMP JUMPDEST PUSH1 0x40 MLOAD DUP1 SWAP2 SUB SWAP1 LOG3 JUMPDEST PUSH1 0x1 ADD PUSH2 0x751 JUMP JUMPDEST POP SWAP6 SWAP5 POP POP POP POP POP JUMP JUMPDEST PUSH1 0x1 PUSH1 0x1 PUSH1 0xA0 SHL SUB DUP3 AND PUSH1 0x0 SWAP1 DUP2 MSTORE PUSH1 0x5 PUSH1 0x20 MSTORE PUSH1 0x40 DUP2 KECCAK256 SLOAD PUSH1 0xF SIGNEXTEND SWAP1 DUP2 SWAP1 SUB PUSH2 0x8DA JUMPI PUSH1 0x4 DUP1 SLOAD PUSH1 0x1 DUP2 ADD DUP3 SSTORE PUSH1 0x0 SWAP2 SWAP1 SWAP2 MSTORE PUSH32 0x8A35ACFBC15FF81A39AE7D344FD709F28E8600B4AA8C65C6B64BFE7FE36BD19B ADD DUP1 SLOAD PUSH1 0x1 PUSH1 0x1 PUSH1 0xA0 SHL SUB NOT AND PUSH1 0x1 PUSH1 0x1 PUSH1 0xA0 SHL SUB DUP6 AND OR SWAP1 SSTORE JUMPDEST PUSH2 0x8E4 DUP3 DUP3 PUSH2 0xF46 JUMP JUMPDEST PUSH1 0x1 PUSH1 0x1 PUSH1 0xA0 SHL SUB DUP5 AND PUSH1 0x0 DUP2 DUP2 MSTORE PUSH1 0x5 PUSH1 0x20 MSTORE PUSH1 0x40 SWAP1 DUP2 SWAP1 KECCAK256 DUP1 SLOAD PUSH1 0x1 PUSH1 0x1 PUSH1 0x80 SHL SUB NOT AND PUSH1 0x1 PUSH1 0x1 PUSH1 0x80 SHL SUB DUP6 AND OR SWAP1 SSTORE MLOAD SWAP2 SWAP3 POP SWAP1 ADDRESS SWAP1 PUSH32 0xDDF252AD1BE2C89B69C2B068FC378DAA952BA7F163C4A11628F55A4DF523B3EF SWAP1 PUSH2 0x94B SWAP1 DUP7 SWAP1 PUSH2 0xFD9 JUMP JUMPDEST PUSH1 0x40 MLOAD DUP1 SWAP2 SUB SWAP1 LOG3 POP POP POP JUMP JUMPDEST PUSH1 0x0 PUSH2 0x963 DUP5 PUSH2 0xA95 JUMP JUMPDEST SWAP1 POP DUP1 DUP3 GT ISZERO PUSH2 0x986 JUMPI PUSH1 0x40 MLOAD PUSH4 0x1E9ACF17 PUSH1 0xE3 SHL DUP2 MSTORE PUSH1 0x4 ADD PUSH1 0x40 MLOAD DUP1 SWAP2 SUB SWAP1 REVERT JUMPDEST DUP3 PUSH1 0x1 PUSH1 0x1 PUSH1 0xA0 SHL SUB AND DUP5 PUSH1 0x1 PUSH1 0x1 PUSH1 0xA0 SHL SUB AND SUB PUSH2 0x9B8 JUMPI PUSH1 0x40 MLOAD PUSH4 0x88E29933 PUSH1 0xE0 SHL DUP2 MSTORE PUSH1 0x4 ADD PUSH1 0x40 MLOAD DUP1 SWAP2 SUB SWAP1 REVERT JUMPDEST ADDRESS PUSH1 0x1 PUSH1 0x1 PUSH1 0xA0 SHL SUB DUP6 AND SUB PUSH2 0x9E1 JUMPI PUSH1 0x40 MLOAD PUSH4 0x293ADF97 PUSH1 0xE0 SHL DUP2 MSTORE PUSH1 0x4 ADD PUSH1 0x40 MLOAD DUP1 SWAP2 SUB SWAP1 REVERT JUMPDEST ADDRESS PUSH1 0x1 PUSH1 0x1 PUSH1 0xA0 SHL SUB DUP5 AND SUB PUSH2 0xA0A JUMPI PUSH1 0x40 MLOAD PUSH4 0x293ADF97 PUSH1 0xE0 SHL DUP2 MSTORE PUSH1 0x4 ADD PUSH1 0x40 MLOAD DUP1 SWAP2 SUB SWAP1 REVERT JUMPDEST PUSH2 0xA14 DUP3 DUP3 PUSH2 0xE1A JUMP JUMPDEST SWAP1 POP PUSH1 0x0 PUSH2 0xA21 DUP5 PUSH2 0xA95 JUMP JUMPDEST SWAP1 POP PUSH2 0xA2D DUP4 DUP3 PUSH2 0xE53 JUMP JUMPDEST SWAP1 POP PUSH2 0xA39 DUP6 DUP4 PUSH2 0xADC JUMP JUMPDEST PUSH2 0xA43 DUP5 DUP3 PUSH2 0xADC JUMP JUMPDEST DUP4 PUSH1 0x1 PUSH1 0x1 PUSH1 0xA0 SHL SUB AND DUP6 PUSH1 0x1 PUSH1 0x1 PUSH1 0xA0 SHL SUB AND PUSH32 0xDDF252AD1BE2C89B69C2B068FC378DAA952BA7F163C4A11628F55A4DF523B3EF DUP6 PUSH1 0x40 MLOAD PUSH2 0xA86 SWAP2 SWAP1 PUSH2 0xD1C JUMP JUMPDEST PUSH1 0x40 MLOAD DUP1 SWAP2 SUB SWAP1 LOG3 POP POP POP POP POP JUMP JUMPDEST PUSH1 0x0 PUSH2 0xAA0 DUP3 PUSH2 0xAEA JUMP JUMPDEST PUSH1 0x1 PUSH1 0x1 PUSH1 0x80 SHL SUB AND SWAP3 SWAP2 POP POP JUMP JUMPDEST PUSH1 0x0 SLOAD PUSH1 0x1 PUSH1 0x1 PUSH1 0xA0 SHL SUB AND CALLER EQ PUSH2 0x5DB JUMPI CALLER PUSH1 0x40 MLOAD PUSH4 0x32B2BAA3 PUSH1 0xE0 SHL DUP2 MSTORE PUSH1 0x4 ADD PUSH2 0x36A SWAP2 SWAP1 PUSH2 0xDC3 JUMP JUMPDEST PUSH2 0xAE6 DUP3 DUP3 PUSH2 0xB17 JUMP JUMPDEST POP POP JUMP JUMPDEST PUSH1 0x1 PUSH1 0x1 PUSH1 0xA0 SHL SUB DUP2 AND PUSH1 0x0 SWAP1 DUP2 MSTORE PUSH1 0x5 PUSH1 0x20 MSTORE PUSH1 0x40 DUP2 KECCAK256 SLOAD PUSH1 0xF SIGNEXTEND DUP2 DUP2 SLT ISZERO PUSH2 0x304 JUMPI POP PUSH1 0x0 SWAP3 SWAP2 POP POP JUMP JUMPDEST PUSH1 0x0 DUP2 PUSH1 0xF SIGNEXTEND SLT ISZERO PUSH2 0xB40 JUMPI DUP2 DUP2 PUSH1 0x40 MLOAD PUSH4 0x244DA4CD PUSH1 0xE1 SHL DUP2 MSTORE PUSH1 0x4 ADD PUSH2 0x36A SWAP3 SWAP2 SWAP1 PUSH2 0xFF1 JUMP JUMPDEST DUP1 PUSH1 0xF SIGNEXTEND PUSH1 0x0 SUB PUSH2 0xB50 JUMPI POP PUSH1 0x0 NOT JUMPDEST PUSH1 0x1 PUSH1 0x1 PUSH1 0xA0 SHL SUB DUP3 AND PUSH1 0x0 SWAP1 DUP2 MSTORE PUSH1 0x5 PUSH1 0x20 MSTORE PUSH1 0x40 SWAP1 KECCAK256 SLOAD PUSH1 0xF SIGNEXTEND DUP1 ISZERO DUP1 ISZERO PUSH2 0xB7E JUMPI POP DUP2 PUSH1 0xF SIGNEXTEND PUSH1 0x0 NOT EQ JUMPDEST ISZERO PUSH2 0xB88 JUMPI POP POP POP JUMP JUMPDEST DUP1 PUSH1 0xF SIGNEXTEND PUSH1 0x0 SUB PUSH2 0xBDF JUMPI PUSH1 0x4 DUP1 SLOAD PUSH1 0x1 DUP2 ADD DUP3 SSTORE PUSH1 0x0 SWAP2 SWAP1 SWAP2 MSTORE PUSH32 0x8A35ACFBC15FF81A39AE7D344FD709F28E8600B4AA8C65C6B64BFE7FE36BD19B ADD DUP1 SLOAD PUSH1 0x1 PUSH1 0x1 PUSH1 0xA0 SHL SUB NOT AND PUSH1 0x1 PUSH1 0x1 PUSH1 0xA0 SHL SUB DUP6 AND OR SWAP1 SSTORE JUMPDEST POP PUSH1 0x1 PUSH1 0x1 PUSH1 0xA0 SHL SUB SWAP2 SWAP1 SWAP2 AND PUSH1 0x0 SWAP1 DUP2 MSTORE PUSH1 0x5 PUSH1 0x20 MSTORE PUSH1 0x40 SWAP1 KECCAK256 DUP1 SLOAD PUSH1 0x1 PUSH1 0x1 PUSH1 0x80 SHL SUB NOT AND PUSH1 0x1 PUSH1 0x1 PUSH1 0x80 SHL SUB SWAP1 SWAP3 AND SWAP2 SWAP1 SWAP2 OR SWAP1 SSTORE JUMP JUMPDEST PUSH1 0x0 JUMPDEST DUP4 DUP2 LT ISZERO PUSH2 0xC34 JUMPI DUP2 DUP2 ADD MLOAD DUP4 DUP3 ADD MSTORE PUSH1 0x20 ADD PUSH2 0xC1C JUMP JUMPDEST POP POP PUSH1 0x0 SWAP2 ADD MSTORE JUMP JUMPDEST PUSH1 0x0 PUSH2 0xC47 DUP3 MLOAD SWAP1 JUMP JUMPDEST DUP1 DUP5 MSTORE PUSH1 0x20 DUP5 ADD SWAP4 POP PUSH2 0xC5E DUP2 DUP6 PUSH1 0x20 DUP7 ADD PUSH2 0xC19 JUMP JUMPDEST PUSH1 0x1F ADD PUSH1 0x1F NOT AND SWAP3 SWAP1 SWAP3 ADD SWAP3 SWAP2 POP POP JUMP JUMPDEST PUSH1 0x20 DUP1 DUP3 MSTORE DUP2 ADD PUSH2 0x56A DUP2 DUP5 PUSH2 0xC3D JUMP JUMPDEST PUSH1 0x0 PUSH1 0x1 PUSH1 0x1 PUSH1 0xA0 SHL SUB DUP3 AND PUSH2 0x304 JUMP JUMPDEST PUSH2 0xC9A DUP2 PUSH2 0xC80 JUMP JUMPDEST DUP2 EQ PUSH2 0x69A JUMPI PUSH1 0x0 DUP1 REVERT JUMPDEST DUP1 CALLDATALOAD PUSH2 0x304 DUP2 PUSH2 0xC91 JUMP JUMPDEST DUP1 PUSH2 0xC9A JUMP JUMPDEST DUP1 CALLDATALOAD PUSH2 0x304 DUP2 PUSH2 0xCB0 JUMP JUMPDEST PUSH1 0x0 DUP1 PUSH1 0x40 DUP4 DUP6 SUB SLT ISZERO PUSH2 0xCD7 JUMPI PUSH2 0xCD7 PUSH1 0x0 DUP1 REVERT JUMPDEST PUSH1 0x0 PUSH2 0xCE3 DUP6 DUP6 PUSH2 0xCA5 JUMP JUMPDEST SWAP3 POP POP PUSH1 0x20 PUSH2 0xCF4 DUP6 DUP3 DUP7 ADD PUSH2 0xCB6 JUMP JUMPDEST SWAP2 POP POP SWAP3 POP SWAP3 SWAP1 POP JUMP JUMPDEST DUP1 ISZERO ISZERO JUMPDEST DUP3 MSTORE POP POP JUMP JUMPDEST PUSH1 0x20 DUP2 ADD PUSH2 0x304 DUP3 DUP5 PUSH2 0xCFE JUMP JUMPDEST DUP1 PUSH2 0xD02 JUMP JUMPDEST PUSH1 0x20 DUP2 ADD PUSH2 0x304 DUP3 DUP5 PUSH2 0xD16 JUMP JUMPDEST PUSH1 0x0 DUP1 PUSH1 0x0 PUSH1 0x60 DUP5 DUP7 SUB SLT ISZERO PUSH2 0xD42 JUMPI PUSH2 0xD42 PUSH1 0x0 DUP1 REVERT JUMPDEST PUSH1 0x0 PUSH2 0xD4E DUP7 DUP7 PUSH2 0xCA5 JUMP JUMPDEST SWAP4 POP POP PUSH1 0x20 PUSH2 0xD5F DUP7 DUP3 DUP8 ADD PUSH2 0xCA5 JUMP JUMPDEST SWAP3 POP POP PUSH1 0x40 PUSH2 0xD70 DUP7 DUP3 DUP8 ADD PUSH2 0xCB6 JUMP JUMPDEST SWAP2 POP POP SWAP3 POP SWAP3 POP SWAP3 JUMP JUMPDEST PUSH1 0xFF DUP2 AND PUSH2 0xD02 JUMP JUMPDEST PUSH1 0x20 DUP2 ADD PUSH2 0x304 DUP3 DUP5 PUSH2 0xD7A JUMP JUMPDEST PUSH1 0x0 PUSH1 0x20 DUP3 DUP5 SUB SLT ISZERO PUSH2 0xDA6 JUMPI PUSH2 0xDA6 PUSH1 0x0 DUP1 REVERT JUMPDEST PUSH1 0x0 PUSH2 0xDB2 DUP5 DUP5 PUSH2 0xCA5 JUMP JUMPDEST SWAP5 SWAP4 POP POP POP POP JUMP JUMPDEST PUSH2 0xD02 DUP2 PUSH2 0xC80 JUMP JUMPDEST PUSH1 0x20 DUP2 ADD PUSH2 0x304 DUP3 DUP5 PUSH2 0xDBA JUMP JUMPDEST PUSH1 0x0 DUP1 PUSH1 0x40 DUP4 DUP6 SUB SLT ISZERO PUSH2 0xDE7 JUMPI PUSH2 0xDE7 PUSH1 0x0 DUP1 REVERT JUMPDEST PUSH1 0x0 PUSH2 0xDF3 DUP6 DUP6 PUSH2 0xCA5 JUMP JUMPDEST SWAP3 POP POP PUSH1 0x20 PUSH2 0xCF4 DUP6 DUP3 DUP7 ADD PUSH2 0xCA5 JUMP JUMPDEST PUSH4 0x4E487B71 PUSH1 0xE0 SHL PUSH1 0x0 MSTORE PUSH1 0x11 PUSH1 0x4 MSTORE PUSH1 0x24 PUSH1 0x0 REVERT JUMPDEST DUP2 DUP2 SUB DUP2 DUP2 GT ISZERO PUSH2 0x304 JUMPI PUSH2 0x304 PUSH2 0xE04 JUMP JUMPDEST PUSH1 0x0 PUSH2 0xE39 DUP3 PUSH1 0x1 SIGNEXTEND SWAP1 JUMP JUMPDEST SWAP2 POP PUSH2 0x7FFF DUP3 SUB PUSH2 0xE4C JUMPI PUSH2 0xE4C PUSH2 0xE04 JUMP JUMPDEST POP PUSH1 0x1 ADD SWAP1 JUMP JUMPDEST DUP1 DUP3 ADD DUP1 DUP3 GT ISZERO PUSH2 0x304 JUMPI PUSH2 0x304 PUSH2 0xE04 JUMP JUMPDEST PUSH1 0x0 PUSH2 0xE72 DUP3 PUSH1 0xF SIGNEXTEND SWAP1 JUMP JUMPDEST SWAP2 POP PUSH2 0xE7E DUP4 PUSH1 0xF SIGNEXTEND SWAP1 JUMP JUMPDEST SWAP3 POP DUP3 DUP3 MUL PUSH2 0xE8D DUP2 PUSH1 0xF SIGNEXTEND SWAP1 JUMP JUMPDEST SWAP2 POP DUP1 DUP3 EQ PUSH2 0xE9E JUMPI PUSH2 0xE9E PUSH2 0xE04 JUMP JUMPDEST POP SWAP3 SWAP2 POP POP JUMP JUMPDEST PUSH4 0x4E487B71 PUSH1 0xE0 SHL PUSH1 0x0 MSTORE PUSH1 0x12 PUSH1 0x4 MSTORE PUSH1 0x24 PUSH1 0x0 REVERT JUMPDEST PUSH1 0x0 PUSH2 0xEC7 DUP3 PUSH1 0xF SIGNEXTEND SWAP1 JUMP JUMPDEST SWAP2 POP PUSH2 0xED3 DUP4 PUSH1 0xF SIGNEXTEND SWAP1 JUMP JUMPDEST SWAP3 POP DUP3 PUSH2 0xEE2 JUMPI PUSH2 0xEE2 PUSH2 0xEA5 JUMP JUMPDEST PUSH1 0x1 PUSH1 0x1 PUSH1 0x7F SHL SUB NOT DUP3 EQ PUSH1 0x0 NOT DUP5 EQ AND ISZERO PUSH2 0xF00 JUMPI PUSH2 0xF00 PUSH2 0xE04 JUMP JUMPDEST POP SDIV SWAP1 JUMP JUMPDEST PUSH1 0x0 PUSH2 0xF11 DUP3 PUSH1 0xF SIGNEXTEND SWAP1 JUMP JUMPDEST SWAP2 POP PUSH2 0xF1D DUP4 PUSH1 0xF SIGNEXTEND SWAP1 JUMP JUMPDEST SWAP3 POP POP DUP2 DUP2 SUB PUSH1 0x1 PUSH1 0x1 PUSH1 0x7F SHL SUB NOT DUP2 SLT PUSH1 0x1 PUSH1 0x1 PUSH1 0x7F SHL SUB DUP3 SGT OR ISZERO PUSH2 0x304 JUMPI PUSH2 0x304 PUSH2 0xE04 JUMP JUMPDEST PUSH1 0x0 PUSH2 0xF52 DUP3 PUSH1 0xF SIGNEXTEND SWAP1 JUMP JUMPDEST SWAP2 POP PUSH2 0xF5E DUP4 PUSH1 0xF SIGNEXTEND SWAP1 JUMP JUMPDEST SWAP3 POP POP DUP1 DUP3 ADD PUSH1 0x1 PUSH1 0x1 PUSH1 0x7F SHL SUB DUP2 SGT PUSH1 0x1 PUSH1 0x1 PUSH1 0x7F SHL SUB NOT DUP3 SLT OR ISZERO PUSH2 0x304 JUMPI PUSH2 0x304 PUSH2 0xE04 JUMP JUMPDEST PUSH1 0x40 DUP2 ADD PUSH2 0xF95 DUP3 DUP6 PUSH2 0xD16 JUMP JUMPDEST PUSH2 0x56A PUSH1 0x20 DUP4 ADD DUP5 PUSH2 0xD16 JUMP JUMPDEST PUSH4 0x4E487B71 PUSH1 0xE0 SHL PUSH1 0x0 MSTORE PUSH1 0x32 PUSH1 0x4 MSTORE PUSH1 0x24 PUSH1 0x0 REVERT JUMPDEST PUSH1 0x0 PUSH2 0x304 PUSH2 0xFCD PUSH1 0x1 PUSH1 0x1 PUSH1 0x80 SHL SUB DUP5 AND DUP2 JUMP JUMPDEST SWAP1 JUMP JUMPDEST PUSH2 0xD02 DUP2 PUSH2 0xFB8 JUMP JUMPDEST PUSH1 0x20 DUP2 ADD PUSH2 0x304 DUP3 DUP5 PUSH2 0xFD0 JUMP JUMPDEST PUSH2 0xD02 DUP2 PUSH1 0xF SIGNEXTEND SWAP1 JUMP JUMPDEST PUSH1 0x40 DUP2 ADD PUSH2 0xFFF DUP3 DUP6 PUSH2 0xDBA JUMP JUMPDEST PUSH2 0x56A PUSH1 0x20 DUP4 ADD DUP5 PUSH2 0xFE7 JUMP INVALID LOG2 PUSH5 0x6970667358 0x22 SLT KECCAK256 0x2C 0xCC DUP1 PUSH8 0xCF750AC802685BEC 0xD2 CODECOPY SLT PUSH26 0x8A2ACB4BE2747030849F397831283EB164736F6C634300081600 CALLER "},"methodIdentifiers":{"allowance(address,address)":"dd62ed3e","approve(address,uint256)":"095ea7b3","balanceOf(address)":"70a08231","daoMintingStartsAfter()":"1275d2a9","decimals()":"313ce567","exchangeMintingStartsAfter()":"d20a02cf","getOwner()":"893d20e8","mint()":"1249c58b","mintToDao()":"6f01f40e","mintToExchange()":"3808721d","mintingStartsAfter()":"f8f4c343","name()":"06fdde03","setDaoAddress(address)":"9a3cac6a","setExchangeAddress(address)":"d082ea8c","symbol()":"95d89b41","totalSupply()":"18160ddd","transfer(address,uint256)":"a9059cbb","transferFrom(address,address,uint256)":"23b872dd"}}}}}