{"contracts/DexhuneExchange.sol":{"DexhuneExchange":{"abi":[{"inputs":[],"stateMutability":"nonpayable","type":"constructor"},{"inputs":[],"name":"DepositFailed","type":"error"},{"inputs":[],"name":"FailedStringToNumberConversion","type":"error"},{"inputs":[],"name":"FailedToSendReward","type":"error"},{"inputs":[],"name":"FailedToTakeOrder","type":"error"},{"inputs":[{"internalType":"uint256","name":"balance","type":"uint256"}],"name":"InsufficientBalance","type":"error"},{"inputs":[{"internalType":"uint256","name":"listingPrice","type":"uint256"}],"name":"InsufficientBalanceForListing","type":"error"},{"inputs":[],"name":"InvalidTokenContract","type":"error"},{"inputs":[{"internalType":"uint256","name":"x","type":"uint256"},{"internalType":"uint256","name":"y","type":"uint256"}],"name":"MulDiv18Overflow","type":"error"},{"inputs":[{"internalType":"uint256","name":"x","type":"uint256"},{"internalType":"uint256","name":"y","type":"uint256"},{"internalType":"uint256","name":"denominator","type":"uint256"}],"name":"MulDivOverflow","type":"error"},{"inputs":[],"name":"NoSuitableOrderFound","type":"error"},{"inputs":[],"name":"OnlyOwnerMustSetDefaultToken","type":"error"},{"inputs":[],"name":"OrderDoesNotExist","type":"error"},{"inputs":[],"name":"OrderLimitReachedTryLater","type":"error"},{"inputs":[],"name":"ParityShouldNotHavePrice","type":"error"},{"inputs":[],"name":"RejectedZeroAmount","type":"error"},{"inputs":[{"internalType":"address","name":"contractAddr","type":"address"}],"name":"TokenAlreadyExists","type":"error"},{"inputs":[],"name":"TokenLimitReached","type":"error"},{"inputs":[],"name":"TokenNotListed","type":"error"},{"inputs":[],"name":"TokenNotSupported_TooManyDecimals","type":"error"},{"inputs":[{"internalType":"address","name":"account","type":"address"}],"name":"UnauthorizedAccount","type":"error"},{"anonymous":false,"inputs":[{"indexed":false,"internalType":"uint256","name":"amount","type":"uint256"},{"indexed":false,"internalType":"address","name":"targetAddr","type":"address"}],"name":"AVAXTransferred","type":"event"},{"anonymous":false,"inputs":[{"indexed":false,"internalType":"address","name":"addr","type":"address"}],"name":"AssignedPriceDAO","type":"event"},{"anonymous":false,"inputs":[{"indexed":false,"internalType":"uint256","name":"index","type":"uint256"},{"indexed":false,"internalType":"bool","name":"orderType","type":"bool"},{"indexed":false,"internalType":"address","name":"tokenAddr","type":"address"},{"indexed":false,"internalType":"uint256","name":"amount","type":"uint256"},{"indexed":false,"internalType":"uint256","name":"price","type":"uint256"}],"name":"OrderCreated","type":"event"},{"anonymous":false,"inputs":[{"indexed":false,"internalType":"uint256","name":"index","type":"uint256"},{"indexed":false,"internalType":"bool","name":"orderType","type":"bool"},{"indexed":false,"internalType":"address","name":"maker","type":"address"}],"name":"OrderReverted","type":"event"},{"anonymous":false,"inputs":[{"indexed":false,"internalType":"uint256","name":"index","type":"uint256"},{"indexed":false,"internalType":"bool","name":"orderType","type":"bool"},{"indexed":false,"internalType":"address","name":"maker","type":"address"},{"indexed":false,"internalType":"bool","name":"isPartial","type":"bool"}],"name":"OrderSettled","type":"event"},{"anonymous":false,"inputs":[{"indexed":false,"internalType":"uint256","name":"index","type":"uint256"},{"indexed":false,"internalType":"bool","name":"orderType","type":"bool"},{"indexed":false,"internalType":"address","name":"maker","type":"address"},{"indexed":false,"internalType":"address","name":"taker","type":"address"},{"indexed":false,"internalType":"address","name":"token","type":"address"},{"indexed":false,"internalType":"uint256","name":"amount","type":"uint256"},{"indexed":false,"internalType":"bool","name":"isPartial","type":"bool"}],"name":"OrderTaken","type":"event"},{"anonymous":false,"inputs":[{"indexed":true,"internalType":"string","name":"name","type":"string"},{"indexed":true,"internalType":"string","name":"symbol","type":"string"},{"indexed":false,"internalType":"enum DexhuneExchangeBase.PricingScheme","name":"pricingScheme","type":"uint8"},{"indexed":false,"internalType":"address","name":"addr","type":"address"},{"indexed":false,"internalType":"uint256","name":"index","type":"uint256"}],"name":"TokenListed","type":"event"},{"anonymous":false,"inputs":[{"indexed":false,"internalType":"uint256","name":"amount","type":"uint256"},{"indexed":false,"internalType":"address","name":"targetAddr","type":"address"},{"indexed":false,"internalType":"address","name":"tokenAddr","type":"address"}],"name":"TokenTransferred","type":"event"},{"anonymous":false,"inputs":[{"indexed":false,"internalType":"address","name":"oldOwner","type":"address"},{"indexed":false,"internalType":"address","name":"newOwner","type":"address"}],"name":"TransferredOwnership","type":"event"},{"inputs":[{"internalType":"address","name":"addr","type":"address"}],"name":"assignPriceDAO","outputs":[],"stateMutability":"nonpayable","type":"function"},{"inputs":[],"name":"clearOrders","outputs":[],"stateMutability":"nonpayable","type":"function"},{"inputs":[{"internalType":"address","name":"tokenAddr","type":"address"}],"name":"createBuyOrder","outputs":[],"stateMutability":"payable","type":"function"},{"inputs":[{"internalType":"address","name":"tokenAddr","type":"address"},{"internalType":"uint256","name":"amount","type":"uint256"}],"name":"createSellOrder","outputs":[],"stateMutability":"nonpayable","type":"function"},{"inputs":[{"internalType":"address","name":"tokenAddr","type":"address"}],"name":"deposit","outputs":[],"stateMutability":"payable","type":"function"},{"inputs":[{"internalType":"address","name":"tokenAddr","type":"address"},{"internalType":"uint256","name":"amount","type":"uint256"}],"name":"depositToken","outputs":[],"stateMutability":"nonpayable","type":"function"},{"inputs":[{"internalType":"address","name":"tokenAddr","type":"address"},{"internalType":"address","name":"fromAddress","type":"address"},{"internalType":"uint256","name":"amount","type":"uint256"}],"name":"depositTokenFrom","outputs":[],"stateMutability":"nonpayable","type":"function"},{"inputs":[],"name":"getBalance","outputs":[{"internalType":"uint256","name":"","type":"uint256"}],"stateMutability":"view","type":"function"},{"inputs":[{"internalType":"address","name":"tokenAddr","type":"address"},{"internalType":"address","name":"parityAddr","type":"address"},{"internalType":"uint256","name":"reward","type":"uint256"},{"internalType":"uint256","name":"rewardThreshold","type":"uint256"},{"internalType":"string","name":"price","type":"string"}],"name":"listParityToken","outputs":[],"stateMutability":"nonpayable","type":"function"},{"inputs":[{"internalType":"address","name":"tokenAddr","type":"address"},{"internalType":"uint256","name":"reward","type":"uint256"},{"internalType":"uint256","name":"rewardThreshold","type":"uint256"},{"internalType":"string","name":"price","type":"string"}],"name":"listToken","outputs":[],"stateMutability":"nonpayable","type":"function"},{"inputs":[],"name":"listingCost","outputs":[{"internalType":"uint256","name":"","type":"uint256"}],"stateMutability":"view","type":"function"},{"inputs":[{"internalType":"uint256","name":"","type":"uint256"}],"name":"orders","outputs":[{"internalType":"address payable","name":"makerAddr","type":"address"},{"internalType":"address","name":"tokenAddr","type":"address"},{"internalType":"bool","name":"orderType","type":"bool"},{"internalType":"uint256","name":"created","type":"uint256"},{"internalType":"uint256","name":"rewardAmount","type":"uint256"},{"internalType":"uint256","name":"price","type":"uint256"},{"internalType":"uint256","name":"principal","type":"uint256"},{"internalType":"uint256","name":"pending","type":"uint256"}],"stateMutability":"view","type":"function"},{"inputs":[],"name":"owner","outputs":[{"internalType":"address","name":"","type":"address"}],"stateMutability":"view","type":"function"},{"inputs":[{"internalType":"address","name":"tokenAddr","type":"address"},{"internalType":"bool","name":"isAVAX","type":"bool"}],"name":"queryBalance","outputs":[{"internalType":"uint256","name":"","type":"uint256"}],"stateMutability":"view","type":"function"},{"inputs":[{"internalType":"address","name":"tokenAddr","type":"address"},{"internalType":"bool","name":"orderType","type":"bool"}],"name":"settleOrders","outputs":[],"stateMutability":"nonpayable","type":"function"},{"inputs":[{"internalType":"address","name":"tokenAddr","type":"address"},{"internalType":"uint256","name":"amount","type":"uint256"}],"name":"takeBuyOrder","outputs":[],"stateMutability":"nonpayable","type":"function"},{"inputs":[{"internalType":"address","name":"tokenAddr","type":"address"}],"name":"takeSellOrder","outputs":[],"stateMutability":"payable","type":"function"},{"inputs":[{"internalType":"address","name":"_address","type":"address"}],"name":"transferOwnership","outputs":[],"stateMutability":"nonpayable","type":"function"},{"inputs":[{"internalType":"address","name":"tokenAddr","type":"address"}],"name":"updateTokenBalance","outputs":[],"stateMutability":"nonpayable","type":"function"},{"inputs":[{"internalType":"uint256","name":"index","type":"uint256"}],"name":"viewOrder","outputs":[{"components":[{"internalType":"address payable","name":"makerAddr","type":"address"},{"internalType":"address","name":"tokenAddr","type":"address"},{"internalType":"bool","name":"orderType","type":"bool"},{"internalType":"uint256","name":"created","type":"uint256"},{"internalType":"uint256","name":"rewardAmount","type":"uint256"},{"internalType":"uint256","name":"price","type":"uint256"},{"internalType":"uint256","name":"principal","type":"uint256"},{"internalType":"uint256","name":"pending","type":"uint256"}],"internalType":"struct DexhuneExchangeBase.Order","name":"","type":"tuple"}],"stateMutability":"view","type":"function"},{"inputs":[{"internalType":"address","name":"tokenAddr","type":"address"},{"internalType":"uint256","name":"index","type":"uint256"}],"name":"viewOrderByToken","outputs":[{"components":[{"internalType":"address payable","name":"makerAddr","type":"address"},{"internalType":"address","name":"tokenAddr","type":"address"},{"internalType":"bool","name":"orderType","type":"bool"},{"internalType":"uint256","name":"created","type":"uint256"},{"internalType":"uint256","name":"rewardAmount","type":"uint256"},{"internalType":"uint256","name":"price","type":"uint256"},{"internalType":"uint256","name":"principal","type":"uint256"},{"internalType":"uint256","name":"pending","type":"uint256"}],"internalType":"struct DexhuneExchangeBase.Order","name":"","type":"tuple"}],"stateMutability":"view","type":"function"},{"inputs":[],"name":"viewPrice","outputs":[{"internalType":"uint256","name":"","type":"uint256"}],"stateMutability":"view","type":"function"},{"inputs":[{"internalType":"address","name":"tokenAddr","type":"address"}],"name":"viewToken","outputs":[{"components":[{"internalType":"uint256","name":"tokenNo","type":"uint256"},{"internalType":"string","name":"name","type":"string"},{"internalType":"string","name":"sym","type":"string"},{"internalType":"address","name":"addr","type":"address"},{"internalType":"address","name":"parityAddr","type":"address"},{"internalType":"uint256","name":"reward","type":"uint256"},{"internalType":"uint256","name":"rewardThreshold","type":"uint256"},{"internalType":"enum DexhuneExchangeBase.PricingScheme","name":"scheme","type":"uint8"},{"internalType":"uint256","name":"price","type":"uint256"},{"internalType":"uint256","name":"orders","type":"uint256"}],"internalType":"struct DexhuneExchangeBase.TokenDataModel","name":"","type":"tuple"}],"stateMutability":"view","type":"function"},{"inputs":[{"internalType":"uint256","name":"tokenNo","type":"uint256"}],"name":"viewTokenByIndex","outputs":[{"components":[{"internalType":"uint256","name":"tokenNo","type":"uint256"},{"internalType":"string","name":"name","type":"string"},{"internalType":"string","name":"sym","type":"string"},{"internalType":"address","name":"addr","type":"address"},{"internalType":"address","name":"parityAddr","type":"address"},{"internalType":"uint256","name":"reward","type":"uint256"},{"internalType":"uint256","name":"rewardThreshold","type":"uint256"},{"internalType":"enum DexhuneExchangeBase.PricingScheme","name":"scheme","type":"uint8"},{"internalType":"uint256","name":"price","type":"uint256"},{"internalType":"uint256","name":"orders","type":"uint256"}],"internalType":"struct DexhuneExchangeBase.TokenDataModel","name":"","type":"tuple"}],"stateMutability":"view","type":"function"}],"evm":{"bytecode":{"linkReferences":{},"object":"60806040526103e8600155600380546200001c9160049162000043565b503480156200002a57600080fd5b50600080546001600160a01b0319163317905562000178565b828054828255906000526020600020906007028101928215620001105760005260206000209160070282015b828111156200011057825482546001600160a01b03199081166001600160a01b039283161784556001808601805491860180549384169290941691821784555460ff600160a01b91829004161515026001600160a81b0319909216171790556002808401549083015560038084015490830155600480840154908301556005808401549083015560068084015490830155600792830192909101906200006f565b506200011e92915062000122565b5090565b5b808211156200011e5780546001600160a01b03191681556001810180546001600160a81b0319169055600060028201819055600382018190556004820181905560058201819055600682015560070162000123565b6140dc80620001886000396000f3fe60806040526004361061014b5760003560e01c80638da5cb5b116100b6578063c201e47c1161006f578063c201e47c146103b0578063d2980065146103d0578063d7dcdcec146103e3578063db34a679146103f8578063f2fde38b14610418578063f340fa011461043857600080fd5b80638da5cb5b146102e45780639351769f14610311578063a08b5bba14610326578063a262b73f14610346578063a5b6f92a14610366578063a85c38ef1461037c57600080fd5b80634d9ea07d116101085780634d9ea07d14610231578063673cf82a146102515780636daf6945146102715780637c38d6631461028457806386f179d2146102a457806387b337e8146102c457600080fd5b806312065fe0146101505780631f5d2641146101755780632e128417146101a2578063338b5dea146101c45780633b174f0f146101e45780633ef7385614610204575b600080fd5b34801561015c57600080fd5b50475b60405161016c9190613357565b60405180910390f35b34801561018157600080fd5b50610195610190366004613380565b61044b565b60405161016c919061352f565b3480156101ae57600080fd5b506101c26101bd366004613642565b610462565b005b3480156101d057600080fd5b506101c26101df3660046136d5565b610478565b3480156101f057600080fd5b5061015f6101ff366004613725565b610487565b34801561021057600080fd5b5061022461021f3660046136d5565b6104cb565b60405161016c91906137f7565b34801561023d57600080fd5b506101c261024c366004613806565b6105cd565b34801561025d57600080fd5b5061019561026c366004613885565b6105e3565b6101c261027f366004613885565b610614565b34801561029057600080fd5b5061022461029f366004613380565b610676565b3480156102b057600080fd5b506101c26102bf366004613885565b61073a565b3480156102d057600080fd5b506101c26102df366004613885565b61079f565b3480156102f057600080fd5b50600054610304906001600160a01b031681565b60405161016c91906138a6565b34801561031d57600080fd5b506101c2610841565b34801561033257600080fd5b506101c26103413660046138b4565b610aa3565b34801561035257600080fd5b506101c26103613660046136d5565b610ab3565b34801561037257600080fd5b5061015f60015481565b34801561038857600080fd5b5061039c610397366004613380565b610b7f565b60405161016c989796959493929190613904565b3480156103bc57600080fd5b506101c26103cb366004613725565b610be7565b6101c26103de366004613885565b610d86565b3480156103ef57600080fd5b50600b5461015f565b34801561040457600080fd5b506101c26104133660046136d5565b610def565b34801561042457600080fd5b506101c2610433366004613885565b610e93565b6101c2610446366004613885565b610ef9565b610453613280565b61045c82610f29565b92915050565b61047185600185858886611243565b5050505050565b610483823383611330565b5050565b600081156104ae57506001600160a01b03821660009081526008602052604090205461045c565b50506001600160a01b03166000908152600a602052604090205490565b6104d36132f6565b6001600160a01b03831660009081526006602052604090208054831061050c57604051635dcaf2d760e01b815260040160405180910390fd5b60008184815481106105205761052061397b565b906000526020600020015490506000600382815481106105425761054261397b565b6000918252602091829020604080516101008101825260079390930290910180546001600160a01b039081168452600182015490811694840194909452600160a01b90930460ff161515908201526002820154606082015260038201546080820152600482015460a0820152600582015460c082015260069091015460e08201529695505050505050565b6105dd8460008585600086611243565b50505050565b6105eb613280565b6001600160a01b03821660009081526005602052604090205461060d81610f29565b9392505050565b3460008080610623858561139d565b925090508061064557604051632050d62b60e01b815260040160405180910390fd5b600382815481106106585761065861397b565b906000526020600020906007020192506104718360008487896114e4565b61067e6132f6565b60035482106106a057604051635dcaf2d760e01b815260040160405180910390fd5b600382815481106106b3576106b361397b565b6000918252602091829020604080516101008101825260079390930290910180546001600160a01b039081168452600182015490811694840194909452600160a01b90930460ff161515908201526002820154606082015260038201546080820152600482015460a0820152600582015460c082015260069091015460e082015292915050565b61074261173a565b600d80546001600160a01b0319166001600160a01b038316179055610765611769565b7f15b49408719c001f91d2ec31b653d0929170f69ff422ef39920e9c280910115e8160405161079491906138a6565b60405180910390a150565b60006107aa82611826565b905060008161016001516001600160a01b03166370a08231306040518263ffffffff1660e01b81526004016107df91906138a6565b602060405180830381865afa1580156107fc573d6000803e3d6000fd5b505050506040513d601f19601f82011682018060405250810190610820919061399c565b6001600160a01b039093166000908152600a60205260409020929092555050565b33600090815260076020526040812080549091901515908082610865576064610868565b60325b90506000426108756132f6565b6003546108855750505050505050565b85156109b05786545b60008111801561089e5750848611155b156109a6578781815481106108b5576108b561397b565b90600052602060002001549350600384815481106108d5576108d561397b565b6000918252602091829020604080516101008101825260079390930290910180546001600160a01b039081168452600182015490811694840194909452600160a01b90930460ff1615159082015260028201546060820181905260038301546080830152600483015460a0830152600583015460c083015260069092015460e0820152925060289061096790856139d3565b1115610994576109778285611ae3565b15610994576109868882611c41565b85610990816139e6565b9650505b8061099e81613a00565b91505061088e565b5050505050505050565b6003545b6000811180156109c45750848611155b156109a657600381815481106109dc576109dc61397b565b6000918252602091829020604080516101008101825260079390930290910180546001600160a01b039081168452600182015490811694840194909452600160a01b90930460ff1615159082015260028201546060820181905260038301546080830152600483015460a0830152600583015460c083015260069092015460e08201529250602890610a6e90856139d3565b1115610a9157610a7e8285611ae3565b15610a915785610a8d816139e6565b9650505b80610a9b81613a00565b9150506109b4565b610aae838383611330565b505050565b60008111610ad4576040516342257ced60e11b815260040160405180910390fd5b6000610adf83611cc2565b600a810154909150610afb906001600160a01b03163384611d3a565b610b18576040516379cacff160e01b815260040160405180910390fd5b6001600160a01b03831660009081526009602052604081208054849290610b40908490613a1b565b90915550506001600160a01b0383166000908152600a602052604081208054849290610b6d908490613a1b565b90915550610aae905081600084611dbc565b60048181548110610b8f57600080fd5b600091825260209091206007909102018054600182015460028301546003840154600485015460058601546006909601546001600160a01b03958616975094841695600160a01b90940460ff16949293919290919088565b6000610bf283611826565b60808101516001600160a01b03166000908152600660205260408120919250808085610c36576001600160a01b038716600090815260086020526040902054610c50565b6001600160a01b0387166000908152600a60205260409020545b84549091505b600082118015610c665750600081115b15610d32576000858281548110610c7f57610c7f61397b565b9060005260206000200154905060038181548110610c9f57610c9f61397b565b906000526020600020906007020194508715158560010160149054906101000a900460ff16151514610cd15750610d20565b8715610ced57610ce38786848661246b565b9094509250610cfe565b610cf885848461256e565b90945092505b83610d095750610d20565b610d138683611c41565b610d1e60038261266a565b505b80610d2a81613a00565b915050610c56565b508515610d5d5760808501516001600160a01b03166000908152600a60205260409020819055610d7d565b60808501516001600160a01b031660009081526008602052604090208190555b50505050505050565b3480610da5576040516342257ced60e11b815260040160405180910390fd5b6000610db083611cc2565b6001600160a01b038416600090815260086020526040812080549293508492909190610ddd908490613a1b565b90915550610aae905081600184611dbc565b6000610dfa83611826565b90506000806000610e0b868661139d565b9250905080610e2d57604051632050d62b60e01b815260040160405180910390fd5b610e3d8461016001518787611d3a565b610e5a576040516379cacff160e01b815260040160405180910390fd5b60038281548110610e6d57610e6d61397b565b90600052602060002090600702019250610e8b83600184888a6114e4565b505050505050565b610e9b61173a565b600080546001600160a01b038381166001600160a01b0319831681179093556040519116917f850b3df64837d7d518b45f5aa64d104652c3b80eb5b34a8e3d9eb666cb7cdea591610eed918491613a2e565b60405180910390a15050565b6001600160a01b03811660009081526008602052604081208054349290610f21908490613a1b565b909155505050565b610f31613280565b811580610f3f575060025482115b15610f5d576040516362f850f760e11b815260040160405180910390fd5b60006002610f6c6001856139d3565b81548110610f7c57610f7c61397b565b90600052602060002090600b020160405180610180016040529081600082018054610fa690613a5f565b80601f0160208091040260200160405190810160405280929190818152602001828054610fd290613a5f565b801561101f5780601f10610ff45761010080835404028352916020019161101f565b820191906000526020600020905b81548152906001019060200180831161100257829003601f168201915b5050505050815260200160018201805461103890613a5f565b80601f016020809104026020016040519081016040528092919081815260200182805461106490613a5f565b80156110b15780601f10611086576101008083540402835291602001916110b1565b820191906000526020600020905b81548152906001019060200180831161109457829003601f168201915b5050509183525050600282015460ff90811660208301526003830154604083015260048301546001600160a01b0390811660608401526005840154908116608084015260a090920191600160a01b900416600181111561111357611113613411565b600181111561112457611124613411565b815260200160068201548152602001600782015481526020016008820154815260200160098201548152602001600a820160009054906101000a90046001600160a01b03166001600160a01b03166001600160a01b031681525050905060006006600083608001516001600160a01b03166001600160a01b03168152602001908152602001600020805490509050604051806101400160405280858152602001836000015181526020018360200151815260200183608001516001600160a01b031681526020018360a001516001600160a01b031681526020018360e00151815260200183610100015181526020018360c00151600181111561122957611229613411565b815261012090930151602084015260409092015292915050565b600254600003611278576000546001600160a01b031633146112785760405163564b352960e11b815260040160405180910390fd5b6001600160a01b038616600090815260056020526040902054869080158015906112a3575060025415155b156112cc57816040516315ef3a5760e01b81526004016112c391906138a6565b60405180910390fd5b600254620f4240116112f1576040516353bb24f960e01b815260040160405180910390fd5b60008088600181111561130657611306613411565b0361131757611314846127bb565b90505b61132583828a888b8b6127f2565b505050505050505050565b600061133b84611826565b905061134d8161016001518484611d3a565b61136a576040516379cacff160e01b815260040160405180910390fd5b6001600160a01b0384166000908152600a602052604081208054849290611392908490613a1b565b909155505050505050565b6000806113a86132f6565b6001600160a01b038516600090815260066020526040812080549091905b6000811180156113d4575081155b156114d85760008382815481106113ed576113ed61397b565b906000526020600020015490506003818154811061140d5761140d61397b565b6000918252602091829020604080516101008101825260079390930290910180546001600160a01b039081168452600182015490811694840194909452600160a01b90930460ff161515908201526002820154606082015260038201546080820152600482015460a0820152600582015460c082015260069091015460e082018190529095508890036114a657600192508095506114c5565b821580156114b85750878560e0015110155b156114c557600192508095505b50806114d081613a00565b9150506113c6565b50935050509250929050565b60006114ef82611826565b905082808661150c5761150985846040015160ff16612ca3565b91505b6003868154811061151f5761151f61397b565b60009182526020909120600790910201600481015460058201548254929a5090918482148015916001600160a01b031690611578578a1561156b576115648685612ccc565b9250611578565b6115758685612cd8565b92505b60408051610100810182528d546001600160a01b03908116825260018f01549081166020830152600160a01b900460ff1615159181019190915260028d0154606082015260038d0154608082015260048d015460a082015260058d015460c082015260068d015460e08201526115f090888886612ce4565b60008b6115fd57836115ff565b865b9050821561164157868d600601600082825461161b91906139d3565b92505081905550838d600501600082825461163691906139d3565b9091555061164c9050565b61164c60038c61266a565b60e08801516000811580159061166757508961010001518310155b905080156116e25760808a0180516001600160a01b0390811660009081526009602090815260408083205494519093168252600a905290812054906116ac83836139d3565b9050848111156116de576116c18d3387612e24565b6116de5760405163c96d18b560e01b815260040160405180910390fd5b5050505b7fd18715c1e0d5b06959a9b12a3c5d857ce3698a58f6ac5bc7726bd7df86476f408d8f86338e608001518d8b6040516117219796959493929190613acd565b60405180910390a1505050505050505050505050505050565b6000546001600160a01b0316331461176757336040516332b2baa360e01b81526004016112c391906138a6565b565b600c5415801590611787575060f0600c544261178591906139d3565b105b1561178e57565b600d5460408051634c6afee560e11b815290516000926001600160a01b0316916398d5fdca91600480830192869291908290030181865afa1580156117d7573d6000803e3d6000fd5b505050506040513d6000823e601f3d908101601f191682016040526117ff9190810190613b8d565b905060008061180d83612eed565b91509150801561181d57600b8290555b505042600c5550565b6118936040805161018081018252606080825260208201819052600092820183905281018290526080810182905260a081018290529060c082019081526020016000815260200160008152602001600081526020016000815260200160006001600160a01b031681525090565b6001600160a01b0382166000908152600560205260409020548015806118ba575060025481115b156118d8576040516362f850f760e11b815260040160405180910390fd5b60026118e56001836139d3565b815481106118f5576118f561397b565b90600052602060002090600b02016040518061018001604052908160008201805461191f90613a5f565b80601f016020809104026020016040519081016040528092919081815260200182805461194b90613a5f565b80156119985780601f1061196d57610100808354040283529160200191611998565b820191906000526020600020905b81548152906001019060200180831161197b57829003601f168201915b505050505081526020016001820180546119b190613a5f565b80601f01602080910402602001604051908101604052809291908181526020018280546119dd90613a5f565b8015611a2a5780601f106119ff57610100808354040283529160200191611a2a565b820191906000526020600020905b815481529060010190602001808311611a0d57829003601f168201915b5050509183525050600282015460ff90811660208301526003830154604083015260048301546001600160a01b0390811660608401526005840154908116608084015260a090920191600160a01b9004166001811115611a8c57611a8c613411565b6001811115611a9d57611a9d613411565b815260068201546020820152600782015460408201526008820154606082015260098201546080820152600a909101546001600160a01b031660a0909101529392505050565b600080611af38460200151611826565b9050836040015115611b5b57611b1184600001518560c0015161301f565b611b1f57600091505061045c565b60c084015160808201516001600160a01b031660009081526008602052604081208054909190611b509084906139d3565b90915550611be99050565b611b6e8185600001518660c00151612e24565b611b7c57600091505061045c565b60c084015160808201516001600160a01b031660009081526009602052604081208054909190611bad9084906139d3565b909155505060c084015160808201516001600160a01b03166000908152600a602052604081208054909190611be39084906139d3565b90915550505b7f3d8da260c5e35dcba4a38c844b979a7c70c6fdbed58be53da6e817ef6a2541e08385604001518660000151604051611c2493929190613bc8565b60405180910390a1611c3760038461266a565b5060019392505050565b8154600090611c52906001906139d3565b9050808214611c9757828181548110611c6d57611c6d61397b565b9060005260206000200154838381548110611c8a57611c8a61397b565b6000918252602090912001555b82805480611ca757611ca7613bf0565b60019003818190600052602060002001600090559055505050565b6001600160a01b038116600090815260056020526040812054801580611ce9575060025481115b15611d07576040516362f850f760e11b815260040160405180910390fd5b6002611d146001836139d3565b81548110611d2457611d2461397b565b90600052602060002090600b0201915050919050565b6040516323b872dd60e01b81526000906001600160a01b038516906323b872dd90611d6d90869030908790600401613c06565b6020604051808303816000875af1925050508015611da8575060408051601f3d908101601f19168201909252611da591810190613c39565b60015b611db45750600061060d565b949350505050565b6000806005850154600160a01b900460ff166001811115611ddf57611ddf613411565b03611e0357611dec611769565b611dfc600b548560080154612cd8565b90506121af565b60016005850154600160a01b900460ff166001811115611e2557611e25613411565b036121af576000846009015460001480611e4f575060f0856009015442611e4c91906139d3565b10155b905080156121a55760006002600081548110611e6d57611e6d61397b565b90600052602060002090600b020160405180610180016040529081600082018054611e9790613a5f565b80601f0160208091040260200160405190810160405280929190818152602001828054611ec390613a5f565b8015611f105780601f10611ee557610100808354040283529160200191611f10565b820191906000526020600020905b815481529060010190602001808311611ef357829003601f168201915b50505050508152602001600182018054611f2990613a5f565b80601f0160208091040260200160405190810160405280929190818152602001828054611f5590613a5f565b8015611fa25780601f10611f7757610100808354040283529160200191611fa2565b820191906000526020600020905b815481529060010190602001808311611f8557829003601f168201915b5050509183525050600282015460ff90811660208301526003830154604083015260048301546001600160a01b0390811660608401526005840154908116608084015260a090920191600160a01b900416600181111561200457612004613411565b600181111561201557612015613411565b81526006820154602082015260078201546040808301919091526008830154606083015260098301546080830152600a928301546001600160a01b0390811660a0909301929092529189015461016084015160058b015493516370a0823160e01b815294955090821693909260009285926370a082319261209a9216906004016138a6565b602060405180830381865afa1580156120b7573d6000803e3d6000fd5b505050506040513d601f19601f820116820180604052508101906120db919061399c565b60058a01546040516370a0823160e01b81529192506000916001600160a01b03858116926370a082319261211592909116906004016138a6565b602060405180830381865afa158015612132573d6000803e3d6000fd5b505050506040513d601f19601f82011682018060405250810190612156919061399c565b60028b015490915061216c90839060ff16612ca3565b915061217f81866040015160ff16612ca3565b905061218b8183612cd8565b60088b018190554260098c015596506121ad945050505050565b846008015491505b505b600083156121db5760028501546121d4906121ce90859060ff16612ca3565b83612cd8565b90506121fb565b60028501546121f8906121f290859060ff16612ca3565b83612ccc565b90505b60008560070154831061220f575060068501545b604080516101008101825233815260048801546001600160a01b039081166020830190815288151593830193845242606084019081526080840186815260a0850189815260c086018b815260e087018a8152600380546001818101835560008381528b5160079093027fc2575a0e9e593c00f959f8c92f12db2869c3395a3b0502d05e2516446f71f85b81018054948d166001600160a01b03199095169490941790935598517fc2575a0e9e593c00f959f8c92f12db2869c3395a3b0502d05e2516446f71f85c830180549d511515600160a01b026001600160a81b0319909e1691909b16179b909b1790985594517fc2575a0e9e593c00f959f8c92f12db2869c3395a3b0502d05e2516446f71f85d88015592517fc2575a0e9e593c00f959f8c92f12db2869c3395a3b0502d05e2516446f71f85e87015590517fc2575a0e9e593c00f959f8c92f12db2869c3395a3b0502d05e2516446f71f85f860155517fc2575a0e9e593c00f959f8c92f12db2869c3395a3b0502d05e2516446f71f860850155517fc2575a0e9e593c00f959f8c92f12db2869c3395a3b0502d05e2516446f71f861909301929092559054919290916123cc91906139d3565b3360009081526007602090815260408083208054600181810183559185528385200185905560048d0180546001600160a01b039081168652600685528386208054938401815586529390942001849055915491519293507f96d694e92c01c8197b4cf2ecb0ec03be940cc6e384cbdfb2afb329375a0be252926124599285928c929116908b908b90613c5a565b60405180910390a15050505050505050565b600080600080866006015485109050801561248857849150612490565b866006015491505b86546124a79089906001600160a01b031684612e24565b156124f6576124b682866139d3565b945080156124f157818760060160008282546124d291906139d3565b925050819055506124eb87600601548860040154612ccc565b60058801555b612504565b600085935093505050612565565b600187015487546040517fbdb78cc9b5d01bdac074df120cc9776d231060cdcdcc8c7f6c2039f67a5e626f92612555928a92600160a01b90920460ff16916001600160a01b03909116908690613ca6565b60405180910390a1159250839150505b94509492505050565b600080600080866006015486109050801561258b57859150612593565b866006015491505b86546125a8906001600160a01b03168361301f565b15612658576125b782876139d3565b955080156125f257818760060160008282546125d391906139d3565b925050819055506125ec87600601548860040154612cd8565b60058801555b600187015487546040517fbdb78cc9b5d01bdac074df120cc9776d231060cdcdcc8c7f6c2039f67a5e626f92612643928992600160a01b90920460ff16916001600160a01b03909116908690613ca6565b60405180910390a11592508491506126629050565b6000869350935050505b935093915050565b815460009061267b906001906139d3565b905080821461274f578281815481106126965761269661397b565b90600052602060002090600702018383815481106126b6576126b661397b565b60009182526020909120825460079092020180546001600160a01b03199081166001600160a01b039384161782556001808501805491840180549384169290951691821785555460ff600160a01b91829004161515026001600160a81b03199092161717909155600280830154908201556003808301549082015560048083015490820155600580830154908201556006918201549101555b8280548061275f5761275f613bf0565b60008281526020812060076000199093019283020180546001600160a01b03191681556001810180546001600160a81b031916905560028101829055600381018290556004810182905560058101829055600601559055505050565b60008060006127c984612eed565b91509150806127eb5760405163e6f7d2c760e01b815260040160405180910390fd5b5092915050565b60008690506060806000806000856001600160a01b03166370a08231306040518263ffffffff1660e01b815260040161282b91906138a6565b602060405180830381865afa925050508015612864575060408051601f3d908101601f191682019092526128619181019061399c565b60015b61288157604051630a6f7ecd60e21b815260040160405180910390fd5b809250866001600160a01b031663313ce5676040518163ffffffff1660e01b8152600401602060405180830381865afa9250505080156128de575060408051601f3d908101601f191682019092526128db91810190613cf8565b60015b6128eb57601291506128ee565b91505b601260ff831611156129135760405163432c0a5d60e01b815260040160405180910390fd5b61291f8260ff166130c5565b9350866001600160a01b03166306fdde036040518163ffffffff1660e01b8152600401600060405180830381865afa92505050801561298057506040513d6000823e601f3d908101601f1916820160405261297d9190810190613b8d565b60015b156129885795505b866001600160a01b03166395d89b416040518163ffffffff1660e01b8152600401600060405180830381865afa9250505080156129e757506040513d6000823e601f3d908101601f191682016040526129e49190810190613b8d565b60015b156129ef5794505b506001600160a01b03891615801590612a08575060008b115b15612a26576040516327bd783560e11b815260040160405180910390fd5b60006040518061018001604052808781526020018681526020018360ff1681526020018581526020018e6001600160a01b031681526020018b6001600160a01b031681526020018c6001811115612a7f57612a7f613411565b8152602081018b9052604081018a9052606081018e90526000608082018190526001600160a01b038a1660a09092019190915260028054600181018255915281519192508291600b9091027f405787fa12a823e0f2b7631cc41b3ba8828b3321ca811111fa75cd3aa3bb5ace01908190612af99082613daa565b5060208201516001820190612b0e9082613daa565b50604082015160028201805460ff191660ff9092169190911790556060820151600382015560808201516004820180546001600160a01b03199081166001600160a01b039384161790915560a084015160058401805492831691909316908117835560c085015192916001600160a81b03191617600160a01b836001811115612b9957612b99613411565b021790555060e0820151600682015561010082015160078201556101208201516008820155610140820151600982015561016090910151600a91820180546001600160a01b0319166001600160a01b0392831617905560025460808401805183166000908152600560209081526040808320949094559151909316835292835290819020859055908201519051612c309190613e8f565b60405190819003812082519091612c479190613e8f565b60405190819003812060c0840151608085015160025492937f2b9a73ecc76ebad22366f66b2436a1725cc4f39aa579663fc941863779316b1b93612c8c939291613e9b565b60405180910390a350505050505050505050505050565b600081600114612cc557612cb6826130c5565b612cc09084613ea9565b61060d565b5090919050565b600061060d83836130e6565b600061060d83836130f2565b600080600080876040015115612d04575050855183925084915033612d11565b5050855184925083915033905b612d1c878285612e24565b612d39576040516304de4e1d60e41b815260040160405180910390fd5b612d43828561301f565b612d60576040516304de4e1d60e41b815260040160405180910390fd5b60808701516001600160a01b031660009081526008602052604081208054869290612d8c9084906139d3565b909155505060808701516001600160a01b031660009081526009602052604090205483108015612de85760808801516001600160a01b031660009081526009602052604081208054869290612de29084906139d3565b90915550505b60808801516001600160a01b03166000908152600a602052604081208054869290612e149084906139d3565b9091555050505050505050505050565b61016083015160405163a9059cbb60e01b81526000916001600160a01b03169063a9059cbb90612e5a9086908690600401613ec1565b6020604051808303816000875af1925050508015612e95575060408051601f3d908101601f19168201909252612e9291810190613c39565b60015b612ea15750600061060d565b8015611db4577fa84f763be5bb36163517fb87c7af39f875a97866fdf7806eb1b3eac837ae35ea83858760800151604051612ede93929190613edc565b60405180910390a1905061060d565b60008080808481808080805b855181108015612f07575083155b15612ff457858181518110612f1e57612f1e61397b565b016020015160f81c945060308510801590612f3d575060398560ff1611155b15612fac578697508215612f5d5781612f5581613f04565b925050612f6b565b612f68600a88613ea9565b96505b612f7682600a61400f565b612f81603087614024565b60ff16612f8e9190613ea9565b612f989088613a1b565b965086881115612fa757600193505b612fe2565b8460ff16602e03612fe2578215612fc257600193505b6001925060129150612fd582600a61400f565b612fdf9088613ea9565b96505b80612fec816139e6565b915050612ef9565b508161300f5761300c670de0b6b3a764000087613ea9565b95505b5093989015975095505050505050565b600080836001600160a01b03168360405161303990614041565b60006040518083038185875af1925050503d8060008114613076576040519150601f19603f3d011682016040523d82523d6000602084013e61307b565b606091505b50509050801561060d577f0897f9f8697c0fee5acfc2c885618e98d4f0882e71e35d182faccc1915c01ecb83856040516130b692919061404c565b60405180910390a19392505050565b6000816012036130d757506001919050565b81601203600a0a90505b919050565b600061060d8383613107565b600061060d83670de0b6b3a7640000846131b7565b600080806000198486098486029250828110838203039150508060000361313b5750670de0b6b3a76400009004905061045c565b670de0b6b3a764000081106131675784846040516369e06faf60e11b81526004016112c392919061407d565b6000670de0b6b3a764000085870962040000818503049310909103600160ee1b02919091177faccb18165bd6fe31ae1cf318dc5b51eee0e1ba569b88cd74c1773b91fac106690291505092915050565b60008080600019858709858702925082811083820303915050806000036131f1578382816131e7576131e7614067565b049250505061060d565b8381106132175785858560405163362ced0960e11b81526004016112c39392919061408b565b60008486880960026001871981018816978890046003810283188082028403028082028403028082028403028082028403028082028403029081029092039091026000889003889004909101858311909403939093029303949094049190911702949350505050565b60405180610140016040528060008152602001606081526020016060815260200160006001600160a01b0316815260200160006001600160a01b031681526020016000815260200160008152602001600060018111156132e2576132e2613411565b815260200160008152602001600081525090565b60405180610100016040528060006001600160a01b0316815260200160006001600160a01b0316815260200160001515815260200160008152602001600081526020016000815260200160008152602001600081525090565b805b82525050565b6020810161045c828461334f565b805b811461337257600080fd5b50565b803561045c81613365565b60006020828403121561339557613395600080fd5b6000611db48484613375565b60005b838110156133bc5781810151838201526020016133a4565b50506000910152565b60006133cf825190565b8084526020840193506133e68185602086016133a1565b601f01601f19169290920192915050565b60006001600160a01b03821661045c565b613351816133f7565b634e487b7160e01b600052602160045260246000fd5b6002811061337257613372613411565b806130e181613427565b600061045c82613437565b61335181613441565b805160009061014084019061346a858261334f565b506020830151848203602086015261348282826133c5565b9150506040830151848203604086015261349c82826133c5565b91505060608301516134b16060860182613408565b5060808301516134c46080860182613408565b5060a08301516134d760a086018261334f565b5060c08301516134ea60c086018261334f565b5060e08301516134fd60e086018261344c565b5061010083015161351261010086018261334f565b5061012083015161352761012086018261334f565b509392505050565b6020808252810161060d8184613455565b613367816133f7565b803561045c81613540565b634e487b7160e01b600052604160045260246000fd5b601f19601f830116810181811067ffffffffffffffff8211171561359057613590613554565b6040525050565b60006135a260405190565b90506130e1828261356a565b600067ffffffffffffffff8211156135c8576135c8613554565b601f19601f83011660200192915050565b82818337506000910152565b60006135f86135f3846135ae565b613597565b90508281526020810184848401111561361357613613600080fd5b6135278482856135d9565b600082601f83011261363257613632600080fd5b8135611db48482602086016135e5565b600080600080600060a0868803121561365d5761365d600080fd5b60006136698888613549565b955050602061367a88828901613549565b945050604061368b88828901613375565b935050606061369c88828901613375565b925050608086013567ffffffffffffffff8111156136bc576136bc600080fd5b6136c88882890161361e565b9150509295509295909350565b600080604083850312156136eb576136eb600080fd5b60006136f78585613549565b925050602061370885828601613375565b9150509250929050565b801515613367565b803561045c81613712565b6000806040838503121561373b5761373b600080fd5b60006137478585613549565b92505060206137088582860161371a565b801515613351565b80516101008301906137728482613408565b5060208201516137856020850182613408565b5060408201516137986040850182613758565b5060608201516137ab606085018261334f565b5060808201516137be608085018261334f565b5060a08201516137d160a085018261334f565b5060c08201516137e460c085018261334f565b5060e08201516105dd60e085018261334f565b610100810161045c8284613760565b6000806000806080858703121561381f5761381f600080fd5b600061382b8787613549565b945050602061383c87828801613375565b935050604061384d87828801613375565b925050606085013567ffffffffffffffff81111561386d5761386d600080fd5b6138798782880161361e565b91505092959194509250565b60006020828403121561389a5761389a600080fd5b6000611db48484613549565b6020810161045c8284613408565b6000806000606084860312156138cc576138cc600080fd5b60006138d88686613549565b93505060206138e986828701613549565b92505060406138fa86828701613375565b9150509250925092565b6101008101613913828b613408565b613920602083018a613408565b61392d6040830189613758565b61393a606083018861334f565b613947608083018761334f565b61395460a083018661334f565b61396160c083018561334f565b61396e60e083018461334f565b9998505050505050505050565b634e487b7160e01b600052603260045260246000fd5b805161045c81613365565b6000602082840312156139b1576139b1600080fd5b6000611db48484613991565b634e487b7160e01b600052601160045260246000fd5b8181038181111561045c5761045c6139bd565b600060001982036139f9576139f96139bd565b5060010190565b6000815b915081613a1357613a136139bd565b506000190190565b8082018082111561045c5761045c6139bd565b60408101613a3c8285613408565b61060d6020830184613408565b634e487b7160e01b600052602260045260246000fd5b600281046001821680613a7357607f821691505b602082108103613a8557613a85613a49565b50919050565b600061045c6001600160a01b038316613aa2565b90565b6001600160a01b031690565b600061045c82613a8b565b600061045c82613aae565b61335181613ab9565b60e08101613adb828a61334f565b613ae86020830189613758565b613af56040830188613ac4565b613b026060830187613408565b613b0f6080830186613408565b613b1c60a083018561334f565b613b2960c0830184613758565b98975050505050505050565b6000613b436135f3846135ae565b905082815260208101848484011115613b5e57613b5e600080fd5b6135278482856133a1565b600082601f830112613b7d57613b7d600080fd5b8151611db4848260208601613b35565b600060208284031215613ba257613ba2600080fd5b815167ffffffffffffffff811115613bbc57613bbc600080fd5b611db484828501613b69565b60608101613bd6828661334f565b613be36020830185613758565b611db46040830184613ac4565b634e487b7160e01b600052603160045260246000fd5b60608101613c148286613408565b613c216020830185613408565b611db4604083018461334f565b805161045c81613712565b600060208284031215613c4e57613c4e600080fd5b6000611db48484613c2e565b60a08101613c68828861334f565b613c756020830187613758565b613c826040830186613408565b613c8f606083018561334f565b613c9c608083018461334f565b9695505050505050565b60808101613cb4828761334f565b613cc16020830186613758565b613cce6040830185613ac4565b613cdb6060830184613758565b95945050505050565b60ff8116613367565b805161045c81613ce4565b600060208284031215613d0d57613d0d600080fd5b6000611db48484613ced565b600061045c613a9f8381565b613d2e83613d19565b815460001960089490940293841b1916921b91909117905550565b6000610aae818484613d25565b8181101561048357613d69600082613d49565b600101613d56565b601f821115610aae576000818152602090206020601f85010481016020851015613d985750805b6104716020601f860104830182613d56565b815167ffffffffffffffff811115613dc457613dc4613554565b613dce8254613a5f565b613dd9828285613d71565b6020601f831160018114613e0d5760008415613df55750858201515b600019600886021c1981166002860217865550610e8b565b600085815260208120601f198616915b82811015613e3d5788850151825560209485019460019092019101613e1d565b86831015613e595784890151600019601f89166008021c191682555b600160028802018855505050505050505050565b6000613e77825190565b613e858185602086016133a1565b9290920192915050565b600061060d8284613e6d565b60608101613c14828661344c565b8181028082158382048514176127eb576127eb6139bd565b60408101613ecf8285613408565b61060d602083018461334f565b60608101613eea828661334f565b613ef76020830185613408565b611db46040830184613408565b600060ff8216613a04565b80825b600185111561256557808604811115613f2d57613f2d6139bd565b6001851615613f3b57908102905b8002613f478560011c90565b9450613f12565b600082613f5d5750600161060d565b81613f6a5750600061060d565b8160018114613f805760028114613f8a57613fb7565b600191505061060d565b60ff841115613f9b57613f9b6139bd565b8360020a915084821115613fb157613fb16139bd565b5061060d565b5060208310610133831016604e8410600b8410161715613fe5575081810a83811115612cc057612cc06139bd565b613ff28484846001613f0f565b92509050818404811115614008576140086139bd565b0292915050565b600060ff8316925061060d6000198484613f4e565b60ff91821691908116908282039081111561045c5761045c6139bd565b600061045c82613a9f565b6040810161405a828561334f565b61060d6020830184613ac4565b634e487b7160e01b600052601260045260246000fd5b60408101613ecf828561334f565b60608101614099828661334f565b613c21602083018561334f56fea26469706673582212209e610f7adfb2a342ce45ce5503f9b0291f8d4472f8dbe158b07efc5e96c56b4864736f6c63430008160033","opcodes":"PUSH1 0x80 PUSH1 0x40 MSTORE PUSH2 0x3E8 PUSH1 0x1 SSTORE PUSH1 0x3 DUP1 SLOAD PUSH3 0x1C SWAP2 PUSH1 0x4 SWAP2 PUSH3 0x43 JUMP JUMPDEST POP CALLVALUE DUP1 ISZERO PUSH3 0x2A JUMPI PUSH1 0x0 DUP1 REVERT JUMPDEST POP PUSH1 0x0 DUP1 SLOAD PUSH1 0x1 PUSH1 0x1 PUSH1 0xA0 SHL SUB NOT AND CALLER OR SWAP1 SSTORE PUSH3 0x178 JUMP JUMPDEST DUP3 DUP1 SLOAD DUP3 DUP3 SSTORE SWAP1 PUSH1 0x0 MSTORE PUSH1 0x20 PUSH1 0x0 KECCAK256 SWAP1 PUSH1 0x7 MUL DUP2 ADD SWAP3 DUP3 ISZERO PUSH3 0x110 JUMPI PUSH1 0x0 MSTORE PUSH1 0x20 PUSH1 0x0 KECCAK256 SWAP2 PUSH1 0x7 MUL DUP3 ADD JUMPDEST DUP3 DUP2 GT ISZERO PUSH3 0x110 JUMPI DUP3 SLOAD DUP3 SLOAD PUSH1 0x1 PUSH1 0x1 PUSH1 0xA0 SHL SUB NOT SWAP1 DUP2 AND PUSH1 0x1 PUSH1 0x1 PUSH1 0xA0 SHL SUB SWAP3 DUP4 AND OR DUP5 SSTORE PUSH1 0x1 DUP1 DUP7 ADD DUP1 SLOAD SWAP2 DUP7 ADD DUP1 SLOAD SWAP4 DUP5 AND SWAP3 SWAP1 SWAP5 AND SWAP2 DUP3 OR DUP5 SSTORE SLOAD PUSH1 0xFF PUSH1 0x1 PUSH1 0xA0 SHL SWAP2 DUP3 SWAP1 DIV AND ISZERO ISZERO MUL PUSH1 0x1 PUSH1 0x1 PUSH1 0xA8 SHL SUB NOT SWAP1 SWAP3 AND OR OR SWAP1 SSTORE PUSH1 0x2 DUP1 DUP5 ADD SLOAD SWAP1 DUP4 ADD SSTORE PUSH1 0x3 DUP1 DUP5 ADD SLOAD SWAP1 DUP4 ADD SSTORE PUSH1 0x4 DUP1 DUP5 ADD SLOAD SWAP1 DUP4 ADD SSTORE PUSH1 0x5 DUP1 DUP5 ADD SLOAD SWAP1 DUP4 ADD SSTORE PUSH1 0x6 DUP1 DUP5 ADD SLOAD SWAP1 DUP4 ADD SSTORE PUSH1 0x7 SWAP3 DUP4 ADD SWAP3 SWAP1 SWAP2 ADD SWAP1 PUSH3 0x6F JUMP JUMPDEST POP PUSH3 0x11E SWAP3 SWAP2 POP PUSH3 0x122 JUMP JUMPDEST POP SWAP1 JUMP JUMPDEST JUMPDEST DUP1 DUP3 GT ISZERO PUSH3 0x11E JUMPI DUP1 SLOAD PUSH1 0x1 PUSH1 0x1 PUSH1 0xA0 SHL SUB NOT AND DUP2 SSTORE PUSH1 0x1 DUP2 ADD DUP1 SLOAD PUSH1 0x1 PUSH1 0x1 PUSH1 0xA8 SHL SUB NOT AND SWAP1 SSTORE PUSH1 0x0 PUSH1 0x2 DUP3 ADD DUP2 SWAP1 SSTORE PUSH1 0x3 DUP3 ADD DUP2 SWAP1 SSTORE PUSH1 0x4 DUP3 ADD DUP2 SWAP1 SSTORE PUSH1 0x5 DUP3 ADD DUP2 SWAP1 SSTORE PUSH1 0x6 DUP3 ADD SSTORE PUSH1 0x7 ADD PUSH3 0x123 JUMP JUMPDEST PUSH2 0x40DC DUP1 PUSH3 0x188 PUSH1 0x0 CODECOPY PUSH1 0x0 RETURN INVALID PUSH1 0x80 PUSH1 0x40 MSTORE PUSH1 0x4 CALLDATASIZE LT PUSH2 0x14B JUMPI PUSH1 0x0 CALLDATALOAD PUSH1 0xE0 SHR DUP1 PUSH4 0x8DA5CB5B GT PUSH2 0xB6 JUMPI DUP1 PUSH4 0xC201E47C GT PUSH2 0x6F JUMPI DUP1 PUSH4 0xC201E47C EQ PUSH2 0x3B0 JUMPI DUP1 PUSH4 0xD2980065 EQ PUSH2 0x3D0 JUMPI DUP1 PUSH4 0xD7DCDCEC EQ PUSH2 0x3E3 JUMPI DUP1 PUSH4 0xDB34A679 EQ PUSH2 0x3F8 JUMPI DUP1 PUSH4 0xF2FDE38B EQ PUSH2 0x418 JUMPI DUP1 PUSH4 0xF340FA01 EQ PUSH2 0x438 JUMPI PUSH1 0x0 DUP1 REVERT JUMPDEST DUP1 PUSH4 0x8DA5CB5B EQ PUSH2 0x2E4 JUMPI DUP1 PUSH4 0x9351769F EQ PUSH2 0x311 JUMPI DUP1 PUSH4 0xA08B5BBA EQ PUSH2 0x326 JUMPI DUP1 PUSH4 0xA262B73F EQ PUSH2 0x346 JUMPI DUP1 PUSH4 0xA5B6F92A EQ PUSH2 0x366 JUMPI DUP1 PUSH4 0xA85C38EF EQ PUSH2 0x37C JUMPI PUSH1 0x0 DUP1 REVERT JUMPDEST DUP1 PUSH4 0x4D9EA07D GT PUSH2 0x108 JUMPI DUP1 PUSH4 0x4D9EA07D EQ PUSH2 0x231 JUMPI DUP1 PUSH4 0x673CF82A EQ PUSH2 0x251 JUMPI DUP1 PUSH4 0x6DAF6945 EQ PUSH2 0x271 JUMPI DUP1 PUSH4 0x7C38D663 EQ PUSH2 0x284 JUMPI DUP1 PUSH4 0x86F179D2 EQ PUSH2 0x2A4 JUMPI DUP1 PUSH4 0x87B337E8 EQ PUSH2 0x2C4 JUMPI PUSH1 0x0 DUP1 REVERT JUMPDEST DUP1 PUSH4 0x12065FE0 EQ PUSH2 0x150 JUMPI DUP1 PUSH4 0x1F5D2641 EQ PUSH2 0x175 JUMPI DUP1 PUSH4 0x2E128417 EQ PUSH2 0x1A2 JUMPI DUP1 PUSH4 0x338B5DEA EQ PUSH2 0x1C4 JUMPI DUP1 PUSH4 0x3B174F0F EQ PUSH2 0x1E4 JUMPI DUP1 PUSH4 0x3EF73856 EQ PUSH2 0x204 JUMPI JUMPDEST PUSH1 0x0 DUP1 REVERT JUMPDEST CALLVALUE DUP1 ISZERO PUSH2 0x15C JUMPI PUSH1 0x0 DUP1 REVERT JUMPDEST POP SELFBALANCE JUMPDEST PUSH1 0x40 MLOAD PUSH2 0x16C SWAP2 SWAP1 PUSH2 0x3357 JUMP JUMPDEST PUSH1 0x40 MLOAD DUP1 SWAP2 SUB SWAP1 RETURN JUMPDEST CALLVALUE DUP1 ISZERO PUSH2 0x181 JUMPI PUSH1 0x0 DUP1 REVERT JUMPDEST POP PUSH2 0x195 PUSH2 0x190 CALLDATASIZE PUSH1 0x4 PUSH2 0x3380 JUMP JUMPDEST PUSH2 0x44B JUMP JUMPDEST PUSH1 0x40 MLOAD PUSH2 0x16C SWAP2 SWAP1 PUSH2 0x352F JUMP JUMPDEST CALLVALUE DUP1 ISZERO PUSH2 0x1AE JUMPI PUSH1 0x0 DUP1 REVERT JUMPDEST POP PUSH2 0x1C2 PUSH2 0x1BD CALLDATASIZE PUSH1 0x4 PUSH2 0x3642 JUMP JUMPDEST PUSH2 0x462 JUMP JUMPDEST STOP JUMPDEST CALLVALUE DUP1 ISZERO PUSH2 0x1D0 JUMPI PUSH1 0x0 DUP1 REVERT JUMPDEST POP PUSH2 0x1C2 PUSH2 0x1DF CALLDATASIZE PUSH1 0x4 PUSH2 0x36D5 JUMP JUMPDEST PUSH2 0x478 JUMP JUMPDEST CALLVALUE DUP1 ISZERO PUSH2 0x1F0 JUMPI PUSH1 0x0 DUP1 REVERT JUMPDEST POP PUSH2 0x15F PUSH2 0x1FF CALLDATASIZE PUSH1 0x4 PUSH2 0x3725 JUMP JUMPDEST PUSH2 0x487 JUMP JUMPDEST CALLVALUE DUP1 ISZERO PUSH2 0x210 JUMPI PUSH1 0x0 DUP1 REVERT JUMPDEST POP PUSH2 0x224 PUSH2 0x21F CALLDATASIZE PUSH1 0x4 PUSH2 0x36D5 JUMP JUMPDEST PUSH2 0x4CB JUMP JUMPDEST PUSH1 0x40 MLOAD PUSH2 0x16C SWAP2 SWAP1 PUSH2 0x37F7 JUMP JUMPDEST CALLVALUE DUP1 ISZERO PUSH2 0x23D JUMPI PUSH1 0x0 DUP1 REVERT JUMPDEST POP PUSH2 0x1C2 PUSH2 0x24C CALLDATASIZE PUSH1 0x4 PUSH2 0x3806 JUMP JUMPDEST PUSH2 0x5CD JUMP JUMPDEST CALLVALUE DUP1 ISZERO PUSH2 0x25D JUMPI PUSH1 0x0 DUP1 REVERT JUMPDEST POP PUSH2 0x195 PUSH2 0x26C CALLDATASIZE PUSH1 0x4 PUSH2 0x3885 JUMP JUMPDEST PUSH2 0x5E3 JUMP JUMPDEST PUSH2 0x1C2 PUSH2 0x27F CALLDATASIZE PUSH1 0x4 PUSH2 0x3885 JUMP JUMPDEST PUSH2 0x614 JUMP JUMPDEST CALLVALUE DUP1 ISZERO PUSH2 0x290 JUMPI PUSH1 0x0 DUP1 REVERT JUMPDEST POP PUSH2 0x224 PUSH2 0x29F CALLDATASIZE PUSH1 0x4 PUSH2 0x3380 JUMP JUMPDEST PUSH2 0x676 JUMP JUMPDEST CALLVALUE DUP1 ISZERO PUSH2 0x2B0 JUMPI PUSH1 0x0 DUP1 REVERT JUMPDEST POP PUSH2 0x1C2 PUSH2 0x2BF CALLDATASIZE PUSH1 0x4 PUSH2 0x3885 JUMP JUMPDEST PUSH2 0x73A JUMP JUMPDEST CALLVALUE DUP1 ISZERO PUSH2 0x2D0 JUMPI PUSH1 0x0 DUP1 REVERT JUMPDEST POP PUSH2 0x1C2 PUSH2 0x2DF CALLDATASIZE PUSH1 0x4 PUSH2 0x3885 JUMP JUMPDEST PUSH2 0x79F JUMP JUMPDEST CALLVALUE DUP1 ISZERO PUSH2 0x2F0 JUMPI PUSH1 0x0 DUP1 REVERT JUMPDEST POP PUSH1 0x0 SLOAD PUSH2 0x304 SWAP1 PUSH1 0x1 PUSH1 0x1 PUSH1 0xA0 SHL SUB AND DUP2 JUMP JUMPDEST PUSH1 0x40 MLOAD PUSH2 0x16C SWAP2 SWAP1 PUSH2 0x38A6 JUMP JUMPDEST CALLVALUE DUP1 ISZERO PUSH2 0x31D JUMPI PUSH1 0x0 DUP1 REVERT JUMPDEST POP PUSH2 0x1C2 PUSH2 0x841 JUMP JUMPDEST CALLVALUE DUP1 ISZERO PUSH2 0x332 JUMPI PUSH1 0x0 DUP1 REVERT JUMPDEST POP PUSH2 0x1C2 PUSH2 0x341 CALLDATASIZE PUSH1 0x4 PUSH2 0x38B4 JUMP JUMPDEST PUSH2 0xAA3 JUMP JUMPDEST CALLVALUE DUP1 ISZERO PUSH2 0x352 JUMPI PUSH1 0x0 DUP1 REVERT JUMPDEST POP PUSH2 0x1C2 PUSH2 0x361 CALLDATASIZE PUSH1 0x4 PUSH2 0x36D5 JUMP JUMPDEST PUSH2 0xAB3 JUMP JUMPDEST CALLVALUE DUP1 ISZERO PUSH2 0x372 JUMPI PUSH1 0x0 DUP1 REVERT JUMPDEST POP PUSH2 0x15F PUSH1 0x1 SLOAD DUP2 JUMP JUMPDEST CALLVALUE DUP1 ISZERO PUSH2 0x388 JUMPI PUSH1 0x0 DUP1 REVERT JUMPDEST POP PUSH2 0x39C PUSH2 0x397 CALLDATASIZE PUSH1 0x4 PUSH2 0x3380 JUMP JUMPDEST PUSH2 0xB7F JUMP JUMPDEST PUSH1 0x40 MLOAD PUSH2 0x16C SWAP9 SWAP8 SWAP7 SWAP6 SWAP5 SWAP4 SWAP3 SWAP2 SWAP1 PUSH2 0x3904 JUMP JUMPDEST CALLVALUE DUP1 ISZERO PUSH2 0x3BC JUMPI PUSH1 0x0 DUP1 REVERT JUMPDEST POP PUSH2 0x1C2 PUSH2 0x3CB CALLDATASIZE PUSH1 0x4 PUSH2 0x3725 JUMP JUMPDEST PUSH2 0xBE7 JUMP JUMPDEST PUSH2 0x1C2 PUSH2 0x3DE CALLDATASIZE PUSH1 0x4 PUSH2 0x3885 JUMP JUMPDEST PUSH2 0xD86 JUMP JUMPDEST CALLVALUE DUP1 ISZERO PUSH2 0x3EF JUMPI PUSH1 0x0 DUP1 REVERT JUMPDEST POP PUSH1 0xB SLOAD PUSH2 0x15F JUMP JUMPDEST CALLVALUE DUP1 ISZERO PUSH2 0x404 JUMPI PUSH1 0x0 DUP1 REVERT JUMPDEST POP PUSH2 0x1C2 PUSH2 0x413 CALLDATASIZE PUSH1 0x4 PUSH2 0x36D5 JUMP JUMPDEST PUSH2 0xDEF JUMP JUMPDEST CALLVALUE DUP1 ISZERO PUSH2 0x424 JUMPI PUSH1 0x0 DUP1 REVERT JUMPDEST POP PUSH2 0x1C2 PUSH2 0x433 CALLDATASIZE PUSH1 0x4 PUSH2 0x3885 JUMP JUMPDEST PUSH2 0xE93 JUMP JUMPDEST PUSH2 0x1C2 PUSH2 0x446 CALLDATASIZE PUSH1 0x4 PUSH2 0x3885 JUMP JUMPDEST PUSH2 0xEF9 JUMP JUMPDEST PUSH2 0x453 PUSH2 0x3280 JUMP JUMPDEST PUSH2 0x45C DUP3 PUSH2 0xF29 JUMP JUMPDEST SWAP3 SWAP2 POP POP JUMP JUMPDEST PUSH2 0x471 DUP6 PUSH1 0x1 DUP6 DUP6 DUP9 DUP7 PUSH2 0x1243 JUMP JUMPDEST POP POP POP POP POP JUMP JUMPDEST PUSH2 0x483 DUP3 CALLER DUP4 PUSH2 0x1330 JUMP JUMPDEST POP POP JUMP JUMPDEST PUSH1 0x0 DUP2 ISZERO PUSH2 0x4AE JUMPI POP PUSH1 0x1 PUSH1 0x1 PUSH1 0xA0 SHL SUB DUP3 AND PUSH1 0x0 SWAP1 DUP2 MSTORE PUSH1 0x8 PUSH1 0x20 MSTORE PUSH1 0x40 SWAP1 KECCAK256 SLOAD PUSH2 0x45C JUMP JUMPDEST POP POP PUSH1 0x1 PUSH1 0x1 PUSH1 0xA0 SHL SUB AND PUSH1 0x0 SWAP1 DUP2 MSTORE PUSH1 0xA PUSH1 0x20 MSTORE PUSH1 0x40 SWAP1 KECCAK256 SLOAD SWAP1 JUMP JUMPDEST PUSH2 0x4D3 PUSH2 0x32F6 JUMP JUMPDEST PUSH1 0x1 PUSH1 0x1 PUSH1 0xA0 SHL SUB DUP4 AND PUSH1 0x0 SWAP1 DUP2 MSTORE PUSH1 0x6 PUSH1 0x20 MSTORE PUSH1 0x40 SWAP1 KECCAK256 DUP1 SLOAD DUP4 LT PUSH2 0x50C JUMPI PUSH1 0x40 MLOAD PUSH4 0x5DCAF2D7 PUSH1 0xE0 SHL DUP2 MSTORE PUSH1 0x4 ADD PUSH1 0x40 MLOAD DUP1 SWAP2 SUB SWAP1 REVERT JUMPDEST PUSH1 0x0 DUP2 DUP5 DUP2 SLOAD DUP2 LT PUSH2 0x520 JUMPI PUSH2 0x520 PUSH2 0x397B JUMP JUMPDEST SWAP1 PUSH1 0x0 MSTORE PUSH1 0x20 PUSH1 0x0 KECCAK256 ADD SLOAD SWAP1 POP PUSH1 0x0 PUSH1 0x3 DUP3 DUP2 SLOAD DUP2 LT PUSH2 0x542 JUMPI PUSH2 0x542 PUSH2 0x397B JUMP JUMPDEST PUSH1 0x0 SWAP2 DUP3 MSTORE PUSH1 0x20 SWAP2 DUP3 SWAP1 KECCAK256 PUSH1 0x40 DUP1 MLOAD PUSH2 0x100 DUP2 ADD DUP3 MSTORE PUSH1 0x7 SWAP4 SWAP1 SWAP4 MUL SWAP1 SWAP2 ADD DUP1 SLOAD PUSH1 0x1 PUSH1 0x1 PUSH1 0xA0 SHL SUB SWAP1 DUP2 AND DUP5 MSTORE PUSH1 0x1 DUP3 ADD SLOAD SWAP1 DUP2 AND SWAP5 DUP5 ADD SWAP5 SWAP1 SWAP5 MSTORE PUSH1 0x1 PUSH1 0xA0 SHL SWAP1 SWAP4 DIV PUSH1 0xFF AND ISZERO ISZERO SWAP1 DUP3 ADD MSTORE PUSH1 0x2 DUP3 ADD SLOAD PUSH1 0x60 DUP3 ADD MSTORE PUSH1 0x3 DUP3 ADD SLOAD PUSH1 0x80 DUP3 ADD MSTORE PUSH1 0x4 DUP3 ADD SLOAD PUSH1 0xA0 DUP3 ADD MSTORE PUSH1 0x5 DUP3 ADD SLOAD PUSH1 0xC0 DUP3 ADD MSTORE PUSH1 0x6 SWAP1 SWAP2 ADD SLOAD PUSH1 0xE0 DUP3 ADD MSTORE SWAP7 SWAP6 POP POP POP POP POP POP JUMP JUMPDEST PUSH2 0x5DD DUP5 PUSH1 0x0 DUP6 DUP6 PUSH1 0x0 DUP7 PUSH2 0x1243 JUMP JUMPDEST POP POP POP POP JUMP JUMPDEST PUSH2 0x5EB PUSH2 0x3280 JUMP JUMPDEST PUSH1 0x1 PUSH1 0x1 PUSH1 0xA0 SHL SUB DUP3 AND PUSH1 0x0 SWAP1 DUP2 MSTORE PUSH1 0x5 PUSH1 0x20 MSTORE PUSH1 0x40 SWAP1 KECCAK256 SLOAD PUSH2 0x60D DUP2 PUSH2 0xF29 JUMP JUMPDEST SWAP4 SWAP3 POP POP POP JUMP JUMPDEST CALLVALUE PUSH1 0x0 DUP1 DUP1 PUSH2 0x623 DUP6 DUP6 PUSH2 0x139D JUMP JUMPDEST SWAP3 POP SWAP1 POP DUP1 PUSH2 0x645 JUMPI PUSH1 0x40 MLOAD PUSH4 0x2050D62B PUSH1 0xE0 SHL DUP2 MSTORE PUSH1 0x4 ADD PUSH1 0x40 MLOAD DUP1 SWAP2 SUB SWAP1 REVERT JUMPDEST PUSH1 0x3 DUP3 DUP2 SLOAD DUP2 LT PUSH2 0x658 JUMPI PUSH2 0x658 PUSH2 0x397B JUMP JUMPDEST SWAP1 PUSH1 0x0 MSTORE PUSH1 0x20 PUSH1 0x0 KECCAK256 SWAP1 PUSH1 0x7 MUL ADD SWAP3 POP PUSH2 0x471 DUP4 PUSH1 0x0 DUP5 DUP8 DUP10 PUSH2 0x14E4 JUMP JUMPDEST PUSH2 0x67E PUSH2 0x32F6 JUMP JUMPDEST PUSH1 0x3 SLOAD DUP3 LT PUSH2 0x6A0 JUMPI PUSH1 0x40 MLOAD PUSH4 0x5DCAF2D7 PUSH1 0xE0 SHL DUP2 MSTORE PUSH1 0x4 ADD PUSH1 0x40 MLOAD DUP1 SWAP2 SUB SWAP1 REVERT JUMPDEST PUSH1 0x3 DUP3 DUP2 SLOAD DUP2 LT PUSH2 0x6B3 JUMPI PUSH2 0x6B3 PUSH2 0x397B JUMP JUMPDEST PUSH1 0x0 SWAP2 DUP3 MSTORE PUSH1 0x20 SWAP2 DUP3 SWAP1 KECCAK256 PUSH1 0x40 DUP1 MLOAD PUSH2 0x100 DUP2 ADD DUP3 MSTORE PUSH1 0x7 SWAP4 SWAP1 SWAP4 MUL SWAP1 SWAP2 ADD DUP1 SLOAD PUSH1 0x1 PUSH1 0x1 PUSH1 0xA0 SHL SUB SWAP1 DUP2 AND DUP5 MSTORE PUSH1 0x1 DUP3 ADD SLOAD SWAP1 DUP2 AND SWAP5 DUP5 ADD SWAP5 SWAP1 SWAP5 MSTORE PUSH1 0x1 PUSH1 0xA0 SHL SWAP1 SWAP4 DIV PUSH1 0xFF AND ISZERO ISZERO SWAP1 DUP3 ADD MSTORE PUSH1 0x2 DUP3 ADD SLOAD PUSH1 0x60 DUP3 ADD MSTORE PUSH1 0x3 DUP3 ADD SLOAD PUSH1 0x80 DUP3 ADD MSTORE PUSH1 0x4 DUP3 ADD SLOAD PUSH1 0xA0 DUP3 ADD MSTORE PUSH1 0x5 DUP3 ADD SLOAD PUSH1 0xC0 DUP3 ADD MSTORE PUSH1 0x6 SWAP1 SWAP2 ADD SLOAD PUSH1 0xE0 DUP3 ADD MSTORE SWAP3 SWAP2 POP POP JUMP JUMPDEST PUSH2 0x742 PUSH2 0x173A JUMP JUMPDEST PUSH1 0xD DUP1 SLOAD PUSH1 0x1 PUSH1 0x1 PUSH1 0xA0 SHL SUB NOT AND PUSH1 0x1 PUSH1 0x1 PUSH1 0xA0 SHL SUB DUP4 AND OR SWAP1 SSTORE PUSH2 0x765 PUSH2 0x1769 JUMP JUMPDEST PUSH32 0x15B49408719C001F91D2EC31B653D0929170F69FF422EF39920E9C280910115E DUP2 PUSH1 0x40 MLOAD PUSH2 0x794 SWAP2 SWAP1 PUSH2 0x38A6 JUMP JUMPDEST PUSH1 0x40 MLOAD DUP1 SWAP2 SUB SWAP1 LOG1 POP JUMP JUMPDEST PUSH1 0x0 PUSH2 0x7AA DUP3 PUSH2 0x1826 JUMP JUMPDEST SWAP1 POP PUSH1 0x0 DUP2 PUSH2 0x160 ADD MLOAD PUSH1 0x1 PUSH1 0x1 PUSH1 0xA0 SHL SUB AND PUSH4 0x70A08231 ADDRESS PUSH1 0x40 MLOAD DUP3 PUSH4 0xFFFFFFFF AND PUSH1 0xE0 SHL DUP2 MSTORE PUSH1 0x4 ADD PUSH2 0x7DF SWAP2 SWAP1 PUSH2 0x38A6 JUMP JUMPDEST PUSH1 0x20 PUSH1 0x40 MLOAD DUP1 DUP4 SUB DUP2 DUP7 GAS STATICCALL ISZERO DUP1 ISZERO PUSH2 0x7FC JUMPI RETURNDATASIZE PUSH1 0x0 DUP1 RETURNDATACOPY RETURNDATASIZE PUSH1 0x0 REVERT JUMPDEST POP POP POP POP PUSH1 0x40 MLOAD RETURNDATASIZE PUSH1 0x1F NOT PUSH1 0x1F DUP3 ADD AND DUP3 ADD DUP1 PUSH1 0x40 MSTORE POP DUP2 ADD SWAP1 PUSH2 0x820 SWAP2 SWAP1 PUSH2 0x399C JUMP JUMPDEST PUSH1 0x1 PUSH1 0x1 PUSH1 0xA0 SHL SUB SWAP1 SWAP4 AND PUSH1 0x0 SWAP1 DUP2 MSTORE PUSH1 0xA PUSH1 0x20 MSTORE PUSH1 0x40 SWAP1 KECCAK256 SWAP3 SWAP1 SWAP3 SSTORE POP POP JUMP JUMPDEST CALLER PUSH1 0x0 SWAP1 DUP2 MSTORE PUSH1 0x7 PUSH1 0x20 MSTORE PUSH1 0x40 DUP2 KECCAK256 DUP1 SLOAD SWAP1 SWAP2 SWAP1 ISZERO ISZERO SWAP1 DUP1 DUP3 PUSH2 0x865 JUMPI PUSH1 0x64 PUSH2 0x868 JUMP JUMPDEST PUSH1 0x32 JUMPDEST SWAP1 POP PUSH1 0x0 TIMESTAMP PUSH2 0x875 PUSH2 0x32F6 JUMP JUMPDEST PUSH1 0x3 SLOAD PUSH2 0x885 JUMPI POP POP POP POP POP POP POP JUMP JUMPDEST DUP6 ISZERO PUSH2 0x9B0 JUMPI DUP7 SLOAD JUMPDEST PUSH1 0x0 DUP2 GT DUP1 ISZERO PUSH2 0x89E JUMPI POP DUP5 DUP7 GT ISZERO JUMPDEST ISZERO PUSH2 0x9A6 JUMPI DUP8 DUP2 DUP2 SLOAD DUP2 LT PUSH2 0x8B5 JUMPI PUSH2 0x8B5 PUSH2 0x397B JUMP JUMPDEST SWAP1 PUSH1 0x0 MSTORE PUSH1 0x20 PUSH1 0x0 KECCAK256 ADD SLOAD SWAP4 POP PUSH1 0x3 DUP5 DUP2 SLOAD DUP2 LT PUSH2 0x8D5 JUMPI PUSH2 0x8D5 PUSH2 0x397B JUMP JUMPDEST PUSH1 0x0 SWAP2 DUP3 MSTORE PUSH1 0x20 SWAP2 DUP3 SWAP1 KECCAK256 PUSH1 0x40 DUP1 MLOAD PUSH2 0x100 DUP2 ADD DUP3 MSTORE PUSH1 0x7 SWAP4 SWAP1 SWAP4 MUL SWAP1 SWAP2 ADD DUP1 SLOAD PUSH1 0x1 PUSH1 0x1 PUSH1 0xA0 SHL SUB SWAP1 DUP2 AND DUP5 MSTORE PUSH1 0x1 DUP3 ADD SLOAD SWAP1 DUP2 AND SWAP5 DUP5 ADD SWAP5 SWAP1 SWAP5 MSTORE PUSH1 0x1 PUSH1 0xA0 SHL SWAP1 SWAP4 DIV PUSH1 0xFF AND ISZERO ISZERO SWAP1 DUP3 ADD MSTORE PUSH1 0x2 DUP3 ADD SLOAD PUSH1 0x60 DUP3 ADD DUP2 SWAP1 MSTORE PUSH1 0x3 DUP4 ADD SLOAD PUSH1 0x80 DUP4 ADD MSTORE PUSH1 0x4 DUP4 ADD SLOAD PUSH1 0xA0 DUP4 ADD MSTORE PUSH1 0x5 DUP4 ADD SLOAD PUSH1 0xC0 DUP4 ADD MSTORE PUSH1 0x6 SWAP1 SWAP3 ADD SLOAD PUSH1 0xE0 DUP3 ADD MSTORE SWAP3 POP PUSH1 0x28 SWAP1 PUSH2 0x967 SWAP1 DUP6 PUSH2 0x39D3 JUMP JUMPDEST GT ISZERO PUSH2 0x994 JUMPI PUSH2 0x977 DUP3 DUP6 PUSH2 0x1AE3 JUMP JUMPDEST ISZERO PUSH2 0x994 JUMPI PUSH2 0x986 DUP9 DUP3 PUSH2 0x1C41 JUMP JUMPDEST DUP6 PUSH2 0x990 DUP2 PUSH2 0x39E6 JUMP JUMPDEST SWAP7 POP POP JUMPDEST DUP1 PUSH2 0x99E DUP2 PUSH2 0x3A00 JUMP JUMPDEST SWAP2 POP POP PUSH2 0x88E JUMP JUMPDEST POP POP POP POP POP POP POP POP JUMP JUMPDEST PUSH1 0x3 SLOAD JUMPDEST PUSH1 0x0 DUP2 GT DUP1 ISZERO PUSH2 0x9C4 JUMPI POP DUP5 DUP7 GT ISZERO JUMPDEST ISZERO PUSH2 0x9A6 JUMPI PUSH1 0x3 DUP2 DUP2 SLOAD DUP2 LT PUSH2 0x9DC JUMPI PUSH2 0x9DC PUSH2 0x397B JUMP JUMPDEST PUSH1 0x0 SWAP2 DUP3 MSTORE PUSH1 0x20 SWAP2 DUP3 SWAP1 KECCAK256 PUSH1 0x40 DUP1 MLOAD PUSH2 0x100 DUP2 ADD DUP3 MSTORE PUSH1 0x7 SWAP4 SWAP1 SWAP4 MUL SWAP1 SWAP2 ADD DUP1 SLOAD PUSH1 0x1 PUSH1 0x1 PUSH1 0xA0 SHL SUB SWAP1 DUP2 AND DUP5 MSTORE PUSH1 0x1 DUP3 ADD SLOAD SWAP1 DUP2 AND SWAP5 DUP5 ADD SWAP5 SWAP1 SWAP5 MSTORE PUSH1 0x1 PUSH1 0xA0 SHL SWAP1 SWAP4 DIV PUSH1 0xFF AND ISZERO ISZERO SWAP1 DUP3 ADD MSTORE PUSH1 0x2 DUP3 ADD SLOAD PUSH1 0x60 DUP3 ADD DUP2 SWAP1 MSTORE PUSH1 0x3 DUP4 ADD SLOAD PUSH1 0x80 DUP4 ADD MSTORE PUSH1 0x4 DUP4 ADD SLOAD PUSH1 0xA0 DUP4 ADD MSTORE PUSH1 0x5 DUP4 ADD SLOAD PUSH1 0xC0 DUP4 ADD MSTORE PUSH1 0x6 SWAP1 SWAP3 ADD SLOAD PUSH1 0xE0 DUP3 ADD MSTORE SWAP3 POP PUSH1 0x28 SWAP1 PUSH2 0xA6E SWAP1 DUP6 PUSH2 0x39D3 JUMP JUMPDEST GT ISZERO PUSH2 0xA91 JUMPI PUSH2 0xA7E DUP3 DUP6 PUSH2 0x1AE3 JUMP JUMPDEST ISZERO PUSH2 0xA91 JUMPI DUP6 PUSH2 0xA8D DUP2 PUSH2 0x39E6 JUMP JUMPDEST SWAP7 POP POP JUMPDEST DUP1 PUSH2 0xA9B DUP2 PUSH2 0x3A00 JUMP JUMPDEST SWAP2 POP POP PUSH2 0x9B4 JUMP JUMPDEST PUSH2 0xAAE DUP4 DUP4 DUP4 PUSH2 0x1330 JUMP JUMPDEST POP POP POP JUMP JUMPDEST PUSH1 0x0 DUP2 GT PUSH2 0xAD4 JUMPI PUSH1 0x40 MLOAD PUSH4 0x42257CED PUSH1 0xE1 SHL DUP2 MSTORE PUSH1 0x4 ADD PUSH1 0x40 MLOAD DUP1 SWAP2 SUB SWAP1 REVERT JUMPDEST PUSH1 0x0 PUSH2 0xADF DUP4 PUSH2 0x1CC2 JUMP JUMPDEST PUSH1 0xA DUP2 ADD SLOAD SWAP1 SWAP2 POP PUSH2 0xAFB SWAP1 PUSH1 0x1 PUSH1 0x1 PUSH1 0xA0 SHL SUB AND CALLER DUP5 PUSH2 0x1D3A JUMP JUMPDEST PUSH2 0xB18 JUMPI PUSH1 0x40 MLOAD PUSH4 0x79CACFF1 PUSH1 0xE0 SHL DUP2 MSTORE PUSH1 0x4 ADD PUSH1 0x40 MLOAD DUP1 SWAP2 SUB SWAP1 REVERT JUMPDEST PUSH1 0x1 PUSH1 0x1 PUSH1 0xA0 SHL SUB DUP4 AND PUSH1 0x0 SWAP1 DUP2 MSTORE PUSH1 0x9 PUSH1 0x20 MSTORE PUSH1 0x40 DUP2 KECCAK256 DUP1 SLOAD DUP5 SWAP3 SWAP1 PUSH2 0xB40 SWAP1 DUP5 SWAP1 PUSH2 0x3A1B JUMP JUMPDEST SWAP1 SWAP2 SSTORE POP POP PUSH1 0x1 PUSH1 0x1 PUSH1 0xA0 SHL SUB DUP4 AND PUSH1 0x0 SWAP1 DUP2 MSTORE PUSH1 0xA PUSH1 0x20 MSTORE PUSH1 0x40 DUP2 KECCAK256 DUP1 SLOAD DUP5 SWAP3 SWAP1 PUSH2 0xB6D SWAP1 DUP5 SWAP1 PUSH2 0x3A1B JUMP JUMPDEST SWAP1 SWAP2 SSTORE POP PUSH2 0xAAE SWAP1 POP DUP2 PUSH1 0x0 DUP5 PUSH2 0x1DBC JUMP JUMPDEST PUSH1 0x4 DUP2 DUP2 SLOAD DUP2 LT PUSH2 0xB8F JUMPI PUSH1 0x0 DUP1 REVERT JUMPDEST PUSH1 0x0 SWAP2 DUP3 MSTORE PUSH1 0x20 SWAP1 SWAP2 KECCAK256 PUSH1 0x7 SWAP1 SWAP2 MUL ADD DUP1 SLOAD PUSH1 0x1 DUP3 ADD SLOAD PUSH1 0x2 DUP4 ADD SLOAD PUSH1 0x3 DUP5 ADD SLOAD PUSH1 0x4 DUP6 ADD SLOAD PUSH1 0x5 DUP7 ADD SLOAD PUSH1 0x6 SWAP1 SWAP7 ADD SLOAD PUSH1 0x1 PUSH1 0x1 PUSH1 0xA0 SHL SUB SWAP6 DUP7 AND SWAP8 POP SWAP5 DUP5 AND SWAP6 PUSH1 0x1 PUSH1 0xA0 SHL SWAP1 SWAP5 DIV PUSH1 0xFF AND SWAP5 SWAP3 SWAP4 SWAP2 SWAP3 SWAP1 SWAP2 SWAP1 DUP9 JUMP JUMPDEST PUSH1 0x0 PUSH2 0xBF2 DUP4 PUSH2 0x1826 JUMP JUMPDEST PUSH1 0x80 DUP2 ADD MLOAD PUSH1 0x1 PUSH1 0x1 PUSH1 0xA0 SHL SUB AND PUSH1 0x0 SWAP1 DUP2 MSTORE PUSH1 0x6 PUSH1 0x20 MSTORE PUSH1 0x40 DUP2 KECCAK256 SWAP2 SWAP3 POP DUP1 DUP1 DUP6 PUSH2 0xC36 JUMPI PUSH1 0x1 PUSH1 0x1 PUSH1 0xA0 SHL SUB DUP8 AND PUSH1 0x0 SWAP1 DUP2 MSTORE PUSH1 0x8 PUSH1 0x20 MSTORE PUSH1 0x40 SWAP1 KECCAK256 SLOAD PUSH2 0xC50 JUMP JUMPDEST PUSH1 0x1 PUSH1 0x1 PUSH1 0xA0 SHL SUB DUP8 AND PUSH1 0x0 SWAP1 DUP2 MSTORE PUSH1 0xA PUSH1 0x20 MSTORE PUSH1 0x40 SWAP1 KECCAK256 SLOAD JUMPDEST DUP5 SLOAD SWAP1 SWAP2 POP JUMPDEST PUSH1 0x0 DUP3 GT DUP1 ISZERO PUSH2 0xC66 JUMPI POP PUSH1 0x0 DUP2 GT JUMPDEST ISZERO PUSH2 0xD32 JUMPI PUSH1 0x0 DUP6 DUP3 DUP2 SLOAD DUP2 LT PUSH2 0xC7F JUMPI PUSH2 0xC7F PUSH2 0x397B JUMP JUMPDEST SWAP1 PUSH1 0x0 MSTORE PUSH1 0x20 PUSH1 0x0 KECCAK256 ADD SLOAD SWAP1 POP PUSH1 0x3 DUP2 DUP2 SLOAD DUP2 LT PUSH2 0xC9F JUMPI PUSH2 0xC9F PUSH2 0x397B JUMP JUMPDEST SWAP1 PUSH1 0x0 MSTORE PUSH1 0x20 PUSH1 0x0 KECCAK256 SWAP1 PUSH1 0x7 MUL ADD SWAP5 POP DUP8 ISZERO ISZERO DUP6 PUSH1 0x1 ADD PUSH1 0x14 SWAP1 SLOAD SWAP1 PUSH2 0x100 EXP SWAP1 DIV PUSH1 0xFF AND ISZERO ISZERO EQ PUSH2 0xCD1 JUMPI POP PUSH2 0xD20 JUMP JUMPDEST DUP8 ISZERO PUSH2 0xCED JUMPI PUSH2 0xCE3 DUP8 DUP7 DUP5 DUP7 PUSH2 0x246B JUMP JUMPDEST SWAP1 SWAP5 POP SWAP3 POP PUSH2 0xCFE JUMP JUMPDEST PUSH2 0xCF8 DUP6 DUP5 DUP5 PUSH2 0x256E JUMP JUMPDEST SWAP1 SWAP5 POP SWAP3 POP JUMPDEST DUP4 PUSH2 0xD09 JUMPI POP PUSH2 0xD20 JUMP JUMPDEST PUSH2 0xD13 DUP7 DUP4 PUSH2 0x1C41 JUMP JUMPDEST PUSH2 0xD1E PUSH1 0x3 DUP3 PUSH2 0x266A JUMP JUMPDEST POP JUMPDEST DUP1 PUSH2 0xD2A DUP2 PUSH2 0x3A00 JUMP JUMPDEST SWAP2 POP POP PUSH2 0xC56 JUMP JUMPDEST POP DUP6 ISZERO PUSH2 0xD5D JUMPI PUSH1 0x80 DUP6 ADD MLOAD PUSH1 0x1 PUSH1 0x1 PUSH1 0xA0 SHL SUB AND PUSH1 0x0 SWAP1 DUP2 MSTORE PUSH1 0xA PUSH1 0x20 MSTORE PUSH1 0x40 SWAP1 KECCAK256 DUP2 SWAP1 SSTORE PUSH2 0xD7D JUMP JUMPDEST PUSH1 0x80 DUP6 ADD MLOAD PUSH1 0x1 PUSH1 0x1 PUSH1 0xA0 SHL SUB AND PUSH1 0x0 SWAP1 DUP2 MSTORE PUSH1 0x8 PUSH1 0x20 MSTORE PUSH1 0x40 SWAP1 KECCAK256 DUP2 SWAP1 SSTORE JUMPDEST POP POP POP POP POP POP POP JUMP JUMPDEST CALLVALUE DUP1 PUSH2 0xDA5 JUMPI PUSH1 0x40 MLOAD PUSH4 0x42257CED PUSH1 0xE1 SHL DUP2 MSTORE PUSH1 0x4 ADD PUSH1 0x40 MLOAD DUP1 SWAP2 SUB SWAP1 REVERT JUMPDEST PUSH1 0x0 PUSH2 0xDB0 DUP4 PUSH2 0x1CC2 JUMP JUMPDEST PUSH1 0x1 PUSH1 0x1 PUSH1 0xA0 SHL SUB DUP5 AND PUSH1 0x0 SWAP1 DUP2 MSTORE PUSH1 0x8 PUSH1 0x20 MSTORE PUSH1 0x40 DUP2 KECCAK256 DUP1 SLOAD SWAP3 SWAP4 POP DUP5 SWAP3 SWAP1 SWAP2 SWAP1 PUSH2 0xDDD SWAP1 DUP5 SWAP1 PUSH2 0x3A1B JUMP JUMPDEST SWAP1 SWAP2 SSTORE POP PUSH2 0xAAE SWAP1 POP DUP2 PUSH1 0x1 DUP5 PUSH2 0x1DBC JUMP JUMPDEST PUSH1 0x0 PUSH2 0xDFA DUP4 PUSH2 0x1826 JUMP JUMPDEST SWAP1 POP PUSH1 0x0 DUP1 PUSH1 0x0 PUSH2 0xE0B DUP7 DUP7 PUSH2 0x139D JUMP JUMPDEST SWAP3 POP SWAP1 POP DUP1 PUSH2 0xE2D JUMPI PUSH1 0x40 MLOAD PUSH4 0x2050D62B PUSH1 0xE0 SHL DUP2 MSTORE PUSH1 0x4 ADD PUSH1 0x40 MLOAD DUP1 SWAP2 SUB SWAP1 REVERT JUMPDEST PUSH2 0xE3D DUP5 PUSH2 0x160 ADD MLOAD DUP8 DUP8 PUSH2 0x1D3A JUMP JUMPDEST PUSH2 0xE5A JUMPI PUSH1 0x40 MLOAD PUSH4 0x79CACFF1 PUSH1 0xE0 SHL DUP2 MSTORE PUSH1 0x4 ADD PUSH1 0x40 MLOAD DUP1 SWAP2 SUB SWAP1 REVERT JUMPDEST PUSH1 0x3 DUP3 DUP2 SLOAD DUP2 LT PUSH2 0xE6D JUMPI PUSH2 0xE6D PUSH2 0x397B JUMP JUMPDEST SWAP1 PUSH1 0x0 MSTORE PUSH1 0x20 PUSH1 0x0 KECCAK256 SWAP1 PUSH1 0x7 MUL ADD SWAP3 POP PUSH2 0xE8B DUP4 PUSH1 0x1 DUP5 DUP9 DUP11 PUSH2 0x14E4 JUMP JUMPDEST POP POP POP POP POP POP JUMP JUMPDEST PUSH2 0xE9B PUSH2 0x173A JUMP JUMPDEST PUSH1 0x0 DUP1 SLOAD PUSH1 0x1 PUSH1 0x1 PUSH1 0xA0 SHL SUB DUP4 DUP2 AND PUSH1 0x1 PUSH1 0x1 PUSH1 0xA0 SHL SUB NOT DUP4 AND DUP2 OR SWAP1 SWAP4 SSTORE PUSH1 0x40 MLOAD SWAP2 AND SWAP2 PUSH32 0x850B3DF64837D7D518B45F5AA64D104652C3B80EB5B34A8E3D9EB666CB7CDEA5 SWAP2 PUSH2 0xEED SWAP2 DUP5 SWAP2 PUSH2 0x3A2E JUMP JUMPDEST PUSH1 0x40 MLOAD DUP1 SWAP2 SUB SWAP1 LOG1 POP POP JUMP JUMPDEST PUSH1 0x1 PUSH1 0x1 PUSH1 0xA0 SHL SUB DUP2 AND PUSH1 0x0 SWAP1 DUP2 MSTORE PUSH1 0x8 PUSH1 0x20 MSTORE PUSH1 0x40 DUP2 KECCAK256 DUP1 SLOAD CALLVALUE SWAP3 SWAP1 PUSH2 0xF21 SWAP1 DUP5 SWAP1 PUSH2 0x3A1B JUMP JUMPDEST SWAP1 SWAP2 SSTORE POP POP POP JUMP JUMPDEST PUSH2 0xF31 PUSH2 0x3280 JUMP JUMPDEST DUP2 ISZERO DUP1 PUSH2 0xF3F JUMPI POP PUSH1 0x2 SLOAD DUP3 GT JUMPDEST ISZERO PUSH2 0xF5D JUMPI PUSH1 0x40 MLOAD PUSH4 0x62F850F7 PUSH1 0xE1 SHL DUP2 MSTORE PUSH1 0x4 ADD PUSH1 0x40 MLOAD DUP1 SWAP2 SUB SWAP1 REVERT JUMPDEST PUSH1 0x0 PUSH1 0x2 PUSH2 0xF6C PUSH1 0x1 DUP6 PUSH2 0x39D3 JUMP JUMPDEST DUP2 SLOAD DUP2 LT PUSH2 0xF7C JUMPI PUSH2 0xF7C PUSH2 0x397B JUMP JUMPDEST SWAP1 PUSH1 0x0 MSTORE PUSH1 0x20 PUSH1 0x0 KECCAK256 SWAP1 PUSH1 0xB MUL ADD PUSH1 0x40 MLOAD DUP1 PUSH2 0x180 ADD PUSH1 0x40 MSTORE SWAP1 DUP2 PUSH1 0x0 DUP3 ADD DUP1 SLOAD PUSH2 0xFA6 SWAP1 PUSH2 0x3A5F JUMP JUMPDEST DUP1 PUSH1 0x1F ADD PUSH1 0x20 DUP1 SWAP2 DIV MUL PUSH1 0x20 ADD PUSH1 0x40 MLOAD SWAP1 DUP2 ADD PUSH1 0x40 MSTORE DUP1 SWAP3 SWAP2 SWAP1 DUP2 DUP2 MSTORE PUSH1 0x20 ADD DUP3 DUP1 SLOAD PUSH2 0xFD2 SWAP1 PUSH2 0x3A5F JUMP JUMPDEST DUP1 ISZERO PUSH2 0x101F JUMPI DUP1 PUSH1 0x1F LT PUSH2 0xFF4 JUMPI PUSH2 0x100 DUP1 DUP4 SLOAD DIV MUL DUP4 MSTORE SWAP2 PUSH1 0x20 ADD SWAP2 PUSH2 0x101F JUMP JUMPDEST DUP3 ADD SWAP2 SWAP1 PUSH1 0x0 MSTORE PUSH1 0x20 PUSH1 0x0 KECCAK256 SWAP1 JUMPDEST DUP2 SLOAD DUP2 MSTORE SWAP1 PUSH1 0x1 ADD SWAP1 PUSH1 0x20 ADD DUP1 DUP4 GT PUSH2 0x1002 JUMPI DUP3 SWAP1 SUB PUSH1 0x1F AND DUP3 ADD SWAP2 JUMPDEST POP POP POP POP POP DUP2 MSTORE PUSH1 0x20 ADD PUSH1 0x1 DUP3 ADD DUP1 SLOAD PUSH2 0x1038 SWAP1 PUSH2 0x3A5F JUMP JUMPDEST DUP1 PUSH1 0x1F ADD PUSH1 0x20 DUP1 SWAP2 DIV MUL PUSH1 0x20 ADD PUSH1 0x40 MLOAD SWAP1 DUP2 ADD PUSH1 0x40 MSTORE DUP1 SWAP3 SWAP2 SWAP1 DUP2 DUP2 MSTORE PUSH1 0x20 ADD DUP3 DUP1 SLOAD PUSH2 0x1064 SWAP1 PUSH2 0x3A5F JUMP JUMPDEST DUP1 ISZERO PUSH2 0x10B1 JUMPI DUP1 PUSH1 0x1F LT PUSH2 0x1086 JUMPI PUSH2 0x100 DUP1 DUP4 SLOAD DIV MUL DUP4 MSTORE SWAP2 PUSH1 0x20 ADD SWAP2 PUSH2 0x10B1 JUMP JUMPDEST DUP3 ADD SWAP2 SWAP1 PUSH1 0x0 MSTORE PUSH1 0x20 PUSH1 0x0 KECCAK256 SWAP1 JUMPDEST DUP2 SLOAD DUP2 MSTORE SWAP1 PUSH1 0x1 ADD SWAP1 PUSH1 0x20 ADD DUP1 DUP4 GT PUSH2 0x1094 JUMPI DUP3 SWAP1 SUB PUSH1 0x1F AND DUP3 ADD SWAP2 JUMPDEST POP POP POP SWAP2 DUP4 MSTORE POP POP PUSH1 0x2 DUP3 ADD SLOAD PUSH1 0xFF SWAP1 DUP2 AND PUSH1 0x20 DUP4 ADD MSTORE PUSH1 0x3 DUP4 ADD SLOAD PUSH1 0x40 DUP4 ADD MSTORE PUSH1 0x4 DUP4 ADD SLOAD PUSH1 0x1 PUSH1 0x1 PUSH1 0xA0 SHL SUB SWAP1 DUP2 AND PUSH1 0x60 DUP5 ADD MSTORE PUSH1 0x5 DUP5 ADD SLOAD SWAP1 DUP2 AND PUSH1 0x80 DUP5 ADD MSTORE PUSH1 0xA0 SWAP1 SWAP3 ADD SWAP2 PUSH1 0x1 PUSH1 0xA0 SHL SWAP1 DIV AND PUSH1 0x1 DUP2 GT ISZERO PUSH2 0x1113 JUMPI PUSH2 0x1113 PUSH2 0x3411 JUMP JUMPDEST PUSH1 0x1 DUP2 GT ISZERO PUSH2 0x1124 JUMPI PUSH2 0x1124 PUSH2 0x3411 JUMP JUMPDEST DUP2 MSTORE PUSH1 0x20 ADD PUSH1 0x6 DUP3 ADD SLOAD DUP2 MSTORE PUSH1 0x20 ADD PUSH1 0x7 DUP3 ADD SLOAD DUP2 MSTORE PUSH1 0x20 ADD PUSH1 0x8 DUP3 ADD SLOAD DUP2 MSTORE PUSH1 0x20 ADD PUSH1 0x9 DUP3 ADD SLOAD DUP2 MSTORE PUSH1 0x20 ADD PUSH1 0xA DUP3 ADD PUSH1 0x0 SWAP1 SLOAD SWAP1 PUSH2 0x100 EXP SWAP1 DIV PUSH1 0x1 PUSH1 0x1 PUSH1 0xA0 SHL SUB AND PUSH1 0x1 PUSH1 0x1 PUSH1 0xA0 SHL SUB AND PUSH1 0x1 PUSH1 0x1 PUSH1 0xA0 SHL SUB AND DUP2 MSTORE POP POP SWAP1 POP PUSH1 0x0 PUSH1 0x6 PUSH1 0x0 DUP4 PUSH1 0x80 ADD MLOAD PUSH1 0x1 PUSH1 0x1 PUSH1 0xA0 SHL SUB AND PUSH1 0x1 PUSH1 0x1 PUSH1 0xA0 SHL SUB AND DUP2 MSTORE PUSH1 0x20 ADD SWAP1 DUP2 MSTORE PUSH1 0x20 ADD PUSH1 0x0 KECCAK256 DUP1 SLOAD SWAP1 POP SWAP1 POP PUSH1 0x40 MLOAD DUP1 PUSH2 0x140 ADD PUSH1 0x40 MSTORE DUP1 DUP6 DUP2 MSTORE PUSH1 0x20 ADD DUP4 PUSH1 0x0 ADD MLOAD DUP2 MSTORE PUSH1 0x20 ADD DUP4 PUSH1 0x20 ADD MLOAD DUP2 MSTORE PUSH1 0x20 ADD DUP4 PUSH1 0x80 ADD MLOAD PUSH1 0x1 PUSH1 0x1 PUSH1 0xA0 SHL SUB AND DUP2 MSTORE PUSH1 0x20 ADD DUP4 PUSH1 0xA0 ADD MLOAD PUSH1 0x1 PUSH1 0x1 PUSH1 0xA0 SHL SUB AND DUP2 MSTORE PUSH1 0x20 ADD DUP4 PUSH1 0xE0 ADD MLOAD DUP2 MSTORE PUSH1 0x20 ADD DUP4 PUSH2 0x100 ADD MLOAD DUP2 MSTORE PUSH1 0x20 ADD DUP4 PUSH1 0xC0 ADD MLOAD PUSH1 0x1 DUP2 GT ISZERO PUSH2 0x1229 JUMPI PUSH2 0x1229 PUSH2 0x3411 JUMP JUMPDEST DUP2 MSTORE PUSH2 0x120 SWAP1 SWAP4 ADD MLOAD PUSH1 0x20 DUP5 ADD MSTORE PUSH1 0x40 SWAP1 SWAP3 ADD MSTORE SWAP3 SWAP2 POP POP JUMP JUMPDEST PUSH1 0x2 SLOAD PUSH1 0x0 SUB PUSH2 0x1278 JUMPI PUSH1 0x0 SLOAD PUSH1 0x1 PUSH1 0x1 PUSH1 0xA0 SHL SUB AND CALLER EQ PUSH2 0x1278 JUMPI PUSH1 0x40 MLOAD PUSH4 0x564B3529 PUSH1 0xE1 SHL DUP2 MSTORE PUSH1 0x4 ADD PUSH1 0x40 MLOAD DUP1 SWAP2 SUB SWAP1 REVERT JUMPDEST PUSH1 0x1 PUSH1 0x1 PUSH1 0xA0 SHL SUB DUP7 AND PUSH1 0x0 SWAP1 DUP2 MSTORE PUSH1 0x5 PUSH1 0x20 MSTORE PUSH1 0x40 SWAP1 KECCAK256 SLOAD DUP7 SWAP1 DUP1 ISZERO DUP1 ISZERO SWAP1 PUSH2 0x12A3 JUMPI POP PUSH1 0x2 SLOAD ISZERO ISZERO JUMPDEST ISZERO PUSH2 0x12CC JUMPI DUP2 PUSH1 0x40 MLOAD PUSH4 0x15EF3A57 PUSH1 0xE0 SHL DUP2 MSTORE PUSH1 0x4 ADD PUSH2 0x12C3 SWAP2 SWAP1 PUSH2 0x38A6 JUMP JUMPDEST PUSH1 0x40 MLOAD DUP1 SWAP2 SUB SWAP1 REVERT JUMPDEST PUSH1 0x2 SLOAD PUSH3 0xF4240 GT PUSH2 0x12F1 JUMPI PUSH1 0x40 MLOAD PUSH4 0x53BB24F9 PUSH1 0xE0 SHL DUP2 MSTORE PUSH1 0x4 ADD PUSH1 0x40 MLOAD DUP1 SWAP2 SUB SWAP1 REVERT JUMPDEST PUSH1 0x0 DUP1 DUP9 PUSH1 0x1 DUP2 GT ISZERO PUSH2 0x1306 JUMPI PUSH2 0x1306 PUSH2 0x3411 JUMP JUMPDEST SUB PUSH2 0x1317 JUMPI PUSH2 0x1314 DUP5 PUSH2 0x27BB JUMP JUMPDEST SWAP1 POP JUMPDEST PUSH2 0x1325 DUP4 DUP3 DUP11 DUP9 DUP12 DUP12 PUSH2 0x27F2 JUMP JUMPDEST POP POP POP POP POP POP POP POP POP JUMP JUMPDEST PUSH1 0x0 PUSH2 0x133B DUP5 PUSH2 0x1826 JUMP JUMPDEST SWAP1 POP PUSH2 0x134D DUP2 PUSH2 0x160 ADD MLOAD DUP5 DUP5 PUSH2 0x1D3A JUMP JUMPDEST PUSH2 0x136A JUMPI PUSH1 0x40 MLOAD PUSH4 0x79CACFF1 PUSH1 0xE0 SHL DUP2 MSTORE PUSH1 0x4 ADD PUSH1 0x40 MLOAD DUP1 SWAP2 SUB SWAP1 REVERT JUMPDEST PUSH1 0x1 PUSH1 0x1 PUSH1 0xA0 SHL SUB DUP5 AND PUSH1 0x0 SWAP1 DUP2 MSTORE PUSH1 0xA PUSH1 0x20 MSTORE PUSH1 0x40 DUP2 KECCAK256 DUP1 SLOAD DUP5 SWAP3 SWAP1 PUSH2 0x1392 SWAP1 DUP5 SWAP1 PUSH2 0x3A1B JUMP JUMPDEST SWAP1 SWAP2 SSTORE POP POP POP POP POP POP JUMP JUMPDEST PUSH1 0x0 DUP1 PUSH2 0x13A8 PUSH2 0x32F6 JUMP JUMPDEST PUSH1 0x1 PUSH1 0x1 PUSH1 0xA0 SHL SUB DUP6 AND PUSH1 0x0 SWAP1 DUP2 MSTORE PUSH1 0x6 PUSH1 0x20 MSTORE PUSH1 0x40 DUP2 KECCAK256 DUP1 SLOAD SWAP1 SWAP2 SWAP1 JUMPDEST PUSH1 0x0 DUP2 GT DUP1 ISZERO PUSH2 0x13D4 JUMPI POP DUP2 ISZERO JUMPDEST ISZERO PUSH2 0x14D8 JUMPI PUSH1 0x0 DUP4 DUP3 DUP2 SLOAD DUP2 LT PUSH2 0x13ED JUMPI PUSH2 0x13ED PUSH2 0x397B JUMP JUMPDEST SWAP1 PUSH1 0x0 MSTORE PUSH1 0x20 PUSH1 0x0 KECCAK256 ADD SLOAD SWAP1 POP PUSH1 0x3 DUP2 DUP2 SLOAD DUP2 LT PUSH2 0x140D JUMPI PUSH2 0x140D PUSH2 0x397B JUMP JUMPDEST PUSH1 0x0 SWAP2 DUP3 MSTORE PUSH1 0x20 SWAP2 DUP3 SWAP1 KECCAK256 PUSH1 0x40 DUP1 MLOAD PUSH2 0x100 DUP2 ADD DUP3 MSTORE PUSH1 0x7 SWAP4 SWAP1 SWAP4 MUL SWAP1 SWAP2 ADD DUP1 SLOAD PUSH1 0x1 PUSH1 0x1 PUSH1 0xA0 SHL SUB SWAP1 DUP2 AND DUP5 MSTORE PUSH1 0x1 DUP3 ADD SLOAD SWAP1 DUP2 AND SWAP5 DUP5 ADD SWAP5 SWAP1 SWAP5 MSTORE PUSH1 0x1 PUSH1 0xA0 SHL SWAP1 SWAP4 DIV PUSH1 0xFF AND ISZERO ISZERO SWAP1 DUP3 ADD MSTORE PUSH1 0x2 DUP3 ADD SLOAD PUSH1 0x60 DUP3 ADD MSTORE PUSH1 0x3 DUP3 ADD SLOAD PUSH1 0x80 DUP3 ADD MSTORE PUSH1 0x4 DUP3 ADD SLOAD PUSH1 0xA0 DUP3 ADD MSTORE PUSH1 0x5 DUP3 ADD SLOAD PUSH1 0xC0 DUP3 ADD MSTORE PUSH1 0x6 SWAP1 SWAP2 ADD SLOAD PUSH1 0xE0 DUP3 ADD DUP2 SWAP1 MSTORE SWAP1 SWAP6 POP DUP9 SWAP1 SUB PUSH2 0x14A6 JUMPI PUSH1 0x1 SWAP3 POP DUP1 SWAP6 POP PUSH2 0x14C5 JUMP JUMPDEST DUP3 ISZERO DUP1 ISZERO PUSH2 0x14B8 JUMPI POP DUP8 DUP6 PUSH1 0xE0 ADD MLOAD LT ISZERO JUMPDEST ISZERO PUSH2 0x14C5 JUMPI PUSH1 0x1 SWAP3 POP DUP1 SWAP6 POP JUMPDEST POP DUP1 PUSH2 0x14D0 DUP2 PUSH2 0x3A00 JUMP JUMPDEST SWAP2 POP POP PUSH2 0x13C6 JUMP JUMPDEST POP SWAP4 POP POP POP SWAP3 POP SWAP3 SWAP1 POP JUMP JUMPDEST PUSH1 0x0 PUSH2 0x14EF DUP3 PUSH2 0x1826 JUMP JUMPDEST SWAP1 POP DUP3 DUP1 DUP7 PUSH2 0x150C JUMPI PUSH2 0x1509 DUP6 DUP5 PUSH1 0x40 ADD MLOAD PUSH1 0xFF AND PUSH2 0x2CA3 JUMP JUMPDEST SWAP2 POP JUMPDEST PUSH1 0x3 DUP7 DUP2 SLOAD DUP2 LT PUSH2 0x151F JUMPI PUSH2 0x151F PUSH2 0x397B JUMP JUMPDEST PUSH1 0x0 SWAP2 DUP3 MSTORE PUSH1 0x20 SWAP1 SWAP2 KECCAK256 PUSH1 0x7 SWAP1 SWAP2 MUL ADD PUSH1 0x4 DUP2 ADD SLOAD PUSH1 0x5 DUP3 ADD SLOAD DUP3 SLOAD SWAP3 SWAP11 POP SWAP1 SWAP2 DUP5 DUP3 EQ DUP1 ISZERO SWAP2 PUSH1 0x1 PUSH1 0x1 PUSH1 0xA0 SHL SUB AND SWAP1 PUSH2 0x1578 JUMPI DUP11 ISZERO PUSH2 0x156B JUMPI PUSH2 0x1564 DUP7 DUP6 PUSH2 0x2CCC JUMP JUMPDEST SWAP3 POP PUSH2 0x1578 JUMP JUMPDEST PUSH2 0x1575 DUP7 DUP6 PUSH2 0x2CD8 JUMP JUMPDEST SWAP3 POP JUMPDEST PUSH1 0x40 DUP1 MLOAD PUSH2 0x100 DUP2 ADD DUP3 MSTORE DUP14 SLOAD PUSH1 0x1 PUSH1 0x1 PUSH1 0xA0 SHL SUB SWAP1 DUP2 AND DUP3 MSTORE PUSH1 0x1 DUP16 ADD SLOAD SWAP1 DUP2 AND PUSH1 0x20 DUP4 ADD MSTORE PUSH1 0x1 PUSH1 0xA0 SHL SWAP1 DIV PUSH1 0xFF AND ISZERO ISZERO SWAP2 DUP2 ADD SWAP2 SWAP1 SWAP2 MSTORE PUSH1 0x2 DUP14 ADD SLOAD PUSH1 0x60 DUP3 ADD MSTORE PUSH1 0x3 DUP14 ADD SLOAD PUSH1 0x80 DUP3 ADD MSTORE PUSH1 0x4 DUP14 ADD SLOAD PUSH1 0xA0 DUP3 ADD MSTORE PUSH1 0x5 DUP14 ADD SLOAD PUSH1 0xC0 DUP3 ADD MSTORE PUSH1 0x6 DUP14 ADD SLOAD PUSH1 0xE0 DUP3 ADD MSTORE PUSH2 0x15F0 SWAP1 DUP9 DUP9 DUP7 PUSH2 0x2CE4 JUMP JUMPDEST PUSH1 0x0 DUP12 PUSH2 0x15FD JUMPI DUP4 PUSH2 0x15FF JUMP JUMPDEST DUP7 JUMPDEST SWAP1 POP DUP3 ISZERO PUSH2 0x1641 JUMPI DUP7 DUP14 PUSH1 0x6 ADD PUSH1 0x0 DUP3 DUP3 SLOAD PUSH2 0x161B SWAP2 SWAP1 PUSH2 0x39D3 JUMP JUMPDEST SWAP3 POP POP DUP2 SWAP1 SSTORE POP DUP4 DUP14 PUSH1 0x5 ADD PUSH1 0x0 DUP3 DUP3 SLOAD PUSH2 0x1636 SWAP2 SWAP1 PUSH2 0x39D3 JUMP JUMPDEST SWAP1 SWAP2 SSTORE POP PUSH2 0x164C SWAP1 POP JUMP JUMPDEST PUSH2 0x164C PUSH1 0x3 DUP13 PUSH2 0x266A JUMP JUMPDEST PUSH1 0xE0 DUP9 ADD MLOAD PUSH1 0x0 DUP2 ISZERO DUP1 ISZERO SWAP1 PUSH2 0x1667 JUMPI POP DUP10 PUSH2 0x100 ADD MLOAD DUP4 LT ISZERO JUMPDEST SWAP1 POP DUP1 ISZERO PUSH2 0x16E2 JUMPI PUSH1 0x80 DUP11 ADD DUP1 MLOAD PUSH1 0x1 PUSH1 0x1 PUSH1 0xA0 SHL SUB SWAP1 DUP2 AND PUSH1 0x0 SWAP1 DUP2 MSTORE PUSH1 0x9 PUSH1 0x20 SWAP1 DUP2 MSTORE PUSH1 0x40 DUP1 DUP4 KECCAK256 SLOAD SWAP5 MLOAD SWAP1 SWAP4 AND DUP3 MSTORE PUSH1 0xA SWAP1 MSTORE SWAP1 DUP2 KECCAK256 SLOAD SWAP1 PUSH2 0x16AC DUP4 DUP4 PUSH2 0x39D3 JUMP JUMPDEST SWAP1 POP DUP5 DUP2 GT ISZERO PUSH2 0x16DE JUMPI PUSH2 0x16C1 DUP14 CALLER DUP8 PUSH2 0x2E24 JUMP JUMPDEST PUSH2 0x16DE JUMPI PUSH1 0x40 MLOAD PUSH4 0xC96D18B5 PUSH1 0xE0 SHL DUP2 MSTORE PUSH1 0x4 ADD PUSH1 0x40 MLOAD DUP1 SWAP2 SUB SWAP1 REVERT JUMPDEST POP POP POP JUMPDEST PUSH32 0xD18715C1E0D5B06959A9B12A3C5D857CE3698A58F6AC5BC7726BD7DF86476F40 DUP14 DUP16 DUP7 CALLER DUP15 PUSH1 0x80 ADD MLOAD DUP14 DUP12 PUSH1 0x40 MLOAD PUSH2 0x1721 SWAP8 SWAP7 SWAP6 SWAP5 SWAP4 SWAP3 SWAP2 SWAP1 PUSH2 0x3ACD JUMP JUMPDEST PUSH1 0x40 MLOAD DUP1 SWAP2 SUB SWAP1 LOG1 POP POP POP POP POP POP POP POP POP POP POP POP POP POP POP JUMP JUMPDEST PUSH1 0x0 SLOAD PUSH1 0x1 PUSH1 0x1 PUSH1 0xA0 SHL SUB AND CALLER EQ PUSH2 0x1767 JUMPI CALLER PUSH1 0x40 MLOAD PUSH4 0x32B2BAA3 PUSH1 0xE0 SHL DUP2 MSTORE PUSH1 0x4 ADD PUSH2 0x12C3 SWAP2 SWAP1 PUSH2 0x38A6 JUMP JUMPDEST JUMP JUMPDEST PUSH1 0xC SLOAD ISZERO DUP1 ISZERO SWAP1 PUSH2 0x1787 JUMPI POP PUSH1 0xF0 PUSH1 0xC SLOAD TIMESTAMP PUSH2 0x1785 SWAP2 SWAP1 PUSH2 0x39D3 JUMP JUMPDEST LT JUMPDEST ISZERO PUSH2 0x178E JUMPI JUMP JUMPDEST PUSH1 0xD SLOAD PUSH1 0x40 DUP1 MLOAD PUSH4 0x4C6AFEE5 PUSH1 0xE1 SHL DUP2 MSTORE SWAP1 MLOAD PUSH1 0x0 SWAP3 PUSH1 0x1 PUSH1 0x1 PUSH1 0xA0 SHL SUB AND SWAP2 PUSH4 0x98D5FDCA SWAP2 PUSH1 0x4 DUP1 DUP4 ADD SWAP3 DUP7 SWAP3 SWAP2 SWAP1 DUP3 SWAP1 SUB ADD DUP2 DUP7 GAS STATICCALL ISZERO DUP1 ISZERO PUSH2 0x17D7 JUMPI RETURNDATASIZE PUSH1 0x0 DUP1 RETURNDATACOPY RETURNDATASIZE PUSH1 0x0 REVERT JUMPDEST POP POP POP POP PUSH1 0x40 MLOAD RETURNDATASIZE PUSH1 0x0 DUP3 RETURNDATACOPY PUSH1 0x1F RETURNDATASIZE SWAP1 DUP2 ADD PUSH1 0x1F NOT AND DUP3 ADD PUSH1 0x40 MSTORE PUSH2 0x17FF SWAP2 SWAP1 DUP2 ADD SWAP1 PUSH2 0x3B8D JUMP JUMPDEST SWAP1 POP PUSH1 0x0 DUP1 PUSH2 0x180D DUP4 PUSH2 0x2EED JUMP JUMPDEST SWAP2 POP SWAP2 POP DUP1 ISZERO PUSH2 0x181D JUMPI PUSH1 0xB DUP3 SWAP1 SSTORE JUMPDEST POP POP TIMESTAMP PUSH1 0xC SSTORE POP JUMP JUMPDEST PUSH2 0x1893 PUSH1 0x40 DUP1 MLOAD PUSH2 0x180 DUP2 ADD DUP3 MSTORE PUSH1 0x60 DUP1 DUP3 MSTORE PUSH1 0x20 DUP3 ADD DUP2 SWAP1 MSTORE PUSH1 0x0 SWAP3 DUP3 ADD DUP4 SWAP1 MSTORE DUP2 ADD DUP3 SWAP1 MSTORE PUSH1 0x80 DUP2 ADD DUP3 SWAP1 MSTORE PUSH1 0xA0 DUP2 ADD DUP3 SWAP1 MSTORE SWAP1 PUSH1 0xC0 DUP3 ADD SWAP1 DUP2 MSTORE PUSH1 0x20 ADD PUSH1 0x0 DUP2 MSTORE PUSH1 0x20 ADD PUSH1 0x0 DUP2 MSTORE PUSH1 0x20 ADD PUSH1 0x0 DUP2 MSTORE PUSH1 0x20 ADD PUSH1 0x0 DUP2 MSTORE PUSH1 0x20 ADD PUSH1 0x0 PUSH1 0x1 PUSH1 0x1 PUSH1 0xA0 SHL SUB AND DUP2 MSTORE POP SWAP1 JUMP JUMPDEST PUSH1 0x1 PUSH1 0x1 PUSH1 0xA0 SHL SUB DUP3 AND PUSH1 0x0 SWAP1 DUP2 MSTORE PUSH1 0x5 PUSH1 0x20 MSTORE PUSH1 0x40 SWAP1 KECCAK256 SLOAD DUP1 ISZERO DUP1 PUSH2 0x18BA JUMPI POP PUSH1 0x2 SLOAD DUP2 GT JUMPDEST ISZERO PUSH2 0x18D8 JUMPI PUSH1 0x40 MLOAD PUSH4 0x62F850F7 PUSH1 0xE1 SHL DUP2 MSTORE PUSH1 0x4 ADD PUSH1 0x40 MLOAD DUP1 SWAP2 SUB SWAP1 REVERT JUMPDEST PUSH1 0x2 PUSH2 0x18E5 PUSH1 0x1 DUP4 PUSH2 0x39D3 JUMP JUMPDEST DUP2 SLOAD DUP2 LT PUSH2 0x18F5 JUMPI PUSH2 0x18F5 PUSH2 0x397B JUMP JUMPDEST SWAP1 PUSH1 0x0 MSTORE PUSH1 0x20 PUSH1 0x0 KECCAK256 SWAP1 PUSH1 0xB MUL ADD PUSH1 0x40 MLOAD DUP1 PUSH2 0x180 ADD PUSH1 0x40 MSTORE SWAP1 DUP2 PUSH1 0x0 DUP3 ADD DUP1 SLOAD PUSH2 0x191F SWAP1 PUSH2 0x3A5F JUMP JUMPDEST DUP1 PUSH1 0x1F ADD PUSH1 0x20 DUP1 SWAP2 DIV MUL PUSH1 0x20 ADD PUSH1 0x40 MLOAD SWAP1 DUP2 ADD PUSH1 0x40 MSTORE DUP1 SWAP3 SWAP2 SWAP1 DUP2 DUP2 MSTORE PUSH1 0x20 ADD DUP3 DUP1 SLOAD PUSH2 0x194B SWAP1 PUSH2 0x3A5F JUMP JUMPDEST DUP1 ISZERO PUSH2 0x1998 JUMPI DUP1 PUSH1 0x1F LT PUSH2 0x196D JUMPI PUSH2 0x100 DUP1 DUP4 SLOAD DIV MUL DUP4 MSTORE SWAP2 PUSH1 0x20 ADD SWAP2 PUSH2 0x1998 JUMP JUMPDEST DUP3 ADD SWAP2 SWAP1 PUSH1 0x0 MSTORE PUSH1 0x20 PUSH1 0x0 KECCAK256 SWAP1 JUMPDEST DUP2 SLOAD DUP2 MSTORE SWAP1 PUSH1 0x1 ADD SWAP1 PUSH1 0x20 ADD DUP1 DUP4 GT PUSH2 0x197B JUMPI DUP3 SWAP1 SUB PUSH1 0x1F AND DUP3 ADD SWAP2 JUMPDEST POP POP POP POP POP DUP2 MSTORE PUSH1 0x20 ADD PUSH1 0x1 DUP3 ADD DUP1 SLOAD PUSH2 0x19B1 SWAP1 PUSH2 0x3A5F JUMP JUMPDEST DUP1 PUSH1 0x1F ADD PUSH1 0x20 DUP1 SWAP2 DIV MUL PUSH1 0x20 ADD PUSH1 0x40 MLOAD SWAP1 DUP2 ADD PUSH1 0x40 MSTORE DUP1 SWAP3 SWAP2 SWAP1 DUP2 DUP2 MSTORE PUSH1 0x20 ADD DUP3 DUP1 SLOAD PUSH2 0x19DD SWAP1 PUSH2 0x3A5F JUMP JUMPDEST DUP1 ISZERO PUSH2 0x1A2A JUMPI DUP1 PUSH1 0x1F LT PUSH2 0x19FF JUMPI PUSH2 0x100 DUP1 DUP4 SLOAD DIV MUL DUP4 MSTORE SWAP2 PUSH1 0x20 ADD SWAP2 PUSH2 0x1A2A JUMP JUMPDEST DUP3 ADD SWAP2 SWAP1 PUSH1 0x0 MSTORE PUSH1 0x20 PUSH1 0x0 KECCAK256 SWAP1 JUMPDEST DUP2 SLOAD DUP2 MSTORE SWAP1 PUSH1 0x1 ADD SWAP1 PUSH1 0x20 ADD DUP1 DUP4 GT PUSH2 0x1A0D JUMPI DUP3 SWAP1 SUB PUSH1 0x1F AND DUP3 ADD SWAP2 JUMPDEST POP POP POP SWAP2 DUP4 MSTORE POP POP PUSH1 0x2 DUP3 ADD SLOAD PUSH1 0xFF SWAP1 DUP2 AND PUSH1 0x20 DUP4 ADD MSTORE PUSH1 0x3 DUP4 ADD SLOAD PUSH1 0x40 DUP4 ADD MSTORE PUSH1 0x4 DUP4 ADD SLOAD PUSH1 0x1 PUSH1 0x1 PUSH1 0xA0 SHL SUB SWAP1 DUP2 AND PUSH1 0x60 DUP5 ADD MSTORE PUSH1 0x5 DUP5 ADD SLOAD SWAP1 DUP2 AND PUSH1 0x80 DUP5 ADD MSTORE PUSH1 0xA0 SWAP1 SWAP3 ADD SWAP2 PUSH1 0x1 PUSH1 0xA0 SHL SWAP1 DIV AND PUSH1 0x1 DUP2 GT ISZERO PUSH2 0x1A8C JUMPI PUSH2 0x1A8C PUSH2 0x3411 JUMP JUMPDEST PUSH1 0x1 DUP2 GT ISZERO PUSH2 0x1A9D JUMPI PUSH2 0x1A9D PUSH2 0x3411 JUMP JUMPDEST DUP2 MSTORE PUSH1 0x6 DUP3 ADD SLOAD PUSH1 0x20 DUP3 ADD MSTORE PUSH1 0x7 DUP3 ADD SLOAD PUSH1 0x40 DUP3 ADD MSTORE PUSH1 0x8 DUP3 ADD SLOAD PUSH1 0x60 DUP3 ADD MSTORE PUSH1 0x9 DUP3 ADD SLOAD PUSH1 0x80 DUP3 ADD MSTORE PUSH1 0xA SWAP1 SWAP2 ADD SLOAD PUSH1 0x1 PUSH1 0x1 PUSH1 0xA0 SHL SUB AND PUSH1 0xA0 SWAP1 SWAP2 ADD MSTORE SWAP4 SWAP3 POP POP POP JUMP JUMPDEST PUSH1 0x0 DUP1 PUSH2 0x1AF3 DUP5 PUSH1 0x20 ADD MLOAD PUSH2 0x1826 JUMP JUMPDEST SWAP1 POP DUP4 PUSH1 0x40 ADD MLOAD ISZERO PUSH2 0x1B5B JUMPI PUSH2 0x1B11 DUP5 PUSH1 0x0 ADD MLOAD DUP6 PUSH1 0xC0 ADD MLOAD PUSH2 0x301F JUMP JUMPDEST PUSH2 0x1B1F JUMPI PUSH1 0x0 SWAP2 POP POP PUSH2 0x45C JUMP JUMPDEST PUSH1 0xC0 DUP5 ADD MLOAD PUSH1 0x80 DUP3 ADD MLOAD PUSH1 0x1 PUSH1 0x1 PUSH1 0xA0 SHL SUB AND PUSH1 0x0 SWAP1 DUP2 MSTORE PUSH1 0x8 PUSH1 0x20 MSTORE PUSH1 0x40 DUP2 KECCAK256 DUP1 SLOAD SWAP1 SWAP2 SWAP1 PUSH2 0x1B50 SWAP1 DUP5 SWAP1 PUSH2 0x39D3 JUMP JUMPDEST SWAP1 SWAP2 SSTORE POP PUSH2 0x1BE9 SWAP1 POP JUMP JUMPDEST PUSH2 0x1B6E DUP2 DUP6 PUSH1 0x0 ADD MLOAD DUP7 PUSH1 0xC0 ADD MLOAD PUSH2 0x2E24 JUMP JUMPDEST PUSH2 0x1B7C JUMPI PUSH1 0x0 SWAP2 POP POP PUSH2 0x45C JUMP JUMPDEST PUSH1 0xC0 DUP5 ADD MLOAD PUSH1 0x80 DUP3 ADD MLOAD PUSH1 0x1 PUSH1 0x1 PUSH1 0xA0 SHL SUB AND PUSH1 0x0 SWAP1 DUP2 MSTORE PUSH1 0x9 PUSH1 0x20 MSTORE PUSH1 0x40 DUP2 KECCAK256 DUP1 SLOAD SWAP1 SWAP2 SWAP1 PUSH2 0x1BAD SWAP1 DUP5 SWAP1 PUSH2 0x39D3 JUMP JUMPDEST SWAP1 SWAP2 SSTORE POP POP PUSH1 0xC0 DUP5 ADD MLOAD PUSH1 0x80 DUP3 ADD MLOAD PUSH1 0x1 PUSH1 0x1 PUSH1 0xA0 SHL SUB AND PUSH1 0x0 SWAP1 DUP2 MSTORE PUSH1 0xA PUSH1 0x20 MSTORE PUSH1 0x40 DUP2 KECCAK256 DUP1 SLOAD SWAP1 SWAP2 SWAP1 PUSH2 0x1BE3 SWAP1 DUP5 SWAP1 PUSH2 0x39D3 JUMP JUMPDEST SWAP1 SWAP2 SSTORE POP POP JUMPDEST PUSH32 0x3D8DA260C5E35DCBA4A38C844B979A7C70C6FDBED58BE53DA6E817EF6A2541E0 DUP4 DUP6 PUSH1 0x40 ADD MLOAD DUP7 PUSH1 0x0 ADD MLOAD PUSH1 0x40 MLOAD PUSH2 0x1C24 SWAP4 SWAP3 SWAP2 SWAP1 PUSH2 0x3BC8 JUMP JUMPDEST PUSH1 0x40 MLOAD DUP1 SWAP2 SUB SWAP1 LOG1 PUSH2 0x1C37 PUSH1 0x3 DUP5 PUSH2 0x266A JUMP JUMPDEST POP PUSH1 0x1 SWAP4 SWAP3 POP POP POP JUMP JUMPDEST DUP2 SLOAD PUSH1 0x0 SWAP1 PUSH2 0x1C52 SWAP1 PUSH1 0x1 SWAP1 PUSH2 0x39D3 JUMP JUMPDEST SWAP1 POP DUP1 DUP3 EQ PUSH2 0x1C97 JUMPI DUP3 DUP2 DUP2 SLOAD DUP2 LT PUSH2 0x1C6D JUMPI PUSH2 0x1C6D PUSH2 0x397B JUMP JUMPDEST SWAP1 PUSH1 0x0 MSTORE PUSH1 0x20 PUSH1 0x0 KECCAK256 ADD SLOAD DUP4 DUP4 DUP2 SLOAD DUP2 LT PUSH2 0x1C8A JUMPI PUSH2 0x1C8A PUSH2 0x397B JUMP JUMPDEST PUSH1 0x0 SWAP2 DUP3 MSTORE PUSH1 0x20 SWAP1 SWAP2 KECCAK256 ADD SSTORE JUMPDEST DUP3 DUP1 SLOAD DUP1 PUSH2 0x1CA7 JUMPI PUSH2 0x1CA7 PUSH2 0x3BF0 JUMP JUMPDEST PUSH1 0x1 SWAP1 SUB DUP2 DUP2 SWAP1 PUSH1 0x0 MSTORE PUSH1 0x20 PUSH1 0x0 KECCAK256 ADD PUSH1 0x0 SWAP1 SSTORE SWAP1 SSTORE POP POP POP JUMP JUMPDEST PUSH1 0x1 PUSH1 0x1 PUSH1 0xA0 SHL SUB DUP2 AND PUSH1 0x0 SWAP1 DUP2 MSTORE PUSH1 0x5 PUSH1 0x20 MSTORE PUSH1 0x40 DUP2 KECCAK256 SLOAD DUP1 ISZERO DUP1 PUSH2 0x1CE9 JUMPI POP PUSH1 0x2 SLOAD DUP2 GT JUMPDEST ISZERO PUSH2 0x1D07 JUMPI PUSH1 0x40 MLOAD PUSH4 0x62F850F7 PUSH1 0xE1 SHL DUP2 MSTORE PUSH1 0x4 ADD PUSH1 0x40 MLOAD DUP1 SWAP2 SUB SWAP1 REVERT JUMPDEST PUSH1 0x2 PUSH2 0x1D14 PUSH1 0x1 DUP4 PUSH2 0x39D3 JUMP JUMPDEST DUP2 SLOAD DUP2 LT PUSH2 0x1D24 JUMPI PUSH2 0x1D24 PUSH2 0x397B JUMP JUMPDEST SWAP1 PUSH1 0x0 MSTORE PUSH1 0x20 PUSH1 0x0 KECCAK256 SWAP1 PUSH1 0xB MUL ADD SWAP2 POP POP SWAP2 SWAP1 POP JUMP JUMPDEST PUSH1 0x40 MLOAD PUSH4 0x23B872DD PUSH1 0xE0 SHL DUP2 MSTORE PUSH1 0x0 SWAP1 PUSH1 0x1 PUSH1 0x1 PUSH1 0xA0 SHL SUB DUP6 AND SWAP1 PUSH4 0x23B872DD SWAP1 PUSH2 0x1D6D SWAP1 DUP7 SWAP1 ADDRESS SWAP1 DUP8 SWAP1 PUSH1 0x4 ADD PUSH2 0x3C06 JUMP JUMPDEST PUSH1 0x20 PUSH1 0x40 MLOAD DUP1 DUP4 SUB DUP2 PUSH1 0x0 DUP8 GAS CALL SWAP3 POP POP POP DUP1 ISZERO PUSH2 0x1DA8 JUMPI POP PUSH1 0x40 DUP1 MLOAD PUSH1 0x1F RETURNDATASIZE SWAP1 DUP2 ADD PUSH1 0x1F NOT AND DUP3 ADD SWAP1 SWAP3 MSTORE PUSH2 0x1DA5 SWAP2 DUP2 ADD SWAP1 PUSH2 0x3C39 JUMP JUMPDEST PUSH1 0x1 JUMPDEST PUSH2 0x1DB4 JUMPI POP PUSH1 0x0 PUSH2 0x60D JUMP JUMPDEST SWAP5 SWAP4 POP POP POP POP JUMP JUMPDEST PUSH1 0x0 DUP1 PUSH1 0x5 DUP6 ADD SLOAD PUSH1 0x1 PUSH1 0xA0 SHL SWAP1 DIV PUSH1 0xFF AND PUSH1 0x1 DUP2 GT ISZERO PUSH2 0x1DDF JUMPI PUSH2 0x1DDF PUSH2 0x3411 JUMP JUMPDEST SUB PUSH2 0x1E03 JUMPI PUSH2 0x1DEC PUSH2 0x1769 JUMP JUMPDEST PUSH2 0x1DFC PUSH1 0xB SLOAD DUP6 PUSH1 0x8 ADD SLOAD PUSH2 0x2CD8 JUMP JUMPDEST SWAP1 POP PUSH2 0x21AF JUMP JUMPDEST PUSH1 0x1 PUSH1 0x5 DUP6 ADD SLOAD PUSH1 0x1 PUSH1 0xA0 SHL SWAP1 DIV PUSH1 0xFF AND PUSH1 0x1 DUP2 GT ISZERO PUSH2 0x1E25 JUMPI PUSH2 0x1E25 PUSH2 0x3411 JUMP JUMPDEST SUB PUSH2 0x21AF JUMPI PUSH1 0x0 DUP5 PUSH1 0x9 ADD SLOAD PUSH1 0x0 EQ DUP1 PUSH2 0x1E4F JUMPI POP PUSH1 0xF0 DUP6 PUSH1 0x9 ADD SLOAD TIMESTAMP PUSH2 0x1E4C SWAP2 SWAP1 PUSH2 0x39D3 JUMP JUMPDEST LT ISZERO JUMPDEST SWAP1 POP DUP1 ISZERO PUSH2 0x21A5 JUMPI PUSH1 0x0 PUSH1 0x2 PUSH1 0x0 DUP2 SLOAD DUP2 LT PUSH2 0x1E6D JUMPI PUSH2 0x1E6D PUSH2 0x397B JUMP JUMPDEST SWAP1 PUSH1 0x0 MSTORE PUSH1 0x20 PUSH1 0x0 KECCAK256 SWAP1 PUSH1 0xB MUL ADD PUSH1 0x40 MLOAD DUP1 PUSH2 0x180 ADD PUSH1 0x40 MSTORE SWAP1 DUP2 PUSH1 0x0 DUP3 ADD DUP1 SLOAD PUSH2 0x1E97 SWAP1 PUSH2 0x3A5F JUMP JUMPDEST DUP1 PUSH1 0x1F ADD PUSH1 0x20 DUP1 SWAP2 DIV MUL PUSH1 0x20 ADD PUSH1 0x40 MLOAD SWAP1 DUP2 ADD PUSH1 0x40 MSTORE DUP1 SWAP3 SWAP2 SWAP1 DUP2 DUP2 MSTORE PUSH1 0x20 ADD DUP3 DUP1 SLOAD PUSH2 0x1EC3 SWAP1 PUSH2 0x3A5F JUMP JUMPDEST DUP1 ISZERO PUSH2 0x1F10 JUMPI DUP1 PUSH1 0x1F LT PUSH2 0x1EE5 JUMPI PUSH2 0x100 DUP1 DUP4 SLOAD DIV MUL DUP4 MSTORE SWAP2 PUSH1 0x20 ADD SWAP2 PUSH2 0x1F10 JUMP JUMPDEST DUP3 ADD SWAP2 SWAP1 PUSH1 0x0 MSTORE PUSH1 0x20 PUSH1 0x0 KECCAK256 SWAP1 JUMPDEST DUP2 SLOAD DUP2 MSTORE SWAP1 PUSH1 0x1 ADD SWAP1 PUSH1 0x20 ADD DUP1 DUP4 GT PUSH2 0x1EF3 JUMPI DUP3 SWAP1 SUB PUSH1 0x1F AND DUP3 ADD SWAP2 JUMPDEST POP POP POP POP POP DUP2 MSTORE PUSH1 0x20 ADD PUSH1 0x1 DUP3 ADD DUP1 SLOAD PUSH2 0x1F29 SWAP1 PUSH2 0x3A5F JUMP JUMPDEST DUP1 PUSH1 0x1F ADD PUSH1 0x20 DUP1 SWAP2 DIV MUL PUSH1 0x20 ADD PUSH1 0x40 MLOAD SWAP1 DUP2 ADD PUSH1 0x40 MSTORE DUP1 SWAP3 SWAP2 SWAP1 DUP2 DUP2 MSTORE PUSH1 0x20 ADD DUP3 DUP1 SLOAD PUSH2 0x1F55 SWAP1 PUSH2 0x3A5F JUMP JUMPDEST DUP1 ISZERO PUSH2 0x1FA2 JUMPI DUP1 PUSH1 0x1F LT PUSH2 0x1F77 JUMPI PUSH2 0x100 DUP1 DUP4 SLOAD DIV MUL DUP4 MSTORE SWAP2 PUSH1 0x20 ADD SWAP2 PUSH2 0x1FA2 JUMP JUMPDEST DUP3 ADD SWAP2 SWAP1 PUSH1 0x0 MSTORE PUSH1 0x20 PUSH1 0x0 KECCAK256 SWAP1 JUMPDEST DUP2 SLOAD DUP2 MSTORE SWAP1 PUSH1 0x1 ADD SWAP1 PUSH1 0x20 ADD DUP1 DUP4 GT PUSH2 0x1F85 JUMPI DUP3 SWAP1 SUB PUSH1 0x1F AND DUP3 ADD SWAP2 JUMPDEST POP POP POP SWAP2 DUP4 MSTORE POP POP PUSH1 0x2 DUP3 ADD SLOAD PUSH1 0xFF SWAP1 DUP2 AND PUSH1 0x20 DUP4 ADD MSTORE PUSH1 0x3 DUP4 ADD SLOAD PUSH1 0x40 DUP4 ADD MSTORE PUSH1 0x4 DUP4 ADD SLOAD PUSH1 0x1 PUSH1 0x1 PUSH1 0xA0 SHL SUB SWAP1 DUP2 AND PUSH1 0x60 DUP5 ADD MSTORE PUSH1 0x5 DUP5 ADD SLOAD SWAP1 DUP2 AND PUSH1 0x80 DUP5 ADD MSTORE PUSH1 0xA0 SWAP1 SWAP3 ADD SWAP2 PUSH1 0x1 PUSH1 0xA0 SHL SWAP1 DIV AND PUSH1 0x1 DUP2 GT ISZERO PUSH2 0x2004 JUMPI PUSH2 0x2004 PUSH2 0x3411 JUMP JUMPDEST PUSH1 0x1 DUP2 GT ISZERO PUSH2 0x2015 JUMPI PUSH2 0x2015 PUSH2 0x3411 JUMP JUMPDEST DUP2 MSTORE PUSH1 0x6 DUP3 ADD SLOAD PUSH1 0x20 DUP3 ADD MSTORE PUSH1 0x7 DUP3 ADD SLOAD PUSH1 0x40 DUP1 DUP4 ADD SWAP2 SWAP1 SWAP2 MSTORE PUSH1 0x8 DUP4 ADD SLOAD PUSH1 0x60 DUP4 ADD MSTORE PUSH1 0x9 DUP4 ADD SLOAD PUSH1 0x80 DUP4 ADD MSTORE PUSH1 0xA SWAP3 DUP4 ADD SLOAD PUSH1 0x1 PUSH1 0x1 PUSH1 0xA0 SHL SUB SWAP1 DUP2 AND PUSH1 0xA0 SWAP1 SWAP4 ADD SWAP3 SWAP1 SWAP3 MSTORE SWAP2 DUP10 ADD SLOAD PUSH2 0x160 DUP5 ADD MLOAD PUSH1 0x5 DUP12 ADD SLOAD SWAP4 MLOAD PUSH4 0x70A08231 PUSH1 0xE0 SHL DUP2 MSTORE SWAP5 SWAP6 POP SWAP1 DUP3 AND SWAP4 SWAP1 SWAP3 PUSH1 0x0 SWAP3 DUP6 SWAP3 PUSH4 0x70A08231 SWAP3 PUSH2 0x209A SWAP3 AND SWAP1 PUSH1 0x4 ADD PUSH2 0x38A6 JUMP JUMPDEST PUSH1 0x20 PUSH1 0x40 MLOAD DUP1 DUP4 SUB DUP2 DUP7 GAS STATICCALL ISZERO DUP1 ISZERO PUSH2 0x20B7 JUMPI RETURNDATASIZE PUSH1 0x0 DUP1 RETURNDATACOPY RETURNDATASIZE PUSH1 0x0 REVERT JUMPDEST POP POP POP POP PUSH1 0x40 MLOAD RETURNDATASIZE PUSH1 0x1F NOT PUSH1 0x1F DUP3 ADD AND DUP3 ADD DUP1 PUSH1 0x40 MSTORE POP DUP2 ADD SWAP1 PUSH2 0x20DB SWAP2 SWAP1 PUSH2 0x399C JUMP JUMPDEST PUSH1 0x5 DUP11 ADD SLOAD PUSH1 0x40 MLOAD PUSH4 0x70A08231 PUSH1 0xE0 SHL DUP2 MSTORE SWAP2 SWAP3 POP PUSH1 0x0 SWAP2 PUSH1 0x1 PUSH1 0x1 PUSH1 0xA0 SHL SUB DUP6 DUP2 AND SWAP3 PUSH4 0x70A08231 SWAP3 PUSH2 0x2115 SWAP3 SWAP1 SWAP2 AND SWAP1 PUSH1 0x4 ADD PUSH2 0x38A6 JUMP JUMPDEST PUSH1 0x20 PUSH1 0x40 MLOAD DUP1 DUP4 SUB DUP2 DUP7 GAS STATICCALL ISZERO DUP1 ISZERO PUSH2 0x2132 JUMPI RETURNDATASIZE PUSH1 0x0 DUP1 RETURNDATACOPY RETURNDATASIZE PUSH1 0x0 REVERT JUMPDEST POP POP POP POP PUSH1 0x40 MLOAD RETURNDATASIZE PUSH1 0x1F NOT PUSH1 0x1F DUP3 ADD AND DUP3 ADD DUP1 PUSH1 0x40 MSTORE POP DUP2 ADD SWAP1 PUSH2 0x2156 SWAP2 SWAP1 PUSH2 0x399C JUMP JUMPDEST PUSH1 0x2 DUP12 ADD SLOAD SWAP1 SWAP2 POP PUSH2 0x216C SWAP1 DUP4 SWAP1 PUSH1 0xFF AND PUSH2 0x2CA3 JUMP JUMPDEST SWAP2 POP PUSH2 0x217F DUP2 DUP7 PUSH1 0x40 ADD MLOAD PUSH1 0xFF AND PUSH2 0x2CA3 JUMP JUMPDEST SWAP1 POP PUSH2 0x218B DUP2 DUP4 PUSH2 0x2CD8 JUMP JUMPDEST PUSH1 0x8 DUP12 ADD DUP2 SWAP1 SSTORE TIMESTAMP PUSH1 0x9 DUP13 ADD SSTORE SWAP7 POP PUSH2 0x21AD SWAP5 POP POP POP POP POP JUMP JUMPDEST DUP5 PUSH1 0x8 ADD SLOAD SWAP2 POP JUMPDEST POP JUMPDEST PUSH1 0x0 DUP4 ISZERO PUSH2 0x21DB JUMPI PUSH1 0x2 DUP6 ADD SLOAD PUSH2 0x21D4 SWAP1 PUSH2 0x21CE SWAP1 DUP6 SWAP1 PUSH1 0xFF AND PUSH2 0x2CA3 JUMP JUMPDEST DUP4 PUSH2 0x2CD8 JUMP JUMPDEST SWAP1 POP PUSH2 0x21FB JUMP JUMPDEST PUSH1 0x2 DUP6 ADD SLOAD PUSH2 0x21F8 SWAP1 PUSH2 0x21F2 SWAP1 DUP6 SWAP1 PUSH1 0xFF AND PUSH2 0x2CA3 JUMP JUMPDEST DUP4 PUSH2 0x2CCC JUMP JUMPDEST SWAP1 POP JUMPDEST PUSH1 0x0 DUP6 PUSH1 0x7 ADD SLOAD DUP4 LT PUSH2 0x220F JUMPI POP PUSH1 0x6 DUP6 ADD SLOAD JUMPDEST PUSH1 0x40 DUP1 MLOAD PUSH2 0x100 DUP2 ADD DUP3 MSTORE CALLER DUP2 MSTORE PUSH1 0x4 DUP9 ADD SLOAD PUSH1 0x1 PUSH1 0x1 PUSH1 0xA0 SHL SUB SWAP1 DUP2 AND PUSH1 0x20 DUP4 ADD SWAP1 DUP2 MSTORE DUP9 ISZERO ISZERO SWAP4 DUP4 ADD SWAP4 DUP5 MSTORE TIMESTAMP PUSH1 0x60 DUP5 ADD SWAP1 DUP2 MSTORE PUSH1 0x80 DUP5 ADD DUP7 DUP2 MSTORE PUSH1 0xA0 DUP6 ADD DUP10 DUP2 MSTORE PUSH1 0xC0 DUP7 ADD DUP12 DUP2 MSTORE PUSH1 0xE0 DUP8 ADD DUP11 DUP2 MSTORE PUSH1 0x3 DUP1 SLOAD PUSH1 0x1 DUP2 DUP2 ADD DUP4 SSTORE PUSH1 0x0 DUP4 DUP2 MSTORE DUP12 MLOAD PUSH1 0x7 SWAP1 SWAP4 MUL PUSH32 0xC2575A0E9E593C00F959F8C92F12DB2869C3395A3B0502D05E2516446F71F85B DUP2 ADD DUP1 SLOAD SWAP5 DUP14 AND PUSH1 0x1 PUSH1 0x1 PUSH1 0xA0 SHL SUB NOT SWAP1 SWAP6 AND SWAP5 SWAP1 SWAP5 OR SWAP1 SWAP4 SSTORE SWAP9 MLOAD PUSH32 0xC2575A0E9E593C00F959F8C92F12DB2869C3395A3B0502D05E2516446F71F85C DUP4 ADD DUP1 SLOAD SWAP14 MLOAD ISZERO ISZERO PUSH1 0x1 PUSH1 0xA0 SHL MUL PUSH1 0x1 PUSH1 0x1 PUSH1 0xA8 SHL SUB NOT SWAP1 SWAP15 AND SWAP2 SWAP1 SWAP12 AND OR SWAP12 SWAP1 SWAP12 OR SWAP1 SWAP9 SSTORE SWAP5 MLOAD PUSH32 0xC2575A0E9E593C00F959F8C92F12DB2869C3395A3B0502D05E2516446F71F85D DUP9 ADD SSTORE SWAP3 MLOAD PUSH32 0xC2575A0E9E593C00F959F8C92F12DB2869C3395A3B0502D05E2516446F71F85E DUP8 ADD SSTORE SWAP1 MLOAD PUSH32 0xC2575A0E9E593C00F959F8C92F12DB2869C3395A3B0502D05E2516446F71F85F DUP7 ADD SSTORE MLOAD PUSH32 0xC2575A0E9E593C00F959F8C92F12DB2869C3395A3B0502D05E2516446F71F860 DUP6 ADD SSTORE MLOAD PUSH32 0xC2575A0E9E593C00F959F8C92F12DB2869C3395A3B0502D05E2516446F71F861 SWAP1 SWAP4 ADD SWAP3 SWAP1 SWAP3 SSTORE SWAP1 SLOAD SWAP2 SWAP3 SWAP1 SWAP2 PUSH2 0x23CC SWAP2 SWAP1 PUSH2 0x39D3 JUMP JUMPDEST CALLER PUSH1 0x0 SWAP1 DUP2 MSTORE PUSH1 0x7 PUSH1 0x20 SWAP1 DUP2 MSTORE PUSH1 0x40 DUP1 DUP4 KECCAK256 DUP1 SLOAD PUSH1 0x1 DUP2 DUP2 ADD DUP4 SSTORE SWAP2 DUP6 MSTORE DUP4 DUP6 KECCAK256 ADD DUP6 SWAP1 SSTORE PUSH1 0x4 DUP14 ADD DUP1 SLOAD PUSH1 0x1 PUSH1 0x1 PUSH1 0xA0 SHL SUB SWAP1 DUP2 AND DUP7 MSTORE PUSH1 0x6 DUP6 MSTORE DUP4 DUP7 KECCAK256 DUP1 SLOAD SWAP4 DUP5 ADD DUP2 SSTORE DUP7 MSTORE SWAP4 SWAP1 SWAP5 KECCAK256 ADD DUP5 SWAP1 SSTORE SWAP2 SLOAD SWAP2 MLOAD SWAP3 SWAP4 POP PUSH32 0x96D694E92C01C8197B4CF2ECB0EC03BE940CC6E384CBDFB2AFB329375A0BE252 SWAP3 PUSH2 0x2459 SWAP3 DUP6 SWAP3 DUP13 SWAP3 SWAP2 AND SWAP1 DUP12 SWAP1 DUP12 SWAP1 PUSH2 0x3C5A JUMP JUMPDEST PUSH1 0x40 MLOAD DUP1 SWAP2 SUB SWAP1 LOG1 POP POP POP POP POP POP POP POP JUMP JUMPDEST PUSH1 0x0 DUP1 PUSH1 0x0 DUP1 DUP7 PUSH1 0x6 ADD SLOAD DUP6 LT SWAP1 POP DUP1 ISZERO PUSH2 0x2488 JUMPI DUP5 SWAP2 POP PUSH2 0x2490 JUMP JUMPDEST DUP7 PUSH1 0x6 ADD SLOAD SWAP2 POP JUMPDEST DUP7 SLOAD PUSH2 0x24A7 SWAP1 DUP10 SWAP1 PUSH1 0x1 PUSH1 0x1 PUSH1 0xA0 SHL SUB AND DUP5 PUSH2 0x2E24 JUMP JUMPDEST ISZERO PUSH2 0x24F6 JUMPI PUSH2 0x24B6 DUP3 DUP7 PUSH2 0x39D3 JUMP JUMPDEST SWAP5 POP DUP1 ISZERO PUSH2 0x24F1 JUMPI DUP2 DUP8 PUSH1 0x6 ADD PUSH1 0x0 DUP3 DUP3 SLOAD PUSH2 0x24D2 SWAP2 SWAP1 PUSH2 0x39D3 JUMP JUMPDEST SWAP3 POP POP DUP2 SWAP1 SSTORE POP PUSH2 0x24EB DUP8 PUSH1 0x6 ADD SLOAD DUP9 PUSH1 0x4 ADD SLOAD PUSH2 0x2CCC JUMP JUMPDEST PUSH1 0x5 DUP9 ADD SSTORE JUMPDEST PUSH2 0x2504 JUMP JUMPDEST PUSH1 0x0 DUP6 SWAP4 POP SWAP4 POP POP POP PUSH2 0x2565 JUMP JUMPDEST PUSH1 0x1 DUP8 ADD SLOAD DUP8 SLOAD PUSH1 0x40 MLOAD PUSH32 0xBDB78CC9B5D01BDAC074DF120CC9776D231060CDCDCC8C7F6C2039F67A5E626F SWAP3 PUSH2 0x2555 SWAP3 DUP11 SWAP3 PUSH1 0x1 PUSH1 0xA0 SHL SWAP1 SWAP3 DIV PUSH1 0xFF AND SWAP2 PUSH1 0x1 PUSH1 0x1 PUSH1 0xA0 SHL SUB SWAP1 SWAP2 AND SWAP1 DUP7 SWAP1 PUSH2 0x3CA6 JUMP JUMPDEST PUSH1 0x40 MLOAD DUP1 SWAP2 SUB SWAP1 LOG1 ISZERO SWAP3 POP DUP4 SWAP2 POP POP JUMPDEST SWAP5 POP SWAP5 SWAP3 POP POP POP JUMP JUMPDEST PUSH1 0x0 DUP1 PUSH1 0x0 DUP1 DUP7 PUSH1 0x6 ADD SLOAD DUP7 LT SWAP1 POP DUP1 ISZERO PUSH2 0x258B JUMPI DUP6 SWAP2 POP PUSH2 0x2593 JUMP JUMPDEST DUP7 PUSH1 0x6 ADD SLOAD SWAP2 POP JUMPDEST DUP7 SLOAD PUSH2 0x25A8 SWAP1 PUSH1 0x1 PUSH1 0x1 PUSH1 0xA0 SHL SUB AND DUP4 PUSH2 0x301F JUMP JUMPDEST ISZERO PUSH2 0x2658 JUMPI PUSH2 0x25B7 DUP3 DUP8 PUSH2 0x39D3 JUMP JUMPDEST SWAP6 POP DUP1 ISZERO PUSH2 0x25F2 JUMPI DUP2 DUP8 PUSH1 0x6 ADD PUSH1 0x0 DUP3 DUP3 SLOAD PUSH2 0x25D3 SWAP2 SWAP1 PUSH2 0x39D3 JUMP JUMPDEST SWAP3 POP POP DUP2 SWAP1 SSTORE POP PUSH2 0x25EC DUP8 PUSH1 0x6 ADD SLOAD DUP9 PUSH1 0x4 ADD SLOAD PUSH2 0x2CD8 JUMP JUMPDEST PUSH1 0x5 DUP9 ADD SSTORE JUMPDEST PUSH1 0x1 DUP8 ADD SLOAD DUP8 SLOAD PUSH1 0x40 MLOAD PUSH32 0xBDB78CC9B5D01BDAC074DF120CC9776D231060CDCDCC8C7F6C2039F67A5E626F SWAP3 PUSH2 0x2643 SWAP3 DUP10 SWAP3 PUSH1 0x1 PUSH1 0xA0 SHL SWAP1 SWAP3 DIV PUSH1 0xFF AND SWAP2 PUSH1 0x1 PUSH1 0x1 PUSH1 0xA0 SHL SUB SWAP1 SWAP2 AND SWAP1 DUP7 SWAP1 PUSH2 0x3CA6 JUMP JUMPDEST PUSH1 0x40 MLOAD DUP1 SWAP2 SUB SWAP1 LOG1 ISZERO SWAP3 POP DUP5 SWAP2 POP PUSH2 0x2662 SWAP1 POP JUMP JUMPDEST PUSH1 0x0 DUP7 SWAP4 POP SWAP4 POP POP POP JUMPDEST SWAP4 POP SWAP4 SWAP2 POP POP JUMP JUMPDEST DUP2 SLOAD PUSH1 0x0 SWAP1 PUSH2 0x267B SWAP1 PUSH1 0x1 SWAP1 PUSH2 0x39D3 JUMP JUMPDEST SWAP1 POP DUP1 DUP3 EQ PUSH2 0x274F JUMPI DUP3 DUP2 DUP2 SLOAD DUP2 LT PUSH2 0x2696 JUMPI PUSH2 0x2696 PUSH2 0x397B JUMP JUMPDEST SWAP1 PUSH1 0x0 MSTORE PUSH1 0x20 PUSH1 0x0 KECCAK256 SWAP1 PUSH1 0x7 MUL ADD DUP4 DUP4 DUP2 SLOAD DUP2 LT PUSH2 0x26B6 JUMPI PUSH2 0x26B6 PUSH2 0x397B JUMP JUMPDEST PUSH1 0x0 SWAP2 DUP3 MSTORE PUSH1 0x20 SWAP1 SWAP2 KECCAK256 DUP3 SLOAD PUSH1 0x7 SWAP1 SWAP3 MUL ADD DUP1 SLOAD PUSH1 0x1 PUSH1 0x1 PUSH1 0xA0 SHL SUB NOT SWAP1 DUP2 AND PUSH1 0x1 PUSH1 0x1 PUSH1 0xA0 SHL SUB SWAP4 DUP5 AND OR DUP3 SSTORE PUSH1 0x1 DUP1 DUP6 ADD DUP1 SLOAD SWAP2 DUP5 ADD DUP1 SLOAD SWAP4 DUP5 AND SWAP3 SWAP1 SWAP6 AND SWAP2 DUP3 OR DUP6 SSTORE SLOAD PUSH1 0xFF PUSH1 0x1 PUSH1 0xA0 SHL SWAP2 DUP3 SWAP1 DIV AND ISZERO ISZERO MUL PUSH1 0x1 PUSH1 0x1 PUSH1 0xA8 SHL SUB NOT SWAP1 SWAP3 AND OR OR SWAP1 SWAP2 SSTORE PUSH1 0x2 DUP1 DUP4 ADD SLOAD SWAP1 DUP3 ADD SSTORE PUSH1 0x3 DUP1 DUP4 ADD SLOAD SWAP1 DUP3 ADD SSTORE PUSH1 0x4 DUP1 DUP4 ADD SLOAD SWAP1 DUP3 ADD SSTORE PUSH1 0x5 DUP1 DUP4 ADD SLOAD SWAP1 DUP3 ADD SSTORE PUSH1 0x6 SWAP2 DUP3 ADD SLOAD SWAP2 ADD SSTORE JUMPDEST DUP3 DUP1 SLOAD DUP1 PUSH2 0x275F JUMPI PUSH2 0x275F PUSH2 0x3BF0 JUMP JUMPDEST PUSH1 0x0 DUP3 DUP2 MSTORE PUSH1 0x20 DUP2 KECCAK256 PUSH1 0x7 PUSH1 0x0 NOT SWAP1 SWAP4 ADD SWAP3 DUP4 MUL ADD DUP1 SLOAD PUSH1 0x1 PUSH1 0x1 PUSH1 0xA0 SHL SUB NOT AND DUP2 SSTORE PUSH1 0x1 DUP2 ADD DUP1 SLOAD PUSH1 0x1 PUSH1 0x1 PUSH1 0xA8 SHL SUB NOT AND SWAP1 SSTORE PUSH1 0x2 DUP2 ADD DUP3 SWAP1 SSTORE PUSH1 0x3 DUP2 ADD DUP3 SWAP1 SSTORE PUSH1 0x4 DUP2 ADD DUP3 SWAP1 SSTORE PUSH1 0x5 DUP2 ADD DUP3 SWAP1 SSTORE PUSH1 0x6 ADD SSTORE SWAP1 SSTORE POP POP POP JUMP JUMPDEST PUSH1 0x0 DUP1 PUSH1 0x0 PUSH2 0x27C9 DUP5 PUSH2 0x2EED JUMP JUMPDEST SWAP2 POP SWAP2 POP DUP1 PUSH2 0x27EB JUMPI PUSH1 0x40 MLOAD PUSH4 0xE6F7D2C7 PUSH1 0xE0 SHL DUP2 MSTORE PUSH1 0x4 ADD PUSH1 0x40 MLOAD DUP1 SWAP2 SUB SWAP1 REVERT JUMPDEST POP SWAP3 SWAP2 POP POP JUMP JUMPDEST PUSH1 0x0 DUP7 SWAP1 POP PUSH1 0x60 DUP1 PUSH1 0x0 DUP1 PUSH1 0x0 DUP6 PUSH1 0x1 PUSH1 0x1 PUSH1 0xA0 SHL SUB AND PUSH4 0x70A08231 ADDRESS PUSH1 0x40 MLOAD DUP3 PUSH4 0xFFFFFFFF AND PUSH1 0xE0 SHL DUP2 MSTORE PUSH1 0x4 ADD PUSH2 0x282B SWAP2 SWAP1 PUSH2 0x38A6 JUMP JUMPDEST PUSH1 0x20 PUSH1 0x40 MLOAD DUP1 DUP4 SUB DUP2 DUP7 GAS STATICCALL SWAP3 POP POP POP DUP1 ISZERO PUSH2 0x2864 JUMPI POP PUSH1 0x40 DUP1 MLOAD PUSH1 0x1F RETURNDATASIZE SWAP1 DUP2 ADD PUSH1 0x1F NOT AND DUP3 ADD SWAP1 SWAP3 MSTORE PUSH2 0x2861 SWAP2 DUP2 ADD SWAP1 PUSH2 0x399C JUMP JUMPDEST PUSH1 0x1 JUMPDEST PUSH2 0x2881 JUMPI PUSH1 0x40 MLOAD PUSH4 0xA6F7ECD PUSH1 0xE2 SHL DUP2 MSTORE PUSH1 0x4 ADD PUSH1 0x40 MLOAD DUP1 SWAP2 SUB SWAP1 REVERT JUMPDEST DUP1 SWAP3 POP DUP7 PUSH1 0x1 PUSH1 0x1 PUSH1 0xA0 SHL SUB AND PUSH4 0x313CE567 PUSH1 0x40 MLOAD DUP2 PUSH4 0xFFFFFFFF AND PUSH1 0xE0 SHL DUP2 MSTORE PUSH1 0x4 ADD PUSH1 0x20 PUSH1 0x40 MLOAD DUP1 DUP4 SUB DUP2 DUP7 GAS STATICCALL SWAP3 POP POP POP DUP1 ISZERO PUSH2 0x28DE JUMPI POP PUSH1 0x40 DUP1 MLOAD PUSH1 0x1F RETURNDATASIZE SWAP1 DUP2 ADD PUSH1 0x1F NOT AND DUP3 ADD SWAP1 SWAP3 MSTORE PUSH2 0x28DB SWAP2 DUP2 ADD SWAP1 PUSH2 0x3CF8 JUMP JUMPDEST PUSH1 0x1 JUMPDEST PUSH2 0x28EB JUMPI PUSH1 0x12 SWAP2 POP PUSH2 0x28EE JUMP JUMPDEST SWAP2 POP JUMPDEST PUSH1 0x12 PUSH1 0xFF DUP4 AND GT ISZERO PUSH2 0x2913 JUMPI PUSH1 0x40 MLOAD PUSH4 0x432C0A5D PUSH1 0xE0 SHL DUP2 MSTORE PUSH1 0x4 ADD PUSH1 0x40 MLOAD DUP1 SWAP2 SUB SWAP1 REVERT JUMPDEST PUSH2 0x291F DUP3 PUSH1 0xFF AND PUSH2 0x30C5 JUMP JUMPDEST SWAP4 POP DUP7 PUSH1 0x1 PUSH1 0x1 PUSH1 0xA0 SHL SUB AND PUSH4 0x6FDDE03 PUSH1 0x40 MLOAD DUP2 PUSH4 0xFFFFFFFF AND PUSH1 0xE0 SHL DUP2 MSTORE PUSH1 0x4 ADD PUSH1 0x0 PUSH1 0x40 MLOAD DUP1 DUP4 SUB DUP2 DUP7 GAS STATICCALL SWAP3 POP POP POP DUP1 ISZERO PUSH2 0x2980 JUMPI POP PUSH1 0x40 MLOAD RETURNDATASIZE PUSH1 0x0 DUP3 RETURNDATACOPY PUSH1 0x1F RETURNDATASIZE SWAP1 DUP2 ADD PUSH1 0x1F NOT AND DUP3 ADD PUSH1 0x40 MSTORE PUSH2 0x297D SWAP2 SWAP1 DUP2 ADD SWAP1 PUSH2 0x3B8D JUMP JUMPDEST PUSH1 0x1 JUMPDEST ISZERO PUSH2 0x2988 JUMPI SWAP6 POP JUMPDEST DUP7 PUSH1 0x1 PUSH1 0x1 PUSH1 0xA0 SHL SUB AND PUSH4 0x95D89B41 PUSH1 0x40 MLOAD DUP2 PUSH4 0xFFFFFFFF AND PUSH1 0xE0 SHL DUP2 MSTORE PUSH1 0x4 ADD PUSH1 0x0 PUSH1 0x40 MLOAD DUP1 DUP4 SUB DUP2 DUP7 GAS STATICCALL SWAP3 POP POP POP DUP1 ISZERO PUSH2 0x29E7 JUMPI POP PUSH1 0x40 MLOAD RETURNDATASIZE PUSH1 0x0 DUP3 RETURNDATACOPY PUSH1 0x1F RETURNDATASIZE SWAP1 DUP2 ADD PUSH1 0x1F NOT AND DUP3 ADD PUSH1 0x40 MSTORE PUSH2 0x29E4 SWAP2 SWAP1 DUP2 ADD SWAP1 PUSH2 0x3B8D JUMP JUMPDEST PUSH1 0x1 JUMPDEST ISZERO PUSH2 0x29EF JUMPI SWAP5 POP JUMPDEST POP PUSH1 0x1 PUSH1 0x1 PUSH1 0xA0 SHL SUB DUP10 AND ISZERO DUP1 ISZERO SWAP1 PUSH2 0x2A08 JUMPI POP PUSH1 0x0 DUP12 GT JUMPDEST ISZERO PUSH2 0x2A26 JUMPI PUSH1 0x40 MLOAD PUSH4 0x27BD7835 PUSH1 0xE1 SHL DUP2 MSTORE PUSH1 0x4 ADD PUSH1 0x40 MLOAD DUP1 SWAP2 SUB SWAP1 REVERT JUMPDEST PUSH1 0x0 PUSH1 0x40 MLOAD DUP1 PUSH2 0x180 ADD PUSH1 0x40 MSTORE DUP1 DUP8 DUP2 MSTORE PUSH1 0x20 ADD DUP7 DUP2 MSTORE PUSH1 0x20 ADD DUP4 PUSH1 0xFF AND DUP2 MSTORE PUSH1 0x20 ADD DUP6 DUP2 MSTORE PUSH1 0x20 ADD DUP15 PUSH1 0x1 PUSH1 0x1 PUSH1 0xA0 SHL SUB AND DUP2 MSTORE PUSH1 0x20 ADD DUP12 PUSH1 0x1 PUSH1 0x1 PUSH1 0xA0 SHL SUB AND DUP2 MSTORE PUSH1 0x20 ADD DUP13 PUSH1 0x1 DUP2 GT ISZERO PUSH2 0x2A7F JUMPI PUSH2 0x2A7F PUSH2 0x3411 JUMP JUMPDEST DUP2 MSTORE PUSH1 0x20 DUP2 ADD DUP12 SWAP1 MSTORE PUSH1 0x40 DUP2 ADD DUP11 SWAP1 MSTORE PUSH1 0x60 DUP2 ADD DUP15 SWAP1 MSTORE PUSH1 0x0 PUSH1 0x80 DUP3 ADD DUP2 SWAP1 MSTORE PUSH1 0x1 PUSH1 0x1 PUSH1 0xA0 SHL SUB DUP11 AND PUSH1 0xA0 SWAP1 SWAP3 ADD SWAP2 SWAP1 SWAP2 MSTORE PUSH1 0x2 DUP1 SLOAD PUSH1 0x1 DUP2 ADD DUP3 SSTORE SWAP2 MSTORE DUP2 MLOAD SWAP2 SWAP3 POP DUP3 SWAP2 PUSH1 0xB SWAP1 SWAP2 MUL PUSH32 0x405787FA12A823E0F2B7631CC41B3BA8828B3321CA811111FA75CD3AA3BB5ACE ADD SWAP1 DUP2 SWAP1 PUSH2 0x2AF9 SWAP1 DUP3 PUSH2 0x3DAA JUMP JUMPDEST POP PUSH1 0x20 DUP3 ADD MLOAD PUSH1 0x1 DUP3 ADD SWAP1 PUSH2 0x2B0E SWAP1 DUP3 PUSH2 0x3DAA JUMP JUMPDEST POP PUSH1 0x40 DUP3 ADD MLOAD PUSH1 0x2 DUP3 ADD DUP1 SLOAD PUSH1 0xFF NOT AND PUSH1 0xFF SWAP1 SWAP3 AND SWAP2 SWAP1 SWAP2 OR SWAP1 SSTORE PUSH1 0x60 DUP3 ADD MLOAD PUSH1 0x3 DUP3 ADD SSTORE PUSH1 0x80 DUP3 ADD MLOAD PUSH1 0x4 DUP3 ADD DUP1 SLOAD PUSH1 0x1 PUSH1 0x1 PUSH1 0xA0 SHL SUB NOT SWAP1 DUP2 AND PUSH1 0x1 PUSH1 0x1 PUSH1 0xA0 SHL SUB SWAP4 DUP5 AND OR SWAP1 SWAP2 SSTORE PUSH1 0xA0 DUP5 ADD MLOAD PUSH1 0x5 DUP5 ADD DUP1 SLOAD SWAP3 DUP4 AND SWAP2 SWAP1 SWAP4 AND SWAP1 DUP2 OR DUP4 SSTORE PUSH1 0xC0 DUP6 ADD MLOAD SWAP3 SWAP2 PUSH1 0x1 PUSH1 0x1 PUSH1 0xA8 SHL SUB NOT AND OR PUSH1 0x1 PUSH1 0xA0 SHL DUP4 PUSH1 0x1 DUP2 GT ISZERO PUSH2 0x2B99 JUMPI PUSH2 0x2B99 PUSH2 0x3411 JUMP JUMPDEST MUL OR SWAP1 SSTORE POP PUSH1 0xE0 DUP3 ADD MLOAD PUSH1 0x6 DUP3 ADD SSTORE PUSH2 0x100 DUP3 ADD MLOAD PUSH1 0x7 DUP3 ADD SSTORE PUSH2 0x120 DUP3 ADD MLOAD PUSH1 0x8 DUP3 ADD SSTORE PUSH2 0x140 DUP3 ADD MLOAD PUSH1 0x9 DUP3 ADD SSTORE PUSH2 0x160 SWAP1 SWAP2 ADD MLOAD PUSH1 0xA SWAP2 DUP3 ADD DUP1 SLOAD PUSH1 0x1 PUSH1 0x1 PUSH1 0xA0 SHL SUB NOT AND PUSH1 0x1 PUSH1 0x1 PUSH1 0xA0 SHL SUB SWAP3 DUP4 AND OR SWAP1 SSTORE PUSH1 0x2 SLOAD PUSH1 0x80 DUP5 ADD DUP1 MLOAD DUP4 AND PUSH1 0x0 SWAP1 DUP2 MSTORE PUSH1 0x5 PUSH1 0x20 SWAP1 DUP2 MSTORE PUSH1 0x40 DUP1 DUP4 KECCAK256 SWAP5 SWAP1 SWAP5 SSTORE SWAP2 MLOAD SWAP1 SWAP4 AND DUP4 MSTORE SWAP3 DUP4 MSTORE SWAP1 DUP2 SWAP1 KECCAK256 DUP6 SWAP1 SSTORE SWAP1 DUP3 ADD MLOAD SWAP1 MLOAD PUSH2 0x2C30 SWAP2 SWAP1 PUSH2 0x3E8F JUMP JUMPDEST PUSH1 0x40 MLOAD SWAP1 DUP2 SWAP1 SUB DUP2 KECCAK256 DUP3 MLOAD SWAP1 SWAP2 PUSH2 0x2C47 SWAP2 SWAP1 PUSH2 0x3E8F JUMP JUMPDEST PUSH1 0x40 MLOAD SWAP1 DUP2 SWAP1 SUB DUP2 KECCAK256 PUSH1 0xC0 DUP5 ADD MLOAD PUSH1 0x80 DUP6 ADD MLOAD PUSH1 0x2 SLOAD SWAP3 SWAP4 PUSH32 0x2B9A73ECC76EBAD22366F66B2436A1725CC4F39AA579663FC941863779316B1B SWAP4 PUSH2 0x2C8C SWAP4 SWAP3 SWAP2 PUSH2 0x3E9B JUMP JUMPDEST PUSH1 0x40 MLOAD DUP1 SWAP2 SUB SWAP1 LOG3 POP POP POP POP POP POP POP POP POP POP POP POP POP JUMP JUMPDEST PUSH1 0x0 DUP2 PUSH1 0x1 EQ PUSH2 0x2CC5 JUMPI PUSH2 0x2CB6 DUP3 PUSH2 0x30C5 JUMP JUMPDEST PUSH2 0x2CC0 SWAP1 DUP5 PUSH2 0x3EA9 JUMP JUMPDEST PUSH2 0x60D JUMP JUMPDEST POP SWAP1 SWAP2 SWAP1 POP JUMP JUMPDEST PUSH1 0x0 PUSH2 0x60D DUP4 DUP4 PUSH2 0x30E6 JUMP JUMPDEST PUSH1 0x0 PUSH2 0x60D DUP4 DUP4 PUSH2 0x30F2 JUMP JUMPDEST PUSH1 0x0 DUP1 PUSH1 0x0 DUP1 DUP8 PUSH1 0x40 ADD MLOAD ISZERO PUSH2 0x2D04 JUMPI POP POP DUP6 MLOAD DUP4 SWAP3 POP DUP5 SWAP2 POP CALLER PUSH2 0x2D11 JUMP JUMPDEST POP POP DUP6 MLOAD DUP5 SWAP3 POP DUP4 SWAP2 POP CALLER SWAP1 JUMPDEST PUSH2 0x2D1C DUP8 DUP3 DUP6 PUSH2 0x2E24 JUMP JUMPDEST PUSH2 0x2D39 JUMPI PUSH1 0x40 MLOAD PUSH4 0x4DE4E1D PUSH1 0xE4 SHL DUP2 MSTORE PUSH1 0x4 ADD PUSH1 0x40 MLOAD DUP1 SWAP2 SUB SWAP1 REVERT JUMPDEST PUSH2 0x2D43 DUP3 DUP6 PUSH2 0x301F JUMP JUMPDEST PUSH2 0x2D60 JUMPI PUSH1 0x40 MLOAD PUSH4 0x4DE4E1D PUSH1 0xE4 SHL DUP2 MSTORE PUSH1 0x4 ADD PUSH1 0x40 MLOAD DUP1 SWAP2 SUB SWAP1 REVERT JUMPDEST PUSH1 0x80 DUP8 ADD MLOAD PUSH1 0x1 PUSH1 0x1 PUSH1 0xA0 SHL SUB AND PUSH1 0x0 SWAP1 DUP2 MSTORE PUSH1 0x8 PUSH1 0x20 MSTORE PUSH1 0x40 DUP2 KECCAK256 DUP1 SLOAD DUP7 SWAP3 SWAP1 PUSH2 0x2D8C SWAP1 DUP5 SWAP1 PUSH2 0x39D3 JUMP JUMPDEST SWAP1 SWAP2 SSTORE POP POP PUSH1 0x80 DUP8 ADD MLOAD PUSH1 0x1 PUSH1 0x1 PUSH1 0xA0 SHL SUB AND PUSH1 0x0 SWAP1 DUP2 MSTORE PUSH1 0x9 PUSH1 0x20 MSTORE PUSH1 0x40 SWAP1 KECCAK256 SLOAD DUP4 LT DUP1 ISZERO PUSH2 0x2DE8 JUMPI PUSH1 0x80 DUP9 ADD MLOAD PUSH1 0x1 PUSH1 0x1 PUSH1 0xA0 SHL SUB AND PUSH1 0x0 SWAP1 DUP2 MSTORE PUSH1 0x9 PUSH1 0x20 MSTORE PUSH1 0x40 DUP2 KECCAK256 DUP1 SLOAD DUP7 SWAP3 SWAP1 PUSH2 0x2DE2 SWAP1 DUP5 SWAP1 PUSH2 0x39D3 JUMP JUMPDEST SWAP1 SWAP2 SSTORE POP POP JUMPDEST PUSH1 0x80 DUP9 ADD MLOAD PUSH1 0x1 PUSH1 0x1 PUSH1 0xA0 SHL SUB AND PUSH1 0x0 SWAP1 DUP2 MSTORE PUSH1 0xA PUSH1 0x20 MSTORE PUSH1 0x40 DUP2 KECCAK256 DUP1 SLOAD DUP7 SWAP3 SWAP1 PUSH2 0x2E14 SWAP1 DUP5 SWAP1 PUSH2 0x39D3 JUMP JUMPDEST SWAP1 SWAP2 SSTORE POP POP POP POP POP POP POP POP POP POP POP JUMP JUMPDEST PUSH2 0x160 DUP4 ADD MLOAD PUSH1 0x40 MLOAD PUSH4 0xA9059CBB PUSH1 0xE0 SHL DUP2 MSTORE PUSH1 0x0 SWAP2 PUSH1 0x1 PUSH1 0x1 PUSH1 0xA0 SHL SUB AND SWAP1 PUSH4 0xA9059CBB SWAP1 PUSH2 0x2E5A SWAP1 DUP7 SWAP1 DUP7 SWAP1 PUSH1 0x4 ADD PUSH2 0x3EC1 JUMP JUMPDEST PUSH1 0x20 PUSH1 0x40 MLOAD DUP1 DUP4 SUB DUP2 PUSH1 0x0 DUP8 GAS CALL SWAP3 POP POP POP DUP1 ISZERO PUSH2 0x2E95 JUMPI POP PUSH1 0x40 DUP1 MLOAD PUSH1 0x1F RETURNDATASIZE SWAP1 DUP2 ADD PUSH1 0x1F NOT AND DUP3 ADD SWAP1 SWAP3 MSTORE PUSH2 0x2E92 SWAP2 DUP2 ADD SWAP1 PUSH2 0x3C39 JUMP JUMPDEST PUSH1 0x1 JUMPDEST PUSH2 0x2EA1 JUMPI POP PUSH1 0x0 PUSH2 0x60D JUMP JUMPDEST DUP1 ISZERO PUSH2 0x1DB4 JUMPI PUSH32 0xA84F763BE5BB36163517FB87C7AF39F875A97866FDF7806EB1B3EAC837AE35EA DUP4 DUP6 DUP8 PUSH1 0x80 ADD MLOAD PUSH1 0x40 MLOAD PUSH2 0x2EDE SWAP4 SWAP3 SWAP2 SWAP1 PUSH2 0x3EDC JUMP JUMPDEST PUSH1 0x40 MLOAD DUP1 SWAP2 SUB SWAP1 LOG1 SWAP1 POP PUSH2 0x60D JUMP JUMPDEST PUSH1 0x0 DUP1 DUP1 DUP1 DUP5 DUP2 DUP1 DUP1 DUP1 DUP1 JUMPDEST DUP6 MLOAD DUP2 LT DUP1 ISZERO PUSH2 0x2F07 JUMPI POP DUP4 ISZERO JUMPDEST ISZERO PUSH2 0x2FF4 JUMPI DUP6 DUP2 DUP2 MLOAD DUP2 LT PUSH2 0x2F1E JUMPI PUSH2 0x2F1E PUSH2 0x397B JUMP JUMPDEST ADD PUSH1 0x20 ADD MLOAD PUSH1 0xF8 SHR SWAP5 POP PUSH1 0x30 DUP6 LT DUP1 ISZERO SWAP1 PUSH2 0x2F3D JUMPI POP PUSH1 0x39 DUP6 PUSH1 0xFF AND GT ISZERO JUMPDEST ISZERO PUSH2 0x2FAC JUMPI DUP7 SWAP8 POP DUP3 ISZERO PUSH2 0x2F5D JUMPI DUP2 PUSH2 0x2F55 DUP2 PUSH2 0x3F04 JUMP JUMPDEST SWAP3 POP POP PUSH2 0x2F6B JUMP JUMPDEST PUSH2 0x2F68 PUSH1 0xA DUP9 PUSH2 0x3EA9 JUMP JUMPDEST SWAP7 POP JUMPDEST PUSH2 0x2F76 DUP3 PUSH1 0xA PUSH2 0x400F JUMP JUMPDEST PUSH2 0x2F81 PUSH1 0x30 DUP8 PUSH2 0x4024 JUMP JUMPDEST PUSH1 0xFF AND PUSH2 0x2F8E SWAP2 SWAP1 PUSH2 0x3EA9 JUMP JUMPDEST PUSH2 0x2F98 SWAP1 DUP9 PUSH2 0x3A1B JUMP JUMPDEST SWAP7 POP DUP7 DUP9 GT ISZERO PUSH2 0x2FA7 JUMPI PUSH1 0x1 SWAP4 POP JUMPDEST PUSH2 0x2FE2 JUMP JUMPDEST DUP5 PUSH1 0xFF AND PUSH1 0x2E SUB PUSH2 0x2FE2 JUMPI DUP3 ISZERO PUSH2 0x2FC2 JUMPI PUSH1 0x1 SWAP4 POP JUMPDEST PUSH1 0x1 SWAP3 POP PUSH1 0x12 SWAP2 POP PUSH2 0x2FD5 DUP3 PUSH1 0xA PUSH2 0x400F JUMP JUMPDEST PUSH2 0x2FDF SWAP1 DUP9 PUSH2 0x3EA9 JUMP JUMPDEST SWAP7 POP JUMPDEST DUP1 PUSH2 0x2FEC DUP2 PUSH2 0x39E6 JUMP JUMPDEST SWAP2 POP POP PUSH2 0x2EF9 JUMP JUMPDEST POP DUP2 PUSH2 0x300F JUMPI PUSH2 0x300C PUSH8 0xDE0B6B3A7640000 DUP8 PUSH2 0x3EA9 JUMP JUMPDEST SWAP6 POP JUMPDEST POP SWAP4 SWAP9 SWAP1 ISZERO SWAP8 POP SWAP6 POP POP POP POP POP POP JUMP JUMPDEST PUSH1 0x0 DUP1 DUP4 PUSH1 0x1 PUSH1 0x1 PUSH1 0xA0 SHL SUB AND DUP4 PUSH1 0x40 MLOAD PUSH2 0x3039 SWAP1 PUSH2 0x4041 JUMP JUMPDEST PUSH1 0x0 PUSH1 0x40 MLOAD DUP1 DUP4 SUB DUP2 DUP6 DUP8 GAS CALL SWAP3 POP POP POP RETURNDATASIZE DUP1 PUSH1 0x0 DUP2 EQ PUSH2 0x3076 JUMPI PUSH1 0x40 MLOAD SWAP2 POP PUSH1 0x1F NOT PUSH1 0x3F RETURNDATASIZE ADD AND DUP3 ADD PUSH1 0x40 MSTORE RETURNDATASIZE DUP3 MSTORE RETURNDATASIZE PUSH1 0x0 PUSH1 0x20 DUP5 ADD RETURNDATACOPY PUSH2 0x307B JUMP JUMPDEST PUSH1 0x60 SWAP2 POP JUMPDEST POP POP SWAP1 POP DUP1 ISZERO PUSH2 0x60D JUMPI PUSH32 0x897F9F8697C0FEE5ACFC2C885618E98D4F0882E71E35D182FACCC1915C01ECB DUP4 DUP6 PUSH1 0x40 MLOAD PUSH2 0x30B6 SWAP3 SWAP2 SWAP1 PUSH2 0x404C JUMP JUMPDEST PUSH1 0x40 MLOAD DUP1 SWAP2 SUB SWAP1 LOG1 SWAP4 SWAP3 POP POP POP JUMP JUMPDEST PUSH1 0x0 DUP2 PUSH1 0x12 SUB PUSH2 0x30D7 JUMPI POP PUSH1 0x1 SWAP2 SWAP1 POP JUMP JUMPDEST DUP2 PUSH1 0x12 SUB PUSH1 0xA EXP SWAP1 POP JUMPDEST SWAP2 SWAP1 POP JUMP JUMPDEST PUSH1 0x0 PUSH2 0x60D DUP4 DUP4 PUSH2 0x3107 JUMP JUMPDEST PUSH1 0x0 PUSH2 0x60D DUP4 PUSH8 0xDE0B6B3A7640000 DUP5 PUSH2 0x31B7 JUMP JUMPDEST PUSH1 0x0 DUP1 DUP1 PUSH1 0x0 NOT DUP5 DUP7 MULMOD DUP5 DUP7 MUL SWAP3 POP DUP3 DUP2 LT DUP4 DUP3 SUB SUB SWAP2 POP POP DUP1 PUSH1 0x0 SUB PUSH2 0x313B JUMPI POP PUSH8 0xDE0B6B3A7640000 SWAP1 DIV SWAP1 POP PUSH2 0x45C JUMP JUMPDEST PUSH8 0xDE0B6B3A7640000 DUP2 LT PUSH2 0x3167 JUMPI DUP5 DUP5 PUSH1 0x40 MLOAD PUSH4 0x69E06FAF PUSH1 0xE1 SHL DUP2 MSTORE PUSH1 0x4 ADD PUSH2 0x12C3 SWAP3 SWAP2 SWAP1 PUSH2 0x407D JUMP JUMPDEST PUSH1 0x0 PUSH8 0xDE0B6B3A7640000 DUP6 DUP8 MULMOD PUSH3 0x40000 DUP2 DUP6 SUB DIV SWAP4 LT SWAP1 SWAP2 SUB PUSH1 0x1 PUSH1 0xEE SHL MUL SWAP2 SWAP1 SWAP2 OR PUSH32 0xACCB18165BD6FE31AE1CF318DC5B51EEE0E1BA569B88CD74C1773B91FAC10669 MUL SWAP2 POP POP SWAP3 SWAP2 POP POP JUMP JUMPDEST PUSH1 0x0 DUP1 DUP1 PUSH1 0x0 NOT DUP6 DUP8 MULMOD DUP6 DUP8 MUL SWAP3 POP DUP3 DUP2 LT DUP4 DUP3 SUB SUB SWAP2 POP POP DUP1 PUSH1 0x0 SUB PUSH2 0x31F1 JUMPI DUP4 DUP3 DUP2 PUSH2 0x31E7 JUMPI PUSH2 0x31E7 PUSH2 0x4067 JUMP JUMPDEST DIV SWAP3 POP POP POP PUSH2 0x60D JUMP JUMPDEST DUP4 DUP2 LT PUSH2 0x3217 JUMPI DUP6 DUP6 DUP6 PUSH1 0x40 MLOAD PUSH4 0x362CED09 PUSH1 0xE1 SHL DUP2 MSTORE PUSH1 0x4 ADD PUSH2 0x12C3 SWAP4 SWAP3 SWAP2 SWAP1 PUSH2 0x408B JUMP JUMPDEST PUSH1 0x0 DUP5 DUP7 DUP9 MULMOD PUSH1 0x2 PUSH1 0x1 DUP8 NOT DUP2 ADD DUP9 AND SWAP8 DUP9 SWAP1 DIV PUSH1 0x3 DUP2 MUL DUP4 XOR DUP1 DUP3 MUL DUP5 SUB MUL DUP1 DUP3 MUL DUP5 SUB MUL DUP1 DUP3 MUL DUP5 SUB MUL DUP1 DUP3 MUL DUP5 SUB MUL DUP1 DUP3 MUL DUP5 SUB MUL SWAP1 DUP2 MUL SWAP1 SWAP3 SUB SWAP1 SWAP2 MUL PUSH1 0x0 DUP9 SWAP1 SUB DUP9 SWAP1 DIV SWAP1 SWAP2 ADD DUP6 DUP4 GT SWAP1 SWAP5 SUB SWAP4 SWAP1 SWAP4 MUL SWAP4 SUB SWAP5 SWAP1 SWAP5 DIV SWAP2 SWAP1 SWAP2 OR MUL SWAP5 SWAP4 POP POP POP POP JUMP JUMPDEST PUSH1 0x40 MLOAD DUP1 PUSH2 0x140 ADD PUSH1 0x40 MSTORE DUP1 PUSH1 0x0 DUP2 MSTORE PUSH1 0x20 ADD PUSH1 0x60 DUP2 MSTORE PUSH1 0x20 ADD PUSH1 0x60 DUP2 MSTORE PUSH1 0x20 ADD PUSH1 0x0 PUSH1 0x1 PUSH1 0x1 PUSH1 0xA0 SHL SUB AND DUP2 MSTORE PUSH1 0x20 ADD PUSH1 0x0 PUSH1 0x1 PUSH1 0x1 PUSH1 0xA0 SHL SUB AND DUP2 MSTORE PUSH1 0x20 ADD PUSH1 0x0 DUP2 MSTORE PUSH1 0x20 ADD PUSH1 0x0 DUP2 MSTORE PUSH1 0x20 ADD PUSH1 0x0 PUSH1 0x1 DUP2 GT ISZERO PUSH2 0x32E2 JUMPI PUSH2 0x32E2 PUSH2 0x3411 JUMP JUMPDEST DUP2 MSTORE PUSH1 0x20 ADD PUSH1 0x0 DUP2 MSTORE PUSH1 0x20 ADD PUSH1 0x0 DUP2 MSTORE POP SWAP1 JUMP JUMPDEST PUSH1 0x40 MLOAD DUP1 PUSH2 0x100 ADD PUSH1 0x40 MSTORE DUP1 PUSH1 0x0 PUSH1 0x1 PUSH1 0x1 PUSH1 0xA0 SHL SUB AND DUP2 MSTORE PUSH1 0x20 ADD PUSH1 0x0 PUSH1 0x1 PUSH1 0x1 PUSH1 0xA0 SHL SUB AND DUP2 MSTORE PUSH1 0x20 ADD PUSH1 0x0 ISZERO ISZERO DUP2 MSTORE PUSH1 0x20 ADD PUSH1 0x0 DUP2 MSTORE PUSH1 0x20 ADD PUSH1 0x0 DUP2 MSTORE PUSH1 0x20 ADD PUSH1 0x0 DUP2 MSTORE PUSH1 0x20 ADD PUSH1 0x0 DUP2 MSTORE PUSH1 0x20 ADD PUSH1 0x0 DUP2 MSTORE POP SWAP1 JUMP JUMPDEST DUP1 JUMPDEST DUP3 MSTORE POP POP JUMP JUMPDEST PUSH1 0x20 DUP2 ADD PUSH2 0x45C DUP3 DUP5 PUSH2 0x334F JUMP JUMPDEST DUP1 JUMPDEST DUP2 EQ PUSH2 0x3372 JUMPI PUSH1 0x0 DUP1 REVERT JUMPDEST POP JUMP JUMPDEST DUP1 CALLDATALOAD PUSH2 0x45C DUP2 PUSH2 0x3365 JUMP JUMPDEST PUSH1 0x0 PUSH1 0x20 DUP3 DUP5 SUB SLT ISZERO PUSH2 0x3395 JUMPI PUSH2 0x3395 PUSH1 0x0 DUP1 REVERT JUMPDEST PUSH1 0x0 PUSH2 0x1DB4 DUP5 DUP5 PUSH2 0x3375 JUMP JUMPDEST PUSH1 0x0 JUMPDEST DUP4 DUP2 LT ISZERO PUSH2 0x33BC JUMPI DUP2 DUP2 ADD MLOAD DUP4 DUP3 ADD MSTORE PUSH1 0x20 ADD PUSH2 0x33A4 JUMP JUMPDEST POP POP PUSH1 0x0 SWAP2 ADD MSTORE JUMP JUMPDEST PUSH1 0x0 PUSH2 0x33CF DUP3 MLOAD SWAP1 JUMP JUMPDEST DUP1 DUP5 MSTORE PUSH1 0x20 DUP5 ADD SWAP4 POP PUSH2 0x33E6 DUP2 DUP6 PUSH1 0x20 DUP7 ADD PUSH2 0x33A1 JUMP JUMPDEST PUSH1 0x1F ADD PUSH1 0x1F NOT AND SWAP3 SWAP1 SWAP3 ADD SWAP3 SWAP2 POP POP JUMP JUMPDEST PUSH1 0x0 PUSH1 0x1 PUSH1 0x1 PUSH1 0xA0 SHL SUB DUP3 AND PUSH2 0x45C JUMP JUMPDEST PUSH2 0x3351 DUP2 PUSH2 0x33F7 JUMP JUMPDEST PUSH4 0x4E487B71 PUSH1 0xE0 SHL PUSH1 0x0 MSTORE PUSH1 0x21 PUSH1 0x4 MSTORE PUSH1 0x24 PUSH1 0x0 REVERT JUMPDEST PUSH1 0x2 DUP2 LT PUSH2 0x3372 JUMPI PUSH2 0x3372 PUSH2 0x3411 JUMP JUMPDEST DUP1 PUSH2 0x30E1 DUP2 PUSH2 0x3427 JUMP JUMPDEST PUSH1 0x0 PUSH2 0x45C DUP3 PUSH2 0x3437 JUMP JUMPDEST PUSH2 0x3351 DUP2 PUSH2 0x3441 JUMP JUMPDEST DUP1 MLOAD PUSH1 0x0 SWAP1 PUSH2 0x140 DUP5 ADD SWAP1 PUSH2 0x346A DUP6 DUP3 PUSH2 0x334F JUMP JUMPDEST POP PUSH1 0x20 DUP4 ADD MLOAD DUP5 DUP3 SUB PUSH1 0x20 DUP7 ADD MSTORE PUSH2 0x3482 DUP3 DUP3 PUSH2 0x33C5 JUMP JUMPDEST SWAP2 POP POP PUSH1 0x40 DUP4 ADD MLOAD DUP5 DUP3 SUB PUSH1 0x40 DUP7 ADD MSTORE PUSH2 0x349C DUP3 DUP3 PUSH2 0x33C5 JUMP JUMPDEST SWAP2 POP POP PUSH1 0x60 DUP4 ADD MLOAD PUSH2 0x34B1 PUSH1 0x60 DUP7 ADD DUP3 PUSH2 0x3408 JUMP JUMPDEST POP PUSH1 0x80 DUP4 ADD MLOAD PUSH2 0x34C4 PUSH1 0x80 DUP7 ADD DUP3 PUSH2 0x3408 JUMP JUMPDEST POP PUSH1 0xA0 DUP4 ADD MLOAD PUSH2 0x34D7 PUSH1 0xA0 DUP7 ADD DUP3 PUSH2 0x334F JUMP JUMPDEST POP PUSH1 0xC0 DUP4 ADD MLOAD PUSH2 0x34EA PUSH1 0xC0 DUP7 ADD DUP3 PUSH2 0x334F JUMP JUMPDEST POP PUSH1 0xE0 DUP4 ADD MLOAD PUSH2 0x34FD PUSH1 0xE0 DUP7 ADD DUP3 PUSH2 0x344C JUMP JUMPDEST POP PUSH2 0x100 DUP4 ADD MLOAD PUSH2 0x3512 PUSH2 0x100 DUP7 ADD DUP3 PUSH2 0x334F JUMP JUMPDEST POP PUSH2 0x120 DUP4 ADD MLOAD PUSH2 0x3527 PUSH2 0x120 DUP7 ADD DUP3 PUSH2 0x334F JUMP JUMPDEST POP SWAP4 SWAP3 POP POP POP JUMP JUMPDEST PUSH1 0x20 DUP1 DUP3 MSTORE DUP2 ADD PUSH2 0x60D DUP2 DUP5 PUSH2 0x3455 JUMP JUMPDEST PUSH2 0x3367 DUP2 PUSH2 0x33F7 JUMP JUMPDEST DUP1 CALLDATALOAD PUSH2 0x45C DUP2 PUSH2 0x3540 JUMP JUMPDEST PUSH4 0x4E487B71 PUSH1 0xE0 SHL PUSH1 0x0 MSTORE PUSH1 0x41 PUSH1 0x4 MSTORE PUSH1 0x24 PUSH1 0x0 REVERT JUMPDEST PUSH1 0x1F NOT PUSH1 0x1F DUP4 ADD AND DUP2 ADD DUP2 DUP2 LT PUSH8 0xFFFFFFFFFFFFFFFF DUP3 GT OR ISZERO PUSH2 0x3590 JUMPI PUSH2 0x3590 PUSH2 0x3554 JUMP JUMPDEST PUSH1 0x40 MSTORE POP POP JUMP JUMPDEST PUSH1 0x0 PUSH2 0x35A2 PUSH1 0x40 MLOAD SWAP1 JUMP JUMPDEST SWAP1 POP PUSH2 0x30E1 DUP3 DUP3 PUSH2 0x356A JUMP JUMPDEST PUSH1 0x0 PUSH8 0xFFFFFFFFFFFFFFFF DUP3 GT ISZERO PUSH2 0x35C8 JUMPI PUSH2 0x35C8 PUSH2 0x3554 JUMP JUMPDEST PUSH1 0x1F NOT PUSH1 0x1F DUP4 ADD AND PUSH1 0x20 ADD SWAP3 SWAP2 POP POP JUMP JUMPDEST DUP3 DUP2 DUP4 CALLDATACOPY POP PUSH1 0x0 SWAP2 ADD MSTORE JUMP JUMPDEST PUSH1 0x0 PUSH2 0x35F8 PUSH2 0x35F3 DUP5 PUSH2 0x35AE JUMP JUMPDEST PUSH2 0x3597 JUMP JUMPDEST SWAP1 POP DUP3 DUP2 MSTORE PUSH1 0x20 DUP2 ADD DUP5 DUP5 DUP5 ADD GT ISZERO PUSH2 0x3613 JUMPI PUSH2 0x3613 PUSH1 0x0 DUP1 REVERT JUMPDEST PUSH2 0x3527 DUP5 DUP3 DUP6 PUSH2 0x35D9 JUMP JUMPDEST PUSH1 0x0 DUP3 PUSH1 0x1F DUP4 ADD SLT PUSH2 0x3632 JUMPI PUSH2 0x3632 PUSH1 0x0 DUP1 REVERT JUMPDEST DUP2 CALLDATALOAD PUSH2 0x1DB4 DUP5 DUP3 PUSH1 0x20 DUP7 ADD PUSH2 0x35E5 JUMP JUMPDEST PUSH1 0x0 DUP1 PUSH1 0x0 DUP1 PUSH1 0x0 PUSH1 0xA0 DUP7 DUP9 SUB SLT ISZERO PUSH2 0x365D JUMPI PUSH2 0x365D PUSH1 0x0 DUP1 REVERT JUMPDEST PUSH1 0x0 PUSH2 0x3669 DUP9 DUP9 PUSH2 0x3549 JUMP JUMPDEST SWAP6 POP POP PUSH1 0x20 PUSH2 0x367A DUP9 DUP3 DUP10 ADD PUSH2 0x3549 JUMP JUMPDEST SWAP5 POP POP PUSH1 0x40 PUSH2 0x368B DUP9 DUP3 DUP10 ADD PUSH2 0x3375 JUMP JUMPDEST SWAP4 POP POP PUSH1 0x60 PUSH2 0x369C DUP9 DUP3 DUP10 ADD PUSH2 0x3375 JUMP JUMPDEST SWAP3 POP POP PUSH1 0x80 DUP7 ADD CALLDATALOAD PUSH8 0xFFFFFFFFFFFFFFFF DUP2 GT ISZERO PUSH2 0x36BC JUMPI PUSH2 0x36BC PUSH1 0x0 DUP1 REVERT JUMPDEST PUSH2 0x36C8 DUP9 DUP3 DUP10 ADD PUSH2 0x361E JUMP JUMPDEST SWAP2 POP POP SWAP3 SWAP6 POP SWAP3 SWAP6 SWAP1 SWAP4 POP JUMP JUMPDEST PUSH1 0x0 DUP1 PUSH1 0x40 DUP4 DUP6 SUB SLT ISZERO PUSH2 0x36EB JUMPI PUSH2 0x36EB PUSH1 0x0 DUP1 REVERT JUMPDEST PUSH1 0x0 PUSH2 0x36F7 DUP6 DUP6 PUSH2 0x3549 JUMP JUMPDEST SWAP3 POP POP PUSH1 0x20 PUSH2 0x3708 DUP6 DUP3 DUP7 ADD PUSH2 0x3375 JUMP JUMPDEST SWAP2 POP POP SWAP3 POP SWAP3 SWAP1 POP JUMP JUMPDEST DUP1 ISZERO ISZERO PUSH2 0x3367 JUMP JUMPDEST DUP1 CALLDATALOAD PUSH2 0x45C DUP2 PUSH2 0x3712 JUMP JUMPDEST PUSH1 0x0 DUP1 PUSH1 0x40 DUP4 DUP6 SUB SLT ISZERO PUSH2 0x373B JUMPI PUSH2 0x373B PUSH1 0x0 DUP1 REVERT JUMPDEST PUSH1 0x0 PUSH2 0x3747 DUP6 DUP6 PUSH2 0x3549 JUMP JUMPDEST SWAP3 POP POP PUSH1 0x20 PUSH2 0x3708 DUP6 DUP3 DUP7 ADD PUSH2 0x371A JUMP JUMPDEST DUP1 ISZERO ISZERO PUSH2 0x3351 JUMP JUMPDEST DUP1 MLOAD PUSH2 0x100 DUP4 ADD SWAP1 PUSH2 0x3772 DUP5 DUP3 PUSH2 0x3408 JUMP JUMPDEST POP PUSH1 0x20 DUP3 ADD MLOAD PUSH2 0x3785 PUSH1 0x20 DUP6 ADD DUP3 PUSH2 0x3408 JUMP JUMPDEST POP PUSH1 0x40 DUP3 ADD MLOAD PUSH2 0x3798 PUSH1 0x40 DUP6 ADD DUP3 PUSH2 0x3758 JUMP JUMPDEST POP PUSH1 0x60 DUP3 ADD MLOAD PUSH2 0x37AB PUSH1 0x60 DUP6 ADD DUP3 PUSH2 0x334F JUMP JUMPDEST POP PUSH1 0x80 DUP3 ADD MLOAD PUSH2 0x37BE PUSH1 0x80 DUP6 ADD DUP3 PUSH2 0x334F JUMP JUMPDEST POP PUSH1 0xA0 DUP3 ADD MLOAD PUSH2 0x37D1 PUSH1 0xA0 DUP6 ADD DUP3 PUSH2 0x334F JUMP JUMPDEST POP PUSH1 0xC0 DUP3 ADD MLOAD PUSH2 0x37E4 PUSH1 0xC0 DUP6 ADD DUP3 PUSH2 0x334F JUMP JUMPDEST POP PUSH1 0xE0 DUP3 ADD MLOAD PUSH2 0x5DD PUSH1 0xE0 DUP6 ADD DUP3 PUSH2 0x334F JUMP JUMPDEST PUSH2 0x100 DUP2 ADD PUSH2 0x45C DUP3 DUP5 PUSH2 0x3760 JUMP JUMPDEST PUSH1 0x0 DUP1 PUSH1 0x0 DUP1 PUSH1 0x80 DUP6 DUP8 SUB SLT ISZERO PUSH2 0x381F JUMPI PUSH2 0x381F PUSH1 0x0 DUP1 REVERT JUMPDEST PUSH1 0x0 PUSH2 0x382B DUP8 DUP8 PUSH2 0x3549 JUMP JUMPDEST SWAP5 POP POP PUSH1 0x20 PUSH2 0x383C DUP8 DUP3 DUP9 ADD PUSH2 0x3375 JUMP JUMPDEST SWAP4 POP POP PUSH1 0x40 PUSH2 0x384D DUP8 DUP3 DUP9 ADD PUSH2 0x3375 JUMP JUMPDEST SWAP3 POP POP PUSH1 0x60 DUP6 ADD CALLDATALOAD PUSH8 0xFFFFFFFFFFFFFFFF DUP2 GT ISZERO PUSH2 0x386D JUMPI PUSH2 0x386D PUSH1 0x0 DUP1 REVERT JUMPDEST PUSH2 0x3879 DUP8 DUP3 DUP9 ADD PUSH2 0x361E JUMP JUMPDEST SWAP2 POP POP SWAP3 SWAP6 SWAP2 SWAP5 POP SWAP3 POP JUMP JUMPDEST PUSH1 0x0 PUSH1 0x20 DUP3 DUP5 SUB SLT ISZERO PUSH2 0x389A JUMPI PUSH2 0x389A PUSH1 0x0 DUP1 REVERT JUMPDEST PUSH1 0x0 PUSH2 0x1DB4 DUP5 DUP5 PUSH2 0x3549 JUMP JUMPDEST PUSH1 0x20 DUP2 ADD PUSH2 0x45C DUP3 DUP5 PUSH2 0x3408 JUMP JUMPDEST PUSH1 0x0 DUP1 PUSH1 0x0 PUSH1 0x60 DUP5 DUP7 SUB SLT ISZERO PUSH2 0x38CC JUMPI PUSH2 0x38CC PUSH1 0x0 DUP1 REVERT JUMPDEST PUSH1 0x0 PUSH2 0x38D8 DUP7 DUP7 PUSH2 0x3549 JUMP JUMPDEST SWAP4 POP POP PUSH1 0x20 PUSH2 0x38E9 DUP7 DUP3 DUP8 ADD PUSH2 0x3549 JUMP JUMPDEST SWAP3 POP POP PUSH1 0x40 PUSH2 0x38FA DUP7 DUP3 DUP8 ADD PUSH2 0x3375 JUMP JUMPDEST SWAP2 POP POP SWAP3 POP SWAP3 POP SWAP3 JUMP JUMPDEST PUSH2 0x100 DUP2 ADD PUSH2 0x3913 DUP3 DUP12 PUSH2 0x3408 JUMP JUMPDEST PUSH2 0x3920 PUSH1 0x20 DUP4 ADD DUP11 PUSH2 0x3408 JUMP JUMPDEST PUSH2 0x392D PUSH1 0x40 DUP4 ADD DUP10 PUSH2 0x3758 JUMP JUMPDEST PUSH2 0x393A PUSH1 0x60 DUP4 ADD DUP9 PUSH2 0x334F JUMP JUMPDEST PUSH2 0x3947 PUSH1 0x80 DUP4 ADD DUP8 PUSH2 0x334F JUMP JUMPDEST PUSH2 0x3954 PUSH1 0xA0 DUP4 ADD DUP7 PUSH2 0x334F JUMP JUMPDEST PUSH2 0x3961 PUSH1 0xC0 DUP4 ADD DUP6 PUSH2 0x334F JUMP JUMPDEST PUSH2 0x396E PUSH1 0xE0 DUP4 ADD DUP5 PUSH2 0x334F JUMP JUMPDEST SWAP10 SWAP9 POP POP POP POP POP POP POP POP POP JUMP JUMPDEST PUSH4 0x4E487B71 PUSH1 0xE0 SHL PUSH1 0x0 MSTORE PUSH1 0x32 PUSH1 0x4 MSTORE PUSH1 0x24 PUSH1 0x0 REVERT JUMPDEST DUP1 MLOAD PUSH2 0x45C DUP2 PUSH2 0x3365 JUMP JUMPDEST PUSH1 0x0 PUSH1 0x20 DUP3 DUP5 SUB SLT ISZERO PUSH2 0x39B1 JUMPI PUSH2 0x39B1 PUSH1 0x0 DUP1 REVERT JUMPDEST PUSH1 0x0 PUSH2 0x1DB4 DUP5 DUP5 PUSH2 0x3991 JUMP JUMPDEST PUSH4 0x4E487B71 PUSH1 0xE0 SHL PUSH1 0x0 MSTORE PUSH1 0x11 PUSH1 0x4 MSTORE PUSH1 0x24 PUSH1 0x0 REVERT JUMPDEST DUP2 DUP2 SUB DUP2 DUP2 GT ISZERO PUSH2 0x45C JUMPI PUSH2 0x45C PUSH2 0x39BD JUMP JUMPDEST PUSH1 0x0 PUSH1 0x0 NOT DUP3 SUB PUSH2 0x39F9 JUMPI PUSH2 0x39F9 PUSH2 0x39BD JUMP JUMPDEST POP PUSH1 0x1 ADD SWAP1 JUMP JUMPDEST PUSH1 0x0 DUP2 JUMPDEST SWAP2 POP DUP2 PUSH2 0x3A13 JUMPI PUSH2 0x3A13 PUSH2 0x39BD JUMP JUMPDEST POP PUSH1 0x0 NOT ADD SWAP1 JUMP JUMPDEST DUP1 DUP3 ADD DUP1 DUP3 GT ISZERO PUSH2 0x45C JUMPI PUSH2 0x45C PUSH2 0x39BD JUMP JUMPDEST PUSH1 0x40 DUP2 ADD PUSH2 0x3A3C DUP3 DUP6 PUSH2 0x3408 JUMP JUMPDEST PUSH2 0x60D PUSH1 0x20 DUP4 ADD DUP5 PUSH2 0x3408 JUMP JUMPDEST PUSH4 0x4E487B71 PUSH1 0xE0 SHL PUSH1 0x0 MSTORE PUSH1 0x22 PUSH1 0x4 MSTORE PUSH1 0x24 PUSH1 0x0 REVERT JUMPDEST PUSH1 0x2 DUP2 DIV PUSH1 0x1 DUP3 AND DUP1 PUSH2 0x3A73 JUMPI PUSH1 0x7F DUP3 AND SWAP2 POP JUMPDEST PUSH1 0x20 DUP3 LT DUP2 SUB PUSH2 0x3A85 JUMPI PUSH2 0x3A85 PUSH2 0x3A49 JUMP JUMPDEST POP SWAP2 SWAP1 POP JUMP JUMPDEST PUSH1 0x0 PUSH2 0x45C PUSH1 0x1 PUSH1 0x1 PUSH1 0xA0 SHL SUB DUP4 AND PUSH2 0x3AA2 JUMP JUMPDEST SWAP1 JUMP JUMPDEST PUSH1 0x1 PUSH1 0x1 PUSH1 0xA0 SHL SUB AND SWAP1 JUMP JUMPDEST PUSH1 0x0 PUSH2 0x45C DUP3 PUSH2 0x3A8B JUMP JUMPDEST PUSH1 0x0 PUSH2 0x45C DUP3 PUSH2 0x3AAE JUMP JUMPDEST PUSH2 0x3351 DUP2 PUSH2 0x3AB9 JUMP JUMPDEST PUSH1 0xE0 DUP2 ADD PUSH2 0x3ADB DUP3 DUP11 PUSH2 0x334F JUMP JUMPDEST PUSH2 0x3AE8 PUSH1 0x20 DUP4 ADD DUP10 PUSH2 0x3758 JUMP JUMPDEST PUSH2 0x3AF5 PUSH1 0x40 DUP4 ADD DUP9 PUSH2 0x3AC4 JUMP JUMPDEST PUSH2 0x3B02 PUSH1 0x60 DUP4 ADD DUP8 PUSH2 0x3408 JUMP JUMPDEST PUSH2 0x3B0F PUSH1 0x80 DUP4 ADD DUP7 PUSH2 0x3408 JUMP JUMPDEST PUSH2 0x3B1C PUSH1 0xA0 DUP4 ADD DUP6 PUSH2 0x334F JUMP JUMPDEST PUSH2 0x3B29 PUSH1 0xC0 DUP4 ADD DUP5 PUSH2 0x3758 JUMP JUMPDEST SWAP9 SWAP8 POP POP POP POP POP POP POP POP JUMP JUMPDEST PUSH1 0x0 PUSH2 0x3B43 PUSH2 0x35F3 DUP5 PUSH2 0x35AE JUMP JUMPDEST SWAP1 POP DUP3 DUP2 MSTORE PUSH1 0x20 DUP2 ADD DUP5 DUP5 DUP5 ADD GT ISZERO PUSH2 0x3B5E JUMPI PUSH2 0x3B5E PUSH1 0x0 DUP1 REVERT JUMPDEST PUSH2 0x3527 DUP5 DUP3 DUP6 PUSH2 0x33A1 JUMP JUMPDEST PUSH1 0x0 DUP3 PUSH1 0x1F DUP4 ADD SLT PUSH2 0x3B7D JUMPI PUSH2 0x3B7D PUSH1 0x0 DUP1 REVERT JUMPDEST DUP2 MLOAD PUSH2 0x1DB4 DUP5 DUP3 PUSH1 0x20 DUP7 ADD PUSH2 0x3B35 JUMP JUMPDEST PUSH1 0x0 PUSH1 0x20 DUP3 DUP5 SUB SLT ISZERO PUSH2 0x3BA2 JUMPI PUSH2 0x3BA2 PUSH1 0x0 DUP1 REVERT JUMPDEST DUP2 MLOAD PUSH8 0xFFFFFFFFFFFFFFFF DUP2 GT ISZERO PUSH2 0x3BBC JUMPI PUSH2 0x3BBC PUSH1 0x0 DUP1 REVERT JUMPDEST PUSH2 0x1DB4 DUP5 DUP3 DUP6 ADD PUSH2 0x3B69 JUMP JUMPDEST PUSH1 0x60 DUP2 ADD PUSH2 0x3BD6 DUP3 DUP7 PUSH2 0x334F JUMP JUMPDEST PUSH2 0x3BE3 PUSH1 0x20 DUP4 ADD DUP6 PUSH2 0x3758 JUMP JUMPDEST PUSH2 0x1DB4 PUSH1 0x40 DUP4 ADD DUP5 PUSH2 0x3AC4 JUMP JUMPDEST PUSH4 0x4E487B71 PUSH1 0xE0 SHL PUSH1 0x0 MSTORE PUSH1 0x31 PUSH1 0x4 MSTORE PUSH1 0x24 PUSH1 0x0 REVERT JUMPDEST PUSH1 0x60 DUP2 ADD PUSH2 0x3C14 DUP3 DUP7 PUSH2 0x3408 JUMP JUMPDEST PUSH2 0x3C21 PUSH1 0x20 DUP4 ADD DUP6 PUSH2 0x3408 JUMP JUMPDEST PUSH2 0x1DB4 PUSH1 0x40 DUP4 ADD DUP5 PUSH2 0x334F JUMP JUMPDEST DUP1 MLOAD PUSH2 0x45C DUP2 PUSH2 0x3712 JUMP JUMPDEST PUSH1 0x0 PUSH1 0x20 DUP3 DUP5 SUB SLT ISZERO PUSH2 0x3C4E JUMPI PUSH2 0x3C4E PUSH1 0x0 DUP1 REVERT JUMPDEST PUSH1 0x0 PUSH2 0x1DB4 DUP5 DUP5 PUSH2 0x3C2E JUMP JUMPDEST PUSH1 0xA0 DUP2 ADD PUSH2 0x3C68 DUP3 DUP9 PUSH2 0x334F JUMP JUMPDEST PUSH2 0x3C75 PUSH1 0x20 DUP4 ADD DUP8 PUSH2 0x3758 JUMP JUMPDEST PUSH2 0x3C82 PUSH1 0x40 DUP4 ADD DUP7 PUSH2 0x3408 JUMP JUMPDEST PUSH2 0x3C8F PUSH1 0x60 DUP4 ADD DUP6 PUSH2 0x334F JUMP JUMPDEST PUSH2 0x3C9C PUSH1 0x80 DUP4 ADD DUP5 PUSH2 0x334F JUMP JUMPDEST SWAP7 SWAP6 POP POP POP POP POP POP JUMP JUMPDEST PUSH1 0x80 DUP2 ADD PUSH2 0x3CB4 DUP3 DUP8 PUSH2 0x334F JUMP JUMPDEST PUSH2 0x3CC1 PUSH1 0x20 DUP4 ADD DUP7 PUSH2 0x3758 JUMP JUMPDEST PUSH2 0x3CCE PUSH1 0x40 DUP4 ADD DUP6 PUSH2 0x3AC4 JUMP JUMPDEST PUSH2 0x3CDB PUSH1 0x60 DUP4 ADD DUP5 PUSH2 0x3758 JUMP JUMPDEST SWAP6 SWAP5 POP POP POP POP POP JUMP JUMPDEST PUSH1 0xFF DUP2 AND PUSH2 0x3367 JUMP JUMPDEST DUP1 MLOAD PUSH2 0x45C DUP2 PUSH2 0x3CE4 JUMP JUMPDEST PUSH1 0x0 PUSH1 0x20 DUP3 DUP5 SUB SLT ISZERO PUSH2 0x3D0D JUMPI PUSH2 0x3D0D PUSH1 0x0 DUP1 REVERT JUMPDEST PUSH1 0x0 PUSH2 0x1DB4 DUP5 DUP5 PUSH2 0x3CED JUMP JUMPDEST PUSH1 0x0 PUSH2 0x45C PUSH2 0x3A9F DUP4 DUP2 JUMP JUMPDEST PUSH2 0x3D2E DUP4 PUSH2 0x3D19 JUMP JUMPDEST DUP2 SLOAD PUSH1 0x0 NOT PUSH1 0x8 SWAP5 SWAP1 SWAP5 MUL SWAP4 DUP5 SHL NOT AND SWAP3 SHL SWAP2 SWAP1 SWAP2 OR SWAP1 SSTORE POP JUMP JUMPDEST PUSH1 0x0 PUSH2 0xAAE DUP2 DUP5 DUP5 PUSH2 0x3D25 JUMP JUMPDEST DUP2 DUP2 LT ISZERO PUSH2 0x483 JUMPI PUSH2 0x3D69 PUSH1 0x0 DUP3 PUSH2 0x3D49 JUMP JUMPDEST PUSH1 0x1 ADD PUSH2 0x3D56 JUMP JUMPDEST PUSH1 0x1F DUP3 GT ISZERO PUSH2 0xAAE JUMPI PUSH1 0x0 DUP2 DUP2 MSTORE PUSH1 0x20 SWAP1 KECCAK256 PUSH1 0x20 PUSH1 0x1F DUP6 ADD DIV DUP2 ADD PUSH1 0x20 DUP6 LT ISZERO PUSH2 0x3D98 JUMPI POP DUP1 JUMPDEST PUSH2 0x471 PUSH1 0x20 PUSH1 0x1F DUP7 ADD DIV DUP4 ADD DUP3 PUSH2 0x3D56 JUMP JUMPDEST DUP2 MLOAD PUSH8 0xFFFFFFFFFFFFFFFF DUP2 GT ISZERO PUSH2 0x3DC4 JUMPI PUSH2 0x3DC4 PUSH2 0x3554 JUMP JUMPDEST PUSH2 0x3DCE DUP3 SLOAD PUSH2 0x3A5F JUMP JUMPDEST PUSH2 0x3DD9 DUP3 DUP3 DUP6 PUSH2 0x3D71 JUMP JUMPDEST PUSH1 0x20 PUSH1 0x1F DUP4 GT PUSH1 0x1 DUP2 EQ PUSH2 0x3E0D JUMPI PUSH1 0x0 DUP5 ISZERO PUSH2 0x3DF5 JUMPI POP DUP6 DUP3 ADD MLOAD JUMPDEST PUSH1 0x0 NOT PUSH1 0x8 DUP7 MUL SHR NOT DUP2 AND PUSH1 0x2 DUP7 MUL OR DUP7 SSTORE POP PUSH2 0xE8B JUMP JUMPDEST PUSH1 0x0 DUP6 DUP2 MSTORE PUSH1 0x20 DUP2 KECCAK256 PUSH1 0x1F NOT DUP7 AND SWAP2 JUMPDEST DUP3 DUP2 LT ISZERO PUSH2 0x3E3D JUMPI DUP9 DUP6 ADD MLOAD DUP3 SSTORE PUSH1 0x20 SWAP5 DUP6 ADD SWAP5 PUSH1 0x1 SWAP1 SWAP3 ADD SWAP2 ADD PUSH2 0x3E1D JUMP JUMPDEST DUP7 DUP4 LT ISZERO PUSH2 0x3E59 JUMPI DUP5 DUP10 ADD MLOAD PUSH1 0x0 NOT PUSH1 0x1F DUP10 AND PUSH1 0x8 MUL SHR NOT AND DUP3 SSTORE JUMPDEST PUSH1 0x1 PUSH1 0x2 DUP9 MUL ADD DUP9 SSTORE POP POP POP POP POP POP POP POP POP JUMP JUMPDEST PUSH1 0x0 PUSH2 0x3E77 DUP3 MLOAD SWAP1 JUMP JUMPDEST PUSH2 0x3E85 DUP2 DUP6 PUSH1 0x20 DUP7 ADD PUSH2 0x33A1 JUMP JUMPDEST SWAP3 SWAP1 SWAP3 ADD SWAP3 SWAP2 POP POP JUMP JUMPDEST PUSH1 0x0 PUSH2 0x60D DUP3 DUP5 PUSH2 0x3E6D JUMP JUMPDEST PUSH1 0x60 DUP2 ADD PUSH2 0x3C14 DUP3 DUP7 PUSH2 0x344C JUMP JUMPDEST DUP2 DUP2 MUL DUP1 DUP3 ISZERO DUP4 DUP3 DIV DUP6 EQ OR PUSH2 0x27EB JUMPI PUSH2 0x27EB PUSH2 0x39BD JUMP JUMPDEST PUSH1 0x40 DUP2 ADD PUSH2 0x3ECF DUP3 DUP6 PUSH2 0x3408 JUMP JUMPDEST PUSH2 0x60D PUSH1 0x20 DUP4 ADD DUP5 PUSH2 0x334F JUMP JUMPDEST PUSH1 0x60 DUP2 ADD PUSH2 0x3EEA DUP3 DUP7 PUSH2 0x334F JUMP JUMPDEST PUSH2 0x3EF7 PUSH1 0x20 DUP4 ADD DUP6 PUSH2 0x3408 JUMP JUMPDEST PUSH2 0x1DB4 PUSH1 0x40 DUP4 ADD DUP5 PUSH2 0x3408 JUMP JUMPDEST PUSH1 0x0 PUSH1 0xFF DUP3 AND PUSH2 0x3A04 JUMP JUMPDEST DUP1 DUP3 JUMPDEST PUSH1 0x1 DUP6 GT ISZERO PUSH2 0x2565 JUMPI DUP1 DUP7 DIV DUP2 GT ISZERO PUSH2 0x3F2D JUMPI PUSH2 0x3F2D PUSH2 0x39BD JUMP JUMPDEST PUSH1 0x1 DUP6 AND ISZERO PUSH2 0x3F3B JUMPI SWAP1 DUP2 MUL SWAP1 JUMPDEST DUP1 MUL PUSH2 0x3F47 DUP6 PUSH1 0x1 SHR SWAP1 JUMP JUMPDEST SWAP5 POP PUSH2 0x3F12 JUMP JUMPDEST PUSH1 0x0 DUP3 PUSH2 0x3F5D JUMPI POP PUSH1 0x1 PUSH2 0x60D JUMP JUMPDEST DUP2 PUSH2 0x3F6A JUMPI POP PUSH1 0x0 PUSH2 0x60D JUMP JUMPDEST DUP2 PUSH1 0x1 DUP2 EQ PUSH2 0x3F80 JUMPI PUSH1 0x2 DUP2 EQ PUSH2 0x3F8A JUMPI PUSH2 0x3FB7 JUMP JUMPDEST PUSH1 0x1 SWAP2 POP POP PUSH2 0x60D JUMP JUMPDEST PUSH1 0xFF DUP5 GT ISZERO PUSH2 0x3F9B JUMPI PUSH2 0x3F9B PUSH2 0x39BD JUMP JUMPDEST DUP4 PUSH1 0x2 EXP SWAP2 POP DUP5 DUP3 GT ISZERO PUSH2 0x3FB1 JUMPI PUSH2 0x3FB1 PUSH2 0x39BD JUMP JUMPDEST POP PUSH2 0x60D JUMP JUMPDEST POP PUSH1 0x20 DUP4 LT PUSH2 0x133 DUP4 LT AND PUSH1 0x4E DUP5 LT PUSH1 0xB DUP5 LT AND OR ISZERO PUSH2 0x3FE5 JUMPI POP DUP2 DUP2 EXP DUP4 DUP2 GT ISZERO PUSH2 0x2CC0 JUMPI PUSH2 0x2CC0 PUSH2 0x39BD JUMP JUMPDEST PUSH2 0x3FF2 DUP5 DUP5 DUP5 PUSH1 0x1 PUSH2 0x3F0F JUMP JUMPDEST SWAP3 POP SWAP1 POP DUP2 DUP5 DIV DUP2 GT ISZERO PUSH2 0x4008 JUMPI PUSH2 0x4008 PUSH2 0x39BD JUMP JUMPDEST MUL SWAP3 SWAP2 POP POP JUMP JUMPDEST PUSH1 0x0 PUSH1 0xFF DUP4 AND SWAP3 POP PUSH2 0x60D PUSH1 0x0 NOT DUP5 DUP5 PUSH2 0x3F4E JUMP JUMPDEST PUSH1 0xFF SWAP2 DUP3 AND SWAP2 SWAP1 DUP2 AND SWAP1 DUP3 DUP3 SUB SWAP1 DUP2 GT ISZERO PUSH2 0x45C JUMPI PUSH2 0x45C PUSH2 0x39BD JUMP JUMPDEST PUSH1 0x0 PUSH2 0x45C DUP3 PUSH2 0x3A9F JUMP JUMPDEST PUSH1 0x40 DUP2 ADD PUSH2 0x405A DUP3 DUP6 PUSH2 0x334F JUMP JUMPDEST PUSH2 0x60D PUSH1 0x20 DUP4 ADD DUP5 PUSH2 0x3AC4 JUMP JUMPDEST PUSH4 0x4E487B71 PUSH1 0xE0 SHL PUSH1 0x0 MSTORE PUSH1 0x12 PUSH1 0x4 MSTORE PUSH1 0x24 PUSH1 0x0 REVERT JUMPDEST PUSH1 0x40 DUP2 ADD PUSH2 0x3ECF DUP3 DUP6 PUSH2 0x334F JUMP JUMPDEST PUSH1 0x60 DUP2 ADD PUSH2 0x4099 DUP3 DUP7 PUSH2 0x334F JUMP JUMPDEST PUSH2 0x3C21 PUSH1 0x20 DUP4 ADD DUP6 PUSH2 0x334F JUMP INVALID LOG2 PUSH5 0x6970667358 0x22 SLT KECCAK256 SWAP15 PUSH2 0xF7A 0xDF 0xB2 LOG3 TIMESTAMP 0xCE GASLIMIT 0xCE SSTORE SUB 0xF9 0xB0 0x29 0x1F DUP14 PREVRANDAO PUSH19 0xF8DBE158B07EFC5E96C56B4864736F6C634300 ADDMOD AND STOP CALLER "},"methodIdentifiers":{"assignPriceDAO(address)":"86f179d2","clearOrders()":"9351769f","createBuyOrder(address)":"d2980065","createSellOrder(address,uint256)":"a262b73f","deposit(address)":"f340fa01","depositToken(address,uint256)":"338b5dea","depositTokenFrom(address,address,uint256)":"a08b5bba","getBalance()":"12065fe0","listParityToken(address,address,uint256,uint256,string)":"2e128417","listToken(address,uint256,uint256,string)":"4d9ea07d","listingCost()":"a5b6f92a","orders(uint256)":"a85c38ef","owner()":"8da5cb5b","queryBalance(address,bool)":"3b174f0f","settleOrders(address,bool)":"c201e47c","takeBuyOrder(address,uint256)":"db34a679","takeSellOrder(address)":"6daf6945","transferOwnership(address)":"f2fde38b","updateTokenBalance(address)":"87b337e8","viewOrder(uint256)":"7c38d663","viewOrderByToken(address,uint256)":"3ef73856","viewPrice()":"d7dcdcec","viewToken(address)":"673cf82a","viewTokenByIndex(uint256)":"1f5d2641"}}}}}