{"contracts/DexhunePriceDAO.sol":{"DexhunePriceDAO":{"abi":[{"inputs":[],"stateMutability":"nonpayable","type":"constructor"},{"inputs":[],"name":"AlreadyVoted","type":"error"},{"inputs":[],"name":"NoActiveProposal","type":"error"},{"inputs":[],"name":"NotEligible","type":"error"},{"inputs":[],"name":"ProposalAlreadyFinalized","type":"error"},{"inputs":[],"name":"ProposalHasExpired","type":"error"},{"inputs":[],"name":"ProposalIsStillActive","type":"error"},{"inputs":[{"internalType":"address","name":"account","type":"address"}],"name":"UnauthorizedAccount","type":"error"},{"anonymous":false,"inputs":[{"indexed":false,"internalType":"address","name":"addr","type":"address"}],"name":"AssignedNFTCollection","type":"event"},{"anonymous":false,"inputs":[{"indexed":false,"internalType":"address","name":"addr","type":"address"}],"name":"AssignedToken","type":"event"},{"anonymous":false,"inputs":[{"indexed":false,"internalType":"string","name":"price","type":"string"},{"indexed":false,"internalType":"string","name":"description","type":"string"},{"indexed":false,"internalType":"address","name":"proposer","type":"address"}],"name":"ProposalCreated","type":"event"},{"anonymous":false,"inputs":[{"indexed":false,"internalType":"uint16","name":"_for","type":"uint16"},{"indexed":false,"internalType":"uint16","name":"_against","type":"uint16"}],"name":"ProposalDenied","type":"event"},{"anonymous":false,"inputs":[{"indexed":false,"internalType":"uint16","name":"_for","type":"uint16"},{"indexed":false,"internalType":"uint16","name":"_against","type":"uint16"},{"indexed":false,"internalType":"string","name":"newPrice","type":"string"}],"name":"ProposalPassed","type":"event"},{"anonymous":false,"inputs":[{"indexed":false,"internalType":"address","name":"addr","type":"address"},{"indexed":false,"internalType":"uint256","name":"amount","type":"uint256"}],"name":"RewardedProposer","type":"event"},{"anonymous":false,"inputs":[{"indexed":false,"internalType":"address","name":"oldOwner","type":"address"},{"indexed":false,"internalType":"address","name":"newOwner","type":"address"}],"name":"TransferredOwnership","type":"event"},{"anonymous":false,"inputs":[{"indexed":false,"internalType":"address","name":"voter","type":"address"},{"indexed":false,"internalType":"uint16","name":"votes","type":"uint16"}],"name":"VotedDown","type":"event"},{"anonymous":false,"inputs":[{"indexed":false,"internalType":"address","name":"voter","type":"address"},{"indexed":false,"internalType":"uint16","name":"votes","type":"uint16"}],"name":"VotedUp","type":"event"},{"inputs":[{"internalType":"address","name":"addr","type":"address"}],"name":"assignNFTCollection","outputs":[],"stateMutability":"nonpayable","type":"function"},{"inputs":[{"internalType":"address","name":"addr","type":"address"}],"name":"assignTokenAddress","outputs":[],"stateMutability":"nonpayable","type":"function"},{"inputs":[],"name":"finalizeProposal","outputs":[],"stateMutability":"nonpayable","type":"function"},{"inputs":[],"name":"getPrice","outputs":[{"internalType":"string","name":"","type":"string"}],"stateMutability":"view","type":"function"},{"inputs":[],"name":"latestProposal","outputs":[{"components":[{"internalType":"address","name":"proposerAddr","type":"address"},{"internalType":"string","name":"value","type":"string"},{"internalType":"string","name":"description","type":"string"},{"internalType":"bool","name":"finalized","type":"bool"}],"internalType":"struct DexhunePriceDAOBase.PriceProposal","name":"","type":"tuple"}],"stateMutability":"view","type":"function"},{"inputs":[],"name":"nftAddress","outputs":[{"internalType":"address","name":"","type":"address"}],"stateMutability":"view","type":"function"},{"inputs":[],"name":"owner","outputs":[{"internalType":"address","name":"","type":"address"}],"stateMutability":"view","type":"function"},{"inputs":[],"name":"proposalEndsAfter","outputs":[{"internalType":"uint256","name":"","type":"uint256"}],"stateMutability":"view","type":"function"},{"inputs":[{"internalType":"string","name":"price","type":"string"},{"internalType":"string","name":"description","type":"string"}],"name":"proposePrice","outputs":[],"stateMutability":"nonpayable","type":"function"},{"inputs":[],"name":"tokenAddress","outputs":[{"internalType":"address","name":"","type":"address"}],"stateMutability":"view","type":"function"},{"inputs":[{"internalType":"address","name":"_address","type":"address"}],"name":"transferOwnership","outputs":[],"stateMutability":"nonpayable","type":"function"},{"inputs":[],"name":"voteDown","outputs":[],"stateMutability":"nonpayable","type":"function"},{"inputs":[],"name":"voteUp","outputs":[],"stateMutability":"nonpayable","type":"function"},{"inputs":[],"name":"votingEndsAfter","outputs":[{"internalType":"uint256","name":"","type":"uint256"}],"stateMutability":"view","type":"function"}],"evm":{"bytecode":{"linkReferences":{},"object":"60806040523480156200001157600080fd5b5060008054336001600160a01b0319918216811790925560408051608081018252928352805180820182526004808252631395531360e21b60208084018290528087019384528451808601865292835282015291840191909152600160608401528251600880549093166001600160a01b0390911617825551600990620000999082620001e6565b5060408201516002820190620000b09082620001e6565b50606091909101516003909101805460ff1916911515919091179055620002b6565b634e487b7160e01b600052604160045260246000fd5b634e487b7160e01b600052602260045260246000fd5b6002810460018216806200011357607f821691505b602082108103620001285762000128620000e8565b50919050565b60006200013f6200013c8381565b90565b92915050565b62000150836200012e565b815460001960089490940293841b1916921b91909117905550565b60006200017a81848462000145565b505050565b818110156200019e57620001956000826200016b565b6001016200017f565b5050565b601f8211156200017a576000818152602090206020601f85010481016020851015620001cb5750805b620001df6020601f8601048301826200017f565b5050505050565b81516001600160401b03811115620002025762000202620000d2565b6200020e8254620000fe565b6200021b828285620001a2565b6020601f831160018114620002525760008415620002395750858201515b600019600886021c1981166002860217865550620002ae565b600085815260208120601f198616915b8281101562000284578885015182556020948501946001909201910162000262565b86831015620002a15784890151600019601f89166008021c191682555b6001600288020188555050505b505050505050565b61159380620002c66000396000f3fe608060405234801561001057600080fd5b50600436106100ea5760003560e01c8063b525ef0d1161008c578063c4dc155611610066578063c4dc1556146101b3578063c70d33e3146101bb578063f2fde38b146101d0578063f863b454146101e357600080fd5b8063b525ef0d14610183578063b96762ae1461018b578063c2b798361461019e57600080fd5b80638da5cb5b116100c85780638da5cb5b1461014057806398d5fdca146101535780639d76ea5814610168578063b07672ae1461017b57600080fd5b806302de9f2e146100ef5780633d75da94146101045780635bf8633a14610117575b600080fd5b6101026100fd366004610e8d565b6101eb565b005b610102610112366004610f32565b610311565b60035461012a906001600160a01b031681565b6040516101379190610f62565b60405180910390f35b60005461012a906001600160a01b031681565b61015b6103e9565b6040516101379190610fc6565b60045461012a906001600160a01b031681565b61010261047b565b610102610519565b610102610199366004610f32565b6105d3565b6101a66106ab565b6040516101379190611041565b610102610838565b6101c3610a31565b6040516101379190611058565b6101026101de366004610f32565b610a5d565b6101c3610ab7565b60006101f5610add565b1161021357604051637c75aa6f60e11b815260040160405180910390fd5b600b5460ff16610240574260065411156102405760405163a9174b1760e01b815260040160405180910390fd5b61024c6102584261107c565b60065561025b61012c4261107c565b60075560408051608081018252338082526020820185905291810183905260006060820152600880546001600160a01b03191690921782559060096102a08582611169565b50604082015160028201906102b59082611169565b50606091909101516003909101805460ff19169115159190911790556040517f7ee0a17a4563c16d1072d423dc4448c5d14ac076b5982abc0762421172beea619061030590849084903390611231565b60405180910390a15050565b610319610b54565b6040516370a0823160e01b815281906001600160a01b038216906370a0823190610347903090600401610f62565b602060405180830381865afa158015610364573d6000803e3d6000fd5b505050506040513d601f19601f820116820180604052508101906103889190611276565b50600180546001600160a01b038084166001600160a01b03199283161790925560048054928516929091169190911790556040517f26317221e726b9c268b3046da713d2019ae4bc96acad9c2e1c534da90fc5e9d490610305908490610f62565b6060600580546103f8906110a5565b80601f0160208091040260200160405190810160405280929190818152602001828054610424906110a5565b80156104715780601f1061044657610100808354040283529160200191610471565b820191906000526020600020905b81548152906001019060200180831161045457829003601f168201915b5050505050905090565b6000610485610b8c565b600c8054600181019091557fdf6966c971051c3d54ec59162606531493a51404a002842f56009d7e5cf4a8c7018054336001600160a01b031990911681179091556000818152600d602052604090819020805461ffff191661ffff851617905551919250907f33fabba9378c138b4fd0872656523539fe2ca7f3ca14a28c15be6922c925dd879061030590839085906112a1565b6000610523610b8c565b600c80546001810182556000919091527fdf6966c971051c3d54ec59162606531493a51404a002842f56009d7e5cf4a8c70180546001600160a01b03191633908117909155909150610574826112bc565b6001600160a01b0382166000908152600d602052604090819020805461ffff191661ffff9390931692909217909155517faab3f0444f9ebdc2f3123616cd1ef4cd06e39f5d865030bc51aa785362965c7c9061030590839085906112a1565b6105db610b54565b6040516370a0823160e01b815281906001600160a01b038216906370a0823190610609903090600401610f62565b602060405180830381865afa158015610626573d6000803e3d6000fd5b505050506040513d601f19601f8201168201806040525081019061064a9190611276565b50600280546001600160a01b038084166001600160a01b03199283161790925560038054928516929091169190911790556040517f708e1e0cc2637dd479a4cb4ab8dc07655e145e2b159249aca7146ab62b67d00590610305908490610f62565b6106e1604051806080016040528060006001600160a01b0316815260200160608152602001606081526020016000151581525090565b6040805160808101909152600880546001600160a01b031682526009805460208401919061070e906110a5565b80601f016020809104026020016040519081016040528092919081815260200182805461073a906110a5565b80156107875780601f1061075c57610100808354040283529160200191610787565b820191906000526020600020905b81548152906001019060200180831161076a57829003601f168201915b505050505081526020016002820180546107a0906110a5565b80601f01602080910402602001604051908101604052809291908181526020018280546107cc906110a5565b80156108195780601f106107ee57610100808354040283529160200191610819565b820191906000526020600020905b8154815290600101906020018083116107fc57829003601f168201915b50505091835250506003919091015460ff161515602090910152919050565b42600754111561085b5760405163a9174b1760e01b815260040160405180910390fd5b600654421061087d5760405163c1f1c4df60e01b815260040160405180910390fd5b600b5460ff16156108a157604051639c93eb2d60e01b815260040160405180910390fd5b600c5460009081908190819081905b801561097257600c6108c36001836112e3565b815481106108d3576108d36112f6565b60009182526020808320909101546001600160a01b0316808352600d90915260409091205460010b9450915061090882610c19565b92508261ffff1661091885610c8b565b61ffff16036109605760008460010b131561093e57610937848761130c565b9550610960565b60008460010b121561096057610953846112bc565b61095d908661130c565b94505b8061096a8161132a565b9150506108b0565b50600b805460ff1916600117905561ffff80851690861611156109f0576109a161099c858761130c565b610caa565b60056109ae60098261134c565b507fc965d144fc58d48e5f9a6aa80cd6057c77af099482c91f56a9c36920ed60c278858560056040516109e393929190611490565b60405180910390a1610a2a565b7faeedba74278bf0d29c304a846608f0c3e654216bb74466df6969108e1ac2b1c88585604051610a219291906114c6565b60405180910390a15b5050505050565b600080429050806006541015610a4957600091505090565b80600654610a5791906112e3565b91505090565b610a65610b54565b600080546001600160a01b038381166001600160a01b0319831681179093556040519116917f850b3df64837d7d518b45f5aa64d104652c3b80eb5b34a8e3d9eb666cb7cdea5916103059184916114d4565b600080429050806007541015610acf57600091505090565b80600754610a5791906112e3565b6002546040516370a0823160e01b81526000916001600160a01b0316906370a0823190610b0e903390600401610f62565b602060405180830381865afa158015610b2b573d6000803e3d6000fd5b505050506040513d601f19601f82011682018060405250810190610b4f9190611276565b905090565b6000546001600160a01b03163314610b8a57336040516332b2baa360e01b8152600401610b819190610f62565b60405180910390fd5b565b60006007544210610bb057604051630f70748560e21b815260040160405180910390fd5b336000908152600d602052604090205460010b8015610be257604051637c9a1cf960e01b815260040160405180910390fd5b6000610bec610add565b905060008161ffff1611610c1357604051637c75aa6f60e11b815260040160405180910390fd5b92915050565b6002546040516370a0823160e01b81526000916001600160a01b0316906370a0823190610c4a908590600401610f62565b602060405180830381865afa158015610c67573d6000803e3d6000fd5b505050506040513d601f19601f82011682018060405250810190610c139190611276565b6000808260010b1215610ca657610ca1826112bc565b610c13565b5090565b6008546001600160a01b03166000610cc7601461ffff85166114ef565b9050614e20811115610cd85750614e205b60015460405163a9059cbb60e01b81526001600160a01b039091169063a9059cbb90610d0a908590859060040161150e565b6020604051808303816000875af1925050508015610d45575060408051601f3d908101601f19168201909252610d429181019061153c565b60015b15610d8557507fca770103cdd14b19db75e20f62f734f176926315f9d140ddb5ba416422a6c08e8282604051610d7c92919061150e565b60405180910390a15b505050565b634e487b7160e01b600052604160045260246000fd5b601f19601f830116810181811067ffffffffffffffff82111715610dc657610dc6610d8a565b6040525050565b6000610dd860405190565b9050610de48282610da0565b919050565b600067ffffffffffffffff821115610e0357610e03610d8a565b601f19601f83011660200192915050565b82818337506000910152565b6000610e33610e2e84610de9565b610dcd565b905082815260208101848484011115610e4e57610e4e600080fd5b610e59848285610e14565b509392505050565b600082601f830112610e7557610e75600080fd5b8135610e85848260208601610e20565b949350505050565b60008060408385031215610ea357610ea3600080fd5b823567ffffffffffffffff811115610ebd57610ebd600080fd5b610ec985828601610e61565b925050602083013567ffffffffffffffff811115610ee957610ee9600080fd5b610ef585828601610e61565b9150509250929050565b60006001600160a01b038216610c13565b610f1981610eff565b8114610f2457600080fd5b50565b8035610c1381610f10565b600060208284031215610f4757610f47600080fd5b6000610e858484610f27565b610f5c81610eff565b82525050565b60208101610c138284610f53565b60005b83811015610f8b578181015183820152602001610f73565b50506000910152565b6000610f9e825190565b808452602084019350610fb5818560208601610f70565b601f01601f19169290920192915050565b60208082528101610fd78184610f94565b9392505050565b801515610f5c565b80516000906080840190610ffa8582610f53565b50602083015184820360208601526110128282610f94565b9150506040830151848203604086015261102c8282610f94565b9150506060830151610e596060860182610fde565b60208082528101610fd78184610fe6565b80610f5c565b60208101610c138284611052565b634e487b7160e01b600052601160045260246000fd5b80820180821115610c1357610c13611066565b634e487b7160e01b600052602260045260246000fd5b6002810460018216806110b957607f821691505b6020821081036110cb576110cb61108f565b50919050565b6000610c136110dd8381565b90565b6110e9836110d1565b815460001960089490940293841b1916921b91909117905550565b6000610d858184846110e0565b8181101561112c57611124600082611104565b600101611111565b5050565b601f821115610d85576000818152602090206020601f850104810160208510156111575750805b610a2a6020601f860104830182611111565b815167ffffffffffffffff81111561118357611183610d8a565b61118d82546110a5565b611198828285611130565b6020601f8311600181146111cd57600084156111b45750858201515b600019600886021c19811660028602175b865550611229565b600085815260208120601f198616915b828110156111fd57888501518255602094850194600190920191016111dd565b8683101561121c57888501516000196008601f8a16021c1981165b8355505b6001600288020188555050505b505050505050565b606080825281016112428186610f94565b905081810360208301526112568185610f94565b9050610e856040830184610f53565b80610f19565b8051610c1381611265565b60006020828403121561128b5761128b600080fd5b6000610e85848461126b565b61ffff8116610f5c565b604081016112af8285610f53565b610fd76020830184611297565b60006112c88260010b90565b9150617fff1982036112dc576112dc611066565b5060000390565b81810381811115610c1357610c13611066565b634e487b7160e01b600052603260045260246000fd5b61ffff918216919081169082820190811115610c1357610c13611066565b60008161133957611339611066565b506000190190565b8054610c13816110a5565b818103611357575050565b61136082611341565b67ffffffffffffffff81111561137857611378610d8a565b61138282546110a5565b61138d828285611130565b6000601f8311600181146113bd57600084156111b4575081860154600019600886021c19811660028602176111c5565b600095865260208087208688529087209096601f19861691905b828110156113f757888501548255600194850194909101906020016113d7565b8683101561121c57888501546000196008601f8a16021c198116611218565b60008154611423816110a5565b808552602085019450600182168015611443576001811461145957611487565b60ff198316865260208215150286019350611487565b60008581526020902060005b8381101561148157815488820152600190910190602001611465565b87019450505b50505092915050565b6060810161149e8286611297565b6114ab6020830185611297565b81810360408301526114bd8184611416565b95945050505050565b604081016112af8285611297565b604081016114e28285610f53565b610fd76020830184610f53565b81810280821583820485141761150757611507611066565b5092915050565b6040810161151c8285610f53565b610fd76020830184611052565b801515610f19565b8051610c1381611529565b60006020828403121561155157611551600080fd5b6000610e85848461153156fea26469706673582212206548fc7634cf351d3e3b3ca045fda040015823e84a91a21adff17a72ef3eefb664736f6c63430008160033","opcodes":"PUSH1 0x80 PUSH1 0x40 MSTORE CALLVALUE DUP1 ISZERO PUSH3 0x11 JUMPI PUSH1 0x0 DUP1 REVERT JUMPDEST POP PUSH1 0x0 DUP1 SLOAD CALLER PUSH1 0x1 PUSH1 0x1 PUSH1 0xA0 SHL SUB NOT SWAP2 DUP3 AND DUP2 OR SWAP1 SWAP3 SSTORE PUSH1 0x40 DUP1 MLOAD PUSH1 0x80 DUP2 ADD DUP3 MSTORE SWAP3 DUP4 MSTORE DUP1 MLOAD DUP1 DUP3 ADD DUP3 MSTORE PUSH1 0x4 DUP1 DUP3 MSTORE PUSH4 0x13955313 PUSH1 0xE2 SHL PUSH1 0x20 DUP1 DUP5 ADD DUP3 SWAP1 MSTORE DUP1 DUP8 ADD SWAP4 DUP5 MSTORE DUP5 MLOAD DUP1 DUP7 ADD DUP7 MSTORE SWAP3 DUP4 MSTORE DUP3 ADD MSTORE SWAP2 DUP5 ADD SWAP2 SWAP1 SWAP2 MSTORE PUSH1 0x1 PUSH1 0x60 DUP5 ADD MSTORE DUP3 MLOAD PUSH1 0x8 DUP1 SLOAD SWAP1 SWAP4 AND PUSH1 0x1 PUSH1 0x1 PUSH1 0xA0 SHL SUB SWAP1 SWAP2 AND OR DUP3 SSTORE MLOAD PUSH1 0x9 SWAP1 PUSH3 0x99 SWAP1 DUP3 PUSH3 0x1E6 JUMP JUMPDEST POP PUSH1 0x40 DUP3 ADD MLOAD PUSH1 0x2 DUP3 ADD SWAP1 PUSH3 0xB0 SWAP1 DUP3 PUSH3 0x1E6 JUMP JUMPDEST POP PUSH1 0x60 SWAP2 SWAP1 SWAP2 ADD MLOAD PUSH1 0x3 SWAP1 SWAP2 ADD DUP1 SLOAD PUSH1 0xFF NOT AND SWAP2 ISZERO ISZERO SWAP2 SWAP1 SWAP2 OR SWAP1 SSTORE PUSH3 0x2B6 JUMP JUMPDEST PUSH4 0x4E487B71 PUSH1 0xE0 SHL PUSH1 0x0 MSTORE PUSH1 0x41 PUSH1 0x4 MSTORE PUSH1 0x24 PUSH1 0x0 REVERT JUMPDEST PUSH4 0x4E487B71 PUSH1 0xE0 SHL PUSH1 0x0 MSTORE PUSH1 0x22 PUSH1 0x4 MSTORE PUSH1 0x24 PUSH1 0x0 REVERT JUMPDEST PUSH1 0x2 DUP2 DIV PUSH1 0x1 DUP3 AND DUP1 PUSH3 0x113 JUMPI PUSH1 0x7F DUP3 AND SWAP2 POP JUMPDEST PUSH1 0x20 DUP3 LT DUP2 SUB PUSH3 0x128 JUMPI PUSH3 0x128 PUSH3 0xE8 JUMP JUMPDEST POP SWAP2 SWAP1 POP JUMP JUMPDEST PUSH1 0x0 PUSH3 0x13F PUSH3 0x13C DUP4 DUP2 JUMP JUMPDEST SWAP1 JUMP JUMPDEST SWAP3 SWAP2 POP POP JUMP JUMPDEST PUSH3 0x150 DUP4 PUSH3 0x12E JUMP JUMPDEST DUP2 SLOAD PUSH1 0x0 NOT PUSH1 0x8 SWAP5 SWAP1 SWAP5 MUL SWAP4 DUP5 SHL NOT AND SWAP3 SHL SWAP2 SWAP1 SWAP2 OR SWAP1 SSTORE POP JUMP JUMPDEST PUSH1 0x0 PUSH3 0x17A DUP2 DUP5 DUP5 PUSH3 0x145 JUMP JUMPDEST POP POP POP JUMP JUMPDEST DUP2 DUP2 LT ISZERO PUSH3 0x19E JUMPI PUSH3 0x195 PUSH1 0x0 DUP3 PUSH3 0x16B JUMP JUMPDEST PUSH1 0x1 ADD PUSH3 0x17F JUMP JUMPDEST POP POP JUMP JUMPDEST PUSH1 0x1F DUP3 GT ISZERO PUSH3 0x17A JUMPI PUSH1 0x0 DUP2 DUP2 MSTORE PUSH1 0x20 SWAP1 KECCAK256 PUSH1 0x20 PUSH1 0x1F DUP6 ADD DIV DUP2 ADD PUSH1 0x20 DUP6 LT ISZERO PUSH3 0x1CB JUMPI POP DUP1 JUMPDEST PUSH3 0x1DF PUSH1 0x20 PUSH1 0x1F DUP7 ADD DIV DUP4 ADD DUP3 PUSH3 0x17F JUMP JUMPDEST POP POP POP POP POP JUMP JUMPDEST DUP2 MLOAD PUSH1 0x1 PUSH1 0x1 PUSH1 0x40 SHL SUB DUP2 GT ISZERO PUSH3 0x202 JUMPI PUSH3 0x202 PUSH3 0xD2 JUMP JUMPDEST PUSH3 0x20E DUP3 SLOAD PUSH3 0xFE JUMP JUMPDEST PUSH3 0x21B DUP3 DUP3 DUP6 PUSH3 0x1A2 JUMP JUMPDEST PUSH1 0x20 PUSH1 0x1F DUP4 GT PUSH1 0x1 DUP2 EQ PUSH3 0x252 JUMPI PUSH1 0x0 DUP5 ISZERO PUSH3 0x239 JUMPI POP DUP6 DUP3 ADD MLOAD JUMPDEST PUSH1 0x0 NOT PUSH1 0x8 DUP7 MUL SHR NOT DUP2 AND PUSH1 0x2 DUP7 MUL OR DUP7 SSTORE POP PUSH3 0x2AE JUMP JUMPDEST PUSH1 0x0 DUP6 DUP2 MSTORE PUSH1 0x20 DUP2 KECCAK256 PUSH1 0x1F NOT DUP7 AND SWAP2 JUMPDEST DUP3 DUP2 LT ISZERO PUSH3 0x284 JUMPI DUP9 DUP6 ADD MLOAD DUP3 SSTORE PUSH1 0x20 SWAP5 DUP6 ADD SWAP5 PUSH1 0x1 SWAP1 SWAP3 ADD SWAP2 ADD PUSH3 0x262 JUMP JUMPDEST DUP7 DUP4 LT ISZERO PUSH3 0x2A1 JUMPI DUP5 DUP10 ADD MLOAD PUSH1 0x0 NOT PUSH1 0x1F DUP10 AND PUSH1 0x8 MUL SHR NOT AND DUP3 SSTORE JUMPDEST PUSH1 0x1 PUSH1 0x2 DUP9 MUL ADD DUP9 SSTORE POP POP POP JUMPDEST POP POP POP POP POP POP JUMP JUMPDEST PUSH2 0x1593 DUP1 PUSH3 0x2C6 PUSH1 0x0 CODECOPY PUSH1 0x0 RETURN INVALID PUSH1 0x80 PUSH1 0x40 MSTORE CALLVALUE DUP1 ISZERO PUSH2 0x10 JUMPI PUSH1 0x0 DUP1 REVERT JUMPDEST POP PUSH1 0x4 CALLDATASIZE LT PUSH2 0xEA JUMPI PUSH1 0x0 CALLDATALOAD PUSH1 0xE0 SHR DUP1 PUSH4 0xB525EF0D GT PUSH2 0x8C JUMPI DUP1 PUSH4 0xC4DC1556 GT PUSH2 0x66 JUMPI DUP1 PUSH4 0xC4DC1556 EQ PUSH2 0x1B3 JUMPI DUP1 PUSH4 0xC70D33E3 EQ PUSH2 0x1BB JUMPI DUP1 PUSH4 0xF2FDE38B EQ PUSH2 0x1D0 JUMPI DUP1 PUSH4 0xF863B454 EQ PUSH2 0x1E3 JUMPI PUSH1 0x0 DUP1 REVERT JUMPDEST DUP1 PUSH4 0xB525EF0D EQ PUSH2 0x183 JUMPI DUP1 PUSH4 0xB96762AE EQ PUSH2 0x18B JUMPI DUP1 PUSH4 0xC2B79836 EQ PUSH2 0x19E JUMPI PUSH1 0x0 DUP1 REVERT JUMPDEST DUP1 PUSH4 0x8DA5CB5B GT PUSH2 0xC8 JUMPI DUP1 PUSH4 0x8DA5CB5B EQ PUSH2 0x140 JUMPI DUP1 PUSH4 0x98D5FDCA EQ PUSH2 0x153 JUMPI DUP1 PUSH4 0x9D76EA58 EQ PUSH2 0x168 JUMPI DUP1 PUSH4 0xB07672AE EQ PUSH2 0x17B JUMPI PUSH1 0x0 DUP1 REVERT JUMPDEST DUP1 PUSH4 0x2DE9F2E EQ PUSH2 0xEF JUMPI DUP1 PUSH4 0x3D75DA94 EQ PUSH2 0x104 JUMPI DUP1 PUSH4 0x5BF8633A EQ PUSH2 0x117 JUMPI JUMPDEST PUSH1 0x0 DUP1 REVERT JUMPDEST PUSH2 0x102 PUSH2 0xFD CALLDATASIZE PUSH1 0x4 PUSH2 0xE8D JUMP JUMPDEST PUSH2 0x1EB JUMP JUMPDEST STOP JUMPDEST PUSH2 0x102 PUSH2 0x112 CALLDATASIZE PUSH1 0x4 PUSH2 0xF32 JUMP JUMPDEST PUSH2 0x311 JUMP JUMPDEST PUSH1 0x3 SLOAD PUSH2 0x12A SWAP1 PUSH1 0x1 PUSH1 0x1 PUSH1 0xA0 SHL SUB AND DUP2 JUMP JUMPDEST PUSH1 0x40 MLOAD PUSH2 0x137 SWAP2 SWAP1 PUSH2 0xF62 JUMP JUMPDEST PUSH1 0x40 MLOAD DUP1 SWAP2 SUB SWAP1 RETURN JUMPDEST PUSH1 0x0 SLOAD PUSH2 0x12A SWAP1 PUSH1 0x1 PUSH1 0x1 PUSH1 0xA0 SHL SUB AND DUP2 JUMP JUMPDEST PUSH2 0x15B PUSH2 0x3E9 JUMP JUMPDEST PUSH1 0x40 MLOAD PUSH2 0x137 SWAP2 SWAP1 PUSH2 0xFC6 JUMP JUMPDEST PUSH1 0x4 SLOAD PUSH2 0x12A SWAP1 PUSH1 0x1 PUSH1 0x1 PUSH1 0xA0 SHL SUB AND DUP2 JUMP JUMPDEST PUSH2 0x102 PUSH2 0x47B JUMP JUMPDEST PUSH2 0x102 PUSH2 0x519 JUMP JUMPDEST PUSH2 0x102 PUSH2 0x199 CALLDATASIZE PUSH1 0x4 PUSH2 0xF32 JUMP JUMPDEST PUSH2 0x5D3 JUMP JUMPDEST PUSH2 0x1A6 PUSH2 0x6AB JUMP JUMPDEST PUSH1 0x40 MLOAD PUSH2 0x137 SWAP2 SWAP1 PUSH2 0x1041 JUMP JUMPDEST PUSH2 0x102 PUSH2 0x838 JUMP JUMPDEST PUSH2 0x1C3 PUSH2 0xA31 JUMP JUMPDEST PUSH1 0x40 MLOAD PUSH2 0x137 SWAP2 SWAP1 PUSH2 0x1058 JUMP JUMPDEST PUSH2 0x102 PUSH2 0x1DE CALLDATASIZE PUSH1 0x4 PUSH2 0xF32 JUMP JUMPDEST PUSH2 0xA5D JUMP JUMPDEST PUSH2 0x1C3 PUSH2 0xAB7 JUMP JUMPDEST PUSH1 0x0 PUSH2 0x1F5 PUSH2 0xADD JUMP JUMPDEST GT PUSH2 0x213 JUMPI PUSH1 0x40 MLOAD PUSH4 0x7C75AA6F PUSH1 0xE1 SHL DUP2 MSTORE PUSH1 0x4 ADD PUSH1 0x40 MLOAD DUP1 SWAP2 SUB SWAP1 REVERT JUMPDEST PUSH1 0xB SLOAD PUSH1 0xFF AND PUSH2 0x240 JUMPI TIMESTAMP PUSH1 0x6 SLOAD GT ISZERO PUSH2 0x240 JUMPI PUSH1 0x40 MLOAD PUSH4 0xA9174B17 PUSH1 0xE0 SHL DUP2 MSTORE PUSH1 0x4 ADD PUSH1 0x40 MLOAD DUP1 SWAP2 SUB SWAP1 REVERT JUMPDEST PUSH2 0x24C PUSH2 0x258 TIMESTAMP PUSH2 0x107C JUMP JUMPDEST PUSH1 0x6 SSTORE PUSH2 0x25B PUSH2 0x12C TIMESTAMP PUSH2 0x107C JUMP JUMPDEST PUSH1 0x7 SSTORE PUSH1 0x40 DUP1 MLOAD PUSH1 0x80 DUP2 ADD DUP3 MSTORE CALLER DUP1 DUP3 MSTORE PUSH1 0x20 DUP3 ADD DUP6 SWAP1 MSTORE SWAP2 DUP2 ADD DUP4 SWAP1 MSTORE PUSH1 0x0 PUSH1 0x60 DUP3 ADD MSTORE PUSH1 0x8 DUP1 SLOAD PUSH1 0x1 PUSH1 0x1 PUSH1 0xA0 SHL SUB NOT AND SWAP1 SWAP3 OR DUP3 SSTORE SWAP1 PUSH1 0x9 PUSH2 0x2A0 DUP6 DUP3 PUSH2 0x1169 JUMP JUMPDEST POP PUSH1 0x40 DUP3 ADD MLOAD PUSH1 0x2 DUP3 ADD SWAP1 PUSH2 0x2B5 SWAP1 DUP3 PUSH2 0x1169 JUMP JUMPDEST POP PUSH1 0x60 SWAP2 SWAP1 SWAP2 ADD MLOAD PUSH1 0x3 SWAP1 SWAP2 ADD DUP1 SLOAD PUSH1 0xFF NOT AND SWAP2 ISZERO ISZERO SWAP2 SWAP1 SWAP2 OR SWAP1 SSTORE PUSH1 0x40 MLOAD PUSH32 0x7EE0A17A4563C16D1072D423DC4448C5D14AC076B5982ABC0762421172BEEA61 SWAP1 PUSH2 0x305 SWAP1 DUP5 SWAP1 DUP5 SWAP1 CALLER SWAP1 PUSH2 0x1231 JUMP JUMPDEST PUSH1 0x40 MLOAD DUP1 SWAP2 SUB SWAP1 LOG1 POP POP JUMP JUMPDEST PUSH2 0x319 PUSH2 0xB54 JUMP JUMPDEST PUSH1 0x40 MLOAD PUSH4 0x70A08231 PUSH1 0xE0 SHL DUP2 MSTORE DUP2 SWAP1 PUSH1 0x1 PUSH1 0x1 PUSH1 0xA0 SHL SUB DUP3 AND SWAP1 PUSH4 0x70A08231 SWAP1 PUSH2 0x347 SWAP1 ADDRESS SWAP1 PUSH1 0x4 ADD PUSH2 0xF62 JUMP JUMPDEST PUSH1 0x20 PUSH1 0x40 MLOAD DUP1 DUP4 SUB DUP2 DUP7 GAS STATICCALL ISZERO DUP1 ISZERO PUSH2 0x364 JUMPI RETURNDATASIZE PUSH1 0x0 DUP1 RETURNDATACOPY RETURNDATASIZE PUSH1 0x0 REVERT JUMPDEST POP POP POP POP PUSH1 0x40 MLOAD RETURNDATASIZE PUSH1 0x1F NOT PUSH1 0x1F DUP3 ADD AND DUP3 ADD DUP1 PUSH1 0x40 MSTORE POP DUP2 ADD SWAP1 PUSH2 0x388 SWAP2 SWAP1 PUSH2 0x1276 JUMP JUMPDEST POP PUSH1 0x1 DUP1 SLOAD PUSH1 0x1 PUSH1 0x1 PUSH1 0xA0 SHL SUB DUP1 DUP5 AND PUSH1 0x1 PUSH1 0x1 PUSH1 0xA0 SHL SUB NOT SWAP3 DUP4 AND OR SWAP1 SWAP3 SSTORE PUSH1 0x4 DUP1 SLOAD SWAP3 DUP6 AND SWAP3 SWAP1 SWAP2 AND SWAP2 SWAP1 SWAP2 OR SWAP1 SSTORE PUSH1 0x40 MLOAD PUSH32 0x26317221E726B9C268B3046DA713D2019AE4BC96ACAD9C2E1C534DA90FC5E9D4 SWAP1 PUSH2 0x305 SWAP1 DUP5 SWAP1 PUSH2 0xF62 JUMP JUMPDEST PUSH1 0x60 PUSH1 0x5 DUP1 SLOAD PUSH2 0x3F8 SWAP1 PUSH2 0x10A5 JUMP JUMPDEST DUP1 PUSH1 0x1F ADD PUSH1 0x20 DUP1 SWAP2 DIV MUL PUSH1 0x20 ADD PUSH1 0x40 MLOAD SWAP1 DUP2 ADD PUSH1 0x40 MSTORE DUP1 SWAP3 SWAP2 SWAP1 DUP2 DUP2 MSTORE PUSH1 0x20 ADD DUP3 DUP1 SLOAD PUSH2 0x424 SWAP1 PUSH2 0x10A5 JUMP JUMPDEST DUP1 ISZERO PUSH2 0x471 JUMPI DUP1 PUSH1 0x1F LT PUSH2 0x446 JUMPI PUSH2 0x100 DUP1 DUP4 SLOAD DIV MUL DUP4 MSTORE SWAP2 PUSH1 0x20 ADD SWAP2 PUSH2 0x471 JUMP JUMPDEST DUP3 ADD SWAP2 SWAP1 PUSH1 0x0 MSTORE PUSH1 0x20 PUSH1 0x0 KECCAK256 SWAP1 JUMPDEST DUP2 SLOAD DUP2 MSTORE SWAP1 PUSH1 0x1 ADD SWAP1 PUSH1 0x20 ADD DUP1 DUP4 GT PUSH2 0x454 JUMPI DUP3 SWAP1 SUB PUSH1 0x1F AND DUP3 ADD SWAP2 JUMPDEST POP POP POP POP POP SWAP1 POP SWAP1 JUMP JUMPDEST PUSH1 0x0 PUSH2 0x485 PUSH2 0xB8C JUMP JUMPDEST PUSH1 0xC DUP1 SLOAD PUSH1 0x1 DUP2 ADD SWAP1 SWAP2 SSTORE PUSH32 0xDF6966C971051C3D54EC59162606531493A51404A002842F56009D7E5CF4A8C7 ADD DUP1 SLOAD CALLER PUSH1 0x1 PUSH1 0x1 PUSH1 0xA0 SHL SUB NOT SWAP1 SWAP2 AND DUP2 OR SWAP1 SWAP2 SSTORE PUSH1 0x0 DUP2 DUP2 MSTORE PUSH1 0xD PUSH1 0x20 MSTORE PUSH1 0x40 SWAP1 DUP2 SWAP1 KECCAK256 DUP1 SLOAD PUSH2 0xFFFF NOT AND PUSH2 0xFFFF DUP6 AND OR SWAP1 SSTORE MLOAD SWAP2 SWAP3 POP SWAP1 PUSH32 0x33FABBA9378C138B4FD0872656523539FE2CA7F3CA14A28C15BE6922C925DD87 SWAP1 PUSH2 0x305 SWAP1 DUP4 SWAP1 DUP6 SWAP1 PUSH2 0x12A1 JUMP JUMPDEST PUSH1 0x0 PUSH2 0x523 PUSH2 0xB8C JUMP JUMPDEST PUSH1 0xC DUP1 SLOAD PUSH1 0x1 DUP2 ADD DUP3 SSTORE PUSH1 0x0 SWAP2 SWAP1 SWAP2 MSTORE PUSH32 0xDF6966C971051C3D54EC59162606531493A51404A002842F56009D7E5CF4A8C7 ADD DUP1 SLOAD PUSH1 0x1 PUSH1 0x1 PUSH1 0xA0 SHL SUB NOT AND CALLER SWAP1 DUP2 OR SWAP1 SWAP2 SSTORE SWAP1 SWAP2 POP PUSH2 0x574 DUP3 PUSH2 0x12BC JUMP JUMPDEST PUSH1 0x1 PUSH1 0x1 PUSH1 0xA0 SHL SUB DUP3 AND PUSH1 0x0 SWAP1 DUP2 MSTORE PUSH1 0xD PUSH1 0x20 MSTORE PUSH1 0x40 SWAP1 DUP2 SWAP1 KECCAK256 DUP1 SLOAD PUSH2 0xFFFF NOT AND PUSH2 0xFFFF SWAP4 SWAP1 SWAP4 AND SWAP3 SWAP1 SWAP3 OR SWAP1 SWAP2 SSTORE MLOAD PUSH32 0xAAB3F0444F9EBDC2F3123616CD1EF4CD06E39F5D865030BC51AA785362965C7C SWAP1 PUSH2 0x305 SWAP1 DUP4 SWAP1 DUP6 SWAP1 PUSH2 0x12A1 JUMP JUMPDEST PUSH2 0x5DB PUSH2 0xB54 JUMP JUMPDEST PUSH1 0x40 MLOAD PUSH4 0x70A08231 PUSH1 0xE0 SHL DUP2 MSTORE DUP2 SWAP1 PUSH1 0x1 PUSH1 0x1 PUSH1 0xA0 SHL SUB DUP3 AND SWAP1 PUSH4 0x70A08231 SWAP1 PUSH2 0x609 SWAP1 ADDRESS SWAP1 PUSH1 0x4 ADD PUSH2 0xF62 JUMP JUMPDEST PUSH1 0x20 PUSH1 0x40 MLOAD DUP1 DUP4 SUB DUP2 DUP7 GAS STATICCALL ISZERO DUP1 ISZERO PUSH2 0x626 JUMPI RETURNDATASIZE PUSH1 0x0 DUP1 RETURNDATACOPY RETURNDATASIZE PUSH1 0x0 REVERT JUMPDEST POP POP POP POP PUSH1 0x40 MLOAD RETURNDATASIZE PUSH1 0x1F NOT PUSH1 0x1F DUP3 ADD AND DUP3 ADD DUP1 PUSH1 0x40 MSTORE POP DUP2 ADD SWAP1 PUSH2 0x64A SWAP2 SWAP1 PUSH2 0x1276 JUMP JUMPDEST POP PUSH1 0x2 DUP1 SLOAD PUSH1 0x1 PUSH1 0x1 PUSH1 0xA0 SHL SUB DUP1 DUP5 AND PUSH1 0x1 PUSH1 0x1 PUSH1 0xA0 SHL SUB NOT SWAP3 DUP4 AND OR SWAP1 SWAP3 SSTORE PUSH1 0x3 DUP1 SLOAD SWAP3 DUP6 AND SWAP3 SWAP1 SWAP2 AND SWAP2 SWAP1 SWAP2 OR SWAP1 SSTORE PUSH1 0x40 MLOAD PUSH32 0x708E1E0CC2637DD479A4CB4AB8DC07655E145E2B159249ACA7146AB62B67D005 SWAP1 PUSH2 0x305 SWAP1 DUP5 SWAP1 PUSH2 0xF62 JUMP JUMPDEST PUSH2 0x6E1 PUSH1 0x40 MLOAD DUP1 PUSH1 0x80 ADD PUSH1 0x40 MSTORE DUP1 PUSH1 0x0 PUSH1 0x1 PUSH1 0x1 PUSH1 0xA0 SHL SUB AND DUP2 MSTORE PUSH1 0x20 ADD PUSH1 0x60 DUP2 MSTORE PUSH1 0x20 ADD PUSH1 0x60 DUP2 MSTORE PUSH1 0x20 ADD PUSH1 0x0 ISZERO ISZERO DUP2 MSTORE POP SWAP1 JUMP JUMPDEST PUSH1 0x40 DUP1 MLOAD PUSH1 0x80 DUP2 ADD SWAP1 SWAP2 MSTORE PUSH1 0x8 DUP1 SLOAD PUSH1 0x1 PUSH1 0x1 PUSH1 0xA0 SHL SUB AND DUP3 MSTORE PUSH1 0x9 DUP1 SLOAD PUSH1 0x20 DUP5 ADD SWAP2 SWAP1 PUSH2 0x70E SWAP1 PUSH2 0x10A5 JUMP JUMPDEST DUP1 PUSH1 0x1F ADD PUSH1 0x20 DUP1 SWAP2 DIV MUL PUSH1 0x20 ADD PUSH1 0x40 MLOAD SWAP1 DUP2 ADD PUSH1 0x40 MSTORE DUP1 SWAP3 SWAP2 SWAP1 DUP2 DUP2 MSTORE PUSH1 0x20 ADD DUP3 DUP1 SLOAD PUSH2 0x73A SWAP1 PUSH2 0x10A5 JUMP JUMPDEST DUP1 ISZERO PUSH2 0x787 JUMPI DUP1 PUSH1 0x1F LT PUSH2 0x75C JUMPI PUSH2 0x100 DUP1 DUP4 SLOAD DIV MUL DUP4 MSTORE SWAP2 PUSH1 0x20 ADD SWAP2 PUSH2 0x787 JUMP JUMPDEST DUP3 ADD SWAP2 SWAP1 PUSH1 0x0 MSTORE PUSH1 0x20 PUSH1 0x0 KECCAK256 SWAP1 JUMPDEST DUP2 SLOAD DUP2 MSTORE SWAP1 PUSH1 0x1 ADD SWAP1 PUSH1 0x20 ADD DUP1 DUP4 GT PUSH2 0x76A JUMPI DUP3 SWAP1 SUB PUSH1 0x1F AND DUP3 ADD SWAP2 JUMPDEST POP POP POP POP POP DUP2 MSTORE PUSH1 0x20 ADD PUSH1 0x2 DUP3 ADD DUP1 SLOAD PUSH2 0x7A0 SWAP1 PUSH2 0x10A5 JUMP JUMPDEST DUP1 PUSH1 0x1F ADD PUSH1 0x20 DUP1 SWAP2 DIV MUL PUSH1 0x20 ADD PUSH1 0x40 MLOAD SWAP1 DUP2 ADD PUSH1 0x40 MSTORE DUP1 SWAP3 SWAP2 SWAP1 DUP2 DUP2 MSTORE PUSH1 0x20 ADD DUP3 DUP1 SLOAD PUSH2 0x7CC SWAP1 PUSH2 0x10A5 JUMP JUMPDEST DUP1 ISZERO PUSH2 0x819 JUMPI DUP1 PUSH1 0x1F LT PUSH2 0x7EE JUMPI PUSH2 0x100 DUP1 DUP4 SLOAD DIV MUL DUP4 MSTORE SWAP2 PUSH1 0x20 ADD SWAP2 PUSH2 0x819 JUMP JUMPDEST DUP3 ADD SWAP2 SWAP1 PUSH1 0x0 MSTORE PUSH1 0x20 PUSH1 0x0 KECCAK256 SWAP1 JUMPDEST DUP2 SLOAD DUP2 MSTORE SWAP1 PUSH1 0x1 ADD SWAP1 PUSH1 0x20 ADD DUP1 DUP4 GT PUSH2 0x7FC JUMPI DUP3 SWAP1 SUB PUSH1 0x1F AND DUP3 ADD SWAP2 JUMPDEST POP POP POP SWAP2 DUP4 MSTORE POP POP PUSH1 0x3 SWAP2 SWAP1 SWAP2 ADD SLOAD PUSH1 0xFF AND ISZERO ISZERO PUSH1 0x20 SWAP1 SWAP2 ADD MSTORE SWAP2 SWAP1 POP JUMP JUMPDEST TIMESTAMP PUSH1 0x7 SLOAD GT ISZERO PUSH2 0x85B JUMPI PUSH1 0x40 MLOAD PUSH4 0xA9174B17 PUSH1 0xE0 SHL DUP2 MSTORE PUSH1 0x4 ADD PUSH1 0x40 MLOAD DUP1 SWAP2 SUB SWAP1 REVERT JUMPDEST PUSH1 0x6 SLOAD TIMESTAMP LT PUSH2 0x87D JUMPI PUSH1 0x40 MLOAD PUSH4 0xC1F1C4DF PUSH1 0xE0 SHL DUP2 MSTORE PUSH1 0x4 ADD PUSH1 0x40 MLOAD DUP1 SWAP2 SUB SWAP1 REVERT JUMPDEST PUSH1 0xB SLOAD PUSH1 0xFF AND ISZERO PUSH2 0x8A1 JUMPI PUSH1 0x40 MLOAD PUSH4 0x9C93EB2D PUSH1 0xE0 SHL DUP2 MSTORE PUSH1 0x4 ADD PUSH1 0x40 MLOAD DUP1 SWAP2 SUB SWAP1 REVERT JUMPDEST PUSH1 0xC SLOAD PUSH1 0x0 SWAP1 DUP2 SWAP1 DUP2 SWAP1 DUP2 SWAP1 DUP2 SWAP1 JUMPDEST DUP1 ISZERO PUSH2 0x972 JUMPI PUSH1 0xC PUSH2 0x8C3 PUSH1 0x1 DUP4 PUSH2 0x12E3 JUMP JUMPDEST DUP2 SLOAD DUP2 LT PUSH2 0x8D3 JUMPI PUSH2 0x8D3 PUSH2 0x12F6 JUMP JUMPDEST PUSH1 0x0 SWAP2 DUP3 MSTORE PUSH1 0x20 DUP1 DUP4 KECCAK256 SWAP1 SWAP2 ADD SLOAD PUSH1 0x1 PUSH1 0x1 PUSH1 0xA0 SHL SUB AND DUP1 DUP4 MSTORE PUSH1 0xD SWAP1 SWAP2 MSTORE PUSH1 0x40 SWAP1 SWAP2 KECCAK256 SLOAD PUSH1 0x1 SIGNEXTEND SWAP5 POP SWAP2 POP PUSH2 0x908 DUP3 PUSH2 0xC19 JUMP JUMPDEST SWAP3 POP DUP3 PUSH2 0xFFFF AND PUSH2 0x918 DUP6 PUSH2 0xC8B JUMP JUMPDEST PUSH2 0xFFFF AND SUB PUSH2 0x960 JUMPI PUSH1 0x0 DUP5 PUSH1 0x1 SIGNEXTEND SGT ISZERO PUSH2 0x93E JUMPI PUSH2 0x937 DUP5 DUP8 PUSH2 0x130C JUMP JUMPDEST SWAP6 POP PUSH2 0x960 JUMP JUMPDEST PUSH1 0x0 DUP5 PUSH1 0x1 SIGNEXTEND SLT ISZERO PUSH2 0x960 JUMPI PUSH2 0x953 DUP5 PUSH2 0x12BC JUMP JUMPDEST PUSH2 0x95D SWAP1 DUP7 PUSH2 0x130C JUMP JUMPDEST SWAP5 POP JUMPDEST DUP1 PUSH2 0x96A DUP2 PUSH2 0x132A JUMP JUMPDEST SWAP2 POP POP PUSH2 0x8B0 JUMP JUMPDEST POP PUSH1 0xB DUP1 SLOAD PUSH1 0xFF NOT AND PUSH1 0x1 OR SWAP1 SSTORE PUSH2 0xFFFF DUP1 DUP6 AND SWAP1 DUP7 AND GT ISZERO PUSH2 0x9F0 JUMPI PUSH2 0x9A1 PUSH2 0x99C DUP6 DUP8 PUSH2 0x130C JUMP JUMPDEST PUSH2 0xCAA JUMP JUMPDEST PUSH1 0x5 PUSH2 0x9AE PUSH1 0x9 DUP3 PUSH2 0x134C JUMP JUMPDEST POP PUSH32 0xC965D144FC58D48E5F9A6AA80CD6057C77AF099482C91F56A9C36920ED60C278 DUP6 DUP6 PUSH1 0x5 PUSH1 0x40 MLOAD PUSH2 0x9E3 SWAP4 SWAP3 SWAP2 SWAP1 PUSH2 0x1490 JUMP JUMPDEST PUSH1 0x40 MLOAD DUP1 SWAP2 SUB SWAP1 LOG1 PUSH2 0xA2A JUMP JUMPDEST PUSH32 0xAEEDBA74278BF0D29C304A846608F0C3E654216BB74466DF6969108E1AC2B1C8 DUP6 DUP6 PUSH1 0x40 MLOAD PUSH2 0xA21 SWAP3 SWAP2 SWAP1 PUSH2 0x14C6 JUMP JUMPDEST PUSH1 0x40 MLOAD DUP1 SWAP2 SUB SWAP1 LOG1 JUMPDEST POP POP POP POP POP JUMP JUMPDEST PUSH1 0x0 DUP1 TIMESTAMP SWAP1 POP DUP1 PUSH1 0x6 SLOAD LT ISZERO PUSH2 0xA49 JUMPI PUSH1 0x0 SWAP2 POP POP SWAP1 JUMP JUMPDEST DUP1 PUSH1 0x6 SLOAD PUSH2 0xA57 SWAP2 SWAP1 PUSH2 0x12E3 JUMP JUMPDEST SWAP2 POP POP SWAP1 JUMP JUMPDEST PUSH2 0xA65 PUSH2 0xB54 JUMP JUMPDEST PUSH1 0x0 DUP1 SLOAD PUSH1 0x1 PUSH1 0x1 PUSH1 0xA0 SHL SUB DUP4 DUP2 AND PUSH1 0x1 PUSH1 0x1 PUSH1 0xA0 SHL SUB NOT DUP4 AND DUP2 OR SWAP1 SWAP4 SSTORE PUSH1 0x40 MLOAD SWAP2 AND SWAP2 PUSH32 0x850B3DF64837D7D518B45F5AA64D104652C3B80EB5B34A8E3D9EB666CB7CDEA5 SWAP2 PUSH2 0x305 SWAP2 DUP5 SWAP2 PUSH2 0x14D4 JUMP JUMPDEST PUSH1 0x0 DUP1 TIMESTAMP SWAP1 POP DUP1 PUSH1 0x7 SLOAD LT ISZERO PUSH2 0xACF JUMPI PUSH1 0x0 SWAP2 POP POP SWAP1 JUMP JUMPDEST DUP1 PUSH1 0x7 SLOAD PUSH2 0xA57 SWAP2 SWAP1 PUSH2 0x12E3 JUMP JUMPDEST PUSH1 0x2 SLOAD PUSH1 0x40 MLOAD PUSH4 0x70A08231 PUSH1 0xE0 SHL DUP2 MSTORE PUSH1 0x0 SWAP2 PUSH1 0x1 PUSH1 0x1 PUSH1 0xA0 SHL SUB AND SWAP1 PUSH4 0x70A08231 SWAP1 PUSH2 0xB0E SWAP1 CALLER SWAP1 PUSH1 0x4 ADD PUSH2 0xF62 JUMP JUMPDEST PUSH1 0x20 PUSH1 0x40 MLOAD DUP1 DUP4 SUB DUP2 DUP7 GAS STATICCALL ISZERO DUP1 ISZERO PUSH2 0xB2B JUMPI RETURNDATASIZE PUSH1 0x0 DUP1 RETURNDATACOPY RETURNDATASIZE PUSH1 0x0 REVERT JUMPDEST POP POP POP POP PUSH1 0x40 MLOAD RETURNDATASIZE PUSH1 0x1F NOT PUSH1 0x1F DUP3 ADD AND DUP3 ADD DUP1 PUSH1 0x40 MSTORE POP DUP2 ADD SWAP1 PUSH2 0xB4F SWAP2 SWAP1 PUSH2 0x1276 JUMP JUMPDEST SWAP1 POP SWAP1 JUMP JUMPDEST PUSH1 0x0 SLOAD PUSH1 0x1 PUSH1 0x1 PUSH1 0xA0 SHL SUB AND CALLER EQ PUSH2 0xB8A JUMPI CALLER PUSH1 0x40 MLOAD PUSH4 0x32B2BAA3 PUSH1 0xE0 SHL DUP2 MSTORE PUSH1 0x4 ADD PUSH2 0xB81 SWAP2 SWAP1 PUSH2 0xF62 JUMP JUMPDEST PUSH1 0x40 MLOAD DUP1 SWAP2 SUB SWAP1 REVERT JUMPDEST JUMP JUMPDEST PUSH1 0x0 PUSH1 0x7 SLOAD TIMESTAMP LT PUSH2 0xBB0 JUMPI PUSH1 0x40 MLOAD PUSH4 0xF707485 PUSH1 0xE2 SHL DUP2 MSTORE PUSH1 0x4 ADD PUSH1 0x40 MLOAD DUP1 SWAP2 SUB SWAP1 REVERT JUMPDEST CALLER PUSH1 0x0 SWAP1 DUP2 MSTORE PUSH1 0xD PUSH1 0x20 MSTORE PUSH1 0x40 SWAP1 KECCAK256 SLOAD PUSH1 0x1 SIGNEXTEND DUP1 ISZERO PUSH2 0xBE2 JUMPI PUSH1 0x40 MLOAD PUSH4 0x7C9A1CF9 PUSH1 0xE0 SHL DUP2 MSTORE PUSH1 0x4 ADD PUSH1 0x40 MLOAD DUP1 SWAP2 SUB SWAP1 REVERT JUMPDEST PUSH1 0x0 PUSH2 0xBEC PUSH2 0xADD JUMP JUMPDEST SWAP1 POP PUSH1 0x0 DUP2 PUSH2 0xFFFF AND GT PUSH2 0xC13 JUMPI PUSH1 0x40 MLOAD PUSH4 0x7C75AA6F PUSH1 0xE1 SHL DUP2 MSTORE PUSH1 0x4 ADD PUSH1 0x40 MLOAD DUP1 SWAP2 SUB SWAP1 REVERT JUMPDEST SWAP3 SWAP2 POP POP JUMP JUMPDEST PUSH1 0x2 SLOAD PUSH1 0x40 MLOAD PUSH4 0x70A08231 PUSH1 0xE0 SHL DUP2 MSTORE PUSH1 0x0 SWAP2 PUSH1 0x1 PUSH1 0x1 PUSH1 0xA0 SHL SUB AND SWAP1 PUSH4 0x70A08231 SWAP1 PUSH2 0xC4A SWAP1 DUP6 SWAP1 PUSH1 0x4 ADD PUSH2 0xF62 JUMP JUMPDEST PUSH1 0x20 PUSH1 0x40 MLOAD DUP1 DUP4 SUB DUP2 DUP7 GAS STATICCALL ISZERO DUP1 ISZERO PUSH2 0xC67 JUMPI RETURNDATASIZE PUSH1 0x0 DUP1 RETURNDATACOPY RETURNDATASIZE PUSH1 0x0 REVERT JUMPDEST POP POP POP POP PUSH1 0x40 MLOAD RETURNDATASIZE PUSH1 0x1F NOT PUSH1 0x1F DUP3 ADD AND DUP3 ADD DUP1 PUSH1 0x40 MSTORE POP DUP2 ADD SWAP1 PUSH2 0xC13 SWAP2 SWAP1 PUSH2 0x1276 JUMP JUMPDEST PUSH1 0x0 DUP1 DUP3 PUSH1 0x1 SIGNEXTEND SLT ISZERO PUSH2 0xCA6 JUMPI PUSH2 0xCA1 DUP3 PUSH2 0x12BC JUMP JUMPDEST PUSH2 0xC13 JUMP JUMPDEST POP SWAP1 JUMP JUMPDEST PUSH1 0x8 SLOAD PUSH1 0x1 PUSH1 0x1 PUSH1 0xA0 SHL SUB AND PUSH1 0x0 PUSH2 0xCC7 PUSH1 0x14 PUSH2 0xFFFF DUP6 AND PUSH2 0x14EF JUMP JUMPDEST SWAP1 POP PUSH2 0x4E20 DUP2 GT ISZERO PUSH2 0xCD8 JUMPI POP PUSH2 0x4E20 JUMPDEST PUSH1 0x1 SLOAD PUSH1 0x40 MLOAD PUSH4 0xA9059CBB PUSH1 0xE0 SHL DUP2 MSTORE PUSH1 0x1 PUSH1 0x1 PUSH1 0xA0 SHL SUB SWAP1 SWAP2 AND SWAP1 PUSH4 0xA9059CBB SWAP1 PUSH2 0xD0A SWAP1 DUP6 SWAP1 DUP6 SWAP1 PUSH1 0x4 ADD PUSH2 0x150E JUMP JUMPDEST PUSH1 0x20 PUSH1 0x40 MLOAD DUP1 DUP4 SUB DUP2 PUSH1 0x0 DUP8 GAS CALL SWAP3 POP POP POP DUP1 ISZERO PUSH2 0xD45 JUMPI POP PUSH1 0x40 DUP1 MLOAD PUSH1 0x1F RETURNDATASIZE SWAP1 DUP2 ADD PUSH1 0x1F NOT AND DUP3 ADD SWAP1 SWAP3 MSTORE PUSH2 0xD42 SWAP2 DUP2 ADD SWAP1 PUSH2 0x153C JUMP JUMPDEST PUSH1 0x1 JUMPDEST ISZERO PUSH2 0xD85 JUMPI POP PUSH32 0xCA770103CDD14B19DB75E20F62F734F176926315F9D140DDB5BA416422A6C08E DUP3 DUP3 PUSH1 0x40 MLOAD PUSH2 0xD7C SWAP3 SWAP2 SWAP1 PUSH2 0x150E JUMP JUMPDEST PUSH1 0x40 MLOAD DUP1 SWAP2 SUB SWAP1 LOG1 JUMPDEST POP POP POP JUMP JUMPDEST PUSH4 0x4E487B71 PUSH1 0xE0 SHL PUSH1 0x0 MSTORE PUSH1 0x41 PUSH1 0x4 MSTORE PUSH1 0x24 PUSH1 0x0 REVERT JUMPDEST PUSH1 0x1F NOT PUSH1 0x1F DUP4 ADD AND DUP2 ADD DUP2 DUP2 LT PUSH8 0xFFFFFFFFFFFFFFFF DUP3 GT OR ISZERO PUSH2 0xDC6 JUMPI PUSH2 0xDC6 PUSH2 0xD8A JUMP JUMPDEST PUSH1 0x40 MSTORE POP POP JUMP JUMPDEST PUSH1 0x0 PUSH2 0xDD8 PUSH1 0x40 MLOAD SWAP1 JUMP JUMPDEST SWAP1 POP PUSH2 0xDE4 DUP3 DUP3 PUSH2 0xDA0 JUMP JUMPDEST SWAP2 SWAP1 POP JUMP JUMPDEST PUSH1 0x0 PUSH8 0xFFFFFFFFFFFFFFFF DUP3 GT ISZERO PUSH2 0xE03 JUMPI PUSH2 0xE03 PUSH2 0xD8A JUMP JUMPDEST PUSH1 0x1F NOT PUSH1 0x1F DUP4 ADD AND PUSH1 0x20 ADD SWAP3 SWAP2 POP POP JUMP JUMPDEST DUP3 DUP2 DUP4 CALLDATACOPY POP PUSH1 0x0 SWAP2 ADD MSTORE JUMP JUMPDEST PUSH1 0x0 PUSH2 0xE33 PUSH2 0xE2E DUP5 PUSH2 0xDE9 JUMP JUMPDEST PUSH2 0xDCD JUMP JUMPDEST SWAP1 POP DUP3 DUP2 MSTORE PUSH1 0x20 DUP2 ADD DUP5 DUP5 DUP5 ADD GT ISZERO PUSH2 0xE4E JUMPI PUSH2 0xE4E PUSH1 0x0 DUP1 REVERT JUMPDEST PUSH2 0xE59 DUP5 DUP3 DUP6 PUSH2 0xE14 JUMP JUMPDEST POP SWAP4 SWAP3 POP POP POP JUMP JUMPDEST PUSH1 0x0 DUP3 PUSH1 0x1F DUP4 ADD SLT PUSH2 0xE75 JUMPI PUSH2 0xE75 PUSH1 0x0 DUP1 REVERT JUMPDEST DUP2 CALLDATALOAD PUSH2 0xE85 DUP5 DUP3 PUSH1 0x20 DUP7 ADD PUSH2 0xE20 JUMP JUMPDEST SWAP5 SWAP4 POP POP POP POP JUMP JUMPDEST PUSH1 0x0 DUP1 PUSH1 0x40 DUP4 DUP6 SUB SLT ISZERO PUSH2 0xEA3 JUMPI PUSH2 0xEA3 PUSH1 0x0 DUP1 REVERT JUMPDEST DUP3 CALLDATALOAD PUSH8 0xFFFFFFFFFFFFFFFF DUP2 GT ISZERO PUSH2 0xEBD JUMPI PUSH2 0xEBD PUSH1 0x0 DUP1 REVERT JUMPDEST PUSH2 0xEC9 DUP6 DUP3 DUP7 ADD PUSH2 0xE61 JUMP JUMPDEST SWAP3 POP POP PUSH1 0x20 DUP4 ADD CALLDATALOAD PUSH8 0xFFFFFFFFFFFFFFFF DUP2 GT ISZERO PUSH2 0xEE9 JUMPI PUSH2 0xEE9 PUSH1 0x0 DUP1 REVERT JUMPDEST PUSH2 0xEF5 DUP6 DUP3 DUP7 ADD PUSH2 0xE61 JUMP JUMPDEST SWAP2 POP POP SWAP3 POP SWAP3 SWAP1 POP JUMP JUMPDEST PUSH1 0x0 PUSH1 0x1 PUSH1 0x1 PUSH1 0xA0 SHL SUB DUP3 AND PUSH2 0xC13 JUMP JUMPDEST PUSH2 0xF19 DUP2 PUSH2 0xEFF JUMP JUMPDEST DUP2 EQ PUSH2 0xF24 JUMPI PUSH1 0x0 DUP1 REVERT JUMPDEST POP JUMP JUMPDEST DUP1 CALLDATALOAD PUSH2 0xC13 DUP2 PUSH2 0xF10 JUMP JUMPDEST PUSH1 0x0 PUSH1 0x20 DUP3 DUP5 SUB SLT ISZERO PUSH2 0xF47 JUMPI PUSH2 0xF47 PUSH1 0x0 DUP1 REVERT JUMPDEST PUSH1 0x0 PUSH2 0xE85 DUP5 DUP5 PUSH2 0xF27 JUMP JUMPDEST PUSH2 0xF5C DUP2 PUSH2 0xEFF JUMP JUMPDEST DUP3 MSTORE POP POP JUMP JUMPDEST PUSH1 0x20 DUP2 ADD PUSH2 0xC13 DUP3 DUP5 PUSH2 0xF53 JUMP JUMPDEST PUSH1 0x0 JUMPDEST DUP4 DUP2 LT ISZERO PUSH2 0xF8B JUMPI DUP2 DUP2 ADD MLOAD DUP4 DUP3 ADD MSTORE PUSH1 0x20 ADD PUSH2 0xF73 JUMP JUMPDEST POP POP PUSH1 0x0 SWAP2 ADD MSTORE JUMP JUMPDEST PUSH1 0x0 PUSH2 0xF9E DUP3 MLOAD SWAP1 JUMP JUMPDEST DUP1 DUP5 MSTORE PUSH1 0x20 DUP5 ADD SWAP4 POP PUSH2 0xFB5 DUP2 DUP6 PUSH1 0x20 DUP7 ADD PUSH2 0xF70 JUMP JUMPDEST PUSH1 0x1F ADD PUSH1 0x1F NOT AND SWAP3 SWAP1 SWAP3 ADD SWAP3 SWAP2 POP POP JUMP JUMPDEST PUSH1 0x20 DUP1 DUP3 MSTORE DUP2 ADD PUSH2 0xFD7 DUP2 DUP5 PUSH2 0xF94 JUMP JUMPDEST SWAP4 SWAP3 POP POP POP JUMP JUMPDEST DUP1 ISZERO ISZERO PUSH2 0xF5C JUMP JUMPDEST DUP1 MLOAD PUSH1 0x0 SWAP1 PUSH1 0x80 DUP5 ADD SWAP1 PUSH2 0xFFA DUP6 DUP3 PUSH2 0xF53 JUMP JUMPDEST POP PUSH1 0x20 DUP4 ADD MLOAD DUP5 DUP3 SUB PUSH1 0x20 DUP7 ADD MSTORE PUSH2 0x1012 DUP3 DUP3 PUSH2 0xF94 JUMP JUMPDEST SWAP2 POP POP PUSH1 0x40 DUP4 ADD MLOAD DUP5 DUP3 SUB PUSH1 0x40 DUP7 ADD MSTORE PUSH2 0x102C DUP3 DUP3 PUSH2 0xF94 JUMP JUMPDEST SWAP2 POP POP PUSH1 0x60 DUP4 ADD MLOAD PUSH2 0xE59 PUSH1 0x60 DUP7 ADD DUP3 PUSH2 0xFDE JUMP JUMPDEST PUSH1 0x20 DUP1 DUP3 MSTORE DUP2 ADD PUSH2 0xFD7 DUP2 DUP5 PUSH2 0xFE6 JUMP JUMPDEST DUP1 PUSH2 0xF5C JUMP JUMPDEST PUSH1 0x20 DUP2 ADD PUSH2 0xC13 DUP3 DUP5 PUSH2 0x1052 JUMP JUMPDEST PUSH4 0x4E487B71 PUSH1 0xE0 SHL PUSH1 0x0 MSTORE PUSH1 0x11 PUSH1 0x4 MSTORE PUSH1 0x24 PUSH1 0x0 REVERT JUMPDEST DUP1 DUP3 ADD DUP1 DUP3 GT ISZERO PUSH2 0xC13 JUMPI PUSH2 0xC13 PUSH2 0x1066 JUMP JUMPDEST PUSH4 0x4E487B71 PUSH1 0xE0 SHL PUSH1 0x0 MSTORE PUSH1 0x22 PUSH1 0x4 MSTORE PUSH1 0x24 PUSH1 0x0 REVERT JUMPDEST PUSH1 0x2 DUP2 DIV PUSH1 0x1 DUP3 AND DUP1 PUSH2 0x10B9 JUMPI PUSH1 0x7F DUP3 AND SWAP2 POP JUMPDEST PUSH1 0x20 DUP3 LT DUP2 SUB PUSH2 0x10CB JUMPI PUSH2 0x10CB PUSH2 0x108F JUMP JUMPDEST POP SWAP2 SWAP1 POP JUMP JUMPDEST PUSH1 0x0 PUSH2 0xC13 PUSH2 0x10DD DUP4 DUP2 JUMP JUMPDEST SWAP1 JUMP JUMPDEST PUSH2 0x10E9 DUP4 PUSH2 0x10D1 JUMP JUMPDEST DUP2 SLOAD PUSH1 0x0 NOT PUSH1 0x8 SWAP5 SWAP1 SWAP5 MUL SWAP4 DUP5 SHL NOT AND SWAP3 SHL SWAP2 SWAP1 SWAP2 OR SWAP1 SSTORE POP JUMP JUMPDEST PUSH1 0x0 PUSH2 0xD85 DUP2 DUP5 DUP5 PUSH2 0x10E0 JUMP JUMPDEST DUP2 DUP2 LT ISZERO PUSH2 0x112C JUMPI PUSH2 0x1124 PUSH1 0x0 DUP3 PUSH2 0x1104 JUMP JUMPDEST PUSH1 0x1 ADD PUSH2 0x1111 JUMP JUMPDEST POP POP JUMP JUMPDEST PUSH1 0x1F DUP3 GT ISZERO PUSH2 0xD85 JUMPI PUSH1 0x0 DUP2 DUP2 MSTORE PUSH1 0x20 SWAP1 KECCAK256 PUSH1 0x20 PUSH1 0x1F DUP6 ADD DIV DUP2 ADD PUSH1 0x20 DUP6 LT ISZERO PUSH2 0x1157 JUMPI POP DUP1 JUMPDEST PUSH2 0xA2A PUSH1 0x20 PUSH1 0x1F DUP7 ADD DIV DUP4 ADD DUP3 PUSH2 0x1111 JUMP JUMPDEST DUP2 MLOAD PUSH8 0xFFFFFFFFFFFFFFFF DUP2 GT ISZERO PUSH2 0x1183 JUMPI PUSH2 0x1183 PUSH2 0xD8A JUMP JUMPDEST PUSH2 0x118D DUP3 SLOAD PUSH2 0x10A5 JUMP JUMPDEST PUSH2 0x1198 DUP3 DUP3 DUP6 PUSH2 0x1130 JUMP JUMPDEST PUSH1 0x20 PUSH1 0x1F DUP4 GT PUSH1 0x1 DUP2 EQ PUSH2 0x11CD JUMPI PUSH1 0x0 DUP5 ISZERO PUSH2 0x11B4 JUMPI POP DUP6 DUP3 ADD MLOAD JUMPDEST PUSH1 0x0 NOT PUSH1 0x8 DUP7 MUL SHR NOT DUP2 AND PUSH1 0x2 DUP7 MUL OR JUMPDEST DUP7 SSTORE POP PUSH2 0x1229 JUMP JUMPDEST PUSH1 0x0 DUP6 DUP2 MSTORE PUSH1 0x20 DUP2 KECCAK256 PUSH1 0x1F NOT DUP7 AND SWAP2 JUMPDEST DUP3 DUP2 LT ISZERO PUSH2 0x11FD JUMPI DUP9 DUP6 ADD MLOAD DUP3 SSTORE PUSH1 0x20 SWAP5 DUP6 ADD SWAP5 PUSH1 0x1 SWAP1 SWAP3 ADD SWAP2 ADD PUSH2 0x11DD JUMP JUMPDEST DUP7 DUP4 LT ISZERO PUSH2 0x121C JUMPI DUP9 DUP6 ADD MLOAD PUSH1 0x0 NOT PUSH1 0x8 PUSH1 0x1F DUP11 AND MUL SHR NOT DUP2 AND JUMPDEST DUP4 SSTORE POP JUMPDEST PUSH1 0x1 PUSH1 0x2 DUP9 MUL ADD DUP9 SSTORE POP POP POP JUMPDEST POP POP POP POP POP POP JUMP JUMPDEST PUSH1 0x60 DUP1 DUP3 MSTORE DUP2 ADD PUSH2 0x1242 DUP2 DUP7 PUSH2 0xF94 JUMP JUMPDEST SWAP1 POP DUP2 DUP2 SUB PUSH1 0x20 DUP4 ADD MSTORE PUSH2 0x1256 DUP2 DUP6 PUSH2 0xF94 JUMP JUMPDEST SWAP1 POP PUSH2 0xE85 PUSH1 0x40 DUP4 ADD DUP5 PUSH2 0xF53 JUMP JUMPDEST DUP1 PUSH2 0xF19 JUMP JUMPDEST DUP1 MLOAD PUSH2 0xC13 DUP2 PUSH2 0x1265 JUMP JUMPDEST PUSH1 0x0 PUSH1 0x20 DUP3 DUP5 SUB SLT ISZERO PUSH2 0x128B JUMPI PUSH2 0x128B PUSH1 0x0 DUP1 REVERT JUMPDEST PUSH1 0x0 PUSH2 0xE85 DUP5 DUP5 PUSH2 0x126B JUMP JUMPDEST PUSH2 0xFFFF DUP2 AND PUSH2 0xF5C JUMP JUMPDEST PUSH1 0x40 DUP2 ADD PUSH2 0x12AF DUP3 DUP6 PUSH2 0xF53 JUMP JUMPDEST PUSH2 0xFD7 PUSH1 0x20 DUP4 ADD DUP5 PUSH2 0x1297 JUMP JUMPDEST PUSH1 0x0 PUSH2 0x12C8 DUP3 PUSH1 0x1 SIGNEXTEND SWAP1 JUMP JUMPDEST SWAP2 POP PUSH2 0x7FFF NOT DUP3 SUB PUSH2 0x12DC JUMPI PUSH2 0x12DC PUSH2 0x1066 JUMP JUMPDEST POP PUSH1 0x0 SUB SWAP1 JUMP JUMPDEST DUP2 DUP2 SUB DUP2 DUP2 GT ISZERO PUSH2 0xC13 JUMPI PUSH2 0xC13 PUSH2 0x1066 JUMP JUMPDEST PUSH4 0x4E487B71 PUSH1 0xE0 SHL PUSH1 0x0 MSTORE PUSH1 0x32 PUSH1 0x4 MSTORE PUSH1 0x24 PUSH1 0x0 REVERT JUMPDEST PUSH2 0xFFFF SWAP2 DUP3 AND SWAP2 SWAP1 DUP2 AND SWAP1 DUP3 DUP3 ADD SWAP1 DUP2 GT ISZERO PUSH2 0xC13 JUMPI PUSH2 0xC13 PUSH2 0x1066 JUMP JUMPDEST PUSH1 0x0 DUP2 PUSH2 0x1339 JUMPI PUSH2 0x1339 PUSH2 0x1066 JUMP JUMPDEST POP PUSH1 0x0 NOT ADD SWAP1 JUMP JUMPDEST DUP1 SLOAD PUSH2 0xC13 DUP2 PUSH2 0x10A5 JUMP JUMPDEST DUP2 DUP2 SUB PUSH2 0x1357 JUMPI POP POP JUMP JUMPDEST PUSH2 0x1360 DUP3 PUSH2 0x1341 JUMP JUMPDEST PUSH8 0xFFFFFFFFFFFFFFFF DUP2 GT ISZERO PUSH2 0x1378 JUMPI PUSH2 0x1378 PUSH2 0xD8A JUMP JUMPDEST PUSH2 0x1382 DUP3 SLOAD PUSH2 0x10A5 JUMP JUMPDEST PUSH2 0x138D DUP3 DUP3 DUP6 PUSH2 0x1130 JUMP JUMPDEST PUSH1 0x0 PUSH1 0x1F DUP4 GT PUSH1 0x1 DUP2 EQ PUSH2 0x13BD JUMPI PUSH1 0x0 DUP5 ISZERO PUSH2 0x11B4 JUMPI POP DUP2 DUP7 ADD SLOAD PUSH1 0x0 NOT PUSH1 0x8 DUP7 MUL SHR NOT DUP2 AND PUSH1 0x2 DUP7 MUL OR PUSH2 0x11C5 JUMP JUMPDEST PUSH1 0x0 SWAP6 DUP7 MSTORE PUSH1 0x20 DUP1 DUP8 KECCAK256 DUP7 DUP9 MSTORE SWAP1 DUP8 KECCAK256 SWAP1 SWAP7 PUSH1 0x1F NOT DUP7 AND SWAP2 SWAP1 JUMPDEST DUP3 DUP2 LT ISZERO PUSH2 0x13F7 JUMPI DUP9 DUP6 ADD SLOAD DUP3 SSTORE PUSH1 0x1 SWAP5 DUP6 ADD SWAP5 SWAP1 SWAP2 ADD SWAP1 PUSH1 0x20 ADD PUSH2 0x13D7 JUMP JUMPDEST DUP7 DUP4 LT ISZERO PUSH2 0x121C JUMPI DUP9 DUP6 ADD SLOAD PUSH1 0x0 NOT PUSH1 0x8 PUSH1 0x1F DUP11 AND MUL SHR NOT DUP2 AND PUSH2 0x1218 JUMP JUMPDEST PUSH1 0x0 DUP2 SLOAD PUSH2 0x1423 DUP2 PUSH2 0x10A5 JUMP JUMPDEST DUP1 DUP6 MSTORE PUSH1 0x20 DUP6 ADD SWAP5 POP PUSH1 0x1 DUP3 AND DUP1 ISZERO PUSH2 0x1443 JUMPI PUSH1 0x1 DUP2 EQ PUSH2 0x1459 JUMPI PUSH2 0x1487 JUMP JUMPDEST PUSH1 0xFF NOT DUP4 AND DUP7 MSTORE PUSH1 0x20 DUP3 ISZERO ISZERO MUL DUP7 ADD SWAP4 POP PUSH2 0x1487 JUMP JUMPDEST PUSH1 0x0 DUP6 DUP2 MSTORE PUSH1 0x20 SWAP1 KECCAK256 PUSH1 0x0 JUMPDEST DUP4 DUP2 LT ISZERO PUSH2 0x1481 JUMPI DUP2 SLOAD DUP9 DUP3 ADD MSTORE PUSH1 0x1 SWAP1 SWAP2 ADD SWAP1 PUSH1 0x20 ADD PUSH2 0x1465 JUMP JUMPDEST DUP8 ADD SWAP5 POP POP JUMPDEST POP POP POP SWAP3 SWAP2 POP POP JUMP JUMPDEST PUSH1 0x60 DUP2 ADD PUSH2 0x149E DUP3 DUP7 PUSH2 0x1297 JUMP JUMPDEST PUSH2 0x14AB PUSH1 0x20 DUP4 ADD DUP6 PUSH2 0x1297 JUMP JUMPDEST DUP2 DUP2 SUB PUSH1 0x40 DUP4 ADD MSTORE PUSH2 0x14BD DUP2 DUP5 PUSH2 0x1416 JUMP JUMPDEST SWAP6 SWAP5 POP POP POP POP POP JUMP JUMPDEST PUSH1 0x40 DUP2 ADD PUSH2 0x12AF DUP3 DUP6 PUSH2 0x1297 JUMP JUMPDEST PUSH1 0x40 DUP2 ADD PUSH2 0x14E2 DUP3 DUP6 PUSH2 0xF53 JUMP JUMPDEST PUSH2 0xFD7 PUSH1 0x20 DUP4 ADD DUP5 PUSH2 0xF53 JUMP JUMPDEST DUP2 DUP2 MUL DUP1 DUP3 ISZERO DUP4 DUP3 DIV DUP6 EQ OR PUSH2 0x1507 JUMPI PUSH2 0x1507 PUSH2 0x1066 JUMP JUMPDEST POP SWAP3 SWAP2 POP POP JUMP JUMPDEST PUSH1 0x40 DUP2 ADD PUSH2 0x151C DUP3 DUP6 PUSH2 0xF53 JUMP JUMPDEST PUSH2 0xFD7 PUSH1 0x20 DUP4 ADD DUP5 PUSH2 0x1052 JUMP JUMPDEST DUP1 ISZERO ISZERO PUSH2 0xF19 JUMP JUMPDEST DUP1 MLOAD PUSH2 0xC13 DUP2 PUSH2 0x1529 JUMP JUMPDEST PUSH1 0x0 PUSH1 0x20 DUP3 DUP5 SUB SLT ISZERO PUSH2 0x1551 JUMPI PUSH2 0x1551 PUSH1 0x0 DUP1 REVERT JUMPDEST PUSH1 0x0 PUSH2 0xE85 DUP5 DUP5 PUSH2 0x1531 JUMP INVALID LOG2 PUSH5 0x6970667358 0x22 SLT KECCAK256 PUSH6 0x48FC7634CF35 SAR RETURNDATACOPY EXTCODESIZE EXTCODECOPY LOG0 GASLIMIT REVERT LOG0 BLOCKHASH ADD PC 0x23 0xE8 0x4A SWAP2 LOG2 BYTE 0xDF CALL PUSH27 0x72EF3EEFB664736F6C634300081600330000000000000000000000 "},"methodIdentifiers":{"assignNFTCollection(address)":"b96762ae","assignTokenAddress(address)":"3d75da94","finalizeProposal()":"c4dc1556","getPrice()":"98d5fdca","latestProposal()":"c2b79836","nftAddress()":"5bf8633a","owner()":"8da5cb5b","proposalEndsAfter()":"c70d33e3","proposePrice(string,string)":"02de9f2e","tokenAddress()":"9d76ea58","transferOwnership(address)":"f2fde38b","voteDown()":"b525ef0d","voteUp()":"b07672ae","votingEndsAfter()":"f863b454"}}}}}