{"contracts/DexhuneExchange.sol":{"DexhuneExchange":{"abi":[{"inputs":[],"stateMutability":"nonpayable","type":"constructor"},{"inputs":[],"name":"DepositFailed","type":"error"},{"inputs":[],"name":"FailedStringToNumberConversion","type":"error"},{"inputs":[],"name":"FailedToSendReward","type":"error"},{"inputs":[],"name":"FailedToTakeOrder","type":"error"},{"inputs":[{"internalType":"uint256","name":"balance","type":"uint256"}],"name":"InsufficientBalance","type":"error"},{"inputs":[{"internalType":"uint256","name":"listingPrice","type":"uint256"}],"name":"InsufficientBalanceForListing","type":"error"},{"inputs":[],"name":"InvalidTokenContract","type":"error"},{"inputs":[{"internalType":"uint256","name":"x","type":"uint256"},{"internalType":"uint256","name":"y","type":"uint256"}],"name":"MulDiv18Overflow","type":"error"},{"inputs":[{"internalType":"uint256","name":"x","type":"uint256"},{"internalType":"uint256","name":"y","type":"uint256"},{"internalType":"uint256","name":"denominator","type":"uint256"}],"name":"MulDivOverflow","type":"error"},{"inputs":[],"name":"NoSuitableOrderFound","type":"error"},{"inputs":[],"name":"OnlyOwnerMustSetDefaultToken","type":"error"},{"inputs":[],"name":"OrderDoesNotExist","type":"error"},{"inputs":[],"name":"OrderLimitReachedTryLater","type":"error"},{"inputs":[],"name":"ParityShouldNotHavePrice","type":"error"},{"inputs":[],"name":"RejectedZeroAmount","type":"error"},{"inputs":[{"internalType":"address","name":"contractAddr","type":"address"}],"name":"TokenAlreadyExists","type":"error"},{"inputs":[],"name":"TokenLimitReached","type":"error"},{"inputs":[],"name":"TokenNotListed","type":"error"},{"inputs":[],"name":"TokenNotSupported_TooManyDecimals","type":"error"},{"inputs":[{"internalType":"address","name":"account","type":"address"}],"name":"UnauthorizedAccount","type":"error"},{"anonymous":false,"inputs":[{"indexed":false,"internalType":"uint256","name":"amount","type":"uint256"},{"indexed":false,"internalType":"address","name":"targetAddr","type":"address"}],"name":"AVAXTransferred","type":"event"},{"anonymous":false,"inputs":[{"indexed":false,"internalType":"address","name":"addr","type":"address"}],"name":"AssignedPriceDAO","type":"event"},{"anonymous":false,"inputs":[{"indexed":false,"internalType":"uint256","name":"index","type":"uint256"},{"indexed":false,"internalType":"bool","name":"orderType","type":"bool"},{"indexed":false,"internalType":"address","name":"tokenAddr","type":"address"},{"indexed":false,"internalType":"uint256","name":"amount","type":"uint256"},{"indexed":false,"internalType":"uint256","name":"price","type":"uint256"}],"name":"OrderCreated","type":"event"},{"anonymous":false,"inputs":[{"indexed":false,"internalType":"uint256","name":"index","type":"uint256"},{"indexed":false,"internalType":"bool","name":"orderType","type":"bool"},{"indexed":false,"internalType":"address","name":"maker","type":"address"}],"name":"OrderReverted","type":"event"},{"anonymous":false,"inputs":[{"indexed":false,"internalType":"uint256","name":"index","type":"uint256"},{"indexed":false,"internalType":"bool","name":"orderType","type":"bool"},{"indexed":false,"internalType":"address","name":"maker","type":"address"},{"indexed":false,"internalType":"bool","name":"isPartial","type":"bool"}],"name":"OrderSettled","type":"event"},{"anonymous":false,"inputs":[{"indexed":false,"internalType":"uint256","name":"index","type":"uint256"},{"indexed":false,"internalType":"bool","name":"orderType","type":"bool"},{"indexed":false,"internalType":"address","name":"maker","type":"address"},{"indexed":false,"internalType":"address","name":"taker","type":"address"},{"indexed":false,"internalType":"address","name":"token","type":"address"},{"indexed":false,"internalType":"uint256","name":"amount","type":"uint256"},{"indexed":false,"internalType":"bool","name":"isPartial","type":"bool"}],"name":"OrderTaken","type":"event"},{"anonymous":false,"inputs":[{"indexed":true,"internalType":"string","name":"name","type":"string"},{"indexed":true,"internalType":"string","name":"symbol","type":"string"},{"indexed":false,"internalType":"enum DexhuneExchangeBase.PricingScheme","name":"pricingScheme","type":"uint8"},{"indexed":false,"internalType":"address","name":"addr","type":"address"},{"indexed":false,"internalType":"uint256","name":"index","type":"uint256"}],"name":"TokenListed","type":"event"},{"anonymous":false,"inputs":[{"indexed":false,"internalType":"uint256","name":"amount","type":"uint256"},{"indexed":false,"internalType":"address","name":"targetAddr","type":"address"},{"indexed":false,"internalType":"address","name":"tokenAddr","type":"address"}],"name":"TokenTransferred","type":"event"},{"anonymous":false,"inputs":[{"indexed":false,"internalType":"address","name":"oldOwner","type":"address"},{"indexed":false,"internalType":"address","name":"newOwner","type":"address"}],"name":"TransferredOwnership","type":"event"},{"inputs":[{"internalType":"address","name":"addr","type":"address"}],"name":"assignPriceDAO","outputs":[],"stateMutability":"nonpayable","type":"function"},{"inputs":[],"name":"clearOrders","outputs":[],"stateMutability":"nonpayable","type":"function"},{"inputs":[{"internalType":"address","name":"tokenAddr","type":"address"}],"name":"createBuyOrder","outputs":[],"stateMutability":"payable","type":"function"},{"inputs":[{"internalType":"address","name":"tokenAddr","type":"address"},{"internalType":"uint256","name":"amount","type":"uint256"}],"name":"createSellOrder","outputs":[],"stateMutability":"nonpayable","type":"function"},{"inputs":[{"internalType":"address","name":"tokenAddr","type":"address"}],"name":"deposit","outputs":[],"stateMutability":"payable","type":"function"},{"inputs":[{"internalType":"address","name":"tokenAddr","type":"address"},{"internalType":"uint256","name":"amount","type":"uint256"}],"name":"depositToken","outputs":[],"stateMutability":"nonpayable","type":"function"},{"inputs":[{"internalType":"address","name":"tokenAddr","type":"address"},{"internalType":"address","name":"fromAddress","type":"address"},{"internalType":"uint256","name":"amount","type":"uint256"}],"name":"depositTokenFrom","outputs":[],"stateMutability":"nonpayable","type":"function"},{"inputs":[],"name":"getBalance","outputs":[{"internalType":"uint256","name":"","type":"uint256"}],"stateMutability":"view","type":"function"},{"inputs":[{"internalType":"address","name":"tokenAddr","type":"address"},{"internalType":"address","name":"parityAddr","type":"address"},{"internalType":"uint256","name":"reward","type":"uint256"},{"internalType":"uint256","name":"rewardThreshold","type":"uint256"}],"name":"listParityToken","outputs":[],"stateMutability":"nonpayable","type":"function"},{"inputs":[{"internalType":"address","name":"tokenAddr","type":"address"},{"internalType":"uint256","name":"reward","type":"uint256"},{"internalType":"uint256","name":"rewardThreshold","type":"uint256"},{"internalType":"string","name":"price","type":"string"}],"name":"listToken","outputs":[],"stateMutability":"nonpayable","type":"function"},{"inputs":[],"name":"listingCost","outputs":[{"internalType":"uint256","name":"","type":"uint256"}],"stateMutability":"view","type":"function"},{"inputs":[{"internalType":"uint256","name":"","type":"uint256"}],"name":"orders","outputs":[{"internalType":"address payable","name":"makerAddr","type":"address"},{"internalType":"address","name":"tokenAddr","type":"address"},{"internalType":"bool","name":"orderType","type":"bool"},{"internalType":"uint256","name":"created","type":"uint256"},{"internalType":"uint256","name":"rewardAmount","type":"uint256"},{"internalType":"uint256","name":"price","type":"uint256"},{"internalType":"uint256","name":"principal","type":"uint256"},{"internalType":"uint256","name":"pending","type":"uint256"}],"stateMutability":"view","type":"function"},{"inputs":[],"name":"owner","outputs":[{"internalType":"address","name":"","type":"address"}],"stateMutability":"view","type":"function"},{"inputs":[{"internalType":"address","name":"tokenAddr","type":"address"},{"internalType":"bool","name":"isAVAX","type":"bool"}],"name":"queryBalance","outputs":[{"internalType":"uint256","name":"","type":"uint256"}],"stateMutability":"view","type":"function"},{"inputs":[{"internalType":"address","name":"tokenAddr","type":"address"},{"internalType":"bool","name":"orderType","type":"bool"}],"name":"settleOrders","outputs":[],"stateMutability":"nonpayable","type":"function"},{"inputs":[{"internalType":"address","name":"tokenAddr","type":"address"},{"internalType":"uint256","name":"amount","type":"uint256"}],"name":"takeBuyOrder","outputs":[],"stateMutability":"nonpayable","type":"function"},{"inputs":[{"internalType":"address","name":"tokenAddr","type":"address"}],"name":"takeSellOrder","outputs":[],"stateMutability":"payable","type":"function"},{"inputs":[{"internalType":"address","name":"_address","type":"address"}],"name":"transferOwnership","outputs":[],"stateMutability":"nonpayable","type":"function"},{"inputs":[{"internalType":"address","name":"tokenAddr","type":"address"}],"name":"updateTokenBalance","outputs":[],"stateMutability":"nonpayable","type":"function"},{"inputs":[{"internalType":"uint256","name":"index","type":"uint256"}],"name":"viewOrder","outputs":[{"components":[{"internalType":"address payable","name":"makerAddr","type":"address"},{"internalType":"address","name":"tokenAddr","type":"address"},{"internalType":"bool","name":"orderType","type":"bool"},{"internalType":"uint256","name":"created","type":"uint256"},{"internalType":"uint256","name":"rewardAmount","type":"uint256"},{"internalType":"uint256","name":"price","type":"uint256"},{"internalType":"uint256","name":"principal","type":"uint256"},{"internalType":"uint256","name":"pending","type":"uint256"}],"internalType":"struct DexhuneExchangeBase.Order","name":"","type":"tuple"}],"stateMutability":"view","type":"function"},{"inputs":[{"internalType":"address","name":"tokenAddr","type":"address"},{"internalType":"uint256","name":"index","type":"uint256"}],"name":"viewOrderByToken","outputs":[{"components":[{"internalType":"address payable","name":"makerAddr","type":"address"},{"internalType":"address","name":"tokenAddr","type":"address"},{"internalType":"bool","name":"orderType","type":"bool"},{"internalType":"uint256","name":"created","type":"uint256"},{"internalType":"uint256","name":"rewardAmount","type":"uint256"},{"internalType":"uint256","name":"price","type":"uint256"},{"internalType":"uint256","name":"principal","type":"uint256"},{"internalType":"uint256","name":"pending","type":"uint256"}],"internalType":"struct DexhuneExchangeBase.Order","name":"","type":"tuple"}],"stateMutability":"view","type":"function"},{"inputs":[],"name":"viewPrice","outputs":[{"internalType":"uint256","name":"","type":"uint256"}],"stateMutability":"view","type":"function"},{"inputs":[{"internalType":"address","name":"tokenAddr","type":"address"}],"name":"viewToken","outputs":[{"components":[{"internalType":"uint256","name":"tokenNo","type":"uint256"},{"internalType":"string","name":"name","type":"string"},{"internalType":"string","name":"sym","type":"string"},{"internalType":"address","name":"addr","type":"address"},{"internalType":"address","name":"parityAddr","type":"address"},{"internalType":"uint256","name":"reward","type":"uint256"},{"internalType":"uint256","name":"rewardThreshold","type":"uint256"},{"internalType":"enum DexhuneExchangeBase.PricingScheme","name":"scheme","type":"uint8"},{"internalType":"uint256","name":"price","type":"uint256"},{"internalType":"uint256","name":"orders","type":"uint256"}],"internalType":"struct DexhuneExchangeBase.TokenDataModel","name":"","type":"tuple"}],"stateMutability":"view","type":"function"},{"inputs":[{"internalType":"uint256","name":"tokenNo","type":"uint256"}],"name":"viewTokenByIndex","outputs":[{"components":[{"internalType":"uint256","name":"tokenNo","type":"uint256"},{"internalType":"string","name":"name","type":"string"},{"internalType":"string","name":"sym","type":"string"},{"internalType":"address","name":"addr","type":"address"},{"internalType":"address","name":"parityAddr","type":"address"},{"internalType":"uint256","name":"reward","type":"uint256"},{"internalType":"uint256","name":"rewardThreshold","type":"uint256"},{"internalType":"enum DexhuneExchangeBase.PricingScheme","name":"scheme","type":"uint8"},{"internalType":"uint256","name":"price","type":"uint256"},{"internalType":"uint256","name":"orders","type":"uint256"}],"internalType":"struct DexhuneExchangeBase.TokenDataModel","name":"","type":"tuple"}],"stateMutability":"view","type":"function"}],"evm":{"bytecode":{"linkReferences":{},"object":"60806040526103e8600155600380546200001c9160049162000043565b503480156200002a57600080fd5b50600080546001600160a01b0319163317905562000178565b828054828255906000526020600020906007028101928215620001105760005260206000209160070282015b828111156200011057825482546001600160a01b03199081166001600160a01b039283161784556001808601805491860180549384169290941691821784555460ff600160a01b91829004161515026001600160a81b0319909216171790556002808401549083015560038084015490830155600480840154908301556005808401549083015560068084015490830155600792830192909101906200006f565b506200011e92915062000122565b5090565b5b808211156200011e5780546001600160a01b03191681556001810180546001600160a81b0319169055600060028201819055600382018190556004820181905560058201819055600682015560070162000123565b61438280620001886000396000f3fe60806040526004361061014b5760003560e01c80638da5cb5b116100b6578063c201e47c1161006f578063c201e47c146103b0578063d2980065146103d0578063d7dcdcec146103e3578063db34a679146103f8578063f2fde38b14610418578063f340fa011461043857600080fd5b80638da5cb5b146102e45780639351769f14610311578063a08b5bba14610326578063a262b73f14610346578063a5b6f92a14610366578063a85c38ef1461037c57600080fd5b80635264c8d9116101085780635264c8d914610231578063673cf82a146102515780636daf6945146102715780637c38d6631461028457806386f179d2146102a457806387b337e8146102c457600080fd5b806312065fe0146101505780631f5d264114610175578063338b5dea146101a25780633b174f0f146101c45780633ef73856146101e45780634d9ea07d14610211575b600080fd5b34801561015c57600080fd5b50475b60405161016c9190613624565b60405180910390f35b34801561018157600080fd5b5061019561019036600461364d565b61044b565b60405161016c91906137fc565b3480156101ae57600080fd5b506101c26101bd366004613821565b610462565b005b3480156101d057600080fd5b5061015f6101df366004613871565b610471565b3480156101f057600080fd5b506102046101ff366004613821565b6104b5565b60405161016c9190613943565b34801561021d57600080fd5b506101c261022c366004613a40565b6105b7565b34801561023d57600080fd5b506101c261024c366004613abf565b6105cd565b34801561025d57600080fd5b5061019561026c366004613b17565b6105eb565b6101c261027f366004613b17565b61061c565b34801561029057600080fd5b5061020461029f36600461364d565b610685565b3480156102b057600080fd5b506101c26102bf366004613b17565b610749565b3480156102d057600080fd5b506101c26102df366004613b17565b6107ae565b3480156102f057600080fd5b50600054610304906001600160a01b031681565b60405161016c9190613b38565b34801561031d57600080fd5b506101c2610850565b34801561033257600080fd5b506101c2610341366004613b46565b610ab2565b34801561035257600080fd5b506101c2610361366004613821565b610ac2565b34801561037257600080fd5b5061015f60015481565b34801561038857600080fd5b5061039c61039736600461364d565b610b8e565b60405161016c989796959493929190613b96565b3480156103bc57600080fd5b506101c26103cb366004613871565b610bf6565b6101c26103de366004613b17565b610d95565b3480156103ef57600080fd5b50600b5461015f565b34801561040457600080fd5b506101c2610413366004613821565b610dfe565b34801561042457600080fd5b506101c2610433366004613b17565b610ea2565b6101c2610446366004613b17565b610f08565b61045361354d565b61045c82610f38565b92915050565b61046d823383611252565b5050565b6000811561049857506001600160a01b03821660009081526008602052604090205461045c565b50506001600160a01b031660009081526009602052604090205490565b6104bd6135c3565b6001600160a01b0383166000908152600660205260409020805483106104f657604051635dcaf2d760e01b815260040160405180910390fd5b600081848154811061050a5761050a613c0d565b9060005260206000200154905060006003828154811061052c5761052c613c0d565b6000918252602091829020604080516101008101825260079390930290910180546001600160a01b039081168452600182015490811694840194909452600160a01b90930460ff161515908201526002820154606082015260038201546080820152600482015460a0820152600582015460c082015260069091015460e08201529695505050505050565b6105c784600085856000866112bf565b50505050565b6105c7846001848487604051806020016040528060008152506112bf565b6105f361354d565b6001600160a01b03821660009081526005602052604090205461061581610f38565b9392505050565b346000808061062b85856113b4565b925090508061064d57604051632050d62b60e01b815260040160405180910390fd5b6003828154811061066057610660613c0d565b9060005260206000209060070201925061067e8360008487896114fb565b5050505050565b61068d6135c3565b60035482106106af57604051635dcaf2d760e01b815260040160405180910390fd5b600382815481106106c2576106c2613c0d565b6000918252602091829020604080516101008101825260079390930290910180546001600160a01b039081168452600182015490811694840194909452600160a01b90930460ff161515908201526002820154606082015260038201546080820152600482015460a0820152600582015460c082015260069091015460e082015292915050565b610751611751565b600d80546001600160a01b0319166001600160a01b038316179055610774611780565b7f15b49408719c001f91d2ec31b653d0929170f69ff422ef39920e9c280910115e816040516107a39190613b38565b60405180910390a150565b60006107b98261183d565b905060008161016001516001600160a01b03166370a08231306040518263ffffffff1660e01b81526004016107ee9190613b38565b602060405180830381865afa15801561080b573d6000803e3d6000fd5b505050506040513d601f19601f8201168201806040525081019061082f9190613c2e565b6001600160a01b039093166000908152600960205260409020929092555050565b33600090815260076020526040812080549091901515908082610874576064610877565b60325b90506000426108846135c3565b6003546108945750505050505050565b85156109bf5786545b6000811180156108ad5750848611155b156109b5578781815481106108c4576108c4613c0d565b90600052602060002001549350600384815481106108e4576108e4613c0d565b6000918252602091829020604080516101008101825260079390930290910180546001600160a01b039081168452600182015490811694840194909452600160a01b90930460ff1615159082015260028201546060820181905260038301546080830152600483015460a0830152600583015460c083015260069092015460e082015292506028906109769085613c65565b11156109a3576109868285611afa565b156109a3576109958882611c58565b8561099f81613c78565b9650505b806109ad81613c92565b91505061089d565b5050505050505050565b6003545b6000811180156109d35750848611155b156109b557600381815481106109eb576109eb613c0d565b6000918252602091829020604080516101008101825260079390930290910180546001600160a01b039081168452600182015490811694840194909452600160a01b90930460ff1615159082015260028201546060820181905260038301546080830152600483015460a0830152600583015460c083015260069092015460e08201529250602890610a7d9085613c65565b1115610aa057610a8d8285611afa565b15610aa05785610a9c81613c78565b9650505b80610aaa81613c92565b9150506109c3565b610abd838383611252565b505050565b60008111610ae3576040516342257ced60e11b815260040160405180910390fd5b6000610aee83611cd9565b600a810154909150610b0a906001600160a01b03163384611d51565b610b27576040516379cacff160e01b815260040160405180910390fd5b6001600160a01b0383166000908152600a602052604081208054849290610b4f908490613cad565b90915550506001600160a01b03831660009081526009602052604081208054849290610b7c908490613cad565b90915550610abd905081600084611dd3565b60048181548110610b9e57600080fd5b600091825260209091206007909102018054600182015460028301546003840154600485015460058601546006909601546001600160a01b03958616975094841695600160a01b90940460ff16949293919290919088565b6000610c018361183d565b60808101516001600160a01b03166000908152600660205260408120919250808085610c45576001600160a01b038716600090815260086020526040902054610c5f565b6001600160a01b0387166000908152600960205260409020545b84549091505b600082118015610c755750600081115b15610d41576000858281548110610c8e57610c8e613c0d565b9060005260206000200154905060038181548110610cae57610cae613c0d565b906000526020600020906007020194508715158560010160149054906101000a900460ff16151514610ce05750610d2f565b8715610cfc57610cf287868486612482565b9094509250610d0d565b610d07858484612585565b90945092505b83610d185750610d2f565b610d228683611c58565b610d2d600382612681565b505b80610d3981613c92565b915050610c65565b508515610d6c5760808501516001600160a01b03166000908152600960205260409020819055610d8c565b60808501516001600160a01b031660009081526008602052604090208190555b50505050505050565b3480610db4576040516342257ced60e11b815260040160405180910390fd5b6000610dbf83611cd9565b6001600160a01b038416600090815260086020526040812080549293508492909190610dec908490613cad565b90915550610abd905081600184611dd3565b6000610e098361183d565b90506000806000610e1a86866113b4565b9250905080610e3c57604051632050d62b60e01b815260040160405180910390fd5b610e4c8461016001518787611d51565b610e69576040516379cacff160e01b815260040160405180910390fd5b60038281548110610e7c57610e7c613c0d565b90600052602060002090600702019250610e9a83600184888a6114fb565b505050505050565b610eaa611751565b600080546001600160a01b038381166001600160a01b0319831681179093556040519116917f850b3df64837d7d518b45f5aa64d104652c3b80eb5b34a8e3d9eb666cb7cdea591610efc918491613cc0565b60405180910390a15050565b6001600160a01b03811660009081526008602052604081208054349290610f30908490613cad565b909155505050565b610f4061354d565b811580610f4e575060025482115b15610f6c576040516362f850f760e11b815260040160405180910390fd5b60006002610f7b600185613c65565b81548110610f8b57610f8b613c0d565b90600052602060002090600b020160405180610180016040529081600082018054610fb590613cf1565b80601f0160208091040260200160405190810160405280929190818152602001828054610fe190613cf1565b801561102e5780601f106110035761010080835404028352916020019161102e565b820191906000526020600020905b81548152906001019060200180831161101157829003601f168201915b5050505050815260200160018201805461104790613cf1565b80601f016020809104026020016040519081016040528092919081815260200182805461107390613cf1565b80156110c05780601f10611095576101008083540402835291602001916110c0565b820191906000526020600020905b8154815290600101906020018083116110a357829003601f168201915b5050509183525050600282015460ff90811660208301526003830154604083015260048301546001600160a01b0390811660608401526005840154908116608084015260a090920191600160a01b9004166001811115611122576111226136de565b6001811115611133576111336136de565b815260200160068201548152602001600782015481526020016008820154815260200160098201548152602001600a820160009054906101000a90046001600160a01b03166001600160a01b03166001600160a01b031681525050905060006006600083608001516001600160a01b03166001600160a01b03168152602001908152602001600020805490509050604051806101400160405280858152602001836000015181526020018360200151815260200183608001516001600160a01b031681526020018360a001516001600160a01b031681526020018360e00151815260200183610100015181526020018360c001516001811115611238576112386136de565b815261012090930151602084015260409092015292915050565b600061125d8461183d565b905061126f8161016001518484611d51565b61128c576040516379cacff160e01b815260040160405180910390fd5b6001600160a01b038416600090815260096020526040812080548492906112b4908490613cad565b909155505050505050565b6002546000036112f4576000546001600160a01b031633146112f45760405163564b352960e11b815260040160405180910390fd5b6001600160a01b0386166000908152600560205260409020548690801580159061131f575060025415155b1561134857816040516315ef3a5760e01b815260040161133f9190613b38565b60405180910390fd5b600254620f42401161136d576040516353bb24f960e01b815260040160405180910390fd5b600080886001811115611382576113826136de565b0361139357611390846127d2565b90505b61139b612809565b6113a983828a888b8b612abb565b505050505050505050565b6000806113bf6135c3565b6001600160a01b038516600090815260066020526040812080549091905b6000811180156113eb575081155b156114ef57600083828154811061140457611404613c0d565b906000526020600020015490506003818154811061142457611424613c0d565b6000918252602091829020604080516101008101825260079390930290910180546001600160a01b039081168452600182015490811694840194909452600160a01b90930460ff161515908201526002820154606082015260038201546080820152600482015460a0820152600582015460c082015260069091015460e082018190529095508890036114bd57600192508095506114dc565b821580156114cf5750878560e0015110155b156114dc57600192508095505b50806114e781613c92565b9150506113dd565b50935050509250929050565b60006115068261183d565b90508280866115235761152085846040015160ff16612f70565b91505b6003868154811061153657611536613c0d565b60009182526020909120600790910201600481015460058201548254929a5090918482148015916001600160a01b03169061158f578a156115825761157b8685612f99565b925061158f565b61158c8685612fa5565b92505b60408051610100810182528d546001600160a01b03908116825260018f01549081166020830152600160a01b900460ff1615159181019190915260028d0154606082015260038d0154608082015260048d015460a082015260058d015460c082015260068d015460e082015261160790888886612fb1565b60008b6116145783611616565b865b9050821561165857868d60060160008282546116329190613c65565b92505081905550838d600501600082825461164d9190613c65565b909155506116639050565b61166360038c612681565b60e08801516000811580159061167e57508961010001518310155b905080156116f95760808a0180516001600160a01b039081166000908152600a6020908152604080832054945190931682526009905290812054906116c38383613c65565b9050848111156116f5576116d88d33876130f1565b6116f55760405163c96d18b560e01b815260040160405180910390fd5b5050505b7fd18715c1e0d5b06959a9b12a3c5d857ce3698a58f6ac5bc7726bd7df86476f408d8f86338e608001518d8b6040516117389796959493929190613d5f565b60405180910390a1505050505050505050505050505050565b6000546001600160a01b0316331461177e57336040516332b2baa360e01b815260040161133f9190613b38565b565b600c541580159061179e575060f0600c544261179c9190613c65565b105b156117a557565b600d5460408051634c6afee560e11b815290516000926001600160a01b0316916398d5fdca91600480830192869291908290030181865afa1580156117ee573d6000803e3d6000fd5b505050506040513d6000823e601f3d908101601f191682016040526118169190810190613e1f565b9050600080611824836131ba565b91509150801561183457600b8290555b505042600c5550565b6118aa6040805161018081018252606080825260208201819052600092820183905281018290526080810182905260a081018290529060c082019081526020016000815260200160008152602001600081526020016000815260200160006001600160a01b031681525090565b6001600160a01b0382166000908152600560205260409020548015806118d1575060025481115b156118ef576040516362f850f760e11b815260040160405180910390fd5b60026118fc600183613c65565b8154811061190c5761190c613c0d565b90600052602060002090600b02016040518061018001604052908160008201805461193690613cf1565b80601f016020809104026020016040519081016040528092919081815260200182805461196290613cf1565b80156119af5780601f10611984576101008083540402835291602001916119af565b820191906000526020600020905b81548152906001019060200180831161199257829003601f168201915b505050505081526020016001820180546119c890613cf1565b80601f01602080910402602001604051908101604052809291908181526020018280546119f490613cf1565b8015611a415780601f10611a1657610100808354040283529160200191611a41565b820191906000526020600020905b815481529060010190602001808311611a2457829003601f168201915b5050509183525050600282015460ff90811660208301526003830154604083015260048301546001600160a01b0390811660608401526005840154908116608084015260a090920191600160a01b9004166001811115611aa357611aa36136de565b6001811115611ab457611ab46136de565b815260068201546020820152600782015460408201526008820154606082015260098201546080820152600a909101546001600160a01b031660a0909101529392505050565b600080611b0a846020015161183d565b9050836040015115611b7257611b2884600001518560c001516132ec565b611b3657600091505061045c565b60c084015160808201516001600160a01b031660009081526008602052604081208054909190611b67908490613c65565b90915550611c009050565b611b858185600001518660c001516130f1565b611b9357600091505061045c565b60c084015160808201516001600160a01b03166000908152600a602052604081208054909190611bc4908490613c65565b909155505060c084015160808201516001600160a01b031660009081526009602052604081208054909190611bfa908490613c65565b90915550505b7f3d8da260c5e35dcba4a38c844b979a7c70c6fdbed58be53da6e817ef6a2541e08385604001518660000151604051611c3b93929190613e5a565b60405180910390a1611c4e600384612681565b5060019392505050565b8154600090611c6990600190613c65565b9050808214611cae57828181548110611c8457611c84613c0d565b9060005260206000200154838381548110611ca157611ca1613c0d565b6000918252602090912001555b82805480611cbe57611cbe613e82565b60019003818190600052602060002001600090559055505050565b6001600160a01b038116600090815260056020526040812054801580611d00575060025481115b15611d1e576040516362f850f760e11b815260040160405180910390fd5b6002611d2b600183613c65565b81548110611d3b57611d3b613c0d565b90600052602060002090600b0201915050919050565b6040516323b872dd60e01b81526000906001600160a01b038516906323b872dd90611d8490869030908790600401613e98565b6020604051808303816000875af1925050508015611dbf575060408051601f3d908101601f19168201909252611dbc91810190613ecb565b60015b611dcb57506000610615565b949350505050565b6000806005850154600160a01b900460ff166001811115611df657611df66136de565b03611e1a57611e03611780565b611e13600b548560080154612fa5565b90506121c6565b60016005850154600160a01b900460ff166001811115611e3c57611e3c6136de565b036121c6576000846009015460001480611e66575060f0856009015442611e639190613c65565b10155b905080156121bc5760006002600081548110611e8457611e84613c0d565b90600052602060002090600b020160405180610180016040529081600082018054611eae90613cf1565b80601f0160208091040260200160405190810160405280929190818152602001828054611eda90613cf1565b8015611f275780601f10611efc57610100808354040283529160200191611f27565b820191906000526020600020905b815481529060010190602001808311611f0a57829003601f168201915b50505050508152602001600182018054611f4090613cf1565b80601f0160208091040260200160405190810160405280929190818152602001828054611f6c90613cf1565b8015611fb95780601f10611f8e57610100808354040283529160200191611fb9565b820191906000526020600020905b815481529060010190602001808311611f9c57829003601f168201915b5050509183525050600282015460ff90811660208301526003830154604083015260048301546001600160a01b0390811660608401526005840154908116608084015260a090920191600160a01b900416600181111561201b5761201b6136de565b600181111561202c5761202c6136de565b81526006820154602082015260078201546040808301919091526008830154606083015260098301546080830152600a928301546001600160a01b0390811660a0909301929092529189015461016084015160058b015493516370a0823160e01b815294955090821693909260009285926370a08231926120b1921690600401613b38565b602060405180830381865afa1580156120ce573d6000803e3d6000fd5b505050506040513d601f19601f820116820180604052508101906120f29190613c2e565b60058a01546040516370a0823160e01b81529192506000916001600160a01b03858116926370a082319261212c9290911690600401613b38565b602060405180830381865afa158015612149573d6000803e3d6000fd5b505050506040513d601f19601f8201168201806040525081019061216d9190613c2e565b60028b015490915061218390839060ff16612f70565b915061219681866040015160ff16612f70565b90506121a28183612fa5565b60088b018190554260098c015596506121c4945050505050565b846008015491505b505b600083156121f25760028501546121eb906121e590859060ff16612f70565b83612fa5565b9050612212565b600285015461220f9061220990859060ff16612f70565b83612f99565b90505b600085600701548310612226575060068501545b604080516101008101825233815260048801546001600160a01b039081166020830190815288151593830193845242606084019081526080840186815260a0850189815260c086018b815260e087018a8152600380546001818101835560008381528b5160079093027fc2575a0e9e593c00f959f8c92f12db2869c3395a3b0502d05e2516446f71f85b81018054948d166001600160a01b03199095169490941790935598517fc2575a0e9e593c00f959f8c92f12db2869c3395a3b0502d05e2516446f71f85c830180549d511515600160a01b026001600160a81b0319909e1691909b16179b909b1790985594517fc2575a0e9e593c00f959f8c92f12db2869c3395a3b0502d05e2516446f71f85d88015592517fc2575a0e9e593c00f959f8c92f12db2869c3395a3b0502d05e2516446f71f85e87015590517fc2575a0e9e593c00f959f8c92f12db2869c3395a3b0502d05e2516446f71f85f860155517fc2575a0e9e593c00f959f8c92f12db2869c3395a3b0502d05e2516446f71f860850155517fc2575a0e9e593c00f959f8c92f12db2869c3395a3b0502d05e2516446f71f861909301929092559054919290916123e39190613c65565b3360009081526007602090815260408083208054600181810183559185528385200185905560048d0180546001600160a01b039081168652600685528386208054938401815586529390942001849055915491519293507f96d694e92c01c8197b4cf2ecb0ec03be940cc6e384cbdfb2afb329375a0be252926124709285928c929116908b908b90613eec565b60405180910390a15050505050505050565b600080600080866006015485109050801561249f578491506124a7565b866006015491505b86546124be9089906001600160a01b0316846130f1565b1561250d576124cd8286613c65565b9450801561250857818760060160008282546124e99190613c65565b9250508190555061250287600601548860040154612f99565b60058801555b61251b565b60008593509350505061257c565b600187015487546040517fbdb78cc9b5d01bdac074df120cc9776d231060cdcdcc8c7f6c2039f67a5e626f9261256c928a92600160a01b90920460ff16916001600160a01b03909116908690613f38565b60405180910390a1159250839150505b94509492505050565b60008060008086600601548610905080156125a2578591506125aa565b866006015491505b86546125bf906001600160a01b0316836132ec565b1561266f576125ce8287613c65565b9550801561260957818760060160008282546125ea9190613c65565b9250508190555061260387600601548860040154612fa5565b60058801555b600187015487546040517fbdb78cc9b5d01bdac074df120cc9776d231060cdcdcc8c7f6c2039f67a5e626f9261265a928992600160a01b90920460ff16916001600160a01b03909116908690613f38565b60405180910390a11592508491506126799050565b6000869350935050505b935093915050565b815460009061269290600190613c65565b9050808214612766578281815481106126ad576126ad613c0d565b90600052602060002090600702018383815481106126cd576126cd613c0d565b60009182526020909120825460079092020180546001600160a01b03199081166001600160a01b039384161782556001808501805491840180549384169290951691821785555460ff600160a01b91829004161515026001600160a81b03199092161717909155600280830154908201556003808301549082015560048083015490820155600580830154908201556006918201549101555b8280548061277657612776613e82565b60008281526020812060076000199093019283020180546001600160a01b03191681556001810180546001600160a81b031916905560028101829055600381018290556004810182905560058101829055600601559055505050565b60008060006127e0846131ba565b91509150806128025760405163e6f7d2c760e01b815260040160405180910390fd5b5092915050565b60025460000361281557565b6000600260008154811061282b5761282b613c0d565b90600052602060002090600b02016040518061018001604052908160008201805461285590613cf1565b80601f016020809104026020016040519081016040528092919081815260200182805461288190613cf1565b80156128ce5780601f106128a3576101008083540402835291602001916128ce565b820191906000526020600020905b8154815290600101906020018083116128b157829003601f168201915b505050505081526020016001820180546128e790613cf1565b80601f016020809104026020016040519081016040528092919081815260200182805461291390613cf1565b80156129605780601f1061293557610100808354040283529160200191612960565b820191906000526020600020905b81548152906001019060200180831161294357829003601f168201915b5050509183525050600282015460ff90811660208301526003830154604083015260048301546001600160a01b0390811660608401526005840154908116608084015260a090920191600160a01b90041660018111156129c2576129c26136de565b60018111156129d3576129d36136de565b815260068201546020820152600782015460408201526008820154606082015260098201546080820152600a909101546001600160a01b031660a090910152610160810151600154919250612a29913390611d51565b612a4a57600154604051636508a50160e11b815260040161133f9190613624565b60015460808201516001600160a01b031660009081526009602052604081208054909190612a79908490613cad565b9250508190555060006103e86005600154612a949190613f76565b612a9e9190613fa4565b90508060016000828254612ab29190613cad565b90915550505050565b60008690506060806000806000856001600160a01b03166370a08231306040518263ffffffff1660e01b8152600401612af49190613b38565b602060405180830381865afa925050508015612b2d575060408051601f3d908101601f19168201909252612b2a91810190613c2e565b60015b612b4a57604051630a6f7ecd60e21b815260040160405180910390fd5b809250866001600160a01b031663313ce5676040518163ffffffff1660e01b8152600401602060405180830381865afa925050508015612ba7575060408051601f3d908101601f19168201909252612ba491810190613fcc565b60015b612bb45760129150612bb7565b91505b601260ff83161115612bdc5760405163432c0a5d60e01b815260040160405180910390fd5b612be88260ff16613392565b9350866001600160a01b03166306fdde036040518163ffffffff1660e01b8152600401600060405180830381865afa925050508015612c4957506040513d6000823e601f3d908101601f19168201604052612c469190810190613e1f565b60015b15612c515795505b866001600160a01b03166395d89b416040518163ffffffff1660e01b8152600401600060405180830381865afa925050508015612cb057506040513d6000823e601f3d908101601f19168201604052612cad9190810190613e1f565b60015b15612cb85794505b506001600160a01b03891615801590612cd1575060008b115b15612cef576040516327bd783560e11b815260040160405180910390fd5b60006040518061018001604052808781526020018681526020018360ff1681526020018581526020018e6001600160a01b031681526020018b6001600160a01b031681526020018c6001811115612d4857612d486136de565b8152602081018b9052604081018a9052606081018e90526000608082018190526001600160a01b038a1660a09092019190915260028054600181018255915281519192508291600b9091027f405787fa12a823e0f2b7631cc41b3ba8828b3321ca811111fa75cd3aa3bb5ace01908190612dc2908261407e565b5060208201516001820190612dd7908261407e565b50604082015160028201805460ff191660ff9092169190911790556060820151600382015560808201516004820180546001600160a01b03199081166001600160a01b039384161790915560a084015160058401805492831691909316908117835560c085015192916001600160a81b03191617600160a01b836001811115612e6257612e626136de565b021790555060e082015160068201556101008201516007820155610120820151600882015561014082015160098083019190915561016090920151600a90910180546001600160a01b0319166001600160a01b0392831617905560025460808401805183166000908152600560209081526040808320949094559151909316835292835290819020859055908201519051612efd9190614163565b60405190819003812082519091612f149190614163565b60405190819003812060c0840151608085015160025492937f2b9a73ecc76ebad22366f66b2436a1725cc4f39aa579663fc941863779316b1b93612f5993929161416f565b60405180910390a350505050505050505050505050565b600081600114612f9257612f8382613392565b612f8d9084613f76565b610615565b5090919050565b600061061583836133b3565b600061061583836133bf565b600080600080876040015115612fd1575050855183925084915033612fde565b5050855184925083915033905b612fe98782856130f1565b613006576040516304de4e1d60e41b815260040160405180910390fd5b61301082856132ec565b61302d576040516304de4e1d60e41b815260040160405180910390fd5b60808701516001600160a01b031660009081526008602052604081208054869290613059908490613c65565b909155505060808701516001600160a01b03166000908152600a6020526040902054831080156130b55760808801516001600160a01b03166000908152600a6020526040812080548692906130af908490613c65565b90915550505b60808801516001600160a01b0316600090815260096020526040812080548692906130e1908490613c65565b9091555050505050505050505050565b61016083015160405163a9059cbb60e01b81526000916001600160a01b03169063a9059cbb90613127908690869060040161417d565b6020604051808303816000875af1925050508015613162575060408051601f3d908101601f1916820190925261315f91810190613ecb565b60015b61316e57506000610615565b8015611dcb577fa84f763be5bb36163517fb87c7af39f875a97866fdf7806eb1b3eac837ae35ea838587608001516040516131ab93929190614198565b60405180910390a19050610615565b60008080808481808080805b8551811080156131d4575083155b156132c1578581815181106131eb576131eb613c0d565b016020015160f81c94506030851080159061320a575060398560ff1611155b1561327957869750821561322a5781613222816141c0565b925050613238565b613235600a88613f76565b96505b61324382600a6142cb565b61324e6030876142e0565b60ff1661325b9190613f76565b6132659088613cad565b96508688111561327457600193505b6132af565b8460ff16602e036132af57821561328f57600193505b60019250601291506132a282600a6142cb565b6132ac9088613f76565b96505b806132b981613c78565b9150506131c6565b50816132dc576132d9670de0b6b3a764000087613f76565b95505b5093989015975095505050505050565b600080836001600160a01b031683604051613306906142fd565b60006040518083038185875af1925050503d8060008114613343576040519150601f19603f3d011682016040523d82523d6000602084013e613348565b606091505b505090508015610615577f0897f9f8697c0fee5acfc2c885618e98d4f0882e71e35d182faccc1915c01ecb8385604051613383929190614308565b60405180910390a19392505050565b6000816012036133a457506001919050565b81601203600a0a90505b919050565b600061061583836133d4565b600061061583670de0b6b3a764000084613484565b60008080600019848609848602925082811083820303915050806000036134085750670de0b6b3a76400009004905061045c565b670de0b6b3a764000081106134345784846040516369e06faf60e11b815260040161133f929190614323565b6000670de0b6b3a764000085870962040000818503049310909103600160ee1b02919091177faccb18165bd6fe31ae1cf318dc5b51eee0e1ba569b88cd74c1773b91fac106690291505092915050565b60008080600019858709858702925082811083820303915050806000036134be578382816134b4576134b4613f8e565b0492505050610615565b8381106134e45785858560405163362ced0960e11b815260040161133f93929190614331565b60008486880960026001871981018816978890046003810283188082028403028082028403028082028403028082028403028082028403029081029092039091026000889003889004909101858311909403939093029303949094049190911702949350505050565b60405180610140016040528060008152602001606081526020016060815260200160006001600160a01b0316815260200160006001600160a01b031681526020016000815260200160008152602001600060018111156135af576135af6136de565b815260200160008152602001600081525090565b60405180610100016040528060006001600160a01b0316815260200160006001600160a01b0316815260200160001515815260200160008152602001600081526020016000815260200160008152602001600081525090565b805b82525050565b6020810161045c828461361c565b805b811461363f57600080fd5b50565b803561045c81613632565b60006020828403121561366257613662600080fd5b6000611dcb8484613642565b60005b83811015613689578181015183820152602001613671565b50506000910152565b600061369c825190565b8084526020840193506136b381856020860161366e565b601f01601f19169290920192915050565b60006001600160a01b03821661045c565b61361e816136c4565b634e487b7160e01b600052602160045260246000fd5b6002811061363f5761363f6136de565b806133ae816136f4565b600061045c82613704565b61361e8161370e565b8051600090610140840190613737858261361c565b506020830151848203602086015261374f8282613692565b915050604083015184820360408601526137698282613692565b915050606083015161377e60608601826136d5565b50608083015161379160808601826136d5565b5060a08301516137a460a086018261361c565b5060c08301516137b760c086018261361c565b5060e08301516137ca60e0860182613719565b506101008301516137df61010086018261361c565b506101208301516137f461012086018261361c565b509392505050565b602080825281016106158184613722565b613634816136c4565b803561045c8161380d565b6000806040838503121561383757613837600080fd5b60006138438585613816565b925050602061385485828601613642565b9150509250929050565b801515613634565b803561045c8161385e565b6000806040838503121561388757613887600080fd5b60006138938585613816565b925050602061385485828601613866565b80151561361e565b80516101008301906138be84826136d5565b5060208201516138d160208501826136d5565b5060408201516138e460408501826138a4565b5060608201516138f7606085018261361c565b50608082015161390a608085018261361c565b5060a082015161391d60a085018261361c565b5060c082015161393060c085018261361c565b5060e08201516105c760e085018261361c565b610100810161045c82846138ac565b634e487b7160e01b600052604160045260246000fd5b601f19601f830116810181811067ffffffffffffffff8211171561398e5761398e613952565b6040525050565b60006139a060405190565b90506133ae8282613968565b600067ffffffffffffffff8211156139c6576139c6613952565b601f19601f83011660200192915050565b82818337506000910152565b60006139f66139f1846139ac565b613995565b905082815260208101848484011115613a1157613a11600080fd5b6137f48482856139d7565b600082601f830112613a3057613a30600080fd5b8135611dcb8482602086016139e3565b60008060008060808587031215613a5957613a59600080fd5b6000613a658787613816565b9450506020613a7687828801613642565b9350506040613a8787828801613642565b925050606085013567ffffffffffffffff811115613aa757613aa7600080fd5b613ab387828801613a1c565b91505092959194509250565b60008060008060808587031215613ad857613ad8600080fd5b6000613ae48787613816565b9450506020613af587828801613816565b9350506040613b0687828801613642565b9250506060613ab387828801613642565b600060208284031215613b2c57613b2c600080fd5b6000611dcb8484613816565b6020810161045c82846136d5565b600080600060608486031215613b5e57613b5e600080fd5b6000613b6a8686613816565b9350506020613b7b86828701613816565b9250506040613b8c86828701613642565b9150509250925092565b6101008101613ba5828b6136d5565b613bb2602083018a6136d5565b613bbf60408301896138a4565b613bcc606083018861361c565b613bd9608083018761361c565b613be660a083018661361c565b613bf360c083018561361c565b613c0060e083018461361c565b9998505050505050505050565b634e487b7160e01b600052603260045260246000fd5b805161045c81613632565b600060208284031215613c4357613c43600080fd5b6000611dcb8484613c23565b634e487b7160e01b600052601160045260246000fd5b8181038181111561045c5761045c613c4f565b60006000198203613c8b57613c8b613c4f565b5060010190565b6000815b915081613ca557613ca5613c4f565b506000190190565b8082018082111561045c5761045c613c4f565b60408101613cce82856136d5565b61061560208301846136d5565b634e487b7160e01b600052602260045260246000fd5b600281046001821680613d0557607f821691505b602082108103613d1757613d17613cdb565b50919050565b600061045c6001600160a01b038316613d34565b90565b6001600160a01b031690565b600061045c82613d1d565b600061045c82613d40565b61361e81613d4b565b60e08101613d6d828a61361c565b613d7a60208301896138a4565b613d876040830188613d56565b613d9460608301876136d5565b613da160808301866136d5565b613dae60a083018561361c565b613dbb60c08301846138a4565b98975050505050505050565b6000613dd56139f1846139ac565b905082815260208101848484011115613df057613df0600080fd5b6137f484828561366e565b600082601f830112613e0f57613e0f600080fd5b8151611dcb848260208601613dc7565b600060208284031215613e3457613e34600080fd5b815167ffffffffffffffff811115613e4e57613e4e600080fd5b611dcb84828501613dfb565b60608101613e68828661361c565b613e7560208301856138a4565b611dcb6040830184613d56565b634e487b7160e01b600052603160045260246000fd5b60608101613ea682866136d5565b613eb360208301856136d5565b611dcb604083018461361c565b805161045c8161385e565b600060208284031215613ee057613ee0600080fd5b6000611dcb8484613ec0565b60a08101613efa828861361c565b613f0760208301876138a4565b613f1460408301866136d5565b613f21606083018561361c565b613f2e608083018461361c565b9695505050505050565b60808101613f46828761361c565b613f5360208301866138a4565b613f606040830185613d56565b613f6d60608301846138a4565b95945050505050565b81810280821583820485141761280257612802613c4f565b634e487b7160e01b600052601260045260246000fd5b600082613fb357613fb3613f8e565b500490565b60ff8116613634565b805161045c81613fb8565b600060208284031215613fe157613fe1600080fd5b6000611dcb8484613fc1565b600061045c613d318381565b61400283613fed565b815460001960089490940293841b1916921b91909117905550565b6000610abd818484613ff9565b8181101561046d5761403d60008261401d565b60010161402a565b601f821115610abd576000818152602090206020601f8501048101602085101561406c5750805b61067e6020601f86010483018261402a565b815167ffffffffffffffff81111561409857614098613952565b6140a28254613cf1565b6140ad828285614045565b6020601f8311600181146140e157600084156140c95750858201515b600019600886021c1981166002860217865550610e9a565b600085815260208120601f198616915b8281101561411157888501518255602094850194600190920191016140f1565b8683101561412d5784890151600019601f89166008021c191682555b600160028802018855505050505050505050565b600061414b825190565b61415981856020860161366e565b9290920192915050565b60006106158284614141565b60608101613ea68286613719565b6040810161418b82856136d5565b610615602083018461361c565b606081016141a6828661361c565b6141b360208301856136d5565b611dcb60408301846136d5565b600060ff8216613c96565b80825b600185111561257c578086048111156141e9576141e9613c4f565b60018516156141f757908102905b80026142038560011c90565b94506141ce565b60008261421957506001610615565b8161422657506000610615565b816001811461423c576002811461424657614273565b6001915050610615565b60ff84111561425757614257613c4f565b8360020a91508482111561426d5761426d613c4f565b50610615565b5060208310610133831016604e8410600b84101617156142a1575081810a83811115612f8d57612f8d613c4f565b6142ae84848460016141cb565b925090508184048111156142c4576142c4613c4f565b0292915050565b600060ff83169250610615600019848461420a565b60ff91821691908116908282039081111561045c5761045c613c4f565b600061045c82613d31565b60408101614316828561361c565b6106156020830184613d56565b6040810161418b828561361c565b6060810161433f828661361c565b613eb3602083018561361c56fea2646970667358221220f374be56afff6406f4a759ea6234d7b9b99b43a8a4c6ce96046c70fed5871b5264736f6c63430008160033","opcodes":"PUSH1 0x80 PUSH1 0x40 MSTORE PUSH2 0x3E8 PUSH1 0x1 SSTORE PUSH1 0x3 DUP1 SLOAD PUSH3 0x1C SWAP2 PUSH1 0x4 SWAP2 PUSH3 0x43 JUMP JUMPDEST POP CALLVALUE DUP1 ISZERO PUSH3 0x2A JUMPI PUSH1 0x0 DUP1 REVERT JUMPDEST POP PUSH1 0x0 DUP1 SLOAD PUSH1 0x1 PUSH1 0x1 PUSH1 0xA0 SHL SUB NOT AND CALLER OR SWAP1 SSTORE PUSH3 0x178 JUMP JUMPDEST DUP3 DUP1 SLOAD DUP3 DUP3 SSTORE SWAP1 PUSH1 0x0 MSTORE PUSH1 0x20 PUSH1 0x0 KECCAK256 SWAP1 PUSH1 0x7 MUL DUP2 ADD SWAP3 DUP3 ISZERO PUSH3 0x110 JUMPI PUSH1 0x0 MSTORE PUSH1 0x20 PUSH1 0x0 KECCAK256 SWAP2 PUSH1 0x7 MUL DUP3 ADD JUMPDEST DUP3 DUP2 GT ISZERO PUSH3 0x110 JUMPI DUP3 SLOAD DUP3 SLOAD PUSH1 0x1 PUSH1 0x1 PUSH1 0xA0 SHL SUB NOT SWAP1 DUP2 AND PUSH1 0x1 PUSH1 0x1 PUSH1 0xA0 SHL SUB SWAP3 DUP4 AND OR DUP5 SSTORE PUSH1 0x1 DUP1 DUP7 ADD DUP1 SLOAD SWAP2 DUP7 ADD DUP1 SLOAD SWAP4 DUP5 AND SWAP3 SWAP1 SWAP5 AND SWAP2 DUP3 OR DUP5 SSTORE SLOAD PUSH1 0xFF PUSH1 0x1 PUSH1 0xA0 SHL SWAP2 DUP3 SWAP1 DIV AND ISZERO ISZERO MUL PUSH1 0x1 PUSH1 0x1 PUSH1 0xA8 SHL SUB NOT SWAP1 SWAP3 AND OR OR SWAP1 SSTORE PUSH1 0x2 DUP1 DUP5 ADD SLOAD SWAP1 DUP4 ADD SSTORE PUSH1 0x3 DUP1 DUP5 ADD SLOAD SWAP1 DUP4 ADD SSTORE PUSH1 0x4 DUP1 DUP5 ADD SLOAD SWAP1 DUP4 ADD SSTORE PUSH1 0x5 DUP1 DUP5 ADD SLOAD SWAP1 DUP4 ADD SSTORE PUSH1 0x6 DUP1 DUP5 ADD SLOAD SWAP1 DUP4 ADD SSTORE PUSH1 0x7 SWAP3 DUP4 ADD SWAP3 SWAP1 SWAP2 ADD SWAP1 PUSH3 0x6F JUMP JUMPDEST POP PUSH3 0x11E SWAP3 SWAP2 POP PUSH3 0x122 JUMP JUMPDEST POP SWAP1 JUMP JUMPDEST JUMPDEST DUP1 DUP3 GT ISZERO PUSH3 0x11E JUMPI DUP1 SLOAD PUSH1 0x1 PUSH1 0x1 PUSH1 0xA0 SHL SUB NOT AND DUP2 SSTORE PUSH1 0x1 DUP2 ADD DUP1 SLOAD PUSH1 0x1 PUSH1 0x1 PUSH1 0xA8 SHL SUB NOT AND SWAP1 SSTORE PUSH1 0x0 PUSH1 0x2 DUP3 ADD DUP2 SWAP1 SSTORE PUSH1 0x3 DUP3 ADD DUP2 SWAP1 SSTORE PUSH1 0x4 DUP3 ADD DUP2 SWAP1 SSTORE PUSH1 0x5 DUP3 ADD DUP2 SWAP1 SSTORE PUSH1 0x6 DUP3 ADD SSTORE PUSH1 0x7 ADD PUSH3 0x123 JUMP JUMPDEST PUSH2 0x4382 DUP1 PUSH3 0x188 PUSH1 0x0 CODECOPY PUSH1 0x0 RETURN INVALID PUSH1 0x80 PUSH1 0x40 MSTORE PUSH1 0x4 CALLDATASIZE LT PUSH2 0x14B JUMPI PUSH1 0x0 CALLDATALOAD PUSH1 0xE0 SHR DUP1 PUSH4 0x8DA5CB5B GT PUSH2 0xB6 JUMPI DUP1 PUSH4 0xC201E47C GT PUSH2 0x6F JUMPI DUP1 PUSH4 0xC201E47C EQ PUSH2 0x3B0 JUMPI DUP1 PUSH4 0xD2980065 EQ PUSH2 0x3D0 JUMPI DUP1 PUSH4 0xD7DCDCEC EQ PUSH2 0x3E3 JUMPI DUP1 PUSH4 0xDB34A679 EQ PUSH2 0x3F8 JUMPI DUP1 PUSH4 0xF2FDE38B EQ PUSH2 0x418 JUMPI DUP1 PUSH4 0xF340FA01 EQ PUSH2 0x438 JUMPI PUSH1 0x0 DUP1 REVERT JUMPDEST DUP1 PUSH4 0x8DA5CB5B EQ PUSH2 0x2E4 JUMPI DUP1 PUSH4 0x9351769F EQ PUSH2 0x311 JUMPI DUP1 PUSH4 0xA08B5BBA EQ PUSH2 0x326 JUMPI DUP1 PUSH4 0xA262B73F EQ PUSH2 0x346 JUMPI DUP1 PUSH4 0xA5B6F92A EQ PUSH2 0x366 JUMPI DUP1 PUSH4 0xA85C38EF EQ PUSH2 0x37C JUMPI PUSH1 0x0 DUP1 REVERT JUMPDEST DUP1 PUSH4 0x5264C8D9 GT PUSH2 0x108 JUMPI DUP1 PUSH4 0x5264C8D9 EQ PUSH2 0x231 JUMPI DUP1 PUSH4 0x673CF82A EQ PUSH2 0x251 JUMPI DUP1 PUSH4 0x6DAF6945 EQ PUSH2 0x271 JUMPI DUP1 PUSH4 0x7C38D663 EQ PUSH2 0x284 JUMPI DUP1 PUSH4 0x86F179D2 EQ PUSH2 0x2A4 JUMPI DUP1 PUSH4 0x87B337E8 EQ PUSH2 0x2C4 JUMPI PUSH1 0x0 DUP1 REVERT JUMPDEST DUP1 PUSH4 0x12065FE0 EQ PUSH2 0x150 JUMPI DUP1 PUSH4 0x1F5D2641 EQ PUSH2 0x175 JUMPI DUP1 PUSH4 0x338B5DEA EQ PUSH2 0x1A2 JUMPI DUP1 PUSH4 0x3B174F0F EQ PUSH2 0x1C4 JUMPI DUP1 PUSH4 0x3EF73856 EQ PUSH2 0x1E4 JUMPI DUP1 PUSH4 0x4D9EA07D EQ PUSH2 0x211 JUMPI JUMPDEST PUSH1 0x0 DUP1 REVERT JUMPDEST CALLVALUE DUP1 ISZERO PUSH2 0x15C JUMPI PUSH1 0x0 DUP1 REVERT JUMPDEST POP SELFBALANCE JUMPDEST PUSH1 0x40 MLOAD PUSH2 0x16C SWAP2 SWAP1 PUSH2 0x3624 JUMP JUMPDEST PUSH1 0x40 MLOAD DUP1 SWAP2 SUB SWAP1 RETURN JUMPDEST CALLVALUE DUP1 ISZERO PUSH2 0x181 JUMPI PUSH1 0x0 DUP1 REVERT JUMPDEST POP PUSH2 0x195 PUSH2 0x190 CALLDATASIZE PUSH1 0x4 PUSH2 0x364D JUMP JUMPDEST PUSH2 0x44B JUMP JUMPDEST PUSH1 0x40 MLOAD PUSH2 0x16C SWAP2 SWAP1 PUSH2 0x37FC JUMP JUMPDEST CALLVALUE DUP1 ISZERO PUSH2 0x1AE JUMPI PUSH1 0x0 DUP1 REVERT JUMPDEST POP PUSH2 0x1C2 PUSH2 0x1BD CALLDATASIZE PUSH1 0x4 PUSH2 0x3821 JUMP JUMPDEST PUSH2 0x462 JUMP JUMPDEST STOP JUMPDEST CALLVALUE DUP1 ISZERO PUSH2 0x1D0 JUMPI PUSH1 0x0 DUP1 REVERT JUMPDEST POP PUSH2 0x15F PUSH2 0x1DF CALLDATASIZE PUSH1 0x4 PUSH2 0x3871 JUMP JUMPDEST PUSH2 0x471 JUMP JUMPDEST CALLVALUE DUP1 ISZERO PUSH2 0x1F0 JUMPI PUSH1 0x0 DUP1 REVERT JUMPDEST POP PUSH2 0x204 PUSH2 0x1FF CALLDATASIZE PUSH1 0x4 PUSH2 0x3821 JUMP JUMPDEST PUSH2 0x4B5 JUMP JUMPDEST PUSH1 0x40 MLOAD PUSH2 0x16C SWAP2 SWAP1 PUSH2 0x3943 JUMP JUMPDEST CALLVALUE DUP1 ISZERO PUSH2 0x21D JUMPI PUSH1 0x0 DUP1 REVERT JUMPDEST POP PUSH2 0x1C2 PUSH2 0x22C CALLDATASIZE PUSH1 0x4 PUSH2 0x3A40 JUMP JUMPDEST PUSH2 0x5B7 JUMP JUMPDEST CALLVALUE DUP1 ISZERO PUSH2 0x23D JUMPI PUSH1 0x0 DUP1 REVERT JUMPDEST POP PUSH2 0x1C2 PUSH2 0x24C CALLDATASIZE PUSH1 0x4 PUSH2 0x3ABF JUMP JUMPDEST PUSH2 0x5CD JUMP JUMPDEST CALLVALUE DUP1 ISZERO PUSH2 0x25D JUMPI PUSH1 0x0 DUP1 REVERT JUMPDEST POP PUSH2 0x195 PUSH2 0x26C CALLDATASIZE PUSH1 0x4 PUSH2 0x3B17 JUMP JUMPDEST PUSH2 0x5EB JUMP JUMPDEST PUSH2 0x1C2 PUSH2 0x27F CALLDATASIZE PUSH1 0x4 PUSH2 0x3B17 JUMP JUMPDEST PUSH2 0x61C JUMP JUMPDEST CALLVALUE DUP1 ISZERO PUSH2 0x290 JUMPI PUSH1 0x0 DUP1 REVERT JUMPDEST POP PUSH2 0x204 PUSH2 0x29F CALLDATASIZE PUSH1 0x4 PUSH2 0x364D JUMP JUMPDEST PUSH2 0x685 JUMP JUMPDEST CALLVALUE DUP1 ISZERO PUSH2 0x2B0 JUMPI PUSH1 0x0 DUP1 REVERT JUMPDEST POP PUSH2 0x1C2 PUSH2 0x2BF CALLDATASIZE PUSH1 0x4 PUSH2 0x3B17 JUMP JUMPDEST PUSH2 0x749 JUMP JUMPDEST CALLVALUE DUP1 ISZERO PUSH2 0x2D0 JUMPI PUSH1 0x0 DUP1 REVERT JUMPDEST POP PUSH2 0x1C2 PUSH2 0x2DF CALLDATASIZE PUSH1 0x4 PUSH2 0x3B17 JUMP JUMPDEST PUSH2 0x7AE JUMP JUMPDEST CALLVALUE DUP1 ISZERO PUSH2 0x2F0 JUMPI PUSH1 0x0 DUP1 REVERT JUMPDEST POP PUSH1 0x0 SLOAD PUSH2 0x304 SWAP1 PUSH1 0x1 PUSH1 0x1 PUSH1 0xA0 SHL SUB AND DUP2 JUMP JUMPDEST PUSH1 0x40 MLOAD PUSH2 0x16C SWAP2 SWAP1 PUSH2 0x3B38 JUMP JUMPDEST CALLVALUE DUP1 ISZERO PUSH2 0x31D JUMPI PUSH1 0x0 DUP1 REVERT JUMPDEST POP PUSH2 0x1C2 PUSH2 0x850 JUMP JUMPDEST CALLVALUE DUP1 ISZERO PUSH2 0x332 JUMPI PUSH1 0x0 DUP1 REVERT JUMPDEST POP PUSH2 0x1C2 PUSH2 0x341 CALLDATASIZE PUSH1 0x4 PUSH2 0x3B46 JUMP JUMPDEST PUSH2 0xAB2 JUMP JUMPDEST CALLVALUE DUP1 ISZERO PUSH2 0x352 JUMPI PUSH1 0x0 DUP1 REVERT JUMPDEST POP PUSH2 0x1C2 PUSH2 0x361 CALLDATASIZE PUSH1 0x4 PUSH2 0x3821 JUMP JUMPDEST PUSH2 0xAC2 JUMP JUMPDEST CALLVALUE DUP1 ISZERO PUSH2 0x372 JUMPI PUSH1 0x0 DUP1 REVERT JUMPDEST POP PUSH2 0x15F PUSH1 0x1 SLOAD DUP2 JUMP JUMPDEST CALLVALUE DUP1 ISZERO PUSH2 0x388 JUMPI PUSH1 0x0 DUP1 REVERT JUMPDEST POP PUSH2 0x39C PUSH2 0x397 CALLDATASIZE PUSH1 0x4 PUSH2 0x364D JUMP JUMPDEST PUSH2 0xB8E JUMP JUMPDEST PUSH1 0x40 MLOAD PUSH2 0x16C SWAP9 SWAP8 SWAP7 SWAP6 SWAP5 SWAP4 SWAP3 SWAP2 SWAP1 PUSH2 0x3B96 JUMP JUMPDEST CALLVALUE DUP1 ISZERO PUSH2 0x3BC JUMPI PUSH1 0x0 DUP1 REVERT JUMPDEST POP PUSH2 0x1C2 PUSH2 0x3CB CALLDATASIZE PUSH1 0x4 PUSH2 0x3871 JUMP JUMPDEST PUSH2 0xBF6 JUMP JUMPDEST PUSH2 0x1C2 PUSH2 0x3DE CALLDATASIZE PUSH1 0x4 PUSH2 0x3B17 JUMP JUMPDEST PUSH2 0xD95 JUMP JUMPDEST CALLVALUE DUP1 ISZERO PUSH2 0x3EF JUMPI PUSH1 0x0 DUP1 REVERT JUMPDEST POP PUSH1 0xB SLOAD PUSH2 0x15F JUMP JUMPDEST CALLVALUE DUP1 ISZERO PUSH2 0x404 JUMPI PUSH1 0x0 DUP1 REVERT JUMPDEST POP PUSH2 0x1C2 PUSH2 0x413 CALLDATASIZE PUSH1 0x4 PUSH2 0x3821 JUMP JUMPDEST PUSH2 0xDFE JUMP JUMPDEST CALLVALUE DUP1 ISZERO PUSH2 0x424 JUMPI PUSH1 0x0 DUP1 REVERT JUMPDEST POP PUSH2 0x1C2 PUSH2 0x433 CALLDATASIZE PUSH1 0x4 PUSH2 0x3B17 JUMP JUMPDEST PUSH2 0xEA2 JUMP JUMPDEST PUSH2 0x1C2 PUSH2 0x446 CALLDATASIZE PUSH1 0x4 PUSH2 0x3B17 JUMP JUMPDEST PUSH2 0xF08 JUMP JUMPDEST PUSH2 0x453 PUSH2 0x354D JUMP JUMPDEST PUSH2 0x45C DUP3 PUSH2 0xF38 JUMP JUMPDEST SWAP3 SWAP2 POP POP JUMP JUMPDEST PUSH2 0x46D DUP3 CALLER DUP4 PUSH2 0x1252 JUMP JUMPDEST POP POP JUMP JUMPDEST PUSH1 0x0 DUP2 ISZERO PUSH2 0x498 JUMPI POP PUSH1 0x1 PUSH1 0x1 PUSH1 0xA0 SHL SUB DUP3 AND PUSH1 0x0 SWAP1 DUP2 MSTORE PUSH1 0x8 PUSH1 0x20 MSTORE PUSH1 0x40 SWAP1 KECCAK256 SLOAD PUSH2 0x45C JUMP JUMPDEST POP POP PUSH1 0x1 PUSH1 0x1 PUSH1 0xA0 SHL SUB AND PUSH1 0x0 SWAP1 DUP2 MSTORE PUSH1 0x9 PUSH1 0x20 MSTORE PUSH1 0x40 SWAP1 KECCAK256 SLOAD SWAP1 JUMP JUMPDEST PUSH2 0x4BD PUSH2 0x35C3 JUMP JUMPDEST PUSH1 0x1 PUSH1 0x1 PUSH1 0xA0 SHL SUB DUP4 AND PUSH1 0x0 SWAP1 DUP2 MSTORE PUSH1 0x6 PUSH1 0x20 MSTORE PUSH1 0x40 SWAP1 KECCAK256 DUP1 SLOAD DUP4 LT PUSH2 0x4F6 JUMPI PUSH1 0x40 MLOAD PUSH4 0x5DCAF2D7 PUSH1 0xE0 SHL DUP2 MSTORE PUSH1 0x4 ADD PUSH1 0x40 MLOAD DUP1 SWAP2 SUB SWAP1 REVERT JUMPDEST PUSH1 0x0 DUP2 DUP5 DUP2 SLOAD DUP2 LT PUSH2 0x50A JUMPI PUSH2 0x50A PUSH2 0x3C0D JUMP JUMPDEST SWAP1 PUSH1 0x0 MSTORE PUSH1 0x20 PUSH1 0x0 KECCAK256 ADD SLOAD SWAP1 POP PUSH1 0x0 PUSH1 0x3 DUP3 DUP2 SLOAD DUP2 LT PUSH2 0x52C JUMPI PUSH2 0x52C PUSH2 0x3C0D JUMP JUMPDEST PUSH1 0x0 SWAP2 DUP3 MSTORE PUSH1 0x20 SWAP2 DUP3 SWAP1 KECCAK256 PUSH1 0x40 DUP1 MLOAD PUSH2 0x100 DUP2 ADD DUP3 MSTORE PUSH1 0x7 SWAP4 SWAP1 SWAP4 MUL SWAP1 SWAP2 ADD DUP1 SLOAD PUSH1 0x1 PUSH1 0x1 PUSH1 0xA0 SHL SUB SWAP1 DUP2 AND DUP5 MSTORE PUSH1 0x1 DUP3 ADD SLOAD SWAP1 DUP2 AND SWAP5 DUP5 ADD SWAP5 SWAP1 SWAP5 MSTORE PUSH1 0x1 PUSH1 0xA0 SHL SWAP1 SWAP4 DIV PUSH1 0xFF AND ISZERO ISZERO SWAP1 DUP3 ADD MSTORE PUSH1 0x2 DUP3 ADD SLOAD PUSH1 0x60 DUP3 ADD MSTORE PUSH1 0x3 DUP3 ADD SLOAD PUSH1 0x80 DUP3 ADD MSTORE PUSH1 0x4 DUP3 ADD SLOAD PUSH1 0xA0 DUP3 ADD MSTORE PUSH1 0x5 DUP3 ADD SLOAD PUSH1 0xC0 DUP3 ADD MSTORE PUSH1 0x6 SWAP1 SWAP2 ADD SLOAD PUSH1 0xE0 DUP3 ADD MSTORE SWAP7 SWAP6 POP POP POP POP POP POP JUMP JUMPDEST PUSH2 0x5C7 DUP5 PUSH1 0x0 DUP6 DUP6 PUSH1 0x0 DUP7 PUSH2 0x12BF JUMP JUMPDEST POP POP POP POP JUMP JUMPDEST PUSH2 0x5C7 DUP5 PUSH1 0x1 DUP5 DUP5 DUP8 PUSH1 0x40 MLOAD DUP1 PUSH1 0x20 ADD PUSH1 0x40 MSTORE DUP1 PUSH1 0x0 DUP2 MSTORE POP PUSH2 0x12BF JUMP JUMPDEST PUSH2 0x5F3 PUSH2 0x354D JUMP JUMPDEST PUSH1 0x1 PUSH1 0x1 PUSH1 0xA0 SHL SUB DUP3 AND PUSH1 0x0 SWAP1 DUP2 MSTORE PUSH1 0x5 PUSH1 0x20 MSTORE PUSH1 0x40 SWAP1 KECCAK256 SLOAD PUSH2 0x615 DUP2 PUSH2 0xF38 JUMP JUMPDEST SWAP4 SWAP3 POP POP POP JUMP JUMPDEST CALLVALUE PUSH1 0x0 DUP1 DUP1 PUSH2 0x62B DUP6 DUP6 PUSH2 0x13B4 JUMP JUMPDEST SWAP3 POP SWAP1 POP DUP1 PUSH2 0x64D JUMPI PUSH1 0x40 MLOAD PUSH4 0x2050D62B PUSH1 0xE0 SHL DUP2 MSTORE PUSH1 0x4 ADD PUSH1 0x40 MLOAD DUP1 SWAP2 SUB SWAP1 REVERT JUMPDEST PUSH1 0x3 DUP3 DUP2 SLOAD DUP2 LT PUSH2 0x660 JUMPI PUSH2 0x660 PUSH2 0x3C0D JUMP JUMPDEST SWAP1 PUSH1 0x0 MSTORE PUSH1 0x20 PUSH1 0x0 KECCAK256 SWAP1 PUSH1 0x7 MUL ADD SWAP3 POP PUSH2 0x67E DUP4 PUSH1 0x0 DUP5 DUP8 DUP10 PUSH2 0x14FB JUMP JUMPDEST POP POP POP POP POP JUMP JUMPDEST PUSH2 0x68D PUSH2 0x35C3 JUMP JUMPDEST PUSH1 0x3 SLOAD DUP3 LT PUSH2 0x6AF JUMPI PUSH1 0x40 MLOAD PUSH4 0x5DCAF2D7 PUSH1 0xE0 SHL DUP2 MSTORE PUSH1 0x4 ADD PUSH1 0x40 MLOAD DUP1 SWAP2 SUB SWAP1 REVERT JUMPDEST PUSH1 0x3 DUP3 DUP2 SLOAD DUP2 LT PUSH2 0x6C2 JUMPI PUSH2 0x6C2 PUSH2 0x3C0D JUMP JUMPDEST PUSH1 0x0 SWAP2 DUP3 MSTORE PUSH1 0x20 SWAP2 DUP3 SWAP1 KECCAK256 PUSH1 0x40 DUP1 MLOAD PUSH2 0x100 DUP2 ADD DUP3 MSTORE PUSH1 0x7 SWAP4 SWAP1 SWAP4 MUL SWAP1 SWAP2 ADD DUP1 SLOAD PUSH1 0x1 PUSH1 0x1 PUSH1 0xA0 SHL SUB SWAP1 DUP2 AND DUP5 MSTORE PUSH1 0x1 DUP3 ADD SLOAD SWAP1 DUP2 AND SWAP5 DUP5 ADD SWAP5 SWAP1 SWAP5 MSTORE PUSH1 0x1 PUSH1 0xA0 SHL SWAP1 SWAP4 DIV PUSH1 0xFF AND ISZERO ISZERO SWAP1 DUP3 ADD MSTORE PUSH1 0x2 DUP3 ADD SLOAD PUSH1 0x60 DUP3 ADD MSTORE PUSH1 0x3 DUP3 ADD SLOAD PUSH1 0x80 DUP3 ADD MSTORE PUSH1 0x4 DUP3 ADD SLOAD PUSH1 0xA0 DUP3 ADD MSTORE PUSH1 0x5 DUP3 ADD SLOAD PUSH1 0xC0 DUP3 ADD MSTORE PUSH1 0x6 SWAP1 SWAP2 ADD SLOAD PUSH1 0xE0 DUP3 ADD MSTORE SWAP3 SWAP2 POP POP JUMP JUMPDEST PUSH2 0x751 PUSH2 0x1751 JUMP JUMPDEST PUSH1 0xD DUP1 SLOAD PUSH1 0x1 PUSH1 0x1 PUSH1 0xA0 SHL SUB NOT AND PUSH1 0x1 PUSH1 0x1 PUSH1 0xA0 SHL SUB DUP4 AND OR SWAP1 SSTORE PUSH2 0x774 PUSH2 0x1780 JUMP JUMPDEST PUSH32 0x15B49408719C001F91D2EC31B653D0929170F69FF422EF39920E9C280910115E DUP2 PUSH1 0x40 MLOAD PUSH2 0x7A3 SWAP2 SWAP1 PUSH2 0x3B38 JUMP JUMPDEST PUSH1 0x40 MLOAD DUP1 SWAP2 SUB SWAP1 LOG1 POP JUMP JUMPDEST PUSH1 0x0 PUSH2 0x7B9 DUP3 PUSH2 0x183D JUMP JUMPDEST SWAP1 POP PUSH1 0x0 DUP2 PUSH2 0x160 ADD MLOAD PUSH1 0x1 PUSH1 0x1 PUSH1 0xA0 SHL SUB AND PUSH4 0x70A08231 ADDRESS PUSH1 0x40 MLOAD DUP3 PUSH4 0xFFFFFFFF AND PUSH1 0xE0 SHL DUP2 MSTORE PUSH1 0x4 ADD PUSH2 0x7EE SWAP2 SWAP1 PUSH2 0x3B38 JUMP JUMPDEST PUSH1 0x20 PUSH1 0x40 MLOAD DUP1 DUP4 SUB DUP2 DUP7 GAS STATICCALL ISZERO DUP1 ISZERO PUSH2 0x80B JUMPI RETURNDATASIZE PUSH1 0x0 DUP1 RETURNDATACOPY RETURNDATASIZE PUSH1 0x0 REVERT JUMPDEST POP POP POP POP PUSH1 0x40 MLOAD RETURNDATASIZE PUSH1 0x1F NOT PUSH1 0x1F DUP3 ADD AND DUP3 ADD DUP1 PUSH1 0x40 MSTORE POP DUP2 ADD SWAP1 PUSH2 0x82F SWAP2 SWAP1 PUSH2 0x3C2E JUMP JUMPDEST PUSH1 0x1 PUSH1 0x1 PUSH1 0xA0 SHL SUB SWAP1 SWAP4 AND PUSH1 0x0 SWAP1 DUP2 MSTORE PUSH1 0x9 PUSH1 0x20 MSTORE PUSH1 0x40 SWAP1 KECCAK256 SWAP3 SWAP1 SWAP3 SSTORE POP POP JUMP JUMPDEST CALLER PUSH1 0x0 SWAP1 DUP2 MSTORE PUSH1 0x7 PUSH1 0x20 MSTORE PUSH1 0x40 DUP2 KECCAK256 DUP1 SLOAD SWAP1 SWAP2 SWAP1 ISZERO ISZERO SWAP1 DUP1 DUP3 PUSH2 0x874 JUMPI PUSH1 0x64 PUSH2 0x877 JUMP JUMPDEST PUSH1 0x32 JUMPDEST SWAP1 POP PUSH1 0x0 TIMESTAMP PUSH2 0x884 PUSH2 0x35C3 JUMP JUMPDEST PUSH1 0x3 SLOAD PUSH2 0x894 JUMPI POP POP POP POP POP POP POP JUMP JUMPDEST DUP6 ISZERO PUSH2 0x9BF JUMPI DUP7 SLOAD JUMPDEST PUSH1 0x0 DUP2 GT DUP1 ISZERO PUSH2 0x8AD JUMPI POP DUP5 DUP7 GT ISZERO JUMPDEST ISZERO PUSH2 0x9B5 JUMPI DUP8 DUP2 DUP2 SLOAD DUP2 LT PUSH2 0x8C4 JUMPI PUSH2 0x8C4 PUSH2 0x3C0D JUMP JUMPDEST SWAP1 PUSH1 0x0 MSTORE PUSH1 0x20 PUSH1 0x0 KECCAK256 ADD SLOAD SWAP4 POP PUSH1 0x3 DUP5 DUP2 SLOAD DUP2 LT PUSH2 0x8E4 JUMPI PUSH2 0x8E4 PUSH2 0x3C0D JUMP JUMPDEST PUSH1 0x0 SWAP2 DUP3 MSTORE PUSH1 0x20 SWAP2 DUP3 SWAP1 KECCAK256 PUSH1 0x40 DUP1 MLOAD PUSH2 0x100 DUP2 ADD DUP3 MSTORE PUSH1 0x7 SWAP4 SWAP1 SWAP4 MUL SWAP1 SWAP2 ADD DUP1 SLOAD PUSH1 0x1 PUSH1 0x1 PUSH1 0xA0 SHL SUB SWAP1 DUP2 AND DUP5 MSTORE PUSH1 0x1 DUP3 ADD SLOAD SWAP1 DUP2 AND SWAP5 DUP5 ADD SWAP5 SWAP1 SWAP5 MSTORE PUSH1 0x1 PUSH1 0xA0 SHL SWAP1 SWAP4 DIV PUSH1 0xFF AND ISZERO ISZERO SWAP1 DUP3 ADD MSTORE PUSH1 0x2 DUP3 ADD SLOAD PUSH1 0x60 DUP3 ADD DUP2 SWAP1 MSTORE PUSH1 0x3 DUP4 ADD SLOAD PUSH1 0x80 DUP4 ADD MSTORE PUSH1 0x4 DUP4 ADD SLOAD PUSH1 0xA0 DUP4 ADD MSTORE PUSH1 0x5 DUP4 ADD SLOAD PUSH1 0xC0 DUP4 ADD MSTORE PUSH1 0x6 SWAP1 SWAP3 ADD SLOAD PUSH1 0xE0 DUP3 ADD MSTORE SWAP3 POP PUSH1 0x28 SWAP1 PUSH2 0x976 SWAP1 DUP6 PUSH2 0x3C65 JUMP JUMPDEST GT ISZERO PUSH2 0x9A3 JUMPI PUSH2 0x986 DUP3 DUP6 PUSH2 0x1AFA JUMP JUMPDEST ISZERO PUSH2 0x9A3 JUMPI PUSH2 0x995 DUP9 DUP3 PUSH2 0x1C58 JUMP JUMPDEST DUP6 PUSH2 0x99F DUP2 PUSH2 0x3C78 JUMP JUMPDEST SWAP7 POP POP JUMPDEST DUP1 PUSH2 0x9AD DUP2 PUSH2 0x3C92 JUMP JUMPDEST SWAP2 POP POP PUSH2 0x89D JUMP JUMPDEST POP POP POP POP POP POP POP POP JUMP JUMPDEST PUSH1 0x3 SLOAD JUMPDEST PUSH1 0x0 DUP2 GT DUP1 ISZERO PUSH2 0x9D3 JUMPI POP DUP5 DUP7 GT ISZERO JUMPDEST ISZERO PUSH2 0x9B5 JUMPI PUSH1 0x3 DUP2 DUP2 SLOAD DUP2 LT PUSH2 0x9EB JUMPI PUSH2 0x9EB PUSH2 0x3C0D JUMP JUMPDEST PUSH1 0x0 SWAP2 DUP3 MSTORE PUSH1 0x20 SWAP2 DUP3 SWAP1 KECCAK256 PUSH1 0x40 DUP1 MLOAD PUSH2 0x100 DUP2 ADD DUP3 MSTORE PUSH1 0x7 SWAP4 SWAP1 SWAP4 MUL SWAP1 SWAP2 ADD DUP1 SLOAD PUSH1 0x1 PUSH1 0x1 PUSH1 0xA0 SHL SUB SWAP1 DUP2 AND DUP5 MSTORE PUSH1 0x1 DUP3 ADD SLOAD SWAP1 DUP2 AND SWAP5 DUP5 ADD SWAP5 SWAP1 SWAP5 MSTORE PUSH1 0x1 PUSH1 0xA0 SHL SWAP1 SWAP4 DIV PUSH1 0xFF AND ISZERO ISZERO SWAP1 DUP3 ADD MSTORE PUSH1 0x2 DUP3 ADD SLOAD PUSH1 0x60 DUP3 ADD DUP2 SWAP1 MSTORE PUSH1 0x3 DUP4 ADD SLOAD PUSH1 0x80 DUP4 ADD MSTORE PUSH1 0x4 DUP4 ADD SLOAD PUSH1 0xA0 DUP4 ADD MSTORE PUSH1 0x5 DUP4 ADD SLOAD PUSH1 0xC0 DUP4 ADD MSTORE PUSH1 0x6 SWAP1 SWAP3 ADD SLOAD PUSH1 0xE0 DUP3 ADD MSTORE SWAP3 POP PUSH1 0x28 SWAP1 PUSH2 0xA7D SWAP1 DUP6 PUSH2 0x3C65 JUMP JUMPDEST GT ISZERO PUSH2 0xAA0 JUMPI PUSH2 0xA8D DUP3 DUP6 PUSH2 0x1AFA JUMP JUMPDEST ISZERO PUSH2 0xAA0 JUMPI DUP6 PUSH2 0xA9C DUP2 PUSH2 0x3C78 JUMP JUMPDEST SWAP7 POP POP JUMPDEST DUP1 PUSH2 0xAAA DUP2 PUSH2 0x3C92 JUMP JUMPDEST SWAP2 POP POP PUSH2 0x9C3 JUMP JUMPDEST PUSH2 0xABD DUP4 DUP4 DUP4 PUSH2 0x1252 JUMP JUMPDEST POP POP POP JUMP JUMPDEST PUSH1 0x0 DUP2 GT PUSH2 0xAE3 JUMPI PUSH1 0x40 MLOAD PUSH4 0x42257CED PUSH1 0xE1 SHL DUP2 MSTORE PUSH1 0x4 ADD PUSH1 0x40 MLOAD DUP1 SWAP2 SUB SWAP1 REVERT JUMPDEST PUSH1 0x0 PUSH2 0xAEE DUP4 PUSH2 0x1CD9 JUMP JUMPDEST PUSH1 0xA DUP2 ADD SLOAD SWAP1 SWAP2 POP PUSH2 0xB0A SWAP1 PUSH1 0x1 PUSH1 0x1 PUSH1 0xA0 SHL SUB AND CALLER DUP5 PUSH2 0x1D51 JUMP JUMPDEST PUSH2 0xB27 JUMPI PUSH1 0x40 MLOAD PUSH4 0x79CACFF1 PUSH1 0xE0 SHL DUP2 MSTORE PUSH1 0x4 ADD PUSH1 0x40 MLOAD DUP1 SWAP2 SUB SWAP1 REVERT JUMPDEST PUSH1 0x1 PUSH1 0x1 PUSH1 0xA0 SHL SUB DUP4 AND PUSH1 0x0 SWAP1 DUP2 MSTORE PUSH1 0xA PUSH1 0x20 MSTORE PUSH1 0x40 DUP2 KECCAK256 DUP1 SLOAD DUP5 SWAP3 SWAP1 PUSH2 0xB4F SWAP1 DUP5 SWAP1 PUSH2 0x3CAD JUMP JUMPDEST SWAP1 SWAP2 SSTORE POP POP PUSH1 0x1 PUSH1 0x1 PUSH1 0xA0 SHL SUB DUP4 AND PUSH1 0x0 SWAP1 DUP2 MSTORE PUSH1 0x9 PUSH1 0x20 MSTORE PUSH1 0x40 DUP2 KECCAK256 DUP1 SLOAD DUP5 SWAP3 SWAP1 PUSH2 0xB7C SWAP1 DUP5 SWAP1 PUSH2 0x3CAD JUMP JUMPDEST SWAP1 SWAP2 SSTORE POP PUSH2 0xABD SWAP1 POP DUP2 PUSH1 0x0 DUP5 PUSH2 0x1DD3 JUMP JUMPDEST PUSH1 0x4 DUP2 DUP2 SLOAD DUP2 LT PUSH2 0xB9E JUMPI PUSH1 0x0 DUP1 REVERT JUMPDEST PUSH1 0x0 SWAP2 DUP3 MSTORE PUSH1 0x20 SWAP1 SWAP2 KECCAK256 PUSH1 0x7 SWAP1 SWAP2 MUL ADD DUP1 SLOAD PUSH1 0x1 DUP3 ADD SLOAD PUSH1 0x2 DUP4 ADD SLOAD PUSH1 0x3 DUP5 ADD SLOAD PUSH1 0x4 DUP6 ADD SLOAD PUSH1 0x5 DUP7 ADD SLOAD PUSH1 0x6 SWAP1 SWAP7 ADD SLOAD PUSH1 0x1 PUSH1 0x1 PUSH1 0xA0 SHL SUB SWAP6 DUP7 AND SWAP8 POP SWAP5 DUP5 AND SWAP6 PUSH1 0x1 PUSH1 0xA0 SHL SWAP1 SWAP5 DIV PUSH1 0xFF AND SWAP5 SWAP3 SWAP4 SWAP2 SWAP3 SWAP1 SWAP2 SWAP1 DUP9 JUMP JUMPDEST PUSH1 0x0 PUSH2 0xC01 DUP4 PUSH2 0x183D JUMP JUMPDEST PUSH1 0x80 DUP2 ADD MLOAD PUSH1 0x1 PUSH1 0x1 PUSH1 0xA0 SHL SUB AND PUSH1 0x0 SWAP1 DUP2 MSTORE PUSH1 0x6 PUSH1 0x20 MSTORE PUSH1 0x40 DUP2 KECCAK256 SWAP2 SWAP3 POP DUP1 DUP1 DUP6 PUSH2 0xC45 JUMPI PUSH1 0x1 PUSH1 0x1 PUSH1 0xA0 SHL SUB DUP8 AND PUSH1 0x0 SWAP1 DUP2 MSTORE PUSH1 0x8 PUSH1 0x20 MSTORE PUSH1 0x40 SWAP1 KECCAK256 SLOAD PUSH2 0xC5F JUMP JUMPDEST PUSH1 0x1 PUSH1 0x1 PUSH1 0xA0 SHL SUB DUP8 AND PUSH1 0x0 SWAP1 DUP2 MSTORE PUSH1 0x9 PUSH1 0x20 MSTORE PUSH1 0x40 SWAP1 KECCAK256 SLOAD JUMPDEST DUP5 SLOAD SWAP1 SWAP2 POP JUMPDEST PUSH1 0x0 DUP3 GT DUP1 ISZERO PUSH2 0xC75 JUMPI POP PUSH1 0x0 DUP2 GT JUMPDEST ISZERO PUSH2 0xD41 JUMPI PUSH1 0x0 DUP6 DUP3 DUP2 SLOAD DUP2 LT PUSH2 0xC8E JUMPI PUSH2 0xC8E PUSH2 0x3C0D JUMP JUMPDEST SWAP1 PUSH1 0x0 MSTORE PUSH1 0x20 PUSH1 0x0 KECCAK256 ADD SLOAD SWAP1 POP PUSH1 0x3 DUP2 DUP2 SLOAD DUP2 LT PUSH2 0xCAE JUMPI PUSH2 0xCAE PUSH2 0x3C0D JUMP JUMPDEST SWAP1 PUSH1 0x0 MSTORE PUSH1 0x20 PUSH1 0x0 KECCAK256 SWAP1 PUSH1 0x7 MUL ADD SWAP5 POP DUP8 ISZERO ISZERO DUP6 PUSH1 0x1 ADD PUSH1 0x14 SWAP1 SLOAD SWAP1 PUSH2 0x100 EXP SWAP1 DIV PUSH1 0xFF AND ISZERO ISZERO EQ PUSH2 0xCE0 JUMPI POP PUSH2 0xD2F JUMP JUMPDEST DUP8 ISZERO PUSH2 0xCFC JUMPI PUSH2 0xCF2 DUP8 DUP7 DUP5 DUP7 PUSH2 0x2482 JUMP JUMPDEST SWAP1 SWAP5 POP SWAP3 POP PUSH2 0xD0D JUMP JUMPDEST PUSH2 0xD07 DUP6 DUP5 DUP5 PUSH2 0x2585 JUMP JUMPDEST SWAP1 SWAP5 POP SWAP3 POP JUMPDEST DUP4 PUSH2 0xD18 JUMPI POP PUSH2 0xD2F JUMP JUMPDEST PUSH2 0xD22 DUP7 DUP4 PUSH2 0x1C58 JUMP JUMPDEST PUSH2 0xD2D PUSH1 0x3 DUP3 PUSH2 0x2681 JUMP JUMPDEST POP JUMPDEST DUP1 PUSH2 0xD39 DUP2 PUSH2 0x3C92 JUMP JUMPDEST SWAP2 POP POP PUSH2 0xC65 JUMP JUMPDEST POP DUP6 ISZERO PUSH2 0xD6C JUMPI PUSH1 0x80 DUP6 ADD MLOAD PUSH1 0x1 PUSH1 0x1 PUSH1 0xA0 SHL SUB AND PUSH1 0x0 SWAP1 DUP2 MSTORE PUSH1 0x9 PUSH1 0x20 MSTORE PUSH1 0x40 SWAP1 KECCAK256 DUP2 SWAP1 SSTORE PUSH2 0xD8C JUMP JUMPDEST PUSH1 0x80 DUP6 ADD MLOAD PUSH1 0x1 PUSH1 0x1 PUSH1 0xA0 SHL SUB AND PUSH1 0x0 SWAP1 DUP2 MSTORE PUSH1 0x8 PUSH1 0x20 MSTORE PUSH1 0x40 SWAP1 KECCAK256 DUP2 SWAP1 SSTORE JUMPDEST POP POP POP POP POP POP POP JUMP JUMPDEST CALLVALUE DUP1 PUSH2 0xDB4 JUMPI PUSH1 0x40 MLOAD PUSH4 0x42257CED PUSH1 0xE1 SHL DUP2 MSTORE PUSH1 0x4 ADD PUSH1 0x40 MLOAD DUP1 SWAP2 SUB SWAP1 REVERT JUMPDEST PUSH1 0x0 PUSH2 0xDBF DUP4 PUSH2 0x1CD9 JUMP JUMPDEST PUSH1 0x1 PUSH1 0x1 PUSH1 0xA0 SHL SUB DUP5 AND PUSH1 0x0 SWAP1 DUP2 MSTORE PUSH1 0x8 PUSH1 0x20 MSTORE PUSH1 0x40 DUP2 KECCAK256 DUP1 SLOAD SWAP3 SWAP4 POP DUP5 SWAP3 SWAP1 SWAP2 SWAP1 PUSH2 0xDEC SWAP1 DUP5 SWAP1 PUSH2 0x3CAD JUMP JUMPDEST SWAP1 SWAP2 SSTORE POP PUSH2 0xABD SWAP1 POP DUP2 PUSH1 0x1 DUP5 PUSH2 0x1DD3 JUMP JUMPDEST PUSH1 0x0 PUSH2 0xE09 DUP4 PUSH2 0x183D JUMP JUMPDEST SWAP1 POP PUSH1 0x0 DUP1 PUSH1 0x0 PUSH2 0xE1A DUP7 DUP7 PUSH2 0x13B4 JUMP JUMPDEST SWAP3 POP SWAP1 POP DUP1 PUSH2 0xE3C JUMPI PUSH1 0x40 MLOAD PUSH4 0x2050D62B PUSH1 0xE0 SHL DUP2 MSTORE PUSH1 0x4 ADD PUSH1 0x40 MLOAD DUP1 SWAP2 SUB SWAP1 REVERT JUMPDEST PUSH2 0xE4C DUP5 PUSH2 0x160 ADD MLOAD DUP8 DUP8 PUSH2 0x1D51 JUMP JUMPDEST PUSH2 0xE69 JUMPI PUSH1 0x40 MLOAD PUSH4 0x79CACFF1 PUSH1 0xE0 SHL DUP2 MSTORE PUSH1 0x4 ADD PUSH1 0x40 MLOAD DUP1 SWAP2 SUB SWAP1 REVERT JUMPDEST PUSH1 0x3 DUP3 DUP2 SLOAD DUP2 LT PUSH2 0xE7C JUMPI PUSH2 0xE7C PUSH2 0x3C0D JUMP JUMPDEST SWAP1 PUSH1 0x0 MSTORE PUSH1 0x20 PUSH1 0x0 KECCAK256 SWAP1 PUSH1 0x7 MUL ADD SWAP3 POP PUSH2 0xE9A DUP4 PUSH1 0x1 DUP5 DUP9 DUP11 PUSH2 0x14FB JUMP JUMPDEST POP POP POP POP POP POP JUMP JUMPDEST PUSH2 0xEAA PUSH2 0x1751 JUMP JUMPDEST PUSH1 0x0 DUP1 SLOAD PUSH1 0x1 PUSH1 0x1 PUSH1 0xA0 SHL SUB DUP4 DUP2 AND PUSH1 0x1 PUSH1 0x1 PUSH1 0xA0 SHL SUB NOT DUP4 AND DUP2 OR SWAP1 SWAP4 SSTORE PUSH1 0x40 MLOAD SWAP2 AND SWAP2 PUSH32 0x850B3DF64837D7D518B45F5AA64D104652C3B80EB5B34A8E3D9EB666CB7CDEA5 SWAP2 PUSH2 0xEFC SWAP2 DUP5 SWAP2 PUSH2 0x3CC0 JUMP JUMPDEST PUSH1 0x40 MLOAD DUP1 SWAP2 SUB SWAP1 LOG1 POP POP JUMP JUMPDEST PUSH1 0x1 PUSH1 0x1 PUSH1 0xA0 SHL SUB DUP2 AND PUSH1 0x0 SWAP1 DUP2 MSTORE PUSH1 0x8 PUSH1 0x20 MSTORE PUSH1 0x40 DUP2 KECCAK256 DUP1 SLOAD CALLVALUE SWAP3 SWAP1 PUSH2 0xF30 SWAP1 DUP5 SWAP1 PUSH2 0x3CAD JUMP JUMPDEST SWAP1 SWAP2 SSTORE POP POP POP JUMP JUMPDEST PUSH2 0xF40 PUSH2 0x354D JUMP JUMPDEST DUP2 ISZERO DUP1 PUSH2 0xF4E JUMPI POP PUSH1 0x2 SLOAD DUP3 GT JUMPDEST ISZERO PUSH2 0xF6C JUMPI PUSH1 0x40 MLOAD PUSH4 0x62F850F7 PUSH1 0xE1 SHL DUP2 MSTORE PUSH1 0x4 ADD PUSH1 0x40 MLOAD DUP1 SWAP2 SUB SWAP1 REVERT JUMPDEST PUSH1 0x0 PUSH1 0x2 PUSH2 0xF7B PUSH1 0x1 DUP6 PUSH2 0x3C65 JUMP JUMPDEST DUP2 SLOAD DUP2 LT PUSH2 0xF8B JUMPI PUSH2 0xF8B PUSH2 0x3C0D JUMP JUMPDEST SWAP1 PUSH1 0x0 MSTORE PUSH1 0x20 PUSH1 0x0 KECCAK256 SWAP1 PUSH1 0xB MUL ADD PUSH1 0x40 MLOAD DUP1 PUSH2 0x180 ADD PUSH1 0x40 MSTORE SWAP1 DUP2 PUSH1 0x0 DUP3 ADD DUP1 SLOAD PUSH2 0xFB5 SWAP1 PUSH2 0x3CF1 JUMP JUMPDEST DUP1 PUSH1 0x1F ADD PUSH1 0x20 DUP1 SWAP2 DIV MUL PUSH1 0x20 ADD PUSH1 0x40 MLOAD SWAP1 DUP2 ADD PUSH1 0x40 MSTORE DUP1 SWAP3 SWAP2 SWAP1 DUP2 DUP2 MSTORE PUSH1 0x20 ADD DUP3 DUP1 SLOAD PUSH2 0xFE1 SWAP1 PUSH2 0x3CF1 JUMP JUMPDEST DUP1 ISZERO PUSH2 0x102E JUMPI DUP1 PUSH1 0x1F LT PUSH2 0x1003 JUMPI PUSH2 0x100 DUP1 DUP4 SLOAD DIV MUL DUP4 MSTORE SWAP2 PUSH1 0x20 ADD SWAP2 PUSH2 0x102E JUMP JUMPDEST DUP3 ADD SWAP2 SWAP1 PUSH1 0x0 MSTORE PUSH1 0x20 PUSH1 0x0 KECCAK256 SWAP1 JUMPDEST DUP2 SLOAD DUP2 MSTORE SWAP1 PUSH1 0x1 ADD SWAP1 PUSH1 0x20 ADD DUP1 DUP4 GT PUSH2 0x1011 JUMPI DUP3 SWAP1 SUB PUSH1 0x1F AND DUP3 ADD SWAP2 JUMPDEST POP POP POP POP POP DUP2 MSTORE PUSH1 0x20 ADD PUSH1 0x1 DUP3 ADD DUP1 SLOAD PUSH2 0x1047 SWAP1 PUSH2 0x3CF1 JUMP JUMPDEST DUP1 PUSH1 0x1F ADD PUSH1 0x20 DUP1 SWAP2 DIV MUL PUSH1 0x20 ADD PUSH1 0x40 MLOAD SWAP1 DUP2 ADD PUSH1 0x40 MSTORE DUP1 SWAP3 SWAP2 SWAP1 DUP2 DUP2 MSTORE PUSH1 0x20 ADD DUP3 DUP1 SLOAD PUSH2 0x1073 SWAP1 PUSH2 0x3CF1 JUMP JUMPDEST DUP1 ISZERO PUSH2 0x10C0 JUMPI DUP1 PUSH1 0x1F LT PUSH2 0x1095 JUMPI PUSH2 0x100 DUP1 DUP4 SLOAD DIV MUL DUP4 MSTORE SWAP2 PUSH1 0x20 ADD SWAP2 PUSH2 0x10C0 JUMP JUMPDEST DUP3 ADD SWAP2 SWAP1 PUSH1 0x0 MSTORE PUSH1 0x20 PUSH1 0x0 KECCAK256 SWAP1 JUMPDEST DUP2 SLOAD DUP2 MSTORE SWAP1 PUSH1 0x1 ADD SWAP1 PUSH1 0x20 ADD DUP1 DUP4 GT PUSH2 0x10A3 JUMPI DUP3 SWAP1 SUB PUSH1 0x1F AND DUP3 ADD SWAP2 JUMPDEST POP POP POP SWAP2 DUP4 MSTORE POP POP PUSH1 0x2 DUP3 ADD SLOAD PUSH1 0xFF SWAP1 DUP2 AND PUSH1 0x20 DUP4 ADD MSTORE PUSH1 0x3 DUP4 ADD SLOAD PUSH1 0x40 DUP4 ADD MSTORE PUSH1 0x4 DUP4 ADD SLOAD PUSH1 0x1 PUSH1 0x1 PUSH1 0xA0 SHL SUB SWAP1 DUP2 AND PUSH1 0x60 DUP5 ADD MSTORE PUSH1 0x5 DUP5 ADD SLOAD SWAP1 DUP2 AND PUSH1 0x80 DUP5 ADD MSTORE PUSH1 0xA0 SWAP1 SWAP3 ADD SWAP2 PUSH1 0x1 PUSH1 0xA0 SHL SWAP1 DIV AND PUSH1 0x1 DUP2 GT ISZERO PUSH2 0x1122 JUMPI PUSH2 0x1122 PUSH2 0x36DE JUMP JUMPDEST PUSH1 0x1 DUP2 GT ISZERO PUSH2 0x1133 JUMPI PUSH2 0x1133 PUSH2 0x36DE JUMP JUMPDEST DUP2 MSTORE PUSH1 0x20 ADD PUSH1 0x6 DUP3 ADD SLOAD DUP2 MSTORE PUSH1 0x20 ADD PUSH1 0x7 DUP3 ADD SLOAD DUP2 MSTORE PUSH1 0x20 ADD PUSH1 0x8 DUP3 ADD SLOAD DUP2 MSTORE PUSH1 0x20 ADD PUSH1 0x9 DUP3 ADD SLOAD DUP2 MSTORE PUSH1 0x20 ADD PUSH1 0xA DUP3 ADD PUSH1 0x0 SWAP1 SLOAD SWAP1 PUSH2 0x100 EXP SWAP1 DIV PUSH1 0x1 PUSH1 0x1 PUSH1 0xA0 SHL SUB AND PUSH1 0x1 PUSH1 0x1 PUSH1 0xA0 SHL SUB AND PUSH1 0x1 PUSH1 0x1 PUSH1 0xA0 SHL SUB AND DUP2 MSTORE POP POP SWAP1 POP PUSH1 0x0 PUSH1 0x6 PUSH1 0x0 DUP4 PUSH1 0x80 ADD MLOAD PUSH1 0x1 PUSH1 0x1 PUSH1 0xA0 SHL SUB AND PUSH1 0x1 PUSH1 0x1 PUSH1 0xA0 SHL SUB AND DUP2 MSTORE PUSH1 0x20 ADD SWAP1 DUP2 MSTORE PUSH1 0x20 ADD PUSH1 0x0 KECCAK256 DUP1 SLOAD SWAP1 POP SWAP1 POP PUSH1 0x40 MLOAD DUP1 PUSH2 0x140 ADD PUSH1 0x40 MSTORE DUP1 DUP6 DUP2 MSTORE PUSH1 0x20 ADD DUP4 PUSH1 0x0 ADD MLOAD DUP2 MSTORE PUSH1 0x20 ADD DUP4 PUSH1 0x20 ADD MLOAD DUP2 MSTORE PUSH1 0x20 ADD DUP4 PUSH1 0x80 ADD MLOAD PUSH1 0x1 PUSH1 0x1 PUSH1 0xA0 SHL SUB AND DUP2 MSTORE PUSH1 0x20 ADD DUP4 PUSH1 0xA0 ADD MLOAD PUSH1 0x1 PUSH1 0x1 PUSH1 0xA0 SHL SUB AND DUP2 MSTORE PUSH1 0x20 ADD DUP4 PUSH1 0xE0 ADD MLOAD DUP2 MSTORE PUSH1 0x20 ADD DUP4 PUSH2 0x100 ADD MLOAD DUP2 MSTORE PUSH1 0x20 ADD DUP4 PUSH1 0xC0 ADD MLOAD PUSH1 0x1 DUP2 GT ISZERO PUSH2 0x1238 JUMPI PUSH2 0x1238 PUSH2 0x36DE JUMP JUMPDEST DUP2 MSTORE PUSH2 0x120 SWAP1 SWAP4 ADD MLOAD PUSH1 0x20 DUP5 ADD MSTORE PUSH1 0x40 SWAP1 SWAP3 ADD MSTORE SWAP3 SWAP2 POP POP JUMP JUMPDEST PUSH1 0x0 PUSH2 0x125D DUP5 PUSH2 0x183D JUMP JUMPDEST SWAP1 POP PUSH2 0x126F DUP2 PUSH2 0x160 ADD MLOAD DUP5 DUP5 PUSH2 0x1D51 JUMP JUMPDEST PUSH2 0x128C JUMPI PUSH1 0x40 MLOAD PUSH4 0x79CACFF1 PUSH1 0xE0 SHL DUP2 MSTORE PUSH1 0x4 ADD PUSH1 0x40 MLOAD DUP1 SWAP2 SUB SWAP1 REVERT JUMPDEST PUSH1 0x1 PUSH1 0x1 PUSH1 0xA0 SHL SUB DUP5 AND PUSH1 0x0 SWAP1 DUP2 MSTORE PUSH1 0x9 PUSH1 0x20 MSTORE PUSH1 0x40 DUP2 KECCAK256 DUP1 SLOAD DUP5 SWAP3 SWAP1 PUSH2 0x12B4 SWAP1 DUP5 SWAP1 PUSH2 0x3CAD JUMP JUMPDEST SWAP1 SWAP2 SSTORE POP POP POP POP POP POP JUMP JUMPDEST PUSH1 0x2 SLOAD PUSH1 0x0 SUB PUSH2 0x12F4 JUMPI PUSH1 0x0 SLOAD PUSH1 0x1 PUSH1 0x1 PUSH1 0xA0 SHL SUB AND CALLER EQ PUSH2 0x12F4 JUMPI PUSH1 0x40 MLOAD PUSH4 0x564B3529 PUSH1 0xE1 SHL DUP2 MSTORE PUSH1 0x4 ADD PUSH1 0x40 MLOAD DUP1 SWAP2 SUB SWAP1 REVERT JUMPDEST PUSH1 0x1 PUSH1 0x1 PUSH1 0xA0 SHL SUB DUP7 AND PUSH1 0x0 SWAP1 DUP2 MSTORE PUSH1 0x5 PUSH1 0x20 MSTORE PUSH1 0x40 SWAP1 KECCAK256 SLOAD DUP7 SWAP1 DUP1 ISZERO DUP1 ISZERO SWAP1 PUSH2 0x131F JUMPI POP PUSH1 0x2 SLOAD ISZERO ISZERO JUMPDEST ISZERO PUSH2 0x1348 JUMPI DUP2 PUSH1 0x40 MLOAD PUSH4 0x15EF3A57 PUSH1 0xE0 SHL DUP2 MSTORE PUSH1 0x4 ADD PUSH2 0x133F SWAP2 SWAP1 PUSH2 0x3B38 JUMP JUMPDEST PUSH1 0x40 MLOAD DUP1 SWAP2 SUB SWAP1 REVERT JUMPDEST PUSH1 0x2 SLOAD PUSH3 0xF4240 GT PUSH2 0x136D JUMPI PUSH1 0x40 MLOAD PUSH4 0x53BB24F9 PUSH1 0xE0 SHL DUP2 MSTORE PUSH1 0x4 ADD PUSH1 0x40 MLOAD DUP1 SWAP2 SUB SWAP1 REVERT JUMPDEST PUSH1 0x0 DUP1 DUP9 PUSH1 0x1 DUP2 GT ISZERO PUSH2 0x1382 JUMPI PUSH2 0x1382 PUSH2 0x36DE JUMP JUMPDEST SUB PUSH2 0x1393 JUMPI PUSH2 0x1390 DUP5 PUSH2 0x27D2 JUMP JUMPDEST SWAP1 POP JUMPDEST PUSH2 0x139B PUSH2 0x2809 JUMP JUMPDEST PUSH2 0x13A9 DUP4 DUP3 DUP11 DUP9 DUP12 DUP12 PUSH2 0x2ABB JUMP JUMPDEST POP POP POP POP POP POP POP POP POP JUMP JUMPDEST PUSH1 0x0 DUP1 PUSH2 0x13BF PUSH2 0x35C3 JUMP JUMPDEST PUSH1 0x1 PUSH1 0x1 PUSH1 0xA0 SHL SUB DUP6 AND PUSH1 0x0 SWAP1 DUP2 MSTORE PUSH1 0x6 PUSH1 0x20 MSTORE PUSH1 0x40 DUP2 KECCAK256 DUP1 SLOAD SWAP1 SWAP2 SWAP1 JUMPDEST PUSH1 0x0 DUP2 GT DUP1 ISZERO PUSH2 0x13EB JUMPI POP DUP2 ISZERO JUMPDEST ISZERO PUSH2 0x14EF JUMPI PUSH1 0x0 DUP4 DUP3 DUP2 SLOAD DUP2 LT PUSH2 0x1404 JUMPI PUSH2 0x1404 PUSH2 0x3C0D JUMP JUMPDEST SWAP1 PUSH1 0x0 MSTORE PUSH1 0x20 PUSH1 0x0 KECCAK256 ADD SLOAD SWAP1 POP PUSH1 0x3 DUP2 DUP2 SLOAD DUP2 LT PUSH2 0x1424 JUMPI PUSH2 0x1424 PUSH2 0x3C0D JUMP JUMPDEST PUSH1 0x0 SWAP2 DUP3 MSTORE PUSH1 0x20 SWAP2 DUP3 SWAP1 KECCAK256 PUSH1 0x40 DUP1 MLOAD PUSH2 0x100 DUP2 ADD DUP3 MSTORE PUSH1 0x7 SWAP4 SWAP1 SWAP4 MUL SWAP1 SWAP2 ADD DUP1 SLOAD PUSH1 0x1 PUSH1 0x1 PUSH1 0xA0 SHL SUB SWAP1 DUP2 AND DUP5 MSTORE PUSH1 0x1 DUP3 ADD SLOAD SWAP1 DUP2 AND SWAP5 DUP5 ADD SWAP5 SWAP1 SWAP5 MSTORE PUSH1 0x1 PUSH1 0xA0 SHL SWAP1 SWAP4 DIV PUSH1 0xFF AND ISZERO ISZERO SWAP1 DUP3 ADD MSTORE PUSH1 0x2 DUP3 ADD SLOAD PUSH1 0x60 DUP3 ADD MSTORE PUSH1 0x3 DUP3 ADD SLOAD PUSH1 0x80 DUP3 ADD MSTORE PUSH1 0x4 DUP3 ADD SLOAD PUSH1 0xA0 DUP3 ADD MSTORE PUSH1 0x5 DUP3 ADD SLOAD PUSH1 0xC0 DUP3 ADD MSTORE PUSH1 0x6 SWAP1 SWAP2 ADD SLOAD PUSH1 0xE0 DUP3 ADD DUP2 SWAP1 MSTORE SWAP1 SWAP6 POP DUP9 SWAP1 SUB PUSH2 0x14BD JUMPI PUSH1 0x1 SWAP3 POP DUP1 SWAP6 POP PUSH2 0x14DC JUMP JUMPDEST DUP3 ISZERO DUP1 ISZERO PUSH2 0x14CF JUMPI POP DUP8 DUP6 PUSH1 0xE0 ADD MLOAD LT ISZERO JUMPDEST ISZERO PUSH2 0x14DC JUMPI PUSH1 0x1 SWAP3 POP DUP1 SWAP6 POP JUMPDEST POP DUP1 PUSH2 0x14E7 DUP2 PUSH2 0x3C92 JUMP JUMPDEST SWAP2 POP POP PUSH2 0x13DD JUMP JUMPDEST POP SWAP4 POP POP POP SWAP3 POP SWAP3 SWAP1 POP JUMP JUMPDEST PUSH1 0x0 PUSH2 0x1506 DUP3 PUSH2 0x183D JUMP JUMPDEST SWAP1 POP DUP3 DUP1 DUP7 PUSH2 0x1523 JUMPI PUSH2 0x1520 DUP6 DUP5 PUSH1 0x40 ADD MLOAD PUSH1 0xFF AND PUSH2 0x2F70 JUMP JUMPDEST SWAP2 POP JUMPDEST PUSH1 0x3 DUP7 DUP2 SLOAD DUP2 LT PUSH2 0x1536 JUMPI PUSH2 0x1536 PUSH2 0x3C0D JUMP JUMPDEST PUSH1 0x0 SWAP2 DUP3 MSTORE PUSH1 0x20 SWAP1 SWAP2 KECCAK256 PUSH1 0x7 SWAP1 SWAP2 MUL ADD PUSH1 0x4 DUP2 ADD SLOAD PUSH1 0x5 DUP3 ADD SLOAD DUP3 SLOAD SWAP3 SWAP11 POP SWAP1 SWAP2 DUP5 DUP3 EQ DUP1 ISZERO SWAP2 PUSH1 0x1 PUSH1 0x1 PUSH1 0xA0 SHL SUB AND SWAP1 PUSH2 0x158F JUMPI DUP11 ISZERO PUSH2 0x1582 JUMPI PUSH2 0x157B DUP7 DUP6 PUSH2 0x2F99 JUMP JUMPDEST SWAP3 POP PUSH2 0x158F JUMP JUMPDEST PUSH2 0x158C DUP7 DUP6 PUSH2 0x2FA5 JUMP JUMPDEST SWAP3 POP JUMPDEST PUSH1 0x40 DUP1 MLOAD PUSH2 0x100 DUP2 ADD DUP3 MSTORE DUP14 SLOAD PUSH1 0x1 PUSH1 0x1 PUSH1 0xA0 SHL SUB SWAP1 DUP2 AND DUP3 MSTORE PUSH1 0x1 DUP16 ADD SLOAD SWAP1 DUP2 AND PUSH1 0x20 DUP4 ADD MSTORE PUSH1 0x1 PUSH1 0xA0 SHL SWAP1 DIV PUSH1 0xFF AND ISZERO ISZERO SWAP2 DUP2 ADD SWAP2 SWAP1 SWAP2 MSTORE PUSH1 0x2 DUP14 ADD SLOAD PUSH1 0x60 DUP3 ADD MSTORE PUSH1 0x3 DUP14 ADD SLOAD PUSH1 0x80 DUP3 ADD MSTORE PUSH1 0x4 DUP14 ADD SLOAD PUSH1 0xA0 DUP3 ADD MSTORE PUSH1 0x5 DUP14 ADD SLOAD PUSH1 0xC0 DUP3 ADD MSTORE PUSH1 0x6 DUP14 ADD SLOAD PUSH1 0xE0 DUP3 ADD MSTORE PUSH2 0x1607 SWAP1 DUP9 DUP9 DUP7 PUSH2 0x2FB1 JUMP JUMPDEST PUSH1 0x0 DUP12 PUSH2 0x1614 JUMPI DUP4 PUSH2 0x1616 JUMP JUMPDEST DUP7 JUMPDEST SWAP1 POP DUP3 ISZERO PUSH2 0x1658 JUMPI DUP7 DUP14 PUSH1 0x6 ADD PUSH1 0x0 DUP3 DUP3 SLOAD PUSH2 0x1632 SWAP2 SWAP1 PUSH2 0x3C65 JUMP JUMPDEST SWAP3 POP POP DUP2 SWAP1 SSTORE POP DUP4 DUP14 PUSH1 0x5 ADD PUSH1 0x0 DUP3 DUP3 SLOAD PUSH2 0x164D SWAP2 SWAP1 PUSH2 0x3C65 JUMP JUMPDEST SWAP1 SWAP2 SSTORE POP PUSH2 0x1663 SWAP1 POP JUMP JUMPDEST PUSH2 0x1663 PUSH1 0x3 DUP13 PUSH2 0x2681 JUMP JUMPDEST PUSH1 0xE0 DUP9 ADD MLOAD PUSH1 0x0 DUP2 ISZERO DUP1 ISZERO SWAP1 PUSH2 0x167E JUMPI POP DUP10 PUSH2 0x100 ADD MLOAD DUP4 LT ISZERO JUMPDEST SWAP1 POP DUP1 ISZERO PUSH2 0x16F9 JUMPI PUSH1 0x80 DUP11 ADD DUP1 MLOAD PUSH1 0x1 PUSH1 0x1 PUSH1 0xA0 SHL SUB SWAP1 DUP2 AND PUSH1 0x0 SWAP1 DUP2 MSTORE PUSH1 0xA PUSH1 0x20 SWAP1 DUP2 MSTORE PUSH1 0x40 DUP1 DUP4 KECCAK256 SLOAD SWAP5 MLOAD SWAP1 SWAP4 AND DUP3 MSTORE PUSH1 0x9 SWAP1 MSTORE SWAP1 DUP2 KECCAK256 SLOAD SWAP1 PUSH2 0x16C3 DUP4 DUP4 PUSH2 0x3C65 JUMP JUMPDEST SWAP1 POP DUP5 DUP2 GT ISZERO PUSH2 0x16F5 JUMPI PUSH2 0x16D8 DUP14 CALLER DUP8 PUSH2 0x30F1 JUMP JUMPDEST PUSH2 0x16F5 JUMPI PUSH1 0x40 MLOAD PUSH4 0xC96D18B5 PUSH1 0xE0 SHL DUP2 MSTORE PUSH1 0x4 ADD PUSH1 0x40 MLOAD DUP1 SWAP2 SUB SWAP1 REVERT JUMPDEST POP POP POP JUMPDEST PUSH32 0xD18715C1E0D5B06959A9B12A3C5D857CE3698A58F6AC5BC7726BD7DF86476F40 DUP14 DUP16 DUP7 CALLER DUP15 PUSH1 0x80 ADD MLOAD DUP14 DUP12 PUSH1 0x40 MLOAD PUSH2 0x1738 SWAP8 SWAP7 SWAP6 SWAP5 SWAP4 SWAP3 SWAP2 SWAP1 PUSH2 0x3D5F JUMP JUMPDEST PUSH1 0x40 MLOAD DUP1 SWAP2 SUB SWAP1 LOG1 POP POP POP POP POP POP POP POP POP POP POP POP POP POP POP JUMP JUMPDEST PUSH1 0x0 SLOAD PUSH1 0x1 PUSH1 0x1 PUSH1 0xA0 SHL SUB AND CALLER EQ PUSH2 0x177E JUMPI CALLER PUSH1 0x40 MLOAD PUSH4 0x32B2BAA3 PUSH1 0xE0 SHL DUP2 MSTORE PUSH1 0x4 ADD PUSH2 0x133F SWAP2 SWAP1 PUSH2 0x3B38 JUMP JUMPDEST JUMP JUMPDEST PUSH1 0xC SLOAD ISZERO DUP1 ISZERO SWAP1 PUSH2 0x179E JUMPI POP PUSH1 0xF0 PUSH1 0xC SLOAD TIMESTAMP PUSH2 0x179C SWAP2 SWAP1 PUSH2 0x3C65 JUMP JUMPDEST LT JUMPDEST ISZERO PUSH2 0x17A5 JUMPI JUMP JUMPDEST PUSH1 0xD SLOAD PUSH1 0x40 DUP1 MLOAD PUSH4 0x4C6AFEE5 PUSH1 0xE1 SHL DUP2 MSTORE SWAP1 MLOAD PUSH1 0x0 SWAP3 PUSH1 0x1 PUSH1 0x1 PUSH1 0xA0 SHL SUB AND SWAP2 PUSH4 0x98D5FDCA SWAP2 PUSH1 0x4 DUP1 DUP4 ADD SWAP3 DUP7 SWAP3 SWAP2 SWAP1 DUP3 SWAP1 SUB ADD DUP2 DUP7 GAS STATICCALL ISZERO DUP1 ISZERO PUSH2 0x17EE JUMPI RETURNDATASIZE PUSH1 0x0 DUP1 RETURNDATACOPY RETURNDATASIZE PUSH1 0x0 REVERT JUMPDEST POP POP POP POP PUSH1 0x40 MLOAD RETURNDATASIZE PUSH1 0x0 DUP3 RETURNDATACOPY PUSH1 0x1F RETURNDATASIZE SWAP1 DUP2 ADD PUSH1 0x1F NOT AND DUP3 ADD PUSH1 0x40 MSTORE PUSH2 0x1816 SWAP2 SWAP1 DUP2 ADD SWAP1 PUSH2 0x3E1F JUMP JUMPDEST SWAP1 POP PUSH1 0x0 DUP1 PUSH2 0x1824 DUP4 PUSH2 0x31BA JUMP JUMPDEST SWAP2 POP SWAP2 POP DUP1 ISZERO PUSH2 0x1834 JUMPI PUSH1 0xB DUP3 SWAP1 SSTORE JUMPDEST POP POP TIMESTAMP PUSH1 0xC SSTORE POP JUMP JUMPDEST PUSH2 0x18AA PUSH1 0x40 DUP1 MLOAD PUSH2 0x180 DUP2 ADD DUP3 MSTORE PUSH1 0x60 DUP1 DUP3 MSTORE PUSH1 0x20 DUP3 ADD DUP2 SWAP1 MSTORE PUSH1 0x0 SWAP3 DUP3 ADD DUP4 SWAP1 MSTORE DUP2 ADD DUP3 SWAP1 MSTORE PUSH1 0x80 DUP2 ADD DUP3 SWAP1 MSTORE PUSH1 0xA0 DUP2 ADD DUP3 SWAP1 MSTORE SWAP1 PUSH1 0xC0 DUP3 ADD SWAP1 DUP2 MSTORE PUSH1 0x20 ADD PUSH1 0x0 DUP2 MSTORE PUSH1 0x20 ADD PUSH1 0x0 DUP2 MSTORE PUSH1 0x20 ADD PUSH1 0x0 DUP2 MSTORE PUSH1 0x20 ADD PUSH1 0x0 DUP2 MSTORE PUSH1 0x20 ADD PUSH1 0x0 PUSH1 0x1 PUSH1 0x1 PUSH1 0xA0 SHL SUB AND DUP2 MSTORE POP SWAP1 JUMP JUMPDEST PUSH1 0x1 PUSH1 0x1 PUSH1 0xA0 SHL SUB DUP3 AND PUSH1 0x0 SWAP1 DUP2 MSTORE PUSH1 0x5 PUSH1 0x20 MSTORE PUSH1 0x40 SWAP1 KECCAK256 SLOAD DUP1 ISZERO DUP1 PUSH2 0x18D1 JUMPI POP PUSH1 0x2 SLOAD DUP2 GT JUMPDEST ISZERO PUSH2 0x18EF JUMPI PUSH1 0x40 MLOAD PUSH4 0x62F850F7 PUSH1 0xE1 SHL DUP2 MSTORE PUSH1 0x4 ADD PUSH1 0x40 MLOAD DUP1 SWAP2 SUB SWAP1 REVERT JUMPDEST PUSH1 0x2 PUSH2 0x18FC PUSH1 0x1 DUP4 PUSH2 0x3C65 JUMP JUMPDEST DUP2 SLOAD DUP2 LT PUSH2 0x190C JUMPI PUSH2 0x190C PUSH2 0x3C0D JUMP JUMPDEST SWAP1 PUSH1 0x0 MSTORE PUSH1 0x20 PUSH1 0x0 KECCAK256 SWAP1 PUSH1 0xB MUL ADD PUSH1 0x40 MLOAD DUP1 PUSH2 0x180 ADD PUSH1 0x40 MSTORE SWAP1 DUP2 PUSH1 0x0 DUP3 ADD DUP1 SLOAD PUSH2 0x1936 SWAP1 PUSH2 0x3CF1 JUMP JUMPDEST DUP1 PUSH1 0x1F ADD PUSH1 0x20 DUP1 SWAP2 DIV MUL PUSH1 0x20 ADD PUSH1 0x40 MLOAD SWAP1 DUP2 ADD PUSH1 0x40 MSTORE DUP1 SWAP3 SWAP2 SWAP1 DUP2 DUP2 MSTORE PUSH1 0x20 ADD DUP3 DUP1 SLOAD PUSH2 0x1962 SWAP1 PUSH2 0x3CF1 JUMP JUMPDEST DUP1 ISZERO PUSH2 0x19AF JUMPI DUP1 PUSH1 0x1F LT PUSH2 0x1984 JUMPI PUSH2 0x100 DUP1 DUP4 SLOAD DIV MUL DUP4 MSTORE SWAP2 PUSH1 0x20 ADD SWAP2 PUSH2 0x19AF JUMP JUMPDEST DUP3 ADD SWAP2 SWAP1 PUSH1 0x0 MSTORE PUSH1 0x20 PUSH1 0x0 KECCAK256 SWAP1 JUMPDEST DUP2 SLOAD DUP2 MSTORE SWAP1 PUSH1 0x1 ADD SWAP1 PUSH1 0x20 ADD DUP1 DUP4 GT PUSH2 0x1992 JUMPI DUP3 SWAP1 SUB PUSH1 0x1F AND DUP3 ADD SWAP2 JUMPDEST POP POP POP POP POP DUP2 MSTORE PUSH1 0x20 ADD PUSH1 0x1 DUP3 ADD DUP1 SLOAD PUSH2 0x19C8 SWAP1 PUSH2 0x3CF1 JUMP JUMPDEST DUP1 PUSH1 0x1F ADD PUSH1 0x20 DUP1 SWAP2 DIV MUL PUSH1 0x20 ADD PUSH1 0x40 MLOAD SWAP1 DUP2 ADD PUSH1 0x40 MSTORE DUP1 SWAP3 SWAP2 SWAP1 DUP2 DUP2 MSTORE PUSH1 0x20 ADD DUP3 DUP1 SLOAD PUSH2 0x19F4 SWAP1 PUSH2 0x3CF1 JUMP JUMPDEST DUP1 ISZERO PUSH2 0x1A41 JUMPI DUP1 PUSH1 0x1F LT PUSH2 0x1A16 JUMPI PUSH2 0x100 DUP1 DUP4 SLOAD DIV MUL DUP4 MSTORE SWAP2 PUSH1 0x20 ADD SWAP2 PUSH2 0x1A41 JUMP JUMPDEST DUP3 ADD SWAP2 SWAP1 PUSH1 0x0 MSTORE PUSH1 0x20 PUSH1 0x0 KECCAK256 SWAP1 JUMPDEST DUP2 SLOAD DUP2 MSTORE SWAP1 PUSH1 0x1 ADD SWAP1 PUSH1 0x20 ADD DUP1 DUP4 GT PUSH2 0x1A24 JUMPI DUP3 SWAP1 SUB PUSH1 0x1F AND DUP3 ADD SWAP2 JUMPDEST POP POP POP SWAP2 DUP4 MSTORE POP POP PUSH1 0x2 DUP3 ADD SLOAD PUSH1 0xFF SWAP1 DUP2 AND PUSH1 0x20 DUP4 ADD MSTORE PUSH1 0x3 DUP4 ADD SLOAD PUSH1 0x40 DUP4 ADD MSTORE PUSH1 0x4 DUP4 ADD SLOAD PUSH1 0x1 PUSH1 0x1 PUSH1 0xA0 SHL SUB SWAP1 DUP2 AND PUSH1 0x60 DUP5 ADD MSTORE PUSH1 0x5 DUP5 ADD SLOAD SWAP1 DUP2 AND PUSH1 0x80 DUP5 ADD MSTORE PUSH1 0xA0 SWAP1 SWAP3 ADD SWAP2 PUSH1 0x1 PUSH1 0xA0 SHL SWAP1 DIV AND PUSH1 0x1 DUP2 GT ISZERO PUSH2 0x1AA3 JUMPI PUSH2 0x1AA3 PUSH2 0x36DE JUMP JUMPDEST PUSH1 0x1 DUP2 GT ISZERO PUSH2 0x1AB4 JUMPI PUSH2 0x1AB4 PUSH2 0x36DE JUMP JUMPDEST DUP2 MSTORE PUSH1 0x6 DUP3 ADD SLOAD PUSH1 0x20 DUP3 ADD MSTORE PUSH1 0x7 DUP3 ADD SLOAD PUSH1 0x40 DUP3 ADD MSTORE PUSH1 0x8 DUP3 ADD SLOAD PUSH1 0x60 DUP3 ADD MSTORE PUSH1 0x9 DUP3 ADD SLOAD PUSH1 0x80 DUP3 ADD MSTORE PUSH1 0xA SWAP1 SWAP2 ADD SLOAD PUSH1 0x1 PUSH1 0x1 PUSH1 0xA0 SHL SUB AND PUSH1 0xA0 SWAP1 SWAP2 ADD MSTORE SWAP4 SWAP3 POP POP POP JUMP JUMPDEST PUSH1 0x0 DUP1 PUSH2 0x1B0A DUP5 PUSH1 0x20 ADD MLOAD PUSH2 0x183D JUMP JUMPDEST SWAP1 POP DUP4 PUSH1 0x40 ADD MLOAD ISZERO PUSH2 0x1B72 JUMPI PUSH2 0x1B28 DUP5 PUSH1 0x0 ADD MLOAD DUP6 PUSH1 0xC0 ADD MLOAD PUSH2 0x32EC JUMP JUMPDEST PUSH2 0x1B36 JUMPI PUSH1 0x0 SWAP2 POP POP PUSH2 0x45C JUMP JUMPDEST PUSH1 0xC0 DUP5 ADD MLOAD PUSH1 0x80 DUP3 ADD MLOAD PUSH1 0x1 PUSH1 0x1 PUSH1 0xA0 SHL SUB AND PUSH1 0x0 SWAP1 DUP2 MSTORE PUSH1 0x8 PUSH1 0x20 MSTORE PUSH1 0x40 DUP2 KECCAK256 DUP1 SLOAD SWAP1 SWAP2 SWAP1 PUSH2 0x1B67 SWAP1 DUP5 SWAP1 PUSH2 0x3C65 JUMP JUMPDEST SWAP1 SWAP2 SSTORE POP PUSH2 0x1C00 SWAP1 POP JUMP JUMPDEST PUSH2 0x1B85 DUP2 DUP6 PUSH1 0x0 ADD MLOAD DUP7 PUSH1 0xC0 ADD MLOAD PUSH2 0x30F1 JUMP JUMPDEST PUSH2 0x1B93 JUMPI PUSH1 0x0 SWAP2 POP POP PUSH2 0x45C JUMP JUMPDEST PUSH1 0xC0 DUP5 ADD MLOAD PUSH1 0x80 DUP3 ADD MLOAD PUSH1 0x1 PUSH1 0x1 PUSH1 0xA0 SHL SUB AND PUSH1 0x0 SWAP1 DUP2 MSTORE PUSH1 0xA PUSH1 0x20 MSTORE PUSH1 0x40 DUP2 KECCAK256 DUP1 SLOAD SWAP1 SWAP2 SWAP1 PUSH2 0x1BC4 SWAP1 DUP5 SWAP1 PUSH2 0x3C65 JUMP JUMPDEST SWAP1 SWAP2 SSTORE POP POP PUSH1 0xC0 DUP5 ADD MLOAD PUSH1 0x80 DUP3 ADD MLOAD PUSH1 0x1 PUSH1 0x1 PUSH1 0xA0 SHL SUB AND PUSH1 0x0 SWAP1 DUP2 MSTORE PUSH1 0x9 PUSH1 0x20 MSTORE PUSH1 0x40 DUP2 KECCAK256 DUP1 SLOAD SWAP1 SWAP2 SWAP1 PUSH2 0x1BFA SWAP1 DUP5 SWAP1 PUSH2 0x3C65 JUMP JUMPDEST SWAP1 SWAP2 SSTORE POP POP JUMPDEST PUSH32 0x3D8DA260C5E35DCBA4A38C844B979A7C70C6FDBED58BE53DA6E817EF6A2541E0 DUP4 DUP6 PUSH1 0x40 ADD MLOAD DUP7 PUSH1 0x0 ADD MLOAD PUSH1 0x40 MLOAD PUSH2 0x1C3B SWAP4 SWAP3 SWAP2 SWAP1 PUSH2 0x3E5A JUMP JUMPDEST PUSH1 0x40 MLOAD DUP1 SWAP2 SUB SWAP1 LOG1 PUSH2 0x1C4E PUSH1 0x3 DUP5 PUSH2 0x2681 JUMP JUMPDEST POP PUSH1 0x1 SWAP4 SWAP3 POP POP POP JUMP JUMPDEST DUP2 SLOAD PUSH1 0x0 SWAP1 PUSH2 0x1C69 SWAP1 PUSH1 0x1 SWAP1 PUSH2 0x3C65 JUMP JUMPDEST SWAP1 POP DUP1 DUP3 EQ PUSH2 0x1CAE JUMPI DUP3 DUP2 DUP2 SLOAD DUP2 LT PUSH2 0x1C84 JUMPI PUSH2 0x1C84 PUSH2 0x3C0D JUMP JUMPDEST SWAP1 PUSH1 0x0 MSTORE PUSH1 0x20 PUSH1 0x0 KECCAK256 ADD SLOAD DUP4 DUP4 DUP2 SLOAD DUP2 LT PUSH2 0x1CA1 JUMPI PUSH2 0x1CA1 PUSH2 0x3C0D JUMP JUMPDEST PUSH1 0x0 SWAP2 DUP3 MSTORE PUSH1 0x20 SWAP1 SWAP2 KECCAK256 ADD SSTORE JUMPDEST DUP3 DUP1 SLOAD DUP1 PUSH2 0x1CBE JUMPI PUSH2 0x1CBE PUSH2 0x3E82 JUMP JUMPDEST PUSH1 0x1 SWAP1 SUB DUP2 DUP2 SWAP1 PUSH1 0x0 MSTORE PUSH1 0x20 PUSH1 0x0 KECCAK256 ADD PUSH1 0x0 SWAP1 SSTORE SWAP1 SSTORE POP POP POP JUMP JUMPDEST PUSH1 0x1 PUSH1 0x1 PUSH1 0xA0 SHL SUB DUP2 AND PUSH1 0x0 SWAP1 DUP2 MSTORE PUSH1 0x5 PUSH1 0x20 MSTORE PUSH1 0x40 DUP2 KECCAK256 SLOAD DUP1 ISZERO DUP1 PUSH2 0x1D00 JUMPI POP PUSH1 0x2 SLOAD DUP2 GT JUMPDEST ISZERO PUSH2 0x1D1E JUMPI PUSH1 0x40 MLOAD PUSH4 0x62F850F7 PUSH1 0xE1 SHL DUP2 MSTORE PUSH1 0x4 ADD PUSH1 0x40 MLOAD DUP1 SWAP2 SUB SWAP1 REVERT JUMPDEST PUSH1 0x2 PUSH2 0x1D2B PUSH1 0x1 DUP4 PUSH2 0x3C65 JUMP JUMPDEST DUP2 SLOAD DUP2 LT PUSH2 0x1D3B JUMPI PUSH2 0x1D3B PUSH2 0x3C0D JUMP JUMPDEST SWAP1 PUSH1 0x0 MSTORE PUSH1 0x20 PUSH1 0x0 KECCAK256 SWAP1 PUSH1 0xB MUL ADD SWAP2 POP POP SWAP2 SWAP1 POP JUMP JUMPDEST PUSH1 0x40 MLOAD PUSH4 0x23B872DD PUSH1 0xE0 SHL DUP2 MSTORE PUSH1 0x0 SWAP1 PUSH1 0x1 PUSH1 0x1 PUSH1 0xA0 SHL SUB DUP6 AND SWAP1 PUSH4 0x23B872DD SWAP1 PUSH2 0x1D84 SWAP1 DUP7 SWAP1 ADDRESS SWAP1 DUP8 SWAP1 PUSH1 0x4 ADD PUSH2 0x3E98 JUMP JUMPDEST PUSH1 0x20 PUSH1 0x40 MLOAD DUP1 DUP4 SUB DUP2 PUSH1 0x0 DUP8 GAS CALL SWAP3 POP POP POP DUP1 ISZERO PUSH2 0x1DBF JUMPI POP PUSH1 0x40 DUP1 MLOAD PUSH1 0x1F RETURNDATASIZE SWAP1 DUP2 ADD PUSH1 0x1F NOT AND DUP3 ADD SWAP1 SWAP3 MSTORE PUSH2 0x1DBC SWAP2 DUP2 ADD SWAP1 PUSH2 0x3ECB JUMP JUMPDEST PUSH1 0x1 JUMPDEST PUSH2 0x1DCB JUMPI POP PUSH1 0x0 PUSH2 0x615 JUMP JUMPDEST SWAP5 SWAP4 POP POP POP POP JUMP JUMPDEST PUSH1 0x0 DUP1 PUSH1 0x5 DUP6 ADD SLOAD PUSH1 0x1 PUSH1 0xA0 SHL SWAP1 DIV PUSH1 0xFF AND PUSH1 0x1 DUP2 GT ISZERO PUSH2 0x1DF6 JUMPI PUSH2 0x1DF6 PUSH2 0x36DE JUMP JUMPDEST SUB PUSH2 0x1E1A JUMPI PUSH2 0x1E03 PUSH2 0x1780 JUMP JUMPDEST PUSH2 0x1E13 PUSH1 0xB SLOAD DUP6 PUSH1 0x8 ADD SLOAD PUSH2 0x2FA5 JUMP JUMPDEST SWAP1 POP PUSH2 0x21C6 JUMP JUMPDEST PUSH1 0x1 PUSH1 0x5 DUP6 ADD SLOAD PUSH1 0x1 PUSH1 0xA0 SHL SWAP1 DIV PUSH1 0xFF AND PUSH1 0x1 DUP2 GT ISZERO PUSH2 0x1E3C JUMPI PUSH2 0x1E3C PUSH2 0x36DE JUMP JUMPDEST SUB PUSH2 0x21C6 JUMPI PUSH1 0x0 DUP5 PUSH1 0x9 ADD SLOAD PUSH1 0x0 EQ DUP1 PUSH2 0x1E66 JUMPI POP PUSH1 0xF0 DUP6 PUSH1 0x9 ADD SLOAD TIMESTAMP PUSH2 0x1E63 SWAP2 SWAP1 PUSH2 0x3C65 JUMP JUMPDEST LT ISZERO JUMPDEST SWAP1 POP DUP1 ISZERO PUSH2 0x21BC JUMPI PUSH1 0x0 PUSH1 0x2 PUSH1 0x0 DUP2 SLOAD DUP2 LT PUSH2 0x1E84 JUMPI PUSH2 0x1E84 PUSH2 0x3C0D JUMP JUMPDEST SWAP1 PUSH1 0x0 MSTORE PUSH1 0x20 PUSH1 0x0 KECCAK256 SWAP1 PUSH1 0xB MUL ADD PUSH1 0x40 MLOAD DUP1 PUSH2 0x180 ADD PUSH1 0x40 MSTORE SWAP1 DUP2 PUSH1 0x0 DUP3 ADD DUP1 SLOAD PUSH2 0x1EAE SWAP1 PUSH2 0x3CF1 JUMP JUMPDEST DUP1 PUSH1 0x1F ADD PUSH1 0x20 DUP1 SWAP2 DIV MUL PUSH1 0x20 ADD PUSH1 0x40 MLOAD SWAP1 DUP2 ADD PUSH1 0x40 MSTORE DUP1 SWAP3 SWAP2 SWAP1 DUP2 DUP2 MSTORE PUSH1 0x20 ADD DUP3 DUP1 SLOAD PUSH2 0x1EDA SWAP1 PUSH2 0x3CF1 JUMP JUMPDEST DUP1 ISZERO PUSH2 0x1F27 JUMPI DUP1 PUSH1 0x1F LT PUSH2 0x1EFC JUMPI PUSH2 0x100 DUP1 DUP4 SLOAD DIV MUL DUP4 MSTORE SWAP2 PUSH1 0x20 ADD SWAP2 PUSH2 0x1F27 JUMP JUMPDEST DUP3 ADD SWAP2 SWAP1 PUSH1 0x0 MSTORE PUSH1 0x20 PUSH1 0x0 KECCAK256 SWAP1 JUMPDEST DUP2 SLOAD DUP2 MSTORE SWAP1 PUSH1 0x1 ADD SWAP1 PUSH1 0x20 ADD DUP1 DUP4 GT PUSH2 0x1F0A JUMPI DUP3 SWAP1 SUB PUSH1 0x1F AND DUP3 ADD SWAP2 JUMPDEST POP POP POP POP POP DUP2 MSTORE PUSH1 0x20 ADD PUSH1 0x1 DUP3 ADD DUP1 SLOAD PUSH2 0x1F40 SWAP1 PUSH2 0x3CF1 JUMP JUMPDEST DUP1 PUSH1 0x1F ADD PUSH1 0x20 DUP1 SWAP2 DIV MUL PUSH1 0x20 ADD PUSH1 0x40 MLOAD SWAP1 DUP2 ADD PUSH1 0x40 MSTORE DUP1 SWAP3 SWAP2 SWAP1 DUP2 DUP2 MSTORE PUSH1 0x20 ADD DUP3 DUP1 SLOAD PUSH2 0x1F6C SWAP1 PUSH2 0x3CF1 JUMP JUMPDEST DUP1 ISZERO PUSH2 0x1FB9 JUMPI DUP1 PUSH1 0x1F LT PUSH2 0x1F8E JUMPI PUSH2 0x100 DUP1 DUP4 SLOAD DIV MUL DUP4 MSTORE SWAP2 PUSH1 0x20 ADD SWAP2 PUSH2 0x1FB9 JUMP JUMPDEST DUP3 ADD SWAP2 SWAP1 PUSH1 0x0 MSTORE PUSH1 0x20 PUSH1 0x0 KECCAK256 SWAP1 JUMPDEST DUP2 SLOAD DUP2 MSTORE SWAP1 PUSH1 0x1 ADD SWAP1 PUSH1 0x20 ADD DUP1 DUP4 GT PUSH2 0x1F9C JUMPI DUP3 SWAP1 SUB PUSH1 0x1F AND DUP3 ADD SWAP2 JUMPDEST POP POP POP SWAP2 DUP4 MSTORE POP POP PUSH1 0x2 DUP3 ADD SLOAD PUSH1 0xFF SWAP1 DUP2 AND PUSH1 0x20 DUP4 ADD MSTORE PUSH1 0x3 DUP4 ADD SLOAD PUSH1 0x40 DUP4 ADD MSTORE PUSH1 0x4 DUP4 ADD SLOAD PUSH1 0x1 PUSH1 0x1 PUSH1 0xA0 SHL SUB SWAP1 DUP2 AND PUSH1 0x60 DUP5 ADD MSTORE PUSH1 0x5 DUP5 ADD SLOAD SWAP1 DUP2 AND PUSH1 0x80 DUP5 ADD MSTORE PUSH1 0xA0 SWAP1 SWAP3 ADD SWAP2 PUSH1 0x1 PUSH1 0xA0 SHL SWAP1 DIV AND PUSH1 0x1 DUP2 GT ISZERO PUSH2 0x201B JUMPI PUSH2 0x201B PUSH2 0x36DE JUMP JUMPDEST PUSH1 0x1 DUP2 GT ISZERO PUSH2 0x202C JUMPI PUSH2 0x202C PUSH2 0x36DE JUMP JUMPDEST DUP2 MSTORE PUSH1 0x6 DUP3 ADD SLOAD PUSH1 0x20 DUP3 ADD MSTORE PUSH1 0x7 DUP3 ADD SLOAD PUSH1 0x40 DUP1 DUP4 ADD SWAP2 SWAP1 SWAP2 MSTORE PUSH1 0x8 DUP4 ADD SLOAD PUSH1 0x60 DUP4 ADD MSTORE PUSH1 0x9 DUP4 ADD SLOAD PUSH1 0x80 DUP4 ADD MSTORE PUSH1 0xA SWAP3 DUP4 ADD SLOAD PUSH1 0x1 PUSH1 0x1 PUSH1 0xA0 SHL SUB SWAP1 DUP2 AND PUSH1 0xA0 SWAP1 SWAP4 ADD SWAP3 SWAP1 SWAP3 MSTORE SWAP2 DUP10 ADD SLOAD PUSH2 0x160 DUP5 ADD MLOAD PUSH1 0x5 DUP12 ADD SLOAD SWAP4 MLOAD PUSH4 0x70A08231 PUSH1 0xE0 SHL DUP2 MSTORE SWAP5 SWAP6 POP SWAP1 DUP3 AND SWAP4 SWAP1 SWAP3 PUSH1 0x0 SWAP3 DUP6 SWAP3 PUSH4 0x70A08231 SWAP3 PUSH2 0x20B1 SWAP3 AND SWAP1 PUSH1 0x4 ADD PUSH2 0x3B38 JUMP JUMPDEST PUSH1 0x20 PUSH1 0x40 MLOAD DUP1 DUP4 SUB DUP2 DUP7 GAS STATICCALL ISZERO DUP1 ISZERO PUSH2 0x20CE JUMPI RETURNDATASIZE PUSH1 0x0 DUP1 RETURNDATACOPY RETURNDATASIZE PUSH1 0x0 REVERT JUMPDEST POP POP POP POP PUSH1 0x40 MLOAD RETURNDATASIZE PUSH1 0x1F NOT PUSH1 0x1F DUP3 ADD AND DUP3 ADD DUP1 PUSH1 0x40 MSTORE POP DUP2 ADD SWAP1 PUSH2 0x20F2 SWAP2 SWAP1 PUSH2 0x3C2E JUMP JUMPDEST PUSH1 0x5 DUP11 ADD SLOAD PUSH1 0x40 MLOAD PUSH4 0x70A08231 PUSH1 0xE0 SHL DUP2 MSTORE SWAP2 SWAP3 POP PUSH1 0x0 SWAP2 PUSH1 0x1 PUSH1 0x1 PUSH1 0xA0 SHL SUB DUP6 DUP2 AND SWAP3 PUSH4 0x70A08231 SWAP3 PUSH2 0x212C SWAP3 SWAP1 SWAP2 AND SWAP1 PUSH1 0x4 ADD PUSH2 0x3B38 JUMP JUMPDEST PUSH1 0x20 PUSH1 0x40 MLOAD DUP1 DUP4 SUB DUP2 DUP7 GAS STATICCALL ISZERO DUP1 ISZERO PUSH2 0x2149 JUMPI RETURNDATASIZE PUSH1 0x0 DUP1 RETURNDATACOPY RETURNDATASIZE PUSH1 0x0 REVERT JUMPDEST POP POP POP POP PUSH1 0x40 MLOAD RETURNDATASIZE PUSH1 0x1F NOT PUSH1 0x1F DUP3 ADD AND DUP3 ADD DUP1 PUSH1 0x40 MSTORE POP DUP2 ADD SWAP1 PUSH2 0x216D SWAP2 SWAP1 PUSH2 0x3C2E JUMP JUMPDEST PUSH1 0x2 DUP12 ADD SLOAD SWAP1 SWAP2 POP PUSH2 0x2183 SWAP1 DUP4 SWAP1 PUSH1 0xFF AND PUSH2 0x2F70 JUMP JUMPDEST SWAP2 POP PUSH2 0x2196 DUP2 DUP7 PUSH1 0x40 ADD MLOAD PUSH1 0xFF AND PUSH2 0x2F70 JUMP JUMPDEST SWAP1 POP PUSH2 0x21A2 DUP2 DUP4 PUSH2 0x2FA5 JUMP JUMPDEST PUSH1 0x8 DUP12 ADD DUP2 SWAP1 SSTORE TIMESTAMP PUSH1 0x9 DUP13 ADD SSTORE SWAP7 POP PUSH2 0x21C4 SWAP5 POP POP POP POP POP JUMP JUMPDEST DUP5 PUSH1 0x8 ADD SLOAD SWAP2 POP JUMPDEST POP JUMPDEST PUSH1 0x0 DUP4 ISZERO PUSH2 0x21F2 JUMPI PUSH1 0x2 DUP6 ADD SLOAD PUSH2 0x21EB SWAP1 PUSH2 0x21E5 SWAP1 DUP6 SWAP1 PUSH1 0xFF AND PUSH2 0x2F70 JUMP JUMPDEST DUP4 PUSH2 0x2FA5 JUMP JUMPDEST SWAP1 POP PUSH2 0x2212 JUMP JUMPDEST PUSH1 0x2 DUP6 ADD SLOAD PUSH2 0x220F SWAP1 PUSH2 0x2209 SWAP1 DUP6 SWAP1 PUSH1 0xFF AND PUSH2 0x2F70 JUMP JUMPDEST DUP4 PUSH2 0x2F99 JUMP JUMPDEST SWAP1 POP JUMPDEST PUSH1 0x0 DUP6 PUSH1 0x7 ADD SLOAD DUP4 LT PUSH2 0x2226 JUMPI POP PUSH1 0x6 DUP6 ADD SLOAD JUMPDEST PUSH1 0x40 DUP1 MLOAD PUSH2 0x100 DUP2 ADD DUP3 MSTORE CALLER DUP2 MSTORE PUSH1 0x4 DUP9 ADD SLOAD PUSH1 0x1 PUSH1 0x1 PUSH1 0xA0 SHL SUB SWAP1 DUP2 AND PUSH1 0x20 DUP4 ADD SWAP1 DUP2 MSTORE DUP9 ISZERO ISZERO SWAP4 DUP4 ADD SWAP4 DUP5 MSTORE TIMESTAMP PUSH1 0x60 DUP5 ADD SWAP1 DUP2 MSTORE PUSH1 0x80 DUP5 ADD DUP7 DUP2 MSTORE PUSH1 0xA0 DUP6 ADD DUP10 DUP2 MSTORE PUSH1 0xC0 DUP7 ADD DUP12 DUP2 MSTORE PUSH1 0xE0 DUP8 ADD DUP11 DUP2 MSTORE PUSH1 0x3 DUP1 SLOAD PUSH1 0x1 DUP2 DUP2 ADD DUP4 SSTORE PUSH1 0x0 DUP4 DUP2 MSTORE DUP12 MLOAD PUSH1 0x7 SWAP1 SWAP4 MUL PUSH32 0xC2575A0E9E593C00F959F8C92F12DB2869C3395A3B0502D05E2516446F71F85B DUP2 ADD DUP1 SLOAD SWAP5 DUP14 AND PUSH1 0x1 PUSH1 0x1 PUSH1 0xA0 SHL SUB NOT SWAP1 SWAP6 AND SWAP5 SWAP1 SWAP5 OR SWAP1 SWAP4 SSTORE SWAP9 MLOAD PUSH32 0xC2575A0E9E593C00F959F8C92F12DB2869C3395A3B0502D05E2516446F71F85C DUP4 ADD DUP1 SLOAD SWAP14 MLOAD ISZERO ISZERO PUSH1 0x1 PUSH1 0xA0 SHL MUL PUSH1 0x1 PUSH1 0x1 PUSH1 0xA8 SHL SUB NOT SWAP1 SWAP15 AND SWAP2 SWAP1 SWAP12 AND OR SWAP12 SWAP1 SWAP12 OR SWAP1 SWAP9 SSTORE SWAP5 MLOAD PUSH32 0xC2575A0E9E593C00F959F8C92F12DB2869C3395A3B0502D05E2516446F71F85D DUP9 ADD SSTORE SWAP3 MLOAD PUSH32 0xC2575A0E9E593C00F959F8C92F12DB2869C3395A3B0502D05E2516446F71F85E DUP8 ADD SSTORE SWAP1 MLOAD PUSH32 0xC2575A0E9E593C00F959F8C92F12DB2869C3395A3B0502D05E2516446F71F85F DUP7 ADD SSTORE MLOAD PUSH32 0xC2575A0E9E593C00F959F8C92F12DB2869C3395A3B0502D05E2516446F71F860 DUP6 ADD SSTORE MLOAD PUSH32 0xC2575A0E9E593C00F959F8C92F12DB2869C3395A3B0502D05E2516446F71F861 SWAP1 SWAP4 ADD SWAP3 SWAP1 SWAP3 SSTORE SWAP1 SLOAD SWAP2 SWAP3 SWAP1 SWAP2 PUSH2 0x23E3 SWAP2 SWAP1 PUSH2 0x3C65 JUMP JUMPDEST CALLER PUSH1 0x0 SWAP1 DUP2 MSTORE PUSH1 0x7 PUSH1 0x20 SWAP1 DUP2 MSTORE PUSH1 0x40 DUP1 DUP4 KECCAK256 DUP1 SLOAD PUSH1 0x1 DUP2 DUP2 ADD DUP4 SSTORE SWAP2 DUP6 MSTORE DUP4 DUP6 KECCAK256 ADD DUP6 SWAP1 SSTORE PUSH1 0x4 DUP14 ADD DUP1 SLOAD PUSH1 0x1 PUSH1 0x1 PUSH1 0xA0 SHL SUB SWAP1 DUP2 AND DUP7 MSTORE PUSH1 0x6 DUP6 MSTORE DUP4 DUP7 KECCAK256 DUP1 SLOAD SWAP4 DUP5 ADD DUP2 SSTORE DUP7 MSTORE SWAP4 SWAP1 SWAP5 KECCAK256 ADD DUP5 SWAP1 SSTORE SWAP2 SLOAD SWAP2 MLOAD SWAP3 SWAP4 POP PUSH32 0x96D694E92C01C8197B4CF2ECB0EC03BE940CC6E384CBDFB2AFB329375A0BE252 SWAP3 PUSH2 0x2470 SWAP3 DUP6 SWAP3 DUP13 SWAP3 SWAP2 AND SWAP1 DUP12 SWAP1 DUP12 SWAP1 PUSH2 0x3EEC JUMP JUMPDEST PUSH1 0x40 MLOAD DUP1 SWAP2 SUB SWAP1 LOG1 POP POP POP POP POP POP POP POP JUMP JUMPDEST PUSH1 0x0 DUP1 PUSH1 0x0 DUP1 DUP7 PUSH1 0x6 ADD SLOAD DUP6 LT SWAP1 POP DUP1 ISZERO PUSH2 0x249F JUMPI DUP5 SWAP2 POP PUSH2 0x24A7 JUMP JUMPDEST DUP7 PUSH1 0x6 ADD SLOAD SWAP2 POP JUMPDEST DUP7 SLOAD PUSH2 0x24BE SWAP1 DUP10 SWAP1 PUSH1 0x1 PUSH1 0x1 PUSH1 0xA0 SHL SUB AND DUP5 PUSH2 0x30F1 JUMP JUMPDEST ISZERO PUSH2 0x250D JUMPI PUSH2 0x24CD DUP3 DUP7 PUSH2 0x3C65 JUMP JUMPDEST SWAP5 POP DUP1 ISZERO PUSH2 0x2508 JUMPI DUP2 DUP8 PUSH1 0x6 ADD PUSH1 0x0 DUP3 DUP3 SLOAD PUSH2 0x24E9 SWAP2 SWAP1 PUSH2 0x3C65 JUMP JUMPDEST SWAP3 POP POP DUP2 SWAP1 SSTORE POP PUSH2 0x2502 DUP8 PUSH1 0x6 ADD SLOAD DUP9 PUSH1 0x4 ADD SLOAD PUSH2 0x2F99 JUMP JUMPDEST PUSH1 0x5 DUP9 ADD SSTORE JUMPDEST PUSH2 0x251B JUMP JUMPDEST PUSH1 0x0 DUP6 SWAP4 POP SWAP4 POP POP POP PUSH2 0x257C JUMP JUMPDEST PUSH1 0x1 DUP8 ADD SLOAD DUP8 SLOAD PUSH1 0x40 MLOAD PUSH32 0xBDB78CC9B5D01BDAC074DF120CC9776D231060CDCDCC8C7F6C2039F67A5E626F SWAP3 PUSH2 0x256C SWAP3 DUP11 SWAP3 PUSH1 0x1 PUSH1 0xA0 SHL SWAP1 SWAP3 DIV PUSH1 0xFF AND SWAP2 PUSH1 0x1 PUSH1 0x1 PUSH1 0xA0 SHL SUB SWAP1 SWAP2 AND SWAP1 DUP7 SWAP1 PUSH2 0x3F38 JUMP JUMPDEST PUSH1 0x40 MLOAD DUP1 SWAP2 SUB SWAP1 LOG1 ISZERO SWAP3 POP DUP4 SWAP2 POP POP JUMPDEST SWAP5 POP SWAP5 SWAP3 POP POP POP JUMP JUMPDEST PUSH1 0x0 DUP1 PUSH1 0x0 DUP1 DUP7 PUSH1 0x6 ADD SLOAD DUP7 LT SWAP1 POP DUP1 ISZERO PUSH2 0x25A2 JUMPI DUP6 SWAP2 POP PUSH2 0x25AA JUMP JUMPDEST DUP7 PUSH1 0x6 ADD SLOAD SWAP2 POP JUMPDEST DUP7 SLOAD PUSH2 0x25BF SWAP1 PUSH1 0x1 PUSH1 0x1 PUSH1 0xA0 SHL SUB AND DUP4 PUSH2 0x32EC JUMP JUMPDEST ISZERO PUSH2 0x266F JUMPI PUSH2 0x25CE DUP3 DUP8 PUSH2 0x3C65 JUMP JUMPDEST SWAP6 POP DUP1 ISZERO PUSH2 0x2609 JUMPI DUP2 DUP8 PUSH1 0x6 ADD PUSH1 0x0 DUP3 DUP3 SLOAD PUSH2 0x25EA SWAP2 SWAP1 PUSH2 0x3C65 JUMP JUMPDEST SWAP3 POP POP DUP2 SWAP1 SSTORE POP PUSH2 0x2603 DUP8 PUSH1 0x6 ADD SLOAD DUP9 PUSH1 0x4 ADD SLOAD PUSH2 0x2FA5 JUMP JUMPDEST PUSH1 0x5 DUP9 ADD SSTORE JUMPDEST PUSH1 0x1 DUP8 ADD SLOAD DUP8 SLOAD PUSH1 0x40 MLOAD PUSH32 0xBDB78CC9B5D01BDAC074DF120CC9776D231060CDCDCC8C7F6C2039F67A5E626F SWAP3 PUSH2 0x265A SWAP3 DUP10 SWAP3 PUSH1 0x1 PUSH1 0xA0 SHL SWAP1 SWAP3 DIV PUSH1 0xFF AND SWAP2 PUSH1 0x1 PUSH1 0x1 PUSH1 0xA0 SHL SUB SWAP1 SWAP2 AND SWAP1 DUP7 SWAP1 PUSH2 0x3F38 JUMP JUMPDEST PUSH1 0x40 MLOAD DUP1 SWAP2 SUB SWAP1 LOG1 ISZERO SWAP3 POP DUP5 SWAP2 POP PUSH2 0x2679 SWAP1 POP JUMP JUMPDEST PUSH1 0x0 DUP7 SWAP4 POP SWAP4 POP POP POP JUMPDEST SWAP4 POP SWAP4 SWAP2 POP POP JUMP JUMPDEST DUP2 SLOAD PUSH1 0x0 SWAP1 PUSH2 0x2692 SWAP1 PUSH1 0x1 SWAP1 PUSH2 0x3C65 JUMP JUMPDEST SWAP1 POP DUP1 DUP3 EQ PUSH2 0x2766 JUMPI DUP3 DUP2 DUP2 SLOAD DUP2 LT PUSH2 0x26AD JUMPI PUSH2 0x26AD PUSH2 0x3C0D JUMP JUMPDEST SWAP1 PUSH1 0x0 MSTORE PUSH1 0x20 PUSH1 0x0 KECCAK256 SWAP1 PUSH1 0x7 MUL ADD DUP4 DUP4 DUP2 SLOAD DUP2 LT PUSH2 0x26CD JUMPI PUSH2 0x26CD PUSH2 0x3C0D JUMP JUMPDEST PUSH1 0x0 SWAP2 DUP3 MSTORE PUSH1 0x20 SWAP1 SWAP2 KECCAK256 DUP3 SLOAD PUSH1 0x7 SWAP1 SWAP3 MUL ADD DUP1 SLOAD PUSH1 0x1 PUSH1 0x1 PUSH1 0xA0 SHL SUB NOT SWAP1 DUP2 AND PUSH1 0x1 PUSH1 0x1 PUSH1 0xA0 SHL SUB SWAP4 DUP5 AND OR DUP3 SSTORE PUSH1 0x1 DUP1 DUP6 ADD DUP1 SLOAD SWAP2 DUP5 ADD DUP1 SLOAD SWAP4 DUP5 AND SWAP3 SWAP1 SWAP6 AND SWAP2 DUP3 OR DUP6 SSTORE SLOAD PUSH1 0xFF PUSH1 0x1 PUSH1 0xA0 SHL SWAP2 DUP3 SWAP1 DIV AND ISZERO ISZERO MUL PUSH1 0x1 PUSH1 0x1 PUSH1 0xA8 SHL SUB NOT SWAP1 SWAP3 AND OR OR SWAP1 SWAP2 SSTORE PUSH1 0x2 DUP1 DUP4 ADD SLOAD SWAP1 DUP3 ADD SSTORE PUSH1 0x3 DUP1 DUP4 ADD SLOAD SWAP1 DUP3 ADD SSTORE PUSH1 0x4 DUP1 DUP4 ADD SLOAD SWAP1 DUP3 ADD SSTORE PUSH1 0x5 DUP1 DUP4 ADD SLOAD SWAP1 DUP3 ADD SSTORE PUSH1 0x6 SWAP2 DUP3 ADD SLOAD SWAP2 ADD SSTORE JUMPDEST DUP3 DUP1 SLOAD DUP1 PUSH2 0x2776 JUMPI PUSH2 0x2776 PUSH2 0x3E82 JUMP JUMPDEST PUSH1 0x0 DUP3 DUP2 MSTORE PUSH1 0x20 DUP2 KECCAK256 PUSH1 0x7 PUSH1 0x0 NOT SWAP1 SWAP4 ADD SWAP3 DUP4 MUL ADD DUP1 SLOAD PUSH1 0x1 PUSH1 0x1 PUSH1 0xA0 SHL SUB NOT AND DUP2 SSTORE PUSH1 0x1 DUP2 ADD DUP1 SLOAD PUSH1 0x1 PUSH1 0x1 PUSH1 0xA8 SHL SUB NOT AND SWAP1 SSTORE PUSH1 0x2 DUP2 ADD DUP3 SWAP1 SSTORE PUSH1 0x3 DUP2 ADD DUP3 SWAP1 SSTORE PUSH1 0x4 DUP2 ADD DUP3 SWAP1 SSTORE PUSH1 0x5 DUP2 ADD DUP3 SWAP1 SSTORE PUSH1 0x6 ADD SSTORE SWAP1 SSTORE POP POP POP JUMP JUMPDEST PUSH1 0x0 DUP1 PUSH1 0x0 PUSH2 0x27E0 DUP5 PUSH2 0x31BA JUMP JUMPDEST SWAP2 POP SWAP2 POP DUP1 PUSH2 0x2802 JUMPI PUSH1 0x40 MLOAD PUSH4 0xE6F7D2C7 PUSH1 0xE0 SHL DUP2 MSTORE PUSH1 0x4 ADD PUSH1 0x40 MLOAD DUP1 SWAP2 SUB SWAP1 REVERT JUMPDEST POP SWAP3 SWAP2 POP POP JUMP JUMPDEST PUSH1 0x2 SLOAD PUSH1 0x0 SUB PUSH2 0x2815 JUMPI JUMP JUMPDEST PUSH1 0x0 PUSH1 0x2 PUSH1 0x0 DUP2 SLOAD DUP2 LT PUSH2 0x282B JUMPI PUSH2 0x282B PUSH2 0x3C0D JUMP JUMPDEST SWAP1 PUSH1 0x0 MSTORE PUSH1 0x20 PUSH1 0x0 KECCAK256 SWAP1 PUSH1 0xB MUL ADD PUSH1 0x40 MLOAD DUP1 PUSH2 0x180 ADD PUSH1 0x40 MSTORE SWAP1 DUP2 PUSH1 0x0 DUP3 ADD DUP1 SLOAD PUSH2 0x2855 SWAP1 PUSH2 0x3CF1 JUMP JUMPDEST DUP1 PUSH1 0x1F ADD PUSH1 0x20 DUP1 SWAP2 DIV MUL PUSH1 0x20 ADD PUSH1 0x40 MLOAD SWAP1 DUP2 ADD PUSH1 0x40 MSTORE DUP1 SWAP3 SWAP2 SWAP1 DUP2 DUP2 MSTORE PUSH1 0x20 ADD DUP3 DUP1 SLOAD PUSH2 0x2881 SWAP1 PUSH2 0x3CF1 JUMP JUMPDEST DUP1 ISZERO PUSH2 0x28CE JUMPI DUP1 PUSH1 0x1F LT PUSH2 0x28A3 JUMPI PUSH2 0x100 DUP1 DUP4 SLOAD DIV MUL DUP4 MSTORE SWAP2 PUSH1 0x20 ADD SWAP2 PUSH2 0x28CE JUMP JUMPDEST DUP3 ADD SWAP2 SWAP1 PUSH1 0x0 MSTORE PUSH1 0x20 PUSH1 0x0 KECCAK256 SWAP1 JUMPDEST DUP2 SLOAD DUP2 MSTORE SWAP1 PUSH1 0x1 ADD SWAP1 PUSH1 0x20 ADD DUP1 DUP4 GT PUSH2 0x28B1 JUMPI DUP3 SWAP1 SUB PUSH1 0x1F AND DUP3 ADD SWAP2 JUMPDEST POP POP POP POP POP DUP2 MSTORE PUSH1 0x20 ADD PUSH1 0x1 DUP3 ADD DUP1 SLOAD PUSH2 0x28E7 SWAP1 PUSH2 0x3CF1 JUMP JUMPDEST DUP1 PUSH1 0x1F ADD PUSH1 0x20 DUP1 SWAP2 DIV MUL PUSH1 0x20 ADD PUSH1 0x40 MLOAD SWAP1 DUP2 ADD PUSH1 0x40 MSTORE DUP1 SWAP3 SWAP2 SWAP1 DUP2 DUP2 MSTORE PUSH1 0x20 ADD DUP3 DUP1 SLOAD PUSH2 0x2913 SWAP1 PUSH2 0x3CF1 JUMP JUMPDEST DUP1 ISZERO PUSH2 0x2960 JUMPI DUP1 PUSH1 0x1F LT PUSH2 0x2935 JUMPI PUSH2 0x100 DUP1 DUP4 SLOAD DIV MUL DUP4 MSTORE SWAP2 PUSH1 0x20 ADD SWAP2 PUSH2 0x2960 JUMP JUMPDEST DUP3 ADD SWAP2 SWAP1 PUSH1 0x0 MSTORE PUSH1 0x20 PUSH1 0x0 KECCAK256 SWAP1 JUMPDEST DUP2 SLOAD DUP2 MSTORE SWAP1 PUSH1 0x1 ADD SWAP1 PUSH1 0x20 ADD DUP1 DUP4 GT PUSH2 0x2943 JUMPI DUP3 SWAP1 SUB PUSH1 0x1F AND DUP3 ADD SWAP2 JUMPDEST POP POP POP SWAP2 DUP4 MSTORE POP POP PUSH1 0x2 DUP3 ADD SLOAD PUSH1 0xFF SWAP1 DUP2 AND PUSH1 0x20 DUP4 ADD MSTORE PUSH1 0x3 DUP4 ADD SLOAD PUSH1 0x40 DUP4 ADD MSTORE PUSH1 0x4 DUP4 ADD SLOAD PUSH1 0x1 PUSH1 0x1 PUSH1 0xA0 SHL SUB SWAP1 DUP2 AND PUSH1 0x60 DUP5 ADD MSTORE PUSH1 0x5 DUP5 ADD SLOAD SWAP1 DUP2 AND PUSH1 0x80 DUP5 ADD MSTORE PUSH1 0xA0 SWAP1 SWAP3 ADD SWAP2 PUSH1 0x1 PUSH1 0xA0 SHL SWAP1 DIV AND PUSH1 0x1 DUP2 GT ISZERO PUSH2 0x29C2 JUMPI PUSH2 0x29C2 PUSH2 0x36DE JUMP JUMPDEST PUSH1 0x1 DUP2 GT ISZERO PUSH2 0x29D3 JUMPI PUSH2 0x29D3 PUSH2 0x36DE JUMP JUMPDEST DUP2 MSTORE PUSH1 0x6 DUP3 ADD SLOAD PUSH1 0x20 DUP3 ADD MSTORE PUSH1 0x7 DUP3 ADD SLOAD PUSH1 0x40 DUP3 ADD MSTORE PUSH1 0x8 DUP3 ADD SLOAD PUSH1 0x60 DUP3 ADD MSTORE PUSH1 0x9 DUP3 ADD SLOAD PUSH1 0x80 DUP3 ADD MSTORE PUSH1 0xA SWAP1 SWAP2 ADD SLOAD PUSH1 0x1 PUSH1 0x1 PUSH1 0xA0 SHL SUB AND PUSH1 0xA0 SWAP1 SWAP2 ADD MSTORE PUSH2 0x160 DUP2 ADD MLOAD PUSH1 0x1 SLOAD SWAP2 SWAP3 POP PUSH2 0x2A29 SWAP2 CALLER SWAP1 PUSH2 0x1D51 JUMP JUMPDEST PUSH2 0x2A4A JUMPI PUSH1 0x1 SLOAD PUSH1 0x40 MLOAD PUSH4 0x6508A501 PUSH1 0xE1 SHL DUP2 MSTORE PUSH1 0x4 ADD PUSH2 0x133F SWAP2 SWAP1 PUSH2 0x3624 JUMP JUMPDEST PUSH1 0x1 SLOAD PUSH1 0x80 DUP3 ADD MLOAD PUSH1 0x1 PUSH1 0x1 PUSH1 0xA0 SHL SUB AND PUSH1 0x0 SWAP1 DUP2 MSTORE PUSH1 0x9 PUSH1 0x20 MSTORE PUSH1 0x40 DUP2 KECCAK256 DUP1 SLOAD SWAP1 SWAP2 SWAP1 PUSH2 0x2A79 SWAP1 DUP5 SWAP1 PUSH2 0x3CAD JUMP JUMPDEST SWAP3 POP POP DUP2 SWAP1 SSTORE POP PUSH1 0x0 PUSH2 0x3E8 PUSH1 0x5 PUSH1 0x1 SLOAD PUSH2 0x2A94 SWAP2 SWAP1 PUSH2 0x3F76 JUMP JUMPDEST PUSH2 0x2A9E SWAP2 SWAP1 PUSH2 0x3FA4 JUMP JUMPDEST SWAP1 POP DUP1 PUSH1 0x1 PUSH1 0x0 DUP3 DUP3 SLOAD PUSH2 0x2AB2 SWAP2 SWAP1 PUSH2 0x3CAD JUMP JUMPDEST SWAP1 SWAP2 SSTORE POP POP POP POP JUMP JUMPDEST PUSH1 0x0 DUP7 SWAP1 POP PUSH1 0x60 DUP1 PUSH1 0x0 DUP1 PUSH1 0x0 DUP6 PUSH1 0x1 PUSH1 0x1 PUSH1 0xA0 SHL SUB AND PUSH4 0x70A08231 ADDRESS PUSH1 0x40 MLOAD DUP3 PUSH4 0xFFFFFFFF AND PUSH1 0xE0 SHL DUP2 MSTORE PUSH1 0x4 ADD PUSH2 0x2AF4 SWAP2 SWAP1 PUSH2 0x3B38 JUMP JUMPDEST PUSH1 0x20 PUSH1 0x40 MLOAD DUP1 DUP4 SUB DUP2 DUP7 GAS STATICCALL SWAP3 POP POP POP DUP1 ISZERO PUSH2 0x2B2D JUMPI POP PUSH1 0x40 DUP1 MLOAD PUSH1 0x1F RETURNDATASIZE SWAP1 DUP2 ADD PUSH1 0x1F NOT AND DUP3 ADD SWAP1 SWAP3 MSTORE PUSH2 0x2B2A SWAP2 DUP2 ADD SWAP1 PUSH2 0x3C2E JUMP JUMPDEST PUSH1 0x1 JUMPDEST PUSH2 0x2B4A JUMPI PUSH1 0x40 MLOAD PUSH4 0xA6F7ECD PUSH1 0xE2 SHL DUP2 MSTORE PUSH1 0x4 ADD PUSH1 0x40 MLOAD DUP1 SWAP2 SUB SWAP1 REVERT JUMPDEST DUP1 SWAP3 POP DUP7 PUSH1 0x1 PUSH1 0x1 PUSH1 0xA0 SHL SUB AND PUSH4 0x313CE567 PUSH1 0x40 MLOAD DUP2 PUSH4 0xFFFFFFFF AND PUSH1 0xE0 SHL DUP2 MSTORE PUSH1 0x4 ADD PUSH1 0x20 PUSH1 0x40 MLOAD DUP1 DUP4 SUB DUP2 DUP7 GAS STATICCALL SWAP3 POP POP POP DUP1 ISZERO PUSH2 0x2BA7 JUMPI POP PUSH1 0x40 DUP1 MLOAD PUSH1 0x1F RETURNDATASIZE SWAP1 DUP2 ADD PUSH1 0x1F NOT AND DUP3 ADD SWAP1 SWAP3 MSTORE PUSH2 0x2BA4 SWAP2 DUP2 ADD SWAP1 PUSH2 0x3FCC JUMP JUMPDEST PUSH1 0x1 JUMPDEST PUSH2 0x2BB4 JUMPI PUSH1 0x12 SWAP2 POP PUSH2 0x2BB7 JUMP JUMPDEST SWAP2 POP JUMPDEST PUSH1 0x12 PUSH1 0xFF DUP4 AND GT ISZERO PUSH2 0x2BDC JUMPI PUSH1 0x40 MLOAD PUSH4 0x432C0A5D PUSH1 0xE0 SHL DUP2 MSTORE PUSH1 0x4 ADD PUSH1 0x40 MLOAD DUP1 SWAP2 SUB SWAP1 REVERT JUMPDEST PUSH2 0x2BE8 DUP3 PUSH1 0xFF AND PUSH2 0x3392 JUMP JUMPDEST SWAP4 POP DUP7 PUSH1 0x1 PUSH1 0x1 PUSH1 0xA0 SHL SUB AND PUSH4 0x6FDDE03 PUSH1 0x40 MLOAD DUP2 PUSH4 0xFFFFFFFF AND PUSH1 0xE0 SHL DUP2 MSTORE PUSH1 0x4 ADD PUSH1 0x0 PUSH1 0x40 MLOAD DUP1 DUP4 SUB DUP2 DUP7 GAS STATICCALL SWAP3 POP POP POP DUP1 ISZERO PUSH2 0x2C49 JUMPI POP PUSH1 0x40 MLOAD RETURNDATASIZE PUSH1 0x0 DUP3 RETURNDATACOPY PUSH1 0x1F RETURNDATASIZE SWAP1 DUP2 ADD PUSH1 0x1F NOT AND DUP3 ADD PUSH1 0x40 MSTORE PUSH2 0x2C46 SWAP2 SWAP1 DUP2 ADD SWAP1 PUSH2 0x3E1F JUMP JUMPDEST PUSH1 0x1 JUMPDEST ISZERO PUSH2 0x2C51 JUMPI SWAP6 POP JUMPDEST DUP7 PUSH1 0x1 PUSH1 0x1 PUSH1 0xA0 SHL SUB AND PUSH4 0x95D89B41 PUSH1 0x40 MLOAD DUP2 PUSH4 0xFFFFFFFF AND PUSH1 0xE0 SHL DUP2 MSTORE PUSH1 0x4 ADD PUSH1 0x0 PUSH1 0x40 MLOAD DUP1 DUP4 SUB DUP2 DUP7 GAS STATICCALL SWAP3 POP POP POP DUP1 ISZERO PUSH2 0x2CB0 JUMPI POP PUSH1 0x40 MLOAD RETURNDATASIZE PUSH1 0x0 DUP3 RETURNDATACOPY PUSH1 0x1F RETURNDATASIZE SWAP1 DUP2 ADD PUSH1 0x1F NOT AND DUP3 ADD PUSH1 0x40 MSTORE PUSH2 0x2CAD SWAP2 SWAP1 DUP2 ADD SWAP1 PUSH2 0x3E1F JUMP JUMPDEST PUSH1 0x1 JUMPDEST ISZERO PUSH2 0x2CB8 JUMPI SWAP5 POP JUMPDEST POP PUSH1 0x1 PUSH1 0x1 PUSH1 0xA0 SHL SUB DUP10 AND ISZERO DUP1 ISZERO SWAP1 PUSH2 0x2CD1 JUMPI POP PUSH1 0x0 DUP12 GT JUMPDEST ISZERO PUSH2 0x2CEF JUMPI PUSH1 0x40 MLOAD PUSH4 0x27BD7835 PUSH1 0xE1 SHL DUP2 MSTORE PUSH1 0x4 ADD PUSH1 0x40 MLOAD DUP1 SWAP2 SUB SWAP1 REVERT JUMPDEST PUSH1 0x0 PUSH1 0x40 MLOAD DUP1 PUSH2 0x180 ADD PUSH1 0x40 MSTORE DUP1 DUP8 DUP2 MSTORE PUSH1 0x20 ADD DUP7 DUP2 MSTORE PUSH1 0x20 ADD DUP4 PUSH1 0xFF AND DUP2 MSTORE PUSH1 0x20 ADD DUP6 DUP2 MSTORE PUSH1 0x20 ADD DUP15 PUSH1 0x1 PUSH1 0x1 PUSH1 0xA0 SHL SUB AND DUP2 MSTORE PUSH1 0x20 ADD DUP12 PUSH1 0x1 PUSH1 0x1 PUSH1 0xA0 SHL SUB AND DUP2 MSTORE PUSH1 0x20 ADD DUP13 PUSH1 0x1 DUP2 GT ISZERO PUSH2 0x2D48 JUMPI PUSH2 0x2D48 PUSH2 0x36DE JUMP JUMPDEST DUP2 MSTORE PUSH1 0x20 DUP2 ADD DUP12 SWAP1 MSTORE PUSH1 0x40 DUP2 ADD DUP11 SWAP1 MSTORE PUSH1 0x60 DUP2 ADD DUP15 SWAP1 MSTORE PUSH1 0x0 PUSH1 0x80 DUP3 ADD DUP2 SWAP1 MSTORE PUSH1 0x1 PUSH1 0x1 PUSH1 0xA0 SHL SUB DUP11 AND PUSH1 0xA0 SWAP1 SWAP3 ADD SWAP2 SWAP1 SWAP2 MSTORE PUSH1 0x2 DUP1 SLOAD PUSH1 0x1 DUP2 ADD DUP3 SSTORE SWAP2 MSTORE DUP2 MLOAD SWAP2 SWAP3 POP DUP3 SWAP2 PUSH1 0xB SWAP1 SWAP2 MUL PUSH32 0x405787FA12A823E0F2B7631CC41B3BA8828B3321CA811111FA75CD3AA3BB5ACE ADD SWAP1 DUP2 SWAP1 PUSH2 0x2DC2 SWAP1 DUP3 PUSH2 0x407E JUMP JUMPDEST POP PUSH1 0x20 DUP3 ADD MLOAD PUSH1 0x1 DUP3 ADD SWAP1 PUSH2 0x2DD7 SWAP1 DUP3 PUSH2 0x407E JUMP JUMPDEST POP PUSH1 0x40 DUP3 ADD MLOAD PUSH1 0x2 DUP3 ADD DUP1 SLOAD PUSH1 0xFF NOT AND PUSH1 0xFF SWAP1 SWAP3 AND SWAP2 SWAP1 SWAP2 OR SWAP1 SSTORE PUSH1 0x60 DUP3 ADD MLOAD PUSH1 0x3 DUP3 ADD SSTORE PUSH1 0x80 DUP3 ADD MLOAD PUSH1 0x4 DUP3 ADD DUP1 SLOAD PUSH1 0x1 PUSH1 0x1 PUSH1 0xA0 SHL SUB NOT SWAP1 DUP2 AND PUSH1 0x1 PUSH1 0x1 PUSH1 0xA0 SHL SUB SWAP4 DUP5 AND OR SWAP1 SWAP2 SSTORE PUSH1 0xA0 DUP5 ADD MLOAD PUSH1 0x5 DUP5 ADD DUP1 SLOAD SWAP3 DUP4 AND SWAP2 SWAP1 SWAP4 AND SWAP1 DUP2 OR DUP4 SSTORE PUSH1 0xC0 DUP6 ADD MLOAD SWAP3 SWAP2 PUSH1 0x1 PUSH1 0x1 PUSH1 0xA8 SHL SUB NOT AND OR PUSH1 0x1 PUSH1 0xA0 SHL DUP4 PUSH1 0x1 DUP2 GT ISZERO PUSH2 0x2E62 JUMPI PUSH2 0x2E62 PUSH2 0x36DE JUMP JUMPDEST MUL OR SWAP1 SSTORE POP PUSH1 0xE0 DUP3 ADD MLOAD PUSH1 0x6 DUP3 ADD SSTORE PUSH2 0x100 DUP3 ADD MLOAD PUSH1 0x7 DUP3 ADD SSTORE PUSH2 0x120 DUP3 ADD MLOAD PUSH1 0x8 DUP3 ADD SSTORE PUSH2 0x140 DUP3 ADD MLOAD PUSH1 0x9 DUP1 DUP4 ADD SWAP2 SWAP1 SWAP2 SSTORE PUSH2 0x160 SWAP1 SWAP3 ADD MLOAD PUSH1 0xA SWAP1 SWAP2 ADD DUP1 SLOAD PUSH1 0x1 PUSH1 0x1 PUSH1 0xA0 SHL SUB NOT AND PUSH1 0x1 PUSH1 0x1 PUSH1 0xA0 SHL SUB SWAP3 DUP4 AND OR SWAP1 SSTORE PUSH1 0x2 SLOAD PUSH1 0x80 DUP5 ADD DUP1 MLOAD DUP4 AND PUSH1 0x0 SWAP1 DUP2 MSTORE PUSH1 0x5 PUSH1 0x20 SWAP1 DUP2 MSTORE PUSH1 0x40 DUP1 DUP4 KECCAK256 SWAP5 SWAP1 SWAP5 SSTORE SWAP2 MLOAD SWAP1 SWAP4 AND DUP4 MSTORE SWAP3 DUP4 MSTORE SWAP1 DUP2 SWAP1 KECCAK256 DUP6 SWAP1 SSTORE SWAP1 DUP3 ADD MLOAD SWAP1 MLOAD PUSH2 0x2EFD SWAP2 SWAP1 PUSH2 0x4163 JUMP JUMPDEST PUSH1 0x40 MLOAD SWAP1 DUP2 SWAP1 SUB DUP2 KECCAK256 DUP3 MLOAD SWAP1 SWAP2 PUSH2 0x2F14 SWAP2 SWAP1 PUSH2 0x4163 JUMP JUMPDEST PUSH1 0x40 MLOAD SWAP1 DUP2 SWAP1 SUB DUP2 KECCAK256 PUSH1 0xC0 DUP5 ADD MLOAD PUSH1 0x80 DUP6 ADD MLOAD PUSH1 0x2 SLOAD SWAP3 SWAP4 PUSH32 0x2B9A73ECC76EBAD22366F66B2436A1725CC4F39AA579663FC941863779316B1B SWAP4 PUSH2 0x2F59 SWAP4 SWAP3 SWAP2 PUSH2 0x416F JUMP JUMPDEST PUSH1 0x40 MLOAD DUP1 SWAP2 SUB SWAP1 LOG3 POP POP POP POP POP POP POP POP POP POP POP POP POP JUMP JUMPDEST PUSH1 0x0 DUP2 PUSH1 0x1 EQ PUSH2 0x2F92 JUMPI PUSH2 0x2F83 DUP3 PUSH2 0x3392 JUMP JUMPDEST PUSH2 0x2F8D SWAP1 DUP5 PUSH2 0x3F76 JUMP JUMPDEST PUSH2 0x615 JUMP JUMPDEST POP SWAP1 SWAP2 SWAP1 POP JUMP JUMPDEST PUSH1 0x0 PUSH2 0x615 DUP4 DUP4 PUSH2 0x33B3 JUMP JUMPDEST PUSH1 0x0 PUSH2 0x615 DUP4 DUP4 PUSH2 0x33BF JUMP JUMPDEST PUSH1 0x0 DUP1 PUSH1 0x0 DUP1 DUP8 PUSH1 0x40 ADD MLOAD ISZERO PUSH2 0x2FD1 JUMPI POP POP DUP6 MLOAD DUP4 SWAP3 POP DUP5 SWAP2 POP CALLER PUSH2 0x2FDE JUMP JUMPDEST POP POP DUP6 MLOAD DUP5 SWAP3 POP DUP4 SWAP2 POP CALLER SWAP1 JUMPDEST PUSH2 0x2FE9 DUP8 DUP3 DUP6 PUSH2 0x30F1 JUMP JUMPDEST PUSH2 0x3006 JUMPI PUSH1 0x40 MLOAD PUSH4 0x4DE4E1D PUSH1 0xE4 SHL DUP2 MSTORE PUSH1 0x4 ADD PUSH1 0x40 MLOAD DUP1 SWAP2 SUB SWAP1 REVERT JUMPDEST PUSH2 0x3010 DUP3 DUP6 PUSH2 0x32EC JUMP JUMPDEST PUSH2 0x302D JUMPI PUSH1 0x40 MLOAD PUSH4 0x4DE4E1D PUSH1 0xE4 SHL DUP2 MSTORE PUSH1 0x4 ADD PUSH1 0x40 MLOAD DUP1 SWAP2 SUB SWAP1 REVERT JUMPDEST PUSH1 0x80 DUP8 ADD MLOAD PUSH1 0x1 PUSH1 0x1 PUSH1 0xA0 SHL SUB AND PUSH1 0x0 SWAP1 DUP2 MSTORE PUSH1 0x8 PUSH1 0x20 MSTORE PUSH1 0x40 DUP2 KECCAK256 DUP1 SLOAD DUP7 SWAP3 SWAP1 PUSH2 0x3059 SWAP1 DUP5 SWAP1 PUSH2 0x3C65 JUMP JUMPDEST SWAP1 SWAP2 SSTORE POP POP PUSH1 0x80 DUP8 ADD MLOAD PUSH1 0x1 PUSH1 0x1 PUSH1 0xA0 SHL SUB AND PUSH1 0x0 SWAP1 DUP2 MSTORE PUSH1 0xA PUSH1 0x20 MSTORE PUSH1 0x40 SWAP1 KECCAK256 SLOAD DUP4 LT DUP1 ISZERO PUSH2 0x30B5 JUMPI PUSH1 0x80 DUP9 ADD MLOAD PUSH1 0x1 PUSH1 0x1 PUSH1 0xA0 SHL SUB AND PUSH1 0x0 SWAP1 DUP2 MSTORE PUSH1 0xA PUSH1 0x20 MSTORE PUSH1 0x40 DUP2 KECCAK256 DUP1 SLOAD DUP7 SWAP3 SWAP1 PUSH2 0x30AF SWAP1 DUP5 SWAP1 PUSH2 0x3C65 JUMP JUMPDEST SWAP1 SWAP2 SSTORE POP POP JUMPDEST PUSH1 0x80 DUP9 ADD MLOAD PUSH1 0x1 PUSH1 0x1 PUSH1 0xA0 SHL SUB AND PUSH1 0x0 SWAP1 DUP2 MSTORE PUSH1 0x9 PUSH1 0x20 MSTORE PUSH1 0x40 DUP2 KECCAK256 DUP1 SLOAD DUP7 SWAP3 SWAP1 PUSH2 0x30E1 SWAP1 DUP5 SWAP1 PUSH2 0x3C65 JUMP JUMPDEST SWAP1 SWAP2 SSTORE POP POP POP POP POP POP POP POP POP POP POP JUMP JUMPDEST PUSH2 0x160 DUP4 ADD MLOAD PUSH1 0x40 MLOAD PUSH4 0xA9059CBB PUSH1 0xE0 SHL DUP2 MSTORE PUSH1 0x0 SWAP2 PUSH1 0x1 PUSH1 0x1 PUSH1 0xA0 SHL SUB AND SWAP1 PUSH4 0xA9059CBB SWAP1 PUSH2 0x3127 SWAP1 DUP7 SWAP1 DUP7 SWAP1 PUSH1 0x4 ADD PUSH2 0x417D JUMP JUMPDEST PUSH1 0x20 PUSH1 0x40 MLOAD DUP1 DUP4 SUB DUP2 PUSH1 0x0 DUP8 GAS CALL SWAP3 POP POP POP DUP1 ISZERO PUSH2 0x3162 JUMPI POP PUSH1 0x40 DUP1 MLOAD PUSH1 0x1F RETURNDATASIZE SWAP1 DUP2 ADD PUSH1 0x1F NOT AND DUP3 ADD SWAP1 SWAP3 MSTORE PUSH2 0x315F SWAP2 DUP2 ADD SWAP1 PUSH2 0x3ECB JUMP JUMPDEST PUSH1 0x1 JUMPDEST PUSH2 0x316E JUMPI POP PUSH1 0x0 PUSH2 0x615 JUMP JUMPDEST DUP1 ISZERO PUSH2 0x1DCB JUMPI PUSH32 0xA84F763BE5BB36163517FB87C7AF39F875A97866FDF7806EB1B3EAC837AE35EA DUP4 DUP6 DUP8 PUSH1 0x80 ADD MLOAD PUSH1 0x40 MLOAD PUSH2 0x31AB SWAP4 SWAP3 SWAP2 SWAP1 PUSH2 0x4198 JUMP JUMPDEST PUSH1 0x40 MLOAD DUP1 SWAP2 SUB SWAP1 LOG1 SWAP1 POP PUSH2 0x615 JUMP JUMPDEST PUSH1 0x0 DUP1 DUP1 DUP1 DUP5 DUP2 DUP1 DUP1 DUP1 DUP1 JUMPDEST DUP6 MLOAD DUP2 LT DUP1 ISZERO PUSH2 0x31D4 JUMPI POP DUP4 ISZERO JUMPDEST ISZERO PUSH2 0x32C1 JUMPI DUP6 DUP2 DUP2 MLOAD DUP2 LT PUSH2 0x31EB JUMPI PUSH2 0x31EB PUSH2 0x3C0D JUMP JUMPDEST ADD PUSH1 0x20 ADD MLOAD PUSH1 0xF8 SHR SWAP5 POP PUSH1 0x30 DUP6 LT DUP1 ISZERO SWAP1 PUSH2 0x320A JUMPI POP PUSH1 0x39 DUP6 PUSH1 0xFF AND GT ISZERO JUMPDEST ISZERO PUSH2 0x3279 JUMPI DUP7 SWAP8 POP DUP3 ISZERO PUSH2 0x322A JUMPI DUP2 PUSH2 0x3222 DUP2 PUSH2 0x41C0 JUMP JUMPDEST SWAP3 POP POP PUSH2 0x3238 JUMP JUMPDEST PUSH2 0x3235 PUSH1 0xA DUP9 PUSH2 0x3F76 JUMP JUMPDEST SWAP7 POP JUMPDEST PUSH2 0x3243 DUP3 PUSH1 0xA PUSH2 0x42CB JUMP JUMPDEST PUSH2 0x324E PUSH1 0x30 DUP8 PUSH2 0x42E0 JUMP JUMPDEST PUSH1 0xFF AND PUSH2 0x325B SWAP2 SWAP1 PUSH2 0x3F76 JUMP JUMPDEST PUSH2 0x3265 SWAP1 DUP9 PUSH2 0x3CAD JUMP JUMPDEST SWAP7 POP DUP7 DUP9 GT ISZERO PUSH2 0x3274 JUMPI PUSH1 0x1 SWAP4 POP JUMPDEST PUSH2 0x32AF JUMP JUMPDEST DUP5 PUSH1 0xFF AND PUSH1 0x2E SUB PUSH2 0x32AF JUMPI DUP3 ISZERO PUSH2 0x328F JUMPI PUSH1 0x1 SWAP4 POP JUMPDEST PUSH1 0x1 SWAP3 POP PUSH1 0x12 SWAP2 POP PUSH2 0x32A2 DUP3 PUSH1 0xA PUSH2 0x42CB JUMP JUMPDEST PUSH2 0x32AC SWAP1 DUP9 PUSH2 0x3F76 JUMP JUMPDEST SWAP7 POP JUMPDEST DUP1 PUSH2 0x32B9 DUP2 PUSH2 0x3C78 JUMP JUMPDEST SWAP2 POP POP PUSH2 0x31C6 JUMP JUMPDEST POP DUP2 PUSH2 0x32DC JUMPI PUSH2 0x32D9 PUSH8 0xDE0B6B3A7640000 DUP8 PUSH2 0x3F76 JUMP JUMPDEST SWAP6 POP JUMPDEST POP SWAP4 SWAP9 SWAP1 ISZERO SWAP8 POP SWAP6 POP POP POP POP POP POP JUMP JUMPDEST PUSH1 0x0 DUP1 DUP4 PUSH1 0x1 PUSH1 0x1 PUSH1 0xA0 SHL SUB AND DUP4 PUSH1 0x40 MLOAD PUSH2 0x3306 SWAP1 PUSH2 0x42FD JUMP JUMPDEST PUSH1 0x0 PUSH1 0x40 MLOAD DUP1 DUP4 SUB DUP2 DUP6 DUP8 GAS CALL SWAP3 POP POP POP RETURNDATASIZE DUP1 PUSH1 0x0 DUP2 EQ PUSH2 0x3343 JUMPI PUSH1 0x40 MLOAD SWAP2 POP PUSH1 0x1F NOT PUSH1 0x3F RETURNDATASIZE ADD AND DUP3 ADD PUSH1 0x40 MSTORE RETURNDATASIZE DUP3 MSTORE RETURNDATASIZE PUSH1 0x0 PUSH1 0x20 DUP5 ADD RETURNDATACOPY PUSH2 0x3348 JUMP JUMPDEST PUSH1 0x60 SWAP2 POP JUMPDEST POP POP SWAP1 POP DUP1 ISZERO PUSH2 0x615 JUMPI PUSH32 0x897F9F8697C0FEE5ACFC2C885618E98D4F0882E71E35D182FACCC1915C01ECB DUP4 DUP6 PUSH1 0x40 MLOAD PUSH2 0x3383 SWAP3 SWAP2 SWAP1 PUSH2 0x4308 JUMP JUMPDEST PUSH1 0x40 MLOAD DUP1 SWAP2 SUB SWAP1 LOG1 SWAP4 SWAP3 POP POP POP JUMP JUMPDEST PUSH1 0x0 DUP2 PUSH1 0x12 SUB PUSH2 0x33A4 JUMPI POP PUSH1 0x1 SWAP2 SWAP1 POP JUMP JUMPDEST DUP2 PUSH1 0x12 SUB PUSH1 0xA EXP SWAP1 POP JUMPDEST SWAP2 SWAP1 POP JUMP JUMPDEST PUSH1 0x0 PUSH2 0x615 DUP4 DUP4 PUSH2 0x33D4 JUMP JUMPDEST PUSH1 0x0 PUSH2 0x615 DUP4 PUSH8 0xDE0B6B3A7640000 DUP5 PUSH2 0x3484 JUMP JUMPDEST PUSH1 0x0 DUP1 DUP1 PUSH1 0x0 NOT DUP5 DUP7 MULMOD DUP5 DUP7 MUL SWAP3 POP DUP3 DUP2 LT DUP4 DUP3 SUB SUB SWAP2 POP POP DUP1 PUSH1 0x0 SUB PUSH2 0x3408 JUMPI POP PUSH8 0xDE0B6B3A7640000 SWAP1 DIV SWAP1 POP PUSH2 0x45C JUMP JUMPDEST PUSH8 0xDE0B6B3A7640000 DUP2 LT PUSH2 0x3434 JUMPI DUP5 DUP5 PUSH1 0x40 MLOAD PUSH4 0x69E06FAF PUSH1 0xE1 SHL DUP2 MSTORE PUSH1 0x4 ADD PUSH2 0x133F SWAP3 SWAP2 SWAP1 PUSH2 0x4323 JUMP JUMPDEST PUSH1 0x0 PUSH8 0xDE0B6B3A7640000 DUP6 DUP8 MULMOD PUSH3 0x40000 DUP2 DUP6 SUB DIV SWAP4 LT SWAP1 SWAP2 SUB PUSH1 0x1 PUSH1 0xEE SHL MUL SWAP2 SWAP1 SWAP2 OR PUSH32 0xACCB18165BD6FE31AE1CF318DC5B51EEE0E1BA569B88CD74C1773B91FAC10669 MUL SWAP2 POP POP SWAP3 SWAP2 POP POP JUMP JUMPDEST PUSH1 0x0 DUP1 DUP1 PUSH1 0x0 NOT DUP6 DUP8 MULMOD DUP6 DUP8 MUL SWAP3 POP DUP3 DUP2 LT DUP4 DUP3 SUB SUB SWAP2 POP POP DUP1 PUSH1 0x0 SUB PUSH2 0x34BE JUMPI DUP4 DUP3 DUP2 PUSH2 0x34B4 JUMPI PUSH2 0x34B4 PUSH2 0x3F8E JUMP JUMPDEST DIV SWAP3 POP POP POP PUSH2 0x615 JUMP JUMPDEST DUP4 DUP2 LT PUSH2 0x34E4 JUMPI DUP6 DUP6 DUP6 PUSH1 0x40 MLOAD PUSH4 0x362CED09 PUSH1 0xE1 SHL DUP2 MSTORE PUSH1 0x4 ADD PUSH2 0x133F SWAP4 SWAP3 SWAP2 SWAP1 PUSH2 0x4331 JUMP JUMPDEST PUSH1 0x0 DUP5 DUP7 DUP9 MULMOD PUSH1 0x2 PUSH1 0x1 DUP8 NOT DUP2 ADD DUP9 AND SWAP8 DUP9 SWAP1 DIV PUSH1 0x3 DUP2 MUL DUP4 XOR DUP1 DUP3 MUL DUP5 SUB MUL DUP1 DUP3 MUL DUP5 SUB MUL DUP1 DUP3 MUL DUP5 SUB MUL DUP1 DUP3 MUL DUP5 SUB MUL DUP1 DUP3 MUL DUP5 SUB MUL SWAP1 DUP2 MUL SWAP1 SWAP3 SUB SWAP1 SWAP2 MUL PUSH1 0x0 DUP9 SWAP1 SUB DUP9 SWAP1 DIV SWAP1 SWAP2 ADD DUP6 DUP4 GT SWAP1 SWAP5 SUB SWAP4 SWAP1 SWAP4 MUL SWAP4 SUB SWAP5 SWAP1 SWAP5 DIV SWAP2 SWAP1 SWAP2 OR MUL SWAP5 SWAP4 POP POP POP POP JUMP JUMPDEST PUSH1 0x40 MLOAD DUP1 PUSH2 0x140 ADD PUSH1 0x40 MSTORE DUP1 PUSH1 0x0 DUP2 MSTORE PUSH1 0x20 ADD PUSH1 0x60 DUP2 MSTORE PUSH1 0x20 ADD PUSH1 0x60 DUP2 MSTORE PUSH1 0x20 ADD PUSH1 0x0 PUSH1 0x1 PUSH1 0x1 PUSH1 0xA0 SHL SUB AND DUP2 MSTORE PUSH1 0x20 ADD PUSH1 0x0 PUSH1 0x1 PUSH1 0x1 PUSH1 0xA0 SHL SUB AND DUP2 MSTORE PUSH1 0x20 ADD PUSH1 0x0 DUP2 MSTORE PUSH1 0x20 ADD PUSH1 0x0 DUP2 MSTORE PUSH1 0x20 ADD PUSH1 0x0 PUSH1 0x1 DUP2 GT ISZERO PUSH2 0x35AF JUMPI PUSH2 0x35AF PUSH2 0x36DE JUMP JUMPDEST DUP2 MSTORE PUSH1 0x20 ADD PUSH1 0x0 DUP2 MSTORE PUSH1 0x20 ADD PUSH1 0x0 DUP2 MSTORE POP SWAP1 JUMP JUMPDEST PUSH1 0x40 MLOAD DUP1 PUSH2 0x100 ADD PUSH1 0x40 MSTORE DUP1 PUSH1 0x0 PUSH1 0x1 PUSH1 0x1 PUSH1 0xA0 SHL SUB AND DUP2 MSTORE PUSH1 0x20 ADD PUSH1 0x0 PUSH1 0x1 PUSH1 0x1 PUSH1 0xA0 SHL SUB AND DUP2 MSTORE PUSH1 0x20 ADD PUSH1 0x0 ISZERO ISZERO DUP2 MSTORE PUSH1 0x20 ADD PUSH1 0x0 DUP2 MSTORE PUSH1 0x20 ADD PUSH1 0x0 DUP2 MSTORE PUSH1 0x20 ADD PUSH1 0x0 DUP2 MSTORE PUSH1 0x20 ADD PUSH1 0x0 DUP2 MSTORE PUSH1 0x20 ADD PUSH1 0x0 DUP2 MSTORE POP SWAP1 JUMP JUMPDEST DUP1 JUMPDEST DUP3 MSTORE POP POP JUMP JUMPDEST PUSH1 0x20 DUP2 ADD PUSH2 0x45C DUP3 DUP5 PUSH2 0x361C JUMP JUMPDEST DUP1 JUMPDEST DUP2 EQ PUSH2 0x363F JUMPI PUSH1 0x0 DUP1 REVERT JUMPDEST POP JUMP JUMPDEST DUP1 CALLDATALOAD PUSH2 0x45C DUP2 PUSH2 0x3632 JUMP JUMPDEST PUSH1 0x0 PUSH1 0x20 DUP3 DUP5 SUB SLT ISZERO PUSH2 0x3662 JUMPI PUSH2 0x3662 PUSH1 0x0 DUP1 REVERT JUMPDEST PUSH1 0x0 PUSH2 0x1DCB DUP5 DUP5 PUSH2 0x3642 JUMP JUMPDEST PUSH1 0x0 JUMPDEST DUP4 DUP2 LT ISZERO PUSH2 0x3689 JUMPI DUP2 DUP2 ADD MLOAD DUP4 DUP3 ADD MSTORE PUSH1 0x20 ADD PUSH2 0x3671 JUMP JUMPDEST POP POP PUSH1 0x0 SWAP2 ADD MSTORE JUMP JUMPDEST PUSH1 0x0 PUSH2 0x369C DUP3 MLOAD SWAP1 JUMP JUMPDEST DUP1 DUP5 MSTORE PUSH1 0x20 DUP5 ADD SWAP4 POP PUSH2 0x36B3 DUP2 DUP6 PUSH1 0x20 DUP7 ADD PUSH2 0x366E JUMP JUMPDEST PUSH1 0x1F ADD PUSH1 0x1F NOT AND SWAP3 SWAP1 SWAP3 ADD SWAP3 SWAP2 POP POP JUMP JUMPDEST PUSH1 0x0 PUSH1 0x1 PUSH1 0x1 PUSH1 0xA0 SHL SUB DUP3 AND PUSH2 0x45C JUMP JUMPDEST PUSH2 0x361E DUP2 PUSH2 0x36C4 JUMP JUMPDEST PUSH4 0x4E487B71 PUSH1 0xE0 SHL PUSH1 0x0 MSTORE PUSH1 0x21 PUSH1 0x4 MSTORE PUSH1 0x24 PUSH1 0x0 REVERT JUMPDEST PUSH1 0x2 DUP2 LT PUSH2 0x363F JUMPI PUSH2 0x363F PUSH2 0x36DE JUMP JUMPDEST DUP1 PUSH2 0x33AE DUP2 PUSH2 0x36F4 JUMP JUMPDEST PUSH1 0x0 PUSH2 0x45C DUP3 PUSH2 0x3704 JUMP JUMPDEST PUSH2 0x361E DUP2 PUSH2 0x370E JUMP JUMPDEST DUP1 MLOAD PUSH1 0x0 SWAP1 PUSH2 0x140 DUP5 ADD SWAP1 PUSH2 0x3737 DUP6 DUP3 PUSH2 0x361C JUMP JUMPDEST POP PUSH1 0x20 DUP4 ADD MLOAD DUP5 DUP3 SUB PUSH1 0x20 DUP7 ADD MSTORE PUSH2 0x374F DUP3 DUP3 PUSH2 0x3692 JUMP JUMPDEST SWAP2 POP POP PUSH1 0x40 DUP4 ADD MLOAD DUP5 DUP3 SUB PUSH1 0x40 DUP7 ADD MSTORE PUSH2 0x3769 DUP3 DUP3 PUSH2 0x3692 JUMP JUMPDEST SWAP2 POP POP PUSH1 0x60 DUP4 ADD MLOAD PUSH2 0x377E PUSH1 0x60 DUP7 ADD DUP3 PUSH2 0x36D5 JUMP JUMPDEST POP PUSH1 0x80 DUP4 ADD MLOAD PUSH2 0x3791 PUSH1 0x80 DUP7 ADD DUP3 PUSH2 0x36D5 JUMP JUMPDEST POP PUSH1 0xA0 DUP4 ADD MLOAD PUSH2 0x37A4 PUSH1 0xA0 DUP7 ADD DUP3 PUSH2 0x361C JUMP JUMPDEST POP PUSH1 0xC0 DUP4 ADD MLOAD PUSH2 0x37B7 PUSH1 0xC0 DUP7 ADD DUP3 PUSH2 0x361C JUMP JUMPDEST POP PUSH1 0xE0 DUP4 ADD MLOAD PUSH2 0x37CA PUSH1 0xE0 DUP7 ADD DUP3 PUSH2 0x3719 JUMP JUMPDEST POP PUSH2 0x100 DUP4 ADD MLOAD PUSH2 0x37DF PUSH2 0x100 DUP7 ADD DUP3 PUSH2 0x361C JUMP JUMPDEST POP PUSH2 0x120 DUP4 ADD MLOAD PUSH2 0x37F4 PUSH2 0x120 DUP7 ADD DUP3 PUSH2 0x361C JUMP JUMPDEST POP SWAP4 SWAP3 POP POP POP JUMP JUMPDEST PUSH1 0x20 DUP1 DUP3 MSTORE DUP2 ADD PUSH2 0x615 DUP2 DUP5 PUSH2 0x3722 JUMP JUMPDEST PUSH2 0x3634 DUP2 PUSH2 0x36C4 JUMP JUMPDEST DUP1 CALLDATALOAD PUSH2 0x45C DUP2 PUSH2 0x380D JUMP JUMPDEST PUSH1 0x0 DUP1 PUSH1 0x40 DUP4 DUP6 SUB SLT ISZERO PUSH2 0x3837 JUMPI PUSH2 0x3837 PUSH1 0x0 DUP1 REVERT JUMPDEST PUSH1 0x0 PUSH2 0x3843 DUP6 DUP6 PUSH2 0x3816 JUMP JUMPDEST SWAP3 POP POP PUSH1 0x20 PUSH2 0x3854 DUP6 DUP3 DUP7 ADD PUSH2 0x3642 JUMP JUMPDEST SWAP2 POP POP SWAP3 POP SWAP3 SWAP1 POP JUMP JUMPDEST DUP1 ISZERO ISZERO PUSH2 0x3634 JUMP JUMPDEST DUP1 CALLDATALOAD PUSH2 0x45C DUP2 PUSH2 0x385E JUMP JUMPDEST PUSH1 0x0 DUP1 PUSH1 0x40 DUP4 DUP6 SUB SLT ISZERO PUSH2 0x3887 JUMPI PUSH2 0x3887 PUSH1 0x0 DUP1 REVERT JUMPDEST PUSH1 0x0 PUSH2 0x3893 DUP6 DUP6 PUSH2 0x3816 JUMP JUMPDEST SWAP3 POP POP PUSH1 0x20 PUSH2 0x3854 DUP6 DUP3 DUP7 ADD PUSH2 0x3866 JUMP JUMPDEST DUP1 ISZERO ISZERO PUSH2 0x361E JUMP JUMPDEST DUP1 MLOAD PUSH2 0x100 DUP4 ADD SWAP1 PUSH2 0x38BE DUP5 DUP3 PUSH2 0x36D5 JUMP JUMPDEST POP PUSH1 0x20 DUP3 ADD MLOAD PUSH2 0x38D1 PUSH1 0x20 DUP6 ADD DUP3 PUSH2 0x36D5 JUMP JUMPDEST POP PUSH1 0x40 DUP3 ADD MLOAD PUSH2 0x38E4 PUSH1 0x40 DUP6 ADD DUP3 PUSH2 0x38A4 JUMP JUMPDEST POP PUSH1 0x60 DUP3 ADD MLOAD PUSH2 0x38F7 PUSH1 0x60 DUP6 ADD DUP3 PUSH2 0x361C JUMP JUMPDEST POP PUSH1 0x80 DUP3 ADD MLOAD PUSH2 0x390A PUSH1 0x80 DUP6 ADD DUP3 PUSH2 0x361C JUMP JUMPDEST POP PUSH1 0xA0 DUP3 ADD MLOAD PUSH2 0x391D PUSH1 0xA0 DUP6 ADD DUP3 PUSH2 0x361C JUMP JUMPDEST POP PUSH1 0xC0 DUP3 ADD MLOAD PUSH2 0x3930 PUSH1 0xC0 DUP6 ADD DUP3 PUSH2 0x361C JUMP JUMPDEST POP PUSH1 0xE0 DUP3 ADD MLOAD PUSH2 0x5C7 PUSH1 0xE0 DUP6 ADD DUP3 PUSH2 0x361C JUMP JUMPDEST PUSH2 0x100 DUP2 ADD PUSH2 0x45C DUP3 DUP5 PUSH2 0x38AC JUMP JUMPDEST PUSH4 0x4E487B71 PUSH1 0xE0 SHL PUSH1 0x0 MSTORE PUSH1 0x41 PUSH1 0x4 MSTORE PUSH1 0x24 PUSH1 0x0 REVERT JUMPDEST PUSH1 0x1F NOT PUSH1 0x1F DUP4 ADD AND DUP2 ADD DUP2 DUP2 LT PUSH8 0xFFFFFFFFFFFFFFFF DUP3 GT OR ISZERO PUSH2 0x398E JUMPI PUSH2 0x398E PUSH2 0x3952 JUMP JUMPDEST PUSH1 0x40 MSTORE POP POP JUMP JUMPDEST PUSH1 0x0 PUSH2 0x39A0 PUSH1 0x40 MLOAD SWAP1 JUMP JUMPDEST SWAP1 POP PUSH2 0x33AE DUP3 DUP3 PUSH2 0x3968 JUMP JUMPDEST PUSH1 0x0 PUSH8 0xFFFFFFFFFFFFFFFF DUP3 GT ISZERO PUSH2 0x39C6 JUMPI PUSH2 0x39C6 PUSH2 0x3952 JUMP JUMPDEST PUSH1 0x1F NOT PUSH1 0x1F DUP4 ADD AND PUSH1 0x20 ADD SWAP3 SWAP2 POP POP JUMP JUMPDEST DUP3 DUP2 DUP4 CALLDATACOPY POP PUSH1 0x0 SWAP2 ADD MSTORE JUMP JUMPDEST PUSH1 0x0 PUSH2 0x39F6 PUSH2 0x39F1 DUP5 PUSH2 0x39AC JUMP JUMPDEST PUSH2 0x3995 JUMP JUMPDEST SWAP1 POP DUP3 DUP2 MSTORE PUSH1 0x20 DUP2 ADD DUP5 DUP5 DUP5 ADD GT ISZERO PUSH2 0x3A11 JUMPI PUSH2 0x3A11 PUSH1 0x0 DUP1 REVERT JUMPDEST PUSH2 0x37F4 DUP5 DUP3 DUP6 PUSH2 0x39D7 JUMP JUMPDEST PUSH1 0x0 DUP3 PUSH1 0x1F DUP4 ADD SLT PUSH2 0x3A30 JUMPI PUSH2 0x3A30 PUSH1 0x0 DUP1 REVERT JUMPDEST DUP2 CALLDATALOAD PUSH2 0x1DCB DUP5 DUP3 PUSH1 0x20 DUP7 ADD PUSH2 0x39E3 JUMP JUMPDEST PUSH1 0x0 DUP1 PUSH1 0x0 DUP1 PUSH1 0x80 DUP6 DUP8 SUB SLT ISZERO PUSH2 0x3A59 JUMPI PUSH2 0x3A59 PUSH1 0x0 DUP1 REVERT JUMPDEST PUSH1 0x0 PUSH2 0x3A65 DUP8 DUP8 PUSH2 0x3816 JUMP JUMPDEST SWAP5 POP POP PUSH1 0x20 PUSH2 0x3A76 DUP8 DUP3 DUP9 ADD PUSH2 0x3642 JUMP JUMPDEST SWAP4 POP POP PUSH1 0x40 PUSH2 0x3A87 DUP8 DUP3 DUP9 ADD PUSH2 0x3642 JUMP JUMPDEST SWAP3 POP POP PUSH1 0x60 DUP6 ADD CALLDATALOAD PUSH8 0xFFFFFFFFFFFFFFFF DUP2 GT ISZERO PUSH2 0x3AA7 JUMPI PUSH2 0x3AA7 PUSH1 0x0 DUP1 REVERT JUMPDEST PUSH2 0x3AB3 DUP8 DUP3 DUP9 ADD PUSH2 0x3A1C JUMP JUMPDEST SWAP2 POP POP SWAP3 SWAP6 SWAP2 SWAP5 POP SWAP3 POP JUMP JUMPDEST PUSH1 0x0 DUP1 PUSH1 0x0 DUP1 PUSH1 0x80 DUP6 DUP8 SUB SLT ISZERO PUSH2 0x3AD8 JUMPI PUSH2 0x3AD8 PUSH1 0x0 DUP1 REVERT JUMPDEST PUSH1 0x0 PUSH2 0x3AE4 DUP8 DUP8 PUSH2 0x3816 JUMP JUMPDEST SWAP5 POP POP PUSH1 0x20 PUSH2 0x3AF5 DUP8 DUP3 DUP9 ADD PUSH2 0x3816 JUMP JUMPDEST SWAP4 POP POP PUSH1 0x40 PUSH2 0x3B06 DUP8 DUP3 DUP9 ADD PUSH2 0x3642 JUMP JUMPDEST SWAP3 POP POP PUSH1 0x60 PUSH2 0x3AB3 DUP8 DUP3 DUP9 ADD PUSH2 0x3642 JUMP JUMPDEST PUSH1 0x0 PUSH1 0x20 DUP3 DUP5 SUB SLT ISZERO PUSH2 0x3B2C JUMPI PUSH2 0x3B2C PUSH1 0x0 DUP1 REVERT JUMPDEST PUSH1 0x0 PUSH2 0x1DCB DUP5 DUP5 PUSH2 0x3816 JUMP JUMPDEST PUSH1 0x20 DUP2 ADD PUSH2 0x45C DUP3 DUP5 PUSH2 0x36D5 JUMP JUMPDEST PUSH1 0x0 DUP1 PUSH1 0x0 PUSH1 0x60 DUP5 DUP7 SUB SLT ISZERO PUSH2 0x3B5E JUMPI PUSH2 0x3B5E PUSH1 0x0 DUP1 REVERT JUMPDEST PUSH1 0x0 PUSH2 0x3B6A DUP7 DUP7 PUSH2 0x3816 JUMP JUMPDEST SWAP4 POP POP PUSH1 0x20 PUSH2 0x3B7B DUP7 DUP3 DUP8 ADD PUSH2 0x3816 JUMP JUMPDEST SWAP3 POP POP PUSH1 0x40 PUSH2 0x3B8C DUP7 DUP3 DUP8 ADD PUSH2 0x3642 JUMP JUMPDEST SWAP2 POP POP SWAP3 POP SWAP3 POP SWAP3 JUMP JUMPDEST PUSH2 0x100 DUP2 ADD PUSH2 0x3BA5 DUP3 DUP12 PUSH2 0x36D5 JUMP JUMPDEST PUSH2 0x3BB2 PUSH1 0x20 DUP4 ADD DUP11 PUSH2 0x36D5 JUMP JUMPDEST PUSH2 0x3BBF PUSH1 0x40 DUP4 ADD DUP10 PUSH2 0x38A4 JUMP JUMPDEST PUSH2 0x3BCC PUSH1 0x60 DUP4 ADD DUP9 PUSH2 0x361C JUMP JUMPDEST PUSH2 0x3BD9 PUSH1 0x80 DUP4 ADD DUP8 PUSH2 0x361C JUMP JUMPDEST PUSH2 0x3BE6 PUSH1 0xA0 DUP4 ADD DUP7 PUSH2 0x361C JUMP JUMPDEST PUSH2 0x3BF3 PUSH1 0xC0 DUP4 ADD DUP6 PUSH2 0x361C JUMP JUMPDEST PUSH2 0x3C00 PUSH1 0xE0 DUP4 ADD DUP5 PUSH2 0x361C JUMP JUMPDEST SWAP10 SWAP9 POP POP POP POP POP POP POP POP POP JUMP JUMPDEST PUSH4 0x4E487B71 PUSH1 0xE0 SHL PUSH1 0x0 MSTORE PUSH1 0x32 PUSH1 0x4 MSTORE PUSH1 0x24 PUSH1 0x0 REVERT JUMPDEST DUP1 MLOAD PUSH2 0x45C DUP2 PUSH2 0x3632 JUMP JUMPDEST PUSH1 0x0 PUSH1 0x20 DUP3 DUP5 SUB SLT ISZERO PUSH2 0x3C43 JUMPI PUSH2 0x3C43 PUSH1 0x0 DUP1 REVERT JUMPDEST PUSH1 0x0 PUSH2 0x1DCB DUP5 DUP5 PUSH2 0x3C23 JUMP JUMPDEST PUSH4 0x4E487B71 PUSH1 0xE0 SHL PUSH1 0x0 MSTORE PUSH1 0x11 PUSH1 0x4 MSTORE PUSH1 0x24 PUSH1 0x0 REVERT JUMPDEST DUP2 DUP2 SUB DUP2 DUP2 GT ISZERO PUSH2 0x45C JUMPI PUSH2 0x45C PUSH2 0x3C4F JUMP JUMPDEST PUSH1 0x0 PUSH1 0x0 NOT DUP3 SUB PUSH2 0x3C8B JUMPI PUSH2 0x3C8B PUSH2 0x3C4F JUMP JUMPDEST POP PUSH1 0x1 ADD SWAP1 JUMP JUMPDEST PUSH1 0x0 DUP2 JUMPDEST SWAP2 POP DUP2 PUSH2 0x3CA5 JUMPI PUSH2 0x3CA5 PUSH2 0x3C4F JUMP JUMPDEST POP PUSH1 0x0 NOT ADD SWAP1 JUMP JUMPDEST DUP1 DUP3 ADD DUP1 DUP3 GT ISZERO PUSH2 0x45C JUMPI PUSH2 0x45C PUSH2 0x3C4F JUMP JUMPDEST PUSH1 0x40 DUP2 ADD PUSH2 0x3CCE DUP3 DUP6 PUSH2 0x36D5 JUMP JUMPDEST PUSH2 0x615 PUSH1 0x20 DUP4 ADD DUP5 PUSH2 0x36D5 JUMP JUMPDEST PUSH4 0x4E487B71 PUSH1 0xE0 SHL PUSH1 0x0 MSTORE PUSH1 0x22 PUSH1 0x4 MSTORE PUSH1 0x24 PUSH1 0x0 REVERT JUMPDEST PUSH1 0x2 DUP2 DIV PUSH1 0x1 DUP3 AND DUP1 PUSH2 0x3D05 JUMPI PUSH1 0x7F DUP3 AND SWAP2 POP JUMPDEST PUSH1 0x20 DUP3 LT DUP2 SUB PUSH2 0x3D17 JUMPI PUSH2 0x3D17 PUSH2 0x3CDB JUMP JUMPDEST POP SWAP2 SWAP1 POP JUMP JUMPDEST PUSH1 0x0 PUSH2 0x45C PUSH1 0x1 PUSH1 0x1 PUSH1 0xA0 SHL SUB DUP4 AND PUSH2 0x3D34 JUMP JUMPDEST SWAP1 JUMP JUMPDEST PUSH1 0x1 PUSH1 0x1 PUSH1 0xA0 SHL SUB AND SWAP1 JUMP JUMPDEST PUSH1 0x0 PUSH2 0x45C DUP3 PUSH2 0x3D1D JUMP JUMPDEST PUSH1 0x0 PUSH2 0x45C DUP3 PUSH2 0x3D40 JUMP JUMPDEST PUSH2 0x361E DUP2 PUSH2 0x3D4B JUMP JUMPDEST PUSH1 0xE0 DUP2 ADD PUSH2 0x3D6D DUP3 DUP11 PUSH2 0x361C JUMP JUMPDEST PUSH2 0x3D7A PUSH1 0x20 DUP4 ADD DUP10 PUSH2 0x38A4 JUMP JUMPDEST PUSH2 0x3D87 PUSH1 0x40 DUP4 ADD DUP9 PUSH2 0x3D56 JUMP JUMPDEST PUSH2 0x3D94 PUSH1 0x60 DUP4 ADD DUP8 PUSH2 0x36D5 JUMP JUMPDEST PUSH2 0x3DA1 PUSH1 0x80 DUP4 ADD DUP7 PUSH2 0x36D5 JUMP JUMPDEST PUSH2 0x3DAE PUSH1 0xA0 DUP4 ADD DUP6 PUSH2 0x361C JUMP JUMPDEST PUSH2 0x3DBB PUSH1 0xC0 DUP4 ADD DUP5 PUSH2 0x38A4 JUMP JUMPDEST SWAP9 SWAP8 POP POP POP POP POP POP POP POP JUMP JUMPDEST PUSH1 0x0 PUSH2 0x3DD5 PUSH2 0x39F1 DUP5 PUSH2 0x39AC JUMP JUMPDEST SWAP1 POP DUP3 DUP2 MSTORE PUSH1 0x20 DUP2 ADD DUP5 DUP5 DUP5 ADD GT ISZERO PUSH2 0x3DF0 JUMPI PUSH2 0x3DF0 PUSH1 0x0 DUP1 REVERT JUMPDEST PUSH2 0x37F4 DUP5 DUP3 DUP6 PUSH2 0x366E JUMP JUMPDEST PUSH1 0x0 DUP3 PUSH1 0x1F DUP4 ADD SLT PUSH2 0x3E0F JUMPI PUSH2 0x3E0F PUSH1 0x0 DUP1 REVERT JUMPDEST DUP2 MLOAD PUSH2 0x1DCB DUP5 DUP3 PUSH1 0x20 DUP7 ADD PUSH2 0x3DC7 JUMP JUMPDEST PUSH1 0x0 PUSH1 0x20 DUP3 DUP5 SUB SLT ISZERO PUSH2 0x3E34 JUMPI PUSH2 0x3E34 PUSH1 0x0 DUP1 REVERT JUMPDEST DUP2 MLOAD PUSH8 0xFFFFFFFFFFFFFFFF DUP2 GT ISZERO PUSH2 0x3E4E JUMPI PUSH2 0x3E4E PUSH1 0x0 DUP1 REVERT JUMPDEST PUSH2 0x1DCB DUP5 DUP3 DUP6 ADD PUSH2 0x3DFB JUMP JUMPDEST PUSH1 0x60 DUP2 ADD PUSH2 0x3E68 DUP3 DUP7 PUSH2 0x361C JUMP JUMPDEST PUSH2 0x3E75 PUSH1 0x20 DUP4 ADD DUP6 PUSH2 0x38A4 JUMP JUMPDEST PUSH2 0x1DCB PUSH1 0x40 DUP4 ADD DUP5 PUSH2 0x3D56 JUMP JUMPDEST PUSH4 0x4E487B71 PUSH1 0xE0 SHL PUSH1 0x0 MSTORE PUSH1 0x31 PUSH1 0x4 MSTORE PUSH1 0x24 PUSH1 0x0 REVERT JUMPDEST PUSH1 0x60 DUP2 ADD PUSH2 0x3EA6 DUP3 DUP7 PUSH2 0x36D5 JUMP JUMPDEST PUSH2 0x3EB3 PUSH1 0x20 DUP4 ADD DUP6 PUSH2 0x36D5 JUMP JUMPDEST PUSH2 0x1DCB PUSH1 0x40 DUP4 ADD DUP5 PUSH2 0x361C JUMP JUMPDEST DUP1 MLOAD PUSH2 0x45C DUP2 PUSH2 0x385E JUMP JUMPDEST PUSH1 0x0 PUSH1 0x20 DUP3 DUP5 SUB SLT ISZERO PUSH2 0x3EE0 JUMPI PUSH2 0x3EE0 PUSH1 0x0 DUP1 REVERT JUMPDEST PUSH1 0x0 PUSH2 0x1DCB DUP5 DUP5 PUSH2 0x3EC0 JUMP JUMPDEST PUSH1 0xA0 DUP2 ADD PUSH2 0x3EFA DUP3 DUP9 PUSH2 0x361C JUMP JUMPDEST PUSH2 0x3F07 PUSH1 0x20 DUP4 ADD DUP8 PUSH2 0x38A4 JUMP JUMPDEST PUSH2 0x3F14 PUSH1 0x40 DUP4 ADD DUP7 PUSH2 0x36D5 JUMP JUMPDEST PUSH2 0x3F21 PUSH1 0x60 DUP4 ADD DUP6 PUSH2 0x361C JUMP JUMPDEST PUSH2 0x3F2E PUSH1 0x80 DUP4 ADD DUP5 PUSH2 0x361C JUMP JUMPDEST SWAP7 SWAP6 POP POP POP POP POP POP JUMP JUMPDEST PUSH1 0x80 DUP2 ADD PUSH2 0x3F46 DUP3 DUP8 PUSH2 0x361C JUMP JUMPDEST PUSH2 0x3F53 PUSH1 0x20 DUP4 ADD DUP7 PUSH2 0x38A4 JUMP JUMPDEST PUSH2 0x3F60 PUSH1 0x40 DUP4 ADD DUP6 PUSH2 0x3D56 JUMP JUMPDEST PUSH2 0x3F6D PUSH1 0x60 DUP4 ADD DUP5 PUSH2 0x38A4 JUMP JUMPDEST SWAP6 SWAP5 POP POP POP POP POP JUMP JUMPDEST DUP2 DUP2 MUL DUP1 DUP3 ISZERO DUP4 DUP3 DIV DUP6 EQ OR PUSH2 0x2802 JUMPI PUSH2 0x2802 PUSH2 0x3C4F JUMP JUMPDEST PUSH4 0x4E487B71 PUSH1 0xE0 SHL PUSH1 0x0 MSTORE PUSH1 0x12 PUSH1 0x4 MSTORE PUSH1 0x24 PUSH1 0x0 REVERT JUMPDEST PUSH1 0x0 DUP3 PUSH2 0x3FB3 JUMPI PUSH2 0x3FB3 PUSH2 0x3F8E JUMP JUMPDEST POP DIV SWAP1 JUMP JUMPDEST PUSH1 0xFF DUP2 AND PUSH2 0x3634 JUMP JUMPDEST DUP1 MLOAD PUSH2 0x45C DUP2 PUSH2 0x3FB8 JUMP JUMPDEST PUSH1 0x0 PUSH1 0x20 DUP3 DUP5 SUB SLT ISZERO PUSH2 0x3FE1 JUMPI PUSH2 0x3FE1 PUSH1 0x0 DUP1 REVERT JUMPDEST PUSH1 0x0 PUSH2 0x1DCB DUP5 DUP5 PUSH2 0x3FC1 JUMP JUMPDEST PUSH1 0x0 PUSH2 0x45C PUSH2 0x3D31 DUP4 DUP2 JUMP JUMPDEST PUSH2 0x4002 DUP4 PUSH2 0x3FED JUMP JUMPDEST DUP2 SLOAD PUSH1 0x0 NOT PUSH1 0x8 SWAP5 SWAP1 SWAP5 MUL SWAP4 DUP5 SHL NOT AND SWAP3 SHL SWAP2 SWAP1 SWAP2 OR SWAP1 SSTORE POP JUMP JUMPDEST PUSH1 0x0 PUSH2 0xABD DUP2 DUP5 DUP5 PUSH2 0x3FF9 JUMP JUMPDEST DUP2 DUP2 LT ISZERO PUSH2 0x46D JUMPI PUSH2 0x403D PUSH1 0x0 DUP3 PUSH2 0x401D JUMP JUMPDEST PUSH1 0x1 ADD PUSH2 0x402A JUMP JUMPDEST PUSH1 0x1F DUP3 GT ISZERO PUSH2 0xABD JUMPI PUSH1 0x0 DUP2 DUP2 MSTORE PUSH1 0x20 SWAP1 KECCAK256 PUSH1 0x20 PUSH1 0x1F DUP6 ADD DIV DUP2 ADD PUSH1 0x20 DUP6 LT ISZERO PUSH2 0x406C JUMPI POP DUP1 JUMPDEST PUSH2 0x67E PUSH1 0x20 PUSH1 0x1F DUP7 ADD DIV DUP4 ADD DUP3 PUSH2 0x402A JUMP JUMPDEST DUP2 MLOAD PUSH8 0xFFFFFFFFFFFFFFFF DUP2 GT ISZERO PUSH2 0x4098 JUMPI PUSH2 0x4098 PUSH2 0x3952 JUMP JUMPDEST PUSH2 0x40A2 DUP3 SLOAD PUSH2 0x3CF1 JUMP JUMPDEST PUSH2 0x40AD DUP3 DUP3 DUP6 PUSH2 0x4045 JUMP JUMPDEST PUSH1 0x20 PUSH1 0x1F DUP4 GT PUSH1 0x1 DUP2 EQ PUSH2 0x40E1 JUMPI PUSH1 0x0 DUP5 ISZERO PUSH2 0x40C9 JUMPI POP DUP6 DUP3 ADD MLOAD JUMPDEST PUSH1 0x0 NOT PUSH1 0x8 DUP7 MUL SHR NOT DUP2 AND PUSH1 0x2 DUP7 MUL OR DUP7 SSTORE POP PUSH2 0xE9A JUMP JUMPDEST PUSH1 0x0 DUP6 DUP2 MSTORE PUSH1 0x20 DUP2 KECCAK256 PUSH1 0x1F NOT DUP7 AND SWAP2 JUMPDEST DUP3 DUP2 LT ISZERO PUSH2 0x4111 JUMPI DUP9 DUP6 ADD MLOAD DUP3 SSTORE PUSH1 0x20 SWAP5 DUP6 ADD SWAP5 PUSH1 0x1 SWAP1 SWAP3 ADD SWAP2 ADD PUSH2 0x40F1 JUMP JUMPDEST DUP7 DUP4 LT ISZERO PUSH2 0x412D JUMPI DUP5 DUP10 ADD MLOAD PUSH1 0x0 NOT PUSH1 0x1F DUP10 AND PUSH1 0x8 MUL SHR NOT AND DUP3 SSTORE JUMPDEST PUSH1 0x1 PUSH1 0x2 DUP9 MUL ADD DUP9 SSTORE POP POP POP POP POP POP POP POP POP JUMP JUMPDEST PUSH1 0x0 PUSH2 0x414B DUP3 MLOAD SWAP1 JUMP JUMPDEST PUSH2 0x4159 DUP2 DUP6 PUSH1 0x20 DUP7 ADD PUSH2 0x366E JUMP JUMPDEST SWAP3 SWAP1 SWAP3 ADD SWAP3 SWAP2 POP POP JUMP JUMPDEST PUSH1 0x0 PUSH2 0x615 DUP3 DUP5 PUSH2 0x4141 JUMP JUMPDEST PUSH1 0x60 DUP2 ADD PUSH2 0x3EA6 DUP3 DUP7 PUSH2 0x3719 JUMP JUMPDEST PUSH1 0x40 DUP2 ADD PUSH2 0x418B DUP3 DUP6 PUSH2 0x36D5 JUMP JUMPDEST PUSH2 0x615 PUSH1 0x20 DUP4 ADD DUP5 PUSH2 0x361C JUMP JUMPDEST PUSH1 0x60 DUP2 ADD PUSH2 0x41A6 DUP3 DUP7 PUSH2 0x361C JUMP JUMPDEST PUSH2 0x41B3 PUSH1 0x20 DUP4 ADD DUP6 PUSH2 0x36D5 JUMP JUMPDEST PUSH2 0x1DCB PUSH1 0x40 DUP4 ADD DUP5 PUSH2 0x36D5 JUMP JUMPDEST PUSH1 0x0 PUSH1 0xFF DUP3 AND PUSH2 0x3C96 JUMP JUMPDEST DUP1 DUP3 JUMPDEST PUSH1 0x1 DUP6 GT ISZERO PUSH2 0x257C JUMPI DUP1 DUP7 DIV DUP2 GT ISZERO PUSH2 0x41E9 JUMPI PUSH2 0x41E9 PUSH2 0x3C4F JUMP JUMPDEST PUSH1 0x1 DUP6 AND ISZERO PUSH2 0x41F7 JUMPI SWAP1 DUP2 MUL SWAP1 JUMPDEST DUP1 MUL PUSH2 0x4203 DUP6 PUSH1 0x1 SHR SWAP1 JUMP JUMPDEST SWAP5 POP PUSH2 0x41CE JUMP JUMPDEST PUSH1 0x0 DUP3 PUSH2 0x4219 JUMPI POP PUSH1 0x1 PUSH2 0x615 JUMP JUMPDEST DUP2 PUSH2 0x4226 JUMPI POP PUSH1 0x0 PUSH2 0x615 JUMP JUMPDEST DUP2 PUSH1 0x1 DUP2 EQ PUSH2 0x423C JUMPI PUSH1 0x2 DUP2 EQ PUSH2 0x4246 JUMPI PUSH2 0x4273 JUMP JUMPDEST PUSH1 0x1 SWAP2 POP POP PUSH2 0x615 JUMP JUMPDEST PUSH1 0xFF DUP5 GT ISZERO PUSH2 0x4257 JUMPI PUSH2 0x4257 PUSH2 0x3C4F JUMP JUMPDEST DUP4 PUSH1 0x2 EXP SWAP2 POP DUP5 DUP3 GT ISZERO PUSH2 0x426D JUMPI PUSH2 0x426D PUSH2 0x3C4F JUMP JUMPDEST POP PUSH2 0x615 JUMP JUMPDEST POP PUSH1 0x20 DUP4 LT PUSH2 0x133 DUP4 LT AND PUSH1 0x4E DUP5 LT PUSH1 0xB DUP5 LT AND OR ISZERO PUSH2 0x42A1 JUMPI POP DUP2 DUP2 EXP DUP4 DUP2 GT ISZERO PUSH2 0x2F8D JUMPI PUSH2 0x2F8D PUSH2 0x3C4F JUMP JUMPDEST PUSH2 0x42AE DUP5 DUP5 DUP5 PUSH1 0x1 PUSH2 0x41CB JUMP JUMPDEST SWAP3 POP SWAP1 POP DUP2 DUP5 DIV DUP2 GT ISZERO PUSH2 0x42C4 JUMPI PUSH2 0x42C4 PUSH2 0x3C4F JUMP JUMPDEST MUL SWAP3 SWAP2 POP POP JUMP JUMPDEST PUSH1 0x0 PUSH1 0xFF DUP4 AND SWAP3 POP PUSH2 0x615 PUSH1 0x0 NOT DUP5 DUP5 PUSH2 0x420A JUMP JUMPDEST PUSH1 0xFF SWAP2 DUP3 AND SWAP2 SWAP1 DUP2 AND SWAP1 DUP3 DUP3 SUB SWAP1 DUP2 GT ISZERO PUSH2 0x45C JUMPI PUSH2 0x45C PUSH2 0x3C4F JUMP JUMPDEST PUSH1 0x0 PUSH2 0x45C DUP3 PUSH2 0x3D31 JUMP JUMPDEST PUSH1 0x40 DUP2 ADD PUSH2 0x4316 DUP3 DUP6 PUSH2 0x361C JUMP JUMPDEST PUSH2 0x615 PUSH1 0x20 DUP4 ADD DUP5 PUSH2 0x3D56 JUMP JUMPDEST PUSH1 0x40 DUP2 ADD PUSH2 0x418B DUP3 DUP6 PUSH2 0x361C JUMP JUMPDEST PUSH1 0x60 DUP2 ADD PUSH2 0x433F DUP3 DUP7 PUSH2 0x361C JUMP JUMPDEST PUSH2 0x3EB3 PUSH1 0x20 DUP4 ADD DUP6 PUSH2 0x361C JUMP INVALID LOG2 PUSH5 0x6970667358 0x22 SLT KECCAK256 RETURN PUSH21 0xBE56AFFF6406F4A759EA6234D7B9B99B43A8A4C6CE SWAP7 DIV PUSH13 0x70FED5871B5264736F6C634300 ADDMOD AND STOP CALLER "},"methodIdentifiers":{"assignPriceDAO(address)":"86f179d2","clearOrders()":"9351769f","createBuyOrder(address)":"d2980065","createSellOrder(address,uint256)":"a262b73f","deposit(address)":"f340fa01","depositToken(address,uint256)":"338b5dea","depositTokenFrom(address,address,uint256)":"a08b5bba","getBalance()":"12065fe0","listParityToken(address,address,uint256,uint256)":"5264c8d9","listToken(address,uint256,uint256,string)":"4d9ea07d","listingCost()":"a5b6f92a","orders(uint256)":"a85c38ef","owner()":"8da5cb5b","queryBalance(address,bool)":"3b174f0f","settleOrders(address,bool)":"c201e47c","takeBuyOrder(address,uint256)":"db34a679","takeSellOrder(address)":"6daf6945","transferOwnership(address)":"f2fde38b","updateTokenBalance(address)":"87b337e8","viewOrder(uint256)":"7c38d663","viewOrderByToken(address,uint256)":"3ef73856","viewPrice()":"d7dcdcec","viewToken(address)":"673cf82a","viewTokenByIndex(uint256)":"1f5d2641"}}}}}