{"contracts/mockups/MockERC20.sol":{"MockERC20":{"abi":[{"anonymous":false,"inputs":[{"indexed":true,"internalType":"address","name":"owner","type":"address"},{"indexed":true,"internalType":"address","name":"spender","type":"address"},{"indexed":false,"internalType":"uint256","name":"value","type":"uint256"}],"name":"Approval","type":"event"},{"anonymous":false,"inputs":[{"indexed":true,"internalType":"address","name":"from","type":"address"},{"indexed":true,"internalType":"address","name":"to","type":"address"},{"indexed":false,"internalType":"uint256","name":"value","type":"uint256"}],"name":"Transfer","type":"event"},{"inputs":[{"internalType":"address","name":"owner","type":"address"},{"internalType":"address","name":"spender","type":"address"}],"name":"allowance","outputs":[{"internalType":"uint256","name":"","type":"uint256"}],"stateMutability":"pure","type":"function"},{"inputs":[{"internalType":"address","name":"spender","type":"address"},{"internalType":"uint256","name":"value","type":"uint256"}],"name":"approve","outputs":[{"internalType":"bool","name":"","type":"bool"}],"stateMutability":"pure","type":"function"},{"inputs":[{"internalType":"address","name":"account","type":"address"}],"name":"balanceOf","outputs":[{"internalType":"uint256","name":"","type":"uint256"}],"stateMutability":"view","type":"function"},{"inputs":[],"name":"decimals","outputs":[{"internalType":"uint8","name":"","type":"uint8"}],"stateMutability":"view","type":"function"},{"inputs":[],"name":"name","outputs":[{"internalType":"string","name":"","type":"string"}],"stateMutability":"view","type":"function"},{"inputs":[{"internalType":"address","name":"addr","type":"address"},{"internalType":"uint256","name":"balance","type":"uint256"}],"name":"setBalance","outputs":[],"stateMutability":"nonpayable","type":"function"},{"inputs":[{"internalType":"uint8","name":"dec","type":"uint8"}],"name":"setDecimals","outputs":[],"stateMutability":"nonpayable","type":"function"},{"inputs":[{"internalType":"string","name":"szName","type":"string"}],"name":"setName","outputs":[],"stateMutability":"nonpayable","type":"function"},{"inputs":[{"internalType":"string","name":"szSym","type":"string"}],"name":"setSymbol","outputs":[],"stateMutability":"nonpayable","type":"function"},{"inputs":[],"name":"symbol","outputs":[{"internalType":"string","name":"","type":"string"}],"stateMutability":"view","type":"function"},{"inputs":[],"name":"totalSupply","outputs":[{"internalType":"uint256","name":"","type":"uint256"}],"stateMutability":"pure","type":"function"},{"inputs":[{"internalType":"address","name":"to","type":"address"},{"internalType":"uint256","name":"value","type":"uint256"}],"name":"transfer","outputs":[{"internalType":"bool","name":"","type":"bool"}],"stateMutability":"nonpayable","type":"function"},{"inputs":[{"internalType":"address","name":"from","type":"address"},{"internalType":"address","name":"to","type":"address"},{"internalType":"uint256","name":"value","type":"uint256"}],"name":"transferFrom","outputs":[{"internalType":"bool","name":"","type":"bool"}],"stateMutability":"nonpayable","type":"function"}],"evm":{"bytecode":{"linkReferences":{},"object":"60c0604052600960809081526804d6f636b45524332360bc1b60a0526001906200002a90826200018f565b5060408051808201909152600881526704d434b45524332360c41b60208201526002906200005990826200018f565b506003805460ff191660121790553480156200007457600080fd5b506200025f565b634e487b7160e01b600052604160045260246000fd5b634e487b7160e01b600052602260045260246000fd5b600281046001821680620000bc57607f821691505b602082108103620000d157620000d162000091565b50919050565b6000620000e8620000e58381565b90565b92915050565b620000f983620000d7565b815460001960089490940293841b1916921b91909117905550565b600062000123818484620000ee565b505050565b8181101562000147576200013e60008262000114565b60010162000128565b5050565b601f82111562000123576000818152602090206020601f85010481016020851015620001745750805b620001886020601f86010483018262000128565b5050505050565b81516001600160401b03811115620001ab57620001ab6200007b565b620001b78254620000a7565b620001c48282856200014b565b6020601f831160018114620001fb5760008415620001e25750858201515b600019600886021c198116600286021786555062000257565b600085815260208120601f198616915b828110156200022d57888501518255602094850194600190920191016200020b565b868310156200024a5784890151600019601f89166008021c191682555b6001600288020188555050505b505050505050565b61094f806200026f6000396000f3fe608060405234801561001057600080fd5b50600436106100df5760003560e01c80637a1395aa1161008c578063b84c824611610066578063b84c8246146101c3578063c47f0027146101d6578063dd62ed3e146101e9578063e30443bc146101ff57600080fd5b80637a1395aa1461018257806395d89b41146101a8578063a9059cbb146101b057600080fd5b806323b872dd116100bd57806323b872dd14610133578063313ce5671461014657806370a082311461015957600080fd5b806306fdde03146100e4578063095ea7b31461010257806318160ddd14610122575b600080fd5b6100ec610229565b6040516100f99190610444565b60405180910390f35b6101156101103660046104a0565b6102bb565b6040516100f991906104e7565b6000195b6040516100f991906104fb565b610115610141366004610509565b6102c4565b60035460ff166040516100f99190610562565b610126610167366004610570565b6001600160a01b031660009081526020819052604090205490565b6101a66101903660046105ad565b6003805460ff191660ff92909216919091179055565b005b6100ec61034d565b6101156101be3660046104a0565b61035c565b6101a66101d13660046106c9565b6103d2565b6101a66101e43660046106c9565b6103e2565b6101266101f7366004610704565b600092915050565b6101a661020d3660046104a0565b6001600160a01b03909116600090815260208190526040902055565b6060600180546102389061074d565b80601f01602080910402602001604051908101604052809291908181526020018280546102649061074d565b80156102b15780601f10610286576101008083540402835291602001916102b1565b820191906000526020600020905b81548152906001019060200180831161029457829003601f168201915b5050505050905090565b60015b92915050565b6001600160a01b0383166000908152602081905260408120548211156102e957600080fd5b6001600160a01b0384166000908152602081905260408120805484929061031190849061078f565b90915550506001600160a01b0383166000908152602081905260408120805484929061033e9084906107a2565b90915550600195945050505050565b6060600280546102389061074d565b3360009081526020819052604081205482111561037857600080fd5b336000908152602081905260408120805484929061039790849061078f565b90915550506001600160a01b038316600090815260208190526040812080548492906103c49084906107a2565b909155506001949350505050565b60026103de8282610855565b5050565b60016103de8282610855565b60005b838110156104095781810151838201526020016103f1565b50506000910152565b600061041c825190565b8084526020840193506104338185602086016103ee565b601f01601f19169290920192915050565b602080825281016104558184610412565b9392505050565b60006001600160a01b0382166102be565b6104768161045c565b811461048157600080fd5b50565b80356102be8161046d565b80610476565b80356102be8161048f565b600080604083850312156104b6576104b6600080fd5b60006104c28585610484565b92505060206104d385828601610495565b9150509250929050565b8015155b82525050565b602081016102be82846104dd565b806104e1565b602081016102be82846104f5565b60008060006060848603121561052157610521600080fd5b600061052d8686610484565b935050602061053e86828701610484565b925050604061054f86828701610495565b9150509250925092565b60ff81166104e1565b602081016102be8284610559565b60006020828403121561058557610585600080fd5b60006105918484610484565b949350505050565b60ff8116610476565b80356102be81610599565b6000602082840312156105c2576105c2600080fd5b600061059184846105a2565b634e487b7160e01b600052604160045260246000fd5b601f19601f830116810181811067ffffffffffffffff8211171561060a5761060a6105ce565b6040525050565b600061061c60405190565b905061062882826105e4565b919050565b600067ffffffffffffffff821115610647576106476105ce565b601f19601f83011660200192915050565b82818337506000910152565b60006106776106728461062d565b610611565b90508281526020810184848401111561069257610692600080fd5b61069d848285610658565b509392505050565b600082601f8301126106b9576106b9600080fd5b8135610591848260208601610664565b6000602082840312156106de576106de600080fd5b813567ffffffffffffffff8111156106f8576106f8600080fd5b610591848285016106a5565b6000806040838503121561071a5761071a600080fd5b60006107268585610484565b92505060206104d385828601610484565b634e487b7160e01b600052602260045260246000fd5b60028104600182168061076157607f821691505b60208210810361077357610773610737565b50919050565b634e487b7160e01b600052601160045260246000fd5b818103818111156102be576102be610779565b808201808211156102be576102be610779565b60006102be6107c18381565b90565b6107cd836107b5565b815460001960089490940293841b1916921b91909117905550565b60006107f58184846107c4565b505050565b818110156103de5761080d6000826107e8565b6001016107fa565b601f8211156107f5576000818152602090206020601f8501048101602085101561083c5750805b61084e6020601f8601048301826107fa565b5050505050565b815167ffffffffffffffff81111561086f5761086f6105ce565b610879825461074d565b610884828285610815565b6020601f8311600181146108b857600084156108a05750858201515b600019600886021c1981166002860217865550610911565b600085815260208120601f198616915b828110156108e857888501518255602094850194600190920191016108c8565b868310156109045784890151600019601f89166008021c191682555b6001600288020188555050505b50505050505056fea2646970667358221220eafe584da6f3b52804b8a6c1604ac65c714782f57f76a1cf5b12e932e0c3c50c64736f6c63430008160033","opcodes":"PUSH1 0xC0 PUSH1 0x40 MSTORE PUSH1 0x9 PUSH1 0x80 SWAP1 DUP2 MSTORE PUSH9 0x4D6F636B455243323 PUSH1 0xBC SHL PUSH1 0xA0 MSTORE PUSH1 0x1 SWAP1 PUSH3 0x2A SWAP1 DUP3 PUSH3 0x18F JUMP JUMPDEST POP PUSH1 0x40 DUP1 MLOAD DUP1 DUP3 ADD SWAP1 SWAP2 MSTORE PUSH1 0x8 DUP2 MSTORE PUSH8 0x4D434B455243323 PUSH1 0xC4 SHL PUSH1 0x20 DUP3 ADD MSTORE PUSH1 0x2 SWAP1 PUSH3 0x59 SWAP1 DUP3 PUSH3 0x18F JUMP JUMPDEST POP PUSH1 0x3 DUP1 SLOAD PUSH1 0xFF NOT AND PUSH1 0x12 OR SWAP1 SSTORE CALLVALUE DUP1 ISZERO PUSH3 0x74 JUMPI PUSH1 0x0 DUP1 REVERT JUMPDEST POP PUSH3 0x25F JUMP JUMPDEST PUSH4 0x4E487B71 PUSH1 0xE0 SHL PUSH1 0x0 MSTORE PUSH1 0x41 PUSH1 0x4 MSTORE PUSH1 0x24 PUSH1 0x0 REVERT JUMPDEST PUSH4 0x4E487B71 PUSH1 0xE0 SHL PUSH1 0x0 MSTORE PUSH1 0x22 PUSH1 0x4 MSTORE PUSH1 0x24 PUSH1 0x0 REVERT JUMPDEST PUSH1 0x2 DUP2 DIV PUSH1 0x1 DUP3 AND DUP1 PUSH3 0xBC JUMPI PUSH1 0x7F DUP3 AND SWAP2 POP JUMPDEST PUSH1 0x20 DUP3 LT DUP2 SUB PUSH3 0xD1 JUMPI PUSH3 0xD1 PUSH3 0x91 JUMP JUMPDEST POP SWAP2 SWAP1 POP JUMP JUMPDEST PUSH1 0x0 PUSH3 0xE8 PUSH3 0xE5 DUP4 DUP2 JUMP JUMPDEST SWAP1 JUMP JUMPDEST SWAP3 SWAP2 POP POP JUMP JUMPDEST PUSH3 0xF9 DUP4 PUSH3 0xD7 JUMP JUMPDEST DUP2 SLOAD PUSH1 0x0 NOT PUSH1 0x8 SWAP5 SWAP1 SWAP5 MUL SWAP4 DUP5 SHL NOT AND SWAP3 SHL SWAP2 SWAP1 SWAP2 OR SWAP1 SSTORE POP JUMP JUMPDEST PUSH1 0x0 PUSH3 0x123 DUP2 DUP5 DUP5 PUSH3 0xEE JUMP JUMPDEST POP POP POP JUMP JUMPDEST DUP2 DUP2 LT ISZERO PUSH3 0x147 JUMPI PUSH3 0x13E PUSH1 0x0 DUP3 PUSH3 0x114 JUMP JUMPDEST PUSH1 0x1 ADD PUSH3 0x128 JUMP JUMPDEST POP POP JUMP JUMPDEST PUSH1 0x1F DUP3 GT ISZERO PUSH3 0x123 JUMPI PUSH1 0x0 DUP2 DUP2 MSTORE PUSH1 0x20 SWAP1 KECCAK256 PUSH1 0x20 PUSH1 0x1F DUP6 ADD DIV DUP2 ADD PUSH1 0x20 DUP6 LT ISZERO PUSH3 0x174 JUMPI POP DUP1 JUMPDEST PUSH3 0x188 PUSH1 0x20 PUSH1 0x1F DUP7 ADD DIV DUP4 ADD DUP3 PUSH3 0x128 JUMP JUMPDEST POP POP POP POP POP JUMP JUMPDEST DUP2 MLOAD PUSH1 0x1 PUSH1 0x1 PUSH1 0x40 SHL SUB DUP2 GT ISZERO PUSH3 0x1AB JUMPI PUSH3 0x1AB PUSH3 0x7B JUMP JUMPDEST PUSH3 0x1B7 DUP3 SLOAD PUSH3 0xA7 JUMP JUMPDEST PUSH3 0x1C4 DUP3 DUP3 DUP6 PUSH3 0x14B JUMP JUMPDEST PUSH1 0x20 PUSH1 0x1F DUP4 GT PUSH1 0x1 DUP2 EQ PUSH3 0x1FB JUMPI PUSH1 0x0 DUP5 ISZERO PUSH3 0x1E2 JUMPI POP DUP6 DUP3 ADD MLOAD JUMPDEST PUSH1 0x0 NOT PUSH1 0x8 DUP7 MUL SHR NOT DUP2 AND PUSH1 0x2 DUP7 MUL OR DUP7 SSTORE POP PUSH3 0x257 JUMP JUMPDEST PUSH1 0x0 DUP6 DUP2 MSTORE PUSH1 0x20 DUP2 KECCAK256 PUSH1 0x1F NOT DUP7 AND SWAP2 JUMPDEST DUP3 DUP2 LT ISZERO PUSH3 0x22D JUMPI DUP9 DUP6 ADD MLOAD DUP3 SSTORE PUSH1 0x20 SWAP5 DUP6 ADD SWAP5 PUSH1 0x1 SWAP1 SWAP3 ADD SWAP2 ADD PUSH3 0x20B JUMP JUMPDEST DUP7 DUP4 LT ISZERO PUSH3 0x24A JUMPI DUP5 DUP10 ADD MLOAD PUSH1 0x0 NOT PUSH1 0x1F DUP10 AND PUSH1 0x8 MUL SHR NOT AND DUP3 SSTORE JUMPDEST PUSH1 0x1 PUSH1 0x2 DUP9 MUL ADD DUP9 SSTORE POP POP POP JUMPDEST POP POP POP POP POP POP JUMP JUMPDEST PUSH2 0x94F DUP1 PUSH3 0x26F PUSH1 0x0 CODECOPY PUSH1 0x0 RETURN INVALID PUSH1 0x80 PUSH1 0x40 MSTORE CALLVALUE DUP1 ISZERO PUSH2 0x10 JUMPI PUSH1 0x0 DUP1 REVERT JUMPDEST POP PUSH1 0x4 CALLDATASIZE LT PUSH2 0xDF JUMPI PUSH1 0x0 CALLDATALOAD PUSH1 0xE0 SHR DUP1 PUSH4 0x7A1395AA GT PUSH2 0x8C JUMPI DUP1 PUSH4 0xB84C8246 GT PUSH2 0x66 JUMPI DUP1 PUSH4 0xB84C8246 EQ PUSH2 0x1C3 JUMPI DUP1 PUSH4 0xC47F0027 EQ PUSH2 0x1D6 JUMPI DUP1 PUSH4 0xDD62ED3E EQ PUSH2 0x1E9 JUMPI DUP1 PUSH4 0xE30443BC EQ PUSH2 0x1FF JUMPI PUSH1 0x0 DUP1 REVERT JUMPDEST DUP1 PUSH4 0x7A1395AA EQ PUSH2 0x182 JUMPI DUP1 PUSH4 0x95D89B41 EQ PUSH2 0x1A8 JUMPI DUP1 PUSH4 0xA9059CBB EQ PUSH2 0x1B0 JUMPI PUSH1 0x0 DUP1 REVERT JUMPDEST DUP1 PUSH4 0x23B872DD GT PUSH2 0xBD JUMPI DUP1 PUSH4 0x23B872DD EQ PUSH2 0x133 JUMPI DUP1 PUSH4 0x313CE567 EQ PUSH2 0x146 JUMPI DUP1 PUSH4 0x70A08231 EQ PUSH2 0x159 JUMPI PUSH1 0x0 DUP1 REVERT JUMPDEST DUP1 PUSH4 0x6FDDE03 EQ PUSH2 0xE4 JUMPI DUP1 PUSH4 0x95EA7B3 EQ PUSH2 0x102 JUMPI DUP1 PUSH4 0x18160DDD EQ PUSH2 0x122 JUMPI JUMPDEST PUSH1 0x0 DUP1 REVERT JUMPDEST PUSH2 0xEC PUSH2 0x229 JUMP JUMPDEST PUSH1 0x40 MLOAD PUSH2 0xF9 SWAP2 SWAP1 PUSH2 0x444 JUMP JUMPDEST PUSH1 0x40 MLOAD DUP1 SWAP2 SUB SWAP1 RETURN JUMPDEST PUSH2 0x115 PUSH2 0x110 CALLDATASIZE PUSH1 0x4 PUSH2 0x4A0 JUMP JUMPDEST PUSH2 0x2BB JUMP JUMPDEST PUSH1 0x40 MLOAD PUSH2 0xF9 SWAP2 SWAP1 PUSH2 0x4E7 JUMP JUMPDEST PUSH1 0x0 NOT JUMPDEST PUSH1 0x40 MLOAD PUSH2 0xF9 SWAP2 SWAP1 PUSH2 0x4FB JUMP JUMPDEST PUSH2 0x115 PUSH2 0x141 CALLDATASIZE PUSH1 0x4 PUSH2 0x509 JUMP JUMPDEST PUSH2 0x2C4 JUMP JUMPDEST PUSH1 0x3 SLOAD PUSH1 0xFF AND PUSH1 0x40 MLOAD PUSH2 0xF9 SWAP2 SWAP1 PUSH2 0x562 JUMP JUMPDEST PUSH2 0x126 PUSH2 0x167 CALLDATASIZE PUSH1 0x4 PUSH2 0x570 JUMP JUMPDEST PUSH1 0x1 PUSH1 0x1 PUSH1 0xA0 SHL SUB AND PUSH1 0x0 SWAP1 DUP2 MSTORE PUSH1 0x20 DUP2 SWAP1 MSTORE PUSH1 0x40 SWAP1 KECCAK256 SLOAD SWAP1 JUMP JUMPDEST PUSH2 0x1A6 PUSH2 0x190 CALLDATASIZE PUSH1 0x4 PUSH2 0x5AD JUMP JUMPDEST PUSH1 0x3 DUP1 SLOAD PUSH1 0xFF NOT AND PUSH1 0xFF SWAP3 SWAP1 SWAP3 AND SWAP2 SWAP1 SWAP2 OR SWAP1 SSTORE JUMP JUMPDEST STOP JUMPDEST PUSH2 0xEC PUSH2 0x34D JUMP JUMPDEST PUSH2 0x115 PUSH2 0x1BE CALLDATASIZE PUSH1 0x4 PUSH2 0x4A0 JUMP JUMPDEST PUSH2 0x35C JUMP JUMPDEST PUSH2 0x1A6 PUSH2 0x1D1 CALLDATASIZE PUSH1 0x4 PUSH2 0x6C9 JUMP JUMPDEST PUSH2 0x3D2 JUMP JUMPDEST PUSH2 0x1A6 PUSH2 0x1E4 CALLDATASIZE PUSH1 0x4 PUSH2 0x6C9 JUMP JUMPDEST PUSH2 0x3E2 JUMP JUMPDEST PUSH2 0x126 PUSH2 0x1F7 CALLDATASIZE PUSH1 0x4 PUSH2 0x704 JUMP JUMPDEST PUSH1 0x0 SWAP3 SWAP2 POP POP JUMP JUMPDEST PUSH2 0x1A6 PUSH2 0x20D CALLDATASIZE PUSH1 0x4 PUSH2 0x4A0 JUMP JUMPDEST PUSH1 0x1 PUSH1 0x1 PUSH1 0xA0 SHL SUB SWAP1 SWAP2 AND PUSH1 0x0 SWAP1 DUP2 MSTORE PUSH1 0x20 DUP2 SWAP1 MSTORE PUSH1 0x40 SWAP1 KECCAK256 SSTORE JUMP JUMPDEST PUSH1 0x60 PUSH1 0x1 DUP1 SLOAD PUSH2 0x238 SWAP1 PUSH2 0x74D JUMP JUMPDEST DUP1 PUSH1 0x1F ADD PUSH1 0x20 DUP1 SWAP2 DIV MUL PUSH1 0x20 ADD PUSH1 0x40 MLOAD SWAP1 DUP2 ADD PUSH1 0x40 MSTORE DUP1 SWAP3 SWAP2 SWAP1 DUP2 DUP2 MSTORE PUSH1 0x20 ADD DUP3 DUP1 SLOAD PUSH2 0x264 SWAP1 PUSH2 0x74D JUMP JUMPDEST DUP1 ISZERO PUSH2 0x2B1 JUMPI DUP1 PUSH1 0x1F LT PUSH2 0x286 JUMPI PUSH2 0x100 DUP1 DUP4 SLOAD DIV MUL DUP4 MSTORE SWAP2 PUSH1 0x20 ADD SWAP2 PUSH2 0x2B1 JUMP JUMPDEST DUP3 ADD SWAP2 SWAP1 PUSH1 0x0 MSTORE PUSH1 0x20 PUSH1 0x0 KECCAK256 SWAP1 JUMPDEST DUP2 SLOAD DUP2 MSTORE SWAP1 PUSH1 0x1 ADD SWAP1 PUSH1 0x20 ADD DUP1 DUP4 GT PUSH2 0x294 JUMPI DUP3 SWAP1 SUB PUSH1 0x1F AND DUP3 ADD SWAP2 JUMPDEST POP POP POP POP POP SWAP1 POP SWAP1 JUMP JUMPDEST PUSH1 0x1 JUMPDEST SWAP3 SWAP2 POP POP JUMP JUMPDEST PUSH1 0x1 PUSH1 0x1 PUSH1 0xA0 SHL SUB DUP4 AND PUSH1 0x0 SWAP1 DUP2 MSTORE PUSH1 0x20 DUP2 SWAP1 MSTORE PUSH1 0x40 DUP2 KECCAK256 SLOAD DUP3 GT ISZERO PUSH2 0x2E9 JUMPI PUSH1 0x0 DUP1 REVERT JUMPDEST PUSH1 0x1 PUSH1 0x1 PUSH1 0xA0 SHL SUB DUP5 AND PUSH1 0x0 SWAP1 DUP2 MSTORE PUSH1 0x20 DUP2 SWAP1 MSTORE PUSH1 0x40 DUP2 KECCAK256 DUP1 SLOAD DUP5 SWAP3 SWAP1 PUSH2 0x311 SWAP1 DUP5 SWAP1 PUSH2 0x78F JUMP JUMPDEST SWAP1 SWAP2 SSTORE POP POP PUSH1 0x1 PUSH1 0x1 PUSH1 0xA0 SHL SUB DUP4 AND PUSH1 0x0 SWAP1 DUP2 MSTORE PUSH1 0x20 DUP2 SWAP1 MSTORE PUSH1 0x40 DUP2 KECCAK256 DUP1 SLOAD DUP5 SWAP3 SWAP1 PUSH2 0x33E SWAP1 DUP5 SWAP1 PUSH2 0x7A2 JUMP JUMPDEST SWAP1 SWAP2 SSTORE POP PUSH1 0x1 SWAP6 SWAP5 POP POP POP POP POP JUMP JUMPDEST PUSH1 0x60 PUSH1 0x2 DUP1 SLOAD PUSH2 0x238 SWAP1 PUSH2 0x74D JUMP JUMPDEST CALLER PUSH1 0x0 SWAP1 DUP2 MSTORE PUSH1 0x20 DUP2 SWAP1 MSTORE PUSH1 0x40 DUP2 KECCAK256 SLOAD DUP3 GT ISZERO PUSH2 0x378 JUMPI PUSH1 0x0 DUP1 REVERT JUMPDEST CALLER PUSH1 0x0 SWAP1 DUP2 MSTORE PUSH1 0x20 DUP2 SWAP1 MSTORE PUSH1 0x40 DUP2 KECCAK256 DUP1 SLOAD DUP5 SWAP3 SWAP1 PUSH2 0x397 SWAP1 DUP5 SWAP1 PUSH2 0x78F JUMP JUMPDEST SWAP1 SWAP2 SSTORE POP POP PUSH1 0x1 PUSH1 0x1 PUSH1 0xA0 SHL SUB DUP4 AND PUSH1 0x0 SWAP1 DUP2 MSTORE PUSH1 0x20 DUP2 SWAP1 MSTORE PUSH1 0x40 DUP2 KECCAK256 DUP1 SLOAD DUP5 SWAP3 SWAP1 PUSH2 0x3C4 SWAP1 DUP5 SWAP1 PUSH2 0x7A2 JUMP JUMPDEST SWAP1 SWAP2 SSTORE POP PUSH1 0x1 SWAP5 SWAP4 POP POP POP POP JUMP JUMPDEST PUSH1 0x2 PUSH2 0x3DE DUP3 DUP3 PUSH2 0x855 JUMP JUMPDEST POP POP JUMP JUMPDEST PUSH1 0x1 PUSH2 0x3DE DUP3 DUP3 PUSH2 0x855 JUMP JUMPDEST PUSH1 0x0 JUMPDEST DUP4 DUP2 LT ISZERO PUSH2 0x409 JUMPI DUP2 DUP2 ADD MLOAD DUP4 DUP3 ADD MSTORE PUSH1 0x20 ADD PUSH2 0x3F1 JUMP JUMPDEST POP POP PUSH1 0x0 SWAP2 ADD MSTORE JUMP JUMPDEST PUSH1 0x0 PUSH2 0x41C DUP3 MLOAD SWAP1 JUMP JUMPDEST DUP1 DUP5 MSTORE PUSH1 0x20 DUP5 ADD SWAP4 POP PUSH2 0x433 DUP2 DUP6 PUSH1 0x20 DUP7 ADD PUSH2 0x3EE JUMP JUMPDEST PUSH1 0x1F ADD PUSH1 0x1F NOT AND SWAP3 SWAP1 SWAP3 ADD SWAP3 SWAP2 POP POP JUMP JUMPDEST PUSH1 0x20 DUP1 DUP3 MSTORE DUP2 ADD PUSH2 0x455 DUP2 DUP5 PUSH2 0x412 JUMP JUMPDEST SWAP4 SWAP3 POP POP POP JUMP JUMPDEST PUSH1 0x0 PUSH1 0x1 PUSH1 0x1 PUSH1 0xA0 SHL SUB DUP3 AND PUSH2 0x2BE JUMP JUMPDEST PUSH2 0x476 DUP2 PUSH2 0x45C JUMP JUMPDEST DUP2 EQ PUSH2 0x481 JUMPI PUSH1 0x0 DUP1 REVERT JUMPDEST POP JUMP JUMPDEST DUP1 CALLDATALOAD PUSH2 0x2BE DUP2 PUSH2 0x46D JUMP JUMPDEST DUP1 PUSH2 0x476 JUMP JUMPDEST DUP1 CALLDATALOAD PUSH2 0x2BE DUP2 PUSH2 0x48F JUMP JUMPDEST PUSH1 0x0 DUP1 PUSH1 0x40 DUP4 DUP6 SUB SLT ISZERO PUSH2 0x4B6 JUMPI PUSH2 0x4B6 PUSH1 0x0 DUP1 REVERT JUMPDEST PUSH1 0x0 PUSH2 0x4C2 DUP6 DUP6 PUSH2 0x484 JUMP JUMPDEST SWAP3 POP POP PUSH1 0x20 PUSH2 0x4D3 DUP6 DUP3 DUP7 ADD PUSH2 0x495 JUMP JUMPDEST SWAP2 POP POP SWAP3 POP SWAP3 SWAP1 POP JUMP JUMPDEST DUP1 ISZERO ISZERO JUMPDEST DUP3 MSTORE POP POP JUMP JUMPDEST PUSH1 0x20 DUP2 ADD PUSH2 0x2BE DUP3 DUP5 PUSH2 0x4DD JUMP JUMPDEST DUP1 PUSH2 0x4E1 JUMP JUMPDEST PUSH1 0x20 DUP2 ADD PUSH2 0x2BE DUP3 DUP5 PUSH2 0x4F5 JUMP JUMPDEST PUSH1 0x0 DUP1 PUSH1 0x0 PUSH1 0x60 DUP5 DUP7 SUB SLT ISZERO PUSH2 0x521 JUMPI PUSH2 0x521 PUSH1 0x0 DUP1 REVERT JUMPDEST PUSH1 0x0 PUSH2 0x52D DUP7 DUP7 PUSH2 0x484 JUMP JUMPDEST SWAP4 POP POP PUSH1 0x20 PUSH2 0x53E DUP7 DUP3 DUP8 ADD PUSH2 0x484 JUMP JUMPDEST SWAP3 POP POP PUSH1 0x40 PUSH2 0x54F DUP7 DUP3 DUP8 ADD PUSH2 0x495 JUMP JUMPDEST SWAP2 POP POP SWAP3 POP SWAP3 POP SWAP3 JUMP JUMPDEST PUSH1 0xFF DUP2 AND PUSH2 0x4E1 JUMP JUMPDEST PUSH1 0x20 DUP2 ADD PUSH2 0x2BE DUP3 DUP5 PUSH2 0x559 JUMP JUMPDEST PUSH1 0x0 PUSH1 0x20 DUP3 DUP5 SUB SLT ISZERO PUSH2 0x585 JUMPI PUSH2 0x585 PUSH1 0x0 DUP1 REVERT JUMPDEST PUSH1 0x0 PUSH2 0x591 DUP5 DUP5 PUSH2 0x484 JUMP JUMPDEST SWAP5 SWAP4 POP POP POP POP JUMP JUMPDEST PUSH1 0xFF DUP2 AND PUSH2 0x476 JUMP JUMPDEST DUP1 CALLDATALOAD PUSH2 0x2BE DUP2 PUSH2 0x599 JUMP JUMPDEST PUSH1 0x0 PUSH1 0x20 DUP3 DUP5 SUB SLT ISZERO PUSH2 0x5C2 JUMPI PUSH2 0x5C2 PUSH1 0x0 DUP1 REVERT JUMPDEST PUSH1 0x0 PUSH2 0x591 DUP5 DUP5 PUSH2 0x5A2 JUMP JUMPDEST PUSH4 0x4E487B71 PUSH1 0xE0 SHL PUSH1 0x0 MSTORE PUSH1 0x41 PUSH1 0x4 MSTORE PUSH1 0x24 PUSH1 0x0 REVERT JUMPDEST PUSH1 0x1F NOT PUSH1 0x1F DUP4 ADD AND DUP2 ADD DUP2 DUP2 LT PUSH8 0xFFFFFFFFFFFFFFFF DUP3 GT OR ISZERO PUSH2 0x60A JUMPI PUSH2 0x60A PUSH2 0x5CE JUMP JUMPDEST PUSH1 0x40 MSTORE POP POP JUMP JUMPDEST PUSH1 0x0 PUSH2 0x61C PUSH1 0x40 MLOAD SWAP1 JUMP JUMPDEST SWAP1 POP PUSH2 0x628 DUP3 DUP3 PUSH2 0x5E4 JUMP JUMPDEST SWAP2 SWAP1 POP JUMP JUMPDEST PUSH1 0x0 PUSH8 0xFFFFFFFFFFFFFFFF DUP3 GT ISZERO PUSH2 0x647 JUMPI PUSH2 0x647 PUSH2 0x5CE JUMP JUMPDEST PUSH1 0x1F NOT PUSH1 0x1F DUP4 ADD AND PUSH1 0x20 ADD SWAP3 SWAP2 POP POP JUMP JUMPDEST DUP3 DUP2 DUP4 CALLDATACOPY POP PUSH1 0x0 SWAP2 ADD MSTORE JUMP JUMPDEST PUSH1 0x0 PUSH2 0x677 PUSH2 0x672 DUP5 PUSH2 0x62D JUMP JUMPDEST PUSH2 0x611 JUMP JUMPDEST SWAP1 POP DUP3 DUP2 MSTORE PUSH1 0x20 DUP2 ADD DUP5 DUP5 DUP5 ADD GT ISZERO PUSH2 0x692 JUMPI PUSH2 0x692 PUSH1 0x0 DUP1 REVERT JUMPDEST PUSH2 0x69D DUP5 DUP3 DUP6 PUSH2 0x658 JUMP JUMPDEST POP SWAP4 SWAP3 POP POP POP JUMP JUMPDEST PUSH1 0x0 DUP3 PUSH1 0x1F DUP4 ADD SLT PUSH2 0x6B9 JUMPI PUSH2 0x6B9 PUSH1 0x0 DUP1 REVERT JUMPDEST DUP2 CALLDATALOAD PUSH2 0x591 DUP5 DUP3 PUSH1 0x20 DUP7 ADD PUSH2 0x664 JUMP JUMPDEST PUSH1 0x0 PUSH1 0x20 DUP3 DUP5 SUB SLT ISZERO PUSH2 0x6DE JUMPI PUSH2 0x6DE PUSH1 0x0 DUP1 REVERT JUMPDEST DUP2 CALLDATALOAD PUSH8 0xFFFFFFFFFFFFFFFF DUP2 GT ISZERO PUSH2 0x6F8 JUMPI PUSH2 0x6F8 PUSH1 0x0 DUP1 REVERT JUMPDEST PUSH2 0x591 DUP5 DUP3 DUP6 ADD PUSH2 0x6A5 JUMP JUMPDEST PUSH1 0x0 DUP1 PUSH1 0x40 DUP4 DUP6 SUB SLT ISZERO PUSH2 0x71A JUMPI PUSH2 0x71A PUSH1 0x0 DUP1 REVERT JUMPDEST PUSH1 0x0 PUSH2 0x726 DUP6 DUP6 PUSH2 0x484 JUMP JUMPDEST SWAP3 POP POP PUSH1 0x20 PUSH2 0x4D3 DUP6 DUP3 DUP7 ADD PUSH2 0x484 JUMP JUMPDEST PUSH4 0x4E487B71 PUSH1 0xE0 SHL PUSH1 0x0 MSTORE PUSH1 0x22 PUSH1 0x4 MSTORE PUSH1 0x24 PUSH1 0x0 REVERT JUMPDEST PUSH1 0x2 DUP2 DIV PUSH1 0x1 DUP3 AND DUP1 PUSH2 0x761 JUMPI PUSH1 0x7F DUP3 AND SWAP2 POP JUMPDEST PUSH1 0x20 DUP3 LT DUP2 SUB PUSH2 0x773 JUMPI PUSH2 0x773 PUSH2 0x737 JUMP JUMPDEST POP SWAP2 SWAP1 POP JUMP JUMPDEST PUSH4 0x4E487B71 PUSH1 0xE0 SHL PUSH1 0x0 MSTORE PUSH1 0x11 PUSH1 0x4 MSTORE PUSH1 0x24 PUSH1 0x0 REVERT JUMPDEST DUP2 DUP2 SUB DUP2 DUP2 GT ISZERO PUSH2 0x2BE JUMPI PUSH2 0x2BE PUSH2 0x779 JUMP JUMPDEST DUP1 DUP3 ADD DUP1 DUP3 GT ISZERO PUSH2 0x2BE JUMPI PUSH2 0x2BE PUSH2 0x779 JUMP JUMPDEST PUSH1 0x0 PUSH2 0x2BE PUSH2 0x7C1 DUP4 DUP2 JUMP JUMPDEST SWAP1 JUMP JUMPDEST PUSH2 0x7CD DUP4 PUSH2 0x7B5 JUMP JUMPDEST DUP2 SLOAD PUSH1 0x0 NOT PUSH1 0x8 SWAP5 SWAP1 SWAP5 MUL SWAP4 DUP5 SHL NOT AND SWAP3 SHL SWAP2 SWAP1 SWAP2 OR SWAP1 SSTORE POP JUMP JUMPDEST PUSH1 0x0 PUSH2 0x7F5 DUP2 DUP5 DUP5 PUSH2 0x7C4 JUMP JUMPDEST POP POP POP JUMP JUMPDEST DUP2 DUP2 LT ISZERO PUSH2 0x3DE JUMPI PUSH2 0x80D PUSH1 0x0 DUP3 PUSH2 0x7E8 JUMP JUMPDEST PUSH1 0x1 ADD PUSH2 0x7FA JUMP JUMPDEST PUSH1 0x1F DUP3 GT ISZERO PUSH2 0x7F5 JUMPI PUSH1 0x0 DUP2 DUP2 MSTORE PUSH1 0x20 SWAP1 KECCAK256 PUSH1 0x20 PUSH1 0x1F DUP6 ADD DIV DUP2 ADD PUSH1 0x20 DUP6 LT ISZERO PUSH2 0x83C JUMPI POP DUP1 JUMPDEST PUSH2 0x84E PUSH1 0x20 PUSH1 0x1F DUP7 ADD DIV DUP4 ADD DUP3 PUSH2 0x7FA JUMP JUMPDEST POP POP POP POP POP JUMP JUMPDEST DUP2 MLOAD PUSH8 0xFFFFFFFFFFFFFFFF DUP2 GT ISZERO PUSH2 0x86F JUMPI PUSH2 0x86F PUSH2 0x5CE JUMP JUMPDEST PUSH2 0x879 DUP3 SLOAD PUSH2 0x74D JUMP JUMPDEST PUSH2 0x884 DUP3 DUP3 DUP6 PUSH2 0x815 JUMP JUMPDEST PUSH1 0x20 PUSH1 0x1F DUP4 GT PUSH1 0x1 DUP2 EQ PUSH2 0x8B8 JUMPI PUSH1 0x0 DUP5 ISZERO PUSH2 0x8A0 JUMPI POP DUP6 DUP3 ADD MLOAD JUMPDEST PUSH1 0x0 NOT PUSH1 0x8 DUP7 MUL SHR NOT DUP2 AND PUSH1 0x2 DUP7 MUL OR DUP7 SSTORE POP PUSH2 0x911 JUMP JUMPDEST PUSH1 0x0 DUP6 DUP2 MSTORE PUSH1 0x20 DUP2 KECCAK256 PUSH1 0x1F NOT DUP7 AND SWAP2 JUMPDEST DUP3 DUP2 LT ISZERO PUSH2 0x8E8 JUMPI DUP9 DUP6 ADD MLOAD DUP3 SSTORE PUSH1 0x20 SWAP5 DUP6 ADD SWAP5 PUSH1 0x1 SWAP1 SWAP3 ADD SWAP2 ADD PUSH2 0x8C8 JUMP JUMPDEST DUP7 DUP4 LT ISZERO PUSH2 0x904 JUMPI DUP5 DUP10 ADD MLOAD PUSH1 0x0 NOT PUSH1 0x1F DUP10 AND PUSH1 0x8 MUL SHR NOT AND DUP3 SSTORE JUMPDEST PUSH1 0x1 PUSH1 0x2 DUP9 MUL ADD DUP9 SSTORE POP POP POP JUMPDEST POP POP POP POP POP POP JUMP INVALID LOG2 PUSH5 0x6970667358 0x22 SLT KECCAK256 0xEA INVALID PC 0x4D 0xA6 RETURN 0xB5 0x28 DIV 0xB8 0xA6 0xC1 PUSH1 0x4A 0xC6 0x5C PUSH18 0x4782F57F76A1CF5B12E932E0C3C50C64736F PUSH13 0x63430008160033000000000000 "},"methodIdentifiers":{"allowance(address,address)":"dd62ed3e","approve(address,uint256)":"095ea7b3","balanceOf(address)":"70a08231","decimals()":"313ce567","name()":"06fdde03","setBalance(address,uint256)":"e30443bc","setDecimals(uint8)":"7a1395aa","setName(string)":"c47f0027","setSymbol(string)":"b84c8246","symbol()":"95d89b41","totalSupply()":"18160ddd","transfer(address,uint256)":"a9059cbb","transferFrom(address,address,uint256)":"23b872dd"}}}}}