{"contracts/DexhuneExchange.sol":{"DexhuneExchange":{"abi":[{"inputs":[],"stateMutability":"nonpayable","type":"constructor"},{"inputs":[],"name":"DepositFailed","type":"error"},{"inputs":[],"name":"FailedStringToNumberConversion","type":"error"},{"inputs":[],"name":"FailedToSendReward","type":"error"},{"inputs":[],"name":"FailedToTakeOrder","type":"error"},{"inputs":[{"internalType":"uint256","name":"balance","type":"uint256"}],"name":"InsufficientBalance","type":"error"},{"inputs":[{"internalType":"uint256","name":"listingPrice","type":"uint256"}],"name":"InsufficientBalanceForListing","type":"error"},{"inputs":[],"name":"InvalidTokenContract","type":"error"},{"inputs":[{"internalType":"uint256","name":"x","type":"uint256"},{"internalType":"uint256","name":"y","type":"uint256"}],"name":"MulDiv18Overflow","type":"error"},{"inputs":[{"internalType":"uint256","name":"x","type":"uint256"},{"internalType":"uint256","name":"y","type":"uint256"},{"internalType":"uint256","name":"denominator","type":"uint256"}],"name":"MulDivOverflow","type":"error"},{"inputs":[],"name":"NoSuitableOrderFound","type":"error"},{"inputs":[],"name":"OnlyOwnerMustSetDefaultToken","type":"error"},{"inputs":[],"name":"OrderDoesNotExist","type":"error"},{"inputs":[],"name":"OrderLimitReachedTryLater","type":"error"},{"inputs":[],"name":"ParityShouldNotHavePrice","type":"error"},{"inputs":[],"name":"RejectedZeroAmount","type":"error"},{"inputs":[{"internalType":"address","name":"contractAddr","type":"address"}],"name":"TokenAlreadyExists","type":"error"},{"inputs":[],"name":"TokenLimitReached","type":"error"},{"inputs":[],"name":"TokenNotListed","type":"error"},{"inputs":[],"name":"TokenNotSupported_TooManyDecimals","type":"error"},{"inputs":[{"internalType":"address","name":"account","type":"address"}],"name":"UnauthorizedAccount","type":"error"},{"anonymous":false,"inputs":[{"indexed":false,"internalType":"uint256","name":"amount","type":"uint256"},{"indexed":false,"internalType":"address","name":"targetAddr","type":"address"}],"name":"AVAXTransferred","type":"event"},{"anonymous":false,"inputs":[{"indexed":false,"internalType":"address","name":"addr","type":"address"}],"name":"AssignedPriceDAO","type":"event"},{"anonymous":false,"inputs":[{"indexed":false,"internalType":"uint256","name":"index","type":"uint256"},{"indexed":false,"internalType":"bool","name":"orderType","type":"bool"},{"indexed":false,"internalType":"address","name":"tokenAddr","type":"address"},{"indexed":false,"internalType":"uint256","name":"amount","type":"uint256"},{"indexed":false,"internalType":"uint256","name":"price","type":"uint256"}],"name":"OrderCreated","type":"event"},{"anonymous":false,"inputs":[{"indexed":false,"internalType":"uint256","name":"index","type":"uint256"},{"indexed":false,"internalType":"bool","name":"orderType","type":"bool"},{"indexed":false,"internalType":"address","name":"maker","type":"address"}],"name":"OrderReverted","type":"event"},{"anonymous":false,"inputs":[{"indexed":false,"internalType":"uint256","name":"index","type":"uint256"},{"indexed":false,"internalType":"bool","name":"orderType","type":"bool"},{"indexed":false,"internalType":"address","name":"maker","type":"address"},{"indexed":false,"internalType":"bool","name":"isPartial","type":"bool"}],"name":"OrderSettled","type":"event"},{"anonymous":false,"inputs":[{"indexed":false,"internalType":"uint256","name":"index","type":"uint256"},{"indexed":false,"internalType":"bool","name":"orderType","type":"bool"},{"indexed":false,"internalType":"address","name":"maker","type":"address"},{"indexed":false,"internalType":"address","name":"taker","type":"address"},{"indexed":false,"internalType":"address","name":"token","type":"address"},{"indexed":false,"internalType":"uint256","name":"amount","type":"uint256"},{"indexed":false,"internalType":"bool","name":"isPartial","type":"bool"}],"name":"OrderTaken","type":"event"},{"anonymous":false,"inputs":[{"indexed":true,"internalType":"string","name":"name","type":"string"},{"indexed":true,"internalType":"string","name":"symbol","type":"string"},{"indexed":false,"internalType":"enum DexhuneExchangeBase.PricingScheme","name":"pricingScheme","type":"uint8"},{"indexed":false,"internalType":"address","name":"addr","type":"address"},{"indexed":false,"internalType":"uint256","name":"index","type":"uint256"}],"name":"TokenListed","type":"event"},{"anonymous":false,"inputs":[{"indexed":false,"internalType":"uint256","name":"amount","type":"uint256"},{"indexed":false,"internalType":"address","name":"targetAddr","type":"address"},{"indexed":false,"internalType":"address","name":"tokenAddr","type":"address"}],"name":"TokenTransferred","type":"event"},{"anonymous":false,"inputs":[{"indexed":false,"internalType":"address","name":"oldOwner","type":"address"},{"indexed":false,"internalType":"address","name":"newOwner","type":"address"}],"name":"TransferredOwnership","type":"event"},{"inputs":[{"internalType":"address","name":"addr","type":"address"}],"name":"assignPriceDAO","outputs":[],"stateMutability":"nonpayable","type":"function"},{"inputs":[],"name":"clearOrders","outputs":[],"stateMutability":"nonpayable","type":"function"},{"inputs":[{"internalType":"address","name":"tokenAddr","type":"address"}],"name":"clearTokenOrders","outputs":[],"stateMutability":"nonpayable","type":"function"},{"inputs":[{"internalType":"address","name":"tokenAddr","type":"address"}],"name":"createBuyOrder","outputs":[],"stateMutability":"payable","type":"function"},{"inputs":[{"internalType":"address","name":"tokenAddr","type":"address"},{"internalType":"uint256","name":"amount","type":"uint256"}],"name":"createSellOrder","outputs":[],"stateMutability":"nonpayable","type":"function"},{"inputs":[{"internalType":"address","name":"tokenAddr","type":"address"}],"name":"deposit","outputs":[],"stateMutability":"payable","type":"function"},{"inputs":[{"internalType":"address","name":"tokenAddr","type":"address"},{"internalType":"uint256","name":"amount","type":"uint256"}],"name":"depositToken","outputs":[],"stateMutability":"nonpayable","type":"function"},{"inputs":[{"internalType":"address","name":"tokenAddr","type":"address"},{"internalType":"address","name":"fromAddress","type":"address"},{"internalType":"uint256","name":"amount","type":"uint256"}],"name":"depositTokenFrom","outputs":[],"stateMutability":"nonpayable","type":"function"},{"inputs":[],"name":"getBalance","outputs":[{"internalType":"uint256","name":"","type":"uint256"}],"stateMutability":"view","type":"function"},{"inputs":[{"internalType":"address","name":"tokenAddr","type":"address"},{"internalType":"address","name":"parityAddr","type":"address"},{"internalType":"uint256","name":"reward","type":"uint256"},{"internalType":"uint256","name":"rewardThreshold","type":"uint256"}],"name":"listParityToken","outputs":[],"stateMutability":"nonpayable","type":"function"},{"inputs":[{"internalType":"address","name":"tokenAddr","type":"address"},{"internalType":"uint256","name":"reward","type":"uint256"},{"internalType":"uint256","name":"rewardThreshold","type":"uint256"},{"internalType":"string","name":"price","type":"string"}],"name":"listToken","outputs":[],"stateMutability":"nonpayable","type":"function"},{"inputs":[],"name":"listingCost","outputs":[{"internalType":"uint256","name":"","type":"uint256"}],"stateMutability":"view","type":"function"},{"inputs":[{"internalType":"uint256","name":"","type":"uint256"}],"name":"orders","outputs":[{"internalType":"address payable","name":"makerAddr","type":"address"},{"internalType":"address","name":"tokenAddr","type":"address"},{"internalType":"bool","name":"orderType","type":"bool"},{"internalType":"uint256","name":"created","type":"uint256"},{"internalType":"uint256","name":"price","type":"uint256"},{"internalType":"uint256","name":"principal","type":"uint256"},{"internalType":"uint256","name":"pending","type":"uint256"},{"internalType":"uint256","name":"tokenIndex","type":"uint256"},{"internalType":"uint256","name":"userIndex","type":"uint256"}],"stateMutability":"view","type":"function"},{"inputs":[],"name":"owner","outputs":[{"internalType":"address","name":"","type":"address"}],"stateMutability":"view","type":"function"},{"inputs":[{"internalType":"address","name":"tokenAddr","type":"address"},{"internalType":"bool","name":"isAVAX","type":"bool"}],"name":"queryBalance","outputs":[{"internalType":"uint256","name":"","type":"uint256"}],"stateMutability":"view","type":"function"},{"inputs":[{"internalType":"address","name":"tokenAddr","type":"address"},{"internalType":"bool","name":"orderType","type":"bool"}],"name":"settleOrders","outputs":[],"stateMutability":"nonpayable","type":"function"},{"inputs":[{"internalType":"address","name":"tokenAddr","type":"address"},{"internalType":"uint256","name":"amount","type":"uint256"}],"name":"takeBuyOrder","outputs":[],"stateMutability":"nonpayable","type":"function"},{"inputs":[{"internalType":"address","name":"tokenAddr","type":"address"}],"name":"takeSellOrder","outputs":[],"stateMutability":"payable","type":"function"},{"inputs":[{"internalType":"address","name":"_address","type":"address"}],"name":"transferOwnership","outputs":[],"stateMutability":"nonpayable","type":"function"},{"inputs":[{"internalType":"address","name":"tokenAddr","type":"address"}],"name":"updateTokenBalance","outputs":[],"stateMutability":"nonpayable","type":"function"},{"inputs":[{"internalType":"uint256","name":"index","type":"uint256"}],"name":"viewOrder","outputs":[{"components":[{"internalType":"address payable","name":"makerAddr","type":"address"},{"internalType":"address","name":"tokenAddr","type":"address"},{"internalType":"bool","name":"orderType","type":"bool"},{"internalType":"uint256","name":"created","type":"uint256"},{"internalType":"uint256","name":"price","type":"uint256"},{"internalType":"uint256","name":"principal","type":"uint256"},{"internalType":"uint256","name":"pending","type":"uint256"},{"internalType":"uint256","name":"tokenIndex","type":"uint256"},{"internalType":"uint256","name":"userIndex","type":"uint256"}],"internalType":"struct DexhuneExchangeBase.Order","name":"","type":"tuple"}],"stateMutability":"view","type":"function"},{"inputs":[{"internalType":"address","name":"makerAddr","type":"address"},{"internalType":"uint256","name":"index","type":"uint256"}],"name":"viewOrderByMaker","outputs":[{"components":[{"internalType":"address payable","name":"makerAddr","type":"address"},{"internalType":"address","name":"tokenAddr","type":"address"},{"internalType":"bool","name":"orderType","type":"bool"},{"internalType":"uint256","name":"created","type":"uint256"},{"internalType":"uint256","name":"price","type":"uint256"},{"internalType":"uint256","name":"principal","type":"uint256"},{"internalType":"uint256","name":"pending","type":"uint256"},{"internalType":"uint256","name":"tokenIndex","type":"uint256"},{"internalType":"uint256","name":"userIndex","type":"uint256"}],"internalType":"struct DexhuneExchangeBase.Order","name":"","type":"tuple"}],"stateMutability":"view","type":"function"},{"inputs":[{"internalType":"address","name":"tokenAddr","type":"address"},{"internalType":"uint256","name":"index","type":"uint256"}],"name":"viewOrderByToken","outputs":[{"components":[{"internalType":"address payable","name":"makerAddr","type":"address"},{"internalType":"address","name":"tokenAddr","type":"address"},{"internalType":"bool","name":"orderType","type":"bool"},{"internalType":"uint256","name":"created","type":"uint256"},{"internalType":"uint256","name":"price","type":"uint256"},{"internalType":"uint256","name":"principal","type":"uint256"},{"internalType":"uint256","name":"pending","type":"uint256"},{"internalType":"uint256","name":"tokenIndex","type":"uint256"},{"internalType":"uint256","name":"userIndex","type":"uint256"}],"internalType":"struct DexhuneExchangeBase.Order","name":"","type":"tuple"}],"stateMutability":"view","type":"function"},{"inputs":[],"name":"viewPrice","outputs":[{"internalType":"uint256","name":"","type":"uint256"}],"stateMutability":"view","type":"function"},{"inputs":[{"internalType":"address","name":"tokenAddr","type":"address"}],"name":"viewToken","outputs":[{"components":[{"internalType":"uint256","name":"tokenNo","type":"uint256"},{"internalType":"string","name":"name","type":"string"},{"internalType":"string","name":"sym","type":"string"},{"internalType":"address","name":"addr","type":"address"},{"internalType":"address","name":"parityAddr","type":"address"},{"internalType":"uint256","name":"reward","type":"uint256"},{"internalType":"uint256","name":"rewardThreshold","type":"uint256"},{"internalType":"enum DexhuneExchangeBase.PricingScheme","name":"scheme","type":"uint8"},{"internalType":"uint256","name":"price","type":"uint256"},{"internalType":"uint256","name":"orders","type":"uint256"}],"internalType":"struct DexhuneExchangeBase.TokenDataModel","name":"","type":"tuple"}],"stateMutability":"view","type":"function"},{"inputs":[{"internalType":"uint256","name":"tokenNo","type":"uint256"}],"name":"viewTokenByIndex","outputs":[{"components":[{"internalType":"uint256","name":"tokenNo","type":"uint256"},{"internalType":"string","name":"name","type":"string"},{"internalType":"string","name":"sym","type":"string"},{"internalType":"address","name":"addr","type":"address"},{"internalType":"address","name":"parityAddr","type":"address"},{"internalType":"uint256","name":"reward","type":"uint256"},{"internalType":"uint256","name":"rewardThreshold","type":"uint256"},{"internalType":"enum DexhuneExchangeBase.PricingScheme","name":"scheme","type":"uint8"},{"internalType":"uint256","name":"price","type":"uint256"},{"internalType":"uint256","name":"orders","type":"uint256"}],"internalType":"struct DexhuneExchangeBase.TokenDataModel","name":"","type":"tuple"}],"stateMutability":"view","type":"function"}],"evm":{"bytecode":{"linkReferences":{},"object":"60806040526103e8600555600780546200001c9160089162000043565b503480156200002a57600080fd5b50600080546001600160a01b0319163317905562000189565b8280548282559060005260206000209060080281019282156200011a5760005260206000209160080282015b828111156200011a57825482546001600160a01b03199081166001600160a01b039283161784556001808601805491860180549384169290941691821784555460ff600160a01b91829004161515026001600160a81b031990921617179055600280840154908301556003808401549083015560048084015490830155600580840154908301556006808401549083015560078084015490830155600892830192909101906200006f565b50620001289291506200012c565b5090565b5b80821115620001285780546001600160a01b03191681556001810180546001600160a81b03191690556000600282018190556003820181905560048201819055600582018190556006820181905560078201556008016200012d565b614ef480620001996000396000f3fe6080604052600436106101a15760003560e01c806387b337e8116100e1578063a85c38ef1161008a578063d7dcdcec11610064578063d7dcdcec1461047a578063db34a6791461048f578063f2fde38b146104af578063f340fa01146104cf57600080fd5b8063a85c38ef14610412578063c201e47c14610447578063d29800651461046757600080fd5b8063a08b5bba116100bb578063a08b5bba146103bc578063a262b73f146103dc578063a5b6f92a146103fc57600080fd5b806387b337e81461035a5780638da5cb5b1461037a5780639351769f146103a757600080fd5b80634d9ea07d1161014e5780636aafbddd116101285780636aafbddd146102e75780636daf6945146103075780637c38d6631461031a57806386f179d21461033a57600080fd5b80634d9ea07d146102875780635264c8d9146102a7578063673cf82a146102c757600080fd5b8063338b5dea1161017f578063338b5dea146102255780633b174f0f146102475780633ef738561461026757600080fd5b8063076d782e146101a657806312065fe0146101dc5780631f5d2641146101f8575b600080fd5b3480156101b257600080fd5b506101c66101c13660046141a8565b6104e2565b6040516101d391906142ae565b60405180910390f35b3480156101e857600080fd5b50475b6040516101d391906142bd565b34801561020457600080fd5b506102186102133660046142cb565b610695565b6040516101d39190614460565b34801561023157600080fd5b506102456102403660046141a8565b6106a6565b005b34801561025357600080fd5b506101eb610262366004614484565b6106b5565b34801561027357600080fd5b506101c66102823660046141a8565b6106fb565b34801561029357600080fd5b506102456102a23660046145a5565b6107e4565b3480156102b357600080fd5b506102456102c2366004614624565b6107fa565b3480156102d357600080fd5b506102186102e236600461467c565b610818565b3480156102f357600080fd5b5061024561030236600461467c565b610849565b61024561031536600461467c565b6109e3565b34801561032657600080fd5b506101c66103353660046142cb565b610a7a565b34801561034657600080fd5b5061024561035536600461467c565b610ba4565b34801561036657600080fd5b5061024561037536600461467c565b610c09565b34801561038657600080fd5b5060005461039a906001600160a01b031681565b6040516101d3919061469d565b3480156103b357600080fd5b50610245610cab565b3480156103c857600080fd5b506102456103d73660046146ab565b610f99565b3480156103e857600080fd5b506102456103f73660046141a8565b610fa9565b34801561040857600080fd5b506101eb60055481565b34801561041e57600080fd5b5061043261042d3660046142cb565b6111db565b6040516101d3999897969594939291906146fb565b34801561045357600080fd5b50610245610462366004614484565b611249565b61024561047536600461467c565b611432565b34801561048657600080fd5b50600c546101eb565b34801561049b57600080fd5b506102456104aa3660046141a8565b61149b565b3480156104bb57600080fd5b506102456104ca36600461467c565b61153a565b6102456104dd36600461467c565b6115a0565b61054560405180610120016040528060006001600160a01b0316815260200160006001600160a01b031681526020016000151581526020016000815260200160008152602001600081526020016000815260200160008152602001600081525090565b6001600160a01b0383166000908152600b60209081526040808320805482518185028101850190935280835291929091908301828280156105a557602002820191906000526020600020905b815481526020019060010190808311610591575b50505050509050805183106105cd57604051635dcaf2d760e01b815260040160405180910390fd5b60008184815181106105e1576105e1614781565b60200260200101519050600781815481106105fe576105fe614781565b6000918252602091829020604080516101208101825260089390930290910180546001600160a01b039081168452600182015490811694840194909452600160a01b90930460ff161515908201526002820154606082015260038201546080820152600482015460a0820152600582015460c0820152600682015460e0820152600790910154610100820152925050505b92915050565b61069d6140ee565b61068f826115d0565b6106b18233836118e0565b5050565b600081156106dc57506001600160a01b03821660009081526001602052604090205461068f565b506001600160a01b03821660009081526002602052604090205461068f565b61075e60405180610120016040528060006001600160a01b0316815260200160006001600160a01b031681526020016000151581526020016000815260200160008152602001600081526020016000815260200160008152602001600081525090565b6001600160a01b0383166000908152600a60209081526040808320805482518185028101850190935280835291929091908301828280156105a557602002820191906000526020600020908154815260200190600101908083116105915750505050509050805183106105cd57604051635dcaf2d760e01b815260040160405180910390fd5b6107f48460008585600086611915565b50505050565b6107f484600184848760405180602001604052806000815250611915565b6108206140ee565b6001600160a01b038216600090815260096020526040902054610842816115d0565b9392505050565b6001600160a01b0381166000908152600a60209081526040808320815161012081018352848152928301849052908201839052606082018390526080820183905260a0820183905260c0820183905260e08201839052610100820183905280549092918290819042905b6000851180156108c35750606483105b156109d9576108d36001866147ad565b93508684815481106108e7576108e7614781565b906000526020600020015495506007868154811061090757610907614781565b6000918252602091829020604080516101208101825260089390930290910180546001600160a01b039081168452600182015490811694840194909452600160a01b90930460ff1615159082015260028201546060820181905260038301546080830152600483015460a0830152600583015460c0830152600683015460e083015260079092015461010082015291506028906109a490846147ad565b11156109c7576109b48187611a63565b156109c757826109c3816147c0565b9350505b846109d1816147da565b9550506108b3565b5050505050505050565b34600080806109f28585611b1d565b9250905080610a1457604051632050d62b60e01b815260040160405180910390fd5b6001600160a01b03851660009081526001602052604081208054869290610a3c9084906147f5565b90915550506007805483908110610a5557610a55614781565b90600052602060002090600802019250610a73836000848789611cd9565b5050505050565b610add60405180610120016040528060006001600160a01b0316815260200160006001600160a01b031681526020016000151581526020016000815260200160008152602001600081526020016000815260200160008152602001600081525090565b6007548210610aff57604051635dcaf2d760e01b815260040160405180910390fd5b60078281548110610b1257610b12614781565b6000918252602091829020604080516101208101825260089390930290910180546001600160a01b039081168452600182015490811694840194909452600160a01b90930460ff161515908201526002820154606082015260038201546080820152600482015460a0820152600582015460c0820152600682015460e082015260079091015461010082015292915050565b610bac611fd6565b600e80546001600160a01b0319166001600160a01b038316179055610bcf61201e565b7f15b49408719c001f91d2ec31b653d0929170f69ff422ef39920e9c280910115e81604051610bfe919061469d565b60405180910390a150565b6000610c14826120f4565b905060008161014001516001600160a01b03166370a08231306040518263ffffffff1660e01b8152600401610c49919061469d565b602060405180830381865afa158015610c66573d6000803e3d6000fd5b505050506040513d601f19601f82011682018060405250810190610c8a9190614813565b6001600160a01b039093166000908152600260205260409020929092555050565b336000908152600b6020526040812080549091901515908082610ccf576064610cd2565b60325b9050600080429050610d3d60405180610120016040528060006001600160a01b0316815260200160006001600160a01b031681526020016000151581526020016000815260200160008152602001600081526020016000815260200160008152602001600081525090565b600754610d4d5750505050505050565b6000808715610e8c57885491505b600082118015610d6b5750858711155b15610e8157610d7b6001836147ad565b9050888181548110610d8f57610d8f614781565b9060005260206000200154945060078581548110610daf57610daf614781565b6000918252602091829020604080516101208101825260089390930290910180546001600160a01b039081168452600182015490811694840194909452600160a01b90930460ff1615159082015260028201546060820181905260038301546080830152600483015460a0830152600583015460c0830152600683015460e08301526007909201546101008201529350602890610e4c90866147ad565b1115610e6f57610e5c8386611a63565b15610e6f5786610e6b816147c0565b9750505b81610e79816147da565b925050610d5b565b505050505050505050565b60075491505b600082118015610ea25750858711155b15610e8157610eb26001836147ad565b905060078181548110610ec757610ec7614781565b6000918252602091829020604080516101208101825260089390930290910180546001600160a01b039081168452600182015490811694840194909452600160a01b90930460ff1615159082015260028201546060820181905260038301546080830152600483015460a0830152600583015460c0830152600683015460e08301526007909201546101008201529350602890610f6490866147ad565b1115610f8757610f748382611a63565b15610f875786610f83816147c0565b9750505b81610f91816147da565b925050610e92565b610fa48383836118e0565b505050565b60008111610fca576040516342257ced60e11b815260040160405180910390fd5b6000610fd5836123a1565b90506111b28160405180610160016040529081600082018054610ff79061484a565b80601f01602080910402602001604051908101604052809291908181526020018280546110239061484a565b80156110705780601f1061104557610100808354040283529160200191611070565b820191906000526020600020905b81548152906001019060200180831161105357829003601f168201915b505050505081526020016001820180546110899061484a565b80601f01602080910402602001604051908101604052809291908181526020018280546110b59061484a565b80156111025780601f106110d757610100808354040283529160200191611102565b820191906000526020600020905b8154815290600101906020018083116110e557829003601f168201915b5050509183525050600282015460ff80821660208401526001600160a01b036101009092048216604084015260038401549182166060840152608090920191600160a01b90910416600181111561115b5761115b614342565b600181111561116c5761116c614342565b8152600482015460208201526005820154604082015260068201546060820152600782015460808201526008909101546001600160a01b031660a0909101523384612419565b6111cf576040516379cacff160e01b815260040160405180910390fd5b610fa481600084612469565b600881815481106111eb57600080fd5b6000918252602090912060089091020180546001820154600283015460038401546004850154600586015460068701546007909701546001600160a01b03968716985095851696600160a01b90950460ff1695939492939192909189565b6000611254836120f4565b60608101516001600160a01b03166000908152600a602052604081208054929350918190819081805b60008311801561128d5750606481105b15611426578061129c816147c0565b91506112ab90506001846147ad565b915060008783815481106112c1576112c1614781565b90600052602060002001549050600781815481106112e1576112e1614781565b9060005260206000209060080201965089611314576001600160a01b038b1660009081526001602052604090205461132e565b6001600160a01b038b166000908152600260205260409020545b94506000851161133e5750611426565b600187015460ff600160a01b9091041615158a15151461135e5750611414565b89156113775761137089888588612b06565b9550611386565b61138389888588612c71565b95505b856113915750611414565b604080516101208101825288546001600160a01b03908116825260018a01549081166020830152600160a01b900460ff161515918101919091526002880154606082015260038801546080820152600488015460a0820152600588015460c0820152600688015460e082015260078801546101008201526114129082612d78565b505b8261141e816147da565b93505061127d565b50505050505050505050565b3480611451576040516342257ced60e11b815260040160405180910390fd5b600061145c836123a1565b6001600160a01b0384166000908152600160205260408120805492935084929091906114899084906147f5565b90915550610fa4905081600184612469565b60006114a6836120f4565b905060008060006114b78686611b1d565b92509050806114d957604051632050d62b60e01b815260040160405180910390fd5b6114e4843387612419565b611501576040516379cacff160e01b815260040160405180910390fd5b6007828154811061151457611514614781565b9060005260206000209060080201925061153283600184888a611cd9565b505050505050565b611542611fd6565b600080546001600160a01b038381166001600160a01b0319831681179093556040519116917f850b3df64837d7d518b45f5aa64d104652c3b80eb5b34a8e3d9eb666cb7cdea591611594918491614876565b60405180910390a15050565b6001600160a01b038116600090815260016020526040812080543492906115c89084906147f5565b909155505050565b6115d86140ee565b8115806115e6575060065482115b15611604576040516362f850f760e11b815260040160405180910390fd5b600060066116136001856147ad565b8154811061162357611623614781565b90600052602060002090600902016040518061016001604052908160008201805461164d9061484a565b80601f01602080910402602001604051908101604052809291908181526020018280546116799061484a565b80156116c65780601f1061169b576101008083540402835291602001916116c6565b820191906000526020600020905b8154815290600101906020018083116116a957829003601f168201915b505050505081526020016001820180546116df9061484a565b80601f016020809104026020016040519081016040528092919081815260200182805461170b9061484a565b80156117585780601f1061172d57610100808354040283529160200191611758565b820191906000526020600020905b81548152906001019060200180831161173b57829003601f168201915b5050509183525050600282015460ff80821660208401526001600160a01b036101009092048216604084015260038401549182166060840152608090920191600160a01b9091041660018111156117b1576117b1614342565b60018111156117c2576117c2614342565b8152602001600482015481526020016005820154815260200160068201548152602001600782015481526020016008820160009054906101000a90046001600160a01b03166001600160a01b03166001600160a01b03168152505090506000600a600083606001516001600160a01b03166001600160a01b03168152602001908152602001600020805490509050604051806101400160405280858152602001836000015181526020018360200151815260200183606001516001600160a01b0316815260200183608001516001600160a01b031681526020018360c0015181526020018360e0015181526020018360a0015160018111156118c6576118c6614342565b815261010090930151602084015260409092015292915050565b60006118eb846120f4565b90506118f8818484612f44565b6107f4576040516379cacff160e01b815260040160405180910390fd5b600654158015611968576000546001600160a01b03163314611963576040517fac966a5200000000000000000000000000000000000000000000000000000000815260040160405180910390fd5b600095505b6001600160a01b03871660009081526009602052604090205487908015801590611993575060065415155b156119d557816040517f15ef3a570000000000000000000000000000000000000000000000000000000081526004016119cc919061469d565b60405180910390fd5b600654620f424011611a13576040517f53bb24f900000000000000000000000000000000000000000000000000000000815260040160405180910390fd5b600080896001811115611a2857611a28614342565b03611a4d5783611a4257611a3b8561301b565b9050611a4d565b50670de0b6b3a76400005b611a5561306b565b61142683828b898c8c6132e0565b600080611a7384602001516120f4565b9050836040015115611aa557611a928185600001518660a00151613772565b611aa057600091505061068f565b611ac6565b611ab88185600001518660a0015161381c565b611ac657600091505061068f565b611ad08484612d78565b7f3d8da260c5e35dcba4a38c844b979a7c70c6fdbed58be53da6e817ef6a2541e08385604001518660000151604051611b0b939291906148d3565b60405180910390a15060019392505050565b600080611b8360405180610120016040528060006001600160a01b0316815260200160006001600160a01b031681526020016000151581526020016000815260200160008152602001600081526020016000815260200160008152602001600081525090565b6001600160a01b0385166000908152600a602052604081208054909190815b600082118015611bb0575082155b15611ccb57611bc06001836147ad565b90506000848281548110611bd657611bd6614781565b9060005260206000200154905060078181548110611bf657611bf6614781565b6000918252602091829020604080516101208101825260089390930290910180546001600160a01b039081168452600182015490811694840194909452600160a01b90930460ff161515908201526002820154606082015260038201546080820152600482015460a0820152600582015460c08201819052600683015460e08301526007909201546101008201529650899003611c995760019350809650611cb8565b83158015611cab5750888660c0015110155b15611cb857600193508096505b5081611cc3816147da565b925050611ba2565b509094505050509250929050565b6000611ce4826120f4565b905060078481548110611cf957611cf9614781565b600091825260209091206008909102016004810154600582015482546040850151939950919290918683148015926001600160a01b0390921691600191899190611d90578b15611d72576000611d4f8783613947565b90506000611d5d8c84613947565b9050611d698183613973565b94505050611d7f565b611d7c8a87613973565b92505b611d8d8d600401548461397f565b96505b611e5d8d604051806101200160405290816000820160009054906101000a90046001600160a01b03166001600160a01b03166001600160a01b031681526020016001820160009054906101000a90046001600160a01b03166001600160a01b03166001600160a01b031681526020016001820160149054906101000a900460ff16151515158152602001600282015481526020016003820154815260200160048201548152602001600582015481526020016006820154815260200160078201548152505089848a61398b565b60008c611e6a5787611e6c565b825b90508515611eae578a8e6005016000828254611e8891906147ad565b92505081905550878e6004016000828254611ea391906147ad565b90915550611f799050565b611f798e604051806101200160405290816000820160009054906101000a90046001600160a01b03166001600160a01b03166001600160a01b031681526020016001820160009054906101000a90046001600160a01b03166001600160a01b03166001600160a01b031681526020016001820160149054906101000a900460ff1615151515815260200160028201548152602001600382015481526020016004820154815260200160058201548152602001600682015481526020016007820154815250508d612d78565b611f838982613a08565b7fd18715c1e0d5b06959a9b12a3c5d857ce3698a58f6ac5bc7726bd7df86476f408c8e87338e888c604051611fbe97969594939291906148fb565b60405180910390a15050505050505050505050505050565b6000546001600160a01b0316331461201c57336040517f32b2baa30000000000000000000000000000000000000000000000000000000081526004016119cc919061469d565b565b600d541580159061203c575060f0600d544261203a91906147ad565b105b1561204357565b600e54604080517f98d5fdca00000000000000000000000000000000000000000000000000000000815290516000926001600160a01b0316916398d5fdca91600480830192869291908290030181865afa1580156120a5573d6000803e3d6000fd5b505050506040513d6000823e601f3d908101601f191682016040526120cd91908101906149bb565b90506000806120db83613ab2565b9150915080156120eb57600c8290555b505042600d5550565b61215a604080516101608101825260608082526020820181905260009282018390528101829052608081018290529060a082019081526020016000815260200160008152602001600081526020016000815260200160006001600160a01b031681525090565b6001600160a01b038216600090815260096020526040902054801580612181575060065481115b1561219f576040516362f850f760e11b815260040160405180910390fd5b60066121ac6001836147ad565b815481106121bc576121bc614781565b9060005260206000209060090201604051806101600160405290816000820180546121e69061484a565b80601f01602080910402602001604051908101604052809291908181526020018280546122129061484a565b801561225f5780601f106122345761010080835404028352916020019161225f565b820191906000526020600020905b81548152906001019060200180831161224257829003601f168201915b505050505081526020016001820180546122789061484a565b80601f01602080910402602001604051908101604052809291908181526020018280546122a49061484a565b80156122f15780601f106122c6576101008083540402835291602001916122f1565b820191906000526020600020905b8154815290600101906020018083116122d457829003601f168201915b5050509183525050600282015460ff80821660208401526001600160a01b036101009092048216604084015260038401549182166060840152608090920191600160a01b90910416600181111561234a5761234a614342565b600181111561235b5761235b614342565b8152600482015460208201526005820154604082015260068201546060820152600782015460808201526008909101546001600160a01b031660a0909101529392505050565b6001600160a01b0381166000908152600960205260408120548015806123c8575060065481115b156123e6576040516362f850f760e11b815260040160405180910390fd5b60066123f36001836147ad565b8154811061240357612403614781565b9060005260206000209060090201915050919050565b600080612427858585612f44565b905080156124615760608501516001600160a01b03166000908152600360205260408120805485929061245b9084906147f5565b90915550505b949350505050565b6000806003850154600160a01b900460ff16600181111561248c5761248c614342565b036124b05761249961201e565b6124a9600c548560060154613973565b9050612851565b60016003850154600160a01b900460ff1660018111156124d2576124d2614342565b036128515760008460070154600014806124fc575060f08560070154426124f991906147ad565b10155b90508015612847576000600660008154811061251a5761251a614781565b9060005260206000209060090201604051806101600160405290816000820180546125449061484a565b80601f01602080910402602001604051908101604052809291908181526020018280546125709061484a565b80156125bd5780601f10612592576101008083540402835291602001916125bd565b820191906000526020600020905b8154815290600101906020018083116125a057829003601f168201915b505050505081526020016001820180546125d69061484a565b80601f01602080910402602001604051908101604052809291908181526020018280546126029061484a565b801561264f5780601f106126245761010080835404028352916020019161264f565b820191906000526020600020905b81548152906001019060200180831161263257829003601f168201915b5050509183525050600282015460ff80821660208401526001600160a01b036101009092048216604084015260038401549182166060840152608090920191600160a01b9091041660018111156126a8576126a8614342565b60018111156126b9576126b9614342565b81526004828101546020830152600583015460408084019190915260068401546060840152600784015460808401526008938401546001600160a01b0390811660a090940193909352928a015461014085015160038c015494516370a0823160e01b815295965090831694909360009386936370a082319361273f93909216910161469d565b602060405180830381865afa15801561275c573d6000803e3d6000fd5b505050506040513d601f19601f820116820180604052508101906127809190614813565b60038a01546040516370a0823160e01b81529192506000916001600160a01b03858116926370a08231926127ba929091169060040161469d565b602060405180830381865afa1580156127d7573d6000803e3d6000fd5b505050506040513d601f19601f820116820180604052508101906127fb9190614813565b60028b015490915061281190839060ff16613947565b9150612821818660400151613947565b905061282d8183613973565b60068b018190554260078c0155965061284f945050505050565b846006015491505b505b6000831561287a57612873612866848461397f565b600287015460ff16613be4565b905061289a565b60028501546128979061289190859060ff16613947565b83613973565b90505b600060078054905090506000604051806101200160405280336001600160a01b031681526020018860020160019054906101000a90046001600160a01b03166001600160a01b031681526020018715158152602001428152602001858152602001868152602001848152602001838152602001838152509050600781908060018154018082558091505060019003906000526020600020906008020160009091909190915060008201518160000160006101000a8154816001600160a01b0302191690836001600160a01b0316021790555060208201518160010160006101000a8154816001600160a01b0302191690836001600160a01b0316021790555060408201518160010160146101000a81548160ff021916908315150217905550606082015181600201556080820151816003015560a0820151816004015560c0820151816005015560e0820151816006015561010082015181600701555050600b6000336001600160a01b03166001600160a01b03168152602001908152602001600020829080600181540180825580915050600190039060005260206000200160009091909190915055600a60008860020160019054906101000a90046001600160a01b03166001600160a01b03166001600160a01b031681526020019081526020016000208290806001815401808255809150506001900390600052602060002001600090919091909150557f96d694e92c01c8197b4cf2ecb0ec03be940cc6e384cbdfb2afb329375a0be25282878960020160019054906101000a90046001600160a01b03168888604051612af59594939291906149f6565b60405180910390a150505050505050565b6000806000808660050154851090508015612b2357849150612b2b565b866005015491505b60608801516001600160a01b03166000908152600360205260409020548211612b6c578654612b659089906001600160a01b03168461381c565b9250612b86565b8654612b839089906001600160a01b031684613c04565b92505b82612b975760009350505050612461565b8015612c0c576000612bc7612bb0848b60400151613947565b612bc28a600501548c60400151613947565b613973565b9050612bd788600401548261397f565b886004016000828254612bea91906147ad565b9250508190555082886005016000828254612c0591906147ad565b9091555050505b600187015487546040517fbdb78cc9b5d01bdac074df120cc9776d231060cdcdcc8c7f6c2039f67a5e626f92612c5d928a92600160a01b90920460ff16916001600160a01b03909116908690614a42565b60405180910390a115979650505050505050565b6005830154600090819083108015612c8b57839150612c93565b856005015491505b8554612caa9088906001600160a01b031684613772565b612cb957600092505050612461565b8015612d14576000612ccf838860050154613973565b9050612cdf87600401548261397f565b876004016000828254612cf291906147ad565b9250508190555082876005016000828254612d0d91906147ad565b9091555050505b600186015486546040517fbdb78cc9b5d01bdac074df120cc9776d231060cdcdcc8c7f6c2039f67a5e626f92612d65928992600160a01b90920460ff16916001600160a01b03909116908690614a42565b60405180910390a1159695505050505050565b61010082015160e083015183516001600160a01b039081166000908152600b60209081526040808320828901519094168352600a909152812090612dbc8386613cb3565b15612e0a576007838681548110612dd557612dd5614781565b906000526020600020015481548110612df057612df0614781565b906000526020600020906008020190508481600701819055505b612e148285613cb3565b15612e62576007828581548110612e2d57612e2d614781565b906000526020600020015481548110612e4857612e48614781565b906000526020600020906008020190508381600601819055505b612e6d600787613d3e565b15612f3b5760078681548110612e8557612e85614781565b9060005260206000209060080201905086610100015194508660e001519350600b600088600001516001600160a01b03166001600160a01b031681526020019081526020016000209250600a600088602001516001600160a01b03166001600160a01b03168152602001908152602001600020915085838681548110612f0d57612f0d614781565b906000526020600020018190555085828581548110612f2e57612f2e614781565b6000918252602090912001555b50505050505050565b6101408301516040517f23b872dd0000000000000000000000000000000000000000000000000000000081526000916001600160a01b0316906323b872dd90612f9590869030908790600401614a80565b6020604051808303816000875af1925050508015612fd0575060408051601f3d908101601f19168201909252612fcd91810190614ab3565b60015b612fdc57506000610842565b80156130145760608501516001600160a01b03166000908152600260205260408120805485929061300e9084906147f5565b90915550505b9050610842565b600080600061302984613ab2565b9150915080613064576040517fe6f7d2c700000000000000000000000000000000000000000000000000000000815260040160405180910390fd5b5092915050565b60065460000361307757565b613275600660008154811061308e5761308e614781565b9060005260206000209060090201604051806101600160405290816000820180546130b89061484a565b80601f01602080910402602001604051908101604052809291908181526020018280546130e49061484a565b80156131315780601f1061310657610100808354040283529160200191613131565b820191906000526020600020905b81548152906001019060200180831161311457829003601f168201915b5050505050815260200160018201805461314a9061484a565b80601f01602080910402602001604051908101604052809291908181526020018280546131769061484a565b80156131c35780601f10613198576101008083540402835291602001916131c3565b820191906000526020600020905b8154815290600101906020018083116131a657829003601f168201915b5050509183525050600282015460ff80821660208401526001600160a01b036101009092048216604084015260038401549182166060840152608090920191600160a01b90910416600181111561321c5761321c614342565b600181111561322d5761322d614342565b815260048201546020820152600580830154604083015260068301546060830152600783015460808301526008909201546001600160a01b031660a090910152543390612f44565b6132af576005546040517fca114a020000000000000000000000000000000000000000000000000000000081526004016119cc91906142bd565b60006103e8600580546132c29190614ad4565b6132cc9190614b02565b905080600560008282546115c891906147f5565b6000869050606080600080846001600160a01b03166370a08231306040518263ffffffff1660e01b8152600401613317919061469d565b602060405180830381865afa925050508015613350575060408051601f3d908101601f1916820190925261334d91810190614813565b60015b613386576040517f29bdfb3400000000000000000000000000000000000000000000000000000000815260040160405180910390fd5b809250856001600160a01b031663313ce5676040518163ffffffff1660e01b8152600401602060405180830381865afa9250505080156133e3575060408051601f3d908101601f191682019092526133e091810190614b2a565b60015b6133f057601291506133f3565b91505b601260ff83161115613431576040517f432c0a5d00000000000000000000000000000000000000000000000000000000815260040160405180910390fd5b856001600160a01b03166306fdde036040518163ffffffff1660e01b8152600401600060405180830381865afa92505050801561349057506040513d6000823e601f3d908101601f1916820160405261348d91908101906149bb565b60015b156134985794505b856001600160a01b03166395d89b416040518163ffffffff1660e01b8152600401600060405180830381865afa9250505080156134f757506040513d6000823e601f3d908101601f191682016040526134f491908101906149bb565b60015b156134ff5793505b5060006040518061016001604052808681526020018581526020018360ff1681526020018d6001600160a01b031681526020018a6001600160a01b031681526020018b600181111561355357613553614342565b8152602081018a905260408101899052606081018d90526000608082018190526001600160a01b03891660a0909201919091526006805460018101825591528151919250829160099091027ff652222313e28459528d920b65115c16c04f3efc82aaedc97be59f3f377c0d3f019081906135cd9082614bdc565b50602082015160018201906135e29082614bdc565b506040820151600282018054606085015160ff90931674ffffffffffffffffffffffffffffffffffffffffff19918216176101006001600160a01b03948516021790915560808401516003840180546001600160a01b0319811692909416918217815560a08601519390921617600160a01b83600181111561366657613666614342565b021790555060c0820151600482015560e08201516005820155610100820151600680830191909155610120830151600783015561014090920151600890910180546001600160a01b0319166001600160a01b03928316179055905460608301805183166000908152600960209081526040808320949094559151909316835260028152918190208590559082015190516137009190614cc1565b604051908190038120825190916137179190614cc1565b60405190819003812060a0840151606085015160065492937f2b9a73ecc76ebad22366f66b2436a1725cc4f39aa579663fc941863779316b1b9361375c939291614ccd565b60405180910390a3505050505050505050505050565b6040516000906001600160a01b0384169083156108fc0290849084818181858888f1935050505015613812577f0897f9f8697c0fee5acfc2c885618e98d4f0882e71e35d182faccc1915c01ecb82846040516137cf929190614cdb565b60405180910390a160608401516001600160a01b0316600090815260016020526040812080548492906138039084906147ad565b90915550600191506108429050565b5060009392505050565b61014083015160405163a9059cbb60e01b81526000916001600160a01b03169063a9059cbb906138529086908690600401614cf6565b6020604051808303816000875af192505050801561388d575060408051601f3d908101601f1916820190925261388a91810190614ab3565b60015b61389957506000610842565b80156130145760608501516001600160a01b0316600090815260026020526040812080548592906138cb9084906147ad565b909155505060608501516001600160a01b0316600090815260036020526040812080548592906138fc9084906147ad565b909155505060608501516040517fa84f763be5bb36163517fb87c7af39f875a97866fdf7806eb1b3eac837ae35ea916139389186918891614d11565b60405180910390a19050610842565b60008160ff1660011461396c5761395d82613ec4565b6139679084614ad4565b610842565b5090919050565b60006108428383613f08565b60006108428383613f1d565b6000806000808760400151156139ac575050855183925084915033906139b8565b50508551849250839150335b6139c387828561381c565b6139e0576040516304de4e1d60e41b815260040160405180910390fd5b6139eb878386613772565b6109d9576040516304de4e1d60e41b815260040160405180910390fd5b60c082015160008115801590613a2257508360e001518310155b905080156107f4576060840180516001600160a01b039081166000908152600360209081526040808320549451909316825260029052908120549091613a67916147ad565b905082811115610a7357613a7c853385613c04565b610a73576040517fc96d18b500000000000000000000000000000000000000000000000000000000815260040160405180910390fd5b60008080808481808080805b855181108015613acc575083155b15613bb957858181518110613ae357613ae3614781565b016020015160f81c945060308510801590613b02575060398560ff1611155b15613b71578697508215613b225781613b1a81614d39565b925050613b30565b613b2d600a88614ad4565b96505b613b3b82600a614e4d565b613b46603087614e62565b60ff16613b539190614ad4565b613b5d90886147f5565b965086881115613b6c57600193505b613ba7565b8460ff16602e03613ba7578215613b8757600193505b6001925060129150613b9a82600a614e4d565b613ba49088614ad4565b96505b80613bb1816147c0565b915050613abe565b5081613bd457613bd1670de0b6b3a764000087614ad4565b95505b5093989015975095505050505050565b60008160ff1660011461396c57613bfa82613ec4565b6139679084614b02565b61014083015160405163a9059cbb60e01b81526000916001600160a01b03169063a9059cbb90613c3a9086908690600401614cf6565b6020604051808303816000875af1925050508015613c75575060408051601f3d908101601f19168201909252613c7291810190614ab3565b60015b613c8157506000610842565b80156130145760608501516001600160a01b0316600090815260026020526040812080548592906138fc9084906147ad565b81546000908190613cc6906001906147ad565b905082811480613d0c57848281548110613ce257613ce2614781565b9060005260206000200154858581548110613cff57613cff614781565b6000918252602090912001555b84805480613d1c57613d1c614e7f565b6001900381819060005260206000200160009055905580159250505092915050565b81546000908190613d51906001906147ad565b905082811480613e3e57848281548110613d6d57613d6d614781565b9060005260206000209060080201858581548110613d8d57613d8d614781565b60009182526020909120825460089092020180546001600160a01b03199081166001600160a01b039384161782556001808501805491840180549384169290951691821785555460ff600160a01b918290041615150274ffffffffffffffffffffffffffffffffffffffffff19909216171790915560028083015490820155600380830154908201556004808301549082015560058083015490820155600680830154908201556007918201549101555b84805480613e4e57613e4e614e7f565b60008281526020812060086000199093019283020180546001600160a01b031916815560018101805474ffffffffffffffffffffffffffffffffffffffffff1916905560028101829055600381018290556004810182905560058101829055600681018290556007015590551591505092915050565b60ff811660009081526004602052604081205490819003613f03575060ff81811660009081526004602052604090206012839003909116600a0a908190555b919050565b600061084283670de0b6b3a764000084613f29565b6000610842838361400b565b6000808060001985870985870292508281108382030391505080600003613f6357838281613f5957613f59614aec565b0492505050610842565b838110613fa2578585856040517f6c59da120000000000000000000000000000000000000000000000000000000081526004016119cc93929190614e95565b60008486880960026001871981018816978890046003810283188082028403028082028403028082028403028082028403028082028403029081029092039091026000889003889004909101858311909403939093029303949094049190911702949350505050565b600080806000198486098486029250828110838203039150508060000361403f5750670de0b6b3a76400009004905061068f565b670de0b6b3a764000081106140845784846040517fd3c0df5e0000000000000000000000000000000000000000000000000000000081526004016119cc929190614eb0565b6000670de0b6b3a7640000858709620400008185030493109091037d40000000000000000000000000000000000000000000000000000000000002919091177faccb18165bd6fe31ae1cf318dc5b51eee0e1ba569b88cd74c1773b91fac106690291505092915050565b60405180610140016040528060008152602001606081526020016060815260200160006001600160a01b0316815260200160006001600160a01b0316815260200160008152602001600081526020016000600181111561415057614150614342565b815260200160008152602001600081525090565b60006001600160a01b03821661068f565b61417e81614164565b811461418957600080fd5b50565b803561068f81614175565b8061417e565b803561068f81614197565b600080604083850312156141be576141be600080fd5b60006141ca858561418c565b92505060206141db8582860161419d565b9150509250929050565b6141ee81614164565b82525050565b8015156141ee565b806141ee565b805161012083019061421484826141e5565b50602082015161422760208501826141e5565b50604082015161423a60408501826141f4565b50606082015161424d60608501826141fc565b50608082015161426060808501826141fc565b5060a082015161427360a08501826141fc565b5060c082015161428660c08501826141fc565b5060e082015161429960e08501826141fc565b506101008201516107f46101008501826141fc565b610120810161068f8284614202565b6020810161068f82846141fc565b6000602082840312156142e0576142e0600080fd5b6000612461848461419d565b60005b838110156143075781810151838201526020016142ef565b50506000910152565b600061431a825190565b8084526020840193506143318185602086016142ec565b601f01601f19169290920192915050565b634e487b7160e01b600052602160045260246000fd5b6002811061418957614189614342565b80613f0381614358565b600061068f82614368565b6141ee81614372565b805160009061014084019061439b85826141fc565b50602083015184820360208601526143b38282614310565b915050604083015184820360408601526143cd8282614310565b91505060608301516143e260608601826141e5565b5060808301516143f560808601826141e5565b5060a083015161440860a08601826141fc565b5060c083015161441b60c08601826141fc565b5060e083015161442e60e086018261437d565b506101008301516144436101008601826141fc565b506101208301516144586101208601826141fc565b509392505050565b602080825281016108428184614386565b80151561417e565b803561068f81614471565b6000806040838503121561449a5761449a600080fd5b60006144a6858561418c565b92505060206141db85828601614479565b634e487b7160e01b600052604160045260246000fd5b601f19601f830116810181811067ffffffffffffffff821117156144f3576144f36144b7565b6040525050565b600061450560405190565b9050613f0382826144cd565b600067ffffffffffffffff82111561452b5761452b6144b7565b601f19601f83011660200192915050565b82818337506000910152565b600061455b61455684614511565b6144fa565b90508281526020810184848401111561457657614576600080fd5b61445884828561453c565b600082601f83011261459557614595600080fd5b8135612461848260208601614548565b600080600080608085870312156145be576145be600080fd5b60006145ca878761418c565b94505060206145db8782880161419d565b93505060406145ec8782880161419d565b925050606085013567ffffffffffffffff81111561460c5761460c600080fd5b61461887828801614581565b91505092959194509250565b6000806000806080858703121561463d5761463d600080fd5b6000614649878761418c565b945050602061465a8782880161418c565b935050604061466b8782880161419d565b92505060606146188782880161419d565b60006020828403121561469157614691600080fd5b6000612461848461418c565b6020810161068f82846141e5565b6000806000606084860312156146c3576146c3600080fd5b60006146cf868661418c565b93505060206146e08682870161418c565b92505060406146f18682870161419d565b9150509250925092565b610120810161470a828c6141e5565b614717602083018b6141e5565b614724604083018a6141f4565b61473160608301896141fc565b61473e60808301886141fc565b61474b60a08301876141fc565b61475860c08301866141fc565b61476560e08301856141fc565b6147736101008301846141fc565b9a9950505050505050505050565b634e487b7160e01b600052603260045260246000fd5b634e487b7160e01b600052601160045260246000fd5b8181038181111561068f5761068f614797565b600060001982036147d3576147d3614797565b5060010190565b6000815b9150816147ed576147ed614797565b506000190190565b8082018082111561068f5761068f614797565b805161068f81614197565b60006020828403121561482857614828600080fd5b60006124618484614808565b634e487b7160e01b600052602260045260246000fd5b60028104600182168061485e57607f821691505b60208210810361487057614870614834565b50919050565b6040810161488482856141e5565b61084260208301846141e5565b600061068f6001600160a01b0383166148a8565b90565b6001600160a01b031690565b600061068f82614891565b600061068f826148b4565b6141ee816148bf565b606081016148e182866141fc565b6148ee60208301856141f4565b61246160408301846148ca565b60e08101614909828a6141fc565b61491660208301896141f4565b61492360408301886148ca565b61493060608301876141e5565b61493d60808301866141e5565b61494a60a08301856141fc565b61495760c08301846141f4565b98975050505050505050565b600061497161455684614511565b90508281526020810184848401111561498c5761498c600080fd5b6144588482856142ec565b600082601f8301126149ab576149ab600080fd5b8151612461848260208601614963565b6000602082840312156149d0576149d0600080fd5b815167ffffffffffffffff8111156149ea576149ea600080fd5b61246184828501614997565b60a08101614a0482886141fc565b614a1160208301876141f4565b614a1e60408301866141e5565b614a2b60608301856141fc565b614a3860808301846141fc565b9695505050505050565b60808101614a5082876141fc565b614a5d60208301866141f4565b614a6a60408301856148ca565b614a7760608301846141f4565b95945050505050565b60608101614a8e82866141e5565b614a9b60208301856141e5565b61246160408301846141fc565b805161068f81614471565b600060208284031215614ac857614ac8600080fd5b60006124618484614aa8565b81810280821583820485141761306457613064614797565b634e487b7160e01b600052601260045260246000fd5b600082614b1157614b11614aec565b500490565b60ff811661417e565b805161068f81614b16565b600060208284031215614b3f57614b3f600080fd5b60006124618484614b1f565b600061068f6148a58381565b614b6083614b4b565b815460001960089490940293841b1916921b91909117905550565b6000610fa4818484614b57565b818110156106b157614b9b600082614b7b565b600101614b88565b601f821115610fa4576000818152602090206020601f85010481016020851015614bca5750805b610a736020601f860104830182614b88565b815167ffffffffffffffff811115614bf657614bf66144b7565b614c00825461484a565b614c0b828285614ba3565b6020601f831160018114614c3f5760008415614c275750858201515b600019600886021c1981166002860217865550611532565b600085815260208120601f198616915b82811015614c6f5788850151825560209485019460019092019101614c4f565b86831015614c8b5784890151600019601f89166008021c191682555b600160028802018855505050505050505050565b6000614ca9825190565b614cb78185602086016142ec565b9290920192915050565b60006108428284614c9f565b60608101614a8e828661437d565b60408101614ce982856141fc565b61084260208301846148ca565b60408101614d0482856141e5565b61084260208301846141fc565b60608101614d1f82866141fc565b614d2c60208301856141e5565b61246160408301846141e5565b600060ff82166147de565b80825b6001851115614d8357808604811115614d6257614d62614797565b6001851615614d7057908102905b8002614d7c8560011c90565b9450614d47565b94509492505050565b600082614d9b57506001610842565b81614da857506000610842565b8160018114614dbe5760028114614dc857614df5565b6001915050610842565b60ff841115614dd957614dd9614797565b8360020a915084821115614def57614def614797565b50610842565b5060208310610133831016604e8410600b8410161715614e23575081810a8381111561396757613967614797565b614e308484846001614d44565b92509050818404811115614e4657614e46614797565b0292915050565b600060ff831692506108426000198484614d8c565b60ff91821691908116908282039081111561068f5761068f614797565b634e487b7160e01b600052603160045260246000fd5b60608101614ea382866141fc565b614a9b60208301856141fc565b60408101614d0482856141fc56fea26469706673582212204762124012d3e43c6837ddf1551d1c9a1b565d1e62e3673f3c2f79f07822447464736f6c63430008160033","opcodes":"PUSH1 0x80 PUSH1 0x40 MSTORE PUSH2 0x3E8 PUSH1 0x5 SSTORE PUSH1 0x7 DUP1 SLOAD PUSH3 0x1C SWAP2 PUSH1 0x8 SWAP2 PUSH3 0x43 JUMP JUMPDEST POP CALLVALUE DUP1 ISZERO PUSH3 0x2A JUMPI PUSH1 0x0 DUP1 REVERT JUMPDEST POP PUSH1 0x0 DUP1 SLOAD PUSH1 0x1 PUSH1 0x1 PUSH1 0xA0 SHL SUB NOT AND CALLER OR SWAP1 SSTORE PUSH3 0x189 JUMP JUMPDEST DUP3 DUP1 SLOAD DUP3 DUP3 SSTORE SWAP1 PUSH1 0x0 MSTORE PUSH1 0x20 PUSH1 0x0 KECCAK256 SWAP1 PUSH1 0x8 MUL DUP2 ADD SWAP3 DUP3 ISZERO PUSH3 0x11A JUMPI PUSH1 0x0 MSTORE PUSH1 0x20 PUSH1 0x0 KECCAK256 SWAP2 PUSH1 0x8 MUL DUP3 ADD JUMPDEST DUP3 DUP2 GT ISZERO PUSH3 0x11A JUMPI DUP3 SLOAD DUP3 SLOAD PUSH1 0x1 PUSH1 0x1 PUSH1 0xA0 SHL SUB NOT SWAP1 DUP2 AND PUSH1 0x1 PUSH1 0x1 PUSH1 0xA0 SHL SUB SWAP3 DUP4 AND OR DUP5 SSTORE PUSH1 0x1 DUP1 DUP7 ADD DUP1 SLOAD SWAP2 DUP7 ADD DUP1 SLOAD SWAP4 DUP5 AND SWAP3 SWAP1 SWAP5 AND SWAP2 DUP3 OR DUP5 SSTORE SLOAD PUSH1 0xFF PUSH1 0x1 PUSH1 0xA0 SHL SWAP2 DUP3 SWAP1 DIV AND ISZERO ISZERO MUL PUSH1 0x1 PUSH1 0x1 PUSH1 0xA8 SHL SUB NOT SWAP1 SWAP3 AND OR OR SWAP1 SSTORE PUSH1 0x2 DUP1 DUP5 ADD SLOAD SWAP1 DUP4 ADD SSTORE PUSH1 0x3 DUP1 DUP5 ADD SLOAD SWAP1 DUP4 ADD SSTORE PUSH1 0x4 DUP1 DUP5 ADD SLOAD SWAP1 DUP4 ADD SSTORE PUSH1 0x5 DUP1 DUP5 ADD SLOAD SWAP1 DUP4 ADD SSTORE PUSH1 0x6 DUP1 DUP5 ADD SLOAD SWAP1 DUP4 ADD SSTORE PUSH1 0x7 DUP1 DUP5 ADD SLOAD SWAP1 DUP4 ADD SSTORE PUSH1 0x8 SWAP3 DUP4 ADD SWAP3 SWAP1 SWAP2 ADD SWAP1 PUSH3 0x6F JUMP JUMPDEST POP PUSH3 0x128 SWAP3 SWAP2 POP PUSH3 0x12C JUMP JUMPDEST POP SWAP1 JUMP JUMPDEST JUMPDEST DUP1 DUP3 GT ISZERO PUSH3 0x128 JUMPI DUP1 SLOAD PUSH1 0x1 PUSH1 0x1 PUSH1 0xA0 SHL SUB NOT AND DUP2 SSTORE PUSH1 0x1 DUP2 ADD DUP1 SLOAD PUSH1 0x1 PUSH1 0x1 PUSH1 0xA8 SHL SUB NOT AND SWAP1 SSTORE PUSH1 0x0 PUSH1 0x2 DUP3 ADD DUP2 SWAP1 SSTORE PUSH1 0x3 DUP3 ADD DUP2 SWAP1 SSTORE PUSH1 0x4 DUP3 ADD DUP2 SWAP1 SSTORE PUSH1 0x5 DUP3 ADD DUP2 SWAP1 SSTORE PUSH1 0x6 DUP3 ADD DUP2 SWAP1 SSTORE PUSH1 0x7 DUP3 ADD SSTORE PUSH1 0x8 ADD PUSH3 0x12D JUMP JUMPDEST PUSH2 0x4EF4 DUP1 PUSH3 0x199 PUSH1 0x0 CODECOPY PUSH1 0x0 RETURN INVALID PUSH1 0x80 PUSH1 0x40 MSTORE PUSH1 0x4 CALLDATASIZE LT PUSH2 0x1A1 JUMPI PUSH1 0x0 CALLDATALOAD PUSH1 0xE0 SHR DUP1 PUSH4 0x87B337E8 GT PUSH2 0xE1 JUMPI DUP1 PUSH4 0xA85C38EF GT PUSH2 0x8A JUMPI DUP1 PUSH4 0xD7DCDCEC GT PUSH2 0x64 JUMPI DUP1 PUSH4 0xD7DCDCEC EQ PUSH2 0x47A JUMPI DUP1 PUSH4 0xDB34A679 EQ PUSH2 0x48F JUMPI DUP1 PUSH4 0xF2FDE38B EQ PUSH2 0x4AF JUMPI DUP1 PUSH4 0xF340FA01 EQ PUSH2 0x4CF JUMPI PUSH1 0x0 DUP1 REVERT JUMPDEST DUP1 PUSH4 0xA85C38EF EQ PUSH2 0x412 JUMPI DUP1 PUSH4 0xC201E47C EQ PUSH2 0x447 JUMPI DUP1 PUSH4 0xD2980065 EQ PUSH2 0x467 JUMPI PUSH1 0x0 DUP1 REVERT JUMPDEST DUP1 PUSH4 0xA08B5BBA GT PUSH2 0xBB JUMPI DUP1 PUSH4 0xA08B5BBA EQ PUSH2 0x3BC JUMPI DUP1 PUSH4 0xA262B73F EQ PUSH2 0x3DC JUMPI DUP1 PUSH4 0xA5B6F92A EQ PUSH2 0x3FC JUMPI PUSH1 0x0 DUP1 REVERT JUMPDEST DUP1 PUSH4 0x87B337E8 EQ PUSH2 0x35A JUMPI DUP1 PUSH4 0x8DA5CB5B EQ PUSH2 0x37A JUMPI DUP1 PUSH4 0x9351769F EQ PUSH2 0x3A7 JUMPI PUSH1 0x0 DUP1 REVERT JUMPDEST DUP1 PUSH4 0x4D9EA07D GT PUSH2 0x14E JUMPI DUP1 PUSH4 0x6AAFBDDD GT PUSH2 0x128 JUMPI DUP1 PUSH4 0x6AAFBDDD EQ PUSH2 0x2E7 JUMPI DUP1 PUSH4 0x6DAF6945 EQ PUSH2 0x307 JUMPI DUP1 PUSH4 0x7C38D663 EQ PUSH2 0x31A JUMPI DUP1 PUSH4 0x86F179D2 EQ PUSH2 0x33A JUMPI PUSH1 0x0 DUP1 REVERT JUMPDEST DUP1 PUSH4 0x4D9EA07D EQ PUSH2 0x287 JUMPI DUP1 PUSH4 0x5264C8D9 EQ PUSH2 0x2A7 JUMPI DUP1 PUSH4 0x673CF82A EQ PUSH2 0x2C7 JUMPI PUSH1 0x0 DUP1 REVERT JUMPDEST DUP1 PUSH4 0x338B5DEA GT PUSH2 0x17F JUMPI DUP1 PUSH4 0x338B5DEA EQ PUSH2 0x225 JUMPI DUP1 PUSH4 0x3B174F0F EQ PUSH2 0x247 JUMPI DUP1 PUSH4 0x3EF73856 EQ PUSH2 0x267 JUMPI PUSH1 0x0 DUP1 REVERT JUMPDEST DUP1 PUSH4 0x76D782E EQ PUSH2 0x1A6 JUMPI DUP1 PUSH4 0x12065FE0 EQ PUSH2 0x1DC JUMPI DUP1 PUSH4 0x1F5D2641 EQ PUSH2 0x1F8 JUMPI JUMPDEST PUSH1 0x0 DUP1 REVERT JUMPDEST CALLVALUE DUP1 ISZERO PUSH2 0x1B2 JUMPI PUSH1 0x0 DUP1 REVERT JUMPDEST POP PUSH2 0x1C6 PUSH2 0x1C1 CALLDATASIZE PUSH1 0x4 PUSH2 0x41A8 JUMP JUMPDEST PUSH2 0x4E2 JUMP JUMPDEST PUSH1 0x40 MLOAD PUSH2 0x1D3 SWAP2 SWAP1 PUSH2 0x42AE JUMP JUMPDEST PUSH1 0x40 MLOAD DUP1 SWAP2 SUB SWAP1 RETURN JUMPDEST CALLVALUE DUP1 ISZERO PUSH2 0x1E8 JUMPI PUSH1 0x0 DUP1 REVERT JUMPDEST POP SELFBALANCE JUMPDEST PUSH1 0x40 MLOAD PUSH2 0x1D3 SWAP2 SWAP1 PUSH2 0x42BD JUMP JUMPDEST CALLVALUE DUP1 ISZERO PUSH2 0x204 JUMPI PUSH1 0x0 DUP1 REVERT JUMPDEST POP PUSH2 0x218 PUSH2 0x213 CALLDATASIZE PUSH1 0x4 PUSH2 0x42CB JUMP JUMPDEST PUSH2 0x695 JUMP JUMPDEST PUSH1 0x40 MLOAD PUSH2 0x1D3 SWAP2 SWAP1 PUSH2 0x4460 JUMP JUMPDEST CALLVALUE DUP1 ISZERO PUSH2 0x231 JUMPI PUSH1 0x0 DUP1 REVERT JUMPDEST POP PUSH2 0x245 PUSH2 0x240 CALLDATASIZE PUSH1 0x4 PUSH2 0x41A8 JUMP JUMPDEST PUSH2 0x6A6 JUMP JUMPDEST STOP JUMPDEST CALLVALUE DUP1 ISZERO PUSH2 0x253 JUMPI PUSH1 0x0 DUP1 REVERT JUMPDEST POP PUSH2 0x1EB PUSH2 0x262 CALLDATASIZE PUSH1 0x4 PUSH2 0x4484 JUMP JUMPDEST PUSH2 0x6B5 JUMP JUMPDEST CALLVALUE DUP1 ISZERO PUSH2 0x273 JUMPI PUSH1 0x0 DUP1 REVERT JUMPDEST POP PUSH2 0x1C6 PUSH2 0x282 CALLDATASIZE PUSH1 0x4 PUSH2 0x41A8 JUMP JUMPDEST PUSH2 0x6FB JUMP JUMPDEST CALLVALUE DUP1 ISZERO PUSH2 0x293 JUMPI PUSH1 0x0 DUP1 REVERT JUMPDEST POP PUSH2 0x245 PUSH2 0x2A2 CALLDATASIZE PUSH1 0x4 PUSH2 0x45A5 JUMP JUMPDEST PUSH2 0x7E4 JUMP JUMPDEST CALLVALUE DUP1 ISZERO PUSH2 0x2B3 JUMPI PUSH1 0x0 DUP1 REVERT JUMPDEST POP PUSH2 0x245 PUSH2 0x2C2 CALLDATASIZE PUSH1 0x4 PUSH2 0x4624 JUMP JUMPDEST PUSH2 0x7FA JUMP JUMPDEST CALLVALUE DUP1 ISZERO PUSH2 0x2D3 JUMPI PUSH1 0x0 DUP1 REVERT JUMPDEST POP PUSH2 0x218 PUSH2 0x2E2 CALLDATASIZE PUSH1 0x4 PUSH2 0x467C JUMP JUMPDEST PUSH2 0x818 JUMP JUMPDEST CALLVALUE DUP1 ISZERO PUSH2 0x2F3 JUMPI PUSH1 0x0 DUP1 REVERT JUMPDEST POP PUSH2 0x245 PUSH2 0x302 CALLDATASIZE PUSH1 0x4 PUSH2 0x467C JUMP JUMPDEST PUSH2 0x849 JUMP JUMPDEST PUSH2 0x245 PUSH2 0x315 CALLDATASIZE PUSH1 0x4 PUSH2 0x467C JUMP JUMPDEST PUSH2 0x9E3 JUMP JUMPDEST CALLVALUE DUP1 ISZERO PUSH2 0x326 JUMPI PUSH1 0x0 DUP1 REVERT JUMPDEST POP PUSH2 0x1C6 PUSH2 0x335 CALLDATASIZE PUSH1 0x4 PUSH2 0x42CB JUMP JUMPDEST PUSH2 0xA7A JUMP JUMPDEST CALLVALUE DUP1 ISZERO PUSH2 0x346 JUMPI PUSH1 0x0 DUP1 REVERT JUMPDEST POP PUSH2 0x245 PUSH2 0x355 CALLDATASIZE PUSH1 0x4 PUSH2 0x467C JUMP JUMPDEST PUSH2 0xBA4 JUMP JUMPDEST CALLVALUE DUP1 ISZERO PUSH2 0x366 JUMPI PUSH1 0x0 DUP1 REVERT JUMPDEST POP PUSH2 0x245 PUSH2 0x375 CALLDATASIZE PUSH1 0x4 PUSH2 0x467C JUMP JUMPDEST PUSH2 0xC09 JUMP JUMPDEST CALLVALUE DUP1 ISZERO PUSH2 0x386 JUMPI PUSH1 0x0 DUP1 REVERT JUMPDEST POP PUSH1 0x0 SLOAD PUSH2 0x39A SWAP1 PUSH1 0x1 PUSH1 0x1 PUSH1 0xA0 SHL SUB AND DUP2 JUMP JUMPDEST PUSH1 0x40 MLOAD PUSH2 0x1D3 SWAP2 SWAP1 PUSH2 0x469D JUMP JUMPDEST CALLVALUE DUP1 ISZERO PUSH2 0x3B3 JUMPI PUSH1 0x0 DUP1 REVERT JUMPDEST POP PUSH2 0x245 PUSH2 0xCAB JUMP JUMPDEST CALLVALUE DUP1 ISZERO PUSH2 0x3C8 JUMPI PUSH1 0x0 DUP1 REVERT JUMPDEST POP PUSH2 0x245 PUSH2 0x3D7 CALLDATASIZE PUSH1 0x4 PUSH2 0x46AB JUMP JUMPDEST PUSH2 0xF99 JUMP JUMPDEST CALLVALUE DUP1 ISZERO PUSH2 0x3E8 JUMPI PUSH1 0x0 DUP1 REVERT JUMPDEST POP PUSH2 0x245 PUSH2 0x3F7 CALLDATASIZE PUSH1 0x4 PUSH2 0x41A8 JUMP JUMPDEST PUSH2 0xFA9 JUMP JUMPDEST CALLVALUE DUP1 ISZERO PUSH2 0x408 JUMPI PUSH1 0x0 DUP1 REVERT JUMPDEST POP PUSH2 0x1EB PUSH1 0x5 SLOAD DUP2 JUMP JUMPDEST CALLVALUE DUP1 ISZERO PUSH2 0x41E JUMPI PUSH1 0x0 DUP1 REVERT JUMPDEST POP PUSH2 0x432 PUSH2 0x42D CALLDATASIZE PUSH1 0x4 PUSH2 0x42CB JUMP JUMPDEST PUSH2 0x11DB JUMP JUMPDEST PUSH1 0x40 MLOAD PUSH2 0x1D3 SWAP10 SWAP9 SWAP8 SWAP7 SWAP6 SWAP5 SWAP4 SWAP3 SWAP2 SWAP1 PUSH2 0x46FB JUMP JUMPDEST CALLVALUE DUP1 ISZERO PUSH2 0x453 JUMPI PUSH1 0x0 DUP1 REVERT JUMPDEST POP PUSH2 0x245 PUSH2 0x462 CALLDATASIZE PUSH1 0x4 PUSH2 0x4484 JUMP JUMPDEST PUSH2 0x1249 JUMP JUMPDEST PUSH2 0x245 PUSH2 0x475 CALLDATASIZE PUSH1 0x4 PUSH2 0x467C JUMP JUMPDEST PUSH2 0x1432 JUMP JUMPDEST CALLVALUE DUP1 ISZERO PUSH2 0x486 JUMPI PUSH1 0x0 DUP1 REVERT JUMPDEST POP PUSH1 0xC SLOAD PUSH2 0x1EB JUMP JUMPDEST CALLVALUE DUP1 ISZERO PUSH2 0x49B JUMPI PUSH1 0x0 DUP1 REVERT JUMPDEST POP PUSH2 0x245 PUSH2 0x4AA CALLDATASIZE PUSH1 0x4 PUSH2 0x41A8 JUMP JUMPDEST PUSH2 0x149B JUMP JUMPDEST CALLVALUE DUP1 ISZERO PUSH2 0x4BB JUMPI PUSH1 0x0 DUP1 REVERT JUMPDEST POP PUSH2 0x245 PUSH2 0x4CA CALLDATASIZE PUSH1 0x4 PUSH2 0x467C JUMP JUMPDEST PUSH2 0x153A JUMP JUMPDEST PUSH2 0x245 PUSH2 0x4DD CALLDATASIZE PUSH1 0x4 PUSH2 0x467C JUMP JUMPDEST PUSH2 0x15A0 JUMP JUMPDEST PUSH2 0x545 PUSH1 0x40 MLOAD DUP1 PUSH2 0x120 ADD PUSH1 0x40 MSTORE DUP1 PUSH1 0x0 PUSH1 0x1 PUSH1 0x1 PUSH1 0xA0 SHL SUB AND DUP2 MSTORE PUSH1 0x20 ADD PUSH1 0x0 PUSH1 0x1 PUSH1 0x1 PUSH1 0xA0 SHL SUB AND DUP2 MSTORE PUSH1 0x20 ADD PUSH1 0x0 ISZERO ISZERO DUP2 MSTORE PUSH1 0x20 ADD PUSH1 0x0 DUP2 MSTORE PUSH1 0x20 ADD PUSH1 0x0 DUP2 MSTORE PUSH1 0x20 ADD PUSH1 0x0 DUP2 MSTORE PUSH1 0x20 ADD PUSH1 0x0 DUP2 MSTORE PUSH1 0x20 ADD PUSH1 0x0 DUP2 MSTORE PUSH1 0x20 ADD PUSH1 0x0 DUP2 MSTORE POP SWAP1 JUMP JUMPDEST PUSH1 0x1 PUSH1 0x1 PUSH1 0xA0 SHL SUB DUP4 AND PUSH1 0x0 SWAP1 DUP2 MSTORE PUSH1 0xB PUSH1 0x20 SWAP1 DUP2 MSTORE PUSH1 0x40 DUP1 DUP4 KECCAK256 DUP1 SLOAD DUP3 MLOAD DUP2 DUP6 MUL DUP2 ADD DUP6 ADD SWAP1 SWAP4 MSTORE DUP1 DUP4 MSTORE SWAP2 SWAP3 SWAP1 SWAP2 SWAP1 DUP4 ADD DUP3 DUP3 DUP1 ISZERO PUSH2 0x5A5 JUMPI PUSH1 0x20 MUL DUP3 ADD SWAP2 SWAP1 PUSH1 0x0 MSTORE PUSH1 0x20 PUSH1 0x0 KECCAK256 SWAP1 JUMPDEST DUP2 SLOAD DUP2 MSTORE PUSH1 0x20 ADD SWAP1 PUSH1 0x1 ADD SWAP1 DUP1 DUP4 GT PUSH2 0x591 JUMPI JUMPDEST POP POP POP POP POP SWAP1 POP DUP1 MLOAD DUP4 LT PUSH2 0x5CD JUMPI PUSH1 0x40 MLOAD PUSH4 0x5DCAF2D7 PUSH1 0xE0 SHL DUP2 MSTORE PUSH1 0x4 ADD PUSH1 0x40 MLOAD DUP1 SWAP2 SUB SWAP1 REVERT JUMPDEST PUSH1 0x0 DUP2 DUP5 DUP2 MLOAD DUP2 LT PUSH2 0x5E1 JUMPI PUSH2 0x5E1 PUSH2 0x4781 JUMP JUMPDEST PUSH1 0x20 MUL PUSH1 0x20 ADD ADD MLOAD SWAP1 POP PUSH1 0x7 DUP2 DUP2 SLOAD DUP2 LT PUSH2 0x5FE JUMPI PUSH2 0x5FE PUSH2 0x4781 JUMP JUMPDEST PUSH1 0x0 SWAP2 DUP3 MSTORE PUSH1 0x20 SWAP2 DUP3 SWAP1 KECCAK256 PUSH1 0x40 DUP1 MLOAD PUSH2 0x120 DUP2 ADD DUP3 MSTORE PUSH1 0x8 SWAP4 SWAP1 SWAP4 MUL SWAP1 SWAP2 ADD DUP1 SLOAD PUSH1 0x1 PUSH1 0x1 PUSH1 0xA0 SHL SUB SWAP1 DUP2 AND DUP5 MSTORE PUSH1 0x1 DUP3 ADD SLOAD SWAP1 DUP2 AND SWAP5 DUP5 ADD SWAP5 SWAP1 SWAP5 MSTORE PUSH1 0x1 PUSH1 0xA0 SHL SWAP1 SWAP4 DIV PUSH1 0xFF AND ISZERO ISZERO SWAP1 DUP3 ADD MSTORE PUSH1 0x2 DUP3 ADD SLOAD PUSH1 0x60 DUP3 ADD MSTORE PUSH1 0x3 DUP3 ADD SLOAD PUSH1 0x80 DUP3 ADD MSTORE PUSH1 0x4 DUP3 ADD SLOAD PUSH1 0xA0 DUP3 ADD MSTORE PUSH1 0x5 DUP3 ADD SLOAD PUSH1 0xC0 DUP3 ADD MSTORE PUSH1 0x6 DUP3 ADD SLOAD PUSH1 0xE0 DUP3 ADD MSTORE PUSH1 0x7 SWAP1 SWAP2 ADD SLOAD PUSH2 0x100 DUP3 ADD MSTORE SWAP3 POP POP POP JUMPDEST SWAP3 SWAP2 POP POP JUMP JUMPDEST PUSH2 0x69D PUSH2 0x40EE JUMP JUMPDEST PUSH2 0x68F DUP3 PUSH2 0x15D0 JUMP JUMPDEST PUSH2 0x6B1 DUP3 CALLER DUP4 PUSH2 0x18E0 JUMP JUMPDEST POP POP JUMP JUMPDEST PUSH1 0x0 DUP2 ISZERO PUSH2 0x6DC JUMPI POP PUSH1 0x1 PUSH1 0x1 PUSH1 0xA0 SHL SUB DUP3 AND PUSH1 0x0 SWAP1 DUP2 MSTORE PUSH1 0x1 PUSH1 0x20 MSTORE PUSH1 0x40 SWAP1 KECCAK256 SLOAD PUSH2 0x68F JUMP JUMPDEST POP PUSH1 0x1 PUSH1 0x1 PUSH1 0xA0 SHL SUB DUP3 AND PUSH1 0x0 SWAP1 DUP2 MSTORE PUSH1 0x2 PUSH1 0x20 MSTORE PUSH1 0x40 SWAP1 KECCAK256 SLOAD PUSH2 0x68F JUMP JUMPDEST PUSH2 0x75E PUSH1 0x40 MLOAD DUP1 PUSH2 0x120 ADD PUSH1 0x40 MSTORE DUP1 PUSH1 0x0 PUSH1 0x1 PUSH1 0x1 PUSH1 0xA0 SHL SUB AND DUP2 MSTORE PUSH1 0x20 ADD PUSH1 0x0 PUSH1 0x1 PUSH1 0x1 PUSH1 0xA0 SHL SUB AND DUP2 MSTORE PUSH1 0x20 ADD PUSH1 0x0 ISZERO ISZERO DUP2 MSTORE PUSH1 0x20 ADD PUSH1 0x0 DUP2 MSTORE PUSH1 0x20 ADD PUSH1 0x0 DUP2 MSTORE PUSH1 0x20 ADD PUSH1 0x0 DUP2 MSTORE PUSH1 0x20 ADD PUSH1 0x0 DUP2 MSTORE PUSH1 0x20 ADD PUSH1 0x0 DUP2 MSTORE PUSH1 0x20 ADD PUSH1 0x0 DUP2 MSTORE POP SWAP1 JUMP JUMPDEST PUSH1 0x1 PUSH1 0x1 PUSH1 0xA0 SHL SUB DUP4 AND PUSH1 0x0 SWAP1 DUP2 MSTORE PUSH1 0xA PUSH1 0x20 SWAP1 DUP2 MSTORE PUSH1 0x40 DUP1 DUP4 KECCAK256 DUP1 SLOAD DUP3 MLOAD DUP2 DUP6 MUL DUP2 ADD DUP6 ADD SWAP1 SWAP4 MSTORE DUP1 DUP4 MSTORE SWAP2 SWAP3 SWAP1 SWAP2 SWAP1 DUP4 ADD DUP3 DUP3 DUP1 ISZERO PUSH2 0x5A5 JUMPI PUSH1 0x20 MUL DUP3 ADD SWAP2 SWAP1 PUSH1 0x0 MSTORE PUSH1 0x20 PUSH1 0x0 KECCAK256 SWAP1 DUP2 SLOAD DUP2 MSTORE PUSH1 0x20 ADD SWAP1 PUSH1 0x1 ADD SWAP1 DUP1 DUP4 GT PUSH2 0x591 JUMPI POP POP POP POP POP SWAP1 POP DUP1 MLOAD DUP4 LT PUSH2 0x5CD JUMPI PUSH1 0x40 MLOAD PUSH4 0x5DCAF2D7 PUSH1 0xE0 SHL DUP2 MSTORE PUSH1 0x4 ADD PUSH1 0x40 MLOAD DUP1 SWAP2 SUB SWAP1 REVERT JUMPDEST PUSH2 0x7F4 DUP5 PUSH1 0x0 DUP6 DUP6 PUSH1 0x0 DUP7 PUSH2 0x1915 JUMP JUMPDEST POP POP POP POP JUMP JUMPDEST PUSH2 0x7F4 DUP5 PUSH1 0x1 DUP5 DUP5 DUP8 PUSH1 0x40 MLOAD DUP1 PUSH1 0x20 ADD PUSH1 0x40 MSTORE DUP1 PUSH1 0x0 DUP2 MSTORE POP PUSH2 0x1915 JUMP JUMPDEST PUSH2 0x820 PUSH2 0x40EE JUMP JUMPDEST PUSH1 0x1 PUSH1 0x1 PUSH1 0xA0 SHL SUB DUP3 AND PUSH1 0x0 SWAP1 DUP2 MSTORE PUSH1 0x9 PUSH1 0x20 MSTORE PUSH1 0x40 SWAP1 KECCAK256 SLOAD PUSH2 0x842 DUP2 PUSH2 0x15D0 JUMP JUMPDEST SWAP4 SWAP3 POP POP POP JUMP JUMPDEST PUSH1 0x1 PUSH1 0x1 PUSH1 0xA0 SHL SUB DUP2 AND PUSH1 0x0 SWAP1 DUP2 MSTORE PUSH1 0xA PUSH1 0x20 SWAP1 DUP2 MSTORE PUSH1 0x40 DUP1 DUP4 KECCAK256 DUP2 MLOAD PUSH2 0x120 DUP2 ADD DUP4 MSTORE DUP5 DUP2 MSTORE SWAP3 DUP4 ADD DUP5 SWAP1 MSTORE SWAP1 DUP3 ADD DUP4 SWAP1 MSTORE PUSH1 0x60 DUP3 ADD DUP4 SWAP1 MSTORE PUSH1 0x80 DUP3 ADD DUP4 SWAP1 MSTORE PUSH1 0xA0 DUP3 ADD DUP4 SWAP1 MSTORE PUSH1 0xC0 DUP3 ADD DUP4 SWAP1 MSTORE PUSH1 0xE0 DUP3 ADD DUP4 SWAP1 MSTORE PUSH2 0x100 DUP3 ADD DUP4 SWAP1 MSTORE DUP1 SLOAD SWAP1 SWAP3 SWAP2 DUP3 SWAP1 DUP2 SWAP1 TIMESTAMP SWAP1 JUMPDEST PUSH1 0x0 DUP6 GT DUP1 ISZERO PUSH2 0x8C3 JUMPI POP PUSH1 0x64 DUP4 LT JUMPDEST ISZERO PUSH2 0x9D9 JUMPI PUSH2 0x8D3 PUSH1 0x1 DUP7 PUSH2 0x47AD JUMP JUMPDEST SWAP4 POP DUP7 DUP5 DUP2 SLOAD DUP2 LT PUSH2 0x8E7 JUMPI PUSH2 0x8E7 PUSH2 0x4781 JUMP JUMPDEST SWAP1 PUSH1 0x0 MSTORE PUSH1 0x20 PUSH1 0x0 KECCAK256 ADD SLOAD SWAP6 POP PUSH1 0x7 DUP7 DUP2 SLOAD DUP2 LT PUSH2 0x907 JUMPI PUSH2 0x907 PUSH2 0x4781 JUMP JUMPDEST PUSH1 0x0 SWAP2 DUP3 MSTORE PUSH1 0x20 SWAP2 DUP3 SWAP1 KECCAK256 PUSH1 0x40 DUP1 MLOAD PUSH2 0x120 DUP2 ADD DUP3 MSTORE PUSH1 0x8 SWAP4 SWAP1 SWAP4 MUL SWAP1 SWAP2 ADD DUP1 SLOAD PUSH1 0x1 PUSH1 0x1 PUSH1 0xA0 SHL SUB SWAP1 DUP2 AND DUP5 MSTORE PUSH1 0x1 DUP3 ADD SLOAD SWAP1 DUP2 AND SWAP5 DUP5 ADD SWAP5 SWAP1 SWAP5 MSTORE PUSH1 0x1 PUSH1 0xA0 SHL SWAP1 SWAP4 DIV PUSH1 0xFF AND ISZERO ISZERO SWAP1 DUP3 ADD MSTORE PUSH1 0x2 DUP3 ADD SLOAD PUSH1 0x60 DUP3 ADD DUP2 SWAP1 MSTORE PUSH1 0x3 DUP4 ADD SLOAD PUSH1 0x80 DUP4 ADD MSTORE PUSH1 0x4 DUP4 ADD SLOAD PUSH1 0xA0 DUP4 ADD MSTORE PUSH1 0x5 DUP4 ADD SLOAD PUSH1 0xC0 DUP4 ADD MSTORE PUSH1 0x6 DUP4 ADD SLOAD PUSH1 0xE0 DUP4 ADD MSTORE PUSH1 0x7 SWAP1 SWAP3 ADD SLOAD PUSH2 0x100 DUP3 ADD MSTORE SWAP2 POP PUSH1 0x28 SWAP1 PUSH2 0x9A4 SWAP1 DUP5 PUSH2 0x47AD JUMP JUMPDEST GT ISZERO PUSH2 0x9C7 JUMPI PUSH2 0x9B4 DUP2 DUP8 PUSH2 0x1A63 JUMP JUMPDEST ISZERO PUSH2 0x9C7 JUMPI DUP3 PUSH2 0x9C3 DUP2 PUSH2 0x47C0 JUMP JUMPDEST SWAP4 POP POP JUMPDEST DUP5 PUSH2 0x9D1 DUP2 PUSH2 0x47DA JUMP JUMPDEST SWAP6 POP POP PUSH2 0x8B3 JUMP JUMPDEST POP POP POP POP POP POP POP POP JUMP JUMPDEST CALLVALUE PUSH1 0x0 DUP1 DUP1 PUSH2 0x9F2 DUP6 DUP6 PUSH2 0x1B1D JUMP JUMPDEST SWAP3 POP SWAP1 POP DUP1 PUSH2 0xA14 JUMPI PUSH1 0x40 MLOAD PUSH4 0x2050D62B PUSH1 0xE0 SHL DUP2 MSTORE PUSH1 0x4 ADD PUSH1 0x40 MLOAD DUP1 SWAP2 SUB SWAP1 REVERT JUMPDEST PUSH1 0x1 PUSH1 0x1 PUSH1 0xA0 SHL SUB DUP6 AND PUSH1 0x0 SWAP1 DUP2 MSTORE PUSH1 0x1 PUSH1 0x20 MSTORE PUSH1 0x40 DUP2 KECCAK256 DUP1 SLOAD DUP7 SWAP3 SWAP1 PUSH2 0xA3C SWAP1 DUP5 SWAP1 PUSH2 0x47F5 JUMP JUMPDEST SWAP1 SWAP2 SSTORE POP POP PUSH1 0x7 DUP1 SLOAD DUP4 SWAP1 DUP2 LT PUSH2 0xA55 JUMPI PUSH2 0xA55 PUSH2 0x4781 JUMP JUMPDEST SWAP1 PUSH1 0x0 MSTORE PUSH1 0x20 PUSH1 0x0 KECCAK256 SWAP1 PUSH1 0x8 MUL ADD SWAP3 POP PUSH2 0xA73 DUP4 PUSH1 0x0 DUP5 DUP8 DUP10 PUSH2 0x1CD9 JUMP JUMPDEST POP POP POP POP POP JUMP JUMPDEST PUSH2 0xADD PUSH1 0x40 MLOAD DUP1 PUSH2 0x120 ADD PUSH1 0x40 MSTORE DUP1 PUSH1 0x0 PUSH1 0x1 PUSH1 0x1 PUSH1 0xA0 SHL SUB AND DUP2 MSTORE PUSH1 0x20 ADD PUSH1 0x0 PUSH1 0x1 PUSH1 0x1 PUSH1 0xA0 SHL SUB AND DUP2 MSTORE PUSH1 0x20 ADD PUSH1 0x0 ISZERO ISZERO DUP2 MSTORE PUSH1 0x20 ADD PUSH1 0x0 DUP2 MSTORE PUSH1 0x20 ADD PUSH1 0x0 DUP2 MSTORE PUSH1 0x20 ADD PUSH1 0x0 DUP2 MSTORE PUSH1 0x20 ADD PUSH1 0x0 DUP2 MSTORE PUSH1 0x20 ADD PUSH1 0x0 DUP2 MSTORE PUSH1 0x20 ADD PUSH1 0x0 DUP2 MSTORE POP SWAP1 JUMP JUMPDEST PUSH1 0x7 SLOAD DUP3 LT PUSH2 0xAFF JUMPI PUSH1 0x40 MLOAD PUSH4 0x5DCAF2D7 PUSH1 0xE0 SHL DUP2 MSTORE PUSH1 0x4 ADD PUSH1 0x40 MLOAD DUP1 SWAP2 SUB SWAP1 REVERT JUMPDEST PUSH1 0x7 DUP3 DUP2 SLOAD DUP2 LT PUSH2 0xB12 JUMPI PUSH2 0xB12 PUSH2 0x4781 JUMP JUMPDEST PUSH1 0x0 SWAP2 DUP3 MSTORE PUSH1 0x20 SWAP2 DUP3 SWAP1 KECCAK256 PUSH1 0x40 DUP1 MLOAD PUSH2 0x120 DUP2 ADD DUP3 MSTORE PUSH1 0x8 SWAP4 SWAP1 SWAP4 MUL SWAP1 SWAP2 ADD DUP1 SLOAD PUSH1 0x1 PUSH1 0x1 PUSH1 0xA0 SHL SUB SWAP1 DUP2 AND DUP5 MSTORE PUSH1 0x1 DUP3 ADD SLOAD SWAP1 DUP2 AND SWAP5 DUP5 ADD SWAP5 SWAP1 SWAP5 MSTORE PUSH1 0x1 PUSH1 0xA0 SHL SWAP1 SWAP4 DIV PUSH1 0xFF AND ISZERO ISZERO SWAP1 DUP3 ADD MSTORE PUSH1 0x2 DUP3 ADD SLOAD PUSH1 0x60 DUP3 ADD MSTORE PUSH1 0x3 DUP3 ADD SLOAD PUSH1 0x80 DUP3 ADD MSTORE PUSH1 0x4 DUP3 ADD SLOAD PUSH1 0xA0 DUP3 ADD MSTORE PUSH1 0x5 DUP3 ADD SLOAD PUSH1 0xC0 DUP3 ADD MSTORE PUSH1 0x6 DUP3 ADD SLOAD PUSH1 0xE0 DUP3 ADD MSTORE PUSH1 0x7 SWAP1 SWAP2 ADD SLOAD PUSH2 0x100 DUP3 ADD MSTORE SWAP3 SWAP2 POP POP JUMP JUMPDEST PUSH2 0xBAC PUSH2 0x1FD6 JUMP JUMPDEST PUSH1 0xE DUP1 SLOAD PUSH1 0x1 PUSH1 0x1 PUSH1 0xA0 SHL SUB NOT AND PUSH1 0x1 PUSH1 0x1 PUSH1 0xA0 SHL SUB DUP4 AND OR SWAP1 SSTORE PUSH2 0xBCF PUSH2 0x201E JUMP JUMPDEST PUSH32 0x15B49408719C001F91D2EC31B653D0929170F69FF422EF39920E9C280910115E DUP2 PUSH1 0x40 MLOAD PUSH2 0xBFE SWAP2 SWAP1 PUSH2 0x469D JUMP JUMPDEST PUSH1 0x40 MLOAD DUP1 SWAP2 SUB SWAP1 LOG1 POP JUMP JUMPDEST PUSH1 0x0 PUSH2 0xC14 DUP3 PUSH2 0x20F4 JUMP JUMPDEST SWAP1 POP PUSH1 0x0 DUP2 PUSH2 0x140 ADD MLOAD PUSH1 0x1 PUSH1 0x1 PUSH1 0xA0 SHL SUB AND PUSH4 0x70A08231 ADDRESS PUSH1 0x40 MLOAD DUP3 PUSH4 0xFFFFFFFF AND PUSH1 0xE0 SHL DUP2 MSTORE PUSH1 0x4 ADD PUSH2 0xC49 SWAP2 SWAP1 PUSH2 0x469D JUMP JUMPDEST PUSH1 0x20 PUSH1 0x40 MLOAD DUP1 DUP4 SUB DUP2 DUP7 GAS STATICCALL ISZERO DUP1 ISZERO PUSH2 0xC66 JUMPI RETURNDATASIZE PUSH1 0x0 DUP1 RETURNDATACOPY RETURNDATASIZE PUSH1 0x0 REVERT JUMPDEST POP POP POP POP PUSH1 0x40 MLOAD RETURNDATASIZE PUSH1 0x1F NOT PUSH1 0x1F DUP3 ADD AND DUP3 ADD DUP1 PUSH1 0x40 MSTORE POP DUP2 ADD SWAP1 PUSH2 0xC8A SWAP2 SWAP1 PUSH2 0x4813 JUMP JUMPDEST PUSH1 0x1 PUSH1 0x1 PUSH1 0xA0 SHL SUB SWAP1 SWAP4 AND PUSH1 0x0 SWAP1 DUP2 MSTORE PUSH1 0x2 PUSH1 0x20 MSTORE PUSH1 0x40 SWAP1 KECCAK256 SWAP3 SWAP1 SWAP3 SSTORE POP POP JUMP JUMPDEST CALLER PUSH1 0x0 SWAP1 DUP2 MSTORE PUSH1 0xB PUSH1 0x20 MSTORE PUSH1 0x40 DUP2 KECCAK256 DUP1 SLOAD SWAP1 SWAP2 SWAP1 ISZERO ISZERO SWAP1 DUP1 DUP3 PUSH2 0xCCF JUMPI PUSH1 0x64 PUSH2 0xCD2 JUMP JUMPDEST PUSH1 0x32 JUMPDEST SWAP1 POP PUSH1 0x0 DUP1 TIMESTAMP SWAP1 POP PUSH2 0xD3D PUSH1 0x40 MLOAD DUP1 PUSH2 0x120 ADD PUSH1 0x40 MSTORE DUP1 PUSH1 0x0 PUSH1 0x1 PUSH1 0x1 PUSH1 0xA0 SHL SUB AND DUP2 MSTORE PUSH1 0x20 ADD PUSH1 0x0 PUSH1 0x1 PUSH1 0x1 PUSH1 0xA0 SHL SUB AND DUP2 MSTORE PUSH1 0x20 ADD PUSH1 0x0 ISZERO ISZERO DUP2 MSTORE PUSH1 0x20 ADD PUSH1 0x0 DUP2 MSTORE PUSH1 0x20 ADD PUSH1 0x0 DUP2 MSTORE PUSH1 0x20 ADD PUSH1 0x0 DUP2 MSTORE PUSH1 0x20 ADD PUSH1 0x0 DUP2 MSTORE PUSH1 0x20 ADD PUSH1 0x0 DUP2 MSTORE PUSH1 0x20 ADD PUSH1 0x0 DUP2 MSTORE POP SWAP1 JUMP JUMPDEST PUSH1 0x7 SLOAD PUSH2 0xD4D JUMPI POP POP POP POP POP POP POP JUMP JUMPDEST PUSH1 0x0 DUP1 DUP8 ISZERO PUSH2 0xE8C JUMPI DUP9 SLOAD SWAP2 POP JUMPDEST PUSH1 0x0 DUP3 GT DUP1 ISZERO PUSH2 0xD6B JUMPI POP DUP6 DUP8 GT ISZERO JUMPDEST ISZERO PUSH2 0xE81 JUMPI PUSH2 0xD7B PUSH1 0x1 DUP4 PUSH2 0x47AD JUMP JUMPDEST SWAP1 POP DUP9 DUP2 DUP2 SLOAD DUP2 LT PUSH2 0xD8F JUMPI PUSH2 0xD8F PUSH2 0x4781 JUMP JUMPDEST SWAP1 PUSH1 0x0 MSTORE PUSH1 0x20 PUSH1 0x0 KECCAK256 ADD SLOAD SWAP5 POP PUSH1 0x7 DUP6 DUP2 SLOAD DUP2 LT PUSH2 0xDAF JUMPI PUSH2 0xDAF PUSH2 0x4781 JUMP JUMPDEST PUSH1 0x0 SWAP2 DUP3 MSTORE PUSH1 0x20 SWAP2 DUP3 SWAP1 KECCAK256 PUSH1 0x40 DUP1 MLOAD PUSH2 0x120 DUP2 ADD DUP3 MSTORE PUSH1 0x8 SWAP4 SWAP1 SWAP4 MUL SWAP1 SWAP2 ADD DUP1 SLOAD PUSH1 0x1 PUSH1 0x1 PUSH1 0xA0 SHL SUB SWAP1 DUP2 AND DUP5 MSTORE PUSH1 0x1 DUP3 ADD SLOAD SWAP1 DUP2 AND SWAP5 DUP5 ADD SWAP5 SWAP1 SWAP5 MSTORE PUSH1 0x1 PUSH1 0xA0 SHL SWAP1 SWAP4 DIV PUSH1 0xFF AND ISZERO ISZERO SWAP1 DUP3 ADD MSTORE PUSH1 0x2 DUP3 ADD SLOAD PUSH1 0x60 DUP3 ADD DUP2 SWAP1 MSTORE PUSH1 0x3 DUP4 ADD SLOAD PUSH1 0x80 DUP4 ADD MSTORE PUSH1 0x4 DUP4 ADD SLOAD PUSH1 0xA0 DUP4 ADD MSTORE PUSH1 0x5 DUP4 ADD SLOAD PUSH1 0xC0 DUP4 ADD MSTORE PUSH1 0x6 DUP4 ADD SLOAD PUSH1 0xE0 DUP4 ADD MSTORE PUSH1 0x7 SWAP1 SWAP3 ADD SLOAD PUSH2 0x100 DUP3 ADD MSTORE SWAP4 POP PUSH1 0x28 SWAP1 PUSH2 0xE4C SWAP1 DUP7 PUSH2 0x47AD JUMP JUMPDEST GT ISZERO PUSH2 0xE6F JUMPI PUSH2 0xE5C DUP4 DUP7 PUSH2 0x1A63 JUMP JUMPDEST ISZERO PUSH2 0xE6F JUMPI DUP7 PUSH2 0xE6B DUP2 PUSH2 0x47C0 JUMP JUMPDEST SWAP8 POP POP JUMPDEST DUP2 PUSH2 0xE79 DUP2 PUSH2 0x47DA JUMP JUMPDEST SWAP3 POP POP PUSH2 0xD5B JUMP JUMPDEST POP POP POP POP POP POP POP POP POP JUMP JUMPDEST PUSH1 0x7 SLOAD SWAP2 POP JUMPDEST PUSH1 0x0 DUP3 GT DUP1 ISZERO PUSH2 0xEA2 JUMPI POP DUP6 DUP8 GT ISZERO JUMPDEST ISZERO PUSH2 0xE81 JUMPI PUSH2 0xEB2 PUSH1 0x1 DUP4 PUSH2 0x47AD JUMP JUMPDEST SWAP1 POP PUSH1 0x7 DUP2 DUP2 SLOAD DUP2 LT PUSH2 0xEC7 JUMPI PUSH2 0xEC7 PUSH2 0x4781 JUMP JUMPDEST PUSH1 0x0 SWAP2 DUP3 MSTORE PUSH1 0x20 SWAP2 DUP3 SWAP1 KECCAK256 PUSH1 0x40 DUP1 MLOAD PUSH2 0x120 DUP2 ADD DUP3 MSTORE PUSH1 0x8 SWAP4 SWAP1 SWAP4 MUL SWAP1 SWAP2 ADD DUP1 SLOAD PUSH1 0x1 PUSH1 0x1 PUSH1 0xA0 SHL SUB SWAP1 DUP2 AND DUP5 MSTORE PUSH1 0x1 DUP3 ADD SLOAD SWAP1 DUP2 AND SWAP5 DUP5 ADD SWAP5 SWAP1 SWAP5 MSTORE PUSH1 0x1 PUSH1 0xA0 SHL SWAP1 SWAP4 DIV PUSH1 0xFF AND ISZERO ISZERO SWAP1 DUP3 ADD MSTORE PUSH1 0x2 DUP3 ADD SLOAD PUSH1 0x60 DUP3 ADD DUP2 SWAP1 MSTORE PUSH1 0x3 DUP4 ADD SLOAD PUSH1 0x80 DUP4 ADD MSTORE PUSH1 0x4 DUP4 ADD SLOAD PUSH1 0xA0 DUP4 ADD MSTORE PUSH1 0x5 DUP4 ADD SLOAD PUSH1 0xC0 DUP4 ADD MSTORE PUSH1 0x6 DUP4 ADD SLOAD PUSH1 0xE0 DUP4 ADD MSTORE PUSH1 0x7 SWAP1 SWAP3 ADD SLOAD PUSH2 0x100 DUP3 ADD MSTORE SWAP4 POP PUSH1 0x28 SWAP1 PUSH2 0xF64 SWAP1 DUP7 PUSH2 0x47AD JUMP JUMPDEST GT ISZERO PUSH2 0xF87 JUMPI PUSH2 0xF74 DUP4 DUP3 PUSH2 0x1A63 JUMP JUMPDEST ISZERO PUSH2 0xF87 JUMPI DUP7 PUSH2 0xF83 DUP2 PUSH2 0x47C0 JUMP JUMPDEST SWAP8 POP POP JUMPDEST DUP2 PUSH2 0xF91 DUP2 PUSH2 0x47DA JUMP JUMPDEST SWAP3 POP POP PUSH2 0xE92 JUMP JUMPDEST PUSH2 0xFA4 DUP4 DUP4 DUP4 PUSH2 0x18E0 JUMP JUMPDEST POP POP POP JUMP JUMPDEST PUSH1 0x0 DUP2 GT PUSH2 0xFCA JUMPI PUSH1 0x40 MLOAD PUSH4 0x42257CED PUSH1 0xE1 SHL DUP2 MSTORE PUSH1 0x4 ADD PUSH1 0x40 MLOAD DUP1 SWAP2 SUB SWAP1 REVERT JUMPDEST PUSH1 0x0 PUSH2 0xFD5 DUP4 PUSH2 0x23A1 JUMP JUMPDEST SWAP1 POP PUSH2 0x11B2 DUP2 PUSH1 0x40 MLOAD DUP1 PUSH2 0x160 ADD PUSH1 0x40 MSTORE SWAP1 DUP2 PUSH1 0x0 DUP3 ADD DUP1 SLOAD PUSH2 0xFF7 SWAP1 PUSH2 0x484A JUMP JUMPDEST DUP1 PUSH1 0x1F ADD PUSH1 0x20 DUP1 SWAP2 DIV MUL PUSH1 0x20 ADD PUSH1 0x40 MLOAD SWAP1 DUP2 ADD PUSH1 0x40 MSTORE DUP1 SWAP3 SWAP2 SWAP1 DUP2 DUP2 MSTORE PUSH1 0x20 ADD DUP3 DUP1 SLOAD PUSH2 0x1023 SWAP1 PUSH2 0x484A JUMP JUMPDEST DUP1 ISZERO PUSH2 0x1070 JUMPI DUP1 PUSH1 0x1F LT PUSH2 0x1045 JUMPI PUSH2 0x100 DUP1 DUP4 SLOAD DIV MUL DUP4 MSTORE SWAP2 PUSH1 0x20 ADD SWAP2 PUSH2 0x1070 JUMP JUMPDEST DUP3 ADD SWAP2 SWAP1 PUSH1 0x0 MSTORE PUSH1 0x20 PUSH1 0x0 KECCAK256 SWAP1 JUMPDEST DUP2 SLOAD DUP2 MSTORE SWAP1 PUSH1 0x1 ADD SWAP1 PUSH1 0x20 ADD DUP1 DUP4 GT PUSH2 0x1053 JUMPI DUP3 SWAP1 SUB PUSH1 0x1F AND DUP3 ADD SWAP2 JUMPDEST POP POP POP POP POP DUP2 MSTORE PUSH1 0x20 ADD PUSH1 0x1 DUP3 ADD DUP1 SLOAD PUSH2 0x1089 SWAP1 PUSH2 0x484A JUMP JUMPDEST DUP1 PUSH1 0x1F ADD PUSH1 0x20 DUP1 SWAP2 DIV MUL PUSH1 0x20 ADD PUSH1 0x40 MLOAD SWAP1 DUP2 ADD PUSH1 0x40 MSTORE DUP1 SWAP3 SWAP2 SWAP1 DUP2 DUP2 MSTORE PUSH1 0x20 ADD DUP3 DUP1 SLOAD PUSH2 0x10B5 SWAP1 PUSH2 0x484A JUMP JUMPDEST DUP1 ISZERO PUSH2 0x1102 JUMPI DUP1 PUSH1 0x1F LT PUSH2 0x10D7 JUMPI PUSH2 0x100 DUP1 DUP4 SLOAD DIV MUL DUP4 MSTORE SWAP2 PUSH1 0x20 ADD SWAP2 PUSH2 0x1102 JUMP JUMPDEST DUP3 ADD SWAP2 SWAP1 PUSH1 0x0 MSTORE PUSH1 0x20 PUSH1 0x0 KECCAK256 SWAP1 JUMPDEST DUP2 SLOAD DUP2 MSTORE SWAP1 PUSH1 0x1 ADD SWAP1 PUSH1 0x20 ADD DUP1 DUP4 GT PUSH2 0x10E5 JUMPI DUP3 SWAP1 SUB PUSH1 0x1F AND DUP3 ADD SWAP2 JUMPDEST POP POP POP SWAP2 DUP4 MSTORE POP POP PUSH1 0x2 DUP3 ADD SLOAD PUSH1 0xFF DUP1 DUP3 AND PUSH1 0x20 DUP5 ADD MSTORE PUSH1 0x1 PUSH1 0x1 PUSH1 0xA0 SHL SUB PUSH2 0x100 SWAP1 SWAP3 DIV DUP3 AND PUSH1 0x40 DUP5 ADD MSTORE PUSH1 0x3 DUP5 ADD SLOAD SWAP2 DUP3 AND PUSH1 0x60 DUP5 ADD MSTORE PUSH1 0x80 SWAP1 SWAP3 ADD SWAP2 PUSH1 0x1 PUSH1 0xA0 SHL SWAP1 SWAP2 DIV AND PUSH1 0x1 DUP2 GT ISZERO PUSH2 0x115B JUMPI PUSH2 0x115B PUSH2 0x4342 JUMP JUMPDEST PUSH1 0x1 DUP2 GT ISZERO PUSH2 0x116C JUMPI PUSH2 0x116C PUSH2 0x4342 JUMP JUMPDEST DUP2 MSTORE PUSH1 0x4 DUP3 ADD SLOAD PUSH1 0x20 DUP3 ADD MSTORE PUSH1 0x5 DUP3 ADD SLOAD PUSH1 0x40 DUP3 ADD MSTORE PUSH1 0x6 DUP3 ADD SLOAD PUSH1 0x60 DUP3 ADD MSTORE PUSH1 0x7 DUP3 ADD SLOAD PUSH1 0x80 DUP3 ADD MSTORE PUSH1 0x8 SWAP1 SWAP2 ADD SLOAD PUSH1 0x1 PUSH1 0x1 PUSH1 0xA0 SHL SUB AND PUSH1 0xA0 SWAP1 SWAP2 ADD MSTORE CALLER DUP5 PUSH2 0x2419 JUMP JUMPDEST PUSH2 0x11CF JUMPI PUSH1 0x40 MLOAD PUSH4 0x79CACFF1 PUSH1 0xE0 SHL DUP2 MSTORE PUSH1 0x4 ADD PUSH1 0x40 MLOAD DUP1 SWAP2 SUB SWAP1 REVERT JUMPDEST PUSH2 0xFA4 DUP2 PUSH1 0x0 DUP5 PUSH2 0x2469 JUMP JUMPDEST PUSH1 0x8 DUP2 DUP2 SLOAD DUP2 LT PUSH2 0x11EB JUMPI PUSH1 0x0 DUP1 REVERT JUMPDEST PUSH1 0x0 SWAP2 DUP3 MSTORE PUSH1 0x20 SWAP1 SWAP2 KECCAK256 PUSH1 0x8 SWAP1 SWAP2 MUL ADD DUP1 SLOAD PUSH1 0x1 DUP3 ADD SLOAD PUSH1 0x2 DUP4 ADD SLOAD PUSH1 0x3 DUP5 ADD SLOAD PUSH1 0x4 DUP6 ADD SLOAD PUSH1 0x5 DUP7 ADD SLOAD PUSH1 0x6 DUP8 ADD SLOAD PUSH1 0x7 SWAP1 SWAP8 ADD SLOAD PUSH1 0x1 PUSH1 0x1 PUSH1 0xA0 SHL SUB SWAP7 DUP8 AND SWAP9 POP SWAP6 DUP6 AND SWAP7 PUSH1 0x1 PUSH1 0xA0 SHL SWAP1 SWAP6 DIV PUSH1 0xFF AND SWAP6 SWAP4 SWAP5 SWAP3 SWAP4 SWAP2 SWAP3 SWAP1 SWAP2 DUP10 JUMP JUMPDEST PUSH1 0x0 PUSH2 0x1254 DUP4 PUSH2 0x20F4 JUMP JUMPDEST PUSH1 0x60 DUP2 ADD MLOAD PUSH1 0x1 PUSH1 0x1 PUSH1 0xA0 SHL SUB AND PUSH1 0x0 SWAP1 DUP2 MSTORE PUSH1 0xA PUSH1 0x20 MSTORE PUSH1 0x40 DUP2 KECCAK256 DUP1 SLOAD SWAP3 SWAP4 POP SWAP2 DUP2 SWAP1 DUP2 SWAP1 DUP2 DUP1 JUMPDEST PUSH1 0x0 DUP4 GT DUP1 ISZERO PUSH2 0x128D JUMPI POP PUSH1 0x64 DUP2 LT JUMPDEST ISZERO PUSH2 0x1426 JUMPI DUP1 PUSH2 0x129C DUP2 PUSH2 0x47C0 JUMP JUMPDEST SWAP2 POP PUSH2 0x12AB SWAP1 POP PUSH1 0x1 DUP5 PUSH2 0x47AD JUMP JUMPDEST SWAP2 POP PUSH1 0x0 DUP8 DUP4 DUP2 SLOAD DUP2 LT PUSH2 0x12C1 JUMPI PUSH2 0x12C1 PUSH2 0x4781 JUMP JUMPDEST SWAP1 PUSH1 0x0 MSTORE PUSH1 0x20 PUSH1 0x0 KECCAK256 ADD SLOAD SWAP1 POP PUSH1 0x7 DUP2 DUP2 SLOAD DUP2 LT PUSH2 0x12E1 JUMPI PUSH2 0x12E1 PUSH2 0x4781 JUMP JUMPDEST SWAP1 PUSH1 0x0 MSTORE PUSH1 0x20 PUSH1 0x0 KECCAK256 SWAP1 PUSH1 0x8 MUL ADD SWAP7 POP DUP10 PUSH2 0x1314 JUMPI PUSH1 0x1 PUSH1 0x1 PUSH1 0xA0 SHL SUB DUP12 AND PUSH1 0x0 SWAP1 DUP2 MSTORE PUSH1 0x1 PUSH1 0x20 MSTORE PUSH1 0x40 SWAP1 KECCAK256 SLOAD PUSH2 0x132E JUMP JUMPDEST PUSH1 0x1 PUSH1 0x1 PUSH1 0xA0 SHL SUB DUP12 AND PUSH1 0x0 SWAP1 DUP2 MSTORE PUSH1 0x2 PUSH1 0x20 MSTORE PUSH1 0x40 SWAP1 KECCAK256 SLOAD JUMPDEST SWAP5 POP PUSH1 0x0 DUP6 GT PUSH2 0x133E JUMPI POP PUSH2 0x1426 JUMP JUMPDEST PUSH1 0x1 DUP8 ADD SLOAD PUSH1 0xFF PUSH1 0x1 PUSH1 0xA0 SHL SWAP1 SWAP2 DIV AND ISZERO ISZERO DUP11 ISZERO ISZERO EQ PUSH2 0x135E JUMPI POP PUSH2 0x1414 JUMP JUMPDEST DUP10 ISZERO PUSH2 0x1377 JUMPI PUSH2 0x1370 DUP10 DUP9 DUP6 DUP9 PUSH2 0x2B06 JUMP JUMPDEST SWAP6 POP PUSH2 0x1386 JUMP JUMPDEST PUSH2 0x1383 DUP10 DUP9 DUP6 DUP9 PUSH2 0x2C71 JUMP JUMPDEST SWAP6 POP JUMPDEST DUP6 PUSH2 0x1391 JUMPI POP PUSH2 0x1414 JUMP JUMPDEST PUSH1 0x40 DUP1 MLOAD PUSH2 0x120 DUP2 ADD DUP3 MSTORE DUP9 SLOAD PUSH1 0x1 PUSH1 0x1 PUSH1 0xA0 SHL SUB SWAP1 DUP2 AND DUP3 MSTORE PUSH1 0x1 DUP11 ADD SLOAD SWAP1 DUP2 AND PUSH1 0x20 DUP4 ADD MSTORE PUSH1 0x1 PUSH1 0xA0 SHL SWAP1 DIV PUSH1 0xFF AND ISZERO ISZERO SWAP2 DUP2 ADD SWAP2 SWAP1 SWAP2 MSTORE PUSH1 0x2 DUP9 ADD SLOAD PUSH1 0x60 DUP3 ADD MSTORE PUSH1 0x3 DUP9 ADD SLOAD PUSH1 0x80 DUP3 ADD MSTORE PUSH1 0x4 DUP9 ADD SLOAD PUSH1 0xA0 DUP3 ADD MSTORE PUSH1 0x5 DUP9 ADD SLOAD PUSH1 0xC0 DUP3 ADD MSTORE PUSH1 0x6 DUP9 ADD SLOAD PUSH1 0xE0 DUP3 ADD MSTORE PUSH1 0x7 DUP9 ADD SLOAD PUSH2 0x100 DUP3 ADD MSTORE PUSH2 0x1412 SWAP1 DUP3 PUSH2 0x2D78 JUMP JUMPDEST POP JUMPDEST DUP3 PUSH2 0x141E DUP2 PUSH2 0x47DA JUMP JUMPDEST SWAP4 POP POP PUSH2 0x127D JUMP JUMPDEST POP POP POP POP POP POP POP POP POP POP JUMP JUMPDEST CALLVALUE DUP1 PUSH2 0x1451 JUMPI PUSH1 0x40 MLOAD PUSH4 0x42257CED PUSH1 0xE1 SHL DUP2 MSTORE PUSH1 0x4 ADD PUSH1 0x40 MLOAD DUP1 SWAP2 SUB SWAP1 REVERT JUMPDEST PUSH1 0x0 PUSH2 0x145C DUP4 PUSH2 0x23A1 JUMP JUMPDEST PUSH1 0x1 PUSH1 0x1 PUSH1 0xA0 SHL SUB DUP5 AND PUSH1 0x0 SWAP1 DUP2 MSTORE PUSH1 0x1 PUSH1 0x20 MSTORE PUSH1 0x40 DUP2 KECCAK256 DUP1 SLOAD SWAP3 SWAP4 POP DUP5 SWAP3 SWAP1 SWAP2 SWAP1 PUSH2 0x1489 SWAP1 DUP5 SWAP1 PUSH2 0x47F5 JUMP JUMPDEST SWAP1 SWAP2 SSTORE POP PUSH2 0xFA4 SWAP1 POP DUP2 PUSH1 0x1 DUP5 PUSH2 0x2469 JUMP JUMPDEST PUSH1 0x0 PUSH2 0x14A6 DUP4 PUSH2 0x20F4 JUMP JUMPDEST SWAP1 POP PUSH1 0x0 DUP1 PUSH1 0x0 PUSH2 0x14B7 DUP7 DUP7 PUSH2 0x1B1D JUMP JUMPDEST SWAP3 POP SWAP1 POP DUP1 PUSH2 0x14D9 JUMPI PUSH1 0x40 MLOAD PUSH4 0x2050D62B PUSH1 0xE0 SHL DUP2 MSTORE PUSH1 0x4 ADD PUSH1 0x40 MLOAD DUP1 SWAP2 SUB SWAP1 REVERT JUMPDEST PUSH2 0x14E4 DUP5 CALLER DUP8 PUSH2 0x2419 JUMP JUMPDEST PUSH2 0x1501 JUMPI PUSH1 0x40 MLOAD PUSH4 0x79CACFF1 PUSH1 0xE0 SHL DUP2 MSTORE PUSH1 0x4 ADD PUSH1 0x40 MLOAD DUP1 SWAP2 SUB SWAP1 REVERT JUMPDEST PUSH1 0x7 DUP3 DUP2 SLOAD DUP2 LT PUSH2 0x1514 JUMPI PUSH2 0x1514 PUSH2 0x4781 JUMP JUMPDEST SWAP1 PUSH1 0x0 MSTORE PUSH1 0x20 PUSH1 0x0 KECCAK256 SWAP1 PUSH1 0x8 MUL ADD SWAP3 POP PUSH2 0x1532 DUP4 PUSH1 0x1 DUP5 DUP9 DUP11 PUSH2 0x1CD9 JUMP JUMPDEST POP POP POP POP POP POP JUMP JUMPDEST PUSH2 0x1542 PUSH2 0x1FD6 JUMP JUMPDEST PUSH1 0x0 DUP1 SLOAD PUSH1 0x1 PUSH1 0x1 PUSH1 0xA0 SHL SUB DUP4 DUP2 AND PUSH1 0x1 PUSH1 0x1 PUSH1 0xA0 SHL SUB NOT DUP4 AND DUP2 OR SWAP1 SWAP4 SSTORE PUSH1 0x40 MLOAD SWAP2 AND SWAP2 PUSH32 0x850B3DF64837D7D518B45F5AA64D104652C3B80EB5B34A8E3D9EB666CB7CDEA5 SWAP2 PUSH2 0x1594 SWAP2 DUP5 SWAP2 PUSH2 0x4876 JUMP JUMPDEST PUSH1 0x40 MLOAD DUP1 SWAP2 SUB SWAP1 LOG1 POP POP JUMP JUMPDEST PUSH1 0x1 PUSH1 0x1 PUSH1 0xA0 SHL SUB DUP2 AND PUSH1 0x0 SWAP1 DUP2 MSTORE PUSH1 0x1 PUSH1 0x20 MSTORE PUSH1 0x40 DUP2 KECCAK256 DUP1 SLOAD CALLVALUE SWAP3 SWAP1 PUSH2 0x15C8 SWAP1 DUP5 SWAP1 PUSH2 0x47F5 JUMP JUMPDEST SWAP1 SWAP2 SSTORE POP POP POP JUMP JUMPDEST PUSH2 0x15D8 PUSH2 0x40EE JUMP JUMPDEST DUP2 ISZERO DUP1 PUSH2 0x15E6 JUMPI POP PUSH1 0x6 SLOAD DUP3 GT JUMPDEST ISZERO PUSH2 0x1604 JUMPI PUSH1 0x40 MLOAD PUSH4 0x62F850F7 PUSH1 0xE1 SHL DUP2 MSTORE PUSH1 0x4 ADD PUSH1 0x40 MLOAD DUP1 SWAP2 SUB SWAP1 REVERT JUMPDEST PUSH1 0x0 PUSH1 0x6 PUSH2 0x1613 PUSH1 0x1 DUP6 PUSH2 0x47AD JUMP JUMPDEST DUP2 SLOAD DUP2 LT PUSH2 0x1623 JUMPI PUSH2 0x1623 PUSH2 0x4781 JUMP JUMPDEST SWAP1 PUSH1 0x0 MSTORE PUSH1 0x20 PUSH1 0x0 KECCAK256 SWAP1 PUSH1 0x9 MUL ADD PUSH1 0x40 MLOAD DUP1 PUSH2 0x160 ADD PUSH1 0x40 MSTORE SWAP1 DUP2 PUSH1 0x0 DUP3 ADD DUP1 SLOAD PUSH2 0x164D SWAP1 PUSH2 0x484A JUMP JUMPDEST DUP1 PUSH1 0x1F ADD PUSH1 0x20 DUP1 SWAP2 DIV MUL PUSH1 0x20 ADD PUSH1 0x40 MLOAD SWAP1 DUP2 ADD PUSH1 0x40 MSTORE DUP1 SWAP3 SWAP2 SWAP1 DUP2 DUP2 MSTORE PUSH1 0x20 ADD DUP3 DUP1 SLOAD PUSH2 0x1679 SWAP1 PUSH2 0x484A JUMP JUMPDEST DUP1 ISZERO PUSH2 0x16C6 JUMPI DUP1 PUSH1 0x1F LT PUSH2 0x169B JUMPI PUSH2 0x100 DUP1 DUP4 SLOAD DIV MUL DUP4 MSTORE SWAP2 PUSH1 0x20 ADD SWAP2 PUSH2 0x16C6 JUMP JUMPDEST DUP3 ADD SWAP2 SWAP1 PUSH1 0x0 MSTORE PUSH1 0x20 PUSH1 0x0 KECCAK256 SWAP1 JUMPDEST DUP2 SLOAD DUP2 MSTORE SWAP1 PUSH1 0x1 ADD SWAP1 PUSH1 0x20 ADD DUP1 DUP4 GT PUSH2 0x16A9 JUMPI DUP3 SWAP1 SUB PUSH1 0x1F AND DUP3 ADD SWAP2 JUMPDEST POP POP POP POP POP DUP2 MSTORE PUSH1 0x20 ADD PUSH1 0x1 DUP3 ADD DUP1 SLOAD PUSH2 0x16DF SWAP1 PUSH2 0x484A JUMP JUMPDEST DUP1 PUSH1 0x1F ADD PUSH1 0x20 DUP1 SWAP2 DIV MUL PUSH1 0x20 ADD PUSH1 0x40 MLOAD SWAP1 DUP2 ADD PUSH1 0x40 MSTORE DUP1 SWAP3 SWAP2 SWAP1 DUP2 DUP2 MSTORE PUSH1 0x20 ADD DUP3 DUP1 SLOAD PUSH2 0x170B SWAP1 PUSH2 0x484A JUMP JUMPDEST DUP1 ISZERO PUSH2 0x1758 JUMPI DUP1 PUSH1 0x1F LT PUSH2 0x172D JUMPI PUSH2 0x100 DUP1 DUP4 SLOAD DIV MUL DUP4 MSTORE SWAP2 PUSH1 0x20 ADD SWAP2 PUSH2 0x1758 JUMP JUMPDEST DUP3 ADD SWAP2 SWAP1 PUSH1 0x0 MSTORE PUSH1 0x20 PUSH1 0x0 KECCAK256 SWAP1 JUMPDEST DUP2 SLOAD DUP2 MSTORE SWAP1 PUSH1 0x1 ADD SWAP1 PUSH1 0x20 ADD DUP1 DUP4 GT PUSH2 0x173B JUMPI DUP3 SWAP1 SUB PUSH1 0x1F AND DUP3 ADD SWAP2 JUMPDEST POP POP POP SWAP2 DUP4 MSTORE POP POP PUSH1 0x2 DUP3 ADD SLOAD PUSH1 0xFF DUP1 DUP3 AND PUSH1 0x20 DUP5 ADD MSTORE PUSH1 0x1 PUSH1 0x1 PUSH1 0xA0 SHL SUB PUSH2 0x100 SWAP1 SWAP3 DIV DUP3 AND PUSH1 0x40 DUP5 ADD MSTORE PUSH1 0x3 DUP5 ADD SLOAD SWAP2 DUP3 AND PUSH1 0x60 DUP5 ADD MSTORE PUSH1 0x80 SWAP1 SWAP3 ADD SWAP2 PUSH1 0x1 PUSH1 0xA0 SHL SWAP1 SWAP2 DIV AND PUSH1 0x1 DUP2 GT ISZERO PUSH2 0x17B1 JUMPI PUSH2 0x17B1 PUSH2 0x4342 JUMP JUMPDEST PUSH1 0x1 DUP2 GT ISZERO PUSH2 0x17C2 JUMPI PUSH2 0x17C2 PUSH2 0x4342 JUMP JUMPDEST DUP2 MSTORE PUSH1 0x20 ADD PUSH1 0x4 DUP3 ADD SLOAD DUP2 MSTORE PUSH1 0x20 ADD PUSH1 0x5 DUP3 ADD SLOAD DUP2 MSTORE PUSH1 0x20 ADD PUSH1 0x6 DUP3 ADD SLOAD DUP2 MSTORE PUSH1 0x20 ADD PUSH1 0x7 DUP3 ADD SLOAD DUP2 MSTORE PUSH1 0x20 ADD PUSH1 0x8 DUP3 ADD PUSH1 0x0 SWAP1 SLOAD SWAP1 PUSH2 0x100 EXP SWAP1 DIV PUSH1 0x1 PUSH1 0x1 PUSH1 0xA0 SHL SUB AND PUSH1 0x1 PUSH1 0x1 PUSH1 0xA0 SHL SUB AND PUSH1 0x1 PUSH1 0x1 PUSH1 0xA0 SHL SUB AND DUP2 MSTORE POP POP SWAP1 POP PUSH1 0x0 PUSH1 0xA PUSH1 0x0 DUP4 PUSH1 0x60 ADD MLOAD PUSH1 0x1 PUSH1 0x1 PUSH1 0xA0 SHL SUB AND PUSH1 0x1 PUSH1 0x1 PUSH1 0xA0 SHL SUB AND DUP2 MSTORE PUSH1 0x20 ADD SWAP1 DUP2 MSTORE PUSH1 0x20 ADD PUSH1 0x0 KECCAK256 DUP1 SLOAD SWAP1 POP SWAP1 POP PUSH1 0x40 MLOAD DUP1 PUSH2 0x140 ADD PUSH1 0x40 MSTORE DUP1 DUP6 DUP2 MSTORE PUSH1 0x20 ADD DUP4 PUSH1 0x0 ADD MLOAD DUP2 MSTORE PUSH1 0x20 ADD DUP4 PUSH1 0x20 ADD MLOAD DUP2 MSTORE PUSH1 0x20 ADD DUP4 PUSH1 0x60 ADD MLOAD PUSH1 0x1 PUSH1 0x1 PUSH1 0xA0 SHL SUB AND DUP2 MSTORE PUSH1 0x20 ADD DUP4 PUSH1 0x80 ADD MLOAD PUSH1 0x1 PUSH1 0x1 PUSH1 0xA0 SHL SUB AND DUP2 MSTORE PUSH1 0x20 ADD DUP4 PUSH1 0xC0 ADD MLOAD DUP2 MSTORE PUSH1 0x20 ADD DUP4 PUSH1 0xE0 ADD MLOAD DUP2 MSTORE PUSH1 0x20 ADD DUP4 PUSH1 0xA0 ADD MLOAD PUSH1 0x1 DUP2 GT ISZERO PUSH2 0x18C6 JUMPI PUSH2 0x18C6 PUSH2 0x4342 JUMP JUMPDEST DUP2 MSTORE PUSH2 0x100 SWAP1 SWAP4 ADD MLOAD PUSH1 0x20 DUP5 ADD MSTORE PUSH1 0x40 SWAP1 SWAP3 ADD MSTORE SWAP3 SWAP2 POP POP JUMP JUMPDEST PUSH1 0x0 PUSH2 0x18EB DUP5 PUSH2 0x20F4 JUMP JUMPDEST SWAP1 POP PUSH2 0x18F8 DUP2 DUP5 DUP5 PUSH2 0x2F44 JUMP JUMPDEST PUSH2 0x7F4 JUMPI PUSH1 0x40 MLOAD PUSH4 0x79CACFF1 PUSH1 0xE0 SHL DUP2 MSTORE PUSH1 0x4 ADD PUSH1 0x40 MLOAD DUP1 SWAP2 SUB SWAP1 REVERT JUMPDEST PUSH1 0x6 SLOAD ISZERO DUP1 ISZERO PUSH2 0x1968 JUMPI PUSH1 0x0 SLOAD PUSH1 0x1 PUSH1 0x1 PUSH1 0xA0 SHL SUB AND CALLER EQ PUSH2 0x1963 JUMPI PUSH1 0x40 MLOAD PUSH32 0xAC966A5200000000000000000000000000000000000000000000000000000000 DUP2 MSTORE PUSH1 0x4 ADD PUSH1 0x40 MLOAD DUP1 SWAP2 SUB SWAP1 REVERT JUMPDEST PUSH1 0x0 SWAP6 POP JUMPDEST PUSH1 0x1 PUSH1 0x1 PUSH1 0xA0 SHL SUB DUP8 AND PUSH1 0x0 SWAP1 DUP2 MSTORE PUSH1 0x9 PUSH1 0x20 MSTORE PUSH1 0x40 SWAP1 KECCAK256 SLOAD DUP8 SWAP1 DUP1 ISZERO DUP1 ISZERO SWAP1 PUSH2 0x1993 JUMPI POP PUSH1 0x6 SLOAD ISZERO ISZERO JUMPDEST ISZERO PUSH2 0x19D5 JUMPI DUP2 PUSH1 0x40 MLOAD PUSH32 0x15EF3A5700000000000000000000000000000000000000000000000000000000 DUP2 MSTORE PUSH1 0x4 ADD PUSH2 0x19CC SWAP2 SWAP1 PUSH2 0x469D JUMP JUMPDEST PUSH1 0x40 MLOAD DUP1 SWAP2 SUB SWAP1 REVERT JUMPDEST PUSH1 0x6 SLOAD PUSH3 0xF4240 GT PUSH2 0x1A13 JUMPI PUSH1 0x40 MLOAD PUSH32 0x53BB24F900000000000000000000000000000000000000000000000000000000 DUP2 MSTORE PUSH1 0x4 ADD PUSH1 0x40 MLOAD DUP1 SWAP2 SUB SWAP1 REVERT JUMPDEST PUSH1 0x0 DUP1 DUP10 PUSH1 0x1 DUP2 GT ISZERO PUSH2 0x1A28 JUMPI PUSH2 0x1A28 PUSH2 0x4342 JUMP JUMPDEST SUB PUSH2 0x1A4D JUMPI DUP4 PUSH2 0x1A42 JUMPI PUSH2 0x1A3B DUP6 PUSH2 0x301B JUMP JUMPDEST SWAP1 POP PUSH2 0x1A4D JUMP JUMPDEST POP PUSH8 0xDE0B6B3A7640000 JUMPDEST PUSH2 0x1A55 PUSH2 0x306B JUMP JUMPDEST PUSH2 0x1426 DUP4 DUP3 DUP12 DUP10 DUP13 DUP13 PUSH2 0x32E0 JUMP JUMPDEST PUSH1 0x0 DUP1 PUSH2 0x1A73 DUP5 PUSH1 0x20 ADD MLOAD PUSH2 0x20F4 JUMP JUMPDEST SWAP1 POP DUP4 PUSH1 0x40 ADD MLOAD ISZERO PUSH2 0x1AA5 JUMPI PUSH2 0x1A92 DUP2 DUP6 PUSH1 0x0 ADD MLOAD DUP7 PUSH1 0xA0 ADD MLOAD PUSH2 0x3772 JUMP JUMPDEST PUSH2 0x1AA0 JUMPI PUSH1 0x0 SWAP2 POP POP PUSH2 0x68F JUMP JUMPDEST PUSH2 0x1AC6 JUMP JUMPDEST PUSH2 0x1AB8 DUP2 DUP6 PUSH1 0x0 ADD MLOAD DUP7 PUSH1 0xA0 ADD MLOAD PUSH2 0x381C JUMP JUMPDEST PUSH2 0x1AC6 JUMPI PUSH1 0x0 SWAP2 POP POP PUSH2 0x68F JUMP JUMPDEST PUSH2 0x1AD0 DUP5 DUP5 PUSH2 0x2D78 JUMP JUMPDEST PUSH32 0x3D8DA260C5E35DCBA4A38C844B979A7C70C6FDBED58BE53DA6E817EF6A2541E0 DUP4 DUP6 PUSH1 0x40 ADD MLOAD DUP7 PUSH1 0x0 ADD MLOAD PUSH1 0x40 MLOAD PUSH2 0x1B0B SWAP4 SWAP3 SWAP2 SWAP1 PUSH2 0x48D3 JUMP JUMPDEST PUSH1 0x40 MLOAD DUP1 SWAP2 SUB SWAP1 LOG1 POP PUSH1 0x1 SWAP4 SWAP3 POP POP POP JUMP JUMPDEST PUSH1 0x0 DUP1 PUSH2 0x1B83 PUSH1 0x40 MLOAD DUP1 PUSH2 0x120 ADD PUSH1 0x40 MSTORE DUP1 PUSH1 0x0 PUSH1 0x1 PUSH1 0x1 PUSH1 0xA0 SHL SUB AND DUP2 MSTORE PUSH1 0x20 ADD PUSH1 0x0 PUSH1 0x1 PUSH1 0x1 PUSH1 0xA0 SHL SUB AND DUP2 MSTORE PUSH1 0x20 ADD PUSH1 0x0 ISZERO ISZERO DUP2 MSTORE PUSH1 0x20 ADD PUSH1 0x0 DUP2 MSTORE PUSH1 0x20 ADD PUSH1 0x0 DUP2 MSTORE PUSH1 0x20 ADD PUSH1 0x0 DUP2 MSTORE PUSH1 0x20 ADD PUSH1 0x0 DUP2 MSTORE PUSH1 0x20 ADD PUSH1 0x0 DUP2 MSTORE PUSH1 0x20 ADD PUSH1 0x0 DUP2 MSTORE POP SWAP1 JUMP JUMPDEST PUSH1 0x1 PUSH1 0x1 PUSH1 0xA0 SHL SUB DUP6 AND PUSH1 0x0 SWAP1 DUP2 MSTORE PUSH1 0xA PUSH1 0x20 MSTORE PUSH1 0x40 DUP2 KECCAK256 DUP1 SLOAD SWAP1 SWAP2 SWAP1 DUP2 JUMPDEST PUSH1 0x0 DUP3 GT DUP1 ISZERO PUSH2 0x1BB0 JUMPI POP DUP3 ISZERO JUMPDEST ISZERO PUSH2 0x1CCB JUMPI PUSH2 0x1BC0 PUSH1 0x1 DUP4 PUSH2 0x47AD JUMP JUMPDEST SWAP1 POP PUSH1 0x0 DUP5 DUP3 DUP2 SLOAD DUP2 LT PUSH2 0x1BD6 JUMPI PUSH2 0x1BD6 PUSH2 0x4781 JUMP JUMPDEST SWAP1 PUSH1 0x0 MSTORE PUSH1 0x20 PUSH1 0x0 KECCAK256 ADD SLOAD SWAP1 POP PUSH1 0x7 DUP2 DUP2 SLOAD DUP2 LT PUSH2 0x1BF6 JUMPI PUSH2 0x1BF6 PUSH2 0x4781 JUMP JUMPDEST PUSH1 0x0 SWAP2 DUP3 MSTORE PUSH1 0x20 SWAP2 DUP3 SWAP1 KECCAK256 PUSH1 0x40 DUP1 MLOAD PUSH2 0x120 DUP2 ADD DUP3 MSTORE PUSH1 0x8 SWAP4 SWAP1 SWAP4 MUL SWAP1 SWAP2 ADD DUP1 SLOAD PUSH1 0x1 PUSH1 0x1 PUSH1 0xA0 SHL SUB SWAP1 DUP2 AND DUP5 MSTORE PUSH1 0x1 DUP3 ADD SLOAD SWAP1 DUP2 AND SWAP5 DUP5 ADD SWAP5 SWAP1 SWAP5 MSTORE PUSH1 0x1 PUSH1 0xA0 SHL SWAP1 SWAP4 DIV PUSH1 0xFF AND ISZERO ISZERO SWAP1 DUP3 ADD MSTORE PUSH1 0x2 DUP3 ADD SLOAD PUSH1 0x60 DUP3 ADD MSTORE PUSH1 0x3 DUP3 ADD SLOAD PUSH1 0x80 DUP3 ADD MSTORE PUSH1 0x4 DUP3 ADD SLOAD PUSH1 0xA0 DUP3 ADD MSTORE PUSH1 0x5 DUP3 ADD SLOAD PUSH1 0xC0 DUP3 ADD DUP2 SWAP1 MSTORE PUSH1 0x6 DUP4 ADD SLOAD PUSH1 0xE0 DUP4 ADD MSTORE PUSH1 0x7 SWAP1 SWAP3 ADD SLOAD PUSH2 0x100 DUP3 ADD MSTORE SWAP7 POP DUP10 SWAP1 SUB PUSH2 0x1C99 JUMPI PUSH1 0x1 SWAP4 POP DUP1 SWAP7 POP PUSH2 0x1CB8 JUMP JUMPDEST DUP4 ISZERO DUP1 ISZERO PUSH2 0x1CAB JUMPI POP DUP9 DUP7 PUSH1 0xC0 ADD MLOAD LT ISZERO JUMPDEST ISZERO PUSH2 0x1CB8 JUMPI PUSH1 0x1 SWAP4 POP DUP1 SWAP7 POP JUMPDEST POP DUP2 PUSH2 0x1CC3 DUP2 PUSH2 0x47DA JUMP JUMPDEST SWAP3 POP POP PUSH2 0x1BA2 JUMP JUMPDEST POP SWAP1 SWAP5 POP POP POP POP SWAP3 POP SWAP3 SWAP1 POP JUMP JUMPDEST PUSH1 0x0 PUSH2 0x1CE4 DUP3 PUSH2 0x20F4 JUMP JUMPDEST SWAP1 POP PUSH1 0x7 DUP5 DUP2 SLOAD DUP2 LT PUSH2 0x1CF9 JUMPI PUSH2 0x1CF9 PUSH2 0x4781 JUMP JUMPDEST PUSH1 0x0 SWAP2 DUP3 MSTORE PUSH1 0x20 SWAP1 SWAP2 KECCAK256 PUSH1 0x8 SWAP1 SWAP2 MUL ADD PUSH1 0x4 DUP2 ADD SLOAD PUSH1 0x5 DUP3 ADD SLOAD DUP3 SLOAD PUSH1 0x40 DUP6 ADD MLOAD SWAP4 SWAP10 POP SWAP2 SWAP3 SWAP1 SWAP2 DUP7 DUP4 EQ DUP1 ISZERO SWAP3 PUSH1 0x1 PUSH1 0x1 PUSH1 0xA0 SHL SUB SWAP1 SWAP3 AND SWAP2 PUSH1 0x1 SWAP2 DUP10 SWAP2 SWAP1 PUSH2 0x1D90 JUMPI DUP12 ISZERO PUSH2 0x1D72 JUMPI PUSH1 0x0 PUSH2 0x1D4F DUP8 DUP4 PUSH2 0x3947 JUMP JUMPDEST SWAP1 POP PUSH1 0x0 PUSH2 0x1D5D DUP13 DUP5 PUSH2 0x3947 JUMP JUMPDEST SWAP1 POP PUSH2 0x1D69 DUP2 DUP4 PUSH2 0x3973 JUMP JUMPDEST SWAP5 POP POP POP PUSH2 0x1D7F JUMP JUMPDEST PUSH2 0x1D7C DUP11 DUP8 PUSH2 0x3973 JUMP JUMPDEST SWAP3 POP JUMPDEST PUSH2 0x1D8D DUP14 PUSH1 0x4 ADD SLOAD DUP5 PUSH2 0x397F JUMP JUMPDEST SWAP7 POP JUMPDEST PUSH2 0x1E5D DUP14 PUSH1 0x40 MLOAD DUP1 PUSH2 0x120 ADD PUSH1 0x40 MSTORE SWAP1 DUP2 PUSH1 0x0 DUP3 ADD PUSH1 0x0 SWAP1 SLOAD SWAP1 PUSH2 0x100 EXP SWAP1 DIV PUSH1 0x1 PUSH1 0x1 PUSH1 0xA0 SHL SUB AND PUSH1 0x1 PUSH1 0x1 PUSH1 0xA0 SHL SUB AND PUSH1 0x1 PUSH1 0x1 PUSH1 0xA0 SHL SUB AND DUP2 MSTORE PUSH1 0x20 ADD PUSH1 0x1 DUP3 ADD PUSH1 0x0 SWAP1 SLOAD SWAP1 PUSH2 0x100 EXP SWAP1 DIV PUSH1 0x1 PUSH1 0x1 PUSH1 0xA0 SHL SUB AND PUSH1 0x1 PUSH1 0x1 PUSH1 0xA0 SHL SUB AND PUSH1 0x1 PUSH1 0x1 PUSH1 0xA0 SHL SUB AND DUP2 MSTORE PUSH1 0x20 ADD PUSH1 0x1 DUP3 ADD PUSH1 0x14 SWAP1 SLOAD SWAP1 PUSH2 0x100 EXP SWAP1 DIV PUSH1 0xFF AND ISZERO ISZERO ISZERO ISZERO DUP2 MSTORE PUSH1 0x20 ADD PUSH1 0x2 DUP3 ADD SLOAD DUP2 MSTORE PUSH1 0x20 ADD PUSH1 0x3 DUP3 ADD SLOAD DUP2 MSTORE PUSH1 0x20 ADD PUSH1 0x4 DUP3 ADD SLOAD DUP2 MSTORE PUSH1 0x20 ADD PUSH1 0x5 DUP3 ADD SLOAD DUP2 MSTORE PUSH1 0x20 ADD PUSH1 0x6 DUP3 ADD SLOAD DUP2 MSTORE PUSH1 0x20 ADD PUSH1 0x7 DUP3 ADD SLOAD DUP2 MSTORE POP POP DUP10 DUP5 DUP11 PUSH2 0x398B JUMP JUMPDEST PUSH1 0x0 DUP13 PUSH2 0x1E6A JUMPI DUP8 PUSH2 0x1E6C JUMP JUMPDEST DUP3 JUMPDEST SWAP1 POP DUP6 ISZERO PUSH2 0x1EAE JUMPI DUP11 DUP15 PUSH1 0x5 ADD PUSH1 0x0 DUP3 DUP3 SLOAD PUSH2 0x1E88 SWAP2 SWAP1 PUSH2 0x47AD JUMP JUMPDEST SWAP3 POP POP DUP2 SWAP1 SSTORE POP DUP8 DUP15 PUSH1 0x4 ADD PUSH1 0x0 DUP3 DUP3 SLOAD PUSH2 0x1EA3 SWAP2 SWAP1 PUSH2 0x47AD JUMP JUMPDEST SWAP1 SWAP2 SSTORE POP PUSH2 0x1F79 SWAP1 POP JUMP JUMPDEST PUSH2 0x1F79 DUP15 PUSH1 0x40 MLOAD DUP1 PUSH2 0x120 ADD PUSH1 0x40 MSTORE SWAP1 DUP2 PUSH1 0x0 DUP3 ADD PUSH1 0x0 SWAP1 SLOAD SWAP1 PUSH2 0x100 EXP SWAP1 DIV PUSH1 0x1 PUSH1 0x1 PUSH1 0xA0 SHL SUB AND PUSH1 0x1 PUSH1 0x1 PUSH1 0xA0 SHL SUB AND PUSH1 0x1 PUSH1 0x1 PUSH1 0xA0 SHL SUB AND DUP2 MSTORE PUSH1 0x20 ADD PUSH1 0x1 DUP3 ADD PUSH1 0x0 SWAP1 SLOAD SWAP1 PUSH2 0x100 EXP SWAP1 DIV PUSH1 0x1 PUSH1 0x1 PUSH1 0xA0 SHL SUB AND PUSH1 0x1 PUSH1 0x1 PUSH1 0xA0 SHL SUB AND PUSH1 0x1 PUSH1 0x1 PUSH1 0xA0 SHL SUB AND DUP2 MSTORE PUSH1 0x20 ADD PUSH1 0x1 DUP3 ADD PUSH1 0x14 SWAP1 SLOAD SWAP1 PUSH2 0x100 EXP SWAP1 DIV PUSH1 0xFF AND ISZERO ISZERO ISZERO ISZERO DUP2 MSTORE PUSH1 0x20 ADD PUSH1 0x2 DUP3 ADD SLOAD DUP2 MSTORE PUSH1 0x20 ADD PUSH1 0x3 DUP3 ADD SLOAD DUP2 MSTORE PUSH1 0x20 ADD PUSH1 0x4 DUP3 ADD SLOAD DUP2 MSTORE PUSH1 0x20 ADD PUSH1 0x5 DUP3 ADD SLOAD DUP2 MSTORE PUSH1 0x20 ADD PUSH1 0x6 DUP3 ADD SLOAD DUP2 MSTORE PUSH1 0x20 ADD PUSH1 0x7 DUP3 ADD SLOAD DUP2 MSTORE POP POP DUP14 PUSH2 0x2D78 JUMP JUMPDEST PUSH2 0x1F83 DUP10 DUP3 PUSH2 0x3A08 JUMP JUMPDEST PUSH32 0xD18715C1E0D5B06959A9B12A3C5D857CE3698A58F6AC5BC7726BD7DF86476F40 DUP13 DUP15 DUP8 CALLER DUP15 DUP9 DUP13 PUSH1 0x40 MLOAD PUSH2 0x1FBE SWAP8 SWAP7 SWAP6 SWAP5 SWAP4 SWAP3 SWAP2 SWAP1 PUSH2 0x48FB JUMP JUMPDEST PUSH1 0x40 MLOAD DUP1 SWAP2 SUB SWAP1 LOG1 POP POP POP POP POP POP POP POP POP POP POP POP POP POP JUMP JUMPDEST PUSH1 0x0 SLOAD PUSH1 0x1 PUSH1 0x1 PUSH1 0xA0 SHL SUB AND CALLER EQ PUSH2 0x201C JUMPI CALLER PUSH1 0x40 MLOAD PUSH32 0x32B2BAA300000000000000000000000000000000000000000000000000000000 DUP2 MSTORE PUSH1 0x4 ADD PUSH2 0x19CC SWAP2 SWAP1 PUSH2 0x469D JUMP JUMPDEST JUMP JUMPDEST PUSH1 0xD SLOAD ISZERO DUP1 ISZERO SWAP1 PUSH2 0x203C JUMPI POP PUSH1 0xF0 PUSH1 0xD SLOAD TIMESTAMP PUSH2 0x203A SWAP2 SWAP1 PUSH2 0x47AD JUMP JUMPDEST LT JUMPDEST ISZERO PUSH2 0x2043 JUMPI JUMP JUMPDEST PUSH1 0xE SLOAD PUSH1 0x40 DUP1 MLOAD PUSH32 0x98D5FDCA00000000000000000000000000000000000000000000000000000000 DUP2 MSTORE SWAP1 MLOAD PUSH1 0x0 SWAP3 PUSH1 0x1 PUSH1 0x1 PUSH1 0xA0 SHL SUB AND SWAP2 PUSH4 0x98D5FDCA SWAP2 PUSH1 0x4 DUP1 DUP4 ADD SWAP3 DUP7 SWAP3 SWAP2 SWAP1 DUP3 SWAP1 SUB ADD DUP2 DUP7 GAS STATICCALL ISZERO DUP1 ISZERO PUSH2 0x20A5 JUMPI RETURNDATASIZE PUSH1 0x0 DUP1 RETURNDATACOPY RETURNDATASIZE PUSH1 0x0 REVERT JUMPDEST POP POP POP POP PUSH1 0x40 MLOAD RETURNDATASIZE PUSH1 0x0 DUP3 RETURNDATACOPY PUSH1 0x1F RETURNDATASIZE SWAP1 DUP2 ADD PUSH1 0x1F NOT AND DUP3 ADD PUSH1 0x40 MSTORE PUSH2 0x20CD SWAP2 SWAP1 DUP2 ADD SWAP1 PUSH2 0x49BB JUMP JUMPDEST SWAP1 POP PUSH1 0x0 DUP1 PUSH2 0x20DB DUP4 PUSH2 0x3AB2 JUMP JUMPDEST SWAP2 POP SWAP2 POP DUP1 ISZERO PUSH2 0x20EB JUMPI PUSH1 0xC DUP3 SWAP1 SSTORE JUMPDEST POP POP TIMESTAMP PUSH1 0xD SSTORE POP JUMP JUMPDEST PUSH2 0x215A PUSH1 0x40 DUP1 MLOAD PUSH2 0x160 DUP2 ADD DUP3 MSTORE PUSH1 0x60 DUP1 DUP3 MSTORE PUSH1 0x20 DUP3 ADD DUP2 SWAP1 MSTORE PUSH1 0x0 SWAP3 DUP3 ADD DUP4 SWAP1 MSTORE DUP2 ADD DUP3 SWAP1 MSTORE PUSH1 0x80 DUP2 ADD DUP3 SWAP1 MSTORE SWAP1 PUSH1 0xA0 DUP3 ADD SWAP1 DUP2 MSTORE PUSH1 0x20 ADD PUSH1 0x0 DUP2 MSTORE PUSH1 0x20 ADD PUSH1 0x0 DUP2 MSTORE PUSH1 0x20 ADD PUSH1 0x0 DUP2 MSTORE PUSH1 0x20 ADD PUSH1 0x0 DUP2 MSTORE PUSH1 0x20 ADD PUSH1 0x0 PUSH1 0x1 PUSH1 0x1 PUSH1 0xA0 SHL SUB AND DUP2 MSTORE POP SWAP1 JUMP JUMPDEST PUSH1 0x1 PUSH1 0x1 PUSH1 0xA0 SHL SUB DUP3 AND PUSH1 0x0 SWAP1 DUP2 MSTORE PUSH1 0x9 PUSH1 0x20 MSTORE PUSH1 0x40 SWAP1 KECCAK256 SLOAD DUP1 ISZERO DUP1 PUSH2 0x2181 JUMPI POP PUSH1 0x6 SLOAD DUP2 GT JUMPDEST ISZERO PUSH2 0x219F JUMPI PUSH1 0x40 MLOAD PUSH4 0x62F850F7 PUSH1 0xE1 SHL DUP2 MSTORE PUSH1 0x4 ADD PUSH1 0x40 MLOAD DUP1 SWAP2 SUB SWAP1 REVERT JUMPDEST PUSH1 0x6 PUSH2 0x21AC PUSH1 0x1 DUP4 PUSH2 0x47AD JUMP JUMPDEST DUP2 SLOAD DUP2 LT PUSH2 0x21BC JUMPI PUSH2 0x21BC PUSH2 0x4781 JUMP JUMPDEST SWAP1 PUSH1 0x0 MSTORE PUSH1 0x20 PUSH1 0x0 KECCAK256 SWAP1 PUSH1 0x9 MUL ADD PUSH1 0x40 MLOAD DUP1 PUSH2 0x160 ADD PUSH1 0x40 MSTORE SWAP1 DUP2 PUSH1 0x0 DUP3 ADD DUP1 SLOAD PUSH2 0x21E6 SWAP1 PUSH2 0x484A JUMP JUMPDEST DUP1 PUSH1 0x1F ADD PUSH1 0x20 DUP1 SWAP2 DIV MUL PUSH1 0x20 ADD PUSH1 0x40 MLOAD SWAP1 DUP2 ADD PUSH1 0x40 MSTORE DUP1 SWAP3 SWAP2 SWAP1 DUP2 DUP2 MSTORE PUSH1 0x20 ADD DUP3 DUP1 SLOAD PUSH2 0x2212 SWAP1 PUSH2 0x484A JUMP JUMPDEST DUP1 ISZERO PUSH2 0x225F JUMPI DUP1 PUSH1 0x1F LT PUSH2 0x2234 JUMPI PUSH2 0x100 DUP1 DUP4 SLOAD DIV MUL DUP4 MSTORE SWAP2 PUSH1 0x20 ADD SWAP2 PUSH2 0x225F JUMP JUMPDEST DUP3 ADD SWAP2 SWAP1 PUSH1 0x0 MSTORE PUSH1 0x20 PUSH1 0x0 KECCAK256 SWAP1 JUMPDEST DUP2 SLOAD DUP2 MSTORE SWAP1 PUSH1 0x1 ADD SWAP1 PUSH1 0x20 ADD DUP1 DUP4 GT PUSH2 0x2242 JUMPI DUP3 SWAP1 SUB PUSH1 0x1F AND DUP3 ADD SWAP2 JUMPDEST POP POP POP POP POP DUP2 MSTORE PUSH1 0x20 ADD PUSH1 0x1 DUP3 ADD DUP1 SLOAD PUSH2 0x2278 SWAP1 PUSH2 0x484A JUMP JUMPDEST DUP1 PUSH1 0x1F ADD PUSH1 0x20 DUP1 SWAP2 DIV MUL PUSH1 0x20 ADD PUSH1 0x40 MLOAD SWAP1 DUP2 ADD PUSH1 0x40 MSTORE DUP1 SWAP3 SWAP2 SWAP1 DUP2 DUP2 MSTORE PUSH1 0x20 ADD DUP3 DUP1 SLOAD PUSH2 0x22A4 SWAP1 PUSH2 0x484A JUMP JUMPDEST DUP1 ISZERO PUSH2 0x22F1 JUMPI DUP1 PUSH1 0x1F LT PUSH2 0x22C6 JUMPI PUSH2 0x100 DUP1 DUP4 SLOAD DIV MUL DUP4 MSTORE SWAP2 PUSH1 0x20 ADD SWAP2 PUSH2 0x22F1 JUMP JUMPDEST DUP3 ADD SWAP2 SWAP1 PUSH1 0x0 MSTORE PUSH1 0x20 PUSH1 0x0 KECCAK256 SWAP1 JUMPDEST DUP2 SLOAD DUP2 MSTORE SWAP1 PUSH1 0x1 ADD SWAP1 PUSH1 0x20 ADD DUP1 DUP4 GT PUSH2 0x22D4 JUMPI DUP3 SWAP1 SUB PUSH1 0x1F AND DUP3 ADD SWAP2 JUMPDEST POP POP POP SWAP2 DUP4 MSTORE POP POP PUSH1 0x2 DUP3 ADD SLOAD PUSH1 0xFF DUP1 DUP3 AND PUSH1 0x20 DUP5 ADD MSTORE PUSH1 0x1 PUSH1 0x1 PUSH1 0xA0 SHL SUB PUSH2 0x100 SWAP1 SWAP3 DIV DUP3 AND PUSH1 0x40 DUP5 ADD MSTORE PUSH1 0x3 DUP5 ADD SLOAD SWAP2 DUP3 AND PUSH1 0x60 DUP5 ADD MSTORE PUSH1 0x80 SWAP1 SWAP3 ADD SWAP2 PUSH1 0x1 PUSH1 0xA0 SHL SWAP1 SWAP2 DIV AND PUSH1 0x1 DUP2 GT ISZERO PUSH2 0x234A JUMPI PUSH2 0x234A PUSH2 0x4342 JUMP JUMPDEST PUSH1 0x1 DUP2 GT ISZERO PUSH2 0x235B JUMPI PUSH2 0x235B PUSH2 0x4342 JUMP JUMPDEST DUP2 MSTORE PUSH1 0x4 DUP3 ADD SLOAD PUSH1 0x20 DUP3 ADD MSTORE PUSH1 0x5 DUP3 ADD SLOAD PUSH1 0x40 DUP3 ADD MSTORE PUSH1 0x6 DUP3 ADD SLOAD PUSH1 0x60 DUP3 ADD MSTORE PUSH1 0x7 DUP3 ADD SLOAD PUSH1 0x80 DUP3 ADD MSTORE PUSH1 0x8 SWAP1 SWAP2 ADD SLOAD PUSH1 0x1 PUSH1 0x1 PUSH1 0xA0 SHL SUB AND PUSH1 0xA0 SWAP1 SWAP2 ADD MSTORE SWAP4 SWAP3 POP POP POP JUMP JUMPDEST PUSH1 0x1 PUSH1 0x1 PUSH1 0xA0 SHL SUB DUP2 AND PUSH1 0x0 SWAP1 DUP2 MSTORE PUSH1 0x9 PUSH1 0x20 MSTORE PUSH1 0x40 DUP2 KECCAK256 SLOAD DUP1 ISZERO DUP1 PUSH2 0x23C8 JUMPI POP PUSH1 0x6 SLOAD DUP2 GT JUMPDEST ISZERO PUSH2 0x23E6 JUMPI PUSH1 0x40 MLOAD PUSH4 0x62F850F7 PUSH1 0xE1 SHL DUP2 MSTORE PUSH1 0x4 ADD PUSH1 0x40 MLOAD DUP1 SWAP2 SUB SWAP1 REVERT JUMPDEST PUSH1 0x6 PUSH2 0x23F3 PUSH1 0x1 DUP4 PUSH2 0x47AD JUMP JUMPDEST DUP2 SLOAD DUP2 LT PUSH2 0x2403 JUMPI PUSH2 0x2403 PUSH2 0x4781 JUMP JUMPDEST SWAP1 PUSH1 0x0 MSTORE PUSH1 0x20 PUSH1 0x0 KECCAK256 SWAP1 PUSH1 0x9 MUL ADD SWAP2 POP POP SWAP2 SWAP1 POP JUMP JUMPDEST PUSH1 0x0 DUP1 PUSH2 0x2427 DUP6 DUP6 DUP6 PUSH2 0x2F44 JUMP JUMPDEST SWAP1 POP DUP1 ISZERO PUSH2 0x2461 JUMPI PUSH1 0x60 DUP6 ADD MLOAD PUSH1 0x1 PUSH1 0x1 PUSH1 0xA0 SHL SUB AND PUSH1 0x0 SWAP1 DUP2 MSTORE PUSH1 0x3 PUSH1 0x20 MSTORE PUSH1 0x40 DUP2 KECCAK256 DUP1 SLOAD DUP6 SWAP3 SWAP1 PUSH2 0x245B SWAP1 DUP5 SWAP1 PUSH2 0x47F5 JUMP JUMPDEST SWAP1 SWAP2 SSTORE POP POP JUMPDEST SWAP5 SWAP4 POP POP POP POP JUMP JUMPDEST PUSH1 0x0 DUP1 PUSH1 0x3 DUP6 ADD SLOAD PUSH1 0x1 PUSH1 0xA0 SHL SWAP1 DIV PUSH1 0xFF AND PUSH1 0x1 DUP2 GT ISZERO PUSH2 0x248C JUMPI PUSH2 0x248C PUSH2 0x4342 JUMP JUMPDEST SUB PUSH2 0x24B0 JUMPI PUSH2 0x2499 PUSH2 0x201E JUMP JUMPDEST PUSH2 0x24A9 PUSH1 0xC SLOAD DUP6 PUSH1 0x6 ADD SLOAD PUSH2 0x3973 JUMP JUMPDEST SWAP1 POP PUSH2 0x2851 JUMP JUMPDEST PUSH1 0x1 PUSH1 0x3 DUP6 ADD SLOAD PUSH1 0x1 PUSH1 0xA0 SHL SWAP1 DIV PUSH1 0xFF AND PUSH1 0x1 DUP2 GT ISZERO PUSH2 0x24D2 JUMPI PUSH2 0x24D2 PUSH2 0x4342 JUMP JUMPDEST SUB PUSH2 0x2851 JUMPI PUSH1 0x0 DUP5 PUSH1 0x7 ADD SLOAD PUSH1 0x0 EQ DUP1 PUSH2 0x24FC JUMPI POP PUSH1 0xF0 DUP6 PUSH1 0x7 ADD SLOAD TIMESTAMP PUSH2 0x24F9 SWAP2 SWAP1 PUSH2 0x47AD JUMP JUMPDEST LT ISZERO JUMPDEST SWAP1 POP DUP1 ISZERO PUSH2 0x2847 JUMPI PUSH1 0x0 PUSH1 0x6 PUSH1 0x0 DUP2 SLOAD DUP2 LT PUSH2 0x251A JUMPI PUSH2 0x251A PUSH2 0x4781 JUMP JUMPDEST SWAP1 PUSH1 0x0 MSTORE PUSH1 0x20 PUSH1 0x0 KECCAK256 SWAP1 PUSH1 0x9 MUL ADD PUSH1 0x40 MLOAD DUP1 PUSH2 0x160 ADD PUSH1 0x40 MSTORE SWAP1 DUP2 PUSH1 0x0 DUP3 ADD DUP1 SLOAD PUSH2 0x2544 SWAP1 PUSH2 0x484A JUMP JUMPDEST DUP1 PUSH1 0x1F ADD PUSH1 0x20 DUP1 SWAP2 DIV MUL PUSH1 0x20 ADD PUSH1 0x40 MLOAD SWAP1 DUP2 ADD PUSH1 0x40 MSTORE DUP1 SWAP3 SWAP2 SWAP1 DUP2 DUP2 MSTORE PUSH1 0x20 ADD DUP3 DUP1 SLOAD PUSH2 0x2570 SWAP1 PUSH2 0x484A JUMP JUMPDEST DUP1 ISZERO PUSH2 0x25BD JUMPI DUP1 PUSH1 0x1F LT PUSH2 0x2592 JUMPI PUSH2 0x100 DUP1 DUP4 SLOAD DIV MUL DUP4 MSTORE SWAP2 PUSH1 0x20 ADD SWAP2 PUSH2 0x25BD JUMP JUMPDEST DUP3 ADD SWAP2 SWAP1 PUSH1 0x0 MSTORE PUSH1 0x20 PUSH1 0x0 KECCAK256 SWAP1 JUMPDEST DUP2 SLOAD DUP2 MSTORE SWAP1 PUSH1 0x1 ADD SWAP1 PUSH1 0x20 ADD DUP1 DUP4 GT PUSH2 0x25A0 JUMPI DUP3 SWAP1 SUB PUSH1 0x1F AND DUP3 ADD SWAP2 JUMPDEST POP POP POP POP POP DUP2 MSTORE PUSH1 0x20 ADD PUSH1 0x1 DUP3 ADD DUP1 SLOAD PUSH2 0x25D6 SWAP1 PUSH2 0x484A JUMP JUMPDEST DUP1 PUSH1 0x1F ADD PUSH1 0x20 DUP1 SWAP2 DIV MUL PUSH1 0x20 ADD PUSH1 0x40 MLOAD SWAP1 DUP2 ADD PUSH1 0x40 MSTORE DUP1 SWAP3 SWAP2 SWAP1 DUP2 DUP2 MSTORE PUSH1 0x20 ADD DUP3 DUP1 SLOAD PUSH2 0x2602 SWAP1 PUSH2 0x484A JUMP JUMPDEST DUP1 ISZERO PUSH2 0x264F JUMPI DUP1 PUSH1 0x1F LT PUSH2 0x2624 JUMPI PUSH2 0x100 DUP1 DUP4 SLOAD DIV MUL DUP4 MSTORE SWAP2 PUSH1 0x20 ADD SWAP2 PUSH2 0x264F JUMP JUMPDEST DUP3 ADD SWAP2 SWAP1 PUSH1 0x0 MSTORE PUSH1 0x20 PUSH1 0x0 KECCAK256 SWAP1 JUMPDEST DUP2 SLOAD DUP2 MSTORE SWAP1 PUSH1 0x1 ADD SWAP1 PUSH1 0x20 ADD DUP1 DUP4 GT PUSH2 0x2632 JUMPI DUP3 SWAP1 SUB PUSH1 0x1F AND DUP3 ADD SWAP2 JUMPDEST POP POP POP SWAP2 DUP4 MSTORE POP POP PUSH1 0x2 DUP3 ADD SLOAD PUSH1 0xFF DUP1 DUP3 AND PUSH1 0x20 DUP5 ADD MSTORE PUSH1 0x1 PUSH1 0x1 PUSH1 0xA0 SHL SUB PUSH2 0x100 SWAP1 SWAP3 DIV DUP3 AND PUSH1 0x40 DUP5 ADD MSTORE PUSH1 0x3 DUP5 ADD SLOAD SWAP2 DUP3 AND PUSH1 0x60 DUP5 ADD MSTORE PUSH1 0x80 SWAP1 SWAP3 ADD SWAP2 PUSH1 0x1 PUSH1 0xA0 SHL SWAP1 SWAP2 DIV AND PUSH1 0x1 DUP2 GT ISZERO PUSH2 0x26A8 JUMPI PUSH2 0x26A8 PUSH2 0x4342 JUMP JUMPDEST PUSH1 0x1 DUP2 GT ISZERO PUSH2 0x26B9 JUMPI PUSH2 0x26B9 PUSH2 0x4342 JUMP JUMPDEST DUP2 MSTORE PUSH1 0x4 DUP3 DUP2 ADD SLOAD PUSH1 0x20 DUP4 ADD MSTORE PUSH1 0x5 DUP4 ADD SLOAD PUSH1 0x40 DUP1 DUP5 ADD SWAP2 SWAP1 SWAP2 MSTORE PUSH1 0x6 DUP5 ADD SLOAD PUSH1 0x60 DUP5 ADD MSTORE PUSH1 0x7 DUP5 ADD SLOAD PUSH1 0x80 DUP5 ADD MSTORE PUSH1 0x8 SWAP4 DUP5 ADD SLOAD PUSH1 0x1 PUSH1 0x1 PUSH1 0xA0 SHL SUB SWAP1 DUP2 AND PUSH1 0xA0 SWAP1 SWAP5 ADD SWAP4 SWAP1 SWAP4 MSTORE SWAP3 DUP11 ADD SLOAD PUSH2 0x140 DUP6 ADD MLOAD PUSH1 0x3 DUP13 ADD SLOAD SWAP5 MLOAD PUSH4 0x70A08231 PUSH1 0xE0 SHL DUP2 MSTORE SWAP6 SWAP7 POP SWAP1 DUP4 AND SWAP5 SWAP1 SWAP4 PUSH1 0x0 SWAP4 DUP7 SWAP4 PUSH4 0x70A08231 SWAP4 PUSH2 0x273F SWAP4 SWAP1 SWAP3 AND SWAP2 ADD PUSH2 0x469D JUMP JUMPDEST PUSH1 0x20 PUSH1 0x40 MLOAD DUP1 DUP4 SUB DUP2 DUP7 GAS STATICCALL ISZERO DUP1 ISZERO PUSH2 0x275C JUMPI RETURNDATASIZE PUSH1 0x0 DUP1 RETURNDATACOPY RETURNDATASIZE PUSH1 0x0 REVERT JUMPDEST POP POP POP POP PUSH1 0x40 MLOAD RETURNDATASIZE PUSH1 0x1F NOT PUSH1 0x1F DUP3 ADD AND DUP3 ADD DUP1 PUSH1 0x40 MSTORE POP DUP2 ADD SWAP1 PUSH2 0x2780 SWAP2 SWAP1 PUSH2 0x4813 JUMP JUMPDEST PUSH1 0x3 DUP11 ADD SLOAD PUSH1 0x40 MLOAD PUSH4 0x70A08231 PUSH1 0xE0 SHL DUP2 MSTORE SWAP2 SWAP3 POP PUSH1 0x0 SWAP2 PUSH1 0x1 PUSH1 0x1 PUSH1 0xA0 SHL SUB DUP6 DUP2 AND SWAP3 PUSH4 0x70A08231 SWAP3 PUSH2 0x27BA SWAP3 SWAP1 SWAP2 AND SWAP1 PUSH1 0x4 ADD PUSH2 0x469D JUMP JUMPDEST PUSH1 0x20 PUSH1 0x40 MLOAD DUP1 DUP4 SUB DUP2 DUP7 GAS STATICCALL ISZERO DUP1 ISZERO PUSH2 0x27D7 JUMPI RETURNDATASIZE PUSH1 0x0 DUP1 RETURNDATACOPY RETURNDATASIZE PUSH1 0x0 REVERT JUMPDEST POP POP POP POP PUSH1 0x40 MLOAD RETURNDATASIZE PUSH1 0x1F NOT PUSH1 0x1F DUP3 ADD AND DUP3 ADD DUP1 PUSH1 0x40 MSTORE POP DUP2 ADD SWAP1 PUSH2 0x27FB SWAP2 SWAP1 PUSH2 0x4813 JUMP JUMPDEST PUSH1 0x2 DUP12 ADD SLOAD SWAP1 SWAP2 POP PUSH2 0x2811 SWAP1 DUP4 SWAP1 PUSH1 0xFF AND PUSH2 0x3947 JUMP JUMPDEST SWAP2 POP PUSH2 0x2821 DUP2 DUP7 PUSH1 0x40 ADD MLOAD PUSH2 0x3947 JUMP JUMPDEST SWAP1 POP PUSH2 0x282D DUP2 DUP4 PUSH2 0x3973 JUMP JUMPDEST PUSH1 0x6 DUP12 ADD DUP2 SWAP1 SSTORE TIMESTAMP PUSH1 0x7 DUP13 ADD SSTORE SWAP7 POP PUSH2 0x284F SWAP5 POP POP POP POP POP JUMP JUMPDEST DUP5 PUSH1 0x6 ADD SLOAD SWAP2 POP JUMPDEST POP JUMPDEST PUSH1 0x0 DUP4 ISZERO PUSH2 0x287A JUMPI PUSH2 0x2873 PUSH2 0x2866 DUP5 DUP5 PUSH2 0x397F JUMP JUMPDEST PUSH1 0x2 DUP8 ADD SLOAD PUSH1 0xFF AND PUSH2 0x3BE4 JUMP JUMPDEST SWAP1 POP PUSH2 0x289A JUMP JUMPDEST PUSH1 0x2 DUP6 ADD SLOAD PUSH2 0x2897 SWAP1 PUSH2 0x2891 SWAP1 DUP6 SWAP1 PUSH1 0xFF AND PUSH2 0x3947 JUMP JUMPDEST DUP4 PUSH2 0x3973 JUMP JUMPDEST SWAP1 POP JUMPDEST PUSH1 0x0 PUSH1 0x7 DUP1 SLOAD SWAP1 POP SWAP1 POP PUSH1 0x0 PUSH1 0x40 MLOAD DUP1 PUSH2 0x120 ADD PUSH1 0x40 MSTORE DUP1 CALLER PUSH1 0x1 PUSH1 0x1 PUSH1 0xA0 SHL SUB AND DUP2 MSTORE PUSH1 0x20 ADD DUP9 PUSH1 0x2 ADD PUSH1 0x1 SWAP1 SLOAD SWAP1 PUSH2 0x100 EXP SWAP1 DIV PUSH1 0x1 PUSH1 0x1 PUSH1 0xA0 SHL SUB AND PUSH1 0x1 PUSH1 0x1 PUSH1 0xA0 SHL SUB AND DUP2 MSTORE PUSH1 0x20 ADD DUP8 ISZERO ISZERO DUP2 MSTORE PUSH1 0x20 ADD TIMESTAMP DUP2 MSTORE PUSH1 0x20 ADD DUP6 DUP2 MSTORE PUSH1 0x20 ADD DUP7 DUP2 MSTORE PUSH1 0x20 ADD DUP5 DUP2 MSTORE PUSH1 0x20 ADD DUP4 DUP2 MSTORE PUSH1 0x20 ADD DUP4 DUP2 MSTORE POP SWAP1 POP PUSH1 0x7 DUP2 SWAP1 DUP1 PUSH1 0x1 DUP2 SLOAD ADD DUP1 DUP3 SSTORE DUP1 SWAP2 POP POP PUSH1 0x1 SWAP1 SUB SWAP1 PUSH1 0x0 MSTORE PUSH1 0x20 PUSH1 0x0 KECCAK256 SWAP1 PUSH1 0x8 MUL ADD PUSH1 0x0 SWAP1 SWAP2 SWAP1 SWAP2 SWAP1 SWAP2 POP PUSH1 0x0 DUP3 ADD MLOAD DUP2 PUSH1 0x0 ADD PUSH1 0x0 PUSH2 0x100 EXP DUP2 SLOAD DUP2 PUSH1 0x1 PUSH1 0x1 PUSH1 0xA0 SHL SUB MUL NOT AND SWAP1 DUP4 PUSH1 0x1 PUSH1 0x1 PUSH1 0xA0 SHL SUB AND MUL OR SWAP1 SSTORE POP PUSH1 0x20 DUP3 ADD MLOAD DUP2 PUSH1 0x1 ADD PUSH1 0x0 PUSH2 0x100 EXP DUP2 SLOAD DUP2 PUSH1 0x1 PUSH1 0x1 PUSH1 0xA0 SHL SUB MUL NOT AND SWAP1 DUP4 PUSH1 0x1 PUSH1 0x1 PUSH1 0xA0 SHL SUB AND MUL OR SWAP1 SSTORE POP PUSH1 0x40 DUP3 ADD MLOAD DUP2 PUSH1 0x1 ADD PUSH1 0x14 PUSH2 0x100 EXP DUP2 SLOAD DUP2 PUSH1 0xFF MUL NOT AND SWAP1 DUP4 ISZERO ISZERO MUL OR SWAP1 SSTORE POP PUSH1 0x60 DUP3 ADD MLOAD DUP2 PUSH1 0x2 ADD SSTORE PUSH1 0x80 DUP3 ADD MLOAD DUP2 PUSH1 0x3 ADD SSTORE PUSH1 0xA0 DUP3 ADD MLOAD DUP2 PUSH1 0x4 ADD SSTORE PUSH1 0xC0 DUP3 ADD MLOAD DUP2 PUSH1 0x5 ADD SSTORE PUSH1 0xE0 DUP3 ADD MLOAD DUP2 PUSH1 0x6 ADD SSTORE PUSH2 0x100 DUP3 ADD MLOAD DUP2 PUSH1 0x7 ADD SSTORE POP POP PUSH1 0xB PUSH1 0x0 CALLER PUSH1 0x1 PUSH1 0x1 PUSH1 0xA0 SHL SUB AND PUSH1 0x1 PUSH1 0x1 PUSH1 0xA0 SHL SUB AND DUP2 MSTORE PUSH1 0x20 ADD SWAP1 DUP2 MSTORE PUSH1 0x20 ADD PUSH1 0x0 KECCAK256 DUP3 SWAP1 DUP1 PUSH1 0x1 DUP2 SLOAD ADD DUP1 DUP3 SSTORE DUP1 SWAP2 POP POP PUSH1 0x1 SWAP1 SUB SWAP1 PUSH1 0x0 MSTORE PUSH1 0x20 PUSH1 0x0 KECCAK256 ADD PUSH1 0x0 SWAP1 SWAP2 SWAP1 SWAP2 SWAP1 SWAP2 POP SSTORE PUSH1 0xA PUSH1 0x0 DUP9 PUSH1 0x2 ADD PUSH1 0x1 SWAP1 SLOAD SWAP1 PUSH2 0x100 EXP SWAP1 DIV PUSH1 0x1 PUSH1 0x1 PUSH1 0xA0 SHL SUB AND PUSH1 0x1 PUSH1 0x1 PUSH1 0xA0 SHL SUB AND PUSH1 0x1 PUSH1 0x1 PUSH1 0xA0 SHL SUB AND DUP2 MSTORE PUSH1 0x20 ADD SWAP1 DUP2 MSTORE PUSH1 0x20 ADD PUSH1 0x0 KECCAK256 DUP3 SWAP1 DUP1 PUSH1 0x1 DUP2 SLOAD ADD DUP1 DUP3 SSTORE DUP1 SWAP2 POP POP PUSH1 0x1 SWAP1 SUB SWAP1 PUSH1 0x0 MSTORE PUSH1 0x20 PUSH1 0x0 KECCAK256 ADD PUSH1 0x0 SWAP1 SWAP2 SWAP1 SWAP2 SWAP1 SWAP2 POP SSTORE PUSH32 0x96D694E92C01C8197B4CF2ECB0EC03BE940CC6E384CBDFB2AFB329375A0BE252 DUP3 DUP8 DUP10 PUSH1 0x2 ADD PUSH1 0x1 SWAP1 SLOAD SWAP1 PUSH2 0x100 EXP SWAP1 DIV PUSH1 0x1 PUSH1 0x1 PUSH1 0xA0 SHL SUB AND DUP9 DUP9 PUSH1 0x40 MLOAD PUSH2 0x2AF5 SWAP6 SWAP5 SWAP4 SWAP3 SWAP2 SWAP1 PUSH2 0x49F6 JUMP JUMPDEST PUSH1 0x40 MLOAD DUP1 SWAP2 SUB SWAP1 LOG1 POP POP POP POP POP POP POP JUMP JUMPDEST PUSH1 0x0 DUP1 PUSH1 0x0 DUP1 DUP7 PUSH1 0x5 ADD SLOAD DUP6 LT SWAP1 POP DUP1 ISZERO PUSH2 0x2B23 JUMPI DUP5 SWAP2 POP PUSH2 0x2B2B JUMP JUMPDEST DUP7 PUSH1 0x5 ADD SLOAD SWAP2 POP JUMPDEST PUSH1 0x60 DUP9 ADD MLOAD PUSH1 0x1 PUSH1 0x1 PUSH1 0xA0 SHL SUB AND PUSH1 0x0 SWAP1 DUP2 MSTORE PUSH1 0x3 PUSH1 0x20 MSTORE PUSH1 0x40 SWAP1 KECCAK256 SLOAD DUP3 GT PUSH2 0x2B6C JUMPI DUP7 SLOAD PUSH2 0x2B65 SWAP1 DUP10 SWAP1 PUSH1 0x1 PUSH1 0x1 PUSH1 0xA0 SHL SUB AND DUP5 PUSH2 0x381C JUMP JUMPDEST SWAP3 POP PUSH2 0x2B86 JUMP JUMPDEST DUP7 SLOAD PUSH2 0x2B83 SWAP1 DUP10 SWAP1 PUSH1 0x1 PUSH1 0x1 PUSH1 0xA0 SHL SUB AND DUP5 PUSH2 0x3C04 JUMP JUMPDEST SWAP3 POP JUMPDEST DUP3 PUSH2 0x2B97 JUMPI PUSH1 0x0 SWAP4 POP POP POP POP PUSH2 0x2461 JUMP JUMPDEST DUP1 ISZERO PUSH2 0x2C0C JUMPI PUSH1 0x0 PUSH2 0x2BC7 PUSH2 0x2BB0 DUP5 DUP12 PUSH1 0x40 ADD MLOAD PUSH2 0x3947 JUMP JUMPDEST PUSH2 0x2BC2 DUP11 PUSH1 0x5 ADD SLOAD DUP13 PUSH1 0x40 ADD MLOAD PUSH2 0x3947 JUMP JUMPDEST PUSH2 0x3973 JUMP JUMPDEST SWAP1 POP PUSH2 0x2BD7 DUP9 PUSH1 0x4 ADD SLOAD DUP3 PUSH2 0x397F JUMP JUMPDEST DUP9 PUSH1 0x4 ADD PUSH1 0x0 DUP3 DUP3 SLOAD PUSH2 0x2BEA SWAP2 SWAP1 PUSH2 0x47AD JUMP JUMPDEST SWAP3 POP POP DUP2 SWAP1 SSTORE POP DUP3 DUP9 PUSH1 0x5 ADD PUSH1 0x0 DUP3 DUP3 SLOAD PUSH2 0x2C05 SWAP2 SWAP1 PUSH2 0x47AD JUMP JUMPDEST SWAP1 SWAP2 SSTORE POP POP POP JUMPDEST PUSH1 0x1 DUP8 ADD SLOAD DUP8 SLOAD PUSH1 0x40 MLOAD PUSH32 0xBDB78CC9B5D01BDAC074DF120CC9776D231060CDCDCC8C7F6C2039F67A5E626F SWAP3 PUSH2 0x2C5D SWAP3 DUP11 SWAP3 PUSH1 0x1 PUSH1 0xA0 SHL SWAP1 SWAP3 DIV PUSH1 0xFF AND SWAP2 PUSH1 0x1 PUSH1 0x1 PUSH1 0xA0 SHL SUB SWAP1 SWAP2 AND SWAP1 DUP7 SWAP1 PUSH2 0x4A42 JUMP JUMPDEST PUSH1 0x40 MLOAD DUP1 SWAP2 SUB SWAP1 LOG1 ISZERO SWAP8 SWAP7 POP POP POP POP POP POP POP JUMP JUMPDEST PUSH1 0x5 DUP4 ADD SLOAD PUSH1 0x0 SWAP1 DUP2 SWAP1 DUP4 LT DUP1 ISZERO PUSH2 0x2C8B JUMPI DUP4 SWAP2 POP PUSH2 0x2C93 JUMP JUMPDEST DUP6 PUSH1 0x5 ADD SLOAD SWAP2 POP JUMPDEST DUP6 SLOAD PUSH2 0x2CAA SWAP1 DUP9 SWAP1 PUSH1 0x1 PUSH1 0x1 PUSH1 0xA0 SHL SUB AND DUP5 PUSH2 0x3772 JUMP JUMPDEST PUSH2 0x2CB9 JUMPI PUSH1 0x0 SWAP3 POP POP POP PUSH2 0x2461 JUMP JUMPDEST DUP1 ISZERO PUSH2 0x2D14 JUMPI PUSH1 0x0 PUSH2 0x2CCF DUP4 DUP9 PUSH1 0x5 ADD SLOAD PUSH2 0x3973 JUMP JUMPDEST SWAP1 POP PUSH2 0x2CDF DUP8 PUSH1 0x4 ADD SLOAD DUP3 PUSH2 0x397F JUMP JUMPDEST DUP8 PUSH1 0x4 ADD PUSH1 0x0 DUP3 DUP3 SLOAD PUSH2 0x2CF2 SWAP2 SWAP1 PUSH2 0x47AD JUMP JUMPDEST SWAP3 POP POP DUP2 SWAP1 SSTORE POP DUP3 DUP8 PUSH1 0x5 ADD PUSH1 0x0 DUP3 DUP3 SLOAD PUSH2 0x2D0D SWAP2 SWAP1 PUSH2 0x47AD JUMP JUMPDEST SWAP1 SWAP2 SSTORE POP POP POP JUMPDEST PUSH1 0x1 DUP7 ADD SLOAD DUP7 SLOAD PUSH1 0x40 MLOAD PUSH32 0xBDB78CC9B5D01BDAC074DF120CC9776D231060CDCDCC8C7F6C2039F67A5E626F SWAP3 PUSH2 0x2D65 SWAP3 DUP10 SWAP3 PUSH1 0x1 PUSH1 0xA0 SHL SWAP1 SWAP3 DIV PUSH1 0xFF AND SWAP2 PUSH1 0x1 PUSH1 0x1 PUSH1 0xA0 SHL SUB SWAP1 SWAP2 AND SWAP1 DUP7 SWAP1 PUSH2 0x4A42 JUMP JUMPDEST PUSH1 0x40 MLOAD DUP1 SWAP2 SUB SWAP1 LOG1 ISZERO SWAP7 SWAP6 POP POP POP POP POP POP JUMP JUMPDEST PUSH2 0x100 DUP3 ADD MLOAD PUSH1 0xE0 DUP4 ADD MLOAD DUP4 MLOAD PUSH1 0x1 PUSH1 0x1 PUSH1 0xA0 SHL SUB SWAP1 DUP2 AND PUSH1 0x0 SWAP1 DUP2 MSTORE PUSH1 0xB PUSH1 0x20 SWAP1 DUP2 MSTORE PUSH1 0x40 DUP1 DUP4 KECCAK256 DUP3 DUP10 ADD MLOAD SWAP1 SWAP5 AND DUP4 MSTORE PUSH1 0xA SWAP1 SWAP2 MSTORE DUP2 KECCAK256 SWAP1 PUSH2 0x2DBC DUP4 DUP7 PUSH2 0x3CB3 JUMP JUMPDEST ISZERO PUSH2 0x2E0A JUMPI PUSH1 0x7 DUP4 DUP7 DUP2 SLOAD DUP2 LT PUSH2 0x2DD5 JUMPI PUSH2 0x2DD5 PUSH2 0x4781 JUMP JUMPDEST SWAP1 PUSH1 0x0 MSTORE PUSH1 0x20 PUSH1 0x0 KECCAK256 ADD SLOAD DUP2 SLOAD DUP2 LT PUSH2 0x2DF0 JUMPI PUSH2 0x2DF0 PUSH2 0x4781 JUMP JUMPDEST SWAP1 PUSH1 0x0 MSTORE PUSH1 0x20 PUSH1 0x0 KECCAK256 SWAP1 PUSH1 0x8 MUL ADD SWAP1 POP DUP5 DUP2 PUSH1 0x7 ADD DUP2 SWAP1 SSTORE POP JUMPDEST PUSH2 0x2E14 DUP3 DUP6 PUSH2 0x3CB3 JUMP JUMPDEST ISZERO PUSH2 0x2E62 JUMPI PUSH1 0x7 DUP3 DUP6 DUP2 SLOAD DUP2 LT PUSH2 0x2E2D JUMPI PUSH2 0x2E2D PUSH2 0x4781 JUMP JUMPDEST SWAP1 PUSH1 0x0 MSTORE PUSH1 0x20 PUSH1 0x0 KECCAK256 ADD SLOAD DUP2 SLOAD DUP2 LT PUSH2 0x2E48 JUMPI PUSH2 0x2E48 PUSH2 0x4781 JUMP JUMPDEST SWAP1 PUSH1 0x0 MSTORE PUSH1 0x20 PUSH1 0x0 KECCAK256 SWAP1 PUSH1 0x8 MUL ADD SWAP1 POP DUP4 DUP2 PUSH1 0x6 ADD DUP2 SWAP1 SSTORE POP JUMPDEST PUSH2 0x2E6D PUSH1 0x7 DUP8 PUSH2 0x3D3E JUMP JUMPDEST ISZERO PUSH2 0x2F3B JUMPI PUSH1 0x7 DUP7 DUP2 SLOAD DUP2 LT PUSH2 0x2E85 JUMPI PUSH2 0x2E85 PUSH2 0x4781 JUMP JUMPDEST SWAP1 PUSH1 0x0 MSTORE PUSH1 0x20 PUSH1 0x0 KECCAK256 SWAP1 PUSH1 0x8 MUL ADD SWAP1 POP DUP7 PUSH2 0x100 ADD MLOAD SWAP5 POP DUP7 PUSH1 0xE0 ADD MLOAD SWAP4 POP PUSH1 0xB PUSH1 0x0 DUP9 PUSH1 0x0 ADD MLOAD PUSH1 0x1 PUSH1 0x1 PUSH1 0xA0 SHL SUB AND PUSH1 0x1 PUSH1 0x1 PUSH1 0xA0 SHL SUB AND DUP2 MSTORE PUSH1 0x20 ADD SWAP1 DUP2 MSTORE PUSH1 0x20 ADD PUSH1 0x0 KECCAK256 SWAP3 POP PUSH1 0xA PUSH1 0x0 DUP9 PUSH1 0x20 ADD MLOAD PUSH1 0x1 PUSH1 0x1 PUSH1 0xA0 SHL SUB AND PUSH1 0x1 PUSH1 0x1 PUSH1 0xA0 SHL SUB AND DUP2 MSTORE PUSH1 0x20 ADD SWAP1 DUP2 MSTORE PUSH1 0x20 ADD PUSH1 0x0 KECCAK256 SWAP2 POP DUP6 DUP4 DUP7 DUP2 SLOAD DUP2 LT PUSH2 0x2F0D JUMPI PUSH2 0x2F0D PUSH2 0x4781 JUMP JUMPDEST SWAP1 PUSH1 0x0 MSTORE PUSH1 0x20 PUSH1 0x0 KECCAK256 ADD DUP2 SWAP1 SSTORE POP DUP6 DUP3 DUP6 DUP2 SLOAD DUP2 LT PUSH2 0x2F2E JUMPI PUSH2 0x2F2E PUSH2 0x4781 JUMP JUMPDEST PUSH1 0x0 SWAP2 DUP3 MSTORE PUSH1 0x20 SWAP1 SWAP2 KECCAK256 ADD SSTORE JUMPDEST POP POP POP POP POP POP POP JUMP JUMPDEST PUSH2 0x140 DUP4 ADD MLOAD PUSH1 0x40 MLOAD PUSH32 0x23B872DD00000000000000000000000000000000000000000000000000000000 DUP2 MSTORE PUSH1 0x0 SWAP2 PUSH1 0x1 PUSH1 0x1 PUSH1 0xA0 SHL SUB AND SWAP1 PUSH4 0x23B872DD SWAP1 PUSH2 0x2F95 SWAP1 DUP7 SWAP1 ADDRESS SWAP1 DUP8 SWAP1 PUSH1 0x4 ADD PUSH2 0x4A80 JUMP JUMPDEST PUSH1 0x20 PUSH1 0x40 MLOAD DUP1 DUP4 SUB DUP2 PUSH1 0x0 DUP8 GAS CALL SWAP3 POP POP POP DUP1 ISZERO PUSH2 0x2FD0 JUMPI POP PUSH1 0x40 DUP1 MLOAD PUSH1 0x1F RETURNDATASIZE SWAP1 DUP2 ADD PUSH1 0x1F NOT AND DUP3 ADD SWAP1 SWAP3 MSTORE PUSH2 0x2FCD SWAP2 DUP2 ADD SWAP1 PUSH2 0x4AB3 JUMP JUMPDEST PUSH1 0x1 JUMPDEST PUSH2 0x2FDC JUMPI POP PUSH1 0x0 PUSH2 0x842 JUMP JUMPDEST DUP1 ISZERO PUSH2 0x3014 JUMPI PUSH1 0x60 DUP6 ADD MLOAD PUSH1 0x1 PUSH1 0x1 PUSH1 0xA0 SHL SUB AND PUSH1 0x0 SWAP1 DUP2 MSTORE PUSH1 0x2 PUSH1 0x20 MSTORE PUSH1 0x40 DUP2 KECCAK256 DUP1 SLOAD DUP6 SWAP3 SWAP1 PUSH2 0x300E SWAP1 DUP5 SWAP1 PUSH2 0x47F5 JUMP JUMPDEST SWAP1 SWAP2 SSTORE POP POP JUMPDEST SWAP1 POP PUSH2 0x842 JUMP JUMPDEST PUSH1 0x0 DUP1 PUSH1 0x0 PUSH2 0x3029 DUP5 PUSH2 0x3AB2 JUMP JUMPDEST SWAP2 POP SWAP2 POP DUP1 PUSH2 0x3064 JUMPI PUSH1 0x40 MLOAD PUSH32 0xE6F7D2C700000000000000000000000000000000000000000000000000000000 DUP2 MSTORE PUSH1 0x4 ADD PUSH1 0x40 MLOAD DUP1 SWAP2 SUB SWAP1 REVERT JUMPDEST POP SWAP3 SWAP2 POP POP JUMP JUMPDEST PUSH1 0x6 SLOAD PUSH1 0x0 SUB PUSH2 0x3077 JUMPI JUMP JUMPDEST PUSH2 0x3275 PUSH1 0x6 PUSH1 0x0 DUP2 SLOAD DUP2 LT PUSH2 0x308E JUMPI PUSH2 0x308E PUSH2 0x4781 JUMP JUMPDEST SWAP1 PUSH1 0x0 MSTORE PUSH1 0x20 PUSH1 0x0 KECCAK256 SWAP1 PUSH1 0x9 MUL ADD PUSH1 0x40 MLOAD DUP1 PUSH2 0x160 ADD PUSH1 0x40 MSTORE SWAP1 DUP2 PUSH1 0x0 DUP3 ADD DUP1 SLOAD PUSH2 0x30B8 SWAP1 PUSH2 0x484A JUMP JUMPDEST DUP1 PUSH1 0x1F ADD PUSH1 0x20 DUP1 SWAP2 DIV MUL PUSH1 0x20 ADD PUSH1 0x40 MLOAD SWAP1 DUP2 ADD PUSH1 0x40 MSTORE DUP1 SWAP3 SWAP2 SWAP1 DUP2 DUP2 MSTORE PUSH1 0x20 ADD DUP3 DUP1 SLOAD PUSH2 0x30E4 SWAP1 PUSH2 0x484A JUMP JUMPDEST DUP1 ISZERO PUSH2 0x3131 JUMPI DUP1 PUSH1 0x1F LT PUSH2 0x3106 JUMPI PUSH2 0x100 DUP1 DUP4 SLOAD DIV MUL DUP4 MSTORE SWAP2 PUSH1 0x20 ADD SWAP2 PUSH2 0x3131 JUMP JUMPDEST DUP3 ADD SWAP2 SWAP1 PUSH1 0x0 MSTORE PUSH1 0x20 PUSH1 0x0 KECCAK256 SWAP1 JUMPDEST DUP2 SLOAD DUP2 MSTORE SWAP1 PUSH1 0x1 ADD SWAP1 PUSH1 0x20 ADD DUP1 DUP4 GT PUSH2 0x3114 JUMPI DUP3 SWAP1 SUB PUSH1 0x1F AND DUP3 ADD SWAP2 JUMPDEST POP POP POP POP POP DUP2 MSTORE PUSH1 0x20 ADD PUSH1 0x1 DUP3 ADD DUP1 SLOAD PUSH2 0x314A SWAP1 PUSH2 0x484A JUMP JUMPDEST DUP1 PUSH1 0x1F ADD PUSH1 0x20 DUP1 SWAP2 DIV MUL PUSH1 0x20 ADD PUSH1 0x40 MLOAD SWAP1 DUP2 ADD PUSH1 0x40 MSTORE DUP1 SWAP3 SWAP2 SWAP1 DUP2 DUP2 MSTORE PUSH1 0x20 ADD DUP3 DUP1 SLOAD PUSH2 0x3176 SWAP1 PUSH2 0x484A JUMP JUMPDEST DUP1 ISZERO PUSH2 0x31C3 JUMPI DUP1 PUSH1 0x1F LT PUSH2 0x3198 JUMPI PUSH2 0x100 DUP1 DUP4 SLOAD DIV MUL DUP4 MSTORE SWAP2 PUSH1 0x20 ADD SWAP2 PUSH2 0x31C3 JUMP JUMPDEST DUP3 ADD SWAP2 SWAP1 PUSH1 0x0 MSTORE PUSH1 0x20 PUSH1 0x0 KECCAK256 SWAP1 JUMPDEST DUP2 SLOAD DUP2 MSTORE SWAP1 PUSH1 0x1 ADD SWAP1 PUSH1 0x20 ADD DUP1 DUP4 GT PUSH2 0x31A6 JUMPI DUP3 SWAP1 SUB PUSH1 0x1F AND DUP3 ADD SWAP2 JUMPDEST POP POP POP SWAP2 DUP4 MSTORE POP POP PUSH1 0x2 DUP3 ADD SLOAD PUSH1 0xFF DUP1 DUP3 AND PUSH1 0x20 DUP5 ADD MSTORE PUSH1 0x1 PUSH1 0x1 PUSH1 0xA0 SHL SUB PUSH2 0x100 SWAP1 SWAP3 DIV DUP3 AND PUSH1 0x40 DUP5 ADD MSTORE PUSH1 0x3 DUP5 ADD SLOAD SWAP2 DUP3 AND PUSH1 0x60 DUP5 ADD MSTORE PUSH1 0x80 SWAP1 SWAP3 ADD SWAP2 PUSH1 0x1 PUSH1 0xA0 SHL SWAP1 SWAP2 DIV AND PUSH1 0x1 DUP2 GT ISZERO PUSH2 0x321C JUMPI PUSH2 0x321C PUSH2 0x4342 JUMP JUMPDEST PUSH1 0x1 DUP2 GT ISZERO PUSH2 0x322D JUMPI PUSH2 0x322D PUSH2 0x4342 JUMP JUMPDEST DUP2 MSTORE PUSH1 0x4 DUP3 ADD SLOAD PUSH1 0x20 DUP3 ADD MSTORE PUSH1 0x5 DUP1 DUP4 ADD SLOAD PUSH1 0x40 DUP4 ADD MSTORE PUSH1 0x6 DUP4 ADD SLOAD PUSH1 0x60 DUP4 ADD MSTORE PUSH1 0x7 DUP4 ADD SLOAD PUSH1 0x80 DUP4 ADD MSTORE PUSH1 0x8 SWAP1 SWAP3 ADD SLOAD PUSH1 0x1 PUSH1 0x1 PUSH1 0xA0 SHL SUB AND PUSH1 0xA0 SWAP1 SWAP2 ADD MSTORE SLOAD CALLER SWAP1 PUSH2 0x2F44 JUMP JUMPDEST PUSH2 0x32AF JUMPI PUSH1 0x5 SLOAD PUSH1 0x40 MLOAD PUSH32 0xCA114A0200000000000000000000000000000000000000000000000000000000 DUP2 MSTORE PUSH1 0x4 ADD PUSH2 0x19CC SWAP2 SWAP1 PUSH2 0x42BD JUMP JUMPDEST PUSH1 0x0 PUSH2 0x3E8 PUSH1 0x5 DUP1 SLOAD PUSH2 0x32C2 SWAP2 SWAP1 PUSH2 0x4AD4 JUMP JUMPDEST PUSH2 0x32CC SWAP2 SWAP1 PUSH2 0x4B02 JUMP JUMPDEST SWAP1 POP DUP1 PUSH1 0x5 PUSH1 0x0 DUP3 DUP3 SLOAD PUSH2 0x15C8 SWAP2 SWAP1 PUSH2 0x47F5 JUMP JUMPDEST PUSH1 0x0 DUP7 SWAP1 POP PUSH1 0x60 DUP1 PUSH1 0x0 DUP1 DUP5 PUSH1 0x1 PUSH1 0x1 PUSH1 0xA0 SHL SUB AND PUSH4 0x70A08231 ADDRESS PUSH1 0x40 MLOAD DUP3 PUSH4 0xFFFFFFFF AND PUSH1 0xE0 SHL DUP2 MSTORE PUSH1 0x4 ADD PUSH2 0x3317 SWAP2 SWAP1 PUSH2 0x469D JUMP JUMPDEST PUSH1 0x20 PUSH1 0x40 MLOAD DUP1 DUP4 SUB DUP2 DUP7 GAS STATICCALL SWAP3 POP POP POP DUP1 ISZERO PUSH2 0x3350 JUMPI POP PUSH1 0x40 DUP1 MLOAD PUSH1 0x1F RETURNDATASIZE SWAP1 DUP2 ADD PUSH1 0x1F NOT AND DUP3 ADD SWAP1 SWAP3 MSTORE PUSH2 0x334D SWAP2 DUP2 ADD SWAP1 PUSH2 0x4813 JUMP JUMPDEST PUSH1 0x1 JUMPDEST PUSH2 0x3386 JUMPI PUSH1 0x40 MLOAD PUSH32 0x29BDFB3400000000000000000000000000000000000000000000000000000000 DUP2 MSTORE PUSH1 0x4 ADD PUSH1 0x40 MLOAD DUP1 SWAP2 SUB SWAP1 REVERT JUMPDEST DUP1 SWAP3 POP DUP6 PUSH1 0x1 PUSH1 0x1 PUSH1 0xA0 SHL SUB AND PUSH4 0x313CE567 PUSH1 0x40 MLOAD DUP2 PUSH4 0xFFFFFFFF AND PUSH1 0xE0 SHL DUP2 MSTORE PUSH1 0x4 ADD PUSH1 0x20 PUSH1 0x40 MLOAD DUP1 DUP4 SUB DUP2 DUP7 GAS STATICCALL SWAP3 POP POP POP DUP1 ISZERO PUSH2 0x33E3 JUMPI POP PUSH1 0x40 DUP1 MLOAD PUSH1 0x1F RETURNDATASIZE SWAP1 DUP2 ADD PUSH1 0x1F NOT AND DUP3 ADD SWAP1 SWAP3 MSTORE PUSH2 0x33E0 SWAP2 DUP2 ADD SWAP1 PUSH2 0x4B2A JUMP JUMPDEST PUSH1 0x1 JUMPDEST PUSH2 0x33F0 JUMPI PUSH1 0x12 SWAP2 POP PUSH2 0x33F3 JUMP JUMPDEST SWAP2 POP JUMPDEST PUSH1 0x12 PUSH1 0xFF DUP4 AND GT ISZERO PUSH2 0x3431 JUMPI PUSH1 0x40 MLOAD PUSH32 0x432C0A5D00000000000000000000000000000000000000000000000000000000 DUP2 MSTORE PUSH1 0x4 ADD PUSH1 0x40 MLOAD DUP1 SWAP2 SUB SWAP1 REVERT JUMPDEST DUP6 PUSH1 0x1 PUSH1 0x1 PUSH1 0xA0 SHL SUB AND PUSH4 0x6FDDE03 PUSH1 0x40 MLOAD DUP2 PUSH4 0xFFFFFFFF AND PUSH1 0xE0 SHL DUP2 MSTORE PUSH1 0x4 ADD PUSH1 0x0 PUSH1 0x40 MLOAD DUP1 DUP4 SUB DUP2 DUP7 GAS STATICCALL SWAP3 POP POP POP DUP1 ISZERO PUSH2 0x3490 JUMPI POP PUSH1 0x40 MLOAD RETURNDATASIZE PUSH1 0x0 DUP3 RETURNDATACOPY PUSH1 0x1F RETURNDATASIZE SWAP1 DUP2 ADD PUSH1 0x1F NOT AND DUP3 ADD PUSH1 0x40 MSTORE PUSH2 0x348D SWAP2 SWAP1 DUP2 ADD SWAP1 PUSH2 0x49BB JUMP JUMPDEST PUSH1 0x1 JUMPDEST ISZERO PUSH2 0x3498 JUMPI SWAP5 POP JUMPDEST DUP6 PUSH1 0x1 PUSH1 0x1 PUSH1 0xA0 SHL SUB AND PUSH4 0x95D89B41 PUSH1 0x40 MLOAD DUP2 PUSH4 0xFFFFFFFF AND PUSH1 0xE0 SHL DUP2 MSTORE PUSH1 0x4 ADD PUSH1 0x0 PUSH1 0x40 MLOAD DUP1 DUP4 SUB DUP2 DUP7 GAS STATICCALL SWAP3 POP POP POP DUP1 ISZERO PUSH2 0x34F7 JUMPI POP PUSH1 0x40 MLOAD RETURNDATASIZE PUSH1 0x0 DUP3 RETURNDATACOPY PUSH1 0x1F RETURNDATASIZE SWAP1 DUP2 ADD PUSH1 0x1F NOT AND DUP3 ADD PUSH1 0x40 MSTORE PUSH2 0x34F4 SWAP2 SWAP1 DUP2 ADD SWAP1 PUSH2 0x49BB JUMP JUMPDEST PUSH1 0x1 JUMPDEST ISZERO PUSH2 0x34FF JUMPI SWAP4 POP JUMPDEST POP PUSH1 0x0 PUSH1 0x40 MLOAD DUP1 PUSH2 0x160 ADD PUSH1 0x40 MSTORE DUP1 DUP7 DUP2 MSTORE PUSH1 0x20 ADD DUP6 DUP2 MSTORE PUSH1 0x20 ADD DUP4 PUSH1 0xFF AND DUP2 MSTORE PUSH1 0x20 ADD DUP14 PUSH1 0x1 PUSH1 0x1 PUSH1 0xA0 SHL SUB AND DUP2 MSTORE PUSH1 0x20 ADD DUP11 PUSH1 0x1 PUSH1 0x1 PUSH1 0xA0 SHL SUB AND DUP2 MSTORE PUSH1 0x20 ADD DUP12 PUSH1 0x1 DUP2 GT ISZERO PUSH2 0x3553 JUMPI PUSH2 0x3553 PUSH2 0x4342 JUMP JUMPDEST DUP2 MSTORE PUSH1 0x20 DUP2 ADD DUP11 SWAP1 MSTORE PUSH1 0x40 DUP2 ADD DUP10 SWAP1 MSTORE PUSH1 0x60 DUP2 ADD DUP14 SWAP1 MSTORE PUSH1 0x0 PUSH1 0x80 DUP3 ADD DUP2 SWAP1 MSTORE PUSH1 0x1 PUSH1 0x1 PUSH1 0xA0 SHL SUB DUP10 AND PUSH1 0xA0 SWAP1 SWAP3 ADD SWAP2 SWAP1 SWAP2 MSTORE PUSH1 0x6 DUP1 SLOAD PUSH1 0x1 DUP2 ADD DUP3 SSTORE SWAP2 MSTORE DUP2 MLOAD SWAP2 SWAP3 POP DUP3 SWAP2 PUSH1 0x9 SWAP1 SWAP2 MUL PUSH32 0xF652222313E28459528D920B65115C16C04F3EFC82AAEDC97BE59F3F377C0D3F ADD SWAP1 DUP2 SWAP1 PUSH2 0x35CD SWAP1 DUP3 PUSH2 0x4BDC JUMP JUMPDEST POP PUSH1 0x20 DUP3 ADD MLOAD PUSH1 0x1 DUP3 ADD SWAP1 PUSH2 0x35E2 SWAP1 DUP3 PUSH2 0x4BDC JUMP JUMPDEST POP PUSH1 0x40 DUP3 ADD MLOAD PUSH1 0x2 DUP3 ADD DUP1 SLOAD PUSH1 0x60 DUP6 ADD MLOAD PUSH1 0xFF SWAP1 SWAP4 AND PUSH21 0xFFFFFFFFFFFFFFFFFFFFFFFFFFFFFFFFFFFFFFFFFF NOT SWAP2 DUP3 AND OR PUSH2 0x100 PUSH1 0x1 PUSH1 0x1 PUSH1 0xA0 SHL SUB SWAP5 DUP6 AND MUL OR SWAP1 SWAP2 SSTORE PUSH1 0x80 DUP5 ADD MLOAD PUSH1 0x3 DUP5 ADD DUP1 SLOAD PUSH1 0x1 PUSH1 0x1 PUSH1 0xA0 SHL SUB NOT DUP2 AND SWAP3 SWAP1 SWAP5 AND SWAP2 DUP3 OR DUP2 SSTORE PUSH1 0xA0 DUP7 ADD MLOAD SWAP4 SWAP1 SWAP3 AND OR PUSH1 0x1 PUSH1 0xA0 SHL DUP4 PUSH1 0x1 DUP2 GT ISZERO PUSH2 0x3666 JUMPI PUSH2 0x3666 PUSH2 0x4342 JUMP JUMPDEST MUL OR SWAP1 SSTORE POP PUSH1 0xC0 DUP3 ADD MLOAD PUSH1 0x4 DUP3 ADD SSTORE PUSH1 0xE0 DUP3 ADD MLOAD PUSH1 0x5 DUP3 ADD SSTORE PUSH2 0x100 DUP3 ADD MLOAD PUSH1 0x6 DUP1 DUP4 ADD SWAP2 SWAP1 SWAP2 SSTORE PUSH2 0x120 DUP4 ADD MLOAD PUSH1 0x7 DUP4 ADD SSTORE PUSH2 0x140 SWAP1 SWAP3 ADD MLOAD PUSH1 0x8 SWAP1 SWAP2 ADD DUP1 SLOAD PUSH1 0x1 PUSH1 0x1 PUSH1 0xA0 SHL SUB NOT AND PUSH1 0x1 PUSH1 0x1 PUSH1 0xA0 SHL SUB SWAP3 DUP4 AND OR SWAP1 SSTORE SWAP1 SLOAD PUSH1 0x60 DUP4 ADD DUP1 MLOAD DUP4 AND PUSH1 0x0 SWAP1 DUP2 MSTORE PUSH1 0x9 PUSH1 0x20 SWAP1 DUP2 MSTORE PUSH1 0x40 DUP1 DUP4 KECCAK256 SWAP5 SWAP1 SWAP5 SSTORE SWAP2 MLOAD SWAP1 SWAP4 AND DUP4 MSTORE PUSH1 0x2 DUP2 MSTORE SWAP2 DUP2 SWAP1 KECCAK256 DUP6 SWAP1 SSTORE SWAP1 DUP3 ADD MLOAD SWAP1 MLOAD PUSH2 0x3700 SWAP2 SWAP1 PUSH2 0x4CC1 JUMP JUMPDEST PUSH1 0x40 MLOAD SWAP1 DUP2 SWAP1 SUB DUP2 KECCAK256 DUP3 MLOAD SWAP1 SWAP2 PUSH2 0x3717 SWAP2 SWAP1 PUSH2 0x4CC1 JUMP JUMPDEST PUSH1 0x40 MLOAD SWAP1 DUP2 SWAP1 SUB DUP2 KECCAK256 PUSH1 0xA0 DUP5 ADD MLOAD PUSH1 0x60 DUP6 ADD MLOAD PUSH1 0x6 SLOAD SWAP3 SWAP4 PUSH32 0x2B9A73ECC76EBAD22366F66B2436A1725CC4F39AA579663FC941863779316B1B SWAP4 PUSH2 0x375C SWAP4 SWAP3 SWAP2 PUSH2 0x4CCD JUMP JUMPDEST PUSH1 0x40 MLOAD DUP1 SWAP2 SUB SWAP1 LOG3 POP POP POP POP POP POP POP POP POP POP POP POP JUMP JUMPDEST PUSH1 0x40 MLOAD PUSH1 0x0 SWAP1 PUSH1 0x1 PUSH1 0x1 PUSH1 0xA0 SHL SUB DUP5 AND SWAP1 DUP4 ISZERO PUSH2 0x8FC MUL SWAP1 DUP5 SWAP1 DUP5 DUP2 DUP2 DUP2 DUP6 DUP9 DUP9 CALL SWAP4 POP POP POP POP ISZERO PUSH2 0x3812 JUMPI PUSH32 0x897F9F8697C0FEE5ACFC2C885618E98D4F0882E71E35D182FACCC1915C01ECB DUP3 DUP5 PUSH1 0x40 MLOAD PUSH2 0x37CF SWAP3 SWAP2 SWAP1 PUSH2 0x4CDB JUMP JUMPDEST PUSH1 0x40 MLOAD DUP1 SWAP2 SUB SWAP1 LOG1 PUSH1 0x60 DUP5 ADD MLOAD PUSH1 0x1 PUSH1 0x1 PUSH1 0xA0 SHL SUB AND PUSH1 0x0 SWAP1 DUP2 MSTORE PUSH1 0x1 PUSH1 0x20 MSTORE PUSH1 0x40 DUP2 KECCAK256 DUP1 SLOAD DUP5 SWAP3 SWAP1 PUSH2 0x3803 SWAP1 DUP5 SWAP1 PUSH2 0x47AD JUMP JUMPDEST SWAP1 SWAP2 SSTORE POP PUSH1 0x1 SWAP2 POP PUSH2 0x842 SWAP1 POP JUMP JUMPDEST POP PUSH1 0x0 SWAP4 SWAP3 POP POP POP JUMP JUMPDEST PUSH2 0x140 DUP4 ADD MLOAD PUSH1 0x40 MLOAD PUSH4 0xA9059CBB PUSH1 0xE0 SHL DUP2 MSTORE PUSH1 0x0 SWAP2 PUSH1 0x1 PUSH1 0x1 PUSH1 0xA0 SHL SUB AND SWAP1 PUSH4 0xA9059CBB SWAP1 PUSH2 0x3852 SWAP1 DUP7 SWAP1 DUP7 SWAP1 PUSH1 0x4 ADD PUSH2 0x4CF6 JUMP JUMPDEST PUSH1 0x20 PUSH1 0x40 MLOAD DUP1 DUP4 SUB DUP2 PUSH1 0x0 DUP8 GAS CALL SWAP3 POP POP POP DUP1 ISZERO PUSH2 0x388D JUMPI POP PUSH1 0x40 DUP1 MLOAD PUSH1 0x1F RETURNDATASIZE SWAP1 DUP2 ADD PUSH1 0x1F NOT AND DUP3 ADD SWAP1 SWAP3 MSTORE PUSH2 0x388A SWAP2 DUP2 ADD SWAP1 PUSH2 0x4AB3 JUMP JUMPDEST PUSH1 0x1 JUMPDEST PUSH2 0x3899 JUMPI POP PUSH1 0x0 PUSH2 0x842 JUMP JUMPDEST DUP1 ISZERO PUSH2 0x3014 JUMPI PUSH1 0x60 DUP6 ADD MLOAD PUSH1 0x1 PUSH1 0x1 PUSH1 0xA0 SHL SUB AND PUSH1 0x0 SWAP1 DUP2 MSTORE PUSH1 0x2 PUSH1 0x20 MSTORE PUSH1 0x40 DUP2 KECCAK256 DUP1 SLOAD DUP6 SWAP3 SWAP1 PUSH2 0x38CB SWAP1 DUP5 SWAP1 PUSH2 0x47AD JUMP JUMPDEST SWAP1 SWAP2 SSTORE POP POP PUSH1 0x60 DUP6 ADD MLOAD PUSH1 0x1 PUSH1 0x1 PUSH1 0xA0 SHL SUB AND PUSH1 0x0 SWAP1 DUP2 MSTORE PUSH1 0x3 PUSH1 0x20 MSTORE PUSH1 0x40 DUP2 KECCAK256 DUP1 SLOAD DUP6 SWAP3 SWAP1 PUSH2 0x38FC SWAP1 DUP5 SWAP1 PUSH2 0x47AD JUMP JUMPDEST SWAP1 SWAP2 SSTORE POP POP PUSH1 0x60 DUP6 ADD MLOAD PUSH1 0x40 MLOAD PUSH32 0xA84F763BE5BB36163517FB87C7AF39F875A97866FDF7806EB1B3EAC837AE35EA SWAP2 PUSH2 0x3938 SWAP2 DUP7 SWAP2 DUP9 SWAP2 PUSH2 0x4D11 JUMP JUMPDEST PUSH1 0x40 MLOAD DUP1 SWAP2 SUB SWAP1 LOG1 SWAP1 POP PUSH2 0x842 JUMP JUMPDEST PUSH1 0x0 DUP2 PUSH1 0xFF AND PUSH1 0x1 EQ PUSH2 0x396C JUMPI PUSH2 0x395D DUP3 PUSH2 0x3EC4 JUMP JUMPDEST PUSH2 0x3967 SWAP1 DUP5 PUSH2 0x4AD4 JUMP JUMPDEST PUSH2 0x842 JUMP JUMPDEST POP SWAP1 SWAP2 SWAP1 POP JUMP JUMPDEST PUSH1 0x0 PUSH2 0x842 DUP4 DUP4 PUSH2 0x3F08 JUMP JUMPDEST PUSH1 0x0 PUSH2 0x842 DUP4 DUP4 PUSH2 0x3F1D JUMP JUMPDEST PUSH1 0x0 DUP1 PUSH1 0x0 DUP1 DUP8 PUSH1 0x40 ADD MLOAD ISZERO PUSH2 0x39AC JUMPI POP POP DUP6 MLOAD DUP4 SWAP3 POP DUP5 SWAP2 POP CALLER SWAP1 PUSH2 0x39B8 JUMP JUMPDEST POP POP DUP6 MLOAD DUP5 SWAP3 POP DUP4 SWAP2 POP CALLER JUMPDEST PUSH2 0x39C3 DUP8 DUP3 DUP6 PUSH2 0x381C JUMP JUMPDEST PUSH2 0x39E0 JUMPI PUSH1 0x40 MLOAD PUSH4 0x4DE4E1D PUSH1 0xE4 SHL DUP2 MSTORE PUSH1 0x4 ADD PUSH1 0x40 MLOAD DUP1 SWAP2 SUB SWAP1 REVERT JUMPDEST PUSH2 0x39EB DUP8 DUP4 DUP7 PUSH2 0x3772 JUMP JUMPDEST PUSH2 0x9D9 JUMPI PUSH1 0x40 MLOAD PUSH4 0x4DE4E1D PUSH1 0xE4 SHL DUP2 MSTORE PUSH1 0x4 ADD PUSH1 0x40 MLOAD DUP1 SWAP2 SUB SWAP1 REVERT JUMPDEST PUSH1 0xC0 DUP3 ADD MLOAD PUSH1 0x0 DUP2 ISZERO DUP1 ISZERO SWAP1 PUSH2 0x3A22 JUMPI POP DUP4 PUSH1 0xE0 ADD MLOAD DUP4 LT ISZERO JUMPDEST SWAP1 POP DUP1 ISZERO PUSH2 0x7F4 JUMPI PUSH1 0x60 DUP5 ADD DUP1 MLOAD PUSH1 0x1 PUSH1 0x1 PUSH1 0xA0 SHL SUB SWAP1 DUP2 AND PUSH1 0x0 SWAP1 DUP2 MSTORE PUSH1 0x3 PUSH1 0x20 SWAP1 DUP2 MSTORE PUSH1 0x40 DUP1 DUP4 KECCAK256 SLOAD SWAP5 MLOAD SWAP1 SWAP4 AND DUP3 MSTORE PUSH1 0x2 SWAP1 MSTORE SWAP1 DUP2 KECCAK256 SLOAD SWAP1 SWAP2 PUSH2 0x3A67 SWAP2 PUSH2 0x47AD JUMP JUMPDEST SWAP1 POP DUP3 DUP2 GT ISZERO PUSH2 0xA73 JUMPI PUSH2 0x3A7C DUP6 CALLER DUP6 PUSH2 0x3C04 JUMP JUMPDEST PUSH2 0xA73 JUMPI PUSH1 0x40 MLOAD PUSH32 0xC96D18B500000000000000000000000000000000000000000000000000000000 DUP2 MSTORE PUSH1 0x4 ADD PUSH1 0x40 MLOAD DUP1 SWAP2 SUB SWAP1 REVERT JUMPDEST PUSH1 0x0 DUP1 DUP1 DUP1 DUP5 DUP2 DUP1 DUP1 DUP1 DUP1 JUMPDEST DUP6 MLOAD DUP2 LT DUP1 ISZERO PUSH2 0x3ACC JUMPI POP DUP4 ISZERO JUMPDEST ISZERO PUSH2 0x3BB9 JUMPI DUP6 DUP2 DUP2 MLOAD DUP2 LT PUSH2 0x3AE3 JUMPI PUSH2 0x3AE3 PUSH2 0x4781 JUMP JUMPDEST ADD PUSH1 0x20 ADD MLOAD PUSH1 0xF8 SHR SWAP5 POP PUSH1 0x30 DUP6 LT DUP1 ISZERO SWAP1 PUSH2 0x3B02 JUMPI POP PUSH1 0x39 DUP6 PUSH1 0xFF AND GT ISZERO JUMPDEST ISZERO PUSH2 0x3B71 JUMPI DUP7 SWAP8 POP DUP3 ISZERO PUSH2 0x3B22 JUMPI DUP2 PUSH2 0x3B1A DUP2 PUSH2 0x4D39 JUMP JUMPDEST SWAP3 POP POP PUSH2 0x3B30 JUMP JUMPDEST PUSH2 0x3B2D PUSH1 0xA DUP9 PUSH2 0x4AD4 JUMP JUMPDEST SWAP7 POP JUMPDEST PUSH2 0x3B3B DUP3 PUSH1 0xA PUSH2 0x4E4D JUMP JUMPDEST PUSH2 0x3B46 PUSH1 0x30 DUP8 PUSH2 0x4E62 JUMP JUMPDEST PUSH1 0xFF AND PUSH2 0x3B53 SWAP2 SWAP1 PUSH2 0x4AD4 JUMP JUMPDEST PUSH2 0x3B5D SWAP1 DUP9 PUSH2 0x47F5 JUMP JUMPDEST SWAP7 POP DUP7 DUP9 GT ISZERO PUSH2 0x3B6C JUMPI PUSH1 0x1 SWAP4 POP JUMPDEST PUSH2 0x3BA7 JUMP JUMPDEST DUP5 PUSH1 0xFF AND PUSH1 0x2E SUB PUSH2 0x3BA7 JUMPI DUP3 ISZERO PUSH2 0x3B87 JUMPI PUSH1 0x1 SWAP4 POP JUMPDEST PUSH1 0x1 SWAP3 POP PUSH1 0x12 SWAP2 POP PUSH2 0x3B9A DUP3 PUSH1 0xA PUSH2 0x4E4D JUMP JUMPDEST PUSH2 0x3BA4 SWAP1 DUP9 PUSH2 0x4AD4 JUMP JUMPDEST SWAP7 POP JUMPDEST DUP1 PUSH2 0x3BB1 DUP2 PUSH2 0x47C0 JUMP JUMPDEST SWAP2 POP POP PUSH2 0x3ABE JUMP JUMPDEST POP DUP2 PUSH2 0x3BD4 JUMPI PUSH2 0x3BD1 PUSH8 0xDE0B6B3A7640000 DUP8 PUSH2 0x4AD4 JUMP JUMPDEST SWAP6 POP JUMPDEST POP SWAP4 SWAP9 SWAP1 ISZERO SWAP8 POP SWAP6 POP POP POP POP POP POP JUMP JUMPDEST PUSH1 0x0 DUP2 PUSH1 0xFF AND PUSH1 0x1 EQ PUSH2 0x396C JUMPI PUSH2 0x3BFA DUP3 PUSH2 0x3EC4 JUMP JUMPDEST PUSH2 0x3967 SWAP1 DUP5 PUSH2 0x4B02 JUMP JUMPDEST PUSH2 0x140 DUP4 ADD MLOAD PUSH1 0x40 MLOAD PUSH4 0xA9059CBB PUSH1 0xE0 SHL DUP2 MSTORE PUSH1 0x0 SWAP2 PUSH1 0x1 PUSH1 0x1 PUSH1 0xA0 SHL SUB AND SWAP1 PUSH4 0xA9059CBB SWAP1 PUSH2 0x3C3A SWAP1 DUP7 SWAP1 DUP7 SWAP1 PUSH1 0x4 ADD PUSH2 0x4CF6 JUMP JUMPDEST PUSH1 0x20 PUSH1 0x40 MLOAD DUP1 DUP4 SUB DUP2 PUSH1 0x0 DUP8 GAS CALL SWAP3 POP POP POP DUP1 ISZERO PUSH2 0x3C75 JUMPI POP PUSH1 0x40 DUP1 MLOAD PUSH1 0x1F RETURNDATASIZE SWAP1 DUP2 ADD PUSH1 0x1F NOT AND DUP3 ADD SWAP1 SWAP3 MSTORE PUSH2 0x3C72 SWAP2 DUP2 ADD SWAP1 PUSH2 0x4AB3 JUMP JUMPDEST PUSH1 0x1 JUMPDEST PUSH2 0x3C81 JUMPI POP PUSH1 0x0 PUSH2 0x842 JUMP JUMPDEST DUP1 ISZERO PUSH2 0x3014 JUMPI PUSH1 0x60 DUP6 ADD MLOAD PUSH1 0x1 PUSH1 0x1 PUSH1 0xA0 SHL SUB AND PUSH1 0x0 SWAP1 DUP2 MSTORE PUSH1 0x2 PUSH1 0x20 MSTORE PUSH1 0x40 DUP2 KECCAK256 DUP1 SLOAD DUP6 SWAP3 SWAP1 PUSH2 0x38FC SWAP1 DUP5 SWAP1 PUSH2 0x47AD JUMP JUMPDEST DUP2 SLOAD PUSH1 0x0 SWAP1 DUP2 SWAP1 PUSH2 0x3CC6 SWAP1 PUSH1 0x1 SWAP1 PUSH2 0x47AD JUMP JUMPDEST SWAP1 POP DUP3 DUP2 EQ DUP1 PUSH2 0x3D0C JUMPI DUP5 DUP3 DUP2 SLOAD DUP2 LT PUSH2 0x3CE2 JUMPI PUSH2 0x3CE2 PUSH2 0x4781 JUMP JUMPDEST SWAP1 PUSH1 0x0 MSTORE PUSH1 0x20 PUSH1 0x0 KECCAK256 ADD SLOAD DUP6 DUP6 DUP2 SLOAD DUP2 LT PUSH2 0x3CFF JUMPI PUSH2 0x3CFF PUSH2 0x4781 JUMP JUMPDEST PUSH1 0x0 SWAP2 DUP3 MSTORE PUSH1 0x20 SWAP1 SWAP2 KECCAK256 ADD SSTORE JUMPDEST DUP5 DUP1 SLOAD DUP1 PUSH2 0x3D1C JUMPI PUSH2 0x3D1C PUSH2 0x4E7F JUMP JUMPDEST PUSH1 0x1 SWAP1 SUB DUP2 DUP2 SWAP1 PUSH1 0x0 MSTORE PUSH1 0x20 PUSH1 0x0 KECCAK256 ADD PUSH1 0x0 SWAP1 SSTORE SWAP1 SSTORE DUP1 ISZERO SWAP3 POP POP POP SWAP3 SWAP2 POP POP JUMP JUMPDEST DUP2 SLOAD PUSH1 0x0 SWAP1 DUP2 SWAP1 PUSH2 0x3D51 SWAP1 PUSH1 0x1 SWAP1 PUSH2 0x47AD JUMP JUMPDEST SWAP1 POP DUP3 DUP2 EQ DUP1 PUSH2 0x3E3E JUMPI DUP5 DUP3 DUP2 SLOAD DUP2 LT PUSH2 0x3D6D JUMPI PUSH2 0x3D6D PUSH2 0x4781 JUMP JUMPDEST SWAP1 PUSH1 0x0 MSTORE PUSH1 0x20 PUSH1 0x0 KECCAK256 SWAP1 PUSH1 0x8 MUL ADD DUP6 DUP6 DUP2 SLOAD DUP2 LT PUSH2 0x3D8D JUMPI PUSH2 0x3D8D PUSH2 0x4781 JUMP JUMPDEST PUSH1 0x0 SWAP2 DUP3 MSTORE PUSH1 0x20 SWAP1 SWAP2 KECCAK256 DUP3 SLOAD PUSH1 0x8 SWAP1 SWAP3 MUL ADD DUP1 SLOAD PUSH1 0x1 PUSH1 0x1 PUSH1 0xA0 SHL SUB NOT SWAP1 DUP2 AND PUSH1 0x1 PUSH1 0x1 PUSH1 0xA0 SHL SUB SWAP4 DUP5 AND OR DUP3 SSTORE PUSH1 0x1 DUP1 DUP6 ADD DUP1 SLOAD SWAP2 DUP5 ADD DUP1 SLOAD SWAP4 DUP5 AND SWAP3 SWAP1 SWAP6 AND SWAP2 DUP3 OR DUP6 SSTORE SLOAD PUSH1 0xFF PUSH1 0x1 PUSH1 0xA0 SHL SWAP2 DUP3 SWAP1 DIV AND ISZERO ISZERO MUL PUSH21 0xFFFFFFFFFFFFFFFFFFFFFFFFFFFFFFFFFFFFFFFFFF NOT SWAP1 SWAP3 AND OR OR SWAP1 SWAP2 SSTORE PUSH1 0x2 DUP1 DUP4 ADD SLOAD SWAP1 DUP3 ADD SSTORE PUSH1 0x3 DUP1 DUP4 ADD SLOAD SWAP1 DUP3 ADD SSTORE PUSH1 0x4 DUP1 DUP4 ADD SLOAD SWAP1 DUP3 ADD SSTORE PUSH1 0x5 DUP1 DUP4 ADD SLOAD SWAP1 DUP3 ADD SSTORE PUSH1 0x6 DUP1 DUP4 ADD SLOAD SWAP1 DUP3 ADD SSTORE PUSH1 0x7 SWAP2 DUP3 ADD SLOAD SWAP2 ADD SSTORE JUMPDEST DUP5 DUP1 SLOAD DUP1 PUSH2 0x3E4E JUMPI PUSH2 0x3E4E PUSH2 0x4E7F JUMP JUMPDEST PUSH1 0x0 DUP3 DUP2 MSTORE PUSH1 0x20 DUP2 KECCAK256 PUSH1 0x8 PUSH1 0x0 NOT SWAP1 SWAP4 ADD SWAP3 DUP4 MUL ADD DUP1 SLOAD PUSH1 0x1 PUSH1 0x1 PUSH1 0xA0 SHL SUB NOT AND DUP2 SSTORE PUSH1 0x1 DUP2 ADD DUP1 SLOAD PUSH21 0xFFFFFFFFFFFFFFFFFFFFFFFFFFFFFFFFFFFFFFFFFF NOT AND SWAP1 SSTORE PUSH1 0x2 DUP2 ADD DUP3 SWAP1 SSTORE PUSH1 0x3 DUP2 ADD DUP3 SWAP1 SSTORE PUSH1 0x4 DUP2 ADD DUP3 SWAP1 SSTORE PUSH1 0x5 DUP2 ADD DUP3 SWAP1 SSTORE PUSH1 0x6 DUP2 ADD DUP3 SWAP1 SSTORE PUSH1 0x7 ADD SSTORE SWAP1 SSTORE ISZERO SWAP2 POP POP SWAP3 SWAP2 POP POP JUMP JUMPDEST PUSH1 0xFF DUP2 AND PUSH1 0x0 SWAP1 DUP2 MSTORE PUSH1 0x4 PUSH1 0x20 MSTORE PUSH1 0x40 DUP2 KECCAK256 SLOAD SWAP1 DUP2 SWAP1 SUB PUSH2 0x3F03 JUMPI POP PUSH1 0xFF DUP2 DUP2 AND PUSH1 0x0 SWAP1 DUP2 MSTORE PUSH1 0x4 PUSH1 0x20 MSTORE PUSH1 0x40 SWAP1 KECCAK256 PUSH1 0x12 DUP4 SWAP1 SUB SWAP1 SWAP2 AND PUSH1 0xA EXP SWAP1 DUP2 SWAP1 SSTORE JUMPDEST SWAP2 SWAP1 POP JUMP JUMPDEST PUSH1 0x0 PUSH2 0x842 DUP4 PUSH8 0xDE0B6B3A7640000 DUP5 PUSH2 0x3F29 JUMP JUMPDEST PUSH1 0x0 PUSH2 0x842 DUP4 DUP4 PUSH2 0x400B JUMP JUMPDEST PUSH1 0x0 DUP1 DUP1 PUSH1 0x0 NOT DUP6 DUP8 MULMOD DUP6 DUP8 MUL SWAP3 POP DUP3 DUP2 LT DUP4 DUP3 SUB SUB SWAP2 POP POP DUP1 PUSH1 0x0 SUB PUSH2 0x3F63 JUMPI DUP4 DUP3 DUP2 PUSH2 0x3F59 JUMPI PUSH2 0x3F59 PUSH2 0x4AEC JUMP JUMPDEST DIV SWAP3 POP POP POP PUSH2 0x842 JUMP JUMPDEST DUP4 DUP2 LT PUSH2 0x3FA2 JUMPI DUP6 DUP6 DUP6 PUSH1 0x40 MLOAD PUSH32 0x6C59DA1200000000000000000000000000000000000000000000000000000000 DUP2 MSTORE PUSH1 0x4 ADD PUSH2 0x19CC SWAP4 SWAP3 SWAP2 SWAP1 PUSH2 0x4E95 JUMP JUMPDEST PUSH1 0x0 DUP5 DUP7 DUP9 MULMOD PUSH1 0x2 PUSH1 0x1 DUP8 NOT DUP2 ADD DUP9 AND SWAP8 DUP9 SWAP1 DIV PUSH1 0x3 DUP2 MUL DUP4 XOR DUP1 DUP3 MUL DUP5 SUB MUL DUP1 DUP3 MUL DUP5 SUB MUL DUP1 DUP3 MUL DUP5 SUB MUL DUP1 DUP3 MUL DUP5 SUB MUL DUP1 DUP3 MUL DUP5 SUB MUL SWAP1 DUP2 MUL SWAP1 SWAP3 SUB SWAP1 SWAP2 MUL PUSH1 0x0 DUP9 SWAP1 SUB DUP9 SWAP1 DIV SWAP1 SWAP2 ADD DUP6 DUP4 GT SWAP1 SWAP5 SUB SWAP4 SWAP1 SWAP4 MUL SWAP4 SUB SWAP5 SWAP1 SWAP5 DIV SWAP2 SWAP1 SWAP2 OR MUL SWAP5 SWAP4 POP POP POP POP JUMP JUMPDEST PUSH1 0x0 DUP1 DUP1 PUSH1 0x0 NOT DUP5 DUP7 MULMOD DUP5 DUP7 MUL SWAP3 POP DUP3 DUP2 LT DUP4 DUP3 SUB SUB SWAP2 POP POP DUP1 PUSH1 0x0 SUB PUSH2 0x403F JUMPI POP PUSH8 0xDE0B6B3A7640000 SWAP1 DIV SWAP1 POP PUSH2 0x68F JUMP JUMPDEST PUSH8 0xDE0B6B3A7640000 DUP2 LT PUSH2 0x4084 JUMPI DUP5 DUP5 PUSH1 0x40 MLOAD PUSH32 0xD3C0DF5E00000000000000000000000000000000000000000000000000000000 DUP2 MSTORE PUSH1 0x4 ADD PUSH2 0x19CC SWAP3 SWAP2 SWAP1 PUSH2 0x4EB0 JUMP JUMPDEST PUSH1 0x0 PUSH8 0xDE0B6B3A7640000 DUP6 DUP8 MULMOD PUSH3 0x40000 DUP2 DUP6 SUB DIV SWAP4 LT SWAP1 SWAP2 SUB PUSH30 0x400000000000000000000000000000000000000000000000000000000000 MUL SWAP2 SWAP1 SWAP2 OR PUSH32 0xACCB18165BD6FE31AE1CF318DC5B51EEE0E1BA569B88CD74C1773B91FAC10669 MUL SWAP2 POP POP SWAP3 SWAP2 POP POP JUMP JUMPDEST PUSH1 0x40 MLOAD DUP1 PUSH2 0x140 ADD PUSH1 0x40 MSTORE DUP1 PUSH1 0x0 DUP2 MSTORE PUSH1 0x20 ADD PUSH1 0x60 DUP2 MSTORE PUSH1 0x20 ADD PUSH1 0x60 DUP2 MSTORE PUSH1 0x20 ADD PUSH1 0x0 PUSH1 0x1 PUSH1 0x1 PUSH1 0xA0 SHL SUB AND DUP2 MSTORE PUSH1 0x20 ADD PUSH1 0x0 PUSH1 0x1 PUSH1 0x1 PUSH1 0xA0 SHL SUB AND DUP2 MSTORE PUSH1 0x20 ADD PUSH1 0x0 DUP2 MSTORE PUSH1 0x20 ADD PUSH1 0x0 DUP2 MSTORE PUSH1 0x20 ADD PUSH1 0x0 PUSH1 0x1 DUP2 GT ISZERO PUSH2 0x4150 JUMPI PUSH2 0x4150 PUSH2 0x4342 JUMP JUMPDEST DUP2 MSTORE PUSH1 0x20 ADD PUSH1 0x0 DUP2 MSTORE PUSH1 0x20 ADD PUSH1 0x0 DUP2 MSTORE POP SWAP1 JUMP JUMPDEST PUSH1 0x0 PUSH1 0x1 PUSH1 0x1 PUSH1 0xA0 SHL SUB DUP3 AND PUSH2 0x68F JUMP JUMPDEST PUSH2 0x417E DUP2 PUSH2 0x4164 JUMP JUMPDEST DUP2 EQ PUSH2 0x4189 JUMPI PUSH1 0x0 DUP1 REVERT JUMPDEST POP JUMP JUMPDEST DUP1 CALLDATALOAD PUSH2 0x68F DUP2 PUSH2 0x4175 JUMP JUMPDEST DUP1 PUSH2 0x417E JUMP JUMPDEST DUP1 CALLDATALOAD PUSH2 0x68F DUP2 PUSH2 0x4197 JUMP JUMPDEST PUSH1 0x0 DUP1 PUSH1 0x40 DUP4 DUP6 SUB SLT ISZERO PUSH2 0x41BE JUMPI PUSH2 0x41BE PUSH1 0x0 DUP1 REVERT JUMPDEST PUSH1 0x0 PUSH2 0x41CA DUP6 DUP6 PUSH2 0x418C JUMP JUMPDEST SWAP3 POP POP PUSH1 0x20 PUSH2 0x41DB DUP6 DUP3 DUP7 ADD PUSH2 0x419D JUMP JUMPDEST SWAP2 POP POP SWAP3 POP SWAP3 SWAP1 POP JUMP JUMPDEST PUSH2 0x41EE DUP2 PUSH2 0x4164 JUMP JUMPDEST DUP3 MSTORE POP POP JUMP JUMPDEST DUP1 ISZERO ISZERO PUSH2 0x41EE JUMP JUMPDEST DUP1 PUSH2 0x41EE JUMP JUMPDEST DUP1 MLOAD PUSH2 0x120 DUP4 ADD SWAP1 PUSH2 0x4214 DUP5 DUP3 PUSH2 0x41E5 JUMP JUMPDEST POP PUSH1 0x20 DUP3 ADD MLOAD PUSH2 0x4227 PUSH1 0x20 DUP6 ADD DUP3 PUSH2 0x41E5 JUMP JUMPDEST POP PUSH1 0x40 DUP3 ADD MLOAD PUSH2 0x423A PUSH1 0x40 DUP6 ADD DUP3 PUSH2 0x41F4 JUMP JUMPDEST POP PUSH1 0x60 DUP3 ADD MLOAD PUSH2 0x424D PUSH1 0x60 DUP6 ADD DUP3 PUSH2 0x41FC JUMP JUMPDEST POP PUSH1 0x80 DUP3 ADD MLOAD PUSH2 0x4260 PUSH1 0x80 DUP6 ADD DUP3 PUSH2 0x41FC JUMP JUMPDEST POP PUSH1 0xA0 DUP3 ADD MLOAD PUSH2 0x4273 PUSH1 0xA0 DUP6 ADD DUP3 PUSH2 0x41FC JUMP JUMPDEST POP PUSH1 0xC0 DUP3 ADD MLOAD PUSH2 0x4286 PUSH1 0xC0 DUP6 ADD DUP3 PUSH2 0x41FC JUMP JUMPDEST POP PUSH1 0xE0 DUP3 ADD MLOAD PUSH2 0x4299 PUSH1 0xE0 DUP6 ADD DUP3 PUSH2 0x41FC JUMP JUMPDEST POP PUSH2 0x100 DUP3 ADD MLOAD PUSH2 0x7F4 PUSH2 0x100 DUP6 ADD DUP3 PUSH2 0x41FC JUMP JUMPDEST PUSH2 0x120 DUP2 ADD PUSH2 0x68F DUP3 DUP5 PUSH2 0x4202 JUMP JUMPDEST PUSH1 0x20 DUP2 ADD PUSH2 0x68F DUP3 DUP5 PUSH2 0x41FC JUMP JUMPDEST PUSH1 0x0 PUSH1 0x20 DUP3 DUP5 SUB SLT ISZERO PUSH2 0x42E0 JUMPI PUSH2 0x42E0 PUSH1 0x0 DUP1 REVERT JUMPDEST PUSH1 0x0 PUSH2 0x2461 DUP5 DUP5 PUSH2 0x419D JUMP JUMPDEST PUSH1 0x0 JUMPDEST DUP4 DUP2 LT ISZERO PUSH2 0x4307 JUMPI DUP2 DUP2 ADD MLOAD DUP4 DUP3 ADD MSTORE PUSH1 0x20 ADD PUSH2 0x42EF JUMP JUMPDEST POP POP PUSH1 0x0 SWAP2 ADD MSTORE JUMP JUMPDEST PUSH1 0x0 PUSH2 0x431A DUP3 MLOAD SWAP1 JUMP JUMPDEST DUP1 DUP5 MSTORE PUSH1 0x20 DUP5 ADD SWAP4 POP PUSH2 0x4331 DUP2 DUP6 PUSH1 0x20 DUP7 ADD PUSH2 0x42EC JUMP JUMPDEST PUSH1 0x1F ADD PUSH1 0x1F NOT AND SWAP3 SWAP1 SWAP3 ADD SWAP3 SWAP2 POP POP JUMP JUMPDEST PUSH4 0x4E487B71 PUSH1 0xE0 SHL PUSH1 0x0 MSTORE PUSH1 0x21 PUSH1 0x4 MSTORE PUSH1 0x24 PUSH1 0x0 REVERT JUMPDEST PUSH1 0x2 DUP2 LT PUSH2 0x4189 JUMPI PUSH2 0x4189 PUSH2 0x4342 JUMP JUMPDEST DUP1 PUSH2 0x3F03 DUP2 PUSH2 0x4358 JUMP JUMPDEST PUSH1 0x0 PUSH2 0x68F DUP3 PUSH2 0x4368 JUMP JUMPDEST PUSH2 0x41EE DUP2 PUSH2 0x4372 JUMP JUMPDEST DUP1 MLOAD PUSH1 0x0 SWAP1 PUSH2 0x140 DUP5 ADD SWAP1 PUSH2 0x439B DUP6 DUP3 PUSH2 0x41FC JUMP JUMPDEST POP PUSH1 0x20 DUP4 ADD MLOAD DUP5 DUP3 SUB PUSH1 0x20 DUP7 ADD MSTORE PUSH2 0x43B3 DUP3 DUP3 PUSH2 0x4310 JUMP JUMPDEST SWAP2 POP POP PUSH1 0x40 DUP4 ADD MLOAD DUP5 DUP3 SUB PUSH1 0x40 DUP7 ADD MSTORE PUSH2 0x43CD DUP3 DUP3 PUSH2 0x4310 JUMP JUMPDEST SWAP2 POP POP PUSH1 0x60 DUP4 ADD MLOAD PUSH2 0x43E2 PUSH1 0x60 DUP7 ADD DUP3 PUSH2 0x41E5 JUMP JUMPDEST POP PUSH1 0x80 DUP4 ADD MLOAD PUSH2 0x43F5 PUSH1 0x80 DUP7 ADD DUP3 PUSH2 0x41E5 JUMP JUMPDEST POP PUSH1 0xA0 DUP4 ADD MLOAD PUSH2 0x4408 PUSH1 0xA0 DUP7 ADD DUP3 PUSH2 0x41FC JUMP JUMPDEST POP PUSH1 0xC0 DUP4 ADD MLOAD PUSH2 0x441B PUSH1 0xC0 DUP7 ADD DUP3 PUSH2 0x41FC JUMP JUMPDEST POP PUSH1 0xE0 DUP4 ADD MLOAD PUSH2 0x442E PUSH1 0xE0 DUP7 ADD DUP3 PUSH2 0x437D JUMP JUMPDEST POP PUSH2 0x100 DUP4 ADD MLOAD PUSH2 0x4443 PUSH2 0x100 DUP7 ADD DUP3 PUSH2 0x41FC JUMP JUMPDEST POP PUSH2 0x120 DUP4 ADD MLOAD PUSH2 0x4458 PUSH2 0x120 DUP7 ADD DUP3 PUSH2 0x41FC JUMP JUMPDEST POP SWAP4 SWAP3 POP POP POP JUMP JUMPDEST PUSH1 0x20 DUP1 DUP3 MSTORE DUP2 ADD PUSH2 0x842 DUP2 DUP5 PUSH2 0x4386 JUMP JUMPDEST DUP1 ISZERO ISZERO PUSH2 0x417E JUMP JUMPDEST DUP1 CALLDATALOAD PUSH2 0x68F DUP2 PUSH2 0x4471 JUMP JUMPDEST PUSH1 0x0 DUP1 PUSH1 0x40 DUP4 DUP6 SUB SLT ISZERO PUSH2 0x449A JUMPI PUSH2 0x449A PUSH1 0x0 DUP1 REVERT JUMPDEST PUSH1 0x0 PUSH2 0x44A6 DUP6 DUP6 PUSH2 0x418C JUMP JUMPDEST SWAP3 POP POP PUSH1 0x20 PUSH2 0x41DB DUP6 DUP3 DUP7 ADD PUSH2 0x4479 JUMP JUMPDEST PUSH4 0x4E487B71 PUSH1 0xE0 SHL PUSH1 0x0 MSTORE PUSH1 0x41 PUSH1 0x4 MSTORE PUSH1 0x24 PUSH1 0x0 REVERT JUMPDEST PUSH1 0x1F NOT PUSH1 0x1F DUP4 ADD AND DUP2 ADD DUP2 DUP2 LT PUSH8 0xFFFFFFFFFFFFFFFF DUP3 GT OR ISZERO PUSH2 0x44F3 JUMPI PUSH2 0x44F3 PUSH2 0x44B7 JUMP JUMPDEST PUSH1 0x40 MSTORE POP POP JUMP JUMPDEST PUSH1 0x0 PUSH2 0x4505 PUSH1 0x40 MLOAD SWAP1 JUMP JUMPDEST SWAP1 POP PUSH2 0x3F03 DUP3 DUP3 PUSH2 0x44CD JUMP JUMPDEST PUSH1 0x0 PUSH8 0xFFFFFFFFFFFFFFFF DUP3 GT ISZERO PUSH2 0x452B JUMPI PUSH2 0x452B PUSH2 0x44B7 JUMP JUMPDEST PUSH1 0x1F NOT PUSH1 0x1F DUP4 ADD AND PUSH1 0x20 ADD SWAP3 SWAP2 POP POP JUMP JUMPDEST DUP3 DUP2 DUP4 CALLDATACOPY POP PUSH1 0x0 SWAP2 ADD MSTORE JUMP JUMPDEST PUSH1 0x0 PUSH2 0x455B PUSH2 0x4556 DUP5 PUSH2 0x4511 JUMP JUMPDEST PUSH2 0x44FA JUMP JUMPDEST SWAP1 POP DUP3 DUP2 MSTORE PUSH1 0x20 DUP2 ADD DUP5 DUP5 DUP5 ADD GT ISZERO PUSH2 0x4576 JUMPI PUSH2 0x4576 PUSH1 0x0 DUP1 REVERT JUMPDEST PUSH2 0x4458 DUP5 DUP3 DUP6 PUSH2 0x453C JUMP JUMPDEST PUSH1 0x0 DUP3 PUSH1 0x1F DUP4 ADD SLT PUSH2 0x4595 JUMPI PUSH2 0x4595 PUSH1 0x0 DUP1 REVERT JUMPDEST DUP2 CALLDATALOAD PUSH2 0x2461 DUP5 DUP3 PUSH1 0x20 DUP7 ADD PUSH2 0x4548 JUMP JUMPDEST PUSH1 0x0 DUP1 PUSH1 0x0 DUP1 PUSH1 0x80 DUP6 DUP8 SUB SLT ISZERO PUSH2 0x45BE JUMPI PUSH2 0x45BE PUSH1 0x0 DUP1 REVERT JUMPDEST PUSH1 0x0 PUSH2 0x45CA DUP8 DUP8 PUSH2 0x418C JUMP JUMPDEST SWAP5 POP POP PUSH1 0x20 PUSH2 0x45DB DUP8 DUP3 DUP9 ADD PUSH2 0x419D JUMP JUMPDEST SWAP4 POP POP PUSH1 0x40 PUSH2 0x45EC DUP8 DUP3 DUP9 ADD PUSH2 0x419D JUMP JUMPDEST SWAP3 POP POP PUSH1 0x60 DUP6 ADD CALLDATALOAD PUSH8 0xFFFFFFFFFFFFFFFF DUP2 GT ISZERO PUSH2 0x460C JUMPI PUSH2 0x460C PUSH1 0x0 DUP1 REVERT JUMPDEST PUSH2 0x4618 DUP8 DUP3 DUP9 ADD PUSH2 0x4581 JUMP JUMPDEST SWAP2 POP POP SWAP3 SWAP6 SWAP2 SWAP5 POP SWAP3 POP JUMP JUMPDEST PUSH1 0x0 DUP1 PUSH1 0x0 DUP1 PUSH1 0x80 DUP6 DUP8 SUB SLT ISZERO PUSH2 0x463D JUMPI PUSH2 0x463D PUSH1 0x0 DUP1 REVERT JUMPDEST PUSH1 0x0 PUSH2 0x4649 DUP8 DUP8 PUSH2 0x418C JUMP JUMPDEST SWAP5 POP POP PUSH1 0x20 PUSH2 0x465A DUP8 DUP3 DUP9 ADD PUSH2 0x418C JUMP JUMPDEST SWAP4 POP POP PUSH1 0x40 PUSH2 0x466B DUP8 DUP3 DUP9 ADD PUSH2 0x419D JUMP JUMPDEST SWAP3 POP POP PUSH1 0x60 PUSH2 0x4618 DUP8 DUP3 DUP9 ADD PUSH2 0x419D JUMP JUMPDEST PUSH1 0x0 PUSH1 0x20 DUP3 DUP5 SUB SLT ISZERO PUSH2 0x4691 JUMPI PUSH2 0x4691 PUSH1 0x0 DUP1 REVERT JUMPDEST PUSH1 0x0 PUSH2 0x2461 DUP5 DUP5 PUSH2 0x418C JUMP JUMPDEST PUSH1 0x20 DUP2 ADD PUSH2 0x68F DUP3 DUP5 PUSH2 0x41E5 JUMP JUMPDEST PUSH1 0x0 DUP1 PUSH1 0x0 PUSH1 0x60 DUP5 DUP7 SUB SLT ISZERO PUSH2 0x46C3 JUMPI PUSH2 0x46C3 PUSH1 0x0 DUP1 REVERT JUMPDEST PUSH1 0x0 PUSH2 0x46CF DUP7 DUP7 PUSH2 0x418C JUMP JUMPDEST SWAP4 POP POP PUSH1 0x20 PUSH2 0x46E0 DUP7 DUP3 DUP8 ADD PUSH2 0x418C JUMP JUMPDEST SWAP3 POP POP PUSH1 0x40 PUSH2 0x46F1 DUP7 DUP3 DUP8 ADD PUSH2 0x419D JUMP JUMPDEST SWAP2 POP POP SWAP3 POP SWAP3 POP SWAP3 JUMP JUMPDEST PUSH2 0x120 DUP2 ADD PUSH2 0x470A DUP3 DUP13 PUSH2 0x41E5 JUMP JUMPDEST PUSH2 0x4717 PUSH1 0x20 DUP4 ADD DUP12 PUSH2 0x41E5 JUMP JUMPDEST PUSH2 0x4724 PUSH1 0x40 DUP4 ADD DUP11 PUSH2 0x41F4 JUMP JUMPDEST PUSH2 0x4731 PUSH1 0x60 DUP4 ADD DUP10 PUSH2 0x41FC JUMP JUMPDEST PUSH2 0x473E PUSH1 0x80 DUP4 ADD DUP9 PUSH2 0x41FC JUMP JUMPDEST PUSH2 0x474B PUSH1 0xA0 DUP4 ADD DUP8 PUSH2 0x41FC JUMP JUMPDEST PUSH2 0x4758 PUSH1 0xC0 DUP4 ADD DUP7 PUSH2 0x41FC JUMP JUMPDEST PUSH2 0x4765 PUSH1 0xE0 DUP4 ADD DUP6 PUSH2 0x41FC JUMP JUMPDEST PUSH2 0x4773 PUSH2 0x100 DUP4 ADD DUP5 PUSH2 0x41FC JUMP JUMPDEST SWAP11 SWAP10 POP POP POP POP POP POP POP POP POP POP JUMP JUMPDEST PUSH4 0x4E487B71 PUSH1 0xE0 SHL PUSH1 0x0 MSTORE PUSH1 0x32 PUSH1 0x4 MSTORE PUSH1 0x24 PUSH1 0x0 REVERT JUMPDEST PUSH4 0x4E487B71 PUSH1 0xE0 SHL PUSH1 0x0 MSTORE PUSH1 0x11 PUSH1 0x4 MSTORE PUSH1 0x24 PUSH1 0x0 REVERT JUMPDEST DUP2 DUP2 SUB DUP2 DUP2 GT ISZERO PUSH2 0x68F JUMPI PUSH2 0x68F PUSH2 0x4797 JUMP JUMPDEST PUSH1 0x0 PUSH1 0x0 NOT DUP3 SUB PUSH2 0x47D3 JUMPI PUSH2 0x47D3 PUSH2 0x4797 JUMP JUMPDEST POP PUSH1 0x1 ADD SWAP1 JUMP JUMPDEST PUSH1 0x0 DUP2 JUMPDEST SWAP2 POP DUP2 PUSH2 0x47ED JUMPI PUSH2 0x47ED PUSH2 0x4797 JUMP JUMPDEST POP PUSH1 0x0 NOT ADD SWAP1 JUMP JUMPDEST DUP1 DUP3 ADD DUP1 DUP3 GT ISZERO PUSH2 0x68F JUMPI PUSH2 0x68F PUSH2 0x4797 JUMP JUMPDEST DUP1 MLOAD PUSH2 0x68F DUP2 PUSH2 0x4197 JUMP JUMPDEST PUSH1 0x0 PUSH1 0x20 DUP3 DUP5 SUB SLT ISZERO PUSH2 0x4828 JUMPI PUSH2 0x4828 PUSH1 0x0 DUP1 REVERT JUMPDEST PUSH1 0x0 PUSH2 0x2461 DUP5 DUP5 PUSH2 0x4808 JUMP JUMPDEST PUSH4 0x4E487B71 PUSH1 0xE0 SHL PUSH1 0x0 MSTORE PUSH1 0x22 PUSH1 0x4 MSTORE PUSH1 0x24 PUSH1 0x0 REVERT JUMPDEST PUSH1 0x2 DUP2 DIV PUSH1 0x1 DUP3 AND DUP1 PUSH2 0x485E JUMPI PUSH1 0x7F DUP3 AND SWAP2 POP JUMPDEST PUSH1 0x20 DUP3 LT DUP2 SUB PUSH2 0x4870 JUMPI PUSH2 0x4870 PUSH2 0x4834 JUMP JUMPDEST POP SWAP2 SWAP1 POP JUMP JUMPDEST PUSH1 0x40 DUP2 ADD PUSH2 0x4884 DUP3 DUP6 PUSH2 0x41E5 JUMP JUMPDEST PUSH2 0x842 PUSH1 0x20 DUP4 ADD DUP5 PUSH2 0x41E5 JUMP JUMPDEST PUSH1 0x0 PUSH2 0x68F PUSH1 0x1 PUSH1 0x1 PUSH1 0xA0 SHL SUB DUP4 AND PUSH2 0x48A8 JUMP JUMPDEST SWAP1 JUMP JUMPDEST PUSH1 0x1 PUSH1 0x1 PUSH1 0xA0 SHL SUB AND SWAP1 JUMP JUMPDEST PUSH1 0x0 PUSH2 0x68F DUP3 PUSH2 0x4891 JUMP JUMPDEST PUSH1 0x0 PUSH2 0x68F DUP3 PUSH2 0x48B4 JUMP JUMPDEST PUSH2 0x41EE DUP2 PUSH2 0x48BF JUMP JUMPDEST PUSH1 0x60 DUP2 ADD PUSH2 0x48E1 DUP3 DUP7 PUSH2 0x41FC JUMP JUMPDEST PUSH2 0x48EE PUSH1 0x20 DUP4 ADD DUP6 PUSH2 0x41F4 JUMP JUMPDEST PUSH2 0x2461 PUSH1 0x40 DUP4 ADD DUP5 PUSH2 0x48CA JUMP JUMPDEST PUSH1 0xE0 DUP2 ADD PUSH2 0x4909 DUP3 DUP11 PUSH2 0x41FC JUMP JUMPDEST PUSH2 0x4916 PUSH1 0x20 DUP4 ADD DUP10 PUSH2 0x41F4 JUMP JUMPDEST PUSH2 0x4923 PUSH1 0x40 DUP4 ADD DUP9 PUSH2 0x48CA JUMP JUMPDEST PUSH2 0x4930 PUSH1 0x60 DUP4 ADD DUP8 PUSH2 0x41E5 JUMP JUMPDEST PUSH2 0x493D PUSH1 0x80 DUP4 ADD DUP7 PUSH2 0x41E5 JUMP JUMPDEST PUSH2 0x494A PUSH1 0xA0 DUP4 ADD DUP6 PUSH2 0x41FC JUMP JUMPDEST PUSH2 0x4957 PUSH1 0xC0 DUP4 ADD DUP5 PUSH2 0x41F4 JUMP JUMPDEST SWAP9 SWAP8 POP POP POP POP POP POP POP POP JUMP JUMPDEST PUSH1 0x0 PUSH2 0x4971 PUSH2 0x4556 DUP5 PUSH2 0x4511 JUMP JUMPDEST SWAP1 POP DUP3 DUP2 MSTORE PUSH1 0x20 DUP2 ADD DUP5 DUP5 DUP5 ADD GT ISZERO PUSH2 0x498C JUMPI PUSH2 0x498C PUSH1 0x0 DUP1 REVERT JUMPDEST PUSH2 0x4458 DUP5 DUP3 DUP6 PUSH2 0x42EC JUMP JUMPDEST PUSH1 0x0 DUP3 PUSH1 0x1F DUP4 ADD SLT PUSH2 0x49AB JUMPI PUSH2 0x49AB PUSH1 0x0 DUP1 REVERT JUMPDEST DUP2 MLOAD PUSH2 0x2461 DUP5 DUP3 PUSH1 0x20 DUP7 ADD PUSH2 0x4963 JUMP JUMPDEST PUSH1 0x0 PUSH1 0x20 DUP3 DUP5 SUB SLT ISZERO PUSH2 0x49D0 JUMPI PUSH2 0x49D0 PUSH1 0x0 DUP1 REVERT JUMPDEST DUP2 MLOAD PUSH8 0xFFFFFFFFFFFFFFFF DUP2 GT ISZERO PUSH2 0x49EA JUMPI PUSH2 0x49EA PUSH1 0x0 DUP1 REVERT JUMPDEST PUSH2 0x2461 DUP5 DUP3 DUP6 ADD PUSH2 0x4997 JUMP JUMPDEST PUSH1 0xA0 DUP2 ADD PUSH2 0x4A04 DUP3 DUP9 PUSH2 0x41FC JUMP JUMPDEST PUSH2 0x4A11 PUSH1 0x20 DUP4 ADD DUP8 PUSH2 0x41F4 JUMP JUMPDEST PUSH2 0x4A1E PUSH1 0x40 DUP4 ADD DUP7 PUSH2 0x41E5 JUMP JUMPDEST PUSH2 0x4A2B PUSH1 0x60 DUP4 ADD DUP6 PUSH2 0x41FC JUMP JUMPDEST PUSH2 0x4A38 PUSH1 0x80 DUP4 ADD DUP5 PUSH2 0x41FC JUMP JUMPDEST SWAP7 SWAP6 POP POP POP POP POP POP JUMP JUMPDEST PUSH1 0x80 DUP2 ADD PUSH2 0x4A50 DUP3 DUP8 PUSH2 0x41FC JUMP JUMPDEST PUSH2 0x4A5D PUSH1 0x20 DUP4 ADD DUP7 PUSH2 0x41F4 JUMP JUMPDEST PUSH2 0x4A6A PUSH1 0x40 DUP4 ADD DUP6 PUSH2 0x48CA JUMP JUMPDEST PUSH2 0x4A77 PUSH1 0x60 DUP4 ADD DUP5 PUSH2 0x41F4 JUMP JUMPDEST SWAP6 SWAP5 POP POP POP POP POP JUMP JUMPDEST PUSH1 0x60 DUP2 ADD PUSH2 0x4A8E DUP3 DUP7 PUSH2 0x41E5 JUMP JUMPDEST PUSH2 0x4A9B PUSH1 0x20 DUP4 ADD DUP6 PUSH2 0x41E5 JUMP JUMPDEST PUSH2 0x2461 PUSH1 0x40 DUP4 ADD DUP5 PUSH2 0x41FC JUMP JUMPDEST DUP1 MLOAD PUSH2 0x68F DUP2 PUSH2 0x4471 JUMP JUMPDEST PUSH1 0x0 PUSH1 0x20 DUP3 DUP5 SUB SLT ISZERO PUSH2 0x4AC8 JUMPI PUSH2 0x4AC8 PUSH1 0x0 DUP1 REVERT JUMPDEST PUSH1 0x0 PUSH2 0x2461 DUP5 DUP5 PUSH2 0x4AA8 JUMP JUMPDEST DUP2 DUP2 MUL DUP1 DUP3 ISZERO DUP4 DUP3 DIV DUP6 EQ OR PUSH2 0x3064 JUMPI PUSH2 0x3064 PUSH2 0x4797 JUMP JUMPDEST PUSH4 0x4E487B71 PUSH1 0xE0 SHL PUSH1 0x0 MSTORE PUSH1 0x12 PUSH1 0x4 MSTORE PUSH1 0x24 PUSH1 0x0 REVERT JUMPDEST PUSH1 0x0 DUP3 PUSH2 0x4B11 JUMPI PUSH2 0x4B11 PUSH2 0x4AEC JUMP JUMPDEST POP DIV SWAP1 JUMP JUMPDEST PUSH1 0xFF DUP2 AND PUSH2 0x417E JUMP JUMPDEST DUP1 MLOAD PUSH2 0x68F DUP2 PUSH2 0x4B16 JUMP JUMPDEST PUSH1 0x0 PUSH1 0x20 DUP3 DUP5 SUB SLT ISZERO PUSH2 0x4B3F JUMPI PUSH2 0x4B3F PUSH1 0x0 DUP1 REVERT JUMPDEST PUSH1 0x0 PUSH2 0x2461 DUP5 DUP5 PUSH2 0x4B1F JUMP JUMPDEST PUSH1 0x0 PUSH2 0x68F PUSH2 0x48A5 DUP4 DUP2 JUMP JUMPDEST PUSH2 0x4B60 DUP4 PUSH2 0x4B4B JUMP JUMPDEST DUP2 SLOAD PUSH1 0x0 NOT PUSH1 0x8 SWAP5 SWAP1 SWAP5 MUL SWAP4 DUP5 SHL NOT AND SWAP3 SHL SWAP2 SWAP1 SWAP2 OR SWAP1 SSTORE POP JUMP JUMPDEST PUSH1 0x0 PUSH2 0xFA4 DUP2 DUP5 DUP5 PUSH2 0x4B57 JUMP JUMPDEST DUP2 DUP2 LT ISZERO PUSH2 0x6B1 JUMPI PUSH2 0x4B9B PUSH1 0x0 DUP3 PUSH2 0x4B7B JUMP JUMPDEST PUSH1 0x1 ADD PUSH2 0x4B88 JUMP JUMPDEST PUSH1 0x1F DUP3 GT ISZERO PUSH2 0xFA4 JUMPI PUSH1 0x0 DUP2 DUP2 MSTORE PUSH1 0x20 SWAP1 KECCAK256 PUSH1 0x20 PUSH1 0x1F DUP6 ADD DIV DUP2 ADD PUSH1 0x20 DUP6 LT ISZERO PUSH2 0x4BCA JUMPI POP DUP1 JUMPDEST PUSH2 0xA73 PUSH1 0x20 PUSH1 0x1F DUP7 ADD DIV DUP4 ADD DUP3 PUSH2 0x4B88 JUMP JUMPDEST DUP2 MLOAD PUSH8 0xFFFFFFFFFFFFFFFF DUP2 GT ISZERO PUSH2 0x4BF6 JUMPI PUSH2 0x4BF6 PUSH2 0x44B7 JUMP JUMPDEST PUSH2 0x4C00 DUP3 SLOAD PUSH2 0x484A JUMP JUMPDEST PUSH2 0x4C0B DUP3 DUP3 DUP6 PUSH2 0x4BA3 JUMP JUMPDEST PUSH1 0x20 PUSH1 0x1F DUP4 GT PUSH1 0x1 DUP2 EQ PUSH2 0x4C3F JUMPI PUSH1 0x0 DUP5 ISZERO PUSH2 0x4C27 JUMPI POP DUP6 DUP3 ADD MLOAD JUMPDEST PUSH1 0x0 NOT PUSH1 0x8 DUP7 MUL SHR NOT DUP2 AND PUSH1 0x2 DUP7 MUL OR DUP7 SSTORE POP PUSH2 0x1532 JUMP JUMPDEST PUSH1 0x0 DUP6 DUP2 MSTORE PUSH1 0x20 DUP2 KECCAK256 PUSH1 0x1F NOT DUP7 AND SWAP2 JUMPDEST DUP3 DUP2 LT ISZERO PUSH2 0x4C6F JUMPI DUP9 DUP6 ADD MLOAD DUP3 SSTORE PUSH1 0x20 SWAP5 DUP6 ADD SWAP5 PUSH1 0x1 SWAP1 SWAP3 ADD SWAP2 ADD PUSH2 0x4C4F JUMP JUMPDEST DUP7 DUP4 LT ISZERO PUSH2 0x4C8B JUMPI DUP5 DUP10 ADD MLOAD PUSH1 0x0 NOT PUSH1 0x1F DUP10 AND PUSH1 0x8 MUL SHR NOT AND DUP3 SSTORE JUMPDEST PUSH1 0x1 PUSH1 0x2 DUP9 MUL ADD DUP9 SSTORE POP POP POP POP POP POP POP POP POP JUMP JUMPDEST PUSH1 0x0 PUSH2 0x4CA9 DUP3 MLOAD SWAP1 JUMP JUMPDEST PUSH2 0x4CB7 DUP2 DUP6 PUSH1 0x20 DUP7 ADD PUSH2 0x42EC JUMP JUMPDEST SWAP3 SWAP1 SWAP3 ADD SWAP3 SWAP2 POP POP JUMP JUMPDEST PUSH1 0x0 PUSH2 0x842 DUP3 DUP5 PUSH2 0x4C9F JUMP JUMPDEST PUSH1 0x60 DUP2 ADD PUSH2 0x4A8E DUP3 DUP7 PUSH2 0x437D JUMP JUMPDEST PUSH1 0x40 DUP2 ADD PUSH2 0x4CE9 DUP3 DUP6 PUSH2 0x41FC JUMP JUMPDEST PUSH2 0x842 PUSH1 0x20 DUP4 ADD DUP5 PUSH2 0x48CA JUMP JUMPDEST PUSH1 0x40 DUP2 ADD PUSH2 0x4D04 DUP3 DUP6 PUSH2 0x41E5 JUMP JUMPDEST PUSH2 0x842 PUSH1 0x20 DUP4 ADD DUP5 PUSH2 0x41FC JUMP JUMPDEST PUSH1 0x60 DUP2 ADD PUSH2 0x4D1F DUP3 DUP7 PUSH2 0x41FC JUMP JUMPDEST PUSH2 0x4D2C PUSH1 0x20 DUP4 ADD DUP6 PUSH2 0x41E5 JUMP JUMPDEST PUSH2 0x2461 PUSH1 0x40 DUP4 ADD DUP5 PUSH2 0x41E5 JUMP JUMPDEST PUSH1 0x0 PUSH1 0xFF DUP3 AND PUSH2 0x47DE JUMP JUMPDEST DUP1 DUP3 JUMPDEST PUSH1 0x1 DUP6 GT ISZERO PUSH2 0x4D83 JUMPI DUP1 DUP7 DIV DUP2 GT ISZERO PUSH2 0x4D62 JUMPI PUSH2 0x4D62 PUSH2 0x4797 JUMP JUMPDEST PUSH1 0x1 DUP6 AND ISZERO PUSH2 0x4D70 JUMPI SWAP1 DUP2 MUL SWAP1 JUMPDEST DUP1 MUL PUSH2 0x4D7C DUP6 PUSH1 0x1 SHR SWAP1 JUMP JUMPDEST SWAP5 POP PUSH2 0x4D47 JUMP JUMPDEST SWAP5 POP SWAP5 SWAP3 POP POP POP JUMP JUMPDEST PUSH1 0x0 DUP3 PUSH2 0x4D9B JUMPI POP PUSH1 0x1 PUSH2 0x842 JUMP JUMPDEST DUP2 PUSH2 0x4DA8 JUMPI POP PUSH1 0x0 PUSH2 0x842 JUMP JUMPDEST DUP2 PUSH1 0x1 DUP2 EQ PUSH2 0x4DBE JUMPI PUSH1 0x2 DUP2 EQ PUSH2 0x4DC8 JUMPI PUSH2 0x4DF5 JUMP JUMPDEST PUSH1 0x1 SWAP2 POP POP PUSH2 0x842 JUMP JUMPDEST PUSH1 0xFF DUP5 GT ISZERO PUSH2 0x4DD9 JUMPI PUSH2 0x4DD9 PUSH2 0x4797 JUMP JUMPDEST DUP4 PUSH1 0x2 EXP SWAP2 POP DUP5 DUP3 GT ISZERO PUSH2 0x4DEF JUMPI PUSH2 0x4DEF PUSH2 0x4797 JUMP JUMPDEST POP PUSH2 0x842 JUMP JUMPDEST POP PUSH1 0x20 DUP4 LT PUSH2 0x133 DUP4 LT AND PUSH1 0x4E DUP5 LT PUSH1 0xB DUP5 LT AND OR ISZERO PUSH2 0x4E23 JUMPI POP DUP2 DUP2 EXP DUP4 DUP2 GT ISZERO PUSH2 0x3967 JUMPI PUSH2 0x3967 PUSH2 0x4797 JUMP JUMPDEST PUSH2 0x4E30 DUP5 DUP5 DUP5 PUSH1 0x1 PUSH2 0x4D44 JUMP JUMPDEST SWAP3 POP SWAP1 POP DUP2 DUP5 DIV DUP2 GT ISZERO PUSH2 0x4E46 JUMPI PUSH2 0x4E46 PUSH2 0x4797 JUMP JUMPDEST MUL SWAP3 SWAP2 POP POP JUMP JUMPDEST PUSH1 0x0 PUSH1 0xFF DUP4 AND SWAP3 POP PUSH2 0x842 PUSH1 0x0 NOT DUP5 DUP5 PUSH2 0x4D8C JUMP JUMPDEST PUSH1 0xFF SWAP2 DUP3 AND SWAP2 SWAP1 DUP2 AND SWAP1 DUP3 DUP3 SUB SWAP1 DUP2 GT ISZERO PUSH2 0x68F JUMPI PUSH2 0x68F PUSH2 0x4797 JUMP JUMPDEST PUSH4 0x4E487B71 PUSH1 0xE0 SHL PUSH1 0x0 MSTORE PUSH1 0x31 PUSH1 0x4 MSTORE PUSH1 0x24 PUSH1 0x0 REVERT JUMPDEST PUSH1 0x60 DUP2 ADD PUSH2 0x4EA3 DUP3 DUP7 PUSH2 0x41FC JUMP JUMPDEST PUSH2 0x4A9B PUSH1 0x20 DUP4 ADD DUP6 PUSH2 0x41FC JUMP JUMPDEST PUSH1 0x40 DUP2 ADD PUSH2 0x4D04 DUP3 DUP6 PUSH2 0x41FC JUMP INVALID LOG2 PUSH5 0x6970667358 0x22 SLT KECCAK256 SELFBALANCE PUSH3 0x124012 0xD3 0xE4 EXTCODECOPY PUSH9 0x37DDF1551D1C9A1B56 0x5D 0x1E PUSH3 0xE3673F EXTCODECOPY 0x2F PUSH26 0xF07822447464736F6C6343000816003300000000000000000000 "},"methodIdentifiers":{"assignPriceDAO(address)":"86f179d2","clearOrders()":"9351769f","clearTokenOrders(address)":"6aafbddd","createBuyOrder(address)":"d2980065","createSellOrder(address,uint256)":"a262b73f","deposit(address)":"f340fa01","depositToken(address,uint256)":"338b5dea","depositTokenFrom(address,address,uint256)":"a08b5bba","getBalance()":"12065fe0","listParityToken(address,address,uint256,uint256)":"5264c8d9","listToken(address,uint256,uint256,string)":"4d9ea07d","listingCost()":"a5b6f92a","orders(uint256)":"a85c38ef","owner()":"8da5cb5b","queryBalance(address,bool)":"3b174f0f","settleOrders(address,bool)":"c201e47c","takeBuyOrder(address,uint256)":"db34a679","takeSellOrder(address)":"6daf6945","transferOwnership(address)":"f2fde38b","updateTokenBalance(address)":"87b337e8","viewOrder(uint256)":"7c38d663","viewOrderByMaker(address,uint256)":"076d782e","viewOrderByToken(address,uint256)":"3ef73856","viewPrice()":"d7dcdcec","viewToken(address)":"673cf82a","viewTokenByIndex(uint256)":"1f5d2641"}}}}}