{"contracts/DexhunePriceDAO.sol":{"DexhunePriceDAO":{"abi":[{"inputs":[],"stateMutability":"nonpayable","type":"constructor"},{"inputs":[],"name":"AlreadyVoted","type":"error"},{"inputs":[],"name":"NoActiveProposal","type":"error"},{"inputs":[],"name":"NotEligible","type":"error"},{"inputs":[],"name":"ProposalAlreadyFinalized","type":"error"},{"inputs":[],"name":"ProposalHasExpired","type":"error"},{"inputs":[],"name":"ProposalIsStillActive","type":"error"},{"inputs":[{"internalType":"address","name":"account","type":"address"}],"name":"UnauthorizedAccount","type":"error"},{"anonymous":false,"inputs":[{"indexed":false,"internalType":"address","name":"addr","type":"address"}],"name":"AssignedNFTCollection","type":"event"},{"anonymous":false,"inputs":[{"indexed":false,"internalType":"address","name":"addr","type":"address"}],"name":"AssignedToken","type":"event"},{"anonymous":false,"inputs":[{"indexed":false,"internalType":"string","name":"price","type":"string"},{"indexed":false,"internalType":"string","name":"description","type":"string"},{"indexed":false,"internalType":"address","name":"proposer","type":"address"}],"name":"ProposalCreated","type":"event"},{"anonymous":false,"inputs":[{"indexed":false,"internalType":"uint16","name":"_for","type":"uint16"},{"indexed":false,"internalType":"uint16","name":"_against","type":"uint16"}],"name":"ProposalDenied","type":"event"},{"anonymous":false,"inputs":[{"indexed":false,"internalType":"uint16","name":"_for","type":"uint16"},{"indexed":false,"internalType":"uint16","name":"_against","type":"uint16"},{"indexed":false,"internalType":"string","name":"newPrice","type":"string"}],"name":"ProposalPassed","type":"event"},{"anonymous":false,"inputs":[{"indexed":false,"internalType":"address","name":"addr","type":"address"},{"indexed":false,"internalType":"uint256","name":"amount","type":"uint256"}],"name":"RewardedProposer","type":"event"},{"anonymous":false,"inputs":[{"indexed":false,"internalType":"address","name":"oldOwner","type":"address"},{"indexed":false,"internalType":"address","name":"newOwner","type":"address"}],"name":"TransferredOwnership","type":"event"},{"anonymous":false,"inputs":[{"indexed":false,"internalType":"address","name":"voter","type":"address"},{"indexed":false,"internalType":"uint16","name":"votes","type":"uint16"}],"name":"VotedDown","type":"event"},{"anonymous":false,"inputs":[{"indexed":false,"internalType":"address","name":"voter","type":"address"},{"indexed":false,"internalType":"uint16","name":"votes","type":"uint16"}],"name":"VotedUp","type":"event"},{"inputs":[{"internalType":"address","name":"addr","type":"address"}],"name":"assignNFTCollection","outputs":[],"stateMutability":"nonpayable","type":"function"},{"inputs":[{"internalType":"address","name":"addr","type":"address"}],"name":"assignTokenAddress","outputs":[],"stateMutability":"nonpayable","type":"function"},{"inputs":[],"name":"finalizeProposal","outputs":[],"stateMutability":"nonpayable","type":"function"},{"inputs":[],"name":"getPrice","outputs":[{"internalType":"string","name":"","type":"string"}],"stateMutability":"view","type":"function"},{"inputs":[],"name":"latestProposal","outputs":[{"components":[{"internalType":"address","name":"proposerAddr","type":"address"},{"internalType":"string","name":"value","type":"string"},{"internalType":"string","name":"description","type":"string"},{"internalType":"bool","name":"finalized","type":"bool"}],"internalType":"struct DexhunePriceDAOBase.PriceProposal","name":"","type":"tuple"}],"stateMutability":"view","type":"function"},{"inputs":[],"name":"nftAddress","outputs":[{"internalType":"address","name":"","type":"address"}],"stateMutability":"view","type":"function"},{"inputs":[],"name":"owner","outputs":[{"internalType":"address","name":"","type":"address"}],"stateMutability":"view","type":"function"},{"inputs":[],"name":"proposalEndsAfter","outputs":[{"internalType":"uint256","name":"","type":"uint256"}],"stateMutability":"view","type":"function"},{"inputs":[{"internalType":"string","name":"price","type":"string"},{"internalType":"string","name":"description","type":"string"}],"name":"proposePrice","outputs":[],"stateMutability":"nonpayable","type":"function"},{"inputs":[],"name":"tokenAddress","outputs":[{"internalType":"address","name":"","type":"address"}],"stateMutability":"view","type":"function"},{"inputs":[{"internalType":"address","name":"_address","type":"address"}],"name":"transferOwnership","outputs":[],"stateMutability":"nonpayable","type":"function"},{"inputs":[],"name":"voteDown","outputs":[],"stateMutability":"nonpayable","type":"function"},{"inputs":[],"name":"voteUp","outputs":[],"stateMutability":"nonpayable","type":"function"},{"inputs":[],"name":"votingEndsAfter","outputs":[{"internalType":"uint256","name":"","type":"uint256"}],"stateMutability":"view","type":"function"}],"evm":{"bytecode":{"linkReferences":{},"object":"60806040523480156200001157600080fd5b5060008054336001600160a01b0319918216811790925560408051608081018252928352805180820182526004808252631395531360e21b60208084018290528087019384528451808601865292835282015291840191909152600160608401528251600880549093166001600160a01b0390911617825551600990620000999082620001e6565b5060408201516002820190620000b09082620001e6565b50606091909101516003909101805460ff1916911515919091179055620002b6565b634e487b7160e01b600052604160045260246000fd5b634e487b7160e01b600052602260045260246000fd5b6002810460018216806200011357607f821691505b602082108103620001285762000128620000e8565b50919050565b60006200013f6200013c8381565b90565b92915050565b62000150836200012e565b815460001960089490940293841b1916921b91909117905550565b60006200017a81848462000145565b505050565b818110156200019e57620001956000826200016b565b6001016200017f565b5050565b601f8211156200017a576000818152602090206020601f85010481016020851015620001cb5750805b620001df6020601f8601048301826200017f565b5050505050565b81516001600160401b03811115620002025762000202620000d2565b6200020e8254620000fe565b6200021b828285620001a2565b6020601f831160018114620002525760008415620002395750858201515b600019600886021c1981166002860217865550620002ae565b600085815260208120601f198616915b8281101562000284578885015182556020948501946001909201910162000262565b86831015620002a15784890151600019601f89166008021c191682555b6001600288020188555050505b505050505050565b61166880620002c66000396000f3fe608060405234801561001057600080fd5b50600436106100ea5760003560e01c8063b525ef0d1161008c578063c4dc155611610066578063c4dc1556146101b3578063c70d33e3146101bb578063f2fde38b146101d0578063f863b454146101e357600080fd5b8063b525ef0d14610183578063b96762ae1461018b578063c2b798361461019e57600080fd5b80638da5cb5b116100c85780638da5cb5b1461014057806398d5fdca146101535780639d76ea5814610168578063b07672ae1461017b57600080fd5b806302de9f2e146100ef5780633d75da94146101045780635bf8633a14610117575b600080fd5b6101026100fd366004610f65565b6101eb565b005b610102610112366004611007565b61031d565b60035461012a906001600160a01b031681565b6040516101379190611037565b60405180910390f35b60005461012a906001600160a01b031681565b61015b6103f5565b604051610137919061109b565b60045461012a906001600160a01b031681565b610102610487565b610102610525565b610102610199366004611007565b6105df565b6101a66106b7565b6040516101379190611116565b610102610844565b6101c3610a6f565b604051610137919061112d565b6101026101de366004611007565b610a9b565b6101c3610af5565b60006101f5610b1b565b1161021357604051637c75aa6f60e11b815260040160405180910390fd5b600b5460ff16610240574260065411156102405760405163a9174b1760e01b815260040160405180910390fd5b61024c61025842611151565b60065561025b61012c42611151565b60075561026a600c6000610e2c565b60408051608081018252338082526020820185905291810183905260006060820152600880546001600160a01b03191690921782559060096102ac858261123e565b50604082015160028201906102c1908261123e565b50606091909101516003909101805460ff19169115159190911790556040517f7ee0a17a4563c16d1072d423dc4448c5d14ac076b5982abc0762421172beea619061031190849084903390611306565b60405180910390a15050565b610325610b92565b6040516370a0823160e01b815281906001600160a01b038216906370a0823190610353903090600401611037565b602060405180830381865afa158015610370573d6000803e3d6000fd5b505050506040513d601f19601f82011682018060405250810190610394919061134b565b50600180546001600160a01b038084166001600160a01b03199283161790925560048054928516929091169190911790556040517f26317221e726b9c268b3046da713d2019ae4bc96acad9c2e1c534da90fc5e9d490610311908490611037565b6060600580546104049061117a565b80601f01602080910402602001604051908101604052809291908181526020018280546104309061117a565b801561047d5780601f106104525761010080835404028352916020019161047d565b820191906000526020600020905b81548152906001019060200180831161046057829003601f168201915b5050505050905090565b6000610491610be3565b600c8054600181019091557fdf6966c971051c3d54ec59162606531493a51404a002842f56009d7e5cf4a8c7018054336001600160a01b031990911681179091556000818152600d602052604090819020805461ffff191661ffff851617905551919250907f33fabba9378c138b4fd0872656523539fe2ca7f3ca14a28c15be6922c925dd87906103119083908590611376565b600061052f610be3565b600c80546001810182556000919091527fdf6966c971051c3d54ec59162606531493a51404a002842f56009d7e5cf4a8c70180546001600160a01b0319163390811790915590915061058082611391565b6001600160a01b0382166000908152600d602052604090819020805461ffff191661ffff9390931692909217909155517faab3f0444f9ebdc2f3123616cd1ef4cd06e39f5d865030bc51aa785362965c7c906103119083908590611376565b6105e7610b92565b6040516370a0823160e01b815281906001600160a01b038216906370a0823190610615903090600401611037565b602060405180830381865afa158015610632573d6000803e3d6000fd5b505050506040513d601f19601f82011682018060405250810190610656919061134b565b50600280546001600160a01b038084166001600160a01b03199283161790925560038054928516929091169190911790556040517f708e1e0cc2637dd479a4cb4ab8dc07655e145e2b159249aca7146ab62b67d00590610311908490611037565b6106ed604051806080016040528060006001600160a01b0316815260200160608152602001606081526020016000151581525090565b6040805160808101909152600880546001600160a01b031682526009805460208401919061071a9061117a565b80601f01602080910402602001604051908101604052809291908181526020018280546107469061117a565b80156107935780601f1061076857610100808354040283529160200191610793565b820191906000526020600020905b81548152906001019060200180831161077657829003601f168201915b505050505081526020016002820180546107ac9061117a565b80601f01602080910402602001604051908101604052809291908181526020018280546107d89061117a565b80156108255780601f106107fa57610100808354040283529160200191610825565b820191906000526020600020905b81548152906001019060200180831161080857829003601f168201915b50505091835250506003919091015460ff161515602090910152919050565b4260075411156108675760405163a9174b1760e01b815260040160405180910390fd5b60065442106108a2576040517fc1f1c4df00000000000000000000000000000000000000000000000000000000815260040160405180910390fd5b600b5460ff16156108df576040517f9c93eb2d00000000000000000000000000000000000000000000000000000000815260040160405180910390fd5b600c5460009081908190819081905b80156109b057600c6109016001836113b8565b81548110610911576109116113cb565b60009182526020808320909101546001600160a01b0316808352600d90915260409091205460010b9450915061094682610ca2565b92508261ffff1661095685610d14565b61ffff160361099e5760008460010b131561097c5761097584876113e1565b955061099e565b60008460010b121561099e5761099184611391565b61099b90866113e1565b94505b806109a8816113ff565b9150506108ee565b50600b805460ff1916600117905561ffff8085169086161115610a2e576109df6109da85876113e1565b610d33565b60056109ec600982611421565b507fc965d144fc58d48e5f9a6aa80cd6057c77af099482c91f56a9c36920ed60c27885856005604051610a2193929190611565565b60405180910390a1610a68565b7faeedba74278bf0d29c304a846608f0c3e654216bb74466df6969108e1ac2b1c88585604051610a5f92919061159b565b60405180910390a15b5050505050565b600080429050806006541015610a8757600091505090565b80600654610a9591906113b8565b91505090565b610aa3610b92565b600080546001600160a01b038381166001600160a01b0319831681179093556040519116917f850b3df64837d7d518b45f5aa64d104652c3b80eb5b34a8e3d9eb666cb7cdea5916103119184916115a9565b600080429050806007541015610b0d57600091505090565b80600754610a9591906113b8565b6002546040516370a0823160e01b81526000916001600160a01b0316906370a0823190610b4c903390600401611037565b602060405180830381865afa158015610b69573d6000803e3d6000fd5b505050506040513d601f19601f82011682018060405250810190610b8d919061134b565b905090565b6000546001600160a01b03163314610be157336040517f32b2baa3000000000000000000000000000000000000000000000000000000008152600401610bd89190611037565b60405180910390fd5b565b60006007544210610c20576040517f3dc1d21400000000000000000000000000000000000000000000000000000000815260040160405180910390fd5b336000908152600d602052604090205460010b8015610c6b576040517f7c9a1cf900000000000000000000000000000000000000000000000000000000815260040160405180910390fd5b6000610c75610b1b565b905060008161ffff1611610c9c57604051637c75aa6f60e11b815260040160405180910390fd5b92915050565b6002546040516370a0823160e01b81526000916001600160a01b0316906370a0823190610cd3908590600401611037565b602060405180830381865afa158015610cf0573d6000803e3d6000fd5b505050506040513d601f19601f82011682018060405250810190610c9c919061134b565b6000808260010b1215610d2f57610d2a82611391565b610c9c565b5090565b6008546001600160a01b03166000610d50601461ffff85166115c4565b9050614e20811115610d615750614e205b6001546040517fa9059cbb0000000000000000000000000000000000000000000000000000000081526001600160a01b039091169063a9059cbb90610dac90859085906004016115e3565b6020604051808303816000875af1925050508015610de7575060408051601f3d908101601f19168201909252610de491810190611611565b60015b15610e2757507fca770103cdd14b19db75e20f62f734f176926315f9d140ddb5ba416422a6c08e8282604051610e1e9291906115e3565b60405180910390a15b505050565b5080546000825590600052602060002090810190610e4a9190610e4d565b50565b5b80821115610d2f5760008155600101610e4e565b634e487b7160e01b600052604160045260246000fd5b601f19601f830116810181811067ffffffffffffffff82111715610e9e57610e9e610e62565b6040525050565b6000610eb060405190565b9050610ebc8282610e78565b919050565b600067ffffffffffffffff821115610edb57610edb610e62565b601f19601f83011660200192915050565b82818337506000910152565b6000610f0b610f0684610ec1565b610ea5565b905082815260208101848484011115610f2657610f26600080fd5b610f31848285610eec565b509392505050565b600082601f830112610f4d57610f4d600080fd5b8135610f5d848260208601610ef8565b949350505050565b60008060408385031215610f7b57610f7b600080fd5b823567ffffffffffffffff811115610f9557610f95600080fd5b610fa185828601610f39565b925050602083013567ffffffffffffffff811115610fc157610fc1600080fd5b610fcd85828601610f39565b9150509250929050565b60006001600160a01b038216610c9c565b610ff181610fd7565b8114610e4a57600080fd5b8035610c9c81610fe8565b60006020828403121561101c5761101c600080fd5b6000610f5d8484610ffc565b61103181610fd7565b82525050565b60208101610c9c8284611028565b60005b83811015611060578181015183820152602001611048565b50506000910152565b6000611073825190565b80845260208401935061108a818560208601611045565b601f01601f19169290920192915050565b602080825281016110ac8184611069565b9392505050565b801515611031565b805160009060808401906110cf8582611028565b50602083015184820360208601526110e78282611069565b915050604083015184820360408601526111018282611069565b9150506060830151610f3160608601826110b3565b602080825281016110ac81846110bb565b80611031565b60208101610c9c8284611127565b634e487b7160e01b600052601160045260246000fd5b80820180821115610c9c57610c9c61113b565b634e487b7160e01b600052602260045260246000fd5b60028104600182168061118e57607f821691505b6020821081036111a0576111a0611164565b50919050565b6000610c9c6111b28381565b90565b6111be836111a6565b815460001960089490940293841b1916921b91909117905550565b6000610e278184846111b5565b81811015611201576111f96000826111d9565b6001016111e6565b5050565b601f821115610e27576000818152602090206020601f8501048101602085101561122c5750805b610a686020601f8601048301826111e6565b815167ffffffffffffffff81111561125857611258610e62565b611262825461117a565b61126d828285611205565b6020601f8311600181146112a257600084156112895750858201515b600019600886021c19811660028602175b8655506112fe565b600085815260208120601f198616915b828110156112d257888501518255602094850194600190920191016112b2565b868310156112f157888501516000196008601f8a16021c1981165b8355505b6001600288020188555050505b505050505050565b606080825281016113178186611069565b9050818103602083015261132b8185611069565b9050610f5d6040830184611028565b80610ff1565b8051610c9c8161133a565b60006020828403121561136057611360600080fd5b6000610f5d8484611340565b61ffff8116611031565b604081016113848285611028565b6110ac602083018461136c565b600061139d8260010b90565b9150617fff1982036113b1576113b161113b565b5060000390565b81810381811115610c9c57610c9c61113b565b634e487b7160e01b600052603260045260246000fd5b61ffff918216919081169082820190811115610c9c57610c9c61113b565b60008161140e5761140e61113b565b506000190190565b8054610c9c8161117a565b81810361142c575050565b61143582611416565b67ffffffffffffffff81111561144d5761144d610e62565b611457825461117a565b611462828285611205565b6000601f8311600181146114925760008415611289575081860154600019600886021c198116600286021761129a565b600095865260208087208688529087209096601f19861691905b828110156114cc57888501548255600194850194909101906020016114ac565b868310156112f157888501546000196008601f8a16021c1981166112ed565b600081546114f88161117a565b808552602085019450600182168015611518576001811461152e5761155c565b60ff19831686526020821515028601935061155c565b60008581526020902060005b838110156115565781548882015260019091019060200161153a565b87019450505b50505092915050565b60608101611573828661136c565b611580602083018561136c565b818103604083015261159281846114eb565b95945050505050565b60408101611384828561136c565b604081016115b78285611028565b6110ac6020830184611028565b8181028082158382048514176115dc576115dc61113b565b5092915050565b604081016115f18285611028565b6110ac6020830184611127565b801515610ff1565b8051610c9c816115fe565b60006020828403121561162657611626600080fd5b6000610f5d848461160656fea2646970667358221220595b927439ea87d1092f420ba5b8bfece48bd0e75141ccf3fd7e76e7ecc456cb64736f6c63430008160033","opcodes":"PUSH1 0x80 PUSH1 0x40 MSTORE CALLVALUE DUP1 ISZERO PUSH3 0x11 JUMPI PUSH1 0x0 DUP1 REVERT JUMPDEST POP PUSH1 0x0 DUP1 SLOAD CALLER PUSH1 0x1 PUSH1 0x1 PUSH1 0xA0 SHL SUB NOT SWAP2 DUP3 AND DUP2 OR SWAP1 SWAP3 SSTORE PUSH1 0x40 DUP1 MLOAD PUSH1 0x80 DUP2 ADD DUP3 MSTORE SWAP3 DUP4 MSTORE DUP1 MLOAD DUP1 DUP3 ADD DUP3 MSTORE PUSH1 0x4 DUP1 DUP3 MSTORE PUSH4 0x13955313 PUSH1 0xE2 SHL PUSH1 0x20 DUP1 DUP5 ADD DUP3 SWAP1 MSTORE DUP1 DUP8 ADD SWAP4 DUP5 MSTORE DUP5 MLOAD DUP1 DUP7 ADD DUP7 MSTORE SWAP3 DUP4 MSTORE DUP3 ADD MSTORE SWAP2 DUP5 ADD SWAP2 SWAP1 SWAP2 MSTORE PUSH1 0x1 PUSH1 0x60 DUP5 ADD MSTORE DUP3 MLOAD PUSH1 0x8 DUP1 SLOAD SWAP1 SWAP4 AND PUSH1 0x1 PUSH1 0x1 PUSH1 0xA0 SHL SUB SWAP1 SWAP2 AND OR DUP3 SSTORE MLOAD PUSH1 0x9 SWAP1 PUSH3 0x99 SWAP1 DUP3 PUSH3 0x1E6 JUMP JUMPDEST POP PUSH1 0x40 DUP3 ADD MLOAD PUSH1 0x2 DUP3 ADD SWAP1 PUSH3 0xB0 SWAP1 DUP3 PUSH3 0x1E6 JUMP JUMPDEST POP PUSH1 0x60 SWAP2 SWAP1 SWAP2 ADD MLOAD PUSH1 0x3 SWAP1 SWAP2 ADD DUP1 SLOAD PUSH1 0xFF NOT AND SWAP2 ISZERO ISZERO SWAP2 SWAP1 SWAP2 OR SWAP1 SSTORE PUSH3 0x2B6 JUMP JUMPDEST PUSH4 0x4E487B71 PUSH1 0xE0 SHL PUSH1 0x0 MSTORE PUSH1 0x41 PUSH1 0x4 MSTORE PUSH1 0x24 PUSH1 0x0 REVERT JUMPDEST PUSH4 0x4E487B71 PUSH1 0xE0 SHL PUSH1 0x0 MSTORE PUSH1 0x22 PUSH1 0x4 MSTORE PUSH1 0x24 PUSH1 0x0 REVERT JUMPDEST PUSH1 0x2 DUP2 DIV PUSH1 0x1 DUP3 AND DUP1 PUSH3 0x113 JUMPI PUSH1 0x7F DUP3 AND SWAP2 POP JUMPDEST PUSH1 0x20 DUP3 LT DUP2 SUB PUSH3 0x128 JUMPI PUSH3 0x128 PUSH3 0xE8 JUMP JUMPDEST POP SWAP2 SWAP1 POP JUMP JUMPDEST PUSH1 0x0 PUSH3 0x13F PUSH3 0x13C DUP4 DUP2 JUMP JUMPDEST SWAP1 JUMP JUMPDEST SWAP3 SWAP2 POP POP JUMP JUMPDEST PUSH3 0x150 DUP4 PUSH3 0x12E JUMP JUMPDEST DUP2 SLOAD PUSH1 0x0 NOT PUSH1 0x8 SWAP5 SWAP1 SWAP5 MUL SWAP4 DUP5 SHL NOT AND SWAP3 SHL SWAP2 SWAP1 SWAP2 OR SWAP1 SSTORE POP JUMP JUMPDEST PUSH1 0x0 PUSH3 0x17A DUP2 DUP5 DUP5 PUSH3 0x145 JUMP JUMPDEST POP POP POP JUMP JUMPDEST DUP2 DUP2 LT ISZERO PUSH3 0x19E JUMPI PUSH3 0x195 PUSH1 0x0 DUP3 PUSH3 0x16B JUMP JUMPDEST PUSH1 0x1 ADD PUSH3 0x17F JUMP JUMPDEST POP POP JUMP JUMPDEST PUSH1 0x1F DUP3 GT ISZERO PUSH3 0x17A JUMPI PUSH1 0x0 DUP2 DUP2 MSTORE PUSH1 0x20 SWAP1 KECCAK256 PUSH1 0x20 PUSH1 0x1F DUP6 ADD DIV DUP2 ADD PUSH1 0x20 DUP6 LT ISZERO PUSH3 0x1CB JUMPI POP DUP1 JUMPDEST PUSH3 0x1DF PUSH1 0x20 PUSH1 0x1F DUP7 ADD DIV DUP4 ADD DUP3 PUSH3 0x17F JUMP JUMPDEST POP POP POP POP POP JUMP JUMPDEST DUP2 MLOAD PUSH1 0x1 PUSH1 0x1 PUSH1 0x40 SHL SUB DUP2 GT ISZERO PUSH3 0x202 JUMPI PUSH3 0x202 PUSH3 0xD2 JUMP JUMPDEST PUSH3 0x20E DUP3 SLOAD PUSH3 0xFE JUMP JUMPDEST PUSH3 0x21B DUP3 DUP3 DUP6 PUSH3 0x1A2 JUMP JUMPDEST PUSH1 0x20 PUSH1 0x1F DUP4 GT PUSH1 0x1 DUP2 EQ PUSH3 0x252 JUMPI PUSH1 0x0 DUP5 ISZERO PUSH3 0x239 JUMPI POP DUP6 DUP3 ADD MLOAD JUMPDEST PUSH1 0x0 NOT PUSH1 0x8 DUP7 MUL SHR NOT DUP2 AND PUSH1 0x2 DUP7 MUL OR DUP7 SSTORE POP PUSH3 0x2AE JUMP JUMPDEST PUSH1 0x0 DUP6 DUP2 MSTORE PUSH1 0x20 DUP2 KECCAK256 PUSH1 0x1F NOT DUP7 AND SWAP2 JUMPDEST DUP3 DUP2 LT ISZERO PUSH3 0x284 JUMPI DUP9 DUP6 ADD MLOAD DUP3 SSTORE PUSH1 0x20 SWAP5 DUP6 ADD SWAP5 PUSH1 0x1 SWAP1 SWAP3 ADD SWAP2 ADD PUSH3 0x262 JUMP JUMPDEST DUP7 DUP4 LT ISZERO PUSH3 0x2A1 JUMPI DUP5 DUP10 ADD MLOAD PUSH1 0x0 NOT PUSH1 0x1F DUP10 AND PUSH1 0x8 MUL SHR NOT AND DUP3 SSTORE JUMPDEST PUSH1 0x1 PUSH1 0x2 DUP9 MUL ADD DUP9 SSTORE POP POP POP JUMPDEST POP POP POP POP POP POP JUMP JUMPDEST PUSH2 0x1668 DUP1 PUSH3 0x2C6 PUSH1 0x0 CODECOPY PUSH1 0x0 RETURN INVALID PUSH1 0x80 PUSH1 0x40 MSTORE CALLVALUE DUP1 ISZERO PUSH2 0x10 JUMPI PUSH1 0x0 DUP1 REVERT JUMPDEST POP PUSH1 0x4 CALLDATASIZE LT PUSH2 0xEA JUMPI PUSH1 0x0 CALLDATALOAD PUSH1 0xE0 SHR DUP1 PUSH4 0xB525EF0D GT PUSH2 0x8C JUMPI DUP1 PUSH4 0xC4DC1556 GT PUSH2 0x66 JUMPI DUP1 PUSH4 0xC4DC1556 EQ PUSH2 0x1B3 JUMPI DUP1 PUSH4 0xC70D33E3 EQ PUSH2 0x1BB JUMPI DUP1 PUSH4 0xF2FDE38B EQ PUSH2 0x1D0 JUMPI DUP1 PUSH4 0xF863B454 EQ PUSH2 0x1E3 JUMPI PUSH1 0x0 DUP1 REVERT JUMPDEST DUP1 PUSH4 0xB525EF0D EQ PUSH2 0x183 JUMPI DUP1 PUSH4 0xB96762AE EQ PUSH2 0x18B JUMPI DUP1 PUSH4 0xC2B79836 EQ PUSH2 0x19E JUMPI PUSH1 0x0 DUP1 REVERT JUMPDEST DUP1 PUSH4 0x8DA5CB5B GT PUSH2 0xC8 JUMPI DUP1 PUSH4 0x8DA5CB5B EQ PUSH2 0x140 JUMPI DUP1 PUSH4 0x98D5FDCA EQ PUSH2 0x153 JUMPI DUP1 PUSH4 0x9D76EA58 EQ PUSH2 0x168 JUMPI DUP1 PUSH4 0xB07672AE EQ PUSH2 0x17B JUMPI PUSH1 0x0 DUP1 REVERT JUMPDEST DUP1 PUSH4 0x2DE9F2E EQ PUSH2 0xEF JUMPI DUP1 PUSH4 0x3D75DA94 EQ PUSH2 0x104 JUMPI DUP1 PUSH4 0x5BF8633A EQ PUSH2 0x117 JUMPI JUMPDEST PUSH1 0x0 DUP1 REVERT JUMPDEST PUSH2 0x102 PUSH2 0xFD CALLDATASIZE PUSH1 0x4 PUSH2 0xF65 JUMP JUMPDEST PUSH2 0x1EB JUMP JUMPDEST STOP JUMPDEST PUSH2 0x102 PUSH2 0x112 CALLDATASIZE PUSH1 0x4 PUSH2 0x1007 JUMP JUMPDEST PUSH2 0x31D JUMP JUMPDEST PUSH1 0x3 SLOAD PUSH2 0x12A SWAP1 PUSH1 0x1 PUSH1 0x1 PUSH1 0xA0 SHL SUB AND DUP2 JUMP JUMPDEST PUSH1 0x40 MLOAD PUSH2 0x137 SWAP2 SWAP1 PUSH2 0x1037 JUMP JUMPDEST PUSH1 0x40 MLOAD DUP1 SWAP2 SUB SWAP1 RETURN JUMPDEST PUSH1 0x0 SLOAD PUSH2 0x12A SWAP1 PUSH1 0x1 PUSH1 0x1 PUSH1 0xA0 SHL SUB AND DUP2 JUMP JUMPDEST PUSH2 0x15B PUSH2 0x3F5 JUMP JUMPDEST PUSH1 0x40 MLOAD PUSH2 0x137 SWAP2 SWAP1 PUSH2 0x109B JUMP JUMPDEST PUSH1 0x4 SLOAD PUSH2 0x12A SWAP1 PUSH1 0x1 PUSH1 0x1 PUSH1 0xA0 SHL SUB AND DUP2 JUMP JUMPDEST PUSH2 0x102 PUSH2 0x487 JUMP JUMPDEST PUSH2 0x102 PUSH2 0x525 JUMP JUMPDEST PUSH2 0x102 PUSH2 0x199 CALLDATASIZE PUSH1 0x4 PUSH2 0x1007 JUMP JUMPDEST PUSH2 0x5DF JUMP JUMPDEST PUSH2 0x1A6 PUSH2 0x6B7 JUMP JUMPDEST PUSH1 0x40 MLOAD PUSH2 0x137 SWAP2 SWAP1 PUSH2 0x1116 JUMP JUMPDEST PUSH2 0x102 PUSH2 0x844 JUMP JUMPDEST PUSH2 0x1C3 PUSH2 0xA6F JUMP JUMPDEST PUSH1 0x40 MLOAD PUSH2 0x137 SWAP2 SWAP1 PUSH2 0x112D JUMP JUMPDEST PUSH2 0x102 PUSH2 0x1DE CALLDATASIZE PUSH1 0x4 PUSH2 0x1007 JUMP JUMPDEST PUSH2 0xA9B JUMP JUMPDEST PUSH2 0x1C3 PUSH2 0xAF5 JUMP JUMPDEST PUSH1 0x0 PUSH2 0x1F5 PUSH2 0xB1B JUMP JUMPDEST GT PUSH2 0x213 JUMPI PUSH1 0x40 MLOAD PUSH4 0x7C75AA6F PUSH1 0xE1 SHL DUP2 MSTORE PUSH1 0x4 ADD PUSH1 0x40 MLOAD DUP1 SWAP2 SUB SWAP1 REVERT JUMPDEST PUSH1 0xB SLOAD PUSH1 0xFF AND PUSH2 0x240 JUMPI TIMESTAMP PUSH1 0x6 SLOAD GT ISZERO PUSH2 0x240 JUMPI PUSH1 0x40 MLOAD PUSH4 0xA9174B17 PUSH1 0xE0 SHL DUP2 MSTORE PUSH1 0x4 ADD PUSH1 0x40 MLOAD DUP1 SWAP2 SUB SWAP1 REVERT JUMPDEST PUSH2 0x24C PUSH2 0x258 TIMESTAMP PUSH2 0x1151 JUMP JUMPDEST PUSH1 0x6 SSTORE PUSH2 0x25B PUSH2 0x12C TIMESTAMP PUSH2 0x1151 JUMP JUMPDEST PUSH1 0x7 SSTORE PUSH2 0x26A PUSH1 0xC PUSH1 0x0 PUSH2 0xE2C JUMP JUMPDEST PUSH1 0x40 DUP1 MLOAD PUSH1 0x80 DUP2 ADD DUP3 MSTORE CALLER DUP1 DUP3 MSTORE PUSH1 0x20 DUP3 ADD DUP6 SWAP1 MSTORE SWAP2 DUP2 ADD DUP4 SWAP1 MSTORE PUSH1 0x0 PUSH1 0x60 DUP3 ADD MSTORE PUSH1 0x8 DUP1 SLOAD PUSH1 0x1 PUSH1 0x1 PUSH1 0xA0 SHL SUB NOT AND SWAP1 SWAP3 OR DUP3 SSTORE SWAP1 PUSH1 0x9 PUSH2 0x2AC DUP6 DUP3 PUSH2 0x123E JUMP JUMPDEST POP PUSH1 0x40 DUP3 ADD MLOAD PUSH1 0x2 DUP3 ADD SWAP1 PUSH2 0x2C1 SWAP1 DUP3 PUSH2 0x123E JUMP JUMPDEST POP PUSH1 0x60 SWAP2 SWAP1 SWAP2 ADD MLOAD PUSH1 0x3 SWAP1 SWAP2 ADD DUP1 SLOAD PUSH1 0xFF NOT AND SWAP2 ISZERO ISZERO SWAP2 SWAP1 SWAP2 OR SWAP1 SSTORE PUSH1 0x40 MLOAD PUSH32 0x7EE0A17A4563C16D1072D423DC4448C5D14AC076B5982ABC0762421172BEEA61 SWAP1 PUSH2 0x311 SWAP1 DUP5 SWAP1 DUP5 SWAP1 CALLER SWAP1 PUSH2 0x1306 JUMP JUMPDEST PUSH1 0x40 MLOAD DUP1 SWAP2 SUB SWAP1 LOG1 POP POP JUMP JUMPDEST PUSH2 0x325 PUSH2 0xB92 JUMP JUMPDEST PUSH1 0x40 MLOAD PUSH4 0x70A08231 PUSH1 0xE0 SHL DUP2 MSTORE DUP2 SWAP1 PUSH1 0x1 PUSH1 0x1 PUSH1 0xA0 SHL SUB DUP3 AND SWAP1 PUSH4 0x70A08231 SWAP1 PUSH2 0x353 SWAP1 ADDRESS SWAP1 PUSH1 0x4 ADD PUSH2 0x1037 JUMP JUMPDEST PUSH1 0x20 PUSH1 0x40 MLOAD DUP1 DUP4 SUB DUP2 DUP7 GAS STATICCALL ISZERO DUP1 ISZERO PUSH2 0x370 JUMPI RETURNDATASIZE PUSH1 0x0 DUP1 RETURNDATACOPY RETURNDATASIZE PUSH1 0x0 REVERT JUMPDEST POP POP POP POP PUSH1 0x40 MLOAD RETURNDATASIZE PUSH1 0x1F NOT PUSH1 0x1F DUP3 ADD AND DUP3 ADD DUP1 PUSH1 0x40 MSTORE POP DUP2 ADD SWAP1 PUSH2 0x394 SWAP2 SWAP1 PUSH2 0x134B JUMP JUMPDEST POP PUSH1 0x1 DUP1 SLOAD PUSH1 0x1 PUSH1 0x1 PUSH1 0xA0 SHL SUB DUP1 DUP5 AND PUSH1 0x1 PUSH1 0x1 PUSH1 0xA0 SHL SUB NOT SWAP3 DUP4 AND OR SWAP1 SWAP3 SSTORE PUSH1 0x4 DUP1 SLOAD SWAP3 DUP6 AND SWAP3 SWAP1 SWAP2 AND SWAP2 SWAP1 SWAP2 OR SWAP1 SSTORE PUSH1 0x40 MLOAD PUSH32 0x26317221E726B9C268B3046DA713D2019AE4BC96ACAD9C2E1C534DA90FC5E9D4 SWAP1 PUSH2 0x311 SWAP1 DUP5 SWAP1 PUSH2 0x1037 JUMP JUMPDEST PUSH1 0x60 PUSH1 0x5 DUP1 SLOAD PUSH2 0x404 SWAP1 PUSH2 0x117A JUMP JUMPDEST DUP1 PUSH1 0x1F ADD PUSH1 0x20 DUP1 SWAP2 DIV MUL PUSH1 0x20 ADD PUSH1 0x40 MLOAD SWAP1 DUP2 ADD PUSH1 0x40 MSTORE DUP1 SWAP3 SWAP2 SWAP1 DUP2 DUP2 MSTORE PUSH1 0x20 ADD DUP3 DUP1 SLOAD PUSH2 0x430 SWAP1 PUSH2 0x117A JUMP JUMPDEST DUP1 ISZERO PUSH2 0x47D JUMPI DUP1 PUSH1 0x1F LT PUSH2 0x452 JUMPI PUSH2 0x100 DUP1 DUP4 SLOAD DIV MUL DUP4 MSTORE SWAP2 PUSH1 0x20 ADD SWAP2 PUSH2 0x47D JUMP JUMPDEST DUP3 ADD SWAP2 SWAP1 PUSH1 0x0 MSTORE PUSH1 0x20 PUSH1 0x0 KECCAK256 SWAP1 JUMPDEST DUP2 SLOAD DUP2 MSTORE SWAP1 PUSH1 0x1 ADD SWAP1 PUSH1 0x20 ADD DUP1 DUP4 GT PUSH2 0x460 JUMPI DUP3 SWAP1 SUB PUSH1 0x1F AND DUP3 ADD SWAP2 JUMPDEST POP POP POP POP POP SWAP1 POP SWAP1 JUMP JUMPDEST PUSH1 0x0 PUSH2 0x491 PUSH2 0xBE3 JUMP JUMPDEST PUSH1 0xC DUP1 SLOAD PUSH1 0x1 DUP2 ADD SWAP1 SWAP2 SSTORE PUSH32 0xDF6966C971051C3D54EC59162606531493A51404A002842F56009D7E5CF4A8C7 ADD DUP1 SLOAD CALLER PUSH1 0x1 PUSH1 0x1 PUSH1 0xA0 SHL SUB NOT SWAP1 SWAP2 AND DUP2 OR SWAP1 SWAP2 SSTORE PUSH1 0x0 DUP2 DUP2 MSTORE PUSH1 0xD PUSH1 0x20 MSTORE PUSH1 0x40 SWAP1 DUP2 SWAP1 KECCAK256 DUP1 SLOAD PUSH2 0xFFFF NOT AND PUSH2 0xFFFF DUP6 AND OR SWAP1 SSTORE MLOAD SWAP2 SWAP3 POP SWAP1 PUSH32 0x33FABBA9378C138B4FD0872656523539FE2CA7F3CA14A28C15BE6922C925DD87 SWAP1 PUSH2 0x311 SWAP1 DUP4 SWAP1 DUP6 SWAP1 PUSH2 0x1376 JUMP JUMPDEST PUSH1 0x0 PUSH2 0x52F PUSH2 0xBE3 JUMP JUMPDEST PUSH1 0xC DUP1 SLOAD PUSH1 0x1 DUP2 ADD DUP3 SSTORE PUSH1 0x0 SWAP2 SWAP1 SWAP2 MSTORE PUSH32 0xDF6966C971051C3D54EC59162606531493A51404A002842F56009D7E5CF4A8C7 ADD DUP1 SLOAD PUSH1 0x1 PUSH1 0x1 PUSH1 0xA0 SHL SUB NOT AND CALLER SWAP1 DUP2 OR SWAP1 SWAP2 SSTORE SWAP1 SWAP2 POP PUSH2 0x580 DUP3 PUSH2 0x1391 JUMP JUMPDEST PUSH1 0x1 PUSH1 0x1 PUSH1 0xA0 SHL SUB DUP3 AND PUSH1 0x0 SWAP1 DUP2 MSTORE PUSH1 0xD PUSH1 0x20 MSTORE PUSH1 0x40 SWAP1 DUP2 SWAP1 KECCAK256 DUP1 SLOAD PUSH2 0xFFFF NOT AND PUSH2 0xFFFF SWAP4 SWAP1 SWAP4 AND SWAP3 SWAP1 SWAP3 OR SWAP1 SWAP2 SSTORE MLOAD PUSH32 0xAAB3F0444F9EBDC2F3123616CD1EF4CD06E39F5D865030BC51AA785362965C7C SWAP1 PUSH2 0x311 SWAP1 DUP4 SWAP1 DUP6 SWAP1 PUSH2 0x1376 JUMP JUMPDEST PUSH2 0x5E7 PUSH2 0xB92 JUMP JUMPDEST PUSH1 0x40 MLOAD PUSH4 0x70A08231 PUSH1 0xE0 SHL DUP2 MSTORE DUP2 SWAP1 PUSH1 0x1 PUSH1 0x1 PUSH1 0xA0 SHL SUB DUP3 AND SWAP1 PUSH4 0x70A08231 SWAP1 PUSH2 0x615 SWAP1 ADDRESS SWAP1 PUSH1 0x4 ADD PUSH2 0x1037 JUMP JUMPDEST PUSH1 0x20 PUSH1 0x40 MLOAD DUP1 DUP4 SUB DUP2 DUP7 GAS STATICCALL ISZERO DUP1 ISZERO PUSH2 0x632 JUMPI RETURNDATASIZE PUSH1 0x0 DUP1 RETURNDATACOPY RETURNDATASIZE PUSH1 0x0 REVERT JUMPDEST POP POP POP POP PUSH1 0x40 MLOAD RETURNDATASIZE PUSH1 0x1F NOT PUSH1 0x1F DUP3 ADD AND DUP3 ADD DUP1 PUSH1 0x40 MSTORE POP DUP2 ADD SWAP1 PUSH2 0x656 SWAP2 SWAP1 PUSH2 0x134B JUMP JUMPDEST POP PUSH1 0x2 DUP1 SLOAD PUSH1 0x1 PUSH1 0x1 PUSH1 0xA0 SHL SUB DUP1 DUP5 AND PUSH1 0x1 PUSH1 0x1 PUSH1 0xA0 SHL SUB NOT SWAP3 DUP4 AND OR SWAP1 SWAP3 SSTORE PUSH1 0x3 DUP1 SLOAD SWAP3 DUP6 AND SWAP3 SWAP1 SWAP2 AND SWAP2 SWAP1 SWAP2 OR SWAP1 SSTORE PUSH1 0x40 MLOAD PUSH32 0x708E1E0CC2637DD479A4CB4AB8DC07655E145E2B159249ACA7146AB62B67D005 SWAP1 PUSH2 0x311 SWAP1 DUP5 SWAP1 PUSH2 0x1037 JUMP JUMPDEST PUSH2 0x6ED PUSH1 0x40 MLOAD DUP1 PUSH1 0x80 ADD PUSH1 0x40 MSTORE DUP1 PUSH1 0x0 PUSH1 0x1 PUSH1 0x1 PUSH1 0xA0 SHL SUB AND DUP2 MSTORE PUSH1 0x20 ADD PUSH1 0x60 DUP2 MSTORE PUSH1 0x20 ADD PUSH1 0x60 DUP2 MSTORE PUSH1 0x20 ADD PUSH1 0x0 ISZERO ISZERO DUP2 MSTORE POP SWAP1 JUMP JUMPDEST PUSH1 0x40 DUP1 MLOAD PUSH1 0x80 DUP2 ADD SWAP1 SWAP2 MSTORE PUSH1 0x8 DUP1 SLOAD PUSH1 0x1 PUSH1 0x1 PUSH1 0xA0 SHL SUB AND DUP3 MSTORE PUSH1 0x9 DUP1 SLOAD PUSH1 0x20 DUP5 ADD SWAP2 SWAP1 PUSH2 0x71A SWAP1 PUSH2 0x117A JUMP JUMPDEST DUP1 PUSH1 0x1F ADD PUSH1 0x20 DUP1 SWAP2 DIV MUL PUSH1 0x20 ADD PUSH1 0x40 MLOAD SWAP1 DUP2 ADD PUSH1 0x40 MSTORE DUP1 SWAP3 SWAP2 SWAP1 DUP2 DUP2 MSTORE PUSH1 0x20 ADD DUP3 DUP1 SLOAD PUSH2 0x746 SWAP1 PUSH2 0x117A JUMP JUMPDEST DUP1 ISZERO PUSH2 0x793 JUMPI DUP1 PUSH1 0x1F LT PUSH2 0x768 JUMPI PUSH2 0x100 DUP1 DUP4 SLOAD DIV MUL DUP4 MSTORE SWAP2 PUSH1 0x20 ADD SWAP2 PUSH2 0x793 JUMP JUMPDEST DUP3 ADD SWAP2 SWAP1 PUSH1 0x0 MSTORE PUSH1 0x20 PUSH1 0x0 KECCAK256 SWAP1 JUMPDEST DUP2 SLOAD DUP2 MSTORE SWAP1 PUSH1 0x1 ADD SWAP1 PUSH1 0x20 ADD DUP1 DUP4 GT PUSH2 0x776 JUMPI DUP3 SWAP1 SUB PUSH1 0x1F AND DUP3 ADD SWAP2 JUMPDEST POP POP POP POP POP DUP2 MSTORE PUSH1 0x20 ADD PUSH1 0x2 DUP3 ADD DUP1 SLOAD PUSH2 0x7AC SWAP1 PUSH2 0x117A JUMP JUMPDEST DUP1 PUSH1 0x1F ADD PUSH1 0x20 DUP1 SWAP2 DIV MUL PUSH1 0x20 ADD PUSH1 0x40 MLOAD SWAP1 DUP2 ADD PUSH1 0x40 MSTORE DUP1 SWAP3 SWAP2 SWAP1 DUP2 DUP2 MSTORE PUSH1 0x20 ADD DUP3 DUP1 SLOAD PUSH2 0x7D8 SWAP1 PUSH2 0x117A JUMP JUMPDEST DUP1 ISZERO PUSH2 0x825 JUMPI DUP1 PUSH1 0x1F LT PUSH2 0x7FA JUMPI PUSH2 0x100 DUP1 DUP4 SLOAD DIV MUL DUP4 MSTORE SWAP2 PUSH1 0x20 ADD SWAP2 PUSH2 0x825 JUMP JUMPDEST DUP3 ADD SWAP2 SWAP1 PUSH1 0x0 MSTORE PUSH1 0x20 PUSH1 0x0 KECCAK256 SWAP1 JUMPDEST DUP2 SLOAD DUP2 MSTORE SWAP1 PUSH1 0x1 ADD SWAP1 PUSH1 0x20 ADD DUP1 DUP4 GT PUSH2 0x808 JUMPI DUP3 SWAP1 SUB PUSH1 0x1F AND DUP3 ADD SWAP2 JUMPDEST POP POP POP SWAP2 DUP4 MSTORE POP POP PUSH1 0x3 SWAP2 SWAP1 SWAP2 ADD SLOAD PUSH1 0xFF AND ISZERO ISZERO PUSH1 0x20 SWAP1 SWAP2 ADD MSTORE SWAP2 SWAP1 POP JUMP JUMPDEST TIMESTAMP PUSH1 0x7 SLOAD GT ISZERO PUSH2 0x867 JUMPI PUSH1 0x40 MLOAD PUSH4 0xA9174B17 PUSH1 0xE0 SHL DUP2 MSTORE PUSH1 0x4 ADD PUSH1 0x40 MLOAD DUP1 SWAP2 SUB SWAP1 REVERT JUMPDEST PUSH1 0x6 SLOAD TIMESTAMP LT PUSH2 0x8A2 JUMPI PUSH1 0x40 MLOAD PUSH32 0xC1F1C4DF00000000000000000000000000000000000000000000000000000000 DUP2 MSTORE PUSH1 0x4 ADD PUSH1 0x40 MLOAD DUP1 SWAP2 SUB SWAP1 REVERT JUMPDEST PUSH1 0xB SLOAD PUSH1 0xFF AND ISZERO PUSH2 0x8DF JUMPI PUSH1 0x40 MLOAD PUSH32 0x9C93EB2D00000000000000000000000000000000000000000000000000000000 DUP2 MSTORE PUSH1 0x4 ADD PUSH1 0x40 MLOAD DUP1 SWAP2 SUB SWAP1 REVERT JUMPDEST PUSH1 0xC SLOAD PUSH1 0x0 SWAP1 DUP2 SWAP1 DUP2 SWAP1 DUP2 SWAP1 DUP2 SWAP1 JUMPDEST DUP1 ISZERO PUSH2 0x9B0 JUMPI PUSH1 0xC PUSH2 0x901 PUSH1 0x1 DUP4 PUSH2 0x13B8 JUMP JUMPDEST DUP2 SLOAD DUP2 LT PUSH2 0x911 JUMPI PUSH2 0x911 PUSH2 0x13CB JUMP JUMPDEST PUSH1 0x0 SWAP2 DUP3 MSTORE PUSH1 0x20 DUP1 DUP4 KECCAK256 SWAP1 SWAP2 ADD SLOAD PUSH1 0x1 PUSH1 0x1 PUSH1 0xA0 SHL SUB AND DUP1 DUP4 MSTORE PUSH1 0xD SWAP1 SWAP2 MSTORE PUSH1 0x40 SWAP1 SWAP2 KECCAK256 SLOAD PUSH1 0x1 SIGNEXTEND SWAP5 POP SWAP2 POP PUSH2 0x946 DUP3 PUSH2 0xCA2 JUMP JUMPDEST SWAP3 POP DUP3 PUSH2 0xFFFF AND PUSH2 0x956 DUP6 PUSH2 0xD14 JUMP JUMPDEST PUSH2 0xFFFF AND SUB PUSH2 0x99E JUMPI PUSH1 0x0 DUP5 PUSH1 0x1 SIGNEXTEND SGT ISZERO PUSH2 0x97C JUMPI PUSH2 0x975 DUP5 DUP8 PUSH2 0x13E1 JUMP JUMPDEST SWAP6 POP PUSH2 0x99E JUMP JUMPDEST PUSH1 0x0 DUP5 PUSH1 0x1 SIGNEXTEND SLT ISZERO PUSH2 0x99E JUMPI PUSH2 0x991 DUP5 PUSH2 0x1391 JUMP JUMPDEST PUSH2 0x99B SWAP1 DUP7 PUSH2 0x13E1 JUMP JUMPDEST SWAP5 POP JUMPDEST DUP1 PUSH2 0x9A8 DUP2 PUSH2 0x13FF JUMP JUMPDEST SWAP2 POP POP PUSH2 0x8EE JUMP JUMPDEST POP PUSH1 0xB DUP1 SLOAD PUSH1 0xFF NOT AND PUSH1 0x1 OR SWAP1 SSTORE PUSH2 0xFFFF DUP1 DUP6 AND SWAP1 DUP7 AND GT ISZERO PUSH2 0xA2E JUMPI PUSH2 0x9DF PUSH2 0x9DA DUP6 DUP8 PUSH2 0x13E1 JUMP JUMPDEST PUSH2 0xD33 JUMP JUMPDEST PUSH1 0x5 PUSH2 0x9EC PUSH1 0x9 DUP3 PUSH2 0x1421 JUMP JUMPDEST POP PUSH32 0xC965D144FC58D48E5F9A6AA80CD6057C77AF099482C91F56A9C36920ED60C278 DUP6 DUP6 PUSH1 0x5 PUSH1 0x40 MLOAD PUSH2 0xA21 SWAP4 SWAP3 SWAP2 SWAP1 PUSH2 0x1565 JUMP JUMPDEST PUSH1 0x40 MLOAD DUP1 SWAP2 SUB SWAP1 LOG1 PUSH2 0xA68 JUMP JUMPDEST PUSH32 0xAEEDBA74278BF0D29C304A846608F0C3E654216BB74466DF6969108E1AC2B1C8 DUP6 DUP6 PUSH1 0x40 MLOAD PUSH2 0xA5F SWAP3 SWAP2 SWAP1 PUSH2 0x159B JUMP JUMPDEST PUSH1 0x40 MLOAD DUP1 SWAP2 SUB SWAP1 LOG1 JUMPDEST POP POP POP POP POP JUMP JUMPDEST PUSH1 0x0 DUP1 TIMESTAMP SWAP1 POP DUP1 PUSH1 0x6 SLOAD LT ISZERO PUSH2 0xA87 JUMPI PUSH1 0x0 SWAP2 POP POP SWAP1 JUMP JUMPDEST DUP1 PUSH1 0x6 SLOAD PUSH2 0xA95 SWAP2 SWAP1 PUSH2 0x13B8 JUMP JUMPDEST SWAP2 POP POP SWAP1 JUMP JUMPDEST PUSH2 0xAA3 PUSH2 0xB92 JUMP JUMPDEST PUSH1 0x0 DUP1 SLOAD PUSH1 0x1 PUSH1 0x1 PUSH1 0xA0 SHL SUB DUP4 DUP2 AND PUSH1 0x1 PUSH1 0x1 PUSH1 0xA0 SHL SUB NOT DUP4 AND DUP2 OR SWAP1 SWAP4 SSTORE PUSH1 0x40 MLOAD SWAP2 AND SWAP2 PUSH32 0x850B3DF64837D7D518B45F5AA64D104652C3B80EB5B34A8E3D9EB666CB7CDEA5 SWAP2 PUSH2 0x311 SWAP2 DUP5 SWAP2 PUSH2 0x15A9 JUMP JUMPDEST PUSH1 0x0 DUP1 TIMESTAMP SWAP1 POP DUP1 PUSH1 0x7 SLOAD LT ISZERO PUSH2 0xB0D JUMPI PUSH1 0x0 SWAP2 POP POP SWAP1 JUMP JUMPDEST DUP1 PUSH1 0x7 SLOAD PUSH2 0xA95 SWAP2 SWAP1 PUSH2 0x13B8 JUMP JUMPDEST PUSH1 0x2 SLOAD PUSH1 0x40 MLOAD PUSH4 0x70A08231 PUSH1 0xE0 SHL DUP2 MSTORE PUSH1 0x0 SWAP2 PUSH1 0x1 PUSH1 0x1 PUSH1 0xA0 SHL SUB AND SWAP1 PUSH4 0x70A08231 SWAP1 PUSH2 0xB4C SWAP1 CALLER SWAP1 PUSH1 0x4 ADD PUSH2 0x1037 JUMP JUMPDEST PUSH1 0x20 PUSH1 0x40 MLOAD DUP1 DUP4 SUB DUP2 DUP7 GAS STATICCALL ISZERO DUP1 ISZERO PUSH2 0xB69 JUMPI RETURNDATASIZE PUSH1 0x0 DUP1 RETURNDATACOPY RETURNDATASIZE PUSH1 0x0 REVERT JUMPDEST POP POP POP POP PUSH1 0x40 MLOAD RETURNDATASIZE PUSH1 0x1F NOT PUSH1 0x1F DUP3 ADD AND DUP3 ADD DUP1 PUSH1 0x40 MSTORE POP DUP2 ADD SWAP1 PUSH2 0xB8D SWAP2 SWAP1 PUSH2 0x134B JUMP JUMPDEST SWAP1 POP SWAP1 JUMP JUMPDEST PUSH1 0x0 SLOAD PUSH1 0x1 PUSH1 0x1 PUSH1 0xA0 SHL SUB AND CALLER EQ PUSH2 0xBE1 JUMPI CALLER PUSH1 0x40 MLOAD PUSH32 0x32B2BAA300000000000000000000000000000000000000000000000000000000 DUP2 MSTORE PUSH1 0x4 ADD PUSH2 0xBD8 SWAP2 SWAP1 PUSH2 0x1037 JUMP JUMPDEST PUSH1 0x40 MLOAD DUP1 SWAP2 SUB SWAP1 REVERT JUMPDEST JUMP JUMPDEST PUSH1 0x0 PUSH1 0x7 SLOAD TIMESTAMP LT PUSH2 0xC20 JUMPI PUSH1 0x40 MLOAD PUSH32 0x3DC1D21400000000000000000000000000000000000000000000000000000000 DUP2 MSTORE PUSH1 0x4 ADD PUSH1 0x40 MLOAD DUP1 SWAP2 SUB SWAP1 REVERT JUMPDEST CALLER PUSH1 0x0 SWAP1 DUP2 MSTORE PUSH1 0xD PUSH1 0x20 MSTORE PUSH1 0x40 SWAP1 KECCAK256 SLOAD PUSH1 0x1 SIGNEXTEND DUP1 ISZERO PUSH2 0xC6B JUMPI PUSH1 0x40 MLOAD PUSH32 0x7C9A1CF900000000000000000000000000000000000000000000000000000000 DUP2 MSTORE PUSH1 0x4 ADD PUSH1 0x40 MLOAD DUP1 SWAP2 SUB SWAP1 REVERT JUMPDEST PUSH1 0x0 PUSH2 0xC75 PUSH2 0xB1B JUMP JUMPDEST SWAP1 POP PUSH1 0x0 DUP2 PUSH2 0xFFFF AND GT PUSH2 0xC9C JUMPI PUSH1 0x40 MLOAD PUSH4 0x7C75AA6F PUSH1 0xE1 SHL DUP2 MSTORE PUSH1 0x4 ADD PUSH1 0x40 MLOAD DUP1 SWAP2 SUB SWAP1 REVERT JUMPDEST SWAP3 SWAP2 POP POP JUMP JUMPDEST PUSH1 0x2 SLOAD PUSH1 0x40 MLOAD PUSH4 0x70A08231 PUSH1 0xE0 SHL DUP2 MSTORE PUSH1 0x0 SWAP2 PUSH1 0x1 PUSH1 0x1 PUSH1 0xA0 SHL SUB AND SWAP1 PUSH4 0x70A08231 SWAP1 PUSH2 0xCD3 SWAP1 DUP6 SWAP1 PUSH1 0x4 ADD PUSH2 0x1037 JUMP JUMPDEST PUSH1 0x20 PUSH1 0x40 MLOAD DUP1 DUP4 SUB DUP2 DUP7 GAS STATICCALL ISZERO DUP1 ISZERO PUSH2 0xCF0 JUMPI RETURNDATASIZE PUSH1 0x0 DUP1 RETURNDATACOPY RETURNDATASIZE PUSH1 0x0 REVERT JUMPDEST POP POP POP POP PUSH1 0x40 MLOAD RETURNDATASIZE PUSH1 0x1F NOT PUSH1 0x1F DUP3 ADD AND DUP3 ADD DUP1 PUSH1 0x40 MSTORE POP DUP2 ADD SWAP1 PUSH2 0xC9C SWAP2 SWAP1 PUSH2 0x134B JUMP JUMPDEST PUSH1 0x0 DUP1 DUP3 PUSH1 0x1 SIGNEXTEND SLT ISZERO PUSH2 0xD2F JUMPI PUSH2 0xD2A DUP3 PUSH2 0x1391 JUMP JUMPDEST PUSH2 0xC9C JUMP JUMPDEST POP SWAP1 JUMP JUMPDEST PUSH1 0x8 SLOAD PUSH1 0x1 PUSH1 0x1 PUSH1 0xA0 SHL SUB AND PUSH1 0x0 PUSH2 0xD50 PUSH1 0x14 PUSH2 0xFFFF DUP6 AND PUSH2 0x15C4 JUMP JUMPDEST SWAP1 POP PUSH2 0x4E20 DUP2 GT ISZERO PUSH2 0xD61 JUMPI POP PUSH2 0x4E20 JUMPDEST PUSH1 0x1 SLOAD PUSH1 0x40 MLOAD PUSH32 0xA9059CBB00000000000000000000000000000000000000000000000000000000 DUP2 MSTORE PUSH1 0x1 PUSH1 0x1 PUSH1 0xA0 SHL SUB SWAP1 SWAP2 AND SWAP1 PUSH4 0xA9059CBB SWAP1 PUSH2 0xDAC SWAP1 DUP6 SWAP1 DUP6 SWAP1 PUSH1 0x4 ADD PUSH2 0x15E3 JUMP JUMPDEST PUSH1 0x20 PUSH1 0x40 MLOAD DUP1 DUP4 SUB DUP2 PUSH1 0x0 DUP8 GAS CALL SWAP3 POP POP POP DUP1 ISZERO PUSH2 0xDE7 JUMPI POP PUSH1 0x40 DUP1 MLOAD PUSH1 0x1F RETURNDATASIZE SWAP1 DUP2 ADD PUSH1 0x1F NOT AND DUP3 ADD SWAP1 SWAP3 MSTORE PUSH2 0xDE4 SWAP2 DUP2 ADD SWAP1 PUSH2 0x1611 JUMP JUMPDEST PUSH1 0x1 JUMPDEST ISZERO PUSH2 0xE27 JUMPI POP PUSH32 0xCA770103CDD14B19DB75E20F62F734F176926315F9D140DDB5BA416422A6C08E DUP3 DUP3 PUSH1 0x40 MLOAD PUSH2 0xE1E SWAP3 SWAP2 SWAP1 PUSH2 0x15E3 JUMP JUMPDEST PUSH1 0x40 MLOAD DUP1 SWAP2 SUB SWAP1 LOG1 JUMPDEST POP POP POP JUMP JUMPDEST POP DUP1 SLOAD PUSH1 0x0 DUP3 SSTORE SWAP1 PUSH1 0x0 MSTORE PUSH1 0x20 PUSH1 0x0 KECCAK256 SWAP1 DUP2 ADD SWAP1 PUSH2 0xE4A SWAP2 SWAP1 PUSH2 0xE4D JUMP JUMPDEST POP JUMP JUMPDEST JUMPDEST DUP1 DUP3 GT ISZERO PUSH2 0xD2F JUMPI PUSH1 0x0 DUP2 SSTORE PUSH1 0x1 ADD PUSH2 0xE4E JUMP JUMPDEST PUSH4 0x4E487B71 PUSH1 0xE0 SHL PUSH1 0x0 MSTORE PUSH1 0x41 PUSH1 0x4 MSTORE PUSH1 0x24 PUSH1 0x0 REVERT JUMPDEST PUSH1 0x1F NOT PUSH1 0x1F DUP4 ADD AND DUP2 ADD DUP2 DUP2 LT PUSH8 0xFFFFFFFFFFFFFFFF DUP3 GT OR ISZERO PUSH2 0xE9E JUMPI PUSH2 0xE9E PUSH2 0xE62 JUMP JUMPDEST PUSH1 0x40 MSTORE POP POP JUMP JUMPDEST PUSH1 0x0 PUSH2 0xEB0 PUSH1 0x40 MLOAD SWAP1 JUMP JUMPDEST SWAP1 POP PUSH2 0xEBC DUP3 DUP3 PUSH2 0xE78 JUMP JUMPDEST SWAP2 SWAP1 POP JUMP JUMPDEST PUSH1 0x0 PUSH8 0xFFFFFFFFFFFFFFFF DUP3 GT ISZERO PUSH2 0xEDB JUMPI PUSH2 0xEDB PUSH2 0xE62 JUMP JUMPDEST PUSH1 0x1F NOT PUSH1 0x1F DUP4 ADD AND PUSH1 0x20 ADD SWAP3 SWAP2 POP POP JUMP JUMPDEST DUP3 DUP2 DUP4 CALLDATACOPY POP PUSH1 0x0 SWAP2 ADD MSTORE JUMP JUMPDEST PUSH1 0x0 PUSH2 0xF0B PUSH2 0xF06 DUP5 PUSH2 0xEC1 JUMP JUMPDEST PUSH2 0xEA5 JUMP JUMPDEST SWAP1 POP DUP3 DUP2 MSTORE PUSH1 0x20 DUP2 ADD DUP5 DUP5 DUP5 ADD GT ISZERO PUSH2 0xF26 JUMPI PUSH2 0xF26 PUSH1 0x0 DUP1 REVERT JUMPDEST PUSH2 0xF31 DUP5 DUP3 DUP6 PUSH2 0xEEC JUMP JUMPDEST POP SWAP4 SWAP3 POP POP POP JUMP JUMPDEST PUSH1 0x0 DUP3 PUSH1 0x1F DUP4 ADD SLT PUSH2 0xF4D JUMPI PUSH2 0xF4D PUSH1 0x0 DUP1 REVERT JUMPDEST DUP2 CALLDATALOAD PUSH2 0xF5D DUP5 DUP3 PUSH1 0x20 DUP7 ADD PUSH2 0xEF8 JUMP JUMPDEST SWAP5 SWAP4 POP POP POP POP JUMP JUMPDEST PUSH1 0x0 DUP1 PUSH1 0x40 DUP4 DUP6 SUB SLT ISZERO PUSH2 0xF7B JUMPI PUSH2 0xF7B PUSH1 0x0 DUP1 REVERT JUMPDEST DUP3 CALLDATALOAD PUSH8 0xFFFFFFFFFFFFFFFF DUP2 GT ISZERO PUSH2 0xF95 JUMPI PUSH2 0xF95 PUSH1 0x0 DUP1 REVERT JUMPDEST PUSH2 0xFA1 DUP6 DUP3 DUP7 ADD PUSH2 0xF39 JUMP JUMPDEST SWAP3 POP POP PUSH1 0x20 DUP4 ADD CALLDATALOAD PUSH8 0xFFFFFFFFFFFFFFFF DUP2 GT ISZERO PUSH2 0xFC1 JUMPI PUSH2 0xFC1 PUSH1 0x0 DUP1 REVERT JUMPDEST PUSH2 0xFCD DUP6 DUP3 DUP7 ADD PUSH2 0xF39 JUMP JUMPDEST SWAP2 POP POP SWAP3 POP SWAP3 SWAP1 POP JUMP JUMPDEST PUSH1 0x0 PUSH1 0x1 PUSH1 0x1 PUSH1 0xA0 SHL SUB DUP3 AND PUSH2 0xC9C JUMP JUMPDEST PUSH2 0xFF1 DUP2 PUSH2 0xFD7 JUMP JUMPDEST DUP2 EQ PUSH2 0xE4A JUMPI PUSH1 0x0 DUP1 REVERT JUMPDEST DUP1 CALLDATALOAD PUSH2 0xC9C DUP2 PUSH2 0xFE8 JUMP JUMPDEST PUSH1 0x0 PUSH1 0x20 DUP3 DUP5 SUB SLT ISZERO PUSH2 0x101C JUMPI PUSH2 0x101C PUSH1 0x0 DUP1 REVERT JUMPDEST PUSH1 0x0 PUSH2 0xF5D DUP5 DUP5 PUSH2 0xFFC JUMP JUMPDEST PUSH2 0x1031 DUP2 PUSH2 0xFD7 JUMP JUMPDEST DUP3 MSTORE POP POP JUMP JUMPDEST PUSH1 0x20 DUP2 ADD PUSH2 0xC9C DUP3 DUP5 PUSH2 0x1028 JUMP JUMPDEST PUSH1 0x0 JUMPDEST DUP4 DUP2 LT ISZERO PUSH2 0x1060 JUMPI DUP2 DUP2 ADD MLOAD DUP4 DUP3 ADD MSTORE PUSH1 0x20 ADD PUSH2 0x1048 JUMP JUMPDEST POP POP PUSH1 0x0 SWAP2 ADD MSTORE JUMP JUMPDEST PUSH1 0x0 PUSH2 0x1073 DUP3 MLOAD SWAP1 JUMP JUMPDEST DUP1 DUP5 MSTORE PUSH1 0x20 DUP5 ADD SWAP4 POP PUSH2 0x108A DUP2 DUP6 PUSH1 0x20 DUP7 ADD PUSH2 0x1045 JUMP JUMPDEST PUSH1 0x1F ADD PUSH1 0x1F NOT AND SWAP3 SWAP1 SWAP3 ADD SWAP3 SWAP2 POP POP JUMP JUMPDEST PUSH1 0x20 DUP1 DUP3 MSTORE DUP2 ADD PUSH2 0x10AC DUP2 DUP5 PUSH2 0x1069 JUMP JUMPDEST SWAP4 SWAP3 POP POP POP JUMP JUMPDEST DUP1 ISZERO ISZERO PUSH2 0x1031 JUMP JUMPDEST DUP1 MLOAD PUSH1 0x0 SWAP1 PUSH1 0x80 DUP5 ADD SWAP1 PUSH2 0x10CF DUP6 DUP3 PUSH2 0x1028 JUMP JUMPDEST POP PUSH1 0x20 DUP4 ADD MLOAD DUP5 DUP3 SUB PUSH1 0x20 DUP7 ADD MSTORE PUSH2 0x10E7 DUP3 DUP3 PUSH2 0x1069 JUMP JUMPDEST SWAP2 POP POP PUSH1 0x40 DUP4 ADD MLOAD DUP5 DUP3 SUB PUSH1 0x40 DUP7 ADD MSTORE PUSH2 0x1101 DUP3 DUP3 PUSH2 0x1069 JUMP JUMPDEST SWAP2 POP POP PUSH1 0x60 DUP4 ADD MLOAD PUSH2 0xF31 PUSH1 0x60 DUP7 ADD DUP3 PUSH2 0x10B3 JUMP JUMPDEST PUSH1 0x20 DUP1 DUP3 MSTORE DUP2 ADD PUSH2 0x10AC DUP2 DUP5 PUSH2 0x10BB JUMP JUMPDEST DUP1 PUSH2 0x1031 JUMP JUMPDEST PUSH1 0x20 DUP2 ADD PUSH2 0xC9C DUP3 DUP5 PUSH2 0x1127 JUMP JUMPDEST PUSH4 0x4E487B71 PUSH1 0xE0 SHL PUSH1 0x0 MSTORE PUSH1 0x11 PUSH1 0x4 MSTORE PUSH1 0x24 PUSH1 0x0 REVERT JUMPDEST DUP1 DUP3 ADD DUP1 DUP3 GT ISZERO PUSH2 0xC9C JUMPI PUSH2 0xC9C PUSH2 0x113B JUMP JUMPDEST PUSH4 0x4E487B71 PUSH1 0xE0 SHL PUSH1 0x0 MSTORE PUSH1 0x22 PUSH1 0x4 MSTORE PUSH1 0x24 PUSH1 0x0 REVERT JUMPDEST PUSH1 0x2 DUP2 DIV PUSH1 0x1 DUP3 AND DUP1 PUSH2 0x118E JUMPI PUSH1 0x7F DUP3 AND SWAP2 POP JUMPDEST PUSH1 0x20 DUP3 LT DUP2 SUB PUSH2 0x11A0 JUMPI PUSH2 0x11A0 PUSH2 0x1164 JUMP JUMPDEST POP SWAP2 SWAP1 POP JUMP JUMPDEST PUSH1 0x0 PUSH2 0xC9C PUSH2 0x11B2 DUP4 DUP2 JUMP JUMPDEST SWAP1 JUMP JUMPDEST PUSH2 0x11BE DUP4 PUSH2 0x11A6 JUMP JUMPDEST DUP2 SLOAD PUSH1 0x0 NOT PUSH1 0x8 SWAP5 SWAP1 SWAP5 MUL SWAP4 DUP5 SHL NOT AND SWAP3 SHL SWAP2 SWAP1 SWAP2 OR SWAP1 SSTORE POP JUMP JUMPDEST PUSH1 0x0 PUSH2 0xE27 DUP2 DUP5 DUP5 PUSH2 0x11B5 JUMP JUMPDEST DUP2 DUP2 LT ISZERO PUSH2 0x1201 JUMPI PUSH2 0x11F9 PUSH1 0x0 DUP3 PUSH2 0x11D9 JUMP JUMPDEST PUSH1 0x1 ADD PUSH2 0x11E6 JUMP JUMPDEST POP POP JUMP JUMPDEST PUSH1 0x1F DUP3 GT ISZERO PUSH2 0xE27 JUMPI PUSH1 0x0 DUP2 DUP2 MSTORE PUSH1 0x20 SWAP1 KECCAK256 PUSH1 0x20 PUSH1 0x1F DUP6 ADD DIV DUP2 ADD PUSH1 0x20 DUP6 LT ISZERO PUSH2 0x122C JUMPI POP DUP1 JUMPDEST PUSH2 0xA68 PUSH1 0x20 PUSH1 0x1F DUP7 ADD DIV DUP4 ADD DUP3 PUSH2 0x11E6 JUMP JUMPDEST DUP2 MLOAD PUSH8 0xFFFFFFFFFFFFFFFF DUP2 GT ISZERO PUSH2 0x1258 JUMPI PUSH2 0x1258 PUSH2 0xE62 JUMP JUMPDEST PUSH2 0x1262 DUP3 SLOAD PUSH2 0x117A JUMP JUMPDEST PUSH2 0x126D DUP3 DUP3 DUP6 PUSH2 0x1205 JUMP JUMPDEST PUSH1 0x20 PUSH1 0x1F DUP4 GT PUSH1 0x1 DUP2 EQ PUSH2 0x12A2 JUMPI PUSH1 0x0 DUP5 ISZERO PUSH2 0x1289 JUMPI POP DUP6 DUP3 ADD MLOAD JUMPDEST PUSH1 0x0 NOT PUSH1 0x8 DUP7 MUL SHR NOT DUP2 AND PUSH1 0x2 DUP7 MUL OR JUMPDEST DUP7 SSTORE POP PUSH2 0x12FE JUMP JUMPDEST PUSH1 0x0 DUP6 DUP2 MSTORE PUSH1 0x20 DUP2 KECCAK256 PUSH1 0x1F NOT DUP7 AND SWAP2 JUMPDEST DUP3 DUP2 LT ISZERO PUSH2 0x12D2 JUMPI DUP9 DUP6 ADD MLOAD DUP3 SSTORE PUSH1 0x20 SWAP5 DUP6 ADD SWAP5 PUSH1 0x1 SWAP1 SWAP3 ADD SWAP2 ADD PUSH2 0x12B2 JUMP JUMPDEST DUP7 DUP4 LT ISZERO PUSH2 0x12F1 JUMPI DUP9 DUP6 ADD MLOAD PUSH1 0x0 NOT PUSH1 0x8 PUSH1 0x1F DUP11 AND MUL SHR NOT DUP2 AND JUMPDEST DUP4 SSTORE POP JUMPDEST PUSH1 0x1 PUSH1 0x2 DUP9 MUL ADD DUP9 SSTORE POP POP POP JUMPDEST POP POP POP POP POP POP JUMP JUMPDEST PUSH1 0x60 DUP1 DUP3 MSTORE DUP2 ADD PUSH2 0x1317 DUP2 DUP7 PUSH2 0x1069 JUMP JUMPDEST SWAP1 POP DUP2 DUP2 SUB PUSH1 0x20 DUP4 ADD MSTORE PUSH2 0x132B DUP2 DUP6 PUSH2 0x1069 JUMP JUMPDEST SWAP1 POP PUSH2 0xF5D PUSH1 0x40 DUP4 ADD DUP5 PUSH2 0x1028 JUMP JUMPDEST DUP1 PUSH2 0xFF1 JUMP JUMPDEST DUP1 MLOAD PUSH2 0xC9C DUP2 PUSH2 0x133A JUMP JUMPDEST PUSH1 0x0 PUSH1 0x20 DUP3 DUP5 SUB SLT ISZERO PUSH2 0x1360 JUMPI PUSH2 0x1360 PUSH1 0x0 DUP1 REVERT JUMPDEST PUSH1 0x0 PUSH2 0xF5D DUP5 DUP5 PUSH2 0x1340 JUMP JUMPDEST PUSH2 0xFFFF DUP2 AND PUSH2 0x1031 JUMP JUMPDEST PUSH1 0x40 DUP2 ADD PUSH2 0x1384 DUP3 DUP6 PUSH2 0x1028 JUMP JUMPDEST PUSH2 0x10AC PUSH1 0x20 DUP4 ADD DUP5 PUSH2 0x136C JUMP JUMPDEST PUSH1 0x0 PUSH2 0x139D DUP3 PUSH1 0x1 SIGNEXTEND SWAP1 JUMP JUMPDEST SWAP2 POP PUSH2 0x7FFF NOT DUP3 SUB PUSH2 0x13B1 JUMPI PUSH2 0x13B1 PUSH2 0x113B JUMP JUMPDEST POP PUSH1 0x0 SUB SWAP1 JUMP JUMPDEST DUP2 DUP2 SUB DUP2 DUP2 GT ISZERO PUSH2 0xC9C JUMPI PUSH2 0xC9C PUSH2 0x113B JUMP JUMPDEST PUSH4 0x4E487B71 PUSH1 0xE0 SHL PUSH1 0x0 MSTORE PUSH1 0x32 PUSH1 0x4 MSTORE PUSH1 0x24 PUSH1 0x0 REVERT JUMPDEST PUSH2 0xFFFF SWAP2 DUP3 AND SWAP2 SWAP1 DUP2 AND SWAP1 DUP3 DUP3 ADD SWAP1 DUP2 GT ISZERO PUSH2 0xC9C JUMPI PUSH2 0xC9C PUSH2 0x113B JUMP JUMPDEST PUSH1 0x0 DUP2 PUSH2 0x140E JUMPI PUSH2 0x140E PUSH2 0x113B JUMP JUMPDEST POP PUSH1 0x0 NOT ADD SWAP1 JUMP JUMPDEST DUP1 SLOAD PUSH2 0xC9C DUP2 PUSH2 0x117A JUMP JUMPDEST DUP2 DUP2 SUB PUSH2 0x142C JUMPI POP POP JUMP JUMPDEST PUSH2 0x1435 DUP3 PUSH2 0x1416 JUMP JUMPDEST PUSH8 0xFFFFFFFFFFFFFFFF DUP2 GT ISZERO PUSH2 0x144D JUMPI PUSH2 0x144D PUSH2 0xE62 JUMP JUMPDEST PUSH2 0x1457 DUP3 SLOAD PUSH2 0x117A JUMP JUMPDEST PUSH2 0x1462 DUP3 DUP3 DUP6 PUSH2 0x1205 JUMP JUMPDEST PUSH1 0x0 PUSH1 0x1F DUP4 GT PUSH1 0x1 DUP2 EQ PUSH2 0x1492 JUMPI PUSH1 0x0 DUP5 ISZERO PUSH2 0x1289 JUMPI POP DUP2 DUP7 ADD SLOAD PUSH1 0x0 NOT PUSH1 0x8 DUP7 MUL SHR NOT DUP2 AND PUSH1 0x2 DUP7 MUL OR PUSH2 0x129A JUMP JUMPDEST PUSH1 0x0 SWAP6 DUP7 MSTORE PUSH1 0x20 DUP1 DUP8 KECCAK256 DUP7 DUP9 MSTORE SWAP1 DUP8 KECCAK256 SWAP1 SWAP7 PUSH1 0x1F NOT DUP7 AND SWAP2 SWAP1 JUMPDEST DUP3 DUP2 LT ISZERO PUSH2 0x14CC JUMPI DUP9 DUP6 ADD SLOAD DUP3 SSTORE PUSH1 0x1 SWAP5 DUP6 ADD SWAP5 SWAP1 SWAP2 ADD SWAP1 PUSH1 0x20 ADD PUSH2 0x14AC JUMP JUMPDEST DUP7 DUP4 LT ISZERO PUSH2 0x12F1 JUMPI DUP9 DUP6 ADD SLOAD PUSH1 0x0 NOT PUSH1 0x8 PUSH1 0x1F DUP11 AND MUL SHR NOT DUP2 AND PUSH2 0x12ED JUMP JUMPDEST PUSH1 0x0 DUP2 SLOAD PUSH2 0x14F8 DUP2 PUSH2 0x117A JUMP JUMPDEST DUP1 DUP6 MSTORE PUSH1 0x20 DUP6 ADD SWAP5 POP PUSH1 0x1 DUP3 AND DUP1 ISZERO PUSH2 0x1518 JUMPI PUSH1 0x1 DUP2 EQ PUSH2 0x152E JUMPI PUSH2 0x155C JUMP JUMPDEST PUSH1 0xFF NOT DUP4 AND DUP7 MSTORE PUSH1 0x20 DUP3 ISZERO ISZERO MUL DUP7 ADD SWAP4 POP PUSH2 0x155C JUMP JUMPDEST PUSH1 0x0 DUP6 DUP2 MSTORE PUSH1 0x20 SWAP1 KECCAK256 PUSH1 0x0 JUMPDEST DUP4 DUP2 LT ISZERO PUSH2 0x1556 JUMPI DUP2 SLOAD DUP9 DUP3 ADD MSTORE PUSH1 0x1 SWAP1 SWAP2 ADD SWAP1 PUSH1 0x20 ADD PUSH2 0x153A JUMP JUMPDEST DUP8 ADD SWAP5 POP POP JUMPDEST POP POP POP SWAP3 SWAP2 POP POP JUMP JUMPDEST PUSH1 0x60 DUP2 ADD PUSH2 0x1573 DUP3 DUP7 PUSH2 0x136C JUMP JUMPDEST PUSH2 0x1580 PUSH1 0x20 DUP4 ADD DUP6 PUSH2 0x136C JUMP JUMPDEST DUP2 DUP2 SUB PUSH1 0x40 DUP4 ADD MSTORE PUSH2 0x1592 DUP2 DUP5 PUSH2 0x14EB JUMP JUMPDEST SWAP6 SWAP5 POP POP POP POP POP JUMP JUMPDEST PUSH1 0x40 DUP2 ADD PUSH2 0x1384 DUP3 DUP6 PUSH2 0x136C JUMP JUMPDEST PUSH1 0x40 DUP2 ADD PUSH2 0x15B7 DUP3 DUP6 PUSH2 0x1028 JUMP JUMPDEST PUSH2 0x10AC PUSH1 0x20 DUP4 ADD DUP5 PUSH2 0x1028 JUMP JUMPDEST DUP2 DUP2 MUL DUP1 DUP3 ISZERO DUP4 DUP3 DIV DUP6 EQ OR PUSH2 0x15DC JUMPI PUSH2 0x15DC PUSH2 0x113B JUMP JUMPDEST POP SWAP3 SWAP2 POP POP JUMP JUMPDEST PUSH1 0x40 DUP2 ADD PUSH2 0x15F1 DUP3 DUP6 PUSH2 0x1028 JUMP JUMPDEST PUSH2 0x10AC PUSH1 0x20 DUP4 ADD DUP5 PUSH2 0x1127 JUMP JUMPDEST DUP1 ISZERO ISZERO PUSH2 0xFF1 JUMP JUMPDEST DUP1 MLOAD PUSH2 0xC9C DUP2 PUSH2 0x15FE JUMP JUMPDEST PUSH1 0x0 PUSH1 0x20 DUP3 DUP5 SUB SLT ISZERO PUSH2 0x1626 JUMPI PUSH2 0x1626 PUSH1 0x0 DUP1 REVERT JUMPDEST PUSH1 0x0 PUSH2 0xF5D DUP5 DUP5 PUSH2 0x1606 JUMP INVALID LOG2 PUSH5 0x6970667358 0x22 SLT KECCAK256 MSIZE JUMPDEST SWAP3 PUSH21 0x39EA87D1092F420BA5B8BFECE48BD0E75141CCF3FD PUSH31 0x76E7ECC456CB64736F6C634300081600330000000000000000000000000000 "},"methodIdentifiers":{"assignNFTCollection(address)":"b96762ae","assignTokenAddress(address)":"3d75da94","finalizeProposal()":"c4dc1556","getPrice()":"98d5fdca","latestProposal()":"c2b79836","nftAddress()":"5bf8633a","owner()":"8da5cb5b","proposalEndsAfter()":"c70d33e3","proposePrice(string,string)":"02de9f2e","tokenAddress()":"9d76ea58","transferOwnership(address)":"f2fde38b","voteDown()":"b525ef0d","voteUp()":"b07672ae","votingEndsAfter()":"f863b454"}}}}}