{"contracts/mockups/MockOracle.sol":{"MockOracle":{"abi":[{"inputs":[],"name":"getPrice","outputs":[{"internalType":"string","name":"","type":"string"}],"stateMutability":"view","type":"function"},{"inputs":[{"internalType":"string","name":"price","type":"string"}],"name":"setPrice","outputs":[],"stateMutability":"nonpayable","type":"function"}],"evm":{"bytecode":{"linkReferences":{},"object":"608060405234801561001057600080fd5b5061049e806100206000396000f3fe608060405234801561001057600080fd5b50600436106100365760003560e01c806398d5fdca1461003b57806399f486bc14610059575b600080fd5b61004361006e565b6040516100509190610166565b60405180910390f35b61006c610067366004610281565b610100565b005b60606000805461007d906102d2565b80601f01602080910402602001604051908101604052809291908181526020018280546100a9906102d2565b80156100f65780601f106100cb576101008083540402835291602001916100f6565b820191906000526020600020905b8154815290600101906020018083116100d957829003601f168201915b5050505050905090565b600061010c82826103a4565b5050565b60005b8381101561012b578181015183820152602001610113565b50506000910152565b600061013e825190565b808452602084019350610155818560208601610110565b601f01601f19169290920192915050565b602080825281016101778184610134565b9392505050565b634e487b7160e01b600052604160045260246000fd5b601f19601f830116810181811067ffffffffffffffff821117156101ba576101ba61017e565b6040525050565b60006101cc60405190565b90506101d88282610194565b919050565b600067ffffffffffffffff8211156101f7576101f761017e565b601f19601f83011660200192915050565b82818337506000910152565b6000610227610222846101dd565b6101c1565b90508281526020810184848401111561024257610242600080fd5b61024d848285610208565b509392505050565b600082601f83011261026957610269600080fd5b8135610279848260208601610214565b949350505050565b60006020828403121561029657610296600080fd5b813567ffffffffffffffff8111156102b0576102b0600080fd5b61027984828501610255565b634e487b7160e01b600052602260045260246000fd5b6002810460018216806102e657607f821691505b6020821081036102f8576102f86102bc565b50919050565b600061030d61030a8381565b90565b92915050565b61031c836102fe565b815460001960089490940293841b1916921b91909117905550565b6000610344818484610313565b505050565b8181101561010c5761035c600082610337565b600101610349565b601f821115610344576000818152602090206020601f8501048101602085101561038b5750805b61039d6020601f860104830182610349565b5050505050565b815167ffffffffffffffff8111156103be576103be61017e565b6103c882546102d2565b6103d3828285610364565b6020601f83116001811461040757600084156103ef5750858201515b600019600886021c1981166002860217865550610460565b600085815260208120601f198616915b828110156104375788850151825560209485019460019092019101610417565b868310156104535784890151600019601f89166008021c191682555b6001600288020188555050505b50505050505056fea2646970667358221220c47c4dfc4d2f074040abec0fe46a81bf6bdb2c6929f3935129aeef0ee9f08abb64736f6c63430008160033","opcodes":"PUSH1 0x80 PUSH1 0x40 MSTORE CALLVALUE DUP1 ISZERO PUSH2 0x10 JUMPI PUSH1 0x0 DUP1 REVERT JUMPDEST POP PUSH2 0x49E DUP1 PUSH2 0x20 PUSH1 0x0 CODECOPY PUSH1 0x0 RETURN INVALID PUSH1 0x80 PUSH1 0x40 MSTORE CALLVALUE DUP1 ISZERO PUSH2 0x10 JUMPI PUSH1 0x0 DUP1 REVERT JUMPDEST POP PUSH1 0x4 CALLDATASIZE LT PUSH2 0x36 JUMPI PUSH1 0x0 CALLDATALOAD PUSH1 0xE0 SHR DUP1 PUSH4 0x98D5FDCA EQ PUSH2 0x3B JUMPI DUP1 PUSH4 0x99F486BC EQ PUSH2 0x59 JUMPI JUMPDEST PUSH1 0x0 DUP1 REVERT JUMPDEST PUSH2 0x43 PUSH2 0x6E JUMP JUMPDEST PUSH1 0x40 MLOAD PUSH2 0x50 SWAP2 SWAP1 PUSH2 0x166 JUMP JUMPDEST PUSH1 0x40 MLOAD DUP1 SWAP2 SUB SWAP1 RETURN JUMPDEST PUSH2 0x6C PUSH2 0x67 CALLDATASIZE PUSH1 0x4 PUSH2 0x281 JUMP JUMPDEST PUSH2 0x100 JUMP JUMPDEST STOP JUMPDEST PUSH1 0x60 PUSH1 0x0 DUP1 SLOAD PUSH2 0x7D SWAP1 PUSH2 0x2D2 JUMP JUMPDEST DUP1 PUSH1 0x1F ADD PUSH1 0x20 DUP1 SWAP2 DIV MUL PUSH1 0x20 ADD PUSH1 0x40 MLOAD SWAP1 DUP2 ADD PUSH1 0x40 MSTORE DUP1 SWAP3 SWAP2 SWAP1 DUP2 DUP2 MSTORE PUSH1 0x20 ADD DUP3 DUP1 SLOAD PUSH2 0xA9 SWAP1 PUSH2 0x2D2 JUMP JUMPDEST DUP1 ISZERO PUSH2 0xF6 JUMPI DUP1 PUSH1 0x1F LT PUSH2 0xCB JUMPI PUSH2 0x100 DUP1 DUP4 SLOAD DIV MUL DUP4 MSTORE SWAP2 PUSH1 0x20 ADD SWAP2 PUSH2 0xF6 JUMP JUMPDEST DUP3 ADD SWAP2 SWAP1 PUSH1 0x0 MSTORE PUSH1 0x20 PUSH1 0x0 KECCAK256 SWAP1 JUMPDEST DUP2 SLOAD DUP2 MSTORE SWAP1 PUSH1 0x1 ADD SWAP1 PUSH1 0x20 ADD DUP1 DUP4 GT PUSH2 0xD9 JUMPI DUP3 SWAP1 SUB PUSH1 0x1F AND DUP3 ADD SWAP2 JUMPDEST POP POP POP POP POP SWAP1 POP SWAP1 JUMP JUMPDEST PUSH1 0x0 PUSH2 0x10C DUP3 DUP3 PUSH2 0x3A4 JUMP JUMPDEST POP POP JUMP JUMPDEST PUSH1 0x0 JUMPDEST DUP4 DUP2 LT ISZERO PUSH2 0x12B JUMPI DUP2 DUP2 ADD MLOAD DUP4 DUP3 ADD MSTORE PUSH1 0x20 ADD PUSH2 0x113 JUMP JUMPDEST POP POP PUSH1 0x0 SWAP2 ADD MSTORE JUMP JUMPDEST PUSH1 0x0 PUSH2 0x13E DUP3 MLOAD SWAP1 JUMP JUMPDEST DUP1 DUP5 MSTORE PUSH1 0x20 DUP5 ADD SWAP4 POP PUSH2 0x155 DUP2 DUP6 PUSH1 0x20 DUP7 ADD PUSH2 0x110 JUMP JUMPDEST PUSH1 0x1F ADD PUSH1 0x1F NOT AND SWAP3 SWAP1 SWAP3 ADD SWAP3 SWAP2 POP POP JUMP JUMPDEST PUSH1 0x20 DUP1 DUP3 MSTORE DUP2 ADD PUSH2 0x177 DUP2 DUP5 PUSH2 0x134 JUMP JUMPDEST SWAP4 SWAP3 POP POP POP JUMP JUMPDEST PUSH4 0x4E487B71 PUSH1 0xE0 SHL PUSH1 0x0 MSTORE PUSH1 0x41 PUSH1 0x4 MSTORE PUSH1 0x24 PUSH1 0x0 REVERT JUMPDEST PUSH1 0x1F NOT PUSH1 0x1F DUP4 ADD AND DUP2 ADD DUP2 DUP2 LT PUSH8 0xFFFFFFFFFFFFFFFF DUP3 GT OR ISZERO PUSH2 0x1BA JUMPI PUSH2 0x1BA PUSH2 0x17E JUMP JUMPDEST PUSH1 0x40 MSTORE POP POP JUMP JUMPDEST PUSH1 0x0 PUSH2 0x1CC PUSH1 0x40 MLOAD SWAP1 JUMP JUMPDEST SWAP1 POP PUSH2 0x1D8 DUP3 DUP3 PUSH2 0x194 JUMP JUMPDEST SWAP2 SWAP1 POP JUMP JUMPDEST PUSH1 0x0 PUSH8 0xFFFFFFFFFFFFFFFF DUP3 GT ISZERO PUSH2 0x1F7 JUMPI PUSH2 0x1F7 PUSH2 0x17E JUMP JUMPDEST PUSH1 0x1F NOT PUSH1 0x1F DUP4 ADD AND PUSH1 0x20 ADD SWAP3 SWAP2 POP POP JUMP JUMPDEST DUP3 DUP2 DUP4 CALLDATACOPY POP PUSH1 0x0 SWAP2 ADD MSTORE JUMP JUMPDEST PUSH1 0x0 PUSH2 0x227 PUSH2 0x222 DUP5 PUSH2 0x1DD JUMP JUMPDEST PUSH2 0x1C1 JUMP JUMPDEST SWAP1 POP DUP3 DUP2 MSTORE PUSH1 0x20 DUP2 ADD DUP5 DUP5 DUP5 ADD GT ISZERO PUSH2 0x242 JUMPI PUSH2 0x242 PUSH1 0x0 DUP1 REVERT JUMPDEST PUSH2 0x24D DUP5 DUP3 DUP6 PUSH2 0x208 JUMP JUMPDEST POP SWAP4 SWAP3 POP POP POP JUMP JUMPDEST PUSH1 0x0 DUP3 PUSH1 0x1F DUP4 ADD SLT PUSH2 0x269 JUMPI PUSH2 0x269 PUSH1 0x0 DUP1 REVERT JUMPDEST DUP2 CALLDATALOAD PUSH2 0x279 DUP5 DUP3 PUSH1 0x20 DUP7 ADD PUSH2 0x214 JUMP JUMPDEST SWAP5 SWAP4 POP POP POP POP JUMP JUMPDEST PUSH1 0x0 PUSH1 0x20 DUP3 DUP5 SUB SLT ISZERO PUSH2 0x296 JUMPI PUSH2 0x296 PUSH1 0x0 DUP1 REVERT JUMPDEST DUP2 CALLDATALOAD PUSH8 0xFFFFFFFFFFFFFFFF DUP2 GT ISZERO PUSH2 0x2B0 JUMPI PUSH2 0x2B0 PUSH1 0x0 DUP1 REVERT JUMPDEST PUSH2 0x279 DUP5 DUP3 DUP6 ADD PUSH2 0x255 JUMP JUMPDEST PUSH4 0x4E487B71 PUSH1 0xE0 SHL PUSH1 0x0 MSTORE PUSH1 0x22 PUSH1 0x4 MSTORE PUSH1 0x24 PUSH1 0x0 REVERT JUMPDEST PUSH1 0x2 DUP2 DIV PUSH1 0x1 DUP3 AND DUP1 PUSH2 0x2E6 JUMPI PUSH1 0x7F DUP3 AND SWAP2 POP JUMPDEST PUSH1 0x20 DUP3 LT DUP2 SUB PUSH2 0x2F8 JUMPI PUSH2 0x2F8 PUSH2 0x2BC JUMP JUMPDEST POP SWAP2 SWAP1 POP JUMP JUMPDEST PUSH1 0x0 PUSH2 0x30D PUSH2 0x30A DUP4 DUP2 JUMP JUMPDEST SWAP1 JUMP JUMPDEST SWAP3 SWAP2 POP POP JUMP JUMPDEST PUSH2 0x31C DUP4 PUSH2 0x2FE JUMP JUMPDEST DUP2 SLOAD PUSH1 0x0 NOT PUSH1 0x8 SWAP5 SWAP1 SWAP5 MUL SWAP4 DUP5 SHL NOT AND SWAP3 SHL SWAP2 SWAP1 SWAP2 OR SWAP1 SSTORE POP JUMP JUMPDEST PUSH1 0x0 PUSH2 0x344 DUP2 DUP5 DUP5 PUSH2 0x313 JUMP JUMPDEST POP POP POP JUMP JUMPDEST DUP2 DUP2 LT ISZERO PUSH2 0x10C JUMPI PUSH2 0x35C PUSH1 0x0 DUP3 PUSH2 0x337 JUMP JUMPDEST PUSH1 0x1 ADD PUSH2 0x349 JUMP JUMPDEST PUSH1 0x1F DUP3 GT ISZERO PUSH2 0x344 JUMPI PUSH1 0x0 DUP2 DUP2 MSTORE PUSH1 0x20 SWAP1 KECCAK256 PUSH1 0x20 PUSH1 0x1F DUP6 ADD DIV DUP2 ADD PUSH1 0x20 DUP6 LT ISZERO PUSH2 0x38B JUMPI POP DUP1 JUMPDEST PUSH2 0x39D PUSH1 0x20 PUSH1 0x1F DUP7 ADD DIV DUP4 ADD DUP3 PUSH2 0x349 JUMP JUMPDEST POP POP POP POP POP JUMP JUMPDEST DUP2 MLOAD PUSH8 0xFFFFFFFFFFFFFFFF DUP2 GT ISZERO PUSH2 0x3BE JUMPI PUSH2 0x3BE PUSH2 0x17E JUMP JUMPDEST PUSH2 0x3C8 DUP3 SLOAD PUSH2 0x2D2 JUMP JUMPDEST PUSH2 0x3D3 DUP3 DUP3 DUP6 PUSH2 0x364 JUMP JUMPDEST PUSH1 0x20 PUSH1 0x1F DUP4 GT PUSH1 0x1 DUP2 EQ PUSH2 0x407 JUMPI PUSH1 0x0 DUP5 ISZERO PUSH2 0x3EF JUMPI POP DUP6 DUP3 ADD MLOAD JUMPDEST PUSH1 0x0 NOT PUSH1 0x8 DUP7 MUL SHR NOT DUP2 AND PUSH1 0x2 DUP7 MUL OR DUP7 SSTORE POP PUSH2 0x460 JUMP JUMPDEST PUSH1 0x0 DUP6 DUP2 MSTORE PUSH1 0x20 DUP2 KECCAK256 PUSH1 0x1F NOT DUP7 AND SWAP2 JUMPDEST DUP3 DUP2 LT ISZERO PUSH2 0x437 JUMPI DUP9 DUP6 ADD MLOAD DUP3 SSTORE PUSH1 0x20 SWAP5 DUP6 ADD SWAP5 PUSH1 0x1 SWAP1 SWAP3 ADD SWAP2 ADD PUSH2 0x417 JUMP JUMPDEST DUP7 DUP4 LT ISZERO PUSH2 0x453 JUMPI DUP5 DUP10 ADD MLOAD PUSH1 0x0 NOT PUSH1 0x1F DUP10 AND PUSH1 0x8 MUL SHR NOT AND DUP3 SSTORE JUMPDEST PUSH1 0x1 PUSH1 0x2 DUP9 MUL ADD DUP9 SSTORE POP POP POP JUMPDEST POP POP POP POP POP POP JUMP INVALID LOG2 PUSH5 0x6970667358 0x22 SLT KECCAK256 0xC4 PUSH29 0x4DFC4D2F074040ABEC0FE46A81BF6BDB2C6929F3935129AEEF0EE9F08A 0xBB PUSH5 0x736F6C6343 STOP ADDMOD AND STOP CALLER "},"methodIdentifiers":{"getPrice()":"98d5fdca","setPrice(string)":"99f486bc"}}}}}