{"contracts/DexhuneExchange.sol":{"DexhuneExchange":{"abi":[{"inputs":[],"stateMutability":"nonpayable","type":"constructor"},{"inputs":[],"name":"DepositFailed","type":"error"},{"inputs":[],"name":"FailedStringToNumberConversion","type":"error"},{"inputs":[],"name":"FailedToSendReward","type":"error"},{"inputs":[],"name":"FailedToTakeOrder","type":"error"},{"inputs":[{"internalType":"uint256","name":"balance","type":"uint256"}],"name":"InsufficientBalance","type":"error"},{"inputs":[{"internalType":"uint256","name":"listingPrice","type":"uint256"}],"name":"InsufficientBalanceForListing","type":"error"},{"inputs":[],"name":"InvalidTokenContract","type":"error"},{"inputs":[{"internalType":"uint256","name":"x","type":"uint256"},{"internalType":"uint256","name":"y","type":"uint256"}],"name":"MulDiv18Overflow","type":"error"},{"inputs":[{"internalType":"uint256","name":"x","type":"uint256"},{"internalType":"uint256","name":"y","type":"uint256"},{"internalType":"uint256","name":"denominator","type":"uint256"}],"name":"MulDivOverflow","type":"error"},{"inputs":[],"name":"NoSuitableOrderFound","type":"error"},{"inputs":[],"name":"OnlyOwnerMustSetDefaultToken","type":"error"},{"inputs":[],"name":"OrderDoesNotExist","type":"error"},{"inputs":[],"name":"OrderLimitReachedTryLater","type":"error"},{"inputs":[],"name":"ParityShouldNotHavePrice","type":"error"},{"inputs":[],"name":"RejectedZeroAmount","type":"error"},{"inputs":[{"internalType":"address","name":"contractAddr","type":"address"}],"name":"TokenAlreadyExists","type":"error"},{"inputs":[],"name":"TokenLimitReached","type":"error"},{"inputs":[],"name":"TokenNotListed","type":"error"},{"inputs":[],"name":"TokenNotSupported_TooManyDecimals","type":"error"},{"inputs":[{"internalType":"address","name":"account","type":"address"}],"name":"UnauthorizedAccount","type":"error"},{"anonymous":false,"inputs":[{"indexed":false,"internalType":"uint256","name":"amount","type":"uint256"},{"indexed":false,"internalType":"address","name":"targetAddr","type":"address"}],"name":"AVAXTransferred","type":"event"},{"anonymous":false,"inputs":[{"indexed":false,"internalType":"address","name":"addr","type":"address"}],"name":"AssignedPriceDAO","type":"event"},{"anonymous":false,"inputs":[{"indexed":false,"internalType":"uint256","name":"index","type":"uint256"},{"indexed":false,"internalType":"bool","name":"orderType","type":"bool"},{"indexed":false,"internalType":"address","name":"tokenAddr","type":"address"},{"indexed":false,"internalType":"uint256","name":"amount","type":"uint256"},{"indexed":false,"internalType":"uint256","name":"price","type":"uint256"}],"name":"OrderCreated","type":"event"},{"anonymous":false,"inputs":[{"indexed":false,"internalType":"uint256","name":"index","type":"uint256"},{"indexed":false,"internalType":"bool","name":"orderType","type":"bool"},{"indexed":false,"internalType":"address","name":"maker","type":"address"}],"name":"OrderReverted","type":"event"},{"anonymous":false,"inputs":[{"indexed":false,"internalType":"uint256","name":"index","type":"uint256"},{"indexed":false,"internalType":"bool","name":"orderType","type":"bool"},{"indexed":false,"internalType":"address","name":"maker","type":"address"},{"indexed":false,"internalType":"bool","name":"isPartial","type":"bool"}],"name":"OrderSettled","type":"event"},{"anonymous":false,"inputs":[{"indexed":false,"internalType":"uint256","name":"index","type":"uint256"},{"indexed":false,"internalType":"bool","name":"orderType","type":"bool"},{"indexed":false,"internalType":"address","name":"maker","type":"address"},{"indexed":false,"internalType":"address","name":"taker","type":"address"},{"indexed":false,"internalType":"address","name":"token","type":"address"},{"indexed":false,"internalType":"uint256","name":"amount","type":"uint256"},{"indexed":false,"internalType":"bool","name":"isPartial","type":"bool"}],"name":"OrderTaken","type":"event"},{"anonymous":false,"inputs":[{"indexed":true,"internalType":"string","name":"name","type":"string"},{"indexed":true,"internalType":"string","name":"symbol","type":"string"},{"indexed":false,"internalType":"enum DexhuneExchangeBase.PricingScheme","name":"pricingScheme","type":"uint8"},{"indexed":false,"internalType":"address","name":"addr","type":"address"},{"indexed":false,"internalType":"uint256","name":"index","type":"uint256"}],"name":"TokenListed","type":"event"},{"anonymous":false,"inputs":[{"indexed":false,"internalType":"uint256","name":"amount","type":"uint256"},{"indexed":false,"internalType":"address","name":"targetAddr","type":"address"},{"indexed":false,"internalType":"address","name":"tokenAddr","type":"address"}],"name":"TokenTransferred","type":"event"},{"anonymous":false,"inputs":[{"indexed":false,"internalType":"address","name":"oldOwner","type":"address"},{"indexed":false,"internalType":"address","name":"newOwner","type":"address"}],"name":"TransferredOwnership","type":"event"},{"inputs":[{"internalType":"address","name":"addr","type":"address"}],"name":"assignPriceDAO","outputs":[],"stateMutability":"nonpayable","type":"function"},{"inputs":[],"name":"clearOrders","outputs":[],"stateMutability":"payable","type":"function"},{"inputs":[{"internalType":"address","name":"tokenAddr","type":"address"}],"name":"createBuyOrder","outputs":[],"stateMutability":"payable","type":"function"},{"inputs":[{"internalType":"address","name":"tokenAddr","type":"address"},{"internalType":"uint256","name":"amount","type":"uint256"}],"name":"createSellOrder","outputs":[],"stateMutability":"nonpayable","type":"function"},{"inputs":[{"internalType":"address","name":"tokenAddr","type":"address"}],"name":"deposit","outputs":[],"stateMutability":"payable","type":"function"},{"inputs":[{"internalType":"address","name":"tokenAddr","type":"address"},{"internalType":"uint256","name":"amount","type":"uint256"}],"name":"depositToken","outputs":[],"stateMutability":"nonpayable","type":"function"},{"inputs":[{"internalType":"address","name":"tokenAddr","type":"address"},{"internalType":"address","name":"fromAddress","type":"address"},{"internalType":"uint256","name":"amount","type":"uint256"}],"name":"depositTokenFrom","outputs":[],"stateMutability":"nonpayable","type":"function"},{"inputs":[],"name":"getBalance","outputs":[{"internalType":"uint256","name":"","type":"uint256"}],"stateMutability":"view","type":"function"},{"inputs":[{"internalType":"address","name":"tokenAddr","type":"address"},{"internalType":"address","name":"parityAddr","type":"address"},{"internalType":"uint256","name":"reward","type":"uint256"},{"internalType":"uint256","name":"rewardThreshold","type":"uint256"}],"name":"listParityToken","outputs":[],"stateMutability":"nonpayable","type":"function"},{"inputs":[{"internalType":"address","name":"tokenAddr","type":"address"},{"internalType":"uint256","name":"reward","type":"uint256"},{"internalType":"uint256","name":"rewardThreshold","type":"uint256"},{"internalType":"string","name":"price","type":"string"}],"name":"listToken","outputs":[],"stateMutability":"nonpayable","type":"function"},{"inputs":[],"name":"listingCost","outputs":[{"internalType":"uint256","name":"","type":"uint256"}],"stateMutability":"view","type":"function"},{"inputs":[{"internalType":"uint256","name":"","type":"uint256"}],"name":"orders","outputs":[{"internalType":"address payable","name":"makerAddr","type":"address"},{"internalType":"address","name":"tokenAddr","type":"address"},{"internalType":"bool","name":"orderType","type":"bool"},{"internalType":"uint256","name":"created","type":"uint256"},{"internalType":"uint256","name":"rewardAmount","type":"uint256"},{"internalType":"uint256","name":"price","type":"uint256"},{"internalType":"uint256","name":"principal","type":"uint256"},{"internalType":"uint256","name":"pending","type":"uint256"}],"stateMutability":"view","type":"function"},{"inputs":[],"name":"owner","outputs":[{"internalType":"address","name":"","type":"address"}],"stateMutability":"view","type":"function"},{"inputs":[{"internalType":"address","name":"tokenAddr","type":"address"},{"internalType":"bool","name":"isAVAX","type":"bool"}],"name":"queryBalance","outputs":[{"internalType":"uint256","name":"","type":"uint256"}],"stateMutability":"view","type":"function"},{"inputs":[{"internalType":"address","name":"tokenAddr","type":"address"},{"internalType":"bool","name":"orderType","type":"bool"}],"name":"settleOrders","outputs":[],"stateMutability":"nonpayable","type":"function"},{"inputs":[{"internalType":"address","name":"tokenAddr","type":"address"},{"internalType":"uint256","name":"amount","type":"uint256"}],"name":"takeBuyOrder","outputs":[],"stateMutability":"nonpayable","type":"function"},{"inputs":[{"internalType":"address","name":"tokenAddr","type":"address"}],"name":"takeSellOrder","outputs":[],"stateMutability":"payable","type":"function"},{"inputs":[{"internalType":"address","name":"_address","type":"address"}],"name":"transferOwnership","outputs":[],"stateMutability":"nonpayable","type":"function"},{"inputs":[{"internalType":"address","name":"tokenAddr","type":"address"}],"name":"updateTokenBalance","outputs":[],"stateMutability":"nonpayable","type":"function"},{"inputs":[{"internalType":"uint256","name":"index","type":"uint256"}],"name":"viewOrder","outputs":[{"components":[{"internalType":"address payable","name":"makerAddr","type":"address"},{"internalType":"address","name":"tokenAddr","type":"address"},{"internalType":"bool","name":"orderType","type":"bool"},{"internalType":"uint256","name":"created","type":"uint256"},{"internalType":"uint256","name":"rewardAmount","type":"uint256"},{"internalType":"uint256","name":"price","type":"uint256"},{"internalType":"uint256","name":"principal","type":"uint256"},{"internalType":"uint256","name":"pending","type":"uint256"}],"internalType":"struct DexhuneExchangeBase.Order","name":"","type":"tuple"}],"stateMutability":"view","type":"function"},{"inputs":[{"internalType":"address","name":"makerAddr","type":"address"},{"internalType":"uint256","name":"index","type":"uint256"}],"name":"viewOrderByMaker","outputs":[{"components":[{"internalType":"address payable","name":"makerAddr","type":"address"},{"internalType":"address","name":"tokenAddr","type":"address"},{"internalType":"bool","name":"orderType","type":"bool"},{"internalType":"uint256","name":"created","type":"uint256"},{"internalType":"uint256","name":"rewardAmount","type":"uint256"},{"internalType":"uint256","name":"price","type":"uint256"},{"internalType":"uint256","name":"principal","type":"uint256"},{"internalType":"uint256","name":"pending","type":"uint256"}],"internalType":"struct DexhuneExchangeBase.Order","name":"","type":"tuple"}],"stateMutability":"view","type":"function"},{"inputs":[{"internalType":"address","name":"tokenAddr","type":"address"},{"internalType":"uint256","name":"index","type":"uint256"}],"name":"viewOrderByToken","outputs":[{"components":[{"internalType":"address payable","name":"makerAddr","type":"address"},{"internalType":"address","name":"tokenAddr","type":"address"},{"internalType":"bool","name":"orderType","type":"bool"},{"internalType":"uint256","name":"created","type":"uint256"},{"internalType":"uint256","name":"rewardAmount","type":"uint256"},{"internalType":"uint256","name":"price","type":"uint256"},{"internalType":"uint256","name":"principal","type":"uint256"},{"internalType":"uint256","name":"pending","type":"uint256"}],"internalType":"struct DexhuneExchangeBase.Order","name":"","type":"tuple"}],"stateMutability":"view","type":"function"},{"inputs":[],"name":"viewPrice","outputs":[{"internalType":"uint256","name":"","type":"uint256"}],"stateMutability":"view","type":"function"},{"inputs":[{"internalType":"address","name":"tokenAddr","type":"address"}],"name":"viewToken","outputs":[{"components":[{"internalType":"uint256","name":"tokenNo","type":"uint256"},{"internalType":"string","name":"name","type":"string"},{"internalType":"string","name":"sym","type":"string"},{"internalType":"address","name":"addr","type":"address"},{"internalType":"address","name":"parityAddr","type":"address"},{"internalType":"uint256","name":"reward","type":"uint256"},{"internalType":"uint256","name":"rewardThreshold","type":"uint256"},{"internalType":"enum DexhuneExchangeBase.PricingScheme","name":"scheme","type":"uint8"},{"internalType":"uint256","name":"price","type":"uint256"},{"internalType":"uint256","name":"orders","type":"uint256"}],"internalType":"struct DexhuneExchangeBase.TokenDataModel","name":"","type":"tuple"}],"stateMutability":"view","type":"function"},{"inputs":[{"internalType":"uint256","name":"tokenNo","type":"uint256"}],"name":"viewTokenByIndex","outputs":[{"components":[{"internalType":"uint256","name":"tokenNo","type":"uint256"},{"internalType":"string","name":"name","type":"string"},{"internalType":"string","name":"sym","type":"string"},{"internalType":"address","name":"addr","type":"address"},{"internalType":"address","name":"parityAddr","type":"address"},{"internalType":"uint256","name":"reward","type":"uint256"},{"internalType":"uint256","name":"rewardThreshold","type":"uint256"},{"internalType":"enum DexhuneExchangeBase.PricingScheme","name":"scheme","type":"uint8"},{"internalType":"uint256","name":"price","type":"uint256"},{"internalType":"uint256","name":"orders","type":"uint256"}],"internalType":"struct DexhuneExchangeBase.TokenDataModel","name":"","type":"tuple"}],"stateMutability":"view","type":"function"}],"evm":{"bytecode":{"linkReferences":{},"object":"60806040526103e8600155600380546200001c9160049162000043565b503480156200002a57600080fd5b50600080546001600160a01b0319163317905562000178565b828054828255906000526020600020906007028101928215620001105760005260206000209160070282015b828111156200011057825482546001600160a01b03199081166001600160a01b039283161784556001808601805491860180549384169290941691821784555460ff600160a01b91829004161515026001600160a81b0319909216171790556002808401549083015560038084015490830155600480840154908301556005808401549083015560068084015490830155600792830192909101906200006f565b506200011e92915062000122565b5090565b5b808211156200011e5780546001600160a01b03191681556001810180546001600160a81b0319169055600060028201819055600382018190556004820181905560058201819055600682015560070162000123565b61473f80620001886000396000f3fe6080604052600436106101965760003560e01c806387b337e8116100e1578063a85c38ef1161008a578063d7dcdcec11610064578063d7dcdcec14610441578063db34a67914610456578063f2fde38b14610476578063f340fa011461049657600080fd5b8063a85c38ef146103da578063c201e47c1461040e578063d29800651461042e57600080fd5b8063a08b5bba116100bb578063a08b5bba14610384578063a262b73f146103a4578063a5b6f92a146103c457600080fd5b806387b337e81461032f5780638da5cb5b1461034f5780639351769f1461037c57600080fd5b80634d9ea07d116101435780636daf69451161011d5780636daf6945146102dc5780637c38d663146102ef57806386f179d21461030f57600080fd5b80634d9ea07d1461027c5780635264c8d91461029c578063673cf82a146102bc57600080fd5b8063338b5dea11610174578063338b5dea1461021a5780633b174f0f1461023c5780633ef738561461025c57600080fd5b8063076d782e1461019b57806312065fe0146101d15780631f5d2641146101ed575b600080fd5b3480156101a757600080fd5b506101bb6101b6366004613a20565b6104a9565b6040516101c89190613b11565b60405180910390f35b3480156101dd57600080fd5b50475b6040516101c89190613b20565b3480156101f957600080fd5b5061020d610208366004613b2e565b61064a565b6040516101c89190613cc3565b34801561022657600080fd5b5061023a610235366004613a20565b61065b565b005b34801561024857600080fd5b506101e0610257366004613ce7565b61066a565b34801561026857600080fd5b506101bb610277366004613a20565b6106b0565b34801561028857600080fd5b5061023a610297366004613e08565b610792565b3480156102a857600080fd5b5061023a6102b7366004613e87565b6107a8565b3480156102c857600080fd5b5061020d6102d7366004613edf565b6107c6565b61023a6102ea366004613edf565b6107f7565b3480156102fb57600080fd5b506101bb61030a366004613b2e565b610860565b34801561031b57600080fd5b5061023a61032a366004613edf565b610978565b34801561033b57600080fd5b5061023a61034a366004613edf565b6109dd565b34801561035b57600080fd5b5060005461036f906001600160a01b031681565b6040516101c89190613f00565b61023a610a7f565b34801561039057600080fd5b5061023a61039f366004613f0e565b610d1a565b3480156103b057600080fd5b5061023a6103bf366004613a20565b610d2a565b3480156103d057600080fd5b506101e060015481565b3480156103e657600080fd5b506103fa6103f5366004613b2e565b610df6565b6040516101c8989796959493929190613f5e565b34801561041a57600080fd5b5061023a610429366004613ce7565b610e5e565b61023a61043c366004613edf565b610ffd565b34801561044d57600080fd5b50600b546101e0565b34801561046257600080fd5b5061023a610471366004613a20565b611066565b34801561048257600080fd5b5061023a610491366004613edf565b61110a565b61023a6104a4366004613edf565b611170565b61050560405180610100016040528060006001600160a01b0316815260200160006001600160a01b0316815260200160001515815260200160008152602001600081526020016000815260200160008152602001600081525090565b6001600160a01b03831660009081526007602090815260408083208054825181850281018501909352808352919290919083018282801561056557602002820191906000526020600020905b815481526020019060010190808311610551575b505050505090508051831061058d57604051635dcaf2d760e01b815260040160405180910390fd5b60008184815181106105a1576105a1613fd5565b60200260200101519050600381815481106105be576105be613fd5565b6000918252602091829020604080516101008101825260079390930290910180546001600160a01b039081168452600182015490811694840194909452600160a01b90930460ff161515908201526002820154606082015260038201546080820152600482015460a0820152600582015460c082015260069091015460e0820152925050505b92915050565b610652613966565b610644826111a0565b6106668233836114ba565b5050565b6000811561069157506001600160a01b038216600090815260086020526040902054610644565b506001600160a01b038216600090815260096020526040902054610644565b61070c60405180610100016040528060006001600160a01b0316815260200160006001600160a01b0316815260200160001515815260200160008152602001600081526020016000815260200160008152602001600081525090565b6001600160a01b038316600090815260066020908152604080832080548251818502810185019093528083529192909190830182828015610565576020028201919060005260206000209081548152602001906001019080831161055157505050505090508051831061058d57604051635dcaf2d760e01b815260040160405180910390fd5b6107a28460008585600086611527565b50505050565b6107a284600184848760405180602001604052806000815250611527565b6107ce613966565b6001600160a01b0382166000908152600560205260409020546107f0816111a0565b9392505050565b3460008080610806858561167a565b925090508061082857604051632050d62b60e01b815260040160405180910390fd5b6003828154811061083b5761083b613fd5565b90600052602060002090600702019250610859836000848789611815565b5050505050565b6108bc60405180610100016040528060006001600160a01b0316815260200160006001600160a01b0316815260200160001515815260200160008152602001600081526020016000815260200160008152602001600081525090565b60035482106108de57604051635dcaf2d760e01b815260040160405180910390fd5b600382815481106108f1576108f1613fd5565b6000918252602091829020604080516101008101825260079390930290910180546001600160a01b039081168452600182015490811694840194909452600160a01b90930460ff161515908201526002820154606082015260038201546080820152600482015460a0820152600582015460c082015260069091015460e082015292915050565b610980611a84565b600d80546001600160a01b0319166001600160a01b0383161790556109a3611acc565b7f15b49408719c001f91d2ec31b653d0929170f69ff422ef39920e9c280910115e816040516109d29190613f00565b60405180910390a150565b60006109e882611ba2565b905060008161016001516001600160a01b03166370a08231306040518263ffffffff1660e01b8152600401610a1d9190613f00565b602060405180830381865afa158015610a3a573d6000803e3d6000fd5b505050506040513d601f19601f82011682018060405250810190610a5e9190613ff6565b6001600160a01b039093166000908152600960205260409020929092555050565b33600090815260076020526040812080549091901515908082610aa3576064610aa6565b60325b6040805161010081018252600080825260208201819052918101829052606081018290526080810182905260a0810182905260c0810182905260e08101829052919250904290600354610afc5750505050505050565b8515610c275786545b600081118015610b155750848611155b15610c1d57878181548110610b2c57610b2c613fd5565b9060005260206000200154935060038481548110610b4c57610b4c613fd5565b6000918252602091829020604080516101008101825260079390930290910180546001600160a01b039081168452600182015490811694840194909452600160a01b90930460ff1615159082015260028201546060820181905260038301546080830152600483015460a0830152600583015460c083015260069092015460e08201529250602890610bde908561402d565b1115610c0b57610bee8285611e5f565b15610c0b57610bfd8882611fbd565b85610c0781614040565b9650505b80610c158161405a565b915050610b05565b5050505050505050565b6003545b600081118015610c3b5750848611155b15610c1d5760038181548110610c5357610c53613fd5565b6000918252602091829020604080516101008101825260079390930290910180546001600160a01b039081168452600182015490811694840194909452600160a01b90930460ff1615159082015260028201546060820181905260038301546080830152600483015460a0830152600583015460c083015260069092015460e08201529250602890610ce5908561402d565b1115610d0857610cf58285611e5f565b15610d085785610d0481614040565b9650505b80610d128161405a565b915050610c2b565b610d258383836114ba565b505050565b60008111610d4b576040516342257ced60e11b815260040160405180910390fd5b6000610d568361203e565b600a810154909150610d72906001600160a01b031633846120b6565b610d8f576040516379cacff160e01b815260040160405180910390fd5b6001600160a01b0383166000908152600a602052604081208054849290610db7908490614075565b90915550506001600160a01b03831660009081526009602052604081208054849290610de4908490614075565b90915550610d25905081600084612151565b60048181548110610e0657600080fd5b600091825260209091206007909102018054600182015460028301546003840154600485015460058601546006909601546001600160a01b03958616975094841695600160a01b90940460ff16949293919290919088565b6000610e6983611ba2565b60808101516001600160a01b03166000908152600660205260408120919250808085610ead576001600160a01b038716600090815260086020526040902054610ec7565b6001600160a01b0387166000908152600960205260409020545b84549091505b600082118015610edd5750600081115b15610fa9576000858281548110610ef657610ef6613fd5565b9060005260206000200154905060038181548110610f1657610f16613fd5565b906000526020600020906007020194508715158560010160149054906101000a900460ff16151514610f485750610f97565b8715610f6457610f5a8786848661280e565b9094509250610f75565b610f6f858484612911565b90945092505b83610f805750610f97565b610f8a8683611fbd565b610f95600382612a0d565b505b80610fa18161405a565b915050610ecd565b508515610fd45760808501516001600160a01b03166000908152600960205260409020819055610ff4565b60808501516001600160a01b031660009081526008602052604090208190555b50505050505050565b348061101c576040516342257ced60e11b815260040160405180910390fd5b60006110278361203e565b6001600160a01b038416600090815260086020526040812080549293508492909190611054908490614075565b90915550610d25905081600184612151565b600061107183611ba2565b90506000806000611082868661167a565b92509050806110a457604051632050d62b60e01b815260040160405180910390fd5b6110b484610160015187876120b6565b6110d1576040516379cacff160e01b815260040160405180910390fd5b600382815481106110e4576110e4613fd5565b9060005260206000209060070201925061110283600184888a611815565b505050505050565b611112611a84565b600080546001600160a01b038381166001600160a01b0319831681179093556040519116917f850b3df64837d7d518b45f5aa64d104652c3b80eb5b34a8e3d9eb666cb7cdea591611164918491614088565b60405180910390a15050565b6001600160a01b03811660009081526008602052604081208054349290611198908490614075565b909155505050565b6111a8613966565b8115806111b6575060025482115b156111d4576040516362f850f760e11b815260040160405180910390fd5b600060026111e360018561402d565b815481106111f3576111f3613fd5565b90600052602060002090600b02016040518061018001604052908160008201805461121d906140b9565b80601f0160208091040260200160405190810160405280929190818152602001828054611249906140b9565b80156112965780601f1061126b57610100808354040283529160200191611296565b820191906000526020600020905b81548152906001019060200180831161127957829003601f168201915b505050505081526020016001820180546112af906140b9565b80601f01602080910402602001604051908101604052809291908181526020018280546112db906140b9565b80156113285780601f106112fd57610100808354040283529160200191611328565b820191906000526020600020905b81548152906001019060200180831161130b57829003601f168201915b5050509183525050600282015460ff90811660208301526003830154604083015260048301546001600160a01b0390811660608401526005840154908116608084015260a090920191600160a01b900416600181111561138a5761138a613ba5565b600181111561139b5761139b613ba5565b815260200160068201548152602001600782015481526020016008820154815260200160098201548152602001600a820160009054906101000a90046001600160a01b03166001600160a01b03166001600160a01b031681525050905060006006600083608001516001600160a01b03166001600160a01b03168152602001908152602001600020805490509050604051806101400160405280858152602001836000015181526020018360200151815260200183608001516001600160a01b031681526020018360a001516001600160a01b031681526020018360e00151815260200183610100015181526020018360c0015160018111156114a0576114a0613ba5565b815261012090930151602084015260409092015292915050565b60006114c584611ba2565b90506114d781610160015184846120b6565b6114f4576040516379cacff160e01b815260040160405180910390fd5b6001600160a01b0384166000908152600960205260408120805484929061151c908490614075565b909155505050505050565b60025415801561157a576000546001600160a01b03163314611575576040517fac966a5200000000000000000000000000000000000000000000000000000000815260040160405180910390fd5b600095505b6001600160a01b038716600090815260056020526040902054879080158015906115a5575060025415155b156115e757816040517f15ef3a570000000000000000000000000000000000000000000000000000000081526004016115de9190613f00565b60405180910390fd5b600254620f424011611625576040517f53bb24f900000000000000000000000000000000000000000000000000000000815260040160405180910390fd5b60008089600181111561163a5761163a613ba5565b0361165857836116545761164d85612b7a565b9050611658565b5060015b611660612bca565b61166e83828b898c8c612e95565b50505050505050505050565b6000806116d960405180610100016040528060006001600160a01b0316815260200160006001600160a01b0316815260200160001515815260200160008152602001600081526020016000815260200160008152602001600081525090565b6001600160a01b038516600090815260066020526040812080549091905b600081118015611705575081155b1561180957600083828154811061171e5761171e613fd5565b906000526020600020015490506003818154811061173e5761173e613fd5565b6000918252602091829020604080516101008101825260079390930290910180546001600160a01b039081168452600182015490811694840194909452600160a01b90930460ff161515908201526002820154606082015260038201546080820152600482015460a0820152600582015460c082015260069091015460e082018190529095508890036117d757600192508095506117f6565b821580156117e95750878560e0015110155b156117f657600192508095505b50806118018161405a565b9150506116f7565b50935050509250929050565b600061182082611ba2565b905082808661183d5761183a85846040015160ff16613354565b91505b6003868154811061185057611850613fd5565b60009182526020909120600790910201600481015460058201548254929a5090918482148015916001600160a01b0316906118a9578a1561189c57611895868561337d565b92506118a9565b6118a68685613389565b92505b60408051610100810182528d546001600160a01b03908116825260018f01549081166020830152600160a01b900460ff1615159181019190915260028d0154606082015260038d0154608082015260048d015460a082015260058d015460c082015260068d015460e082015261192190888886613395565b60008b61192e5783611930565b865b9050821561197257868d600601600082825461194c919061402d565b92505081905550838d6005016000828254611967919061402d565b9091555061197d9050565b61197d60038c612a0d565b60e08801516000811580159061199857508961010001518310155b90508015611a2c5760808a0180516001600160a01b039081166000908152600a6020908152604080832054945190931682526009905290812054906119dd838361402d565b905084811115611a28576119f28d33876134d5565b611a28576040517fc96d18b500000000000000000000000000000000000000000000000000000000815260040160405180910390fd5b5050505b7fd18715c1e0d5b06959a9b12a3c5d857ce3698a58f6ac5bc7726bd7df86476f408d8f86338e608001518d8b604051611a6b9796959493929190614127565b60405180910390a1505050505050505050505050505050565b6000546001600160a01b03163314611aca57336040517f32b2baa30000000000000000000000000000000000000000000000000000000081526004016115de9190613f00565b565b600c5415801590611aea575060f0600c5442611ae8919061402d565b105b15611af157565b600d54604080517f98d5fdca00000000000000000000000000000000000000000000000000000000815290516000926001600160a01b0316916398d5fdca91600480830192869291908290030181865afa158015611b53573d6000803e3d6000fd5b505050506040513d6000823e601f3d908101601f19168201604052611b7b91908101906141e7565b9050600080611b89836135b7565b915091508015611b9957600b8290555b505042600c5550565b611c0f6040805161018081018252606080825260208201819052600092820183905281018290526080810182905260a081018290529060c082019081526020016000815260200160008152602001600081526020016000815260200160006001600160a01b031681525090565b6001600160a01b038216600090815260056020526040902054801580611c36575060025481115b15611c54576040516362f850f760e11b815260040160405180910390fd5b6002611c6160018361402d565b81548110611c7157611c71613fd5565b90600052602060002090600b020160405180610180016040529081600082018054611c9b906140b9565b80601f0160208091040260200160405190810160405280929190818152602001828054611cc7906140b9565b8015611d145780601f10611ce957610100808354040283529160200191611d14565b820191906000526020600020905b815481529060010190602001808311611cf757829003601f168201915b50505050508152602001600182018054611d2d906140b9565b80601f0160208091040260200160405190810160405280929190818152602001828054611d59906140b9565b8015611da65780601f10611d7b57610100808354040283529160200191611da6565b820191906000526020600020905b815481529060010190602001808311611d8957829003601f168201915b5050509183525050600282015460ff90811660208301526003830154604083015260048301546001600160a01b0390811660608401526005840154908116608084015260a090920191600160a01b9004166001811115611e0857611e08613ba5565b6001811115611e1957611e19613ba5565b815260068201546020820152600782015460408201526008820154606082015260098201546080820152600a909101546001600160a01b031660a0909101529392505050565b600080611e6f8460200151611ba2565b9050836040015115611ed757611e8d84600001518560c001516136e9565b611e9b576000915050610644565b60c084015160808201516001600160a01b031660009081526008602052604081208054909190611ecc90849061402d565b90915550611f659050565b611eea8185600001518660c001516134d5565b611ef8576000915050610644565b60c084015160808201516001600160a01b03166000908152600a602052604081208054909190611f2990849061402d565b909155505060c084015160808201516001600160a01b031660009081526009602052604081208054909190611f5f90849061402d565b90915550505b7f3d8da260c5e35dcba4a38c844b979a7c70c6fdbed58be53da6e817ef6a2541e08385604001518660000151604051611fa093929190614222565b60405180910390a1611fb3600384612a0d565b5060019392505050565b8154600090611fce9060019061402d565b905080821461201357828181548110611fe957611fe9613fd5565b906000526020600020015483838154811061200657612006613fd5565b6000918252602090912001555b828054806120235761202361424a565b60019003818190600052602060002001600090559055505050565b6001600160a01b038116600090815260056020526040812054801580612065575060025481115b15612083576040516362f850f760e11b815260040160405180910390fd5b600261209060018361402d565b815481106120a0576120a0613fd5565b90600052602060002090600b0201915050919050565b6040517f23b872dd0000000000000000000000000000000000000000000000000000000081526000906001600160a01b038516906323b872dd9061210290869030908790600401614260565b6020604051808303816000875af192505050801561213d575060408051601f3d908101601f1916820190925261213a91810190614293565b60015b612149575060006107f0565b949350505050565b6000806005850154600160a01b900460ff16600181111561217457612174613ba5565b0361219857612181611acc565b612191600b54856008015461337d565b9050612544565b60016005850154600160a01b900460ff1660018111156121ba576121ba613ba5565b036125445760008460090154600014806121e4575060f08560090154426121e1919061402d565b10155b9050801561253a576000600260008154811061220257612202613fd5565b90600052602060002090600b02016040518061018001604052908160008201805461222c906140b9565b80601f0160208091040260200160405190810160405280929190818152602001828054612258906140b9565b80156122a55780601f1061227a576101008083540402835291602001916122a5565b820191906000526020600020905b81548152906001019060200180831161228857829003601f168201915b505050505081526020016001820180546122be906140b9565b80601f01602080910402602001604051908101604052809291908181526020018280546122ea906140b9565b80156123375780601f1061230c57610100808354040283529160200191612337565b820191906000526020600020905b81548152906001019060200180831161231a57829003601f168201915b5050509183525050600282015460ff90811660208301526003830154604083015260048301546001600160a01b0390811660608401526005840154908116608084015260a090920191600160a01b900416600181111561239957612399613ba5565b60018111156123aa576123aa613ba5565b81526006820154602082015260078201546040808301919091526008830154606083015260098301546080830152600a928301546001600160a01b0390811660a0909301929092529189015461016084015160058b015493516370a0823160e01b815294955090821693909260009285926370a082319261242f921690600401613f00565b602060405180830381865afa15801561244c573d6000803e3d6000fd5b505050506040513d601f19601f820116820180604052508101906124709190613ff6565b60058a01546040516370a0823160e01b81529192506000916001600160a01b03858116926370a08231926124aa9290911690600401613f00565b602060405180830381865afa1580156124c7573d6000803e3d6000fd5b505050506040513d601f19601f820116820180604052508101906124eb9190613ff6565b60028b015490915061250190839060ff16613354565b915061251481866040015160ff16613354565b9050612520818361337d565b60088b018190554260098c01559650612542945050505050565b846008015491505b505b600083156125705760028501546125699061256390859060ff16613354565b83613389565b9050612590565b600285015461258d9061258790859060ff16613354565b8361337d565b90505b6000856007015483106125a4575060068501545b604080516101008101825233815260048801546001600160a01b039081166020830190815288151593830193845242606084019081526080840186815260a0850189815260c086018b815260e087018a8152600380546001818101835560008381528b5160079093027fc2575a0e9e593c00f959f8c92f12db2869c3395a3b0502d05e2516446f71f85b81018054948d166001600160a01b03199095169490941790935598517fc2575a0e9e593c00f959f8c92f12db2869c3395a3b0502d05e2516446f71f85c830180549d511515600160a01b0274ffffffffffffffffffffffffffffffffffffffffff19909e1691909b16179b909b1790985594517fc2575a0e9e593c00f959f8c92f12db2869c3395a3b0502d05e2516446f71f85d88015592517fc2575a0e9e593c00f959f8c92f12db2869c3395a3b0502d05e2516446f71f85e87015590517fc2575a0e9e593c00f959f8c92f12db2869c3395a3b0502d05e2516446f71f85f860155517fc2575a0e9e593c00f959f8c92f12db2869c3395a3b0502d05e2516446f71f860850155517fc2575a0e9e593c00f959f8c92f12db2869c3395a3b0502d05e2516446f71f8619093019290925590549192909161276f919061402d565b3360009081526007602090815260408083208054600181810183559185528385200185905560048d0180546001600160a01b039081168652600685528386208054938401815586529390942001849055915491519293507f96d694e92c01c8197b4cf2ecb0ec03be940cc6e384cbdfb2afb329375a0be252926127fc9285928c929116908b908b906142b4565b60405180910390a15050505050505050565b600080600080866006015485109050801561282b57849150612833565b866006015491505b865461284a9089906001600160a01b0316846134d5565b1561289957612859828661402d565b945080156128945781876006016000828254612875919061402d565b9250508190555061288e8760060154886004015461337d565b60058801555b6128a7565b600085935093505050612908565b600187015487546040517fbdb78cc9b5d01bdac074df120cc9776d231060cdcdcc8c7f6c2039f67a5e626f926128f8928a92600160a01b90920460ff16916001600160a01b03909116908690614300565b60405180910390a1159250839150505b94509492505050565b600080600080866006015486109050801561292e57859150612936565b866006015491505b865461294b906001600160a01b0316836136e9565b156129fb5761295a828761402d565b955080156129955781876006016000828254612976919061402d565b9250508190555061298f87600601548860040154613389565b60058801555b600187015487546040517fbdb78cc9b5d01bdac074df120cc9776d231060cdcdcc8c7f6c2039f67a5e626f926129e6928992600160a01b90920460ff16916001600160a01b03909116908690614300565b60405180910390a1159250849150612a059050565b6000869350935050505b935093915050565b8154600090612a1e9060019061402d565b9050808214612b0057828181548110612a3957612a39613fd5565b9060005260206000209060070201838381548110612a5957612a59613fd5565b60009182526020909120825460079092020180546001600160a01b03199081166001600160a01b039384161782556001808501805491840180549384169290951691821785555460ff600160a01b918290041615150274ffffffffffffffffffffffffffffffffffffffffff199092161717909155600280830154908201556003808301549082015560048083015490820155600580830154908201556006918201549101555b82805480612b1057612b1061424a565b60008281526020812060076000199093019283020180546001600160a01b031916815560018101805474ffffffffffffffffffffffffffffffffffffffffff1916905560028101829055600381018290556004810182905560058101829055600601559055505050565b6000806000612b88846135b7565b9150915080612bc3576040517fe6f7d2c700000000000000000000000000000000000000000000000000000000815260040160405180910390fd5b5092915050565b600254600003612bd657565b60006002600081548110612bec57612bec613fd5565b90600052602060002090600b020160405180610180016040529081600082018054612c16906140b9565b80601f0160208091040260200160405190810160405280929190818152602001828054612c42906140b9565b8015612c8f5780601f10612c6457610100808354040283529160200191612c8f565b820191906000526020600020905b815481529060010190602001808311612c7257829003601f168201915b50505050508152602001600182018054612ca8906140b9565b80601f0160208091040260200160405190810160405280929190818152602001828054612cd4906140b9565b8015612d215780601f10612cf657610100808354040283529160200191612d21565b820191906000526020600020905b815481529060010190602001808311612d0457829003601f168201915b5050509183525050600282015460ff90811660208301526003830154604083015260048301546001600160a01b0390811660608401526005840154908116608084015260a090920191600160a01b9004166001811115612d8357612d83613ba5565b6001811115612d9457612d94613ba5565b815260068201546020820152600782015460408201526008820154606082015260098201546080820152600a909101546001600160a01b031660a090910152610160810151600154919250612dea9133906120b6565b612e24576001546040517fca114a020000000000000000000000000000000000000000000000000000000081526004016115de9190613b20565b60015460808201516001600160a01b031660009081526009602052604081208054909190612e53908490614075565b9250508190555060006103e86005600154612e6e919061433e565b612e78919061436c565b90508060016000828254612e8c9190614075565b90915550505050565b60008690506060806000806000856001600160a01b03166370a08231306040518263ffffffff1660e01b8152600401612ece9190613f00565b602060405180830381865afa925050508015612f07575060408051601f3d908101601f19168201909252612f0491810190613ff6565b60015b612f3d576040517f29bdfb3400000000000000000000000000000000000000000000000000000000815260040160405180910390fd5b809250866001600160a01b031663313ce5676040518163ffffffff1660e01b8152600401602060405180830381865afa925050508015612f9a575060408051601f3d908101601f19168201909252612f9791810190614394565b60015b612fa75760129150612faa565b91505b601260ff83161115612fe8576040517f432c0a5d00000000000000000000000000000000000000000000000000000000815260040160405180910390fd5b612ff48260ff1661375f565b9350866001600160a01b03166306fdde036040518163ffffffff1660e01b8152600401600060405180830381865afa92505050801561305557506040513d6000823e601f3d908101601f1916820160405261305291908101906141e7565b60015b1561305d5795505b866001600160a01b03166395d89b416040518163ffffffff1660e01b8152600401600060405180830381865afa9250505080156130bc57506040513d6000823e601f3d908101601f191682016040526130b991908101906141e7565b60015b156130c45794505b5060006040518061018001604052808781526020018681526020018360ff1681526020018581526020018e6001600160a01b031681526020018b6001600160a01b031681526020018c600181111561311e5761311e613ba5565b8152602081018b9052604081018a9052606081018e90526000608082018190526001600160a01b038a1660a09092019190915260028054600181018255915281519192508291600b9091027f405787fa12a823e0f2b7631cc41b3ba8828b3321ca811111fa75cd3aa3bb5ace019081906131989082614446565b50602082015160018201906131ad9082614446565b50604082015160028201805460ff191660ff9092169190911790556060820151600382015560808201516004820180546001600160a01b03199081166001600160a01b039384161790915560a084015160058401805492831691909316908117835560c0850151929174ffffffffffffffffffffffffffffffffffffffffff191617600160a01b83600181111561324657613246613ba5565b021790555060e082015160068201556101008201516007820155610120820151600882015561014082015160098083019190915561016090920151600a90910180546001600160a01b0319166001600160a01b03928316179055600254608084018051831660009081526005602090815260408083209490945591519093168352928352908190208590559082015190516132e1919061452b565b604051908190038120825190916132f8919061452b565b60405190819003812060c0840151608085015160025492937f2b9a73ecc76ebad22366f66b2436a1725cc4f39aa579663fc941863779316b1b9361333d939291614537565b60405180910390a350505050505050505050505050565b600081600114613376576133678261375f565b613371908461433e565b6107f0565b5090919050565b60006107f08383613780565b60006107f08383613795565b6000806000808760400151156133b55750508551839250849150336133c2565b5050855184925083915033905b6133cd8782856134d5565b6133ea576040516304de4e1d60e41b815260040160405180910390fd5b6133f482856136e9565b613411576040516304de4e1d60e41b815260040160405180910390fd5b60808701516001600160a01b03166000908152600860205260408120805486929061343d90849061402d565b909155505060808701516001600160a01b03166000908152600a6020526040902054831080156134995760808801516001600160a01b03166000908152600a60205260408120805486929061349390849061402d565b90915550505b60808801516001600160a01b0316600090815260096020526040812080548692906134c590849061402d565b9091555050505050505050505050565b6101608301516040517fa9059cbb0000000000000000000000000000000000000000000000000000000081526000916001600160a01b03169063a9059cbb906135249086908690600401614545565b6020604051808303816000875af192505050801561355f575060408051601f3d908101601f1916820190925261355c91810190614293565b60015b61356b575060006107f0565b8015612149577fa84f763be5bb36163517fb87c7af39f875a97866fdf7806eb1b3eac837ae35ea838587608001516040516135a893929190614560565b60405180910390a190506107f0565b60008080808481808080805b8551811080156135d1575083155b156136be578581815181106135e8576135e8613fd5565b016020015160f81c945060308510801590613607575060398560ff1611155b15613676578697508215613627578161361f81614588565b925050613635565b613632600a8861433e565b96505b61364082600a614693565b61364b6030876146a8565b60ff16613658919061433e565b6136629088614075565b96508688111561367157600193505b6136ac565b8460ff16602e036136ac57821561368c57600193505b600192506012915061369f82600a614693565b6136a9908861433e565b96505b806136b681614040565b9150506135c3565b50816136d9576136d6670de0b6b3a76400008761433e565b95505b5093989015975095505050505050565b6040516000906001600160a01b0384169083156108fc0290849084818181858888f1935050505015613756577f0897f9f8697c0fee5acfc2c885618e98d4f0882e71e35d182faccc1915c01ecb82846040516137469291906146c5565b60405180910390a1506001610644565b50600092915050565b60008160120361377157506001919050565b81601203600a0a90505b919050565b60006107f083670de0b6b3a7640000846137a1565b60006107f08383613883565b60008080600019858709858702925082811083820303915050806000036137db578382816137d1576137d1614356565b04925050506107f0565b83811061381a578585856040517f6c59da120000000000000000000000000000000000000000000000000000000081526004016115de939291906146e0565b60008486880960026001871981018816978890046003810283188082028403028082028403028082028403028082028403028082028403029081029092039091026000889003889004909101858311909403939093029303949094049190911702949350505050565b60008080600019848609848602925082811083820303915050806000036138b75750670de0b6b3a764000090049050610644565b670de0b6b3a764000081106138fc5784846040517fd3c0df5e0000000000000000000000000000000000000000000000000000000081526004016115de9291906146fb565b6000670de0b6b3a7640000858709620400008185030493109091037d40000000000000000000000000000000000000000000000000000000000002919091177faccb18165bd6fe31ae1cf318dc5b51eee0e1ba569b88cd74c1773b91fac106690291505092915050565b60405180610140016040528060008152602001606081526020016060815260200160006001600160a01b0316815260200160006001600160a01b031681526020016000815260200160008152602001600060018111156139c8576139c8613ba5565b815260200160008152602001600081525090565b60006001600160a01b038216610644565b6139f6816139dc565b8114613a0157600080fd5b50565b8035610644816139ed565b806139f6565b803561064481613a0f565b60008060408385031215613a3657613a36600080fd5b6000613a428585613a04565b9250506020613a5385828601613a15565b9150509250929050565b613a66816139dc565b82525050565b801515613a66565b80613a66565b8051610100830190613a8c8482613a5d565b506020820151613a9f6020850182613a5d565b506040820151613ab26040850182613a6c565b506060820151613ac56060850182613a74565b506080820151613ad86080850182613a74565b5060a0820151613aeb60a0850182613a74565b5060c0820151613afe60c0850182613a74565b5060e08201516107a260e0850182613a74565b61010081016106448284613a7a565b602081016106448284613a74565b600060208284031215613b4357613b43600080fd5b60006121498484613a15565b60005b83811015613b6a578181015183820152602001613b52565b50506000910152565b6000613b7d825190565b808452602084019350613b94818560208601613b4f565b601f01601f19169290920192915050565b634e487b7160e01b600052602160045260246000fd5b60028110613a0157613a01613ba5565b8061377b81613bbb565b600061064482613bcb565b613a6681613bd5565b8051600090610140840190613bfe8582613a74565b5060208301518482036020860152613c168282613b73565b91505060408301518482036040860152613c308282613b73565b9150506060830151613c456060860182613a5d565b506080830151613c586080860182613a5d565b5060a0830151613c6b60a0860182613a74565b5060c0830151613c7e60c0860182613a74565b5060e0830151613c9160e0860182613be0565b50610100830151613ca6610100860182613a74565b50610120830151613cbb610120860182613a74565b509392505050565b602080825281016107f08184613be9565b8015156139f6565b803561064481613cd4565b60008060408385031215613cfd57613cfd600080fd5b6000613d098585613a04565b9250506020613a5385828601613cdc565b634e487b7160e01b600052604160045260246000fd5b601f19601f830116810181811067ffffffffffffffff82111715613d5657613d56613d1a565b6040525050565b6000613d6860405190565b905061377b8282613d30565b600067ffffffffffffffff821115613d8e57613d8e613d1a565b601f19601f83011660200192915050565b82818337506000910152565b6000613dbe613db984613d74565b613d5d565b905082815260208101848484011115613dd957613dd9600080fd5b613cbb848285613d9f565b600082601f830112613df857613df8600080fd5b8135612149848260208601613dab565b60008060008060808587031215613e2157613e21600080fd5b6000613e2d8787613a04565b9450506020613e3e87828801613a15565b9350506040613e4f87828801613a15565b925050606085013567ffffffffffffffff811115613e6f57613e6f600080fd5b613e7b87828801613de4565b91505092959194509250565b60008060008060808587031215613ea057613ea0600080fd5b6000613eac8787613a04565b9450506020613ebd87828801613a04565b9350506040613ece87828801613a15565b9250506060613e7b87828801613a15565b600060208284031215613ef457613ef4600080fd5b60006121498484613a04565b602081016106448284613a5d565b600080600060608486031215613f2657613f26600080fd5b6000613f328686613a04565b9350506020613f4386828701613a04565b9250506040613f5486828701613a15565b9150509250925092565b6101008101613f6d828b613a5d565b613f7a602083018a613a5d565b613f876040830189613a6c565b613f946060830188613a74565b613fa16080830187613a74565b613fae60a0830186613a74565b613fbb60c0830185613a74565b613fc860e0830184613a74565b9998505050505050505050565b634e487b7160e01b600052603260045260246000fd5b805161064481613a0f565b60006020828403121561400b5761400b600080fd5b60006121498484613feb565b634e487b7160e01b600052601160045260246000fd5b8181038181111561064457610644614017565b6000600019820361405357614053614017565b5060010190565b6000815b91508161406d5761406d614017565b506000190190565b8082018082111561064457610644614017565b604081016140968285613a5d565b6107f06020830184613a5d565b634e487b7160e01b600052602260045260246000fd5b6002810460018216806140cd57607f821691505b6020821081036140df576140df6140a3565b50919050565b60006106446001600160a01b0383166140fc565b90565b6001600160a01b031690565b6000610644826140e5565b600061064482614108565b613a6681614113565b60e08101614135828a613a74565b6141426020830189613a6c565b61414f604083018861411e565b61415c6060830187613a5d565b6141696080830186613a5d565b61417660a0830185613a74565b61418360c0830184613a6c565b98975050505050505050565b600061419d613db984613d74565b9050828152602081018484840111156141b8576141b8600080fd5b613cbb848285613b4f565b600082601f8301126141d7576141d7600080fd5b815161214984826020860161418f565b6000602082840312156141fc576141fc600080fd5b815167ffffffffffffffff81111561421657614216600080fd5b612149848285016141c3565b606081016142308286613a74565b61423d6020830185613a6c565b612149604083018461411e565b634e487b7160e01b600052603160045260246000fd5b6060810161426e8286613a5d565b61427b6020830185613a5d565b6121496040830184613a74565b805161064481613cd4565b6000602082840312156142a8576142a8600080fd5b60006121498484614288565b60a081016142c28288613a74565b6142cf6020830187613a6c565b6142dc6040830186613a5d565b6142e96060830185613a74565b6142f66080830184613a74565b9695505050505050565b6080810161430e8287613a74565b61431b6020830186613a6c565b614328604083018561411e565b6143356060830184613a6c565b95945050505050565b818102808215838204851417612bc357612bc3614017565b634e487b7160e01b600052601260045260246000fd5b60008261437b5761437b614356565b500490565b60ff81166139f6565b805161064481614380565b6000602082840312156143a9576143a9600080fd5b60006121498484614389565b60006106446140f98381565b6143ca836143b5565b815460001960089490940293841b1916921b91909117905550565b6000610d258184846143c1565b81811015610666576144056000826143e5565b6001016143f2565b601f821115610d25576000818152602090206020601f850104810160208510156144345750805b6108596020601f8601048301826143f2565b815167ffffffffffffffff81111561446057614460613d1a565b61446a82546140b9565b61447582828561440d565b6020601f8311600181146144a957600084156144915750858201515b600019600886021c1981166002860217865550611102565b600085815260208120601f198616915b828110156144d957888501518255602094850194600190920191016144b9565b868310156144f55784890151600019601f89166008021c191682555b600160028802018855505050505050505050565b6000614513825190565b614521818560208601613b4f565b9290920192915050565b60006107f08284614509565b6060810161426e8286613be0565b604081016145538285613a5d565b6107f06020830184613a74565b6060810161456e8286613a74565b61457b6020830185613a5d565b6121496040830184613a5d565b600060ff821661405e565b80825b6001851115612908578086048111156145b1576145b1614017565b60018516156145bf57908102905b80026145cb8560011c90565b9450614596565b6000826145e1575060016107f0565b816145ee575060006107f0565b8160018114614604576002811461460e5761463b565b60019150506107f0565b60ff84111561461f5761461f614017565b8360020a91508482111561463557614635614017565b506107f0565b5060208310610133831016604e8410600b8410161715614669575081810a8381111561337157613371614017565b6146768484846001614593565b9250905081840481111561468c5761468c614017565b0292915050565b600060ff831692506107f060001984846145d2565b60ff91821691908116908282039081111561064457610644614017565b604081016146d38285613a74565b6107f0602083018461411e565b606081016146ee8286613a74565b61427b6020830185613a74565b604081016145538285613a7456fea26469706673582212200a9a510bd87c2f5169d7bd19e01f2d78063d9306d56347cb1677c942232b648d64736f6c63430008160033","opcodes":"PUSH1 0x80 PUSH1 0x40 MSTORE PUSH2 0x3E8 PUSH1 0x1 SSTORE PUSH1 0x3 DUP1 SLOAD PUSH3 0x1C SWAP2 PUSH1 0x4 SWAP2 PUSH3 0x43 JUMP JUMPDEST POP CALLVALUE DUP1 ISZERO PUSH3 0x2A JUMPI PUSH1 0x0 DUP1 REVERT JUMPDEST POP PUSH1 0x0 DUP1 SLOAD PUSH1 0x1 PUSH1 0x1 PUSH1 0xA0 SHL SUB NOT AND CALLER OR SWAP1 SSTORE PUSH3 0x178 JUMP JUMPDEST DUP3 DUP1 SLOAD DUP3 DUP3 SSTORE SWAP1 PUSH1 0x0 MSTORE PUSH1 0x20 PUSH1 0x0 KECCAK256 SWAP1 PUSH1 0x7 MUL DUP2 ADD SWAP3 DUP3 ISZERO PUSH3 0x110 JUMPI PUSH1 0x0 MSTORE PUSH1 0x20 PUSH1 0x0 KECCAK256 SWAP2 PUSH1 0x7 MUL DUP3 ADD JUMPDEST DUP3 DUP2 GT ISZERO PUSH3 0x110 JUMPI DUP3 SLOAD DUP3 SLOAD PUSH1 0x1 PUSH1 0x1 PUSH1 0xA0 SHL SUB NOT SWAP1 DUP2 AND PUSH1 0x1 PUSH1 0x1 PUSH1 0xA0 SHL SUB SWAP3 DUP4 AND OR DUP5 SSTORE PUSH1 0x1 DUP1 DUP7 ADD DUP1 SLOAD SWAP2 DUP7 ADD DUP1 SLOAD SWAP4 DUP5 AND SWAP3 SWAP1 SWAP5 AND SWAP2 DUP3 OR DUP5 SSTORE SLOAD PUSH1 0xFF PUSH1 0x1 PUSH1 0xA0 SHL SWAP2 DUP3 SWAP1 DIV AND ISZERO ISZERO MUL PUSH1 0x1 PUSH1 0x1 PUSH1 0xA8 SHL SUB NOT SWAP1 SWAP3 AND OR OR SWAP1 SSTORE PUSH1 0x2 DUP1 DUP5 ADD SLOAD SWAP1 DUP4 ADD SSTORE PUSH1 0x3 DUP1 DUP5 ADD SLOAD SWAP1 DUP4 ADD SSTORE PUSH1 0x4 DUP1 DUP5 ADD SLOAD SWAP1 DUP4 ADD SSTORE PUSH1 0x5 DUP1 DUP5 ADD SLOAD SWAP1 DUP4 ADD SSTORE PUSH1 0x6 DUP1 DUP5 ADD SLOAD SWAP1 DUP4 ADD SSTORE PUSH1 0x7 SWAP3 DUP4 ADD SWAP3 SWAP1 SWAP2 ADD SWAP1 PUSH3 0x6F JUMP JUMPDEST POP PUSH3 0x11E SWAP3 SWAP2 POP PUSH3 0x122 JUMP JUMPDEST POP SWAP1 JUMP JUMPDEST JUMPDEST DUP1 DUP3 GT ISZERO PUSH3 0x11E JUMPI DUP1 SLOAD PUSH1 0x1 PUSH1 0x1 PUSH1 0xA0 SHL SUB NOT AND DUP2 SSTORE PUSH1 0x1 DUP2 ADD DUP1 SLOAD PUSH1 0x1 PUSH1 0x1 PUSH1 0xA8 SHL SUB NOT AND SWAP1 SSTORE PUSH1 0x0 PUSH1 0x2 DUP3 ADD DUP2 SWAP1 SSTORE PUSH1 0x3 DUP3 ADD DUP2 SWAP1 SSTORE PUSH1 0x4 DUP3 ADD DUP2 SWAP1 SSTORE PUSH1 0x5 DUP3 ADD DUP2 SWAP1 SSTORE PUSH1 0x6 DUP3 ADD SSTORE PUSH1 0x7 ADD PUSH3 0x123 JUMP JUMPDEST PUSH2 0x473F DUP1 PUSH3 0x188 PUSH1 0x0 CODECOPY PUSH1 0x0 RETURN INVALID PUSH1 0x80 PUSH1 0x40 MSTORE PUSH1 0x4 CALLDATASIZE LT PUSH2 0x196 JUMPI PUSH1 0x0 CALLDATALOAD PUSH1 0xE0 SHR DUP1 PUSH4 0x87B337E8 GT PUSH2 0xE1 JUMPI DUP1 PUSH4 0xA85C38EF GT PUSH2 0x8A JUMPI DUP1 PUSH4 0xD7DCDCEC GT PUSH2 0x64 JUMPI DUP1 PUSH4 0xD7DCDCEC EQ PUSH2 0x441 JUMPI DUP1 PUSH4 0xDB34A679 EQ PUSH2 0x456 JUMPI DUP1 PUSH4 0xF2FDE38B EQ PUSH2 0x476 JUMPI DUP1 PUSH4 0xF340FA01 EQ PUSH2 0x496 JUMPI PUSH1 0x0 DUP1 REVERT JUMPDEST DUP1 PUSH4 0xA85C38EF EQ PUSH2 0x3DA JUMPI DUP1 PUSH4 0xC201E47C EQ PUSH2 0x40E JUMPI DUP1 PUSH4 0xD2980065 EQ PUSH2 0x42E JUMPI PUSH1 0x0 DUP1 REVERT JUMPDEST DUP1 PUSH4 0xA08B5BBA GT PUSH2 0xBB JUMPI DUP1 PUSH4 0xA08B5BBA EQ PUSH2 0x384 JUMPI DUP1 PUSH4 0xA262B73F EQ PUSH2 0x3A4 JUMPI DUP1 PUSH4 0xA5B6F92A EQ PUSH2 0x3C4 JUMPI PUSH1 0x0 DUP1 REVERT JUMPDEST DUP1 PUSH4 0x87B337E8 EQ PUSH2 0x32F JUMPI DUP1 PUSH4 0x8DA5CB5B EQ PUSH2 0x34F JUMPI DUP1 PUSH4 0x9351769F EQ PUSH2 0x37C JUMPI PUSH1 0x0 DUP1 REVERT JUMPDEST DUP1 PUSH4 0x4D9EA07D GT PUSH2 0x143 JUMPI DUP1 PUSH4 0x6DAF6945 GT PUSH2 0x11D JUMPI DUP1 PUSH4 0x6DAF6945 EQ PUSH2 0x2DC JUMPI DUP1 PUSH4 0x7C38D663 EQ PUSH2 0x2EF JUMPI DUP1 PUSH4 0x86F179D2 EQ PUSH2 0x30F JUMPI PUSH1 0x0 DUP1 REVERT JUMPDEST DUP1 PUSH4 0x4D9EA07D EQ PUSH2 0x27C JUMPI DUP1 PUSH4 0x5264C8D9 EQ PUSH2 0x29C JUMPI DUP1 PUSH4 0x673CF82A EQ PUSH2 0x2BC JUMPI PUSH1 0x0 DUP1 REVERT JUMPDEST DUP1 PUSH4 0x338B5DEA GT PUSH2 0x174 JUMPI DUP1 PUSH4 0x338B5DEA EQ PUSH2 0x21A JUMPI DUP1 PUSH4 0x3B174F0F EQ PUSH2 0x23C JUMPI DUP1 PUSH4 0x3EF73856 EQ PUSH2 0x25C JUMPI PUSH1 0x0 DUP1 REVERT JUMPDEST DUP1 PUSH4 0x76D782E EQ PUSH2 0x19B JUMPI DUP1 PUSH4 0x12065FE0 EQ PUSH2 0x1D1 JUMPI DUP1 PUSH4 0x1F5D2641 EQ PUSH2 0x1ED JUMPI JUMPDEST PUSH1 0x0 DUP1 REVERT JUMPDEST CALLVALUE DUP1 ISZERO PUSH2 0x1A7 JUMPI PUSH1 0x0 DUP1 REVERT JUMPDEST POP PUSH2 0x1BB PUSH2 0x1B6 CALLDATASIZE PUSH1 0x4 PUSH2 0x3A20 JUMP JUMPDEST PUSH2 0x4A9 JUMP JUMPDEST PUSH1 0x40 MLOAD PUSH2 0x1C8 SWAP2 SWAP1 PUSH2 0x3B11 JUMP JUMPDEST PUSH1 0x40 MLOAD DUP1 SWAP2 SUB SWAP1 RETURN JUMPDEST CALLVALUE DUP1 ISZERO PUSH2 0x1DD JUMPI PUSH1 0x0 DUP1 REVERT JUMPDEST POP SELFBALANCE JUMPDEST PUSH1 0x40 MLOAD PUSH2 0x1C8 SWAP2 SWAP1 PUSH2 0x3B20 JUMP JUMPDEST CALLVALUE DUP1 ISZERO PUSH2 0x1F9 JUMPI PUSH1 0x0 DUP1 REVERT JUMPDEST POP PUSH2 0x20D PUSH2 0x208 CALLDATASIZE PUSH1 0x4 PUSH2 0x3B2E JUMP JUMPDEST PUSH2 0x64A JUMP JUMPDEST PUSH1 0x40 MLOAD PUSH2 0x1C8 SWAP2 SWAP1 PUSH2 0x3CC3 JUMP JUMPDEST CALLVALUE DUP1 ISZERO PUSH2 0x226 JUMPI PUSH1 0x0 DUP1 REVERT JUMPDEST POP PUSH2 0x23A PUSH2 0x235 CALLDATASIZE PUSH1 0x4 PUSH2 0x3A20 JUMP JUMPDEST PUSH2 0x65B JUMP JUMPDEST STOP JUMPDEST CALLVALUE DUP1 ISZERO PUSH2 0x248 JUMPI PUSH1 0x0 DUP1 REVERT JUMPDEST POP PUSH2 0x1E0 PUSH2 0x257 CALLDATASIZE PUSH1 0x4 PUSH2 0x3CE7 JUMP JUMPDEST PUSH2 0x66A JUMP JUMPDEST CALLVALUE DUP1 ISZERO PUSH2 0x268 JUMPI PUSH1 0x0 DUP1 REVERT JUMPDEST POP PUSH2 0x1BB PUSH2 0x277 CALLDATASIZE PUSH1 0x4 PUSH2 0x3A20 JUMP JUMPDEST PUSH2 0x6B0 JUMP JUMPDEST CALLVALUE DUP1 ISZERO PUSH2 0x288 JUMPI PUSH1 0x0 DUP1 REVERT JUMPDEST POP PUSH2 0x23A PUSH2 0x297 CALLDATASIZE PUSH1 0x4 PUSH2 0x3E08 JUMP JUMPDEST PUSH2 0x792 JUMP JUMPDEST CALLVALUE DUP1 ISZERO PUSH2 0x2A8 JUMPI PUSH1 0x0 DUP1 REVERT JUMPDEST POP PUSH2 0x23A PUSH2 0x2B7 CALLDATASIZE PUSH1 0x4 PUSH2 0x3E87 JUMP JUMPDEST PUSH2 0x7A8 JUMP JUMPDEST CALLVALUE DUP1 ISZERO PUSH2 0x2C8 JUMPI PUSH1 0x0 DUP1 REVERT JUMPDEST POP PUSH2 0x20D PUSH2 0x2D7 CALLDATASIZE PUSH1 0x4 PUSH2 0x3EDF JUMP JUMPDEST PUSH2 0x7C6 JUMP JUMPDEST PUSH2 0x23A PUSH2 0x2EA CALLDATASIZE PUSH1 0x4 PUSH2 0x3EDF JUMP JUMPDEST PUSH2 0x7F7 JUMP JUMPDEST CALLVALUE DUP1 ISZERO PUSH2 0x2FB JUMPI PUSH1 0x0 DUP1 REVERT JUMPDEST POP PUSH2 0x1BB PUSH2 0x30A CALLDATASIZE PUSH1 0x4 PUSH2 0x3B2E JUMP JUMPDEST PUSH2 0x860 JUMP JUMPDEST CALLVALUE DUP1 ISZERO PUSH2 0x31B JUMPI PUSH1 0x0 DUP1 REVERT JUMPDEST POP PUSH2 0x23A PUSH2 0x32A CALLDATASIZE PUSH1 0x4 PUSH2 0x3EDF JUMP JUMPDEST PUSH2 0x978 JUMP JUMPDEST CALLVALUE DUP1 ISZERO PUSH2 0x33B JUMPI PUSH1 0x0 DUP1 REVERT JUMPDEST POP PUSH2 0x23A PUSH2 0x34A CALLDATASIZE PUSH1 0x4 PUSH2 0x3EDF JUMP JUMPDEST PUSH2 0x9DD JUMP JUMPDEST CALLVALUE DUP1 ISZERO PUSH2 0x35B JUMPI PUSH1 0x0 DUP1 REVERT JUMPDEST POP PUSH1 0x0 SLOAD PUSH2 0x36F SWAP1 PUSH1 0x1 PUSH1 0x1 PUSH1 0xA0 SHL SUB AND DUP2 JUMP JUMPDEST PUSH1 0x40 MLOAD PUSH2 0x1C8 SWAP2 SWAP1 PUSH2 0x3F00 JUMP JUMPDEST PUSH2 0x23A PUSH2 0xA7F JUMP JUMPDEST CALLVALUE DUP1 ISZERO PUSH2 0x390 JUMPI PUSH1 0x0 DUP1 REVERT JUMPDEST POP PUSH2 0x23A PUSH2 0x39F CALLDATASIZE PUSH1 0x4 PUSH2 0x3F0E JUMP JUMPDEST PUSH2 0xD1A JUMP JUMPDEST CALLVALUE DUP1 ISZERO PUSH2 0x3B0 JUMPI PUSH1 0x0 DUP1 REVERT JUMPDEST POP PUSH2 0x23A PUSH2 0x3BF CALLDATASIZE PUSH1 0x4 PUSH2 0x3A20 JUMP JUMPDEST PUSH2 0xD2A JUMP JUMPDEST CALLVALUE DUP1 ISZERO PUSH2 0x3D0 JUMPI PUSH1 0x0 DUP1 REVERT JUMPDEST POP PUSH2 0x1E0 PUSH1 0x1 SLOAD DUP2 JUMP JUMPDEST CALLVALUE DUP1 ISZERO PUSH2 0x3E6 JUMPI PUSH1 0x0 DUP1 REVERT JUMPDEST POP PUSH2 0x3FA PUSH2 0x3F5 CALLDATASIZE PUSH1 0x4 PUSH2 0x3B2E JUMP JUMPDEST PUSH2 0xDF6 JUMP JUMPDEST PUSH1 0x40 MLOAD PUSH2 0x1C8 SWAP9 SWAP8 SWAP7 SWAP6 SWAP5 SWAP4 SWAP3 SWAP2 SWAP1 PUSH2 0x3F5E JUMP JUMPDEST CALLVALUE DUP1 ISZERO PUSH2 0x41A JUMPI PUSH1 0x0 DUP1 REVERT JUMPDEST POP PUSH2 0x23A PUSH2 0x429 CALLDATASIZE PUSH1 0x4 PUSH2 0x3CE7 JUMP JUMPDEST PUSH2 0xE5E JUMP JUMPDEST PUSH2 0x23A PUSH2 0x43C CALLDATASIZE PUSH1 0x4 PUSH2 0x3EDF JUMP JUMPDEST PUSH2 0xFFD JUMP JUMPDEST CALLVALUE DUP1 ISZERO PUSH2 0x44D JUMPI PUSH1 0x0 DUP1 REVERT JUMPDEST POP PUSH1 0xB SLOAD PUSH2 0x1E0 JUMP JUMPDEST CALLVALUE DUP1 ISZERO PUSH2 0x462 JUMPI PUSH1 0x0 DUP1 REVERT JUMPDEST POP PUSH2 0x23A PUSH2 0x471 CALLDATASIZE PUSH1 0x4 PUSH2 0x3A20 JUMP JUMPDEST PUSH2 0x1066 JUMP JUMPDEST CALLVALUE DUP1 ISZERO PUSH2 0x482 JUMPI PUSH1 0x0 DUP1 REVERT JUMPDEST POP PUSH2 0x23A PUSH2 0x491 CALLDATASIZE PUSH1 0x4 PUSH2 0x3EDF JUMP JUMPDEST PUSH2 0x110A JUMP JUMPDEST PUSH2 0x23A PUSH2 0x4A4 CALLDATASIZE PUSH1 0x4 PUSH2 0x3EDF JUMP JUMPDEST PUSH2 0x1170 JUMP JUMPDEST PUSH2 0x505 PUSH1 0x40 MLOAD DUP1 PUSH2 0x100 ADD PUSH1 0x40 MSTORE DUP1 PUSH1 0x0 PUSH1 0x1 PUSH1 0x1 PUSH1 0xA0 SHL SUB AND DUP2 MSTORE PUSH1 0x20 ADD PUSH1 0x0 PUSH1 0x1 PUSH1 0x1 PUSH1 0xA0 SHL SUB AND DUP2 MSTORE PUSH1 0x20 ADD PUSH1 0x0 ISZERO ISZERO DUP2 MSTORE PUSH1 0x20 ADD PUSH1 0x0 DUP2 MSTORE PUSH1 0x20 ADD PUSH1 0x0 DUP2 MSTORE PUSH1 0x20 ADD PUSH1 0x0 DUP2 MSTORE PUSH1 0x20 ADD PUSH1 0x0 DUP2 MSTORE PUSH1 0x20 ADD PUSH1 0x0 DUP2 MSTORE POP SWAP1 JUMP JUMPDEST PUSH1 0x1 PUSH1 0x1 PUSH1 0xA0 SHL SUB DUP4 AND PUSH1 0x0 SWAP1 DUP2 MSTORE PUSH1 0x7 PUSH1 0x20 SWAP1 DUP2 MSTORE PUSH1 0x40 DUP1 DUP4 KECCAK256 DUP1 SLOAD DUP3 MLOAD DUP2 DUP6 MUL DUP2 ADD DUP6 ADD SWAP1 SWAP4 MSTORE DUP1 DUP4 MSTORE SWAP2 SWAP3 SWAP1 SWAP2 SWAP1 DUP4 ADD DUP3 DUP3 DUP1 ISZERO PUSH2 0x565 JUMPI PUSH1 0x20 MUL DUP3 ADD SWAP2 SWAP1 PUSH1 0x0 MSTORE PUSH1 0x20 PUSH1 0x0 KECCAK256 SWAP1 JUMPDEST DUP2 SLOAD DUP2 MSTORE PUSH1 0x20 ADD SWAP1 PUSH1 0x1 ADD SWAP1 DUP1 DUP4 GT PUSH2 0x551 JUMPI JUMPDEST POP POP POP POP POP SWAP1 POP DUP1 MLOAD DUP4 LT PUSH2 0x58D JUMPI PUSH1 0x40 MLOAD PUSH4 0x5DCAF2D7 PUSH1 0xE0 SHL DUP2 MSTORE PUSH1 0x4 ADD PUSH1 0x40 MLOAD DUP1 SWAP2 SUB SWAP1 REVERT JUMPDEST PUSH1 0x0 DUP2 DUP5 DUP2 MLOAD DUP2 LT PUSH2 0x5A1 JUMPI PUSH2 0x5A1 PUSH2 0x3FD5 JUMP JUMPDEST PUSH1 0x20 MUL PUSH1 0x20 ADD ADD MLOAD SWAP1 POP PUSH1 0x3 DUP2 DUP2 SLOAD DUP2 LT PUSH2 0x5BE JUMPI PUSH2 0x5BE PUSH2 0x3FD5 JUMP JUMPDEST PUSH1 0x0 SWAP2 DUP3 MSTORE PUSH1 0x20 SWAP2 DUP3 SWAP1 KECCAK256 PUSH1 0x40 DUP1 MLOAD PUSH2 0x100 DUP2 ADD DUP3 MSTORE PUSH1 0x7 SWAP4 SWAP1 SWAP4 MUL SWAP1 SWAP2 ADD DUP1 SLOAD PUSH1 0x1 PUSH1 0x1 PUSH1 0xA0 SHL SUB SWAP1 DUP2 AND DUP5 MSTORE PUSH1 0x1 DUP3 ADD SLOAD SWAP1 DUP2 AND SWAP5 DUP5 ADD SWAP5 SWAP1 SWAP5 MSTORE PUSH1 0x1 PUSH1 0xA0 SHL SWAP1 SWAP4 DIV PUSH1 0xFF AND ISZERO ISZERO SWAP1 DUP3 ADD MSTORE PUSH1 0x2 DUP3 ADD SLOAD PUSH1 0x60 DUP3 ADD MSTORE PUSH1 0x3 DUP3 ADD SLOAD PUSH1 0x80 DUP3 ADD MSTORE PUSH1 0x4 DUP3 ADD SLOAD PUSH1 0xA0 DUP3 ADD MSTORE PUSH1 0x5 DUP3 ADD SLOAD PUSH1 0xC0 DUP3 ADD MSTORE PUSH1 0x6 SWAP1 SWAP2 ADD SLOAD PUSH1 0xE0 DUP3 ADD MSTORE SWAP3 POP POP POP JUMPDEST SWAP3 SWAP2 POP POP JUMP JUMPDEST PUSH2 0x652 PUSH2 0x3966 JUMP JUMPDEST PUSH2 0x644 DUP3 PUSH2 0x11A0 JUMP JUMPDEST PUSH2 0x666 DUP3 CALLER DUP4 PUSH2 0x14BA JUMP JUMPDEST POP POP JUMP JUMPDEST PUSH1 0x0 DUP2 ISZERO PUSH2 0x691 JUMPI POP PUSH1 0x1 PUSH1 0x1 PUSH1 0xA0 SHL SUB DUP3 AND PUSH1 0x0 SWAP1 DUP2 MSTORE PUSH1 0x8 PUSH1 0x20 MSTORE PUSH1 0x40 SWAP1 KECCAK256 SLOAD PUSH2 0x644 JUMP JUMPDEST POP PUSH1 0x1 PUSH1 0x1 PUSH1 0xA0 SHL SUB DUP3 AND PUSH1 0x0 SWAP1 DUP2 MSTORE PUSH1 0x9 PUSH1 0x20 MSTORE PUSH1 0x40 SWAP1 KECCAK256 SLOAD PUSH2 0x644 JUMP JUMPDEST PUSH2 0x70C PUSH1 0x40 MLOAD DUP1 PUSH2 0x100 ADD PUSH1 0x40 MSTORE DUP1 PUSH1 0x0 PUSH1 0x1 PUSH1 0x1 PUSH1 0xA0 SHL SUB AND DUP2 MSTORE PUSH1 0x20 ADD PUSH1 0x0 PUSH1 0x1 PUSH1 0x1 PUSH1 0xA0 SHL SUB AND DUP2 MSTORE PUSH1 0x20 ADD PUSH1 0x0 ISZERO ISZERO DUP2 MSTORE PUSH1 0x20 ADD PUSH1 0x0 DUP2 MSTORE PUSH1 0x20 ADD PUSH1 0x0 DUP2 MSTORE PUSH1 0x20 ADD PUSH1 0x0 DUP2 MSTORE PUSH1 0x20 ADD PUSH1 0x0 DUP2 MSTORE PUSH1 0x20 ADD PUSH1 0x0 DUP2 MSTORE POP SWAP1 JUMP JUMPDEST PUSH1 0x1 PUSH1 0x1 PUSH1 0xA0 SHL SUB DUP4 AND PUSH1 0x0 SWAP1 DUP2 MSTORE PUSH1 0x6 PUSH1 0x20 SWAP1 DUP2 MSTORE PUSH1 0x40 DUP1 DUP4 KECCAK256 DUP1 SLOAD DUP3 MLOAD DUP2 DUP6 MUL DUP2 ADD DUP6 ADD SWAP1 SWAP4 MSTORE DUP1 DUP4 MSTORE SWAP2 SWAP3 SWAP1 SWAP2 SWAP1 DUP4 ADD DUP3 DUP3 DUP1 ISZERO PUSH2 0x565 JUMPI PUSH1 0x20 MUL DUP3 ADD SWAP2 SWAP1 PUSH1 0x0 MSTORE PUSH1 0x20 PUSH1 0x0 KECCAK256 SWAP1 DUP2 SLOAD DUP2 MSTORE PUSH1 0x20 ADD SWAP1 PUSH1 0x1 ADD SWAP1 DUP1 DUP4 GT PUSH2 0x551 JUMPI POP POP POP POP POP SWAP1 POP DUP1 MLOAD DUP4 LT PUSH2 0x58D JUMPI PUSH1 0x40 MLOAD PUSH4 0x5DCAF2D7 PUSH1 0xE0 SHL DUP2 MSTORE PUSH1 0x4 ADD PUSH1 0x40 MLOAD DUP1 SWAP2 SUB SWAP1 REVERT JUMPDEST PUSH2 0x7A2 DUP5 PUSH1 0x0 DUP6 DUP6 PUSH1 0x0 DUP7 PUSH2 0x1527 JUMP JUMPDEST POP POP POP POP JUMP JUMPDEST PUSH2 0x7A2 DUP5 PUSH1 0x1 DUP5 DUP5 DUP8 PUSH1 0x40 MLOAD DUP1 PUSH1 0x20 ADD PUSH1 0x40 MSTORE DUP1 PUSH1 0x0 DUP2 MSTORE POP PUSH2 0x1527 JUMP JUMPDEST PUSH2 0x7CE PUSH2 0x3966 JUMP JUMPDEST PUSH1 0x1 PUSH1 0x1 PUSH1 0xA0 SHL SUB DUP3 AND PUSH1 0x0 SWAP1 DUP2 MSTORE PUSH1 0x5 PUSH1 0x20 MSTORE PUSH1 0x40 SWAP1 KECCAK256 SLOAD PUSH2 0x7F0 DUP2 PUSH2 0x11A0 JUMP JUMPDEST SWAP4 SWAP3 POP POP POP JUMP JUMPDEST CALLVALUE PUSH1 0x0 DUP1 DUP1 PUSH2 0x806 DUP6 DUP6 PUSH2 0x167A JUMP JUMPDEST SWAP3 POP SWAP1 POP DUP1 PUSH2 0x828 JUMPI PUSH1 0x40 MLOAD PUSH4 0x2050D62B PUSH1 0xE0 SHL DUP2 MSTORE PUSH1 0x4 ADD PUSH1 0x40 MLOAD DUP1 SWAP2 SUB SWAP1 REVERT JUMPDEST PUSH1 0x3 DUP3 DUP2 SLOAD DUP2 LT PUSH2 0x83B JUMPI PUSH2 0x83B PUSH2 0x3FD5 JUMP JUMPDEST SWAP1 PUSH1 0x0 MSTORE PUSH1 0x20 PUSH1 0x0 KECCAK256 SWAP1 PUSH1 0x7 MUL ADD SWAP3 POP PUSH2 0x859 DUP4 PUSH1 0x0 DUP5 DUP8 DUP10 PUSH2 0x1815 JUMP JUMPDEST POP POP POP POP POP JUMP JUMPDEST PUSH2 0x8BC PUSH1 0x40 MLOAD DUP1 PUSH2 0x100 ADD PUSH1 0x40 MSTORE DUP1 PUSH1 0x0 PUSH1 0x1 PUSH1 0x1 PUSH1 0xA0 SHL SUB AND DUP2 MSTORE PUSH1 0x20 ADD PUSH1 0x0 PUSH1 0x1 PUSH1 0x1 PUSH1 0xA0 SHL SUB AND DUP2 MSTORE PUSH1 0x20 ADD PUSH1 0x0 ISZERO ISZERO DUP2 MSTORE PUSH1 0x20 ADD PUSH1 0x0 DUP2 MSTORE PUSH1 0x20 ADD PUSH1 0x0 DUP2 MSTORE PUSH1 0x20 ADD PUSH1 0x0 DUP2 MSTORE PUSH1 0x20 ADD PUSH1 0x0 DUP2 MSTORE PUSH1 0x20 ADD PUSH1 0x0 DUP2 MSTORE POP SWAP1 JUMP JUMPDEST PUSH1 0x3 SLOAD DUP3 LT PUSH2 0x8DE JUMPI PUSH1 0x40 MLOAD PUSH4 0x5DCAF2D7 PUSH1 0xE0 SHL DUP2 MSTORE PUSH1 0x4 ADD PUSH1 0x40 MLOAD DUP1 SWAP2 SUB SWAP1 REVERT JUMPDEST PUSH1 0x3 DUP3 DUP2 SLOAD DUP2 LT PUSH2 0x8F1 JUMPI PUSH2 0x8F1 PUSH2 0x3FD5 JUMP JUMPDEST PUSH1 0x0 SWAP2 DUP3 MSTORE PUSH1 0x20 SWAP2 DUP3 SWAP1 KECCAK256 PUSH1 0x40 DUP1 MLOAD PUSH2 0x100 DUP2 ADD DUP3 MSTORE PUSH1 0x7 SWAP4 SWAP1 SWAP4 MUL SWAP1 SWAP2 ADD DUP1 SLOAD PUSH1 0x1 PUSH1 0x1 PUSH1 0xA0 SHL SUB SWAP1 DUP2 AND DUP5 MSTORE PUSH1 0x1 DUP3 ADD SLOAD SWAP1 DUP2 AND SWAP5 DUP5 ADD SWAP5 SWAP1 SWAP5 MSTORE PUSH1 0x1 PUSH1 0xA0 SHL SWAP1 SWAP4 DIV PUSH1 0xFF AND ISZERO ISZERO SWAP1 DUP3 ADD MSTORE PUSH1 0x2 DUP3 ADD SLOAD PUSH1 0x60 DUP3 ADD MSTORE PUSH1 0x3 DUP3 ADD SLOAD PUSH1 0x80 DUP3 ADD MSTORE PUSH1 0x4 DUP3 ADD SLOAD PUSH1 0xA0 DUP3 ADD MSTORE PUSH1 0x5 DUP3 ADD SLOAD PUSH1 0xC0 DUP3 ADD MSTORE PUSH1 0x6 SWAP1 SWAP2 ADD SLOAD PUSH1 0xE0 DUP3 ADD MSTORE SWAP3 SWAP2 POP POP JUMP JUMPDEST PUSH2 0x980 PUSH2 0x1A84 JUMP JUMPDEST PUSH1 0xD DUP1 SLOAD PUSH1 0x1 PUSH1 0x1 PUSH1 0xA0 SHL SUB NOT AND PUSH1 0x1 PUSH1 0x1 PUSH1 0xA0 SHL SUB DUP4 AND OR SWAP1 SSTORE PUSH2 0x9A3 PUSH2 0x1ACC JUMP JUMPDEST PUSH32 0x15B49408719C001F91D2EC31B653D0929170F69FF422EF39920E9C280910115E DUP2 PUSH1 0x40 MLOAD PUSH2 0x9D2 SWAP2 SWAP1 PUSH2 0x3F00 JUMP JUMPDEST PUSH1 0x40 MLOAD DUP1 SWAP2 SUB SWAP1 LOG1 POP JUMP JUMPDEST PUSH1 0x0 PUSH2 0x9E8 DUP3 PUSH2 0x1BA2 JUMP JUMPDEST SWAP1 POP PUSH1 0x0 DUP2 PUSH2 0x160 ADD MLOAD PUSH1 0x1 PUSH1 0x1 PUSH1 0xA0 SHL SUB AND PUSH4 0x70A08231 ADDRESS PUSH1 0x40 MLOAD DUP3 PUSH4 0xFFFFFFFF AND PUSH1 0xE0 SHL DUP2 MSTORE PUSH1 0x4 ADD PUSH2 0xA1D SWAP2 SWAP1 PUSH2 0x3F00 JUMP JUMPDEST PUSH1 0x20 PUSH1 0x40 MLOAD DUP1 DUP4 SUB DUP2 DUP7 GAS STATICCALL ISZERO DUP1 ISZERO PUSH2 0xA3A JUMPI RETURNDATASIZE PUSH1 0x0 DUP1 RETURNDATACOPY RETURNDATASIZE PUSH1 0x0 REVERT JUMPDEST POP POP POP POP PUSH1 0x40 MLOAD RETURNDATASIZE PUSH1 0x1F NOT PUSH1 0x1F DUP3 ADD AND DUP3 ADD DUP1 PUSH1 0x40 MSTORE POP DUP2 ADD SWAP1 PUSH2 0xA5E SWAP2 SWAP1 PUSH2 0x3FF6 JUMP JUMPDEST PUSH1 0x1 PUSH1 0x1 PUSH1 0xA0 SHL SUB SWAP1 SWAP4 AND PUSH1 0x0 SWAP1 DUP2 MSTORE PUSH1 0x9 PUSH1 0x20 MSTORE PUSH1 0x40 SWAP1 KECCAK256 SWAP3 SWAP1 SWAP3 SSTORE POP POP JUMP JUMPDEST CALLER PUSH1 0x0 SWAP1 DUP2 MSTORE PUSH1 0x7 PUSH1 0x20 MSTORE PUSH1 0x40 DUP2 KECCAK256 DUP1 SLOAD SWAP1 SWAP2 SWAP1 ISZERO ISZERO SWAP1 DUP1 DUP3 PUSH2 0xAA3 JUMPI PUSH1 0x64 PUSH2 0xAA6 JUMP JUMPDEST PUSH1 0x32 JUMPDEST PUSH1 0x40 DUP1 MLOAD PUSH2 0x100 DUP2 ADD DUP3 MSTORE PUSH1 0x0 DUP1 DUP3 MSTORE PUSH1 0x20 DUP3 ADD DUP2 SWAP1 MSTORE SWAP2 DUP2 ADD DUP3 SWAP1 MSTORE PUSH1 0x60 DUP2 ADD DUP3 SWAP1 MSTORE PUSH1 0x80 DUP2 ADD DUP3 SWAP1 MSTORE PUSH1 0xA0 DUP2 ADD DUP3 SWAP1 MSTORE PUSH1 0xC0 DUP2 ADD DUP3 SWAP1 MSTORE PUSH1 0xE0 DUP2 ADD DUP3 SWAP1 MSTORE SWAP2 SWAP3 POP SWAP1 TIMESTAMP SWAP1 PUSH1 0x3 SLOAD PUSH2 0xAFC JUMPI POP POP POP POP POP POP POP JUMP JUMPDEST DUP6 ISZERO PUSH2 0xC27 JUMPI DUP7 SLOAD JUMPDEST PUSH1 0x0 DUP2 GT DUP1 ISZERO PUSH2 0xB15 JUMPI POP DUP5 DUP7 GT ISZERO JUMPDEST ISZERO PUSH2 0xC1D JUMPI DUP8 DUP2 DUP2 SLOAD DUP2 LT PUSH2 0xB2C JUMPI PUSH2 0xB2C PUSH2 0x3FD5 JUMP JUMPDEST SWAP1 PUSH1 0x0 MSTORE PUSH1 0x20 PUSH1 0x0 KECCAK256 ADD SLOAD SWAP4 POP PUSH1 0x3 DUP5 DUP2 SLOAD DUP2 LT PUSH2 0xB4C JUMPI PUSH2 0xB4C PUSH2 0x3FD5 JUMP JUMPDEST PUSH1 0x0 SWAP2 DUP3 MSTORE PUSH1 0x20 SWAP2 DUP3 SWAP1 KECCAK256 PUSH1 0x40 DUP1 MLOAD PUSH2 0x100 DUP2 ADD DUP3 MSTORE PUSH1 0x7 SWAP4 SWAP1 SWAP4 MUL SWAP1 SWAP2 ADD DUP1 SLOAD PUSH1 0x1 PUSH1 0x1 PUSH1 0xA0 SHL SUB SWAP1 DUP2 AND DUP5 MSTORE PUSH1 0x1 DUP3 ADD SLOAD SWAP1 DUP2 AND SWAP5 DUP5 ADD SWAP5 SWAP1 SWAP5 MSTORE PUSH1 0x1 PUSH1 0xA0 SHL SWAP1 SWAP4 DIV PUSH1 0xFF AND ISZERO ISZERO SWAP1 DUP3 ADD MSTORE PUSH1 0x2 DUP3 ADD SLOAD PUSH1 0x60 DUP3 ADD DUP2 SWAP1 MSTORE PUSH1 0x3 DUP4 ADD SLOAD PUSH1 0x80 DUP4 ADD MSTORE PUSH1 0x4 DUP4 ADD SLOAD PUSH1 0xA0 DUP4 ADD MSTORE PUSH1 0x5 DUP4 ADD SLOAD PUSH1 0xC0 DUP4 ADD MSTORE PUSH1 0x6 SWAP1 SWAP3 ADD SLOAD PUSH1 0xE0 DUP3 ADD MSTORE SWAP3 POP PUSH1 0x28 SWAP1 PUSH2 0xBDE SWAP1 DUP6 PUSH2 0x402D JUMP JUMPDEST GT ISZERO PUSH2 0xC0B JUMPI PUSH2 0xBEE DUP3 DUP6 PUSH2 0x1E5F JUMP JUMPDEST ISZERO PUSH2 0xC0B JUMPI PUSH2 0xBFD DUP9 DUP3 PUSH2 0x1FBD JUMP JUMPDEST DUP6 PUSH2 0xC07 DUP2 PUSH2 0x4040 JUMP JUMPDEST SWAP7 POP POP JUMPDEST DUP1 PUSH2 0xC15 DUP2 PUSH2 0x405A JUMP JUMPDEST SWAP2 POP POP PUSH2 0xB05 JUMP JUMPDEST POP POP POP POP POP POP POP POP JUMP JUMPDEST PUSH1 0x3 SLOAD JUMPDEST PUSH1 0x0 DUP2 GT DUP1 ISZERO PUSH2 0xC3B JUMPI POP DUP5 DUP7 GT ISZERO JUMPDEST ISZERO PUSH2 0xC1D JUMPI PUSH1 0x3 DUP2 DUP2 SLOAD DUP2 LT PUSH2 0xC53 JUMPI PUSH2 0xC53 PUSH2 0x3FD5 JUMP JUMPDEST PUSH1 0x0 SWAP2 DUP3 MSTORE PUSH1 0x20 SWAP2 DUP3 SWAP1 KECCAK256 PUSH1 0x40 DUP1 MLOAD PUSH2 0x100 DUP2 ADD DUP3 MSTORE PUSH1 0x7 SWAP4 SWAP1 SWAP4 MUL SWAP1 SWAP2 ADD DUP1 SLOAD PUSH1 0x1 PUSH1 0x1 PUSH1 0xA0 SHL SUB SWAP1 DUP2 AND DUP5 MSTORE PUSH1 0x1 DUP3 ADD SLOAD SWAP1 DUP2 AND SWAP5 DUP5 ADD SWAP5 SWAP1 SWAP5 MSTORE PUSH1 0x1 PUSH1 0xA0 SHL SWAP1 SWAP4 DIV PUSH1 0xFF AND ISZERO ISZERO SWAP1 DUP3 ADD MSTORE PUSH1 0x2 DUP3 ADD SLOAD PUSH1 0x60 DUP3 ADD DUP2 SWAP1 MSTORE PUSH1 0x3 DUP4 ADD SLOAD PUSH1 0x80 DUP4 ADD MSTORE PUSH1 0x4 DUP4 ADD SLOAD PUSH1 0xA0 DUP4 ADD MSTORE PUSH1 0x5 DUP4 ADD SLOAD PUSH1 0xC0 DUP4 ADD MSTORE PUSH1 0x6 SWAP1 SWAP3 ADD SLOAD PUSH1 0xE0 DUP3 ADD MSTORE SWAP3 POP PUSH1 0x28 SWAP1 PUSH2 0xCE5 SWAP1 DUP6 PUSH2 0x402D JUMP JUMPDEST GT ISZERO PUSH2 0xD08 JUMPI PUSH2 0xCF5 DUP3 DUP6 PUSH2 0x1E5F JUMP JUMPDEST ISZERO PUSH2 0xD08 JUMPI DUP6 PUSH2 0xD04 DUP2 PUSH2 0x4040 JUMP JUMPDEST SWAP7 POP POP JUMPDEST DUP1 PUSH2 0xD12 DUP2 PUSH2 0x405A JUMP JUMPDEST SWAP2 POP POP PUSH2 0xC2B JUMP JUMPDEST PUSH2 0xD25 DUP4 DUP4 DUP4 PUSH2 0x14BA JUMP JUMPDEST POP POP POP JUMP JUMPDEST PUSH1 0x0 DUP2 GT PUSH2 0xD4B JUMPI PUSH1 0x40 MLOAD PUSH4 0x42257CED PUSH1 0xE1 SHL DUP2 MSTORE PUSH1 0x4 ADD PUSH1 0x40 MLOAD DUP1 SWAP2 SUB SWAP1 REVERT JUMPDEST PUSH1 0x0 PUSH2 0xD56 DUP4 PUSH2 0x203E JUMP JUMPDEST PUSH1 0xA DUP2 ADD SLOAD SWAP1 SWAP2 POP PUSH2 0xD72 SWAP1 PUSH1 0x1 PUSH1 0x1 PUSH1 0xA0 SHL SUB AND CALLER DUP5 PUSH2 0x20B6 JUMP JUMPDEST PUSH2 0xD8F JUMPI PUSH1 0x40 MLOAD PUSH4 0x79CACFF1 PUSH1 0xE0 SHL DUP2 MSTORE PUSH1 0x4 ADD PUSH1 0x40 MLOAD DUP1 SWAP2 SUB SWAP1 REVERT JUMPDEST PUSH1 0x1 PUSH1 0x1 PUSH1 0xA0 SHL SUB DUP4 AND PUSH1 0x0 SWAP1 DUP2 MSTORE PUSH1 0xA PUSH1 0x20 MSTORE PUSH1 0x40 DUP2 KECCAK256 DUP1 SLOAD DUP5 SWAP3 SWAP1 PUSH2 0xDB7 SWAP1 DUP5 SWAP1 PUSH2 0x4075 JUMP JUMPDEST SWAP1 SWAP2 SSTORE POP POP PUSH1 0x1 PUSH1 0x1 PUSH1 0xA0 SHL SUB DUP4 AND PUSH1 0x0 SWAP1 DUP2 MSTORE PUSH1 0x9 PUSH1 0x20 MSTORE PUSH1 0x40 DUP2 KECCAK256 DUP1 SLOAD DUP5 SWAP3 SWAP1 PUSH2 0xDE4 SWAP1 DUP5 SWAP1 PUSH2 0x4075 JUMP JUMPDEST SWAP1 SWAP2 SSTORE POP PUSH2 0xD25 SWAP1 POP DUP2 PUSH1 0x0 DUP5 PUSH2 0x2151 JUMP JUMPDEST PUSH1 0x4 DUP2 DUP2 SLOAD DUP2 LT PUSH2 0xE06 JUMPI PUSH1 0x0 DUP1 REVERT JUMPDEST PUSH1 0x0 SWAP2 DUP3 MSTORE PUSH1 0x20 SWAP1 SWAP2 KECCAK256 PUSH1 0x7 SWAP1 SWAP2 MUL ADD DUP1 SLOAD PUSH1 0x1 DUP3 ADD SLOAD PUSH1 0x2 DUP4 ADD SLOAD PUSH1 0x3 DUP5 ADD SLOAD PUSH1 0x4 DUP6 ADD SLOAD PUSH1 0x5 DUP7 ADD SLOAD PUSH1 0x6 SWAP1 SWAP7 ADD SLOAD PUSH1 0x1 PUSH1 0x1 PUSH1 0xA0 SHL SUB SWAP6 DUP7 AND SWAP8 POP SWAP5 DUP5 AND SWAP6 PUSH1 0x1 PUSH1 0xA0 SHL SWAP1 SWAP5 DIV PUSH1 0xFF AND SWAP5 SWAP3 SWAP4 SWAP2 SWAP3 SWAP1 SWAP2 SWAP1 DUP9 JUMP JUMPDEST PUSH1 0x0 PUSH2 0xE69 DUP4 PUSH2 0x1BA2 JUMP JUMPDEST PUSH1 0x80 DUP2 ADD MLOAD PUSH1 0x1 PUSH1 0x1 PUSH1 0xA0 SHL SUB AND PUSH1 0x0 SWAP1 DUP2 MSTORE PUSH1 0x6 PUSH1 0x20 MSTORE PUSH1 0x40 DUP2 KECCAK256 SWAP2 SWAP3 POP DUP1 DUP1 DUP6 PUSH2 0xEAD JUMPI PUSH1 0x1 PUSH1 0x1 PUSH1 0xA0 SHL SUB DUP8 AND PUSH1 0x0 SWAP1 DUP2 MSTORE PUSH1 0x8 PUSH1 0x20 MSTORE PUSH1 0x40 SWAP1 KECCAK256 SLOAD PUSH2 0xEC7 JUMP JUMPDEST PUSH1 0x1 PUSH1 0x1 PUSH1 0xA0 SHL SUB DUP8 AND PUSH1 0x0 SWAP1 DUP2 MSTORE PUSH1 0x9 PUSH1 0x20 MSTORE PUSH1 0x40 SWAP1 KECCAK256 SLOAD JUMPDEST DUP5 SLOAD SWAP1 SWAP2 POP JUMPDEST PUSH1 0x0 DUP3 GT DUP1 ISZERO PUSH2 0xEDD JUMPI POP PUSH1 0x0 DUP2 GT JUMPDEST ISZERO PUSH2 0xFA9 JUMPI PUSH1 0x0 DUP6 DUP3 DUP2 SLOAD DUP2 LT PUSH2 0xEF6 JUMPI PUSH2 0xEF6 PUSH2 0x3FD5 JUMP JUMPDEST SWAP1 PUSH1 0x0 MSTORE PUSH1 0x20 PUSH1 0x0 KECCAK256 ADD SLOAD SWAP1 POP PUSH1 0x3 DUP2 DUP2 SLOAD DUP2 LT PUSH2 0xF16 JUMPI PUSH2 0xF16 PUSH2 0x3FD5 JUMP JUMPDEST SWAP1 PUSH1 0x0 MSTORE PUSH1 0x20 PUSH1 0x0 KECCAK256 SWAP1 PUSH1 0x7 MUL ADD SWAP5 POP DUP8 ISZERO ISZERO DUP6 PUSH1 0x1 ADD PUSH1 0x14 SWAP1 SLOAD SWAP1 PUSH2 0x100 EXP SWAP1 DIV PUSH1 0xFF AND ISZERO ISZERO EQ PUSH2 0xF48 JUMPI POP PUSH2 0xF97 JUMP JUMPDEST DUP8 ISZERO PUSH2 0xF64 JUMPI PUSH2 0xF5A DUP8 DUP7 DUP5 DUP7 PUSH2 0x280E JUMP JUMPDEST SWAP1 SWAP5 POP SWAP3 POP PUSH2 0xF75 JUMP JUMPDEST PUSH2 0xF6F DUP6 DUP5 DUP5 PUSH2 0x2911 JUMP JUMPDEST SWAP1 SWAP5 POP SWAP3 POP JUMPDEST DUP4 PUSH2 0xF80 JUMPI POP PUSH2 0xF97 JUMP JUMPDEST PUSH2 0xF8A DUP7 DUP4 PUSH2 0x1FBD JUMP JUMPDEST PUSH2 0xF95 PUSH1 0x3 DUP3 PUSH2 0x2A0D JUMP JUMPDEST POP JUMPDEST DUP1 PUSH2 0xFA1 DUP2 PUSH2 0x405A JUMP JUMPDEST SWAP2 POP POP PUSH2 0xECD JUMP JUMPDEST POP DUP6 ISZERO PUSH2 0xFD4 JUMPI PUSH1 0x80 DUP6 ADD MLOAD PUSH1 0x1 PUSH1 0x1 PUSH1 0xA0 SHL SUB AND PUSH1 0x0 SWAP1 DUP2 MSTORE PUSH1 0x9 PUSH1 0x20 MSTORE PUSH1 0x40 SWAP1 KECCAK256 DUP2 SWAP1 SSTORE PUSH2 0xFF4 JUMP JUMPDEST PUSH1 0x80 DUP6 ADD MLOAD PUSH1 0x1 PUSH1 0x1 PUSH1 0xA0 SHL SUB AND PUSH1 0x0 SWAP1 DUP2 MSTORE PUSH1 0x8 PUSH1 0x20 MSTORE PUSH1 0x40 SWAP1 KECCAK256 DUP2 SWAP1 SSTORE JUMPDEST POP POP POP POP POP POP POP JUMP JUMPDEST CALLVALUE DUP1 PUSH2 0x101C JUMPI PUSH1 0x40 MLOAD PUSH4 0x42257CED PUSH1 0xE1 SHL DUP2 MSTORE PUSH1 0x4 ADD PUSH1 0x40 MLOAD DUP1 SWAP2 SUB SWAP1 REVERT JUMPDEST PUSH1 0x0 PUSH2 0x1027 DUP4 PUSH2 0x203E JUMP JUMPDEST PUSH1 0x1 PUSH1 0x1 PUSH1 0xA0 SHL SUB DUP5 AND PUSH1 0x0 SWAP1 DUP2 MSTORE PUSH1 0x8 PUSH1 0x20 MSTORE PUSH1 0x40 DUP2 KECCAK256 DUP1 SLOAD SWAP3 SWAP4 POP DUP5 SWAP3 SWAP1 SWAP2 SWAP1 PUSH2 0x1054 SWAP1 DUP5 SWAP1 PUSH2 0x4075 JUMP JUMPDEST SWAP1 SWAP2 SSTORE POP PUSH2 0xD25 SWAP1 POP DUP2 PUSH1 0x1 DUP5 PUSH2 0x2151 JUMP JUMPDEST PUSH1 0x0 PUSH2 0x1071 DUP4 PUSH2 0x1BA2 JUMP JUMPDEST SWAP1 POP PUSH1 0x0 DUP1 PUSH1 0x0 PUSH2 0x1082 DUP7 DUP7 PUSH2 0x167A JUMP JUMPDEST SWAP3 POP SWAP1 POP DUP1 PUSH2 0x10A4 JUMPI PUSH1 0x40 MLOAD PUSH4 0x2050D62B PUSH1 0xE0 SHL DUP2 MSTORE PUSH1 0x4 ADD PUSH1 0x40 MLOAD DUP1 SWAP2 SUB SWAP1 REVERT JUMPDEST PUSH2 0x10B4 DUP5 PUSH2 0x160 ADD MLOAD DUP8 DUP8 PUSH2 0x20B6 JUMP JUMPDEST PUSH2 0x10D1 JUMPI PUSH1 0x40 MLOAD PUSH4 0x79CACFF1 PUSH1 0xE0 SHL DUP2 MSTORE PUSH1 0x4 ADD PUSH1 0x40 MLOAD DUP1 SWAP2 SUB SWAP1 REVERT JUMPDEST PUSH1 0x3 DUP3 DUP2 SLOAD DUP2 LT PUSH2 0x10E4 JUMPI PUSH2 0x10E4 PUSH2 0x3FD5 JUMP JUMPDEST SWAP1 PUSH1 0x0 MSTORE PUSH1 0x20 PUSH1 0x0 KECCAK256 SWAP1 PUSH1 0x7 MUL ADD SWAP3 POP PUSH2 0x1102 DUP4 PUSH1 0x1 DUP5 DUP9 DUP11 PUSH2 0x1815 JUMP JUMPDEST POP POP POP POP POP POP JUMP JUMPDEST PUSH2 0x1112 PUSH2 0x1A84 JUMP JUMPDEST PUSH1 0x0 DUP1 SLOAD PUSH1 0x1 PUSH1 0x1 PUSH1 0xA0 SHL SUB DUP4 DUP2 AND PUSH1 0x1 PUSH1 0x1 PUSH1 0xA0 SHL SUB NOT DUP4 AND DUP2 OR SWAP1 SWAP4 SSTORE PUSH1 0x40 MLOAD SWAP2 AND SWAP2 PUSH32 0x850B3DF64837D7D518B45F5AA64D104652C3B80EB5B34A8E3D9EB666CB7CDEA5 SWAP2 PUSH2 0x1164 SWAP2 DUP5 SWAP2 PUSH2 0x4088 JUMP JUMPDEST PUSH1 0x40 MLOAD DUP1 SWAP2 SUB SWAP1 LOG1 POP POP JUMP JUMPDEST PUSH1 0x1 PUSH1 0x1 PUSH1 0xA0 SHL SUB DUP2 AND PUSH1 0x0 SWAP1 DUP2 MSTORE PUSH1 0x8 PUSH1 0x20 MSTORE PUSH1 0x40 DUP2 KECCAK256 DUP1 SLOAD CALLVALUE SWAP3 SWAP1 PUSH2 0x1198 SWAP1 DUP5 SWAP1 PUSH2 0x4075 JUMP JUMPDEST SWAP1 SWAP2 SSTORE POP POP POP JUMP JUMPDEST PUSH2 0x11A8 PUSH2 0x3966 JUMP JUMPDEST DUP2 ISZERO DUP1 PUSH2 0x11B6 JUMPI POP PUSH1 0x2 SLOAD DUP3 GT JUMPDEST ISZERO PUSH2 0x11D4 JUMPI PUSH1 0x40 MLOAD PUSH4 0x62F850F7 PUSH1 0xE1 SHL DUP2 MSTORE PUSH1 0x4 ADD PUSH1 0x40 MLOAD DUP1 SWAP2 SUB SWAP1 REVERT JUMPDEST PUSH1 0x0 PUSH1 0x2 PUSH2 0x11E3 PUSH1 0x1 DUP6 PUSH2 0x402D JUMP JUMPDEST DUP2 SLOAD DUP2 LT PUSH2 0x11F3 JUMPI PUSH2 0x11F3 PUSH2 0x3FD5 JUMP JUMPDEST SWAP1 PUSH1 0x0 MSTORE PUSH1 0x20 PUSH1 0x0 KECCAK256 SWAP1 PUSH1 0xB MUL ADD PUSH1 0x40 MLOAD DUP1 PUSH2 0x180 ADD PUSH1 0x40 MSTORE SWAP1 DUP2 PUSH1 0x0 DUP3 ADD DUP1 SLOAD PUSH2 0x121D SWAP1 PUSH2 0x40B9 JUMP JUMPDEST DUP1 PUSH1 0x1F ADD PUSH1 0x20 DUP1 SWAP2 DIV MUL PUSH1 0x20 ADD PUSH1 0x40 MLOAD SWAP1 DUP2 ADD PUSH1 0x40 MSTORE DUP1 SWAP3 SWAP2 SWAP1 DUP2 DUP2 MSTORE PUSH1 0x20 ADD DUP3 DUP1 SLOAD PUSH2 0x1249 SWAP1 PUSH2 0x40B9 JUMP JUMPDEST DUP1 ISZERO PUSH2 0x1296 JUMPI DUP1 PUSH1 0x1F LT PUSH2 0x126B JUMPI PUSH2 0x100 DUP1 DUP4 SLOAD DIV MUL DUP4 MSTORE SWAP2 PUSH1 0x20 ADD SWAP2 PUSH2 0x1296 JUMP JUMPDEST DUP3 ADD SWAP2 SWAP1 PUSH1 0x0 MSTORE PUSH1 0x20 PUSH1 0x0 KECCAK256 SWAP1 JUMPDEST DUP2 SLOAD DUP2 MSTORE SWAP1 PUSH1 0x1 ADD SWAP1 PUSH1 0x20 ADD DUP1 DUP4 GT PUSH2 0x1279 JUMPI DUP3 SWAP1 SUB PUSH1 0x1F AND DUP3 ADD SWAP2 JUMPDEST POP POP POP POP POP DUP2 MSTORE PUSH1 0x20 ADD PUSH1 0x1 DUP3 ADD DUP1 SLOAD PUSH2 0x12AF SWAP1 PUSH2 0x40B9 JUMP JUMPDEST DUP1 PUSH1 0x1F ADD PUSH1 0x20 DUP1 SWAP2 DIV MUL PUSH1 0x20 ADD PUSH1 0x40 MLOAD SWAP1 DUP2 ADD PUSH1 0x40 MSTORE DUP1 SWAP3 SWAP2 SWAP1 DUP2 DUP2 MSTORE PUSH1 0x20 ADD DUP3 DUP1 SLOAD PUSH2 0x12DB SWAP1 PUSH2 0x40B9 JUMP JUMPDEST DUP1 ISZERO PUSH2 0x1328 JUMPI DUP1 PUSH1 0x1F LT PUSH2 0x12FD JUMPI PUSH2 0x100 DUP1 DUP4 SLOAD DIV MUL DUP4 MSTORE SWAP2 PUSH1 0x20 ADD SWAP2 PUSH2 0x1328 JUMP JUMPDEST DUP3 ADD SWAP2 SWAP1 PUSH1 0x0 MSTORE PUSH1 0x20 PUSH1 0x0 KECCAK256 SWAP1 JUMPDEST DUP2 SLOAD DUP2 MSTORE SWAP1 PUSH1 0x1 ADD SWAP1 PUSH1 0x20 ADD DUP1 DUP4 GT PUSH2 0x130B JUMPI DUP3 SWAP1 SUB PUSH1 0x1F AND DUP3 ADD SWAP2 JUMPDEST POP POP POP SWAP2 DUP4 MSTORE POP POP PUSH1 0x2 DUP3 ADD SLOAD PUSH1 0xFF SWAP1 DUP2 AND PUSH1 0x20 DUP4 ADD MSTORE PUSH1 0x3 DUP4 ADD SLOAD PUSH1 0x40 DUP4 ADD MSTORE PUSH1 0x4 DUP4 ADD SLOAD PUSH1 0x1 PUSH1 0x1 PUSH1 0xA0 SHL SUB SWAP1 DUP2 AND PUSH1 0x60 DUP5 ADD MSTORE PUSH1 0x5 DUP5 ADD SLOAD SWAP1 DUP2 AND PUSH1 0x80 DUP5 ADD MSTORE PUSH1 0xA0 SWAP1 SWAP3 ADD SWAP2 PUSH1 0x1 PUSH1 0xA0 SHL SWAP1 DIV AND PUSH1 0x1 DUP2 GT ISZERO PUSH2 0x138A JUMPI PUSH2 0x138A PUSH2 0x3BA5 JUMP JUMPDEST PUSH1 0x1 DUP2 GT ISZERO PUSH2 0x139B JUMPI PUSH2 0x139B PUSH2 0x3BA5 JUMP JUMPDEST DUP2 MSTORE PUSH1 0x20 ADD PUSH1 0x6 DUP3 ADD SLOAD DUP2 MSTORE PUSH1 0x20 ADD PUSH1 0x7 DUP3 ADD SLOAD DUP2 MSTORE PUSH1 0x20 ADD PUSH1 0x8 DUP3 ADD SLOAD DUP2 MSTORE PUSH1 0x20 ADD PUSH1 0x9 DUP3 ADD SLOAD DUP2 MSTORE PUSH1 0x20 ADD PUSH1 0xA DUP3 ADD PUSH1 0x0 SWAP1 SLOAD SWAP1 PUSH2 0x100 EXP SWAP1 DIV PUSH1 0x1 PUSH1 0x1 PUSH1 0xA0 SHL SUB AND PUSH1 0x1 PUSH1 0x1 PUSH1 0xA0 SHL SUB AND PUSH1 0x1 PUSH1 0x1 PUSH1 0xA0 SHL SUB AND DUP2 MSTORE POP POP SWAP1 POP PUSH1 0x0 PUSH1 0x6 PUSH1 0x0 DUP4 PUSH1 0x80 ADD MLOAD PUSH1 0x1 PUSH1 0x1 PUSH1 0xA0 SHL SUB AND PUSH1 0x1 PUSH1 0x1 PUSH1 0xA0 SHL SUB AND DUP2 MSTORE PUSH1 0x20 ADD SWAP1 DUP2 MSTORE PUSH1 0x20 ADD PUSH1 0x0 KECCAK256 DUP1 SLOAD SWAP1 POP SWAP1 POP PUSH1 0x40 MLOAD DUP1 PUSH2 0x140 ADD PUSH1 0x40 MSTORE DUP1 DUP6 DUP2 MSTORE PUSH1 0x20 ADD DUP4 PUSH1 0x0 ADD MLOAD DUP2 MSTORE PUSH1 0x20 ADD DUP4 PUSH1 0x20 ADD MLOAD DUP2 MSTORE PUSH1 0x20 ADD DUP4 PUSH1 0x80 ADD MLOAD PUSH1 0x1 PUSH1 0x1 PUSH1 0xA0 SHL SUB AND DUP2 MSTORE PUSH1 0x20 ADD DUP4 PUSH1 0xA0 ADD MLOAD PUSH1 0x1 PUSH1 0x1 PUSH1 0xA0 SHL SUB AND DUP2 MSTORE PUSH1 0x20 ADD DUP4 PUSH1 0xE0 ADD MLOAD DUP2 MSTORE PUSH1 0x20 ADD DUP4 PUSH2 0x100 ADD MLOAD DUP2 MSTORE PUSH1 0x20 ADD DUP4 PUSH1 0xC0 ADD MLOAD PUSH1 0x1 DUP2 GT ISZERO PUSH2 0x14A0 JUMPI PUSH2 0x14A0 PUSH2 0x3BA5 JUMP JUMPDEST DUP2 MSTORE PUSH2 0x120 SWAP1 SWAP4 ADD MLOAD PUSH1 0x20 DUP5 ADD MSTORE PUSH1 0x40 SWAP1 SWAP3 ADD MSTORE SWAP3 SWAP2 POP POP JUMP JUMPDEST PUSH1 0x0 PUSH2 0x14C5 DUP5 PUSH2 0x1BA2 JUMP JUMPDEST SWAP1 POP PUSH2 0x14D7 DUP2 PUSH2 0x160 ADD MLOAD DUP5 DUP5 PUSH2 0x20B6 JUMP JUMPDEST PUSH2 0x14F4 JUMPI PUSH1 0x40 MLOAD PUSH4 0x79CACFF1 PUSH1 0xE0 SHL DUP2 MSTORE PUSH1 0x4 ADD PUSH1 0x40 MLOAD DUP1 SWAP2 SUB SWAP1 REVERT JUMPDEST PUSH1 0x1 PUSH1 0x1 PUSH1 0xA0 SHL SUB DUP5 AND PUSH1 0x0 SWAP1 DUP2 MSTORE PUSH1 0x9 PUSH1 0x20 MSTORE PUSH1 0x40 DUP2 KECCAK256 DUP1 SLOAD DUP5 SWAP3 SWAP1 PUSH2 0x151C SWAP1 DUP5 SWAP1 PUSH2 0x4075 JUMP JUMPDEST SWAP1 SWAP2 SSTORE POP POP POP POP POP POP JUMP JUMPDEST PUSH1 0x2 SLOAD ISZERO DUP1 ISZERO PUSH2 0x157A JUMPI PUSH1 0x0 SLOAD PUSH1 0x1 PUSH1 0x1 PUSH1 0xA0 SHL SUB AND CALLER EQ PUSH2 0x1575 JUMPI PUSH1 0x40 MLOAD PUSH32 0xAC966A5200000000000000000000000000000000000000000000000000000000 DUP2 MSTORE PUSH1 0x4 ADD PUSH1 0x40 MLOAD DUP1 SWAP2 SUB SWAP1 REVERT JUMPDEST PUSH1 0x0 SWAP6 POP JUMPDEST PUSH1 0x1 PUSH1 0x1 PUSH1 0xA0 SHL SUB DUP8 AND PUSH1 0x0 SWAP1 DUP2 MSTORE PUSH1 0x5 PUSH1 0x20 MSTORE PUSH1 0x40 SWAP1 KECCAK256 SLOAD DUP8 SWAP1 DUP1 ISZERO DUP1 ISZERO SWAP1 PUSH2 0x15A5 JUMPI POP PUSH1 0x2 SLOAD ISZERO ISZERO JUMPDEST ISZERO PUSH2 0x15E7 JUMPI DUP2 PUSH1 0x40 MLOAD PUSH32 0x15EF3A5700000000000000000000000000000000000000000000000000000000 DUP2 MSTORE PUSH1 0x4 ADD PUSH2 0x15DE SWAP2 SWAP1 PUSH2 0x3F00 JUMP JUMPDEST PUSH1 0x40 MLOAD DUP1 SWAP2 SUB SWAP1 REVERT JUMPDEST PUSH1 0x2 SLOAD PUSH3 0xF4240 GT PUSH2 0x1625 JUMPI PUSH1 0x40 MLOAD PUSH32 0x53BB24F900000000000000000000000000000000000000000000000000000000 DUP2 MSTORE PUSH1 0x4 ADD PUSH1 0x40 MLOAD DUP1 SWAP2 SUB SWAP1 REVERT JUMPDEST PUSH1 0x0 DUP1 DUP10 PUSH1 0x1 DUP2 GT ISZERO PUSH2 0x163A JUMPI PUSH2 0x163A PUSH2 0x3BA5 JUMP JUMPDEST SUB PUSH2 0x1658 JUMPI DUP4 PUSH2 0x1654 JUMPI PUSH2 0x164D DUP6 PUSH2 0x2B7A JUMP JUMPDEST SWAP1 POP PUSH2 0x1658 JUMP JUMPDEST POP PUSH1 0x1 JUMPDEST PUSH2 0x1660 PUSH2 0x2BCA JUMP JUMPDEST PUSH2 0x166E DUP4 DUP3 DUP12 DUP10 DUP13 DUP13 PUSH2 0x2E95 JUMP JUMPDEST POP POP POP POP POP POP POP POP POP POP JUMP JUMPDEST PUSH1 0x0 DUP1 PUSH2 0x16D9 PUSH1 0x40 MLOAD DUP1 PUSH2 0x100 ADD PUSH1 0x40 MSTORE DUP1 PUSH1 0x0 PUSH1 0x1 PUSH1 0x1 PUSH1 0xA0 SHL SUB AND DUP2 MSTORE PUSH1 0x20 ADD PUSH1 0x0 PUSH1 0x1 PUSH1 0x1 PUSH1 0xA0 SHL SUB AND DUP2 MSTORE PUSH1 0x20 ADD PUSH1 0x0 ISZERO ISZERO DUP2 MSTORE PUSH1 0x20 ADD PUSH1 0x0 DUP2 MSTORE PUSH1 0x20 ADD PUSH1 0x0 DUP2 MSTORE PUSH1 0x20 ADD PUSH1 0x0 DUP2 MSTORE PUSH1 0x20 ADD PUSH1 0x0 DUP2 MSTORE PUSH1 0x20 ADD PUSH1 0x0 DUP2 MSTORE POP SWAP1 JUMP JUMPDEST PUSH1 0x1 PUSH1 0x1 PUSH1 0xA0 SHL SUB DUP6 AND PUSH1 0x0 SWAP1 DUP2 MSTORE PUSH1 0x6 PUSH1 0x20 MSTORE PUSH1 0x40 DUP2 KECCAK256 DUP1 SLOAD SWAP1 SWAP2 SWAP1 JUMPDEST PUSH1 0x0 DUP2 GT DUP1 ISZERO PUSH2 0x1705 JUMPI POP DUP2 ISZERO JUMPDEST ISZERO PUSH2 0x1809 JUMPI PUSH1 0x0 DUP4 DUP3 DUP2 SLOAD DUP2 LT PUSH2 0x171E JUMPI PUSH2 0x171E PUSH2 0x3FD5 JUMP JUMPDEST SWAP1 PUSH1 0x0 MSTORE PUSH1 0x20 PUSH1 0x0 KECCAK256 ADD SLOAD SWAP1 POP PUSH1 0x3 DUP2 DUP2 SLOAD DUP2 LT PUSH2 0x173E JUMPI PUSH2 0x173E PUSH2 0x3FD5 JUMP JUMPDEST PUSH1 0x0 SWAP2 DUP3 MSTORE PUSH1 0x20 SWAP2 DUP3 SWAP1 KECCAK256 PUSH1 0x40 DUP1 MLOAD PUSH2 0x100 DUP2 ADD DUP3 MSTORE PUSH1 0x7 SWAP4 SWAP1 SWAP4 MUL SWAP1 SWAP2 ADD DUP1 SLOAD PUSH1 0x1 PUSH1 0x1 PUSH1 0xA0 SHL SUB SWAP1 DUP2 AND DUP5 MSTORE PUSH1 0x1 DUP3 ADD SLOAD SWAP1 DUP2 AND SWAP5 DUP5 ADD SWAP5 SWAP1 SWAP5 MSTORE PUSH1 0x1 PUSH1 0xA0 SHL SWAP1 SWAP4 DIV PUSH1 0xFF AND ISZERO ISZERO SWAP1 DUP3 ADD MSTORE PUSH1 0x2 DUP3 ADD SLOAD PUSH1 0x60 DUP3 ADD MSTORE PUSH1 0x3 DUP3 ADD SLOAD PUSH1 0x80 DUP3 ADD MSTORE PUSH1 0x4 DUP3 ADD SLOAD PUSH1 0xA0 DUP3 ADD MSTORE PUSH1 0x5 DUP3 ADD SLOAD PUSH1 0xC0 DUP3 ADD MSTORE PUSH1 0x6 SWAP1 SWAP2 ADD SLOAD PUSH1 0xE0 DUP3 ADD DUP2 SWAP1 MSTORE SWAP1 SWAP6 POP DUP9 SWAP1 SUB PUSH2 0x17D7 JUMPI PUSH1 0x1 SWAP3 POP DUP1 SWAP6 POP PUSH2 0x17F6 JUMP JUMPDEST DUP3 ISZERO DUP1 ISZERO PUSH2 0x17E9 JUMPI POP DUP8 DUP6 PUSH1 0xE0 ADD MLOAD LT ISZERO JUMPDEST ISZERO PUSH2 0x17F6 JUMPI PUSH1 0x1 SWAP3 POP DUP1 SWAP6 POP JUMPDEST POP DUP1 PUSH2 0x1801 DUP2 PUSH2 0x405A JUMP JUMPDEST SWAP2 POP POP PUSH2 0x16F7 JUMP JUMPDEST POP SWAP4 POP POP POP SWAP3 POP SWAP3 SWAP1 POP JUMP JUMPDEST PUSH1 0x0 PUSH2 0x1820 DUP3 PUSH2 0x1BA2 JUMP JUMPDEST SWAP1 POP DUP3 DUP1 DUP7 PUSH2 0x183D JUMPI PUSH2 0x183A DUP6 DUP5 PUSH1 0x40 ADD MLOAD PUSH1 0xFF AND PUSH2 0x3354 JUMP JUMPDEST SWAP2 POP JUMPDEST PUSH1 0x3 DUP7 DUP2 SLOAD DUP2 LT PUSH2 0x1850 JUMPI PUSH2 0x1850 PUSH2 0x3FD5 JUMP JUMPDEST PUSH1 0x0 SWAP2 DUP3 MSTORE PUSH1 0x20 SWAP1 SWAP2 KECCAK256 PUSH1 0x7 SWAP1 SWAP2 MUL ADD PUSH1 0x4 DUP2 ADD SLOAD PUSH1 0x5 DUP3 ADD SLOAD DUP3 SLOAD SWAP3 SWAP11 POP SWAP1 SWAP2 DUP5 DUP3 EQ DUP1 ISZERO SWAP2 PUSH1 0x1 PUSH1 0x1 PUSH1 0xA0 SHL SUB AND SWAP1 PUSH2 0x18A9 JUMPI DUP11 ISZERO PUSH2 0x189C JUMPI PUSH2 0x1895 DUP7 DUP6 PUSH2 0x337D JUMP JUMPDEST SWAP3 POP PUSH2 0x18A9 JUMP JUMPDEST PUSH2 0x18A6 DUP7 DUP6 PUSH2 0x3389 JUMP JUMPDEST SWAP3 POP JUMPDEST PUSH1 0x40 DUP1 MLOAD PUSH2 0x100 DUP2 ADD DUP3 MSTORE DUP14 SLOAD PUSH1 0x1 PUSH1 0x1 PUSH1 0xA0 SHL SUB SWAP1 DUP2 AND DUP3 MSTORE PUSH1 0x1 DUP16 ADD SLOAD SWAP1 DUP2 AND PUSH1 0x20 DUP4 ADD MSTORE PUSH1 0x1 PUSH1 0xA0 SHL SWAP1 DIV PUSH1 0xFF AND ISZERO ISZERO SWAP2 DUP2 ADD SWAP2 SWAP1 SWAP2 MSTORE PUSH1 0x2 DUP14 ADD SLOAD PUSH1 0x60 DUP3 ADD MSTORE PUSH1 0x3 DUP14 ADD SLOAD PUSH1 0x80 DUP3 ADD MSTORE PUSH1 0x4 DUP14 ADD SLOAD PUSH1 0xA0 DUP3 ADD MSTORE PUSH1 0x5 DUP14 ADD SLOAD PUSH1 0xC0 DUP3 ADD MSTORE PUSH1 0x6 DUP14 ADD SLOAD PUSH1 0xE0 DUP3 ADD MSTORE PUSH2 0x1921 SWAP1 DUP9 DUP9 DUP7 PUSH2 0x3395 JUMP JUMPDEST PUSH1 0x0 DUP12 PUSH2 0x192E JUMPI DUP4 PUSH2 0x1930 JUMP JUMPDEST DUP7 JUMPDEST SWAP1 POP DUP3 ISZERO PUSH2 0x1972 JUMPI DUP7 DUP14 PUSH1 0x6 ADD PUSH1 0x0 DUP3 DUP3 SLOAD PUSH2 0x194C SWAP2 SWAP1 PUSH2 0x402D JUMP JUMPDEST SWAP3 POP POP DUP2 SWAP1 SSTORE POP DUP4 DUP14 PUSH1 0x5 ADD PUSH1 0x0 DUP3 DUP3 SLOAD PUSH2 0x1967 SWAP2 SWAP1 PUSH2 0x402D JUMP JUMPDEST SWAP1 SWAP2 SSTORE POP PUSH2 0x197D SWAP1 POP JUMP JUMPDEST PUSH2 0x197D PUSH1 0x3 DUP13 PUSH2 0x2A0D JUMP JUMPDEST PUSH1 0xE0 DUP9 ADD MLOAD PUSH1 0x0 DUP2 ISZERO DUP1 ISZERO SWAP1 PUSH2 0x1998 JUMPI POP DUP10 PUSH2 0x100 ADD MLOAD DUP4 LT ISZERO JUMPDEST SWAP1 POP DUP1 ISZERO PUSH2 0x1A2C JUMPI PUSH1 0x80 DUP11 ADD DUP1 MLOAD PUSH1 0x1 PUSH1 0x1 PUSH1 0xA0 SHL SUB SWAP1 DUP2 AND PUSH1 0x0 SWAP1 DUP2 MSTORE PUSH1 0xA PUSH1 0x20 SWAP1 DUP2 MSTORE PUSH1 0x40 DUP1 DUP4 KECCAK256 SLOAD SWAP5 MLOAD SWAP1 SWAP4 AND DUP3 MSTORE PUSH1 0x9 SWAP1 MSTORE SWAP1 DUP2 KECCAK256 SLOAD SWAP1 PUSH2 0x19DD DUP4 DUP4 PUSH2 0x402D JUMP JUMPDEST SWAP1 POP DUP5 DUP2 GT ISZERO PUSH2 0x1A28 JUMPI PUSH2 0x19F2 DUP14 CALLER DUP8 PUSH2 0x34D5 JUMP JUMPDEST PUSH2 0x1A28 JUMPI PUSH1 0x40 MLOAD PUSH32 0xC96D18B500000000000000000000000000000000000000000000000000000000 DUP2 MSTORE PUSH1 0x4 ADD PUSH1 0x40 MLOAD DUP1 SWAP2 SUB SWAP1 REVERT JUMPDEST POP POP POP JUMPDEST PUSH32 0xD18715C1E0D5B06959A9B12A3C5D857CE3698A58F6AC5BC7726BD7DF86476F40 DUP14 DUP16 DUP7 CALLER DUP15 PUSH1 0x80 ADD MLOAD DUP14 DUP12 PUSH1 0x40 MLOAD PUSH2 0x1A6B SWAP8 SWAP7 SWAP6 SWAP5 SWAP4 SWAP3 SWAP2 SWAP1 PUSH2 0x4127 JUMP JUMPDEST PUSH1 0x40 MLOAD DUP1 SWAP2 SUB SWAP1 LOG1 POP POP POP POP POP POP POP POP POP POP POP POP POP POP POP JUMP JUMPDEST PUSH1 0x0 SLOAD PUSH1 0x1 PUSH1 0x1 PUSH1 0xA0 SHL SUB AND CALLER EQ PUSH2 0x1ACA JUMPI CALLER PUSH1 0x40 MLOAD PUSH32 0x32B2BAA300000000000000000000000000000000000000000000000000000000 DUP2 MSTORE PUSH1 0x4 ADD PUSH2 0x15DE SWAP2 SWAP1 PUSH2 0x3F00 JUMP JUMPDEST JUMP JUMPDEST PUSH1 0xC SLOAD ISZERO DUP1 ISZERO SWAP1 PUSH2 0x1AEA JUMPI POP PUSH1 0xF0 PUSH1 0xC SLOAD TIMESTAMP PUSH2 0x1AE8 SWAP2 SWAP1 PUSH2 0x402D JUMP JUMPDEST LT JUMPDEST ISZERO PUSH2 0x1AF1 JUMPI JUMP JUMPDEST PUSH1 0xD SLOAD PUSH1 0x40 DUP1 MLOAD PUSH32 0x98D5FDCA00000000000000000000000000000000000000000000000000000000 DUP2 MSTORE SWAP1 MLOAD PUSH1 0x0 SWAP3 PUSH1 0x1 PUSH1 0x1 PUSH1 0xA0 SHL SUB AND SWAP2 PUSH4 0x98D5FDCA SWAP2 PUSH1 0x4 DUP1 DUP4 ADD SWAP3 DUP7 SWAP3 SWAP2 SWAP1 DUP3 SWAP1 SUB ADD DUP2 DUP7 GAS STATICCALL ISZERO DUP1 ISZERO PUSH2 0x1B53 JUMPI RETURNDATASIZE PUSH1 0x0 DUP1 RETURNDATACOPY RETURNDATASIZE PUSH1 0x0 REVERT JUMPDEST POP POP POP POP PUSH1 0x40 MLOAD RETURNDATASIZE PUSH1 0x0 DUP3 RETURNDATACOPY PUSH1 0x1F RETURNDATASIZE SWAP1 DUP2 ADD PUSH1 0x1F NOT AND DUP3 ADD PUSH1 0x40 MSTORE PUSH2 0x1B7B SWAP2 SWAP1 DUP2 ADD SWAP1 PUSH2 0x41E7 JUMP JUMPDEST SWAP1 POP PUSH1 0x0 DUP1 PUSH2 0x1B89 DUP4 PUSH2 0x35B7 JUMP JUMPDEST SWAP2 POP SWAP2 POP DUP1 ISZERO PUSH2 0x1B99 JUMPI PUSH1 0xB DUP3 SWAP1 SSTORE JUMPDEST POP POP TIMESTAMP PUSH1 0xC SSTORE POP JUMP JUMPDEST PUSH2 0x1C0F PUSH1 0x40 DUP1 MLOAD PUSH2 0x180 DUP2 ADD DUP3 MSTORE PUSH1 0x60 DUP1 DUP3 MSTORE PUSH1 0x20 DUP3 ADD DUP2 SWAP1 MSTORE PUSH1 0x0 SWAP3 DUP3 ADD DUP4 SWAP1 MSTORE DUP2 ADD DUP3 SWAP1 MSTORE PUSH1 0x80 DUP2 ADD DUP3 SWAP1 MSTORE PUSH1 0xA0 DUP2 ADD DUP3 SWAP1 MSTORE SWAP1 PUSH1 0xC0 DUP3 ADD SWAP1 DUP2 MSTORE PUSH1 0x20 ADD PUSH1 0x0 DUP2 MSTORE PUSH1 0x20 ADD PUSH1 0x0 DUP2 MSTORE PUSH1 0x20 ADD PUSH1 0x0 DUP2 MSTORE PUSH1 0x20 ADD PUSH1 0x0 DUP2 MSTORE PUSH1 0x20 ADD PUSH1 0x0 PUSH1 0x1 PUSH1 0x1 PUSH1 0xA0 SHL SUB AND DUP2 MSTORE POP SWAP1 JUMP JUMPDEST PUSH1 0x1 PUSH1 0x1 PUSH1 0xA0 SHL SUB DUP3 AND PUSH1 0x0 SWAP1 DUP2 MSTORE PUSH1 0x5 PUSH1 0x20 MSTORE PUSH1 0x40 SWAP1 KECCAK256 SLOAD DUP1 ISZERO DUP1 PUSH2 0x1C36 JUMPI POP PUSH1 0x2 SLOAD DUP2 GT JUMPDEST ISZERO PUSH2 0x1C54 JUMPI PUSH1 0x40 MLOAD PUSH4 0x62F850F7 PUSH1 0xE1 SHL DUP2 MSTORE PUSH1 0x4 ADD PUSH1 0x40 MLOAD DUP1 SWAP2 SUB SWAP1 REVERT JUMPDEST PUSH1 0x2 PUSH2 0x1C61 PUSH1 0x1 DUP4 PUSH2 0x402D JUMP JUMPDEST DUP2 SLOAD DUP2 LT PUSH2 0x1C71 JUMPI PUSH2 0x1C71 PUSH2 0x3FD5 JUMP JUMPDEST SWAP1 PUSH1 0x0 MSTORE PUSH1 0x20 PUSH1 0x0 KECCAK256 SWAP1 PUSH1 0xB MUL ADD PUSH1 0x40 MLOAD DUP1 PUSH2 0x180 ADD PUSH1 0x40 MSTORE SWAP1 DUP2 PUSH1 0x0 DUP3 ADD DUP1 SLOAD PUSH2 0x1C9B SWAP1 PUSH2 0x40B9 JUMP JUMPDEST DUP1 PUSH1 0x1F ADD PUSH1 0x20 DUP1 SWAP2 DIV MUL PUSH1 0x20 ADD PUSH1 0x40 MLOAD SWAP1 DUP2 ADD PUSH1 0x40 MSTORE DUP1 SWAP3 SWAP2 SWAP1 DUP2 DUP2 MSTORE PUSH1 0x20 ADD DUP3 DUP1 SLOAD PUSH2 0x1CC7 SWAP1 PUSH2 0x40B9 JUMP JUMPDEST DUP1 ISZERO PUSH2 0x1D14 JUMPI DUP1 PUSH1 0x1F LT PUSH2 0x1CE9 JUMPI PUSH2 0x100 DUP1 DUP4 SLOAD DIV MUL DUP4 MSTORE SWAP2 PUSH1 0x20 ADD SWAP2 PUSH2 0x1D14 JUMP JUMPDEST DUP3 ADD SWAP2 SWAP1 PUSH1 0x0 MSTORE PUSH1 0x20 PUSH1 0x0 KECCAK256 SWAP1 JUMPDEST DUP2 SLOAD DUP2 MSTORE SWAP1 PUSH1 0x1 ADD SWAP1 PUSH1 0x20 ADD DUP1 DUP4 GT PUSH2 0x1CF7 JUMPI DUP3 SWAP1 SUB PUSH1 0x1F AND DUP3 ADD SWAP2 JUMPDEST POP POP POP POP POP DUP2 MSTORE PUSH1 0x20 ADD PUSH1 0x1 DUP3 ADD DUP1 SLOAD PUSH2 0x1D2D SWAP1 PUSH2 0x40B9 JUMP JUMPDEST DUP1 PUSH1 0x1F ADD PUSH1 0x20 DUP1 SWAP2 DIV MUL PUSH1 0x20 ADD PUSH1 0x40 MLOAD SWAP1 DUP2 ADD PUSH1 0x40 MSTORE DUP1 SWAP3 SWAP2 SWAP1 DUP2 DUP2 MSTORE PUSH1 0x20 ADD DUP3 DUP1 SLOAD PUSH2 0x1D59 SWAP1 PUSH2 0x40B9 JUMP JUMPDEST DUP1 ISZERO PUSH2 0x1DA6 JUMPI DUP1 PUSH1 0x1F LT PUSH2 0x1D7B JUMPI PUSH2 0x100 DUP1 DUP4 SLOAD DIV MUL DUP4 MSTORE SWAP2 PUSH1 0x20 ADD SWAP2 PUSH2 0x1DA6 JUMP JUMPDEST DUP3 ADD SWAP2 SWAP1 PUSH1 0x0 MSTORE PUSH1 0x20 PUSH1 0x0 KECCAK256 SWAP1 JUMPDEST DUP2 SLOAD DUP2 MSTORE SWAP1 PUSH1 0x1 ADD SWAP1 PUSH1 0x20 ADD DUP1 DUP4 GT PUSH2 0x1D89 JUMPI DUP3 SWAP1 SUB PUSH1 0x1F AND DUP3 ADD SWAP2 JUMPDEST POP POP POP SWAP2 DUP4 MSTORE POP POP PUSH1 0x2 DUP3 ADD SLOAD PUSH1 0xFF SWAP1 DUP2 AND PUSH1 0x20 DUP4 ADD MSTORE PUSH1 0x3 DUP4 ADD SLOAD PUSH1 0x40 DUP4 ADD MSTORE PUSH1 0x4 DUP4 ADD SLOAD PUSH1 0x1 PUSH1 0x1 PUSH1 0xA0 SHL SUB SWAP1 DUP2 AND PUSH1 0x60 DUP5 ADD MSTORE PUSH1 0x5 DUP5 ADD SLOAD SWAP1 DUP2 AND PUSH1 0x80 DUP5 ADD MSTORE PUSH1 0xA0 SWAP1 SWAP3 ADD SWAP2 PUSH1 0x1 PUSH1 0xA0 SHL SWAP1 DIV AND PUSH1 0x1 DUP2 GT ISZERO PUSH2 0x1E08 JUMPI PUSH2 0x1E08 PUSH2 0x3BA5 JUMP JUMPDEST PUSH1 0x1 DUP2 GT ISZERO PUSH2 0x1E19 JUMPI PUSH2 0x1E19 PUSH2 0x3BA5 JUMP JUMPDEST DUP2 MSTORE PUSH1 0x6 DUP3 ADD SLOAD PUSH1 0x20 DUP3 ADD MSTORE PUSH1 0x7 DUP3 ADD SLOAD PUSH1 0x40 DUP3 ADD MSTORE PUSH1 0x8 DUP3 ADD SLOAD PUSH1 0x60 DUP3 ADD MSTORE PUSH1 0x9 DUP3 ADD SLOAD PUSH1 0x80 DUP3 ADD MSTORE PUSH1 0xA SWAP1 SWAP2 ADD SLOAD PUSH1 0x1 PUSH1 0x1 PUSH1 0xA0 SHL SUB AND PUSH1 0xA0 SWAP1 SWAP2 ADD MSTORE SWAP4 SWAP3 POP POP POP JUMP JUMPDEST PUSH1 0x0 DUP1 PUSH2 0x1E6F DUP5 PUSH1 0x20 ADD MLOAD PUSH2 0x1BA2 JUMP JUMPDEST SWAP1 POP DUP4 PUSH1 0x40 ADD MLOAD ISZERO PUSH2 0x1ED7 JUMPI PUSH2 0x1E8D DUP5 PUSH1 0x0 ADD MLOAD DUP6 PUSH1 0xC0 ADD MLOAD PUSH2 0x36E9 JUMP JUMPDEST PUSH2 0x1E9B JUMPI PUSH1 0x0 SWAP2 POP POP PUSH2 0x644 JUMP JUMPDEST PUSH1 0xC0 DUP5 ADD MLOAD PUSH1 0x80 DUP3 ADD MLOAD PUSH1 0x1 PUSH1 0x1 PUSH1 0xA0 SHL SUB AND PUSH1 0x0 SWAP1 DUP2 MSTORE PUSH1 0x8 PUSH1 0x20 MSTORE PUSH1 0x40 DUP2 KECCAK256 DUP1 SLOAD SWAP1 SWAP2 SWAP1 PUSH2 0x1ECC SWAP1 DUP5 SWAP1 PUSH2 0x402D JUMP JUMPDEST SWAP1 SWAP2 SSTORE POP PUSH2 0x1F65 SWAP1 POP JUMP JUMPDEST PUSH2 0x1EEA DUP2 DUP6 PUSH1 0x0 ADD MLOAD DUP7 PUSH1 0xC0 ADD MLOAD PUSH2 0x34D5 JUMP JUMPDEST PUSH2 0x1EF8 JUMPI PUSH1 0x0 SWAP2 POP POP PUSH2 0x644 JUMP JUMPDEST PUSH1 0xC0 DUP5 ADD MLOAD PUSH1 0x80 DUP3 ADD MLOAD PUSH1 0x1 PUSH1 0x1 PUSH1 0xA0 SHL SUB AND PUSH1 0x0 SWAP1 DUP2 MSTORE PUSH1 0xA PUSH1 0x20 MSTORE PUSH1 0x40 DUP2 KECCAK256 DUP1 SLOAD SWAP1 SWAP2 SWAP1 PUSH2 0x1F29 SWAP1 DUP5 SWAP1 PUSH2 0x402D JUMP JUMPDEST SWAP1 SWAP2 SSTORE POP POP PUSH1 0xC0 DUP5 ADD MLOAD PUSH1 0x80 DUP3 ADD MLOAD PUSH1 0x1 PUSH1 0x1 PUSH1 0xA0 SHL SUB AND PUSH1 0x0 SWAP1 DUP2 MSTORE PUSH1 0x9 PUSH1 0x20 MSTORE PUSH1 0x40 DUP2 KECCAK256 DUP1 SLOAD SWAP1 SWAP2 SWAP1 PUSH2 0x1F5F SWAP1 DUP5 SWAP1 PUSH2 0x402D JUMP JUMPDEST SWAP1 SWAP2 SSTORE POP POP JUMPDEST PUSH32 0x3D8DA260C5E35DCBA4A38C844B979A7C70C6FDBED58BE53DA6E817EF6A2541E0 DUP4 DUP6 PUSH1 0x40 ADD MLOAD DUP7 PUSH1 0x0 ADD MLOAD PUSH1 0x40 MLOAD PUSH2 0x1FA0 SWAP4 SWAP3 SWAP2 SWAP1 PUSH2 0x4222 JUMP JUMPDEST PUSH1 0x40 MLOAD DUP1 SWAP2 SUB SWAP1 LOG1 PUSH2 0x1FB3 PUSH1 0x3 DUP5 PUSH2 0x2A0D JUMP JUMPDEST POP PUSH1 0x1 SWAP4 SWAP3 POP POP POP JUMP JUMPDEST DUP2 SLOAD PUSH1 0x0 SWAP1 PUSH2 0x1FCE SWAP1 PUSH1 0x1 SWAP1 PUSH2 0x402D JUMP JUMPDEST SWAP1 POP DUP1 DUP3 EQ PUSH2 0x2013 JUMPI DUP3 DUP2 DUP2 SLOAD DUP2 LT PUSH2 0x1FE9 JUMPI PUSH2 0x1FE9 PUSH2 0x3FD5 JUMP JUMPDEST SWAP1 PUSH1 0x0 MSTORE PUSH1 0x20 PUSH1 0x0 KECCAK256 ADD SLOAD DUP4 DUP4 DUP2 SLOAD DUP2 LT PUSH2 0x2006 JUMPI PUSH2 0x2006 PUSH2 0x3FD5 JUMP JUMPDEST PUSH1 0x0 SWAP2 DUP3 MSTORE PUSH1 0x20 SWAP1 SWAP2 KECCAK256 ADD SSTORE JUMPDEST DUP3 DUP1 SLOAD DUP1 PUSH2 0x2023 JUMPI PUSH2 0x2023 PUSH2 0x424A JUMP JUMPDEST PUSH1 0x1 SWAP1 SUB DUP2 DUP2 SWAP1 PUSH1 0x0 MSTORE PUSH1 0x20 PUSH1 0x0 KECCAK256 ADD PUSH1 0x0 SWAP1 SSTORE SWAP1 SSTORE POP POP POP JUMP JUMPDEST PUSH1 0x1 PUSH1 0x1 PUSH1 0xA0 SHL SUB DUP2 AND PUSH1 0x0 SWAP1 DUP2 MSTORE PUSH1 0x5 PUSH1 0x20 MSTORE PUSH1 0x40 DUP2 KECCAK256 SLOAD DUP1 ISZERO DUP1 PUSH2 0x2065 JUMPI POP PUSH1 0x2 SLOAD DUP2 GT JUMPDEST ISZERO PUSH2 0x2083 JUMPI PUSH1 0x40 MLOAD PUSH4 0x62F850F7 PUSH1 0xE1 SHL DUP2 MSTORE PUSH1 0x4 ADD PUSH1 0x40 MLOAD DUP1 SWAP2 SUB SWAP1 REVERT JUMPDEST PUSH1 0x2 PUSH2 0x2090 PUSH1 0x1 DUP4 PUSH2 0x402D JUMP JUMPDEST DUP2 SLOAD DUP2 LT PUSH2 0x20A0 JUMPI PUSH2 0x20A0 PUSH2 0x3FD5 JUMP JUMPDEST SWAP1 PUSH1 0x0 MSTORE PUSH1 0x20 PUSH1 0x0 KECCAK256 SWAP1 PUSH1 0xB MUL ADD SWAP2 POP POP SWAP2 SWAP1 POP JUMP JUMPDEST PUSH1 0x40 MLOAD PUSH32 0x23B872DD00000000000000000000000000000000000000000000000000000000 DUP2 MSTORE PUSH1 0x0 SWAP1 PUSH1 0x1 PUSH1 0x1 PUSH1 0xA0 SHL SUB DUP6 AND SWAP1 PUSH4 0x23B872DD SWAP1 PUSH2 0x2102 SWAP1 DUP7 SWAP1 ADDRESS SWAP1 DUP8 SWAP1 PUSH1 0x4 ADD PUSH2 0x4260 JUMP JUMPDEST PUSH1 0x20 PUSH1 0x40 MLOAD DUP1 DUP4 SUB DUP2 PUSH1 0x0 DUP8 GAS CALL SWAP3 POP POP POP DUP1 ISZERO PUSH2 0x213D JUMPI POP PUSH1 0x40 DUP1 MLOAD PUSH1 0x1F RETURNDATASIZE SWAP1 DUP2 ADD PUSH1 0x1F NOT AND DUP3 ADD SWAP1 SWAP3 MSTORE PUSH2 0x213A SWAP2 DUP2 ADD SWAP1 PUSH2 0x4293 JUMP JUMPDEST PUSH1 0x1 JUMPDEST PUSH2 0x2149 JUMPI POP PUSH1 0x0 PUSH2 0x7F0 JUMP JUMPDEST SWAP5 SWAP4 POP POP POP POP JUMP JUMPDEST PUSH1 0x0 DUP1 PUSH1 0x5 DUP6 ADD SLOAD PUSH1 0x1 PUSH1 0xA0 SHL SWAP1 DIV PUSH1 0xFF AND PUSH1 0x1 DUP2 GT ISZERO PUSH2 0x2174 JUMPI PUSH2 0x2174 PUSH2 0x3BA5 JUMP JUMPDEST SUB PUSH2 0x2198 JUMPI PUSH2 0x2181 PUSH2 0x1ACC JUMP JUMPDEST PUSH2 0x2191 PUSH1 0xB SLOAD DUP6 PUSH1 0x8 ADD SLOAD PUSH2 0x337D JUMP JUMPDEST SWAP1 POP PUSH2 0x2544 JUMP JUMPDEST PUSH1 0x1 PUSH1 0x5 DUP6 ADD SLOAD PUSH1 0x1 PUSH1 0xA0 SHL SWAP1 DIV PUSH1 0xFF AND PUSH1 0x1 DUP2 GT ISZERO PUSH2 0x21BA JUMPI PUSH2 0x21BA PUSH2 0x3BA5 JUMP JUMPDEST SUB PUSH2 0x2544 JUMPI PUSH1 0x0 DUP5 PUSH1 0x9 ADD SLOAD PUSH1 0x0 EQ DUP1 PUSH2 0x21E4 JUMPI POP PUSH1 0xF0 DUP6 PUSH1 0x9 ADD SLOAD TIMESTAMP PUSH2 0x21E1 SWAP2 SWAP1 PUSH2 0x402D JUMP JUMPDEST LT ISZERO JUMPDEST SWAP1 POP DUP1 ISZERO PUSH2 0x253A JUMPI PUSH1 0x0 PUSH1 0x2 PUSH1 0x0 DUP2 SLOAD DUP2 LT PUSH2 0x2202 JUMPI PUSH2 0x2202 PUSH2 0x3FD5 JUMP JUMPDEST SWAP1 PUSH1 0x0 MSTORE PUSH1 0x20 PUSH1 0x0 KECCAK256 SWAP1 PUSH1 0xB MUL ADD PUSH1 0x40 MLOAD DUP1 PUSH2 0x180 ADD PUSH1 0x40 MSTORE SWAP1 DUP2 PUSH1 0x0 DUP3 ADD DUP1 SLOAD PUSH2 0x222C SWAP1 PUSH2 0x40B9 JUMP JUMPDEST DUP1 PUSH1 0x1F ADD PUSH1 0x20 DUP1 SWAP2 DIV MUL PUSH1 0x20 ADD PUSH1 0x40 MLOAD SWAP1 DUP2 ADD PUSH1 0x40 MSTORE DUP1 SWAP3 SWAP2 SWAP1 DUP2 DUP2 MSTORE PUSH1 0x20 ADD DUP3 DUP1 SLOAD PUSH2 0x2258 SWAP1 PUSH2 0x40B9 JUMP JUMPDEST DUP1 ISZERO PUSH2 0x22A5 JUMPI DUP1 PUSH1 0x1F LT PUSH2 0x227A JUMPI PUSH2 0x100 DUP1 DUP4 SLOAD DIV MUL DUP4 MSTORE SWAP2 PUSH1 0x20 ADD SWAP2 PUSH2 0x22A5 JUMP JUMPDEST DUP3 ADD SWAP2 SWAP1 PUSH1 0x0 MSTORE PUSH1 0x20 PUSH1 0x0 KECCAK256 SWAP1 JUMPDEST DUP2 SLOAD DUP2 MSTORE SWAP1 PUSH1 0x1 ADD SWAP1 PUSH1 0x20 ADD DUP1 DUP4 GT PUSH2 0x2288 JUMPI DUP3 SWAP1 SUB PUSH1 0x1F AND DUP3 ADD SWAP2 JUMPDEST POP POP POP POP POP DUP2 MSTORE PUSH1 0x20 ADD PUSH1 0x1 DUP3 ADD DUP1 SLOAD PUSH2 0x22BE SWAP1 PUSH2 0x40B9 JUMP JUMPDEST DUP1 PUSH1 0x1F ADD PUSH1 0x20 DUP1 SWAP2 DIV MUL PUSH1 0x20 ADD PUSH1 0x40 MLOAD SWAP1 DUP2 ADD PUSH1 0x40 MSTORE DUP1 SWAP3 SWAP2 SWAP1 DUP2 DUP2 MSTORE PUSH1 0x20 ADD DUP3 DUP1 SLOAD PUSH2 0x22EA SWAP1 PUSH2 0x40B9 JUMP JUMPDEST DUP1 ISZERO PUSH2 0x2337 JUMPI DUP1 PUSH1 0x1F LT PUSH2 0x230C JUMPI PUSH2 0x100 DUP1 DUP4 SLOAD DIV MUL DUP4 MSTORE SWAP2 PUSH1 0x20 ADD SWAP2 PUSH2 0x2337 JUMP JUMPDEST DUP3 ADD SWAP2 SWAP1 PUSH1 0x0 MSTORE PUSH1 0x20 PUSH1 0x0 KECCAK256 SWAP1 JUMPDEST DUP2 SLOAD DUP2 MSTORE SWAP1 PUSH1 0x1 ADD SWAP1 PUSH1 0x20 ADD DUP1 DUP4 GT PUSH2 0x231A JUMPI DUP3 SWAP1 SUB PUSH1 0x1F AND DUP3 ADD SWAP2 JUMPDEST POP POP POP SWAP2 DUP4 MSTORE POP POP PUSH1 0x2 DUP3 ADD SLOAD PUSH1 0xFF SWAP1 DUP2 AND PUSH1 0x20 DUP4 ADD MSTORE PUSH1 0x3 DUP4 ADD SLOAD PUSH1 0x40 DUP4 ADD MSTORE PUSH1 0x4 DUP4 ADD SLOAD PUSH1 0x1 PUSH1 0x1 PUSH1 0xA0 SHL SUB SWAP1 DUP2 AND PUSH1 0x60 DUP5 ADD MSTORE PUSH1 0x5 DUP5 ADD SLOAD SWAP1 DUP2 AND PUSH1 0x80 DUP5 ADD MSTORE PUSH1 0xA0 SWAP1 SWAP3 ADD SWAP2 PUSH1 0x1 PUSH1 0xA0 SHL SWAP1 DIV AND PUSH1 0x1 DUP2 GT ISZERO PUSH2 0x2399 JUMPI PUSH2 0x2399 PUSH2 0x3BA5 JUMP JUMPDEST PUSH1 0x1 DUP2 GT ISZERO PUSH2 0x23AA JUMPI PUSH2 0x23AA PUSH2 0x3BA5 JUMP JUMPDEST DUP2 MSTORE PUSH1 0x6 DUP3 ADD SLOAD PUSH1 0x20 DUP3 ADD MSTORE PUSH1 0x7 DUP3 ADD SLOAD PUSH1 0x40 DUP1 DUP4 ADD SWAP2 SWAP1 SWAP2 MSTORE PUSH1 0x8 DUP4 ADD SLOAD PUSH1 0x60 DUP4 ADD MSTORE PUSH1 0x9 DUP4 ADD SLOAD PUSH1 0x80 DUP4 ADD MSTORE PUSH1 0xA SWAP3 DUP4 ADD SLOAD PUSH1 0x1 PUSH1 0x1 PUSH1 0xA0 SHL SUB SWAP1 DUP2 AND PUSH1 0xA0 SWAP1 SWAP4 ADD SWAP3 SWAP1 SWAP3 MSTORE SWAP2 DUP10 ADD SLOAD PUSH2 0x160 DUP5 ADD MLOAD PUSH1 0x5 DUP12 ADD SLOAD SWAP4 MLOAD PUSH4 0x70A08231 PUSH1 0xE0 SHL DUP2 MSTORE SWAP5 SWAP6 POP SWAP1 DUP3 AND SWAP4 SWAP1 SWAP3 PUSH1 0x0 SWAP3 DUP6 SWAP3 PUSH4 0x70A08231 SWAP3 PUSH2 0x242F SWAP3 AND SWAP1 PUSH1 0x4 ADD PUSH2 0x3F00 JUMP JUMPDEST PUSH1 0x20 PUSH1 0x40 MLOAD DUP1 DUP4 SUB DUP2 DUP7 GAS STATICCALL ISZERO DUP1 ISZERO PUSH2 0x244C JUMPI RETURNDATASIZE PUSH1 0x0 DUP1 RETURNDATACOPY RETURNDATASIZE PUSH1 0x0 REVERT JUMPDEST POP POP POP POP PUSH1 0x40 MLOAD RETURNDATASIZE PUSH1 0x1F NOT PUSH1 0x1F DUP3 ADD AND DUP3 ADD DUP1 PUSH1 0x40 MSTORE POP DUP2 ADD SWAP1 PUSH2 0x2470 SWAP2 SWAP1 PUSH2 0x3FF6 JUMP JUMPDEST PUSH1 0x5 DUP11 ADD SLOAD PUSH1 0x40 MLOAD PUSH4 0x70A08231 PUSH1 0xE0 SHL DUP2 MSTORE SWAP2 SWAP3 POP PUSH1 0x0 SWAP2 PUSH1 0x1 PUSH1 0x1 PUSH1 0xA0 SHL SUB DUP6 DUP2 AND SWAP3 PUSH4 0x70A08231 SWAP3 PUSH2 0x24AA SWAP3 SWAP1 SWAP2 AND SWAP1 PUSH1 0x4 ADD PUSH2 0x3F00 JUMP JUMPDEST PUSH1 0x20 PUSH1 0x40 MLOAD DUP1 DUP4 SUB DUP2 DUP7 GAS STATICCALL ISZERO DUP1 ISZERO PUSH2 0x24C7 JUMPI RETURNDATASIZE PUSH1 0x0 DUP1 RETURNDATACOPY RETURNDATASIZE PUSH1 0x0 REVERT JUMPDEST POP POP POP POP PUSH1 0x40 MLOAD RETURNDATASIZE PUSH1 0x1F NOT PUSH1 0x1F DUP3 ADD AND DUP3 ADD DUP1 PUSH1 0x40 MSTORE POP DUP2 ADD SWAP1 PUSH2 0x24EB SWAP2 SWAP1 PUSH2 0x3FF6 JUMP JUMPDEST PUSH1 0x2 DUP12 ADD SLOAD SWAP1 SWAP2 POP PUSH2 0x2501 SWAP1 DUP4 SWAP1 PUSH1 0xFF AND PUSH2 0x3354 JUMP JUMPDEST SWAP2 POP PUSH2 0x2514 DUP2 DUP7 PUSH1 0x40 ADD MLOAD PUSH1 0xFF AND PUSH2 0x3354 JUMP JUMPDEST SWAP1 POP PUSH2 0x2520 DUP2 DUP4 PUSH2 0x337D JUMP JUMPDEST PUSH1 0x8 DUP12 ADD DUP2 SWAP1 SSTORE TIMESTAMP PUSH1 0x9 DUP13 ADD SSTORE SWAP7 POP PUSH2 0x2542 SWAP5 POP POP POP POP POP JUMP JUMPDEST DUP5 PUSH1 0x8 ADD SLOAD SWAP2 POP JUMPDEST POP JUMPDEST PUSH1 0x0 DUP4 ISZERO PUSH2 0x2570 JUMPI PUSH1 0x2 DUP6 ADD SLOAD PUSH2 0x2569 SWAP1 PUSH2 0x2563 SWAP1 DUP6 SWAP1 PUSH1 0xFF AND PUSH2 0x3354 JUMP JUMPDEST DUP4 PUSH2 0x3389 JUMP JUMPDEST SWAP1 POP PUSH2 0x2590 JUMP JUMPDEST PUSH1 0x2 DUP6 ADD SLOAD PUSH2 0x258D SWAP1 PUSH2 0x2587 SWAP1 DUP6 SWAP1 PUSH1 0xFF AND PUSH2 0x3354 JUMP JUMPDEST DUP4 PUSH2 0x337D JUMP JUMPDEST SWAP1 POP JUMPDEST PUSH1 0x0 DUP6 PUSH1 0x7 ADD SLOAD DUP4 LT PUSH2 0x25A4 JUMPI POP PUSH1 0x6 DUP6 ADD SLOAD JUMPDEST PUSH1 0x40 DUP1 MLOAD PUSH2 0x100 DUP2 ADD DUP3 MSTORE CALLER DUP2 MSTORE PUSH1 0x4 DUP9 ADD SLOAD PUSH1 0x1 PUSH1 0x1 PUSH1 0xA0 SHL SUB SWAP1 DUP2 AND PUSH1 0x20 DUP4 ADD SWAP1 DUP2 MSTORE DUP9 ISZERO ISZERO SWAP4 DUP4 ADD SWAP4 DUP5 MSTORE TIMESTAMP PUSH1 0x60 DUP5 ADD SWAP1 DUP2 MSTORE PUSH1 0x80 DUP5 ADD DUP7 DUP2 MSTORE PUSH1 0xA0 DUP6 ADD DUP10 DUP2 MSTORE PUSH1 0xC0 DUP7 ADD DUP12 DUP2 MSTORE PUSH1 0xE0 DUP8 ADD DUP11 DUP2 MSTORE PUSH1 0x3 DUP1 SLOAD PUSH1 0x1 DUP2 DUP2 ADD DUP4 SSTORE PUSH1 0x0 DUP4 DUP2 MSTORE DUP12 MLOAD PUSH1 0x7 SWAP1 SWAP4 MUL PUSH32 0xC2575A0E9E593C00F959F8C92F12DB2869C3395A3B0502D05E2516446F71F85B DUP2 ADD DUP1 SLOAD SWAP5 DUP14 AND PUSH1 0x1 PUSH1 0x1 PUSH1 0xA0 SHL SUB NOT SWAP1 SWAP6 AND SWAP5 SWAP1 SWAP5 OR SWAP1 SWAP4 SSTORE SWAP9 MLOAD PUSH32 0xC2575A0E9E593C00F959F8C92F12DB2869C3395A3B0502D05E2516446F71F85C DUP4 ADD DUP1 SLOAD SWAP14 MLOAD ISZERO ISZERO PUSH1 0x1 PUSH1 0xA0 SHL MUL PUSH21 0xFFFFFFFFFFFFFFFFFFFFFFFFFFFFFFFFFFFFFFFFFF NOT SWAP1 SWAP15 AND SWAP2 SWAP1 SWAP12 AND OR SWAP12 SWAP1 SWAP12 OR SWAP1 SWAP9 SSTORE SWAP5 MLOAD PUSH32 0xC2575A0E9E593C00F959F8C92F12DB2869C3395A3B0502D05E2516446F71F85D DUP9 ADD SSTORE SWAP3 MLOAD PUSH32 0xC2575A0E9E593C00F959F8C92F12DB2869C3395A3B0502D05E2516446F71F85E DUP8 ADD SSTORE SWAP1 MLOAD PUSH32 0xC2575A0E9E593C00F959F8C92F12DB2869C3395A3B0502D05E2516446F71F85F DUP7 ADD SSTORE MLOAD PUSH32 0xC2575A0E9E593C00F959F8C92F12DB2869C3395A3B0502D05E2516446F71F860 DUP6 ADD SSTORE MLOAD PUSH32 0xC2575A0E9E593C00F959F8C92F12DB2869C3395A3B0502D05E2516446F71F861 SWAP1 SWAP4 ADD SWAP3 SWAP1 SWAP3 SSTORE SWAP1 SLOAD SWAP2 SWAP3 SWAP1 SWAP2 PUSH2 0x276F SWAP2 SWAP1 PUSH2 0x402D JUMP JUMPDEST CALLER PUSH1 0x0 SWAP1 DUP2 MSTORE PUSH1 0x7 PUSH1 0x20 SWAP1 DUP2 MSTORE PUSH1 0x40 DUP1 DUP4 KECCAK256 DUP1 SLOAD PUSH1 0x1 DUP2 DUP2 ADD DUP4 SSTORE SWAP2 DUP6 MSTORE DUP4 DUP6 KECCAK256 ADD DUP6 SWAP1 SSTORE PUSH1 0x4 DUP14 ADD DUP1 SLOAD PUSH1 0x1 PUSH1 0x1 PUSH1 0xA0 SHL SUB SWAP1 DUP2 AND DUP7 MSTORE PUSH1 0x6 DUP6 MSTORE DUP4 DUP7 KECCAK256 DUP1 SLOAD SWAP4 DUP5 ADD DUP2 SSTORE DUP7 MSTORE SWAP4 SWAP1 SWAP5 KECCAK256 ADD DUP5 SWAP1 SSTORE SWAP2 SLOAD SWAP2 MLOAD SWAP3 SWAP4 POP PUSH32 0x96D694E92C01C8197B4CF2ECB0EC03BE940CC6E384CBDFB2AFB329375A0BE252 SWAP3 PUSH2 0x27FC SWAP3 DUP6 SWAP3 DUP13 SWAP3 SWAP2 AND SWAP1 DUP12 SWAP1 DUP12 SWAP1 PUSH2 0x42B4 JUMP JUMPDEST PUSH1 0x40 MLOAD DUP1 SWAP2 SUB SWAP1 LOG1 POP POP POP POP POP POP POP POP JUMP JUMPDEST PUSH1 0x0 DUP1 PUSH1 0x0 DUP1 DUP7 PUSH1 0x6 ADD SLOAD DUP6 LT SWAP1 POP DUP1 ISZERO PUSH2 0x282B JUMPI DUP5 SWAP2 POP PUSH2 0x2833 JUMP JUMPDEST DUP7 PUSH1 0x6 ADD SLOAD SWAP2 POP JUMPDEST DUP7 SLOAD PUSH2 0x284A SWAP1 DUP10 SWAP1 PUSH1 0x1 PUSH1 0x1 PUSH1 0xA0 SHL SUB AND DUP5 PUSH2 0x34D5 JUMP JUMPDEST ISZERO PUSH2 0x2899 JUMPI PUSH2 0x2859 DUP3 DUP7 PUSH2 0x402D JUMP JUMPDEST SWAP5 POP DUP1 ISZERO PUSH2 0x2894 JUMPI DUP2 DUP8 PUSH1 0x6 ADD PUSH1 0x0 DUP3 DUP3 SLOAD PUSH2 0x2875 SWAP2 SWAP1 PUSH2 0x402D JUMP JUMPDEST SWAP3 POP POP DUP2 SWAP1 SSTORE POP PUSH2 0x288E DUP8 PUSH1 0x6 ADD SLOAD DUP9 PUSH1 0x4 ADD SLOAD PUSH2 0x337D JUMP JUMPDEST PUSH1 0x5 DUP9 ADD SSTORE JUMPDEST PUSH2 0x28A7 JUMP JUMPDEST PUSH1 0x0 DUP6 SWAP4 POP SWAP4 POP POP POP PUSH2 0x2908 JUMP JUMPDEST PUSH1 0x1 DUP8 ADD SLOAD DUP8 SLOAD PUSH1 0x40 MLOAD PUSH32 0xBDB78CC9B5D01BDAC074DF120CC9776D231060CDCDCC8C7F6C2039F67A5E626F SWAP3 PUSH2 0x28F8 SWAP3 DUP11 SWAP3 PUSH1 0x1 PUSH1 0xA0 SHL SWAP1 SWAP3 DIV PUSH1 0xFF AND SWAP2 PUSH1 0x1 PUSH1 0x1 PUSH1 0xA0 SHL SUB SWAP1 SWAP2 AND SWAP1 DUP7 SWAP1 PUSH2 0x4300 JUMP JUMPDEST PUSH1 0x40 MLOAD DUP1 SWAP2 SUB SWAP1 LOG1 ISZERO SWAP3 POP DUP4 SWAP2 POP POP JUMPDEST SWAP5 POP SWAP5 SWAP3 POP POP POP JUMP JUMPDEST PUSH1 0x0 DUP1 PUSH1 0x0 DUP1 DUP7 PUSH1 0x6 ADD SLOAD DUP7 LT SWAP1 POP DUP1 ISZERO PUSH2 0x292E JUMPI DUP6 SWAP2 POP PUSH2 0x2936 JUMP JUMPDEST DUP7 PUSH1 0x6 ADD SLOAD SWAP2 POP JUMPDEST DUP7 SLOAD PUSH2 0x294B SWAP1 PUSH1 0x1 PUSH1 0x1 PUSH1 0xA0 SHL SUB AND DUP4 PUSH2 0x36E9 JUMP JUMPDEST ISZERO PUSH2 0x29FB JUMPI PUSH2 0x295A DUP3 DUP8 PUSH2 0x402D JUMP JUMPDEST SWAP6 POP DUP1 ISZERO PUSH2 0x2995 JUMPI DUP2 DUP8 PUSH1 0x6 ADD PUSH1 0x0 DUP3 DUP3 SLOAD PUSH2 0x2976 SWAP2 SWAP1 PUSH2 0x402D JUMP JUMPDEST SWAP3 POP POP DUP2 SWAP1 SSTORE POP PUSH2 0x298F DUP8 PUSH1 0x6 ADD SLOAD DUP9 PUSH1 0x4 ADD SLOAD PUSH2 0x3389 JUMP JUMPDEST PUSH1 0x5 DUP9 ADD SSTORE JUMPDEST PUSH1 0x1 DUP8 ADD SLOAD DUP8 SLOAD PUSH1 0x40 MLOAD PUSH32 0xBDB78CC9B5D01BDAC074DF120CC9776D231060CDCDCC8C7F6C2039F67A5E626F SWAP3 PUSH2 0x29E6 SWAP3 DUP10 SWAP3 PUSH1 0x1 PUSH1 0xA0 SHL SWAP1 SWAP3 DIV PUSH1 0xFF AND SWAP2 PUSH1 0x1 PUSH1 0x1 PUSH1 0xA0 SHL SUB SWAP1 SWAP2 AND SWAP1 DUP7 SWAP1 PUSH2 0x4300 JUMP JUMPDEST PUSH1 0x40 MLOAD DUP1 SWAP2 SUB SWAP1 LOG1 ISZERO SWAP3 POP DUP5 SWAP2 POP PUSH2 0x2A05 SWAP1 POP JUMP JUMPDEST PUSH1 0x0 DUP7 SWAP4 POP SWAP4 POP POP POP JUMPDEST SWAP4 POP SWAP4 SWAP2 POP POP JUMP JUMPDEST DUP2 SLOAD PUSH1 0x0 SWAP1 PUSH2 0x2A1E SWAP1 PUSH1 0x1 SWAP1 PUSH2 0x402D JUMP JUMPDEST SWAP1 POP DUP1 DUP3 EQ PUSH2 0x2B00 JUMPI DUP3 DUP2 DUP2 SLOAD DUP2 LT PUSH2 0x2A39 JUMPI PUSH2 0x2A39 PUSH2 0x3FD5 JUMP JUMPDEST SWAP1 PUSH1 0x0 MSTORE PUSH1 0x20 PUSH1 0x0 KECCAK256 SWAP1 PUSH1 0x7 MUL ADD DUP4 DUP4 DUP2 SLOAD DUP2 LT PUSH2 0x2A59 JUMPI PUSH2 0x2A59 PUSH2 0x3FD5 JUMP JUMPDEST PUSH1 0x0 SWAP2 DUP3 MSTORE PUSH1 0x20 SWAP1 SWAP2 KECCAK256 DUP3 SLOAD PUSH1 0x7 SWAP1 SWAP3 MUL ADD DUP1 SLOAD PUSH1 0x1 PUSH1 0x1 PUSH1 0xA0 SHL SUB NOT SWAP1 DUP2 AND PUSH1 0x1 PUSH1 0x1 PUSH1 0xA0 SHL SUB SWAP4 DUP5 AND OR DUP3 SSTORE PUSH1 0x1 DUP1 DUP6 ADD DUP1 SLOAD SWAP2 DUP5 ADD DUP1 SLOAD SWAP4 DUP5 AND SWAP3 SWAP1 SWAP6 AND SWAP2 DUP3 OR DUP6 SSTORE SLOAD PUSH1 0xFF PUSH1 0x1 PUSH1 0xA0 SHL SWAP2 DUP3 SWAP1 DIV AND ISZERO ISZERO MUL PUSH21 0xFFFFFFFFFFFFFFFFFFFFFFFFFFFFFFFFFFFFFFFFFF NOT SWAP1 SWAP3 AND OR OR SWAP1 SWAP2 SSTORE PUSH1 0x2 DUP1 DUP4 ADD SLOAD SWAP1 DUP3 ADD SSTORE PUSH1 0x3 DUP1 DUP4 ADD SLOAD SWAP1 DUP3 ADD SSTORE PUSH1 0x4 DUP1 DUP4 ADD SLOAD SWAP1 DUP3 ADD SSTORE PUSH1 0x5 DUP1 DUP4 ADD SLOAD SWAP1 DUP3 ADD SSTORE PUSH1 0x6 SWAP2 DUP3 ADD SLOAD SWAP2 ADD SSTORE JUMPDEST DUP3 DUP1 SLOAD DUP1 PUSH2 0x2B10 JUMPI PUSH2 0x2B10 PUSH2 0x424A JUMP JUMPDEST PUSH1 0x0 DUP3 DUP2 MSTORE PUSH1 0x20 DUP2 KECCAK256 PUSH1 0x7 PUSH1 0x0 NOT SWAP1 SWAP4 ADD SWAP3 DUP4 MUL ADD DUP1 SLOAD PUSH1 0x1 PUSH1 0x1 PUSH1 0xA0 SHL SUB NOT AND DUP2 SSTORE PUSH1 0x1 DUP2 ADD DUP1 SLOAD PUSH21 0xFFFFFFFFFFFFFFFFFFFFFFFFFFFFFFFFFFFFFFFFFF NOT AND SWAP1 SSTORE PUSH1 0x2 DUP2 ADD DUP3 SWAP1 SSTORE PUSH1 0x3 DUP2 ADD DUP3 SWAP1 SSTORE PUSH1 0x4 DUP2 ADD DUP3 SWAP1 SSTORE PUSH1 0x5 DUP2 ADD DUP3 SWAP1 SSTORE PUSH1 0x6 ADD SSTORE SWAP1 SSTORE POP POP POP JUMP JUMPDEST PUSH1 0x0 DUP1 PUSH1 0x0 PUSH2 0x2B88 DUP5 PUSH2 0x35B7 JUMP JUMPDEST SWAP2 POP SWAP2 POP DUP1 PUSH2 0x2BC3 JUMPI PUSH1 0x40 MLOAD PUSH32 0xE6F7D2C700000000000000000000000000000000000000000000000000000000 DUP2 MSTORE PUSH1 0x4 ADD PUSH1 0x40 MLOAD DUP1 SWAP2 SUB SWAP1 REVERT JUMPDEST POP SWAP3 SWAP2 POP POP JUMP JUMPDEST PUSH1 0x2 SLOAD PUSH1 0x0 SUB PUSH2 0x2BD6 JUMPI JUMP JUMPDEST PUSH1 0x0 PUSH1 0x2 PUSH1 0x0 DUP2 SLOAD DUP2 LT PUSH2 0x2BEC JUMPI PUSH2 0x2BEC PUSH2 0x3FD5 JUMP JUMPDEST SWAP1 PUSH1 0x0 MSTORE PUSH1 0x20 PUSH1 0x0 KECCAK256 SWAP1 PUSH1 0xB MUL ADD PUSH1 0x40 MLOAD DUP1 PUSH2 0x180 ADD PUSH1 0x40 MSTORE SWAP1 DUP2 PUSH1 0x0 DUP3 ADD DUP1 SLOAD PUSH2 0x2C16 SWAP1 PUSH2 0x40B9 JUMP JUMPDEST DUP1 PUSH1 0x1F ADD PUSH1 0x20 DUP1 SWAP2 DIV MUL PUSH1 0x20 ADD PUSH1 0x40 MLOAD SWAP1 DUP2 ADD PUSH1 0x40 MSTORE DUP1 SWAP3 SWAP2 SWAP1 DUP2 DUP2 MSTORE PUSH1 0x20 ADD DUP3 DUP1 SLOAD PUSH2 0x2C42 SWAP1 PUSH2 0x40B9 JUMP JUMPDEST DUP1 ISZERO PUSH2 0x2C8F JUMPI DUP1 PUSH1 0x1F LT PUSH2 0x2C64 JUMPI PUSH2 0x100 DUP1 DUP4 SLOAD DIV MUL DUP4 MSTORE SWAP2 PUSH1 0x20 ADD SWAP2 PUSH2 0x2C8F JUMP JUMPDEST DUP3 ADD SWAP2 SWAP1 PUSH1 0x0 MSTORE PUSH1 0x20 PUSH1 0x0 KECCAK256 SWAP1 JUMPDEST DUP2 SLOAD DUP2 MSTORE SWAP1 PUSH1 0x1 ADD SWAP1 PUSH1 0x20 ADD DUP1 DUP4 GT PUSH2 0x2C72 JUMPI DUP3 SWAP1 SUB PUSH1 0x1F AND DUP3 ADD SWAP2 JUMPDEST POP POP POP POP POP DUP2 MSTORE PUSH1 0x20 ADD PUSH1 0x1 DUP3 ADD DUP1 SLOAD PUSH2 0x2CA8 SWAP1 PUSH2 0x40B9 JUMP JUMPDEST DUP1 PUSH1 0x1F ADD PUSH1 0x20 DUP1 SWAP2 DIV MUL PUSH1 0x20 ADD PUSH1 0x40 MLOAD SWAP1 DUP2 ADD PUSH1 0x40 MSTORE DUP1 SWAP3 SWAP2 SWAP1 DUP2 DUP2 MSTORE PUSH1 0x20 ADD DUP3 DUP1 SLOAD PUSH2 0x2CD4 SWAP1 PUSH2 0x40B9 JUMP JUMPDEST DUP1 ISZERO PUSH2 0x2D21 JUMPI DUP1 PUSH1 0x1F LT PUSH2 0x2CF6 JUMPI PUSH2 0x100 DUP1 DUP4 SLOAD DIV MUL DUP4 MSTORE SWAP2 PUSH1 0x20 ADD SWAP2 PUSH2 0x2D21 JUMP JUMPDEST DUP3 ADD SWAP2 SWAP1 PUSH1 0x0 MSTORE PUSH1 0x20 PUSH1 0x0 KECCAK256 SWAP1 JUMPDEST DUP2 SLOAD DUP2 MSTORE SWAP1 PUSH1 0x1 ADD SWAP1 PUSH1 0x20 ADD DUP1 DUP4 GT PUSH2 0x2D04 JUMPI DUP3 SWAP1 SUB PUSH1 0x1F AND DUP3 ADD SWAP2 JUMPDEST POP POP POP SWAP2 DUP4 MSTORE POP POP PUSH1 0x2 DUP3 ADD SLOAD PUSH1 0xFF SWAP1 DUP2 AND PUSH1 0x20 DUP4 ADD MSTORE PUSH1 0x3 DUP4 ADD SLOAD PUSH1 0x40 DUP4 ADD MSTORE PUSH1 0x4 DUP4 ADD SLOAD PUSH1 0x1 PUSH1 0x1 PUSH1 0xA0 SHL SUB SWAP1 DUP2 AND PUSH1 0x60 DUP5 ADD MSTORE PUSH1 0x5 DUP5 ADD SLOAD SWAP1 DUP2 AND PUSH1 0x80 DUP5 ADD MSTORE PUSH1 0xA0 SWAP1 SWAP3 ADD SWAP2 PUSH1 0x1 PUSH1 0xA0 SHL SWAP1 DIV AND PUSH1 0x1 DUP2 GT ISZERO PUSH2 0x2D83 JUMPI PUSH2 0x2D83 PUSH2 0x3BA5 JUMP JUMPDEST PUSH1 0x1 DUP2 GT ISZERO PUSH2 0x2D94 JUMPI PUSH2 0x2D94 PUSH2 0x3BA5 JUMP JUMPDEST DUP2 MSTORE PUSH1 0x6 DUP3 ADD SLOAD PUSH1 0x20 DUP3 ADD MSTORE PUSH1 0x7 DUP3 ADD SLOAD PUSH1 0x40 DUP3 ADD MSTORE PUSH1 0x8 DUP3 ADD SLOAD PUSH1 0x60 DUP3 ADD MSTORE PUSH1 0x9 DUP3 ADD SLOAD PUSH1 0x80 DUP3 ADD MSTORE PUSH1 0xA SWAP1 SWAP2 ADD SLOAD PUSH1 0x1 PUSH1 0x1 PUSH1 0xA0 SHL SUB AND PUSH1 0xA0 SWAP1 SWAP2 ADD MSTORE PUSH2 0x160 DUP2 ADD MLOAD PUSH1 0x1 SLOAD SWAP2 SWAP3 POP PUSH2 0x2DEA SWAP2 CALLER SWAP1 PUSH2 0x20B6 JUMP JUMPDEST PUSH2 0x2E24 JUMPI PUSH1 0x1 SLOAD PUSH1 0x40 MLOAD PUSH32 0xCA114A0200000000000000000000000000000000000000000000000000000000 DUP2 MSTORE PUSH1 0x4 ADD PUSH2 0x15DE SWAP2 SWAP1 PUSH2 0x3B20 JUMP JUMPDEST PUSH1 0x1 SLOAD PUSH1 0x80 DUP3 ADD MLOAD PUSH1 0x1 PUSH1 0x1 PUSH1 0xA0 SHL SUB AND PUSH1 0x0 SWAP1 DUP2 MSTORE PUSH1 0x9 PUSH1 0x20 MSTORE PUSH1 0x40 DUP2 KECCAK256 DUP1 SLOAD SWAP1 SWAP2 SWAP1 PUSH2 0x2E53 SWAP1 DUP5 SWAP1 PUSH2 0x4075 JUMP JUMPDEST SWAP3 POP POP DUP2 SWAP1 SSTORE POP PUSH1 0x0 PUSH2 0x3E8 PUSH1 0x5 PUSH1 0x1 SLOAD PUSH2 0x2E6E SWAP2 SWAP1 PUSH2 0x433E JUMP JUMPDEST PUSH2 0x2E78 SWAP2 SWAP1 PUSH2 0x436C JUMP JUMPDEST SWAP1 POP DUP1 PUSH1 0x1 PUSH1 0x0 DUP3 DUP3 SLOAD PUSH2 0x2E8C SWAP2 SWAP1 PUSH2 0x4075 JUMP JUMPDEST SWAP1 SWAP2 SSTORE POP POP POP POP JUMP JUMPDEST PUSH1 0x0 DUP7 SWAP1 POP PUSH1 0x60 DUP1 PUSH1 0x0 DUP1 PUSH1 0x0 DUP6 PUSH1 0x1 PUSH1 0x1 PUSH1 0xA0 SHL SUB AND PUSH4 0x70A08231 ADDRESS PUSH1 0x40 MLOAD DUP3 PUSH4 0xFFFFFFFF AND PUSH1 0xE0 SHL DUP2 MSTORE PUSH1 0x4 ADD PUSH2 0x2ECE SWAP2 SWAP1 PUSH2 0x3F00 JUMP JUMPDEST PUSH1 0x20 PUSH1 0x40 MLOAD DUP1 DUP4 SUB DUP2 DUP7 GAS STATICCALL SWAP3 POP POP POP DUP1 ISZERO PUSH2 0x2F07 JUMPI POP PUSH1 0x40 DUP1 MLOAD PUSH1 0x1F RETURNDATASIZE SWAP1 DUP2 ADD PUSH1 0x1F NOT AND DUP3 ADD SWAP1 SWAP3 MSTORE PUSH2 0x2F04 SWAP2 DUP2 ADD SWAP1 PUSH2 0x3FF6 JUMP JUMPDEST PUSH1 0x1 JUMPDEST PUSH2 0x2F3D JUMPI PUSH1 0x40 MLOAD PUSH32 0x29BDFB3400000000000000000000000000000000000000000000000000000000 DUP2 MSTORE PUSH1 0x4 ADD PUSH1 0x40 MLOAD DUP1 SWAP2 SUB SWAP1 REVERT JUMPDEST DUP1 SWAP3 POP DUP7 PUSH1 0x1 PUSH1 0x1 PUSH1 0xA0 SHL SUB AND PUSH4 0x313CE567 PUSH1 0x40 MLOAD DUP2 PUSH4 0xFFFFFFFF AND PUSH1 0xE0 SHL DUP2 MSTORE PUSH1 0x4 ADD PUSH1 0x20 PUSH1 0x40 MLOAD DUP1 DUP4 SUB DUP2 DUP7 GAS STATICCALL SWAP3 POP POP POP DUP1 ISZERO PUSH2 0x2F9A JUMPI POP PUSH1 0x40 DUP1 MLOAD PUSH1 0x1F RETURNDATASIZE SWAP1 DUP2 ADD PUSH1 0x1F NOT AND DUP3 ADD SWAP1 SWAP3 MSTORE PUSH2 0x2F97 SWAP2 DUP2 ADD SWAP1 PUSH2 0x4394 JUMP JUMPDEST PUSH1 0x1 JUMPDEST PUSH2 0x2FA7 JUMPI PUSH1 0x12 SWAP2 POP PUSH2 0x2FAA JUMP JUMPDEST SWAP2 POP JUMPDEST PUSH1 0x12 PUSH1 0xFF DUP4 AND GT ISZERO PUSH2 0x2FE8 JUMPI PUSH1 0x40 MLOAD PUSH32 0x432C0A5D00000000000000000000000000000000000000000000000000000000 DUP2 MSTORE PUSH1 0x4 ADD PUSH1 0x40 MLOAD DUP1 SWAP2 SUB SWAP1 REVERT JUMPDEST PUSH2 0x2FF4 DUP3 PUSH1 0xFF AND PUSH2 0x375F JUMP JUMPDEST SWAP4 POP DUP7 PUSH1 0x1 PUSH1 0x1 PUSH1 0xA0 SHL SUB AND PUSH4 0x6FDDE03 PUSH1 0x40 MLOAD DUP2 PUSH4 0xFFFFFFFF AND PUSH1 0xE0 SHL DUP2 MSTORE PUSH1 0x4 ADD PUSH1 0x0 PUSH1 0x40 MLOAD DUP1 DUP4 SUB DUP2 DUP7 GAS STATICCALL SWAP3 POP POP POP DUP1 ISZERO PUSH2 0x3055 JUMPI POP PUSH1 0x40 MLOAD RETURNDATASIZE PUSH1 0x0 DUP3 RETURNDATACOPY PUSH1 0x1F RETURNDATASIZE SWAP1 DUP2 ADD PUSH1 0x1F NOT AND DUP3 ADD PUSH1 0x40 MSTORE PUSH2 0x3052 SWAP2 SWAP1 DUP2 ADD SWAP1 PUSH2 0x41E7 JUMP JUMPDEST PUSH1 0x1 JUMPDEST ISZERO PUSH2 0x305D JUMPI SWAP6 POP JUMPDEST DUP7 PUSH1 0x1 PUSH1 0x1 PUSH1 0xA0 SHL SUB AND PUSH4 0x95D89B41 PUSH1 0x40 MLOAD DUP2 PUSH4 0xFFFFFFFF AND PUSH1 0xE0 SHL DUP2 MSTORE PUSH1 0x4 ADD PUSH1 0x0 PUSH1 0x40 MLOAD DUP1 DUP4 SUB DUP2 DUP7 GAS STATICCALL SWAP3 POP POP POP DUP1 ISZERO PUSH2 0x30BC JUMPI POP PUSH1 0x40 MLOAD RETURNDATASIZE PUSH1 0x0 DUP3 RETURNDATACOPY PUSH1 0x1F RETURNDATASIZE SWAP1 DUP2 ADD PUSH1 0x1F NOT AND DUP3 ADD PUSH1 0x40 MSTORE PUSH2 0x30B9 SWAP2 SWAP1 DUP2 ADD SWAP1 PUSH2 0x41E7 JUMP JUMPDEST PUSH1 0x1 JUMPDEST ISZERO PUSH2 0x30C4 JUMPI SWAP5 POP JUMPDEST POP PUSH1 0x0 PUSH1 0x40 MLOAD DUP1 PUSH2 0x180 ADD PUSH1 0x40 MSTORE DUP1 DUP8 DUP2 MSTORE PUSH1 0x20 ADD DUP7 DUP2 MSTORE PUSH1 0x20 ADD DUP4 PUSH1 0xFF AND DUP2 MSTORE PUSH1 0x20 ADD DUP6 DUP2 MSTORE PUSH1 0x20 ADD DUP15 PUSH1 0x1 PUSH1 0x1 PUSH1 0xA0 SHL SUB AND DUP2 MSTORE PUSH1 0x20 ADD DUP12 PUSH1 0x1 PUSH1 0x1 PUSH1 0xA0 SHL SUB AND DUP2 MSTORE PUSH1 0x20 ADD DUP13 PUSH1 0x1 DUP2 GT ISZERO PUSH2 0x311E JUMPI PUSH2 0x311E PUSH2 0x3BA5 JUMP JUMPDEST DUP2 MSTORE PUSH1 0x20 DUP2 ADD DUP12 SWAP1 MSTORE PUSH1 0x40 DUP2 ADD DUP11 SWAP1 MSTORE PUSH1 0x60 DUP2 ADD DUP15 SWAP1 MSTORE PUSH1 0x0 PUSH1 0x80 DUP3 ADD DUP2 SWAP1 MSTORE PUSH1 0x1 PUSH1 0x1 PUSH1 0xA0 SHL SUB DUP11 AND PUSH1 0xA0 SWAP1 SWAP3 ADD SWAP2 SWAP1 SWAP2 MSTORE PUSH1 0x2 DUP1 SLOAD PUSH1 0x1 DUP2 ADD DUP3 SSTORE SWAP2 MSTORE DUP2 MLOAD SWAP2 SWAP3 POP DUP3 SWAP2 PUSH1 0xB SWAP1 SWAP2 MUL PUSH32 0x405787FA12A823E0F2B7631CC41B3BA8828B3321CA811111FA75CD3AA3BB5ACE ADD SWAP1 DUP2 SWAP1 PUSH2 0x3198 SWAP1 DUP3 PUSH2 0x4446 JUMP JUMPDEST POP PUSH1 0x20 DUP3 ADD MLOAD PUSH1 0x1 DUP3 ADD SWAP1 PUSH2 0x31AD SWAP1 DUP3 PUSH2 0x4446 JUMP JUMPDEST POP PUSH1 0x40 DUP3 ADD MLOAD PUSH1 0x2 DUP3 ADD DUP1 SLOAD PUSH1 0xFF NOT AND PUSH1 0xFF SWAP1 SWAP3 AND SWAP2 SWAP1 SWAP2 OR SWAP1 SSTORE PUSH1 0x60 DUP3 ADD MLOAD PUSH1 0x3 DUP3 ADD SSTORE PUSH1 0x80 DUP3 ADD MLOAD PUSH1 0x4 DUP3 ADD DUP1 SLOAD PUSH1 0x1 PUSH1 0x1 PUSH1 0xA0 SHL SUB NOT SWAP1 DUP2 AND PUSH1 0x1 PUSH1 0x1 PUSH1 0xA0 SHL SUB SWAP4 DUP5 AND OR SWAP1 SWAP2 SSTORE PUSH1 0xA0 DUP5 ADD MLOAD PUSH1 0x5 DUP5 ADD DUP1 SLOAD SWAP3 DUP4 AND SWAP2 SWAP1 SWAP4 AND SWAP1 DUP2 OR DUP4 SSTORE PUSH1 0xC0 DUP6 ADD MLOAD SWAP3 SWAP2 PUSH21 0xFFFFFFFFFFFFFFFFFFFFFFFFFFFFFFFFFFFFFFFFFF NOT AND OR PUSH1 0x1 PUSH1 0xA0 SHL DUP4 PUSH1 0x1 DUP2 GT ISZERO PUSH2 0x3246 JUMPI PUSH2 0x3246 PUSH2 0x3BA5 JUMP JUMPDEST MUL OR SWAP1 SSTORE POP PUSH1 0xE0 DUP3 ADD MLOAD PUSH1 0x6 DUP3 ADD SSTORE PUSH2 0x100 DUP3 ADD MLOAD PUSH1 0x7 DUP3 ADD SSTORE PUSH2 0x120 DUP3 ADD MLOAD PUSH1 0x8 DUP3 ADD SSTORE PUSH2 0x140 DUP3 ADD MLOAD PUSH1 0x9 DUP1 DUP4 ADD SWAP2 SWAP1 SWAP2 SSTORE PUSH2 0x160 SWAP1 SWAP3 ADD MLOAD PUSH1 0xA SWAP1 SWAP2 ADD DUP1 SLOAD PUSH1 0x1 PUSH1 0x1 PUSH1 0xA0 SHL SUB NOT AND PUSH1 0x1 PUSH1 0x1 PUSH1 0xA0 SHL SUB SWAP3 DUP4 AND OR SWAP1 SSTORE PUSH1 0x2 SLOAD PUSH1 0x80 DUP5 ADD DUP1 MLOAD DUP4 AND PUSH1 0x0 SWAP1 DUP2 MSTORE PUSH1 0x5 PUSH1 0x20 SWAP1 DUP2 MSTORE PUSH1 0x40 DUP1 DUP4 KECCAK256 SWAP5 SWAP1 SWAP5 SSTORE SWAP2 MLOAD SWAP1 SWAP4 AND DUP4 MSTORE SWAP3 DUP4 MSTORE SWAP1 DUP2 SWAP1 KECCAK256 DUP6 SWAP1 SSTORE SWAP1 DUP3 ADD MLOAD SWAP1 MLOAD PUSH2 0x32E1 SWAP2 SWAP1 PUSH2 0x452B JUMP JUMPDEST PUSH1 0x40 MLOAD SWAP1 DUP2 SWAP1 SUB DUP2 KECCAK256 DUP3 MLOAD SWAP1 SWAP2 PUSH2 0x32F8 SWAP2 SWAP1 PUSH2 0x452B JUMP JUMPDEST PUSH1 0x40 MLOAD SWAP1 DUP2 SWAP1 SUB DUP2 KECCAK256 PUSH1 0xC0 DUP5 ADD MLOAD PUSH1 0x80 DUP6 ADD MLOAD PUSH1 0x2 SLOAD SWAP3 SWAP4 PUSH32 0x2B9A73ECC76EBAD22366F66B2436A1725CC4F39AA579663FC941863779316B1B SWAP4 PUSH2 0x333D SWAP4 SWAP3 SWAP2 PUSH2 0x4537 JUMP JUMPDEST PUSH1 0x40 MLOAD DUP1 SWAP2 SUB SWAP1 LOG3 POP POP POP POP POP POP POP POP POP POP POP POP POP JUMP JUMPDEST PUSH1 0x0 DUP2 PUSH1 0x1 EQ PUSH2 0x3376 JUMPI PUSH2 0x3367 DUP3 PUSH2 0x375F JUMP JUMPDEST PUSH2 0x3371 SWAP1 DUP5 PUSH2 0x433E JUMP JUMPDEST PUSH2 0x7F0 JUMP JUMPDEST POP SWAP1 SWAP2 SWAP1 POP JUMP JUMPDEST PUSH1 0x0 PUSH2 0x7F0 DUP4 DUP4 PUSH2 0x3780 JUMP JUMPDEST PUSH1 0x0 PUSH2 0x7F0 DUP4 DUP4 PUSH2 0x3795 JUMP JUMPDEST PUSH1 0x0 DUP1 PUSH1 0x0 DUP1 DUP8 PUSH1 0x40 ADD MLOAD ISZERO PUSH2 0x33B5 JUMPI POP POP DUP6 MLOAD DUP4 SWAP3 POP DUP5 SWAP2 POP CALLER PUSH2 0x33C2 JUMP JUMPDEST POP POP DUP6 MLOAD DUP5 SWAP3 POP DUP4 SWAP2 POP CALLER SWAP1 JUMPDEST PUSH2 0x33CD DUP8 DUP3 DUP6 PUSH2 0x34D5 JUMP JUMPDEST PUSH2 0x33EA JUMPI PUSH1 0x40 MLOAD PUSH4 0x4DE4E1D PUSH1 0xE4 SHL DUP2 MSTORE PUSH1 0x4 ADD PUSH1 0x40 MLOAD DUP1 SWAP2 SUB SWAP1 REVERT JUMPDEST PUSH2 0x33F4 DUP3 DUP6 PUSH2 0x36E9 JUMP JUMPDEST PUSH2 0x3411 JUMPI PUSH1 0x40 MLOAD PUSH4 0x4DE4E1D PUSH1 0xE4 SHL DUP2 MSTORE PUSH1 0x4 ADD PUSH1 0x40 MLOAD DUP1 SWAP2 SUB SWAP1 REVERT JUMPDEST PUSH1 0x80 DUP8 ADD MLOAD PUSH1 0x1 PUSH1 0x1 PUSH1 0xA0 SHL SUB AND PUSH1 0x0 SWAP1 DUP2 MSTORE PUSH1 0x8 PUSH1 0x20 MSTORE PUSH1 0x40 DUP2 KECCAK256 DUP1 SLOAD DUP7 SWAP3 SWAP1 PUSH2 0x343D SWAP1 DUP5 SWAP1 PUSH2 0x402D JUMP JUMPDEST SWAP1 SWAP2 SSTORE POP POP PUSH1 0x80 DUP8 ADD MLOAD PUSH1 0x1 PUSH1 0x1 PUSH1 0xA0 SHL SUB AND PUSH1 0x0 SWAP1 DUP2 MSTORE PUSH1 0xA PUSH1 0x20 MSTORE PUSH1 0x40 SWAP1 KECCAK256 SLOAD DUP4 LT DUP1 ISZERO PUSH2 0x3499 JUMPI PUSH1 0x80 DUP9 ADD MLOAD PUSH1 0x1 PUSH1 0x1 PUSH1 0xA0 SHL SUB AND PUSH1 0x0 SWAP1 DUP2 MSTORE PUSH1 0xA PUSH1 0x20 MSTORE PUSH1 0x40 DUP2 KECCAK256 DUP1 SLOAD DUP7 SWAP3 SWAP1 PUSH2 0x3493 SWAP1 DUP5 SWAP1 PUSH2 0x402D JUMP JUMPDEST SWAP1 SWAP2 SSTORE POP POP JUMPDEST PUSH1 0x80 DUP9 ADD MLOAD PUSH1 0x1 PUSH1 0x1 PUSH1 0xA0 SHL SUB AND PUSH1 0x0 SWAP1 DUP2 MSTORE PUSH1 0x9 PUSH1 0x20 MSTORE PUSH1 0x40 DUP2 KECCAK256 DUP1 SLOAD DUP7 SWAP3 SWAP1 PUSH2 0x34C5 SWAP1 DUP5 SWAP1 PUSH2 0x402D JUMP JUMPDEST SWAP1 SWAP2 SSTORE POP POP POP POP POP POP POP POP POP POP POP JUMP JUMPDEST PUSH2 0x160 DUP4 ADD MLOAD PUSH1 0x40 MLOAD PUSH32 0xA9059CBB00000000000000000000000000000000000000000000000000000000 DUP2 MSTORE PUSH1 0x0 SWAP2 PUSH1 0x1 PUSH1 0x1 PUSH1 0xA0 SHL SUB AND SWAP1 PUSH4 0xA9059CBB SWAP1 PUSH2 0x3524 SWAP1 DUP7 SWAP1 DUP7 SWAP1 PUSH1 0x4 ADD PUSH2 0x4545 JUMP JUMPDEST PUSH1 0x20 PUSH1 0x40 MLOAD DUP1 DUP4 SUB DUP2 PUSH1 0x0 DUP8 GAS CALL SWAP3 POP POP POP DUP1 ISZERO PUSH2 0x355F JUMPI POP PUSH1 0x40 DUP1 MLOAD PUSH1 0x1F RETURNDATASIZE SWAP1 DUP2 ADD PUSH1 0x1F NOT AND DUP3 ADD SWAP1 SWAP3 MSTORE PUSH2 0x355C SWAP2 DUP2 ADD SWAP1 PUSH2 0x4293 JUMP JUMPDEST PUSH1 0x1 JUMPDEST PUSH2 0x356B JUMPI POP PUSH1 0x0 PUSH2 0x7F0 JUMP JUMPDEST DUP1 ISZERO PUSH2 0x2149 JUMPI PUSH32 0xA84F763BE5BB36163517FB87C7AF39F875A97866FDF7806EB1B3EAC837AE35EA DUP4 DUP6 DUP8 PUSH1 0x80 ADD MLOAD PUSH1 0x40 MLOAD PUSH2 0x35A8 SWAP4 SWAP3 SWAP2 SWAP1 PUSH2 0x4560 JUMP JUMPDEST PUSH1 0x40 MLOAD DUP1 SWAP2 SUB SWAP1 LOG1 SWAP1 POP PUSH2 0x7F0 JUMP JUMPDEST PUSH1 0x0 DUP1 DUP1 DUP1 DUP5 DUP2 DUP1 DUP1 DUP1 DUP1 JUMPDEST DUP6 MLOAD DUP2 LT DUP1 ISZERO PUSH2 0x35D1 JUMPI POP DUP4 ISZERO JUMPDEST ISZERO PUSH2 0x36BE JUMPI DUP6 DUP2 DUP2 MLOAD DUP2 LT PUSH2 0x35E8 JUMPI PUSH2 0x35E8 PUSH2 0x3FD5 JUMP JUMPDEST ADD PUSH1 0x20 ADD MLOAD PUSH1 0xF8 SHR SWAP5 POP PUSH1 0x30 DUP6 LT DUP1 ISZERO SWAP1 PUSH2 0x3607 JUMPI POP PUSH1 0x39 DUP6 PUSH1 0xFF AND GT ISZERO JUMPDEST ISZERO PUSH2 0x3676 JUMPI DUP7 SWAP8 POP DUP3 ISZERO PUSH2 0x3627 JUMPI DUP2 PUSH2 0x361F DUP2 PUSH2 0x4588 JUMP JUMPDEST SWAP3 POP POP PUSH2 0x3635 JUMP JUMPDEST PUSH2 0x3632 PUSH1 0xA DUP9 PUSH2 0x433E JUMP JUMPDEST SWAP7 POP JUMPDEST PUSH2 0x3640 DUP3 PUSH1 0xA PUSH2 0x4693 JUMP JUMPDEST PUSH2 0x364B PUSH1 0x30 DUP8 PUSH2 0x46A8 JUMP JUMPDEST PUSH1 0xFF AND PUSH2 0x3658 SWAP2 SWAP1 PUSH2 0x433E JUMP JUMPDEST PUSH2 0x3662 SWAP1 DUP9 PUSH2 0x4075 JUMP JUMPDEST SWAP7 POP DUP7 DUP9 GT ISZERO PUSH2 0x3671 JUMPI PUSH1 0x1 SWAP4 POP JUMPDEST PUSH2 0x36AC JUMP JUMPDEST DUP5 PUSH1 0xFF AND PUSH1 0x2E SUB PUSH2 0x36AC JUMPI DUP3 ISZERO PUSH2 0x368C JUMPI PUSH1 0x1 SWAP4 POP JUMPDEST PUSH1 0x1 SWAP3 POP PUSH1 0x12 SWAP2 POP PUSH2 0x369F DUP3 PUSH1 0xA PUSH2 0x4693 JUMP JUMPDEST PUSH2 0x36A9 SWAP1 DUP9 PUSH2 0x433E JUMP JUMPDEST SWAP7 POP JUMPDEST DUP1 PUSH2 0x36B6 DUP2 PUSH2 0x4040 JUMP JUMPDEST SWAP2 POP POP PUSH2 0x35C3 JUMP JUMPDEST POP DUP2 PUSH2 0x36D9 JUMPI PUSH2 0x36D6 PUSH8 0xDE0B6B3A7640000 DUP8 PUSH2 0x433E JUMP JUMPDEST SWAP6 POP JUMPDEST POP SWAP4 SWAP9 SWAP1 ISZERO SWAP8 POP SWAP6 POP POP POP POP POP POP JUMP JUMPDEST PUSH1 0x40 MLOAD PUSH1 0x0 SWAP1 PUSH1 0x1 PUSH1 0x1 PUSH1 0xA0 SHL SUB DUP5 AND SWAP1 DUP4 ISZERO PUSH2 0x8FC MUL SWAP1 DUP5 SWAP1 DUP5 DUP2 DUP2 DUP2 DUP6 DUP9 DUP9 CALL SWAP4 POP POP POP POP ISZERO PUSH2 0x3756 JUMPI PUSH32 0x897F9F8697C0FEE5ACFC2C885618E98D4F0882E71E35D182FACCC1915C01ECB DUP3 DUP5 PUSH1 0x40 MLOAD PUSH2 0x3746 SWAP3 SWAP2 SWAP1 PUSH2 0x46C5 JUMP JUMPDEST PUSH1 0x40 MLOAD DUP1 SWAP2 SUB SWAP1 LOG1 POP PUSH1 0x1 PUSH2 0x644 JUMP JUMPDEST POP PUSH1 0x0 SWAP3 SWAP2 POP POP JUMP JUMPDEST PUSH1 0x0 DUP2 PUSH1 0x12 SUB PUSH2 0x3771 JUMPI POP PUSH1 0x1 SWAP2 SWAP1 POP JUMP JUMPDEST DUP2 PUSH1 0x12 SUB PUSH1 0xA EXP SWAP1 POP JUMPDEST SWAP2 SWAP1 POP JUMP JUMPDEST PUSH1 0x0 PUSH2 0x7F0 DUP4 PUSH8 0xDE0B6B3A7640000 DUP5 PUSH2 0x37A1 JUMP JUMPDEST PUSH1 0x0 PUSH2 0x7F0 DUP4 DUP4 PUSH2 0x3883 JUMP JUMPDEST PUSH1 0x0 DUP1 DUP1 PUSH1 0x0 NOT DUP6 DUP8 MULMOD DUP6 DUP8 MUL SWAP3 POP DUP3 DUP2 LT DUP4 DUP3 SUB SUB SWAP2 POP POP DUP1 PUSH1 0x0 SUB PUSH2 0x37DB JUMPI DUP4 DUP3 DUP2 PUSH2 0x37D1 JUMPI PUSH2 0x37D1 PUSH2 0x4356 JUMP JUMPDEST DIV SWAP3 POP POP POP PUSH2 0x7F0 JUMP JUMPDEST DUP4 DUP2 LT PUSH2 0x381A JUMPI DUP6 DUP6 DUP6 PUSH1 0x40 MLOAD PUSH32 0x6C59DA1200000000000000000000000000000000000000000000000000000000 DUP2 MSTORE PUSH1 0x4 ADD PUSH2 0x15DE SWAP4 SWAP3 SWAP2 SWAP1 PUSH2 0x46E0 JUMP JUMPDEST PUSH1 0x0 DUP5 DUP7 DUP9 MULMOD PUSH1 0x2 PUSH1 0x1 DUP8 NOT DUP2 ADD DUP9 AND SWAP8 DUP9 SWAP1 DIV PUSH1 0x3 DUP2 MUL DUP4 XOR DUP1 DUP3 MUL DUP5 SUB MUL DUP1 DUP3 MUL DUP5 SUB MUL DUP1 DUP3 MUL DUP5 SUB MUL DUP1 DUP3 MUL DUP5 SUB MUL DUP1 DUP3 MUL DUP5 SUB MUL SWAP1 DUP2 MUL SWAP1 SWAP3 SUB SWAP1 SWAP2 MUL PUSH1 0x0 DUP9 SWAP1 SUB DUP9 SWAP1 DIV SWAP1 SWAP2 ADD DUP6 DUP4 GT SWAP1 SWAP5 SUB SWAP4 SWAP1 SWAP4 MUL SWAP4 SUB SWAP5 SWAP1 SWAP5 DIV SWAP2 SWAP1 SWAP2 OR MUL SWAP5 SWAP4 POP POP POP POP JUMP JUMPDEST PUSH1 0x0 DUP1 DUP1 PUSH1 0x0 NOT DUP5 DUP7 MULMOD DUP5 DUP7 MUL SWAP3 POP DUP3 DUP2 LT DUP4 DUP3 SUB SUB SWAP2 POP POP DUP1 PUSH1 0x0 SUB PUSH2 0x38B7 JUMPI POP PUSH8 0xDE0B6B3A7640000 SWAP1 DIV SWAP1 POP PUSH2 0x644 JUMP JUMPDEST PUSH8 0xDE0B6B3A7640000 DUP2 LT PUSH2 0x38FC JUMPI DUP5 DUP5 PUSH1 0x40 MLOAD PUSH32 0xD3C0DF5E00000000000000000000000000000000000000000000000000000000 DUP2 MSTORE PUSH1 0x4 ADD PUSH2 0x15DE SWAP3 SWAP2 SWAP1 PUSH2 0x46FB JUMP JUMPDEST PUSH1 0x0 PUSH8 0xDE0B6B3A7640000 DUP6 DUP8 MULMOD PUSH3 0x40000 DUP2 DUP6 SUB DIV SWAP4 LT SWAP1 SWAP2 SUB PUSH30 0x400000000000000000000000000000000000000000000000000000000000 MUL SWAP2 SWAP1 SWAP2 OR PUSH32 0xACCB18165BD6FE31AE1CF318DC5B51EEE0E1BA569B88CD74C1773B91FAC10669 MUL SWAP2 POP POP SWAP3 SWAP2 POP POP JUMP JUMPDEST PUSH1 0x40 MLOAD DUP1 PUSH2 0x140 ADD PUSH1 0x40 MSTORE DUP1 PUSH1 0x0 DUP2 MSTORE PUSH1 0x20 ADD PUSH1 0x60 DUP2 MSTORE PUSH1 0x20 ADD PUSH1 0x60 DUP2 MSTORE PUSH1 0x20 ADD PUSH1 0x0 PUSH1 0x1 PUSH1 0x1 PUSH1 0xA0 SHL SUB AND DUP2 MSTORE PUSH1 0x20 ADD PUSH1 0x0 PUSH1 0x1 PUSH1 0x1 PUSH1 0xA0 SHL SUB AND DUP2 MSTORE PUSH1 0x20 ADD PUSH1 0x0 DUP2 MSTORE PUSH1 0x20 ADD PUSH1 0x0 DUP2 MSTORE PUSH1 0x20 ADD PUSH1 0x0 PUSH1 0x1 DUP2 GT ISZERO PUSH2 0x39C8 JUMPI PUSH2 0x39C8 PUSH2 0x3BA5 JUMP JUMPDEST DUP2 MSTORE PUSH1 0x20 ADD PUSH1 0x0 DUP2 MSTORE PUSH1 0x20 ADD PUSH1 0x0 DUP2 MSTORE POP SWAP1 JUMP JUMPDEST PUSH1 0x0 PUSH1 0x1 PUSH1 0x1 PUSH1 0xA0 SHL SUB DUP3 AND PUSH2 0x644 JUMP JUMPDEST PUSH2 0x39F6 DUP2 PUSH2 0x39DC JUMP JUMPDEST DUP2 EQ PUSH2 0x3A01 JUMPI PUSH1 0x0 DUP1 REVERT JUMPDEST POP JUMP JUMPDEST DUP1 CALLDATALOAD PUSH2 0x644 DUP2 PUSH2 0x39ED JUMP JUMPDEST DUP1 PUSH2 0x39F6 JUMP JUMPDEST DUP1 CALLDATALOAD PUSH2 0x644 DUP2 PUSH2 0x3A0F JUMP JUMPDEST PUSH1 0x0 DUP1 PUSH1 0x40 DUP4 DUP6 SUB SLT ISZERO PUSH2 0x3A36 JUMPI PUSH2 0x3A36 PUSH1 0x0 DUP1 REVERT JUMPDEST PUSH1 0x0 PUSH2 0x3A42 DUP6 DUP6 PUSH2 0x3A04 JUMP JUMPDEST SWAP3 POP POP PUSH1 0x20 PUSH2 0x3A53 DUP6 DUP3 DUP7 ADD PUSH2 0x3A15 JUMP JUMPDEST SWAP2 POP POP SWAP3 POP SWAP3 SWAP1 POP JUMP JUMPDEST PUSH2 0x3A66 DUP2 PUSH2 0x39DC JUMP JUMPDEST DUP3 MSTORE POP POP JUMP JUMPDEST DUP1 ISZERO ISZERO PUSH2 0x3A66 JUMP JUMPDEST DUP1 PUSH2 0x3A66 JUMP JUMPDEST DUP1 MLOAD PUSH2 0x100 DUP4 ADD SWAP1 PUSH2 0x3A8C DUP5 DUP3 PUSH2 0x3A5D JUMP JUMPDEST POP PUSH1 0x20 DUP3 ADD MLOAD PUSH2 0x3A9F PUSH1 0x20 DUP6 ADD DUP3 PUSH2 0x3A5D JUMP JUMPDEST POP PUSH1 0x40 DUP3 ADD MLOAD PUSH2 0x3AB2 PUSH1 0x40 DUP6 ADD DUP3 PUSH2 0x3A6C JUMP JUMPDEST POP PUSH1 0x60 DUP3 ADD MLOAD PUSH2 0x3AC5 PUSH1 0x60 DUP6 ADD DUP3 PUSH2 0x3A74 JUMP JUMPDEST POP PUSH1 0x80 DUP3 ADD MLOAD PUSH2 0x3AD8 PUSH1 0x80 DUP6 ADD DUP3 PUSH2 0x3A74 JUMP JUMPDEST POP PUSH1 0xA0 DUP3 ADD MLOAD PUSH2 0x3AEB PUSH1 0xA0 DUP6 ADD DUP3 PUSH2 0x3A74 JUMP JUMPDEST POP PUSH1 0xC0 DUP3 ADD MLOAD PUSH2 0x3AFE PUSH1 0xC0 DUP6 ADD DUP3 PUSH2 0x3A74 JUMP JUMPDEST POP PUSH1 0xE0 DUP3 ADD MLOAD PUSH2 0x7A2 PUSH1 0xE0 DUP6 ADD DUP3 PUSH2 0x3A74 JUMP JUMPDEST PUSH2 0x100 DUP2 ADD PUSH2 0x644 DUP3 DUP5 PUSH2 0x3A7A JUMP JUMPDEST PUSH1 0x20 DUP2 ADD PUSH2 0x644 DUP3 DUP5 PUSH2 0x3A74 JUMP JUMPDEST PUSH1 0x0 PUSH1 0x20 DUP3 DUP5 SUB SLT ISZERO PUSH2 0x3B43 JUMPI PUSH2 0x3B43 PUSH1 0x0 DUP1 REVERT JUMPDEST PUSH1 0x0 PUSH2 0x2149 DUP5 DUP5 PUSH2 0x3A15 JUMP JUMPDEST PUSH1 0x0 JUMPDEST DUP4 DUP2 LT ISZERO PUSH2 0x3B6A JUMPI DUP2 DUP2 ADD MLOAD DUP4 DUP3 ADD MSTORE PUSH1 0x20 ADD PUSH2 0x3B52 JUMP JUMPDEST POP POP PUSH1 0x0 SWAP2 ADD MSTORE JUMP JUMPDEST PUSH1 0x0 PUSH2 0x3B7D DUP3 MLOAD SWAP1 JUMP JUMPDEST DUP1 DUP5 MSTORE PUSH1 0x20 DUP5 ADD SWAP4 POP PUSH2 0x3B94 DUP2 DUP6 PUSH1 0x20 DUP7 ADD PUSH2 0x3B4F JUMP JUMPDEST PUSH1 0x1F ADD PUSH1 0x1F NOT AND SWAP3 SWAP1 SWAP3 ADD SWAP3 SWAP2 POP POP JUMP JUMPDEST PUSH4 0x4E487B71 PUSH1 0xE0 SHL PUSH1 0x0 MSTORE PUSH1 0x21 PUSH1 0x4 MSTORE PUSH1 0x24 PUSH1 0x0 REVERT JUMPDEST PUSH1 0x2 DUP2 LT PUSH2 0x3A01 JUMPI PUSH2 0x3A01 PUSH2 0x3BA5 JUMP JUMPDEST DUP1 PUSH2 0x377B DUP2 PUSH2 0x3BBB JUMP JUMPDEST PUSH1 0x0 PUSH2 0x644 DUP3 PUSH2 0x3BCB JUMP JUMPDEST PUSH2 0x3A66 DUP2 PUSH2 0x3BD5 JUMP JUMPDEST DUP1 MLOAD PUSH1 0x0 SWAP1 PUSH2 0x140 DUP5 ADD SWAP1 PUSH2 0x3BFE DUP6 DUP3 PUSH2 0x3A74 JUMP JUMPDEST POP PUSH1 0x20 DUP4 ADD MLOAD DUP5 DUP3 SUB PUSH1 0x20 DUP7 ADD MSTORE PUSH2 0x3C16 DUP3 DUP3 PUSH2 0x3B73 JUMP JUMPDEST SWAP2 POP POP PUSH1 0x40 DUP4 ADD MLOAD DUP5 DUP3 SUB PUSH1 0x40 DUP7 ADD MSTORE PUSH2 0x3C30 DUP3 DUP3 PUSH2 0x3B73 JUMP JUMPDEST SWAP2 POP POP PUSH1 0x60 DUP4 ADD MLOAD PUSH2 0x3C45 PUSH1 0x60 DUP7 ADD DUP3 PUSH2 0x3A5D JUMP JUMPDEST POP PUSH1 0x80 DUP4 ADD MLOAD PUSH2 0x3C58 PUSH1 0x80 DUP7 ADD DUP3 PUSH2 0x3A5D JUMP JUMPDEST POP PUSH1 0xA0 DUP4 ADD MLOAD PUSH2 0x3C6B PUSH1 0xA0 DUP7 ADD DUP3 PUSH2 0x3A74 JUMP JUMPDEST POP PUSH1 0xC0 DUP4 ADD MLOAD PUSH2 0x3C7E PUSH1 0xC0 DUP7 ADD DUP3 PUSH2 0x3A74 JUMP JUMPDEST POP PUSH1 0xE0 DUP4 ADD MLOAD PUSH2 0x3C91 PUSH1 0xE0 DUP7 ADD DUP3 PUSH2 0x3BE0 JUMP JUMPDEST POP PUSH2 0x100 DUP4 ADD MLOAD PUSH2 0x3CA6 PUSH2 0x100 DUP7 ADD DUP3 PUSH2 0x3A74 JUMP JUMPDEST POP PUSH2 0x120 DUP4 ADD MLOAD PUSH2 0x3CBB PUSH2 0x120 DUP7 ADD DUP3 PUSH2 0x3A74 JUMP JUMPDEST POP SWAP4 SWAP3 POP POP POP JUMP JUMPDEST PUSH1 0x20 DUP1 DUP3 MSTORE DUP2 ADD PUSH2 0x7F0 DUP2 DUP5 PUSH2 0x3BE9 JUMP JUMPDEST DUP1 ISZERO ISZERO PUSH2 0x39F6 JUMP JUMPDEST DUP1 CALLDATALOAD PUSH2 0x644 DUP2 PUSH2 0x3CD4 JUMP JUMPDEST PUSH1 0x0 DUP1 PUSH1 0x40 DUP4 DUP6 SUB SLT ISZERO PUSH2 0x3CFD JUMPI PUSH2 0x3CFD PUSH1 0x0 DUP1 REVERT JUMPDEST PUSH1 0x0 PUSH2 0x3D09 DUP6 DUP6 PUSH2 0x3A04 JUMP JUMPDEST SWAP3 POP POP PUSH1 0x20 PUSH2 0x3A53 DUP6 DUP3 DUP7 ADD PUSH2 0x3CDC JUMP JUMPDEST PUSH4 0x4E487B71 PUSH1 0xE0 SHL PUSH1 0x0 MSTORE PUSH1 0x41 PUSH1 0x4 MSTORE PUSH1 0x24 PUSH1 0x0 REVERT JUMPDEST PUSH1 0x1F NOT PUSH1 0x1F DUP4 ADD AND DUP2 ADD DUP2 DUP2 LT PUSH8 0xFFFFFFFFFFFFFFFF DUP3 GT OR ISZERO PUSH2 0x3D56 JUMPI PUSH2 0x3D56 PUSH2 0x3D1A JUMP JUMPDEST PUSH1 0x40 MSTORE POP POP JUMP JUMPDEST PUSH1 0x0 PUSH2 0x3D68 PUSH1 0x40 MLOAD SWAP1 JUMP JUMPDEST SWAP1 POP PUSH2 0x377B DUP3 DUP3 PUSH2 0x3D30 JUMP JUMPDEST PUSH1 0x0 PUSH8 0xFFFFFFFFFFFFFFFF DUP3 GT ISZERO PUSH2 0x3D8E JUMPI PUSH2 0x3D8E PUSH2 0x3D1A JUMP JUMPDEST PUSH1 0x1F NOT PUSH1 0x1F DUP4 ADD AND PUSH1 0x20 ADD SWAP3 SWAP2 POP POP JUMP JUMPDEST DUP3 DUP2 DUP4 CALLDATACOPY POP PUSH1 0x0 SWAP2 ADD MSTORE JUMP JUMPDEST PUSH1 0x0 PUSH2 0x3DBE PUSH2 0x3DB9 DUP5 PUSH2 0x3D74 JUMP JUMPDEST PUSH2 0x3D5D JUMP JUMPDEST SWAP1 POP DUP3 DUP2 MSTORE PUSH1 0x20 DUP2 ADD DUP5 DUP5 DUP5 ADD GT ISZERO PUSH2 0x3DD9 JUMPI PUSH2 0x3DD9 PUSH1 0x0 DUP1 REVERT JUMPDEST PUSH2 0x3CBB DUP5 DUP3 DUP6 PUSH2 0x3D9F JUMP JUMPDEST PUSH1 0x0 DUP3 PUSH1 0x1F DUP4 ADD SLT PUSH2 0x3DF8 JUMPI PUSH2 0x3DF8 PUSH1 0x0 DUP1 REVERT JUMPDEST DUP2 CALLDATALOAD PUSH2 0x2149 DUP5 DUP3 PUSH1 0x20 DUP7 ADD PUSH2 0x3DAB JUMP JUMPDEST PUSH1 0x0 DUP1 PUSH1 0x0 DUP1 PUSH1 0x80 DUP6 DUP8 SUB SLT ISZERO PUSH2 0x3E21 JUMPI PUSH2 0x3E21 PUSH1 0x0 DUP1 REVERT JUMPDEST PUSH1 0x0 PUSH2 0x3E2D DUP8 DUP8 PUSH2 0x3A04 JUMP JUMPDEST SWAP5 POP POP PUSH1 0x20 PUSH2 0x3E3E DUP8 DUP3 DUP9 ADD PUSH2 0x3A15 JUMP JUMPDEST SWAP4 POP POP PUSH1 0x40 PUSH2 0x3E4F DUP8 DUP3 DUP9 ADD PUSH2 0x3A15 JUMP JUMPDEST SWAP3 POP POP PUSH1 0x60 DUP6 ADD CALLDATALOAD PUSH8 0xFFFFFFFFFFFFFFFF DUP2 GT ISZERO PUSH2 0x3E6F JUMPI PUSH2 0x3E6F PUSH1 0x0 DUP1 REVERT JUMPDEST PUSH2 0x3E7B DUP8 DUP3 DUP9 ADD PUSH2 0x3DE4 JUMP JUMPDEST SWAP2 POP POP SWAP3 SWAP6 SWAP2 SWAP5 POP SWAP3 POP JUMP JUMPDEST PUSH1 0x0 DUP1 PUSH1 0x0 DUP1 PUSH1 0x80 DUP6 DUP8 SUB SLT ISZERO PUSH2 0x3EA0 JUMPI PUSH2 0x3EA0 PUSH1 0x0 DUP1 REVERT JUMPDEST PUSH1 0x0 PUSH2 0x3EAC DUP8 DUP8 PUSH2 0x3A04 JUMP JUMPDEST SWAP5 POP POP PUSH1 0x20 PUSH2 0x3EBD DUP8 DUP3 DUP9 ADD PUSH2 0x3A04 JUMP JUMPDEST SWAP4 POP POP PUSH1 0x40 PUSH2 0x3ECE DUP8 DUP3 DUP9 ADD PUSH2 0x3A15 JUMP JUMPDEST SWAP3 POP POP PUSH1 0x60 PUSH2 0x3E7B DUP8 DUP3 DUP9 ADD PUSH2 0x3A15 JUMP JUMPDEST PUSH1 0x0 PUSH1 0x20 DUP3 DUP5 SUB SLT ISZERO PUSH2 0x3EF4 JUMPI PUSH2 0x3EF4 PUSH1 0x0 DUP1 REVERT JUMPDEST PUSH1 0x0 PUSH2 0x2149 DUP5 DUP5 PUSH2 0x3A04 JUMP JUMPDEST PUSH1 0x20 DUP2 ADD PUSH2 0x644 DUP3 DUP5 PUSH2 0x3A5D JUMP JUMPDEST PUSH1 0x0 DUP1 PUSH1 0x0 PUSH1 0x60 DUP5 DUP7 SUB SLT ISZERO PUSH2 0x3F26 JUMPI PUSH2 0x3F26 PUSH1 0x0 DUP1 REVERT JUMPDEST PUSH1 0x0 PUSH2 0x3F32 DUP7 DUP7 PUSH2 0x3A04 JUMP JUMPDEST SWAP4 POP POP PUSH1 0x20 PUSH2 0x3F43 DUP7 DUP3 DUP8 ADD PUSH2 0x3A04 JUMP JUMPDEST SWAP3 POP POP PUSH1 0x40 PUSH2 0x3F54 DUP7 DUP3 DUP8 ADD PUSH2 0x3A15 JUMP JUMPDEST SWAP2 POP POP SWAP3 POP SWAP3 POP SWAP3 JUMP JUMPDEST PUSH2 0x100 DUP2 ADD PUSH2 0x3F6D DUP3 DUP12 PUSH2 0x3A5D JUMP JUMPDEST PUSH2 0x3F7A PUSH1 0x20 DUP4 ADD DUP11 PUSH2 0x3A5D JUMP JUMPDEST PUSH2 0x3F87 PUSH1 0x40 DUP4 ADD DUP10 PUSH2 0x3A6C JUMP JUMPDEST PUSH2 0x3F94 PUSH1 0x60 DUP4 ADD DUP9 PUSH2 0x3A74 JUMP JUMPDEST PUSH2 0x3FA1 PUSH1 0x80 DUP4 ADD DUP8 PUSH2 0x3A74 JUMP JUMPDEST PUSH2 0x3FAE PUSH1 0xA0 DUP4 ADD DUP7 PUSH2 0x3A74 JUMP JUMPDEST PUSH2 0x3FBB PUSH1 0xC0 DUP4 ADD DUP6 PUSH2 0x3A74 JUMP JUMPDEST PUSH2 0x3FC8 PUSH1 0xE0 DUP4 ADD DUP5 PUSH2 0x3A74 JUMP JUMPDEST SWAP10 SWAP9 POP POP POP POP POP POP POP POP POP JUMP JUMPDEST PUSH4 0x4E487B71 PUSH1 0xE0 SHL PUSH1 0x0 MSTORE PUSH1 0x32 PUSH1 0x4 MSTORE PUSH1 0x24 PUSH1 0x0 REVERT JUMPDEST DUP1 MLOAD PUSH2 0x644 DUP2 PUSH2 0x3A0F JUMP JUMPDEST PUSH1 0x0 PUSH1 0x20 DUP3 DUP5 SUB SLT ISZERO PUSH2 0x400B JUMPI PUSH2 0x400B PUSH1 0x0 DUP1 REVERT JUMPDEST PUSH1 0x0 PUSH2 0x2149 DUP5 DUP5 PUSH2 0x3FEB JUMP JUMPDEST PUSH4 0x4E487B71 PUSH1 0xE0 SHL PUSH1 0x0 MSTORE PUSH1 0x11 PUSH1 0x4 MSTORE PUSH1 0x24 PUSH1 0x0 REVERT JUMPDEST DUP2 DUP2 SUB DUP2 DUP2 GT ISZERO PUSH2 0x644 JUMPI PUSH2 0x644 PUSH2 0x4017 JUMP JUMPDEST PUSH1 0x0 PUSH1 0x0 NOT DUP3 SUB PUSH2 0x4053 JUMPI PUSH2 0x4053 PUSH2 0x4017 JUMP JUMPDEST POP PUSH1 0x1 ADD SWAP1 JUMP JUMPDEST PUSH1 0x0 DUP2 JUMPDEST SWAP2 POP DUP2 PUSH2 0x406D JUMPI PUSH2 0x406D PUSH2 0x4017 JUMP JUMPDEST POP PUSH1 0x0 NOT ADD SWAP1 JUMP JUMPDEST DUP1 DUP3 ADD DUP1 DUP3 GT ISZERO PUSH2 0x644 JUMPI PUSH2 0x644 PUSH2 0x4017 JUMP JUMPDEST PUSH1 0x40 DUP2 ADD PUSH2 0x4096 DUP3 DUP6 PUSH2 0x3A5D JUMP JUMPDEST PUSH2 0x7F0 PUSH1 0x20 DUP4 ADD DUP5 PUSH2 0x3A5D JUMP JUMPDEST PUSH4 0x4E487B71 PUSH1 0xE0 SHL PUSH1 0x0 MSTORE PUSH1 0x22 PUSH1 0x4 MSTORE PUSH1 0x24 PUSH1 0x0 REVERT JUMPDEST PUSH1 0x2 DUP2 DIV PUSH1 0x1 DUP3 AND DUP1 PUSH2 0x40CD JUMPI PUSH1 0x7F DUP3 AND SWAP2 POP JUMPDEST PUSH1 0x20 DUP3 LT DUP2 SUB PUSH2 0x40DF JUMPI PUSH2 0x40DF PUSH2 0x40A3 JUMP JUMPDEST POP SWAP2 SWAP1 POP JUMP JUMPDEST PUSH1 0x0 PUSH2 0x644 PUSH1 0x1 PUSH1 0x1 PUSH1 0xA0 SHL SUB DUP4 AND PUSH2 0x40FC JUMP JUMPDEST SWAP1 JUMP JUMPDEST PUSH1 0x1 PUSH1 0x1 PUSH1 0xA0 SHL SUB AND SWAP1 JUMP JUMPDEST PUSH1 0x0 PUSH2 0x644 DUP3 PUSH2 0x40E5 JUMP JUMPDEST PUSH1 0x0 PUSH2 0x644 DUP3 PUSH2 0x4108 JUMP JUMPDEST PUSH2 0x3A66 DUP2 PUSH2 0x4113 JUMP JUMPDEST PUSH1 0xE0 DUP2 ADD PUSH2 0x4135 DUP3 DUP11 PUSH2 0x3A74 JUMP JUMPDEST PUSH2 0x4142 PUSH1 0x20 DUP4 ADD DUP10 PUSH2 0x3A6C JUMP JUMPDEST PUSH2 0x414F PUSH1 0x40 DUP4 ADD DUP9 PUSH2 0x411E JUMP JUMPDEST PUSH2 0x415C PUSH1 0x60 DUP4 ADD DUP8 PUSH2 0x3A5D JUMP JUMPDEST PUSH2 0x4169 PUSH1 0x80 DUP4 ADD DUP7 PUSH2 0x3A5D JUMP JUMPDEST PUSH2 0x4176 PUSH1 0xA0 DUP4 ADD DUP6 PUSH2 0x3A74 JUMP JUMPDEST PUSH2 0x4183 PUSH1 0xC0 DUP4 ADD DUP5 PUSH2 0x3A6C JUMP JUMPDEST SWAP9 SWAP8 POP POP POP POP POP POP POP POP JUMP JUMPDEST PUSH1 0x0 PUSH2 0x419D PUSH2 0x3DB9 DUP5 PUSH2 0x3D74 JUMP JUMPDEST SWAP1 POP DUP3 DUP2 MSTORE PUSH1 0x20 DUP2 ADD DUP5 DUP5 DUP5 ADD GT ISZERO PUSH2 0x41B8 JUMPI PUSH2 0x41B8 PUSH1 0x0 DUP1 REVERT JUMPDEST PUSH2 0x3CBB DUP5 DUP3 DUP6 PUSH2 0x3B4F JUMP JUMPDEST PUSH1 0x0 DUP3 PUSH1 0x1F DUP4 ADD SLT PUSH2 0x41D7 JUMPI PUSH2 0x41D7 PUSH1 0x0 DUP1 REVERT JUMPDEST DUP2 MLOAD PUSH2 0x2149 DUP5 DUP3 PUSH1 0x20 DUP7 ADD PUSH2 0x418F JUMP JUMPDEST PUSH1 0x0 PUSH1 0x20 DUP3 DUP5 SUB SLT ISZERO PUSH2 0x41FC JUMPI PUSH2 0x41FC PUSH1 0x0 DUP1 REVERT JUMPDEST DUP2 MLOAD PUSH8 0xFFFFFFFFFFFFFFFF DUP2 GT ISZERO PUSH2 0x4216 JUMPI PUSH2 0x4216 PUSH1 0x0 DUP1 REVERT JUMPDEST PUSH2 0x2149 DUP5 DUP3 DUP6 ADD PUSH2 0x41C3 JUMP JUMPDEST PUSH1 0x60 DUP2 ADD PUSH2 0x4230 DUP3 DUP7 PUSH2 0x3A74 JUMP JUMPDEST PUSH2 0x423D PUSH1 0x20 DUP4 ADD DUP6 PUSH2 0x3A6C JUMP JUMPDEST PUSH2 0x2149 PUSH1 0x40 DUP4 ADD DUP5 PUSH2 0x411E JUMP JUMPDEST PUSH4 0x4E487B71 PUSH1 0xE0 SHL PUSH1 0x0 MSTORE PUSH1 0x31 PUSH1 0x4 MSTORE PUSH1 0x24 PUSH1 0x0 REVERT JUMPDEST PUSH1 0x60 DUP2 ADD PUSH2 0x426E DUP3 DUP7 PUSH2 0x3A5D JUMP JUMPDEST PUSH2 0x427B PUSH1 0x20 DUP4 ADD DUP6 PUSH2 0x3A5D JUMP JUMPDEST PUSH2 0x2149 PUSH1 0x40 DUP4 ADD DUP5 PUSH2 0x3A74 JUMP JUMPDEST DUP1 MLOAD PUSH2 0x644 DUP2 PUSH2 0x3CD4 JUMP JUMPDEST PUSH1 0x0 PUSH1 0x20 DUP3 DUP5 SUB SLT ISZERO PUSH2 0x42A8 JUMPI PUSH2 0x42A8 PUSH1 0x0 DUP1 REVERT JUMPDEST PUSH1 0x0 PUSH2 0x2149 DUP5 DUP5 PUSH2 0x4288 JUMP JUMPDEST PUSH1 0xA0 DUP2 ADD PUSH2 0x42C2 DUP3 DUP9 PUSH2 0x3A74 JUMP JUMPDEST PUSH2 0x42CF PUSH1 0x20 DUP4 ADD DUP8 PUSH2 0x3A6C JUMP JUMPDEST PUSH2 0x42DC PUSH1 0x40 DUP4 ADD DUP7 PUSH2 0x3A5D JUMP JUMPDEST PUSH2 0x42E9 PUSH1 0x60 DUP4 ADD DUP6 PUSH2 0x3A74 JUMP JUMPDEST PUSH2 0x42F6 PUSH1 0x80 DUP4 ADD DUP5 PUSH2 0x3A74 JUMP JUMPDEST SWAP7 SWAP6 POP POP POP POP POP POP JUMP JUMPDEST PUSH1 0x80 DUP2 ADD PUSH2 0x430E DUP3 DUP8 PUSH2 0x3A74 JUMP JUMPDEST PUSH2 0x431B PUSH1 0x20 DUP4 ADD DUP7 PUSH2 0x3A6C JUMP JUMPDEST PUSH2 0x4328 PUSH1 0x40 DUP4 ADD DUP6 PUSH2 0x411E JUMP JUMPDEST PUSH2 0x4335 PUSH1 0x60 DUP4 ADD DUP5 PUSH2 0x3A6C JUMP JUMPDEST SWAP6 SWAP5 POP POP POP POP POP JUMP JUMPDEST DUP2 DUP2 MUL DUP1 DUP3 ISZERO DUP4 DUP3 DIV DUP6 EQ OR PUSH2 0x2BC3 JUMPI PUSH2 0x2BC3 PUSH2 0x4017 JUMP JUMPDEST PUSH4 0x4E487B71 PUSH1 0xE0 SHL PUSH1 0x0 MSTORE PUSH1 0x12 PUSH1 0x4 MSTORE PUSH1 0x24 PUSH1 0x0 REVERT JUMPDEST PUSH1 0x0 DUP3 PUSH2 0x437B JUMPI PUSH2 0x437B PUSH2 0x4356 JUMP JUMPDEST POP DIV SWAP1 JUMP JUMPDEST PUSH1 0xFF DUP2 AND PUSH2 0x39F6 JUMP JUMPDEST DUP1 MLOAD PUSH2 0x644 DUP2 PUSH2 0x4380 JUMP JUMPDEST PUSH1 0x0 PUSH1 0x20 DUP3 DUP5 SUB SLT ISZERO PUSH2 0x43A9 JUMPI PUSH2 0x43A9 PUSH1 0x0 DUP1 REVERT JUMPDEST PUSH1 0x0 PUSH2 0x2149 DUP5 DUP5 PUSH2 0x4389 JUMP JUMPDEST PUSH1 0x0 PUSH2 0x644 PUSH2 0x40F9 DUP4 DUP2 JUMP JUMPDEST PUSH2 0x43CA DUP4 PUSH2 0x43B5 JUMP JUMPDEST DUP2 SLOAD PUSH1 0x0 NOT PUSH1 0x8 SWAP5 SWAP1 SWAP5 MUL SWAP4 DUP5 SHL NOT AND SWAP3 SHL SWAP2 SWAP1 SWAP2 OR SWAP1 SSTORE POP JUMP JUMPDEST PUSH1 0x0 PUSH2 0xD25 DUP2 DUP5 DUP5 PUSH2 0x43C1 JUMP JUMPDEST DUP2 DUP2 LT ISZERO PUSH2 0x666 JUMPI PUSH2 0x4405 PUSH1 0x0 DUP3 PUSH2 0x43E5 JUMP JUMPDEST PUSH1 0x1 ADD PUSH2 0x43F2 JUMP JUMPDEST PUSH1 0x1F DUP3 GT ISZERO PUSH2 0xD25 JUMPI PUSH1 0x0 DUP2 DUP2 MSTORE PUSH1 0x20 SWAP1 KECCAK256 PUSH1 0x20 PUSH1 0x1F DUP6 ADD DIV DUP2 ADD PUSH1 0x20 DUP6 LT ISZERO PUSH2 0x4434 JUMPI POP DUP1 JUMPDEST PUSH2 0x859 PUSH1 0x20 PUSH1 0x1F DUP7 ADD DIV DUP4 ADD DUP3 PUSH2 0x43F2 JUMP JUMPDEST DUP2 MLOAD PUSH8 0xFFFFFFFFFFFFFFFF DUP2 GT ISZERO PUSH2 0x4460 JUMPI PUSH2 0x4460 PUSH2 0x3D1A JUMP JUMPDEST PUSH2 0x446A DUP3 SLOAD PUSH2 0x40B9 JUMP JUMPDEST PUSH2 0x4475 DUP3 DUP3 DUP6 PUSH2 0x440D JUMP JUMPDEST PUSH1 0x20 PUSH1 0x1F DUP4 GT PUSH1 0x1 DUP2 EQ PUSH2 0x44A9 JUMPI PUSH1 0x0 DUP5 ISZERO PUSH2 0x4491 JUMPI POP DUP6 DUP3 ADD MLOAD JUMPDEST PUSH1 0x0 NOT PUSH1 0x8 DUP7 MUL SHR NOT DUP2 AND PUSH1 0x2 DUP7 MUL OR DUP7 SSTORE POP PUSH2 0x1102 JUMP JUMPDEST PUSH1 0x0 DUP6 DUP2 MSTORE PUSH1 0x20 DUP2 KECCAK256 PUSH1 0x1F NOT DUP7 AND SWAP2 JUMPDEST DUP3 DUP2 LT ISZERO PUSH2 0x44D9 JUMPI DUP9 DUP6 ADD MLOAD DUP3 SSTORE PUSH1 0x20 SWAP5 DUP6 ADD SWAP5 PUSH1 0x1 SWAP1 SWAP3 ADD SWAP2 ADD PUSH2 0x44B9 JUMP JUMPDEST DUP7 DUP4 LT ISZERO PUSH2 0x44F5 JUMPI DUP5 DUP10 ADD MLOAD PUSH1 0x0 NOT PUSH1 0x1F DUP10 AND PUSH1 0x8 MUL SHR NOT AND DUP3 SSTORE JUMPDEST PUSH1 0x1 PUSH1 0x2 DUP9 MUL ADD DUP9 SSTORE POP POP POP POP POP POP POP POP POP JUMP JUMPDEST PUSH1 0x0 PUSH2 0x4513 DUP3 MLOAD SWAP1 JUMP JUMPDEST PUSH2 0x4521 DUP2 DUP6 PUSH1 0x20 DUP7 ADD PUSH2 0x3B4F JUMP JUMPDEST SWAP3 SWAP1 SWAP3 ADD SWAP3 SWAP2 POP POP JUMP JUMPDEST PUSH1 0x0 PUSH2 0x7F0 DUP3 DUP5 PUSH2 0x4509 JUMP JUMPDEST PUSH1 0x60 DUP2 ADD PUSH2 0x426E DUP3 DUP7 PUSH2 0x3BE0 JUMP JUMPDEST PUSH1 0x40 DUP2 ADD PUSH2 0x4553 DUP3 DUP6 PUSH2 0x3A5D JUMP JUMPDEST PUSH2 0x7F0 PUSH1 0x20 DUP4 ADD DUP5 PUSH2 0x3A74 JUMP JUMPDEST PUSH1 0x60 DUP2 ADD PUSH2 0x456E DUP3 DUP7 PUSH2 0x3A74 JUMP JUMPDEST PUSH2 0x457B PUSH1 0x20 DUP4 ADD DUP6 PUSH2 0x3A5D JUMP JUMPDEST PUSH2 0x2149 PUSH1 0x40 DUP4 ADD DUP5 PUSH2 0x3A5D JUMP JUMPDEST PUSH1 0x0 PUSH1 0xFF DUP3 AND PUSH2 0x405E JUMP JUMPDEST DUP1 DUP3 JUMPDEST PUSH1 0x1 DUP6 GT ISZERO PUSH2 0x2908 JUMPI DUP1 DUP7 DIV DUP2 GT ISZERO PUSH2 0x45B1 JUMPI PUSH2 0x45B1 PUSH2 0x4017 JUMP JUMPDEST PUSH1 0x1 DUP6 AND ISZERO PUSH2 0x45BF JUMPI SWAP1 DUP2 MUL SWAP1 JUMPDEST DUP1 MUL PUSH2 0x45CB DUP6 PUSH1 0x1 SHR SWAP1 JUMP JUMPDEST SWAP5 POP PUSH2 0x4596 JUMP JUMPDEST PUSH1 0x0 DUP3 PUSH2 0x45E1 JUMPI POP PUSH1 0x1 PUSH2 0x7F0 JUMP JUMPDEST DUP2 PUSH2 0x45EE JUMPI POP PUSH1 0x0 PUSH2 0x7F0 JUMP JUMPDEST DUP2 PUSH1 0x1 DUP2 EQ PUSH2 0x4604 JUMPI PUSH1 0x2 DUP2 EQ PUSH2 0x460E JUMPI PUSH2 0x463B JUMP JUMPDEST PUSH1 0x1 SWAP2 POP POP PUSH2 0x7F0 JUMP JUMPDEST PUSH1 0xFF DUP5 GT ISZERO PUSH2 0x461F JUMPI PUSH2 0x461F PUSH2 0x4017 JUMP JUMPDEST DUP4 PUSH1 0x2 EXP SWAP2 POP DUP5 DUP3 GT ISZERO PUSH2 0x4635 JUMPI PUSH2 0x4635 PUSH2 0x4017 JUMP JUMPDEST POP PUSH2 0x7F0 JUMP JUMPDEST POP PUSH1 0x20 DUP4 LT PUSH2 0x133 DUP4 LT AND PUSH1 0x4E DUP5 LT PUSH1 0xB DUP5 LT AND OR ISZERO PUSH2 0x4669 JUMPI POP DUP2 DUP2 EXP DUP4 DUP2 GT ISZERO PUSH2 0x3371 JUMPI PUSH2 0x3371 PUSH2 0x4017 JUMP JUMPDEST PUSH2 0x4676 DUP5 DUP5 DUP5 PUSH1 0x1 PUSH2 0x4593 JUMP JUMPDEST SWAP3 POP SWAP1 POP DUP2 DUP5 DIV DUP2 GT ISZERO PUSH2 0x468C JUMPI PUSH2 0x468C PUSH2 0x4017 JUMP JUMPDEST MUL SWAP3 SWAP2 POP POP JUMP JUMPDEST PUSH1 0x0 PUSH1 0xFF DUP4 AND SWAP3 POP PUSH2 0x7F0 PUSH1 0x0 NOT DUP5 DUP5 PUSH2 0x45D2 JUMP JUMPDEST PUSH1 0xFF SWAP2 DUP3 AND SWAP2 SWAP1 DUP2 AND SWAP1 DUP3 DUP3 SUB SWAP1 DUP2 GT ISZERO PUSH2 0x644 JUMPI PUSH2 0x644 PUSH2 0x4017 JUMP JUMPDEST PUSH1 0x40 DUP2 ADD PUSH2 0x46D3 DUP3 DUP6 PUSH2 0x3A74 JUMP JUMPDEST PUSH2 0x7F0 PUSH1 0x20 DUP4 ADD DUP5 PUSH2 0x411E JUMP JUMPDEST PUSH1 0x60 DUP2 ADD PUSH2 0x46EE DUP3 DUP7 PUSH2 0x3A74 JUMP JUMPDEST PUSH2 0x427B PUSH1 0x20 DUP4 ADD DUP6 PUSH2 0x3A74 JUMP JUMPDEST PUSH1 0x40 DUP2 ADD PUSH2 0x4553 DUP3 DUP6 PUSH2 0x3A74 JUMP INVALID LOG2 PUSH5 0x6970667358 0x22 SLT KECCAK256 EXP SWAP11 MLOAD SIGNEXTEND 0xD8 PUSH29 0x2F5169D7BD19E01F2D78063D9306D56347CB1677C942232B648D64736F PUSH13 0x63430008160033000000000000 "},"methodIdentifiers":{"assignPriceDAO(address)":"86f179d2","clearOrders()":"9351769f","createBuyOrder(address)":"d2980065","createSellOrder(address,uint256)":"a262b73f","deposit(address)":"f340fa01","depositToken(address,uint256)":"338b5dea","depositTokenFrom(address,address,uint256)":"a08b5bba","getBalance()":"12065fe0","listParityToken(address,address,uint256,uint256)":"5264c8d9","listToken(address,uint256,uint256,string)":"4d9ea07d","listingCost()":"a5b6f92a","orders(uint256)":"a85c38ef","owner()":"8da5cb5b","queryBalance(address,bool)":"3b174f0f","settleOrders(address,bool)":"c201e47c","takeBuyOrder(address,uint256)":"db34a679","takeSellOrder(address)":"6daf6945","transferOwnership(address)":"f2fde38b","updateTokenBalance(address)":"87b337e8","viewOrder(uint256)":"7c38d663","viewOrderByMaker(address,uint256)":"076d782e","viewOrderByToken(address,uint256)":"3ef73856","viewPrice()":"d7dcdcec","viewToken(address)":"673cf82a","viewTokenByIndex(uint256)":"1f5d2641"}}}}}