{"contracts/exchange/DexhuneExchange.sol":{"DexhuneExchange":{"abi":[{"inputs":[],"stateMutability":"nonpayable","type":"constructor"},{"inputs":[],"name":"DepositFailed","type":"error"},{"inputs":[],"name":"FailedStringToNumberConversion","type":"error"},{"inputs":[{"internalType":"uint256","name":"balance","type":"uint256"}],"name":"InsufficientBalance","type":"error"},{"inputs":[],"name":"InvalidTokenContract","type":"error"},{"inputs":[],"name":"OnlyOwnerMustSetDefaultToken","type":"error"},{"inputs":[],"name":"OrderLimitReachedTryLater","type":"error"},{"inputs":[{"internalType":"uint256","name":"x","type":"uint256"},{"internalType":"uint256","name":"y","type":"uint256"},{"internalType":"uint256","name":"denominator","type":"uint256"}],"name":"PRBMath_MulDiv_Overflow","type":"error"},{"inputs":[],"name":"ParityShouldNotHavePrice","type":"error"},{"inputs":[{"internalType":"address","name":"contractAddr","type":"address"}],"name":"TokenAlreadyExists","type":"error"},{"inputs":[],"name":"TokenLimitReached","type":"error"},{"inputs":[],"name":"TokenNotListed","type":"error"},{"inputs":[],"name":"TokenNotSupported_TooManyDecimals","type":"error"},{"inputs":[{"internalType":"address","name":"account","type":"address"}],"name":"UnauthorizedAccount","type":"error"},{"inputs":[{"internalType":"address","name":"tokenAddr","type":"address"}],"name":"createBuyOrder","outputs":[],"stateMutability":"payable","type":"function"},{"inputs":[{"internalType":"address","name":"tokenAddr","type":"address"},{"internalType":"uint256","name":"amount","type":"uint256"}],"name":"createSellOrder","outputs":[],"stateMutability":"nonpayable","type":"function"},{"inputs":[{"internalType":"address","name":"tokenAddr","type":"address"}],"name":"deposit","outputs":[],"stateMutability":"payable","type":"function"},{"inputs":[{"internalType":"address","name":"tokenAddr","type":"address"},{"internalType":"address","name":"fromAddress","type":"address"},{"internalType":"uint256","name":"amount","type":"uint256"}],"name":"depositToken","outputs":[],"stateMutability":"nonpayable","type":"function"},{"inputs":[{"internalType":"string","name":"val1","type":"string"},{"internalType":"string","name":"val2","type":"string"}],"name":"divide","outputs":[{"internalType":"uint256","name":"","type":"uint256"}],"stateMutability":"pure","type":"function"},{"inputs":[{"internalType":"string","name":"value","type":"string"}],"name":"parseString","outputs":[{"internalType":"uint256","name":"","type":"uint256"}],"stateMutability":"pure","type":"function"},{"inputs":[{"internalType":"address","name":"tokenAddr","type":"address"},{"internalType":"bool","name":"orderType","type":"bool"}],"name":"settleOrders","outputs":[],"stateMutability":"nonpayable","type":"function"},{"inputs":[{"internalType":"address","name":"tokenAddr","type":"address"}],"name":"viewToken","outputs":[{"components":[{"internalType":"uint256","name":"tokenNo","type":"uint256"},{"internalType":"string","name":"name","type":"string"},{"internalType":"string","name":"sym","type":"string"},{"internalType":"address","name":"addr","type":"address"},{"internalType":"address","name":"parityAddr","type":"address"},{"internalType":"uint256","name":"reward","type":"uint256"},{"internalType":"uint256","name":"rewardThreshold","type":"uint256"},{"internalType":"enum DexhuneExchangeBase.PricingScheme","name":"scheme","type":"uint8"},{"internalType":"uint256","name":"price","type":"uint256"},{"internalType":"uint256","name":"orders","type":"uint256"}],"internalType":"struct DexhuneExchangeBase.TokenDataModel","name":"","type":"tuple"}],"stateMutability":"view","type":"function"},{"inputs":[{"internalType":"uint256","name":"tokenNo","type":"uint256"}],"name":"viewToken","outputs":[{"components":[{"internalType":"uint256","name":"tokenNo","type":"uint256"},{"internalType":"string","name":"name","type":"string"},{"internalType":"string","name":"sym","type":"string"},{"internalType":"address","name":"addr","type":"address"},{"internalType":"address","name":"parityAddr","type":"address"},{"internalType":"uint256","name":"reward","type":"uint256"},{"internalType":"uint256","name":"rewardThreshold","type":"uint256"},{"internalType":"enum DexhuneExchangeBase.PricingScheme","name":"scheme","type":"uint8"},{"internalType":"uint256","name":"price","type":"uint256"},{"internalType":"uint256","name":"orders","type":"uint256"}],"internalType":"struct DexhuneExchangeBase.TokenDataModel","name":"","type":"tuple"}],"stateMutability":"view","type":"function"}],"evm":{"bytecode":{"linkReferences":{},"object":"608060405234801561001057600080fd5b5033600560006101000a81548173ffffffffffffffffffffffffffffffffffffffff021916908373ffffffffffffffffffffffffffffffffffffffff1602179055506129e7806100616000396000f3fe6080604052600436106100865760003560e01c8063b4bd2cc511610059578063b4bd2cc51461016b578063c201e47c146101a8578063d2980065146101d1578063f340fa01146101ed578063fb0f97a81461020957610086565b8063110754991461008b578063673cf82a146100c85780638334d19514610105578063a262b73f14610142575b600080fd5b34801561009757600080fd5b506100b260048036038101906100ad9190611dc2565b610232565b6040516100bf9190611e24565b60405180910390f35b3480156100d457600080fd5b506100ef60048036038101906100ea9190611e9d565b610249565b6040516100fc91906120bf565b60405180910390f35b34801561011157600080fd5b5061012c6004803603810190610127919061210d565b6102e0565b60405161013991906120bf565b60405180910390f35b34801561014e57600080fd5b506101696004803603810190610164919061213a565b610336565b005b34801561017757600080fd5b50610192600480360381019061018d919061217a565b610354565b60405161019f9190611e24565b60405180910390f35b3480156101b457600080fd5b506101cf60048036038101906101ca919061222a565b6103ad565b005b6101eb60048036038101906101e69190611e9d565b610805565b005b61020760048036038101906102029190611e9d565b610828565b005b34801561021557600080fd5b50610230600480360381019061022b919061226a565b610859565b005b60008061023e836108cb565b905080915050919050565b610251611ad9565b6000600260008473ffffffffffffffffffffffffffffffffffffffff1673ffffffffffffffffffffffffffffffffffffffff168152602001908152602001600020549050600081036102cf576040517fc5f0a1ee00000000000000000000000000000000000000000000000000000000815260040160405180910390fd5b6102d88161091e565b915050919050565b6102e8611ad9565b6000805490508210610326576040517fc5f0a1ee00000000000000000000000000000000000000000000000000000000815260040160405180910390fd5b61032f8261091e565b9050919050565b600061034183610cbf565b905061034f81600084610ff5565b505050565b600080610360846108cb565b9050600061036d846108cb565b9050600061037a83611461565b9050600061038783611461565b9050600061039d610398848461146b565b6114a0565b9050809550505050505092915050565b60006103b883610cbf565b9050600060036000836080015173ffffffffffffffffffffffffffffffffffffffff1673ffffffffffffffffffffffffffffffffffffffff1681526020019081526020016000209050610409611b6a565b6000808561041c57846101400151610423565b8461016001515b905060006001858054905061043891906122ec565b90505b60008211801561044c575060008110155b156107fb57600085828154811061046657610465612320565b5b906000526020600020015490506001818154811061048757610486612320565b5b90600052602060002090600602016040518060e00160405290816000820160009054906101000a900473ffffffffffffffffffffffffffffffffffffffff1673ffffffffffffffffffffffffffffffffffffffff1673ffffffffffffffffffffffffffffffffffffffff1681526020016000820160149054906101000a900460ff16151515158152602001600182015481526020016002820154815260200160038201548152602001600482015481526020016005820154815250509450871515856020015115151461055a57506107e8565b87156105785761056b8786856114aa565b809450819550505061058b565b6105828584611588565b80945081955050505b8361059657506107e8565b600186805490506105a791906122ec565b82146105fd5785600187805490506105bf91906122ec565b815481106105d0576105cf612320565b5b90600052602060002001548683815481106105ee576105ed612320565b5b90600052602060002001819055505b6001808054905061060e91906122ec565b811461073157600180808054905061062691906122ec565b8154811061063757610636612320565b5b90600052602060002090600602016001828154811061065957610658612320565b5b90600052602060002090600602016000820160009054906101000a900473ffffffffffffffffffffffffffffffffffffffff168160000160006101000a81548173ffffffffffffffffffffffffffffffffffffffff021916908373ffffffffffffffffffffffffffffffffffffffff1602179055506000820160149054906101000a900460ff168160000160146101000a81548160ff02191690831515021790555060018201548160010155600282015481600201556003820154816003015560048201548160040155600582015481600501559050505b858054806107425761074161234f565b5b60019003818190600052602060002001600090559055600180548061076a5761076961234f565b5b6001900381819060005260206000209060060201600080820160006101000a81549073ffffffffffffffffffffffffffffffffffffffff02191690556000820160146101000a81549060ff02191690556001820160009055600282016000905560038201600090556004820160009055600582016000905550509055505b80806107f39061237e565b91505061043b565b5050505050505050565b6000349050600061081583610cbf565b905061082381600184610ff5565b505050565b600061083382610cbf565b9050600034905080826101400181815161084d91906123a7565b91508181525050505050565b600061086484610cbf565b9050610875816080015184846115ed565b6108ab576040517f79cacff100000000000000000000000000000000000000000000000000000000815260040160405180910390fd5b8181610160018181516108be91906123a7565b9150818152505050505050565b60008060006108d984611687565b9150915080610914576040517fe6f7d2c700000000000000000000000000000000000000000000000000000000815260040160405180910390fd5b8192505050919050565b610926611ad9565b600080838154811061093b5761093a612320565b5b90600052602060002090600c0201604051806101a00160405290816000820180546109659061240a565b80601f01602080910402602001604051908101604052809291908181526020018280546109919061240a565b80156109de5780601f106109b3576101008083540402835291602001916109de565b820191906000526020600020905b8154815290600101906020018083116109c157829003601f168201915b505050505081526020016001820180546109f79061240a565b80601f0160208091040260200160405190810160405280929190818152602001828054610a239061240a565b8015610a705780601f10610a4557610100808354040283529160200191610a70565b820191906000526020600020905b815481529060010190602001808311610a5357829003601f168201915b505050505081526020016002820160009054906101000a900460ff1660ff1660ff168152602001600382015481526020016004820160009054906101000a900473ffffffffffffffffffffffffffffffffffffffff1673ffffffffffffffffffffffffffffffffffffffff1673ffffffffffffffffffffffffffffffffffffffff1681526020016005820160009054906101000a900473ffffffffffffffffffffffffffffffffffffffff1673ffffffffffffffffffffffffffffffffffffffff1673ffffffffffffffffffffffffffffffffffffffff1681526020016005820160149054906101000a900460ff166001811115610b7157610b70611f67565b5b6001811115610b8357610b82611f67565b5b815260200160068201548152602001600782015481526020016008820154815260200160098201548152602001600a8201548152602001600b820154815250509050600060036000836080015173ffffffffffffffffffffffffffffffffffffffff1673ffffffffffffffffffffffffffffffffffffffff1681526020019081526020016000208054905090506040518061014001604052808581526020018360000151815260200183602001518152602001836080015173ffffffffffffffffffffffffffffffffffffffff1681526020018360a0015173ffffffffffffffffffffffffffffffffffffffff1681526020018360e00151815260200183610100015181526020018360c001516001811115610ca257610ca1611f67565b5b815260200183610120015181526020018281525092505050919050565b610cc7611bbf565b6000600260008473ffffffffffffffffffffffffffffffffffffffff1673ffffffffffffffffffffffffffffffffffffffff16815260200190815260200160002054905060008103610d45576040517fc5f0a1ee00000000000000000000000000000000000000000000000000000000815260040160405180910390fd5b6000600182610d5491906122ec565b81548110610d6557610d64612320565b5b90600052602060002090600c0201604051806101a0016040529081600082018054610d8f9061240a565b80601f0160208091040260200160405190810160405280929190818152602001828054610dbb9061240a565b8015610e085780601f10610ddd57610100808354040283529160200191610e08565b820191906000526020600020905b815481529060010190602001808311610deb57829003601f168201915b50505050508152602001600182018054610e219061240a565b80601f0160208091040260200160405190810160405280929190818152602001828054610e4d9061240a565b8015610e9a5780601f10610e6f57610100808354040283529160200191610e9a565b820191906000526020600020905b815481529060010190602001808311610e7d57829003601f168201915b505050505081526020016002820160009054906101000a900460ff1660ff1660ff168152602001600382015481526020016004820160009054906101000a900473ffffffffffffffffffffffffffffffffffffffff1673ffffffffffffffffffffffffffffffffffffffff1673ffffffffffffffffffffffffffffffffffffffff1681526020016005820160009054906101000a900473ffffffffffffffffffffffffffffffffffffffff1673ffffffffffffffffffffffffffffffffffffffff1673ffffffffffffffffffffffffffffffffffffffff1681526020016005820160149054906101000a900460ff166001811115610f9b57610f9a611f67565b5b6001811115610fad57610fac611f67565b5b815260200160068201548152602001600782015481526020016008820154815260200160098201548152602001600a8201548152602001600b82015481525050915050919050565b600080600181111561100a57611009611f67565b5b8460c00151600181111561102157611020611f67565b5b036110465761102e6117e0565b61103f6008548561012001516118c7565b90506111f2565b60018081111561105957611058611f67565b5b8460c0015160018111156110705761106f611f67565b5b036111f157600060f08561018001514261108a91906122ec565b1015905080156111ef576000856080015190506000600660009054906101000a900473ffffffffffffffffffffffffffffffffffffffff16905060008273ffffffffffffffffffffffffffffffffffffffff166370a082318960a001516040518263ffffffff1660e01b8152600401611103919061244a565b602060405180830381865afa158015611120573d6000803e3d6000fd5b505050506040513d601f19601f82011682018060405250810190611144919061247a565b905060008273ffffffffffffffffffffffffffffffffffffffff166370a082318a60a001516040518263ffffffff1660e01b8152600401611185919061244a565b602060405180830381865afa1580156111a2573d6000803e3d6000fd5b505050506040513d601f19601f820116820180604052508101906111c6919061247a565b90506111d281836118c7565b955085896101200181815250504289610180018181525050505050505b505b5b60008061120683876040015160ff166118fe565b9050600061121885601260ff166118fe565b9050611236818361122991906124a7565b886040015160ff16611923565b92506000876101000151851061124e578760e0015190505b60006040518060e001604052803373ffffffffffffffffffffffffffffffffffffffff1681526020018915158152602001428152602001838152602001878152602001888152602001868152509050600181908060018154018082558091505060019003906000526020600020906006020160009091909190915060008201518160000160006101000a81548173ffffffffffffffffffffffffffffffffffffffff021916908373ffffffffffffffffffffffffffffffffffffffff16021790555060208201518160000160146101000a81548160ff02191690831515021790555060408201518160010155606082015181600201556080820151816003015560a0820151816004015560c0820151816005015550506000600460003373ffffffffffffffffffffffffffffffffffffffff1673ffffffffffffffffffffffffffffffffffffffff16815260200190815260200160002090506000600360008c6080015173ffffffffffffffffffffffffffffffffffffffff1673ffffffffffffffffffffffffffffffffffffffff168152602001908152602001600020905060006001808054905061140191906122ec565b90508281908060018154018082558091505060019003906000526020600020016000909190919091505581819080600181540180825580915050600190039060005260206000200160009091909190915055505050505050505050505050565b6000819050919050565b600061149861149361147c856114a0565b670de0b6b3a764000061148e866114a0565b611948565b611461565b905092915050565b6000819050919050565b6000806000808560a001518510905080156114c7578491506114cf565b8560a0015191505b6000876080015190508073ffffffffffffffffffffffffffffffffffffffff1663a9059cbb8860000151856040518363ffffffff1660e01b8152600401611517929190612548565b6020604051808303816000875af192505050801561155357506040513d601f19601f820116820180604052508101906115509190612586565b60015b6115665760008694509450505050611580565b50828661157391906122ec565b9550811586945094505050505b935093915050565b6000806000808560a001518510905080156115a5578491506115ad565b8560a0015191505b6115bb866000015183611a62565b156115dc5781856115cc91906122ec565b94506001859350935050506115e6565b6000859350935050505b9250929050565b6000808490508073ffffffffffffffffffffffffffffffffffffffff166323b872dd8530866040518463ffffffff1660e01b8152600401611630939291906125b3565b6020604051808303816000875af192505050801561166c57506040513d601f19601f820116820180604052508101906116699190612586565b60015b61167a576000915050611680565b80925050505b9392505050565b60008060008060008590506000806000806000905060005b8551811080156116ad575083155b156117b1578581815181106116c5576116c4612320565b5b602001015160f81c60f81b60f81c945060308560ff16101580156116ed575060398560ff1611155b1561176457869750821561170e578180611706906125f7565b92505061171e565b600a8761171b91906124a7565b96505b81600a61172b9190612753565b603086611738919061279e565b60ff1661174591906124a7565b8761175091906123a7565b96508688111561175f57600193505b61179e565b602e8560ff160361179d57821561177a57600193505b600192506012915081600a61178f9190612753565b8761179a91906124a7565b96505b5b80806117a9906127d3565b91505061169f565b50816117ce57670de0b6b3a7640000866117cb91906124a7565b95505b85839850985050505050505050915091565b60f0600954426117f091906122ec565b106118c557426009819055506000600760009054906101000a900473ffffffffffffffffffffffffffffffffffffffff16905060008173ffffffffffffffffffffffffffffffffffffffff166398d5fdca6040518163ffffffff1660e01b8152600401600060405180830381865afa158015611870573d6000803e3d6000fd5b505050506040513d6000823e3d601f19601f82011682018060405250810190611899919061288b565b90506000806118a783611687565b9150915080156118b957816008819055505b42600981905550505050505b565b6000806118d384611461565b905060006118e084611461565b90506118f46118ef838361146b565b6114a0565b9250505092915050565b60006001821461191957818361191491906124a7565b61191b565b825b905092915050565b60006001821461193e5781836119399190612903565b611940565b825b905092915050565b600080600080198587098587029250828110838203039150506000810361198357838281611979576119786128d4565b5b0492505050611a5b565b8381106119cb578585856040517f63a057780000000000000000000000000000000000000000000000000000000081526004016119c293929190612934565b60405180910390fd5b60008486880990508281118203915080830392506000600186190186169050600081870496508185049450600182836000030401905080840285179450600060028860030218905080880260020381029050808802600203810290508088026002038102905080880260020381029050808802600203810290508088026002038102905080860296505050505050505b9392505050565b6000808373ffffffffffffffffffffffffffffffffffffffff1683604051611a899061299c565b60006040518083038185875af1925050503d8060008114611ac6576040519150601f19603f3d011682016040523d82523d6000602084013e611acb565b606091505b505090508091505092915050565b604051806101400160405280600081526020016060815260200160608152602001600073ffffffffffffffffffffffffffffffffffffffff168152602001600073ffffffffffffffffffffffffffffffffffffffff168152602001600081526020016000815260200160006001811115611b5657611b55611f67565b5b815260200160008152602001600081525090565b6040518060e00160405280600073ffffffffffffffffffffffffffffffffffffffff16815260200160001515815260200160008152602001600081526020016000815260200160008152602001600081525090565b604051806101a001604052806060815260200160608152602001600060ff16815260200160008152602001600073ffffffffffffffffffffffffffffffffffffffff168152602001600073ffffffffffffffffffffffffffffffffffffffff16815260200160006001811115611c3857611c37611f67565b5b81526020016000815260200160008152602001600081526020016000815260200160008152602001600081525090565b6000604051905090565b600080fd5b600080fd5b600080fd5b600080fd5b6000601f19601f8301169050919050565b7f4e487b7100000000000000000000000000000000000000000000000000000000600052604160045260246000fd5b611ccf82611c86565b810181811067ffffffffffffffff82111715611cee57611ced611c97565b5b80604052505050565b6000611d01611c68565b9050611d0d8282611cc6565b919050565b600067ffffffffffffffff821115611d2d57611d2c611c97565b5b611d3682611c86565b9050602081019050919050565b82818337600083830152505050565b6000611d65611d6084611d12565b611cf7565b905082815260208101848484011115611d8157611d80611c81565b5b611d8c848285611d43565b509392505050565b600082601f830112611da957611da8611c7c565b5b8135611db9848260208601611d52565b91505092915050565b600060208284031215611dd857611dd7611c72565b5b600082013567ffffffffffffffff811115611df657611df5611c77565b5b611e0284828501611d94565b91505092915050565b6000819050919050565b611e1e81611e0b565b82525050565b6000602082019050611e396000830184611e15565b92915050565b600073ffffffffffffffffffffffffffffffffffffffff82169050919050565b6000611e6a82611e3f565b9050919050565b611e7a81611e5f565b8114611e8557600080fd5b50565b600081359050611e9781611e71565b92915050565b600060208284031215611eb357611eb2611c72565b5b6000611ec184828501611e88565b91505092915050565b611ed381611e0b565b82525050565b600081519050919050565b600082825260208201905092915050565b60005b83811015611f13578082015181840152602081019050611ef8565b60008484015250505050565b6000611f2a82611ed9565b611f348185611ee4565b9350611f44818560208601611ef5565b611f4d81611c86565b840191505092915050565b611f6181611e5f565b82525050565b7f4e487b7100000000000000000000000000000000000000000000000000000000600052602160045260246000fd5b60028110611fa757611fa6611f67565b5b50565b6000819050611fb882611f96565b919050565b6000611fc882611faa565b9050919050565b611fd881611fbd565b82525050565b600061014083016000830151611ff76000860182611eca565b506020830151848203602086015261200f8282611f1f565b915050604083015184820360408601526120298282611f1f565b915050606083015161203e6060860182611f58565b5060808301516120516080860182611f58565b5060a083015161206460a0860182611eca565b5060c083015161207760c0860182611eca565b5060e083015161208a60e0860182611fcf565b5061010083015161209f610100860182611eca565b506101208301516120b4610120860182611eca565b508091505092915050565b600060208201905081810360008301526120d98184611fde565b905092915050565b6120ea81611e0b565b81146120f557600080fd5b50565b600081359050612107816120e1565b92915050565b60006020828403121561212357612122611c72565b5b6000612131848285016120f8565b91505092915050565b6000806040838503121561215157612150611c72565b5b600061215f85828601611e88565b9250506020612170858286016120f8565b9150509250929050565b6000806040838503121561219157612190611c72565b5b600083013567ffffffffffffffff8111156121af576121ae611c77565b5b6121bb85828601611d94565b925050602083013567ffffffffffffffff8111156121dc576121db611c77565b5b6121e885828601611d94565b9150509250929050565b60008115159050919050565b612207816121f2565b811461221257600080fd5b50565b600081359050612224816121fe565b92915050565b6000806040838503121561224157612240611c72565b5b600061224f85828601611e88565b925050602061226085828601612215565b9150509250929050565b60008060006060848603121561228357612282611c72565b5b600061229186828701611e88565b93505060206122a286828701611e88565b92505060406122b3868287016120f8565b9150509250925092565b7f4e487b7100000000000000000000000000000000000000000000000000000000600052601160045260246000fd5b60006122f782611e0b565b915061230283611e0b565b925082820390508181111561231a576123196122bd565b5b92915050565b7f4e487b7100000000000000000000000000000000000000000000000000000000600052603260045260246000fd5b7f4e487b7100000000000000000000000000000000000000000000000000000000600052603160045260246000fd5b600061238982611e0b565b91506000820361239c5761239b6122bd565b5b600182039050919050565b60006123b282611e0b565b91506123bd83611e0b565b92508282019050808211156123d5576123d46122bd565b5b92915050565b7f4e487b7100000000000000000000000000000000000000000000000000000000600052602260045260246000fd5b6000600282049050600182168061242257607f821691505b602082108103612435576124346123db565b5b50919050565b61244481611e5f565b82525050565b600060208201905061245f600083018461243b565b92915050565b600081519050612474816120e1565b92915050565b6000602082840312156124905761248f611c72565b5b600061249e84828501612465565b91505092915050565b60006124b282611e0b565b91506124bd83611e0b565b92508282026124cb81611e0b565b915082820484148315176124e2576124e16122bd565b5b5092915050565b6000819050919050565b600061250e61250961250484611e3f565b6124e9565b611e3f565b9050919050565b6000612520826124f3565b9050919050565b600061253282612515565b9050919050565b61254281612527565b82525050565b600060408201905061255d6000830185612539565b61256a6020830184611e15565b9392505050565b600081519050612580816121fe565b92915050565b60006020828403121561259c5761259b611c72565b5b60006125aa84828501612571565b91505092915050565b60006060820190506125c8600083018661243b565b6125d5602083018561243b565b6125e26040830184611e15565b949350505050565b600060ff82169050919050565b6000612602826125ea565b915060008203612615576126146122bd565b5b600182039050919050565b60008160011c9050919050565b6000808291508390505b600185111561267757808604811115612653576126526122bd565b5b60018516156126625780820291505b808102905061267085612620565b9450612637565b94509492505050565b600082612690576001905061274c565b8161269e576000905061274c565b81600181146126b457600281146126be576126ed565b600191505061274c565b60ff8411156126d0576126cf6122bd565b5b8360020a9150848211156126e7576126e66122bd565b5b5061274c565b5060208310610133831016604e8410600b84101617156127225782820a90508381111561271d5761271c6122bd565b5b61274c565b61272f848484600161262d565b92509050818404811115612746576127456122bd565b5b81810290505b9392505050565b600061275e82611e0b565b9150612769836125ea565b92506127967fffffffffffffffffffffffffffffffffffffffffffffffffffffffffffffffff8484612680565b905092915050565b60006127a9826125ea565b91506127b4836125ea565b9250828203905060ff8111156127cd576127cc6122bd565b5b92915050565b60006127de82611e0b565b91507fffffffffffffffffffffffffffffffffffffffffffffffffffffffffffffffff82036128105761280f6122bd565b5b600182019050919050565b600061282e61282984611d12565b611cf7565b90508281526020810184848401111561284a57612849611c81565b5b612855848285611ef5565b509392505050565b600082601f83011261287257612871611c7c565b5b815161288284826020860161281b565b91505092915050565b6000602082840312156128a1576128a0611c72565b5b600082015167ffffffffffffffff8111156128bf576128be611c77565b5b6128cb8482850161285d565b91505092915050565b7f4e487b7100000000000000000000000000000000000000000000000000000000600052601260045260246000fd5b600061290e82611e0b565b915061291983611e0b565b925082612929576129286128d4565b5b828204905092915050565b60006060820190506129496000830186611e15565b6129566020830185611e15565b6129636040830184611e15565b949350505050565b600081905092915050565b50565b600061298660008361296b565b915061299182612976565b600082019050919050565b60006129a782612979565b915081905091905056fea26469706673582212206df7f206706e8f2c73bd466d077371797d25b92e44729aa616fac4c69130d80064736f6c63430008150033","opcodes":"PUSH1 0x80 PUSH1 0x40 MSTORE CALLVALUE DUP1 ISZERO PUSH2 0x10 JUMPI PUSH1 0x0 DUP1 REVERT JUMPDEST POP CALLER PUSH1 0x5 PUSH1 0x0 PUSH2 0x100 EXP DUP2 SLOAD DUP2 PUSH20 0xFFFFFFFFFFFFFFFFFFFFFFFFFFFFFFFFFFFFFFFF MUL NOT AND SWAP1 DUP4 PUSH20 0xFFFFFFFFFFFFFFFFFFFFFFFFFFFFFFFFFFFFFFFF AND MUL OR SWAP1 SSTORE POP PUSH2 0x29E7 DUP1 PUSH2 0x61 PUSH1 0x0 CODECOPY PUSH1 0x0 RETURN INVALID PUSH1 0x80 PUSH1 0x40 MSTORE PUSH1 0x4 CALLDATASIZE LT PUSH2 0x86 JUMPI PUSH1 0x0 CALLDATALOAD PUSH1 0xE0 SHR DUP1 PUSH4 0xB4BD2CC5 GT PUSH2 0x59 JUMPI DUP1 PUSH4 0xB4BD2CC5 EQ PUSH2 0x16B JUMPI DUP1 PUSH4 0xC201E47C EQ PUSH2 0x1A8 JUMPI DUP1 PUSH4 0xD2980065 EQ PUSH2 0x1D1 JUMPI DUP1 PUSH4 0xF340FA01 EQ PUSH2 0x1ED JUMPI DUP1 PUSH4 0xFB0F97A8 EQ PUSH2 0x209 JUMPI PUSH2 0x86 JUMP JUMPDEST DUP1 PUSH4 0x11075499 EQ PUSH2 0x8B JUMPI DUP1 PUSH4 0x673CF82A EQ PUSH2 0xC8 JUMPI DUP1 PUSH4 0x8334D195 EQ PUSH2 0x105 JUMPI DUP1 PUSH4 0xA262B73F EQ PUSH2 0x142 JUMPI JUMPDEST PUSH1 0x0 DUP1 REVERT JUMPDEST CALLVALUE DUP1 ISZERO PUSH2 0x97 JUMPI PUSH1 0x0 DUP1 REVERT JUMPDEST POP PUSH2 0xB2 PUSH1 0x4 DUP1 CALLDATASIZE SUB DUP2 ADD SWAP1 PUSH2 0xAD SWAP2 SWAP1 PUSH2 0x1DC2 JUMP JUMPDEST PUSH2 0x232 JUMP JUMPDEST PUSH1 0x40 MLOAD PUSH2 0xBF SWAP2 SWAP1 PUSH2 0x1E24 JUMP JUMPDEST PUSH1 0x40 MLOAD DUP1 SWAP2 SUB SWAP1 RETURN JUMPDEST CALLVALUE DUP1 ISZERO PUSH2 0xD4 JUMPI PUSH1 0x0 DUP1 REVERT JUMPDEST POP PUSH2 0xEF PUSH1 0x4 DUP1 CALLDATASIZE SUB DUP2 ADD SWAP1 PUSH2 0xEA SWAP2 SWAP1 PUSH2 0x1E9D JUMP JUMPDEST PUSH2 0x249 JUMP JUMPDEST PUSH1 0x40 MLOAD PUSH2 0xFC SWAP2 SWAP1 PUSH2 0x20BF JUMP JUMPDEST PUSH1 0x40 MLOAD DUP1 SWAP2 SUB SWAP1 RETURN JUMPDEST CALLVALUE DUP1 ISZERO PUSH2 0x111 JUMPI PUSH1 0x0 DUP1 REVERT JUMPDEST POP PUSH2 0x12C PUSH1 0x4 DUP1 CALLDATASIZE SUB DUP2 ADD SWAP1 PUSH2 0x127 SWAP2 SWAP1 PUSH2 0x210D JUMP JUMPDEST PUSH2 0x2E0 JUMP JUMPDEST PUSH1 0x40 MLOAD PUSH2 0x139 SWAP2 SWAP1 PUSH2 0x20BF JUMP JUMPDEST PUSH1 0x40 MLOAD DUP1 SWAP2 SUB SWAP1 RETURN JUMPDEST CALLVALUE DUP1 ISZERO PUSH2 0x14E JUMPI PUSH1 0x0 DUP1 REVERT JUMPDEST POP PUSH2 0x169 PUSH1 0x4 DUP1 CALLDATASIZE SUB DUP2 ADD SWAP1 PUSH2 0x164 SWAP2 SWAP1 PUSH2 0x213A JUMP JUMPDEST PUSH2 0x336 JUMP JUMPDEST STOP JUMPDEST CALLVALUE DUP1 ISZERO PUSH2 0x177 JUMPI PUSH1 0x0 DUP1 REVERT JUMPDEST POP PUSH2 0x192 PUSH1 0x4 DUP1 CALLDATASIZE SUB DUP2 ADD SWAP1 PUSH2 0x18D SWAP2 SWAP1 PUSH2 0x217A JUMP JUMPDEST PUSH2 0x354 JUMP JUMPDEST PUSH1 0x40 MLOAD PUSH2 0x19F SWAP2 SWAP1 PUSH2 0x1E24 JUMP JUMPDEST PUSH1 0x40 MLOAD DUP1 SWAP2 SUB SWAP1 RETURN JUMPDEST CALLVALUE DUP1 ISZERO PUSH2 0x1B4 JUMPI PUSH1 0x0 DUP1 REVERT JUMPDEST POP PUSH2 0x1CF PUSH1 0x4 DUP1 CALLDATASIZE SUB DUP2 ADD SWAP1 PUSH2 0x1CA SWAP2 SWAP1 PUSH2 0x222A JUMP JUMPDEST PUSH2 0x3AD JUMP JUMPDEST STOP JUMPDEST PUSH2 0x1EB PUSH1 0x4 DUP1 CALLDATASIZE SUB DUP2 ADD SWAP1 PUSH2 0x1E6 SWAP2 SWAP1 PUSH2 0x1E9D JUMP JUMPDEST PUSH2 0x805 JUMP JUMPDEST STOP JUMPDEST PUSH2 0x207 PUSH1 0x4 DUP1 CALLDATASIZE SUB DUP2 ADD SWAP1 PUSH2 0x202 SWAP2 SWAP1 PUSH2 0x1E9D JUMP JUMPDEST PUSH2 0x828 JUMP JUMPDEST STOP JUMPDEST CALLVALUE DUP1 ISZERO PUSH2 0x215 JUMPI PUSH1 0x0 DUP1 REVERT JUMPDEST POP PUSH2 0x230 PUSH1 0x4 DUP1 CALLDATASIZE SUB DUP2 ADD SWAP1 PUSH2 0x22B SWAP2 SWAP1 PUSH2 0x226A JUMP JUMPDEST PUSH2 0x859 JUMP JUMPDEST STOP JUMPDEST PUSH1 0x0 DUP1 PUSH2 0x23E DUP4 PUSH2 0x8CB JUMP JUMPDEST SWAP1 POP DUP1 SWAP2 POP POP SWAP2 SWAP1 POP JUMP JUMPDEST PUSH2 0x251 PUSH2 0x1AD9 JUMP JUMPDEST PUSH1 0x0 PUSH1 0x2 PUSH1 0x0 DUP5 PUSH20 0xFFFFFFFFFFFFFFFFFFFFFFFFFFFFFFFFFFFFFFFF AND PUSH20 0xFFFFFFFFFFFFFFFFFFFFFFFFFFFFFFFFFFFFFFFF AND DUP2 MSTORE PUSH1 0x20 ADD SWAP1 DUP2 MSTORE PUSH1 0x20 ADD PUSH1 0x0 KECCAK256 SLOAD SWAP1 POP PUSH1 0x0 DUP2 SUB PUSH2 0x2CF JUMPI PUSH1 0x40 MLOAD PUSH32 0xC5F0A1EE00000000000000000000000000000000000000000000000000000000 DUP2 MSTORE PUSH1 0x4 ADD PUSH1 0x40 MLOAD DUP1 SWAP2 SUB SWAP1 REVERT JUMPDEST PUSH2 0x2D8 DUP2 PUSH2 0x91E JUMP JUMPDEST SWAP2 POP POP SWAP2 SWAP1 POP JUMP JUMPDEST PUSH2 0x2E8 PUSH2 0x1AD9 JUMP JUMPDEST PUSH1 0x0 DUP1 SLOAD SWAP1 POP DUP3 LT PUSH2 0x326 JUMPI PUSH1 0x40 MLOAD PUSH32 0xC5F0A1EE00000000000000000000000000000000000000000000000000000000 DUP2 MSTORE PUSH1 0x4 ADD PUSH1 0x40 MLOAD DUP1 SWAP2 SUB SWAP1 REVERT JUMPDEST PUSH2 0x32F DUP3 PUSH2 0x91E JUMP JUMPDEST SWAP1 POP SWAP2 SWAP1 POP JUMP JUMPDEST PUSH1 0x0 PUSH2 0x341 DUP4 PUSH2 0xCBF JUMP JUMPDEST SWAP1 POP PUSH2 0x34F DUP2 PUSH1 0x0 DUP5 PUSH2 0xFF5 JUMP JUMPDEST POP POP POP JUMP JUMPDEST PUSH1 0x0 DUP1 PUSH2 0x360 DUP5 PUSH2 0x8CB JUMP JUMPDEST SWAP1 POP PUSH1 0x0 PUSH2 0x36D DUP5 PUSH2 0x8CB JUMP JUMPDEST SWAP1 POP PUSH1 0x0 PUSH2 0x37A DUP4 PUSH2 0x1461 JUMP JUMPDEST SWAP1 POP PUSH1 0x0 PUSH2 0x387 DUP4 PUSH2 0x1461 JUMP JUMPDEST SWAP1 POP PUSH1 0x0 PUSH2 0x39D PUSH2 0x398 DUP5 DUP5 PUSH2 0x146B JUMP JUMPDEST PUSH2 0x14A0 JUMP JUMPDEST SWAP1 POP DUP1 SWAP6 POP POP POP POP POP POP SWAP3 SWAP2 POP POP JUMP JUMPDEST PUSH1 0x0 PUSH2 0x3B8 DUP4 PUSH2 0xCBF JUMP JUMPDEST SWAP1 POP PUSH1 0x0 PUSH1 0x3 PUSH1 0x0 DUP4 PUSH1 0x80 ADD MLOAD PUSH20 0xFFFFFFFFFFFFFFFFFFFFFFFFFFFFFFFFFFFFFFFF AND PUSH20 0xFFFFFFFFFFFFFFFFFFFFFFFFFFFFFFFFFFFFFFFF AND DUP2 MSTORE PUSH1 0x20 ADD SWAP1 DUP2 MSTORE PUSH1 0x20 ADD PUSH1 0x0 KECCAK256 SWAP1 POP PUSH2 0x409 PUSH2 0x1B6A JUMP JUMPDEST PUSH1 0x0 DUP1 DUP6 PUSH2 0x41C JUMPI DUP5 PUSH2 0x140 ADD MLOAD PUSH2 0x423 JUMP JUMPDEST DUP5 PUSH2 0x160 ADD MLOAD JUMPDEST SWAP1 POP PUSH1 0x0 PUSH1 0x1 DUP6 DUP1 SLOAD SWAP1 POP PUSH2 0x438 SWAP2 SWAP1 PUSH2 0x22EC JUMP JUMPDEST SWAP1 POP JUMPDEST PUSH1 0x0 DUP3 GT DUP1 ISZERO PUSH2 0x44C JUMPI POP PUSH1 0x0 DUP2 LT ISZERO JUMPDEST ISZERO PUSH2 0x7FB JUMPI PUSH1 0x0 DUP6 DUP3 DUP2 SLOAD DUP2 LT PUSH2 0x466 JUMPI PUSH2 0x465 PUSH2 0x2320 JUMP JUMPDEST JUMPDEST SWAP1 PUSH1 0x0 MSTORE PUSH1 0x20 PUSH1 0x0 KECCAK256 ADD SLOAD SWAP1 POP PUSH1 0x1 DUP2 DUP2 SLOAD DUP2 LT PUSH2 0x487 JUMPI PUSH2 0x486 PUSH2 0x2320 JUMP JUMPDEST JUMPDEST SWAP1 PUSH1 0x0 MSTORE PUSH1 0x20 PUSH1 0x0 KECCAK256 SWAP1 PUSH1 0x6 MUL ADD PUSH1 0x40 MLOAD DUP1 PUSH1 0xE0 ADD PUSH1 0x40 MSTORE SWAP1 DUP2 PUSH1 0x0 DUP3 ADD PUSH1 0x0 SWAP1 SLOAD SWAP1 PUSH2 0x100 EXP SWAP1 DIV PUSH20 0xFFFFFFFFFFFFFFFFFFFFFFFFFFFFFFFFFFFFFFFF AND PUSH20 0xFFFFFFFFFFFFFFFFFFFFFFFFFFFFFFFFFFFFFFFF AND PUSH20 0xFFFFFFFFFFFFFFFFFFFFFFFFFFFFFFFFFFFFFFFF AND DUP2 MSTORE PUSH1 0x20 ADD PUSH1 0x0 DUP3 ADD PUSH1 0x14 SWAP1 SLOAD SWAP1 PUSH2 0x100 EXP SWAP1 DIV PUSH1 0xFF AND ISZERO ISZERO ISZERO ISZERO DUP2 MSTORE PUSH1 0x20 ADD PUSH1 0x1 DUP3 ADD SLOAD DUP2 MSTORE PUSH1 0x20 ADD PUSH1 0x2 DUP3 ADD SLOAD DUP2 MSTORE PUSH1 0x20 ADD PUSH1 0x3 DUP3 ADD SLOAD DUP2 MSTORE PUSH1 0x20 ADD PUSH1 0x4 DUP3 ADD SLOAD DUP2 MSTORE PUSH1 0x20 ADD PUSH1 0x5 DUP3 ADD SLOAD DUP2 MSTORE POP POP SWAP5 POP DUP8 ISZERO ISZERO DUP6 PUSH1 0x20 ADD MLOAD ISZERO ISZERO EQ PUSH2 0x55A JUMPI POP PUSH2 0x7E8 JUMP JUMPDEST DUP8 ISZERO PUSH2 0x578 JUMPI PUSH2 0x56B DUP8 DUP7 DUP6 PUSH2 0x14AA JUMP JUMPDEST DUP1 SWAP5 POP DUP2 SWAP6 POP POP POP PUSH2 0x58B JUMP JUMPDEST PUSH2 0x582 DUP6 DUP5 PUSH2 0x1588 JUMP JUMPDEST DUP1 SWAP5 POP DUP2 SWAP6 POP POP POP JUMPDEST DUP4 PUSH2 0x596 JUMPI POP PUSH2 0x7E8 JUMP JUMPDEST PUSH1 0x1 DUP7 DUP1 SLOAD SWAP1 POP PUSH2 0x5A7 SWAP2 SWAP1 PUSH2 0x22EC JUMP JUMPDEST DUP3 EQ PUSH2 0x5FD JUMPI DUP6 PUSH1 0x1 DUP8 DUP1 SLOAD SWAP1 POP PUSH2 0x5BF SWAP2 SWAP1 PUSH2 0x22EC JUMP JUMPDEST DUP2 SLOAD DUP2 LT PUSH2 0x5D0 JUMPI PUSH2 0x5CF PUSH2 0x2320 JUMP JUMPDEST JUMPDEST SWAP1 PUSH1 0x0 MSTORE PUSH1 0x20 PUSH1 0x0 KECCAK256 ADD SLOAD DUP7 DUP4 DUP2 SLOAD DUP2 LT PUSH2 0x5EE JUMPI PUSH2 0x5ED PUSH2 0x2320 JUMP JUMPDEST JUMPDEST SWAP1 PUSH1 0x0 MSTORE PUSH1 0x20 PUSH1 0x0 KECCAK256 ADD DUP2 SWAP1 SSTORE POP JUMPDEST PUSH1 0x1 DUP1 DUP1 SLOAD SWAP1 POP PUSH2 0x60E SWAP2 SWAP1 PUSH2 0x22EC JUMP JUMPDEST DUP2 EQ PUSH2 0x731 JUMPI PUSH1 0x1 DUP1 DUP1 DUP1 SLOAD SWAP1 POP PUSH2 0x626 SWAP2 SWAP1 PUSH2 0x22EC JUMP JUMPDEST DUP2 SLOAD DUP2 LT PUSH2 0x637 JUMPI PUSH2 0x636 PUSH2 0x2320 JUMP JUMPDEST JUMPDEST SWAP1 PUSH1 0x0 MSTORE PUSH1 0x20 PUSH1 0x0 KECCAK256 SWAP1 PUSH1 0x6 MUL ADD PUSH1 0x1 DUP3 DUP2 SLOAD DUP2 LT PUSH2 0x659 JUMPI PUSH2 0x658 PUSH2 0x2320 JUMP JUMPDEST JUMPDEST SWAP1 PUSH1 0x0 MSTORE PUSH1 0x20 PUSH1 0x0 KECCAK256 SWAP1 PUSH1 0x6 MUL ADD PUSH1 0x0 DUP3 ADD PUSH1 0x0 SWAP1 SLOAD SWAP1 PUSH2 0x100 EXP SWAP1 DIV PUSH20 0xFFFFFFFFFFFFFFFFFFFFFFFFFFFFFFFFFFFFFFFF AND DUP2 PUSH1 0x0 ADD PUSH1 0x0 PUSH2 0x100 EXP DUP2 SLOAD DUP2 PUSH20 0xFFFFFFFFFFFFFFFFFFFFFFFFFFFFFFFFFFFFFFFF MUL NOT AND SWAP1 DUP4 PUSH20 0xFFFFFFFFFFFFFFFFFFFFFFFFFFFFFFFFFFFFFFFF AND MUL OR SWAP1 SSTORE POP PUSH1 0x0 DUP3 ADD PUSH1 0x14 SWAP1 SLOAD SWAP1 PUSH2 0x100 EXP SWAP1 DIV PUSH1 0xFF AND DUP2 PUSH1 0x0 ADD PUSH1 0x14 PUSH2 0x100 EXP DUP2 SLOAD DUP2 PUSH1 0xFF MUL NOT AND SWAP1 DUP4 ISZERO ISZERO MUL OR SWAP1 SSTORE POP PUSH1 0x1 DUP3 ADD SLOAD DUP2 PUSH1 0x1 ADD SSTORE PUSH1 0x2 DUP3 ADD SLOAD DUP2 PUSH1 0x2 ADD SSTORE PUSH1 0x3 DUP3 ADD SLOAD DUP2 PUSH1 0x3 ADD SSTORE PUSH1 0x4 DUP3 ADD SLOAD DUP2 PUSH1 0x4 ADD SSTORE PUSH1 0x5 DUP3 ADD SLOAD DUP2 PUSH1 0x5 ADD SSTORE SWAP1 POP POP JUMPDEST DUP6 DUP1 SLOAD DUP1 PUSH2 0x742 JUMPI PUSH2 0x741 PUSH2 0x234F JUMP JUMPDEST JUMPDEST PUSH1 0x1 SWAP1 SUB DUP2 DUP2 SWAP1 PUSH1 0x0 MSTORE PUSH1 0x20 PUSH1 0x0 KECCAK256 ADD PUSH1 0x0 SWAP1 SSTORE SWAP1 SSTORE PUSH1 0x1 DUP1 SLOAD DUP1 PUSH2 0x76A JUMPI PUSH2 0x769 PUSH2 0x234F JUMP JUMPDEST JUMPDEST PUSH1 0x1 SWAP1 SUB DUP2 DUP2 SWAP1 PUSH1 0x0 MSTORE PUSH1 0x20 PUSH1 0x0 KECCAK256 SWAP1 PUSH1 0x6 MUL ADD PUSH1 0x0 DUP1 DUP3 ADD PUSH1 0x0 PUSH2 0x100 EXP DUP2 SLOAD SWAP1 PUSH20 0xFFFFFFFFFFFFFFFFFFFFFFFFFFFFFFFFFFFFFFFF MUL NOT AND SWAP1 SSTORE PUSH1 0x0 DUP3 ADD PUSH1 0x14 PUSH2 0x100 EXP DUP2 SLOAD SWAP1 PUSH1 0xFF MUL NOT AND SWAP1 SSTORE PUSH1 0x1 DUP3 ADD PUSH1 0x0 SWAP1 SSTORE PUSH1 0x2 DUP3 ADD PUSH1 0x0 SWAP1 SSTORE PUSH1 0x3 DUP3 ADD PUSH1 0x0 SWAP1 SSTORE PUSH1 0x4 DUP3 ADD PUSH1 0x0 SWAP1 SSTORE PUSH1 0x5 DUP3 ADD PUSH1 0x0 SWAP1 SSTORE POP POP SWAP1 SSTORE POP JUMPDEST DUP1 DUP1 PUSH2 0x7F3 SWAP1 PUSH2 0x237E JUMP JUMPDEST SWAP2 POP POP PUSH2 0x43B JUMP JUMPDEST POP POP POP POP POP POP POP POP JUMP JUMPDEST PUSH1 0x0 CALLVALUE SWAP1 POP PUSH1 0x0 PUSH2 0x815 DUP4 PUSH2 0xCBF JUMP JUMPDEST SWAP1 POP PUSH2 0x823 DUP2 PUSH1 0x1 DUP5 PUSH2 0xFF5 JUMP JUMPDEST POP POP POP JUMP JUMPDEST PUSH1 0x0 PUSH2 0x833 DUP3 PUSH2 0xCBF JUMP JUMPDEST SWAP1 POP PUSH1 0x0 CALLVALUE SWAP1 POP DUP1 DUP3 PUSH2 0x140 ADD DUP2 DUP2 MLOAD PUSH2 0x84D SWAP2 SWAP1 PUSH2 0x23A7 JUMP JUMPDEST SWAP2 POP DUP2 DUP2 MSTORE POP POP POP POP POP JUMP JUMPDEST PUSH1 0x0 PUSH2 0x864 DUP5 PUSH2 0xCBF JUMP JUMPDEST SWAP1 POP PUSH2 0x875 DUP2 PUSH1 0x80 ADD MLOAD DUP5 DUP5 PUSH2 0x15ED JUMP JUMPDEST PUSH2 0x8AB JUMPI PUSH1 0x40 MLOAD PUSH32 0x79CACFF100000000000000000000000000000000000000000000000000000000 DUP2 MSTORE PUSH1 0x4 ADD PUSH1 0x40 MLOAD DUP1 SWAP2 SUB SWAP1 REVERT JUMPDEST DUP2 DUP2 PUSH2 0x160 ADD DUP2 DUP2 MLOAD PUSH2 0x8BE SWAP2 SWAP1 PUSH2 0x23A7 JUMP JUMPDEST SWAP2 POP DUP2 DUP2 MSTORE POP POP POP POP POP POP JUMP JUMPDEST PUSH1 0x0 DUP1 PUSH1 0x0 PUSH2 0x8D9 DUP5 PUSH2 0x1687 JUMP JUMPDEST SWAP2 POP SWAP2 POP DUP1 PUSH2 0x914 JUMPI PUSH1 0x40 MLOAD PUSH32 0xE6F7D2C700000000000000000000000000000000000000000000000000000000 DUP2 MSTORE PUSH1 0x4 ADD PUSH1 0x40 MLOAD DUP1 SWAP2 SUB SWAP1 REVERT JUMPDEST DUP2 SWAP3 POP POP POP SWAP2 SWAP1 POP JUMP JUMPDEST PUSH2 0x926 PUSH2 0x1AD9 JUMP JUMPDEST PUSH1 0x0 DUP1 DUP4 DUP2 SLOAD DUP2 LT PUSH2 0x93B JUMPI PUSH2 0x93A PUSH2 0x2320 JUMP JUMPDEST JUMPDEST SWAP1 PUSH1 0x0 MSTORE PUSH1 0x20 PUSH1 0x0 KECCAK256 SWAP1 PUSH1 0xC MUL ADD PUSH1 0x40 MLOAD DUP1 PUSH2 0x1A0 ADD PUSH1 0x40 MSTORE SWAP1 DUP2 PUSH1 0x0 DUP3 ADD DUP1 SLOAD PUSH2 0x965 SWAP1 PUSH2 0x240A JUMP JUMPDEST DUP1 PUSH1 0x1F ADD PUSH1 0x20 DUP1 SWAP2 DIV MUL PUSH1 0x20 ADD PUSH1 0x40 MLOAD SWAP1 DUP2 ADD PUSH1 0x40 MSTORE DUP1 SWAP3 SWAP2 SWAP1 DUP2 DUP2 MSTORE PUSH1 0x20 ADD DUP3 DUP1 SLOAD PUSH2 0x991 SWAP1 PUSH2 0x240A JUMP JUMPDEST DUP1 ISZERO PUSH2 0x9DE JUMPI DUP1 PUSH1 0x1F LT PUSH2 0x9B3 JUMPI PUSH2 0x100 DUP1 DUP4 SLOAD DIV MUL DUP4 MSTORE SWAP2 PUSH1 0x20 ADD SWAP2 PUSH2 0x9DE JUMP JUMPDEST DUP3 ADD SWAP2 SWAP1 PUSH1 0x0 MSTORE PUSH1 0x20 PUSH1 0x0 KECCAK256 SWAP1 JUMPDEST DUP2 SLOAD DUP2 MSTORE SWAP1 PUSH1 0x1 ADD SWAP1 PUSH1 0x20 ADD DUP1 DUP4 GT PUSH2 0x9C1 JUMPI DUP3 SWAP1 SUB PUSH1 0x1F AND DUP3 ADD SWAP2 JUMPDEST POP POP POP POP POP DUP2 MSTORE PUSH1 0x20 ADD PUSH1 0x1 DUP3 ADD DUP1 SLOAD PUSH2 0x9F7 SWAP1 PUSH2 0x240A JUMP JUMPDEST DUP1 PUSH1 0x1F ADD PUSH1 0x20 DUP1 SWAP2 DIV MUL PUSH1 0x20 ADD PUSH1 0x40 MLOAD SWAP1 DUP2 ADD PUSH1 0x40 MSTORE DUP1 SWAP3 SWAP2 SWAP1 DUP2 DUP2 MSTORE PUSH1 0x20 ADD DUP3 DUP1 SLOAD PUSH2 0xA23 SWAP1 PUSH2 0x240A JUMP JUMPDEST DUP1 ISZERO PUSH2 0xA70 JUMPI DUP1 PUSH1 0x1F LT PUSH2 0xA45 JUMPI PUSH2 0x100 DUP1 DUP4 SLOAD DIV MUL DUP4 MSTORE SWAP2 PUSH1 0x20 ADD SWAP2 PUSH2 0xA70 JUMP JUMPDEST DUP3 ADD SWAP2 SWAP1 PUSH1 0x0 MSTORE PUSH1 0x20 PUSH1 0x0 KECCAK256 SWAP1 JUMPDEST DUP2 SLOAD DUP2 MSTORE SWAP1 PUSH1 0x1 ADD SWAP1 PUSH1 0x20 ADD DUP1 DUP4 GT PUSH2 0xA53 JUMPI DUP3 SWAP1 SUB PUSH1 0x1F AND DUP3 ADD SWAP2 JUMPDEST POP POP POP POP POP DUP2 MSTORE PUSH1 0x20 ADD PUSH1 0x2 DUP3 ADD PUSH1 0x0 SWAP1 SLOAD SWAP1 PUSH2 0x100 EXP SWAP1 DIV PUSH1 0xFF AND PUSH1 0xFF AND PUSH1 0xFF AND DUP2 MSTORE PUSH1 0x20 ADD PUSH1 0x3 DUP3 ADD SLOAD DUP2 MSTORE PUSH1 0x20 ADD PUSH1 0x4 DUP3 ADD PUSH1 0x0 SWAP1 SLOAD SWAP1 PUSH2 0x100 EXP SWAP1 DIV PUSH20 0xFFFFFFFFFFFFFFFFFFFFFFFFFFFFFFFFFFFFFFFF AND PUSH20 0xFFFFFFFFFFFFFFFFFFFFFFFFFFFFFFFFFFFFFFFF AND PUSH20 0xFFFFFFFFFFFFFFFFFFFFFFFFFFFFFFFFFFFFFFFF AND DUP2 MSTORE PUSH1 0x20 ADD PUSH1 0x5 DUP3 ADD PUSH1 0x0 SWAP1 SLOAD SWAP1 PUSH2 0x100 EXP SWAP1 DIV PUSH20 0xFFFFFFFFFFFFFFFFFFFFFFFFFFFFFFFFFFFFFFFF AND PUSH20 0xFFFFFFFFFFFFFFFFFFFFFFFFFFFFFFFFFFFFFFFF AND PUSH20 0xFFFFFFFFFFFFFFFFFFFFFFFFFFFFFFFFFFFFFFFF AND DUP2 MSTORE PUSH1 0x20 ADD PUSH1 0x5 DUP3 ADD PUSH1 0x14 SWAP1 SLOAD SWAP1 PUSH2 0x100 EXP SWAP1 DIV PUSH1 0xFF AND PUSH1 0x1 DUP2 GT ISZERO PUSH2 0xB71 JUMPI PUSH2 0xB70 PUSH2 0x1F67 JUMP JUMPDEST JUMPDEST PUSH1 0x1 DUP2 GT ISZERO PUSH2 0xB83 JUMPI PUSH2 0xB82 PUSH2 0x1F67 JUMP JUMPDEST JUMPDEST DUP2 MSTORE PUSH1 0x20 ADD PUSH1 0x6 DUP3 ADD SLOAD DUP2 MSTORE PUSH1 0x20 ADD PUSH1 0x7 DUP3 ADD SLOAD DUP2 MSTORE PUSH1 0x20 ADD PUSH1 0x8 DUP3 ADD SLOAD DUP2 MSTORE PUSH1 0x20 ADD PUSH1 0x9 DUP3 ADD SLOAD DUP2 MSTORE PUSH1 0x20 ADD PUSH1 0xA DUP3 ADD SLOAD DUP2 MSTORE PUSH1 0x20 ADD PUSH1 0xB DUP3 ADD SLOAD DUP2 MSTORE POP POP SWAP1 POP PUSH1 0x0 PUSH1 0x3 PUSH1 0x0 DUP4 PUSH1 0x80 ADD MLOAD PUSH20 0xFFFFFFFFFFFFFFFFFFFFFFFFFFFFFFFFFFFFFFFF AND PUSH20 0xFFFFFFFFFFFFFFFFFFFFFFFFFFFFFFFFFFFFFFFF AND DUP2 MSTORE PUSH1 0x20 ADD SWAP1 DUP2 MSTORE PUSH1 0x20 ADD PUSH1 0x0 KECCAK256 DUP1 SLOAD SWAP1 POP SWAP1 POP PUSH1 0x40 MLOAD DUP1 PUSH2 0x140 ADD PUSH1 0x40 MSTORE DUP1 DUP6 DUP2 MSTORE PUSH1 0x20 ADD DUP4 PUSH1 0x0 ADD MLOAD DUP2 MSTORE PUSH1 0x20 ADD DUP4 PUSH1 0x20 ADD MLOAD DUP2 MSTORE PUSH1 0x20 ADD DUP4 PUSH1 0x80 ADD MLOAD PUSH20 0xFFFFFFFFFFFFFFFFFFFFFFFFFFFFFFFFFFFFFFFF AND DUP2 MSTORE PUSH1 0x20 ADD DUP4 PUSH1 0xA0 ADD MLOAD PUSH20 0xFFFFFFFFFFFFFFFFFFFFFFFFFFFFFFFFFFFFFFFF AND DUP2 MSTORE PUSH1 0x20 ADD DUP4 PUSH1 0xE0 ADD MLOAD DUP2 MSTORE PUSH1 0x20 ADD DUP4 PUSH2 0x100 ADD MLOAD DUP2 MSTORE PUSH1 0x20 ADD DUP4 PUSH1 0xC0 ADD MLOAD PUSH1 0x1 DUP2 GT ISZERO PUSH2 0xCA2 JUMPI PUSH2 0xCA1 PUSH2 0x1F67 JUMP JUMPDEST JUMPDEST DUP2 MSTORE PUSH1 0x20 ADD DUP4 PUSH2 0x120 ADD MLOAD DUP2 MSTORE PUSH1 0x20 ADD DUP3 DUP2 MSTORE POP SWAP3 POP POP POP SWAP2 SWAP1 POP JUMP JUMPDEST PUSH2 0xCC7 PUSH2 0x1BBF JUMP JUMPDEST PUSH1 0x0 PUSH1 0x2 PUSH1 0x0 DUP5 PUSH20 0xFFFFFFFFFFFFFFFFFFFFFFFFFFFFFFFFFFFFFFFF AND PUSH20 0xFFFFFFFFFFFFFFFFFFFFFFFFFFFFFFFFFFFFFFFF AND DUP2 MSTORE PUSH1 0x20 ADD SWAP1 DUP2 MSTORE PUSH1 0x20 ADD PUSH1 0x0 KECCAK256 SLOAD SWAP1 POP PUSH1 0x0 DUP2 SUB PUSH2 0xD45 JUMPI PUSH1 0x40 MLOAD PUSH32 0xC5F0A1EE00000000000000000000000000000000000000000000000000000000 DUP2 MSTORE PUSH1 0x4 ADD PUSH1 0x40 MLOAD DUP1 SWAP2 SUB SWAP1 REVERT JUMPDEST PUSH1 0x0 PUSH1 0x1 DUP3 PUSH2 0xD54 SWAP2 SWAP1 PUSH2 0x22EC JUMP JUMPDEST DUP2 SLOAD DUP2 LT PUSH2 0xD65 JUMPI PUSH2 0xD64 PUSH2 0x2320 JUMP JUMPDEST JUMPDEST SWAP1 PUSH1 0x0 MSTORE PUSH1 0x20 PUSH1 0x0 KECCAK256 SWAP1 PUSH1 0xC MUL ADD PUSH1 0x40 MLOAD DUP1 PUSH2 0x1A0 ADD PUSH1 0x40 MSTORE SWAP1 DUP2 PUSH1 0x0 DUP3 ADD DUP1 SLOAD PUSH2 0xD8F SWAP1 PUSH2 0x240A JUMP JUMPDEST DUP1 PUSH1 0x1F ADD PUSH1 0x20 DUP1 SWAP2 DIV MUL PUSH1 0x20 ADD PUSH1 0x40 MLOAD SWAP1 DUP2 ADD PUSH1 0x40 MSTORE DUP1 SWAP3 SWAP2 SWAP1 DUP2 DUP2 MSTORE PUSH1 0x20 ADD DUP3 DUP1 SLOAD PUSH2 0xDBB SWAP1 PUSH2 0x240A JUMP JUMPDEST DUP1 ISZERO PUSH2 0xE08 JUMPI DUP1 PUSH1 0x1F LT PUSH2 0xDDD JUMPI PUSH2 0x100 DUP1 DUP4 SLOAD DIV MUL DUP4 MSTORE SWAP2 PUSH1 0x20 ADD SWAP2 PUSH2 0xE08 JUMP JUMPDEST DUP3 ADD SWAP2 SWAP1 PUSH1 0x0 MSTORE PUSH1 0x20 PUSH1 0x0 KECCAK256 SWAP1 JUMPDEST DUP2 SLOAD DUP2 MSTORE SWAP1 PUSH1 0x1 ADD SWAP1 PUSH1 0x20 ADD DUP1 DUP4 GT PUSH2 0xDEB JUMPI DUP3 SWAP1 SUB PUSH1 0x1F AND DUP3 ADD SWAP2 JUMPDEST POP POP POP POP POP DUP2 MSTORE PUSH1 0x20 ADD PUSH1 0x1 DUP3 ADD DUP1 SLOAD PUSH2 0xE21 SWAP1 PUSH2 0x240A JUMP JUMPDEST DUP1 PUSH1 0x1F ADD PUSH1 0x20 DUP1 SWAP2 DIV MUL PUSH1 0x20 ADD PUSH1 0x40 MLOAD SWAP1 DUP2 ADD PUSH1 0x40 MSTORE DUP1 SWAP3 SWAP2 SWAP1 DUP2 DUP2 MSTORE PUSH1 0x20 ADD DUP3 DUP1 SLOAD PUSH2 0xE4D SWAP1 PUSH2 0x240A JUMP JUMPDEST DUP1 ISZERO PUSH2 0xE9A JUMPI DUP1 PUSH1 0x1F LT PUSH2 0xE6F JUMPI PUSH2 0x100 DUP1 DUP4 SLOAD DIV MUL DUP4 MSTORE SWAP2 PUSH1 0x20 ADD SWAP2 PUSH2 0xE9A JUMP JUMPDEST DUP3 ADD SWAP2 SWAP1 PUSH1 0x0 MSTORE PUSH1 0x20 PUSH1 0x0 KECCAK256 SWAP1 JUMPDEST DUP2 SLOAD DUP2 MSTORE SWAP1 PUSH1 0x1 ADD SWAP1 PUSH1 0x20 ADD DUP1 DUP4 GT PUSH2 0xE7D JUMPI DUP3 SWAP1 SUB PUSH1 0x1F AND DUP3 ADD SWAP2 JUMPDEST POP POP POP POP POP DUP2 MSTORE PUSH1 0x20 ADD PUSH1 0x2 DUP3 ADD PUSH1 0x0 SWAP1 SLOAD SWAP1 PUSH2 0x100 EXP SWAP1 DIV PUSH1 0xFF AND PUSH1 0xFF AND PUSH1 0xFF AND DUP2 MSTORE PUSH1 0x20 ADD PUSH1 0x3 DUP3 ADD SLOAD DUP2 MSTORE PUSH1 0x20 ADD PUSH1 0x4 DUP3 ADD PUSH1 0x0 SWAP1 SLOAD SWAP1 PUSH2 0x100 EXP SWAP1 DIV PUSH20 0xFFFFFFFFFFFFFFFFFFFFFFFFFFFFFFFFFFFFFFFF AND PUSH20 0xFFFFFFFFFFFFFFFFFFFFFFFFFFFFFFFFFFFFFFFF AND PUSH20 0xFFFFFFFFFFFFFFFFFFFFFFFFFFFFFFFFFFFFFFFF AND DUP2 MSTORE PUSH1 0x20 ADD PUSH1 0x5 DUP3 ADD PUSH1 0x0 SWAP1 SLOAD SWAP1 PUSH2 0x100 EXP SWAP1 DIV PUSH20 0xFFFFFFFFFFFFFFFFFFFFFFFFFFFFFFFFFFFFFFFF AND PUSH20 0xFFFFFFFFFFFFFFFFFFFFFFFFFFFFFFFFFFFFFFFF AND PUSH20 0xFFFFFFFFFFFFFFFFFFFFFFFFFFFFFFFFFFFFFFFF AND DUP2 MSTORE PUSH1 0x20 ADD PUSH1 0x5 DUP3 ADD PUSH1 0x14 SWAP1 SLOAD SWAP1 PUSH2 0x100 EXP SWAP1 DIV PUSH1 0xFF AND PUSH1 0x1 DUP2 GT ISZERO PUSH2 0xF9B JUMPI PUSH2 0xF9A PUSH2 0x1F67 JUMP JUMPDEST JUMPDEST PUSH1 0x1 DUP2 GT ISZERO PUSH2 0xFAD JUMPI PUSH2 0xFAC PUSH2 0x1F67 JUMP JUMPDEST JUMPDEST DUP2 MSTORE PUSH1 0x20 ADD PUSH1 0x6 DUP3 ADD SLOAD DUP2 MSTORE PUSH1 0x20 ADD PUSH1 0x7 DUP3 ADD SLOAD DUP2 MSTORE PUSH1 0x20 ADD PUSH1 0x8 DUP3 ADD SLOAD DUP2 MSTORE PUSH1 0x20 ADD PUSH1 0x9 DUP3 ADD SLOAD DUP2 MSTORE PUSH1 0x20 ADD PUSH1 0xA DUP3 ADD SLOAD DUP2 MSTORE PUSH1 0x20 ADD PUSH1 0xB DUP3 ADD SLOAD DUP2 MSTORE POP POP SWAP2 POP POP SWAP2 SWAP1 POP JUMP JUMPDEST PUSH1 0x0 DUP1 PUSH1 0x1 DUP2 GT ISZERO PUSH2 0x100A JUMPI PUSH2 0x1009 PUSH2 0x1F67 JUMP JUMPDEST JUMPDEST DUP5 PUSH1 0xC0 ADD MLOAD PUSH1 0x1 DUP2 GT ISZERO PUSH2 0x1021 JUMPI PUSH2 0x1020 PUSH2 0x1F67 JUMP JUMPDEST JUMPDEST SUB PUSH2 0x1046 JUMPI PUSH2 0x102E PUSH2 0x17E0 JUMP JUMPDEST PUSH2 0x103F PUSH1 0x8 SLOAD DUP6 PUSH2 0x120 ADD MLOAD PUSH2 0x18C7 JUMP JUMPDEST SWAP1 POP PUSH2 0x11F2 JUMP JUMPDEST PUSH1 0x1 DUP1 DUP2 GT ISZERO PUSH2 0x1059 JUMPI PUSH2 0x1058 PUSH2 0x1F67 JUMP JUMPDEST JUMPDEST DUP5 PUSH1 0xC0 ADD MLOAD PUSH1 0x1 DUP2 GT ISZERO PUSH2 0x1070 JUMPI PUSH2 0x106F PUSH2 0x1F67 JUMP JUMPDEST JUMPDEST SUB PUSH2 0x11F1 JUMPI PUSH1 0x0 PUSH1 0xF0 DUP6 PUSH2 0x180 ADD MLOAD TIMESTAMP PUSH2 0x108A SWAP2 SWAP1 PUSH2 0x22EC JUMP JUMPDEST LT ISZERO SWAP1 POP DUP1 ISZERO PUSH2 0x11EF JUMPI PUSH1 0x0 DUP6 PUSH1 0x80 ADD MLOAD SWAP1 POP PUSH1 0x0 PUSH1 0x6 PUSH1 0x0 SWAP1 SLOAD SWAP1 PUSH2 0x100 EXP SWAP1 DIV PUSH20 0xFFFFFFFFFFFFFFFFFFFFFFFFFFFFFFFFFFFFFFFF AND SWAP1 POP PUSH1 0x0 DUP3 PUSH20 0xFFFFFFFFFFFFFFFFFFFFFFFFFFFFFFFFFFFFFFFF AND PUSH4 0x70A08231 DUP10 PUSH1 0xA0 ADD MLOAD PUSH1 0x40 MLOAD DUP3 PUSH4 0xFFFFFFFF AND PUSH1 0xE0 SHL DUP2 MSTORE PUSH1 0x4 ADD PUSH2 0x1103 SWAP2 SWAP1 PUSH2 0x244A JUMP JUMPDEST PUSH1 0x20 PUSH1 0x40 MLOAD DUP1 DUP4 SUB DUP2 DUP7 GAS STATICCALL ISZERO DUP1 ISZERO PUSH2 0x1120 JUMPI RETURNDATASIZE PUSH1 0x0 DUP1 RETURNDATACOPY RETURNDATASIZE PUSH1 0x0 REVERT JUMPDEST POP POP POP POP PUSH1 0x40 MLOAD RETURNDATASIZE PUSH1 0x1F NOT PUSH1 0x1F DUP3 ADD AND DUP3 ADD DUP1 PUSH1 0x40 MSTORE POP DUP2 ADD SWAP1 PUSH2 0x1144 SWAP2 SWAP1 PUSH2 0x247A JUMP JUMPDEST SWAP1 POP PUSH1 0x0 DUP3 PUSH20 0xFFFFFFFFFFFFFFFFFFFFFFFFFFFFFFFFFFFFFFFF AND PUSH4 0x70A08231 DUP11 PUSH1 0xA0 ADD MLOAD PUSH1 0x40 MLOAD DUP3 PUSH4 0xFFFFFFFF AND PUSH1 0xE0 SHL DUP2 MSTORE PUSH1 0x4 ADD PUSH2 0x1185 SWAP2 SWAP1 PUSH2 0x244A JUMP JUMPDEST PUSH1 0x20 PUSH1 0x40 MLOAD DUP1 DUP4 SUB DUP2 DUP7 GAS STATICCALL ISZERO DUP1 ISZERO PUSH2 0x11A2 JUMPI RETURNDATASIZE PUSH1 0x0 DUP1 RETURNDATACOPY RETURNDATASIZE PUSH1 0x0 REVERT JUMPDEST POP POP POP POP PUSH1 0x40 MLOAD RETURNDATASIZE PUSH1 0x1F NOT PUSH1 0x1F DUP3 ADD AND DUP3 ADD DUP1 PUSH1 0x40 MSTORE POP DUP2 ADD SWAP1 PUSH2 0x11C6 SWAP2 SWAP1 PUSH2 0x247A JUMP JUMPDEST SWAP1 POP PUSH2 0x11D2 DUP2 DUP4 PUSH2 0x18C7 JUMP JUMPDEST SWAP6 POP DUP6 DUP10 PUSH2 0x120 ADD DUP2 DUP2 MSTORE POP POP TIMESTAMP DUP10 PUSH2 0x180 ADD DUP2 DUP2 MSTORE POP POP POP POP POP POP JUMPDEST POP JUMPDEST JUMPDEST PUSH1 0x0 DUP1 PUSH2 0x1206 DUP4 DUP8 PUSH1 0x40 ADD MLOAD PUSH1 0xFF AND PUSH2 0x18FE JUMP JUMPDEST SWAP1 POP PUSH1 0x0 PUSH2 0x1218 DUP6 PUSH1 0x12 PUSH1 0xFF AND PUSH2 0x18FE JUMP JUMPDEST SWAP1 POP PUSH2 0x1236 DUP2 DUP4 PUSH2 0x1229 SWAP2 SWAP1 PUSH2 0x24A7 JUMP JUMPDEST DUP9 PUSH1 0x40 ADD MLOAD PUSH1 0xFF AND PUSH2 0x1923 JUMP JUMPDEST SWAP3 POP PUSH1 0x0 DUP8 PUSH2 0x100 ADD MLOAD DUP6 LT PUSH2 0x124E JUMPI DUP8 PUSH1 0xE0 ADD MLOAD SWAP1 POP JUMPDEST PUSH1 0x0 PUSH1 0x40 MLOAD DUP1 PUSH1 0xE0 ADD PUSH1 0x40 MSTORE DUP1 CALLER PUSH20 0xFFFFFFFFFFFFFFFFFFFFFFFFFFFFFFFFFFFFFFFF AND DUP2 MSTORE PUSH1 0x20 ADD DUP10 ISZERO ISZERO DUP2 MSTORE PUSH1 0x20 ADD TIMESTAMP DUP2 MSTORE PUSH1 0x20 ADD DUP4 DUP2 MSTORE PUSH1 0x20 ADD DUP8 DUP2 MSTORE PUSH1 0x20 ADD DUP9 DUP2 MSTORE PUSH1 0x20 ADD DUP7 DUP2 MSTORE POP SWAP1 POP PUSH1 0x1 DUP2 SWAP1 DUP1 PUSH1 0x1 DUP2 SLOAD ADD DUP1 DUP3 SSTORE DUP1 SWAP2 POP POP PUSH1 0x1 SWAP1 SUB SWAP1 PUSH1 0x0 MSTORE PUSH1 0x20 PUSH1 0x0 KECCAK256 SWAP1 PUSH1 0x6 MUL ADD PUSH1 0x0 SWAP1 SWAP2 SWAP1 SWAP2 SWAP1 SWAP2 POP PUSH1 0x0 DUP3 ADD MLOAD DUP2 PUSH1 0x0 ADD PUSH1 0x0 PUSH2 0x100 EXP DUP2 SLOAD DUP2 PUSH20 0xFFFFFFFFFFFFFFFFFFFFFFFFFFFFFFFFFFFFFFFF MUL NOT AND SWAP1 DUP4 PUSH20 0xFFFFFFFFFFFFFFFFFFFFFFFFFFFFFFFFFFFFFFFF AND MUL OR SWAP1 SSTORE POP PUSH1 0x20 DUP3 ADD MLOAD DUP2 PUSH1 0x0 ADD PUSH1 0x14 PUSH2 0x100 EXP DUP2 SLOAD DUP2 PUSH1 0xFF MUL NOT AND SWAP1 DUP4 ISZERO ISZERO MUL OR SWAP1 SSTORE POP PUSH1 0x40 DUP3 ADD MLOAD DUP2 PUSH1 0x1 ADD SSTORE PUSH1 0x60 DUP3 ADD MLOAD DUP2 PUSH1 0x2 ADD SSTORE PUSH1 0x80 DUP3 ADD MLOAD DUP2 PUSH1 0x3 ADD SSTORE PUSH1 0xA0 DUP3 ADD MLOAD DUP2 PUSH1 0x4 ADD SSTORE PUSH1 0xC0 DUP3 ADD MLOAD DUP2 PUSH1 0x5 ADD SSTORE POP POP PUSH1 0x0 PUSH1 0x4 PUSH1 0x0 CALLER PUSH20 0xFFFFFFFFFFFFFFFFFFFFFFFFFFFFFFFFFFFFFFFF AND PUSH20 0xFFFFFFFFFFFFFFFFFFFFFFFFFFFFFFFFFFFFFFFF AND DUP2 MSTORE PUSH1 0x20 ADD SWAP1 DUP2 MSTORE PUSH1 0x20 ADD PUSH1 0x0 KECCAK256 SWAP1 POP PUSH1 0x0 PUSH1 0x3 PUSH1 0x0 DUP13 PUSH1 0x80 ADD MLOAD PUSH20 0xFFFFFFFFFFFFFFFFFFFFFFFFFFFFFFFFFFFFFFFF AND PUSH20 0xFFFFFFFFFFFFFFFFFFFFFFFFFFFFFFFFFFFFFFFF AND DUP2 MSTORE PUSH1 0x20 ADD SWAP1 DUP2 MSTORE PUSH1 0x20 ADD PUSH1 0x0 KECCAK256 SWAP1 POP PUSH1 0x0 PUSH1 0x1 DUP1 DUP1 SLOAD SWAP1 POP PUSH2 0x1401 SWAP2 SWAP1 PUSH2 0x22EC JUMP JUMPDEST SWAP1 POP DUP3 DUP2 SWAP1 DUP1 PUSH1 0x1 DUP2 SLOAD ADD DUP1 DUP3 SSTORE DUP1 SWAP2 POP POP PUSH1 0x1 SWAP1 SUB SWAP1 PUSH1 0x0 MSTORE PUSH1 0x20 PUSH1 0x0 KECCAK256 ADD PUSH1 0x0 SWAP1 SWAP2 SWAP1 SWAP2 SWAP1 SWAP2 POP SSTORE DUP2 DUP2 SWAP1 DUP1 PUSH1 0x1 DUP2 SLOAD ADD DUP1 DUP3 SSTORE DUP1 SWAP2 POP POP PUSH1 0x1 SWAP1 SUB SWAP1 PUSH1 0x0 MSTORE PUSH1 0x20 PUSH1 0x0 KECCAK256 ADD PUSH1 0x0 SWAP1 SWAP2 SWAP1 SWAP2 SWAP1 SWAP2 POP SSTORE POP POP POP POP POP POP POP POP POP POP POP POP JUMP JUMPDEST PUSH1 0x0 DUP2 SWAP1 POP SWAP2 SWAP1 POP JUMP JUMPDEST PUSH1 0x0 PUSH2 0x1498 PUSH2 0x1493 PUSH2 0x147C DUP6 PUSH2 0x14A0 JUMP JUMPDEST PUSH8 0xDE0B6B3A7640000 PUSH2 0x148E DUP7 PUSH2 0x14A0 JUMP JUMPDEST PUSH2 0x1948 JUMP JUMPDEST PUSH2 0x1461 JUMP JUMPDEST SWAP1 POP SWAP3 SWAP2 POP POP JUMP JUMPDEST PUSH1 0x0 DUP2 SWAP1 POP SWAP2 SWAP1 POP JUMP JUMPDEST PUSH1 0x0 DUP1 PUSH1 0x0 DUP1 DUP6 PUSH1 0xA0 ADD MLOAD DUP6 LT SWAP1 POP DUP1 ISZERO PUSH2 0x14C7 JUMPI DUP5 SWAP2 POP PUSH2 0x14CF JUMP JUMPDEST DUP6 PUSH1 0xA0 ADD MLOAD SWAP2 POP JUMPDEST PUSH1 0x0 DUP8 PUSH1 0x80 ADD MLOAD SWAP1 POP DUP1 PUSH20 0xFFFFFFFFFFFFFFFFFFFFFFFFFFFFFFFFFFFFFFFF AND PUSH4 0xA9059CBB DUP9 PUSH1 0x0 ADD MLOAD DUP6 PUSH1 0x40 MLOAD DUP4 PUSH4 0xFFFFFFFF AND PUSH1 0xE0 SHL DUP2 MSTORE PUSH1 0x4 ADD PUSH2 0x1517 SWAP3 SWAP2 SWAP1 PUSH2 0x2548 JUMP JUMPDEST PUSH1 0x20 PUSH1 0x40 MLOAD DUP1 DUP4 SUB DUP2 PUSH1 0x0 DUP8 GAS CALL SWAP3 POP POP POP DUP1 ISZERO PUSH2 0x1553 JUMPI POP PUSH1 0x40 MLOAD RETURNDATASIZE PUSH1 0x1F NOT PUSH1 0x1F DUP3 ADD AND DUP3 ADD DUP1 PUSH1 0x40 MSTORE POP DUP2 ADD SWAP1 PUSH2 0x1550 SWAP2 SWAP1 PUSH2 0x2586 JUMP JUMPDEST PUSH1 0x1 JUMPDEST PUSH2 0x1566 JUMPI PUSH1 0x0 DUP7 SWAP5 POP SWAP5 POP POP POP POP PUSH2 0x1580 JUMP JUMPDEST POP DUP3 DUP7 PUSH2 0x1573 SWAP2 SWAP1 PUSH2 0x22EC JUMP JUMPDEST SWAP6 POP DUP2 ISZERO DUP7 SWAP5 POP SWAP5 POP POP POP POP JUMPDEST SWAP4 POP SWAP4 SWAP2 POP POP JUMP JUMPDEST PUSH1 0x0 DUP1 PUSH1 0x0 DUP1 DUP6 PUSH1 0xA0 ADD MLOAD DUP6 LT SWAP1 POP DUP1 ISZERO PUSH2 0x15A5 JUMPI DUP5 SWAP2 POP PUSH2 0x15AD JUMP JUMPDEST DUP6 PUSH1 0xA0 ADD MLOAD SWAP2 POP JUMPDEST PUSH2 0x15BB DUP7 PUSH1 0x0 ADD MLOAD DUP4 PUSH2 0x1A62 JUMP JUMPDEST ISZERO PUSH2 0x15DC JUMPI DUP2 DUP6 PUSH2 0x15CC SWAP2 SWAP1 PUSH2 0x22EC JUMP JUMPDEST SWAP5 POP PUSH1 0x1 DUP6 SWAP4 POP SWAP4 POP POP POP PUSH2 0x15E6 JUMP JUMPDEST PUSH1 0x0 DUP6 SWAP4 POP SWAP4 POP POP POP JUMPDEST SWAP3 POP SWAP3 SWAP1 POP JUMP JUMPDEST PUSH1 0x0 DUP1 DUP5 SWAP1 POP DUP1 PUSH20 0xFFFFFFFFFFFFFFFFFFFFFFFFFFFFFFFFFFFFFFFF AND PUSH4 0x23B872DD DUP6 ADDRESS DUP7 PUSH1 0x40 MLOAD DUP5 PUSH4 0xFFFFFFFF AND PUSH1 0xE0 SHL DUP2 MSTORE PUSH1 0x4 ADD PUSH2 0x1630 SWAP4 SWAP3 SWAP2 SWAP1 PUSH2 0x25B3 JUMP JUMPDEST PUSH1 0x20 PUSH1 0x40 MLOAD DUP1 DUP4 SUB DUP2 PUSH1 0x0 DUP8 GAS CALL SWAP3 POP POP POP DUP1 ISZERO PUSH2 0x166C JUMPI POP PUSH1 0x40 MLOAD RETURNDATASIZE PUSH1 0x1F NOT PUSH1 0x1F DUP3 ADD AND DUP3 ADD DUP1 PUSH1 0x40 MSTORE POP DUP2 ADD SWAP1 PUSH2 0x1669 SWAP2 SWAP1 PUSH2 0x2586 JUMP JUMPDEST PUSH1 0x1 JUMPDEST PUSH2 0x167A JUMPI PUSH1 0x0 SWAP2 POP POP PUSH2 0x1680 JUMP JUMPDEST DUP1 SWAP3 POP POP POP JUMPDEST SWAP4 SWAP3 POP POP POP JUMP JUMPDEST PUSH1 0x0 DUP1 PUSH1 0x0 DUP1 PUSH1 0x0 DUP6 SWAP1 POP PUSH1 0x0 DUP1 PUSH1 0x0 DUP1 PUSH1 0x0 SWAP1 POP PUSH1 0x0 JUMPDEST DUP6 MLOAD DUP2 LT DUP1 ISZERO PUSH2 0x16AD JUMPI POP DUP4 ISZERO JUMPDEST ISZERO PUSH2 0x17B1 JUMPI DUP6 DUP2 DUP2 MLOAD DUP2 LT PUSH2 0x16C5 JUMPI PUSH2 0x16C4 PUSH2 0x2320 JUMP JUMPDEST JUMPDEST PUSH1 0x20 ADD ADD MLOAD PUSH1 0xF8 SHR PUSH1 0xF8 SHL PUSH1 0xF8 SHR SWAP5 POP PUSH1 0x30 DUP6 PUSH1 0xFF AND LT ISZERO DUP1 ISZERO PUSH2 0x16ED JUMPI POP PUSH1 0x39 DUP6 PUSH1 0xFF AND GT ISZERO JUMPDEST ISZERO PUSH2 0x1764 JUMPI DUP7 SWAP8 POP DUP3 ISZERO PUSH2 0x170E JUMPI DUP2 DUP1 PUSH2 0x1706 SWAP1 PUSH2 0x25F7 JUMP JUMPDEST SWAP3 POP POP PUSH2 0x171E JUMP JUMPDEST PUSH1 0xA DUP8 PUSH2 0x171B SWAP2 SWAP1 PUSH2 0x24A7 JUMP JUMPDEST SWAP7 POP JUMPDEST DUP2 PUSH1 0xA PUSH2 0x172B SWAP2 SWAP1 PUSH2 0x2753 JUMP JUMPDEST PUSH1 0x30 DUP7 PUSH2 0x1738 SWAP2 SWAP1 PUSH2 0x279E JUMP JUMPDEST PUSH1 0xFF AND PUSH2 0x1745 SWAP2 SWAP1 PUSH2 0x24A7 JUMP JUMPDEST DUP8 PUSH2 0x1750 SWAP2 SWAP1 PUSH2 0x23A7 JUMP JUMPDEST SWAP7 POP DUP7 DUP9 GT ISZERO PUSH2 0x175F JUMPI PUSH1 0x1 SWAP4 POP JUMPDEST PUSH2 0x179E JUMP JUMPDEST PUSH1 0x2E DUP6 PUSH1 0xFF AND SUB PUSH2 0x179D JUMPI DUP3 ISZERO PUSH2 0x177A JUMPI PUSH1 0x1 SWAP4 POP JUMPDEST PUSH1 0x1 SWAP3 POP PUSH1 0x12 SWAP2 POP DUP2 PUSH1 0xA PUSH2 0x178F SWAP2 SWAP1 PUSH2 0x2753 JUMP JUMPDEST DUP8 PUSH2 0x179A SWAP2 SWAP1 PUSH2 0x24A7 JUMP JUMPDEST SWAP7 POP JUMPDEST JUMPDEST DUP1 DUP1 PUSH2 0x17A9 SWAP1 PUSH2 0x27D3 JUMP JUMPDEST SWAP2 POP POP PUSH2 0x169F JUMP JUMPDEST POP DUP2 PUSH2 0x17CE JUMPI PUSH8 0xDE0B6B3A7640000 DUP7 PUSH2 0x17CB SWAP2 SWAP1 PUSH2 0x24A7 JUMP JUMPDEST SWAP6 POP JUMPDEST DUP6 DUP4 SWAP9 POP SWAP9 POP POP POP POP POP POP POP POP SWAP2 POP SWAP2 JUMP JUMPDEST PUSH1 0xF0 PUSH1 0x9 SLOAD TIMESTAMP PUSH2 0x17F0 SWAP2 SWAP1 PUSH2 0x22EC JUMP JUMPDEST LT PUSH2 0x18C5 JUMPI TIMESTAMP PUSH1 0x9 DUP2 SWAP1 SSTORE POP PUSH1 0x0 PUSH1 0x7 PUSH1 0x0 SWAP1 SLOAD SWAP1 PUSH2 0x100 EXP SWAP1 DIV PUSH20 0xFFFFFFFFFFFFFFFFFFFFFFFFFFFFFFFFFFFFFFFF AND SWAP1 POP PUSH1 0x0 DUP2 PUSH20 0xFFFFFFFFFFFFFFFFFFFFFFFFFFFFFFFFFFFFFFFF AND PUSH4 0x98D5FDCA PUSH1 0x40 MLOAD DUP2 PUSH4 0xFFFFFFFF AND PUSH1 0xE0 SHL DUP2 MSTORE PUSH1 0x4 ADD PUSH1 0x0 PUSH1 0x40 MLOAD DUP1 DUP4 SUB DUP2 DUP7 GAS STATICCALL ISZERO DUP1 ISZERO PUSH2 0x1870 JUMPI RETURNDATASIZE PUSH1 0x0 DUP1 RETURNDATACOPY RETURNDATASIZE PUSH1 0x0 REVERT JUMPDEST POP POP POP POP PUSH1 0x40 MLOAD RETURNDATASIZE PUSH1 0x0 DUP3 RETURNDATACOPY RETURNDATASIZE PUSH1 0x1F NOT PUSH1 0x1F DUP3 ADD AND DUP3 ADD DUP1 PUSH1 0x40 MSTORE POP DUP2 ADD SWAP1 PUSH2 0x1899 SWAP2 SWAP1 PUSH2 0x288B JUMP JUMPDEST SWAP1 POP PUSH1 0x0 DUP1 PUSH2 0x18A7 DUP4 PUSH2 0x1687 JUMP JUMPDEST SWAP2 POP SWAP2 POP DUP1 ISZERO PUSH2 0x18B9 JUMPI DUP2 PUSH1 0x8 DUP2 SWAP1 SSTORE POP JUMPDEST TIMESTAMP PUSH1 0x9 DUP2 SWAP1 SSTORE POP POP POP POP POP JUMPDEST JUMP JUMPDEST PUSH1 0x0 DUP1 PUSH2 0x18D3 DUP5 PUSH2 0x1461 JUMP JUMPDEST SWAP1 POP PUSH1 0x0 PUSH2 0x18E0 DUP5 PUSH2 0x1461 JUMP JUMPDEST SWAP1 POP PUSH2 0x18F4 PUSH2 0x18EF DUP4 DUP4 PUSH2 0x146B JUMP JUMPDEST PUSH2 0x14A0 JUMP JUMPDEST SWAP3 POP POP POP SWAP3 SWAP2 POP POP JUMP JUMPDEST PUSH1 0x0 PUSH1 0x1 DUP3 EQ PUSH2 0x1919 JUMPI DUP2 DUP4 PUSH2 0x1914 SWAP2 SWAP1 PUSH2 0x24A7 JUMP JUMPDEST PUSH2 0x191B JUMP JUMPDEST DUP3 JUMPDEST SWAP1 POP SWAP3 SWAP2 POP POP JUMP JUMPDEST PUSH1 0x0 PUSH1 0x1 DUP3 EQ PUSH2 0x193E JUMPI DUP2 DUP4 PUSH2 0x1939 SWAP2 SWAP1 PUSH2 0x2903 JUMP JUMPDEST PUSH2 0x1940 JUMP JUMPDEST DUP3 JUMPDEST SWAP1 POP SWAP3 SWAP2 POP POP JUMP JUMPDEST PUSH1 0x0 DUP1 PUSH1 0x0 DUP1 NOT DUP6 DUP8 MULMOD DUP6 DUP8 MUL SWAP3 POP DUP3 DUP2 LT DUP4 DUP3 SUB SUB SWAP2 POP POP PUSH1 0x0 DUP2 SUB PUSH2 0x1983 JUMPI DUP4 DUP3 DUP2 PUSH2 0x1979 JUMPI PUSH2 0x1978 PUSH2 0x28D4 JUMP JUMPDEST JUMPDEST DIV SWAP3 POP POP POP PUSH2 0x1A5B JUMP JUMPDEST DUP4 DUP2 LT PUSH2 0x19CB JUMPI DUP6 DUP6 DUP6 PUSH1 0x40 MLOAD PUSH32 0x63A0577800000000000000000000000000000000000000000000000000000000 DUP2 MSTORE PUSH1 0x4 ADD PUSH2 0x19C2 SWAP4 SWAP3 SWAP2 SWAP1 PUSH2 0x2934 JUMP JUMPDEST PUSH1 0x40 MLOAD DUP1 SWAP2 SUB SWAP1 REVERT JUMPDEST PUSH1 0x0 DUP5 DUP7 DUP9 MULMOD SWAP1 POP DUP3 DUP2 GT DUP3 SUB SWAP2 POP DUP1 DUP4 SUB SWAP3 POP PUSH1 0x0 PUSH1 0x1 DUP7 NOT ADD DUP7 AND SWAP1 POP PUSH1 0x0 DUP2 DUP8 DIV SWAP7 POP DUP2 DUP6 DIV SWAP5 POP PUSH1 0x1 DUP3 DUP4 PUSH1 0x0 SUB DIV ADD SWAP1 POP DUP1 DUP5 MUL DUP6 OR SWAP5 POP PUSH1 0x0 PUSH1 0x2 DUP9 PUSH1 0x3 MUL XOR SWAP1 POP DUP1 DUP9 MUL PUSH1 0x2 SUB DUP2 MUL SWAP1 POP DUP1 DUP9 MUL PUSH1 0x2 SUB DUP2 MUL SWAP1 POP DUP1 DUP9 MUL PUSH1 0x2 SUB DUP2 MUL SWAP1 POP DUP1 DUP9 MUL PUSH1 0x2 SUB DUP2 MUL SWAP1 POP DUP1 DUP9 MUL PUSH1 0x2 SUB DUP2 MUL SWAP1 POP DUP1 DUP9 MUL PUSH1 0x2 SUB DUP2 MUL SWAP1 POP DUP1 DUP7 MUL SWAP7 POP POP POP POP POP POP POP JUMPDEST SWAP4 SWAP3 POP POP POP JUMP JUMPDEST PUSH1 0x0 DUP1 DUP4 PUSH20 0xFFFFFFFFFFFFFFFFFFFFFFFFFFFFFFFFFFFFFFFF AND DUP4 PUSH1 0x40 MLOAD PUSH2 0x1A89 SWAP1 PUSH2 0x299C JUMP JUMPDEST PUSH1 0x0 PUSH1 0x40 MLOAD DUP1 DUP4 SUB DUP2 DUP6 DUP8 GAS CALL SWAP3 POP POP POP RETURNDATASIZE DUP1 PUSH1 0x0 DUP2 EQ PUSH2 0x1AC6 JUMPI PUSH1 0x40 MLOAD SWAP2 POP PUSH1 0x1F NOT PUSH1 0x3F RETURNDATASIZE ADD AND DUP3 ADD PUSH1 0x40 MSTORE RETURNDATASIZE DUP3 MSTORE RETURNDATASIZE PUSH1 0x0 PUSH1 0x20 DUP5 ADD RETURNDATACOPY PUSH2 0x1ACB JUMP JUMPDEST PUSH1 0x60 SWAP2 POP JUMPDEST POP POP SWAP1 POP DUP1 SWAP2 POP POP SWAP3 SWAP2 POP POP JUMP JUMPDEST PUSH1 0x40 MLOAD DUP1 PUSH2 0x140 ADD PUSH1 0x40 MSTORE DUP1 PUSH1 0x0 DUP2 MSTORE PUSH1 0x20 ADD PUSH1 0x60 DUP2 MSTORE PUSH1 0x20 ADD PUSH1 0x60 DUP2 MSTORE PUSH1 0x20 ADD PUSH1 0x0 PUSH20 0xFFFFFFFFFFFFFFFFFFFFFFFFFFFFFFFFFFFFFFFF AND DUP2 MSTORE PUSH1 0x20 ADD PUSH1 0x0 PUSH20 0xFFFFFFFFFFFFFFFFFFFFFFFFFFFFFFFFFFFFFFFF AND DUP2 MSTORE PUSH1 0x20 ADD PUSH1 0x0 DUP2 MSTORE PUSH1 0x20 ADD PUSH1 0x0 DUP2 MSTORE PUSH1 0x20 ADD PUSH1 0x0 PUSH1 0x1 DUP2 GT ISZERO PUSH2 0x1B56 JUMPI PUSH2 0x1B55 PUSH2 0x1F67 JUMP JUMPDEST JUMPDEST DUP2 MSTORE PUSH1 0x20 ADD PUSH1 0x0 DUP2 MSTORE PUSH1 0x20 ADD PUSH1 0x0 DUP2 MSTORE POP SWAP1 JUMP JUMPDEST PUSH1 0x40 MLOAD DUP1 PUSH1 0xE0 ADD PUSH1 0x40 MSTORE DUP1 PUSH1 0x0 PUSH20 0xFFFFFFFFFFFFFFFFFFFFFFFFFFFFFFFFFFFFFFFF AND DUP2 MSTORE PUSH1 0x20 ADD PUSH1 0x0 ISZERO ISZERO DUP2 MSTORE PUSH1 0x20 ADD PUSH1 0x0 DUP2 MSTORE PUSH1 0x20 ADD PUSH1 0x0 DUP2 MSTORE PUSH1 0x20 ADD PUSH1 0x0 DUP2 MSTORE PUSH1 0x20 ADD PUSH1 0x0 DUP2 MSTORE PUSH1 0x20 ADD PUSH1 0x0 DUP2 MSTORE POP SWAP1 JUMP JUMPDEST PUSH1 0x40 MLOAD DUP1 PUSH2 0x1A0 ADD PUSH1 0x40 MSTORE DUP1 PUSH1 0x60 DUP2 MSTORE PUSH1 0x20 ADD PUSH1 0x60 DUP2 MSTORE PUSH1 0x20 ADD PUSH1 0x0 PUSH1 0xFF AND DUP2 MSTORE PUSH1 0x20 ADD PUSH1 0x0 DUP2 MSTORE PUSH1 0x20 ADD PUSH1 0x0 PUSH20 0xFFFFFFFFFFFFFFFFFFFFFFFFFFFFFFFFFFFFFFFF AND DUP2 MSTORE PUSH1 0x20 ADD PUSH1 0x0 PUSH20 0xFFFFFFFFFFFFFFFFFFFFFFFFFFFFFFFFFFFFFFFF AND DUP2 MSTORE PUSH1 0x20 ADD PUSH1 0x0 PUSH1 0x1 DUP2 GT ISZERO PUSH2 0x1C38 JUMPI PUSH2 0x1C37 PUSH2 0x1F67 JUMP JUMPDEST JUMPDEST DUP2 MSTORE PUSH1 0x20 ADD PUSH1 0x0 DUP2 MSTORE PUSH1 0x20 ADD PUSH1 0x0 DUP2 MSTORE PUSH1 0x20 ADD PUSH1 0x0 DUP2 MSTORE PUSH1 0x20 ADD PUSH1 0x0 DUP2 MSTORE PUSH1 0x20 ADD PUSH1 0x0 DUP2 MSTORE PUSH1 0x20 ADD PUSH1 0x0 DUP2 MSTORE POP SWAP1 JUMP JUMPDEST PUSH1 0x0 PUSH1 0x40 MLOAD SWAP1 POP SWAP1 JUMP JUMPDEST PUSH1 0x0 DUP1 REVERT JUMPDEST PUSH1 0x0 DUP1 REVERT JUMPDEST PUSH1 0x0 DUP1 REVERT JUMPDEST PUSH1 0x0 DUP1 REVERT JUMPDEST PUSH1 0x0 PUSH1 0x1F NOT PUSH1 0x1F DUP4 ADD AND SWAP1 POP SWAP2 SWAP1 POP JUMP JUMPDEST PUSH32 0x4E487B7100000000000000000000000000000000000000000000000000000000 PUSH1 0x0 MSTORE PUSH1 0x41 PUSH1 0x4 MSTORE PUSH1 0x24 PUSH1 0x0 REVERT JUMPDEST PUSH2 0x1CCF DUP3 PUSH2 0x1C86 JUMP JUMPDEST DUP2 ADD DUP2 DUP2 LT PUSH8 0xFFFFFFFFFFFFFFFF DUP3 GT OR ISZERO PUSH2 0x1CEE JUMPI PUSH2 0x1CED PUSH2 0x1C97 JUMP JUMPDEST JUMPDEST DUP1 PUSH1 0x40 MSTORE POP POP POP JUMP JUMPDEST PUSH1 0x0 PUSH2 0x1D01 PUSH2 0x1C68 JUMP JUMPDEST SWAP1 POP PUSH2 0x1D0D DUP3 DUP3 PUSH2 0x1CC6 JUMP JUMPDEST SWAP2 SWAP1 POP JUMP JUMPDEST PUSH1 0x0 PUSH8 0xFFFFFFFFFFFFFFFF DUP3 GT ISZERO PUSH2 0x1D2D JUMPI PUSH2 0x1D2C PUSH2 0x1C97 JUMP JUMPDEST JUMPDEST PUSH2 0x1D36 DUP3 PUSH2 0x1C86 JUMP JUMPDEST SWAP1 POP PUSH1 0x20 DUP2 ADD SWAP1 POP SWAP2 SWAP1 POP JUMP JUMPDEST DUP3 DUP2 DUP4 CALLDATACOPY PUSH1 0x0 DUP4 DUP4 ADD MSTORE POP POP POP JUMP JUMPDEST PUSH1 0x0 PUSH2 0x1D65 PUSH2 0x1D60 DUP5 PUSH2 0x1D12 JUMP JUMPDEST PUSH2 0x1CF7 JUMP JUMPDEST SWAP1 POP DUP3 DUP2 MSTORE PUSH1 0x20 DUP2 ADD DUP5 DUP5 DUP5 ADD GT ISZERO PUSH2 0x1D81 JUMPI PUSH2 0x1D80 PUSH2 0x1C81 JUMP JUMPDEST JUMPDEST PUSH2 0x1D8C DUP5 DUP3 DUP6 PUSH2 0x1D43 JUMP JUMPDEST POP SWAP4 SWAP3 POP POP POP JUMP JUMPDEST PUSH1 0x0 DUP3 PUSH1 0x1F DUP4 ADD SLT PUSH2 0x1DA9 JUMPI PUSH2 0x1DA8 PUSH2 0x1C7C JUMP JUMPDEST JUMPDEST DUP2 CALLDATALOAD PUSH2 0x1DB9 DUP5 DUP3 PUSH1 0x20 DUP7 ADD PUSH2 0x1D52 JUMP JUMPDEST SWAP2 POP POP SWAP3 SWAP2 POP POP JUMP JUMPDEST PUSH1 0x0 PUSH1 0x20 DUP3 DUP5 SUB SLT ISZERO PUSH2 0x1DD8 JUMPI PUSH2 0x1DD7 PUSH2 0x1C72 JUMP JUMPDEST JUMPDEST PUSH1 0x0 DUP3 ADD CALLDATALOAD PUSH8 0xFFFFFFFFFFFFFFFF DUP2 GT ISZERO PUSH2 0x1DF6 JUMPI PUSH2 0x1DF5 PUSH2 0x1C77 JUMP JUMPDEST JUMPDEST PUSH2 0x1E02 DUP5 DUP3 DUP6 ADD PUSH2 0x1D94 JUMP JUMPDEST SWAP2 POP POP SWAP3 SWAP2 POP POP JUMP JUMPDEST PUSH1 0x0 DUP2 SWAP1 POP SWAP2 SWAP1 POP JUMP JUMPDEST PUSH2 0x1E1E DUP2 PUSH2 0x1E0B JUMP JUMPDEST DUP3 MSTORE POP POP JUMP JUMPDEST PUSH1 0x0 PUSH1 0x20 DUP3 ADD SWAP1 POP PUSH2 0x1E39 PUSH1 0x0 DUP4 ADD DUP5 PUSH2 0x1E15 JUMP JUMPDEST SWAP3 SWAP2 POP POP JUMP JUMPDEST PUSH1 0x0 PUSH20 0xFFFFFFFFFFFFFFFFFFFFFFFFFFFFFFFFFFFFFFFF DUP3 AND SWAP1 POP SWAP2 SWAP1 POP JUMP JUMPDEST PUSH1 0x0 PUSH2 0x1E6A DUP3 PUSH2 0x1E3F JUMP JUMPDEST SWAP1 POP SWAP2 SWAP1 POP JUMP JUMPDEST PUSH2 0x1E7A DUP2 PUSH2 0x1E5F JUMP JUMPDEST DUP2 EQ PUSH2 0x1E85 JUMPI PUSH1 0x0 DUP1 REVERT JUMPDEST POP JUMP JUMPDEST PUSH1 0x0 DUP2 CALLDATALOAD SWAP1 POP PUSH2 0x1E97 DUP2 PUSH2 0x1E71 JUMP JUMPDEST SWAP3 SWAP2 POP POP JUMP JUMPDEST PUSH1 0x0 PUSH1 0x20 DUP3 DUP5 SUB SLT ISZERO PUSH2 0x1EB3 JUMPI PUSH2 0x1EB2 PUSH2 0x1C72 JUMP JUMPDEST JUMPDEST PUSH1 0x0 PUSH2 0x1EC1 DUP5 DUP3 DUP6 ADD PUSH2 0x1E88 JUMP JUMPDEST SWAP2 POP POP SWAP3 SWAP2 POP POP JUMP JUMPDEST PUSH2 0x1ED3 DUP2 PUSH2 0x1E0B JUMP JUMPDEST DUP3 MSTORE POP POP JUMP JUMPDEST PUSH1 0x0 DUP2 MLOAD SWAP1 POP SWAP2 SWAP1 POP JUMP JUMPDEST PUSH1 0x0 DUP3 DUP3 MSTORE PUSH1 0x20 DUP3 ADD SWAP1 POP SWAP3 SWAP2 POP POP JUMP JUMPDEST PUSH1 0x0 JUMPDEST DUP4 DUP2 LT ISZERO PUSH2 0x1F13 JUMPI DUP1 DUP3 ADD MLOAD DUP2 DUP5 ADD MSTORE PUSH1 0x20 DUP2 ADD SWAP1 POP PUSH2 0x1EF8 JUMP JUMPDEST PUSH1 0x0 DUP5 DUP5 ADD MSTORE POP POP POP POP JUMP JUMPDEST PUSH1 0x0 PUSH2 0x1F2A DUP3 PUSH2 0x1ED9 JUMP JUMPDEST PUSH2 0x1F34 DUP2 DUP6 PUSH2 0x1EE4 JUMP JUMPDEST SWAP4 POP PUSH2 0x1F44 DUP2 DUP6 PUSH1 0x20 DUP7 ADD PUSH2 0x1EF5 JUMP JUMPDEST PUSH2 0x1F4D DUP2 PUSH2 0x1C86 JUMP JUMPDEST DUP5 ADD SWAP2 POP POP SWAP3 SWAP2 POP POP JUMP JUMPDEST PUSH2 0x1F61 DUP2 PUSH2 0x1E5F JUMP JUMPDEST DUP3 MSTORE POP POP JUMP JUMPDEST PUSH32 0x4E487B7100000000000000000000000000000000000000000000000000000000 PUSH1 0x0 MSTORE PUSH1 0x21 PUSH1 0x4 MSTORE PUSH1 0x24 PUSH1 0x0 REVERT JUMPDEST PUSH1 0x2 DUP2 LT PUSH2 0x1FA7 JUMPI PUSH2 0x1FA6 PUSH2 0x1F67 JUMP JUMPDEST JUMPDEST POP JUMP JUMPDEST PUSH1 0x0 DUP2 SWAP1 POP PUSH2 0x1FB8 DUP3 PUSH2 0x1F96 JUMP JUMPDEST SWAP2 SWAP1 POP JUMP JUMPDEST PUSH1 0x0 PUSH2 0x1FC8 DUP3 PUSH2 0x1FAA JUMP JUMPDEST SWAP1 POP SWAP2 SWAP1 POP JUMP JUMPDEST PUSH2 0x1FD8 DUP2 PUSH2 0x1FBD JUMP JUMPDEST DUP3 MSTORE POP POP JUMP JUMPDEST PUSH1 0x0 PUSH2 0x140 DUP4 ADD PUSH1 0x0 DUP4 ADD MLOAD PUSH2 0x1FF7 PUSH1 0x0 DUP7 ADD DUP3 PUSH2 0x1ECA JUMP JUMPDEST POP PUSH1 0x20 DUP4 ADD MLOAD DUP5 DUP3 SUB PUSH1 0x20 DUP7 ADD MSTORE PUSH2 0x200F DUP3 DUP3 PUSH2 0x1F1F JUMP JUMPDEST SWAP2 POP POP PUSH1 0x40 DUP4 ADD MLOAD DUP5 DUP3 SUB PUSH1 0x40 DUP7 ADD MSTORE PUSH2 0x2029 DUP3 DUP3 PUSH2 0x1F1F JUMP JUMPDEST SWAP2 POP POP PUSH1 0x60 DUP4 ADD MLOAD PUSH2 0x203E PUSH1 0x60 DUP7 ADD DUP3 PUSH2 0x1F58 JUMP JUMPDEST POP PUSH1 0x80 DUP4 ADD MLOAD PUSH2 0x2051 PUSH1 0x80 DUP7 ADD DUP3 PUSH2 0x1F58 JUMP JUMPDEST POP PUSH1 0xA0 DUP4 ADD MLOAD PUSH2 0x2064 PUSH1 0xA0 DUP7 ADD DUP3 PUSH2 0x1ECA JUMP JUMPDEST POP PUSH1 0xC0 DUP4 ADD MLOAD PUSH2 0x2077 PUSH1 0xC0 DUP7 ADD DUP3 PUSH2 0x1ECA JUMP JUMPDEST POP PUSH1 0xE0 DUP4 ADD MLOAD PUSH2 0x208A PUSH1 0xE0 DUP7 ADD DUP3 PUSH2 0x1FCF JUMP JUMPDEST POP PUSH2 0x100 DUP4 ADD MLOAD PUSH2 0x209F PUSH2 0x100 DUP7 ADD DUP3 PUSH2 0x1ECA JUMP JUMPDEST POP PUSH2 0x120 DUP4 ADD MLOAD PUSH2 0x20B4 PUSH2 0x120 DUP7 ADD DUP3 PUSH2 0x1ECA JUMP JUMPDEST POP DUP1 SWAP2 POP POP SWAP3 SWAP2 POP POP JUMP JUMPDEST PUSH1 0x0 PUSH1 0x20 DUP3 ADD SWAP1 POP DUP2 DUP2 SUB PUSH1 0x0 DUP4 ADD MSTORE PUSH2 0x20D9 DUP2 DUP5 PUSH2 0x1FDE JUMP JUMPDEST SWAP1 POP SWAP3 SWAP2 POP POP JUMP JUMPDEST PUSH2 0x20EA DUP2 PUSH2 0x1E0B JUMP JUMPDEST DUP2 EQ PUSH2 0x20F5 JUMPI PUSH1 0x0 DUP1 REVERT JUMPDEST POP JUMP JUMPDEST PUSH1 0x0 DUP2 CALLDATALOAD SWAP1 POP PUSH2 0x2107 DUP2 PUSH2 0x20E1 JUMP JUMPDEST SWAP3 SWAP2 POP POP JUMP JUMPDEST PUSH1 0x0 PUSH1 0x20 DUP3 DUP5 SUB SLT ISZERO PUSH2 0x2123 JUMPI PUSH2 0x2122 PUSH2 0x1C72 JUMP JUMPDEST JUMPDEST PUSH1 0x0 PUSH2 0x2131 DUP5 DUP3 DUP6 ADD PUSH2 0x20F8 JUMP JUMPDEST SWAP2 POP POP SWAP3 SWAP2 POP POP JUMP JUMPDEST PUSH1 0x0 DUP1 PUSH1 0x40 DUP4 DUP6 SUB SLT ISZERO PUSH2 0x2151 JUMPI PUSH2 0x2150 PUSH2 0x1C72 JUMP JUMPDEST JUMPDEST PUSH1 0x0 PUSH2 0x215F DUP6 DUP3 DUP7 ADD PUSH2 0x1E88 JUMP JUMPDEST SWAP3 POP POP PUSH1 0x20 PUSH2 0x2170 DUP6 DUP3 DUP7 ADD PUSH2 0x20F8 JUMP JUMPDEST SWAP2 POP POP SWAP3 POP SWAP3 SWAP1 POP JUMP JUMPDEST PUSH1 0x0 DUP1 PUSH1 0x40 DUP4 DUP6 SUB SLT ISZERO PUSH2 0x2191 JUMPI PUSH2 0x2190 PUSH2 0x1C72 JUMP JUMPDEST JUMPDEST PUSH1 0x0 DUP4 ADD CALLDATALOAD PUSH8 0xFFFFFFFFFFFFFFFF DUP2 GT ISZERO PUSH2 0x21AF JUMPI PUSH2 0x21AE PUSH2 0x1C77 JUMP JUMPDEST JUMPDEST PUSH2 0x21BB DUP6 DUP3 DUP7 ADD PUSH2 0x1D94 JUMP JUMPDEST SWAP3 POP POP PUSH1 0x20 DUP4 ADD CALLDATALOAD PUSH8 0xFFFFFFFFFFFFFFFF DUP2 GT ISZERO PUSH2 0x21DC JUMPI PUSH2 0x21DB PUSH2 0x1C77 JUMP JUMPDEST JUMPDEST PUSH2 0x21E8 DUP6 DUP3 DUP7 ADD PUSH2 0x1D94 JUMP JUMPDEST SWAP2 POP POP SWAP3 POP SWAP3 SWAP1 POP JUMP JUMPDEST PUSH1 0x0 DUP2 ISZERO ISZERO SWAP1 POP SWAP2 SWAP1 POP JUMP JUMPDEST PUSH2 0x2207 DUP2 PUSH2 0x21F2 JUMP JUMPDEST DUP2 EQ PUSH2 0x2212 JUMPI PUSH1 0x0 DUP1 REVERT JUMPDEST POP JUMP JUMPDEST PUSH1 0x0 DUP2 CALLDATALOAD SWAP1 POP PUSH2 0x2224 DUP2 PUSH2 0x21FE JUMP JUMPDEST SWAP3 SWAP2 POP POP JUMP JUMPDEST PUSH1 0x0 DUP1 PUSH1 0x40 DUP4 DUP6 SUB SLT ISZERO PUSH2 0x2241 JUMPI PUSH2 0x2240 PUSH2 0x1C72 JUMP JUMPDEST JUMPDEST PUSH1 0x0 PUSH2 0x224F DUP6 DUP3 DUP7 ADD PUSH2 0x1E88 JUMP JUMPDEST SWAP3 POP POP PUSH1 0x20 PUSH2 0x2260 DUP6 DUP3 DUP7 ADD PUSH2 0x2215 JUMP JUMPDEST SWAP2 POP POP SWAP3 POP SWAP3 SWAP1 POP JUMP JUMPDEST PUSH1 0x0 DUP1 PUSH1 0x0 PUSH1 0x60 DUP5 DUP7 SUB SLT ISZERO PUSH2 0x2283 JUMPI PUSH2 0x2282 PUSH2 0x1C72 JUMP JUMPDEST JUMPDEST PUSH1 0x0 PUSH2 0x2291 DUP7 DUP3 DUP8 ADD PUSH2 0x1E88 JUMP JUMPDEST SWAP4 POP POP PUSH1 0x20 PUSH2 0x22A2 DUP7 DUP3 DUP8 ADD PUSH2 0x1E88 JUMP JUMPDEST SWAP3 POP POP PUSH1 0x40 PUSH2 0x22B3 DUP7 DUP3 DUP8 ADD PUSH2 0x20F8 JUMP JUMPDEST SWAP2 POP POP SWAP3 POP SWAP3 POP SWAP3 JUMP JUMPDEST PUSH32 0x4E487B7100000000000000000000000000000000000000000000000000000000 PUSH1 0x0 MSTORE PUSH1 0x11 PUSH1 0x4 MSTORE PUSH1 0x24 PUSH1 0x0 REVERT JUMPDEST PUSH1 0x0 PUSH2 0x22F7 DUP3 PUSH2 0x1E0B JUMP JUMPDEST SWAP2 POP PUSH2 0x2302 DUP4 PUSH2 0x1E0B JUMP JUMPDEST SWAP3 POP DUP3 DUP3 SUB SWAP1 POP DUP2 DUP2 GT ISZERO PUSH2 0x231A JUMPI PUSH2 0x2319 PUSH2 0x22BD JUMP JUMPDEST JUMPDEST SWAP3 SWAP2 POP POP JUMP JUMPDEST PUSH32 0x4E487B7100000000000000000000000000000000000000000000000000000000 PUSH1 0x0 MSTORE PUSH1 0x32 PUSH1 0x4 MSTORE PUSH1 0x24 PUSH1 0x0 REVERT JUMPDEST PUSH32 0x4E487B7100000000000000000000000000000000000000000000000000000000 PUSH1 0x0 MSTORE PUSH1 0x31 PUSH1 0x4 MSTORE PUSH1 0x24 PUSH1 0x0 REVERT JUMPDEST PUSH1 0x0 PUSH2 0x2389 DUP3 PUSH2 0x1E0B JUMP JUMPDEST SWAP2 POP PUSH1 0x0 DUP3 SUB PUSH2 0x239C JUMPI PUSH2 0x239B PUSH2 0x22BD JUMP JUMPDEST JUMPDEST PUSH1 0x1 DUP3 SUB SWAP1 POP SWAP2 SWAP1 POP JUMP JUMPDEST PUSH1 0x0 PUSH2 0x23B2 DUP3 PUSH2 0x1E0B JUMP JUMPDEST SWAP2 POP PUSH2 0x23BD DUP4 PUSH2 0x1E0B JUMP JUMPDEST SWAP3 POP DUP3 DUP3 ADD SWAP1 POP DUP1 DUP3 GT ISZERO PUSH2 0x23D5 JUMPI PUSH2 0x23D4 PUSH2 0x22BD JUMP JUMPDEST JUMPDEST SWAP3 SWAP2 POP POP JUMP JUMPDEST PUSH32 0x4E487B7100000000000000000000000000000000000000000000000000000000 PUSH1 0x0 MSTORE PUSH1 0x22 PUSH1 0x4 MSTORE PUSH1 0x24 PUSH1 0x0 REVERT JUMPDEST PUSH1 0x0 PUSH1 0x2 DUP3 DIV SWAP1 POP PUSH1 0x1 DUP3 AND DUP1 PUSH2 0x2422 JUMPI PUSH1 0x7F DUP3 AND SWAP2 POP JUMPDEST PUSH1 0x20 DUP3 LT DUP2 SUB PUSH2 0x2435 JUMPI PUSH2 0x2434 PUSH2 0x23DB JUMP JUMPDEST JUMPDEST POP SWAP2 SWAP1 POP JUMP JUMPDEST PUSH2 0x2444 DUP2 PUSH2 0x1E5F JUMP JUMPDEST DUP3 MSTORE POP POP JUMP JUMPDEST PUSH1 0x0 PUSH1 0x20 DUP3 ADD SWAP1 POP PUSH2 0x245F PUSH1 0x0 DUP4 ADD DUP5 PUSH2 0x243B JUMP JUMPDEST SWAP3 SWAP2 POP POP JUMP JUMPDEST PUSH1 0x0 DUP2 MLOAD SWAP1 POP PUSH2 0x2474 DUP2 PUSH2 0x20E1 JUMP JUMPDEST SWAP3 SWAP2 POP POP JUMP JUMPDEST PUSH1 0x0 PUSH1 0x20 DUP3 DUP5 SUB SLT ISZERO PUSH2 0x2490 JUMPI PUSH2 0x248F PUSH2 0x1C72 JUMP JUMPDEST JUMPDEST PUSH1 0x0 PUSH2 0x249E DUP5 DUP3 DUP6 ADD PUSH2 0x2465 JUMP JUMPDEST SWAP2 POP POP SWAP3 SWAP2 POP POP JUMP JUMPDEST PUSH1 0x0 PUSH2 0x24B2 DUP3 PUSH2 0x1E0B JUMP JUMPDEST SWAP2 POP PUSH2 0x24BD DUP4 PUSH2 0x1E0B JUMP JUMPDEST SWAP3 POP DUP3 DUP3 MUL PUSH2 0x24CB DUP2 PUSH2 0x1E0B JUMP JUMPDEST SWAP2 POP DUP3 DUP3 DIV DUP5 EQ DUP4 ISZERO OR PUSH2 0x24E2 JUMPI PUSH2 0x24E1 PUSH2 0x22BD JUMP JUMPDEST JUMPDEST POP SWAP3 SWAP2 POP POP JUMP JUMPDEST PUSH1 0x0 DUP2 SWAP1 POP SWAP2 SWAP1 POP JUMP JUMPDEST PUSH1 0x0 PUSH2 0x250E PUSH2 0x2509 PUSH2 0x2504 DUP5 PUSH2 0x1E3F JUMP JUMPDEST PUSH2 0x24E9 JUMP JUMPDEST PUSH2 0x1E3F JUMP JUMPDEST SWAP1 POP SWAP2 SWAP1 POP JUMP JUMPDEST PUSH1 0x0 PUSH2 0x2520 DUP3 PUSH2 0x24F3 JUMP JUMPDEST SWAP1 POP SWAP2 SWAP1 POP JUMP JUMPDEST PUSH1 0x0 PUSH2 0x2532 DUP3 PUSH2 0x2515 JUMP JUMPDEST SWAP1 POP SWAP2 SWAP1 POP JUMP JUMPDEST PUSH2 0x2542 DUP2 PUSH2 0x2527 JUMP JUMPDEST DUP3 MSTORE POP POP JUMP JUMPDEST PUSH1 0x0 PUSH1 0x40 DUP3 ADD SWAP1 POP PUSH2 0x255D PUSH1 0x0 DUP4 ADD DUP6 PUSH2 0x2539 JUMP JUMPDEST PUSH2 0x256A PUSH1 0x20 DUP4 ADD DUP5 PUSH2 0x1E15 JUMP JUMPDEST SWAP4 SWAP3 POP POP POP JUMP JUMPDEST PUSH1 0x0 DUP2 MLOAD SWAP1 POP PUSH2 0x2580 DUP2 PUSH2 0x21FE JUMP JUMPDEST SWAP3 SWAP2 POP POP JUMP JUMPDEST PUSH1 0x0 PUSH1 0x20 DUP3 DUP5 SUB SLT ISZERO PUSH2 0x259C JUMPI PUSH2 0x259B PUSH2 0x1C72 JUMP JUMPDEST JUMPDEST PUSH1 0x0 PUSH2 0x25AA DUP5 DUP3 DUP6 ADD PUSH2 0x2571 JUMP JUMPDEST SWAP2 POP POP SWAP3 SWAP2 POP POP JUMP JUMPDEST PUSH1 0x0 PUSH1 0x60 DUP3 ADD SWAP1 POP PUSH2 0x25C8 PUSH1 0x0 DUP4 ADD DUP7 PUSH2 0x243B JUMP JUMPDEST PUSH2 0x25D5 PUSH1 0x20 DUP4 ADD DUP6 PUSH2 0x243B JUMP JUMPDEST PUSH2 0x25E2 PUSH1 0x40 DUP4 ADD DUP5 PUSH2 0x1E15 JUMP JUMPDEST SWAP5 SWAP4 POP POP POP POP JUMP JUMPDEST PUSH1 0x0 PUSH1 0xFF DUP3 AND SWAP1 POP SWAP2 SWAP1 POP JUMP JUMPDEST PUSH1 0x0 PUSH2 0x2602 DUP3 PUSH2 0x25EA JUMP JUMPDEST SWAP2 POP PUSH1 0x0 DUP3 SUB PUSH2 0x2615 JUMPI PUSH2 0x2614 PUSH2 0x22BD JUMP JUMPDEST JUMPDEST PUSH1 0x1 DUP3 SUB SWAP1 POP SWAP2 SWAP1 POP JUMP JUMPDEST PUSH1 0x0 DUP2 PUSH1 0x1 SHR SWAP1 POP SWAP2 SWAP1 POP JUMP JUMPDEST PUSH1 0x0 DUP1 DUP3 SWAP2 POP DUP4 SWAP1 POP JUMPDEST PUSH1 0x1 DUP6 GT ISZERO PUSH2 0x2677 JUMPI DUP1 DUP7 DIV DUP2 GT ISZERO PUSH2 0x2653 JUMPI PUSH2 0x2652 PUSH2 0x22BD JUMP JUMPDEST JUMPDEST PUSH1 0x1 DUP6 AND ISZERO PUSH2 0x2662 JUMPI DUP1 DUP3 MUL SWAP2 POP JUMPDEST DUP1 DUP2 MUL SWAP1 POP PUSH2 0x2670 DUP6 PUSH2 0x2620 JUMP JUMPDEST SWAP5 POP PUSH2 0x2637 JUMP JUMPDEST SWAP5 POP SWAP5 SWAP3 POP POP POP JUMP JUMPDEST PUSH1 0x0 DUP3 PUSH2 0x2690 JUMPI PUSH1 0x1 SWAP1 POP PUSH2 0x274C JUMP JUMPDEST DUP2 PUSH2 0x269E JUMPI PUSH1 0x0 SWAP1 POP PUSH2 0x274C JUMP JUMPDEST DUP2 PUSH1 0x1 DUP2 EQ PUSH2 0x26B4 JUMPI PUSH1 0x2 DUP2 EQ PUSH2 0x26BE JUMPI PUSH2 0x26ED JUMP JUMPDEST PUSH1 0x1 SWAP2 POP POP PUSH2 0x274C JUMP JUMPDEST PUSH1 0xFF DUP5 GT ISZERO PUSH2 0x26D0 JUMPI PUSH2 0x26CF PUSH2 0x22BD JUMP JUMPDEST JUMPDEST DUP4 PUSH1 0x2 EXP SWAP2 POP DUP5 DUP3 GT ISZERO PUSH2 0x26E7 JUMPI PUSH2 0x26E6 PUSH2 0x22BD JUMP JUMPDEST JUMPDEST POP PUSH2 0x274C JUMP JUMPDEST POP PUSH1 0x20 DUP4 LT PUSH2 0x133 DUP4 LT AND PUSH1 0x4E DUP5 LT PUSH1 0xB DUP5 LT AND OR ISZERO PUSH2 0x2722 JUMPI DUP3 DUP3 EXP SWAP1 POP DUP4 DUP2 GT ISZERO PUSH2 0x271D JUMPI PUSH2 0x271C PUSH2 0x22BD JUMP JUMPDEST JUMPDEST PUSH2 0x274C JUMP JUMPDEST PUSH2 0x272F DUP5 DUP5 DUP5 PUSH1 0x1 PUSH2 0x262D JUMP JUMPDEST SWAP3 POP SWAP1 POP DUP2 DUP5 DIV DUP2 GT ISZERO PUSH2 0x2746 JUMPI PUSH2 0x2745 PUSH2 0x22BD JUMP JUMPDEST JUMPDEST DUP2 DUP2 MUL SWAP1 POP JUMPDEST SWAP4 SWAP3 POP POP POP JUMP JUMPDEST PUSH1 0x0 PUSH2 0x275E DUP3 PUSH2 0x1E0B JUMP JUMPDEST SWAP2 POP PUSH2 0x2769 DUP4 PUSH2 0x25EA JUMP JUMPDEST SWAP3 POP PUSH2 0x2796 PUSH32 0xFFFFFFFFFFFFFFFFFFFFFFFFFFFFFFFFFFFFFFFFFFFFFFFFFFFFFFFFFFFFFFFF DUP5 DUP5 PUSH2 0x2680 JUMP JUMPDEST SWAP1 POP SWAP3 SWAP2 POP POP JUMP JUMPDEST PUSH1 0x0 PUSH2 0x27A9 DUP3 PUSH2 0x25EA JUMP JUMPDEST SWAP2 POP PUSH2 0x27B4 DUP4 PUSH2 0x25EA JUMP JUMPDEST SWAP3 POP DUP3 DUP3 SUB SWAP1 POP PUSH1 0xFF DUP2 GT ISZERO PUSH2 0x27CD JUMPI PUSH2 0x27CC PUSH2 0x22BD JUMP JUMPDEST JUMPDEST SWAP3 SWAP2 POP POP JUMP JUMPDEST PUSH1 0x0 PUSH2 0x27DE DUP3 PUSH2 0x1E0B JUMP JUMPDEST SWAP2 POP PUSH32 0xFFFFFFFFFFFFFFFFFFFFFFFFFFFFFFFFFFFFFFFFFFFFFFFFFFFFFFFFFFFFFFFF DUP3 SUB PUSH2 0x2810 JUMPI PUSH2 0x280F PUSH2 0x22BD JUMP JUMPDEST JUMPDEST PUSH1 0x1 DUP3 ADD SWAP1 POP SWAP2 SWAP1 POP JUMP JUMPDEST PUSH1 0x0 PUSH2 0x282E PUSH2 0x2829 DUP5 PUSH2 0x1D12 JUMP JUMPDEST PUSH2 0x1CF7 JUMP JUMPDEST SWAP1 POP DUP3 DUP2 MSTORE PUSH1 0x20 DUP2 ADD DUP5 DUP5 DUP5 ADD GT ISZERO PUSH2 0x284A JUMPI PUSH2 0x2849 PUSH2 0x1C81 JUMP JUMPDEST JUMPDEST PUSH2 0x2855 DUP5 DUP3 DUP6 PUSH2 0x1EF5 JUMP JUMPDEST POP SWAP4 SWAP3 POP POP POP JUMP JUMPDEST PUSH1 0x0 DUP3 PUSH1 0x1F DUP4 ADD SLT PUSH2 0x2872 JUMPI PUSH2 0x2871 PUSH2 0x1C7C JUMP JUMPDEST JUMPDEST DUP2 MLOAD PUSH2 0x2882 DUP5 DUP3 PUSH1 0x20 DUP7 ADD PUSH2 0x281B JUMP JUMPDEST SWAP2 POP POP SWAP3 SWAP2 POP POP JUMP JUMPDEST PUSH1 0x0 PUSH1 0x20 DUP3 DUP5 SUB SLT ISZERO PUSH2 0x28A1 JUMPI PUSH2 0x28A0 PUSH2 0x1C72 JUMP JUMPDEST JUMPDEST PUSH1 0x0 DUP3 ADD MLOAD PUSH8 0xFFFFFFFFFFFFFFFF DUP2 GT ISZERO PUSH2 0x28BF JUMPI PUSH2 0x28BE PUSH2 0x1C77 JUMP JUMPDEST JUMPDEST PUSH2 0x28CB DUP5 DUP3 DUP6 ADD PUSH2 0x285D JUMP JUMPDEST SWAP2 POP POP SWAP3 SWAP2 POP POP JUMP JUMPDEST PUSH32 0x4E487B7100000000000000000000000000000000000000000000000000000000 PUSH1 0x0 MSTORE PUSH1 0x12 PUSH1 0x4 MSTORE PUSH1 0x24 PUSH1 0x0 REVERT JUMPDEST PUSH1 0x0 PUSH2 0x290E DUP3 PUSH2 0x1E0B JUMP JUMPDEST SWAP2 POP PUSH2 0x2919 DUP4 PUSH2 0x1E0B JUMP JUMPDEST SWAP3 POP DUP3 PUSH2 0x2929 JUMPI PUSH2 0x2928 PUSH2 0x28D4 JUMP JUMPDEST JUMPDEST DUP3 DUP3 DIV SWAP1 POP SWAP3 SWAP2 POP POP JUMP JUMPDEST PUSH1 0x0 PUSH1 0x60 DUP3 ADD SWAP1 POP PUSH2 0x2949 PUSH1 0x0 DUP4 ADD DUP7 PUSH2 0x1E15 JUMP JUMPDEST PUSH2 0x2956 PUSH1 0x20 DUP4 ADD DUP6 PUSH2 0x1E15 JUMP JUMPDEST PUSH2 0x2963 PUSH1 0x40 DUP4 ADD DUP5 PUSH2 0x1E15 JUMP JUMPDEST SWAP5 SWAP4 POP POP POP POP JUMP JUMPDEST PUSH1 0x0 DUP2 SWAP1 POP SWAP3 SWAP2 POP POP JUMP JUMPDEST POP JUMP JUMPDEST PUSH1 0x0 PUSH2 0x2986 PUSH1 0x0 DUP4 PUSH2 0x296B JUMP JUMPDEST SWAP2 POP PUSH2 0x2991 DUP3 PUSH2 0x2976 JUMP JUMPDEST PUSH1 0x0 DUP3 ADD SWAP1 POP SWAP2 SWAP1 POP JUMP JUMPDEST PUSH1 0x0 PUSH2 0x29A7 DUP3 PUSH2 0x2979 JUMP JUMPDEST SWAP2 POP DUP2 SWAP1 POP SWAP2 SWAP1 POP JUMP INVALID LOG2 PUSH5 0x6970667358 0x22 SLT KECCAK256 PUSH14 0xF7F206706E8F2C73BD466D077371 PUSH26 0x7D25B92E44729AA616FAC4C69130D80064736F6C634300081500 CALLER "},"methodIdentifiers":{"createBuyOrder(address)":"d2980065","createSellOrder(address,uint256)":"a262b73f","deposit(address)":"f340fa01","depositToken(address,address,uint256)":"fb0f97a8","divide(string,string)":"b4bd2cc5","parseString(string)":"11075499","settleOrders(address,bool)":"c201e47c","viewToken(address)":"673cf82a","viewToken(uint256)":"8334d195"}}}}}