{"contracts/DexhuneExchange.sol":{"DexhuneExchange":{"abi":[{"inputs":[],"stateMutability":"nonpayable","type":"constructor"},{"inputs":[],"name":"FailedStringToNumberConversion","type":"error"},{"inputs":[],"name":"InvalidTokenContract","type":"error"},{"inputs":[],"name":"ParityShouldNotHavePrice","type":"error"},{"inputs":[{"internalType":"address","name":"contractAddr","type":"address"}],"name":"TokenAlreadyExists","type":"error"},{"inputs":[],"name":"TokenNotListed","type":"error"},{"inputs":[{"internalType":"address","name":"account","type":"address"}],"name":"UnauthorizedAccount","type":"error"},{"inputs":[{"internalType":"string","name":"value","type":"string"}],"name":"parseString","outputs":[{"internalType":"uint256","name":"","type":"uint256"}],"stateMutability":"nonpayable","type":"function"}],"evm":{"bytecode":{"linkReferences":{},"object":"608060405234801561001057600080fd5b5033600360006101000a81548173ffffffffffffffffffffffffffffffffffffffff021916908373ffffffffffffffffffffffffffffffffffffffff1602179055507f36372b0700000000000000000000000000000000000000000000000000000000600460146101000a81548163ffffffff021916908360e01c02179055506106e28061009f6000396000f3fe608060405234801561001057600080fd5b506004361061002b5760003560e01c80631107549914610030575b600080fd5b61004a6004803603810190610045919061031f565b610060565b6040516100579190610381565b60405180910390f35b600080600061006e846100b4565b9150915080156100aa576040517fe6f7d2c700000000000000000000000000000000000000000000000000000000815260040160405180910390fd5b8192505050919050565b6000806000806000859050600080600080600090505b8451811080156100d8575082155b156101b3578481815181106100f0576100ef61039c565b5b602001015160f81c60f81b60f81c935060308460ff1610158015610118575060398460ff1611155b1561015e57859650600a8661012d91906103fa565b955060308461013c9190610449565b60ff168661014a919061047e565b95508587111561015957600192505b6101a0565b602e8460ff160361019f57811561017457600192505b6001915080601261018591906104b2565b600a6101919190610619565b8661019c91906103fa565b95505b5b80806101ab90610664565b9150506100ca565b50848297509750505050505050915091565b6000604051905090565b600080fd5b600080fd5b600080fd5b600080fd5b6000601f19601f8301169050919050565b7f4e487b7100000000000000000000000000000000000000000000000000000000600052604160045260246000fd5b61022c826101e3565b810181811067ffffffffffffffff8211171561024b5761024a6101f4565b5b80604052505050565b600061025e6101c5565b905061026a8282610223565b919050565b600067ffffffffffffffff82111561028a576102896101f4565b5b610293826101e3565b9050602081019050919050565b82818337600083830152505050565b60006102c26102bd8461026f565b610254565b9050828152602081018484840111156102de576102dd6101de565b5b6102e98482856102a0565b509392505050565b600082601f830112610306576103056101d9565b5b81356103168482602086016102af565b91505092915050565b600060208284031215610335576103346101cf565b5b600082013567ffffffffffffffff811115610353576103526101d4565b5b61035f848285016102f1565b91505092915050565b6000819050919050565b61037b81610368565b82525050565b60006020820190506103966000830184610372565b92915050565b7f4e487b7100000000000000000000000000000000000000000000000000000000600052603260045260246000fd5b7f4e487b7100000000000000000000000000000000000000000000000000000000600052601160045260246000fd5b600061040582610368565b915061041083610368565b925082820261041e81610368565b91508282048414831517610435576104346103cb565b5b5092915050565b600060ff82169050919050565b60006104548261043c565b915061045f8361043c565b9250828203905060ff811115610478576104776103cb565b5b92915050565b600061048982610368565b915061049483610368565b92508282019050808211156104ac576104ab6103cb565b5b92915050565b60006104bd82610368565b91506104c883610368565b92508282039050818111156104e0576104df6103cb565b5b92915050565b60008160011c9050919050565b6000808291508390505b600185111561053d57808604811115610519576105186103cb565b5b60018516156105285780820291505b8081029050610536856104e6565b94506104fd565b94509492505050565b6000826105565760019050610612565b816105645760009050610612565b816001811461057a5760028114610584576105b3565b6001915050610612565b60ff841115610596576105956103cb565b5b8360020a9150848211156105ad576105ac6103cb565b5b50610612565b5060208310610133831016604e8410600b84101617156105e85782820a9050838111156105e3576105e26103cb565b5b610612565b6105f584848460016104f3565b9250905081840481111561060c5761060b6103cb565b5b81810290505b9392505050565b600061062482610368565b915061062f83610368565b925061065c7fffffffffffffffffffffffffffffffffffffffffffffffffffffffffffffffff8484610546565b905092915050565b600061066f82610368565b91507fffffffffffffffffffffffffffffffffffffffffffffffffffffffffffffffff82036106a1576106a06103cb565b5b60018201905091905056fea2646970667358221220473e0997e620a638df6d81a04c4a9701eff7d26498482858f7c1b7937b9c46ff64736f6c63430008150033","opcodes":"PUSH1 0x80 PUSH1 0x40 MSTORE CALLVALUE DUP1 ISZERO PUSH2 0x10 JUMPI PUSH1 0x0 DUP1 REVERT JUMPDEST POP CALLER PUSH1 0x3 PUSH1 0x0 PUSH2 0x100 EXP DUP2 SLOAD DUP2 PUSH20 0xFFFFFFFFFFFFFFFFFFFFFFFFFFFFFFFFFFFFFFFF MUL NOT AND SWAP1 DUP4 PUSH20 0xFFFFFFFFFFFFFFFFFFFFFFFFFFFFFFFFFFFFFFFF AND MUL OR SWAP1 SSTORE POP PUSH32 0x36372B0700000000000000000000000000000000000000000000000000000000 PUSH1 0x4 PUSH1 0x14 PUSH2 0x100 EXP DUP2 SLOAD DUP2 PUSH4 0xFFFFFFFF MUL NOT AND SWAP1 DUP4 PUSH1 0xE0 SHR MUL OR SWAP1 SSTORE POP PUSH2 0x6E2 DUP1 PUSH2 0x9F PUSH1 0x0 CODECOPY PUSH1 0x0 RETURN INVALID PUSH1 0x80 PUSH1 0x40 MSTORE CALLVALUE DUP1 ISZERO PUSH2 0x10 JUMPI PUSH1 0x0 DUP1 REVERT JUMPDEST POP PUSH1 0x4 CALLDATASIZE LT PUSH2 0x2B JUMPI PUSH1 0x0 CALLDATALOAD PUSH1 0xE0 SHR DUP1 PUSH4 0x11075499 EQ PUSH2 0x30 JUMPI JUMPDEST PUSH1 0x0 DUP1 REVERT JUMPDEST PUSH2 0x4A PUSH1 0x4 DUP1 CALLDATASIZE SUB DUP2 ADD SWAP1 PUSH2 0x45 SWAP2 SWAP1 PUSH2 0x31F JUMP JUMPDEST PUSH2 0x60 JUMP JUMPDEST PUSH1 0x40 MLOAD PUSH2 0x57 SWAP2 SWAP1 PUSH2 0x381 JUMP JUMPDEST PUSH1 0x40 MLOAD DUP1 SWAP2 SUB SWAP1 RETURN JUMPDEST PUSH1 0x0 DUP1 PUSH1 0x0 PUSH2 0x6E DUP5 PUSH2 0xB4 JUMP JUMPDEST SWAP2 POP SWAP2 POP DUP1 ISZERO PUSH2 0xAA JUMPI PUSH1 0x40 MLOAD PUSH32 0xE6F7D2C700000000000000000000000000000000000000000000000000000000 DUP2 MSTORE PUSH1 0x4 ADD PUSH1 0x40 MLOAD DUP1 SWAP2 SUB SWAP1 REVERT JUMPDEST DUP2 SWAP3 POP POP POP SWAP2 SWAP1 POP JUMP JUMPDEST PUSH1 0x0 DUP1 PUSH1 0x0 DUP1 PUSH1 0x0 DUP6 SWAP1 POP PUSH1 0x0 DUP1 PUSH1 0x0 DUP1 PUSH1 0x0 SWAP1 POP JUMPDEST DUP5 MLOAD DUP2 LT DUP1 ISZERO PUSH2 0xD8 JUMPI POP DUP3 ISZERO JUMPDEST ISZERO PUSH2 0x1B3 JUMPI DUP5 DUP2 DUP2 MLOAD DUP2 LT PUSH2 0xF0 JUMPI PUSH2 0xEF PUSH2 0x39C JUMP JUMPDEST JUMPDEST PUSH1 0x20 ADD ADD MLOAD PUSH1 0xF8 SHR PUSH1 0xF8 SHL PUSH1 0xF8 SHR SWAP4 POP PUSH1 0x30 DUP5 PUSH1 0xFF AND LT ISZERO DUP1 ISZERO PUSH2 0x118 JUMPI POP PUSH1 0x39 DUP5 PUSH1 0xFF AND GT ISZERO JUMPDEST ISZERO PUSH2 0x15E JUMPI DUP6 SWAP7 POP PUSH1 0xA DUP7 PUSH2 0x12D SWAP2 SWAP1 PUSH2 0x3FA JUMP JUMPDEST SWAP6 POP PUSH1 0x30 DUP5 PUSH2 0x13C SWAP2 SWAP1 PUSH2 0x449 JUMP JUMPDEST PUSH1 0xFF AND DUP7 PUSH2 0x14A SWAP2 SWAP1 PUSH2 0x47E JUMP JUMPDEST SWAP6 POP DUP6 DUP8 GT ISZERO PUSH2 0x159 JUMPI PUSH1 0x1 SWAP3 POP JUMPDEST PUSH2 0x1A0 JUMP JUMPDEST PUSH1 0x2E DUP5 PUSH1 0xFF AND SUB PUSH2 0x19F JUMPI DUP2 ISZERO PUSH2 0x174 JUMPI PUSH1 0x1 SWAP3 POP JUMPDEST PUSH1 0x1 SWAP2 POP DUP1 PUSH1 0x12 PUSH2 0x185 SWAP2 SWAP1 PUSH2 0x4B2 JUMP JUMPDEST PUSH1 0xA PUSH2 0x191 SWAP2 SWAP1 PUSH2 0x619 JUMP JUMPDEST DUP7 PUSH2 0x19C SWAP2 SWAP1 PUSH2 0x3FA JUMP JUMPDEST SWAP6 POP JUMPDEST JUMPDEST DUP1 DUP1 PUSH2 0x1AB SWAP1 PUSH2 0x664 JUMP JUMPDEST SWAP2 POP POP PUSH2 0xCA JUMP JUMPDEST POP DUP5 DUP3 SWAP8 POP SWAP8 POP POP POP POP POP POP POP SWAP2 POP SWAP2 JUMP JUMPDEST PUSH1 0x0 PUSH1 0x40 MLOAD SWAP1 POP SWAP1 JUMP JUMPDEST PUSH1 0x0 DUP1 REVERT JUMPDEST PUSH1 0x0 DUP1 REVERT JUMPDEST PUSH1 0x0 DUP1 REVERT JUMPDEST PUSH1 0x0 DUP1 REVERT JUMPDEST PUSH1 0x0 PUSH1 0x1F NOT PUSH1 0x1F DUP4 ADD AND SWAP1 POP SWAP2 SWAP1 POP JUMP JUMPDEST PUSH32 0x4E487B7100000000000000000000000000000000000000000000000000000000 PUSH1 0x0 MSTORE PUSH1 0x41 PUSH1 0x4 MSTORE PUSH1 0x24 PUSH1 0x0 REVERT JUMPDEST PUSH2 0x22C DUP3 PUSH2 0x1E3 JUMP JUMPDEST DUP2 ADD DUP2 DUP2 LT PUSH8 0xFFFFFFFFFFFFFFFF DUP3 GT OR ISZERO PUSH2 0x24B JUMPI PUSH2 0x24A PUSH2 0x1F4 JUMP JUMPDEST JUMPDEST DUP1 PUSH1 0x40 MSTORE POP POP POP JUMP JUMPDEST PUSH1 0x0 PUSH2 0x25E PUSH2 0x1C5 JUMP JUMPDEST SWAP1 POP PUSH2 0x26A DUP3 DUP3 PUSH2 0x223 JUMP JUMPDEST SWAP2 SWAP1 POP JUMP JUMPDEST PUSH1 0x0 PUSH8 0xFFFFFFFFFFFFFFFF DUP3 GT ISZERO PUSH2 0x28A JUMPI PUSH2 0x289 PUSH2 0x1F4 JUMP JUMPDEST JUMPDEST PUSH2 0x293 DUP3 PUSH2 0x1E3 JUMP JUMPDEST SWAP1 POP PUSH1 0x20 DUP2 ADD SWAP1 POP SWAP2 SWAP1 POP JUMP JUMPDEST DUP3 DUP2 DUP4 CALLDATACOPY PUSH1 0x0 DUP4 DUP4 ADD MSTORE POP POP POP JUMP JUMPDEST PUSH1 0x0 PUSH2 0x2C2 PUSH2 0x2BD DUP5 PUSH2 0x26F JUMP JUMPDEST PUSH2 0x254 JUMP JUMPDEST SWAP1 POP DUP3 DUP2 MSTORE PUSH1 0x20 DUP2 ADD DUP5 DUP5 DUP5 ADD GT ISZERO PUSH2 0x2DE JUMPI PUSH2 0x2DD PUSH2 0x1DE JUMP JUMPDEST JUMPDEST PUSH2 0x2E9 DUP5 DUP3 DUP6 PUSH2 0x2A0 JUMP JUMPDEST POP SWAP4 SWAP3 POP POP POP JUMP JUMPDEST PUSH1 0x0 DUP3 PUSH1 0x1F DUP4 ADD SLT PUSH2 0x306 JUMPI PUSH2 0x305 PUSH2 0x1D9 JUMP JUMPDEST JUMPDEST DUP2 CALLDATALOAD PUSH2 0x316 DUP5 DUP3 PUSH1 0x20 DUP7 ADD PUSH2 0x2AF JUMP JUMPDEST SWAP2 POP POP SWAP3 SWAP2 POP POP JUMP JUMPDEST PUSH1 0x0 PUSH1 0x20 DUP3 DUP5 SUB SLT ISZERO PUSH2 0x335 JUMPI PUSH2 0x334 PUSH2 0x1CF JUMP JUMPDEST JUMPDEST PUSH1 0x0 DUP3 ADD CALLDATALOAD PUSH8 0xFFFFFFFFFFFFFFFF DUP2 GT ISZERO PUSH2 0x353 JUMPI PUSH2 0x352 PUSH2 0x1D4 JUMP JUMPDEST JUMPDEST PUSH2 0x35F DUP5 DUP3 DUP6 ADD PUSH2 0x2F1 JUMP JUMPDEST SWAP2 POP POP SWAP3 SWAP2 POP POP JUMP JUMPDEST PUSH1 0x0 DUP2 SWAP1 POP SWAP2 SWAP1 POP JUMP JUMPDEST PUSH2 0x37B DUP2 PUSH2 0x368 JUMP JUMPDEST DUP3 MSTORE POP POP JUMP JUMPDEST PUSH1 0x0 PUSH1 0x20 DUP3 ADD SWAP1 POP PUSH2 0x396 PUSH1 0x0 DUP4 ADD DUP5 PUSH2 0x372 JUMP JUMPDEST SWAP3 SWAP2 POP POP JUMP JUMPDEST PUSH32 0x4E487B7100000000000000000000000000000000000000000000000000000000 PUSH1 0x0 MSTORE PUSH1 0x32 PUSH1 0x4 MSTORE PUSH1 0x24 PUSH1 0x0 REVERT JUMPDEST PUSH32 0x4E487B7100000000000000000000000000000000000000000000000000000000 PUSH1 0x0 MSTORE PUSH1 0x11 PUSH1 0x4 MSTORE PUSH1 0x24 PUSH1 0x0 REVERT JUMPDEST PUSH1 0x0 PUSH2 0x405 DUP3 PUSH2 0x368 JUMP JUMPDEST SWAP2 POP PUSH2 0x410 DUP4 PUSH2 0x368 JUMP JUMPDEST SWAP3 POP DUP3 DUP3 MUL PUSH2 0x41E DUP2 PUSH2 0x368 JUMP JUMPDEST SWAP2 POP DUP3 DUP3 DIV DUP5 EQ DUP4 ISZERO OR PUSH2 0x435 JUMPI PUSH2 0x434 PUSH2 0x3CB JUMP JUMPDEST JUMPDEST POP SWAP3 SWAP2 POP POP JUMP JUMPDEST PUSH1 0x0 PUSH1 0xFF DUP3 AND SWAP1 POP SWAP2 SWAP1 POP JUMP JUMPDEST PUSH1 0x0 PUSH2 0x454 DUP3 PUSH2 0x43C JUMP JUMPDEST SWAP2 POP PUSH2 0x45F DUP4 PUSH2 0x43C JUMP JUMPDEST SWAP3 POP DUP3 DUP3 SUB SWAP1 POP PUSH1 0xFF DUP2 GT ISZERO PUSH2 0x478 JUMPI PUSH2 0x477 PUSH2 0x3CB JUMP JUMPDEST JUMPDEST SWAP3 SWAP2 POP POP JUMP JUMPDEST PUSH1 0x0 PUSH2 0x489 DUP3 PUSH2 0x368 JUMP JUMPDEST SWAP2 POP PUSH2 0x494 DUP4 PUSH2 0x368 JUMP JUMPDEST SWAP3 POP DUP3 DUP3 ADD SWAP1 POP DUP1 DUP3 GT ISZERO PUSH2 0x4AC JUMPI PUSH2 0x4AB PUSH2 0x3CB JUMP JUMPDEST JUMPDEST SWAP3 SWAP2 POP POP JUMP JUMPDEST PUSH1 0x0 PUSH2 0x4BD DUP3 PUSH2 0x368 JUMP JUMPDEST SWAP2 POP PUSH2 0x4C8 DUP4 PUSH2 0x368 JUMP JUMPDEST SWAP3 POP DUP3 DUP3 SUB SWAP1 POP DUP2 DUP2 GT ISZERO PUSH2 0x4E0 JUMPI PUSH2 0x4DF PUSH2 0x3CB JUMP JUMPDEST JUMPDEST SWAP3 SWAP2 POP POP JUMP JUMPDEST PUSH1 0x0 DUP2 PUSH1 0x1 SHR SWAP1 POP SWAP2 SWAP1 POP JUMP JUMPDEST PUSH1 0x0 DUP1 DUP3 SWAP2 POP DUP4 SWAP1 POP JUMPDEST PUSH1 0x1 DUP6 GT ISZERO PUSH2 0x53D JUMPI DUP1 DUP7 DIV DUP2 GT ISZERO PUSH2 0x519 JUMPI PUSH2 0x518 PUSH2 0x3CB JUMP JUMPDEST JUMPDEST PUSH1 0x1 DUP6 AND ISZERO PUSH2 0x528 JUMPI DUP1 DUP3 MUL SWAP2 POP JUMPDEST DUP1 DUP2 MUL SWAP1 POP PUSH2 0x536 DUP6 PUSH2 0x4E6 JUMP JUMPDEST SWAP5 POP PUSH2 0x4FD JUMP JUMPDEST SWAP5 POP SWAP5 SWAP3 POP POP POP JUMP JUMPDEST PUSH1 0x0 DUP3 PUSH2 0x556 JUMPI PUSH1 0x1 SWAP1 POP PUSH2 0x612 JUMP JUMPDEST DUP2 PUSH2 0x564 JUMPI PUSH1 0x0 SWAP1 POP PUSH2 0x612 JUMP JUMPDEST DUP2 PUSH1 0x1 DUP2 EQ PUSH2 0x57A JUMPI PUSH1 0x2 DUP2 EQ PUSH2 0x584 JUMPI PUSH2 0x5B3 JUMP JUMPDEST PUSH1 0x1 SWAP2 POP POP PUSH2 0x612 JUMP JUMPDEST PUSH1 0xFF DUP5 GT ISZERO PUSH2 0x596 JUMPI PUSH2 0x595 PUSH2 0x3CB JUMP JUMPDEST JUMPDEST DUP4 PUSH1 0x2 EXP SWAP2 POP DUP5 DUP3 GT ISZERO PUSH2 0x5AD JUMPI PUSH2 0x5AC PUSH2 0x3CB JUMP JUMPDEST JUMPDEST POP PUSH2 0x612 JUMP JUMPDEST POP PUSH1 0x20 DUP4 LT PUSH2 0x133 DUP4 LT AND PUSH1 0x4E DUP5 LT PUSH1 0xB DUP5 LT AND OR ISZERO PUSH2 0x5E8 JUMPI DUP3 DUP3 EXP SWAP1 POP DUP4 DUP2 GT ISZERO PUSH2 0x5E3 JUMPI PUSH2 0x5E2 PUSH2 0x3CB JUMP JUMPDEST JUMPDEST PUSH2 0x612 JUMP JUMPDEST PUSH2 0x5F5 DUP5 DUP5 DUP5 PUSH1 0x1 PUSH2 0x4F3 JUMP JUMPDEST SWAP3 POP SWAP1 POP DUP2 DUP5 DIV DUP2 GT ISZERO PUSH2 0x60C JUMPI PUSH2 0x60B PUSH2 0x3CB JUMP JUMPDEST JUMPDEST DUP2 DUP2 MUL SWAP1 POP JUMPDEST SWAP4 SWAP3 POP POP POP JUMP JUMPDEST PUSH1 0x0 PUSH2 0x624 DUP3 PUSH2 0x368 JUMP JUMPDEST SWAP2 POP PUSH2 0x62F DUP4 PUSH2 0x368 JUMP JUMPDEST SWAP3 POP PUSH2 0x65C PUSH32 0xFFFFFFFFFFFFFFFFFFFFFFFFFFFFFFFFFFFFFFFFFFFFFFFFFFFFFFFFFFFFFFFF DUP5 DUP5 PUSH2 0x546 JUMP JUMPDEST SWAP1 POP SWAP3 SWAP2 POP POP JUMP JUMPDEST PUSH1 0x0 PUSH2 0x66F DUP3 PUSH2 0x368 JUMP JUMPDEST SWAP2 POP PUSH32 0xFFFFFFFFFFFFFFFFFFFFFFFFFFFFFFFFFFFFFFFFFFFFFFFFFFFFFFFFFFFFFFFF DUP3 SUB PUSH2 0x6A1 JUMPI PUSH2 0x6A0 PUSH2 0x3CB JUMP JUMPDEST JUMPDEST PUSH1 0x1 DUP3 ADD SWAP1 POP SWAP2 SWAP1 POP JUMP INVALID LOG2 PUSH5 0x6970667358 0x22 SLT KECCAK256 SELFBALANCE RETURNDATACOPY MULMOD SWAP8 0xE6 KECCAK256 0xA6 CODESIZE 0xDF PUSH14 0x81A04C4A9701EFF7D26498482858 0xF7 0xC1 0xB7 SWAP4 PUSH28 0x9C46FF64736F6C634300081500330000000000000000000000000000 "},"methodIdentifiers":{"parseString(string)":"11075499"}}}}}