{
    "contractName": "DexhuneConfig",
    "abi": [
        {
            "inputs": [],
            "name": "cooldownTimeout",
            "outputs": [
                {
                    "internalType": "uint256",
                    "name": "",
                    "type": "uint256"
                }
            ],
            "stateMutability": "view",
            "type": "function"
        },
        {
            "inputs": [],
            "name": "transferCooldown",
            "outputs": [
                {
                    "internalType": "bool",
                    "name": "",
                    "type": "bool"
                }
            ],
            "stateMutability": "view",
            "type": "function"
        }
    ],
    "bytecode": "60806040526000805460ff1916600117905561001d6002603c610032565b60015534801561002c57600080fd5b5061005d565b808202811582820484141761005757634e487b7160e01b600052601160045260246000fd5b92915050565b60a38061006b6000396000f3fe6080604052348015600f57600080fd5b506004361060325760003560e01c806368f16293146037578063bbf79246146058575b600080fd5b60005460439060ff1681565b60405190151581526020015b60405180910390f35b606060015481565b604051908152602001604f56fea2646970667358221220ae2b68eb8900c2f7f7ce421126b0074b5a7a1efdce369ab6daf670575e77981b64736f6c63430008130033",
    "sourcePath": "c:/Users/Prince/source/repos/Peng_Protocol/dexhune/contracts/DexhuneRoot.sol",
    "compiler": {
        "name": "solc",
        "version": "0.8.19+commit.7dd6d404"
    },
    "functionHashes": {
        "cooldownTimeout()": "bbf79246",
        "transferCooldown()": "68f16293"
    },
    "gasEstimates": {
        "creation": {
            "codeDepositCost": "32600",
            "executionCost": "46517",
            "totalCost": "79117"
        },
        "external": {
            "cooldownTimeout()": "2295",
            "transferCooldown()": "2277"
        }
    }
}