{
    "contractName": "DexhunePriceDAO",
    "abi": [
        {
            "anonymous": false,
            "inputs": [
                {
                    "indexed": false,
                    "internalType": "uint256",
                    "name": "oldPrice",
                    "type": "uint256"
                },
                {
                    "indexed": false,
                    "internalType": "uint256",
                    "name": "newPrice",
                    "type": "uint256"
                }
            ],
            "name": "PriceUpdated",
            "type": "event"
        },
        {
            "anonymous": false,
            "inputs": [
                {
                    "indexed": false,
                    "internalType": "uint256",
                    "name": "id",
                    "type": "uint256"
                },
                {
                    "indexed": false,
                    "internalType": "string",
                    "name": "description",
                    "type": "string"
                },
                {
                    "indexed": false,
                    "internalType": "address",
                    "name": "proposer",
                    "type": "address"
                }
            ],
            "name": "ProposalCreated",
            "type": "event"
        },
        {
            "anonymous": false,
            "inputs": [
                {
                    "indexed": false,
                    "internalType": "uint256",
                    "name": "id",
                    "type": "uint256"
                },
                {
                    "indexed": false,
                    "internalType": "bool",
                    "name": "passed",
                    "type": "bool"
                }
            ],
            "name": "ProposalFinalized",
            "type": "event"
        },
        {
            "anonymous": false,
            "inputs": [
                {
                    "indexed": false,
                    "internalType": "address",
                    "name": "voter",
                    "type": "address"
                },
                {
                    "indexed": false,
                    "internalType": "uint256",
                    "name": "proposal",
                    "type": "uint256"
                },
                {
                    "indexed": false,
                    "internalType": "bool",
                    "name": "votedFor",
                    "type": "bool"
                }
            ],
            "name": "VoteCast",
            "type": "event"
        },
        {
            "anonymous": false,
            "inputs": [
                {
                    "indexed": false,
                    "internalType": "uint256",
                    "name": "id",
                    "type": "uint256"
                }
            ],
            "name": "addedNFTCollection",
            "type": "event"
        },
        {
            "anonymous": false,
            "inputs": [
                {
                    "indexed": false,
                    "internalType": "uint256",
                    "name": "id",
                    "type": "uint256"
                }
            ],
            "name": "removedNFTCollection",
            "type": "event"
        },
        {
            "anonymous": false,
            "inputs": [
                {
                    "indexed": false,
                    "internalType": "address",
                    "name": "from",
                    "type": "address"
                },
                {
                    "indexed": false,
                    "internalType": "address",
                    "name": "to",
                    "type": "address"
                }
            ],
            "name": "transferredOwnership",
            "type": "event"
        },
        {
            "inputs": [
                {
                    "internalType": "uint256",
                    "name": "",
                    "type": "uint256"
                }
            ],
            "name": "PriceProposals",
            "outputs": [
                {
                    "internalType": "uint256",
                    "name": "id",
                    "type": "uint256"
                },
                {
                    "internalType": "string",
                    "name": "description",
                    "type": "string"
                },
                {
                    "internalType": "uint256",
                    "name": "deadline",
                    "type": "uint256"
                },
                {
                    "internalType": "uint256",
                    "name": "votesUp",
                    "type": "uint256"
                },
                {
                    "internalType": "uint256",
                    "name": "votesDown",
                    "type": "uint256"
                },
                {
                    "internalType": "uint256",
                    "name": "maxVotes",
                    "type": "uint256"
                },
                {
                    "internalType": "uint256",
                    "name": "value",
                    "type": "uint256"
                },
                {
                    "internalType": "bool",
                    "name": "finalized",
                    "type": "bool"
                }
            ],
            "stateMutability": "view",
            "type": "function"
        },
        {
            "inputs": [
                {
                    "internalType": "address",
                    "name": "_contractAddress",
                    "type": "address"
                },
                {
                    "internalType": "address[]",
                    "name": "nfts",
                    "type": "address[]"
                }
            ],
            "name": "addNFTCollection",
            "outputs": [],
            "stateMutability": "nonpayable",
            "type": "function"
        },
        {
            "inputs": [
                {
                    "internalType": "uint256",
                    "name": "_id",
                    "type": "uint256"
                },
                {
                    "internalType": "bool",
                    "name": "_vote",
                    "type": "bool"
                }
            ],
            "name": "castPriceVote",
            "outputs": [],
            "stateMutability": "nonpayable",
            "type": "function"
        },
        {
            "inputs": [
                {
                    "internalType": "uint256",
                    "name": "",
                    "type": "uint256"
                }
            ],
            "name": "collections",
            "outputs": [
                {
                    "internalType": "address",
                    "name": "contractAddr",
                    "type": "address"
                }
            ],
            "stateMutability": "view",
            "type": "function"
        },
        {
            "inputs": [],
            "name": "cooldownTimeout",
            "outputs": [
                {
                    "internalType": "uint256",
                    "name": "",
                    "type": "uint256"
                }
            ],
            "stateMutability": "view",
            "type": "function"
        },
        {
            "inputs": [
                {
                    "internalType": "uint256",
                    "name": "_id",
                    "type": "uint256"
                }
            ],
            "name": "finalizePriceProposal",
            "outputs": [],
            "stateMutability": "nonpayable",
            "type": "function"
        },
        {
            "inputs": [],
            "name": "getPrice",
            "outputs": [
                {
                    "internalType": "uint256",
                    "name": "",
                    "type": "uint256"
                }
            ],
            "stateMutability": "view",
            "type": "function"
        },
        {
            "inputs": [],
            "name": "owner",
            "outputs": [
                {
                    "internalType": "address",
                    "name": "",
                    "type": "address"
                }
            ],
            "stateMutability": "view",
            "type": "function"
        },
        {
            "inputs": [
                {
                    "internalType": "string",
                    "name": "_desc",
                    "type": "string"
                },
                {
                    "internalType": "uint256",
                    "name": "_price",
                    "type": "uint256"
                }
            ],
            "name": "proposePrice",
            "outputs": [],
            "stateMutability": "nonpayable",
            "type": "function"
        },
        {
            "inputs": [
                {
                    "internalType": "uint256",
                    "name": "_id",
                    "type": "uint256"
                }
            ],
            "name": "removeNFTCollection",
            "outputs": [],
            "stateMutability": "nonpayable",
            "type": "function"
        },
        {
            "inputs": [
                {
                    "internalType": "uint256",
                    "name": "_timeout",
                    "type": "uint256"
                }
            ],
            "name": "setCooldownTimeout",
            "outputs": [],
            "stateMutability": "nonpayable",
            "type": "function"
        },
        {
            "inputs": [
                {
                    "internalType": "bool",
                    "name": "_enabled",
                    "type": "bool"
                }
            ],
            "name": "setTransferTimeout",
            "outputs": [],
            "stateMutability": "nonpayable",
            "type": "function"
        },
        {
            "inputs": [],
            "name": "transferCooldown",
            "outputs": [
                {
                    "internalType": "bool",
                    "name": "",
                    "type": "bool"
                }
            ],
            "stateMutability": "view",
            "type": "function"
        },
        {
            "inputs": [
                {
                    "internalType": "address",
                    "name": "_address",
                    "type": "address"
                }
            ],
            "name": "transferOwnership",
            "outputs": [],
            "stateMutability": "nonpayable",
            "type": "function"
        }
    ],
    "bytecode": "60806040526000805460ff1916600117905561001d6002603c610044565b60015534801561002c57600080fd5b50600280546001600160a01b0319163317905561006f565b808202811582820484141761006957634e487b7160e01b600052601160045260246000fd5b92915050565b6110f38061007e6000396000f3fe608060405234801561001057600080fd5b50600436106100ea5760003560e01c806398d5fdca1161008c578063befd9bc111610066578063befd9bc1146101e3578063c2d52751146101f6578063f2fde38b14610209578063fdbda0ec1461021c57600080fd5b806398d5fdca146101b55780639d6a6d5d146101c7578063bbf79246146101da57600080fd5b806368f16293116100c857806368f16293146101475780637c14a418146101645780638b98ecaa146101775780638da5cb5b1461018a57600080fd5b80631068779e146100ef5780635a05db1514610104578063605c736e14610117575b600080fd5b6101026100fd366004610d11565b610245565b005b610102610112366004610dab565b6103d5565b61012a610125366004610dab565b61064a565b60405161013e989796959493929190610e0a565b60405180910390f35b6000546101549060ff1681565b604051901515815260200161013e565b610102610172366004610e6e565b610719565b610102610185366004610dab565b610734565b60025461019d906001600160a01b031681565b6040516001600160a01b03909116815260200161013e565b6005545b60405190815260200161013e565b6101026101d5366004610e90565b61088e565b6101b960015481565b6101026101f1366004610ed3565b610a39565b610102610204366004610dab565b610b94565b610102610217366004610f93565b610ba1565b61019d61022a366004610dab565b6004602052600090815260409020546001600160a01b031681565b6000600760006006548152602001908152602001600020604051806101000160405290816000820154815260200160018201805461028290610fae565b80601f01602080910402602001604051908101604052809291908181526020018280546102ae90610fae565b80156102fb5780601f106102d0576101008083540402835291602001916102fb565b820191906000526020600020905b8154815290600101906020018083116102de57829003601f168201915b505050918352505060028281015460208084019190915260038401546040840152600484015460608401526005840154608084015260068085015460a085015260079094015460ff16151560c09384015292548452918301869052820184905290915061036b9061012c90610ffe565b610375904361101b565b8160400181815250507fc8c078bfee58e5822588f08b4509ed1eb5058e03f666cca84dd2d44bf5c288a860065484336040516103b39392919061102e565b60405180910390a1600680549060006103cb8361105f565b9190505550505050565b600060076000838152602001908152602001600020604051806101000160405290816000820154815260200160018201805461041090610fae565b80601f016020809104026020016040519081016040528092919081815260200182805461043c90610fae565b80156104895780601f1061045e57610100808354040283529160200191610489565b820191906000526020600020905b81548152906001019060200180831161046c57829003601f168201915b50505091835250506002820154602082015260038201546040808301919091526004830154606083015260058301546080830152600683015460a083015260079092015460ff16151560c090910152810151909150156105045760405162461bcd60e51b81526004016104fb90611078565b60405180910390fd5b806040015143106105665760405162461bcd60e51b815260206004820152602660248201527f546865207265717565737465642070726f706f73616c206973207374696c6c2060448201526561637469766560d01b60648201526084016104fb565b8060e0015115610574575050565b80608001518160600151111561060c576005805460c083015190915560408051848152600160208201527fb5ac567fcf1b069e0235e4f16734625c6cf54c1b40517fd9eb85517f6e1265a7910160405180910390a16005546040805183815260208101929092527f945c1c4e99aa89f648fbfe3df471b916f719e16d960fcec0737d4d56bd69683891015b60405180910390a1505050565b60408051838152600060208201527fb5ac567fcf1b069e0235e4f16734625c6cf54c1b40517fd9eb85517f6e1265a791015b60405180910390a15050565b6007602052600090815260409020805460018201805491929161066c90610fae565b80601f016020809104026020016040519081016040528092919081815260200182805461069890610fae565b80156106e55780601f106106ba576101008083540402835291602001916106e5565b820191906000526020600020905b8154815290600101906020018083116106c857829003601f168201915b5050506002840154600385015460048601546005870154600688015460079098015496979396929550909350919060ff1688565b610721610c03565b6000805460ff1916911515919091179055565b61073c610c03565b60008181526004602090815260408083208151808301835281546001600160a01b0316815260018201805484518187028101870190955280855291949293858401939092908301828280156107ba57602002820191906000526020600020905b81546001600160a01b0316815260019091019060200180831161079c575b5050509190925250508151919250506001600160a01b0316156108325760405162461bcd60e51b815260206004820152602a60248201527f5468652070726f7669646564204e465420636f6c6c656374696f6e20646f6573604482015269081b9bdd08195e1a5cdd60b21b60648201526084016104fb565b600082815260046020526040812080546001600160a01b03191681559061085c6001830182610c90565b50506040518281527f8c74e0ebf8a931dc8bf3bb8645415e579244a93c7523a035a3773983a2097b3d9060200161063e565b60405162461bcd60e51b815260206004820152601d60248201527f596f7520617265206e6f7420656c696769626c6520746f20766f74652e00000060448201526064016104fb565b8154815290600101906020018083116108d65750505091835250506002820154602082015260038201546040808301919091526004830154606083015260058301546080830152600683015460a083015260079092015460ff16151560c0909101528101519091501561095b5760405162461bcd60e51b81526004016104fb90611078565b80604001514310156109c55760405162461bcd60e51b815260206004820152602d60248201527f566f74696e6720686173206265656e20646561637469766174656420666f722060448201526c1d1a1a5cc81c1c9bdc1bdcd85b609a1b60648201526084016104fb565b81156109e357606081018051906109db8261105f565b9052506109f7565b608081018051906109f38261105f565b9052505b6040805133815260208101859052831515918101919091527fd356173ae8eeea8691aee4c1be712c314a975a3d43ebc48b08ca54d0dac91228906060016105ff565b610a41610c03565b6001600160a01b038216610aae5760405162461bcd60e51b815260206004820152602e60248201527f416e204e465420636f6c6c656374696f6e2063616e6e6f74206861766520616e60448201526d20656d707479206164647265737360901b60648201526084016104fb565b60035460009081526004602090815260408083208151808301835281546001600160a01b031681526001820180548451818702810187019095528085529194929385840193909290830182828015610b2f57602002820191906000526020600020905b81546001600160a01b03168152600190910190602001808311610b11575b505050919092525050506001600160a01b038416815260208082018490526003546040519081529192507f9f90aaa1d3087c2bda1b0861ea1f4a397f9abbb0fb2ad64794fc4d0b1c9bff34910160405180910390a1600380549060006103cb8361105f565b610b9c610c03565b600155565b610ba9610c03565b600280546001600160a01b038381166001600160a01b031983168117909355604080519190921680825260208201939093527fa77b1597453f945cb89178ec89d7d37698b9f9b07adbbb854775e48131186d25910161063e565b6002546001600160a01b03163314610c8e5760405162461bcd60e51b815260206004820152604260248201527f54686973206d6574686f642063616e206f6e6c792062652063616c6c6564206260448201527f7920746865206f776e6572206f66207468697320736d61727420636f6e74726160648201526118dd60f21b608482015260a4016104fb565b565b5080546000825590600052602060002090810190610cae9190610cb1565b50565b5b80821115610cc65760008155600101610cb2565b5090565b634e487b7160e01b600052604160045260246000fd5b604051601f8201601f1916810167ffffffffffffffff81118282101715610d0957610d09610cca565b604052919050565b60008060408385031215610d2457600080fd5b823567ffffffffffffffff80821115610d3c57600080fd5b818501915085601f830112610d5057600080fd5b8135602082821115610d6457610d64610cca565b610d76601f8301601f19168201610ce0565b92508183528781838601011115610d8c57600080fd5b8181850182850137600091830181019190915290969401359450505050565b600060208284031215610dbd57600080fd5b5035919050565b6000815180845260005b81811015610dea57602081850181015186830182015201610dce565b506000602082860101526020601f19601f83011685010191505092915050565b60006101008a8352806020840152610e248184018b610dc4565b604084019990995250506060810195909552608085019390935260a084019190915260c0830152151560e09091015292915050565b80358015158114610e6957600080fd5b919050565b600060208284031215610e8057600080fd5b610e8982610e59565b9392505050565b60008060408385031215610ea357600080fd5b82359150610eb360208401610e59565b90509250929050565b80356001600160a01b0381168114610e6957600080fd5b60008060408385031215610ee657600080fd5b610eef83610ebc565b915060208084013567ffffffffffffffff80821115610f0d57600080fd5b818601915086601f830112610f2157600080fd5b813581811115610f3357610f33610cca565b8060051b9150610f44848301610ce0565b8181529183018401918481019089841115610f5e57600080fd5b938501935b83851015610f8357610f7485610ebc565b82529385019390850190610f63565b8096505050505050509250929050565b600060208284031215610fa557600080fd5b610e8982610ebc565b600181811c90821680610fc257607f821691505b602082108103610fe257634e487b7160e01b600052602260045260246000fd5b50919050565b634e487b7160e01b600052601160045260246000fd5b808202811582820484141761101557611015610fe8565b92915050565b8082018082111561101557611015610fe8565b8381526060602082015260006110476060830185610dc4565b905060018060a01b0383166040830152949350505050565b60006001820161107157611071610fe8565b5060010190565b60208082526025908201527f546865207265717565737465642070726f706f73616c20646f6573206e6f7420604082015264195e1a5cdd60da1b60608201526080019056fea264697066735822122099b0fbffadc2c1b93b9bd88915d89587a7069528fce87506f7c220173727840a64736f6c63430008130033",
    "sourcePath": "c:/Users/Prince/source/repos/Peng_Protocol/dexhune/contracts/DexhunePriceDAO.sol",
    "compiler": {
        "name": "solc",
        "version": "0.8.19+commit.7dd6d404"
    },
    "functionHashes": {
        "PriceProposals(uint256)": "605c736e",
        "addNFTCollection(address,address[])": "befd9bc1",
        "castPriceVote(uint256,bool)": "9d6a6d5d",
        "collections(uint256)": "fdbda0ec",
        "cooldownTimeout()": "bbf79246",
        "finalizePriceProposal(uint256)": "5a05db15",
        "getPrice()": "98d5fdca",
        "owner()": "8da5cb5b",
        "proposePrice(string,uint256)": "1068779e",
        "removeNFTCollection(uint256)": "8b98ecaa",
        "setCooldownTimeout(uint256)": "c2d52751",
        "setTransferTimeout(bool)": "7c14a418",
        "transferCooldown()": "68f16293",
        "transferOwnership(address)": "f2fde38b"
    },
    "gasEstimates": {
        "creation": {
            "codeDepositCost": "867800",
            "executionCost": "71568",
            "totalCost": "939368"
        },
        "external": {
            "PriceProposals(uint256)": "infinite",
            "addNFTCollection(address,address[])": "infinite",
            "castPriceVote(uint256,bool)": "469",
            "collections(uint256)": "2565",
            "cooldownTimeout()": "2362",
            "finalizePriceProposal(uint256)": "infinite",
            "getPrice()": "2304",
            "owner()": "2426",
            "proposePrice(string,uint256)": "infinite",
            "removeNFTCollection(uint256)": "infinite",
            "setCooldownTimeout(uint256)": "24532",
            "setTransferTimeout(bool)": "26738",
            "transferCooldown()": "2333",
            "transferOwnership(address)": "28163"
        },
        "internal": {
            "ensureEligible()": "infinite"
        }
    }
}