{
  "_format": "hh-sol-artifact-1",
  "contractName": "DexhuneTokenRoot",
  "sourceName": "contracts/DexhuneTokenRoot.sol",
  "abi": [
    {
      "inputs": [],
      "stateMutability": "nonpayable",
      "type": "constructor"
    },
    {
      "inputs": [
        {
          "internalType": "address",
          "name": "addr",
          "type": "address"
        },
        {
          "internalType": "int128",
          "name": "balance",
          "type": "int128"
        }
      ],
      "name": "InvalidBalance",
      "type": "error"
    },
    {
      "inputs": [],
      "name": "MintLimitReached",
      "type": "error"
    },
    {
      "inputs": [
        {
          "internalType": "uint256",
          "name": "timeRemaining",
          "type": "uint256"
        }
      ],
      "name": "MintedTooEarly",
      "type": "error"
    },
    {
      "inputs": [
        {
          "internalType": "address",
          "name": "account",
          "type": "address"
        }
      ],
      "name": "UnauthorizedAccount",
      "type": "error"
    },
    {
      "inputs": [],
      "name": "mint",
      "outputs": [],
      "stateMutability": "nonpayable",
      "type": "function"
    },
    {
      "inputs": [],
      "name": "mintToDao",
      "outputs": [],
      "stateMutability": "nonpayable",
      "type": "function"
    },
    {
      "inputs": [],
      "name": "mintToExchange",
      "outputs": [],
      "stateMutability": "nonpayable",
      "type": "function"
    },
    {
      "inputs": [
        {
          "internalType": "address",
          "name": "addr",
          "type": "address"
        }
      ],
      "name": "setDaoAddress",
      "outputs": [],
      "stateMutability": "nonpayable",
      "type": "function"
    },
    {
      "inputs": [
        {
          "internalType": "address",
          "name": "addr",
          "type": "address"
        }
      ],
      "name": "setExchangeAddress",
      "outputs": [],
      "stateMutability": "nonpayable",
      "type": "function"
    }
  ],
  "bytecode": "0x60806040526000600660006101000a8154816fffffffffffffffffffffffffffffffff0219169083600f0b6fffffffffffffffffffffffffffffffff1602179055506000600660106101000a81548161ffff021916908360010b61ffff16021790555060006007556000600855600060095534801561007d57600080fd5b50336000806101000a81548173ffffffffffffffffffffffffffffffffffffffff021916908373ffffffffffffffffffffffffffffffffffffffff160217905550610cff806100cd6000396000f3fe608060405234801561001057600080fd5b50600436106100575760003560e01c80631249c58b1461005c5780633808721d146100665780636f01f40e146100705780639a3cac6a1461007a578063d082ea8c14610096575b600080fd5b6100646100b2565b005b61006e6101f8565b005b61007861031d565b005b610094600480360381019061008f9190610a54565b610441565b005b6100b060048036038101906100ab9190610a54565b61048d565b005b610e4260010b600660109054906101000a900460010b60010b12610102576040517f303b682f00000000000000000000000000000000000000000000000000000000815260040160405180910390fd5b600754421015610156576007544261011a9190610aba565b6040517ff461f5dd00000000000000000000000000000000000000000000000000000000815260040161014d9190610afd565b60405180910390fd5b6205460063ffffffff164261016b9190610b18565b6007819055506000600660009054906101000a9004600f0b9050600061019282600c6104d9565b905061019d81610503565b80600660008282829054906101000a9004600f0b6101bb9190610b59565b92506101000a8154816fffffffffffffffffffffffffffffffff0219169083600f0b6fffffffffffffffffffffffffffffffff1602179055505050565b60085442101561024c57600854426102109190610aba565b6040517ff461f5dd0000000000000000000000000000000000000000000000000000000081526004016102439190610afd565b60405180910390fd5b6201518063ffffffff16426102619190610b18565b600881905550600060056000600160009054906101000a900473ffffffffffffffffffffffffffffffffffffffff1673ffffffffffffffffffffffffffffffffffffffff1673ffffffffffffffffffffffffffffffffffffffff16815260200190815260200160002060009054906101000a9004600f0b905062155cc060030b816102ec9190610b59565b905061031a600160009054906101000a900473ffffffffffffffffffffffffffffffffffffffff1682610672565b50565b60095442101561037157600954426103359190610aba565b6040517ff461f5dd0000000000000000000000000000000000000000000000000000000081526004016103689190610afd565b60405180910390fd5b6201518063ffffffff16426103869190610b18565b600981905550600060056000600260009054906101000a900473ffffffffffffffffffffffffffffffffffffffff1673ffffffffffffffffffffffffffffffffffffffff1673ffffffffffffffffffffffffffffffffffffffff16815260200190815260200160002060009054906101000a9004600f0b905061168060030b816104109190610b59565b905061043e600260009054906101000a900473ffffffffffffffffffffffffffffffffffffffff1682610672565b50565b61044961086b565b80600260006101000a81548173ffffffffffffffffffffffffffffffffffffffff021916908373ffffffffffffffffffffffffffffffffffffffff16021790555050565b61049561086b565b80600160006101000a81548173ffffffffffffffffffffffffffffffffffffffff021916908373ffffffffffffffffffffffffffffffffffffffff16021790555050565b6000806104e9848460000b6108fd565b90506104f781612710610968565b90508091505092915050565b60008060008060005b60048054905081101561066a576004818154811061052d5761052c610bc1565b5b9060005260206000200160009054906101000a900473ffffffffffffffffffffffffffffffffffffffff169450600560008673ffffffffffffffffffffffffffffffffffffffff1673ffffffffffffffffffffffffffffffffffffffff16815260200190815260200160002060009054906101000a9004600f0b93506105c284600660009054906101000a9004600f0b610968565b92506105ce83876108fd565b915081846105dc9190610b59565b935083600560008773ffffffffffffffffffffffffffffffffffffffff1673ffffffffffffffffffffffffffffffffffffffff16815260200190815260200160002060006101000a8154816fffffffffffffffffffffffffffffffff0219169083600f0b6fffffffffffffffffffffffffffffffff160217905550808061066290610bf0565b91505061050c565b505050505050565b600081600f0b12156106bd5781816040517f489b499a0000000000000000000000000000000000000000000000000000000081526004016106b4929190610c56565b60405180910390fd5b600081600f0b036106ec577fffffffffffffffffffffffffffffffffffffffffffffffffffffffffffffffff90505b6000600560008473ffffffffffffffffffffffffffffffffffffffff1673ffffffffffffffffffffffffffffffffffffffff16815260200190815260200160002060009054906101000a9004600f0b9050600081600f0b14801561077257507fffffffffffffffffffffffffffffffffffffffffffffffffffffffffffffffff82600f0b145b1561077d5750610867565b600081600f0b036107ec576004839080600181540180825580915050600190039060005260206000200160009091909190916101000a81548173ffffffffffffffffffffffffffffffffffffffff021916908373ffffffffffffffffffffffffffffffffffffffff1602179055505b81600560008573ffffffffffffffffffffffffffffffffffffffff1673ffffffffffffffffffffffffffffffffffffffff16815260200190815260200160002060006101000a8154816fffffffffffffffffffffffffffffffff0219169083600f0b6fffffffffffffffffffffffffffffffff160217905550505b5050565b60008054906101000a900473ffffffffffffffffffffffffffffffffffffffff1673ffffffffffffffffffffffffffffffffffffffff163373ffffffffffffffffffffffffffffffffffffffff16146108fb57336040517f32b2baa30000000000000000000000000000000000000000000000000000000081526004016108f29190610c7f565b60405180910390fd5b565b600080604083600f0b85600f0b02901d90507fffffffffffffffffffffffffffffffff80000000000000000000000000000000600f0b811215801561095557506f7fffffffffffffffffffffffffffffff600f0b8113155b61095e57600080fd5b8091505092915050565b60008082600f0b0361097957600080fd5b600082600f0b604085600f0b901b8161099557610994610c9a565b5b0590507fffffffffffffffffffffffffffffffff80000000000000000000000000000000600f0b81121580156109de57506f7fffffffffffffffffffffffffffffff600f0b8113155b6109e757600080fd5b8091505092915050565b600080fd5b600073ffffffffffffffffffffffffffffffffffffffff82169050919050565b6000610a21826109f6565b9050919050565b610a3181610a16565b8114610a3c57600080fd5b50565b600081359050610a4e81610a28565b92915050565b600060208284031215610a6a57610a696109f1565b5b6000610a7884828501610a3f565b91505092915050565b6000819050919050565b7f4e487b7100000000000000000000000000000000000000000000000000000000600052601160045260246000fd5b6000610ac582610a81565b9150610ad083610a81565b9250828203905081811115610ae857610ae7610a8b565b5b92915050565b610af781610a81565b82525050565b6000602082019050610b126000830184610aee565b92915050565b6000610b2382610a81565b9150610b2e83610a81565b9250828201905080821115610b4657610b45610a8b565b5b92915050565b600081600f0b9050919050565b6000610b6482610b4c565b9150610b6f83610b4c565b925082820190507fffffffffffffffffffffffffffffffff8000000000000000000000000000000081126f7fffffffffffffffffffffffffffffff82131715610bbb57610bba610a8b565b5b92915050565b7f4e487b7100000000000000000000000000000000000000000000000000000000600052603260045260246000fd5b6000610bfb82610a81565b91507fffffffffffffffffffffffffffffffffffffffffffffffffffffffffffffffff8203610c2d57610c2c610a8b565b5b600182019050919050565b610c4181610a16565b82525050565b610c5081610b4c565b82525050565b6000604082019050610c6b6000830185610c38565b610c786020830184610c47565b9392505050565b6000602082019050610c946000830184610c38565b92915050565b7f4e487b7100000000000000000000000000000000000000000000000000000000600052601260045260246000fdfea2646970667358221220069f2b59fd97ad366275253f3f7c3213014a453f17dce4656e925e3fc13798e164736f6c63430008120033",
  "linkReferences": {},
  "deployedLinkReferences": {}
}