{
  "_format": "hh-sol-artifact-1",
  "contractName": "MockNFT",
  "sourceName": "contracts/mockups/MockNFT.sol",
  "abi": [
    {
      "inputs": [
        {
          "internalType": "address",
          "name": "owner",
          "type": "address"
        }
      ],
      "name": "balanceOf",
      "outputs": [
        {
          "internalType": "uint256",
          "name": "balance",
          "type": "uint256"
        }
      ],
      "stateMutability": "view",
      "type": "function"
    },
    {
      "inputs": [
        {
          "internalType": "address",
          "name": "user",
          "type": "address"
        }
      ],
      "name": "mint",
      "outputs": [],
      "stateMutability": "nonpayable",
      "type": "function"
    }
  ],
  "bytecode": "0x608060405234801561001057600080fd5b506102d8806100206000396000f3fe608060405234801561001057600080fd5b50600436106100365760003560e01c80636a6278421461003b57806370a0823114610057575b600080fd5b610055600480360381019061005091906101ca565b610087565b005b610071600480360381019061006c91906101ca565b61011f565b60405161007e9190610210565b60405180910390f35b60008060008373ffffffffffffffffffffffffffffffffffffffff1673ffffffffffffffffffffffffffffffffffffffff16815260200190815260200160002054905080806100d59061025a565b915050806000808473ffffffffffffffffffffffffffffffffffffffff1673ffffffffffffffffffffffffffffffffffffffff168152602001908152602001600020819055505050565b60008060008373ffffffffffffffffffffffffffffffffffffffff1673ffffffffffffffffffffffffffffffffffffffff168152602001908152602001600020549050919050565b600080fd5b600073ffffffffffffffffffffffffffffffffffffffff82169050919050565b60006101978261016c565b9050919050565b6101a78161018c565b81146101b257600080fd5b50565b6000813590506101c48161019e565b92915050565b6000602082840312156101e0576101df610167565b5b60006101ee848285016101b5565b91505092915050565b6000819050919050565b61020a816101f7565b82525050565b60006020820190506102256000830184610201565b92915050565b7f4e487b7100000000000000000000000000000000000000000000000000000000600052601160045260246000fd5b6000610265826101f7565b91507fffffffffffffffffffffffffffffffffffffffffffffffffffffffffffffffff82036102975761029661022b565b5b60018201905091905056fea26469706673582212201f50293feeb1deab1c1c51937d2863945e31230eb3f4ed13341926bece7bd7df64736f6c63430008120033",
  "linkReferences": {},
  "deployedLinkReferences": {}
}