{
  "_format": "hh-sol-artifact-1",
  "contractName": "DexhuneExchange",
  "sourceName": "contracts/DexhuneExchange.sol",
  "abi": [
    {
      "inputs": [],
      "stateMutability": "nonpayable",
      "type": "constructor"
    },
    {
      "inputs": [],
      "name": "DepositFailed",
      "type": "error"
    },
    {
      "inputs": [],
      "name": "FailedStringToNumberConversion",
      "type": "error"
    },
    {
      "inputs": [],
      "name": "FailedToSendReward",
      "type": "error"
    },
    {
      "inputs": [],
      "name": "FailedToTakeOrder",
      "type": "error"
    },
    {
      "inputs": [
        {
          "internalType": "uint256",
          "name": "balance",
          "type": "uint256"
        }
      ],
      "name": "InsufficientBalance",
      "type": "error"
    },
    {
      "inputs": [
        {
          "internalType": "uint256",
          "name": "listingPrice",
          "type": "uint256"
        }
      ],
      "name": "InsufficientBalanceForListing",
      "type": "error"
    },
    {
      "inputs": [],
      "name": "InvalidTokenContract",
      "type": "error"
    },
    {
      "inputs": [],
      "name": "NoSuitableOrderFound",
      "type": "error"
    },
    {
      "inputs": [],
      "name": "OnlyOwnerMustSetDefaultToken",
      "type": "error"
    },
    {
      "inputs": [],
      "name": "OrderDoesNotExist",
      "type": "error"
    },
    {
      "inputs": [],
      "name": "OrderLimitReachedTryLater",
      "type": "error"
    },
    {
      "inputs": [
        {
          "internalType": "uint256",
          "name": "x",
          "type": "uint256"
        },
        {
          "internalType": "uint256",
          "name": "y",
          "type": "uint256"
        }
      ],
      "name": "PRBMath_MulDiv18_Overflow",
      "type": "error"
    },
    {
      "inputs": [
        {
          "internalType": "uint256",
          "name": "x",
          "type": "uint256"
        },
        {
          "internalType": "uint256",
          "name": "y",
          "type": "uint256"
        },
        {
          "internalType": "uint256",
          "name": "denominator",
          "type": "uint256"
        }
      ],
      "name": "PRBMath_MulDiv_Overflow",
      "type": "error"
    },
    {
      "inputs": [],
      "name": "ParityShouldNotHavePrice",
      "type": "error"
    },
    {
      "inputs": [
        {
          "internalType": "address",
          "name": "contractAddr",
          "type": "address"
        }
      ],
      "name": "TokenAlreadyExists",
      "type": "error"
    },
    {
      "inputs": [],
      "name": "TokenLimitReached",
      "type": "error"
    },
    {
      "inputs": [],
      "name": "TokenNotListed",
      "type": "error"
    },
    {
      "inputs": [],
      "name": "TokenNotSupported_TooManyDecimals",
      "type": "error"
    },
    {
      "inputs": [
        {
          "internalType": "address",
          "name": "account",
          "type": "address"
        }
      ],
      "name": "UnauthorizedAccount",
      "type": "error"
    },
    {
      "anonymous": false,
      "inputs": [
        {
          "indexed": false,
          "internalType": "address",
          "name": "oldOwner",
          "type": "address"
        },
        {
          "indexed": false,
          "internalType": "address",
          "name": "newOwner",
          "type": "address"
        }
      ],
      "name": "TransferredOwnership",
      "type": "event"
    },
    {
      "inputs": [
        {
          "internalType": "address",
          "name": "addr",
          "type": "address"
        }
      ],
      "name": "assignPriceDao",
      "outputs": [],
      "stateMutability": "nonpayable",
      "type": "function"
    },
    {
      "inputs": [],
      "name": "clearOrders",
      "outputs": [],
      "stateMutability": "nonpayable",
      "type": "function"
    },
    {
      "inputs": [
        {
          "internalType": "address",
          "name": "tokenAddr",
          "type": "address"
        }
      ],
      "name": "createBuyOrder",
      "outputs": [],
      "stateMutability": "payable",
      "type": "function"
    },
    {
      "inputs": [
        {
          "internalType": "address",
          "name": "tokenAddr",
          "type": "address"
        },
        {
          "internalType": "uint256",
          "name": "amount",
          "type": "uint256"
        }
      ],
      "name": "createSellOrder",
      "outputs": [],
      "stateMutability": "nonpayable",
      "type": "function"
    },
    {
      "inputs": [
        {
          "internalType": "address",
          "name": "tokenAddr",
          "type": "address"
        }
      ],
      "name": "deposit",
      "outputs": [],
      "stateMutability": "payable",
      "type": "function"
    },
    {
      "inputs": [
        {
          "internalType": "address",
          "name": "tokenAddr",
          "type": "address"
        },
        {
          "internalType": "uint256",
          "name": "amount",
          "type": "uint256"
        }
      ],
      "name": "depositToken",
      "outputs": [],
      "stateMutability": "nonpayable",
      "type": "function"
    },
    {
      "inputs": [
        {
          "internalType": "address",
          "name": "tokenAddr",
          "type": "address"
        },
        {
          "internalType": "address",
          "name": "fromAddress",
          "type": "address"
        },
        {
          "internalType": "uint256",
          "name": "amount",
          "type": "uint256"
        }
      ],
      "name": "depositTokenFrom",
      "outputs": [],
      "stateMutability": "nonpayable",
      "type": "function"
    },
    {
      "inputs": [],
      "name": "getBalance",
      "outputs": [
        {
          "internalType": "uint256",
          "name": "",
          "type": "uint256"
        }
      ],
      "stateMutability": "view",
      "type": "function"
    },
    {
      "inputs": [
        {
          "internalType": "address",
          "name": "tokenAddr",
          "type": "address"
        },
        {
          "internalType": "enum DexhuneExchangeBase.PricingScheme",
          "name": "scheme",
          "type": "uint8"
        },
        {
          "internalType": "uint256",
          "name": "reward",
          "type": "uint256"
        },
        {
          "internalType": "uint256",
          "name": "rewardThreshold",
          "type": "uint256"
        },
        {
          "internalType": "address",
          "name": "parityAddr",
          "type": "address"
        },
        {
          "internalType": "string",
          "name": "price",
          "type": "string"
        }
      ],
      "name": "listToken",
      "outputs": [],
      "stateMutability": "nonpayable",
      "type": "function"
    },
    {
      "inputs": [],
      "name": "listingCost",
      "outputs": [
        {
          "internalType": "uint256",
          "name": "",
          "type": "uint256"
        }
      ],
      "stateMutability": "view",
      "type": "function"
    },
    {
      "inputs": [],
      "name": "owner",
      "outputs": [
        {
          "internalType": "address",
          "name": "",
          "type": "address"
        }
      ],
      "stateMutability": "view",
      "type": "function"
    },
    {
      "inputs": [
        {
          "internalType": "address",
          "name": "tokenAddr",
          "type": "address"
        },
        {
          "internalType": "bool",
          "name": "isAVAX",
          "type": "bool"
        }
      ],
      "name": "queryBalance",
      "outputs": [
        {
          "internalType": "uint256",
          "name": "",
          "type": "uint256"
        }
      ],
      "stateMutability": "view",
      "type": "function"
    },
    {
      "inputs": [
        {
          "internalType": "address",
          "name": "tokenAddr",
          "type": "address"
        },
        {
          "internalType": "bool",
          "name": "orderType",
          "type": "bool"
        }
      ],
      "name": "settleOrders",
      "outputs": [],
      "stateMutability": "nonpayable",
      "type": "function"
    },
    {
      "inputs": [
        {
          "internalType": "address",
          "name": "tokenAddr",
          "type": "address"
        },
        {
          "internalType": "uint256",
          "name": "amount",
          "type": "uint256"
        }
      ],
      "name": "takeBuyOrder",
      "outputs": [],
      "stateMutability": "nonpayable",
      "type": "function"
    },
    {
      "inputs": [
        {
          "internalType": "address",
          "name": "tokenAddr",
          "type": "address"
        }
      ],
      "name": "takeSellOrder",
      "outputs": [],
      "stateMutability": "payable",
      "type": "function"
    },
    {
      "inputs": [
        {
          "internalType": "address",
          "name": "_address",
          "type": "address"
        }
      ],
      "name": "transferOwnership",
      "outputs": [],
      "stateMutability": "nonpayable",
      "type": "function"
    },
    {
      "inputs": [
        {
          "internalType": "address",
          "name": "tokenAddr",
          "type": "address"
        },
        {
          "internalType": "uint256",
          "name": "index",
          "type": "uint256"
        }
      ],
      "name": "viewOrder",
      "outputs": [
        {
          "components": [
            {
              "internalType": "address payable",
              "name": "makerAddr",
              "type": "address"
            },
            {
              "internalType": "address",
              "name": "tokenAddr",
              "type": "address"
            },
            {
              "internalType": "bool",
              "name": "orderType",
              "type": "bool"
            },
            {
              "internalType": "uint256",
              "name": "created",
              "type": "uint256"
            },
            {
              "internalType": "uint256",
              "name": "rewardAmount",
              "type": "uint256"
            },
            {
              "internalType": "uint256",
              "name": "price",
              "type": "uint256"
            },
            {
              "internalType": "uint256",
              "name": "principal",
              "type": "uint256"
            },
            {
              "internalType": "uint256",
              "name": "pending",
              "type": "uint256"
            }
          ],
          "internalType": "struct DexhuneExchangeBase.Order",
          "name": "",
          "type": "tuple"
        }
      ],
      "stateMutability": "view",
      "type": "function"
    },
    {
      "inputs": [],
      "name": "viewPrice",
      "outputs": [
        {
          "internalType": "uint256",
          "name": "",
          "type": "uint256"
        }
      ],
      "stateMutability": "view",
      "type": "function"
    },
    {
      "inputs": [
        {
          "internalType": "address",
          "name": "tokenAddr",
          "type": "address"
        }
      ],
      "name": "viewToken",
      "outputs": [
        {
          "components": [
            {
              "internalType": "uint256",
              "name": "tokenNo",
              "type": "uint256"
            },
            {
              "internalType": "string",
              "name": "name",
              "type": "string"
            },
            {
              "internalType": "string",
              "name": "sym",
              "type": "string"
            },
            {
              "internalType": "address",
              "name": "addr",
              "type": "address"
            },
            {
              "internalType": "address",
              "name": "parityAddr",
              "type": "address"
            },
            {
              "internalType": "uint256",
              "name": "reward",
              "type": "uint256"
            },
            {
              "internalType": "uint256",
              "name": "rewardThreshold",
              "type": "uint256"
            },
            {
              "internalType": "enum DexhuneExchangeBase.PricingScheme",
              "name": "scheme",
              "type": "uint8"
            },
            {
              "internalType": "uint256",
              "name": "price",
              "type": "uint256"
            },
            {
              "internalType": "uint256",
              "name": "orders",
              "type": "uint256"
            }
          ],
          "internalType": "struct DexhuneExchangeBase.TokenDataModel",
          "name": "",
          "type": "tuple"
        }
      ],
      "stateMutability": "view",
      "type": "function"
    },
    {
      "inputs": [
        {
          "internalType": "uint256",
          "name": "tokenNo",
          "type": "uint256"
        }
      ],
      "name": "viewTokenByIndex",
      "outputs": [
        {
          "components": [
            {
              "internalType": "uint256",
              "name": "tokenNo",
              "type": "uint256"
            },
            {
              "internalType": "string",
              "name": "name",
              "type": "string"
            },
            {
              "internalType": "string",
              "name": "sym",
              "type": "string"
            },
            {
              "internalType": "address",
              "name": "addr",
              "type": "address"
            },
            {
              "internalType": "address",
              "name": "parityAddr",
              "type": "address"
            },
            {
              "internalType": "uint256",
              "name": "reward",
              "type": "uint256"
            },
            {
              "internalType": "uint256",
              "name": "rewardThreshold",
              "type": "uint256"
            },
            {
              "internalType": "enum DexhuneExchangeBase.PricingScheme",
              "name": "scheme",
              "type": "uint8"
            },
            {
              "internalType": "uint256",
              "name": "price",
              "type": "uint256"
            },
            {
              "internalType": "uint256",
              "name": "orders",
              "type": "uint256"
            }
          ],
          "internalType": "struct DexhuneExchangeBase.TokenDataModel",
          "name": "",
          "type": "tuple"
        }
      ],
      "stateMutability": "view",
      "type": "function"
    }
  ],
  "bytecode": "0x60806040526103e860015534801561001657600080fd5b50336000806101000a81548173ffffffffffffffffffffffffffffffffffffffff021916908373ffffffffffffffffffffffffffffffffffffffff160217905550615225806100666000396000f3fe60806040526004361061011f5760003560e01c8063a08b5bba116100a0578063d298006511610064578063d2980065146103c2578063d7dcdcec146103de578063db34a67914610409578063f2fde38b14610432578063f340fa011461045b5761011f565b8063a08b5bba146102f3578063a262b73f1461031c578063a5b6f92a14610345578063adcd91b214610370578063c201e47c146103995761011f565b8063673cf82a116100e7578063673cf82a1461022f5780636daf69451461026c5780638da5cb5b1461028857806392e6b829146102b35780639351769f146102dc5761011f565b806312065fe0146101245780631746ccc01461014f5780631f5d26411461018c578063338b5dea146101c95780633b174f0f146101f2575b600080fd5b34801561013057600080fd5b50610139610477565b60405161014691906140fa565b60405180910390f35b34801561015b57600080fd5b50610176600480360381019061017191906141b3565b61047f565b60405161018391906142ef565b60405180910390f35b34801561019857600080fd5b506101b360048036038101906101ae919061430b565b610660565b6040516101c09190614520565b60405180910390f35b3480156101d557600080fd5b506101f060048036038101906101eb91906141b3565b6106b6565b005b3480156101fe57600080fd5b506102196004803603810190610214919061456e565b6106c5565b60405161022691906140fa565b60405180910390f35b34801561023b57600080fd5b50610256600480360381019061025191906145ae565b6106f7565b6040516102639190614520565b60405180910390f35b610286600480360381019061028191906145ae565b610754565b005b34801561029457600080fd5b5061029d6107c6565b6040516102aa91906145ea565b60405180910390f35b3480156102bf57600080fd5b506102da60048036038101906102d5919061475f565b6107ea565b005b3480156102e857600080fd5b506102f1610d2b565b005b3480156102ff57600080fd5b5061031a60048036038101906103159190614808565b611121565b005b34801561032857600080fd5b50610343600480360381019061033e91906141b3565b611131565b005b34801561035157600080fd5b5061035a6111af565b60405161036791906140fa565b60405180910390f35b34801561037c57600080fd5b50610397600480360381019061039291906145ae565b6111b5565b005b3480156103a557600080fd5b506103c060048036038101906103bb919061456e565b611209565b005b6103dc60048036038101906103d791906145ae565b611492565b005b3480156103ea57600080fd5b506103f36114cf565b60405161040091906140fa565b60405180910390f35b34801561041557600080fd5b50610430600480360381019061042b91906141b3565b6114d9565b005b34801561043e57600080fd5b50610459600480360381019061045491906145ae565b61159a565b005b610475600480360381019061047091906145ae565b611665565b005b600047905090565b610487613f17565b6000600560008573ffffffffffffffffffffffffffffffffffffffff1673ffffffffffffffffffffffffffffffffffffffff168152602001908152602001600020905080805490508310610507576040517f5dcaf2d700000000000000000000000000000000000000000000000000000000815260040160405180910390fd5b600081848154811061051c5761051b61485b565b5b9060005260206000200154905060006003828154811061053f5761053e61485b565b5b9060005260206000209060070201604051806101000160405290816000820160009054906101000a900473ffffffffffffffffffffffffffffffffffffffff1673ffffffffffffffffffffffffffffffffffffffff1673ffffffffffffffffffffffffffffffffffffffff1681526020016001820160009054906101000a900473ffffffffffffffffffffffffffffffffffffffff1673ffffffffffffffffffffffffffffffffffffffff1673ffffffffffffffffffffffffffffffffffffffff1681526020016001820160149054906101000a900460ff1615151515815260200160028201548152602001600382015481526020016004820154815260200160058201548152602001600682015481525050905080935050505092915050565b610668613f8a565b60028054905082106106a6576040517fc5f0a1ee00000000000000000000000000000000000000000000000000000000815260040160405180910390fd5b6106af82611696565b9050919050565b6106c1823383611a8e565b5050565b6000806106d184611b01565b905082156106e7578061014001519150506106f1565b8061016001519150505b92915050565b6106ff613f8a565b6000600460008473ffffffffffffffffffffffffffffffffffffffff1673ffffffffffffffffffffffffffffffffffffffff16815260200190815260200160002054905061074c81611696565b915050919050565b6000349050610761613f17565b60008061076e8585611b5e565b809450819550829350505050806107b1576040517f2050d62b00000000000000000000000000000000000000000000000000000000815260040160405180910390fd5b6107bf836000848789611d76565b5050505050565b60008054906101000a900473ffffffffffffffffffffffffffffffffffffffff1681565b60006002805490500361087d5760008054906101000a900473ffffffffffffffffffffffffffffffffffffffff1673ffffffffffffffffffffffffffffffffffffffff163373ffffffffffffffffffffffffffffffffffffffff161461087c576040517fac966a5200000000000000000000000000000000000000000000000000000000815260040160405180910390fd5b5b60008690506000600460008373ffffffffffffffffffffffffffffffffffffffff1673ffffffffffffffffffffffffffffffffffffffff168152602001908152602001600020549050600081141580156108dc57506000600280549050115b1561091e57816040517f15ef3a5700000000000000000000000000000000000000000000000000000000815260040161091591906145ea565b60405180910390fd5b620f42406002805490501061095f576040517f53bb24f900000000000000000000000000000000000000000000000000000000815260040160405180910390fd5b6000606080600080610970876120dc565b80955081965082975083985084995050505050506000806001811115610999576109986143c8565b5b8d60018111156109ac576109ab6143c8565b5b036109bd576109ba8961236d565b90505b600073ffffffffffffffffffffffffffffffffffffffff168a73ffffffffffffffffffffffffffffffffffffffff16141580156109fa5750600081115b15610a31576040517f4f7af06a00000000000000000000000000000000000000000000000000000000815260040160405180910390fd5b610a396123c0565b6000604051806101c001604052808781526020018681526020018560ff1681526020018481526020018a73ffffffffffffffffffffffffffffffffffffffff1681526020018c73ffffffffffffffffffffffffffffffffffffffff1681526020018f6001811115610aad57610aac6143c8565b5b81526020018e81526020018d81526020018381526020016000815260200160008152602001600081526020018873ffffffffffffffffffffffffffffffffffffffff16815250905060028190806001815401808255809150506001900390600052602060002090600d02016000909190919091506000820151816000019081610b369190614a96565b506020820151816001019081610b4c9190614a96565b5060408201518160020160006101000a81548160ff021916908360ff1602179055506060820151816003015560808201518160040160006101000a81548173ffffffffffffffffffffffffffffffffffffffff021916908373ffffffffffffffffffffffffffffffffffffffff16021790555060a08201518160050160006101000a81548173ffffffffffffffffffffffffffffffffffffffff021916908373ffffffffffffffffffffffffffffffffffffffff16021790555060c08201518160050160146101000a81548160ff02191690836001811115610c3157610c306143c8565b5b021790555060e0820151816006015561010082015181600701556101208201518160080155610140820151816009015561016082015181600a015561018082015181600b01556101a082015181600c0160006101000a81548173ffffffffffffffffffffffffffffffffffffffff021916908373ffffffffffffffffffffffffffffffffffffffff16021790555050506001600280549050610cd39190614b97565b60046000836080015173ffffffffffffffffffffffffffffffffffffffff1673ffffffffffffffffffffffffffffffffffffffff16815260200190815260200160002081905550505050505050505050505050505050565b6000600660003373ffffffffffffffffffffffffffffffffffffffff1673ffffffffffffffffffffffffffffffffffffffff1681526020019081526020016000209050600080828054905011905060008082610d88576064610d8b565b60325b9050600080429050610d9b613f17565b600060038054905011610db4575050505050505061111f565b8515610f83576000878054905090505b600081118015610dd45750848611155b15610f7657878181548110610dec57610deb61485b565b5b9060005260206000200154935060038481548110610e0d57610e0c61485b565b5b9060005260206000209060070201604051806101000160405290816000820160009054906101000a900473ffffffffffffffffffffffffffffffffffffffff1673ffffffffffffffffffffffffffffffffffffffff1673ffffffffffffffffffffffffffffffffffffffff1681526020016001820160009054906101000a900473ffffffffffffffffffffffffffffffffffffffff1673ffffffffffffffffffffffffffffffffffffffff1673ffffffffffffffffffffffffffffffffffffffff1681526020016001820160149054906101000a900460ff161515151581526020016002820154815260200160038201548152602001600482015481526020016005820154815260200160068201548152505091506028826060015184610f349190614b97565b1115610f6357610f448285612774565b15610f6257610f53888261282f565b8580610f5e90614bcb565b9650505b5b8080610f6e90614c13565b915050610dc4565b505050505050505061111f565b600060038054905090505b600081118015610f9e5750848611155b156111165760038181548110610fb757610fb661485b565b5b9060005260206000209060070201604051806101000160405290816000820160009054906101000a900473ffffffffffffffffffffffffffffffffffffffff1673ffffffffffffffffffffffffffffffffffffffff1673ffffffffffffffffffffffffffffffffffffffff1681526020016001820160009054906101000a900473ffffffffffffffffffffffffffffffffffffffff1673ffffffffffffffffffffffffffffffffffffffff1673ffffffffffffffffffffffffffffffffffffffff1681526020016001820160149054906101000a900460ff1615151515815260200160028201548152602001600382015481526020016004820154815260200160058201548152602001600682015481525050915060288260600151846110de9190614b97565b1115611103576110ee8285612774565b156111025785806110fe90614bcb565b9650505b5b808061110e90614c13565b915050610f8e565b50505050505050505b565b61112c838383611a8e565b505050565b600061113c83611b01565b905061114e816101a0015133846128b7565b611184576040517f79cacff100000000000000000000000000000000000000000000000000000000815260040160405180910390fd5b8181610160018181516111979190614c3c565b915081815250506111aa8160008461294b565b505050565b60015481565b6111bd613130565b80600960006101000a81548173ffffffffffffffffffffffffffffffffffffffff021916908373ffffffffffffffffffffffffffffffffffffffff1602179055506112066131c2565b50565b600061121483611b01565b9050600060056000836080015173ffffffffffffffffffffffffffffffffffffffff1673ffffffffffffffffffffffffffffffffffffffff1681526020019081526020016000209050611265613f17565b600080856112785784610140015161127f565b8461016001515b90506000848054905090505b60008211801561129b5750600081115b156114665760008582815481106112b5576112b461485b565b5b90600052602060002001549050600381815481106112d6576112d561485b565b5b9060005260206000209060070201604051806101000160405290816000820160009054906101000a900473ffffffffffffffffffffffffffffffffffffffff1673ffffffffffffffffffffffffffffffffffffffff1673ffffffffffffffffffffffffffffffffffffffff1681526020016001820160009054906101000a900473ffffffffffffffffffffffffffffffffffffffff1673ffffffffffffffffffffffffffffffffffffffff1673ffffffffffffffffffffffffffffffffffffffff1681526020016001820160149054906101000a900460ff1615151515815260200160028201548152602001600382015481526020016004820154815260200160058201548152602001600682015481525050945087151585604001511515146114005750611453565b871561141e576114118786856132ab565b8094508195505050611431565b6114288584613357565b80945081955050505b8361143c5750611453565b611446868361282f565b6114516003826133f7565b505b808061145e90614c13565b91505061128b565b50851561147d578085610160018181525050611489565b80856101400181815250505b50505050505050565b600034905060006114a283611b01565b90508181610140018181516114b79190614c3c565b915081815250506114ca8160018461294b565b505050565b6000600754905090565b60006114e483611b01565b90506114ee613f17565b6000806114fb8686611b5e565b8094508195508293505050508061153e576040517f2050d62b00000000000000000000000000000000000000000000000000000000815260040160405180910390fd5b61154e846101a0015187876128b7565b611584576040517f79cacff100000000000000000000000000000000000000000000000000000000815260040160405180910390fd5b61159283600184888a611d76565b505050505050565b6115a2613130565b60008060009054906101000a900473ffffffffffffffffffffffffffffffffffffffff169050816000806101000a81548173ffffffffffffffffffffffffffffffffffffffff021916908373ffffffffffffffffffffffffffffffffffffffff1602179055507f850b3df64837d7d518b45f5aa64d104652c3b80eb5b34a8e3d9eb666cb7cdea58160008054906101000a900473ffffffffffffffffffffffffffffffffffffffff16604051611659929190614c70565b60405180910390a15050565b600061167082611b01565b9050600034905080826101400181815161168a9190614c3c565b91508181525050505050565b61169e613f8a565b6000600283815481106116b4576116b361485b565b5b90600052602060002090600d0201604051806101c00160405290816000820180546116de906148b9565b80601f016020809104026020016040519081016040528092919081815260200182805461170a906148b9565b80156117575780601f1061172c57610100808354040283529160200191611757565b820191906000526020600020905b81548152906001019060200180831161173a57829003601f168201915b50505050508152602001600182018054611770906148b9565b80601f016020809104026020016040519081016040528092919081815260200182805461179c906148b9565b80156117e95780601f106117be576101008083540402835291602001916117e9565b820191906000526020600020905b8154815290600101906020018083116117cc57829003601f168201915b505050505081526020016002820160009054906101000a900460ff1660ff1660ff168152602001600382015481526020016004820160009054906101000a900473ffffffffffffffffffffffffffffffffffffffff1673ffffffffffffffffffffffffffffffffffffffff1673ffffffffffffffffffffffffffffffffffffffff1681526020016005820160009054906101000a900473ffffffffffffffffffffffffffffffffffffffff1673ffffffffffffffffffffffffffffffffffffffff1673ffffffffffffffffffffffffffffffffffffffff1681526020016005820160149054906101000a900460ff1660018111156118ea576118e96143c8565b5b60018111156118fc576118fb6143c8565b5b815260200160068201548152602001600782015481526020016008820154815260200160098201548152602001600a8201548152602001600b8201548152602001600c820160009054906101000a900473ffffffffffffffffffffffffffffffffffffffff1673ffffffffffffffffffffffffffffffffffffffff1673ffffffffffffffffffffffffffffffffffffffff16815250509050600060056000836080015173ffffffffffffffffffffffffffffffffffffffff1673ffffffffffffffffffffffffffffffffffffffff1681526020019081526020016000208054905090506040518061014001604052808581526020018360000151815260200183602001518152602001836080015173ffffffffffffffffffffffffffffffffffffffff1681526020018360a0015173ffffffffffffffffffffffffffffffffffffffff1681526020018360e00151815260200183610100015181526020018360c001516001811115611a7157611a706143c8565b5b815260200183610120015181526020018281525092505050919050565b6000611a9984611b01565b9050611aab816101a0015184846128b7565b611ae1576040517f79cacff100000000000000000000000000000000000000000000000000000000815260040160405180910390fd5b818161016001818151611af49190614c3c565b9150818152505050505050565b611b0961401b565b6000600460008473ffffffffffffffffffffffffffffffffffffffff1673ffffffffffffffffffffffffffffffffffffffff168152602001908152602001600020549050611b568161363f565b915050919050565b6000611b68613f17565b6000611b72613f17565b6000600560008873ffffffffffffffffffffffffffffffffffffffff1673ffffffffffffffffffffffffffffffffffffffff16815260200190815260200160002090506000806000838054905090505b6000811115611d61576000848281548110611be057611bdf61485b565b5b9060005260206000200154905060038181548110611c0157611c0061485b565b5b9060005260206000209060070201604051806101000160405290816000820160009054906101000a900473ffffffffffffffffffffffffffffffffffffffff1673ffffffffffffffffffffffffffffffffffffffff1673ffffffffffffffffffffffffffffffffffffffff1681526020016001820160009054906101000a900473ffffffffffffffffffffffffffffffffffffffff1673ffffffffffffffffffffffffffffffffffffffff1673ffffffffffffffffffffffffffffffffffffffff1681526020016001820160149054906101000a900460ff16151515158152602001600282015481526020016003820154815260200160048201548152602001600582015481526020016006820154815250509550898660e0015103611d2e576001935081925050611d61565b83158015611d405750898660e0015110155b15611d4d57600193508192505b508080611d5990614c13565b915050611bc2565b50818482965096509650505050509250925092565b6000611d8182611b01565b9050600083905085611da157611d9e84836040015160ff1661397e565b90505b60038581548110611db557611db461485b565b5b9060005260206000209060070201604051806101000160405290816000820160009054906101000a900473ffffffffffffffffffffffffffffffffffffffff1673ffffffffffffffffffffffffffffffffffffffff1673ffffffffffffffffffffffffffffffffffffffff1681526020016001820160009054906101000a900473ffffffffffffffffffffffffffffffffffffffff1673ffffffffffffffffffffffffffffffffffffffff1673ffffffffffffffffffffffffffffffffffffffff1681526020016001820160149054906101000a900460ff161515151581526020016002820154815260200160038201548152602001600482015481526020016005820154815260200160068201548152505096506000818860e0015114159050600082905060008960c0015190508215611f17578815611f0557611efe848b60a001516139ab565b9050611f16565b611f13848b60a001516139e2565b90505b5b6000806000808c15611f38578493508592508d600001519150339050611f49565b8593508492503391508d6000015190505b611f59896101a001518285613a19565b611f8f576040517f4de4e1d000000000000000000000000000000000000000000000000000000000815260040160405180910390fd5b611f998285613aab565b611fcf576040517f4de4e1d000000000000000000000000000000000000000000000000000000000815260040160405180910390fd5b838961014001818151611fe29190614b97565b91508181525050828961016001818151611ffc9190614b97565b91508181525050861561204057858e60e00181815161201b9190614b97565b91508181525050848e60c0018181516120349190614b97565b9150818152505061204c565b61204b60038d6133f7565b5b60008960e0015111612066575050505050505050506120d5565b886101000151831015612081575050505050505050506120d5565b612095896101a00151828b60e00151613a19565b6120cb576040517fc96d18b500000000000000000000000000000000000000000000000000000000815260040160405180910390fd5b5050505050505050505b5050505050565b600060608060008060008690506060806000808473ffffffffffffffffffffffffffffffffffffffff166370a08231306040518263ffffffff1660e01b815260040161212891906145ea565b602060405180830381865afa92505050801561216257506040513d601f19601f8201168201806040525081019061215f9190614cae565b60015b612198576040517f29bdfb3400000000000000000000000000000000000000000000000000000000815260040160405180910390fd5b508473ffffffffffffffffffffffffffffffffffffffff1663313ce5676040518163ffffffff1660e01b8152600401602060405180830381865afa92505050801561220157506040513d601f19601f820116820180604052508101906121fe9190614d14565b60015b61220e5760129050612213565b809150505b601260ff168160ff161115612254576040517f432c0a5d00000000000000000000000000000000000000000000000000000000815260040160405180910390fd5b6122608160ff16613b22565b91508473ffffffffffffffffffffffffffffffffffffffff166306fdde036040518163ffffffff1660e01b8152600401600060405180830381865afa9250505080156122cf57506040513d6000823e3d601f19601f820116820180604052508101906122cc9190614db1565b60015b156122d957809450505b8473ffffffffffffffffffffffffffffffffffffffff166395d89b416040518163ffffffff1660e01b8152600401600060405180830381865afa92505050801561234657506040513d6000823e3d601f19601f820116820180604052508101906123439190614db1565b60015b1561235057809350505b848484838599509950995099509950505050505091939590929450565b600080600061237b84613b44565b91509150806123b6576040517fe6f7d2c700000000000000000000000000000000000000000000000000000000815260040160405180910390fd5b8192505050919050565b6000600280549050031561277257600060026000815481106123e5576123e461485b565b5b90600052602060002090600d0201604051806101c001604052908160008201805461240f906148b9565b80601f016020809104026020016040519081016040528092919081815260200182805461243b906148b9565b80156124885780601f1061245d57610100808354040283529160200191612488565b820191906000526020600020905b81548152906001019060200180831161246b57829003601f168201915b505050505081526020016001820180546124a1906148b9565b80601f01602080910402602001604051908101604052809291908181526020018280546124cd906148b9565b801561251a5780601f106124ef5761010080835404028352916020019161251a565b820191906000526020600020905b8154815290600101906020018083116124fd57829003601f168201915b505050505081526020016002820160009054906101000a900460ff1660ff1660ff168152602001600382015481526020016004820160009054906101000a900473ffffffffffffffffffffffffffffffffffffffff1673ffffffffffffffffffffffffffffffffffffffff1673ffffffffffffffffffffffffffffffffffffffff1681526020016005820160009054906101000a900473ffffffffffffffffffffffffffffffffffffffff1673ffffffffffffffffffffffffffffffffffffffff1673ffffffffffffffffffffffffffffffffffffffff1681526020016005820160149054906101000a900460ff16600181111561261b5761261a6143c8565b5b600181111561262d5761262c6143c8565b5b815260200160068201548152602001600782015481526020016008820154815260200160098201548152602001600a8201548152602001600b8201548152602001600c820160009054906101000a900473ffffffffffffffffffffffffffffffffffffffff1673ffffffffffffffffffffffffffffffffffffffff1673ffffffffffffffffffffffffffffffffffffffff168152505090506126d7816101a00151336001546128b7565b61271a576001546040517fca114a0200000000000000000000000000000000000000000000000000000000815260040161271191906140fa565b60405180910390fd5b600154816101600181815161272f9190614c3c565b9150818152505060006103e8600560015461274a9190614dfa565b6127549190614e6b565b905080600160008282546127689190614c3c565b9250508190555050505b565b6000806127848460200151611b01565b90508360400151156127d3576127a284600001518560c00151613aab565b6127b0576000915050612829565b8360c0015181610140018181516127c79190614b97565b91508181525050612818565b6127eb816101a0015185600001518660c00151613a19565b6127f9576000915050612829565b8360c0015181610160018181516128109190614b97565b915081815250505b6128236003846133f7565b60019150505b92915050565b6000600183805490506128429190614b97565b905080821461288b5782818154811061285e5761285d61485b565b5b906000526020600020015483838154811061287c5761287b61485b565b5b90600052602060002001819055505b8280548061289c5761289b614e9c565b5b60019003818190600052602060002001600090559055505050565b60008373ffffffffffffffffffffffffffffffffffffffff166323b872dd8430856040518463ffffffff1660e01b81526004016128f693929190614ecb565b6020604051808303816000875af192505050801561293257506040513d601f19601f8201168201806040525081019061292f9190614f17565b60015b61293f5760009050612944565b809150505b9392505050565b60008060018111156129605761295f6143c8565b5b8460c001516001811115612977576129766143c8565b5b0361299c576129846131c2565b6129956007548561012001516139e2565b9050612e66565b6001808111156129af576129ae6143c8565b5b8460c0015160018111156129c6576129c56143c8565b5b03612e655760008085610180015114806129f1575060f0856101800151426129ee9190614b97565b10155b90508015612e5a5760006002600081548110612a1057612a0f61485b565b5b90600052602060002090600d0201604051806101c0016040529081600082018054612a3a906148b9565b80601f0160208091040260200160405190810160405280929190818152602001828054612a66906148b9565b8015612ab35780601f10612a8857610100808354040283529160200191612ab3565b820191906000526020600020905b815481529060010190602001808311612a9657829003601f168201915b50505050508152602001600182018054612acc906148b9565b80601f0160208091040260200160405190810160405280929190818152602001828054612af8906148b9565b8015612b455780601f10612b1a57610100808354040283529160200191612b45565b820191906000526020600020905b815481529060010190602001808311612b2857829003601f168201915b505050505081526020016002820160009054906101000a900460ff1660ff1660ff168152602001600382015481526020016004820160009054906101000a900473ffffffffffffffffffffffffffffffffffffffff1673ffffffffffffffffffffffffffffffffffffffff1673ffffffffffffffffffffffffffffffffffffffff1681526020016005820160009054906101000a900473ffffffffffffffffffffffffffffffffffffffff1673ffffffffffffffffffffffffffffffffffffffff1673ffffffffffffffffffffffffffffffffffffffff1681526020016005820160149054906101000a900460ff166001811115612c4657612c456143c8565b5b6001811115612c5857612c576143c8565b5b815260200160068201548152602001600782015481526020016008820154815260200160098201548152602001600a8201548152602001600b8201548152602001600c820160009054906101000a900473ffffffffffffffffffffffffffffffffffffffff1673ffffffffffffffffffffffffffffffffffffffff1673ffffffffffffffffffffffffffffffffffffffff168152505090506000866101a0015190506000826101a00151905060008273ffffffffffffffffffffffffffffffffffffffff166370a082318a60a001516040518263ffffffff1660e01b8152600401612d4391906145ea565b602060405180830381865afa158015612d60573d6000803e3d6000fd5b505050506040513d601f19601f82011682018060405250810190612d849190614cae565b905060008273ffffffffffffffffffffffffffffffffffffffff166370a082318b60a001516040518263ffffffff1660e01b8152600401612dc591906145ea565b602060405180830381865afa158015612de2573d6000803e3d6000fd5b505050506040513d601f19601f82011682018060405250810190612e069190614cae565b9050612e19828b6040015160ff1661397e565b9150612e2c81866040015160ff1661397e565b9050612e3881836139e2565b9650868a610120018181525050428a6101800181815250505050505050612e63565b84610120015191505b505b5b60008315612e8f57612e88612e8284876040015160ff1661397e565b836139e2565b9050612eac565b612ea9612ea384876040015160ff1661397e565b836139ab565b90505b60008561010001518310612ec2578560e0015190505b60006040518061010001604052803373ffffffffffffffffffffffffffffffffffffffff168152602001886080015173ffffffffffffffffffffffffffffffffffffffff1681526020018715158152602001428152602001838152602001858152602001868152602001848152509050600381908060018154018082558091505060019003906000526020600020906007020160009091909190915060008201518160000160006101000a81548173ffffffffffffffffffffffffffffffffffffffff021916908373ffffffffffffffffffffffffffffffffffffffff16021790555060208201518160010160006101000a81548173ffffffffffffffffffffffffffffffffffffffff021916908373ffffffffffffffffffffffffffffffffffffffff16021790555060408201518160010160146101000a81548160ff021916908315150217905550606082015181600201556080820151816003015560a0820151816004015560c0820151816005015560e082015181600601555050600060016003805490506130549190614b97565b9050600660003373ffffffffffffffffffffffffffffffffffffffff1673ffffffffffffffffffffffffffffffffffffffff16815260200190815260200160002081908060018154018082558091505060019003906000526020600020016000909190919091505560056000896080015173ffffffffffffffffffffffffffffffffffffffff1673ffffffffffffffffffffffffffffffffffffffff1681526020019081526020016000208190806001815401808255809150506001900390600052602060002001600090919091909150555050505050505050565b60008054906101000a900473ffffffffffffffffffffffffffffffffffffffff1673ffffffffffffffffffffffffffffffffffffffff163373ffffffffffffffffffffffffffffffffffffffff16146131c057336040517f32b2baa30000000000000000000000000000000000000000000000000000000081526004016131b791906145ea565b60405180910390fd5b565b6000600854141580156131e2575060f0600854426131e09190614b97565b105b6132a9576000600960009054906101000a900473ffffffffffffffffffffffffffffffffffffffff1673ffffffffffffffffffffffffffffffffffffffff166398d5fdca6040518163ffffffff1660e01b8152600401600060405180830381865afa158015613255573d6000803e3d6000fd5b505050506040513d6000823e3d601f19601f8201168201806040525081019061327e9190614db1565b905060008061328c83613b44565b91509150801561329e57816007819055505b426008819055505050505b565b6000806000808560e001518510905080156132c8578491506132d0565b8560e0015191505b6132e4876101a00151876000015184613a19565b156133375781856132f59190614b97565b9450801561333257818660e00181815161330f9190614b97565b915081815250506133288660e001518760a001516139ab565b8660c00181815250505b613345565b60008593509350505061334f565b8015859350935050505b935093915050565b6000806000808560e001518510905080156133745784915061337c565b8560e0015191505b61338a866000015183613aab565b156133e657818561339b9190614b97565b945080156133d857818660e0018181516133b59190614b97565b915081815250506133ce8660e001518760a001516139e2565b8660c00181815250505b6001859350935050506133f0565b6000859350935050505b9250929050565b60006001838054905061340a9190614b97565b9050808214613586578281815481106134265761342561485b565b5b90600052602060002090600702018383815481106134475761344661485b565b5b90600052602060002090600702016000820160009054906101000a900473ffffffffffffffffffffffffffffffffffffffff168160000160006101000a81548173ffffffffffffffffffffffffffffffffffffffff021916908373ffffffffffffffffffffffffffffffffffffffff1602179055506001820160009054906101000a900473ffffffffffffffffffffffffffffffffffffffff168160010160006101000a81548173ffffffffffffffffffffffffffffffffffffffff021916908373ffffffffffffffffffffffffffffffffffffffff1602179055506001820160149054906101000a900460ff168160010160146101000a81548160ff02191690831515021790555060028201548160020155600382015481600301556004820154816004015560058201548160050155600682015481600601559050505b8280548061359757613596614e9c565b5b6001900381819060005260206000209060070201600080820160006101000a81549073ffffffffffffffffffffffffffffffffffffffff02191690556001820160006101000a81549073ffffffffffffffffffffffffffffffffffffffff02191690556001820160146101000a81549060ff02191690556002820160009055600382016000905560048201600090556005820160009055600682016000905550509055505050565b61364761401b565b6002805490508210613685576040517fc5f0a1ee00000000000000000000000000000000000000000000000000000000815260040160405180910390fd5b600282815481106136995761369861485b565b5b90600052602060002090600d0201604051806101c00160405290816000820180546136c3906148b9565b80601f01602080910402602001604051908101604052809291908181526020018280546136ef906148b9565b801561373c5780601f106137115761010080835404028352916020019161373c565b820191906000526020600020905b81548152906001019060200180831161371f57829003601f168201915b50505050508152602001600182018054613755906148b9565b80601f0160208091040260200160405190810160405280929190818152602001828054613781906148b9565b80156137ce5780601f106137a3576101008083540402835291602001916137ce565b820191906000526020600020905b8154815290600101906020018083116137b157829003601f168201915b505050505081526020016002820160009054906101000a900460ff1660ff1660ff168152602001600382015481526020016004820160009054906101000a900473ffffffffffffffffffffffffffffffffffffffff1673ffffffffffffffffffffffffffffffffffffffff1673ffffffffffffffffffffffffffffffffffffffff1681526020016005820160009054906101000a900473ffffffffffffffffffffffffffffffffffffffff1673ffffffffffffffffffffffffffffffffffffffff1673ffffffffffffffffffffffffffffffffffffffff1681526020016005820160149054906101000a900460ff1660018111156138cf576138ce6143c8565b5b60018111156138e1576138e06143c8565b5b815260200160068201548152602001600782015481526020016008820154815260200160098201548152602001600a8201548152602001600b8201548152602001600c820160009054906101000a900473ffffffffffffffffffffffffffffffffffffffff1673ffffffffffffffffffffffffffffffffffffffff1673ffffffffffffffffffffffffffffffffffffffff16815250509050919050565b6000600182146139a15761399182613b22565b8361399c9190614dfa565b6139a3565b825b905092915050565b6000806139b784613c9e565b905060006139c484613c9e565b90506139d86139d38383613ca8565b613cd4565b9250505092915050565b6000806139ee84613c9e565b905060006139fb84613c9e565b9050613a0f613a0a8383613cde565b613cd4565b9250505092915050565b60008373ffffffffffffffffffffffffffffffffffffffff1663a9059cbb84846040518363ffffffff1660e01b8152600401613a56929190614f44565b6020604051808303816000875af1925050508015613a9257506040513d601f19601f82011682018060405250810190613a8f9190614f17565b60015b613a9f5760009050613aa4565b809150505b9392505050565b6000808373ffffffffffffffffffffffffffffffffffffffff1683604051613ad290614f9e565b60006040518083038185875af1925050503d8060008114613b0f576040519150601f19603f3d011682016040523d82523d6000602084013e613b14565b606091505b505090508091505092915050565b600060128203613b355760019050613b3f565b81601203600a0a90505b919050565b60008060008060008590506000806000806000905060005b855181108015613b6a575083155b15613c6e57858181518110613b8257613b8161485b565b5b602001015160f81c60f81b60f81c945060308560ff1610158015613baa575060398560ff1611155b15613c21578697508215613bcb578180613bc390614fb3565b925050613bdb565b600a87613bd89190614dfa565b96505b81600a613be8919061510f565b603086613bf5919061515a565b60ff16613c029190614dfa565b87613c0d9190614c3c565b965086881115613c1c57600193505b613c5b565b602e8560ff1603613c5a578215613c3757600193505b600192506012915081600a613c4c919061510f565b87613c579190614dfa565b96505b5b8080613c6690614bcb565b915050613b5c565b5081613c8b57670de0b6b3a764000086613c889190614dfa565b95505b8583159850985050505050505050915091565b6000819050919050565b6000613ccc613cc7613cb985613cd4565b613cc285613cd4565b613d13565b613c9e565b905092915050565b6000819050919050565b6000613d0b613d06613cef85613cd4565b670de0b6b3a7640000613d0186613cd4565b613dfd565b613c9e565b905092915050565b6000806000801984860984860292508281108382030391505060008103613d5657670de0b6b3a76400008281613d4c57613d4b614e3c565b5b0492505050613df7565b670de0b6b3a76400008110613da45784846040517f5173648d000000000000000000000000000000000000000000000000000000008152600401613d9b92919061518f565b60405180910390fd5b6000670de0b6b3a764000085870990507faccb18165bd6fe31ae1cf318dc5b51eee0e1ba569b88cd74c1773b91fac106696001620400008060000304018483118403026204000083860304170293505050505b92915050565b6000806000801985870985870292508281108382030391505060008103613e3857838281613e2e57613e2d614e3c565b5b0492505050613f10565b838110613e80578585856040517f63a05778000000000000000000000000000000000000000000000000000000008152600401613e77939291906151b8565b60405180910390fd5b60008486880990508281118203915080830392506000600186190186169050600081870496508185049450600182836000030401905080840285179450600060028860030218905080880260020381029050808802600203810290508088026002038102905080880260020381029050808802600203810290508088026002038102905080860296505050505050505b9392505050565b604051806101000160405280600073ffffffffffffffffffffffffffffffffffffffff168152602001600073ffffffffffffffffffffffffffffffffffffffff16815260200160001515815260200160008152602001600081526020016000815260200160008152602001600081525090565b604051806101400160405280600081526020016060815260200160608152602001600073ffffffffffffffffffffffffffffffffffffffff168152602001600073ffffffffffffffffffffffffffffffffffffffff168152602001600081526020016000815260200160006001811115614007576140066143c8565b5b815260200160008152602001600081525090565b604051806101c001604052806060815260200160608152602001600060ff16815260200160008152602001600073ffffffffffffffffffffffffffffffffffffffff168152602001600073ffffffffffffffffffffffffffffffffffffffff16815260200160006001811115614094576140936143c8565b5b8152602001600081526020016000815260200160008152602001600081526020016000815260200160008152602001600073ffffffffffffffffffffffffffffffffffffffff1681525090565b6000819050919050565b6140f4816140e1565b82525050565b600060208201905061410f60008301846140eb565b92915050565b6000604051905090565b600080fd5b600080fd5b600073ffffffffffffffffffffffffffffffffffffffff82169050919050565b600061415482614129565b9050919050565b61416481614149565b811461416f57600080fd5b50565b6000813590506141818161415b565b92915050565b614190816140e1565b811461419b57600080fd5b50565b6000813590506141ad81614187565b92915050565b600080604083850312156141ca576141c961411f565b5b60006141d885828601614172565b92505060206141e98582860161419e565b9150509250929050565b60006141fe82614129565b9050919050565b61420e816141f3565b82525050565b61421d81614149565b82525050565b60008115159050919050565b61423881614223565b82525050565b614247816140e1565b82525050565b610100820160008201516142646000850182614205565b5060208201516142776020850182614214565b50604082015161428a604085018261422f565b50606082015161429d606085018261423e565b5060808201516142b0608085018261423e565b5060a08201516142c360a085018261423e565b5060c08201516142d660c085018261423e565b5060e08201516142e960e085018261423e565b50505050565b600061010082019050614305600083018461424d565b92915050565b6000602082840312156143215761432061411f565b5b600061432f8482850161419e565b91505092915050565b600081519050919050565b600082825260208201905092915050565b60005b83811015614372578082015181840152602081019050614357565b60008484015250505050565b6000601f19601f8301169050919050565b600061439a82614338565b6143a48185614343565b93506143b4818560208601614354565b6143bd8161437e565b840191505092915050565b7f4e487b7100000000000000000000000000000000000000000000000000000000600052602160045260246000fd5b60028110614408576144076143c8565b5b50565b6000819050614419826143f7565b919050565b60006144298261440b565b9050919050565b6144398161441e565b82525050565b600061014083016000830151614458600086018261423e565b5060208301518482036020860152614470828261438f565b9150506040830151848203604086015261448a828261438f565b915050606083015161449f6060860182614214565b5060808301516144b26080860182614214565b5060a08301516144c560a086018261423e565b5060c08301516144d860c086018261423e565b5060e08301516144eb60e0860182614430565b5061010083015161450061010086018261423e565b5061012083015161451561012086018261423e565b508091505092915050565b6000602082019050818103600083015261453a818461443f565b905092915050565b61454b81614223565b811461455657600080fd5b50565b60008135905061456881614542565b92915050565b600080604083850312156145855761458461411f565b5b600061459385828601614172565b92505060206145a485828601614559565b9150509250929050565b6000602082840312156145c4576145c361411f565b5b60006145d284828501614172565b91505092915050565b6145e481614149565b82525050565b60006020820190506145ff60008301846145db565b92915050565b6002811061461257600080fd5b50565b60008135905061462481614605565b92915050565b600080fd5b600080fd5b7f4e487b7100000000000000000000000000000000000000000000000000000000600052604160045260246000fd5b61466c8261437e565b810181811067ffffffffffffffff8211171561468b5761468a614634565b5b80604052505050565b600061469e614115565b90506146aa8282614663565b919050565b600067ffffffffffffffff8211156146ca576146c9614634565b5b6146d38261437e565b9050602081019050919050565b82818337600083830152505050565b60006147026146fd846146af565b614694565b90508281526020810184848401111561471e5761471d61462f565b5b6147298482856146e0565b509392505050565b600082601f8301126147465761474561462a565b5b81356147568482602086016146ef565b91505092915050565b60008060008060008060c0878903121561477c5761477b61411f565b5b600061478a89828a01614172565b965050602061479b89828a01614615565b95505060406147ac89828a0161419e565b94505060606147bd89828a0161419e565b93505060806147ce89828a01614172565b92505060a087013567ffffffffffffffff8111156147ef576147ee614124565b5b6147fb89828a01614731565b9150509295509295509295565b6000806000606084860312156148215761482061411f565b5b600061482f86828701614172565b935050602061484086828701614172565b92505060406148518682870161419e565b9150509250925092565b7f4e487b7100000000000000000000000000000000000000000000000000000000600052603260045260246000fd5b7f4e487b7100000000000000000000000000000000000000000000000000000000600052602260045260246000fd5b600060028204905060018216806148d157607f821691505b6020821081036148e4576148e361488a565b5b50919050565b60008190508160005260206000209050919050565b60006020601f8301049050919050565b600082821b905092915050565b60006008830261494c7fffffffffffffffffffffffffffffffffffffffffffffffffffffffffffffffff8261490f565b614956868361490f565b95508019841693508086168417925050509392505050565b6000819050919050565b600061499361498e614989846140e1565b61496e565b6140e1565b9050919050565b6000819050919050565b6149ad83614978565b6149c16149b98261499a565b84845461491c565b825550505050565b600090565b6149d66149c9565b6149e18184846149a4565b505050565b5b81811015614a05576149fa6000826149ce565b6001810190506149e7565b5050565b601f821115614a4a57614a1b816148ea565b614a24846148ff565b81016020851015614a33578190505b614a47614a3f856148ff565b8301826149e6565b50505b505050565b600082821c905092915050565b6000614a6d60001984600802614a4f565b1980831691505092915050565b6000614a868383614a5c565b9150826002028217905092915050565b614a9f82614338565b67ffffffffffffffff811115614ab857614ab7614634565b5b614ac282546148b9565b614acd828285614a09565b600060209050601f831160018114614b005760008415614aee578287015190505b614af88582614a7a565b865550614b60565b601f198416614b0e866148ea565b60005b82811015614b3657848901518255600182019150602085019450602081019050614b11565b86831015614b535784890151614b4f601f891682614a5c565b8355505b6001600288020188555050505b505050505050565b7f4e487b7100000000000000000000000000000000000000000000000000000000600052601160045260246000fd5b6000614ba2826140e1565b9150614bad836140e1565b9250828203905081811115614bc557614bc4614b68565b5b92915050565b6000614bd6826140e1565b91507fffffffffffffffffffffffffffffffffffffffffffffffffffffffffffffffff8203614c0857614c07614b68565b5b600182019050919050565b6000614c1e826140e1565b915060008203614c3157614c30614b68565b5b600182039050919050565b6000614c47826140e1565b9150614c52836140e1565b9250828201905080821115614c6a57614c69614b68565b5b92915050565b6000604082019050614c8560008301856145db565b614c9260208301846145db565b9392505050565b600081519050614ca881614187565b92915050565b600060208284031215614cc457614cc361411f565b5b6000614cd284828501614c99565b91505092915050565b600060ff82169050919050565b614cf181614cdb565b8114614cfc57600080fd5b50565b600081519050614d0e81614ce8565b92915050565b600060208284031215614d2a57614d2961411f565b5b6000614d3884828501614cff565b91505092915050565b6000614d54614d4f846146af565b614694565b905082815260208101848484011115614d7057614d6f61462f565b5b614d7b848285614354565b509392505050565b600082601f830112614d9857614d9761462a565b5b8151614da8848260208601614d41565b91505092915050565b600060208284031215614dc757614dc661411f565b5b600082015167ffffffffffffffff811115614de557614de4614124565b5b614df184828501614d83565b91505092915050565b6000614e05826140e1565b9150614e10836140e1565b9250828202614e1e816140e1565b91508282048414831517614e3557614e34614b68565b5b5092915050565b7f4e487b7100000000000000000000000000000000000000000000000000000000600052601260045260246000fd5b6000614e76826140e1565b9150614e81836140e1565b925082614e9157614e90614e3c565b5b828204905092915050565b7f4e487b7100000000000000000000000000000000000000000000000000000000600052603160045260246000fd5b6000606082019050614ee060008301866145db565b614eed60208301856145db565b614efa60408301846140eb565b949350505050565b600081519050614f1181614542565b92915050565b600060208284031215614f2d57614f2c61411f565b5b6000614f3b84828501614f02565b91505092915050565b6000604082019050614f5960008301856145db565b614f6660208301846140eb565b9392505050565b600081905092915050565b50565b6000614f88600083614f6d565b9150614f9382614f78565b600082019050919050565b6000614fa982614f7b565b9150819050919050565b6000614fbe82614cdb565b915060008203614fd157614fd0614b68565b5b600182039050919050565b60008160011c9050919050565b6000808291508390505b60018511156150335780860481111561500f5761500e614b68565b5b600185161561501e5780820291505b808102905061502c85614fdc565b9450614ff3565b94509492505050565b60008261504c5760019050615108565b8161505a5760009050615108565b8160018114615070576002811461507a576150a9565b6001915050615108565b60ff84111561508c5761508b614b68565b5b8360020a9150848211156150a3576150a2614b68565b5b50615108565b5060208310610133831016604e8410600b84101617156150de5782820a9050838111156150d9576150d8614b68565b5b615108565b6150eb8484846001614fe9565b9250905081840481111561510257615101614b68565b5b81810290505b9392505050565b600061511a826140e1565b915061512583614cdb565b92506151527fffffffffffffffffffffffffffffffffffffffffffffffffffffffffffffffff848461503c565b905092915050565b600061516582614cdb565b915061517083614cdb565b9250828203905060ff81111561518957615188614b68565b5b92915050565b60006040820190506151a460008301856140eb565b6151b160208301846140eb565b9392505050565b60006060820190506151cd60008301866140eb565b6151da60208301856140eb565b6151e760408301846140eb565b94935050505056fea2646970667358221220bfafdb42a20c1c1ccfd3c46854a1927f67bf089200118a9846cf89cd7c0827b264736f6c63430008150033",
  "linkReferences": {},
  "deployedLinkReferences": {}
}