{
  "_format": "hh-sol-artifact-1",
  "contractName": "DexhuneExchange",
  "sourceName": "contracts/DexhuneExchange.sol",
  "abi": [
    {
      "inputs": [],
      "stateMutability": "nonpayable",
      "type": "constructor"
    },
    {
      "inputs": [],
      "name": "DepositFailed",
      "type": "error"
    },
    {
      "inputs": [],
      "name": "FailedStringToNumberConversion",
      "type": "error"
    },
    {
      "inputs": [],
      "name": "FailedToTakeOrder",
      "type": "error"
    },
    {
      "inputs": [
        {
          "internalType": "uint256",
          "name": "balance",
          "type": "uint256"
        }
      ],
      "name": "InsufficientBalance",
      "type": "error"
    },
    {
      "inputs": [
        {
          "internalType": "uint256",
          "name": "listingPrice",
          "type": "uint256"
        }
      ],
      "name": "InsufficientBalanceForListing",
      "type": "error"
    },
    {
      "inputs": [],
      "name": "InvalidTokenContract",
      "type": "error"
    },
    {
      "inputs": [],
      "name": "NoSuitableOrderFound",
      "type": "error"
    },
    {
      "inputs": [],
      "name": "OnlyOwnerMustSetDefaultToken",
      "type": "error"
    },
    {
      "inputs": [],
      "name": "OrderLimitReachedTryLater",
      "type": "error"
    },
    {
      "inputs": [
        {
          "internalType": "uint256",
          "name": "x",
          "type": "uint256"
        },
        {
          "internalType": "uint256",
          "name": "y",
          "type": "uint256"
        },
        {
          "internalType": "uint256",
          "name": "denominator",
          "type": "uint256"
        }
      ],
      "name": "PRBMath_MulDiv_Overflow",
      "type": "error"
    },
    {
      "inputs": [],
      "name": "ParityShouldNotHavePrice",
      "type": "error"
    },
    {
      "inputs": [
        {
          "internalType": "address",
          "name": "contractAddr",
          "type": "address"
        }
      ],
      "name": "TokenAlreadyExists",
      "type": "error"
    },
    {
      "inputs": [],
      "name": "TokenLimitReached",
      "type": "error"
    },
    {
      "inputs": [],
      "name": "TokenNotListed",
      "type": "error"
    },
    {
      "inputs": [],
      "name": "TokenNotSupported_TooManyDecimals",
      "type": "error"
    },
    {
      "inputs": [
        {
          "internalType": "address",
          "name": "account",
          "type": "address"
        }
      ],
      "name": "UnauthorizedAccount",
      "type": "error"
    },
    {
      "anonymous": false,
      "inputs": [
        {
          "indexed": false,
          "internalType": "address",
          "name": "oldOwner",
          "type": "address"
        },
        {
          "indexed": false,
          "internalType": "address",
          "name": "newOwner",
          "type": "address"
        }
      ],
      "name": "TransferredOwnership",
      "type": "event"
    },
    {
      "inputs": [],
      "name": "clearOrders",
      "outputs": [],
      "stateMutability": "nonpayable",
      "type": "function"
    },
    {
      "inputs": [
        {
          "internalType": "address",
          "name": "tokenAddr",
          "type": "address"
        }
      ],
      "name": "createBuyOrder",
      "outputs": [],
      "stateMutability": "payable",
      "type": "function"
    },
    {
      "inputs": [
        {
          "internalType": "address",
          "name": "tokenAddr",
          "type": "address"
        },
        {
          "internalType": "uint256",
          "name": "amount",
          "type": "uint256"
        }
      ],
      "name": "createSellOrder",
      "outputs": [],
      "stateMutability": "nonpayable",
      "type": "function"
    },
    {
      "inputs": [
        {
          "internalType": "address",
          "name": "tokenAddr",
          "type": "address"
        }
      ],
      "name": "deposit",
      "outputs": [],
      "stateMutability": "payable",
      "type": "function"
    },
    {
      "inputs": [
        {
          "internalType": "address",
          "name": "tokenAddr",
          "type": "address"
        },
        {
          "internalType": "address",
          "name": "fromAddress",
          "type": "address"
        },
        {
          "internalType": "uint256",
          "name": "amount",
          "type": "uint256"
        }
      ],
      "name": "depositToken",
      "outputs": [],
      "stateMutability": "nonpayable",
      "type": "function"
    },
    {
      "inputs": [],
      "name": "getBalance",
      "outputs": [
        {
          "internalType": "uint256",
          "name": "",
          "type": "uint256"
        }
      ],
      "stateMutability": "view",
      "type": "function"
    },
    {
      "inputs": [
        {
          "internalType": "address",
          "name": "tokenAddr",
          "type": "address"
        },
        {
          "internalType": "enum DexhuneExchangeBase.PricingScheme",
          "name": "scheme",
          "type": "uint8"
        },
        {
          "internalType": "uint256",
          "name": "reward",
          "type": "uint256"
        },
        {
          "internalType": "uint256",
          "name": "rewardThreshold",
          "type": "uint256"
        },
        {
          "internalType": "address",
          "name": "parityAddr",
          "type": "address"
        },
        {
          "internalType": "string",
          "name": "price",
          "type": "string"
        }
      ],
      "name": "listToken",
      "outputs": [],
      "stateMutability": "nonpayable",
      "type": "function"
    },
    {
      "inputs": [],
      "name": "owner",
      "outputs": [
        {
          "internalType": "address",
          "name": "",
          "type": "address"
        }
      ],
      "stateMutability": "view",
      "type": "function"
    },
    {
      "inputs": [
        {
          "internalType": "address",
          "name": "tokenAddr",
          "type": "address"
        },
        {
          "internalType": "bool",
          "name": "isAVAX",
          "type": "bool"
        }
      ],
      "name": "queryBalance",
      "outputs": [
        {
          "internalType": "uint256",
          "name": "",
          "type": "uint256"
        }
      ],
      "stateMutability": "view",
      "type": "function"
    },
    {
      "inputs": [
        {
          "internalType": "address",
          "name": "tokenAddr",
          "type": "address"
        },
        {
          "internalType": "bool",
          "name": "orderType",
          "type": "bool"
        }
      ],
      "name": "settleOrders",
      "outputs": [],
      "stateMutability": "nonpayable",
      "type": "function"
    },
    {
      "inputs": [
        {
          "internalType": "address",
          "name": "tokenAddr",
          "type": "address"
        },
        {
          "internalType": "uint256",
          "name": "amount",
          "type": "uint256"
        }
      ],
      "name": "takeBuyOrder",
      "outputs": [],
      "stateMutability": "nonpayable",
      "type": "function"
    },
    {
      "inputs": [
        {
          "internalType": "address",
          "name": "tokenAddr",
          "type": "address"
        }
      ],
      "name": "takeSellOrder",
      "outputs": [],
      "stateMutability": "payable",
      "type": "function"
    },
    {
      "inputs": [
        {
          "internalType": "address",
          "name": "_address",
          "type": "address"
        }
      ],
      "name": "transferOwnership",
      "outputs": [],
      "stateMutability": "nonpayable",
      "type": "function"
    },
    {
      "inputs": [
        {
          "internalType": "address",
          "name": "tokenAddr",
          "type": "address"
        }
      ],
      "name": "viewToken",
      "outputs": [
        {
          "components": [
            {
              "internalType": "uint256",
              "name": "tokenNo",
              "type": "uint256"
            },
            {
              "internalType": "string",
              "name": "name",
              "type": "string"
            },
            {
              "internalType": "string",
              "name": "sym",
              "type": "string"
            },
            {
              "internalType": "address",
              "name": "addr",
              "type": "address"
            },
            {
              "internalType": "address",
              "name": "parityAddr",
              "type": "address"
            },
            {
              "internalType": "uint256",
              "name": "reward",
              "type": "uint256"
            },
            {
              "internalType": "uint256",
              "name": "rewardThreshold",
              "type": "uint256"
            },
            {
              "internalType": "enum DexhuneExchangeBase.PricingScheme",
              "name": "scheme",
              "type": "uint8"
            },
            {
              "internalType": "uint256",
              "name": "price",
              "type": "uint256"
            },
            {
              "internalType": "uint256",
              "name": "orders",
              "type": "uint256"
            }
          ],
          "internalType": "struct DexhuneExchangeBase.TokenDataModel",
          "name": "",
          "type": "tuple"
        }
      ],
      "stateMutability": "view",
      "type": "function"
    },
    {
      "inputs": [
        {
          "internalType": "uint256",
          "name": "tokenNo",
          "type": "uint256"
        }
      ],
      "name": "viewToken",
      "outputs": [
        {
          "components": [
            {
              "internalType": "uint256",
              "name": "tokenNo",
              "type": "uint256"
            },
            {
              "internalType": "string",
              "name": "name",
              "type": "string"
            },
            {
              "internalType": "string",
              "name": "sym",
              "type": "string"
            },
            {
              "internalType": "address",
              "name": "addr",
              "type": "address"
            },
            {
              "internalType": "address",
              "name": "parityAddr",
              "type": "address"
            },
            {
              "internalType": "uint256",
              "name": "reward",
              "type": "uint256"
            },
            {
              "internalType": "uint256",
              "name": "rewardThreshold",
              "type": "uint256"
            },
            {
              "internalType": "enum DexhuneExchangeBase.PricingScheme",
              "name": "scheme",
              "type": "uint8"
            },
            {
              "internalType": "uint256",
              "name": "price",
              "type": "uint256"
            },
            {
              "internalType": "uint256",
              "name": "orders",
              "type": "uint256"
            }
          ],
          "internalType": "struct DexhuneExchangeBase.TokenDataModel",
          "name": "",
          "type": "tuple"
        }
      ],
      "stateMutability": "view",
      "type": "function"
    }
  ],
  "bytecode": "0x60806040526103e860015534801561001657600080fd5b50336000806101000a81548173ffffffffffffffffffffffffffffffffffffffff021916908373ffffffffffffffffffffffffffffffffffffffff160217905550614c2c806100666000396000f3fe6080604052600436106100e85760003560e01c80639351769f1161008a578063db34a67911610059578063db34a679146102c4578063f2fde38b146102ed578063f340fa0114610316578063fb0f97a814610332576100e8565b80639351769f1461023f578063a262b73f14610256578063c201e47c1461027f578063d2980065146102a8576100e8565b80636daf6945116100c65780636daf6945146101925780638334d195146101ae5780638da5cb5b146101eb57806392e6b82914610216576100e8565b806312065fe0146100ed5780633b174f0f14610118578063673cf82a14610155575b600080fd5b3480156100f957600080fd5b5061010261035b565b60405161010f9190613b9a565b60405180910390f35b34801561012457600080fd5b5061013f600480360381019061013a9190613c5f565b610363565b60405161014c9190613b9a565b60405180910390f35b34801561016157600080fd5b5061017c60048036038101906101779190613c9f565b610395565b6040516101899190613ed2565b60405180910390f35b6101ac60048036038101906101a79190613c9f565b61042c565b005b3480156101ba57600080fd5b506101d560048036038101906101d09190613f20565b61049e565b6040516101e29190613ed2565b60405180910390f35b3480156101f757600080fd5b506102006104f4565b60405161020d9190613f5c565b60405180910390f35b34801561022257600080fd5b5061023d600480360381019061023891906140d1565b610518565b005b34801561024b57600080fd5b50610254610a2d565b005b34801561026257600080fd5b5061027d6004803603810190610278919061417a565b610e3d565b005b34801561028b57600080fd5b506102a660048036038101906102a19190613c5f565b610e5b565b005b6102c260048036038101906102bd9190613c9f565b6110d0565b005b3480156102d057600080fd5b506102eb60048036038101906102e6919061417a565b6110f3565b005b3480156102f957600080fd5b50610314600480360381019061030f9190613c9f565b6111b4565b005b610330600480360381019061032b9190613c9f565b61127f565b005b34801561033e57600080fd5b50610359600480360381019061035491906141ba565b6112b0565b005b600047905090565b60008061036f84611323565b905082156103855780610140015191505061038f565b8061016001519150505b92915050565b61039d6139b7565b6000600460008473ffffffffffffffffffffffffffffffffffffffff1673ffffffffffffffffffffffffffffffffffffffff1681526020019081526020016000205490506000810361041b576040517fc5f0a1ee00000000000000000000000000000000000000000000000000000000815260040160405180910390fd5b61042481611380565b915050919050565b6000349050610439613a48565b6000806104468585611778565b80945081955082935050505080610489576040517f2050d62b00000000000000000000000000000000000000000000000000000000815260040160405180910390fd5b61049783600184878961199b565b5050505050565b6104a66139b7565b60028054905082106104e4576040517fc5f0a1ee00000000000000000000000000000000000000000000000000000000815260040160405180910390fd5b6104ed82611380565b9050919050565b60008054906101000a900473ffffffffffffffffffffffffffffffffffffffff1681565b6000600280549050036105ab5760008054906101000a900473ffffffffffffffffffffffffffffffffffffffff1673ffffffffffffffffffffffffffffffffffffffff163373ffffffffffffffffffffffffffffffffffffffff16146105aa576040517fac966a5200000000000000000000000000000000000000000000000000000000815260040160405180910390fd5b5b60008690506000600460008373ffffffffffffffffffffffffffffffffffffffff1673ffffffffffffffffffffffffffffffffffffffff1681526020019081526020016000205490506000811415801561060a57506000600280549050115b1561064c57816040517f15ef3a570000000000000000000000000000000000000000000000000000000081526004016106439190613f5c565b60405180910390fd5b620f42406002805490501061068d576040517f53bb24f900000000000000000000000000000000000000000000000000000000815260040160405180910390fd5b600060608060008061069e87611c4c565b809550819650829750839850849950505050505060006106bd89611edd565b9050600073ffffffffffffffffffffffffffffffffffffffff168a73ffffffffffffffffffffffffffffffffffffffff16141580156106fc5750600081115b15610733576040517f4f7af06a00000000000000000000000000000000000000000000000000000000815260040160405180910390fd5b61073b611f30565b6000604051806101c001604052808781526020018681526020018560ff1681526020018481526020018a73ffffffffffffffffffffffffffffffffffffffff1681526020018c73ffffffffffffffffffffffffffffffffffffffff1681526020018f60018111156107af576107ae613d7a565b5b81526020018e81526020018d81526020018381526020016000815260200160008152602001600081526020018873ffffffffffffffffffffffffffffffffffffffff16815250905060028190806001815401808255809150506001900390600052602060002090600d020160009091909190915060008201518160000190816108389190614419565b50602082015181600101908161084e9190614419565b5060408201518160020160006101000a81548160ff021916908360ff1602179055506060820151816003015560808201518160040160006101000a81548173ffffffffffffffffffffffffffffffffffffffff021916908373ffffffffffffffffffffffffffffffffffffffff16021790555060a08201518160050160006101000a81548173ffffffffffffffffffffffffffffffffffffffff021916908373ffffffffffffffffffffffffffffffffffffffff16021790555060c08201518160050160146101000a81548160ff0219169083600181111561093357610932613d7a565b5b021790555060e0820151816006015561010082015181600701556101208201518160080155610140820151816009015561016082015181600a015561018082015181600b01556101a082015181600c0160006101000a81548173ffffffffffffffffffffffffffffffffffffffff021916908373ffffffffffffffffffffffffffffffffffffffff160217905550505060016002805490506109d5919061451a565b60046000836080015173ffffffffffffffffffffffffffffffffffffffff1673ffffffffffffffffffffffffffffffffffffffff16815260200190815260200160002081905550505050505050505050505050505050565b6000600660003373ffffffffffffffffffffffffffffffffffffffff1673ffffffffffffffffffffffffffffffffffffffff1681526020019081526020016000209050600080828054905011905060008082610a8a576064610a8d565b60325b9050600080429050610a9d613a48565b600060038054905011610ab65750505050505050610e3b565b8515610c9257600060018880549050610acf919061451a565b90505b60008110158015610ae35750848611155b15610c8557878181548110610afb57610afa61454e565b5b9060005260206000200154935060038481548110610b1c57610b1b61454e565b5b9060005260206000209060070201604051806101000160405290816000820160009054906101000a900473ffffffffffffffffffffffffffffffffffffffff1673ffffffffffffffffffffffffffffffffffffffff1673ffffffffffffffffffffffffffffffffffffffff1681526020016001820160009054906101000a900473ffffffffffffffffffffffffffffffffffffffff1673ffffffffffffffffffffffffffffffffffffffff1673ffffffffffffffffffffffffffffffffffffffff1681526020016001820160149054906101000a900460ff161515151581526020016002820154815260200160038201548152602001600482015481526020016005820154815260200160068201548152505091506028826060015184610c43919061451a565b1115610c7257610c5382856122b9565b15610c7157610c628882612338565b8580610c6d9061457d565b9650505b5b8080610c7d906145c5565b915050610ad2565b5050505050505050610e3b565b60006001600380549050610ca6919061451a565b90505b60008110158015610cba5750848611155b15610e325760038181548110610cd357610cd261454e565b5b9060005260206000209060070201604051806101000160405290816000820160009054906101000a900473ffffffffffffffffffffffffffffffffffffffff1673ffffffffffffffffffffffffffffffffffffffff1673ffffffffffffffffffffffffffffffffffffffff1681526020016001820160009054906101000a900473ffffffffffffffffffffffffffffffffffffffff1673ffffffffffffffffffffffffffffffffffffffff1673ffffffffffffffffffffffffffffffffffffffff1681526020016001820160149054906101000a900460ff161515151581526020016002820154815260200160038201548152602001600482015481526020016005820154815260200160068201548152505091506028826060015184610dfa919061451a565b1115610e1f57610e0a82856122b9565b15610e1e578580610e1a9061457d565b9650505b5b8080610e2a906145c5565b915050610ca9565b50505050505050505b565b6000610e4883611323565b9050610e56816000846123c0565b505050565b6000610e6683611323565b9050600060056000836080015173ffffffffffffffffffffffffffffffffffffffff1673ffffffffffffffffffffffffffffffffffffffff1681526020019081526020016000209050610eb7613a48565b60008085610eca57846101400151610ed1565b8461016001515b9050600060018580549050610ee6919061451a565b90505b600082118015610efa575060008110155b156110c6576000858281548110610f1457610f1361454e565b5b9060005260206000200154905060038181548110610f3557610f3461454e565b5b9060005260206000209060070201604051806101000160405290816000820160009054906101000a900473ffffffffffffffffffffffffffffffffffffffff1673ffffffffffffffffffffffffffffffffffffffff1673ffffffffffffffffffffffffffffffffffffffff1681526020016001820160009054906101000a900473ffffffffffffffffffffffffffffffffffffffff1673ffffffffffffffffffffffffffffffffffffffff1673ffffffffffffffffffffffffffffffffffffffff1681526020016001820160149054906101000a900460ff16151515158152602001600282015481526020016003820154815260200160048201548152602001600582015481526020016006820154815250509450871515856040015115151461105f57506110b3565b871561107d57611070878685612b71565b8094508195505050611091565b611088878685612cc6565b80945081955050505b8361109c57506110b3565b6110a68683612338565b6110b1600382612da2565b505b80806110be906145c5565b915050610ee9565b5050505050505050565b600034905060006110e083611323565b90506110ee816001846123c0565b505050565b60006110fe83611323565b9050611108613a48565b6000806111158686611778565b80945081955082935050505080611158576040517f2050d62b00000000000000000000000000000000000000000000000000000000815260040160405180910390fd5b611168846101a001518787612fea565b61119e576040517f79cacff100000000000000000000000000000000000000000000000000000000815260040160405180910390fd5b6111ac83600184888a61199b565b505050505050565b6111bc61307e565b60008060009054906101000a900473ffffffffffffffffffffffffffffffffffffffff169050816000806101000a81548173ffffffffffffffffffffffffffffffffffffffff021916908373ffffffffffffffffffffffffffffffffffffffff1602179055507f850b3df64837d7d518b45f5aa64d104652c3b80eb5b34a8e3d9eb666cb7cdea58160008054906101000a900473ffffffffffffffffffffffffffffffffffffffff166040516112739291906145ee565b60405180910390a15050565b600061128a82611323565b905060003490508082610140018181516112a49190614617565b91508181525050505050565b60006112bb84611323565b90506112cd816101a001518484612fea565b611303576040517f79cacff100000000000000000000000000000000000000000000000000000000815260040160405180910390fd5b8181610160018181516113169190614617565b9150818152505050505050565b61132b613abb565b6000600460008473ffffffffffffffffffffffffffffffffffffffff1673ffffffffffffffffffffffffffffffffffffffff16815260200190815260200160002054905061137881613110565b915050919050565b6113886139b7565b60006002838154811061139e5761139d61454e565b5b90600052602060002090600d0201604051806101c00160405290816000820180546113c89061423c565b80601f01602080910402602001604051908101604052809291908181526020018280546113f49061423c565b80156114415780601f1061141657610100808354040283529160200191611441565b820191906000526020600020905b81548152906001019060200180831161142457829003601f168201915b5050505050815260200160018201805461145a9061423c565b80601f01602080910402602001604051908101604052809291908181526020018280546114869061423c565b80156114d35780601f106114a8576101008083540402835291602001916114d3565b820191906000526020600020905b8154815290600101906020018083116114b657829003601f168201915b505050505081526020016002820160009054906101000a900460ff1660ff1660ff168152602001600382015481526020016004820160009054906101000a900473ffffffffffffffffffffffffffffffffffffffff1673ffffffffffffffffffffffffffffffffffffffff1673ffffffffffffffffffffffffffffffffffffffff1681526020016005820160009054906101000a900473ffffffffffffffffffffffffffffffffffffffff1673ffffffffffffffffffffffffffffffffffffffff1673ffffffffffffffffffffffffffffffffffffffff1681526020016005820160149054906101000a900460ff1660018111156115d4576115d3613d7a565b5b60018111156115e6576115e5613d7a565b5b815260200160068201548152602001600782015481526020016008820154815260200160098201548152602001600a8201548152602001600b8201548152602001600c820160009054906101000a900473ffffffffffffffffffffffffffffffffffffffff1673ffffffffffffffffffffffffffffffffffffffff1673ffffffffffffffffffffffffffffffffffffffff16815250509050600060056000836080015173ffffffffffffffffffffffffffffffffffffffff1673ffffffffffffffffffffffffffffffffffffffff1681526020019081526020016000208054905090506040518061014001604052808581526020018360000151815260200183602001518152602001836080015173ffffffffffffffffffffffffffffffffffffffff1681526020018360a0015173ffffffffffffffffffffffffffffffffffffffff1681526020018360e00151815260200183610100015181526020018360c00151600181111561175b5761175a613d7a565b5b815260200183610120015181526020018281525092505050919050565b6000611782613a48565b600061178c613a48565b6000600560008873ffffffffffffffffffffffffffffffffffffffff1673ffffffffffffffffffffffffffffffffffffffff16815260200190815260200160002090506000806000600184805490506117e5919061451a565b90505b600081106119865760008482815481106118055761180461454e565b5b90600052602060002001549050600381815481106118265761182561454e565b5b9060005260206000209060070201604051806101000160405290816000820160009054906101000a900473ffffffffffffffffffffffffffffffffffffffff1673ffffffffffffffffffffffffffffffffffffffff1673ffffffffffffffffffffffffffffffffffffffff1681526020016001820160009054906101000a900473ffffffffffffffffffffffffffffffffffffffff1673ffffffffffffffffffffffffffffffffffffffff1673ffffffffffffffffffffffffffffffffffffffff1681526020016001820160149054906101000a900460ff16151515158152602001600282015481526020016003820154815260200160048201548152602001600582015481526020016006820154815250509550898660e0015103611953576001935081925050611986565b831580156119655750898660e0015110155b1561197257600193508192505b50808061197e906145c5565b9150506117e8565b50818482965096509650505050509250925092565b60006119a682611323565b9050600384815481106119bc576119bb61454e565b5b9060005260206000209060070201604051806101000160405290816000820160009054906101000a900473ffffffffffffffffffffffffffffffffffffffff1673ffffffffffffffffffffffffffffffffffffffff1673ffffffffffffffffffffffffffffffffffffffff1681526020016001820160009054906101000a900473ffffffffffffffffffffffffffffffffffffffff1673ffffffffffffffffffffffffffffffffffffffff1673ffffffffffffffffffffffffffffffffffffffff1681526020016001820160149054906101000a900460ff161515151581526020016002820154815260200160038201548152602001600482015481526020016005820154815260200160068201548152505095506000838760e00151141590506000848860e00151611aef919061451a565b905060008860c0015190508215611b4d576000611b15856101200151601260ff16613468565b90506000611b2a84876040015160ff16613468565b9050611b488282611b3b919061467a565b876040015160ff1661348d565b925050505b6000808915611b65573391508a600001519050611b70565b8a6000015191503390505b611b80866101a0015182856134b2565b611bb6576040517f4de4e1d000000000000000000000000000000000000000000000000000000000815260040160405180910390fd5b611bc08285613544565b611bf6576040517f4de4e1d000000000000000000000000000000000000000000000000000000000815260040160405180910390fd5b8415611c3357838b60e001818151611c0e919061451a565b91508181525050828b60c001818151611c27919061451a565b91508181525050611c3f565b611c3e60038a612da2565b5b5050505050505050505050565b600060608060008060008690506060806000808473ffffffffffffffffffffffffffffffffffffffff166370a08231306040518263ffffffff1660e01b8152600401611c989190613f5c565b602060405180830381865afa925050508015611cd257506040513d601f19601f82011682018060405250810190611ccf91906146c0565b60015b611d08576040517f29bdfb3400000000000000000000000000000000000000000000000000000000815260040160405180910390fd5b508473ffffffffffffffffffffffffffffffffffffffff1663313ce5676040518163ffffffff1660e01b8152600401602060405180830381865afa925050508015611d7157506040513d601f19601f82011682018060405250810190611d6e9190614726565b60015b611d7e5760129050611d83565b809150505b601260ff168160ff161115611dc4576040517f432c0a5d00000000000000000000000000000000000000000000000000000000815260040160405180910390fd5b611dd08160ff166135bb565b91508473ffffffffffffffffffffffffffffffffffffffff166306fdde036040518163ffffffff1660e01b8152600401600060405180830381865afa925050508015611e3f57506040513d6000823e3d601f19601f82011682018060405250810190611e3c91906147c3565b60015b15611e4957809450505b8473ffffffffffffffffffffffffffffffffffffffff166395d89b416040518163ffffffff1660e01b8152600401600060405180830381865afa925050508015611eb657506040513d6000823e3d601f19601f82011682018060405250810190611eb391906147c3565b60015b15611ec057809350505b848484838599509950995099509950505050505091939590929450565b6000806000611eeb846135dd565b9150915080611f26576040517fe6f7d2c700000000000000000000000000000000000000000000000000000000815260040160405180910390fd5b8192505050919050565b60006002600081548110611f4757611f4661454e565b5b90600052602060002090600d0201604051806101c0016040529081600082018054611f719061423c565b80601f0160208091040260200160405190810160405280929190818152602001828054611f9d9061423c565b8015611fea5780601f10611fbf57610100808354040283529160200191611fea565b820191906000526020600020905b815481529060010190602001808311611fcd57829003601f168201915b505050505081526020016001820180546120039061423c565b80601f016020809104026020016040519081016040528092919081815260200182805461202f9061423c565b801561207c5780601f106120515761010080835404028352916020019161207c565b820191906000526020600020905b81548152906001019060200180831161205f57829003601f168201915b505050505081526020016002820160009054906101000a900460ff1660ff1660ff168152602001600382015481526020016004820160009054906101000a900473ffffffffffffffffffffffffffffffffffffffff1673ffffffffffffffffffffffffffffffffffffffff1673ffffffffffffffffffffffffffffffffffffffff1681526020016005820160009054906101000a900473ffffffffffffffffffffffffffffffffffffffff1673ffffffffffffffffffffffffffffffffffffffff1673ffffffffffffffffffffffffffffffffffffffff1681526020016005820160149054906101000a900460ff16600181111561217d5761217c613d7a565b5b600181111561218f5761218e613d7a565b5b815260200160068201548152602001600782015481526020016008820154815260200160098201548152602001600a8201548152602001600b8201548152602001600c820160009054906101000a900473ffffffffffffffffffffffffffffffffffffffff1673ffffffffffffffffffffffffffffffffffffffff1673ffffffffffffffffffffffffffffffffffffffff16815250509050612239816101a0015133600154612fea565b61227c576001546040517fca114a020000000000000000000000000000000000000000000000000000000081526004016122739190613b9a565b60405180910390fd5b60006103e86005600154612290919061480c565b61229a919061467a565b905080600160008282546122ae9190614617565b925050819055505050565b60008260400151156122e9576122d783600001518460c00151613544565b6122e45760009050612332565b612322565b60006122f88460200151611323565b9050612312816101a0015185600001518660c001516134b2565b612320576000915050612332565b505b61232d600383612da2565b600190505b92915050565b60006001838054905061234b919061451a565b9050808214612394578281815481106123675761236661454e565b5b90600052602060002001548383815481106123855761238461454e565b5b90600052602060002001819055505b828054806123a5576123a461484e565b5b60019003818190600052602060002001600090559055505050565b60008060018111156123d5576123d4613d7a565b5b8460c0015160018111156123ec576123eb613d7a565b5b03612411576123f9613736565b61240a60095485610120015161381d565b9050612899565b60018081111561242457612423613d7a565b5b8460c00151600181111561243b5761243a613d7a565b5b0361289857600060f085610180015142612455919061451a565b10159050801561289657600060026000815481106124765761247561454e565b5b90600052602060002090600d0201604051806101c00160405290816000820180546124a09061423c565b80601f01602080910402602001604051908101604052809291908181526020018280546124cc9061423c565b80156125195780601f106124ee57610100808354040283529160200191612519565b820191906000526020600020905b8154815290600101906020018083116124fc57829003601f168201915b505050505081526020016001820180546125329061423c565b80601f016020809104026020016040519081016040528092919081815260200182805461255e9061423c565b80156125ab5780601f10612580576101008083540402835291602001916125ab565b820191906000526020600020905b81548152906001019060200180831161258e57829003601f168201915b505050505081526020016002820160009054906101000a900460ff1660ff1660ff168152602001600382015481526020016004820160009054906101000a900473ffffffffffffffffffffffffffffffffffffffff1673ffffffffffffffffffffffffffffffffffffffff1673ffffffffffffffffffffffffffffffffffffffff1681526020016005820160009054906101000a900473ffffffffffffffffffffffffffffffffffffffff1673ffffffffffffffffffffffffffffffffffffffff1673ffffffffffffffffffffffffffffffffffffffff1681526020016005820160149054906101000a900460ff1660018111156126ac576126ab613d7a565b5b60018111156126be576126bd613d7a565b5b815260200160068201548152602001600782015481526020016008820154815260200160098201548152602001600a8201548152602001600b8201548152602001600c820160009054906101000a900473ffffffffffffffffffffffffffffffffffffffff1673ffffffffffffffffffffffffffffffffffffffff1673ffffffffffffffffffffffffffffffffffffffff168152505090506000866101a0015190506000826101a00151905060008273ffffffffffffffffffffffffffffffffffffffff166370a082318a60a001516040518263ffffffff1660e01b81526004016127a99190613f5c565b602060405180830381865afa1580156127c6573d6000803e3d6000fd5b505050506040513d601f19601f820116820180604052508101906127ea91906146c0565b905060008273ffffffffffffffffffffffffffffffffffffffff166370a082318b60a001516040518263ffffffff1660e01b815260040161282b9190613f5c565b602060405180830381865afa158015612848573d6000803e3d6000fd5b505050506040513d601f19601f8201168201806040525081019061286c91906146c0565b9050612878818361381d565b9650868a610120018181525050428a61018001818152505050505050505b505b5b6000806128ad83876040015160ff16613468565b905060006128bf85601260ff16613468565b90506128dd81836128d0919061480c565b886040015160ff1661348d565b9250600087610100015185106128f5578760e0015190505b60006040518061010001604052803373ffffffffffffffffffffffffffffffffffffffff1681526020018a6080015173ffffffffffffffffffffffffffffffffffffffff1681526020018915158152602001428152602001838152602001878152602001888152602001868152509050600381908060018154018082558091505060019003906000526020600020906007020160009091909190915060008201518160000160006101000a81548173ffffffffffffffffffffffffffffffffffffffff021916908373ffffffffffffffffffffffffffffffffffffffff16021790555060208201518160010160006101000a81548173ffffffffffffffffffffffffffffffffffffffff021916908373ffffffffffffffffffffffffffffffffffffffff16021790555060408201518160010160146101000a81548160ff021916908315150217905550606082015181600201556080820151816003015560a0820151816004015560c0820151816005015560e0820151816006015550506000600660003373ffffffffffffffffffffffffffffffffffffffff1673ffffffffffffffffffffffffffffffffffffffff16815260200190815260200160002090506000600560008c6080015173ffffffffffffffffffffffffffffffffffffffff1673ffffffffffffffffffffffffffffffffffffffff168152602001908152602001600020905060006001600380549050612b11919061451a565b90508281908060018154018082558091505060019003906000526020600020016000909190919091505581819080600181540180825580915050600190039060005260206000200160009091909190915055505050505050505050505050565b6000806000808560e00151851090508015612b8e57849150612b96565b8560e0015191505b6000876101a0015190508073ffffffffffffffffffffffffffffffffffffffff1663a9059cbb8860000151856040518363ffffffff1660e01b8152600401612bdf9291906148d2565b6020604051808303816000875af1925050508015612c1b57506040513d601f19601f82011682018060405250810190612c189190614910565b60015b612c2e5760008694509450505050612cbe565b508286612c3b919061451a565b95508115612cb357828760e001818151612c55919061451a565b915081815250506000612c738860e001518a6040015160ff16613468565b90506000612c898960a00151601260ff16613468565b9050612ca78183612c9a919061467a565b8b6040015160ff1661348d565b8960c001818152505050505b811586945094505050505b935093915050565b6000806000808560e00151851090508015612ce357849150612ceb565b8560e0015191505b612cf9866000015183613544565b15612d90578185612d0a919061451a565b94508015612d8257818660e001818151612d24919061451a565b915081815250506000612d428760e00151896040015160ff16613468565b90506000612d588860a00151601260ff16613468565b9050612d768183612d69919061467a565b8a6040015160ff1661348d565b8860c001818152505050505b600185935093505050612d9a565b6000859350935050505b935093915050565b600060018380549050612db5919061451a565b9050808214612f3157828181548110612dd157612dd061454e565b5b9060005260206000209060070201838381548110612df257612df161454e565b5b90600052602060002090600702016000820160009054906101000a900473ffffffffffffffffffffffffffffffffffffffff168160000160006101000a81548173ffffffffffffffffffffffffffffffffffffffff021916908373ffffffffffffffffffffffffffffffffffffffff1602179055506001820160009054906101000a900473ffffffffffffffffffffffffffffffffffffffff168160010160006101000a81548173ffffffffffffffffffffffffffffffffffffffff021916908373ffffffffffffffffffffffffffffffffffffffff1602179055506001820160149054906101000a900460ff168160010160146101000a81548160ff02191690831515021790555060028201548160020155600382015481600301556004820154816004015560058201548160050155600682015481600601559050505b82805480612f4257612f4161484e565b5b6001900381819060005260206000209060070201600080820160006101000a81549073ffffffffffffffffffffffffffffffffffffffff02191690556001820160006101000a81549073ffffffffffffffffffffffffffffffffffffffff02191690556001820160146101000a81549060ff02191690556002820160009055600382016000905560048201600090556005820160009055600682016000905550509055505050565b60008373ffffffffffffffffffffffffffffffffffffffff166323b872dd8430856040518463ffffffff1660e01b81526004016130299392919061493d565b6020604051808303816000875af192505050801561306557506040513d601f19601f820116820180604052508101906130629190614910565b60015b6130725760009050613077565b809150505b9392505050565b60008054906101000a900473ffffffffffffffffffffffffffffffffffffffff1673ffffffffffffffffffffffffffffffffffffffff163373ffffffffffffffffffffffffffffffffffffffff161461310e57336040517f32b2baa30000000000000000000000000000000000000000000000000000000081526004016131059190613f5c565b60405180910390fd5b565b613118613abb565b600082148061312c57506002805490508210155b15613163576040517fc5f0a1ee00000000000000000000000000000000000000000000000000000000815260040160405180910390fd5b6002600183613172919061451a565b815481106131835761318261454e565b5b90600052602060002090600d0201604051806101c00160405290816000820180546131ad9061423c565b80601f01602080910402602001604051908101604052809291908181526020018280546131d99061423c565b80156132265780601f106131fb57610100808354040283529160200191613226565b820191906000526020600020905b81548152906001019060200180831161320957829003601f168201915b5050505050815260200160018201805461323f9061423c565b80601f016020809104026020016040519081016040528092919081815260200182805461326b9061423c565b80156132b85780601f1061328d576101008083540402835291602001916132b8565b820191906000526020600020905b81548152906001019060200180831161329b57829003601f168201915b505050505081526020016002820160009054906101000a900460ff1660ff1660ff168152602001600382015481526020016004820160009054906101000a900473ffffffffffffffffffffffffffffffffffffffff1673ffffffffffffffffffffffffffffffffffffffff1673ffffffffffffffffffffffffffffffffffffffff1681526020016005820160009054906101000a900473ffffffffffffffffffffffffffffffffffffffff1673ffffffffffffffffffffffffffffffffffffffff1673ffffffffffffffffffffffffffffffffffffffff1681526020016005820160149054906101000a900460ff1660018111156133b9576133b8613d7a565b5b60018111156133cb576133ca613d7a565b5b815260200160068201548152602001600782015481526020016008820154815260200160098201548152602001600a8201548152602001600b8201548152602001600c820160009054906101000a900473ffffffffffffffffffffffffffffffffffffffff1673ffffffffffffffffffffffffffffffffffffffff1673ffffffffffffffffffffffffffffffffffffffff16815250509050919050565b60006001821461348357818361347e919061480c565b613485565b825b905092915050565b6000600182146134a85781836134a3919061467a565b6134aa565b825b905092915050565b60008373ffffffffffffffffffffffffffffffffffffffff1663a9059cbb84846040518363ffffffff1660e01b81526004016134ef929190614974565b6020604051808303816000875af192505050801561352b57506040513d601f19601f820116820180604052508101906135289190614910565b60015b613538576000905061353d565b809150505b9392505050565b6000808373ffffffffffffffffffffffffffffffffffffffff168360405161356b906149ce565b60006040518083038185875af1925050503d80600081146135a8576040519150601f19603f3d011682016040523d82523d6000602084013e6135ad565b606091505b505090508091505092915050565b6000601282036135ce57600190506135d8565b81601203600a0a90505b919050565b60008060008060008590506000806000806000905060005b855181108015613603575083155b156137075785818151811061361b5761361a61454e565b5b602001015160f81c60f81b60f81c945060308560ff1610158015613643575060398560ff1611155b156136ba57869750821561366457818061365c906149e3565b925050613674565b600a87613671919061480c565b96505b81600a6136819190614b3f565b60308661368e9190614b8a565b60ff1661369b919061480c565b876136a69190614617565b9650868811156136b557600193505b6136f4565b602e8560ff16036136f35782156136d057600193505b600192506012915081600a6136e59190614b3f565b876136f0919061480c565b96505b5b80806136ff9061457d565b9150506135f5565b508161372457670de0b6b3a764000086613721919061480c565b95505b85839850985050505050505050915091565b60f0600a5442613746919061451a565b1061381b5742600a819055506000600860009054906101000a900473ffffffffffffffffffffffffffffffffffffffff16905060008173ffffffffffffffffffffffffffffffffffffffff166398d5fdca6040518163ffffffff1660e01b8152600401600060405180830381865afa1580156137c6573d6000803e3d6000fd5b505050506040513d6000823e3d601f19601f820116820180604052508101906137ef91906147c3565b90506000806137fd836135dd565b91509150801561380f57816009819055505b42600a81905550505050505b565b60008061382984613854565b9050600061383684613854565b905061384a613845838361385e565b613893565b9250505092915050565b6000819050919050565b600061388b61388661386f85613893565b670de0b6b3a764000061388186613893565b61389d565b613854565b905092915050565b6000819050919050565b60008060008019858709858702925082811083820303915050600081036138d8578382816138ce576138cd61464b565b5b04925050506139b0565b838110613920578585856040517f63a0577800000000000000000000000000000000000000000000000000000000815260040161391793929190614bbf565b60405180910390fd5b60008486880990508281118203915080830392506000600186190186169050600081870496508185049450600182836000030401905080840285179450600060028860030218905080880260020381029050808802600203810290508088026002038102905080880260020381029050808802600203810290508088026002038102905080860296505050505050505b9392505050565b604051806101400160405280600081526020016060815260200160608152602001600073ffffffffffffffffffffffffffffffffffffffff168152602001600073ffffffffffffffffffffffffffffffffffffffff168152602001600081526020016000815260200160006001811115613a3457613a33613d7a565b5b815260200160008152602001600081525090565b604051806101000160405280600073ffffffffffffffffffffffffffffffffffffffff168152602001600073ffffffffffffffffffffffffffffffffffffffff16815260200160001515815260200160008152602001600081526020016000815260200160008152602001600081525090565b604051806101c001604052806060815260200160608152602001600060ff16815260200160008152602001600073ffffffffffffffffffffffffffffffffffffffff168152602001600073ffffffffffffffffffffffffffffffffffffffff16815260200160006001811115613b3457613b33613d7a565b5b8152602001600081526020016000815260200160008152602001600081526020016000815260200160008152602001600073ffffffffffffffffffffffffffffffffffffffff1681525090565b6000819050919050565b613b9481613b81565b82525050565b6000602082019050613baf6000830184613b8b565b92915050565b6000604051905090565b600080fd5b600080fd5b600073ffffffffffffffffffffffffffffffffffffffff82169050919050565b6000613bf482613bc9565b9050919050565b613c0481613be9565b8114613c0f57600080fd5b50565b600081359050613c2181613bfb565b92915050565b60008115159050919050565b613c3c81613c27565b8114613c4757600080fd5b50565b600081359050613c5981613c33565b92915050565b60008060408385031215613c7657613c75613bbf565b5b6000613c8485828601613c12565b9250506020613c9585828601613c4a565b9150509250929050565b600060208284031215613cb557613cb4613bbf565b5b6000613cc384828501613c12565b91505092915050565b613cd581613b81565b82525050565b600081519050919050565b600082825260208201905092915050565b60005b83811015613d15578082015181840152602081019050613cfa565b60008484015250505050565b6000601f19601f8301169050919050565b6000613d3d82613cdb565b613d478185613ce6565b9350613d57818560208601613cf7565b613d6081613d21565b840191505092915050565b613d7481613be9565b82525050565b7f4e487b7100000000000000000000000000000000000000000000000000000000600052602160045260246000fd5b60028110613dba57613db9613d7a565b5b50565b6000819050613dcb82613da9565b919050565b6000613ddb82613dbd565b9050919050565b613deb81613dd0565b82525050565b600061014083016000830151613e0a6000860182613ccc565b5060208301518482036020860152613e228282613d32565b91505060408301518482036040860152613e3c8282613d32565b9150506060830151613e516060860182613d6b565b506080830151613e646080860182613d6b565b5060a0830151613e7760a0860182613ccc565b5060c0830151613e8a60c0860182613ccc565b5060e0830151613e9d60e0860182613de2565b50610100830151613eb2610100860182613ccc565b50610120830151613ec7610120860182613ccc565b508091505092915050565b60006020820190508181036000830152613eec8184613df1565b905092915050565b613efd81613b81565b8114613f0857600080fd5b50565b600081359050613f1a81613ef4565b92915050565b600060208284031215613f3657613f35613bbf565b5b6000613f4484828501613f0b565b91505092915050565b613f5681613be9565b82525050565b6000602082019050613f716000830184613f4d565b92915050565b60028110613f8457600080fd5b50565b600081359050613f9681613f77565b92915050565b600080fd5b600080fd5b7f4e487b7100000000000000000000000000000000000000000000000000000000600052604160045260246000fd5b613fde82613d21565b810181811067ffffffffffffffff82111715613ffd57613ffc613fa6565b5b80604052505050565b6000614010613bb5565b905061401c8282613fd5565b919050565b600067ffffffffffffffff82111561403c5761403b613fa6565b5b61404582613d21565b9050602081019050919050565b82818337600083830152505050565b600061407461406f84614021565b614006565b9050828152602081018484840111156140905761408f613fa1565b5b61409b848285614052565b509392505050565b600082601f8301126140b8576140b7613f9c565b5b81356140c8848260208601614061565b91505092915050565b60008060008060008060c087890312156140ee576140ed613bbf565b5b60006140fc89828a01613c12565b965050602061410d89828a01613f87565b955050604061411e89828a01613f0b565b945050606061412f89828a01613f0b565b935050608061414089828a01613c12565b92505060a087013567ffffffffffffffff81111561416157614160613bc4565b5b61416d89828a016140a3565b9150509295509295509295565b6000806040838503121561419157614190613bbf565b5b600061419f85828601613c12565b92505060206141b085828601613f0b565b9150509250929050565b6000806000606084860312156141d3576141d2613bbf565b5b60006141e186828701613c12565b93505060206141f286828701613c12565b925050604061420386828701613f0b565b9150509250925092565b7f4e487b7100000000000000000000000000000000000000000000000000000000600052602260045260246000fd5b6000600282049050600182168061425457607f821691505b6020821081036142675761426661420d565b5b50919050565b60008190508160005260206000209050919050565b60006020601f8301049050919050565b600082821b905092915050565b6000600883026142cf7fffffffffffffffffffffffffffffffffffffffffffffffffffffffffffffffff82614292565b6142d98683614292565b95508019841693508086168417925050509392505050565b6000819050919050565b600061431661431161430c84613b81565b6142f1565b613b81565b9050919050565b6000819050919050565b614330836142fb565b61434461433c8261431d565b84845461429f565b825550505050565b600090565b61435961434c565b614364818484614327565b505050565b5b818110156143885761437d600082614351565b60018101905061436a565b5050565b601f8211156143cd5761439e8161426d565b6143a784614282565b810160208510156143b6578190505b6143ca6143c285614282565b830182614369565b50505b505050565b600082821c905092915050565b60006143f0600019846008026143d2565b1980831691505092915050565b600061440983836143df565b9150826002028217905092915050565b61442282613cdb565b67ffffffffffffffff81111561443b5761443a613fa6565b5b614445825461423c565b61445082828561438c565b600060209050601f8311600181146144835760008415614471578287015190505b61447b85826143fd565b8655506144e3565b601f1984166144918661426d565b60005b828110156144b957848901518255600182019150602085019450602081019050614494565b868310156144d657848901516144d2601f8916826143df565b8355505b6001600288020188555050505b505050505050565b7f4e487b7100000000000000000000000000000000000000000000000000000000600052601160045260246000fd5b600061452582613b81565b915061453083613b81565b9250828203905081811115614548576145476144eb565b5b92915050565b7f4e487b7100000000000000000000000000000000000000000000000000000000600052603260045260246000fd5b600061458882613b81565b91507fffffffffffffffffffffffffffffffffffffffffffffffffffffffffffffffff82036145ba576145b96144eb565b5b600182019050919050565b60006145d082613b81565b9150600082036145e3576145e26144eb565b5b600182039050919050565b60006040820190506146036000830185613f4d565b6146106020830184613f4d565b9392505050565b600061462282613b81565b915061462d83613b81565b9250828201905080821115614645576146446144eb565b5b92915050565b7f4e487b7100000000000000000000000000000000000000000000000000000000600052601260045260246000fd5b600061468582613b81565b915061469083613b81565b9250826146a05761469f61464b565b5b828204905092915050565b6000815190506146ba81613ef4565b92915050565b6000602082840312156146d6576146d5613bbf565b5b60006146e4848285016146ab565b91505092915050565b600060ff82169050919050565b614703816146ed565b811461470e57600080fd5b50565b600081519050614720816146fa565b92915050565b60006020828403121561473c5761473b613bbf565b5b600061474a84828501614711565b91505092915050565b600061476661476184614021565b614006565b90508281526020810184848401111561478257614781613fa1565b5b61478d848285613cf7565b509392505050565b600082601f8301126147aa576147a9613f9c565b5b81516147ba848260208601614753565b91505092915050565b6000602082840312156147d9576147d8613bbf565b5b600082015167ffffffffffffffff8111156147f7576147f6613bc4565b5b61480384828501614795565b91505092915050565b600061481782613b81565b915061482283613b81565b925082820261483081613b81565b91508282048414831517614847576148466144eb565b5b5092915050565b7f4e487b7100000000000000000000000000000000000000000000000000000000600052603160045260246000fd5b600061489861489361488e84613bc9565b6142f1565b613bc9565b9050919050565b60006148aa8261487d565b9050919050565b60006148bc8261489f565b9050919050565b6148cc816148b1565b82525050565b60006040820190506148e760008301856148c3565b6148f46020830184613b8b565b9392505050565b60008151905061490a81613c33565b92915050565b60006020828403121561492657614925613bbf565b5b6000614934848285016148fb565b91505092915050565b60006060820190506149526000830186613f4d565b61495f6020830185613f4d565b61496c6040830184613b8b565b949350505050565b60006040820190506149896000830185613f4d565b6149966020830184613b8b565b9392505050565b600081905092915050565b50565b60006149b860008361499d565b91506149c3826149a8565b600082019050919050565b60006149d9826149ab565b9150819050919050565b60006149ee826146ed565b915060008203614a0157614a006144eb565b5b600182039050919050565b60008160011c9050919050565b6000808291508390505b6001851115614a6357808604811115614a3f57614a3e6144eb565b5b6001851615614a4e5780820291505b8081029050614a5c85614a0c565b9450614a23565b94509492505050565b600082614a7c5760019050614b38565b81614a8a5760009050614b38565b8160018114614aa05760028114614aaa57614ad9565b6001915050614b38565b60ff841115614abc57614abb6144eb565b5b8360020a915084821115614ad357614ad26144eb565b5b50614b38565b5060208310610133831016604e8410600b8410161715614b0e5782820a905083811115614b0957614b086144eb565b5b614b38565b614b1b8484846001614a19565b92509050818404811115614b3257614b316144eb565b5b81810290505b9392505050565b6000614b4a82613b81565b9150614b55836146ed565b9250614b827fffffffffffffffffffffffffffffffffffffffffffffffffffffffffffffffff8484614a6c565b905092915050565b6000614b95826146ed565b9150614ba0836146ed565b9250828203905060ff811115614bb957614bb86144eb565b5b92915050565b6000606082019050614bd46000830186613b8b565b614be16020830185613b8b565b614bee6040830184613b8b565b94935050505056fea264697066735822122025173abf41fda6ef1f9bc2b947b40384c8ae92223b47d4445e1adf72ba3395c164736f6c63430008150033",
  "linkReferences": {},
  "deployedLinkReferences": {}
}