{
  "_format": "hh-sol-artifact-1",
  "contractName": "DexhuneExchange",
  "sourceName": "contracts/DexhuneExchange.sol",
  "abi": [
    {
      "inputs": [],
      "stateMutability": "nonpayable",
      "type": "constructor"
    },
    {
      "inputs": [],
      "name": "DepositFailed",
      "type": "error"
    },
    {
      "inputs": [],
      "name": "FailedStringToNumberConversion",
      "type": "error"
    },
    {
      "inputs": [],
      "name": "FailedToSendReward",
      "type": "error"
    },
    {
      "inputs": [],
      "name": "FailedToTakeOrder",
      "type": "error"
    },
    {
      "inputs": [
        {
          "internalType": "uint256",
          "name": "balance",
          "type": "uint256"
        }
      ],
      "name": "InsufficientBalance",
      "type": "error"
    },
    {
      "inputs": [
        {
          "internalType": "uint256",
          "name": "listingPrice",
          "type": "uint256"
        }
      ],
      "name": "InsufficientBalanceForListing",
      "type": "error"
    },
    {
      "inputs": [],
      "name": "InvalidTokenContract",
      "type": "error"
    },
    {
      "inputs": [],
      "name": "NoSuitableOrderFound",
      "type": "error"
    },
    {
      "inputs": [],
      "name": "OnlyOwnerMustSetDefaultToken",
      "type": "error"
    },
    {
      "inputs": [],
      "name": "OrderLimitReachedTryLater",
      "type": "error"
    },
    {
      "inputs": [
        {
          "internalType": "uint256",
          "name": "x",
          "type": "uint256"
        },
        {
          "internalType": "uint256",
          "name": "y",
          "type": "uint256"
        }
      ],
      "name": "PRBMath_MulDiv18_Overflow",
      "type": "error"
    },
    {
      "inputs": [
        {
          "internalType": "uint256",
          "name": "x",
          "type": "uint256"
        },
        {
          "internalType": "uint256",
          "name": "y",
          "type": "uint256"
        },
        {
          "internalType": "uint256",
          "name": "denominator",
          "type": "uint256"
        }
      ],
      "name": "PRBMath_MulDiv_Overflow",
      "type": "error"
    },
    {
      "inputs": [],
      "name": "ParityShouldNotHavePrice",
      "type": "error"
    },
    {
      "inputs": [
        {
          "internalType": "address",
          "name": "contractAddr",
          "type": "address"
        }
      ],
      "name": "TokenAlreadyExists",
      "type": "error"
    },
    {
      "inputs": [],
      "name": "TokenLimitReached",
      "type": "error"
    },
    {
      "inputs": [],
      "name": "TokenNotListed",
      "type": "error"
    },
    {
      "inputs": [],
      "name": "TokenNotSupported_TooManyDecimals",
      "type": "error"
    },
    {
      "inputs": [
        {
          "internalType": "address",
          "name": "account",
          "type": "address"
        }
      ],
      "name": "UnauthorizedAccount",
      "type": "error"
    },
    {
      "anonymous": false,
      "inputs": [
        {
          "indexed": false,
          "internalType": "address",
          "name": "oldOwner",
          "type": "address"
        },
        {
          "indexed": false,
          "internalType": "address",
          "name": "newOwner",
          "type": "address"
        }
      ],
      "name": "TransferredOwnership",
      "type": "event"
    },
    {
      "inputs": [],
      "name": "clearOrders",
      "outputs": [],
      "stateMutability": "nonpayable",
      "type": "function"
    },
    {
      "inputs": [
        {
          "internalType": "address",
          "name": "tokenAddr",
          "type": "address"
        }
      ],
      "name": "createBuyOrder",
      "outputs": [],
      "stateMutability": "payable",
      "type": "function"
    },
    {
      "inputs": [
        {
          "internalType": "address",
          "name": "tokenAddr",
          "type": "address"
        },
        {
          "internalType": "uint256",
          "name": "amount",
          "type": "uint256"
        }
      ],
      "name": "createSellOrder",
      "outputs": [],
      "stateMutability": "nonpayable",
      "type": "function"
    },
    {
      "inputs": [
        {
          "internalType": "address",
          "name": "tokenAddr",
          "type": "address"
        }
      ],
      "name": "deposit",
      "outputs": [],
      "stateMutability": "payable",
      "type": "function"
    },
    {
      "inputs": [
        {
          "internalType": "address",
          "name": "tokenAddr",
          "type": "address"
        },
        {
          "internalType": "address",
          "name": "fromAddress",
          "type": "address"
        },
        {
          "internalType": "uint256",
          "name": "amount",
          "type": "uint256"
        }
      ],
      "name": "depositToken",
      "outputs": [],
      "stateMutability": "nonpayable",
      "type": "function"
    },
    {
      "inputs": [],
      "name": "getBalance",
      "outputs": [
        {
          "internalType": "uint256",
          "name": "",
          "type": "uint256"
        }
      ],
      "stateMutability": "view",
      "type": "function"
    },
    {
      "inputs": [
        {
          "internalType": "address",
          "name": "tokenAddr",
          "type": "address"
        },
        {
          "internalType": "enum DexhuneExchangeBase.PricingScheme",
          "name": "scheme",
          "type": "uint8"
        },
        {
          "internalType": "uint256",
          "name": "reward",
          "type": "uint256"
        },
        {
          "internalType": "uint256",
          "name": "rewardThreshold",
          "type": "uint256"
        },
        {
          "internalType": "address",
          "name": "parityAddr",
          "type": "address"
        },
        {
          "internalType": "string",
          "name": "price",
          "type": "string"
        }
      ],
      "name": "listToken",
      "outputs": [],
      "stateMutability": "nonpayable",
      "type": "function"
    },
    {
      "inputs": [],
      "name": "owner",
      "outputs": [
        {
          "internalType": "address",
          "name": "",
          "type": "address"
        }
      ],
      "stateMutability": "view",
      "type": "function"
    },
    {
      "inputs": [
        {
          "internalType": "address",
          "name": "tokenAddr",
          "type": "address"
        },
        {
          "internalType": "bool",
          "name": "isAVAX",
          "type": "bool"
        }
      ],
      "name": "queryBalance",
      "outputs": [
        {
          "internalType": "uint256",
          "name": "",
          "type": "uint256"
        }
      ],
      "stateMutability": "view",
      "type": "function"
    },
    {
      "inputs": [
        {
          "internalType": "address",
          "name": "tokenAddr",
          "type": "address"
        },
        {
          "internalType": "bool",
          "name": "orderType",
          "type": "bool"
        }
      ],
      "name": "settleOrders",
      "outputs": [],
      "stateMutability": "nonpayable",
      "type": "function"
    },
    {
      "inputs": [
        {
          "internalType": "address",
          "name": "tokenAddr",
          "type": "address"
        },
        {
          "internalType": "uint256",
          "name": "amount",
          "type": "uint256"
        }
      ],
      "name": "takeBuyOrder",
      "outputs": [],
      "stateMutability": "nonpayable",
      "type": "function"
    },
    {
      "inputs": [
        {
          "internalType": "address",
          "name": "tokenAddr",
          "type": "address"
        }
      ],
      "name": "takeSellOrder",
      "outputs": [],
      "stateMutability": "payable",
      "type": "function"
    },
    {
      "inputs": [
        {
          "internalType": "address",
          "name": "_address",
          "type": "address"
        }
      ],
      "name": "transferOwnership",
      "outputs": [],
      "stateMutability": "nonpayable",
      "type": "function"
    },
    {
      "inputs": [
        {
          "internalType": "address",
          "name": "tokenAddr",
          "type": "address"
        }
      ],
      "name": "viewToken",
      "outputs": [
        {
          "components": [
            {
              "internalType": "uint256",
              "name": "tokenNo",
              "type": "uint256"
            },
            {
              "internalType": "string",
              "name": "name",
              "type": "string"
            },
            {
              "internalType": "string",
              "name": "sym",
              "type": "string"
            },
            {
              "internalType": "address",
              "name": "addr",
              "type": "address"
            },
            {
              "internalType": "address",
              "name": "parityAddr",
              "type": "address"
            },
            {
              "internalType": "uint256",
              "name": "reward",
              "type": "uint256"
            },
            {
              "internalType": "uint256",
              "name": "rewardThreshold",
              "type": "uint256"
            },
            {
              "internalType": "enum DexhuneExchangeBase.PricingScheme",
              "name": "scheme",
              "type": "uint8"
            },
            {
              "internalType": "uint256",
              "name": "price",
              "type": "uint256"
            },
            {
              "internalType": "uint256",
              "name": "orders",
              "type": "uint256"
            }
          ],
          "internalType": "struct DexhuneExchangeBase.TokenDataModel",
          "name": "",
          "type": "tuple"
        }
      ],
      "stateMutability": "view",
      "type": "function"
    },
    {
      "inputs": [
        {
          "internalType": "uint256",
          "name": "tokenNo",
          "type": "uint256"
        }
      ],
      "name": "viewToken",
      "outputs": [
        {
          "components": [
            {
              "internalType": "uint256",
              "name": "tokenNo",
              "type": "uint256"
            },
            {
              "internalType": "string",
              "name": "name",
              "type": "string"
            },
            {
              "internalType": "string",
              "name": "sym",
              "type": "string"
            },
            {
              "internalType": "address",
              "name": "addr",
              "type": "address"
            },
            {
              "internalType": "address",
              "name": "parityAddr",
              "type": "address"
            },
            {
              "internalType": "uint256",
              "name": "reward",
              "type": "uint256"
            },
            {
              "internalType": "uint256",
              "name": "rewardThreshold",
              "type": "uint256"
            },
            {
              "internalType": "enum DexhuneExchangeBase.PricingScheme",
              "name": "scheme",
              "type": "uint8"
            },
            {
              "internalType": "uint256",
              "name": "price",
              "type": "uint256"
            },
            {
              "internalType": "uint256",
              "name": "orders",
              "type": "uint256"
            }
          ],
          "internalType": "struct DexhuneExchangeBase.TokenDataModel",
          "name": "",
          "type": "tuple"
        }
      ],
      "stateMutability": "view",
      "type": "function"
    }
  ],
  "bytecode": "0x60806040526103e860015534801561001657600080fd5b50336000806101000a81548173ffffffffffffffffffffffffffffffffffffffff021916908373ffffffffffffffffffffffffffffffffffffffff16021790555061500b806100666000396000f3fe6080604052600436106100e85760003560e01c80639351769f1161008a578063db34a67911610059578063db34a679146102c4578063f2fde38b146102ed578063f340fa0114610316578063fb0f97a814610332576100e8565b80639351769f1461023f578063a262b73f14610256578063c201e47c1461027f578063d2980065146102a8576100e8565b80636daf6945116100c65780636daf6945146101925780638334d195146101ae5780638da5cb5b146101eb57806392e6b82914610216576100e8565b806312065fe0146100ed5780633b174f0f14610118578063673cf82a14610155575b600080fd5b3480156100f957600080fd5b5061010261035b565b60405161010f9190613f50565b60405180910390f35b34801561012457600080fd5b5061013f600480360381019061013a9190614015565b610363565b60405161014c9190613f50565b60405180910390f35b34801561016157600080fd5b5061017c60048036038101906101779190614055565b610395565b6040516101899190614288565b60405180910390f35b6101ac60048036038101906101a79190614055565b61042c565b005b3480156101ba57600080fd5b506101d560048036038101906101d091906142d6565b61049e565b6040516101e29190614288565b60405180910390f35b3480156101f757600080fd5b506102006104f4565b60405161020d9190614312565b60405180910390f35b34801561022257600080fd5b5061023d60048036038101906102389190614487565b610518565b005b34801561024b57600080fd5b50610254610a2d565b005b34801561026257600080fd5b5061027d60048036038101906102789190614530565b610e3d565b005b34801561028b57600080fd5b506102a660048036038101906102a19190614015565b610ebb565b005b6102c260048036038101906102bd9190614055565b611152565b005b3480156102d057600080fd5b506102eb60048036038101906102e69190614530565b61118f565b005b3480156102f957600080fd5b50610314600480360381019061030f9190614055565b611250565b005b610330600480360381019061032b9190614055565b61131b565b005b34801561033e57600080fd5b5061035960048036038101906103549190614570565b61134c565b005b600047905090565b60008061036f846113bf565b905082156103855780610140015191505061038f565b8061016001519150505b92915050565b61039d613d6d565b6000600460008473ffffffffffffffffffffffffffffffffffffffff1673ffffffffffffffffffffffffffffffffffffffff1681526020019081526020016000205490506000810361041b576040517fc5f0a1ee00000000000000000000000000000000000000000000000000000000815260040160405180910390fd5b6104248161141c565b915050919050565b6000349050610439613dfe565b6000806104468585611814565b80945081955082935050505080610489576040517f2050d62b00000000000000000000000000000000000000000000000000000000815260040160405180910390fd5b610497836000848789611a37565b5050505050565b6104a6613d6d565b60028054905082106104e4576040517fc5f0a1ee00000000000000000000000000000000000000000000000000000000815260040160405180910390fd5b6104ed8261141c565b9050919050565b60008054906101000a900473ffffffffffffffffffffffffffffffffffffffff1681565b6000600280549050036105ab5760008054906101000a900473ffffffffffffffffffffffffffffffffffffffff1673ffffffffffffffffffffffffffffffffffffffff163373ffffffffffffffffffffffffffffffffffffffff16146105aa576040517fac966a5200000000000000000000000000000000000000000000000000000000815260040160405180910390fd5b5b60008690506000600460008373ffffffffffffffffffffffffffffffffffffffff1673ffffffffffffffffffffffffffffffffffffffff1681526020019081526020016000205490506000811415801561060a57506000600280549050115b1561064c57816040517f15ef3a570000000000000000000000000000000000000000000000000000000081526004016106439190614312565b60405180910390fd5b620f42406002805490501061068d576040517f53bb24f900000000000000000000000000000000000000000000000000000000815260040160405180910390fd5b600060608060008061069e87611dc8565b809550819650829750839850849950505050505060006106bd89612059565b9050600073ffffffffffffffffffffffffffffffffffffffff168a73ffffffffffffffffffffffffffffffffffffffff16141580156106fc5750600081115b15610733576040517f4f7af06a00000000000000000000000000000000000000000000000000000000815260040160405180910390fd5b61073b6120ac565b6000604051806101c001604052808781526020018681526020018560ff1681526020018481526020018a73ffffffffffffffffffffffffffffffffffffffff1681526020018c73ffffffffffffffffffffffffffffffffffffffff1681526020018f60018111156107af576107ae614130565b5b81526020018e81526020018d81526020018381526020016000815260200160008152602001600081526020018873ffffffffffffffffffffffffffffffffffffffff16815250905060028190806001815401808255809150506001900390600052602060002090600d0201600090919091909150600082015181600001908161083891906147cf565b50602082015181600101908161084e91906147cf565b5060408201518160020160006101000a81548160ff021916908360ff1602179055506060820151816003015560808201518160040160006101000a81548173ffffffffffffffffffffffffffffffffffffffff021916908373ffffffffffffffffffffffffffffffffffffffff16021790555060a08201518160050160006101000a81548173ffffffffffffffffffffffffffffffffffffffff021916908373ffffffffffffffffffffffffffffffffffffffff16021790555060c08201518160050160146101000a81548160ff0219169083600181111561093357610932614130565b5b021790555060e0820151816006015561010082015181600701556101208201518160080155610140820151816009015561016082015181600a015561018082015181600b01556101a082015181600c0160006101000a81548173ffffffffffffffffffffffffffffffffffffffff021916908373ffffffffffffffffffffffffffffffffffffffff160217905550505060016002805490506109d591906148d0565b60046000836080015173ffffffffffffffffffffffffffffffffffffffff1673ffffffffffffffffffffffffffffffffffffffff16815260200190815260200160002081905550505050505050505050505050505050565b6000600660003373ffffffffffffffffffffffffffffffffffffffff1673ffffffffffffffffffffffffffffffffffffffff1681526020019081526020016000209050600080828054905011905060008082610a8a576064610a8d565b60325b9050600080429050610a9d613dfe565b600060038054905011610ab65750505050505050610e3b565b8515610c9257600060018880549050610acf91906148d0565b90505b60008110158015610ae35750848611155b15610c8557878181548110610afb57610afa614904565b5b9060005260206000200154935060038481548110610b1c57610b1b614904565b5b9060005260206000209060070201604051806101000160405290816000820160009054906101000a900473ffffffffffffffffffffffffffffffffffffffff1673ffffffffffffffffffffffffffffffffffffffff1673ffffffffffffffffffffffffffffffffffffffff1681526020016001820160009054906101000a900473ffffffffffffffffffffffffffffffffffffffff1673ffffffffffffffffffffffffffffffffffffffff1673ffffffffffffffffffffffffffffffffffffffff1681526020016001820160149054906101000a900460ff161515151581526020016002820154815260200160038201548152602001600482015481526020016005820154815260200160068201548152505091506028826060015184610c4391906148d0565b1115610c7257610c538285612451565b15610c7157610c62888261250c565b8580610c6d90614933565b9650505b5b8080610c7d9061497b565b915050610ad2565b5050505050505050610e3b565b60006001600380549050610ca691906148d0565b90505b60008110158015610cba5750848611155b15610e325760038181548110610cd357610cd2614904565b5b9060005260206000209060070201604051806101000160405290816000820160009054906101000a900473ffffffffffffffffffffffffffffffffffffffff1673ffffffffffffffffffffffffffffffffffffffff1673ffffffffffffffffffffffffffffffffffffffff1681526020016001820160009054906101000a900473ffffffffffffffffffffffffffffffffffffffff1673ffffffffffffffffffffffffffffffffffffffff1673ffffffffffffffffffffffffffffffffffffffff1681526020016001820160149054906101000a900460ff161515151581526020016002820154815260200160038201548152602001600482015481526020016005820154815260200160068201548152505091506028826060015184610dfa91906148d0565b1115610e1f57610e0a8285612451565b15610e1e578580610e1a90614933565b9650505b5b8080610e2a9061497b565b915050610ca9565b50505050505050505b565b6000610e48836113bf565b9050610e5a816101a001513384612594565b610e90576040517f79cacff100000000000000000000000000000000000000000000000000000000815260040160405180910390fd5b818161016001818151610ea391906149a4565b91508181525050610eb681600084612628565b505050565b6000610ec6836113bf565b9050600060056000836080015173ffffffffffffffffffffffffffffffffffffffff1673ffffffffffffffffffffffffffffffffffffffff1681526020019081526020016000209050610f17613dfe565b60008085610f2a57846101400151610f31565b8461016001515b9050600060018580549050610f4691906148d0565b90505b600082118015610f5a575060008110155b15611126576000858281548110610f7457610f73614904565b5b9060005260206000200154905060038181548110610f9557610f94614904565b5b9060005260206000209060070201604051806101000160405290816000820160009054906101000a900473ffffffffffffffffffffffffffffffffffffffff1673ffffffffffffffffffffffffffffffffffffffff1673ffffffffffffffffffffffffffffffffffffffff1681526020016001820160009054906101000a900473ffffffffffffffffffffffffffffffffffffffff1673ffffffffffffffffffffffffffffffffffffffff1673ffffffffffffffffffffffffffffffffffffffff1681526020016001820160149054906101000a900460ff1615151515815260200160028201548152602001600382015481526020016004820154815260200160058201548152602001600682015481525050945087151585604001511515146110bf5750611113565b87156110dd576110d0878685612e78565b80945081955050506110f1565b6110e8878685612fc8565b80945081955050505b836110fc5750611113565b611106868361250c565b61111160038261309f565b505b808061111e9061497b565b915050610f49565b50851561113d578085610160018181525050611149565b80856101400181815250505b50505050505050565b60003490506000611162836113bf565b905081816101400181815161117791906149a4565b9150818152505061118a81600184612628565b505050565b600061119a836113bf565b90506111a4613dfe565b6000806111b18686611814565b809450819550829350505050806111f4576040517f2050d62b00000000000000000000000000000000000000000000000000000000815260040160405180910390fd5b611204846101a001518787612594565b61123a576040517f79cacff100000000000000000000000000000000000000000000000000000000815260040160405180910390fd5b61124883600184888a611a37565b505050505050565b6112586132e7565b60008060009054906101000a900473ffffffffffffffffffffffffffffffffffffffff169050816000806101000a81548173ffffffffffffffffffffffffffffffffffffffff021916908373ffffffffffffffffffffffffffffffffffffffff1602179055507f850b3df64837d7d518b45f5aa64d104652c3b80eb5b34a8e3d9eb666cb7cdea58160008054906101000a900473ffffffffffffffffffffffffffffffffffffffff1660405161130f9291906149d8565b60405180910390a15050565b6000611326826113bf565b9050600034905080826101400181815161134091906149a4565b91508181525050505050565b6000611357846113bf565b9050611369816101a001518484612594565b61139f576040517f79cacff100000000000000000000000000000000000000000000000000000000815260040160405180910390fd5b8181610160018181516113b291906149a4565b9150818152505050505050565b6113c7613e71565b6000600460008473ffffffffffffffffffffffffffffffffffffffff1673ffffffffffffffffffffffffffffffffffffffff16815260200190815260200160002054905061141481613379565b915050919050565b611424613d6d565b60006002838154811061143a57611439614904565b5b90600052602060002090600d0201604051806101c0016040529081600082018054611464906145f2565b80601f0160208091040260200160405190810160405280929190818152602001828054611490906145f2565b80156114dd5780601f106114b2576101008083540402835291602001916114dd565b820191906000526020600020905b8154815290600101906020018083116114c057829003601f168201915b505050505081526020016001820180546114f6906145f2565b80601f0160208091040260200160405190810160405280929190818152602001828054611522906145f2565b801561156f5780601f106115445761010080835404028352916020019161156f565b820191906000526020600020905b81548152906001019060200180831161155257829003601f168201915b505050505081526020016002820160009054906101000a900460ff1660ff1660ff168152602001600382015481526020016004820160009054906101000a900473ffffffffffffffffffffffffffffffffffffffff1673ffffffffffffffffffffffffffffffffffffffff1673ffffffffffffffffffffffffffffffffffffffff1681526020016005820160009054906101000a900473ffffffffffffffffffffffffffffffffffffffff1673ffffffffffffffffffffffffffffffffffffffff1673ffffffffffffffffffffffffffffffffffffffff1681526020016005820160149054906101000a900460ff1660018111156116705761166f614130565b5b600181111561168257611681614130565b5b815260200160068201548152602001600782015481526020016008820154815260200160098201548152602001600a8201548152602001600b8201548152602001600c820160009054906101000a900473ffffffffffffffffffffffffffffffffffffffff1673ffffffffffffffffffffffffffffffffffffffff1673ffffffffffffffffffffffffffffffffffffffff16815250509050600060056000836080015173ffffffffffffffffffffffffffffffffffffffff1673ffffffffffffffffffffffffffffffffffffffff1681526020019081526020016000208054905090506040518061014001604052808581526020018360000151815260200183602001518152602001836080015173ffffffffffffffffffffffffffffffffffffffff1681526020018360a0015173ffffffffffffffffffffffffffffffffffffffff1681526020018360e00151815260200183610100015181526020018360c0015160018111156117f7576117f6614130565b5b815260200183610120015181526020018281525092505050919050565b600061181e613dfe565b6000611828613dfe565b6000600560008873ffffffffffffffffffffffffffffffffffffffff1673ffffffffffffffffffffffffffffffffffffffff168152602001908152602001600020905060008060006001848054905061188191906148d0565b90505b60008110611a225760008482815481106118a1576118a0614904565b5b90600052602060002001549050600381815481106118c2576118c1614904565b5b9060005260206000209060070201604051806101000160405290816000820160009054906101000a900473ffffffffffffffffffffffffffffffffffffffff1673ffffffffffffffffffffffffffffffffffffffff1673ffffffffffffffffffffffffffffffffffffffff1681526020016001820160009054906101000a900473ffffffffffffffffffffffffffffffffffffffff1673ffffffffffffffffffffffffffffffffffffffff1673ffffffffffffffffffffffffffffffffffffffff1681526020016001820160149054906101000a900460ff16151515158152602001600282015481526020016003820154815260200160048201548152602001600582015481526020016006820154815250509550898660e00151036119ef576001935081925050611a22565b83158015611a015750898660e0015110155b15611a0e57600193508192505b508080611a1a9061497b565b915050611884565b50818482965096509650505050509250925092565b6000611a42826113bf565b905060038481548110611a5857611a57614904565b5b9060005260206000209060070201604051806101000160405290816000820160009054906101000a900473ffffffffffffffffffffffffffffffffffffffff1673ffffffffffffffffffffffffffffffffffffffff1673ffffffffffffffffffffffffffffffffffffffff1681526020016001820160009054906101000a900473ffffffffffffffffffffffffffffffffffffffff1673ffffffffffffffffffffffffffffffffffffffff1673ffffffffffffffffffffffffffffffffffffffff1681526020016001820160149054906101000a900460ff161515151581526020016002820154815260200160038201548152602001600482015481526020016005820154815260200160068201548152505095506000838760e00151141590506000848860e00151611b8b91906148d0565b905060008860c0015190506000808415611bfd576000611bb4876101200151601260ff166136d1565b90506000611bc986896040015160ff166136d1565b905060008c611bdc578860400151611bdf565b60125b9050611bf7611bee83856136f6565b8260ff1661372d565b95505050505b8915611c0e57829150839050611c15565b8391508290505b6000808b15611c2d573391508c600001519050611c38565b8c6000015191503390505b611c48886101a001518287613752565b611c7e576040517f4de4e1d000000000000000000000000000000000000000000000000000000000815260040160405180910390fd5b611c8882876137e4565b611cbe576040517f4de4e1d000000000000000000000000000000000000000000000000000000000815260040160405180910390fd5b858861014001818151611cd191906148d0565b91508181525050848861016001818151611ceb91906148d0565b915081815250508615611d2f57858d60e001818151611d0a91906148d0565b91508181525050848d60c001818151611d2391906148d0565b91508181525050611d3b565b611d3a60038c61309f565b5b60008860e0015111611d54575050505050505050611dc1565b876101000151831015611d6e575050505050505050611dc1565b611d82886101a00151828a60e00151613752565b611db8576040517fc96d18b500000000000000000000000000000000000000000000000000000000815260040160405180910390fd5b50505050505050505b5050505050565b600060608060008060008690506060806000808473ffffffffffffffffffffffffffffffffffffffff166370a08231306040518263ffffffff1660e01b8152600401611e149190614312565b602060405180830381865afa925050508015611e4e57506040513d601f19601f82011682018060405250810190611e4b9190614a16565b60015b611e84576040517f29bdfb3400000000000000000000000000000000000000000000000000000000815260040160405180910390fd5b508473ffffffffffffffffffffffffffffffffffffffff1663313ce5676040518163ffffffff1660e01b8152600401602060405180830381865afa925050508015611eed57506040513d601f19601f82011682018060405250810190611eea9190614a7c565b60015b611efa5760129050611eff565b809150505b601260ff168160ff161115611f40576040517f432c0a5d00000000000000000000000000000000000000000000000000000000815260040160405180910390fd5b611f4c8160ff1661385b565b91508473ffffffffffffffffffffffffffffffffffffffff166306fdde036040518163ffffffff1660e01b8152600401600060405180830381865afa925050508015611fbb57506040513d6000823e3d601f19601f82011682018060405250810190611fb89190614b19565b60015b15611fc557809450505b8473ffffffffffffffffffffffffffffffffffffffff166395d89b416040518163ffffffff1660e01b8152600401600060405180830381865afa92505050801561203257506040513d6000823e3d601f19601f8201168201806040525081019061202f9190614b19565b60015b1561203c57809350505b848484838599509950995099509950505050505091939590929450565b60008060006120678461387d565b91509150806120a2576040517fe6f7d2c700000000000000000000000000000000000000000000000000000000815260040160405180910390fd5b8192505050919050565b600060026000815481106120c3576120c2614904565b5b90600052602060002090600d0201604051806101c00160405290816000820180546120ed906145f2565b80601f0160208091040260200160405190810160405280929190818152602001828054612119906145f2565b80156121665780601f1061213b57610100808354040283529160200191612166565b820191906000526020600020905b81548152906001019060200180831161214957829003601f168201915b5050505050815260200160018201805461217f906145f2565b80601f01602080910402602001604051908101604052809291908181526020018280546121ab906145f2565b80156121f85780601f106121cd576101008083540402835291602001916121f8565b820191906000526020600020905b8154815290600101906020018083116121db57829003601f168201915b505050505081526020016002820160009054906101000a900460ff1660ff1660ff168152602001600382015481526020016004820160009054906101000a900473ffffffffffffffffffffffffffffffffffffffff1673ffffffffffffffffffffffffffffffffffffffff1673ffffffffffffffffffffffffffffffffffffffff1681526020016005820160009054906101000a900473ffffffffffffffffffffffffffffffffffffffff1673ffffffffffffffffffffffffffffffffffffffff1673ffffffffffffffffffffffffffffffffffffffff1681526020016005820160149054906101000a900460ff1660018111156122f9576122f8614130565b5b600181111561230b5761230a614130565b5b815260200160068201548152602001600782015481526020016008820154815260200160098201548152602001600a8201548152602001600b8201548152602001600c820160009054906101000a900473ffffffffffffffffffffffffffffffffffffffff1673ffffffffffffffffffffffffffffffffffffffff1673ffffffffffffffffffffffffffffffffffffffff168152505090506123b5816101a0015133600154612594565b6123f8576001546040517fca114a020000000000000000000000000000000000000000000000000000000081526004016123ef9190613f50565b60405180910390fd5b600154816101600181815161240d91906149a4565b9150818152505060006103e860056001546124289190614b62565b6124329190614bd3565b9050806001600082825461244691906149a4565b925050819055505050565b60008061246184602001516113bf565b90508360400151156124b05761247f84600001518560c001516137e4565b61248d576000915050612506565b8360c0015181610140018181516124a491906148d0565b915081815250506124f5565b6124c8816101a0015185600001518660c00151613752565b6124d6576000915050612506565b8360c0015181610160018181516124ed91906148d0565b915081815250505b61250060038461309f565b60019150505b92915050565b60006001838054905061251f91906148d0565b90508082146125685782818154811061253b5761253a614904565b5b906000526020600020015483838154811061255957612558614904565b5b90600052602060002001819055505b8280548061257957612578614c04565b5b60019003818190600052602060002001600090559055505050565b60008373ffffffffffffffffffffffffffffffffffffffff166323b872dd8430856040518463ffffffff1660e01b81526004016125d393929190614c33565b6020604051808303816000875af192505050801561260f57506040513d601f19601f8201168201806040525081019061260c9190614c7f565b60015b61261c5760009050612621565b809150505b9392505050565b600080600181111561263d5761263c614130565b5b8460c00151600181111561265457612653614130565b5b036126af576126616139d6565b6000612673600954601260ff166136d1565b9050600061268d866101200151876040015160ff166136d1565b90506126a661269c83836136f6565b601260ff1661372d565b92505050612b6a565b6001808111156126c2576126c1614130565b5b8460c0015160018111156126d9576126d8614130565b5b03612b6957600060f0856101800151426126f391906148d0565b101590508015612b67576000600260008154811061271457612713614904565b5b90600052602060002090600d0201604051806101c001604052908160008201805461273e906145f2565b80601f016020809104026020016040519081016040528092919081815260200182805461276a906145f2565b80156127b75780601f1061278c576101008083540402835291602001916127b7565b820191906000526020600020905b81548152906001019060200180831161279a57829003601f168201915b505050505081526020016001820180546127d0906145f2565b80601f01602080910402602001604051908101604052809291908181526020018280546127fc906145f2565b80156128495780601f1061281e57610100808354040283529160200191612849565b820191906000526020600020905b81548152906001019060200180831161282c57829003601f168201915b505050505081526020016002820160009054906101000a900460ff1660ff1660ff168152602001600382015481526020016004820160009054906101000a900473ffffffffffffffffffffffffffffffffffffffff1673ffffffffffffffffffffffffffffffffffffffff1673ffffffffffffffffffffffffffffffffffffffff1681526020016005820160009054906101000a900473ffffffffffffffffffffffffffffffffffffffff1673ffffffffffffffffffffffffffffffffffffffff1673ffffffffffffffffffffffffffffffffffffffff1681526020016005820160149054906101000a900460ff16600181111561294a57612949614130565b5b600181111561295c5761295b614130565b5b815260200160068201548152602001600782015481526020016008820154815260200160098201548152602001600a8201548152602001600b8201548152602001600c820160009054906101000a900473ffffffffffffffffffffffffffffffffffffffff1673ffffffffffffffffffffffffffffffffffffffff1673ffffffffffffffffffffffffffffffffffffffff168152505090506000866101a0015190506000826101a00151905060008273ffffffffffffffffffffffffffffffffffffffff166370a082318a60a001516040518263ffffffff1660e01b8152600401612a479190614312565b602060405180830381865afa158015612a64573d6000803e3d6000fd5b505050506040513d601f19601f82011682018060405250810190612a889190614a16565b905060008273ffffffffffffffffffffffffffffffffffffffff166370a082318b60a001516040518263ffffffff1660e01b8152600401612ac99190614312565b602060405180830381865afa158015612ae6573d6000803e3d6000fd5b505050506040513d601f19601f82011682018060405250810190612b0a9190614a16565b9050612b1d828b6040015160ff166136d1565b9150612b3081866040015160ff166136d1565b9050612b49612b3f82846136f6565b601260ff1661372d565b9650868a610120018181525050428a61018001818152505050505050505b505b5b6000806000612b7d84601260ff166136d1565b90508515612bb657612b9385601260ff166136d1565b9150612baf612ba28284613abd565b886040015160ff1661372d565b9250612be6565b612bc785886040015160ff166136d1565b9150612be3612bd683836136f6565b886040015160ff1661372d565b92505b60008761010001518510612bfc578760e0015190505b60006040518061010001604052803373ffffffffffffffffffffffffffffffffffffffff1681526020018a6080015173ffffffffffffffffffffffffffffffffffffffff1681526020018915158152602001428152602001838152602001878152602001888152602001868152509050600381908060018154018082558091505060019003906000526020600020906007020160009091909190915060008201518160000160006101000a81548173ffffffffffffffffffffffffffffffffffffffff021916908373ffffffffffffffffffffffffffffffffffffffff16021790555060208201518160010160006101000a81548173ffffffffffffffffffffffffffffffffffffffff021916908373ffffffffffffffffffffffffffffffffffffffff16021790555060408201518160010160146101000a81548160ff021916908315150217905550606082015181600201556080820151816003015560a0820151816004015560c0820151816005015560e0820151816006015550506000600660003373ffffffffffffffffffffffffffffffffffffffff1673ffffffffffffffffffffffffffffffffffffffff16815260200190815260200160002090506000600560008c6080015173ffffffffffffffffffffffffffffffffffffffff1673ffffffffffffffffffffffffffffffffffffffff168152602001908152602001600020905060006001600380549050612e1891906148d0565b90508281908060018154018082558091505060019003906000526020600020016000909190919091505581819080600181540180825580915050600190039060005260206000200160009091909190915055505050505050505050505050565b6000806000808560e00151851090508015612e9557849150612e9d565b8560e0015191505b6000876101a0015190508073ffffffffffffffffffffffffffffffffffffffff1663a9059cbb8860000151856040518363ffffffff1660e01b8152600401612ee6929190614d01565b6020604051808303816000875af1925050508015612f2257506040513d601f19601f82011682018060405250810190612f1f9190614c7f565b60015b612f355760008694509450505050612fc0565b508286612f4291906148d0565b95508115612fb557828760e001818151612f5c91906148d0565b915081815250506000612f7a8860e001518a6040015160ff166136d1565b90506000612f908960a00151601260ff166136d1565b9050612fa9612f9f83836136f6565b601260ff1661372d565b8960c001818152505050505b811586945094505050505b935093915050565b6000806000808560e00151851090508015612fe557849150612fed565b8560e0015191505b612ffb8660000151836137e4565b1561308d57818561300c91906148d0565b9450801561307f57818660e00181815161302691906148d0565b9150818152505060006130418760e00151601260ff166136d1565b905060006130578860a00151601260ff166136d1565b905061307361306683836136f6565b8a6040015160ff1661372d565b8860c001818152505050505b600185935093505050613097565b6000859350935050505b935093915050565b6000600183805490506130b291906148d0565b905080821461322e578281815481106130ce576130cd614904565b5b90600052602060002090600702018383815481106130ef576130ee614904565b5b90600052602060002090600702016000820160009054906101000a900473ffffffffffffffffffffffffffffffffffffffff168160000160006101000a81548173ffffffffffffffffffffffffffffffffffffffff021916908373ffffffffffffffffffffffffffffffffffffffff1602179055506001820160009054906101000a900473ffffffffffffffffffffffffffffffffffffffff168160010160006101000a81548173ffffffffffffffffffffffffffffffffffffffff021916908373ffffffffffffffffffffffffffffffffffffffff1602179055506001820160149054906101000a900460ff168160010160146101000a81548160ff02191690831515021790555060028201548160020155600382015481600301556004820154816004015560058201548160050155600682015481600601559050505b8280548061323f5761323e614c04565b5b6001900381819060005260206000209060070201600080820160006101000a81549073ffffffffffffffffffffffffffffffffffffffff02191690556001820160006101000a81549073ffffffffffffffffffffffffffffffffffffffff02191690556001820160146101000a81549060ff02191690556002820160009055600382016000905560048201600090556005820160009055600682016000905550509055505050565b60008054906101000a900473ffffffffffffffffffffffffffffffffffffffff1673ffffffffffffffffffffffffffffffffffffffff163373ffffffffffffffffffffffffffffffffffffffff161461337757336040517f32b2baa300000000000000000000000000000000000000000000000000000000815260040161336e9190614312565b60405180910390fd5b565b613381613e71565b600082148061339557506002805490508210155b156133cc576040517fc5f0a1ee00000000000000000000000000000000000000000000000000000000815260040160405180910390fd5b60026001836133db91906148d0565b815481106133ec576133eb614904565b5b90600052602060002090600d0201604051806101c0016040529081600082018054613416906145f2565b80601f0160208091040260200160405190810160405280929190818152602001828054613442906145f2565b801561348f5780601f106134645761010080835404028352916020019161348f565b820191906000526020600020905b81548152906001019060200180831161347257829003601f168201915b505050505081526020016001820180546134a8906145f2565b80601f01602080910402602001604051908101604052809291908181526020018280546134d4906145f2565b80156135215780601f106134f657610100808354040283529160200191613521565b820191906000526020600020905b81548152906001019060200180831161350457829003601f168201915b505050505081526020016002820160009054906101000a900460ff1660ff1660ff168152602001600382015481526020016004820160009054906101000a900473ffffffffffffffffffffffffffffffffffffffff1673ffffffffffffffffffffffffffffffffffffffff1673ffffffffffffffffffffffffffffffffffffffff1681526020016005820160009054906101000a900473ffffffffffffffffffffffffffffffffffffffff1673ffffffffffffffffffffffffffffffffffffffff1673ffffffffffffffffffffffffffffffffffffffff1681526020016005820160149054906101000a900460ff16600181111561362257613621614130565b5b600181111561363457613633614130565b5b815260200160068201548152602001600782015481526020016008820154815260200160098201548152602001600a8201548152602001600b8201548152602001600c820160009054906101000a900473ffffffffffffffffffffffffffffffffffffffff1673ffffffffffffffffffffffffffffffffffffffff1673ffffffffffffffffffffffffffffffffffffffff16815250509050919050565b6000600182146136ec5781836136e79190614b62565b6136ee565b825b905092915050565b60008061370284613af4565b9050600061370f84613af4565b905061372361371e8383613afe565b613b33565b9250505092915050565b6000600182146137485781836137439190614bd3565b61374a565b825b905092915050565b60008373ffffffffffffffffffffffffffffffffffffffff1663a9059cbb84846040518363ffffffff1660e01b815260040161378f929190614d2a565b6020604051808303816000875af19250505080156137cb57506040513d601f19601f820116820180604052508101906137c89190614c7f565b60015b6137d857600090506137dd565b809150505b9392505050565b6000808373ffffffffffffffffffffffffffffffffffffffff168360405161380b90614d84565b60006040518083038185875af1925050503d8060008114613848576040519150601f19603f3d011682016040523d82523d6000602084013e61384d565b606091505b505090508091505092915050565b60006012820361386e5760019050613878565b81601203600a0a90505b919050565b60008060008060008590506000806000806000905060005b8551811080156138a3575083155b156139a7578581815181106138bb576138ba614904565b5b602001015160f81c60f81b60f81c945060308560ff16101580156138e3575060398560ff1611155b1561395a5786975082156139045781806138fc90614d99565b925050613914565b600a876139119190614b62565b96505b81600a6139219190614ef5565b60308661392e9190614f40565b60ff1661393b9190614b62565b8761394691906149a4565b96508688111561395557600193505b613994565b602e8560ff160361399357821561397057600193505b600192506012915081600a6139859190614ef5565b876139909190614b62565b96505b5b808061399f90614933565b915050613895565b50816139c457670de0b6b3a7640000866139c19190614b62565b95505b85839850985050505050505050915091565b60f0600a54426139e691906148d0565b10613abb5742600a819055506000600860009054906101000a900473ffffffffffffffffffffffffffffffffffffffff16905060008173ffffffffffffffffffffffffffffffffffffffff166398d5fdca6040518163ffffffff1660e01b8152600401600060405180830381865afa158015613a66573d6000803e3d6000fd5b505050506040513d6000823e3d601f19601f82011682018060405250810190613a8f9190614b19565b9050600080613a9d8361387d565b915091508015613aaf57816009819055505b42600a81905550505050505b565b600080613ac984613af4565b90506000613ad684613af4565b9050613aea613ae58383613b3d565b613b33565b9250505092915050565b6000819050919050565b6000613b2b613b26613b0f85613b33565b670de0b6b3a7640000613b2186613b33565b613b69565b613af4565b905092915050565b6000819050919050565b6000613b61613b5c613b4e85613b33565b613b5785613b33565b613c83565b613af4565b905092915050565b6000806000801985870985870292508281108382030391505060008103613ba457838281613b9a57613b99614ba4565b5b0492505050613c7c565b838110613bec578585856040517f63a05778000000000000000000000000000000000000000000000000000000008152600401613be393929190614f75565b60405180910390fd5b60008486880990508281118203915080830392506000600186190186169050600081870496508185049450600182836000030401905080840285179450600060028860030218905080880260020381029050808802600203810290508088026002038102905080880260020381029050808802600203810290508088026002038102905080860296505050505050505b9392505050565b6000806000801984860984860292508281108382030391505060008103613cc657670de0b6b3a76400008281613cbc57613cbb614ba4565b5b0492505050613d67565b670de0b6b3a76400008110613d145784846040517f5173648d000000000000000000000000000000000000000000000000000000008152600401613d0b929190614fac565b60405180910390fd5b6000670de0b6b3a764000085870990507faccb18165bd6fe31ae1cf318dc5b51eee0e1ba569b88cd74c1773b91fac106696001620400008060000304018483118403026204000083860304170293505050505b92915050565b604051806101400160405280600081526020016060815260200160608152602001600073ffffffffffffffffffffffffffffffffffffffff168152602001600073ffffffffffffffffffffffffffffffffffffffff168152602001600081526020016000815260200160006001811115613dea57613de9614130565b5b815260200160008152602001600081525090565b604051806101000160405280600073ffffffffffffffffffffffffffffffffffffffff168152602001600073ffffffffffffffffffffffffffffffffffffffff16815260200160001515815260200160008152602001600081526020016000815260200160008152602001600081525090565b604051806101c001604052806060815260200160608152602001600060ff16815260200160008152602001600073ffffffffffffffffffffffffffffffffffffffff168152602001600073ffffffffffffffffffffffffffffffffffffffff16815260200160006001811115613eea57613ee9614130565b5b8152602001600081526020016000815260200160008152602001600081526020016000815260200160008152602001600073ffffffffffffffffffffffffffffffffffffffff1681525090565b6000819050919050565b613f4a81613f37565b82525050565b6000602082019050613f656000830184613f41565b92915050565b6000604051905090565b600080fd5b600080fd5b600073ffffffffffffffffffffffffffffffffffffffff82169050919050565b6000613faa82613f7f565b9050919050565b613fba81613f9f565b8114613fc557600080fd5b50565b600081359050613fd781613fb1565b92915050565b60008115159050919050565b613ff281613fdd565b8114613ffd57600080fd5b50565b60008135905061400f81613fe9565b92915050565b6000806040838503121561402c5761402b613f75565b5b600061403a85828601613fc8565b925050602061404b85828601614000565b9150509250929050565b60006020828403121561406b5761406a613f75565b5b600061407984828501613fc8565b91505092915050565b61408b81613f37565b82525050565b600081519050919050565b600082825260208201905092915050565b60005b838110156140cb5780820151818401526020810190506140b0565b60008484015250505050565b6000601f19601f8301169050919050565b60006140f382614091565b6140fd818561409c565b935061410d8185602086016140ad565b614116816140d7565b840191505092915050565b61412a81613f9f565b82525050565b7f4e487b7100000000000000000000000000000000000000000000000000000000600052602160045260246000fd5b600281106141705761416f614130565b5b50565b60008190506141818261415f565b919050565b600061419182614173565b9050919050565b6141a181614186565b82525050565b6000610140830160008301516141c06000860182614082565b50602083015184820360208601526141d882826140e8565b915050604083015184820360408601526141f282826140e8565b91505060608301516142076060860182614121565b50608083015161421a6080860182614121565b5060a083015161422d60a0860182614082565b5060c083015161424060c0860182614082565b5060e083015161425360e0860182614198565b50610100830151614268610100860182614082565b5061012083015161427d610120860182614082565b508091505092915050565b600060208201905081810360008301526142a281846141a7565b905092915050565b6142b381613f37565b81146142be57600080fd5b50565b6000813590506142d0816142aa565b92915050565b6000602082840312156142ec576142eb613f75565b5b60006142fa848285016142c1565b91505092915050565b61430c81613f9f565b82525050565b60006020820190506143276000830184614303565b92915050565b6002811061433a57600080fd5b50565b60008135905061434c8161432d565b92915050565b600080fd5b600080fd5b7f4e487b7100000000000000000000000000000000000000000000000000000000600052604160045260246000fd5b614394826140d7565b810181811067ffffffffffffffff821117156143b3576143b261435c565b5b80604052505050565b60006143c6613f6b565b90506143d2828261438b565b919050565b600067ffffffffffffffff8211156143f2576143f161435c565b5b6143fb826140d7565b9050602081019050919050565b82818337600083830152505050565b600061442a614425846143d7565b6143bc565b90508281526020810184848401111561444657614445614357565b5b614451848285614408565b509392505050565b600082601f83011261446e5761446d614352565b5b813561447e848260208601614417565b91505092915050565b60008060008060008060c087890312156144a4576144a3613f75565b5b60006144b289828a01613fc8565b96505060206144c389828a0161433d565b95505060406144d489828a016142c1565b94505060606144e589828a016142c1565b93505060806144f689828a01613fc8565b92505060a087013567ffffffffffffffff81111561451757614516613f7a565b5b61452389828a01614459565b9150509295509295509295565b6000806040838503121561454757614546613f75565b5b600061455585828601613fc8565b9250506020614566858286016142c1565b9150509250929050565b60008060006060848603121561458957614588613f75565b5b600061459786828701613fc8565b93505060206145a886828701613fc8565b92505060406145b9868287016142c1565b9150509250925092565b7f4e487b7100000000000000000000000000000000000000000000000000000000600052602260045260246000fd5b6000600282049050600182168061460a57607f821691505b60208210810361461d5761461c6145c3565b5b50919050565b60008190508160005260206000209050919050565b60006020601f8301049050919050565b600082821b905092915050565b6000600883026146857fffffffffffffffffffffffffffffffffffffffffffffffffffffffffffffffff82614648565b61468f8683614648565b95508019841693508086168417925050509392505050565b6000819050919050565b60006146cc6146c76146c284613f37565b6146a7565b613f37565b9050919050565b6000819050919050565b6146e6836146b1565b6146fa6146f2826146d3565b848454614655565b825550505050565b600090565b61470f614702565b61471a8184846146dd565b505050565b5b8181101561473e57614733600082614707565b600181019050614720565b5050565b601f8211156147835761475481614623565b61475d84614638565b8101602085101561476c578190505b61478061477885614638565b83018261471f565b50505b505050565b600082821c905092915050565b60006147a660001984600802614788565b1980831691505092915050565b60006147bf8383614795565b9150826002028217905092915050565b6147d882614091565b67ffffffffffffffff8111156147f1576147f061435c565b5b6147fb82546145f2565b614806828285614742565b600060209050601f8311600181146148395760008415614827578287015190505b61483185826147b3565b865550614899565b601f19841661484786614623565b60005b8281101561486f5784890151825560018201915060208501945060208101905061484a565b8683101561488c5784890151614888601f891682614795565b8355505b6001600288020188555050505b505050505050565b7f4e487b7100000000000000000000000000000000000000000000000000000000600052601160045260246000fd5b60006148db82613f37565b91506148e683613f37565b92508282039050818111156148fe576148fd6148a1565b5b92915050565b7f4e487b7100000000000000000000000000000000000000000000000000000000600052603260045260246000fd5b600061493e82613f37565b91507fffffffffffffffffffffffffffffffffffffffffffffffffffffffffffffffff82036149705761496f6148a1565b5b600182019050919050565b600061498682613f37565b915060008203614999576149986148a1565b5b600182039050919050565b60006149af82613f37565b91506149ba83613f37565b92508282019050808211156149d2576149d16148a1565b5b92915050565b60006040820190506149ed6000830185614303565b6149fa6020830184614303565b9392505050565b600081519050614a10816142aa565b92915050565b600060208284031215614a2c57614a2b613f75565b5b6000614a3a84828501614a01565b91505092915050565b600060ff82169050919050565b614a5981614a43565b8114614a6457600080fd5b50565b600081519050614a7681614a50565b92915050565b600060208284031215614a9257614a91613f75565b5b6000614aa084828501614a67565b91505092915050565b6000614abc614ab7846143d7565b6143bc565b905082815260208101848484011115614ad857614ad7614357565b5b614ae38482856140ad565b509392505050565b600082601f830112614b0057614aff614352565b5b8151614b10848260208601614aa9565b91505092915050565b600060208284031215614b2f57614b2e613f75565b5b600082015167ffffffffffffffff811115614b4d57614b4c613f7a565b5b614b5984828501614aeb565b91505092915050565b6000614b6d82613f37565b9150614b7883613f37565b9250828202614b8681613f37565b91508282048414831517614b9d57614b9c6148a1565b5b5092915050565b7f4e487b7100000000000000000000000000000000000000000000000000000000600052601260045260246000fd5b6000614bde82613f37565b9150614be983613f37565b925082614bf957614bf8614ba4565b5b828204905092915050565b7f4e487b7100000000000000000000000000000000000000000000000000000000600052603160045260246000fd5b6000606082019050614c486000830186614303565b614c556020830185614303565b614c626040830184613f41565b949350505050565b600081519050614c7981613fe9565b92915050565b600060208284031215614c9557614c94613f75565b5b6000614ca384828501614c6a565b91505092915050565b6000614cc7614cc2614cbd84613f7f565b6146a7565b613f7f565b9050919050565b6000614cd982614cac565b9050919050565b6000614ceb82614cce565b9050919050565b614cfb81614ce0565b82525050565b6000604082019050614d166000830185614cf2565b614d236020830184613f41565b9392505050565b6000604082019050614d3f6000830185614303565b614d4c6020830184613f41565b9392505050565b600081905092915050565b50565b6000614d6e600083614d53565b9150614d7982614d5e565b600082019050919050565b6000614d8f82614d61565b9150819050919050565b6000614da482614a43565b915060008203614db757614db66148a1565b5b600182039050919050565b60008160011c9050919050565b6000808291508390505b6001851115614e1957808604811115614df557614df46148a1565b5b6001851615614e045780820291505b8081029050614e1285614dc2565b9450614dd9565b94509492505050565b600082614e325760019050614eee565b81614e405760009050614eee565b8160018114614e565760028114614e6057614e8f565b6001915050614eee565b60ff841115614e7257614e716148a1565b5b8360020a915084821115614e8957614e886148a1565b5b50614eee565b5060208310610133831016604e8410600b8410161715614ec45782820a905083811115614ebf57614ebe6148a1565b5b614eee565b614ed18484846001614dcf565b92509050818404811115614ee857614ee76148a1565b5b81810290505b9392505050565b6000614f0082613f37565b9150614f0b83614a43565b9250614f387fffffffffffffffffffffffffffffffffffffffffffffffffffffffffffffffff8484614e22565b905092915050565b6000614f4b82614a43565b9150614f5683614a43565b9250828203905060ff811115614f6f57614f6e6148a1565b5b92915050565b6000606082019050614f8a6000830186613f41565b614f976020830185613f41565b614fa46040830184613f41565b949350505050565b6000604082019050614fc16000830185613f41565b614fce6020830184613f41565b939250505056fea26469706673582212208a0710731900f2fcd04931001d067db209d1c53fe202b5481201291d21026d2d64736f6c63430008150033",
  "linkReferences": {},
  "deployedLinkReferences": {}
}