{
  "_format": "hh-sol-artifact-1",
  "contractName": "MockERC20",
  "sourceName": "contracts/mockups/MockERC20.sol",
  "abi": [
    {
      "anonymous": false,
      "inputs": [
        {
          "indexed": true,
          "internalType": "address",
          "name": "owner",
          "type": "address"
        },
        {
          "indexed": true,
          "internalType": "address",
          "name": "spender",
          "type": "address"
        },
        {
          "indexed": false,
          "internalType": "uint256",
          "name": "value",
          "type": "uint256"
        }
      ],
      "name": "Approval",
      "type": "event"
    },
    {
      "anonymous": false,
      "inputs": [
        {
          "indexed": true,
          "internalType": "address",
          "name": "from",
          "type": "address"
        },
        {
          "indexed": true,
          "internalType": "address",
          "name": "to",
          "type": "address"
        },
        {
          "indexed": false,
          "internalType": "uint256",
          "name": "value",
          "type": "uint256"
        }
      ],
      "name": "Transfer",
      "type": "event"
    },
    {
      "inputs": [
        {
          "internalType": "address",
          "name": "owner",
          "type": "address"
        },
        {
          "internalType": "address",
          "name": "spender",
          "type": "address"
        }
      ],
      "name": "allowance",
      "outputs": [
        {
          "internalType": "uint256",
          "name": "",
          "type": "uint256"
        }
      ],
      "stateMutability": "pure",
      "type": "function"
    },
    {
      "inputs": [
        {
          "internalType": "address",
          "name": "spender",
          "type": "address"
        },
        {
          "internalType": "uint256",
          "name": "value",
          "type": "uint256"
        }
      ],
      "name": "approve",
      "outputs": [
        {
          "internalType": "bool",
          "name": "",
          "type": "bool"
        }
      ],
      "stateMutability": "pure",
      "type": "function"
    },
    {
      "inputs": [
        {
          "internalType": "address",
          "name": "account",
          "type": "address"
        }
      ],
      "name": "balanceOf",
      "outputs": [
        {
          "internalType": "uint256",
          "name": "",
          "type": "uint256"
        }
      ],
      "stateMutability": "view",
      "type": "function"
    },
    {
      "inputs": [],
      "name": "decimals",
      "outputs": [
        {
          "internalType": "uint8",
          "name": "",
          "type": "uint8"
        }
      ],
      "stateMutability": "view",
      "type": "function"
    },
    {
      "inputs": [],
      "name": "name",
      "outputs": [
        {
          "internalType": "string",
          "name": "",
          "type": "string"
        }
      ],
      "stateMutability": "view",
      "type": "function"
    },
    {
      "inputs": [
        {
          "internalType": "address",
          "name": "addr",
          "type": "address"
        },
        {
          "internalType": "uint256",
          "name": "balance",
          "type": "uint256"
        }
      ],
      "name": "setBalance",
      "outputs": [],
      "stateMutability": "nonpayable",
      "type": "function"
    },
    {
      "inputs": [
        {
          "internalType": "uint8",
          "name": "dec",
          "type": "uint8"
        }
      ],
      "name": "setDecimals",
      "outputs": [],
      "stateMutability": "nonpayable",
      "type": "function"
    },
    {
      "inputs": [
        {
          "internalType": "string",
          "name": "szName",
          "type": "string"
        }
      ],
      "name": "setName",
      "outputs": [],
      "stateMutability": "nonpayable",
      "type": "function"
    },
    {
      "inputs": [
        {
          "internalType": "string",
          "name": "szSym",
          "type": "string"
        }
      ],
      "name": "setSymbol",
      "outputs": [],
      "stateMutability": "nonpayable",
      "type": "function"
    },
    {
      "inputs": [],
      "name": "symbol",
      "outputs": [
        {
          "internalType": "string",
          "name": "",
          "type": "string"
        }
      ],
      "stateMutability": "view",
      "type": "function"
    },
    {
      "inputs": [],
      "name": "totalSupply",
      "outputs": [
        {
          "internalType": "uint256",
          "name": "",
          "type": "uint256"
        }
      ],
      "stateMutability": "pure",
      "type": "function"
    },
    {
      "inputs": [
        {
          "internalType": "address",
          "name": "to",
          "type": "address"
        },
        {
          "internalType": "uint256",
          "name": "value",
          "type": "uint256"
        }
      ],
      "name": "transfer",
      "outputs": [
        {
          "internalType": "bool",
          "name": "",
          "type": "bool"
        }
      ],
      "stateMutability": "nonpayable",
      "type": "function"
    },
    {
      "inputs": [
        {
          "internalType": "address",
          "name": "from",
          "type": "address"
        },
        {
          "internalType": "address",
          "name": "to",
          "type": "address"
        },
        {
          "internalType": "uint256",
          "name": "value",
          "type": "uint256"
        }
      ],
      "name": "transferFrom",
      "outputs": [
        {
          "internalType": "bool",
          "name": "",
          "type": "bool"
        }
      ],
      "stateMutability": "nonpayable",
      "type": "function"
    }
  ],
  "bytecode": "0x60806040526040518060400160405280600981526020017f4d6f636b45524332300000000000000000000000000000000000000000000000815250600190816200004a91906200033c565b506040518060400160405280600881526020017f4d434b4552433230000000000000000000000000000000000000000000000000815250600290816200009191906200033c565b506012600360006101000a81548160ff021916908360ff160217905550348015620000bb57600080fd5b5062000423565b600081519050919050565b7f4e487b7100000000000000000000000000000000000000000000000000000000600052604160045260246000fd5b7f4e487b7100000000000000000000000000000000000000000000000000000000600052602260045260246000fd5b600060028204905060018216806200014457607f821691505b6020821081036200015a5762000159620000fc565b5b50919050565b60008190508160005260206000209050919050565b60006020601f8301049050919050565b600082821b905092915050565b600060088302620001c47fffffffffffffffffffffffffffffffffffffffffffffffffffffffffffffffff8262000185565b620001d0868362000185565b95508019841693508086168417925050509392505050565b6000819050919050565b6000819050919050565b60006200021d620002176200021184620001e8565b620001f2565b620001e8565b9050919050565b6000819050919050565b6200023983620001fc565b62000251620002488262000224565b84845462000192565b825550505050565b600090565b6200026862000259565b620002758184846200022e565b505050565b5b818110156200029d57620002916000826200025e565b6001810190506200027b565b5050565b601f821115620002ec57620002b68162000160565b620002c18462000175565b81016020851015620002d1578190505b620002e9620002e08562000175565b8301826200027a565b50505b505050565b600082821c905092915050565b60006200031160001984600802620002f1565b1980831691505092915050565b60006200032c8383620002fe565b9150826002028217905092915050565b6200034782620000c2565b67ffffffffffffffff811115620003635762000362620000cd565b5b6200036f82546200012b565b6200037c828285620002a1565b600060209050601f831160018114620003b457600084156200039f578287015190505b620003ab85826200031e565b8655506200041b565b601f198416620003c48662000160565b60005b82811015620003ee57848901518255600182019150602085019450602081019050620003c7565b868310156200040e57848901516200040a601f891682620002fe565b8355505b6001600288020188555050505b505050505050565b610f6c80620004336000396000f3fe608060405234801561001057600080fd5b50600436106100cf5760003560e01c80637a1395aa1161008c578063b84c824611610066578063b84c824614610228578063c47f002714610244578063dd62ed3e14610260578063e30443bc14610290576100cf565b80637a1395aa146101be57806395d89b41146101da578063a9059cbb146101f8576100cf565b806306fdde03146100d4578063095ea7b3146100f257806318160ddd1461012257806323b872dd14610140578063313ce5671461017057806370a082311461018e575b600080fd5b6100dc6102ac565b6040516100e99190610789565b60405180910390f35b61010c60048036038101906101079190610853565b61033e565b60405161011991906108ae565b60405180910390f35b61012a61034a565b60405161013791906108d8565b60405180910390f35b61015a600480360381019061015591906108f3565b610372565b60405161016791906108ae565b60405180910390f35b610178610474565b6040516101859190610962565b60405180910390f35b6101a860048036038101906101a3919061097d565b61048b565b6040516101b591906108d8565b60405180910390f35b6101d860048036038101906101d391906109d6565b6104d3565b005b6101e26104f1565b6040516101ef9190610789565b60405180910390f35b610212600480360381019061020d9190610853565b610583565b60405161021f91906108ae565b60405180910390f35b610242600480360381019061023d9190610b38565b610684565b005b61025e60048036038101906102599190610b38565b610697565b005b61027a60048036038101906102759190610b81565b6106aa565b60405161028791906108d8565b60405180910390f35b6102aa60048036038101906102a59190610853565b6106b2565b005b6060600180546102bb90610bf0565b80601f01602080910402602001604051908101604052809291908181526020018280546102e790610bf0565b80156103345780601f1061030957610100808354040283529160200191610334565b820191906000526020600020905b81548152906001019060200180831161031757829003601f168201915b5050505050905090565b60006001905092915050565b60007fffffffffffffffffffffffffffffffffffffffffffffffffffffffffffffffff905090565b6000816000808673ffffffffffffffffffffffffffffffffffffffff1673ffffffffffffffffffffffffffffffffffffffff1681526020019081526020016000205410156103bf57600080fd5b816000808673ffffffffffffffffffffffffffffffffffffffff1673ffffffffffffffffffffffffffffffffffffffff168152602001908152602001600020600082825461040d9190610c50565b92505081905550816000808573ffffffffffffffffffffffffffffffffffffffff1673ffffffffffffffffffffffffffffffffffffffff16815260200190815260200160002060008282546104629190610c84565b92505081905550600190509392505050565b6000600360009054906101000a900460ff16905090565b60008060008373ffffffffffffffffffffffffffffffffffffffff1673ffffffffffffffffffffffffffffffffffffffff168152602001908152602001600020549050919050565b80600360006101000a81548160ff021916908360ff16021790555050565b60606002805461050090610bf0565b80601f016020809104026020016040519081016040528092919081815260200182805461052c90610bf0565b80156105795780601f1061054e57610100808354040283529160200191610579565b820191906000526020600020905b81548152906001019060200180831161055c57829003601f168201915b5050505050905090565b6000816000803373ffffffffffffffffffffffffffffffffffffffff1673ffffffffffffffffffffffffffffffffffffffff1681526020019081526020016000205410156105d057600080fd5b816000803373ffffffffffffffffffffffffffffffffffffffff1673ffffffffffffffffffffffffffffffffffffffff168152602001908152602001600020600082825461061e9190610c50565b92505081905550816000808573ffffffffffffffffffffffffffffffffffffffff1673ffffffffffffffffffffffffffffffffffffffff16815260200190815260200160002060008282546106739190610c84565b925050819055506001905092915050565b80600290816106939190610e64565b5050565b80600190816106a69190610e64565b5050565b600092915050565b806000808473ffffffffffffffffffffffffffffffffffffffff1673ffffffffffffffffffffffffffffffffffffffff168152602001908152602001600020819055505050565b600081519050919050565b600082825260208201905092915050565b60005b83811015610733578082015181840152602081019050610718565b60008484015250505050565b6000601f19601f8301169050919050565b600061075b826106f9565b6107658185610704565b9350610775818560208601610715565b61077e8161073f565b840191505092915050565b600060208201905081810360008301526107a38184610750565b905092915050565b6000604051905090565b600080fd5b600080fd5b600073ffffffffffffffffffffffffffffffffffffffff82169050919050565b60006107ea826107bf565b9050919050565b6107fa816107df565b811461080557600080fd5b50565b600081359050610817816107f1565b92915050565b6000819050919050565b6108308161081d565b811461083b57600080fd5b50565b60008135905061084d81610827565b92915050565b6000806040838503121561086a576108696107b5565b5b600061087885828601610808565b92505060206108898582860161083e565b9150509250929050565b60008115159050919050565b6108a881610893565b82525050565b60006020820190506108c3600083018461089f565b92915050565b6108d28161081d565b82525050565b60006020820190506108ed60008301846108c9565b92915050565b60008060006060848603121561090c5761090b6107b5565b5b600061091a86828701610808565b935050602061092b86828701610808565b925050604061093c8682870161083e565b9150509250925092565b600060ff82169050919050565b61095c81610946565b82525050565b60006020820190506109776000830184610953565b92915050565b600060208284031215610993576109926107b5565b5b60006109a184828501610808565b91505092915050565b6109b381610946565b81146109be57600080fd5b50565b6000813590506109d0816109aa565b92915050565b6000602082840312156109ec576109eb6107b5565b5b60006109fa848285016109c1565b91505092915050565b600080fd5b600080fd5b7f4e487b7100000000000000000000000000000000000000000000000000000000600052604160045260246000fd5b610a458261073f565b810181811067ffffffffffffffff82111715610a6457610a63610a0d565b5b80604052505050565b6000610a776107ab565b9050610a838282610a3c565b919050565b600067ffffffffffffffff821115610aa357610aa2610a0d565b5b610aac8261073f565b9050602081019050919050565b82818337600083830152505050565b6000610adb610ad684610a88565b610a6d565b905082815260208101848484011115610af757610af6610a08565b5b610b02848285610ab9565b509392505050565b600082601f830112610b1f57610b1e610a03565b5b8135610b2f848260208601610ac8565b91505092915050565b600060208284031215610b4e57610b4d6107b5565b5b600082013567ffffffffffffffff811115610b6c57610b6b6107ba565b5b610b7884828501610b0a565b91505092915050565b60008060408385031215610b9857610b976107b5565b5b6000610ba685828601610808565b9250506020610bb785828601610808565b9150509250929050565b7f4e487b7100000000000000000000000000000000000000000000000000000000600052602260045260246000fd5b60006002820490506001821680610c0857607f821691505b602082108103610c1b57610c1a610bc1565b5b50919050565b7f4e487b7100000000000000000000000000000000000000000000000000000000600052601160045260246000fd5b6000610c5b8261081d565b9150610c668361081d565b9250828203905081811115610c7e57610c7d610c21565b5b92915050565b6000610c8f8261081d565b9150610c9a8361081d565b9250828201905080821115610cb257610cb1610c21565b5b92915050565b60008190508160005260206000209050919050565b60006020601f8301049050919050565b600082821b905092915050565b600060088302610d1a7fffffffffffffffffffffffffffffffffffffffffffffffffffffffffffffffff82610cdd565b610d248683610cdd565b95508019841693508086168417925050509392505050565b6000819050919050565b6000610d61610d5c610d578461081d565b610d3c565b61081d565b9050919050565b6000819050919050565b610d7b83610d46565b610d8f610d8782610d68565b848454610cea565b825550505050565b600090565b610da4610d97565b610daf818484610d72565b505050565b5b81811015610dd357610dc8600082610d9c565b600181019050610db5565b5050565b601f821115610e1857610de981610cb8565b610df284610ccd565b81016020851015610e01578190505b610e15610e0d85610ccd565b830182610db4565b50505b505050565b600082821c905092915050565b6000610e3b60001984600802610e1d565b1980831691505092915050565b6000610e548383610e2a565b9150826002028217905092915050565b610e6d826106f9565b67ffffffffffffffff811115610e8657610e85610a0d565b5b610e908254610bf0565b610e9b828285610dd7565b600060209050601f831160018114610ece5760008415610ebc578287015190505b610ec68582610e48565b865550610f2e565b601f198416610edc86610cb8565b60005b82811015610f0457848901518255600182019150602085019450602081019050610edf565b86831015610f215784890151610f1d601f891682610e2a565b8355505b6001600288020188555050505b50505050505056fea264697066735822122097ac8522db6ebb5fa048815d4eabe5d5c40c2dad716fe621de0b9e2ed6b6ad5764736f6c63430008160033",
  "linkReferences": {},
  "deployedLinkReferences": {}
}