{
  "abi": [
    {
      "inputs": [],
      "name": "AlreadyVoted",
      "type": "error"
    },
    {
      "inputs": [],
      "name": "NotEligibleToVote",
      "type": "error"
    },
    {
      "inputs": [],
      "name": "ProposalDoesNotExist",
      "type": "error"
    },
    {
      "inputs": [],
      "name": "ProposalIsStillActive",
      "type": "error"
    },
    {
      "inputs": [],
      "name": "VotingDeactivated",
      "type": "error"
    },
    {
      "anonymous": false,
      "inputs": [
        {
          "indexed": false,
          "internalType": "string",
          "name": "oldPrice",
          "type": "string"
        },
        {
          "indexed": false,
          "internalType": "string",
          "name": "newPrice",
          "type": "string"
        }
      ],
      "name": "PriceUpdated",
      "type": "event"
    },
    {
      "anonymous": false,
      "inputs": [
        {
          "indexed": false,
          "internalType": "uint256",
          "name": "id",
          "type": "uint256"
        },
        {
          "indexed": false,
          "internalType": "string",
          "name": "description",
          "type": "string"
        },
        {
          "indexed": false,
          "internalType": "address",
          "name": "proposer",
          "type": "address"
        }
      ],
      "name": "ProposalCreated",
      "type": "event"
    },
    {
      "anonymous": false,
      "inputs": [
        {
          "indexed": false,
          "internalType": "uint256",
          "name": "id",
          "type": "uint256"
        },
        {
          "indexed": false,
          "internalType": "bool",
          "name": "passed",
          "type": "bool"
        }
      ],
      "name": "ProposalFinalized",
      "type": "event"
    },
    {
      "anonymous": false,
      "inputs": [
        {
          "indexed": false,
          "internalType": "address",
          "name": "voter",
          "type": "address"
        },
        {
          "indexed": false,
          "internalType": "uint256",
          "name": "proposalId",
          "type": "uint256"
        }
      ],
      "name": "VotedDown",
      "type": "event"
    },
    {
      "anonymous": false,
      "inputs": [
        {
          "indexed": false,
          "internalType": "address",
          "name": "voter",
          "type": "address"
        },
        {
          "indexed": false,
          "internalType": "uint256",
          "name": "proposalId",
          "type": "uint256"
        }
      ],
      "name": "VotedUp",
      "type": "event"
    },
    {
      "anonymous": false,
      "inputs": [
        {
          "indexed": false,
          "internalType": "uint256",
          "name": "id",
          "type": "uint256"
        },
        {
          "indexed": false,
          "internalType": "address",
          "name": "collectionAddress",
          "type": "address"
        }
      ],
      "name": "addedNFTCollection",
      "type": "event"
    },
    {
      "anonymous": false,
      "inputs": [
        {
          "indexed": false,
          "internalType": "uint256",
          "name": "id",
          "type": "uint256"
        },
        {
          "indexed": false,
          "internalType": "address",
          "name": "collectionAddress",
          "type": "address"
        }
      ],
      "name": "removedNFTCollection",
      "type": "event"
    },
    {
      "anonymous": false,
      "inputs": [
        {
          "indexed": false,
          "internalType": "address",
          "name": "from",
          "type": "address"
        },
        {
          "indexed": false,
          "internalType": "address",
          "name": "to",
          "type": "address"
        }
      ],
      "name": "transferredOwnership",
      "type": "event"
    },
    {
      "inputs": [
        {
          "internalType": "uint256",
          "name": "",
          "type": "uint256"
        }
      ],
      "name": "NFTCollections",
      "outputs": [
        {
          "internalType": "address",
          "name": "",
          "type": "address"
        }
      ],
      "stateMutability": "view",
      "type": "function"
    },
    {
      "inputs": [
        {
          "internalType": "uint256",
          "name": "",
          "type": "uint256"
        }
      ],
      "name": "PriceProposals",
      "outputs": [
        {
          "internalType": "string",
          "name": "description",
          "type": "string"
        },
        {
          "internalType": "string",
          "name": "value",
          "type": "string"
        },
        {
          "internalType": "uint256",
          "name": "votesUp",
          "type": "uint256"
        },
        {
          "internalType": "uint256",
          "name": "votesDown",
          "type": "uint256"
        },
        {
          "internalType": "bool",
          "name": "finalized",
          "type": "bool"
        }
      ],
      "stateMutability": "view",
      "type": "function"
    },
    {
      "inputs": [
        {
          "internalType": "address",
          "name": "_contractAddress",
          "type": "address"
        }
      ],
      "name": "addNFTCollection",
      "outputs": [],
      "stateMutability": "nonpayable",
      "type": "function"
    },
    {
      "inputs": [],
      "name": "cooldownTimeout",
      "outputs": [
        {
          "internalType": "uint256",
          "name": "",
          "type": "uint256"
        }
      ],
      "stateMutability": "view",
      "type": "function"
    },
    {
      "inputs": [],
      "name": "currentProposal",
      "outputs": [
        {
          "components": [
            {
              "internalType": "string",
              "name": "description",
              "type": "string"
            },
            {
              "internalType": "string",
              "name": "value",
              "type": "string"
            },
            {
              "internalType": "uint256",
              "name": "votesUp",
              "type": "uint256"
            },
            {
              "internalType": "uint256",
              "name": "votesDown",
              "type": "uint256"
            },
            {
              "internalType": "bool",
              "name": "finalized",
              "type": "bool"
            }
          ],
          "internalType": "struct DexhuneBase.PriceProposal",
          "name": "",
          "type": "tuple"
        }
      ],
      "stateMutability": "view",
      "type": "function"
    },
    {
      "inputs": [],
      "name": "finalizeProposal",
      "outputs": [],
      "stateMutability": "nonpayable",
      "type": "function"
    },
    {
      "inputs": [],
      "name": "getPrice",
      "outputs": [
        {
          "internalType": "string",
          "name": "",
          "type": "string"
        }
      ],
      "stateMutability": "view",
      "type": "function"
    },
    {
      "inputs": [],
      "name": "owner",
      "outputs": [
        {
          "internalType": "address",
          "name": "",
          "type": "address"
        }
      ],
      "stateMutability": "view",
      "type": "function"
    },
    {
      "inputs": [],
      "name": "proposalExpiresAt",
      "outputs": [
        {
          "internalType": "uint256",
          "name": "",
          "type": "uint256"
        }
      ],
      "stateMutability": "view",
      "type": "function"
    },
    {
      "inputs": [
        {
          "internalType": "string",
          "name": "_desc",
          "type": "string"
        },
        {
          "internalType": "string",
          "name": "_price",
          "type": "string"
        }
      ],
      "name": "proposePrice",
      "outputs": [],
      "stateMutability": "nonpayable",
      "type": "function"
    },
    {
      "inputs": [
        {
          "internalType": "uint256",
          "name": "_index",
          "type": "uint256"
        }
      ],
      "name": "removeNFTCollection",
      "outputs": [],
      "stateMutability": "nonpayable",
      "type": "function"
    },
    {
      "inputs": [
        {
          "internalType": "uint256",
          "name": "_timeout",
          "type": "uint256"
        }
      ],
      "name": "setCooldownTimeout",
      "outputs": [],
      "stateMutability": "nonpayable",
      "type": "function"
    },
    {
      "inputs": [
        {
          "internalType": "bool",
          "name": "_enabled",
          "type": "bool"
        }
      ],
      "name": "setTransferTimeout",
      "outputs": [],
      "stateMutability": "nonpayable",
      "type": "function"
    },
    {
      "inputs": [],
      "name": "transferCooldown",
      "outputs": [
        {
          "internalType": "bool",
          "name": "",
          "type": "bool"
        }
      ],
      "stateMutability": "view",
      "type": "function"
    },
    {
      "inputs": [
        {
          "internalType": "address",
          "name": "_address",
          "type": "address"
        }
      ],
      "name": "transferOwnership",
      "outputs": [],
      "stateMutability": "nonpayable",
      "type": "function"
    },
    {
      "inputs": [],
      "name": "voteDown",
      "outputs": [],
      "stateMutability": "nonpayable",
      "type": "function"
    },
    {
      "inputs": [],
      "name": "voteUp",
      "outputs": [],
      "stateMutability": "nonpayable",
      "type": "function"
    },
    {
      "inputs": [],
      "name": "votingEndsAt",
      "outputs": [
        {
          "internalType": "uint256",
          "name": "",
          "type": "uint256"
        }
      ],
      "stateMutability": "view",
      "type": "function"
    }
  ],
  "evm": {
    "bytecode": {
      "linkReferences": {},
      "object": "608060405260016000806101000a81548160ff021916908315150217905550603c60026200002e9190620001d3565b6001553480156200003e57600080fd5b5033600260006101000a81548173ffffffffffffffffffffffffffffffffffffffff021916908373ffffffffffffffffffffffffffffffffffffffff160217905550600067ffffffffffffffff8111156200009e576200009d6200021e565b5b604051908082528060200260200182016040528015620000cd5781602001602082028036833780820191505090505b5060049080519060200190620000e5929190620000ec565b506200024d565b82805482825590600052602060002090810192821562000168579160200282015b82811115620001675782518260006101000a81548173ffffffffffffffffffffffffffffffffffffffff021916908373ffffffffffffffffffffffffffffffffffffffff160217905550916020019190600101906200010d565b5b5090506200017791906200017b565b5090565b5b80821115620001965760008160009055506001016200017c565b5090565b6000819050919050565b7f4e487b7100000000000000000000000000000000000000000000000000000000600052601160045260246000fd5b6000620001e0826200019a565b9150620001ed836200019a565b9250828202620001fd816200019a565b91508282048414831517620002175762000216620001a4565b5b5092915050565b7f4e487b7100000000000000000000000000000000000000000000000000000000600052604160045260246000fd5b6124e8806200025d6000396000f3fe608060405234801561001057600080fd5b50600436106101165760003560e01c80638da5cb5b116100a2578063bbf7924611610071578063bbf7924614610299578063c2d52751146102b7578063c4dc1556146102d3578063d65ced17146102dd578063f2fde38b146102fb57610116565b80638da5cb5b1461024957806398d5fdca14610267578063b07672ae14610285578063b525ef0d1461028f57610116565b8063605c736e116100e9578063605c736e1461018f57806368f16293146101c35780637c14a418146101e15780637ec24d7c146101fd5780638b98ecaa1461022d57610116565b806302de9f2e1461011b5780632b49d4251461013757806330002eef14610155578063578a72d314610171575b600080fd5b61013560048036038101906101309190611735565b610317565b005b61013f6104de565b60405161014c91906118dd565b60405180910390f35b61016f600480360381019061016a919061195d565b61067c565b005b61017961079d565b6040516101869190611999565b60405180910390f35b6101a960048036038101906101a491906119e0565b6107a7565b6040516101ba959493929190611a66565b60405180910390f35b6101cb61090a565b6040516101d89190611ac7565b60405180910390f35b6101fb60048036038101906101f69190611b0e565b61091b565b005b610217600480360381019061021291906119e0565b61093f565b6040516102249190611b4a565b60405180910390f35b610247600480360381019061024291906119e0565b61097e565b005b610251610b4d565b60405161025e9190611b4a565b60405180910390f35b61026f610b73565b60405161027c9190611b65565b60405180910390f35b61028d610c05565b005b610297610e34565b005b6102a1611082565b6040516102ae9190611999565b60405180910390f35b6102d160048036038101906102cc91906119e0565b611088565b005b6102db61109a565b005b6102e5611213565b6040516102f29190611999565b60405180910390f35b6103156004803603810190610310919061195d565b61121d565b005b60006003805490509050600081111561039f576003818154811061033e5761033d611b87565b5b906000526020600020906005020160040160009054906101000a900460ff1661039e5743600754111561039d576040517fa9174b1700000000000000000000000000000000000000000000000000000000815260040160405180910390fd5b5b5b60006040518060a00160405280858152602001848152602001600081526020016000815260200160001515815250905061012c60026103de9190611be5565b436103e99190611c27565b60068190555061025860026103fe9190611be5565b436104099190611c27565b600781905550600381908060018154018082558091505060019003906000526020600020906005020160009091909190915060008201518160000190816104509190611e67565b5060208201518160010190816104669190611e67565b50604082015181600201556060820151816003015560808201518160040160006101000a81548160ff02191690831515021790555050507fc8c078bfee58e5822588f08b4509ed1eb5058e03f666cca84dd2d44bf5c288a88285336040516104d093929190611f39565b60405180910390a150505050565b6104e66115aa565b600360016003805490506104fa9190611f77565b8154811061050b5761050a611b87565b5b90600052602060002090600502016040518060a001604052908160008201805461053490611c8a565b80601f016020809104026020016040519081016040528092919081815260200182805461056090611c8a565b80156105ad5780601f10610582576101008083540402835291602001916105ad565b820191906000526020600020905b81548152906001019060200180831161059057829003601f168201915b505050505081526020016001820180546105c690611c8a565b80601f01602080910402602001604051908101604052809291908181526020018280546105f290611c8a565b801561063f5780601f106106145761010080835404028352916020019161063f565b820191906000526020600020905b81548152906001019060200180831161062257829003601f168201915b5050505050815260200160028201548152602001600382015481526020016004820160009054906101000a900460ff161515151581525050905090565b6106846112ec565b600073ffffffffffffffffffffffffffffffffffffffff168173ffffffffffffffffffffffffffffffffffffffff16036106f3576040517f08c379a00000000000000000000000000000000000000000000000000000000081526004016106ea9061201d565b60405180910390fd5b600060048054905090506004829080600181540180825580915050600190039060005260206000200160009091909190916101000a81548173ffffffffffffffffffffffffffffffffffffffff021916908373ffffffffffffffffffffffffffffffffffffffff1602179055507f82eda5d64185c894c1ba8ca4d84b96a074187302830b342fa1611e06c6805f28818360405161079192919061203d565b60405180910390a15050565b6000600654905090565b600381815481106107b757600080fd5b90600052602060002090600502016000915090508060000180546107da90611c8a565b80601f016020809104026020016040519081016040528092919081815260200182805461080690611c8a565b80156108535780601f1061082857610100808354040283529160200191610853565b820191906000526020600020905b81548152906001019060200180831161083657829003601f168201915b50505050509080600101805461086890611c8a565b80601f016020809104026020016040519081016040528092919081815260200182805461089490611c8a565b80156108e15780601f106108b6576101008083540402835291602001916108e1565b820191906000526020600020905b8154815290600101906020018083116108c457829003601f168201915b5050505050908060020154908060030154908060040160009054906101000a900460ff16905085565b60008054906101000a900460ff1681565b6109236112ec565b806000806101000a81548160ff02191690831515021790555050565b6004818154811061094f57600080fd5b906000526020600020016000915054906101000a900473ffffffffffffffffffffffffffffffffffffffff1681565b6109866112ec565b6000811015801561099b575060048054905081105b6109da576040517f08c379a00000000000000000000000000000000000000000000000000000000081526004016109d1906120d8565b60405180910390fd5b6000600482815481106109f0576109ef611b87565b5b9060005260206000200160009054906101000a900473ffffffffffffffffffffffffffffffffffffffff16905060046001600480549050610a319190611f77565b81548110610a4257610a41611b87565b5b9060005260206000200160009054906101000a900473ffffffffffffffffffffffffffffffffffffffff1660048381548110610a8157610a80611b87565b5b9060005260206000200160006101000a81548173ffffffffffffffffffffffffffffffffffffffff021916908373ffffffffffffffffffffffffffffffffffffffff1602179055506004805480610adb57610ada6120f8565b5b6001900381819060005260206000200160006101000a81549073ffffffffffffffffffffffffffffffffffffffff021916905590557fb6f7db2d5083e9ae2b0b0e374dbcdc50d76e778e5e84b9186adbe5968b134dbb8282604051610b4192919061203d565b60405180910390a15050565b600260009054906101000a900473ffffffffffffffffffffffffffffffffffffffff1681565b606060058054610b8290611c8a565b80601f0160208091040260200160405190810160405280929190818152602001828054610bae90611c8a565b8015610bfb5780601f10610bd057610100808354040283529160200191610bfb565b820191906000526020600020905b815481529060010190602001808311610bde57829003601f168201915b5050505050905090565b610c0d61137e565b610c43576040517f7fb16f1b00000000000000000000000000000000000000000000000000000000815260040160405180910390fd5b60006001600380549050610c579190611f77565b90506000610c6482611541565b9050600654431115610ca2576040517f9bd4d19f00000000000000000000000000000000000000000000000000000000815260040160405180910390fd5b60006008600084815260200190815260200160002060003373ffffffffffffffffffffffffffffffffffffffff1673ffffffffffffffffffffffffffffffffffffffff16815260200190815260200160002060009054906101000a900460000b905060018160000b1480610d3857507fffffffffffffffffffffffffffffffffffffffffffffffffffffffffffffffff8160000b145b15610d6f576040517f7c9a1cf900000000000000000000000000000000000000000000000000000000815260040160405180910390fd5b816002016000815480929190610d8490612127565b919050555060016008600085815260200190815260200160002060003373ffffffffffffffffffffffffffffffffffffffff1673ffffffffffffffffffffffffffffffffffffffff16815260200190815260200160002060006101000a81548160ff021916908360000b60ff1602179055507f39c53468031ad719fb1805945cb8128e48f9c189c15308e05b73c48e98b4bc243384604051610e2792919061216f565b60405180910390a1505050565b610e3c61137e565b610e72576040517f7fb16f1b00000000000000000000000000000000000000000000000000000000815260040160405180910390fd5b60006001600380549050610e869190611f77565b90506000610e9382611541565b9050600654431115610ed1576040517f9bd4d19f00000000000000000000000000000000000000000000000000000000815260040160405180910390fd5b60006008600084815260200190815260200160002060003373ffffffffffffffffffffffffffffffffffffffff1673ffffffffffffffffffffffffffffffffffffffff16815260200190815260200160002060009054906101000a900460000b905060018160000b1480610f6757507fffffffffffffffffffffffffffffffffffffffffffffffffffffffffffffffff8160000b145b15610f9e576040517f7c9a1cf900000000000000000000000000000000000000000000000000000000815260040160405180910390fd5b816003016000815480929190610fb390612127565b91905055507fffffffffffffffffffffffffffffffffffffffffffffffffffffffffffffffff6008600085815260200190815260200160002060003373ffffffffffffffffffffffffffffffffffffffff1673ffffffffffffffffffffffffffffffffffffffff16815260200190815260200160002060006101000a81548160ff021916908360000b60ff1602179055507fec5739509ee72ce4062c5e252e7186d35b5a2c72221af047c2a53b1cb5c90ef4338460405161107592919061216f565b60405180910390a1505050565b60015481565b6110906112ec565b8060018190555050565b600060016003805490506110ae9190611f77565b905060006110bb82611541565b90504360075411156110f9576040517fa9174b1700000000000000000000000000000000000000000000000000000000815260040160405180910390fd5b8060040160009054906101000a900460ff1615611117575050611211565b8060030154816002015411156111b6577f4d599ac90c3e5e1d64df26da87c79a4e007380a838c05d4d211f33c111e690bd60058260010160405161115c92919061221c565b60405180910390a18060010160059081611176919061227e565b507fb5ac567fcf1b069e0235e4f16734625c6cf54c1b40517fd9eb85517f6e1265a78260016040516111a9929190612366565b60405180910390a16111f1565b7fb5ac567fcf1b069e0235e4f16734625c6cf54c1b40517fd9eb85517f6e1265a78260006040516111e8929190612366565b60405180910390a15b60018160040160006101000a81548160ff02191690831515021790555050505b565b6000600754905090565b6112256112ec565b6000600260009054906101000a900473ffffffffffffffffffffffffffffffffffffffff16905081600260006101000a81548173ffffffffffffffffffffffffffffffffffffffff021916908373ffffffffffffffffffffffffffffffffffffffff1602179055507fa77b1597453f945cb89178ec89d7d37698b9f9b07adbbb854775e48131186d2581600260009054906101000a900473ffffffffffffffffffffffffffffffffffffffff166040516112e092919061238f565b60405180910390a15050565b600260009054906101000a900473ffffffffffffffffffffffffffffffffffffffff1673ffffffffffffffffffffffffffffffffffffffff163373ffffffffffffffffffffffffffffffffffffffff161461137c576040517f08c379a000000000000000000000000000000000000000000000000000000000815260040161137390612450565b60405180910390fd5b565b6000600115611390576001905061153e565b600960003373ffffffffffffffffffffffffffffffffffffffff1673ffffffffffffffffffffffffffffffffffffffff168152602001908152602001600020544310156113e0576001905061153e565b60005b6004805490508110156115385760006004828154811061140657611405611b87565b5b9060005260206000200160009054906101000a900473ffffffffffffffffffffffffffffffffffffffff169050600081905060008173ffffffffffffffffffffffffffffffffffffffff166370a08231336040518263ffffffff1660e01b81526004016114739190611b4a565b602060405180830381865afa158015611490573d6000803e3d6000fd5b505050506040513d601f19601f820116820180604052508101906114b49190612485565b111561152357610e1060026114c99190611be5565b436114d49190611c27565b600960003373ffffffffffffffffffffffffffffffffffffffff1673ffffffffffffffffffffffffffffffffffffffff168152602001908152602001600020819055506001935050505061153e565b5050808061153090612127565b9150506113e3565b50600090505b90565b60006003805490508210611581576040517fd9c78e0200000000000000000000000000000000000000000000000000000000815260040160405180910390fd5b6003828154811061159557611594611b87565b5b90600052602060002090600502019050919050565b6040518060a00160405280606081526020016060815260200160008152602001600081526020016000151581525090565b6000604051905090565b600080fd5b600080fd5b600080fd5b600080fd5b6000601f19601f8301169050919050565b7f4e487b7100000000000000000000000000000000000000000000000000000000600052604160045260246000fd5b611642826115f9565b810181811067ffffffffffffffff821117156116615761166061160a565b5b80604052505050565b60006116746115db565b90506116808282611639565b919050565b600067ffffffffffffffff8211156116a05761169f61160a565b5b6116a9826115f9565b9050602081019050919050565b82818337600083830152505050565b60006116d86116d384611685565b61166a565b9050828152602081018484840111156116f4576116f36115f4565b5b6116ff8482856116b6565b509392505050565b600082601f83011261171c5761171b6115ef565b5b813561172c8482602086016116c5565b91505092915050565b6000806040838503121561174c5761174b6115e5565b5b600083013567ffffffffffffffff81111561176a576117696115ea565b5b61177685828601611707565b925050602083013567ffffffffffffffff811115611797576117966115ea565b5b6117a385828601611707565b9150509250929050565b600081519050919050565b600082825260208201905092915050565b60005b838110156117e75780820151818401526020810190506117cc565b60008484015250505050565b60006117fe826117ad565b61180881856117b8565b93506118188185602086016117c9565b611821816115f9565b840191505092915050565b6000819050919050565b61183f8161182c565b82525050565b60008115159050919050565b61185a81611845565b82525050565b600060a083016000830151848203600086015261187d82826117f3565b9150506020830151848203602086015261189782826117f3565b91505060408301516118ac6040860182611836565b5060608301516118bf6060860182611836565b5060808301516118d26080860182611851565b508091505092915050565b600060208201905081810360008301526118f78184611860565b905092915050565b600073ffffffffffffffffffffffffffffffffffffffff82169050919050565b600061192a826118ff565b9050919050565b61193a8161191f565b811461194557600080fd5b50565b60008135905061195781611931565b92915050565b600060208284031215611973576119726115e5565b5b600061198184828501611948565b91505092915050565b6119938161182c565b82525050565b60006020820190506119ae600083018461198a565b92915050565b6119bd8161182c565b81146119c857600080fd5b50565b6000813590506119da816119b4565b92915050565b6000602082840312156119f6576119f56115e5565b5b6000611a04848285016119cb565b91505092915050565b600082825260208201905092915050565b6000611a29826117ad565b611a338185611a0d565b9350611a438185602086016117c9565b611a4c816115f9565b840191505092915050565b611a6081611845565b82525050565b600060a0820190508181036000830152611a808188611a1e565b90508181036020830152611a948187611a1e565b9050611aa3604083018661198a565b611ab0606083018561198a565b611abd6080830184611a57565b9695505050505050565b6000602082019050611adc6000830184611a57565b92915050565b611aeb81611845565b8114611af657600080fd5b50565b600081359050611b0881611ae2565b92915050565b600060208284031215611b2457611b236115e5565b5b6000611b3284828501611af9565b91505092915050565b611b448161191f565b82525050565b6000602082019050611b5f6000830184611b3b565b92915050565b60006020820190508181036000830152611b7f8184611a1e565b905092915050565b7f4e487b7100000000000000000000000000000000000000000000000000000000600052603260045260246000fd5b7f4e487b7100000000000000000000000000000000000000000000000000000000600052601160045260246000fd5b6000611bf08261182c565b9150611bfb8361182c565b9250828202611c098161182c565b91508282048414831517611c2057611c1f611bb6565b5b5092915050565b6000611c328261182c565b9150611c3d8361182c565b9250828201905080821115611c5557611c54611bb6565b5b92915050565b7f4e487b7100000000000000000000000000000000000000000000000000000000600052602260045260246000fd5b60006002820490506001821680611ca257607f821691505b602082108103611cb557611cb4611c5b565b5b50919050565b60008190508160005260206000209050919050565b60006020601f8301049050919050565b600082821b905092915050565b600060088302611d1d7fffffffffffffffffffffffffffffffffffffffffffffffffffffffffffffffff82611ce0565b611d278683611ce0565b95508019841693508086168417925050509392505050565b6000819050919050565b6000611d64611d5f611d5a8461182c565b611d3f565b61182c565b9050919050565b6000819050919050565b611d7e83611d49565b611d92611d8a82611d6b565b848454611ced565b825550505050565b600090565b611da7611d9a565b611db2818484611d75565b505050565b5b81811015611dd657611dcb600082611d9f565b600181019050611db8565b5050565b601f821115611e1b57611dec81611cbb565b611df584611cd0565b81016020851015611e04578190505b611e18611e1085611cd0565b830182611db7565b50505b505050565b600082821c905092915050565b6000611e3e60001984600802611e20565b1980831691505092915050565b6000611e578383611e2d565b9150826002028217905092915050565b611e70826117ad565b67ffffffffffffffff811115611e8957611e8861160a565b5b611e938254611c8a565b611e9e828285611dda565b600060209050601f831160018114611ed15760008415611ebf578287015190505b611ec98582611e4b565b865550611f31565b601f198416611edf86611cbb565b60005b82811015611f0757848901518255600182019150602085019450602081019050611ee2565b86831015611f245784890151611f20601f891682611e2d565b8355505b6001600288020188555050505b505050505050565b6000606082019050611f4e600083018661198a565b8181036020830152611f608185611a1e565b9050611f6f6040830184611b3b565b949350505050565b6000611f828261182c565b9150611f8d8361182c565b9250828203905081811115611fa557611fa4611bb6565b5b92915050565b7f416e204e465420636f6c6c656374696f6e2063616e6e6f74206861766520616e60008201527f20656d7074792061646472657373000000000000000000000000000000000000602082015250565b6000612007602e83611a0d565b915061201282611fab565b604082019050919050565b6000602082019050818103600083015261203681611ffa565b9050919050565b6000604082019050612052600083018561198a565b61205f6020830184611b3b565b9392505050565b7f54686520726571756573746564204e465420636f6c6c656374696f6e20646f6560008201527f73206e6f74206578697374000000000000000000000000000000000000000000602082015250565b60006120c2602b83611a0d565b91506120cd82612066565b604082019050919050565b600060208201905081810360008301526120f1816120b5565b9050919050565b7f4e487b7100000000000000000000000000000000000000000000000000000000600052603160045260246000fd5b60006121328261182c565b91507fffffffffffffffffffffffffffffffffffffffffffffffffffffffffffffffff820361216457612163611bb6565b5b600182019050919050565b60006040820190506121846000830185611b3b565b612191602083018461198a565b9392505050565b600081546121a581611c8a565b6121af8186611a0d565b945060018216600081146121ca57600181146121e057612213565b60ff198316865281151560200286019350612213565b6121e985611cbb565b60005b8381101561220b578154818901526001820191506020810190506121ec565b808801955050505b50505092915050565b600060408201905081810360008301526122368185612198565b9050818103602083015261224a8184612198565b90509392505050565b60008154905061226281611c8a565b9050919050565b60008190508160005260206000209050919050565b81810361228c575050612364565b61229582612253565b67ffffffffffffffff8111156122ae576122ad61160a565b5b6122b88254611c8a565b6122c3828285611dda565b6000601f8311600181146122f257600084156122e0578287015490505b6122ea8582611e4b565b86555061235d565b601f19841661230087612269565b965061230b86611cbb565b60005b828110156123335784890154825560018201915060018501945060208101905061230e565b86831015612350578489015461234c601f891682611e2d565b8355505b6001600288020188555050505b5050505050505b565b600060408201905061237b600083018561198a565b6123886020830184611a57565b9392505050565b60006040820190506123a46000830185611b3b565b6123b16020830184611b3b565b9392505050565b7f54686973206d6574686f642063616e206f6e6c792062652063616c6c6564206260008201527f7920746865206f776e6572206f66207468697320736d61727420636f6e74726160208201527f6374000000000000000000000000000000000000000000000000000000000000604082015250565b600061243a604283611a0d565b9150612445826123b8565b606082019050919050565b600060208201905081810360008301526124698161242d565b9050919050565b60008151905061247f816119b4565b92915050565b60006020828403121561249b5761249a6115e5565b5b60006124a984828501612470565b9150509291505056fea26469706673582212208b1b31216d08a95bdb69aa93644462668109a390cf1966f8c67f3421d3df16ae64736f6c63430008120033",
      "opcodes": "PUSH1 0x80 PUSH1 0x40 MSTORE PUSH1 0x1 PUSH1 0x0 DUP1 PUSH2 0x100 EXP DUP2 SLOAD DUP2 PUSH1 0xFF MUL NOT AND SWAP1 DUP4 ISZERO ISZERO MUL OR SWAP1 SSTORE POP PUSH1 0x3C PUSH1 0x2 PUSH3 0x2E SWAP2 SWAP1 PUSH3 0x1D3 JUMP JUMPDEST PUSH1 0x1 SSTORE CALLVALUE DUP1 ISZERO PUSH3 0x3E JUMPI PUSH1 0x0 DUP1 REVERT JUMPDEST POP CALLER PUSH1 0x2 PUSH1 0x0 PUSH2 0x100 EXP DUP2 SLOAD DUP2 PUSH20 0xFFFFFFFFFFFFFFFFFFFFFFFFFFFFFFFFFFFFFFFF MUL NOT AND SWAP1 DUP4 PUSH20 0xFFFFFFFFFFFFFFFFFFFFFFFFFFFFFFFFFFFFFFFF AND MUL OR SWAP1 SSTORE POP PUSH1 0x0 PUSH8 0xFFFFFFFFFFFFFFFF DUP2 GT ISZERO PUSH3 0x9E JUMPI PUSH3 0x9D PUSH3 0x21E JUMP JUMPDEST JUMPDEST PUSH1 0x40 MLOAD SWAP1 DUP1 DUP3 MSTORE DUP1 PUSH1 0x20 MUL PUSH1 0x20 ADD DUP3 ADD PUSH1 0x40 MSTORE DUP1 ISZERO PUSH3 0xCD JUMPI DUP2 PUSH1 0x20 ADD PUSH1 0x20 DUP3 MUL DUP1 CALLDATASIZE DUP4 CALLDATACOPY DUP1 DUP3 ADD SWAP2 POP POP SWAP1 POP JUMPDEST POP PUSH1 0x4 SWAP1 DUP1 MLOAD SWAP1 PUSH1 0x20 ADD SWAP1 PUSH3 0xE5 SWAP3 SWAP2 SWAP1 PUSH3 0xEC JUMP JUMPDEST POP PUSH3 0x24D JUMP JUMPDEST DUP3 DUP1 SLOAD DUP3 DUP3 SSTORE SWAP1 PUSH1 0x0 MSTORE PUSH1 0x20 PUSH1 0x0 KECCAK256 SWAP1 DUP2 ADD SWAP3 DUP3 ISZERO PUSH3 0x168 JUMPI SWAP2 PUSH1 0x20 MUL DUP3 ADD JUMPDEST DUP3 DUP2 GT ISZERO PUSH3 0x167 JUMPI DUP3 MLOAD DUP3 PUSH1 0x0 PUSH2 0x100 EXP DUP2 SLOAD DUP2 PUSH20 0xFFFFFFFFFFFFFFFFFFFFFFFFFFFFFFFFFFFFFFFF MUL NOT AND SWAP1 DUP4 PUSH20 0xFFFFFFFFFFFFFFFFFFFFFFFFFFFFFFFFFFFFFFFF AND MUL OR SWAP1 SSTORE POP SWAP2 PUSH1 0x20 ADD SWAP2 SWAP1 PUSH1 0x1 ADD SWAP1 PUSH3 0x10D JUMP JUMPDEST JUMPDEST POP SWAP1 POP PUSH3 0x177 SWAP2 SWAP1 PUSH3 0x17B JUMP JUMPDEST POP SWAP1 JUMP JUMPDEST JUMPDEST DUP1 DUP3 GT ISZERO PUSH3 0x196 JUMPI PUSH1 0x0 DUP2 PUSH1 0x0 SWAP1 SSTORE POP PUSH1 0x1 ADD PUSH3 0x17C JUMP JUMPDEST POP SWAP1 JUMP JUMPDEST PUSH1 0x0 DUP2 SWAP1 POP SWAP2 SWAP1 POP JUMP JUMPDEST PUSH32 0x4E487B7100000000000000000000000000000000000000000000000000000000 PUSH1 0x0 MSTORE PUSH1 0x11 PUSH1 0x4 MSTORE PUSH1 0x24 PUSH1 0x0 REVERT JUMPDEST PUSH1 0x0 PUSH3 0x1E0 DUP3 PUSH3 0x19A JUMP JUMPDEST SWAP2 POP PUSH3 0x1ED DUP4 PUSH3 0x19A JUMP JUMPDEST SWAP3 POP DUP3 DUP3 MUL PUSH3 0x1FD DUP2 PUSH3 0x19A JUMP JUMPDEST SWAP2 POP DUP3 DUP3 DIV DUP5 EQ DUP4 ISZERO OR PUSH3 0x217 JUMPI PUSH3 0x216 PUSH3 0x1A4 JUMP JUMPDEST JUMPDEST POP SWAP3 SWAP2 POP POP JUMP JUMPDEST PUSH32 0x4E487B7100000000000000000000000000000000000000000000000000000000 PUSH1 0x0 MSTORE PUSH1 0x41 PUSH1 0x4 MSTORE PUSH1 0x24 PUSH1 0x0 REVERT JUMPDEST PUSH2 0x24E8 DUP1 PUSH3 0x25D PUSH1 0x0 CODECOPY PUSH1 0x0 RETURN INVALID PUSH1 0x80 PUSH1 0x40 MSTORE CALLVALUE DUP1 ISZERO PUSH2 0x10 JUMPI PUSH1 0x0 DUP1 REVERT JUMPDEST POP PUSH1 0x4 CALLDATASIZE LT PUSH2 0x116 JUMPI PUSH1 0x0 CALLDATALOAD PUSH1 0xE0 SHR DUP1 PUSH4 0x8DA5CB5B GT PUSH2 0xA2 JUMPI DUP1 PUSH4 0xBBF79246 GT PUSH2 0x71 JUMPI DUP1 PUSH4 0xBBF79246 EQ PUSH2 0x299 JUMPI DUP1 PUSH4 0xC2D52751 EQ PUSH2 0x2B7 JUMPI DUP1 PUSH4 0xC4DC1556 EQ PUSH2 0x2D3 JUMPI DUP1 PUSH4 0xD65CED17 EQ PUSH2 0x2DD JUMPI DUP1 PUSH4 0xF2FDE38B EQ PUSH2 0x2FB JUMPI PUSH2 0x116 JUMP JUMPDEST DUP1 PUSH4 0x8DA5CB5B EQ PUSH2 0x249 JUMPI DUP1 PUSH4 0x98D5FDCA EQ PUSH2 0x267 JUMPI DUP1 PUSH4 0xB07672AE EQ PUSH2 0x285 JUMPI DUP1 PUSH4 0xB525EF0D EQ PUSH2 0x28F JUMPI PUSH2 0x116 JUMP JUMPDEST DUP1 PUSH4 0x605C736E GT PUSH2 0xE9 JUMPI DUP1 PUSH4 0x605C736E EQ PUSH2 0x18F JUMPI DUP1 PUSH4 0x68F16293 EQ PUSH2 0x1C3 JUMPI DUP1 PUSH4 0x7C14A418 EQ PUSH2 0x1E1 JUMPI DUP1 PUSH4 0x7EC24D7C EQ PUSH2 0x1FD JUMPI DUP1 PUSH4 0x8B98ECAA EQ PUSH2 0x22D JUMPI PUSH2 0x116 JUMP JUMPDEST DUP1 PUSH4 0x2DE9F2E EQ PUSH2 0x11B JUMPI DUP1 PUSH4 0x2B49D425 EQ PUSH2 0x137 JUMPI DUP1 PUSH4 0x30002EEF EQ PUSH2 0x155 JUMPI DUP1 PUSH4 0x578A72D3 EQ PUSH2 0x171 JUMPI JUMPDEST PUSH1 0x0 DUP1 REVERT JUMPDEST PUSH2 0x135 PUSH1 0x4 DUP1 CALLDATASIZE SUB DUP2 ADD SWAP1 PUSH2 0x130 SWAP2 SWAP1 PUSH2 0x1735 JUMP JUMPDEST PUSH2 0x317 JUMP JUMPDEST STOP JUMPDEST PUSH2 0x13F PUSH2 0x4DE JUMP JUMPDEST PUSH1 0x40 MLOAD PUSH2 0x14C SWAP2 SWAP1 PUSH2 0x18DD JUMP JUMPDEST PUSH1 0x40 MLOAD DUP1 SWAP2 SUB SWAP1 RETURN JUMPDEST PUSH2 0x16F PUSH1 0x4 DUP1 CALLDATASIZE SUB DUP2 ADD SWAP1 PUSH2 0x16A SWAP2 SWAP1 PUSH2 0x195D JUMP JUMPDEST PUSH2 0x67C JUMP JUMPDEST STOP JUMPDEST PUSH2 0x179 PUSH2 0x79D JUMP JUMPDEST PUSH1 0x40 MLOAD PUSH2 0x186 SWAP2 SWAP1 PUSH2 0x1999 JUMP JUMPDEST PUSH1 0x40 MLOAD DUP1 SWAP2 SUB SWAP1 RETURN JUMPDEST PUSH2 0x1A9 PUSH1 0x4 DUP1 CALLDATASIZE SUB DUP2 ADD SWAP1 PUSH2 0x1A4 SWAP2 SWAP1 PUSH2 0x19E0 JUMP JUMPDEST PUSH2 0x7A7 JUMP JUMPDEST PUSH1 0x40 MLOAD PUSH2 0x1BA SWAP6 SWAP5 SWAP4 SWAP3 SWAP2 SWAP1 PUSH2 0x1A66 JUMP JUMPDEST PUSH1 0x40 MLOAD DUP1 SWAP2 SUB SWAP1 RETURN JUMPDEST PUSH2 0x1CB PUSH2 0x90A JUMP JUMPDEST PUSH1 0x40 MLOAD PUSH2 0x1D8 SWAP2 SWAP1 PUSH2 0x1AC7 JUMP JUMPDEST PUSH1 0x40 MLOAD DUP1 SWAP2 SUB SWAP1 RETURN JUMPDEST PUSH2 0x1FB PUSH1 0x4 DUP1 CALLDATASIZE SUB DUP2 ADD SWAP1 PUSH2 0x1F6 SWAP2 SWAP1 PUSH2 0x1B0E JUMP JUMPDEST PUSH2 0x91B JUMP JUMPDEST STOP JUMPDEST PUSH2 0x217 PUSH1 0x4 DUP1 CALLDATASIZE SUB DUP2 ADD SWAP1 PUSH2 0x212 SWAP2 SWAP1 PUSH2 0x19E0 JUMP JUMPDEST PUSH2 0x93F JUMP JUMPDEST PUSH1 0x40 MLOAD PUSH2 0x224 SWAP2 SWAP1 PUSH2 0x1B4A JUMP JUMPDEST PUSH1 0x40 MLOAD DUP1 SWAP2 SUB SWAP1 RETURN JUMPDEST PUSH2 0x247 PUSH1 0x4 DUP1 CALLDATASIZE SUB DUP2 ADD SWAP1 PUSH2 0x242 SWAP2 SWAP1 PUSH2 0x19E0 JUMP JUMPDEST PUSH2 0x97E JUMP JUMPDEST STOP JUMPDEST PUSH2 0x251 PUSH2 0xB4D JUMP JUMPDEST PUSH1 0x40 MLOAD PUSH2 0x25E SWAP2 SWAP1 PUSH2 0x1B4A JUMP JUMPDEST PUSH1 0x40 MLOAD DUP1 SWAP2 SUB SWAP1 RETURN JUMPDEST PUSH2 0x26F PUSH2 0xB73 JUMP JUMPDEST PUSH1 0x40 MLOAD PUSH2 0x27C SWAP2 SWAP1 PUSH2 0x1B65 JUMP JUMPDEST PUSH1 0x40 MLOAD DUP1 SWAP2 SUB SWAP1 RETURN JUMPDEST PUSH2 0x28D PUSH2 0xC05 JUMP JUMPDEST STOP JUMPDEST PUSH2 0x297 PUSH2 0xE34 JUMP JUMPDEST STOP JUMPDEST PUSH2 0x2A1 PUSH2 0x1082 JUMP JUMPDEST PUSH1 0x40 MLOAD PUSH2 0x2AE SWAP2 SWAP1 PUSH2 0x1999 JUMP JUMPDEST PUSH1 0x40 MLOAD DUP1 SWAP2 SUB SWAP1 RETURN JUMPDEST PUSH2 0x2D1 PUSH1 0x4 DUP1 CALLDATASIZE SUB DUP2 ADD SWAP1 PUSH2 0x2CC SWAP2 SWAP1 PUSH2 0x19E0 JUMP JUMPDEST PUSH2 0x1088 JUMP JUMPDEST STOP JUMPDEST PUSH2 0x2DB PUSH2 0x109A JUMP JUMPDEST STOP JUMPDEST PUSH2 0x2E5 PUSH2 0x1213 JUMP JUMPDEST PUSH1 0x40 MLOAD PUSH2 0x2F2 SWAP2 SWAP1 PUSH2 0x1999 JUMP JUMPDEST PUSH1 0x40 MLOAD DUP1 SWAP2 SUB SWAP1 RETURN JUMPDEST PUSH2 0x315 PUSH1 0x4 DUP1 CALLDATASIZE SUB DUP2 ADD SWAP1 PUSH2 0x310 SWAP2 SWAP1 PUSH2 0x195D JUMP JUMPDEST PUSH2 0x121D JUMP JUMPDEST STOP JUMPDEST PUSH1 0x0 PUSH1 0x3 DUP1 SLOAD SWAP1 POP SWAP1 POP PUSH1 0x0 DUP2 GT ISZERO PUSH2 0x39F JUMPI PUSH1 0x3 DUP2 DUP2 SLOAD DUP2 LT PUSH2 0x33E JUMPI PUSH2 0x33D PUSH2 0x1B87 JUMP JUMPDEST JUMPDEST SWAP1 PUSH1 0x0 MSTORE PUSH1 0x20 PUSH1 0x0 KECCAK256 SWAP1 PUSH1 0x5 MUL ADD PUSH1 0x4 ADD PUSH1 0x0 SWAP1 SLOAD SWAP1 PUSH2 0x100 EXP SWAP1 DIV PUSH1 0xFF AND PUSH2 0x39E JUMPI NUMBER PUSH1 0x7 SLOAD GT ISZERO PUSH2 0x39D JUMPI PUSH1 0x40 MLOAD PUSH32 0xA9174B1700000000000000000000000000000000000000000000000000000000 DUP2 MSTORE PUSH1 0x4 ADD PUSH1 0x40 MLOAD DUP1 SWAP2 SUB SWAP1 REVERT JUMPDEST JUMPDEST JUMPDEST PUSH1 0x0 PUSH1 0x40 MLOAD DUP1 PUSH1 0xA0 ADD PUSH1 0x40 MSTORE DUP1 DUP6 DUP2 MSTORE PUSH1 0x20 ADD DUP5 DUP2 MSTORE PUSH1 0x20 ADD PUSH1 0x0 DUP2 MSTORE PUSH1 0x20 ADD PUSH1 0x0 DUP2 MSTORE PUSH1 0x20 ADD PUSH1 0x0 ISZERO ISZERO DUP2 MSTORE POP SWAP1 POP PUSH2 0x12C PUSH1 0x2 PUSH2 0x3DE SWAP2 SWAP1 PUSH2 0x1BE5 JUMP JUMPDEST NUMBER PUSH2 0x3E9 SWAP2 SWAP1 PUSH2 0x1C27 JUMP JUMPDEST PUSH1 0x6 DUP2 SWAP1 SSTORE POP PUSH2 0x258 PUSH1 0x2 PUSH2 0x3FE SWAP2 SWAP1 PUSH2 0x1BE5 JUMP JUMPDEST NUMBER PUSH2 0x409 SWAP2 SWAP1 PUSH2 0x1C27 JUMP JUMPDEST PUSH1 0x7 DUP2 SWAP1 SSTORE POP PUSH1 0x3 DUP2 SWAP1 DUP1 PUSH1 0x1 DUP2 SLOAD ADD DUP1 DUP3 SSTORE DUP1 SWAP2 POP POP PUSH1 0x1 SWAP1 SUB SWAP1 PUSH1 0x0 MSTORE PUSH1 0x20 PUSH1 0x0 KECCAK256 SWAP1 PUSH1 0x5 MUL ADD PUSH1 0x0 SWAP1 SWAP2 SWAP1 SWAP2 SWAP1 SWAP2 POP PUSH1 0x0 DUP3 ADD MLOAD DUP2 PUSH1 0x0 ADD SWAP1 DUP2 PUSH2 0x450 SWAP2 SWAP1 PUSH2 0x1E67 JUMP JUMPDEST POP PUSH1 0x20 DUP3 ADD MLOAD DUP2 PUSH1 0x1 ADD SWAP1 DUP2 PUSH2 0x466 SWAP2 SWAP1 PUSH2 0x1E67 JUMP JUMPDEST POP PUSH1 0x40 DUP3 ADD MLOAD DUP2 PUSH1 0x2 ADD SSTORE PUSH1 0x60 DUP3 ADD MLOAD DUP2 PUSH1 0x3 ADD SSTORE PUSH1 0x80 DUP3 ADD MLOAD DUP2 PUSH1 0x4 ADD PUSH1 0x0 PUSH2 0x100 EXP DUP2 SLOAD DUP2 PUSH1 0xFF MUL NOT AND SWAP1 DUP4 ISZERO ISZERO MUL OR SWAP1 SSTORE POP POP POP PUSH32 0xC8C078BFEE58E5822588F08B4509ED1EB5058E03F666CCA84DD2D44BF5C288A8 DUP3 DUP6 CALLER PUSH1 0x40 MLOAD PUSH2 0x4D0 SWAP4 SWAP3 SWAP2 SWAP1 PUSH2 0x1F39 JUMP JUMPDEST PUSH1 0x40 MLOAD DUP1 SWAP2 SUB SWAP1 LOG1 POP POP POP POP JUMP JUMPDEST PUSH2 0x4E6 PUSH2 0x15AA JUMP JUMPDEST PUSH1 0x3 PUSH1 0x1 PUSH1 0x3 DUP1 SLOAD SWAP1 POP PUSH2 0x4FA SWAP2 SWAP1 PUSH2 0x1F77 JUMP JUMPDEST DUP2 SLOAD DUP2 LT PUSH2 0x50B JUMPI PUSH2 0x50A PUSH2 0x1B87 JUMP JUMPDEST JUMPDEST SWAP1 PUSH1 0x0 MSTORE PUSH1 0x20 PUSH1 0x0 KECCAK256 SWAP1 PUSH1 0x5 MUL ADD PUSH1 0x40 MLOAD DUP1 PUSH1 0xA0 ADD PUSH1 0x40 MSTORE SWAP1 DUP2 PUSH1 0x0 DUP3 ADD DUP1 SLOAD PUSH2 0x534 SWAP1 PUSH2 0x1C8A JUMP JUMPDEST DUP1 PUSH1 0x1F ADD PUSH1 0x20 DUP1 SWAP2 DIV MUL PUSH1 0x20 ADD PUSH1 0x40 MLOAD SWAP1 DUP2 ADD PUSH1 0x40 MSTORE DUP1 SWAP3 SWAP2 SWAP1 DUP2 DUP2 MSTORE PUSH1 0x20 ADD DUP3 DUP1 SLOAD PUSH2 0x560 SWAP1 PUSH2 0x1C8A JUMP JUMPDEST DUP1 ISZERO PUSH2 0x5AD JUMPI DUP1 PUSH1 0x1F LT PUSH2 0x582 JUMPI PUSH2 0x100 DUP1 DUP4 SLOAD DIV MUL DUP4 MSTORE SWAP2 PUSH1 0x20 ADD SWAP2 PUSH2 0x5AD JUMP JUMPDEST DUP3 ADD SWAP2 SWAP1 PUSH1 0x0 MSTORE PUSH1 0x20 PUSH1 0x0 KECCAK256 SWAP1 JUMPDEST DUP2 SLOAD DUP2 MSTORE SWAP1 PUSH1 0x1 ADD SWAP1 PUSH1 0x20 ADD DUP1 DUP4 GT PUSH2 0x590 JUMPI DUP3 SWAP1 SUB PUSH1 0x1F AND DUP3 ADD SWAP2 JUMPDEST POP POP POP POP POP DUP2 MSTORE PUSH1 0x20 ADD PUSH1 0x1 DUP3 ADD DUP1 SLOAD PUSH2 0x5C6 SWAP1 PUSH2 0x1C8A JUMP JUMPDEST DUP1 PUSH1 0x1F ADD PUSH1 0x20 DUP1 SWAP2 DIV MUL PUSH1 0x20 ADD PUSH1 0x40 MLOAD SWAP1 DUP2 ADD PUSH1 0x40 MSTORE DUP1 SWAP3 SWAP2 SWAP1 DUP2 DUP2 MSTORE PUSH1 0x20 ADD DUP3 DUP1 SLOAD PUSH2 0x5F2 SWAP1 PUSH2 0x1C8A JUMP JUMPDEST DUP1 ISZERO PUSH2 0x63F JUMPI DUP1 PUSH1 0x1F LT PUSH2 0x614 JUMPI PUSH2 0x100 DUP1 DUP4 SLOAD DIV MUL DUP4 MSTORE SWAP2 PUSH1 0x20 ADD SWAP2 PUSH2 0x63F JUMP JUMPDEST DUP3 ADD SWAP2 SWAP1 PUSH1 0x0 MSTORE PUSH1 0x20 PUSH1 0x0 KECCAK256 SWAP1 JUMPDEST DUP2 SLOAD DUP2 MSTORE SWAP1 PUSH1 0x1 ADD SWAP1 PUSH1 0x20 ADD DUP1 DUP4 GT PUSH2 0x622 JUMPI DUP3 SWAP1 SUB PUSH1 0x1F AND DUP3 ADD SWAP2 JUMPDEST POP POP POP POP POP DUP2 MSTORE PUSH1 0x20 ADD PUSH1 0x2 DUP3 ADD SLOAD DUP2 MSTORE PUSH1 0x20 ADD PUSH1 0x3 DUP3 ADD SLOAD DUP2 MSTORE PUSH1 0x20 ADD PUSH1 0x4 DUP3 ADD PUSH1 0x0 SWAP1 SLOAD SWAP1 PUSH2 0x100 EXP SWAP1 DIV PUSH1 0xFF AND ISZERO ISZERO ISZERO ISZERO DUP2 MSTORE POP POP SWAP1 POP SWAP1 JUMP JUMPDEST PUSH2 0x684 PUSH2 0x12EC JUMP JUMPDEST PUSH1 0x0 PUSH20 0xFFFFFFFFFFFFFFFFFFFFFFFFFFFFFFFFFFFFFFFF AND DUP2 PUSH20 0xFFFFFFFFFFFFFFFFFFFFFFFFFFFFFFFFFFFFFFFF AND SUB PUSH2 0x6F3 JUMPI PUSH1 0x40 MLOAD PUSH32 0x8C379A000000000000000000000000000000000000000000000000000000000 DUP2 MSTORE PUSH1 0x4 ADD PUSH2 0x6EA SWAP1 PUSH2 0x201D JUMP JUMPDEST PUSH1 0x40 MLOAD DUP1 SWAP2 SUB SWAP1 REVERT JUMPDEST PUSH1 0x0 PUSH1 0x4 DUP1 SLOAD SWAP1 POP SWAP1 POP PUSH1 0x4 DUP3 SWAP1 DUP1 PUSH1 0x1 DUP2 SLOAD ADD DUP1 DUP3 SSTORE DUP1 SWAP2 POP POP PUSH1 0x1 SWAP1 SUB SWAP1 PUSH1 0x0 MSTORE PUSH1 0x20 PUSH1 0x0 KECCAK256 ADD PUSH1 0x0 SWAP1 SWAP2 SWAP1 SWAP2 SWAP1 SWAP2 PUSH2 0x100 EXP DUP2 SLOAD DUP2 PUSH20 0xFFFFFFFFFFFFFFFFFFFFFFFFFFFFFFFFFFFFFFFF MUL NOT AND SWAP1 DUP4 PUSH20 0xFFFFFFFFFFFFFFFFFFFFFFFFFFFFFFFFFFFFFFFF AND MUL OR SWAP1 SSTORE POP PUSH32 0x82EDA5D64185C894C1BA8CA4D84B96A074187302830B342FA1611E06C6805F28 DUP2 DUP4 PUSH1 0x40 MLOAD PUSH2 0x791 SWAP3 SWAP2 SWAP1 PUSH2 0x203D JUMP JUMPDEST PUSH1 0x40 MLOAD DUP1 SWAP2 SUB SWAP1 LOG1 POP POP JUMP JUMPDEST PUSH1 0x0 PUSH1 0x6 SLOAD SWAP1 POP SWAP1 JUMP JUMPDEST PUSH1 0x3 DUP2 DUP2 SLOAD DUP2 LT PUSH2 0x7B7 JUMPI PUSH1 0x0 DUP1 REVERT JUMPDEST SWAP1 PUSH1 0x0 MSTORE PUSH1 0x20 PUSH1 0x0 KECCAK256 SWAP1 PUSH1 0x5 MUL ADD PUSH1 0x0 SWAP2 POP SWAP1 POP DUP1 PUSH1 0x0 ADD DUP1 SLOAD PUSH2 0x7DA SWAP1 PUSH2 0x1C8A JUMP JUMPDEST DUP1 PUSH1 0x1F ADD PUSH1 0x20 DUP1 SWAP2 DIV MUL PUSH1 0x20 ADD PUSH1 0x40 MLOAD SWAP1 DUP2 ADD PUSH1 0x40 MSTORE DUP1 SWAP3 SWAP2 SWAP1 DUP2 DUP2 MSTORE PUSH1 0x20 ADD DUP3 DUP1 SLOAD PUSH2 0x806 SWAP1 PUSH2 0x1C8A JUMP JUMPDEST DUP1 ISZERO PUSH2 0x853 JUMPI DUP1 PUSH1 0x1F LT PUSH2 0x828 JUMPI PUSH2 0x100 DUP1 DUP4 SLOAD DIV MUL DUP4 MSTORE SWAP2 PUSH1 0x20 ADD SWAP2 PUSH2 0x853 JUMP JUMPDEST DUP3 ADD SWAP2 SWAP1 PUSH1 0x0 MSTORE PUSH1 0x20 PUSH1 0x0 KECCAK256 SWAP1 JUMPDEST DUP2 SLOAD DUP2 MSTORE SWAP1 PUSH1 0x1 ADD SWAP1 PUSH1 0x20 ADD DUP1 DUP4 GT PUSH2 0x836 JUMPI DUP3 SWAP1 SUB PUSH1 0x1F AND DUP3 ADD SWAP2 JUMPDEST POP POP POP POP POP SWAP1 DUP1 PUSH1 0x1 ADD DUP1 SLOAD PUSH2 0x868 SWAP1 PUSH2 0x1C8A JUMP JUMPDEST DUP1 PUSH1 0x1F ADD PUSH1 0x20 DUP1 SWAP2 DIV MUL PUSH1 0x20 ADD PUSH1 0x40 MLOAD SWAP1 DUP2 ADD PUSH1 0x40 MSTORE DUP1 SWAP3 SWAP2 SWAP1 DUP2 DUP2 MSTORE PUSH1 0x20 ADD DUP3 DUP1 SLOAD PUSH2 0x894 SWAP1 PUSH2 0x1C8A JUMP JUMPDEST DUP1 ISZERO PUSH2 0x8E1 JUMPI DUP1 PUSH1 0x1F LT PUSH2 0x8B6 JUMPI PUSH2 0x100 DUP1 DUP4 SLOAD DIV MUL DUP4 MSTORE SWAP2 PUSH1 0x20 ADD SWAP2 PUSH2 0x8E1 JUMP JUMPDEST DUP3 ADD SWAP2 SWAP1 PUSH1 0x0 MSTORE PUSH1 0x20 PUSH1 0x0 KECCAK256 SWAP1 JUMPDEST DUP2 SLOAD DUP2 MSTORE SWAP1 PUSH1 0x1 ADD SWAP1 PUSH1 0x20 ADD DUP1 DUP4 GT PUSH2 0x8C4 JUMPI DUP3 SWAP1 SUB PUSH1 0x1F AND DUP3 ADD SWAP2 JUMPDEST POP POP POP POP POP SWAP1 DUP1 PUSH1 0x2 ADD SLOAD SWAP1 DUP1 PUSH1 0x3 ADD SLOAD SWAP1 DUP1 PUSH1 0x4 ADD PUSH1 0x0 SWAP1 SLOAD SWAP1 PUSH2 0x100 EXP SWAP1 DIV PUSH1 0xFF AND SWAP1 POP DUP6 JUMP JUMPDEST PUSH1 0x0 DUP1 SLOAD SWAP1 PUSH2 0x100 EXP SWAP1 DIV PUSH1 0xFF AND DUP2 JUMP JUMPDEST PUSH2 0x923 PUSH2 0x12EC JUMP JUMPDEST DUP1 PUSH1 0x0 DUP1 PUSH2 0x100 EXP DUP2 SLOAD DUP2 PUSH1 0xFF MUL NOT AND SWAP1 DUP4 ISZERO ISZERO MUL OR SWAP1 SSTORE POP POP JUMP JUMPDEST PUSH1 0x4 DUP2 DUP2 SLOAD DUP2 LT PUSH2 0x94F JUMPI PUSH1 0x0 DUP1 REVERT JUMPDEST SWAP1 PUSH1 0x0 MSTORE PUSH1 0x20 PUSH1 0x0 KECCAK256 ADD PUSH1 0x0 SWAP2 POP SLOAD SWAP1 PUSH2 0x100 EXP SWAP1 DIV PUSH20 0xFFFFFFFFFFFFFFFFFFFFFFFFFFFFFFFFFFFFFFFF AND DUP2 JUMP JUMPDEST PUSH2 0x986 PUSH2 0x12EC JUMP JUMPDEST PUSH1 0x0 DUP2 LT ISZERO DUP1 ISZERO PUSH2 0x99B JUMPI POP PUSH1 0x4 DUP1 SLOAD SWAP1 POP DUP2 LT JUMPDEST PUSH2 0x9DA JUMPI PUSH1 0x40 MLOAD PUSH32 0x8C379A000000000000000000000000000000000000000000000000000000000 DUP2 MSTORE PUSH1 0x4 ADD PUSH2 0x9D1 SWAP1 PUSH2 0x20D8 JUMP JUMPDEST PUSH1 0x40 MLOAD DUP1 SWAP2 SUB SWAP1 REVERT JUMPDEST PUSH1 0x0 PUSH1 0x4 DUP3 DUP2 SLOAD DUP2 LT PUSH2 0x9F0 JUMPI PUSH2 0x9EF PUSH2 0x1B87 JUMP JUMPDEST JUMPDEST SWAP1 PUSH1 0x0 MSTORE PUSH1 0x20 PUSH1 0x0 KECCAK256 ADD PUSH1 0x0 SWAP1 SLOAD SWAP1 PUSH2 0x100 EXP SWAP1 DIV PUSH20 0xFFFFFFFFFFFFFFFFFFFFFFFFFFFFFFFFFFFFFFFF AND SWAP1 POP PUSH1 0x4 PUSH1 0x1 PUSH1 0x4 DUP1 SLOAD SWAP1 POP PUSH2 0xA31 SWAP2 SWAP1 PUSH2 0x1F77 JUMP JUMPDEST DUP2 SLOAD DUP2 LT PUSH2 0xA42 JUMPI PUSH2 0xA41 PUSH2 0x1B87 JUMP JUMPDEST JUMPDEST SWAP1 PUSH1 0x0 MSTORE PUSH1 0x20 PUSH1 0x0 KECCAK256 ADD PUSH1 0x0 SWAP1 SLOAD SWAP1 PUSH2 0x100 EXP SWAP1 DIV PUSH20 0xFFFFFFFFFFFFFFFFFFFFFFFFFFFFFFFFFFFFFFFF AND PUSH1 0x4 DUP4 DUP2 SLOAD DUP2 LT PUSH2 0xA81 JUMPI PUSH2 0xA80 PUSH2 0x1B87 JUMP JUMPDEST JUMPDEST SWAP1 PUSH1 0x0 MSTORE PUSH1 0x20 PUSH1 0x0 KECCAK256 ADD PUSH1 0x0 PUSH2 0x100 EXP DUP2 SLOAD DUP2 PUSH20 0xFFFFFFFFFFFFFFFFFFFFFFFFFFFFFFFFFFFFFFFF MUL NOT AND SWAP1 DUP4 PUSH20 0xFFFFFFFFFFFFFFFFFFFFFFFFFFFFFFFFFFFFFFFF AND MUL OR SWAP1 SSTORE POP PUSH1 0x4 DUP1 SLOAD DUP1 PUSH2 0xADB JUMPI PUSH2 0xADA PUSH2 0x20F8 JUMP JUMPDEST JUMPDEST PUSH1 0x1 SWAP1 SUB DUP2 DUP2 SWAP1 PUSH1 0x0 MSTORE PUSH1 0x20 PUSH1 0x0 KECCAK256 ADD PUSH1 0x0 PUSH2 0x100 EXP DUP2 SLOAD SWAP1 PUSH20 0xFFFFFFFFFFFFFFFFFFFFFFFFFFFFFFFFFFFFFFFF MUL NOT AND SWAP1 SSTORE SWAP1 SSTORE PUSH32 0xB6F7DB2D5083E9AE2B0B0E374DBCDC50D76E778E5E84B9186ADBE5968B134DBB DUP3 DUP3 PUSH1 0x40 MLOAD PUSH2 0xB41 SWAP3 SWAP2 SWAP1 PUSH2 0x203D JUMP JUMPDEST PUSH1 0x40 MLOAD DUP1 SWAP2 SUB SWAP1 LOG1 POP POP JUMP JUMPDEST PUSH1 0x2 PUSH1 0x0 SWAP1 SLOAD SWAP1 PUSH2 0x100 EXP SWAP1 DIV PUSH20 0xFFFFFFFFFFFFFFFFFFFFFFFFFFFFFFFFFFFFFFFF AND DUP2 JUMP JUMPDEST PUSH1 0x60 PUSH1 0x5 DUP1 SLOAD PUSH2 0xB82 SWAP1 PUSH2 0x1C8A JUMP JUMPDEST DUP1 PUSH1 0x1F ADD PUSH1 0x20 DUP1 SWAP2 DIV MUL PUSH1 0x20 ADD PUSH1 0x40 MLOAD SWAP1 DUP2 ADD PUSH1 0x40 MSTORE DUP1 SWAP3 SWAP2 SWAP1 DUP2 DUP2 MSTORE PUSH1 0x20 ADD DUP3 DUP1 SLOAD PUSH2 0xBAE SWAP1 PUSH2 0x1C8A JUMP JUMPDEST DUP1 ISZERO PUSH2 0xBFB JUMPI DUP1 PUSH1 0x1F LT PUSH2 0xBD0 JUMPI PUSH2 0x100 DUP1 DUP4 SLOAD DIV MUL DUP4 MSTORE SWAP2 PUSH1 0x20 ADD SWAP2 PUSH2 0xBFB JUMP JUMPDEST DUP3 ADD SWAP2 SWAP1 PUSH1 0x0 MSTORE PUSH1 0x20 PUSH1 0x0 KECCAK256 SWAP1 JUMPDEST DUP2 SLOAD DUP2 MSTORE SWAP1 PUSH1 0x1 ADD SWAP1 PUSH1 0x20 ADD DUP1 DUP4 GT PUSH2 0xBDE JUMPI DUP3 SWAP1 SUB PUSH1 0x1F AND DUP3 ADD SWAP2 JUMPDEST POP POP POP POP POP SWAP1 POP SWAP1 JUMP JUMPDEST PUSH2 0xC0D PUSH2 0x137E JUMP JUMPDEST PUSH2 0xC43 JUMPI PUSH1 0x40 MLOAD PUSH32 0x7FB16F1B00000000000000000000000000000000000000000000000000000000 DUP2 MSTORE PUSH1 0x4 ADD PUSH1 0x40 MLOAD DUP1 SWAP2 SUB SWAP1 REVERT JUMPDEST PUSH1 0x0 PUSH1 0x1 PUSH1 0x3 DUP1 SLOAD SWAP1 POP PUSH2 0xC57 SWAP2 SWAP1 PUSH2 0x1F77 JUMP JUMPDEST SWAP1 POP PUSH1 0x0 PUSH2 0xC64 DUP3 PUSH2 0x1541 JUMP JUMPDEST SWAP1 POP PUSH1 0x6 SLOAD NUMBER GT ISZERO PUSH2 0xCA2 JUMPI PUSH1 0x40 MLOAD PUSH32 0x9BD4D19F00000000000000000000000000000000000000000000000000000000 DUP2 MSTORE PUSH1 0x4 ADD PUSH1 0x40 MLOAD DUP1 SWAP2 SUB SWAP1 REVERT JUMPDEST PUSH1 0x0 PUSH1 0x8 PUSH1 0x0 DUP5 DUP2 MSTORE PUSH1 0x20 ADD SWAP1 DUP2 MSTORE PUSH1 0x20 ADD PUSH1 0x0 KECCAK256 PUSH1 0x0 CALLER PUSH20 0xFFFFFFFFFFFFFFFFFFFFFFFFFFFFFFFFFFFFFFFF AND PUSH20 0xFFFFFFFFFFFFFFFFFFFFFFFFFFFFFFFFFFFFFFFF AND DUP2 MSTORE PUSH1 0x20 ADD SWAP1 DUP2 MSTORE PUSH1 0x20 ADD PUSH1 0x0 KECCAK256 PUSH1 0x0 SWAP1 SLOAD SWAP1 PUSH2 0x100 EXP SWAP1 DIV PUSH1 0x0 SIGNEXTEND SWAP1 POP PUSH1 0x1 DUP2 PUSH1 0x0 SIGNEXTEND EQ DUP1 PUSH2 0xD38 JUMPI POP PUSH32 0xFFFFFFFFFFFFFFFFFFFFFFFFFFFFFFFFFFFFFFFFFFFFFFFFFFFFFFFFFFFFFFFF DUP2 PUSH1 0x0 SIGNEXTEND EQ JUMPDEST ISZERO PUSH2 0xD6F JUMPI PUSH1 0x40 MLOAD PUSH32 0x7C9A1CF900000000000000000000000000000000000000000000000000000000 DUP2 MSTORE PUSH1 0x4 ADD PUSH1 0x40 MLOAD DUP1 SWAP2 SUB SWAP1 REVERT JUMPDEST DUP2 PUSH1 0x2 ADD PUSH1 0x0 DUP2 SLOAD DUP1 SWAP3 SWAP2 SWAP1 PUSH2 0xD84 SWAP1 PUSH2 0x2127 JUMP JUMPDEST SWAP2 SWAP1 POP SSTORE POP PUSH1 0x1 PUSH1 0x8 PUSH1 0x0 DUP6 DUP2 MSTORE PUSH1 0x20 ADD SWAP1 DUP2 MSTORE PUSH1 0x20 ADD PUSH1 0x0 KECCAK256 PUSH1 0x0 CALLER PUSH20 0xFFFFFFFFFFFFFFFFFFFFFFFFFFFFFFFFFFFFFFFF AND PUSH20 0xFFFFFFFFFFFFFFFFFFFFFFFFFFFFFFFFFFFFFFFF AND DUP2 MSTORE PUSH1 0x20 ADD SWAP1 DUP2 MSTORE PUSH1 0x20 ADD PUSH1 0x0 KECCAK256 PUSH1 0x0 PUSH2 0x100 EXP DUP2 SLOAD DUP2 PUSH1 0xFF MUL NOT AND SWAP1 DUP4 PUSH1 0x0 SIGNEXTEND PUSH1 0xFF AND MUL OR SWAP1 SSTORE POP PUSH32 0x39C53468031AD719FB1805945CB8128E48F9C189C15308E05B73C48E98B4BC24 CALLER DUP5 PUSH1 0x40 MLOAD PUSH2 0xE27 SWAP3 SWAP2 SWAP1 PUSH2 0x216F JUMP JUMPDEST PUSH1 0x40 MLOAD DUP1 SWAP2 SUB SWAP1 LOG1 POP POP POP JUMP JUMPDEST PUSH2 0xE3C PUSH2 0x137E JUMP JUMPDEST PUSH2 0xE72 JUMPI PUSH1 0x40 MLOAD PUSH32 0x7FB16F1B00000000000000000000000000000000000000000000000000000000 DUP2 MSTORE PUSH1 0x4 ADD PUSH1 0x40 MLOAD DUP1 SWAP2 SUB SWAP1 REVERT JUMPDEST PUSH1 0x0 PUSH1 0x1 PUSH1 0x3 DUP1 SLOAD SWAP1 POP PUSH2 0xE86 SWAP2 SWAP1 PUSH2 0x1F77 JUMP JUMPDEST SWAP1 POP PUSH1 0x0 PUSH2 0xE93 DUP3 PUSH2 0x1541 JUMP JUMPDEST SWAP1 POP PUSH1 0x6 SLOAD NUMBER GT ISZERO PUSH2 0xED1 JUMPI PUSH1 0x40 MLOAD PUSH32 0x9BD4D19F00000000000000000000000000000000000000000000000000000000 DUP2 MSTORE PUSH1 0x4 ADD PUSH1 0x40 MLOAD DUP1 SWAP2 SUB SWAP1 REVERT JUMPDEST PUSH1 0x0 PUSH1 0x8 PUSH1 0x0 DUP5 DUP2 MSTORE PUSH1 0x20 ADD SWAP1 DUP2 MSTORE PUSH1 0x20 ADD PUSH1 0x0 KECCAK256 PUSH1 0x0 CALLER PUSH20 0xFFFFFFFFFFFFFFFFFFFFFFFFFFFFFFFFFFFFFFFF AND PUSH20 0xFFFFFFFFFFFFFFFFFFFFFFFFFFFFFFFFFFFFFFFF AND DUP2 MSTORE PUSH1 0x20 ADD SWAP1 DUP2 MSTORE PUSH1 0x20 ADD PUSH1 0x0 KECCAK256 PUSH1 0x0 SWAP1 SLOAD SWAP1 PUSH2 0x100 EXP SWAP1 DIV PUSH1 0x0 SIGNEXTEND SWAP1 POP PUSH1 0x1 DUP2 PUSH1 0x0 SIGNEXTEND EQ DUP1 PUSH2 0xF67 JUMPI POP PUSH32 0xFFFFFFFFFFFFFFFFFFFFFFFFFFFFFFFFFFFFFFFFFFFFFFFFFFFFFFFFFFFFFFFF DUP2 PUSH1 0x0 SIGNEXTEND EQ JUMPDEST ISZERO PUSH2 0xF9E JUMPI PUSH1 0x40 MLOAD PUSH32 0x7C9A1CF900000000000000000000000000000000000000000000000000000000 DUP2 MSTORE PUSH1 0x4 ADD PUSH1 0x40 MLOAD DUP1 SWAP2 SUB SWAP1 REVERT JUMPDEST DUP2 PUSH1 0x3 ADD PUSH1 0x0 DUP2 SLOAD DUP1 SWAP3 SWAP2 SWAP1 PUSH2 0xFB3 SWAP1 PUSH2 0x2127 JUMP JUMPDEST SWAP2 SWAP1 POP SSTORE POP PUSH32 0xFFFFFFFFFFFFFFFFFFFFFFFFFFFFFFFFFFFFFFFFFFFFFFFFFFFFFFFFFFFFFFFF PUSH1 0x8 PUSH1 0x0 DUP6 DUP2 MSTORE PUSH1 0x20 ADD SWAP1 DUP2 MSTORE PUSH1 0x20 ADD PUSH1 0x0 KECCAK256 PUSH1 0x0 CALLER PUSH20 0xFFFFFFFFFFFFFFFFFFFFFFFFFFFFFFFFFFFFFFFF AND PUSH20 0xFFFFFFFFFFFFFFFFFFFFFFFFFFFFFFFFFFFFFFFF AND DUP2 MSTORE PUSH1 0x20 ADD SWAP1 DUP2 MSTORE PUSH1 0x20 ADD PUSH1 0x0 KECCAK256 PUSH1 0x0 PUSH2 0x100 EXP DUP2 SLOAD DUP2 PUSH1 0xFF MUL NOT AND SWAP1 DUP4 PUSH1 0x0 SIGNEXTEND PUSH1 0xFF AND MUL OR SWAP1 SSTORE POP PUSH32 0xEC5739509EE72CE4062C5E252E7186D35B5A2C72221AF047C2A53B1CB5C90EF4 CALLER DUP5 PUSH1 0x40 MLOAD PUSH2 0x1075 SWAP3 SWAP2 SWAP1 PUSH2 0x216F JUMP JUMPDEST PUSH1 0x40 MLOAD DUP1 SWAP2 SUB SWAP1 LOG1 POP POP POP JUMP JUMPDEST PUSH1 0x1 SLOAD DUP2 JUMP JUMPDEST PUSH2 0x1090 PUSH2 0x12EC JUMP JUMPDEST DUP1 PUSH1 0x1 DUP2 SWAP1 SSTORE POP POP JUMP JUMPDEST PUSH1 0x0 PUSH1 0x1 PUSH1 0x3 DUP1 SLOAD SWAP1 POP PUSH2 0x10AE SWAP2 SWAP1 PUSH2 0x1F77 JUMP JUMPDEST SWAP1 POP PUSH1 0x0 PUSH2 0x10BB DUP3 PUSH2 0x1541 JUMP JUMPDEST SWAP1 POP NUMBER PUSH1 0x7 SLOAD GT ISZERO PUSH2 0x10F9 JUMPI PUSH1 0x40 MLOAD PUSH32 0xA9174B1700000000000000000000000000000000000000000000000000000000 DUP2 MSTORE PUSH1 0x4 ADD PUSH1 0x40 MLOAD DUP1 SWAP2 SUB SWAP1 REVERT JUMPDEST DUP1 PUSH1 0x4 ADD PUSH1 0x0 SWAP1 SLOAD SWAP1 PUSH2 0x100 EXP SWAP1 DIV PUSH1 0xFF AND ISZERO PUSH2 0x1117 JUMPI POP POP PUSH2 0x1211 JUMP JUMPDEST DUP1 PUSH1 0x3 ADD SLOAD DUP2 PUSH1 0x2 ADD SLOAD GT ISZERO PUSH2 0x11B6 JUMPI PUSH32 0x4D599AC90C3E5E1D64DF26DA87C79A4E007380A838C05D4D211F33C111E690BD PUSH1 0x5 DUP3 PUSH1 0x1 ADD PUSH1 0x40 MLOAD PUSH2 0x115C SWAP3 SWAP2 SWAP1 PUSH2 0x221C JUMP JUMPDEST PUSH1 0x40 MLOAD DUP1 SWAP2 SUB SWAP1 LOG1 DUP1 PUSH1 0x1 ADD PUSH1 0x5 SWAP1 DUP2 PUSH2 0x1176 SWAP2 SWAP1 PUSH2 0x227E JUMP JUMPDEST POP PUSH32 0xB5AC567FCF1B069E0235E4F16734625C6CF54C1B40517FD9EB85517F6E1265A7 DUP3 PUSH1 0x1 PUSH1 0x40 MLOAD PUSH2 0x11A9 SWAP3 SWAP2 SWAP1 PUSH2 0x2366 JUMP JUMPDEST PUSH1 0x40 MLOAD DUP1 SWAP2 SUB SWAP1 LOG1 PUSH2 0x11F1 JUMP JUMPDEST PUSH32 0xB5AC567FCF1B069E0235E4F16734625C6CF54C1B40517FD9EB85517F6E1265A7 DUP3 PUSH1 0x0 PUSH1 0x40 MLOAD PUSH2 0x11E8 SWAP3 SWAP2 SWAP1 PUSH2 0x2366 JUMP JUMPDEST PUSH1 0x40 MLOAD DUP1 SWAP2 SUB SWAP1 LOG1 JUMPDEST PUSH1 0x1 DUP2 PUSH1 0x4 ADD PUSH1 0x0 PUSH2 0x100 EXP DUP2 SLOAD DUP2 PUSH1 0xFF MUL NOT AND SWAP1 DUP4 ISZERO ISZERO MUL OR SWAP1 SSTORE POP POP POP JUMPDEST JUMP JUMPDEST PUSH1 0x0 PUSH1 0x7 SLOAD SWAP1 POP SWAP1 JUMP JUMPDEST PUSH2 0x1225 PUSH2 0x12EC JUMP JUMPDEST PUSH1 0x0 PUSH1 0x2 PUSH1 0x0 SWAP1 SLOAD SWAP1 PUSH2 0x100 EXP SWAP1 DIV PUSH20 0xFFFFFFFFFFFFFFFFFFFFFFFFFFFFFFFFFFFFFFFF AND SWAP1 POP DUP2 PUSH1 0x2 PUSH1 0x0 PUSH2 0x100 EXP DUP2 SLOAD DUP2 PUSH20 0xFFFFFFFFFFFFFFFFFFFFFFFFFFFFFFFFFFFFFFFF MUL NOT AND SWAP1 DUP4 PUSH20 0xFFFFFFFFFFFFFFFFFFFFFFFFFFFFFFFFFFFFFFFF AND MUL OR SWAP1 SSTORE POP PUSH32 0xA77B1597453F945CB89178EC89D7D37698B9F9B07ADBBB854775E48131186D25 DUP2 PUSH1 0x2 PUSH1 0x0 SWAP1 SLOAD SWAP1 PUSH2 0x100 EXP SWAP1 DIV PUSH20 0xFFFFFFFFFFFFFFFFFFFFFFFFFFFFFFFFFFFFFFFF AND PUSH1 0x40 MLOAD PUSH2 0x12E0 SWAP3 SWAP2 SWAP1 PUSH2 0x238F JUMP JUMPDEST PUSH1 0x40 MLOAD DUP1 SWAP2 SUB SWAP1 LOG1 POP POP JUMP JUMPDEST PUSH1 0x2 PUSH1 0x0 SWAP1 SLOAD SWAP1 PUSH2 0x100 EXP SWAP1 DIV PUSH20 0xFFFFFFFFFFFFFFFFFFFFFFFFFFFFFFFFFFFFFFFF AND PUSH20 0xFFFFFFFFFFFFFFFFFFFFFFFFFFFFFFFFFFFFFFFF AND CALLER PUSH20 0xFFFFFFFFFFFFFFFFFFFFFFFFFFFFFFFFFFFFFFFF AND EQ PUSH2 0x137C JUMPI PUSH1 0x40 MLOAD PUSH32 0x8C379A000000000000000000000000000000000000000000000000000000000 DUP2 MSTORE PUSH1 0x4 ADD PUSH2 0x1373 SWAP1 PUSH2 0x2450 JUMP JUMPDEST PUSH1 0x40 MLOAD DUP1 SWAP2 SUB SWAP1 REVERT JUMPDEST JUMP JUMPDEST PUSH1 0x0 PUSH1 0x1 ISZERO PUSH2 0x1390 JUMPI PUSH1 0x1 SWAP1 POP PUSH2 0x153E JUMP JUMPDEST PUSH1 0x9 PUSH1 0x0 CALLER PUSH20 0xFFFFFFFFFFFFFFFFFFFFFFFFFFFFFFFFFFFFFFFF AND PUSH20 0xFFFFFFFFFFFFFFFFFFFFFFFFFFFFFFFFFFFFFFFF AND DUP2 MSTORE PUSH1 0x20 ADD SWAP1 DUP2 MSTORE PUSH1 0x20 ADD PUSH1 0x0 KECCAK256 SLOAD NUMBER LT ISZERO PUSH2 0x13E0 JUMPI PUSH1 0x1 SWAP1 POP PUSH2 0x153E JUMP JUMPDEST PUSH1 0x0 JUMPDEST PUSH1 0x4 DUP1 SLOAD SWAP1 POP DUP2 LT ISZERO PUSH2 0x1538 JUMPI PUSH1 0x0 PUSH1 0x4 DUP3 DUP2 SLOAD DUP2 LT PUSH2 0x1406 JUMPI PUSH2 0x1405 PUSH2 0x1B87 JUMP JUMPDEST JUMPDEST SWAP1 PUSH1 0x0 MSTORE PUSH1 0x20 PUSH1 0x0 KECCAK256 ADD PUSH1 0x0 SWAP1 SLOAD SWAP1 PUSH2 0x100 EXP SWAP1 DIV PUSH20 0xFFFFFFFFFFFFFFFFFFFFFFFFFFFFFFFFFFFFFFFF AND SWAP1 POP PUSH1 0x0 DUP2 SWAP1 POP PUSH1 0x0 DUP2 PUSH20 0xFFFFFFFFFFFFFFFFFFFFFFFFFFFFFFFFFFFFFFFF AND PUSH4 0x70A08231 CALLER PUSH1 0x40 MLOAD DUP3 PUSH4 0xFFFFFFFF AND PUSH1 0xE0 SHL DUP2 MSTORE PUSH1 0x4 ADD PUSH2 0x1473 SWAP2 SWAP1 PUSH2 0x1B4A JUMP JUMPDEST PUSH1 0x20 PUSH1 0x40 MLOAD DUP1 DUP4 SUB DUP2 DUP7 GAS STATICCALL ISZERO DUP1 ISZERO PUSH2 0x1490 JUMPI RETURNDATASIZE PUSH1 0x0 DUP1 RETURNDATACOPY RETURNDATASIZE PUSH1 0x0 REVERT JUMPDEST POP POP POP POP PUSH1 0x40 MLOAD RETURNDATASIZE PUSH1 0x1F NOT PUSH1 0x1F DUP3 ADD AND DUP3 ADD DUP1 PUSH1 0x40 MSTORE POP DUP2 ADD SWAP1 PUSH2 0x14B4 SWAP2 SWAP1 PUSH2 0x2485 JUMP JUMPDEST GT ISZERO PUSH2 0x1523 JUMPI PUSH2 0xE10 PUSH1 0x2 PUSH2 0x14C9 SWAP2 SWAP1 PUSH2 0x1BE5 JUMP JUMPDEST NUMBER PUSH2 0x14D4 SWAP2 SWAP1 PUSH2 0x1C27 JUMP JUMPDEST PUSH1 0x9 PUSH1 0x0 CALLER PUSH20 0xFFFFFFFFFFFFFFFFFFFFFFFFFFFFFFFFFFFFFFFF AND PUSH20 0xFFFFFFFFFFFFFFFFFFFFFFFFFFFFFFFFFFFFFFFF AND DUP2 MSTORE PUSH1 0x20 ADD SWAP1 DUP2 MSTORE PUSH1 0x20 ADD PUSH1 0x0 KECCAK256 DUP2 SWAP1 SSTORE POP PUSH1 0x1 SWAP4 POP POP POP POP PUSH2 0x153E JUMP JUMPDEST POP POP DUP1 DUP1 PUSH2 0x1530 SWAP1 PUSH2 0x2127 JUMP JUMPDEST SWAP2 POP POP PUSH2 0x13E3 JUMP JUMPDEST POP PUSH1 0x0 SWAP1 POP JUMPDEST SWAP1 JUMP JUMPDEST PUSH1 0x0 PUSH1 0x3 DUP1 SLOAD SWAP1 POP DUP3 LT PUSH2 0x1581 JUMPI PUSH1 0x40 MLOAD PUSH32 0xD9C78E0200000000000000000000000000000000000000000000000000000000 DUP2 MSTORE PUSH1 0x4 ADD PUSH1 0x40 MLOAD DUP1 SWAP2 SUB SWAP1 REVERT JUMPDEST PUSH1 0x3 DUP3 DUP2 SLOAD DUP2 LT PUSH2 0x1595 JUMPI PUSH2 0x1594 PUSH2 0x1B87 JUMP JUMPDEST JUMPDEST SWAP1 PUSH1 0x0 MSTORE PUSH1 0x20 PUSH1 0x0 KECCAK256 SWAP1 PUSH1 0x5 MUL ADD SWAP1 POP SWAP2 SWAP1 POP JUMP JUMPDEST PUSH1 0x40 MLOAD DUP1 PUSH1 0xA0 ADD PUSH1 0x40 MSTORE DUP1 PUSH1 0x60 DUP2 MSTORE PUSH1 0x20 ADD PUSH1 0x60 DUP2 MSTORE PUSH1 0x20 ADD PUSH1 0x0 DUP2 MSTORE PUSH1 0x20 ADD PUSH1 0x0 DUP2 MSTORE PUSH1 0x20 ADD PUSH1 0x0 ISZERO ISZERO DUP2 MSTORE POP SWAP1 JUMP JUMPDEST PUSH1 0x0 PUSH1 0x40 MLOAD SWAP1 POP SWAP1 JUMP JUMPDEST PUSH1 0x0 DUP1 REVERT JUMPDEST PUSH1 0x0 DUP1 REVERT JUMPDEST PUSH1 0x0 DUP1 REVERT JUMPDEST PUSH1 0x0 DUP1 REVERT JUMPDEST PUSH1 0x0 PUSH1 0x1F NOT PUSH1 0x1F DUP4 ADD AND SWAP1 POP SWAP2 SWAP1 POP JUMP JUMPDEST PUSH32 0x4E487B7100000000000000000000000000000000000000000000000000000000 PUSH1 0x0 MSTORE PUSH1 0x41 PUSH1 0x4 MSTORE PUSH1 0x24 PUSH1 0x0 REVERT JUMPDEST PUSH2 0x1642 DUP3 PUSH2 0x15F9 JUMP JUMPDEST DUP2 ADD DUP2 DUP2 LT PUSH8 0xFFFFFFFFFFFFFFFF DUP3 GT OR ISZERO PUSH2 0x1661 JUMPI PUSH2 0x1660 PUSH2 0x160A JUMP JUMPDEST JUMPDEST DUP1 PUSH1 0x40 MSTORE POP POP POP JUMP JUMPDEST PUSH1 0x0 PUSH2 0x1674 PUSH2 0x15DB JUMP JUMPDEST SWAP1 POP PUSH2 0x1680 DUP3 DUP3 PUSH2 0x1639 JUMP JUMPDEST SWAP2 SWAP1 POP JUMP JUMPDEST PUSH1 0x0 PUSH8 0xFFFFFFFFFFFFFFFF DUP3 GT ISZERO PUSH2 0x16A0 JUMPI PUSH2 0x169F PUSH2 0x160A JUMP JUMPDEST JUMPDEST PUSH2 0x16A9 DUP3 PUSH2 0x15F9 JUMP JUMPDEST SWAP1 POP PUSH1 0x20 DUP2 ADD SWAP1 POP SWAP2 SWAP1 POP JUMP JUMPDEST DUP3 DUP2 DUP4 CALLDATACOPY PUSH1 0x0 DUP4 DUP4 ADD MSTORE POP POP POP JUMP JUMPDEST PUSH1 0x0 PUSH2 0x16D8 PUSH2 0x16D3 DUP5 PUSH2 0x1685 JUMP JUMPDEST PUSH2 0x166A JUMP JUMPDEST SWAP1 POP DUP3 DUP2 MSTORE PUSH1 0x20 DUP2 ADD DUP5 DUP5 DUP5 ADD GT ISZERO PUSH2 0x16F4 JUMPI PUSH2 0x16F3 PUSH2 0x15F4 JUMP JUMPDEST JUMPDEST PUSH2 0x16FF DUP5 DUP3 DUP6 PUSH2 0x16B6 JUMP JUMPDEST POP SWAP4 SWAP3 POP POP POP JUMP JUMPDEST PUSH1 0x0 DUP3 PUSH1 0x1F DUP4 ADD SLT PUSH2 0x171C JUMPI PUSH2 0x171B PUSH2 0x15EF JUMP JUMPDEST JUMPDEST DUP2 CALLDATALOAD PUSH2 0x172C DUP5 DUP3 PUSH1 0x20 DUP7 ADD PUSH2 0x16C5 JUMP JUMPDEST SWAP2 POP POP SWAP3 SWAP2 POP POP JUMP JUMPDEST PUSH1 0x0 DUP1 PUSH1 0x40 DUP4 DUP6 SUB SLT ISZERO PUSH2 0x174C JUMPI PUSH2 0x174B PUSH2 0x15E5 JUMP JUMPDEST JUMPDEST PUSH1 0x0 DUP4 ADD CALLDATALOAD PUSH8 0xFFFFFFFFFFFFFFFF DUP2 GT ISZERO PUSH2 0x176A JUMPI PUSH2 0x1769 PUSH2 0x15EA JUMP JUMPDEST JUMPDEST PUSH2 0x1776 DUP6 DUP3 DUP7 ADD PUSH2 0x1707 JUMP JUMPDEST SWAP3 POP POP PUSH1 0x20 DUP4 ADD CALLDATALOAD PUSH8 0xFFFFFFFFFFFFFFFF DUP2 GT ISZERO PUSH2 0x1797 JUMPI PUSH2 0x1796 PUSH2 0x15EA JUMP JUMPDEST JUMPDEST PUSH2 0x17A3 DUP6 DUP3 DUP7 ADD PUSH2 0x1707 JUMP JUMPDEST SWAP2 POP POP SWAP3 POP SWAP3 SWAP1 POP JUMP JUMPDEST PUSH1 0x0 DUP2 MLOAD SWAP1 POP SWAP2 SWAP1 POP JUMP JUMPDEST PUSH1 0x0 DUP3 DUP3 MSTORE PUSH1 0x20 DUP3 ADD SWAP1 POP SWAP3 SWAP2 POP POP JUMP JUMPDEST PUSH1 0x0 JUMPDEST DUP4 DUP2 LT ISZERO PUSH2 0x17E7 JUMPI DUP1 DUP3 ADD MLOAD DUP2 DUP5 ADD MSTORE PUSH1 0x20 DUP2 ADD SWAP1 POP PUSH2 0x17CC JUMP JUMPDEST PUSH1 0x0 DUP5 DUP5 ADD MSTORE POP POP POP POP JUMP JUMPDEST PUSH1 0x0 PUSH2 0x17FE DUP3 PUSH2 0x17AD JUMP JUMPDEST PUSH2 0x1808 DUP2 DUP6 PUSH2 0x17B8 JUMP JUMPDEST SWAP4 POP PUSH2 0x1818 DUP2 DUP6 PUSH1 0x20 DUP7 ADD PUSH2 0x17C9 JUMP JUMPDEST PUSH2 0x1821 DUP2 PUSH2 0x15F9 JUMP JUMPDEST DUP5 ADD SWAP2 POP POP SWAP3 SWAP2 POP POP JUMP JUMPDEST PUSH1 0x0 DUP2 SWAP1 POP SWAP2 SWAP1 POP JUMP JUMPDEST PUSH2 0x183F DUP2 PUSH2 0x182C JUMP JUMPDEST DUP3 MSTORE POP POP JUMP JUMPDEST PUSH1 0x0 DUP2 ISZERO ISZERO SWAP1 POP SWAP2 SWAP1 POP JUMP JUMPDEST PUSH2 0x185A DUP2 PUSH2 0x1845 JUMP JUMPDEST DUP3 MSTORE POP POP JUMP JUMPDEST PUSH1 0x0 PUSH1 0xA0 DUP4 ADD PUSH1 0x0 DUP4 ADD MLOAD DUP5 DUP3 SUB PUSH1 0x0 DUP7 ADD MSTORE PUSH2 0x187D DUP3 DUP3 PUSH2 0x17F3 JUMP JUMPDEST SWAP2 POP POP PUSH1 0x20 DUP4 ADD MLOAD DUP5 DUP3 SUB PUSH1 0x20 DUP7 ADD MSTORE PUSH2 0x1897 DUP3 DUP3 PUSH2 0x17F3 JUMP JUMPDEST SWAP2 POP POP PUSH1 0x40 DUP4 ADD MLOAD PUSH2 0x18AC PUSH1 0x40 DUP7 ADD DUP3 PUSH2 0x1836 JUMP JUMPDEST POP PUSH1 0x60 DUP4 ADD MLOAD PUSH2 0x18BF PUSH1 0x60 DUP7 ADD DUP3 PUSH2 0x1836 JUMP JUMPDEST POP PUSH1 0x80 DUP4 ADD MLOAD PUSH2 0x18D2 PUSH1 0x80 DUP7 ADD DUP3 PUSH2 0x1851 JUMP JUMPDEST POP DUP1 SWAP2 POP POP SWAP3 SWAP2 POP POP JUMP JUMPDEST PUSH1 0x0 PUSH1 0x20 DUP3 ADD SWAP1 POP DUP2 DUP2 SUB PUSH1 0x0 DUP4 ADD MSTORE PUSH2 0x18F7 DUP2 DUP5 PUSH2 0x1860 JUMP JUMPDEST SWAP1 POP SWAP3 SWAP2 POP POP JUMP JUMPDEST PUSH1 0x0 PUSH20 0xFFFFFFFFFFFFFFFFFFFFFFFFFFFFFFFFFFFFFFFF DUP3 AND SWAP1 POP SWAP2 SWAP1 POP JUMP JUMPDEST PUSH1 0x0 PUSH2 0x192A DUP3 PUSH2 0x18FF JUMP JUMPDEST SWAP1 POP SWAP2 SWAP1 POP JUMP JUMPDEST PUSH2 0x193A DUP2 PUSH2 0x191F JUMP JUMPDEST DUP2 EQ PUSH2 0x1945 JUMPI PUSH1 0x0 DUP1 REVERT JUMPDEST POP JUMP JUMPDEST PUSH1 0x0 DUP2 CALLDATALOAD SWAP1 POP PUSH2 0x1957 DUP2 PUSH2 0x1931 JUMP JUMPDEST SWAP3 SWAP2 POP POP JUMP JUMPDEST PUSH1 0x0 PUSH1 0x20 DUP3 DUP5 SUB SLT ISZERO PUSH2 0x1973 JUMPI PUSH2 0x1972 PUSH2 0x15E5 JUMP JUMPDEST JUMPDEST PUSH1 0x0 PUSH2 0x1981 DUP5 DUP3 DUP6 ADD PUSH2 0x1948 JUMP JUMPDEST SWAP2 POP POP SWAP3 SWAP2 POP POP JUMP JUMPDEST PUSH2 0x1993 DUP2 PUSH2 0x182C JUMP JUMPDEST DUP3 MSTORE POP POP JUMP JUMPDEST PUSH1 0x0 PUSH1 0x20 DUP3 ADD SWAP1 POP PUSH2 0x19AE PUSH1 0x0 DUP4 ADD DUP5 PUSH2 0x198A JUMP JUMPDEST SWAP3 SWAP2 POP POP JUMP JUMPDEST PUSH2 0x19BD DUP2 PUSH2 0x182C JUMP JUMPDEST DUP2 EQ PUSH2 0x19C8 JUMPI PUSH1 0x0 DUP1 REVERT JUMPDEST POP JUMP JUMPDEST PUSH1 0x0 DUP2 CALLDATALOAD SWAP1 POP PUSH2 0x19DA DUP2 PUSH2 0x19B4 JUMP JUMPDEST SWAP3 SWAP2 POP POP JUMP JUMPDEST PUSH1 0x0 PUSH1 0x20 DUP3 DUP5 SUB SLT ISZERO PUSH2 0x19F6 JUMPI PUSH2 0x19F5 PUSH2 0x15E5 JUMP JUMPDEST JUMPDEST PUSH1 0x0 PUSH2 0x1A04 DUP5 DUP3 DUP6 ADD PUSH2 0x19CB JUMP JUMPDEST SWAP2 POP POP SWAP3 SWAP2 POP POP JUMP JUMPDEST PUSH1 0x0 DUP3 DUP3 MSTORE PUSH1 0x20 DUP3 ADD SWAP1 POP SWAP3 SWAP2 POP POP JUMP JUMPDEST PUSH1 0x0 PUSH2 0x1A29 DUP3 PUSH2 0x17AD JUMP JUMPDEST PUSH2 0x1A33 DUP2 DUP6 PUSH2 0x1A0D JUMP JUMPDEST SWAP4 POP PUSH2 0x1A43 DUP2 DUP6 PUSH1 0x20 DUP7 ADD PUSH2 0x17C9 JUMP JUMPDEST PUSH2 0x1A4C DUP2 PUSH2 0x15F9 JUMP JUMPDEST DUP5 ADD SWAP2 POP POP SWAP3 SWAP2 POP POP JUMP JUMPDEST PUSH2 0x1A60 DUP2 PUSH2 0x1845 JUMP JUMPDEST DUP3 MSTORE POP POP JUMP JUMPDEST PUSH1 0x0 PUSH1 0xA0 DUP3 ADD SWAP1 POP DUP2 DUP2 SUB PUSH1 0x0 DUP4 ADD MSTORE PUSH2 0x1A80 DUP2 DUP9 PUSH2 0x1A1E JUMP JUMPDEST SWAP1 POP DUP2 DUP2 SUB PUSH1 0x20 DUP4 ADD MSTORE PUSH2 0x1A94 DUP2 DUP8 PUSH2 0x1A1E JUMP JUMPDEST SWAP1 POP PUSH2 0x1AA3 PUSH1 0x40 DUP4 ADD DUP7 PUSH2 0x198A JUMP JUMPDEST PUSH2 0x1AB0 PUSH1 0x60 DUP4 ADD DUP6 PUSH2 0x198A JUMP JUMPDEST PUSH2 0x1ABD PUSH1 0x80 DUP4 ADD DUP5 PUSH2 0x1A57 JUMP JUMPDEST SWAP7 SWAP6 POP POP POP POP POP POP JUMP JUMPDEST PUSH1 0x0 PUSH1 0x20 DUP3 ADD SWAP1 POP PUSH2 0x1ADC PUSH1 0x0 DUP4 ADD DUP5 PUSH2 0x1A57 JUMP JUMPDEST SWAP3 SWAP2 POP POP JUMP JUMPDEST PUSH2 0x1AEB DUP2 PUSH2 0x1845 JUMP JUMPDEST DUP2 EQ PUSH2 0x1AF6 JUMPI PUSH1 0x0 DUP1 REVERT JUMPDEST POP JUMP JUMPDEST PUSH1 0x0 DUP2 CALLDATALOAD SWAP1 POP PUSH2 0x1B08 DUP2 PUSH2 0x1AE2 JUMP JUMPDEST SWAP3 SWAP2 POP POP JUMP JUMPDEST PUSH1 0x0 PUSH1 0x20 DUP3 DUP5 SUB SLT ISZERO PUSH2 0x1B24 JUMPI PUSH2 0x1B23 PUSH2 0x15E5 JUMP JUMPDEST JUMPDEST PUSH1 0x0 PUSH2 0x1B32 DUP5 DUP3 DUP6 ADD PUSH2 0x1AF9 JUMP JUMPDEST SWAP2 POP POP SWAP3 SWAP2 POP POP JUMP JUMPDEST PUSH2 0x1B44 DUP2 PUSH2 0x191F JUMP JUMPDEST DUP3 MSTORE POP POP JUMP JUMPDEST PUSH1 0x0 PUSH1 0x20 DUP3 ADD SWAP1 POP PUSH2 0x1B5F PUSH1 0x0 DUP4 ADD DUP5 PUSH2 0x1B3B JUMP JUMPDEST SWAP3 SWAP2 POP POP JUMP JUMPDEST PUSH1 0x0 PUSH1 0x20 DUP3 ADD SWAP1 POP DUP2 DUP2 SUB PUSH1 0x0 DUP4 ADD MSTORE PUSH2 0x1B7F DUP2 DUP5 PUSH2 0x1A1E JUMP JUMPDEST SWAP1 POP SWAP3 SWAP2 POP POP JUMP JUMPDEST PUSH32 0x4E487B7100000000000000000000000000000000000000000000000000000000 PUSH1 0x0 MSTORE PUSH1 0x32 PUSH1 0x4 MSTORE PUSH1 0x24 PUSH1 0x0 REVERT JUMPDEST PUSH32 0x4E487B7100000000000000000000000000000000000000000000000000000000 PUSH1 0x0 MSTORE PUSH1 0x11 PUSH1 0x4 MSTORE PUSH1 0x24 PUSH1 0x0 REVERT JUMPDEST PUSH1 0x0 PUSH2 0x1BF0 DUP3 PUSH2 0x182C JUMP JUMPDEST SWAP2 POP PUSH2 0x1BFB DUP4 PUSH2 0x182C JUMP JUMPDEST SWAP3 POP DUP3 DUP3 MUL PUSH2 0x1C09 DUP2 PUSH2 0x182C JUMP JUMPDEST SWAP2 POP DUP3 DUP3 DIV DUP5 EQ DUP4 ISZERO OR PUSH2 0x1C20 JUMPI PUSH2 0x1C1F PUSH2 0x1BB6 JUMP JUMPDEST JUMPDEST POP SWAP3 SWAP2 POP POP JUMP JUMPDEST PUSH1 0x0 PUSH2 0x1C32 DUP3 PUSH2 0x182C JUMP JUMPDEST SWAP2 POP PUSH2 0x1C3D DUP4 PUSH2 0x182C JUMP JUMPDEST SWAP3 POP DUP3 DUP3 ADD SWAP1 POP DUP1 DUP3 GT ISZERO PUSH2 0x1C55 JUMPI PUSH2 0x1C54 PUSH2 0x1BB6 JUMP JUMPDEST JUMPDEST SWAP3 SWAP2 POP POP JUMP JUMPDEST PUSH32 0x4E487B7100000000000000000000000000000000000000000000000000000000 PUSH1 0x0 MSTORE PUSH1 0x22 PUSH1 0x4 MSTORE PUSH1 0x24 PUSH1 0x0 REVERT JUMPDEST PUSH1 0x0 PUSH1 0x2 DUP3 DIV SWAP1 POP PUSH1 0x1 DUP3 AND DUP1 PUSH2 0x1CA2 JUMPI PUSH1 0x7F DUP3 AND SWAP2 POP JUMPDEST PUSH1 0x20 DUP3 LT DUP2 SUB PUSH2 0x1CB5 JUMPI PUSH2 0x1CB4 PUSH2 0x1C5B JUMP JUMPDEST JUMPDEST POP SWAP2 SWAP1 POP JUMP JUMPDEST PUSH1 0x0 DUP2 SWAP1 POP DUP2 PUSH1 0x0 MSTORE PUSH1 0x20 PUSH1 0x0 KECCAK256 SWAP1 POP SWAP2 SWAP1 POP JUMP JUMPDEST PUSH1 0x0 PUSH1 0x20 PUSH1 0x1F DUP4 ADD DIV SWAP1 POP SWAP2 SWAP1 POP JUMP JUMPDEST PUSH1 0x0 DUP3 DUP3 SHL SWAP1 POP SWAP3 SWAP2 POP POP JUMP JUMPDEST PUSH1 0x0 PUSH1 0x8 DUP4 MUL PUSH2 0x1D1D PUSH32 0xFFFFFFFFFFFFFFFFFFFFFFFFFFFFFFFFFFFFFFFFFFFFFFFFFFFFFFFFFFFFFFFF DUP3 PUSH2 0x1CE0 JUMP JUMPDEST PUSH2 0x1D27 DUP7 DUP4 PUSH2 0x1CE0 JUMP JUMPDEST SWAP6 POP DUP1 NOT DUP5 AND SWAP4 POP DUP1 DUP7 AND DUP5 OR SWAP3 POP POP POP SWAP4 SWAP3 POP POP POP JUMP JUMPDEST PUSH1 0x0 DUP2 SWAP1 POP SWAP2 SWAP1 POP JUMP JUMPDEST PUSH1 0x0 PUSH2 0x1D64 PUSH2 0x1D5F PUSH2 0x1D5A DUP5 PUSH2 0x182C JUMP JUMPDEST PUSH2 0x1D3F JUMP JUMPDEST PUSH2 0x182C JUMP JUMPDEST SWAP1 POP SWAP2 SWAP1 POP JUMP JUMPDEST PUSH1 0x0 DUP2 SWAP1 POP SWAP2 SWAP1 POP JUMP JUMPDEST PUSH2 0x1D7E DUP4 PUSH2 0x1D49 JUMP JUMPDEST PUSH2 0x1D92 PUSH2 0x1D8A DUP3 PUSH2 0x1D6B JUMP JUMPDEST DUP5 DUP5 SLOAD PUSH2 0x1CED JUMP JUMPDEST DUP3 SSTORE POP POP POP POP JUMP JUMPDEST PUSH1 0x0 SWAP1 JUMP JUMPDEST PUSH2 0x1DA7 PUSH2 0x1D9A JUMP JUMPDEST PUSH2 0x1DB2 DUP2 DUP5 DUP5 PUSH2 0x1D75 JUMP JUMPDEST POP POP POP JUMP JUMPDEST JUMPDEST DUP2 DUP2 LT ISZERO PUSH2 0x1DD6 JUMPI PUSH2 0x1DCB PUSH1 0x0 DUP3 PUSH2 0x1D9F JUMP JUMPDEST PUSH1 0x1 DUP2 ADD SWAP1 POP PUSH2 0x1DB8 JUMP JUMPDEST POP POP JUMP JUMPDEST PUSH1 0x1F DUP3 GT ISZERO PUSH2 0x1E1B JUMPI PUSH2 0x1DEC DUP2 PUSH2 0x1CBB JUMP JUMPDEST PUSH2 0x1DF5 DUP5 PUSH2 0x1CD0 JUMP JUMPDEST DUP2 ADD PUSH1 0x20 DUP6 LT ISZERO PUSH2 0x1E04 JUMPI DUP2 SWAP1 POP JUMPDEST PUSH2 0x1E18 PUSH2 0x1E10 DUP6 PUSH2 0x1CD0 JUMP JUMPDEST DUP4 ADD DUP3 PUSH2 0x1DB7 JUMP JUMPDEST POP POP JUMPDEST POP POP POP JUMP JUMPDEST PUSH1 0x0 DUP3 DUP3 SHR SWAP1 POP SWAP3 SWAP2 POP POP JUMP JUMPDEST PUSH1 0x0 PUSH2 0x1E3E PUSH1 0x0 NOT DUP5 PUSH1 0x8 MUL PUSH2 0x1E20 JUMP JUMPDEST NOT DUP1 DUP4 AND SWAP2 POP POP SWAP3 SWAP2 POP POP JUMP JUMPDEST PUSH1 0x0 PUSH2 0x1E57 DUP4 DUP4 PUSH2 0x1E2D JUMP JUMPDEST SWAP2 POP DUP3 PUSH1 0x2 MUL DUP3 OR SWAP1 POP SWAP3 SWAP2 POP POP JUMP JUMPDEST PUSH2 0x1E70 DUP3 PUSH2 0x17AD JUMP JUMPDEST PUSH8 0xFFFFFFFFFFFFFFFF DUP2 GT ISZERO PUSH2 0x1E89 JUMPI PUSH2 0x1E88 PUSH2 0x160A JUMP JUMPDEST JUMPDEST PUSH2 0x1E93 DUP3 SLOAD PUSH2 0x1C8A JUMP JUMPDEST PUSH2 0x1E9E DUP3 DUP3 DUP6 PUSH2 0x1DDA JUMP JUMPDEST PUSH1 0x0 PUSH1 0x20 SWAP1 POP PUSH1 0x1F DUP4 GT PUSH1 0x1 DUP2 EQ PUSH2 0x1ED1 JUMPI PUSH1 0x0 DUP5 ISZERO PUSH2 0x1EBF JUMPI DUP3 DUP8 ADD MLOAD SWAP1 POP JUMPDEST PUSH2 0x1EC9 DUP6 DUP3 PUSH2 0x1E4B JUMP JUMPDEST DUP7 SSTORE POP PUSH2 0x1F31 JUMP JUMPDEST PUSH1 0x1F NOT DUP5 AND PUSH2 0x1EDF DUP7 PUSH2 0x1CBB JUMP JUMPDEST PUSH1 0x0 JUMPDEST DUP3 DUP2 LT ISZERO PUSH2 0x1F07 JUMPI DUP5 DUP10 ADD MLOAD DUP3 SSTORE PUSH1 0x1 DUP3 ADD SWAP2 POP PUSH1 0x20 DUP6 ADD SWAP5 POP PUSH1 0x20 DUP2 ADD SWAP1 POP PUSH2 0x1EE2 JUMP JUMPDEST DUP7 DUP4 LT ISZERO PUSH2 0x1F24 JUMPI DUP5 DUP10 ADD MLOAD PUSH2 0x1F20 PUSH1 0x1F DUP10 AND DUP3 PUSH2 0x1E2D JUMP JUMPDEST DUP4 SSTORE POP JUMPDEST PUSH1 0x1 PUSH1 0x2 DUP9 MUL ADD DUP9 SSTORE POP POP POP JUMPDEST POP POP POP POP POP POP JUMP JUMPDEST PUSH1 0x0 PUSH1 0x60 DUP3 ADD SWAP1 POP PUSH2 0x1F4E PUSH1 0x0 DUP4 ADD DUP7 PUSH2 0x198A JUMP JUMPDEST DUP2 DUP2 SUB PUSH1 0x20 DUP4 ADD MSTORE PUSH2 0x1F60 DUP2 DUP6 PUSH2 0x1A1E JUMP JUMPDEST SWAP1 POP PUSH2 0x1F6F PUSH1 0x40 DUP4 ADD DUP5 PUSH2 0x1B3B JUMP JUMPDEST SWAP5 SWAP4 POP POP POP POP JUMP JUMPDEST PUSH1 0x0 PUSH2 0x1F82 DUP3 PUSH2 0x182C JUMP JUMPDEST SWAP2 POP PUSH2 0x1F8D DUP4 PUSH2 0x182C JUMP JUMPDEST SWAP3 POP DUP3 DUP3 SUB SWAP1 POP DUP2 DUP2 GT ISZERO PUSH2 0x1FA5 JUMPI PUSH2 0x1FA4 PUSH2 0x1BB6 JUMP JUMPDEST JUMPDEST SWAP3 SWAP2 POP POP JUMP JUMPDEST PUSH32 0x416E204E465420636F6C6C656374696F6E2063616E6E6F74206861766520616E PUSH1 0x0 DUP3 ADD MSTORE PUSH32 0x20656D7074792061646472657373000000000000000000000000000000000000 PUSH1 0x20 DUP3 ADD MSTORE POP JUMP JUMPDEST PUSH1 0x0 PUSH2 0x2007 PUSH1 0x2E DUP4 PUSH2 0x1A0D JUMP JUMPDEST SWAP2 POP PUSH2 0x2012 DUP3 PUSH2 0x1FAB JUMP JUMPDEST PUSH1 0x40 DUP3 ADD SWAP1 POP SWAP2 SWAP1 POP JUMP JUMPDEST PUSH1 0x0 PUSH1 0x20 DUP3 ADD SWAP1 POP DUP2 DUP2 SUB PUSH1 0x0 DUP4 ADD MSTORE PUSH2 0x2036 DUP2 PUSH2 0x1FFA JUMP JUMPDEST SWAP1 POP SWAP2 SWAP1 POP JUMP JUMPDEST PUSH1 0x0 PUSH1 0x40 DUP3 ADD SWAP1 POP PUSH2 0x2052 PUSH1 0x0 DUP4 ADD DUP6 PUSH2 0x198A JUMP JUMPDEST PUSH2 0x205F PUSH1 0x20 DUP4 ADD DUP5 PUSH2 0x1B3B JUMP JUMPDEST SWAP4 SWAP3 POP POP POP JUMP JUMPDEST PUSH32 0x54686520726571756573746564204E465420636F6C6C656374696F6E20646F65 PUSH1 0x0 DUP3 ADD MSTORE PUSH32 0x73206E6F74206578697374000000000000000000000000000000000000000000 PUSH1 0x20 DUP3 ADD MSTORE POP JUMP JUMPDEST PUSH1 0x0 PUSH2 0x20C2 PUSH1 0x2B DUP4 PUSH2 0x1A0D JUMP JUMPDEST SWAP2 POP PUSH2 0x20CD DUP3 PUSH2 0x2066 JUMP JUMPDEST PUSH1 0x40 DUP3 ADD SWAP1 POP SWAP2 SWAP1 POP JUMP JUMPDEST PUSH1 0x0 PUSH1 0x20 DUP3 ADD SWAP1 POP DUP2 DUP2 SUB PUSH1 0x0 DUP4 ADD MSTORE PUSH2 0x20F1 DUP2 PUSH2 0x20B5 JUMP JUMPDEST SWAP1 POP SWAP2 SWAP1 POP JUMP JUMPDEST PUSH32 0x4E487B7100000000000000000000000000000000000000000000000000000000 PUSH1 0x0 MSTORE PUSH1 0x31 PUSH1 0x4 MSTORE PUSH1 0x24 PUSH1 0x0 REVERT JUMPDEST PUSH1 0x0 PUSH2 0x2132 DUP3 PUSH2 0x182C JUMP JUMPDEST SWAP2 POP PUSH32 0xFFFFFFFFFFFFFFFFFFFFFFFFFFFFFFFFFFFFFFFFFFFFFFFFFFFFFFFFFFFFFFFF DUP3 SUB PUSH2 0x2164 JUMPI PUSH2 0x2163 PUSH2 0x1BB6 JUMP JUMPDEST JUMPDEST PUSH1 0x1 DUP3 ADD SWAP1 POP SWAP2 SWAP1 POP JUMP JUMPDEST PUSH1 0x0 PUSH1 0x40 DUP3 ADD SWAP1 POP PUSH2 0x2184 PUSH1 0x0 DUP4 ADD DUP6 PUSH2 0x1B3B JUMP JUMPDEST PUSH2 0x2191 PUSH1 0x20 DUP4 ADD DUP5 PUSH2 0x198A JUMP JUMPDEST SWAP4 SWAP3 POP POP POP JUMP JUMPDEST PUSH1 0x0 DUP2 SLOAD PUSH2 0x21A5 DUP2 PUSH2 0x1C8A JUMP JUMPDEST PUSH2 0x21AF DUP2 DUP7 PUSH2 0x1A0D JUMP JUMPDEST SWAP5 POP PUSH1 0x1 DUP3 AND PUSH1 0x0 DUP2 EQ PUSH2 0x21CA JUMPI PUSH1 0x1 DUP2 EQ PUSH2 0x21E0 JUMPI PUSH2 0x2213 JUMP JUMPDEST PUSH1 0xFF NOT DUP4 AND DUP7 MSTORE DUP2 ISZERO ISZERO PUSH1 0x20 MUL DUP7 ADD SWAP4 POP PUSH2 0x2213 JUMP JUMPDEST PUSH2 0x21E9 DUP6 PUSH2 0x1CBB JUMP JUMPDEST PUSH1 0x0 JUMPDEST DUP4 DUP2 LT ISZERO PUSH2 0x220B JUMPI DUP2 SLOAD DUP2 DUP10 ADD MSTORE PUSH1 0x1 DUP3 ADD SWAP2 POP PUSH1 0x20 DUP2 ADD SWAP1 POP PUSH2 0x21EC JUMP JUMPDEST DUP1 DUP9 ADD SWAP6 POP POP POP JUMPDEST POP POP POP SWAP3 SWAP2 POP POP JUMP JUMPDEST PUSH1 0x0 PUSH1 0x40 DUP3 ADD SWAP1 POP DUP2 DUP2 SUB PUSH1 0x0 DUP4 ADD MSTORE PUSH2 0x2236 DUP2 DUP6 PUSH2 0x2198 JUMP JUMPDEST SWAP1 POP DUP2 DUP2 SUB PUSH1 0x20 DUP4 ADD MSTORE PUSH2 0x224A DUP2 DUP5 PUSH2 0x2198 JUMP JUMPDEST SWAP1 POP SWAP4 SWAP3 POP POP POP JUMP JUMPDEST PUSH1 0x0 DUP2 SLOAD SWAP1 POP PUSH2 0x2262 DUP2 PUSH2 0x1C8A JUMP JUMPDEST SWAP1 POP SWAP2 SWAP1 POP JUMP JUMPDEST PUSH1 0x0 DUP2 SWAP1 POP DUP2 PUSH1 0x0 MSTORE PUSH1 0x20 PUSH1 0x0 KECCAK256 SWAP1 POP SWAP2 SWAP1 POP JUMP JUMPDEST DUP2 DUP2 SUB PUSH2 0x228C JUMPI POP POP PUSH2 0x2364 JUMP JUMPDEST PUSH2 0x2295 DUP3 PUSH2 0x2253 JUMP JUMPDEST PUSH8 0xFFFFFFFFFFFFFFFF DUP2 GT ISZERO PUSH2 0x22AE JUMPI PUSH2 0x22AD PUSH2 0x160A JUMP JUMPDEST JUMPDEST PUSH2 0x22B8 DUP3 SLOAD PUSH2 0x1C8A JUMP JUMPDEST PUSH2 0x22C3 DUP3 DUP3 DUP6 PUSH2 0x1DDA JUMP JUMPDEST PUSH1 0x0 PUSH1 0x1F DUP4 GT PUSH1 0x1 DUP2 EQ PUSH2 0x22F2 JUMPI PUSH1 0x0 DUP5 ISZERO PUSH2 0x22E0 JUMPI DUP3 DUP8 ADD SLOAD SWAP1 POP JUMPDEST PUSH2 0x22EA DUP6 DUP3 PUSH2 0x1E4B JUMP JUMPDEST DUP7 SSTORE POP PUSH2 0x235D JUMP JUMPDEST PUSH1 0x1F NOT DUP5 AND PUSH2 0x2300 DUP8 PUSH2 0x2269 JUMP JUMPDEST SWAP7 POP PUSH2 0x230B DUP7 PUSH2 0x1CBB JUMP JUMPDEST PUSH1 0x0 JUMPDEST DUP3 DUP2 LT ISZERO PUSH2 0x2333 JUMPI DUP5 DUP10 ADD SLOAD DUP3 SSTORE PUSH1 0x1 DUP3 ADD SWAP2 POP PUSH1 0x1 DUP6 ADD SWAP5 POP PUSH1 0x20 DUP2 ADD SWAP1 POP PUSH2 0x230E JUMP JUMPDEST DUP7 DUP4 LT ISZERO PUSH2 0x2350 JUMPI DUP5 DUP10 ADD SLOAD PUSH2 0x234C PUSH1 0x1F DUP10 AND DUP3 PUSH2 0x1E2D JUMP JUMPDEST DUP4 SSTORE POP JUMPDEST PUSH1 0x1 PUSH1 0x2 DUP9 MUL ADD DUP9 SSTORE POP POP POP JUMPDEST POP POP POP POP POP POP JUMPDEST JUMP JUMPDEST PUSH1 0x0 PUSH1 0x40 DUP3 ADD SWAP1 POP PUSH2 0x237B PUSH1 0x0 DUP4 ADD DUP6 PUSH2 0x198A JUMP JUMPDEST PUSH2 0x2388 PUSH1 0x20 DUP4 ADD DUP5 PUSH2 0x1A57 JUMP JUMPDEST SWAP4 SWAP3 POP POP POP JUMP JUMPDEST PUSH1 0x0 PUSH1 0x40 DUP3 ADD SWAP1 POP PUSH2 0x23A4 PUSH1 0x0 DUP4 ADD DUP6 PUSH2 0x1B3B JUMP JUMPDEST PUSH2 0x23B1 PUSH1 0x20 DUP4 ADD DUP5 PUSH2 0x1B3B JUMP JUMPDEST SWAP4 SWAP3 POP POP POP JUMP JUMPDEST PUSH32 0x54686973206D6574686F642063616E206F6E6C792062652063616C6C65642062 PUSH1 0x0 DUP3 ADD MSTORE PUSH32 0x7920746865206F776E6572206F66207468697320736D61727420636F6E747261 PUSH1 0x20 DUP3 ADD MSTORE PUSH32 0x6374000000000000000000000000000000000000000000000000000000000000 PUSH1 0x40 DUP3 ADD MSTORE POP JUMP JUMPDEST PUSH1 0x0 PUSH2 0x243A PUSH1 0x42 DUP4 PUSH2 0x1A0D JUMP JUMPDEST SWAP2 POP PUSH2 0x2445 DUP3 PUSH2 0x23B8 JUMP JUMPDEST PUSH1 0x60 DUP3 ADD SWAP1 POP SWAP2 SWAP1 POP JUMP JUMPDEST PUSH1 0x0 PUSH1 0x20 DUP3 ADD SWAP1 POP DUP2 DUP2 SUB PUSH1 0x0 DUP4 ADD MSTORE PUSH2 0x2469 DUP2 PUSH2 0x242D JUMP JUMPDEST SWAP1 POP SWAP2 SWAP1 POP JUMP JUMPDEST PUSH1 0x0 DUP2 MLOAD SWAP1 POP PUSH2 0x247F DUP2 PUSH2 0x19B4 JUMP JUMPDEST SWAP3 SWAP2 POP POP JUMP JUMPDEST PUSH1 0x0 PUSH1 0x20 DUP3 DUP5 SUB SLT ISZERO PUSH2 0x249B JUMPI PUSH2 0x249A PUSH2 0x15E5 JUMP JUMPDEST JUMPDEST PUSH1 0x0 PUSH2 0x24A9 DUP5 DUP3 DUP6 ADD PUSH2 0x2470 JUMP JUMPDEST SWAP2 POP POP SWAP3 SWAP2 POP POP JUMP INVALID LOG2 PUSH5 0x6970667358 0x22 SLT KECCAK256 DUP12 SHL BALANCE 0x21 PUSH14 0x8A95BDB69AA93644462668109A3 SWAP1 0xCF NOT PUSH7 0xF8C67F3421D3DF AND 0xAE PUSH5 0x736F6C6343 STOP ADDMOD SLT STOP CALLER "
    }
  }
}