{
	"data": {
		"bytecode": {
			"linkReferences": {},
			"object": "60806040526103e8600555600780546200001c9160089162000041565b5034801562000029575f80fd5b505f80546001600160a01b0319163317905562000182565b828054828255905f5260205f2090600802810192821562000114575f5260205f209160080282015b828111156200011457825482546001600160a01b03199081166001600160a01b039283161784556001808601805491860180549384169290941691821784555460ff600160a01b91829004161515026001600160a81b0319909216171790556002808401549083015560038084015490830155600480840154908301556005808401549083015560068084015490830155600780840154908301556008928301929091019062000069565b506200012292915062000126565b5090565b5b80821115620001225780546001600160a01b03191681556001810180546001600160a81b03191690555f6002820181905560038201819055600482018190556005820181905560068201819055600782015560080162000127565b61462080620001905f395ff3fe60806040526004361061017b575f3560e01c806387b337e8116100cd578063a85c38ef11610087578063d7dcdcec11610062578063d7dcdcec1461048a578063db34a6791461049e578063f2fde38b146104bd578063f340fa01146104dc575f80fd5b8063a85c38ef146103e4578063c201e47c14610458578063d298006514610477575f80fd5b806387b337e8146103285780638da5cb5b146103475780639351769f1461037d578063a08b5bba14610391578063a262b73f146103b0578063a5b6f92a146103cf575f80fd5b80634d9ea07d116101385780636aafbddd116101135780636aafbddd146102b85780636daf6945146102d75780637c38d663146102ea57806386f179d214610309575f80fd5b80634d9ea07d1461025b5780635264c8d91461027a578063673cf82a14610299575f80fd5b8063076d782e1461017f57806312065fe0146101b45780631f5d2641146101d0578063338b5dea146101fc5780633b174f0f1461021d5780633ef738561461023c575b5f80fd5b34801561018a575f80fd5b5061019e610199366004613ddd565b6104ef565b6040516101ab9190613e05565b60405180910390f35b3480156101bf575f80fd5b50475b6040519081526020016101ab565b3480156101db575f80fd5b506101ef6101ea366004613e7f565b610642565b6040516101ab9190613f17565b348015610207575f80fd5b5061021b610216366004613ddd565b610653565b005b348015610228575f80fd5b506101c2610237366004613fe1565b610662565b348015610247575f80fd5b5061019e610256366004613ddd565b6106a5565b348015610266575f80fd5b5061021b610275366004614082565b610730565b348015610285575f80fd5b5061021b61029436600461411f565b610744565b3480156102a4575f80fd5b506101ef6102b336600461415e565b610761565b3480156102c3575f80fd5b5061021b6102d236600461415e565b610791565b61021b6102e536600461415e565b6108e6565b3480156102f5575f80fd5b5061019e610304366004613e7f565b610978565b348015610314575f80fd5b5061021b61032336600461415e565b610a46565b348015610333575f80fd5b5061021b61034236600461415e565b610ab0565b348015610352575f80fd5b505f54610365906001600160a01b031681565b6040516001600160a01b0390911681526020016101ab565b348015610388575f80fd5b5061021b610b4c565b34801561039c575f80fd5b5061021b6103ab366004614177565b610dd3565b3480156103bb575f80fd5b5061021b6103ca366004613ddd565b610de3565b3480156103da575f80fd5b506101c260055481565b3480156103ef575f80fd5b506104036103fe366004613e7f565b61100d565b604080516001600160a01b039a8b1681529990981660208a0152951515968801969096526060870193909352608086019190915260a085015260c084015260e0830191909152610100820152610120016101ab565b348015610463575f80fd5b5061021b610472366004613fe1565b611079565b61021b61048536600461415e565b611257565b348015610495575f80fd5b50600c546101c2565b3480156104a9575f80fd5b5061021b6104b8366004613ddd565b6112be565b3480156104c8575f80fd5b5061021b6104d736600461415e565b611358565b61021b6104ea36600461415e565b6113c0565b6104f7613d02565b6001600160a01b0383165f908152600b602090815260408083208054825181850281018501909352808352919290919083018282801561055457602002820191905f5260205f20905b815481526020019060010190808311610540575b505050505090508051831061057c57604051635dcaf2d760e01b815260040160405180910390fd5b5f81848151811061058f5761058f6141b0565b60200260200101519050600781815481106105ac576105ac6141b0565b5f918252602091829020604080516101208101825260089390930290910180546001600160a01b039081168452600182015490811694840194909452600160a01b90930460ff161515908201526002820154606082015260038201546080820152600482015460a0820152600582015460c0820152600682015460e0820152600790910154610100820152925050505b92915050565b61064a613d59565b61063c826113ef565b61065e8233836116f2565b5050565b5f811561068757506001600160a01b0382165f9081526001602052604090205461063c565b506001600160a01b0382165f9081526002602052604090205461063c565b6106ad613d02565b6001600160a01b0383165f908152600a602090815260408083208054825181850281018501909352808352919290919083018282801561055457602002820191905f5260205f209081548152602001906001019080831161054057505050505090508051831061057c57604051635dcaf2d760e01b815260040160405180910390fd5b61073e845f85855f86611726565b50505050565b61073e84600184848760405180602001604052805f815250611726565b610769613d59565b6001600160a01b0382165f9081526009602052604090205461078a816113ef565b9392505050565b6001600160a01b0381165f908152600a6020526040812090808080426107b5613d02565b865494505b5f851180156107c95750606483105b156108dc576107d96001866141d8565b93508684815481106107ed576107ed6141b0565b905f5260205f20015495506007868154811061080b5761080b6141b0565b5f918252602091829020604080516101208101825260089390930290910180546001600160a01b039081168452600182015490811694840194909452600160a01b90930460ff1615159082015260028201546060820181905260038301546080830152600483015460a0830152600583015460c0830152600683015460e083015260079092015461010082015291506028906108a790846141d8565b11156108ca576108b7818761182a565b156108ca57826108c6816141eb565b9350505b846108d481614203565b9550506107ba565b5050505050505050565b345f80806108f485856118ea565b925090508061091657604051632050d62b60e01b815260040160405180910390fd5b6001600160a01b0385165f908152600160205260408120805486929061093d908490614218565b90915550506007805483908110610956576109566141b0565b905f5260205f2090600802019250610971835f848789611a44565b5050505050565b610980613d02565b60075482106109a257604051635dcaf2d760e01b815260040160405180910390fd5b600782815481106109b5576109b56141b0565b5f918252602091829020604080516101208101825260089390930290910180546001600160a01b039081168452600182015490811694840194909452600160a01b90930460ff161515908201526002820154606082015260038201546080820152600482015460a0820152600582015460c0820152600682015460e082015260079091015461010082015292915050565b610a4e611d57565b600e80546001600160a01b0319166001600160a01b038316179055610a71611d85565b6040516001600160a01b03821681527f15b49408719c001f91d2ec31b653d0929170f69ff422ef39920e9c280910115e9060200160405180910390a150565b5f610aba82611e3d565b6101408101516040516370a0823160e01b81523060048201529192505f916001600160a01b03909116906370a0823190602401602060405180830381865afa158015610b08573d5f803e3d5ffd5b505050506040513d601f19601f82011682018060405250810190610b2c919061422b565b6001600160a01b039093165f908152600260205260409020929092555050565b335f908152600b6020526040812080549091901515908082610b6f576064610b72565b60325b90505f42610b7e613d02565b600754610b8e5750505050505050565b5f808715610cc857885491505b5f82118015610baa5750858711155b15610cbd57610bba6001836141d8565b9050888181548110610bce57610bce6141b0565b905f5260205f200154945060078581548110610bec57610bec6141b0565b5f918252602091829020604080516101208101825260089390930290910180546001600160a01b039081168452600182015490811694840194909452600160a01b90930460ff1615159082015260028201546060820181905260038301546080830152600483015460a0830152600583015460c0830152600683015460e08301526007909201546101008201529350602890610c8890866141d8565b1115610cab57610c98838661182a565b15610cab5786610ca7816141eb565b9750505b81610cb581614203565b925050610b9b565b505050505050505050565b60075491505b5f82118015610cdd5750858711155b15610cbd57610ced6001836141d8565b905060078181548110610d0257610d026141b0565b5f918252602091829020604080516101208101825260089390930290910180546001600160a01b039081168452600182015490811694840194909452600160a01b90930460ff1615159082015260028201546060820181905260038301546080830152600483015460a0830152600583015460c0830152600683015460e08301526007909201546101008201529350602890610d9e90866141d8565b1115610dc157610dae838261182a565b15610dc15786610dbd816141eb565b9750505b81610dcb81614203565b925050610cce565b610dde8383836116f2565b505050565b5f8111610e03576040516342257ced60e11b815260040160405180910390fd5b5f610e0d836120dc565b9050610fe581604051806101600160405290815f82018054610e2e90614242565b80601f0160208091040260200160405190810160405280929190818152602001828054610e5a90614242565b8015610ea55780601f10610e7c57610100808354040283529160200191610ea5565b820191905f5260205f20905b815481529060010190602001808311610e8857829003601f168201915b50505050508152602001600182018054610ebe90614242565b80601f0160208091040260200160405190810160405280929190818152602001828054610eea90614242565b8015610f355780601f10610f0c57610100808354040283529160200191610f35565b820191905f5260205f20905b815481529060010190602001808311610f1857829003601f168201915b5050509183525050600282015460ff80821660208401526001600160a01b036101009092048216604084015260038401549182166060840152608090920191600160a01b909104166001811115610f8e57610f8e613ee3565b6001811115610f9f57610f9f613ee3565b8152600482015460208201526005820154604082015260068201546060820152600782015460808201526008909101546001600160a01b031660a0909101523384612151565b611002576040516379cacff160e01b815260040160405180910390fd5b610dde815f8461219f565b6008818154811061101c575f80fd5b5f918252602090912060089091020180546001820154600283015460038401546004850154600586015460068701546007909701546001600160a01b03968716985095851696600160a01b90950460ff1695939492939192909189565b5f61108383611e3d565b60608101516001600160a01b03165f908152600a602052604081208054929350918190819081805b5f831180156110ba5750606481105b1561124b57806110c9816141eb565b91506110d890506001846141d8565b91505f8783815481106110ed576110ed6141b0565b905f5260205f20015490506007818154811061110b5761110b6141b0565b905f5260205f20906008020196508961113b576001600160a01b038b165f90815260016020526040902054611154565b6001600160a01b038b165f908152600260205260409020545b94505f8511611163575061124b565b600187015460ff600160a01b9091041615158a1515146111835750611239565b891561119c5761119589888588612835565b95506111ab565b6111a8898885886129a4565b95505b856111b65750611239565b604080516101208101825288546001600160a01b03908116825260018a01549081166020830152600160a01b900460ff161515918101919091526002880154606082015260038801546080820152600488015460a0820152600588015460c0820152600688015460e082015260078801546101008201526112379082612ab1565b505b8261124381614203565b9350506110ab565b50505050505050505050565b3480611276576040516342257ced60e11b815260040160405180910390fd5b5f611280836120dc565b6001600160a01b0384165f908152600160205260408120805492935084929091906112ac908490614218565b90915550610dde90508160018461219f565b5f6112c883611e3d565b90505f805f6112d786866118ea565b92509050806112f957604051632050d62b60e01b815260040160405180910390fd5b611304843387612151565b611321576040516379cacff160e01b815260040160405180910390fd5b60078281548110611334576113346141b0565b905f5260205f209060080201925061135083600184888a611a44565b505050505050565b611360611d57565b5f80546001600160a01b038381166001600160a01b031983168117909355604080519190921680825260208201939093527f850b3df64837d7d518b45f5aa64d104652c3b80eb5b34a8e3d9eb666cb7cdea5910160405180910390a15050565b6001600160a01b0381165f90815260016020526040812080543492906113e7908490614218565b909155505050565b6113f7613d59565b811580611405575060065482115b15611423576040516362f850f760e11b815260040160405180910390fd5b5f60066114316001856141d8565b81548110611441576114416141b0565b905f5260205f209060090201604051806101600160405290815f8201805461146890614242565b80601f016020809104026020016040519081016040528092919081815260200182805461149490614242565b80156114df5780601f106114b6576101008083540402835291602001916114df565b820191905f5260205f20905b8154815290600101906020018083116114c257829003601f168201915b505050505081526020016001820180546114f890614242565b80601f016020809104026020016040519081016040528092919081815260200182805461152490614242565b801561156f5780601f106115465761010080835404028352916020019161156f565b820191905f5260205f20905b81548152906001019060200180831161155257829003601f168201915b5050509183525050600282015460ff80821660208401526001600160a01b036101009092048216604084015260038401549182166060840152608090920191600160a01b9091041660018111156115c8576115c8613ee3565b60018111156115d9576115d9613ee3565b815260200160048201548152602001600582015481526020016006820154815260200160078201548152602001600882015f9054906101000a90046001600160a01b03166001600160a01b03166001600160a01b03168152505090505f600a5f83606001516001600160a01b03166001600160a01b031681526020019081526020015f20805490509050604051806101400160405280858152602001835f015181526020018360200151815260200183606001516001600160a01b0316815260200183608001516001600160a01b031681526020018360c0015181526020018360e0015181526020018360a0015160018111156116d8576116d8613ee3565b815261010090930151602084015260409092015292915050565b5f6116fc84611e3d565b9050611709818484612c52565b61073e576040516379cacff160e01b815260040160405180910390fd5b60065415801561175e575f546001600160a01b0316331461175a5760405163564b352960e11b815260040160405180910390fd5b5f95505b6001600160a01b0387165f9081526009602052604090205487908015801590611788575060065415155b156117b6576040516315ef3a5760e01b81526001600160a01b03831660048201526024015b60405180910390fd5b600654620f4240116117db576040516353bb24f960e01b815260040160405180910390fd5b5f808960018111156117ef576117ef613ee3565b0361181457836118095761180285612d12565b9050611814565b50670de0b6b3a76400005b61181c612d47565b61124b83828b898c8c612fc3565b5f806118398460200151611e3d565b90508360400151156118695761185781855f01518660a00151613409565b611864575f91505061063c565b611888565b61187b81855f01518660a001516134b8565b611888575f91505061063c565b6118928484612ab1565b6040848101518551825186815291151560208301526001600160a01b03168183015290517f3d8da260c5e35dcba4a38c844b979a7c70c6fdbed58be53da6e817ef6a2541e09181900360600190a15060019392505050565b5f806118f4613d02565b6001600160a01b0385165f908152600a602052604081208054909190815b5f8211801561191f575082155b15611a365761192f6001836141d8565b90505f848281548110611944576119446141b0565b905f5260205f200154905060078181548110611962576119626141b0565b5f918252602091829020604080516101208101825260089390930290910180546001600160a01b039081168452600182015490811694840194909452600160a01b90930460ff161515908201526002820154606082015260038201546080820152600482015460a0820152600582015460c08201819052600683015460e08301526007909201546101008201529650899003611a045760019350809650611a23565b83158015611a165750888660c0015110155b15611a2357600193508096505b5081611a2e81614203565b925050611912565b509094505050509250929050565b5f611a4e82611e3d565b905060078481548110611a6357611a636141b0565b5f91825260209091206008909102016004810154600582015482546040850151939950919290918683148015926001600160a01b0390921691600191899190611af7578b15611ad9575f611ab787836135f0565b90505f611ac48c846135f0565b9050611ad0818361361b565b94505050611ae6565b611ae38a8761361b565b92505b611af48d6004015484613626565b96505b611bc18d604051806101200160405290815f82015f9054906101000a90046001600160a01b03166001600160a01b03166001600160a01b03168152602001600182015f9054906101000a90046001600160a01b03166001600160a01b03166001600160a01b031681526020016001820160149054906101000a900460ff16151515158152602001600282015481526020016003820154815260200160048201548152602001600582015481526020016006820154815260200160078201548152505089848a613631565b5f8c611bcd5787611bcf565b825b90508515611c0f578a8e6005015f828254611bea91906141d8565b92505081905550878e6004015f828254611c0491906141d8565b90915550611cd79050565b611cd78e604051806101200160405290815f82015f9054906101000a90046001600160a01b03166001600160a01b03166001600160a01b03168152602001600182015f9054906101000a90046001600160a01b03166001600160a01b03166001600160a01b031681526020016001820160149054906101000a900460ff1615151515815260200160028201548152602001600382015481526020016004820154815260200160058201548152602001600682015481526020016007820154815250508d612ab1565b611ce189826136ac565b604080518d81528e151560208201526001600160a01b03878116828401523360608301528c16608082015260a0810185905287151560c082015290517fd18715c1e0d5b06959a9b12a3c5d857ce3698a58f6ac5bc7726bd7df86476f409181900360e00190a15050505050505050505050505050565b5f546001600160a01b03163314611d83576040516332b2baa360e01b81523360048201526024016117ad565b565b600d5415801590611da3575060f0600d5442611da191906141d8565b105b15611daa57565b600e5460408051634c6afee560e11b815290515f926001600160a01b0316916398d5fdca91600480830192869291908290030181865afa158015611df0573d5f803e3d5ffd5b505050506040513d5f823e601f3d908101601f19168201604052611e17919081019061427a565b90505f80611e248361373b565b915091508015611e3457600c8290555b505042600d5550565b611e9d60408051610160810182526060808252602082018190525f9282018390528101829052608081018290529060a082019081526020015f81526020015f81526020015f81526020015f81526020015f6001600160a01b031681525090565b6001600160a01b0382165f90815260096020526040902054801580611ec3575060065481115b15611ee1576040516362f850f760e11b815260040160405180910390fd5b6006611eee6001836141d8565b81548110611efe57611efe6141b0565b905f5260205f209060090201604051806101600160405290815f82018054611f2590614242565b80601f0160208091040260200160405190810160405280929190818152602001828054611f5190614242565b8015611f9c5780601f10611f7357610100808354040283529160200191611f9c565b820191905f5260205f20905b815481529060010190602001808311611f7f57829003601f168201915b50505050508152602001600182018054611fb590614242565b80601f0160208091040260200160405190810160405280929190818152602001828054611fe190614242565b801561202c5780601f106120035761010080835404028352916020019161202c565b820191905f5260205f20905b81548152906001019060200180831161200f57829003601f168201915b5050509183525050600282015460ff80821660208401526001600160a01b036101009092048216604084015260038401549182166060840152608090920191600160a01b90910416600181111561208557612085613ee3565b600181111561209657612096613ee3565b8152600482015460208201526005820154604082015260068201546060820152600782015460808201526008909101546001600160a01b031660a0909101529392505050565b6001600160a01b0381165f90815260096020526040812054801580612102575060065481115b15612120576040516362f850f760e11b815260040160405180910390fd5b600661212d6001836141d8565b8154811061213d5761213d6141b0565b905f5260205f209060090201915050919050565b5f8061215e858585612c52565b905080156121975760608501516001600160a01b03165f9081526003602052604081208054859290612191908490614218565b90915550505b949350505050565b5f806003850154600160a01b900460ff1660018111156121c1576121c1613ee3565b036121e5576121ce611d85565b6121de600c54856006015461361b565b905061256d565b60016003850154600160a01b900460ff16600181111561220757612207613ee3565b0361256d575f84600701545f148061222f575060f085600701544261222c91906141d8565b10155b90508015612563575f60065f8154811061224b5761224b6141b0565b905f5260205f209060090201604051806101600160405290815f8201805461227290614242565b80601f016020809104026020016040519081016040528092919081815260200182805461229e90614242565b80156122e95780601f106122c0576101008083540402835291602001916122e9565b820191905f5260205f20905b8154815290600101906020018083116122cc57829003601f168201915b5050505050815260200160018201805461230290614242565b80601f016020809104026020016040519081016040528092919081815260200182805461232e90614242565b80156123795780601f1061235057610100808354040283529160200191612379565b820191905f5260205f20905b81548152906001019060200180831161235c57829003601f168201915b5050509183525050600282015460ff80821660208401526001600160a01b036101009092048216604084015260038401549182166060840152608090920191600160a01b9091041660018111156123d2576123d2613ee3565b60018111156123e3576123e3613ee3565b81526004828101546020830152600583015460408084019190915260068401546060840152600784015460808401526008938401546001600160a01b0390811660a090940193909352928a015461014085015160038c015494516370a0823160e01b815294841692850192909252939450921691905f9083906370a0823190602401602060405180830381865afa158015612480573d5f803e3d5ffd5b505050506040513d601f19601f820116820180604052508101906124a4919061422b565b60038a01546040516370a0823160e01b81526001600160a01b0391821660048201529192505f91908416906370a0823190602401602060405180830381865afa1580156124f3573d5f803e3d5ffd5b505050506040513d601f19601f82011682018060405250810190612517919061422b565b60028b015490915061252d90839060ff166135f0565b915061253d8186604001516135f0565b9050612549818361361b565b60068b018190554260078c0155965061256b945050505050565b846006015491505b505b5f83156125955761258e6125818484613626565b600287015460ff1661386c565b90506125b5565b60028501546125b2906125ac90859060ff166135f0565b8361361b565b90505b600285015461010090046001600160a01b03165f908152600a60209081526040808320338452600b90925290912081546127101161260657604051630e4998af60e11b815260040160405180910390fd5b5f60078054905090505f604051806101200160405280336001600160a01b031681526020018a60020160019054906101000a90046001600160a01b03166001600160a01b0316815260200189151581526020014281526020018781526020018881526020018681526020018580549050815260200184805490508152509050600781908060018154018082558091505060019003905f5260205f2090600802015f909190919091505f820151815f015f6101000a8154816001600160a01b0302191690836001600160a01b031602179055506020820151816001015f6101000a8154816001600160a01b0302191690836001600160a01b0316021790555060408201518160010160146101000a81548160ff021916908315150217905550606082015181600201556080820151816003015560a0820151816004015560c0820151816005015560e08201518160060155610100820151816007015550508382908060018154018082558091505060019003905f5260205f20015f90919091909150558282908060018154018082558091505060019003905f5260205f20015f90919091909150557f96d694e92c01c8197b4cf2ecb0ec03be940cc6e384cbdfb2afb329375a0be25282898b60020160019054906101000a90046001600160a01b03168a8a60405161282295949392919094855292151560208501526001600160a01b039190911660408401526060830152608082015260a00190565b60405180910390a1505050505050505050565b5f805f80866005015485109050801561285057849150612858565b866005015491505b60608801516001600160a01b03165f9081526003602052604090205482116128985786546128919089906001600160a01b0316846134b8565b92506128b2565b86546128af9089906001600160a01b03168461388b565b92505b826128c2575f9350505050612197565b8015612934575f6128f16128da848b604001516135f0565b6128ec8a600501548c604001516135f0565b61361b565b9050612901886004015482613626565b886004015f82825461291391906141d8565b9250508190555082886005015f82825461292d91906141d8565b9091555050505b6001870154875460408051898152600160a01b90930460ff16151560208401526001600160a01b039091169082015281151560608201527fbdb78cc9b5d01bdac074df120cc9776d231060cdcdcc8c7f6c2039f67a5e626f9060800160405180910390a115979650505050505050565b60058301545f908190831080156129bd578391506129c5565b856005015491505b85546129dc9088906001600160a01b031684613409565b6129ea575f92505050612197565b8015612a42575f6129ff83886005015461361b565b9050612a0f876004015482613626565b876004015f828254612a2191906141d8565b9250508190555082876005015f828254612a3b91906141d8565b9091555050505b6001860154865460408051888152600160a01b90930460ff16151560208401526001600160a01b039091169082015281151560608201527fbdb78cc9b5d01bdac074df120cc9776d231060cdcdcc8c7f6c2039f67a5e626f9060800160405180910390a1159695505050505050565b61010082015160e083015183516001600160a01b039081165f908152600b60209081526040808320828901519094168352600a909152812090612af48386613938565b15612b3e576007838681548110612b0d57612b0d6141b0565b905f5260205f20015481548110612b2657612b266141b0565b905f5260205f20906008020190508481600701819055505b612b488285613938565b15612b92576007828581548110612b6157612b616141b0565b905f5260205f20015481548110612b7a57612b7a6141b0565b905f5260205f20906008020190508381600601819055505b612b9d6007876139bc565b15612c495760078681548110612bb557612bb56141b0565b5f9182526020808320600760089093020191820154600683015483546001600160a01b039081168652600b8452604080872060018701549092168752600a90945292909420825491995093975090955091935091508690849087908110612c1e57612c1e6141b0565b905f5260205f20018190555085828581548110612c3d57612c3d6141b0565b5f918252602090912001555b50505050505050565b6101408301516040516323b872dd60e01b81526001600160a01b038481166004830152306024830152604482018490525f9216906323b872dd906064016020604051808303815f875af1925050508015612cc9575060408051601f3d908101601f19168201909252612cc6918101906142ec565b60015b612cd457505f61078a565b8015612d0b5760608501516001600160a01b03165f9081526002602052604081208054859290612d05908490614218565b90915550505b905061078a565b5f805f612d1e8461373b565b9150915080612d405760405163e6f7d2c760e01b815260040160405180910390fd5b5092915050565b6006545f03612d5257565b612f4860065f81548110612d6857612d686141b0565b905f5260205f209060090201604051806101600160405290815f82018054612d8f90614242565b80601f0160208091040260200160405190810160405280929190818152602001828054612dbb90614242565b8015612e065780601f10612ddd57610100808354040283529160200191612e06565b820191905f5260205f20905b815481529060010190602001808311612de957829003601f168201915b50505050508152602001600182018054612e1f90614242565b80601f0160208091040260200160405190810160405280929190818152602001828054612e4b90614242565b8015612e965780601f10612e6d57610100808354040283529160200191612e96565b820191905f5260205f20905b815481529060010190602001808311612e7957829003601f168201915b5050509183525050600282015460ff80821660208401526001600160a01b036101009092048216604084015260038401549182166060840152608090920191600160a01b909104166001811115612eef57612eef613ee3565b6001811115612f0057612f00613ee3565b815260048201546020820152600580830154604083015260068301546060830152600783015460808301526008909201546001600160a01b031660a090910152543390612c52565b612f6b57600554604051636508a50160e11b81526004016117ad91815260200190565b620f424060055414611d83575f6103e860058054612f899190614307565b612f939190614332565b90508060055f828254612fa69190614218565b9091555050600554620f42401015612fc057620f42406005555b50565b6040516370a0823160e01b8152306004820152869060609081905f9081906001600160a01b038616906370a0823190602401602060405180830381865afa92505050801561302e575060408051601f3d908101601f1916820190925261302b9181019061422b565b60015b61304b57604051630a6f7ecd60e21b815260040160405180910390fd5b809250856001600160a01b031663313ce5676040518163ffffffff1660e01b8152600401602060405180830381865afa9250505080156130a8575060408051601f3d908101601f191682019092526130a591810190614351565b60015b6130b557601291506130b8565b91505b601260ff831611156130dd5760405163432c0a5d60e01b815260040160405180910390fd5b856001600160a01b03166306fdde036040518163ffffffff1660e01b81526004015f60405180830381865afa92505050801561313a57506040513d5f823e601f3d908101601f19168201604052613137919081019061427a565b60015b156131425794505b856001600160a01b03166395d89b416040518163ffffffff1660e01b81526004015f60405180830381865afa92505050801561319f57506040513d5f823e601f3d908101601f1916820160405261319c919081019061427a565b60015b156131a75793505b505f6040518061016001604052808681526020018581526020018360ff1681526020018d6001600160a01b031681526020018a6001600160a01b031681526020018b60018111156131fa576131fa613ee3565b8152602081018a905260408101899052606081018d90525f608082018190526001600160a01b03891660a0909201919091526006805460018101825591528151919250829160099091027ff652222313e28459528d920b65115c16c04f3efc82aaedc97be59f3f377c0d3f0190819061327390826143b5565b506020820151600182019061328890826143b5565b506040820151600282018054606085015160ff9093166001600160a81b0319918216176101006001600160a01b03948516021790915560808401516003840180546001600160a01b0319811692909416918217815560a08601519390921617600160a01b8360018111156132fe576132fe613ee3565b021790555060c0820151600482015560e08201516005820155610100820151600680830191909155610120830151600783015561014090920151600890910180546001600160a01b0319166001600160a01b03928316179055905460608301805183165f908152600960209081526040808320949094559151909316835260028152918190208590559082015190516133979190614471565b604051908190038120825190916133ae9190614471565b60405190819003812060a0840151606085015160065492937f2b9a73ecc76ebad22366f66b2436a1725cc4f39aa579663fc941863779316b1b936133f393929161448c565b60405180910390a3505050505050505050505050565b6040515f906001600160a01b0384169083156108fc0290849084818181858888f19350505050156134af57604080518381526001600160a01b03851660208201527f0897f9f8697c0fee5acfc2c885618e98d4f0882e71e35d182faccc1915c01ecb910160405180910390a160608401516001600160a01b03165f90815260016020526040812080548492906134a09084906141d8565b909155506001915061078a9050565b505f9392505050565b61014083015160405163a9059cbb60e01b81526001600160a01b038481166004830152602482018490525f92169063a9059cbb906044016020604051808303815f875af1925050508015613529575060408051601f3d908101601f19168201909252613526918101906142ec565b60015b61353457505f61078a565b8015612d0b5760608501516001600160a01b03165f90815260026020526040812080548592906135659084906141d8565b909155505060608501516001600160a01b03165f90815260036020526040812080548592906135959084906141d8565b9091555050606085810151604080518681526001600160a01b038089166020830152909216908201527fa84f763be5bb36163517fb87c7af39f875a97866fdf7806eb1b3eac837ae35ea910160405180910390a1905061078a565b5f8160ff166001146136145761360582613b20565b61360f9084614307565b61078a565b5090919050565b5f61078a8383613b62565b5f61078a8383613b76565b5f805f808760400151156136505750508551839250849150339061365c565b50508551849250839150335b6136678782856134b8565b613684576040516304de4e1d60e41b815260040160405180910390fd5b61368f878386613409565b6108dc576040516304de4e1d60e41b815260040160405180910390fd5b60c08201515f81158015906136c557508360e001518310155b9050801561073e576060840180516001600160a01b039081165f908152600360209081526040808320549451909316825260029052908120549091613709916141d8565b9050828111156109715761371e85338561388b565b6109715760405163c96d18b560e01b815260040160405180910390fd5b5f8080808481808080805b855181108015613754575083155b156138415785818151811061376b5761376b6141b0565b016020015160f81c94506030851080159061378a575060398560ff1611155b156137f95786975082156137aa57816137a2816144b4565b9250506137b8565b6137b5600a88614307565b96505b6137c382600a6145af565b6137ce6030876145bd565b60ff166137db9190614307565b6137e59088614218565b9650868811156137f457600193505b61382f565b8460ff16602e0361382f57821561380f57600193505b600192506012915061382282600a6145af565b61382c9088614307565b96505b80613839816141eb565b915050613746565b508161385c57613859670de0b6b3a764000087614307565b95505b5093989015975095505050505050565b5f8160ff166001146136145761388182613b20565b61360f9084614332565b61014083015160405163a9059cbb60e01b81526001600160a01b038481166004830152602482018490525f92169063a9059cbb906044016020604051808303815f875af19250505080156138fc575060408051601f3d908101601f191682019092526138f9918101906142ec565b60015b61390757505f61078a565b8015612d0b5760608501516001600160a01b03165f90815260026020526040812080548592906135959084906141d8565b81545f90819061394a906001906141d8565b90508281148061398d57848281548110613966576139666141b0565b905f5260205f200154858581548110613981576139816141b0565b5f918252602090912001555b8480548061399d5761399d6145d6565b600190038181905f5260205f20015f9055905580159250505092915050565b81545f9081906139ce906001906141d8565b905082811480613aaa578482815481106139ea576139ea6141b0565b905f5260205f209060080201858581548110613a0857613a086141b0565b5f9182526020909120825460089092020180546001600160a01b03199081166001600160a01b039384161782556001808501805491840180549384169290951691821785555460ff600160a01b91829004161515026001600160a81b0319909216171790915560028083015490820155600380830154908201556004808301549082015560058083015490820155600680830154908201556007918201549101555b84805480613aba57613aba6145d6565b5f8281526020812060085f199093019283020180546001600160a01b03191681556001810180546001600160a81b031916905560028101829055600381018290556004810182905560058101829055600681018290556007015590551591505092915050565b60ff81165f9081526004602052604081205490819003613b5d575060ff8181165f9081526004602052604090206012839003909116600a0a908190555b919050565b5f61078a83670de0b6b3a764000084613b81565b5f61078a8383613c50565b5f80805f19858709858702925082811083820303915050805f03613bb857838281613bae57613bae61431e565b049250505061078a565b838110613be95760405163362ced0960e11b81526004810187905260248101869052604481018590526064016117ad565b5f8486880960026001871981018816978890046003810283188082028403028082028403028082028403028082028403028082028403029081029092039091025f889003889004909101858311909403939093029303949094049190911702949350505050565b5f80805f19848609848602925082811083820303915050805f03613c815750670de0b6b3a76400009004905061063c565b670de0b6b3a76400008110613cb3576040516369e06faf60e11b815260048101869052602481018590526044016117ad565b5f670de0b6b3a764000085870962040000818503049310909103600160ee1b02919091177faccb18165bd6fe31ae1cf318dc5b51eee0e1ba569b88cd74c1773b91fac106690291505092915050565b6040518061012001604052805f6001600160a01b031681526020015f6001600160a01b031681526020015f151581526020015f81526020015f81526020015f81526020015f81526020015f81526020015f81525090565b6040518061014001604052805f815260200160608152602001606081526020015f6001600160a01b031681526020015f6001600160a01b031681526020015f81526020015f81526020015f6001811115613db557613db5613ee3565b81526020015f81526020015f81525090565b80356001600160a01b0381168114613b5d575f80fd5b5f8060408385031215613dee575f80fd5b613df783613dc7565b946020939093013593505050565b81516001600160a01b03908116825260208084015190911690820152604080830151610120830191613e3a9084018215159052565b50606083015160608301526080830151608083015260a083015160a083015260c083015160c083015260e083015160e083015261010080840151818401525092915050565b5f60208284031215613e8f575f80fd5b5035919050565b5f5b83811015613eb0578181015183820152602001613e98565b50505f910152565b5f8151808452613ecf816020860160208601613e96565b601f01601f19169290920160200192915050565b634e487b7160e01b5f52602160045260245ffd5b60028110613f1357634e487b7160e01b5f52602160045260245ffd5b9052565b60208152815160208201525f6020830151610140806040850152613f3f610160850183613eb8565b91506040850151601f19858403016060860152613f5c8382613eb8565b9250506060850151613f7960808601826001600160a01b03169052565b5060808501516001600160a01b03811660a08601525060a085015160c085015260c085015160e085015260e0850151610100613fb781870183613ef7565b860151610120868101919091529095015193019290925250919050565b8015158114612fc0575f80fd5b5f8060408385031215613ff2575f80fd5b613ffb83613dc7565b9150602083013561400b81613fd4565b809150509250929050565b634e487b7160e01b5f52604160045260245ffd5b604051601f8201601f1916810167ffffffffffffffff8111828210171561405357614053614016565b604052919050565b5f67ffffffffffffffff82111561407457614074614016565b50601f01601f191660200190565b5f805f8060808587031215614095575f80fd5b61409e85613dc7565b93506020850135925060408501359150606085013567ffffffffffffffff8111156140c7575f80fd5b8501601f810187136140d7575f80fd5b80356140ea6140e58261405b565b61402a565b8181528860208385010111156140fe575f80fd5b816020840160208301375f6020838301015280935050505092959194509250565b5f805f8060808587031215614132575f80fd5b61413b85613dc7565b935061414960208601613dc7565b93969395505050506040820135916060013590565b5f6020828403121561416e575f80fd5b61078a82613dc7565b5f805f60608486031215614189575f80fd5b61419284613dc7565b92506141a060208501613dc7565b9150604084013590509250925092565b634e487b7160e01b5f52603260045260245ffd5b634e487b7160e01b5f52601160045260245ffd5b8181038181111561063c5761063c6141c4565b5f600182016141fc576141fc6141c4565b5060010190565b5f81614211576142116141c4565b505f190190565b8082018082111561063c5761063c6141c4565b5f6020828403121561423b575f80fd5b5051919050565b600181811c9082168061425657607f821691505b60208210810361427457634e487b7160e01b5f52602260045260245ffd5b50919050565b5f6020828403121561428a575f80fd5b815167ffffffffffffffff8111156142a0575f80fd5b8201601f810184136142b0575f80fd5b80516142be6140e58261405b565b8181528560208385010111156142d2575f80fd5b6142e3826020830160208601613e96565b95945050505050565b5f602082840312156142fc575f80fd5b815161078a81613fd4565b808202811582820484141761063c5761063c6141c4565b634e487b7160e01b5f52601260045260245ffd5b5f8261434c57634e487b7160e01b5f52601260045260245ffd5b500490565b5f60208284031215614361575f80fd5b815160ff8116811461078a575f80fd5b601f821115610dde57805f5260205f20601f840160051c810160208510156143965750805b601f840160051c820191505b81811015610971575f81556001016143a2565b815167ffffffffffffffff8111156143cf576143cf614016565b6143e3816143dd8454614242565b84614371565b602080601f831160018114614416575f84156143ff5750858301515b5f19600386901b1c1916600185901b178555611350565b5f85815260208120601f198616915b8281101561444457888601518255948401946001909101908401614425565b508582101561446157878501515f19600388901b60f8161c191681555b5050505050600190811b01905550565b5f8251614482818460208701613e96565b9190910192915050565b6060810161449a8286613ef7565b6001600160a01b0393909316602082015260400152919050565b5f60ff8216806144c6576144c66141c4565b5f190192915050565b600181815b8085111561450957815f19048211156144ef576144ef6141c4565b808516156144fc57918102915b93841c93908002906144d4565b509250929050565b5f8261451f5750600161063c565b8161452b57505f61063c565b8160018114614541576002811461454b57614567565b600191505061063c565b60ff84111561455c5761455c6141c4565b50506001821b61063c565b5060208310610133831016604e8410600b841016171561458a575081810a61063c565b61459483836144cf565b805f19048211156145a7576145a76141c4565b029392505050565b5f61078a60ff841683614511565b60ff828116828216039081111561063c5761063c6141c4565b634e487b7160e01b5f52603160045260245ffdfea264697066735822122006afd4e810153333734cb2a48b73a073859c1e5a39d857652cf88deaf7edc73f64736f6c63430008160033",
			"opcodes": "PUSH1 0x80 PUSH1 0x40 MSTORE PUSH2 0x3E8 PUSH1 0x5 SSTORE PUSH1 0x7 DUP1 SLOAD PUSH3 0x1C SWAP2 PUSH1 0x8 SWAP2 PUSH3 0x41 JUMP JUMPDEST POP CALLVALUE DUP1 ISZERO PUSH3 0x29 JUMPI PUSH0 DUP1 REVERT JUMPDEST POP PUSH0 DUP1 SLOAD PUSH1 0x1 PUSH1 0x1 PUSH1 0xA0 SHL SUB NOT AND CALLER OR SWAP1 SSTORE PUSH3 0x182 JUMP JUMPDEST DUP3 DUP1 SLOAD DUP3 DUP3 SSTORE SWAP1 PUSH0 MSTORE PUSH1 0x20 PUSH0 KECCAK256 SWAP1 PUSH1 0x8 MUL DUP2 ADD SWAP3 DUP3 ISZERO PUSH3 0x114 JUMPI PUSH0 MSTORE PUSH1 0x20 PUSH0 KECCAK256 SWAP2 PUSH1 0x8 MUL DUP3 ADD JUMPDEST DUP3 DUP2 GT ISZERO PUSH3 0x114 JUMPI DUP3 SLOAD DUP3 SLOAD PUSH1 0x1 PUSH1 0x1 PUSH1 0xA0 SHL SUB NOT SWAP1 DUP2 AND PUSH1 0x1 PUSH1 0x1 PUSH1 0xA0 SHL SUB SWAP3 DUP4 AND OR DUP5 SSTORE PUSH1 0x1 DUP1 DUP7 ADD DUP1 SLOAD SWAP2 DUP7 ADD DUP1 SLOAD SWAP4 DUP5 AND SWAP3 SWAP1 SWAP5 AND SWAP2 DUP3 OR DUP5 SSTORE SLOAD PUSH1 0xFF PUSH1 0x1 PUSH1 0xA0 SHL SWAP2 DUP3 SWAP1 DIV AND ISZERO ISZERO MUL PUSH1 0x1 PUSH1 0x1 PUSH1 0xA8 SHL SUB NOT SWAP1 SWAP3 AND OR OR SWAP1 SSTORE PUSH1 0x2 DUP1 DUP5 ADD SLOAD SWAP1 DUP4 ADD SSTORE PUSH1 0x3 DUP1 DUP5 ADD SLOAD SWAP1 DUP4 ADD SSTORE PUSH1 0x4 DUP1 DUP5 ADD SLOAD SWAP1 DUP4 ADD SSTORE PUSH1 0x5 DUP1 DUP5 ADD SLOAD SWAP1 DUP4 ADD SSTORE PUSH1 0x6 DUP1 DUP5 ADD SLOAD SWAP1 DUP4 ADD SSTORE PUSH1 0x7 DUP1 DUP5 ADD SLOAD SWAP1 DUP4 ADD SSTORE PUSH1 0x8 SWAP3 DUP4 ADD SWAP3 SWAP1 SWAP2 ADD SWAP1 PUSH3 0x69 JUMP JUMPDEST POP PUSH3 0x122 SWAP3 SWAP2 POP PUSH3 0x126 JUMP JUMPDEST POP SWAP1 JUMP JUMPDEST JUMPDEST DUP1 DUP3 GT ISZERO PUSH3 0x122 JUMPI DUP1 SLOAD PUSH1 0x1 PUSH1 0x1 PUSH1 0xA0 SHL SUB NOT AND DUP2 SSTORE PUSH1 0x1 DUP2 ADD DUP1 SLOAD PUSH1 0x1 PUSH1 0x1 PUSH1 0xA8 SHL SUB NOT AND SWAP1 SSTORE PUSH0 PUSH1 0x2 DUP3 ADD DUP2 SWAP1 SSTORE PUSH1 0x3 DUP3 ADD DUP2 SWAP1 SSTORE PUSH1 0x4 DUP3 ADD DUP2 SWAP1 SSTORE PUSH1 0x5 DUP3 ADD DUP2 SWAP1 SSTORE PUSH1 0x6 DUP3 ADD DUP2 SWAP1 SSTORE PUSH1 0x7 DUP3 ADD SSTORE PUSH1 0x8 ADD PUSH3 0x127 JUMP JUMPDEST PUSH2 0x4620 DUP1 PUSH3 0x190 PUSH0 CODECOPY PUSH0 RETURN INVALID PUSH1 0x80 PUSH1 0x40 MSTORE PUSH1 0x4 CALLDATASIZE LT PUSH2 0x17B JUMPI PUSH0 CALLDATALOAD PUSH1 0xE0 SHR DUP1 PUSH4 0x87B337E8 GT PUSH2 0xCD JUMPI DUP1 PUSH4 0xA85C38EF GT PUSH2 0x87 JUMPI DUP1 PUSH4 0xD7DCDCEC GT PUSH2 0x62 JUMPI DUP1 PUSH4 0xD7DCDCEC EQ PUSH2 0x48A JUMPI DUP1 PUSH4 0xDB34A679 EQ PUSH2 0x49E JUMPI DUP1 PUSH4 0xF2FDE38B EQ PUSH2 0x4BD JUMPI DUP1 PUSH4 0xF340FA01 EQ PUSH2 0x4DC JUMPI PUSH0 DUP1 REVERT JUMPDEST DUP1 PUSH4 0xA85C38EF EQ PUSH2 0x3E4 JUMPI DUP1 PUSH4 0xC201E47C EQ PUSH2 0x458 JUMPI DUP1 PUSH4 0xD2980065 EQ PUSH2 0x477 JUMPI PUSH0 DUP1 REVERT JUMPDEST DUP1 PUSH4 0x87B337E8 EQ PUSH2 0x328 JUMPI DUP1 PUSH4 0x8DA5CB5B EQ PUSH2 0x347 JUMPI DUP1 PUSH4 0x9351769F EQ PUSH2 0x37D JUMPI DUP1 PUSH4 0xA08B5BBA EQ PUSH2 0x391 JUMPI DUP1 PUSH4 0xA262B73F EQ PUSH2 0x3B0 JUMPI DUP1 PUSH4 0xA5B6F92A EQ PUSH2 0x3CF JUMPI PUSH0 DUP1 REVERT JUMPDEST DUP1 PUSH4 0x4D9EA07D GT PUSH2 0x138 JUMPI DUP1 PUSH4 0x6AAFBDDD GT PUSH2 0x113 JUMPI DUP1 PUSH4 0x6AAFBDDD EQ PUSH2 0x2B8 JUMPI DUP1 PUSH4 0x6DAF6945 EQ PUSH2 0x2D7 JUMPI DUP1 PUSH4 0x7C38D663 EQ PUSH2 0x2EA JUMPI DUP1 PUSH4 0x86F179D2 EQ PUSH2 0x309 JUMPI PUSH0 DUP1 REVERT JUMPDEST DUP1 PUSH4 0x4D9EA07D EQ PUSH2 0x25B JUMPI DUP1 PUSH4 0x5264C8D9 EQ PUSH2 0x27A JUMPI DUP1 PUSH4 0x673CF82A EQ PUSH2 0x299 JUMPI PUSH0 DUP1 REVERT JUMPDEST DUP1 PUSH4 0x76D782E EQ PUSH2 0x17F JUMPI DUP1 PUSH4 0x12065FE0 EQ PUSH2 0x1B4 JUMPI DUP1 PUSH4 0x1F5D2641 EQ PUSH2 0x1D0 JUMPI DUP1 PUSH4 0x338B5DEA EQ PUSH2 0x1FC JUMPI DUP1 PUSH4 0x3B174F0F EQ PUSH2 0x21D JUMPI DUP1 PUSH4 0x3EF73856 EQ PUSH2 0x23C JUMPI JUMPDEST PUSH0 DUP1 REVERT JUMPDEST CALLVALUE DUP1 ISZERO PUSH2 0x18A JUMPI PUSH0 DUP1 REVERT JUMPDEST POP PUSH2 0x19E PUSH2 0x199 CALLDATASIZE PUSH1 0x4 PUSH2 0x3DDD JUMP JUMPDEST PUSH2 0x4EF JUMP JUMPDEST PUSH1 0x40 MLOAD PUSH2 0x1AB SWAP2 SWAP1 PUSH2 0x3E05 JUMP JUMPDEST PUSH1 0x40 MLOAD DUP1 SWAP2 SUB SWAP1 RETURN JUMPDEST CALLVALUE DUP1 ISZERO PUSH2 0x1BF JUMPI PUSH0 DUP1 REVERT JUMPDEST POP SELFBALANCE JUMPDEST PUSH1 0x40 MLOAD SWAP1 DUP2 MSTORE PUSH1 0x20 ADD PUSH2 0x1AB JUMP JUMPDEST CALLVALUE DUP1 ISZERO PUSH2 0x1DB JUMPI PUSH0 DUP1 REVERT JUMPDEST POP PUSH2 0x1EF PUSH2 0x1EA CALLDATASIZE PUSH1 0x4 PUSH2 0x3E7F JUMP JUMPDEST PUSH2 0x642 JUMP JUMPDEST PUSH1 0x40 MLOAD PUSH2 0x1AB SWAP2 SWAP1 PUSH2 0x3F17 JUMP JUMPDEST CALLVALUE DUP1 ISZERO PUSH2 0x207 JUMPI PUSH0 DUP1 REVERT JUMPDEST POP PUSH2 0x21B PUSH2 0x216 CALLDATASIZE PUSH1 0x4 PUSH2 0x3DDD JUMP JUMPDEST PUSH2 0x653 JUMP JUMPDEST STOP JUMPDEST CALLVALUE DUP1 ISZERO PUSH2 0x228 JUMPI PUSH0 DUP1 REVERT JUMPDEST POP PUSH2 0x1C2 PUSH2 0x237 CALLDATASIZE PUSH1 0x4 PUSH2 0x3FE1 JUMP JUMPDEST PUSH2 0x662 JUMP JUMPDEST CALLVALUE DUP1 ISZERO PUSH2 0x247 JUMPI PUSH0 DUP1 REVERT JUMPDEST POP PUSH2 0x19E PUSH2 0x256 CALLDATASIZE PUSH1 0x4 PUSH2 0x3DDD JUMP JUMPDEST PUSH2 0x6A5 JUMP JUMPDEST CALLVALUE DUP1 ISZERO PUSH2 0x266 JUMPI PUSH0 DUP1 REVERT JUMPDEST POP PUSH2 0x21B PUSH2 0x275 CALLDATASIZE PUSH1 0x4 PUSH2 0x4082 JUMP JUMPDEST PUSH2 0x730 JUMP JUMPDEST CALLVALUE DUP1 ISZERO PUSH2 0x285 JUMPI PUSH0 DUP1 REVERT JUMPDEST POP PUSH2 0x21B PUSH2 0x294 CALLDATASIZE PUSH1 0x4 PUSH2 0x411F JUMP JUMPDEST PUSH2 0x744 JUMP JUMPDEST CALLVALUE DUP1 ISZERO PUSH2 0x2A4 JUMPI PUSH0 DUP1 REVERT JUMPDEST POP PUSH2 0x1EF PUSH2 0x2B3 CALLDATASIZE PUSH1 0x4 PUSH2 0x415E JUMP JUMPDEST PUSH2 0x761 JUMP JUMPDEST CALLVALUE DUP1 ISZERO PUSH2 0x2C3 JUMPI PUSH0 DUP1 REVERT JUMPDEST POP PUSH2 0x21B PUSH2 0x2D2 CALLDATASIZE PUSH1 0x4 PUSH2 0x415E JUMP JUMPDEST PUSH2 0x791 JUMP JUMPDEST PUSH2 0x21B PUSH2 0x2E5 CALLDATASIZE PUSH1 0x4 PUSH2 0x415E JUMP JUMPDEST PUSH2 0x8E6 JUMP JUMPDEST CALLVALUE DUP1 ISZERO PUSH2 0x2F5 JUMPI PUSH0 DUP1 REVERT JUMPDEST POP PUSH2 0x19E PUSH2 0x304 CALLDATASIZE PUSH1 0x4 PUSH2 0x3E7F JUMP JUMPDEST PUSH2 0x978 JUMP JUMPDEST CALLVALUE DUP1 ISZERO PUSH2 0x314 JUMPI PUSH0 DUP1 REVERT JUMPDEST POP PUSH2 0x21B PUSH2 0x323 CALLDATASIZE PUSH1 0x4 PUSH2 0x415E JUMP JUMPDEST PUSH2 0xA46 JUMP JUMPDEST CALLVALUE DUP1 ISZERO PUSH2 0x333 JUMPI PUSH0 DUP1 REVERT JUMPDEST POP PUSH2 0x21B PUSH2 0x342 CALLDATASIZE PUSH1 0x4 PUSH2 0x415E JUMP JUMPDEST PUSH2 0xAB0 JUMP JUMPDEST CALLVALUE DUP1 ISZERO PUSH2 0x352 JUMPI PUSH0 DUP1 REVERT JUMPDEST POP PUSH0 SLOAD PUSH2 0x365 SWAP1 PUSH1 0x1 PUSH1 0x1 PUSH1 0xA0 SHL SUB AND DUP2 JUMP JUMPDEST PUSH1 0x40 MLOAD PUSH1 0x1 PUSH1 0x1 PUSH1 0xA0 SHL SUB SWAP1 SWAP2 AND DUP2 MSTORE PUSH1 0x20 ADD PUSH2 0x1AB JUMP JUMPDEST CALLVALUE DUP1 ISZERO PUSH2 0x388 JUMPI PUSH0 DUP1 REVERT JUMPDEST POP PUSH2 0x21B PUSH2 0xB4C JUMP JUMPDEST CALLVALUE DUP1 ISZERO PUSH2 0x39C JUMPI PUSH0 DUP1 REVERT JUMPDEST POP PUSH2 0x21B PUSH2 0x3AB CALLDATASIZE PUSH1 0x4 PUSH2 0x4177 JUMP JUMPDEST PUSH2 0xDD3 JUMP JUMPDEST CALLVALUE DUP1 ISZERO PUSH2 0x3BB JUMPI PUSH0 DUP1 REVERT JUMPDEST POP PUSH2 0x21B PUSH2 0x3CA CALLDATASIZE PUSH1 0x4 PUSH2 0x3DDD JUMP JUMPDEST PUSH2 0xDE3 JUMP JUMPDEST CALLVALUE DUP1 ISZERO PUSH2 0x3DA JUMPI PUSH0 DUP1 REVERT JUMPDEST POP PUSH2 0x1C2 PUSH1 0x5 SLOAD DUP2 JUMP JUMPDEST CALLVALUE DUP1 ISZERO PUSH2 0x3EF JUMPI PUSH0 DUP1 REVERT JUMPDEST POP PUSH2 0x403 PUSH2 0x3FE CALLDATASIZE PUSH1 0x4 PUSH2 0x3E7F JUMP JUMPDEST PUSH2 0x100D JUMP JUMPDEST PUSH1 0x40 DUP1 MLOAD PUSH1 0x1 PUSH1 0x1 PUSH1 0xA0 SHL SUB SWAP11 DUP12 AND DUP2 MSTORE SWAP10 SWAP1 SWAP9 AND PUSH1 0x20 DUP11 ADD MSTORE SWAP6 ISZERO ISZERO SWAP7 DUP9 ADD SWAP7 SWAP1 SWAP7 MSTORE PUSH1 0x60 DUP8 ADD SWAP4 SWAP1 SWAP4 MSTORE PUSH1 0x80 DUP7 ADD SWAP2 SWAP1 SWAP2 MSTORE PUSH1 0xA0 DUP6 ADD MSTORE PUSH1 0xC0 DUP5 ADD MSTORE PUSH1 0xE0 DUP4 ADD SWAP2 SWAP1 SWAP2 MSTORE PUSH2 0x100 DUP3 ADD MSTORE PUSH2 0x120 ADD PUSH2 0x1AB JUMP JUMPDEST CALLVALUE DUP1 ISZERO PUSH2 0x463 JUMPI PUSH0 DUP1 REVERT JUMPDEST POP PUSH2 0x21B PUSH2 0x472 CALLDATASIZE PUSH1 0x4 PUSH2 0x3FE1 JUMP JUMPDEST PUSH2 0x1079 JUMP JUMPDEST PUSH2 0x21B PUSH2 0x485 CALLDATASIZE PUSH1 0x4 PUSH2 0x415E JUMP JUMPDEST PUSH2 0x1257 JUMP JUMPDEST CALLVALUE DUP1 ISZERO PUSH2 0x495 JUMPI PUSH0 DUP1 REVERT JUMPDEST POP PUSH1 0xC SLOAD PUSH2 0x1C2 JUMP JUMPDEST CALLVALUE DUP1 ISZERO PUSH2 0x4A9 JUMPI PUSH0 DUP1 REVERT JUMPDEST POP PUSH2 0x21B PUSH2 0x4B8 CALLDATASIZE PUSH1 0x4 PUSH2 0x3DDD JUMP JUMPDEST PUSH2 0x12BE JUMP JUMPDEST CALLVALUE DUP1 ISZERO PUSH2 0x4C8 JUMPI PUSH0 DUP1 REVERT JUMPDEST POP PUSH2 0x21B PUSH2 0x4D7 CALLDATASIZE PUSH1 0x4 PUSH2 0x415E JUMP JUMPDEST PUSH2 0x1358 JUMP JUMPDEST PUSH2 0x21B PUSH2 0x4EA CALLDATASIZE PUSH1 0x4 PUSH2 0x415E JUMP JUMPDEST PUSH2 0x13C0 JUMP JUMPDEST PUSH2 0x4F7 PUSH2 0x3D02 JUMP JUMPDEST PUSH1 0x1 PUSH1 0x1 PUSH1 0xA0 SHL SUB DUP4 AND PUSH0 SWAP1 DUP2 MSTORE PUSH1 0xB PUSH1 0x20 SWAP1 DUP2 MSTORE PUSH1 0x40 DUP1 DUP4 KECCAK256 DUP1 SLOAD DUP3 MLOAD DUP2 DUP6 MUL DUP2 ADD DUP6 ADD SWAP1 SWAP4 MSTORE DUP1 DUP4 MSTORE SWAP2 SWAP3 SWAP1 SWAP2 SWAP1 DUP4 ADD DUP3 DUP3 DUP1 ISZERO PUSH2 0x554 JUMPI PUSH1 0x20 MUL DUP3 ADD SWAP2 SWAP1 PUSH0 MSTORE PUSH1 0x20 PUSH0 KECCAK256 SWAP1 JUMPDEST DUP2 SLOAD DUP2 MSTORE PUSH1 0x20 ADD SWAP1 PUSH1 0x1 ADD SWAP1 DUP1 DUP4 GT PUSH2 0x540 JUMPI JUMPDEST POP POP POP POP POP SWAP1 POP DUP1 MLOAD DUP4 LT PUSH2 0x57C JUMPI PUSH1 0x40 MLOAD PUSH4 0x5DCAF2D7 PUSH1 0xE0 SHL DUP2 MSTORE PUSH1 0x4 ADD PUSH1 0x40 MLOAD DUP1 SWAP2 SUB SWAP1 REVERT JUMPDEST PUSH0 DUP2 DUP5 DUP2 MLOAD DUP2 LT PUSH2 0x58F JUMPI PUSH2 0x58F PUSH2 0x41B0 JUMP JUMPDEST PUSH1 0x20 MUL PUSH1 0x20 ADD ADD MLOAD SWAP1 POP PUSH1 0x7 DUP2 DUP2 SLOAD DUP2 LT PUSH2 0x5AC JUMPI PUSH2 0x5AC PUSH2 0x41B0 JUMP JUMPDEST PUSH0 SWAP2 DUP3 MSTORE PUSH1 0x20 SWAP2 DUP3 SWAP1 KECCAK256 PUSH1 0x40 DUP1 MLOAD PUSH2 0x120 DUP2 ADD DUP3 MSTORE PUSH1 0x8 SWAP4 SWAP1 SWAP4 MUL SWAP1 SWAP2 ADD DUP1 SLOAD PUSH1 0x1 PUSH1 0x1 PUSH1 0xA0 SHL SUB SWAP1 DUP2 AND DUP5 MSTORE PUSH1 0x1 DUP3 ADD SLOAD SWAP1 DUP2 AND SWAP5 DUP5 ADD SWAP5 SWAP1 SWAP5 MSTORE PUSH1 0x1 PUSH1 0xA0 SHL SWAP1 SWAP4 DIV PUSH1 0xFF AND ISZERO ISZERO SWAP1 DUP3 ADD MSTORE PUSH1 0x2 DUP3 ADD SLOAD PUSH1 0x60 DUP3 ADD MSTORE PUSH1 0x3 DUP3 ADD SLOAD PUSH1 0x80 DUP3 ADD MSTORE PUSH1 0x4 DUP3 ADD SLOAD PUSH1 0xA0 DUP3 ADD MSTORE PUSH1 0x5 DUP3 ADD SLOAD PUSH1 0xC0 DUP3 ADD MSTORE PUSH1 0x6 DUP3 ADD SLOAD PUSH1 0xE0 DUP3 ADD MSTORE PUSH1 0x7 SWAP1 SWAP2 ADD SLOAD PUSH2 0x100 DUP3 ADD MSTORE SWAP3 POP POP POP JUMPDEST SWAP3 SWAP2 POP POP JUMP JUMPDEST PUSH2 0x64A PUSH2 0x3D59 JUMP JUMPDEST PUSH2 0x63C DUP3 PUSH2 0x13EF JUMP JUMPDEST PUSH2 0x65E DUP3 CALLER DUP4 PUSH2 0x16F2 JUMP JUMPDEST POP POP JUMP JUMPDEST PUSH0 DUP2 ISZERO PUSH2 0x687 JUMPI POP PUSH1 0x1 PUSH1 0x1 PUSH1 0xA0 SHL SUB DUP3 AND PUSH0 SWAP1 DUP2 MSTORE PUSH1 0x1 PUSH1 0x20 MSTORE PUSH1 0x40 SWAP1 KECCAK256 SLOAD PUSH2 0x63C JUMP JUMPDEST POP PUSH1 0x1 PUSH1 0x1 PUSH1 0xA0 SHL SUB DUP3 AND PUSH0 SWAP1 DUP2 MSTORE PUSH1 0x2 PUSH1 0x20 MSTORE PUSH1 0x40 SWAP1 KECCAK256 SLOAD PUSH2 0x63C JUMP JUMPDEST PUSH2 0x6AD PUSH2 0x3D02 JUMP JUMPDEST PUSH1 0x1 PUSH1 0x1 PUSH1 0xA0 SHL SUB DUP4 AND PUSH0 SWAP1 DUP2 MSTORE PUSH1 0xA PUSH1 0x20 SWAP1 DUP2 MSTORE PUSH1 0x40 DUP1 DUP4 KECCAK256 DUP1 SLOAD DUP3 MLOAD DUP2 DUP6 MUL DUP2 ADD DUP6 ADD SWAP1 SWAP4 MSTORE DUP1 DUP4 MSTORE SWAP2 SWAP3 SWAP1 SWAP2 SWAP1 DUP4 ADD DUP3 DUP3 DUP1 ISZERO PUSH2 0x554 JUMPI PUSH1 0x20 MUL DUP3 ADD SWAP2 SWAP1 PUSH0 MSTORE PUSH1 0x20 PUSH0 KECCAK256 SWAP1 DUP2 SLOAD DUP2 MSTORE PUSH1 0x20 ADD SWAP1 PUSH1 0x1 ADD SWAP1 DUP1 DUP4 GT PUSH2 0x540 JUMPI POP POP POP POP POP SWAP1 POP DUP1 MLOAD DUP4 LT PUSH2 0x57C JUMPI PUSH1 0x40 MLOAD PUSH4 0x5DCAF2D7 PUSH1 0xE0 SHL DUP2 MSTORE PUSH1 0x4 ADD PUSH1 0x40 MLOAD DUP1 SWAP2 SUB SWAP1 REVERT JUMPDEST PUSH2 0x73E DUP5 PUSH0 DUP6 DUP6 PUSH0 DUP7 PUSH2 0x1726 JUMP JUMPDEST POP POP POP POP JUMP JUMPDEST PUSH2 0x73E DUP5 PUSH1 0x1 DUP5 DUP5 DUP8 PUSH1 0x40 MLOAD DUP1 PUSH1 0x20 ADD PUSH1 0x40 MSTORE DUP1 PUSH0 DUP2 MSTORE POP PUSH2 0x1726 JUMP JUMPDEST PUSH2 0x769 PUSH2 0x3D59 JUMP JUMPDEST PUSH1 0x1 PUSH1 0x1 PUSH1 0xA0 SHL SUB DUP3 AND PUSH0 SWAP1 DUP2 MSTORE PUSH1 0x9 PUSH1 0x20 MSTORE PUSH1 0x40 SWAP1 KECCAK256 SLOAD PUSH2 0x78A DUP2 PUSH2 0x13EF JUMP JUMPDEST SWAP4 SWAP3 POP POP POP JUMP JUMPDEST PUSH1 0x1 PUSH1 0x1 PUSH1 0xA0 SHL SUB DUP2 AND PUSH0 SWAP1 DUP2 MSTORE PUSH1 0xA PUSH1 0x20 MSTORE PUSH1 0x40 DUP2 KECCAK256 SWAP1 DUP1 DUP1 DUP1 TIMESTAMP PUSH2 0x7B5 PUSH2 0x3D02 JUMP JUMPDEST DUP7 SLOAD SWAP5 POP JUMPDEST PUSH0 DUP6 GT DUP1 ISZERO PUSH2 0x7C9 JUMPI POP PUSH1 0x64 DUP4 LT JUMPDEST ISZERO PUSH2 0x8DC JUMPI PUSH2 0x7D9 PUSH1 0x1 DUP7 PUSH2 0x41D8 JUMP JUMPDEST SWAP4 POP DUP7 DUP5 DUP2 SLOAD DUP2 LT PUSH2 0x7ED JUMPI PUSH2 0x7ED PUSH2 0x41B0 JUMP JUMPDEST SWAP1 PUSH0 MSTORE PUSH1 0x20 PUSH0 KECCAK256 ADD SLOAD SWAP6 POP PUSH1 0x7 DUP7 DUP2 SLOAD DUP2 LT PUSH2 0x80B JUMPI PUSH2 0x80B PUSH2 0x41B0 JUMP JUMPDEST PUSH0 SWAP2 DUP3 MSTORE PUSH1 0x20 SWAP2 DUP3 SWAP1 KECCAK256 PUSH1 0x40 DUP1 MLOAD PUSH2 0x120 DUP2 ADD DUP3 MSTORE PUSH1 0x8 SWAP4 SWAP1 SWAP4 MUL SWAP1 SWAP2 ADD DUP1 SLOAD PUSH1 0x1 PUSH1 0x1 PUSH1 0xA0 SHL SUB SWAP1 DUP2 AND DUP5 MSTORE PUSH1 0x1 DUP3 ADD SLOAD SWAP1 DUP2 AND SWAP5 DUP5 ADD SWAP5 SWAP1 SWAP5 MSTORE PUSH1 0x1 PUSH1 0xA0 SHL SWAP1 SWAP4 DIV PUSH1 0xFF AND ISZERO ISZERO SWAP1 DUP3 ADD MSTORE PUSH1 0x2 DUP3 ADD SLOAD PUSH1 0x60 DUP3 ADD DUP2 SWAP1 MSTORE PUSH1 0x3 DUP4 ADD SLOAD PUSH1 0x80 DUP4 ADD MSTORE PUSH1 0x4 DUP4 ADD SLOAD PUSH1 0xA0 DUP4 ADD MSTORE PUSH1 0x5 DUP4 ADD SLOAD PUSH1 0xC0 DUP4 ADD MSTORE PUSH1 0x6 DUP4 ADD SLOAD PUSH1 0xE0 DUP4 ADD MSTORE PUSH1 0x7 SWAP1 SWAP3 ADD SLOAD PUSH2 0x100 DUP3 ADD MSTORE SWAP2 POP PUSH1 0x28 SWAP1 PUSH2 0x8A7 SWAP1 DUP5 PUSH2 0x41D8 JUMP JUMPDEST GT ISZERO PUSH2 0x8CA JUMPI PUSH2 0x8B7 DUP2 DUP8 PUSH2 0x182A JUMP JUMPDEST ISZERO PUSH2 0x8CA JUMPI DUP3 PUSH2 0x8C6 DUP2 PUSH2 0x41EB JUMP JUMPDEST SWAP4 POP POP JUMPDEST DUP5 PUSH2 0x8D4 DUP2 PUSH2 0x4203 JUMP JUMPDEST SWAP6 POP POP PUSH2 0x7BA JUMP JUMPDEST POP POP POP POP POP POP POP POP JUMP JUMPDEST CALLVALUE PUSH0 DUP1 DUP1 PUSH2 0x8F4 DUP6 DUP6 PUSH2 0x18EA JUMP JUMPDEST SWAP3 POP SWAP1 POP DUP1 PUSH2 0x916 JUMPI PUSH1 0x40 MLOAD PUSH4 0x2050D62B PUSH1 0xE0 SHL DUP2 MSTORE PUSH1 0x4 ADD PUSH1 0x40 MLOAD DUP1 SWAP2 SUB SWAP1 REVERT JUMPDEST PUSH1 0x1 PUSH1 0x1 PUSH1 0xA0 SHL SUB DUP6 AND PUSH0 SWAP1 DUP2 MSTORE PUSH1 0x1 PUSH1 0x20 MSTORE PUSH1 0x40 DUP2 KECCAK256 DUP1 SLOAD DUP7 SWAP3 SWAP1 PUSH2 0x93D SWAP1 DUP5 SWAP1 PUSH2 0x4218 JUMP JUMPDEST SWAP1 SWAP2 SSTORE POP POP PUSH1 0x7 DUP1 SLOAD DUP4 SWAP1 DUP2 LT PUSH2 0x956 JUMPI PUSH2 0x956 PUSH2 0x41B0 JUMP JUMPDEST SWAP1 PUSH0 MSTORE PUSH1 0x20 PUSH0 KECCAK256 SWAP1 PUSH1 0x8 MUL ADD SWAP3 POP PUSH2 0x971 DUP4 PUSH0 DUP5 DUP8 DUP10 PUSH2 0x1A44 JUMP JUMPDEST POP POP POP POP POP JUMP JUMPDEST PUSH2 0x980 PUSH2 0x3D02 JUMP JUMPDEST PUSH1 0x7 SLOAD DUP3 LT PUSH2 0x9A2 JUMPI PUSH1 0x40 MLOAD PUSH4 0x5DCAF2D7 PUSH1 0xE0 SHL DUP2 MSTORE PUSH1 0x4 ADD PUSH1 0x40 MLOAD DUP1 SWAP2 SUB SWAP1 REVERT JUMPDEST PUSH1 0x7 DUP3 DUP2 SLOAD DUP2 LT PUSH2 0x9B5 JUMPI PUSH2 0x9B5 PUSH2 0x41B0 JUMP JUMPDEST PUSH0 SWAP2 DUP3 MSTORE PUSH1 0x20 SWAP2 DUP3 SWAP1 KECCAK256 PUSH1 0x40 DUP1 MLOAD PUSH2 0x120 DUP2 ADD DUP3 MSTORE PUSH1 0x8 SWAP4 SWAP1 SWAP4 MUL SWAP1 SWAP2 ADD DUP1 SLOAD PUSH1 0x1 PUSH1 0x1 PUSH1 0xA0 SHL SUB SWAP1 DUP2 AND DUP5 MSTORE PUSH1 0x1 DUP3 ADD SLOAD SWAP1 DUP2 AND SWAP5 DUP5 ADD SWAP5 SWAP1 SWAP5 MSTORE PUSH1 0x1 PUSH1 0xA0 SHL SWAP1 SWAP4 DIV PUSH1 0xFF AND ISZERO ISZERO SWAP1 DUP3 ADD MSTORE PUSH1 0x2 DUP3 ADD SLOAD PUSH1 0x60 DUP3 ADD MSTORE PUSH1 0x3 DUP3 ADD SLOAD PUSH1 0x80 DUP3 ADD MSTORE PUSH1 0x4 DUP3 ADD SLOAD PUSH1 0xA0 DUP3 ADD MSTORE PUSH1 0x5 DUP3 ADD SLOAD PUSH1 0xC0 DUP3 ADD MSTORE PUSH1 0x6 DUP3 ADD SLOAD PUSH1 0xE0 DUP3 ADD MSTORE PUSH1 0x7 SWAP1 SWAP2 ADD SLOAD PUSH2 0x100 DUP3 ADD MSTORE SWAP3 SWAP2 POP POP JUMP JUMPDEST PUSH2 0xA4E PUSH2 0x1D57 JUMP JUMPDEST PUSH1 0xE DUP1 SLOAD PUSH1 0x1 PUSH1 0x1 PUSH1 0xA0 SHL SUB NOT AND PUSH1 0x1 PUSH1 0x1 PUSH1 0xA0 SHL SUB DUP4 AND OR SWAP1 SSTORE PUSH2 0xA71 PUSH2 0x1D85 JUMP JUMPDEST PUSH1 0x40 MLOAD PUSH1 0x1 PUSH1 0x1 PUSH1 0xA0 SHL SUB DUP3 AND DUP2 MSTORE PUSH32 0x15B49408719C001F91D2EC31B653D0929170F69FF422EF39920E9C280910115E SWAP1 PUSH1 0x20 ADD PUSH1 0x40 MLOAD DUP1 SWAP2 SUB SWAP1 LOG1 POP JUMP JUMPDEST PUSH0 PUSH2 0xABA DUP3 PUSH2 0x1E3D JUMP JUMPDEST PUSH2 0x140 DUP2 ADD MLOAD PUSH1 0x40 MLOAD PUSH4 0x70A08231 PUSH1 0xE0 SHL DUP2 MSTORE ADDRESS PUSH1 0x4 DUP3 ADD MSTORE SWAP2 SWAP3 POP PUSH0 SWAP2 PUSH1 0x1 PUSH1 0x1 PUSH1 0xA0 SHL SUB SWAP1 SWAP2 AND SWAP1 PUSH4 0x70A08231 SWAP1 PUSH1 0x24 ADD PUSH1 0x20 PUSH1 0x40 MLOAD DUP1 DUP4 SUB DUP2 DUP7 GAS STATICCALL ISZERO DUP1 ISZERO PUSH2 0xB08 JUMPI RETURNDATASIZE PUSH0 DUP1 RETURNDATACOPY RETURNDATASIZE PUSH0 REVERT JUMPDEST POP POP POP POP PUSH1 0x40 MLOAD RETURNDATASIZE PUSH1 0x1F NOT PUSH1 0x1F DUP3 ADD AND DUP3 ADD DUP1 PUSH1 0x40 MSTORE POP DUP2 ADD SWAP1 PUSH2 0xB2C SWAP2 SWAP1 PUSH2 0x422B JUMP JUMPDEST PUSH1 0x1 PUSH1 0x1 PUSH1 0xA0 SHL SUB SWAP1 SWAP4 AND PUSH0 SWAP1 DUP2 MSTORE PUSH1 0x2 PUSH1 0x20 MSTORE PUSH1 0x40 SWAP1 KECCAK256 SWAP3 SWAP1 SWAP3 SSTORE POP POP JUMP JUMPDEST CALLER PUSH0 SWAP1 DUP2 MSTORE PUSH1 0xB PUSH1 0x20 MSTORE PUSH1 0x40 DUP2 KECCAK256 DUP1 SLOAD SWAP1 SWAP2 SWAP1 ISZERO ISZERO SWAP1 DUP1 DUP3 PUSH2 0xB6F JUMPI PUSH1 0x64 PUSH2 0xB72 JUMP JUMPDEST PUSH1 0x32 JUMPDEST SWAP1 POP PUSH0 TIMESTAMP PUSH2 0xB7E PUSH2 0x3D02 JUMP JUMPDEST PUSH1 0x7 SLOAD PUSH2 0xB8E JUMPI POP POP POP POP POP POP POP JUMP JUMPDEST PUSH0 DUP1 DUP8 ISZERO PUSH2 0xCC8 JUMPI DUP9 SLOAD SWAP2 POP JUMPDEST PUSH0 DUP3 GT DUP1 ISZERO PUSH2 0xBAA JUMPI POP DUP6 DUP8 GT ISZERO JUMPDEST ISZERO PUSH2 0xCBD JUMPI PUSH2 0xBBA PUSH1 0x1 DUP4 PUSH2 0x41D8 JUMP JUMPDEST SWAP1 POP DUP9 DUP2 DUP2 SLOAD DUP2 LT PUSH2 0xBCE JUMPI PUSH2 0xBCE PUSH2 0x41B0 JUMP JUMPDEST SWAP1 PUSH0 MSTORE PUSH1 0x20 PUSH0 KECCAK256 ADD SLOAD SWAP5 POP PUSH1 0x7 DUP6 DUP2 SLOAD DUP2 LT PUSH2 0xBEC JUMPI PUSH2 0xBEC PUSH2 0x41B0 JUMP JUMPDEST PUSH0 SWAP2 DUP3 MSTORE PUSH1 0x20 SWAP2 DUP3 SWAP1 KECCAK256 PUSH1 0x40 DUP1 MLOAD PUSH2 0x120 DUP2 ADD DUP3 MSTORE PUSH1 0x8 SWAP4 SWAP1 SWAP4 MUL SWAP1 SWAP2 ADD DUP1 SLOAD PUSH1 0x1 PUSH1 0x1 PUSH1 0xA0 SHL SUB SWAP1 DUP2 AND DUP5 MSTORE PUSH1 0x1 DUP3 ADD SLOAD SWAP1 DUP2 AND SWAP5 DUP5 ADD SWAP5 SWAP1 SWAP5 MSTORE PUSH1 0x1 PUSH1 0xA0 SHL SWAP1 SWAP4 DIV PUSH1 0xFF AND ISZERO ISZERO SWAP1 DUP3 ADD MSTORE PUSH1 0x2 DUP3 ADD SLOAD PUSH1 0x60 DUP3 ADD DUP2 SWAP1 MSTORE PUSH1 0x3 DUP4 ADD SLOAD PUSH1 0x80 DUP4 ADD MSTORE PUSH1 0x4 DUP4 ADD SLOAD PUSH1 0xA0 DUP4 ADD MSTORE PUSH1 0x5 DUP4 ADD SLOAD PUSH1 0xC0 DUP4 ADD MSTORE PUSH1 0x6 DUP4 ADD SLOAD PUSH1 0xE0 DUP4 ADD MSTORE PUSH1 0x7 SWAP1 SWAP3 ADD SLOAD PUSH2 0x100 DUP3 ADD MSTORE SWAP4 POP PUSH1 0x28 SWAP1 PUSH2 0xC88 SWAP1 DUP7 PUSH2 0x41D8 JUMP JUMPDEST GT ISZERO PUSH2 0xCAB JUMPI PUSH2 0xC98 DUP4 DUP7 PUSH2 0x182A JUMP JUMPDEST ISZERO PUSH2 0xCAB JUMPI DUP7 PUSH2 0xCA7 DUP2 PUSH2 0x41EB JUMP JUMPDEST SWAP8 POP POP JUMPDEST DUP2 PUSH2 0xCB5 DUP2 PUSH2 0x4203 JUMP JUMPDEST SWAP3 POP POP PUSH2 0xB9B JUMP JUMPDEST POP POP POP POP POP POP POP POP POP JUMP JUMPDEST PUSH1 0x7 SLOAD SWAP2 POP JUMPDEST PUSH0 DUP3 GT DUP1 ISZERO PUSH2 0xCDD JUMPI POP DUP6 DUP8 GT ISZERO JUMPDEST ISZERO PUSH2 0xCBD JUMPI PUSH2 0xCED PUSH1 0x1 DUP4 PUSH2 0x41D8 JUMP JUMPDEST SWAP1 POP PUSH1 0x7 DUP2 DUP2 SLOAD DUP2 LT PUSH2 0xD02 JUMPI PUSH2 0xD02 PUSH2 0x41B0 JUMP JUMPDEST PUSH0 SWAP2 DUP3 MSTORE PUSH1 0x20 SWAP2 DUP3 SWAP1 KECCAK256 PUSH1 0x40 DUP1 MLOAD PUSH2 0x120 DUP2 ADD DUP3 MSTORE PUSH1 0x8 SWAP4 SWAP1 SWAP4 MUL SWAP1 SWAP2 ADD DUP1 SLOAD PUSH1 0x1 PUSH1 0x1 PUSH1 0xA0 SHL SUB SWAP1 DUP2 AND DUP5 MSTORE PUSH1 0x1 DUP3 ADD SLOAD SWAP1 DUP2 AND SWAP5 DUP5 ADD SWAP5 SWAP1 SWAP5 MSTORE PUSH1 0x1 PUSH1 0xA0 SHL SWAP1 SWAP4 DIV PUSH1 0xFF AND ISZERO ISZERO SWAP1 DUP3 ADD MSTORE PUSH1 0x2 DUP3 ADD SLOAD PUSH1 0x60 DUP3 ADD DUP2 SWAP1 MSTORE PUSH1 0x3 DUP4 ADD SLOAD PUSH1 0x80 DUP4 ADD MSTORE PUSH1 0x4 DUP4 ADD SLOAD PUSH1 0xA0 DUP4 ADD MSTORE PUSH1 0x5 DUP4 ADD SLOAD PUSH1 0xC0 DUP4 ADD MSTORE PUSH1 0x6 DUP4 ADD SLOAD PUSH1 0xE0 DUP4 ADD MSTORE PUSH1 0x7 SWAP1 SWAP3 ADD SLOAD PUSH2 0x100 DUP3 ADD MSTORE SWAP4 POP PUSH1 0x28 SWAP1 PUSH2 0xD9E SWAP1 DUP7 PUSH2 0x41D8 JUMP JUMPDEST GT ISZERO PUSH2 0xDC1 JUMPI PUSH2 0xDAE DUP4 DUP3 PUSH2 0x182A JUMP JUMPDEST ISZERO PUSH2 0xDC1 JUMPI DUP7 PUSH2 0xDBD DUP2 PUSH2 0x41EB JUMP JUMPDEST SWAP8 POP POP JUMPDEST DUP2 PUSH2 0xDCB DUP2 PUSH2 0x4203 JUMP JUMPDEST SWAP3 POP POP PUSH2 0xCCE JUMP JUMPDEST PUSH2 0xDDE DUP4 DUP4 DUP4 PUSH2 0x16F2 JUMP JUMPDEST POP POP POP JUMP JUMPDEST PUSH0 DUP2 GT PUSH2 0xE03 JUMPI PUSH1 0x40 MLOAD PUSH4 0x42257CED PUSH1 0xE1 SHL DUP2 MSTORE PUSH1 0x4 ADD PUSH1 0x40 MLOAD DUP1 SWAP2 SUB SWAP1 REVERT JUMPDEST PUSH0 PUSH2 0xE0D DUP4 PUSH2 0x20DC JUMP JUMPDEST SWAP1 POP PUSH2 0xFE5 DUP2 PUSH1 0x40 MLOAD DUP1 PUSH2 0x160 ADD PUSH1 0x40 MSTORE SWAP1 DUP2 PUSH0 DUP3 ADD DUP1 SLOAD PUSH2 0xE2E SWAP1 PUSH2 0x4242 JUMP JUMPDEST DUP1 PUSH1 0x1F ADD PUSH1 0x20 DUP1 SWAP2 DIV MUL PUSH1 0x20 ADD PUSH1 0x40 MLOAD SWAP1 DUP2 ADD PUSH1 0x40 MSTORE DUP1 SWAP3 SWAP2 SWAP1 DUP2 DUP2 MSTORE PUSH1 0x20 ADD DUP3 DUP1 SLOAD PUSH2 0xE5A SWAP1 PUSH2 0x4242 JUMP JUMPDEST DUP1 ISZERO PUSH2 0xEA5 JUMPI DUP1 PUSH1 0x1F LT PUSH2 0xE7C JUMPI PUSH2 0x100 DUP1 DUP4 SLOAD DIV MUL DUP4 MSTORE SWAP2 PUSH1 0x20 ADD SWAP2 PUSH2 0xEA5 JUMP JUMPDEST DUP3 ADD SWAP2 SWAP1 PUSH0 MSTORE PUSH1 0x20 PUSH0 KECCAK256 SWAP1 JUMPDEST DUP2 SLOAD DUP2 MSTORE SWAP1 PUSH1 0x1 ADD SWAP1 PUSH1 0x20 ADD DUP1 DUP4 GT PUSH2 0xE88 JUMPI DUP3 SWAP1 SUB PUSH1 0x1F AND DUP3 ADD SWAP2 JUMPDEST POP POP POP POP POP DUP2 MSTORE PUSH1 0x20 ADD PUSH1 0x1 DUP3 ADD DUP1 SLOAD PUSH2 0xEBE SWAP1 PUSH2 0x4242 JUMP JUMPDEST DUP1 PUSH1 0x1F ADD PUSH1 0x20 DUP1 SWAP2 DIV MUL PUSH1 0x20 ADD PUSH1 0x40 MLOAD SWAP1 DUP2 ADD PUSH1 0x40 MSTORE DUP1 SWAP3 SWAP2 SWAP1 DUP2 DUP2 MSTORE PUSH1 0x20 ADD DUP3 DUP1 SLOAD PUSH2 0xEEA SWAP1 PUSH2 0x4242 JUMP JUMPDEST DUP1 ISZERO PUSH2 0xF35 JUMPI DUP1 PUSH1 0x1F LT PUSH2 0xF0C JUMPI PUSH2 0x100 DUP1 DUP4 SLOAD DIV MUL DUP4 MSTORE SWAP2 PUSH1 0x20 ADD SWAP2 PUSH2 0xF35 JUMP JUMPDEST DUP3 ADD SWAP2 SWAP1 PUSH0 MSTORE PUSH1 0x20 PUSH0 KECCAK256 SWAP1 JUMPDEST DUP2 SLOAD DUP2 MSTORE SWAP1 PUSH1 0x1 ADD SWAP1 PUSH1 0x20 ADD DUP1 DUP4 GT PUSH2 0xF18 JUMPI DUP3 SWAP1 SUB PUSH1 0x1F AND DUP3 ADD SWAP2 JUMPDEST POP POP POP SWAP2 DUP4 MSTORE POP POP PUSH1 0x2 DUP3 ADD SLOAD PUSH1 0xFF DUP1 DUP3 AND PUSH1 0x20 DUP5 ADD MSTORE PUSH1 0x1 PUSH1 0x1 PUSH1 0xA0 SHL SUB PUSH2 0x100 SWAP1 SWAP3 DIV DUP3 AND PUSH1 0x40 DUP5 ADD MSTORE PUSH1 0x3 DUP5 ADD SLOAD SWAP2 DUP3 AND PUSH1 0x60 DUP5 ADD MSTORE PUSH1 0x80 SWAP1 SWAP3 ADD SWAP2 PUSH1 0x1 PUSH1 0xA0 SHL SWAP1 SWAP2 DIV AND PUSH1 0x1 DUP2 GT ISZERO PUSH2 0xF8E JUMPI PUSH2 0xF8E PUSH2 0x3EE3 JUMP JUMPDEST PUSH1 0x1 DUP2 GT ISZERO PUSH2 0xF9F JUMPI PUSH2 0xF9F PUSH2 0x3EE3 JUMP JUMPDEST DUP2 MSTORE PUSH1 0x4 DUP3 ADD SLOAD PUSH1 0x20 DUP3 ADD MSTORE PUSH1 0x5 DUP3 ADD SLOAD PUSH1 0x40 DUP3 ADD MSTORE PUSH1 0x6 DUP3 ADD SLOAD PUSH1 0x60 DUP3 ADD MSTORE PUSH1 0x7 DUP3 ADD SLOAD PUSH1 0x80 DUP3 ADD MSTORE PUSH1 0x8 SWAP1 SWAP2 ADD SLOAD PUSH1 0x1 PUSH1 0x1 PUSH1 0xA0 SHL SUB AND PUSH1 0xA0 SWAP1 SWAP2 ADD MSTORE CALLER DUP5 PUSH2 0x2151 JUMP JUMPDEST PUSH2 0x1002 JUMPI PUSH1 0x40 MLOAD PUSH4 0x79CACFF1 PUSH1 0xE0 SHL DUP2 MSTORE PUSH1 0x4 ADD PUSH1 0x40 MLOAD DUP1 SWAP2 SUB SWAP1 REVERT JUMPDEST PUSH2 0xDDE DUP2 PUSH0 DUP5 PUSH2 0x219F JUMP JUMPDEST PUSH1 0x8 DUP2 DUP2 SLOAD DUP2 LT PUSH2 0x101C JUMPI PUSH0 DUP1 REVERT JUMPDEST PUSH0 SWAP2 DUP3 MSTORE PUSH1 0x20 SWAP1 SWAP2 KECCAK256 PUSH1 0x8 SWAP1 SWAP2 MUL ADD DUP1 SLOAD PUSH1 0x1 DUP3 ADD SLOAD PUSH1 0x2 DUP4 ADD SLOAD PUSH1 0x3 DUP5 ADD SLOAD PUSH1 0x4 DUP6 ADD SLOAD PUSH1 0x5 DUP7 ADD SLOAD PUSH1 0x6 DUP8 ADD SLOAD PUSH1 0x7 SWAP1 SWAP8 ADD SLOAD PUSH1 0x1 PUSH1 0x1 PUSH1 0xA0 SHL SUB SWAP7 DUP8 AND SWAP9 POP SWAP6 DUP6 AND SWAP7 PUSH1 0x1 PUSH1 0xA0 SHL SWAP1 SWAP6 DIV PUSH1 0xFF AND SWAP6 SWAP4 SWAP5 SWAP3 SWAP4 SWAP2 SWAP3 SWAP1 SWAP2 DUP10 JUMP JUMPDEST PUSH0 PUSH2 0x1083 DUP4 PUSH2 0x1E3D JUMP JUMPDEST PUSH1 0x60 DUP2 ADD MLOAD PUSH1 0x1 PUSH1 0x1 PUSH1 0xA0 SHL SUB AND PUSH0 SWAP1 DUP2 MSTORE PUSH1 0xA PUSH1 0x20 MSTORE PUSH1 0x40 DUP2 KECCAK256 DUP1 SLOAD SWAP3 SWAP4 POP SWAP2 DUP2 SWAP1 DUP2 SWAP1 DUP2 DUP1 JUMPDEST PUSH0 DUP4 GT DUP1 ISZERO PUSH2 0x10BA JUMPI POP PUSH1 0x64 DUP2 LT JUMPDEST ISZERO PUSH2 0x124B JUMPI DUP1 PUSH2 0x10C9 DUP2 PUSH2 0x41EB JUMP JUMPDEST SWAP2 POP PUSH2 0x10D8 SWAP1 POP PUSH1 0x1 DUP5 PUSH2 0x41D8 JUMP JUMPDEST SWAP2 POP PUSH0 DUP8 DUP4 DUP2 SLOAD DUP2 LT PUSH2 0x10ED JUMPI PUSH2 0x10ED PUSH2 0x41B0 JUMP JUMPDEST SWAP1 PUSH0 MSTORE PUSH1 0x20 PUSH0 KECCAK256 ADD SLOAD SWAP1 POP PUSH1 0x7 DUP2 DUP2 SLOAD DUP2 LT PUSH2 0x110B JUMPI PUSH2 0x110B PUSH2 0x41B0 JUMP JUMPDEST SWAP1 PUSH0 MSTORE PUSH1 0x20 PUSH0 KECCAK256 SWAP1 PUSH1 0x8 MUL ADD SWAP7 POP DUP10 PUSH2 0x113B JUMPI PUSH1 0x1 PUSH1 0x1 PUSH1 0xA0 SHL SUB DUP12 AND PUSH0 SWAP1 DUP2 MSTORE PUSH1 0x1 PUSH1 0x20 MSTORE PUSH1 0x40 SWAP1 KECCAK256 SLOAD PUSH2 0x1154 JUMP JUMPDEST PUSH1 0x1 PUSH1 0x1 PUSH1 0xA0 SHL SUB DUP12 AND PUSH0 SWAP1 DUP2 MSTORE PUSH1 0x2 PUSH1 0x20 MSTORE PUSH1 0x40 SWAP1 KECCAK256 SLOAD JUMPDEST SWAP5 POP PUSH0 DUP6 GT PUSH2 0x1163 JUMPI POP PUSH2 0x124B JUMP JUMPDEST PUSH1 0x1 DUP8 ADD SLOAD PUSH1 0xFF PUSH1 0x1 PUSH1 0xA0 SHL SWAP1 SWAP2 DIV AND ISZERO ISZERO DUP11 ISZERO ISZERO EQ PUSH2 0x1183 JUMPI POP PUSH2 0x1239 JUMP JUMPDEST DUP10 ISZERO PUSH2 0x119C JUMPI PUSH2 0x1195 DUP10 DUP9 DUP6 DUP9 PUSH2 0x2835 JUMP JUMPDEST SWAP6 POP PUSH2 0x11AB JUMP JUMPDEST PUSH2 0x11A8 DUP10 DUP9 DUP6 DUP9 PUSH2 0x29A4 JUMP JUMPDEST SWAP6 POP JUMPDEST DUP6 PUSH2 0x11B6 JUMPI POP PUSH2 0x1239 JUMP JUMPDEST PUSH1 0x40 DUP1 MLOAD PUSH2 0x120 DUP2 ADD DUP3 MSTORE DUP9 SLOAD PUSH1 0x1 PUSH1 0x1 PUSH1 0xA0 SHL SUB SWAP1 DUP2 AND DUP3 MSTORE PUSH1 0x1 DUP11 ADD SLOAD SWAP1 DUP2 AND PUSH1 0x20 DUP4 ADD MSTORE PUSH1 0x1 PUSH1 0xA0 SHL SWAP1 DIV PUSH1 0xFF AND ISZERO ISZERO SWAP2 DUP2 ADD SWAP2 SWAP1 SWAP2 MSTORE PUSH1 0x2 DUP9 ADD SLOAD PUSH1 0x60 DUP3 ADD MSTORE PUSH1 0x3 DUP9 ADD SLOAD PUSH1 0x80 DUP3 ADD MSTORE PUSH1 0x4 DUP9 ADD SLOAD PUSH1 0xA0 DUP3 ADD MSTORE PUSH1 0x5 DUP9 ADD SLOAD PUSH1 0xC0 DUP3 ADD MSTORE PUSH1 0x6 DUP9 ADD SLOAD PUSH1 0xE0 DUP3 ADD MSTORE PUSH1 0x7 DUP9 ADD SLOAD PUSH2 0x100 DUP3 ADD MSTORE PUSH2 0x1237 SWAP1 DUP3 PUSH2 0x2AB1 JUMP JUMPDEST POP JUMPDEST DUP3 PUSH2 0x1243 DUP2 PUSH2 0x4203 JUMP JUMPDEST SWAP4 POP POP PUSH2 0x10AB JUMP JUMPDEST POP POP POP POP POP POP POP POP POP POP JUMP JUMPDEST CALLVALUE DUP1 PUSH2 0x1276 JUMPI PUSH1 0x40 MLOAD PUSH4 0x42257CED PUSH1 0xE1 SHL DUP2 MSTORE PUSH1 0x4 ADD PUSH1 0x40 MLOAD DUP1 SWAP2 SUB SWAP1 REVERT JUMPDEST PUSH0 PUSH2 0x1280 DUP4 PUSH2 0x20DC JUMP JUMPDEST PUSH1 0x1 PUSH1 0x1 PUSH1 0xA0 SHL SUB DUP5 AND PUSH0 SWAP1 DUP2 MSTORE PUSH1 0x1 PUSH1 0x20 MSTORE PUSH1 0x40 DUP2 KECCAK256 DUP1 SLOAD SWAP3 SWAP4 POP DUP5 SWAP3 SWAP1 SWAP2 SWAP1 PUSH2 0x12AC SWAP1 DUP5 SWAP1 PUSH2 0x4218 JUMP JUMPDEST SWAP1 SWAP2 SSTORE POP PUSH2 0xDDE SWAP1 POP DUP2 PUSH1 0x1 DUP5 PUSH2 0x219F JUMP JUMPDEST PUSH0 PUSH2 0x12C8 DUP4 PUSH2 0x1E3D JUMP JUMPDEST SWAP1 POP PUSH0 DUP1 PUSH0 PUSH2 0x12D7 DUP7 DUP7 PUSH2 0x18EA JUMP JUMPDEST SWAP3 POP SWAP1 POP DUP1 PUSH2 0x12F9 JUMPI PUSH1 0x40 MLOAD PUSH4 0x2050D62B PUSH1 0xE0 SHL DUP2 MSTORE PUSH1 0x4 ADD PUSH1 0x40 MLOAD DUP1 SWAP2 SUB SWAP1 REVERT JUMPDEST PUSH2 0x1304 DUP5 CALLER DUP8 PUSH2 0x2151 JUMP JUMPDEST PUSH2 0x1321 JUMPI PUSH1 0x40 MLOAD PUSH4 0x79CACFF1 PUSH1 0xE0 SHL DUP2 MSTORE PUSH1 0x4 ADD PUSH1 0x40 MLOAD DUP1 SWAP2 SUB SWAP1 REVERT JUMPDEST PUSH1 0x7 DUP3 DUP2 SLOAD DUP2 LT PUSH2 0x1334 JUMPI PUSH2 0x1334 PUSH2 0x41B0 JUMP JUMPDEST SWAP1 PUSH0 MSTORE PUSH1 0x20 PUSH0 KECCAK256 SWAP1 PUSH1 0x8 MUL ADD SWAP3 POP PUSH2 0x1350 DUP4 PUSH1 0x1 DUP5 DUP9 DUP11 PUSH2 0x1A44 JUMP JUMPDEST POP POP POP POP POP POP JUMP JUMPDEST PUSH2 0x1360 PUSH2 0x1D57 JUMP JUMPDEST PUSH0 DUP1 SLOAD PUSH1 0x1 PUSH1 0x1 PUSH1 0xA0 SHL SUB DUP4 DUP2 AND PUSH1 0x1 PUSH1 0x1 PUSH1 0xA0 SHL SUB NOT DUP4 AND DUP2 OR SWAP1 SWAP4 SSTORE PUSH1 0x40 DUP1 MLOAD SWAP2 SWAP1 SWAP3 AND DUP1 DUP3 MSTORE PUSH1 0x20 DUP3 ADD SWAP4 SWAP1 SWAP4 MSTORE PUSH32 0x850B3DF64837D7D518B45F5AA64D104652C3B80EB5B34A8E3D9EB666CB7CDEA5 SWAP2 ADD PUSH1 0x40 MLOAD DUP1 SWAP2 SUB SWAP1 LOG1 POP POP JUMP JUMPDEST PUSH1 0x1 PUSH1 0x1 PUSH1 0xA0 SHL SUB DUP2 AND PUSH0 SWAP1 DUP2 MSTORE PUSH1 0x1 PUSH1 0x20 MSTORE PUSH1 0x40 DUP2 KECCAK256 DUP1 SLOAD CALLVALUE SWAP3 SWAP1 PUSH2 0x13E7 SWAP1 DUP5 SWAP1 PUSH2 0x4218 JUMP JUMPDEST SWAP1 SWAP2 SSTORE POP POP POP JUMP JUMPDEST PUSH2 0x13F7 PUSH2 0x3D59 JUMP JUMPDEST DUP2 ISZERO DUP1 PUSH2 0x1405 JUMPI POP PUSH1 0x6 SLOAD DUP3 GT JUMPDEST ISZERO PUSH2 0x1423 JUMPI PUSH1 0x40 MLOAD PUSH4 0x62F850F7 PUSH1 0xE1 SHL DUP2 MSTORE PUSH1 0x4 ADD PUSH1 0x40 MLOAD DUP1 SWAP2 SUB SWAP1 REVERT JUMPDEST PUSH0 PUSH1 0x6 PUSH2 0x1431 PUSH1 0x1 DUP6 PUSH2 0x41D8 JUMP JUMPDEST DUP2 SLOAD DUP2 LT PUSH2 0x1441 JUMPI PUSH2 0x1441 PUSH2 0x41B0 JUMP JUMPDEST SWAP1 PUSH0 MSTORE PUSH1 0x20 PUSH0 KECCAK256 SWAP1 PUSH1 0x9 MUL ADD PUSH1 0x40 MLOAD DUP1 PUSH2 0x160 ADD PUSH1 0x40 MSTORE SWAP1 DUP2 PUSH0 DUP3 ADD DUP1 SLOAD PUSH2 0x1468 SWAP1 PUSH2 0x4242 JUMP JUMPDEST DUP1 PUSH1 0x1F ADD PUSH1 0x20 DUP1 SWAP2 DIV MUL PUSH1 0x20 ADD PUSH1 0x40 MLOAD SWAP1 DUP2 ADD PUSH1 0x40 MSTORE DUP1 SWAP3 SWAP2 SWAP1 DUP2 DUP2 MSTORE PUSH1 0x20 ADD DUP3 DUP1 SLOAD PUSH2 0x1494 SWAP1 PUSH2 0x4242 JUMP JUMPDEST DUP1 ISZERO PUSH2 0x14DF JUMPI DUP1 PUSH1 0x1F LT PUSH2 0x14B6 JUMPI PUSH2 0x100 DUP1 DUP4 SLOAD DIV MUL DUP4 MSTORE SWAP2 PUSH1 0x20 ADD SWAP2 PUSH2 0x14DF JUMP JUMPDEST DUP3 ADD SWAP2 SWAP1 PUSH0 MSTORE PUSH1 0x20 PUSH0 KECCAK256 SWAP1 JUMPDEST DUP2 SLOAD DUP2 MSTORE SWAP1 PUSH1 0x1 ADD SWAP1 PUSH1 0x20 ADD DUP1 DUP4 GT PUSH2 0x14C2 JUMPI DUP3 SWAP1 SUB PUSH1 0x1F AND DUP3 ADD SWAP2 JUMPDEST POP POP POP POP POP DUP2 MSTORE PUSH1 0x20 ADD PUSH1 0x1 DUP3 ADD DUP1 SLOAD PUSH2 0x14F8 SWAP1 PUSH2 0x4242 JUMP JUMPDEST DUP1 PUSH1 0x1F ADD PUSH1 0x20 DUP1 SWAP2 DIV MUL PUSH1 0x20 ADD PUSH1 0x40 MLOAD SWAP1 DUP2 ADD PUSH1 0x40 MSTORE DUP1 SWAP3 SWAP2 SWAP1 DUP2 DUP2 MSTORE PUSH1 0x20 ADD DUP3 DUP1 SLOAD PUSH2 0x1524 SWAP1 PUSH2 0x4242 JUMP JUMPDEST DUP1 ISZERO PUSH2 0x156F JUMPI DUP1 PUSH1 0x1F LT PUSH2 0x1546 JUMPI PUSH2 0x100 DUP1 DUP4 SLOAD DIV MUL DUP4 MSTORE SWAP2 PUSH1 0x20 ADD SWAP2 PUSH2 0x156F JUMP JUMPDEST DUP3 ADD SWAP2 SWAP1 PUSH0 MSTORE PUSH1 0x20 PUSH0 KECCAK256 SWAP1 JUMPDEST DUP2 SLOAD DUP2 MSTORE SWAP1 PUSH1 0x1 ADD SWAP1 PUSH1 0x20 ADD DUP1 DUP4 GT PUSH2 0x1552 JUMPI DUP3 SWAP1 SUB PUSH1 0x1F AND DUP3 ADD SWAP2 JUMPDEST POP POP POP SWAP2 DUP4 MSTORE POP POP PUSH1 0x2 DUP3 ADD SLOAD PUSH1 0xFF DUP1 DUP3 AND PUSH1 0x20 DUP5 ADD MSTORE PUSH1 0x1 PUSH1 0x1 PUSH1 0xA0 SHL SUB PUSH2 0x100 SWAP1 SWAP3 DIV DUP3 AND PUSH1 0x40 DUP5 ADD MSTORE PUSH1 0x3 DUP5 ADD SLOAD SWAP2 DUP3 AND PUSH1 0x60 DUP5 ADD MSTORE PUSH1 0x80 SWAP1 SWAP3 ADD SWAP2 PUSH1 0x1 PUSH1 0xA0 SHL SWAP1 SWAP2 DIV AND PUSH1 0x1 DUP2 GT ISZERO PUSH2 0x15C8 JUMPI PUSH2 0x15C8 PUSH2 0x3EE3 JUMP JUMPDEST PUSH1 0x1 DUP2 GT ISZERO PUSH2 0x15D9 JUMPI PUSH2 0x15D9 PUSH2 0x3EE3 JUMP JUMPDEST DUP2 MSTORE PUSH1 0x20 ADD PUSH1 0x4 DUP3 ADD SLOAD DUP2 MSTORE PUSH1 0x20 ADD PUSH1 0x5 DUP3 ADD SLOAD DUP2 MSTORE PUSH1 0x20 ADD PUSH1 0x6 DUP3 ADD SLOAD DUP2 MSTORE PUSH1 0x20 ADD PUSH1 0x7 DUP3 ADD SLOAD DUP2 MSTORE PUSH1 0x20 ADD PUSH1 0x8 DUP3 ADD PUSH0 SWAP1 SLOAD SWAP1 PUSH2 0x100 EXP SWAP1 DIV PUSH1 0x1 PUSH1 0x1 PUSH1 0xA0 SHL SUB AND PUSH1 0x1 PUSH1 0x1 PUSH1 0xA0 SHL SUB AND PUSH1 0x1 PUSH1 0x1 PUSH1 0xA0 SHL SUB AND DUP2 MSTORE POP POP SWAP1 POP PUSH0 PUSH1 0xA PUSH0 DUP4 PUSH1 0x60 ADD MLOAD PUSH1 0x1 PUSH1 0x1 PUSH1 0xA0 SHL SUB AND PUSH1 0x1 PUSH1 0x1 PUSH1 0xA0 SHL SUB AND DUP2 MSTORE PUSH1 0x20 ADD SWAP1 DUP2 MSTORE PUSH1 0x20 ADD PUSH0 KECCAK256 DUP1 SLOAD SWAP1 POP SWAP1 POP PUSH1 0x40 MLOAD DUP1 PUSH2 0x140 ADD PUSH1 0x40 MSTORE DUP1 DUP6 DUP2 MSTORE PUSH1 0x20 ADD DUP4 PUSH0 ADD MLOAD DUP2 MSTORE PUSH1 0x20 ADD DUP4 PUSH1 0x20 ADD MLOAD DUP2 MSTORE PUSH1 0x20 ADD DUP4 PUSH1 0x60 ADD MLOAD PUSH1 0x1 PUSH1 0x1 PUSH1 0xA0 SHL SUB AND DUP2 MSTORE PUSH1 0x20 ADD DUP4 PUSH1 0x80 ADD MLOAD PUSH1 0x1 PUSH1 0x1 PUSH1 0xA0 SHL SUB AND DUP2 MSTORE PUSH1 0x20 ADD DUP4 PUSH1 0xC0 ADD MLOAD DUP2 MSTORE PUSH1 0x20 ADD DUP4 PUSH1 0xE0 ADD MLOAD DUP2 MSTORE PUSH1 0x20 ADD DUP4 PUSH1 0xA0 ADD MLOAD PUSH1 0x1 DUP2 GT ISZERO PUSH2 0x16D8 JUMPI PUSH2 0x16D8 PUSH2 0x3EE3 JUMP JUMPDEST DUP2 MSTORE PUSH2 0x100 SWAP1 SWAP4 ADD MLOAD PUSH1 0x20 DUP5 ADD MSTORE PUSH1 0x40 SWAP1 SWAP3 ADD MSTORE SWAP3 SWAP2 POP POP JUMP JUMPDEST PUSH0 PUSH2 0x16FC DUP5 PUSH2 0x1E3D JUMP JUMPDEST SWAP1 POP PUSH2 0x1709 DUP2 DUP5 DUP5 PUSH2 0x2C52 JUMP JUMPDEST PUSH2 0x73E JUMPI PUSH1 0x40 MLOAD PUSH4 0x79CACFF1 PUSH1 0xE0 SHL DUP2 MSTORE PUSH1 0x4 ADD PUSH1 0x40 MLOAD DUP1 SWAP2 SUB SWAP1 REVERT JUMPDEST PUSH1 0x6 SLOAD ISZERO DUP1 ISZERO PUSH2 0x175E JUMPI PUSH0 SLOAD PUSH1 0x1 PUSH1 0x1 PUSH1 0xA0 SHL SUB AND CALLER EQ PUSH2 0x175A JUMPI PUSH1 0x40 MLOAD PUSH4 0x564B3529 PUSH1 0xE1 SHL DUP2 MSTORE PUSH1 0x4 ADD PUSH1 0x40 MLOAD DUP1 SWAP2 SUB SWAP1 REVERT JUMPDEST PUSH0 SWAP6 POP JUMPDEST PUSH1 0x1 PUSH1 0x1 PUSH1 0xA0 SHL SUB DUP8 AND PUSH0 SWAP1 DUP2 MSTORE PUSH1 0x9 PUSH1 0x20 MSTORE PUSH1 0x40 SWAP1 KECCAK256 SLOAD DUP8 SWAP1 DUP1 ISZERO DUP1 ISZERO SWAP1 PUSH2 0x1788 JUMPI POP PUSH1 0x6 SLOAD ISZERO ISZERO JUMPDEST ISZERO PUSH2 0x17B6 JUMPI PUSH1 0x40 MLOAD PUSH4 0x15EF3A57 PUSH1 0xE0 SHL DUP2 MSTORE PUSH1 0x1 PUSH1 0x1 PUSH1 0xA0 SHL SUB DUP4 AND PUSH1 0x4 DUP3 ADD MSTORE PUSH1 0x24 ADD JUMPDEST PUSH1 0x40 MLOAD DUP1 SWAP2 SUB SWAP1 REVERT JUMPDEST PUSH1 0x6 SLOAD PUSH3 0xF4240 GT PUSH2 0x17DB JUMPI PUSH1 0x40 MLOAD PUSH4 0x53BB24F9 PUSH1 0xE0 SHL DUP2 MSTORE PUSH1 0x4 ADD PUSH1 0x40 MLOAD DUP1 SWAP2 SUB SWAP1 REVERT JUMPDEST PUSH0 DUP1 DUP10 PUSH1 0x1 DUP2 GT ISZERO PUSH2 0x17EF JUMPI PUSH2 0x17EF PUSH2 0x3EE3 JUMP JUMPDEST SUB PUSH2 0x1814 JUMPI DUP4 PUSH2 0x1809 JUMPI PUSH2 0x1802 DUP6 PUSH2 0x2D12 JUMP JUMPDEST SWAP1 POP PUSH2 0x1814 JUMP JUMPDEST POP PUSH8 0xDE0B6B3A7640000 JUMPDEST PUSH2 0x181C PUSH2 0x2D47 JUMP JUMPDEST PUSH2 0x124B DUP4 DUP3 DUP12 DUP10 DUP13 DUP13 PUSH2 0x2FC3 JUMP JUMPDEST PUSH0 DUP1 PUSH2 0x1839 DUP5 PUSH1 0x20 ADD MLOAD PUSH2 0x1E3D JUMP JUMPDEST SWAP1 POP DUP4 PUSH1 0x40 ADD MLOAD ISZERO PUSH2 0x1869 JUMPI PUSH2 0x1857 DUP2 DUP6 PUSH0 ADD MLOAD DUP7 PUSH1 0xA0 ADD MLOAD PUSH2 0x3409 JUMP JUMPDEST PUSH2 0x1864 JUMPI PUSH0 SWAP2 POP POP PUSH2 0x63C JUMP JUMPDEST PUSH2 0x1888 JUMP JUMPDEST PUSH2 0x187B DUP2 DUP6 PUSH0 ADD MLOAD DUP7 PUSH1 0xA0 ADD MLOAD PUSH2 0x34B8 JUMP JUMPDEST PUSH2 0x1888 JUMPI PUSH0 SWAP2 POP POP PUSH2 0x63C JUMP JUMPDEST PUSH2 0x1892 DUP5 DUP5 PUSH2 0x2AB1 JUMP JUMPDEST PUSH1 0x40 DUP5 DUP2 ADD MLOAD DUP6 MLOAD DUP3 MLOAD DUP7 DUP2 MSTORE SWAP2 ISZERO ISZERO PUSH1 0x20 DUP4 ADD MSTORE PUSH1 0x1 PUSH1 0x1 PUSH1 0xA0 SHL SUB AND DUP2 DUP4 ADD MSTORE SWAP1 MLOAD PUSH32 0x3D8DA260C5E35DCBA4A38C844B979A7C70C6FDBED58BE53DA6E817EF6A2541E0 SWAP2 DUP2 SWAP1 SUB PUSH1 0x60 ADD SWAP1 LOG1 POP PUSH1 0x1 SWAP4 SWAP3 POP POP POP JUMP JUMPDEST PUSH0 DUP1 PUSH2 0x18F4 PUSH2 0x3D02 JUMP JUMPDEST PUSH1 0x1 PUSH1 0x1 PUSH1 0xA0 SHL SUB DUP6 AND PUSH0 SWAP1 DUP2 MSTORE PUSH1 0xA PUSH1 0x20 MSTORE PUSH1 0x40 DUP2 KECCAK256 DUP1 SLOAD SWAP1 SWAP2 SWAP1 DUP2 JUMPDEST PUSH0 DUP3 GT DUP1 ISZERO PUSH2 0x191F JUMPI POP DUP3 ISZERO JUMPDEST ISZERO PUSH2 0x1A36 JUMPI PUSH2 0x192F PUSH1 0x1 DUP4 PUSH2 0x41D8 JUMP JUMPDEST SWAP1 POP PUSH0 DUP5 DUP3 DUP2 SLOAD DUP2 LT PUSH2 0x1944 JUMPI PUSH2 0x1944 PUSH2 0x41B0 JUMP JUMPDEST SWAP1 PUSH0 MSTORE PUSH1 0x20 PUSH0 KECCAK256 ADD SLOAD SWAP1 POP PUSH1 0x7 DUP2 DUP2 SLOAD DUP2 LT PUSH2 0x1962 JUMPI PUSH2 0x1962 PUSH2 0x41B0 JUMP JUMPDEST PUSH0 SWAP2 DUP3 MSTORE PUSH1 0x20 SWAP2 DUP3 SWAP1 KECCAK256 PUSH1 0x40 DUP1 MLOAD PUSH2 0x120 DUP2 ADD DUP3 MSTORE PUSH1 0x8 SWAP4 SWAP1 SWAP4 MUL SWAP1 SWAP2 ADD DUP1 SLOAD PUSH1 0x1 PUSH1 0x1 PUSH1 0xA0 SHL SUB SWAP1 DUP2 AND DUP5 MSTORE PUSH1 0x1 DUP3 ADD SLOAD SWAP1 DUP2 AND SWAP5 DUP5 ADD SWAP5 SWAP1 SWAP5 MSTORE PUSH1 0x1 PUSH1 0xA0 SHL SWAP1 SWAP4 DIV PUSH1 0xFF AND ISZERO ISZERO SWAP1 DUP3 ADD MSTORE PUSH1 0x2 DUP3 ADD SLOAD PUSH1 0x60 DUP3 ADD MSTORE PUSH1 0x3 DUP3 ADD SLOAD PUSH1 0x80 DUP3 ADD MSTORE PUSH1 0x4 DUP3 ADD SLOAD PUSH1 0xA0 DUP3 ADD MSTORE PUSH1 0x5 DUP3 ADD SLOAD PUSH1 0xC0 DUP3 ADD DUP2 SWAP1 MSTORE PUSH1 0x6 DUP4 ADD SLOAD PUSH1 0xE0 DUP4 ADD MSTORE PUSH1 0x7 SWAP1 SWAP3 ADD SLOAD PUSH2 0x100 DUP3 ADD MSTORE SWAP7 POP DUP10 SWAP1 SUB PUSH2 0x1A04 JUMPI PUSH1 0x1 SWAP4 POP DUP1 SWAP7 POP PUSH2 0x1A23 JUMP JUMPDEST DUP4 ISZERO DUP1 ISZERO PUSH2 0x1A16 JUMPI POP DUP9 DUP7 PUSH1 0xC0 ADD MLOAD LT ISZERO JUMPDEST ISZERO PUSH2 0x1A23 JUMPI PUSH1 0x1 SWAP4 POP DUP1 SWAP7 POP JUMPDEST POP DUP2 PUSH2 0x1A2E DUP2 PUSH2 0x4203 JUMP JUMPDEST SWAP3 POP POP PUSH2 0x1912 JUMP JUMPDEST POP SWAP1 SWAP5 POP POP POP POP SWAP3 POP SWAP3 SWAP1 POP JUMP JUMPDEST PUSH0 PUSH2 0x1A4E DUP3 PUSH2 0x1E3D JUMP JUMPDEST SWAP1 POP PUSH1 0x7 DUP5 DUP2 SLOAD DUP2 LT PUSH2 0x1A63 JUMPI PUSH2 0x1A63 PUSH2 0x41B0 JUMP JUMPDEST PUSH0 SWAP2 DUP3 MSTORE PUSH1 0x20 SWAP1 SWAP2 KECCAK256 PUSH1 0x8 SWAP1 SWAP2 MUL ADD PUSH1 0x4 DUP2 ADD SLOAD PUSH1 0x5 DUP3 ADD SLOAD DUP3 SLOAD PUSH1 0x40 DUP6 ADD MLOAD SWAP4 SWAP10 POP SWAP2 SWAP3 SWAP1 SWAP2 DUP7 DUP4 EQ DUP1 ISZERO SWAP3 PUSH1 0x1 PUSH1 0x1 PUSH1 0xA0 SHL SUB SWAP1 SWAP3 AND SWAP2 PUSH1 0x1 SWAP2 DUP10 SWAP2 SWAP1 PUSH2 0x1AF7 JUMPI DUP12 ISZERO PUSH2 0x1AD9 JUMPI PUSH0 PUSH2 0x1AB7 DUP8 DUP4 PUSH2 0x35F0 JUMP JUMPDEST SWAP1 POP PUSH0 PUSH2 0x1AC4 DUP13 DUP5 PUSH2 0x35F0 JUMP JUMPDEST SWAP1 POP PUSH2 0x1AD0 DUP2 DUP4 PUSH2 0x361B JUMP JUMPDEST SWAP5 POP POP POP PUSH2 0x1AE6 JUMP JUMPDEST PUSH2 0x1AE3 DUP11 DUP8 PUSH2 0x361B JUMP JUMPDEST SWAP3 POP JUMPDEST PUSH2 0x1AF4 DUP14 PUSH1 0x4 ADD SLOAD DUP5 PUSH2 0x3626 JUMP JUMPDEST SWAP7 POP JUMPDEST PUSH2 0x1BC1 DUP14 PUSH1 0x40 MLOAD DUP1 PUSH2 0x120 ADD PUSH1 0x40 MSTORE SWAP1 DUP2 PUSH0 DUP3 ADD PUSH0 SWAP1 SLOAD SWAP1 PUSH2 0x100 EXP SWAP1 DIV PUSH1 0x1 PUSH1 0x1 PUSH1 0xA0 SHL SUB AND PUSH1 0x1 PUSH1 0x1 PUSH1 0xA0 SHL SUB AND PUSH1 0x1 PUSH1 0x1 PUSH1 0xA0 SHL SUB AND DUP2 MSTORE PUSH1 0x20 ADD PUSH1 0x1 DUP3 ADD PUSH0 SWAP1 SLOAD SWAP1 PUSH2 0x100 EXP SWAP1 DIV PUSH1 0x1 PUSH1 0x1 PUSH1 0xA0 SHL SUB AND PUSH1 0x1 PUSH1 0x1 PUSH1 0xA0 SHL SUB AND PUSH1 0x1 PUSH1 0x1 PUSH1 0xA0 SHL SUB AND DUP2 MSTORE PUSH1 0x20 ADD PUSH1 0x1 DUP3 ADD PUSH1 0x14 SWAP1 SLOAD SWAP1 PUSH2 0x100 EXP SWAP1 DIV PUSH1 0xFF AND ISZERO ISZERO ISZERO ISZERO DUP2 MSTORE PUSH1 0x20 ADD PUSH1 0x2 DUP3 ADD SLOAD DUP2 MSTORE PUSH1 0x20 ADD PUSH1 0x3 DUP3 ADD SLOAD DUP2 MSTORE PUSH1 0x20 ADD PUSH1 0x4 DUP3 ADD SLOAD DUP2 MSTORE PUSH1 0x20 ADD PUSH1 0x5 DUP3 ADD SLOAD DUP2 MSTORE PUSH1 0x20 ADD PUSH1 0x6 DUP3 ADD SLOAD DUP2 MSTORE PUSH1 0x20 ADD PUSH1 0x7 DUP3 ADD SLOAD DUP2 MSTORE POP POP DUP10 DUP5 DUP11 PUSH2 0x3631 JUMP JUMPDEST PUSH0 DUP13 PUSH2 0x1BCD JUMPI DUP8 PUSH2 0x1BCF JUMP JUMPDEST DUP3 JUMPDEST SWAP1 POP DUP6 ISZERO PUSH2 0x1C0F JUMPI DUP11 DUP15 PUSH1 0x5 ADD PUSH0 DUP3 DUP3 SLOAD PUSH2 0x1BEA SWAP2 SWAP1 PUSH2 0x41D8 JUMP JUMPDEST SWAP3 POP POP DUP2 SWAP1 SSTORE POP DUP8 DUP15 PUSH1 0x4 ADD PUSH0 DUP3 DUP3 SLOAD PUSH2 0x1C04 SWAP2 SWAP1 PUSH2 0x41D8 JUMP JUMPDEST SWAP1 SWAP2 SSTORE POP PUSH2 0x1CD7 SWAP1 POP JUMP JUMPDEST PUSH2 0x1CD7 DUP15 PUSH1 0x40 MLOAD DUP1 PUSH2 0x120 ADD PUSH1 0x40 MSTORE SWAP1 DUP2 PUSH0 DUP3 ADD PUSH0 SWAP1 SLOAD SWAP1 PUSH2 0x100 EXP SWAP1 DIV PUSH1 0x1 PUSH1 0x1 PUSH1 0xA0 SHL SUB AND PUSH1 0x1 PUSH1 0x1 PUSH1 0xA0 SHL SUB AND PUSH1 0x1 PUSH1 0x1 PUSH1 0xA0 SHL SUB AND DUP2 MSTORE PUSH1 0x20 ADD PUSH1 0x1 DUP3 ADD PUSH0 SWAP1 SLOAD SWAP1 PUSH2 0x100 EXP SWAP1 DIV PUSH1 0x1 PUSH1 0x1 PUSH1 0xA0 SHL SUB AND PUSH1 0x1 PUSH1 0x1 PUSH1 0xA0 SHL SUB AND PUSH1 0x1 PUSH1 0x1 PUSH1 0xA0 SHL SUB AND DUP2 MSTORE PUSH1 0x20 ADD PUSH1 0x1 DUP3 ADD PUSH1 0x14 SWAP1 SLOAD SWAP1 PUSH2 0x100 EXP SWAP1 DIV PUSH1 0xFF AND ISZERO ISZERO ISZERO ISZERO DUP2 MSTORE PUSH1 0x20 ADD PUSH1 0x2 DUP3 ADD SLOAD DUP2 MSTORE PUSH1 0x20 ADD PUSH1 0x3 DUP3 ADD SLOAD DUP2 MSTORE PUSH1 0x20 ADD PUSH1 0x4 DUP3 ADD SLOAD DUP2 MSTORE PUSH1 0x20 ADD PUSH1 0x5 DUP3 ADD SLOAD DUP2 MSTORE PUSH1 0x20 ADD PUSH1 0x6 DUP3 ADD SLOAD DUP2 MSTORE PUSH1 0x20 ADD PUSH1 0x7 DUP3 ADD SLOAD DUP2 MSTORE POP POP DUP14 PUSH2 0x2AB1 JUMP JUMPDEST PUSH2 0x1CE1 DUP10 DUP3 PUSH2 0x36AC JUMP JUMPDEST PUSH1 0x40 DUP1 MLOAD DUP14 DUP2 MSTORE DUP15 ISZERO ISZERO PUSH1 0x20 DUP3 ADD MSTORE PUSH1 0x1 PUSH1 0x1 PUSH1 0xA0 SHL SUB DUP8 DUP2 AND DUP3 DUP5 ADD MSTORE CALLER PUSH1 0x60 DUP4 ADD MSTORE DUP13 AND PUSH1 0x80 DUP3 ADD MSTORE PUSH1 0xA0 DUP2 ADD DUP6 SWAP1 MSTORE DUP8 ISZERO ISZERO PUSH1 0xC0 DUP3 ADD MSTORE SWAP1 MLOAD PUSH32 0xD18715C1E0D5B06959A9B12A3C5D857CE3698A58F6AC5BC7726BD7DF86476F40 SWAP2 DUP2 SWAP1 SUB PUSH1 0xE0 ADD SWAP1 LOG1 POP POP POP POP POP POP POP POP POP POP POP POP POP POP JUMP JUMPDEST PUSH0 SLOAD PUSH1 0x1 PUSH1 0x1 PUSH1 0xA0 SHL SUB AND CALLER EQ PUSH2 0x1D83 JUMPI PUSH1 0x40 MLOAD PUSH4 0x32B2BAA3 PUSH1 0xE0 SHL DUP2 MSTORE CALLER PUSH1 0x4 DUP3 ADD MSTORE PUSH1 0x24 ADD PUSH2 0x17AD JUMP JUMPDEST JUMP JUMPDEST PUSH1 0xD SLOAD ISZERO DUP1 ISZERO SWAP1 PUSH2 0x1DA3 JUMPI POP PUSH1 0xF0 PUSH1 0xD SLOAD TIMESTAMP PUSH2 0x1DA1 SWAP2 SWAP1 PUSH2 0x41D8 JUMP JUMPDEST LT JUMPDEST ISZERO PUSH2 0x1DAA JUMPI JUMP JUMPDEST PUSH1 0xE SLOAD PUSH1 0x40 DUP1 MLOAD PUSH4 0x4C6AFEE5 PUSH1 0xE1 SHL DUP2 MSTORE SWAP1 MLOAD PUSH0 SWAP3 PUSH1 0x1 PUSH1 0x1 PUSH1 0xA0 SHL SUB AND SWAP2 PUSH4 0x98D5FDCA SWAP2 PUSH1 0x4 DUP1 DUP4 ADD SWAP3 DUP7 SWAP3 SWAP2 SWAP1 DUP3 SWAP1 SUB ADD DUP2 DUP7 GAS STATICCALL ISZERO DUP1 ISZERO PUSH2 0x1DF0 JUMPI RETURNDATASIZE PUSH0 DUP1 RETURNDATACOPY RETURNDATASIZE PUSH0 REVERT JUMPDEST POP POP POP POP PUSH1 0x40 MLOAD RETURNDATASIZE PUSH0 DUP3 RETURNDATACOPY PUSH1 0x1F RETURNDATASIZE SWAP1 DUP2 ADD PUSH1 0x1F NOT AND DUP3 ADD PUSH1 0x40 MSTORE PUSH2 0x1E17 SWAP2 SWAP1 DUP2 ADD SWAP1 PUSH2 0x427A JUMP JUMPDEST SWAP1 POP PUSH0 DUP1 PUSH2 0x1E24 DUP4 PUSH2 0x373B JUMP JUMPDEST SWAP2 POP SWAP2 POP DUP1 ISZERO PUSH2 0x1E34 JUMPI PUSH1 0xC DUP3 SWAP1 SSTORE JUMPDEST POP POP TIMESTAMP PUSH1 0xD SSTORE POP JUMP JUMPDEST PUSH2 0x1E9D PUSH1 0x40 DUP1 MLOAD PUSH2 0x160 DUP2 ADD DUP3 MSTORE PUSH1 0x60 DUP1 DUP3 MSTORE PUSH1 0x20 DUP3 ADD DUP2 SWAP1 MSTORE PUSH0 SWAP3 DUP3 ADD DUP4 SWAP1 MSTORE DUP2 ADD DUP3 SWAP1 MSTORE PUSH1 0x80 DUP2 ADD DUP3 SWAP1 MSTORE SWAP1 PUSH1 0xA0 DUP3 ADD SWAP1 DUP2 MSTORE PUSH1 0x20 ADD PUSH0 DUP2 MSTORE PUSH1 0x20 ADD PUSH0 DUP2 MSTORE PUSH1 0x20 ADD PUSH0 DUP2 MSTORE PUSH1 0x20 ADD PUSH0 DUP2 MSTORE PUSH1 0x20 ADD PUSH0 PUSH1 0x1 PUSH1 0x1 PUSH1 0xA0 SHL SUB AND DUP2 MSTORE POP SWAP1 JUMP JUMPDEST PUSH1 0x1 PUSH1 0x1 PUSH1 0xA0 SHL SUB DUP3 AND PUSH0 SWAP1 DUP2 MSTORE PUSH1 0x9 PUSH1 0x20 MSTORE PUSH1 0x40 SWAP1 KECCAK256 SLOAD DUP1 ISZERO DUP1 PUSH2 0x1EC3 JUMPI POP PUSH1 0x6 SLOAD DUP2 GT JUMPDEST ISZERO PUSH2 0x1EE1 JUMPI PUSH1 0x40 MLOAD PUSH4 0x62F850F7 PUSH1 0xE1 SHL DUP2 MSTORE PUSH1 0x4 ADD PUSH1 0x40 MLOAD DUP1 SWAP2 SUB SWAP1 REVERT JUMPDEST PUSH1 0x6 PUSH2 0x1EEE PUSH1 0x1 DUP4 PUSH2 0x41D8 JUMP JUMPDEST DUP2 SLOAD DUP2 LT PUSH2 0x1EFE JUMPI PUSH2 0x1EFE PUSH2 0x41B0 JUMP JUMPDEST SWAP1 PUSH0 MSTORE PUSH1 0x20 PUSH0 KECCAK256 SWAP1 PUSH1 0x9 MUL ADD PUSH1 0x40 MLOAD DUP1 PUSH2 0x160 ADD PUSH1 0x40 MSTORE SWAP1 DUP2 PUSH0 DUP3 ADD DUP1 SLOAD PUSH2 0x1F25 SWAP1 PUSH2 0x4242 JUMP JUMPDEST DUP1 PUSH1 0x1F ADD PUSH1 0x20 DUP1 SWAP2 DIV MUL PUSH1 0x20 ADD PUSH1 0x40 MLOAD SWAP1 DUP2 ADD PUSH1 0x40 MSTORE DUP1 SWAP3 SWAP2 SWAP1 DUP2 DUP2 MSTORE PUSH1 0x20 ADD DUP3 DUP1 SLOAD PUSH2 0x1F51 SWAP1 PUSH2 0x4242 JUMP JUMPDEST DUP1 ISZERO PUSH2 0x1F9C JUMPI DUP1 PUSH1 0x1F LT PUSH2 0x1F73 JUMPI PUSH2 0x100 DUP1 DUP4 SLOAD DIV MUL DUP4 MSTORE SWAP2 PUSH1 0x20 ADD SWAP2 PUSH2 0x1F9C JUMP JUMPDEST DUP3 ADD SWAP2 SWAP1 PUSH0 MSTORE PUSH1 0x20 PUSH0 KECCAK256 SWAP1 JUMPDEST DUP2 SLOAD DUP2 MSTORE SWAP1 PUSH1 0x1 ADD SWAP1 PUSH1 0x20 ADD DUP1 DUP4 GT PUSH2 0x1F7F JUMPI DUP3 SWAP1 SUB PUSH1 0x1F AND DUP3 ADD SWAP2 JUMPDEST POP POP POP POP POP DUP2 MSTORE PUSH1 0x20 ADD PUSH1 0x1 DUP3 ADD DUP1 SLOAD PUSH2 0x1FB5 SWAP1 PUSH2 0x4242 JUMP JUMPDEST DUP1 PUSH1 0x1F ADD PUSH1 0x20 DUP1 SWAP2 DIV MUL PUSH1 0x20 ADD PUSH1 0x40 MLOAD SWAP1 DUP2 ADD PUSH1 0x40 MSTORE DUP1 SWAP3 SWAP2 SWAP1 DUP2 DUP2 MSTORE PUSH1 0x20 ADD DUP3 DUP1 SLOAD PUSH2 0x1FE1 SWAP1 PUSH2 0x4242 JUMP JUMPDEST DUP1 ISZERO PUSH2 0x202C JUMPI DUP1 PUSH1 0x1F LT PUSH2 0x2003 JUMPI PUSH2 0x100 DUP1 DUP4 SLOAD DIV MUL DUP4 MSTORE SWAP2 PUSH1 0x20 ADD SWAP2 PUSH2 0x202C JUMP JUMPDEST DUP3 ADD SWAP2 SWAP1 PUSH0 MSTORE PUSH1 0x20 PUSH0 KECCAK256 SWAP1 JUMPDEST DUP2 SLOAD DUP2 MSTORE SWAP1 PUSH1 0x1 ADD SWAP1 PUSH1 0x20 ADD DUP1 DUP4 GT PUSH2 0x200F JUMPI DUP3 SWAP1 SUB PUSH1 0x1F AND DUP3 ADD SWAP2 JUMPDEST POP POP POP SWAP2 DUP4 MSTORE POP POP PUSH1 0x2 DUP3 ADD SLOAD PUSH1 0xFF DUP1 DUP3 AND PUSH1 0x20 DUP5 ADD MSTORE PUSH1 0x1 PUSH1 0x1 PUSH1 0xA0 SHL SUB PUSH2 0x100 SWAP1 SWAP3 DIV DUP3 AND PUSH1 0x40 DUP5 ADD MSTORE PUSH1 0x3 DUP5 ADD SLOAD SWAP2 DUP3 AND PUSH1 0x60 DUP5 ADD MSTORE PUSH1 0x80 SWAP1 SWAP3 ADD SWAP2 PUSH1 0x1 PUSH1 0xA0 SHL SWAP1 SWAP2 DIV AND PUSH1 0x1 DUP2 GT ISZERO PUSH2 0x2085 JUMPI PUSH2 0x2085 PUSH2 0x3EE3 JUMP JUMPDEST PUSH1 0x1 DUP2 GT ISZERO PUSH2 0x2096 JUMPI PUSH2 0x2096 PUSH2 0x3EE3 JUMP JUMPDEST DUP2 MSTORE PUSH1 0x4 DUP3 ADD SLOAD PUSH1 0x20 DUP3 ADD MSTORE PUSH1 0x5 DUP3 ADD SLOAD PUSH1 0x40 DUP3 ADD MSTORE PUSH1 0x6 DUP3 ADD SLOAD PUSH1 0x60 DUP3 ADD MSTORE PUSH1 0x7 DUP3 ADD SLOAD PUSH1 0x80 DUP3 ADD MSTORE PUSH1 0x8 SWAP1 SWAP2 ADD SLOAD PUSH1 0x1 PUSH1 0x1 PUSH1 0xA0 SHL SUB AND PUSH1 0xA0 SWAP1 SWAP2 ADD MSTORE SWAP4 SWAP3 POP POP POP JUMP JUMPDEST PUSH1 0x1 PUSH1 0x1 PUSH1 0xA0 SHL SUB DUP2 AND PUSH0 SWAP1 DUP2 MSTORE PUSH1 0x9 PUSH1 0x20 MSTORE PUSH1 0x40 DUP2 KECCAK256 SLOAD DUP1 ISZERO DUP1 PUSH2 0x2102 JUMPI POP PUSH1 0x6 SLOAD DUP2 GT JUMPDEST ISZERO PUSH2 0x2120 JUMPI PUSH1 0x40 MLOAD PUSH4 0x62F850F7 PUSH1 0xE1 SHL DUP2 MSTORE PUSH1 0x4 ADD PUSH1 0x40 MLOAD DUP1 SWAP2 SUB SWAP1 REVERT JUMPDEST PUSH1 0x6 PUSH2 0x212D PUSH1 0x1 DUP4 PUSH2 0x41D8 JUMP JUMPDEST DUP2 SLOAD DUP2 LT PUSH2 0x213D JUMPI PUSH2 0x213D PUSH2 0x41B0 JUMP JUMPDEST SWAP1 PUSH0 MSTORE PUSH1 0x20 PUSH0 KECCAK256 SWAP1 PUSH1 0x9 MUL ADD SWAP2 POP POP SWAP2 SWAP1 POP JUMP JUMPDEST PUSH0 DUP1 PUSH2 0x215E DUP6 DUP6 DUP6 PUSH2 0x2C52 JUMP JUMPDEST SWAP1 POP DUP1 ISZERO PUSH2 0x2197 JUMPI PUSH1 0x60 DUP6 ADD MLOAD PUSH1 0x1 PUSH1 0x1 PUSH1 0xA0 SHL SUB AND PUSH0 SWAP1 DUP2 MSTORE PUSH1 0x3 PUSH1 0x20 MSTORE PUSH1 0x40 DUP2 KECCAK256 DUP1 SLOAD DUP6 SWAP3 SWAP1 PUSH2 0x2191 SWAP1 DUP5 SWAP1 PUSH2 0x4218 JUMP JUMPDEST SWAP1 SWAP2 SSTORE POP POP JUMPDEST SWAP5 SWAP4 POP POP POP POP JUMP JUMPDEST PUSH0 DUP1 PUSH1 0x3 DUP6 ADD SLOAD PUSH1 0x1 PUSH1 0xA0 SHL SWAP1 DIV PUSH1 0xFF AND PUSH1 0x1 DUP2 GT ISZERO PUSH2 0x21C1 JUMPI PUSH2 0x21C1 PUSH2 0x3EE3 JUMP JUMPDEST SUB PUSH2 0x21E5 JUMPI PUSH2 0x21CE PUSH2 0x1D85 JUMP JUMPDEST PUSH2 0x21DE PUSH1 0xC SLOAD DUP6 PUSH1 0x6 ADD SLOAD PUSH2 0x361B JUMP JUMPDEST SWAP1 POP PUSH2 0x256D JUMP JUMPDEST PUSH1 0x1 PUSH1 0x3 DUP6 ADD SLOAD PUSH1 0x1 PUSH1 0xA0 SHL SWAP1 DIV PUSH1 0xFF AND PUSH1 0x1 DUP2 GT ISZERO PUSH2 0x2207 JUMPI PUSH2 0x2207 PUSH2 0x3EE3 JUMP JUMPDEST SUB PUSH2 0x256D JUMPI PUSH0 DUP5 PUSH1 0x7 ADD SLOAD PUSH0 EQ DUP1 PUSH2 0x222F JUMPI POP PUSH1 0xF0 DUP6 PUSH1 0x7 ADD SLOAD TIMESTAMP PUSH2 0x222C SWAP2 SWAP1 PUSH2 0x41D8 JUMP JUMPDEST LT ISZERO JUMPDEST SWAP1 POP DUP1 ISZERO PUSH2 0x2563 JUMPI PUSH0 PUSH1 0x6 PUSH0 DUP2 SLOAD DUP2 LT PUSH2 0x224B JUMPI PUSH2 0x224B PUSH2 0x41B0 JUMP JUMPDEST SWAP1 PUSH0 MSTORE PUSH1 0x20 PUSH0 KECCAK256 SWAP1 PUSH1 0x9 MUL ADD PUSH1 0x40 MLOAD DUP1 PUSH2 0x160 ADD PUSH1 0x40 MSTORE SWAP1 DUP2 PUSH0 DUP3 ADD DUP1 SLOAD PUSH2 0x2272 SWAP1 PUSH2 0x4242 JUMP JUMPDEST DUP1 PUSH1 0x1F ADD PUSH1 0x20 DUP1 SWAP2 DIV MUL PUSH1 0x20 ADD PUSH1 0x40 MLOAD SWAP1 DUP2 ADD PUSH1 0x40 MSTORE DUP1 SWAP3 SWAP2 SWAP1 DUP2 DUP2 MSTORE PUSH1 0x20 ADD DUP3 DUP1 SLOAD PUSH2 0x229E SWAP1 PUSH2 0x4242 JUMP JUMPDEST DUP1 ISZERO PUSH2 0x22E9 JUMPI DUP1 PUSH1 0x1F LT PUSH2 0x22C0 JUMPI PUSH2 0x100 DUP1 DUP4 SLOAD DIV MUL DUP4 MSTORE SWAP2 PUSH1 0x20 ADD SWAP2 PUSH2 0x22E9 JUMP JUMPDEST DUP3 ADD SWAP2 SWAP1 PUSH0 MSTORE PUSH1 0x20 PUSH0 KECCAK256 SWAP1 JUMPDEST DUP2 SLOAD DUP2 MSTORE SWAP1 PUSH1 0x1 ADD SWAP1 PUSH1 0x20 ADD DUP1 DUP4 GT PUSH2 0x22CC JUMPI DUP3 SWAP1 SUB PUSH1 0x1F AND DUP3 ADD SWAP2 JUMPDEST POP POP POP POP POP DUP2 MSTORE PUSH1 0x20 ADD PUSH1 0x1 DUP3 ADD DUP1 SLOAD PUSH2 0x2302 SWAP1 PUSH2 0x4242 JUMP JUMPDEST DUP1 PUSH1 0x1F ADD PUSH1 0x20 DUP1 SWAP2 DIV MUL PUSH1 0x20 ADD PUSH1 0x40 MLOAD SWAP1 DUP2 ADD PUSH1 0x40 MSTORE DUP1 SWAP3 SWAP2 SWAP1 DUP2 DUP2 MSTORE PUSH1 0x20 ADD DUP3 DUP1 SLOAD PUSH2 0x232E SWAP1 PUSH2 0x4242 JUMP JUMPDEST DUP1 ISZERO PUSH2 0x2379 JUMPI DUP1 PUSH1 0x1F LT PUSH2 0x2350 JUMPI PUSH2 0x100 DUP1 DUP4 SLOAD DIV MUL DUP4 MSTORE SWAP2 PUSH1 0x20 ADD SWAP2 PUSH2 0x2379 JUMP JUMPDEST DUP3 ADD SWAP2 SWAP1 PUSH0 MSTORE PUSH1 0x20 PUSH0 KECCAK256 SWAP1 JUMPDEST DUP2 SLOAD DUP2 MSTORE SWAP1 PUSH1 0x1 ADD SWAP1 PUSH1 0x20 ADD DUP1 DUP4 GT PUSH2 0x235C JUMPI DUP3 SWAP1 SUB PUSH1 0x1F AND DUP3 ADD SWAP2 JUMPDEST POP POP POP SWAP2 DUP4 MSTORE POP POP PUSH1 0x2 DUP3 ADD SLOAD PUSH1 0xFF DUP1 DUP3 AND PUSH1 0x20 DUP5 ADD MSTORE PUSH1 0x1 PUSH1 0x1 PUSH1 0xA0 SHL SUB PUSH2 0x100 SWAP1 SWAP3 DIV DUP3 AND PUSH1 0x40 DUP5 ADD MSTORE PUSH1 0x3 DUP5 ADD SLOAD SWAP2 DUP3 AND PUSH1 0x60 DUP5 ADD MSTORE PUSH1 0x80 SWAP1 SWAP3 ADD SWAP2 PUSH1 0x1 PUSH1 0xA0 SHL SWAP1 SWAP2 DIV AND PUSH1 0x1 DUP2 GT ISZERO PUSH2 0x23D2 JUMPI PUSH2 0x23D2 PUSH2 0x3EE3 JUMP JUMPDEST PUSH1 0x1 DUP2 GT ISZERO PUSH2 0x23E3 JUMPI PUSH2 0x23E3 PUSH2 0x3EE3 JUMP JUMPDEST DUP2 MSTORE PUSH1 0x4 DUP3 DUP2 ADD SLOAD PUSH1 0x20 DUP4 ADD MSTORE PUSH1 0x5 DUP4 ADD SLOAD PUSH1 0x40 DUP1 DUP5 ADD SWAP2 SWAP1 SWAP2 MSTORE PUSH1 0x6 DUP5 ADD SLOAD PUSH1 0x60 DUP5 ADD MSTORE PUSH1 0x7 DUP5 ADD SLOAD PUSH1 0x80 DUP5 ADD MSTORE PUSH1 0x8 SWAP4 DUP5 ADD SLOAD PUSH1 0x1 PUSH1 0x1 PUSH1 0xA0 SHL SUB SWAP1 DUP2 AND PUSH1 0xA0 SWAP1 SWAP5 ADD SWAP4 SWAP1 SWAP4 MSTORE SWAP3 DUP11 ADD SLOAD PUSH2 0x140 DUP6 ADD MLOAD PUSH1 0x3 DUP13 ADD SLOAD SWAP5 MLOAD PUSH4 0x70A08231 PUSH1 0xE0 SHL DUP2 MSTORE SWAP5 DUP5 AND SWAP3 DUP6 ADD SWAP3 SWAP1 SWAP3 MSTORE SWAP4 SWAP5 POP SWAP3 AND SWAP2 SWAP1 PUSH0 SWAP1 DUP4 SWAP1 PUSH4 0x70A08231 SWAP1 PUSH1 0x24 ADD PUSH1 0x20 PUSH1 0x40 MLOAD DUP1 DUP4 SUB DUP2 DUP7 GAS STATICCALL ISZERO DUP1 ISZERO PUSH2 0x2480 JUMPI RETURNDATASIZE PUSH0 DUP1 RETURNDATACOPY RETURNDATASIZE PUSH0 REVERT JUMPDEST POP POP POP POP PUSH1 0x40 MLOAD RETURNDATASIZE PUSH1 0x1F NOT PUSH1 0x1F DUP3 ADD AND DUP3 ADD DUP1 PUSH1 0x40 MSTORE POP DUP2 ADD SWAP1 PUSH2 0x24A4 SWAP2 SWAP1 PUSH2 0x422B JUMP JUMPDEST PUSH1 0x3 DUP11 ADD SLOAD PUSH1 0x40 MLOAD PUSH4 0x70A08231 PUSH1 0xE0 SHL DUP2 MSTORE PUSH1 0x1 PUSH1 0x1 PUSH1 0xA0 SHL SUB SWAP2 DUP3 AND PUSH1 0x4 DUP3 ADD MSTORE SWAP2 SWAP3 POP PUSH0 SWAP2 SWAP1 DUP5 AND SWAP1 PUSH4 0x70A08231 SWAP1 PUSH1 0x24 ADD PUSH1 0x20 PUSH1 0x40 MLOAD DUP1 DUP4 SUB DUP2 DUP7 GAS STATICCALL ISZERO DUP1 ISZERO PUSH2 0x24F3 JUMPI RETURNDATASIZE PUSH0 DUP1 RETURNDATACOPY RETURNDATASIZE PUSH0 REVERT JUMPDEST POP POP POP POP PUSH1 0x40 MLOAD RETURNDATASIZE PUSH1 0x1F NOT PUSH1 0x1F DUP3 ADD AND DUP3 ADD DUP1 PUSH1 0x40 MSTORE POP DUP2 ADD SWAP1 PUSH2 0x2517 SWAP2 SWAP1 PUSH2 0x422B JUMP JUMPDEST PUSH1 0x2 DUP12 ADD SLOAD SWAP1 SWAP2 POP PUSH2 0x252D SWAP1 DUP4 SWAP1 PUSH1 0xFF AND PUSH2 0x35F0 JUMP JUMPDEST SWAP2 POP PUSH2 0x253D DUP2 DUP7 PUSH1 0x40 ADD MLOAD PUSH2 0x35F0 JUMP JUMPDEST SWAP1 POP PUSH2 0x2549 DUP2 DUP4 PUSH2 0x361B JUMP JUMPDEST PUSH1 0x6 DUP12 ADD DUP2 SWAP1 SSTORE TIMESTAMP PUSH1 0x7 DUP13 ADD SSTORE SWAP7 POP PUSH2 0x256B SWAP5 POP POP POP POP POP JUMP JUMPDEST DUP5 PUSH1 0x6 ADD SLOAD SWAP2 POP JUMPDEST POP JUMPDEST PUSH0 DUP4 ISZERO PUSH2 0x2595 JUMPI PUSH2 0x258E PUSH2 0x2581 DUP5 DUP5 PUSH2 0x3626 JUMP JUMPDEST PUSH1 0x2 DUP8 ADD SLOAD PUSH1 0xFF AND PUSH2 0x386C JUMP JUMPDEST SWAP1 POP PUSH2 0x25B5 JUMP JUMPDEST PUSH1 0x2 DUP6 ADD SLOAD PUSH2 0x25B2 SWAP1 PUSH2 0x25AC SWAP1 DUP6 SWAP1 PUSH1 0xFF AND PUSH2 0x35F0 JUMP JUMPDEST DUP4 PUSH2 0x361B JUMP JUMPDEST SWAP1 POP JUMPDEST PUSH1 0x2 DUP6 ADD SLOAD PUSH2 0x100 SWAP1 DIV PUSH1 0x1 PUSH1 0x1 PUSH1 0xA0 SHL SUB AND PUSH0 SWAP1 DUP2 MSTORE PUSH1 0xA PUSH1 0x20 SWAP1 DUP2 MSTORE PUSH1 0x40 DUP1 DUP4 KECCAK256 CALLER DUP5 MSTORE PUSH1 0xB SWAP1 SWAP3 MSTORE SWAP1 SWAP2 KECCAK256 DUP2 SLOAD PUSH2 0x2710 GT PUSH2 0x2606 JUMPI PUSH1 0x40 MLOAD PUSH4 0xE4998AF PUSH1 0xE1 SHL DUP2 MSTORE PUSH1 0x4 ADD PUSH1 0x40 MLOAD DUP1 SWAP2 SUB SWAP1 REVERT JUMPDEST PUSH0 PUSH1 0x7 DUP1 SLOAD SWAP1 POP SWAP1 POP PUSH0 PUSH1 0x40 MLOAD DUP1 PUSH2 0x120 ADD PUSH1 0x40 MSTORE DUP1 CALLER PUSH1 0x1 PUSH1 0x1 PUSH1 0xA0 SHL SUB AND DUP2 MSTORE PUSH1 0x20 ADD DUP11 PUSH1 0x2 ADD PUSH1 0x1 SWAP1 SLOAD SWAP1 PUSH2 0x100 EXP SWAP1 DIV PUSH1 0x1 PUSH1 0x1 PUSH1 0xA0 SHL SUB AND PUSH1 0x1 PUSH1 0x1 PUSH1 0xA0 SHL SUB AND DUP2 MSTORE PUSH1 0x20 ADD DUP10 ISZERO ISZERO DUP2 MSTORE PUSH1 0x20 ADD TIMESTAMP DUP2 MSTORE PUSH1 0x20 ADD DUP8 DUP2 MSTORE PUSH1 0x20 ADD DUP9 DUP2 MSTORE PUSH1 0x20 ADD DUP7 DUP2 MSTORE PUSH1 0x20 ADD DUP6 DUP1 SLOAD SWAP1 POP DUP2 MSTORE PUSH1 0x20 ADD DUP5 DUP1 SLOAD SWAP1 POP DUP2 MSTORE POP SWAP1 POP PUSH1 0x7 DUP2 SWAP1 DUP1 PUSH1 0x1 DUP2 SLOAD ADD DUP1 DUP3 SSTORE DUP1 SWAP2 POP POP PUSH1 0x1 SWAP1 SUB SWAP1 PUSH0 MSTORE PUSH1 0x20 PUSH0 KECCAK256 SWAP1 PUSH1 0x8 MUL ADD PUSH0 SWAP1 SWAP2 SWAP1 SWAP2 SWAP1 SWAP2 POP PUSH0 DUP3 ADD MLOAD DUP2 PUSH0 ADD PUSH0 PUSH2 0x100 EXP DUP2 SLOAD DUP2 PUSH1 0x1 PUSH1 0x1 PUSH1 0xA0 SHL SUB MUL NOT AND SWAP1 DUP4 PUSH1 0x1 PUSH1 0x1 PUSH1 0xA0 SHL SUB AND MUL OR SWAP1 SSTORE POP PUSH1 0x20 DUP3 ADD MLOAD DUP2 PUSH1 0x1 ADD PUSH0 PUSH2 0x100 EXP DUP2 SLOAD DUP2 PUSH1 0x1 PUSH1 0x1 PUSH1 0xA0 SHL SUB MUL NOT AND SWAP1 DUP4 PUSH1 0x1 PUSH1 0x1 PUSH1 0xA0 SHL SUB AND MUL OR SWAP1 SSTORE POP PUSH1 0x40 DUP3 ADD MLOAD DUP2 PUSH1 0x1 ADD PUSH1 0x14 PUSH2 0x100 EXP DUP2 SLOAD DUP2 PUSH1 0xFF MUL NOT AND SWAP1 DUP4 ISZERO ISZERO MUL OR SWAP1 SSTORE POP PUSH1 0x60 DUP3 ADD MLOAD DUP2 PUSH1 0x2 ADD SSTORE PUSH1 0x80 DUP3 ADD MLOAD DUP2 PUSH1 0x3 ADD SSTORE PUSH1 0xA0 DUP3 ADD MLOAD DUP2 PUSH1 0x4 ADD SSTORE PUSH1 0xC0 DUP3 ADD MLOAD DUP2 PUSH1 0x5 ADD SSTORE PUSH1 0xE0 DUP3 ADD MLOAD DUP2 PUSH1 0x6 ADD SSTORE PUSH2 0x100 DUP3 ADD MLOAD DUP2 PUSH1 0x7 ADD SSTORE POP POP DUP4 DUP3 SWAP1 DUP1 PUSH1 0x1 DUP2 SLOAD ADD DUP1 DUP3 SSTORE DUP1 SWAP2 POP POP PUSH1 0x1 SWAP1 SUB SWAP1 PUSH0 MSTORE PUSH1 0x20 PUSH0 KECCAK256 ADD PUSH0 SWAP1 SWAP2 SWAP1 SWAP2 SWAP1 SWAP2 POP SSTORE DUP3 DUP3 SWAP1 DUP1 PUSH1 0x1 DUP2 SLOAD ADD DUP1 DUP3 SSTORE DUP1 SWAP2 POP POP PUSH1 0x1 SWAP1 SUB SWAP1 PUSH0 MSTORE PUSH1 0x20 PUSH0 KECCAK256 ADD PUSH0 SWAP1 SWAP2 SWAP1 SWAP2 SWAP1 SWAP2 POP SSTORE PUSH32 0x96D694E92C01C8197B4CF2ECB0EC03BE940CC6E384CBDFB2AFB329375A0BE252 DUP3 DUP10 DUP12 PUSH1 0x2 ADD PUSH1 0x1 SWAP1 SLOAD SWAP1 PUSH2 0x100 EXP SWAP1 DIV PUSH1 0x1 PUSH1 0x1 PUSH1 0xA0 SHL SUB AND DUP11 DUP11 PUSH1 0x40 MLOAD PUSH2 0x2822 SWAP6 SWAP5 SWAP4 SWAP3 SWAP2 SWAP1 SWAP5 DUP6 MSTORE SWAP3 ISZERO ISZERO PUSH1 0x20 DUP6 ADD MSTORE PUSH1 0x1 PUSH1 0x1 PUSH1 0xA0 SHL SUB SWAP2 SWAP1 SWAP2 AND PUSH1 0x40 DUP5 ADD MSTORE PUSH1 0x60 DUP4 ADD MSTORE PUSH1 0x80 DUP3 ADD MSTORE PUSH1 0xA0 ADD SWAP1 JUMP JUMPDEST PUSH1 0x40 MLOAD DUP1 SWAP2 SUB SWAP1 LOG1 POP POP POP POP POP POP POP POP POP JUMP JUMPDEST PUSH0 DUP1 PUSH0 DUP1 DUP7 PUSH1 0x5 ADD SLOAD DUP6 LT SWAP1 POP DUP1 ISZERO PUSH2 0x2850 JUMPI DUP5 SWAP2 POP PUSH2 0x2858 JUMP JUMPDEST DUP7 PUSH1 0x5 ADD SLOAD SWAP2 POP JUMPDEST PUSH1 0x60 DUP9 ADD MLOAD PUSH1 0x1 PUSH1 0x1 PUSH1 0xA0 SHL SUB AND PUSH0 SWAP1 DUP2 MSTORE PUSH1 0x3 PUSH1 0x20 MSTORE PUSH1 0x40 SWAP1 KECCAK256 SLOAD DUP3 GT PUSH2 0x2898 JUMPI DUP7 SLOAD PUSH2 0x2891 SWAP1 DUP10 SWAP1 PUSH1 0x1 PUSH1 0x1 PUSH1 0xA0 SHL SUB AND DUP5 PUSH2 0x34B8 JUMP JUMPDEST SWAP3 POP PUSH2 0x28B2 JUMP JUMPDEST DUP7 SLOAD PUSH2 0x28AF SWAP1 DUP10 SWAP1 PUSH1 0x1 PUSH1 0x1 PUSH1 0xA0 SHL SUB AND DUP5 PUSH2 0x388B JUMP JUMPDEST SWAP3 POP JUMPDEST DUP3 PUSH2 0x28C2 JUMPI PUSH0 SWAP4 POP POP POP POP PUSH2 0x2197 JUMP JUMPDEST DUP1 ISZERO PUSH2 0x2934 JUMPI PUSH0 PUSH2 0x28F1 PUSH2 0x28DA DUP5 DUP12 PUSH1 0x40 ADD MLOAD PUSH2 0x35F0 JUMP JUMPDEST PUSH2 0x28EC DUP11 PUSH1 0x5 ADD SLOAD DUP13 PUSH1 0x40 ADD MLOAD PUSH2 0x35F0 JUMP JUMPDEST PUSH2 0x361B JUMP JUMPDEST SWAP1 POP PUSH2 0x2901 DUP9 PUSH1 0x4 ADD SLOAD DUP3 PUSH2 0x3626 JUMP JUMPDEST DUP9 PUSH1 0x4 ADD PUSH0 DUP3 DUP3 SLOAD PUSH2 0x2913 SWAP2 SWAP1 PUSH2 0x41D8 JUMP JUMPDEST SWAP3 POP POP DUP2 SWAP1 SSTORE POP DUP3 DUP9 PUSH1 0x5 ADD PUSH0 DUP3 DUP3 SLOAD PUSH2 0x292D SWAP2 SWAP1 PUSH2 0x41D8 JUMP JUMPDEST SWAP1 SWAP2 SSTORE POP POP POP JUMPDEST PUSH1 0x1 DUP8 ADD SLOAD DUP8 SLOAD PUSH1 0x40 DUP1 MLOAD DUP10 DUP2 MSTORE PUSH1 0x1 PUSH1 0xA0 SHL SWAP1 SWAP4 DIV PUSH1 0xFF AND ISZERO ISZERO PUSH1 0x20 DUP5 ADD MSTORE PUSH1 0x1 PUSH1 0x1 PUSH1 0xA0 SHL SUB SWAP1 SWAP2 AND SWAP1 DUP3 ADD MSTORE DUP2 ISZERO ISZERO PUSH1 0x60 DUP3 ADD MSTORE PUSH32 0xBDB78CC9B5D01BDAC074DF120CC9776D231060CDCDCC8C7F6C2039F67A5E626F SWAP1 PUSH1 0x80 ADD PUSH1 0x40 MLOAD DUP1 SWAP2 SUB SWAP1 LOG1 ISZERO SWAP8 SWAP7 POP POP POP POP POP POP POP JUMP JUMPDEST PUSH1 0x5 DUP4 ADD SLOAD PUSH0 SWAP1 DUP2 SWAP1 DUP4 LT DUP1 ISZERO PUSH2 0x29BD JUMPI DUP4 SWAP2 POP PUSH2 0x29C5 JUMP JUMPDEST DUP6 PUSH1 0x5 ADD SLOAD SWAP2 POP JUMPDEST DUP6 SLOAD PUSH2 0x29DC SWAP1 DUP9 SWAP1 PUSH1 0x1 PUSH1 0x1 PUSH1 0xA0 SHL SUB AND DUP5 PUSH2 0x3409 JUMP JUMPDEST PUSH2 0x29EA JUMPI PUSH0 SWAP3 POP POP POP PUSH2 0x2197 JUMP JUMPDEST DUP1 ISZERO PUSH2 0x2A42 JUMPI PUSH0 PUSH2 0x29FF DUP4 DUP9 PUSH1 0x5 ADD SLOAD PUSH2 0x361B JUMP JUMPDEST SWAP1 POP PUSH2 0x2A0F DUP8 PUSH1 0x4 ADD SLOAD DUP3 PUSH2 0x3626 JUMP JUMPDEST DUP8 PUSH1 0x4 ADD PUSH0 DUP3 DUP3 SLOAD PUSH2 0x2A21 SWAP2 SWAP1 PUSH2 0x41D8 JUMP JUMPDEST SWAP3 POP POP DUP2 SWAP1 SSTORE POP DUP3 DUP8 PUSH1 0x5 ADD PUSH0 DUP3 DUP3 SLOAD PUSH2 0x2A3B SWAP2 SWAP1 PUSH2 0x41D8 JUMP JUMPDEST SWAP1 SWAP2 SSTORE POP POP POP JUMPDEST PUSH1 0x1 DUP7 ADD SLOAD DUP7 SLOAD PUSH1 0x40 DUP1 MLOAD DUP9 DUP2 MSTORE PUSH1 0x1 PUSH1 0xA0 SHL SWAP1 SWAP4 DIV PUSH1 0xFF AND ISZERO ISZERO PUSH1 0x20 DUP5 ADD MSTORE PUSH1 0x1 PUSH1 0x1 PUSH1 0xA0 SHL SUB SWAP1 SWAP2 AND SWAP1 DUP3 ADD MSTORE DUP2 ISZERO ISZERO PUSH1 0x60 DUP3 ADD MSTORE PUSH32 0xBDB78CC9B5D01BDAC074DF120CC9776D231060CDCDCC8C7F6C2039F67A5E626F SWAP1 PUSH1 0x80 ADD PUSH1 0x40 MLOAD DUP1 SWAP2 SUB SWAP1 LOG1 ISZERO SWAP7 SWAP6 POP POP POP POP POP POP JUMP JUMPDEST PUSH2 0x100 DUP3 ADD MLOAD PUSH1 0xE0 DUP4 ADD MLOAD DUP4 MLOAD PUSH1 0x1 PUSH1 0x1 PUSH1 0xA0 SHL SUB SWAP1 DUP2 AND PUSH0 SWAP1 DUP2 MSTORE PUSH1 0xB PUSH1 0x20 SWAP1 DUP2 MSTORE PUSH1 0x40 DUP1 DUP4 KECCAK256 DUP3 DUP10 ADD MLOAD SWAP1 SWAP5 AND DUP4 MSTORE PUSH1 0xA SWAP1 SWAP2 MSTORE DUP2 KECCAK256 SWAP1 PUSH2 0x2AF4 DUP4 DUP7 PUSH2 0x3938 JUMP JUMPDEST ISZERO PUSH2 0x2B3E JUMPI PUSH1 0x7 DUP4 DUP7 DUP2 SLOAD DUP2 LT PUSH2 0x2B0D JUMPI PUSH2 0x2B0D PUSH2 0x41B0 JUMP JUMPDEST SWAP1 PUSH0 MSTORE PUSH1 0x20 PUSH0 KECCAK256 ADD SLOAD DUP2 SLOAD DUP2 LT PUSH2 0x2B26 JUMPI PUSH2 0x2B26 PUSH2 0x41B0 JUMP JUMPDEST SWAP1 PUSH0 MSTORE PUSH1 0x20 PUSH0 KECCAK256 SWAP1 PUSH1 0x8 MUL ADD SWAP1 POP DUP5 DUP2 PUSH1 0x7 ADD DUP2 SWAP1 SSTORE POP JUMPDEST PUSH2 0x2B48 DUP3 DUP6 PUSH2 0x3938 JUMP JUMPDEST ISZERO PUSH2 0x2B92 JUMPI PUSH1 0x7 DUP3 DUP6 DUP2 SLOAD DUP2 LT PUSH2 0x2B61 JUMPI PUSH2 0x2B61 PUSH2 0x41B0 JUMP JUMPDEST SWAP1 PUSH0 MSTORE PUSH1 0x20 PUSH0 KECCAK256 ADD SLOAD DUP2 SLOAD DUP2 LT PUSH2 0x2B7A JUMPI PUSH2 0x2B7A PUSH2 0x41B0 JUMP JUMPDEST SWAP1 PUSH0 MSTORE PUSH1 0x20 PUSH0 KECCAK256 SWAP1 PUSH1 0x8 MUL ADD SWAP1 POP DUP4 DUP2 PUSH1 0x6 ADD DUP2 SWAP1 SSTORE POP JUMPDEST PUSH2 0x2B9D PUSH1 0x7 DUP8 PUSH2 0x39BC JUMP JUMPDEST ISZERO PUSH2 0x2C49 JUMPI PUSH1 0x7 DUP7 DUP2 SLOAD DUP2 LT PUSH2 0x2BB5 JUMPI PUSH2 0x2BB5 PUSH2 0x41B0 JUMP JUMPDEST PUSH0 SWAP2 DUP3 MSTORE PUSH1 0x20 DUP1 DUP4 KECCAK256 PUSH1 0x7 PUSH1 0x8 SWAP1 SWAP4 MUL ADD SWAP2 DUP3 ADD SLOAD PUSH1 0x6 DUP4 ADD SLOAD DUP4 SLOAD PUSH1 0x1 PUSH1 0x1 PUSH1 0xA0 SHL SUB SWAP1 DUP2 AND DUP7 MSTORE PUSH1 0xB DUP5 MSTORE PUSH1 0x40 DUP1 DUP8 KECCAK256 PUSH1 0x1 DUP8 ADD SLOAD SWAP1 SWAP3 AND DUP8 MSTORE PUSH1 0xA SWAP1 SWAP5 MSTORE SWAP3 SWAP1 SWAP5 KECCAK256 DUP3 SLOAD SWAP2 SWAP10 POP SWAP4 SWAP8 POP SWAP1 SWAP6 POP SWAP2 SWAP4 POP SWAP2 POP DUP7 SWAP1 DUP5 SWAP1 DUP8 SWAP1 DUP2 LT PUSH2 0x2C1E JUMPI PUSH2 0x2C1E PUSH2 0x41B0 JUMP JUMPDEST SWAP1 PUSH0 MSTORE PUSH1 0x20 PUSH0 KECCAK256 ADD DUP2 SWAP1 SSTORE POP DUP6 DUP3 DUP6 DUP2 SLOAD DUP2 LT PUSH2 0x2C3D JUMPI PUSH2 0x2C3D PUSH2 0x41B0 JUMP JUMPDEST PUSH0 SWAP2 DUP3 MSTORE PUSH1 0x20 SWAP1 SWAP2 KECCAK256 ADD SSTORE JUMPDEST POP POP POP POP POP POP POP JUMP JUMPDEST PUSH2 0x140 DUP4 ADD MLOAD PUSH1 0x40 MLOAD PUSH4 0x23B872DD PUSH1 0xE0 SHL DUP2 MSTORE PUSH1 0x1 PUSH1 0x1 PUSH1 0xA0 SHL SUB DUP5 DUP2 AND PUSH1 0x4 DUP4 ADD MSTORE ADDRESS PUSH1 0x24 DUP4 ADD MSTORE PUSH1 0x44 DUP3 ADD DUP5 SWAP1 MSTORE PUSH0 SWAP3 AND SWAP1 PUSH4 0x23B872DD SWAP1 PUSH1 0x64 ADD PUSH1 0x20 PUSH1 0x40 MLOAD DUP1 DUP4 SUB DUP2 PUSH0 DUP8 GAS CALL SWAP3 POP POP POP DUP1 ISZERO PUSH2 0x2CC9 JUMPI POP PUSH1 0x40 DUP1 MLOAD PUSH1 0x1F RETURNDATASIZE SWAP1 DUP2 ADD PUSH1 0x1F NOT AND DUP3 ADD SWAP1 SWAP3 MSTORE PUSH2 0x2CC6 SWAP2 DUP2 ADD SWAP1 PUSH2 0x42EC JUMP JUMPDEST PUSH1 0x1 JUMPDEST PUSH2 0x2CD4 JUMPI POP PUSH0 PUSH2 0x78A JUMP JUMPDEST DUP1 ISZERO PUSH2 0x2D0B JUMPI PUSH1 0x60 DUP6 ADD MLOAD PUSH1 0x1 PUSH1 0x1 PUSH1 0xA0 SHL SUB AND PUSH0 SWAP1 DUP2 MSTORE PUSH1 0x2 PUSH1 0x20 MSTORE PUSH1 0x40 DUP2 KECCAK256 DUP1 SLOAD DUP6 SWAP3 SWAP1 PUSH2 0x2D05 SWAP1 DUP5 SWAP1 PUSH2 0x4218 JUMP JUMPDEST SWAP1 SWAP2 SSTORE POP POP JUMPDEST SWAP1 POP PUSH2 0x78A JUMP JUMPDEST PUSH0 DUP1 PUSH0 PUSH2 0x2D1E DUP5 PUSH2 0x373B JUMP JUMPDEST SWAP2 POP SWAP2 POP DUP1 PUSH2 0x2D40 JUMPI PUSH1 0x40 MLOAD PUSH4 0xE6F7D2C7 PUSH1 0xE0 SHL DUP2 MSTORE PUSH1 0x4 ADD PUSH1 0x40 MLOAD DUP1 SWAP2 SUB SWAP1 REVERT JUMPDEST POP SWAP3 SWAP2 POP POP JUMP JUMPDEST PUSH1 0x6 SLOAD PUSH0 SUB PUSH2 0x2D52 JUMPI JUMP JUMPDEST PUSH2 0x2F48 PUSH1 0x6 PUSH0 DUP2 SLOAD DUP2 LT PUSH2 0x2D68 JUMPI PUSH2 0x2D68 PUSH2 0x41B0 JUMP JUMPDEST SWAP1 PUSH0 MSTORE PUSH1 0x20 PUSH0 KECCAK256 SWAP1 PUSH1 0x9 MUL ADD PUSH1 0x40 MLOAD DUP1 PUSH2 0x160 ADD PUSH1 0x40 MSTORE SWAP1 DUP2 PUSH0 DUP3 ADD DUP1 SLOAD PUSH2 0x2D8F SWAP1 PUSH2 0x4242 JUMP JUMPDEST DUP1 PUSH1 0x1F ADD PUSH1 0x20 DUP1 SWAP2 DIV MUL PUSH1 0x20 ADD PUSH1 0x40 MLOAD SWAP1 DUP2 ADD PUSH1 0x40 MSTORE DUP1 SWAP3 SWAP2 SWAP1 DUP2 DUP2 MSTORE PUSH1 0x20 ADD DUP3 DUP1 SLOAD PUSH2 0x2DBB SWAP1 PUSH2 0x4242 JUMP JUMPDEST DUP1 ISZERO PUSH2 0x2E06 JUMPI DUP1 PUSH1 0x1F LT PUSH2 0x2DDD JUMPI PUSH2 0x100 DUP1 DUP4 SLOAD DIV MUL DUP4 MSTORE SWAP2 PUSH1 0x20 ADD SWAP2 PUSH2 0x2E06 JUMP JUMPDEST DUP3 ADD SWAP2 SWAP1 PUSH0 MSTORE PUSH1 0x20 PUSH0 KECCAK256 SWAP1 JUMPDEST DUP2 SLOAD DUP2 MSTORE SWAP1 PUSH1 0x1 ADD SWAP1 PUSH1 0x20 ADD DUP1 DUP4 GT PUSH2 0x2DE9 JUMPI DUP3 SWAP1 SUB PUSH1 0x1F AND DUP3 ADD SWAP2 JUMPDEST POP POP POP POP POP DUP2 MSTORE PUSH1 0x20 ADD PUSH1 0x1 DUP3 ADD DUP1 SLOAD PUSH2 0x2E1F SWAP1 PUSH2 0x4242 JUMP JUMPDEST DUP1 PUSH1 0x1F ADD PUSH1 0x20 DUP1 SWAP2 DIV MUL PUSH1 0x20 ADD PUSH1 0x40 MLOAD SWAP1 DUP2 ADD PUSH1 0x40 MSTORE DUP1 SWAP3 SWAP2 SWAP1 DUP2 DUP2 MSTORE PUSH1 0x20 ADD DUP3 DUP1 SLOAD PUSH2 0x2E4B SWAP1 PUSH2 0x4242 JUMP JUMPDEST DUP1 ISZERO PUSH2 0x2E96 JUMPI DUP1 PUSH1 0x1F LT PUSH2 0x2E6D JUMPI PUSH2 0x100 DUP1 DUP4 SLOAD DIV MUL DUP4 MSTORE SWAP2 PUSH1 0x20 ADD SWAP2 PUSH2 0x2E96 JUMP JUMPDEST DUP3 ADD SWAP2 SWAP1 PUSH0 MSTORE PUSH1 0x20 PUSH0 KECCAK256 SWAP1 JUMPDEST DUP2 SLOAD DUP2 MSTORE SWAP1 PUSH1 0x1 ADD SWAP1 PUSH1 0x20 ADD DUP1 DUP4 GT PUSH2 0x2E79 JUMPI DUP3 SWAP1 SUB PUSH1 0x1F AND DUP3 ADD SWAP2 JUMPDEST POP POP POP SWAP2 DUP4 MSTORE POP POP PUSH1 0x2 DUP3 ADD SLOAD PUSH1 0xFF DUP1 DUP3 AND PUSH1 0x20 DUP5 ADD MSTORE PUSH1 0x1 PUSH1 0x1 PUSH1 0xA0 SHL SUB PUSH2 0x100 SWAP1 SWAP3 DIV DUP3 AND PUSH1 0x40 DUP5 ADD MSTORE PUSH1 0x3 DUP5 ADD SLOAD SWAP2 DUP3 AND PUSH1 0x60 DUP5 ADD MSTORE PUSH1 0x80 SWAP1 SWAP3 ADD SWAP2 PUSH1 0x1 PUSH1 0xA0 SHL SWAP1 SWAP2 DIV AND PUSH1 0x1 DUP2 GT ISZERO PUSH2 0x2EEF JUMPI PUSH2 0x2EEF PUSH2 0x3EE3 JUMP JUMPDEST PUSH1 0x1 DUP2 GT ISZERO PUSH2 0x2F00 JUMPI PUSH2 0x2F00 PUSH2 0x3EE3 JUMP JUMPDEST DUP2 MSTORE PUSH1 0x4 DUP3 ADD SLOAD PUSH1 0x20 DUP3 ADD MSTORE PUSH1 0x5 DUP1 DUP4 ADD SLOAD PUSH1 0x40 DUP4 ADD MSTORE PUSH1 0x6 DUP4 ADD SLOAD PUSH1 0x60 DUP4 ADD MSTORE PUSH1 0x7 DUP4 ADD SLOAD PUSH1 0x80 DUP4 ADD MSTORE PUSH1 0x8 SWAP1 SWAP3 ADD SLOAD PUSH1 0x1 PUSH1 0x1 PUSH1 0xA0 SHL SUB AND PUSH1 0xA0 SWAP1 SWAP2 ADD MSTORE SLOAD CALLER SWAP1 PUSH2 0x2C52 JUMP JUMPDEST PUSH2 0x2F6B JUMPI PUSH1 0x5 SLOAD PUSH1 0x40 MLOAD PUSH4 0x6508A501 PUSH1 0xE1 SHL DUP2 MSTORE PUSH1 0x4 ADD PUSH2 0x17AD SWAP2 DUP2 MSTORE PUSH1 0x20 ADD SWAP1 JUMP JUMPDEST PUSH3 0xF4240 PUSH1 0x5 SLOAD EQ PUSH2 0x1D83 JUMPI PUSH0 PUSH2 0x3E8 PUSH1 0x5 DUP1 SLOAD PUSH2 0x2F89 SWAP2 SWAP1 PUSH2 0x4307 JUMP JUMPDEST PUSH2 0x2F93 SWAP2 SWAP1 PUSH2 0x4332 JUMP JUMPDEST SWAP1 POP DUP1 PUSH1 0x5 PUSH0 DUP3 DUP3 SLOAD PUSH2 0x2FA6 SWAP2 SWAP1 PUSH2 0x4218 JUMP JUMPDEST SWAP1 SWAP2 SSTORE POP POP PUSH1 0x5 SLOAD PUSH3 0xF4240 LT ISZERO PUSH2 0x2FC0 JUMPI PUSH3 0xF4240 PUSH1 0x5 SSTORE JUMPDEST POP JUMP JUMPDEST PUSH1 0x40 MLOAD PUSH4 0x70A08231 PUSH1 0xE0 SHL DUP2 MSTORE ADDRESS PUSH1 0x4 DUP3 ADD MSTORE DUP7 SWAP1 PUSH1 0x60 SWAP1 DUP2 SWAP1 PUSH0 SWAP1 DUP2 SWAP1 PUSH1 0x1 PUSH1 0x1 PUSH1 0xA0 SHL SUB DUP7 AND SWAP1 PUSH4 0x70A08231 SWAP1 PUSH1 0x24 ADD PUSH1 0x20 PUSH1 0x40 MLOAD DUP1 DUP4 SUB DUP2 DUP7 GAS STATICCALL SWAP3 POP POP POP DUP1 ISZERO PUSH2 0x302E JUMPI POP PUSH1 0x40 DUP1 MLOAD PUSH1 0x1F RETURNDATASIZE SWAP1 DUP2 ADD PUSH1 0x1F NOT AND DUP3 ADD SWAP1 SWAP3 MSTORE PUSH2 0x302B SWAP2 DUP2 ADD SWAP1 PUSH2 0x422B JUMP JUMPDEST PUSH1 0x1 JUMPDEST PUSH2 0x304B JUMPI PUSH1 0x40 MLOAD PUSH4 0xA6F7ECD PUSH1 0xE2 SHL DUP2 MSTORE PUSH1 0x4 ADD PUSH1 0x40 MLOAD DUP1 SWAP2 SUB SWAP1 REVERT JUMPDEST DUP1 SWAP3 POP DUP6 PUSH1 0x1 PUSH1 0x1 PUSH1 0xA0 SHL SUB AND PUSH4 0x313CE567 PUSH1 0x40 MLOAD DUP2 PUSH4 0xFFFFFFFF AND PUSH1 0xE0 SHL DUP2 MSTORE PUSH1 0x4 ADD PUSH1 0x20 PUSH1 0x40 MLOAD DUP1 DUP4 SUB DUP2 DUP7 GAS STATICCALL SWAP3 POP POP POP DUP1 ISZERO PUSH2 0x30A8 JUMPI POP PUSH1 0x40 DUP1 MLOAD PUSH1 0x1F RETURNDATASIZE SWAP1 DUP2 ADD PUSH1 0x1F NOT AND DUP3 ADD SWAP1 SWAP3 MSTORE PUSH2 0x30A5 SWAP2 DUP2 ADD SWAP1 PUSH2 0x4351 JUMP JUMPDEST PUSH1 0x1 JUMPDEST PUSH2 0x30B5 JUMPI PUSH1 0x12 SWAP2 POP PUSH2 0x30B8 JUMP JUMPDEST SWAP2 POP JUMPDEST PUSH1 0x12 PUSH1 0xFF DUP4 AND GT ISZERO PUSH2 0x30DD JUMPI PUSH1 0x40 MLOAD PUSH4 0x432C0A5D PUSH1 0xE0 SHL DUP2 MSTORE PUSH1 0x4 ADD PUSH1 0x40 MLOAD DUP1 SWAP2 SUB SWAP1 REVERT JUMPDEST DUP6 PUSH1 0x1 PUSH1 0x1 PUSH1 0xA0 SHL SUB AND PUSH4 0x6FDDE03 PUSH1 0x40 MLOAD DUP2 PUSH4 0xFFFFFFFF AND PUSH1 0xE0 SHL DUP2 MSTORE PUSH1 0x4 ADD PUSH0 PUSH1 0x40 MLOAD DUP1 DUP4 SUB DUP2 DUP7 GAS STATICCALL SWAP3 POP POP POP DUP1 ISZERO PUSH2 0x313A JUMPI POP PUSH1 0x40 MLOAD RETURNDATASIZE PUSH0 DUP3 RETURNDATACOPY PUSH1 0x1F RETURNDATASIZE SWAP1 DUP2 ADD PUSH1 0x1F NOT AND DUP3 ADD PUSH1 0x40 MSTORE PUSH2 0x3137 SWAP2 SWAP1 DUP2 ADD SWAP1 PUSH2 0x427A JUMP JUMPDEST PUSH1 0x1 JUMPDEST ISZERO PUSH2 0x3142 JUMPI SWAP5 POP JUMPDEST DUP6 PUSH1 0x1 PUSH1 0x1 PUSH1 0xA0 SHL SUB AND PUSH4 0x95D89B41 PUSH1 0x40 MLOAD DUP2 PUSH4 0xFFFFFFFF AND PUSH1 0xE0 SHL DUP2 MSTORE PUSH1 0x4 ADD PUSH0 PUSH1 0x40 MLOAD DUP1 DUP4 SUB DUP2 DUP7 GAS STATICCALL SWAP3 POP POP POP DUP1 ISZERO PUSH2 0x319F JUMPI POP PUSH1 0x40 MLOAD RETURNDATASIZE PUSH0 DUP3 RETURNDATACOPY PUSH1 0x1F RETURNDATASIZE SWAP1 DUP2 ADD PUSH1 0x1F NOT AND DUP3 ADD PUSH1 0x40 MSTORE PUSH2 0x319C SWAP2 SWAP1 DUP2 ADD SWAP1 PUSH2 0x427A JUMP JUMPDEST PUSH1 0x1 JUMPDEST ISZERO PUSH2 0x31A7 JUMPI SWAP4 POP JUMPDEST POP PUSH0 PUSH1 0x40 MLOAD DUP1 PUSH2 0x160 ADD PUSH1 0x40 MSTORE DUP1 DUP7 DUP2 MSTORE PUSH1 0x20 ADD DUP6 DUP2 MSTORE PUSH1 0x20 ADD DUP4 PUSH1 0xFF AND DUP2 MSTORE PUSH1 0x20 ADD DUP14 PUSH1 0x1 PUSH1 0x1 PUSH1 0xA0 SHL SUB AND DUP2 MSTORE PUSH1 0x20 ADD DUP11 PUSH1 0x1 PUSH1 0x1 PUSH1 0xA0 SHL SUB AND DUP2 MSTORE PUSH1 0x20 ADD DUP12 PUSH1 0x1 DUP2 GT ISZERO PUSH2 0x31FA JUMPI PUSH2 0x31FA PUSH2 0x3EE3 JUMP JUMPDEST DUP2 MSTORE PUSH1 0x20 DUP2 ADD DUP11 SWAP1 MSTORE PUSH1 0x40 DUP2 ADD DUP10 SWAP1 MSTORE PUSH1 0x60 DUP2 ADD DUP14 SWAP1 MSTORE PUSH0 PUSH1 0x80 DUP3 ADD DUP2 SWAP1 MSTORE PUSH1 0x1 PUSH1 0x1 PUSH1 0xA0 SHL SUB DUP10 AND PUSH1 0xA0 SWAP1 SWAP3 ADD SWAP2 SWAP1 SWAP2 MSTORE PUSH1 0x6 DUP1 SLOAD PUSH1 0x1 DUP2 ADD DUP3 SSTORE SWAP2 MSTORE DUP2 MLOAD SWAP2 SWAP3 POP DUP3 SWAP2 PUSH1 0x9 SWAP1 SWAP2 MUL PUSH32 0xF652222313E28459528D920B65115C16C04F3EFC82AAEDC97BE59F3F377C0D3F ADD SWAP1 DUP2 SWAP1 PUSH2 0x3273 SWAP1 DUP3 PUSH2 0x43B5 JUMP JUMPDEST POP PUSH1 0x20 DUP3 ADD MLOAD PUSH1 0x1 DUP3 ADD SWAP1 PUSH2 0x3288 SWAP1 DUP3 PUSH2 0x43B5 JUMP JUMPDEST POP PUSH1 0x40 DUP3 ADD MLOAD PUSH1 0x2 DUP3 ADD DUP1 SLOAD PUSH1 0x60 DUP6 ADD MLOAD PUSH1 0xFF SWAP1 SWAP4 AND PUSH1 0x1 PUSH1 0x1 PUSH1 0xA8 SHL SUB NOT SWAP2 DUP3 AND OR PUSH2 0x100 PUSH1 0x1 PUSH1 0x1 PUSH1 0xA0 SHL SUB SWAP5 DUP6 AND MUL OR SWAP1 SWAP2 SSTORE PUSH1 0x80 DUP5 ADD MLOAD PUSH1 0x3 DUP5 ADD DUP1 SLOAD PUSH1 0x1 PUSH1 0x1 PUSH1 0xA0 SHL SUB NOT DUP2 AND SWAP3 SWAP1 SWAP5 AND SWAP2 DUP3 OR DUP2 SSTORE PUSH1 0xA0 DUP7 ADD MLOAD SWAP4 SWAP1 SWAP3 AND OR PUSH1 0x1 PUSH1 0xA0 SHL DUP4 PUSH1 0x1 DUP2 GT ISZERO PUSH2 0x32FE JUMPI PUSH2 0x32FE PUSH2 0x3EE3 JUMP JUMPDEST MUL OR SWAP1 SSTORE POP PUSH1 0xC0 DUP3 ADD MLOAD PUSH1 0x4 DUP3 ADD SSTORE PUSH1 0xE0 DUP3 ADD MLOAD PUSH1 0x5 DUP3 ADD SSTORE PUSH2 0x100 DUP3 ADD MLOAD PUSH1 0x6 DUP1 DUP4 ADD SWAP2 SWAP1 SWAP2 SSTORE PUSH2 0x120 DUP4 ADD MLOAD PUSH1 0x7 DUP4 ADD SSTORE PUSH2 0x140 SWAP1 SWAP3 ADD MLOAD PUSH1 0x8 SWAP1 SWAP2 ADD DUP1 SLOAD PUSH1 0x1 PUSH1 0x1 PUSH1 0xA0 SHL SUB NOT AND PUSH1 0x1 PUSH1 0x1 PUSH1 0xA0 SHL SUB SWAP3 DUP4 AND OR SWAP1 SSTORE SWAP1 SLOAD PUSH1 0x60 DUP4 ADD DUP1 MLOAD DUP4 AND PUSH0 SWAP1 DUP2 MSTORE PUSH1 0x9 PUSH1 0x20 SWAP1 DUP2 MSTORE PUSH1 0x40 DUP1 DUP4 KECCAK256 SWAP5 SWAP1 SWAP5 SSTORE SWAP2 MLOAD SWAP1 SWAP4 AND DUP4 MSTORE PUSH1 0x2 DUP2 MSTORE SWAP2 DUP2 SWAP1 KECCAK256 DUP6 SWAP1 SSTORE SWAP1 DUP3 ADD MLOAD SWAP1 MLOAD PUSH2 0x3397 SWAP2 SWAP1 PUSH2 0x4471 JUMP JUMPDEST PUSH1 0x40 MLOAD SWAP1 DUP2 SWAP1 SUB DUP2 KECCAK256 DUP3 MLOAD SWAP1 SWAP2 PUSH2 0x33AE SWAP2 SWAP1 PUSH2 0x4471 JUMP JUMPDEST PUSH1 0x40 MLOAD SWAP1 DUP2 SWAP1 SUB DUP2 KECCAK256 PUSH1 0xA0 DUP5 ADD MLOAD PUSH1 0x60 DUP6 ADD MLOAD PUSH1 0x6 SLOAD SWAP3 SWAP4 PUSH32 0x2B9A73ECC76EBAD22366F66B2436A1725CC4F39AA579663FC941863779316B1B SWAP4 PUSH2 0x33F3 SWAP4 SWAP3 SWAP2 PUSH2 0x448C JUMP JUMPDEST PUSH1 0x40 MLOAD DUP1 SWAP2 SUB SWAP1 LOG3 POP POP POP POP POP POP POP POP POP POP POP POP JUMP JUMPDEST PUSH1 0x40 MLOAD PUSH0 SWAP1 PUSH1 0x1 PUSH1 0x1 PUSH1 0xA0 SHL SUB DUP5 AND SWAP1 DUP4 ISZERO PUSH2 0x8FC MUL SWAP1 DUP5 SWAP1 DUP5 DUP2 DUP2 DUP2 DUP6 DUP9 DUP9 CALL SWAP4 POP POP POP POP ISZERO PUSH2 0x34AF JUMPI PUSH1 0x40 DUP1 MLOAD DUP4 DUP2 MSTORE PUSH1 0x1 PUSH1 0x1 PUSH1 0xA0 SHL SUB DUP6 AND PUSH1 0x20 DUP3 ADD MSTORE PUSH32 0x897F9F8697C0FEE5ACFC2C885618E98D4F0882E71E35D182FACCC1915C01ECB SWAP2 ADD PUSH1 0x40 MLOAD DUP1 SWAP2 SUB SWAP1 LOG1 PUSH1 0x60 DUP5 ADD MLOAD PUSH1 0x1 PUSH1 0x1 PUSH1 0xA0 SHL SUB AND PUSH0 SWAP1 DUP2 MSTORE PUSH1 0x1 PUSH1 0x20 MSTORE PUSH1 0x40 DUP2 KECCAK256 DUP1 SLOAD DUP5 SWAP3 SWAP1 PUSH2 0x34A0 SWAP1 DUP5 SWAP1 PUSH2 0x41D8 JUMP JUMPDEST SWAP1 SWAP2 SSTORE POP PUSH1 0x1 SWAP2 POP PUSH2 0x78A SWAP1 POP JUMP JUMPDEST POP PUSH0 SWAP4 SWAP3 POP POP POP JUMP JUMPDEST PUSH2 0x140 DUP4 ADD MLOAD PUSH1 0x40 MLOAD PUSH4 0xA9059CBB PUSH1 0xE0 SHL DUP2 MSTORE PUSH1 0x1 PUSH1 0x1 PUSH1 0xA0 SHL SUB DUP5 DUP2 AND PUSH1 0x4 DUP4 ADD MSTORE PUSH1 0x24 DUP3 ADD DUP5 SWAP1 MSTORE PUSH0 SWAP3 AND SWAP1 PUSH4 0xA9059CBB SWAP1 PUSH1 0x44 ADD PUSH1 0x20 PUSH1 0x40 MLOAD DUP1 DUP4 SUB DUP2 PUSH0 DUP8 GAS CALL SWAP3 POP POP POP DUP1 ISZERO PUSH2 0x3529 JUMPI POP PUSH1 0x40 DUP1 MLOAD PUSH1 0x1F RETURNDATASIZE SWAP1 DUP2 ADD PUSH1 0x1F NOT AND DUP3 ADD SWAP1 SWAP3 MSTORE PUSH2 0x3526 SWAP2 DUP2 ADD SWAP1 PUSH2 0x42EC JUMP JUMPDEST PUSH1 0x1 JUMPDEST PUSH2 0x3534 JUMPI POP PUSH0 PUSH2 0x78A JUMP JUMPDEST DUP1 ISZERO PUSH2 0x2D0B JUMPI PUSH1 0x60 DUP6 ADD MLOAD PUSH1 0x1 PUSH1 0x1 PUSH1 0xA0 SHL SUB AND PUSH0 SWAP1 DUP2 MSTORE PUSH1 0x2 PUSH1 0x20 MSTORE PUSH1 0x40 DUP2 KECCAK256 DUP1 SLOAD DUP6 SWAP3 SWAP1 PUSH2 0x3565 SWAP1 DUP5 SWAP1 PUSH2 0x41D8 JUMP JUMPDEST SWAP1 SWAP2 SSTORE POP POP PUSH1 0x60 DUP6 ADD MLOAD PUSH1 0x1 PUSH1 0x1 PUSH1 0xA0 SHL SUB AND PUSH0 SWAP1 DUP2 MSTORE PUSH1 0x3 PUSH1 0x20 MSTORE PUSH1 0x40 DUP2 KECCAK256 DUP1 SLOAD DUP6 SWAP3 SWAP1 PUSH2 0x3595 SWAP1 DUP5 SWAP1 PUSH2 0x41D8 JUMP JUMPDEST SWAP1 SWAP2 SSTORE POP POP PUSH1 0x60 DUP6 DUP2 ADD MLOAD PUSH1 0x40 DUP1 MLOAD DUP7 DUP2 MSTORE PUSH1 0x1 PUSH1 0x1 PUSH1 0xA0 SHL SUB DUP1 DUP10 AND PUSH1 0x20 DUP4 ADD MSTORE SWAP1 SWAP3 AND SWAP1 DUP3 ADD MSTORE PUSH32 0xA84F763BE5BB36163517FB87C7AF39F875A97866FDF7806EB1B3EAC837AE35EA SWAP2 ADD PUSH1 0x40 MLOAD DUP1 SWAP2 SUB SWAP1 LOG1 SWAP1 POP PUSH2 0x78A JUMP JUMPDEST PUSH0 DUP2 PUSH1 0xFF AND PUSH1 0x1 EQ PUSH2 0x3614 JUMPI PUSH2 0x3605 DUP3 PUSH2 0x3B20 JUMP JUMPDEST PUSH2 0x360F SWAP1 DUP5 PUSH2 0x4307 JUMP JUMPDEST PUSH2 0x78A JUMP JUMPDEST POP SWAP1 SWAP2 SWAP1 POP JUMP JUMPDEST PUSH0 PUSH2 0x78A DUP4 DUP4 PUSH2 0x3B62 JUMP JUMPDEST PUSH0 PUSH2 0x78A DUP4 DUP4 PUSH2 0x3B76 JUMP JUMPDEST PUSH0 DUP1 PUSH0 DUP1 DUP8 PUSH1 0x40 ADD MLOAD ISZERO PUSH2 0x3650 JUMPI POP POP DUP6 MLOAD DUP4 SWAP3 POP DUP5 SWAP2 POP CALLER SWAP1 PUSH2 0x365C JUMP JUMPDEST POP POP DUP6 MLOAD DUP5 SWAP3 POP DUP4 SWAP2 POP CALLER JUMPDEST PUSH2 0x3667 DUP8 DUP3 DUP6 PUSH2 0x34B8 JUMP JUMPDEST PUSH2 0x3684 JUMPI PUSH1 0x40 MLOAD PUSH4 0x4DE4E1D PUSH1 0xE4 SHL DUP2 MSTORE PUSH1 0x4 ADD PUSH1 0x40 MLOAD DUP1 SWAP2 SUB SWAP1 REVERT JUMPDEST PUSH2 0x368F DUP8 DUP4 DUP7 PUSH2 0x3409 JUMP JUMPDEST PUSH2 0x8DC JUMPI PUSH1 0x40 MLOAD PUSH4 0x4DE4E1D PUSH1 0xE4 SHL DUP2 MSTORE PUSH1 0x4 ADD PUSH1 0x40 MLOAD DUP1 SWAP2 SUB SWAP1 REVERT JUMPDEST PUSH1 0xC0 DUP3 ADD MLOAD PUSH0 DUP2 ISZERO DUP1 ISZERO SWAP1 PUSH2 0x36C5 JUMPI POP DUP4 PUSH1 0xE0 ADD MLOAD DUP4 LT ISZERO JUMPDEST SWAP1 POP DUP1 ISZERO PUSH2 0x73E JUMPI PUSH1 0x60 DUP5 ADD DUP1 MLOAD PUSH1 0x1 PUSH1 0x1 PUSH1 0xA0 SHL SUB SWAP1 DUP2 AND PUSH0 SWAP1 DUP2 MSTORE PUSH1 0x3 PUSH1 0x20 SWAP1 DUP2 MSTORE PUSH1 0x40 DUP1 DUP4 KECCAK256 SLOAD SWAP5 MLOAD SWAP1 SWAP4 AND DUP3 MSTORE PUSH1 0x2 SWAP1 MSTORE SWAP1 DUP2 KECCAK256 SLOAD SWAP1 SWAP2 PUSH2 0x3709 SWAP2 PUSH2 0x41D8 JUMP JUMPDEST SWAP1 POP DUP3 DUP2 GT ISZERO PUSH2 0x971 JUMPI PUSH2 0x371E DUP6 CALLER DUP6 PUSH2 0x388B JUMP JUMPDEST PUSH2 0x971 JUMPI PUSH1 0x40 MLOAD PUSH4 0xC96D18B5 PUSH1 0xE0 SHL DUP2 MSTORE PUSH1 0x4 ADD PUSH1 0x40 MLOAD DUP1 SWAP2 SUB SWAP1 REVERT JUMPDEST PUSH0 DUP1 DUP1 DUP1 DUP5 DUP2 DUP1 DUP1 DUP1 DUP1 JUMPDEST DUP6 MLOAD DUP2 LT DUP1 ISZERO PUSH2 0x3754 JUMPI POP DUP4 ISZERO JUMPDEST ISZERO PUSH2 0x3841 JUMPI DUP6 DUP2 DUP2 MLOAD DUP2 LT PUSH2 0x376B JUMPI PUSH2 0x376B PUSH2 0x41B0 JUMP JUMPDEST ADD PUSH1 0x20 ADD MLOAD PUSH1 0xF8 SHR SWAP5 POP PUSH1 0x30 DUP6 LT DUP1 ISZERO SWAP1 PUSH2 0x378A JUMPI POP PUSH1 0x39 DUP6 PUSH1 0xFF AND GT ISZERO JUMPDEST ISZERO PUSH2 0x37F9 JUMPI DUP7 SWAP8 POP DUP3 ISZERO PUSH2 0x37AA JUMPI DUP2 PUSH2 0x37A2 DUP2 PUSH2 0x44B4 JUMP JUMPDEST SWAP3 POP POP PUSH2 0x37B8 JUMP JUMPDEST PUSH2 0x37B5 PUSH1 0xA DUP9 PUSH2 0x4307 JUMP JUMPDEST SWAP7 POP JUMPDEST PUSH2 0x37C3 DUP3 PUSH1 0xA PUSH2 0x45AF JUMP JUMPDEST PUSH2 0x37CE PUSH1 0x30 DUP8 PUSH2 0x45BD JUMP JUMPDEST PUSH1 0xFF AND PUSH2 0x37DB SWAP2 SWAP1 PUSH2 0x4307 JUMP JUMPDEST PUSH2 0x37E5 SWAP1 DUP9 PUSH2 0x4218 JUMP JUMPDEST SWAP7 POP DUP7 DUP9 GT ISZERO PUSH2 0x37F4 JUMPI PUSH1 0x1 SWAP4 POP JUMPDEST PUSH2 0x382F JUMP JUMPDEST DUP5 PUSH1 0xFF AND PUSH1 0x2E SUB PUSH2 0x382F JUMPI DUP3 ISZERO PUSH2 0x380F JUMPI PUSH1 0x1 SWAP4 POP JUMPDEST PUSH1 0x1 SWAP3 POP PUSH1 0x12 SWAP2 POP PUSH2 0x3822 DUP3 PUSH1 0xA PUSH2 0x45AF JUMP JUMPDEST PUSH2 0x382C SWAP1 DUP9 PUSH2 0x4307 JUMP JUMPDEST SWAP7 POP JUMPDEST DUP1 PUSH2 0x3839 DUP2 PUSH2 0x41EB JUMP JUMPDEST SWAP2 POP POP PUSH2 0x3746 JUMP JUMPDEST POP DUP2 PUSH2 0x385C JUMPI PUSH2 0x3859 PUSH8 0xDE0B6B3A7640000 DUP8 PUSH2 0x4307 JUMP JUMPDEST SWAP6 POP JUMPDEST POP SWAP4 SWAP9 SWAP1 ISZERO SWAP8 POP SWAP6 POP POP POP POP POP POP JUMP JUMPDEST PUSH0 DUP2 PUSH1 0xFF AND PUSH1 0x1 EQ PUSH2 0x3614 JUMPI PUSH2 0x3881 DUP3 PUSH2 0x3B20 JUMP JUMPDEST PUSH2 0x360F SWAP1 DUP5 PUSH2 0x4332 JUMP JUMPDEST PUSH2 0x140 DUP4 ADD MLOAD PUSH1 0x40 MLOAD PUSH4 0xA9059CBB PUSH1 0xE0 SHL DUP2 MSTORE PUSH1 0x1 PUSH1 0x1 PUSH1 0xA0 SHL SUB DUP5 DUP2 AND PUSH1 0x4 DUP4 ADD MSTORE PUSH1 0x24 DUP3 ADD DUP5 SWAP1 MSTORE PUSH0 SWAP3 AND SWAP1 PUSH4 0xA9059CBB SWAP1 PUSH1 0x44 ADD PUSH1 0x20 PUSH1 0x40 MLOAD DUP1 DUP4 SUB DUP2 PUSH0 DUP8 GAS CALL SWAP3 POP POP POP DUP1 ISZERO PUSH2 0x38FC JUMPI POP PUSH1 0x40 DUP1 MLOAD PUSH1 0x1F RETURNDATASIZE SWAP1 DUP2 ADD PUSH1 0x1F NOT AND DUP3 ADD SWAP1 SWAP3 MSTORE PUSH2 0x38F9 SWAP2 DUP2 ADD SWAP1 PUSH2 0x42EC JUMP JUMPDEST PUSH1 0x1 JUMPDEST PUSH2 0x3907 JUMPI POP PUSH0 PUSH2 0x78A JUMP JUMPDEST DUP1 ISZERO PUSH2 0x2D0B JUMPI PUSH1 0x60 DUP6 ADD MLOAD PUSH1 0x1 PUSH1 0x1 PUSH1 0xA0 SHL SUB AND PUSH0 SWAP1 DUP2 MSTORE PUSH1 0x2 PUSH1 0x20 MSTORE PUSH1 0x40 DUP2 KECCAK256 DUP1 SLOAD DUP6 SWAP3 SWAP1 PUSH2 0x3595 SWAP1 DUP5 SWAP1 PUSH2 0x41D8 JUMP JUMPDEST DUP2 SLOAD PUSH0 SWAP1 DUP2 SWAP1 PUSH2 0x394A SWAP1 PUSH1 0x1 SWAP1 PUSH2 0x41D8 JUMP JUMPDEST SWAP1 POP DUP3 DUP2 EQ DUP1 PUSH2 0x398D JUMPI DUP5 DUP3 DUP2 SLOAD DUP2 LT PUSH2 0x3966 JUMPI PUSH2 0x3966 PUSH2 0x41B0 JUMP JUMPDEST SWAP1 PUSH0 MSTORE PUSH1 0x20 PUSH0 KECCAK256 ADD SLOAD DUP6 DUP6 DUP2 SLOAD DUP2 LT PUSH2 0x3981 JUMPI PUSH2 0x3981 PUSH2 0x41B0 JUMP JUMPDEST PUSH0 SWAP2 DUP3 MSTORE PUSH1 0x20 SWAP1 SWAP2 KECCAK256 ADD SSTORE JUMPDEST DUP5 DUP1 SLOAD DUP1 PUSH2 0x399D JUMPI PUSH2 0x399D PUSH2 0x45D6 JUMP JUMPDEST PUSH1 0x1 SWAP1 SUB DUP2 DUP2 SWAP1 PUSH0 MSTORE PUSH1 0x20 PUSH0 KECCAK256 ADD PUSH0 SWAP1 SSTORE SWAP1 SSTORE DUP1 ISZERO SWAP3 POP POP POP SWAP3 SWAP2 POP POP JUMP JUMPDEST DUP2 SLOAD PUSH0 SWAP1 DUP2 SWAP1 PUSH2 0x39CE SWAP1 PUSH1 0x1 SWAP1 PUSH2 0x41D8 JUMP JUMPDEST SWAP1 POP DUP3 DUP2 EQ DUP1 PUSH2 0x3AAA JUMPI DUP5 DUP3 DUP2 SLOAD DUP2 LT PUSH2 0x39EA JUMPI PUSH2 0x39EA PUSH2 0x41B0 JUMP JUMPDEST SWAP1 PUSH0 MSTORE PUSH1 0x20 PUSH0 KECCAK256 SWAP1 PUSH1 0x8 MUL ADD DUP6 DUP6 DUP2 SLOAD DUP2 LT PUSH2 0x3A08 JUMPI PUSH2 0x3A08 PUSH2 0x41B0 JUMP JUMPDEST PUSH0 SWAP2 DUP3 MSTORE PUSH1 0x20 SWAP1 SWAP2 KECCAK256 DUP3 SLOAD PUSH1 0x8 SWAP1 SWAP3 MUL ADD DUP1 SLOAD PUSH1 0x1 PUSH1 0x1 PUSH1 0xA0 SHL SUB NOT SWAP1 DUP2 AND PUSH1 0x1 PUSH1 0x1 PUSH1 0xA0 SHL SUB SWAP4 DUP5 AND OR DUP3 SSTORE PUSH1 0x1 DUP1 DUP6 ADD DUP1 SLOAD SWAP2 DUP5 ADD DUP1 SLOAD SWAP4 DUP5 AND SWAP3 SWAP1 SWAP6 AND SWAP2 DUP3 OR DUP6 SSTORE SLOAD PUSH1 0xFF PUSH1 0x1 PUSH1 0xA0 SHL SWAP2 DUP3 SWAP1 DIV AND ISZERO ISZERO MUL PUSH1 0x1 PUSH1 0x1 PUSH1 0xA8 SHL SUB NOT SWAP1 SWAP3 AND OR OR SWAP1 SWAP2 SSTORE PUSH1 0x2 DUP1 DUP4 ADD SLOAD SWAP1 DUP3 ADD SSTORE PUSH1 0x3 DUP1 DUP4 ADD SLOAD SWAP1 DUP3 ADD SSTORE PUSH1 0x4 DUP1 DUP4 ADD SLOAD SWAP1 DUP3 ADD SSTORE PUSH1 0x5 DUP1 DUP4 ADD SLOAD SWAP1 DUP3 ADD SSTORE PUSH1 0x6 DUP1 DUP4 ADD SLOAD SWAP1 DUP3 ADD SSTORE PUSH1 0x7 SWAP2 DUP3 ADD SLOAD SWAP2 ADD SSTORE JUMPDEST DUP5 DUP1 SLOAD DUP1 PUSH2 0x3ABA JUMPI PUSH2 0x3ABA PUSH2 0x45D6 JUMP JUMPDEST PUSH0 DUP3 DUP2 MSTORE PUSH1 0x20 DUP2 KECCAK256 PUSH1 0x8 PUSH0 NOT SWAP1 SWAP4 ADD SWAP3 DUP4 MUL ADD DUP1 SLOAD PUSH1 0x1 PUSH1 0x1 PUSH1 0xA0 SHL SUB NOT AND DUP2 SSTORE PUSH1 0x1 DUP2 ADD DUP1 SLOAD PUSH1 0x1 PUSH1 0x1 PUSH1 0xA8 SHL SUB NOT AND SWAP1 SSTORE PUSH1 0x2 DUP2 ADD DUP3 SWAP1 SSTORE PUSH1 0x3 DUP2 ADD DUP3 SWAP1 SSTORE PUSH1 0x4 DUP2 ADD DUP3 SWAP1 SSTORE PUSH1 0x5 DUP2 ADD DUP3 SWAP1 SSTORE PUSH1 0x6 DUP2 ADD DUP3 SWAP1 SSTORE PUSH1 0x7 ADD SSTORE SWAP1 SSTORE ISZERO SWAP2 POP POP SWAP3 SWAP2 POP POP JUMP JUMPDEST PUSH1 0xFF DUP2 AND PUSH0 SWAP1 DUP2 MSTORE PUSH1 0x4 PUSH1 0x20 MSTORE PUSH1 0x40 DUP2 KECCAK256 SLOAD SWAP1 DUP2 SWAP1 SUB PUSH2 0x3B5D JUMPI POP PUSH1 0xFF DUP2 DUP2 AND PUSH0 SWAP1 DUP2 MSTORE PUSH1 0x4 PUSH1 0x20 MSTORE PUSH1 0x40 SWAP1 KECCAK256 PUSH1 0x12 DUP4 SWAP1 SUB SWAP1 SWAP2 AND PUSH1 0xA EXP SWAP1 DUP2 SWAP1 SSTORE JUMPDEST SWAP2 SWAP1 POP JUMP JUMPDEST PUSH0 PUSH2 0x78A DUP4 PUSH8 0xDE0B6B3A7640000 DUP5 PUSH2 0x3B81 JUMP JUMPDEST PUSH0 PUSH2 0x78A DUP4 DUP4 PUSH2 0x3C50 JUMP JUMPDEST PUSH0 DUP1 DUP1 PUSH0 NOT DUP6 DUP8 MULMOD DUP6 DUP8 MUL SWAP3 POP DUP3 DUP2 LT DUP4 DUP3 SUB SUB SWAP2 POP POP DUP1 PUSH0 SUB PUSH2 0x3BB8 JUMPI DUP4 DUP3 DUP2 PUSH2 0x3BAE JUMPI PUSH2 0x3BAE PUSH2 0x431E JUMP JUMPDEST DIV SWAP3 POP POP POP PUSH2 0x78A JUMP JUMPDEST DUP4 DUP2 LT PUSH2 0x3BE9 JUMPI PUSH1 0x40 MLOAD PUSH4 0x362CED09 PUSH1 0xE1 SHL DUP2 MSTORE PUSH1 0x4 DUP2 ADD DUP8 SWAP1 MSTORE PUSH1 0x24 DUP2 ADD DUP7 SWAP1 MSTORE PUSH1 0x44 DUP2 ADD DUP6 SWAP1 MSTORE PUSH1 0x64 ADD PUSH2 0x17AD JUMP JUMPDEST PUSH0 DUP5 DUP7 DUP9 MULMOD PUSH1 0x2 PUSH1 0x1 DUP8 NOT DUP2 ADD DUP9 AND SWAP8 DUP9 SWAP1 DIV PUSH1 0x3 DUP2 MUL DUP4 XOR DUP1 DUP3 MUL DUP5 SUB MUL DUP1 DUP3 MUL DUP5 SUB MUL DUP1 DUP3 MUL DUP5 SUB MUL DUP1 DUP3 MUL DUP5 SUB MUL DUP1 DUP3 MUL DUP5 SUB MUL SWAP1 DUP2 MUL SWAP1 SWAP3 SUB SWAP1 SWAP2 MUL PUSH0 DUP9 SWAP1 SUB DUP9 SWAP1 DIV SWAP1 SWAP2 ADD DUP6 DUP4 GT SWAP1 SWAP5 SUB SWAP4 SWAP1 SWAP4 MUL SWAP4 SUB SWAP5 SWAP1 SWAP5 DIV SWAP2 SWAP1 SWAP2 OR MUL SWAP5 SWAP4 POP POP POP POP JUMP JUMPDEST PUSH0 DUP1 DUP1 PUSH0 NOT DUP5 DUP7 MULMOD DUP5 DUP7 MUL SWAP3 POP DUP3 DUP2 LT DUP4 DUP3 SUB SUB SWAP2 POP POP DUP1 PUSH0 SUB PUSH2 0x3C81 JUMPI POP PUSH8 0xDE0B6B3A7640000 SWAP1 DIV SWAP1 POP PUSH2 0x63C JUMP JUMPDEST PUSH8 0xDE0B6B3A7640000 DUP2 LT PUSH2 0x3CB3 JUMPI PUSH1 0x40 MLOAD PUSH4 0x69E06FAF PUSH1 0xE1 SHL DUP2 MSTORE PUSH1 0x4 DUP2 ADD DUP7 SWAP1 MSTORE PUSH1 0x24 DUP2 ADD DUP6 SWAP1 MSTORE PUSH1 0x44 ADD PUSH2 0x17AD JUMP JUMPDEST PUSH0 PUSH8 0xDE0B6B3A7640000 DUP6 DUP8 MULMOD PUSH3 0x40000 DUP2 DUP6 SUB DIV SWAP4 LT SWAP1 SWAP2 SUB PUSH1 0x1 PUSH1 0xEE SHL MUL SWAP2 SWAP1 SWAP2 OR PUSH32 0xACCB18165BD6FE31AE1CF318DC5B51EEE0E1BA569B88CD74C1773B91FAC10669 MUL SWAP2 POP POP SWAP3 SWAP2 POP POP JUMP JUMPDEST PUSH1 0x40 MLOAD DUP1 PUSH2 0x120 ADD PUSH1 0x40 MSTORE DUP1 PUSH0 PUSH1 0x1 PUSH1 0x1 PUSH1 0xA0 SHL SUB AND DUP2 MSTORE PUSH1 0x20 ADD PUSH0 PUSH1 0x1 PUSH1 0x1 PUSH1 0xA0 SHL SUB AND DUP2 MSTORE PUSH1 0x20 ADD PUSH0 ISZERO ISZERO DUP2 MSTORE PUSH1 0x20 ADD PUSH0 DUP2 MSTORE PUSH1 0x20 ADD PUSH0 DUP2 MSTORE PUSH1 0x20 ADD PUSH0 DUP2 MSTORE PUSH1 0x20 ADD PUSH0 DUP2 MSTORE PUSH1 0x20 ADD PUSH0 DUP2 MSTORE PUSH1 0x20 ADD PUSH0 DUP2 MSTORE POP SWAP1 JUMP JUMPDEST PUSH1 0x40 MLOAD DUP1 PUSH2 0x140 ADD PUSH1 0x40 MSTORE DUP1 PUSH0 DUP2 MSTORE PUSH1 0x20 ADD PUSH1 0x60 DUP2 MSTORE PUSH1 0x20 ADD PUSH1 0x60 DUP2 MSTORE PUSH1 0x20 ADD PUSH0 PUSH1 0x1 PUSH1 0x1 PUSH1 0xA0 SHL SUB AND DUP2 MSTORE PUSH1 0x20 ADD PUSH0 PUSH1 0x1 PUSH1 0x1 PUSH1 0xA0 SHL SUB AND DUP2 MSTORE PUSH1 0x20 ADD PUSH0 DUP2 MSTORE PUSH1 0x20 ADD PUSH0 DUP2 MSTORE PUSH1 0x20 ADD PUSH0 PUSH1 0x1 DUP2 GT ISZERO PUSH2 0x3DB5 JUMPI PUSH2 0x3DB5 PUSH2 0x3EE3 JUMP JUMPDEST DUP2 MSTORE PUSH1 0x20 ADD PUSH0 DUP2 MSTORE PUSH1 0x20 ADD PUSH0 DUP2 MSTORE POP SWAP1 JUMP JUMPDEST DUP1 CALLDATALOAD PUSH1 0x1 PUSH1 0x1 PUSH1 0xA0 SHL SUB DUP2 AND DUP2 EQ PUSH2 0x3B5D JUMPI PUSH0 DUP1 REVERT JUMPDEST PUSH0 DUP1 PUSH1 0x40 DUP4 DUP6 SUB SLT ISZERO PUSH2 0x3DEE JUMPI PUSH0 DUP1 REVERT JUMPDEST PUSH2 0x3DF7 DUP4 PUSH2 0x3DC7 JUMP JUMPDEST SWAP5 PUSH1 0x20 SWAP4 SWAP1 SWAP4 ADD CALLDATALOAD SWAP4 POP POP POP JUMP JUMPDEST DUP2 MLOAD PUSH1 0x1 PUSH1 0x1 PUSH1 0xA0 SHL SUB SWAP1 DUP2 AND DUP3 MSTORE PUSH1 0x20 DUP1 DUP5 ADD MLOAD SWAP1 SWAP2 AND SWAP1 DUP3 ADD MSTORE PUSH1 0x40 DUP1 DUP4 ADD MLOAD PUSH2 0x120 DUP4 ADD SWAP2 PUSH2 0x3E3A SWAP1 DUP5 ADD DUP3 ISZERO ISZERO SWAP1 MSTORE JUMP JUMPDEST POP PUSH1 0x60 DUP4 ADD MLOAD PUSH1 0x60 DUP4 ADD MSTORE PUSH1 0x80 DUP4 ADD MLOAD PUSH1 0x80 DUP4 ADD MSTORE PUSH1 0xA0 DUP4 ADD MLOAD PUSH1 0xA0 DUP4 ADD MSTORE PUSH1 0xC0 DUP4 ADD MLOAD PUSH1 0xC0 DUP4 ADD MSTORE PUSH1 0xE0 DUP4 ADD MLOAD PUSH1 0xE0 DUP4 ADD MSTORE PUSH2 0x100 DUP1 DUP5 ADD MLOAD DUP2 DUP5 ADD MSTORE POP SWAP3 SWAP2 POP POP JUMP JUMPDEST PUSH0 PUSH1 0x20 DUP3 DUP5 SUB SLT ISZERO PUSH2 0x3E8F JUMPI PUSH0 DUP1 REVERT JUMPDEST POP CALLDATALOAD SWAP2 SWAP1 POP JUMP JUMPDEST PUSH0 JUMPDEST DUP4 DUP2 LT ISZERO PUSH2 0x3EB0 JUMPI DUP2 DUP2 ADD MLOAD DUP4 DUP3 ADD MSTORE PUSH1 0x20 ADD PUSH2 0x3E98 JUMP JUMPDEST POP POP PUSH0 SWAP2 ADD MSTORE JUMP JUMPDEST PUSH0 DUP2 MLOAD DUP1 DUP5 MSTORE PUSH2 0x3ECF DUP2 PUSH1 0x20 DUP7 ADD PUSH1 0x20 DUP7 ADD PUSH2 0x3E96 JUMP JUMPDEST PUSH1 0x1F ADD PUSH1 0x1F NOT AND SWAP3 SWAP1 SWAP3 ADD PUSH1 0x20 ADD SWAP3 SWAP2 POP POP JUMP JUMPDEST PUSH4 0x4E487B71 PUSH1 0xE0 SHL PUSH0 MSTORE PUSH1 0x21 PUSH1 0x4 MSTORE PUSH1 0x24 PUSH0 REVERT JUMPDEST PUSH1 0x2 DUP2 LT PUSH2 0x3F13 JUMPI PUSH4 0x4E487B71 PUSH1 0xE0 SHL PUSH0 MSTORE PUSH1 0x21 PUSH1 0x4 MSTORE PUSH1 0x24 PUSH0 REVERT JUMPDEST SWAP1 MSTORE JUMP JUMPDEST PUSH1 0x20 DUP2 MSTORE DUP2 MLOAD PUSH1 0x20 DUP3 ADD MSTORE PUSH0 PUSH1 0x20 DUP4 ADD MLOAD PUSH2 0x140 DUP1 PUSH1 0x40 DUP6 ADD MSTORE PUSH2 0x3F3F PUSH2 0x160 DUP6 ADD DUP4 PUSH2 0x3EB8 JUMP JUMPDEST SWAP2 POP PUSH1 0x40 DUP6 ADD MLOAD PUSH1 0x1F NOT DUP6 DUP5 SUB ADD PUSH1 0x60 DUP7 ADD MSTORE PUSH2 0x3F5C DUP4 DUP3 PUSH2 0x3EB8 JUMP JUMPDEST SWAP3 POP POP PUSH1 0x60 DUP6 ADD MLOAD PUSH2 0x3F79 PUSH1 0x80 DUP7 ADD DUP3 PUSH1 0x1 PUSH1 0x1 PUSH1 0xA0 SHL SUB AND SWAP1 MSTORE JUMP JUMPDEST POP PUSH1 0x80 DUP6 ADD MLOAD PUSH1 0x1 PUSH1 0x1 PUSH1 0xA0 SHL SUB DUP2 AND PUSH1 0xA0 DUP7 ADD MSTORE POP PUSH1 0xA0 DUP6 ADD MLOAD PUSH1 0xC0 DUP6 ADD MSTORE PUSH1 0xC0 DUP6 ADD MLOAD PUSH1 0xE0 DUP6 ADD MSTORE PUSH1 0xE0 DUP6 ADD MLOAD PUSH2 0x100 PUSH2 0x3FB7 DUP2 DUP8 ADD DUP4 PUSH2 0x3EF7 JUMP JUMPDEST DUP7 ADD MLOAD PUSH2 0x120 DUP7 DUP2 ADD SWAP2 SWAP1 SWAP2 MSTORE SWAP1 SWAP6 ADD MLOAD SWAP4 ADD SWAP3 SWAP1 SWAP3 MSTORE POP SWAP2 SWAP1 POP JUMP JUMPDEST DUP1 ISZERO ISZERO DUP2 EQ PUSH2 0x2FC0 JUMPI PUSH0 DUP1 REVERT JUMPDEST PUSH0 DUP1 PUSH1 0x40 DUP4 DUP6 SUB SLT ISZERO PUSH2 0x3FF2 JUMPI PUSH0 DUP1 REVERT JUMPDEST PUSH2 0x3FFB DUP4 PUSH2 0x3DC7 JUMP JUMPDEST SWAP2 POP PUSH1 0x20 DUP4 ADD CALLDATALOAD PUSH2 0x400B DUP2 PUSH2 0x3FD4 JUMP JUMPDEST DUP1 SWAP2 POP POP SWAP3 POP SWAP3 SWAP1 POP JUMP JUMPDEST PUSH4 0x4E487B71 PUSH1 0xE0 SHL PUSH0 MSTORE PUSH1 0x41 PUSH1 0x4 MSTORE PUSH1 0x24 PUSH0 REVERT JUMPDEST PUSH1 0x40 MLOAD PUSH1 0x1F DUP3 ADD PUSH1 0x1F NOT AND DUP2 ADD PUSH8 0xFFFFFFFFFFFFFFFF DUP2 GT DUP3 DUP3 LT OR ISZERO PUSH2 0x4053 JUMPI PUSH2 0x4053 PUSH2 0x4016 JUMP JUMPDEST PUSH1 0x40 MSTORE SWAP2 SWAP1 POP JUMP JUMPDEST PUSH0 PUSH8 0xFFFFFFFFFFFFFFFF DUP3 GT ISZERO PUSH2 0x4074 JUMPI PUSH2 0x4074 PUSH2 0x4016 JUMP JUMPDEST POP PUSH1 0x1F ADD PUSH1 0x1F NOT AND PUSH1 0x20 ADD SWAP1 JUMP JUMPDEST PUSH0 DUP1 PUSH0 DUP1 PUSH1 0x80 DUP6 DUP8 SUB SLT ISZERO PUSH2 0x4095 JUMPI PUSH0 DUP1 REVERT JUMPDEST PUSH2 0x409E DUP6 PUSH2 0x3DC7 JUMP JUMPDEST SWAP4 POP PUSH1 0x20 DUP6 ADD CALLDATALOAD SWAP3 POP PUSH1 0x40 DUP6 ADD CALLDATALOAD SWAP2 POP PUSH1 0x60 DUP6 ADD CALLDATALOAD PUSH8 0xFFFFFFFFFFFFFFFF DUP2 GT ISZERO PUSH2 0x40C7 JUMPI PUSH0 DUP1 REVERT JUMPDEST DUP6 ADD PUSH1 0x1F DUP2 ADD DUP8 SGT PUSH2 0x40D7 JUMPI PUSH0 DUP1 REVERT JUMPDEST DUP1 CALLDATALOAD PUSH2 0x40EA PUSH2 0x40E5 DUP3 PUSH2 0x405B JUMP JUMPDEST PUSH2 0x402A JUMP JUMPDEST DUP2 DUP2 MSTORE DUP9 PUSH1 0x20 DUP4 DUP6 ADD ADD GT ISZERO PUSH2 0x40FE JUMPI PUSH0 DUP1 REVERT JUMPDEST DUP2 PUSH1 0x20 DUP5 ADD PUSH1 0x20 DUP4 ADD CALLDATACOPY PUSH0 PUSH1 0x20 DUP4 DUP4 ADD ADD MSTORE DUP1 SWAP4 POP POP POP POP SWAP3 SWAP6 SWAP2 SWAP5 POP SWAP3 POP JUMP JUMPDEST PUSH0 DUP1 PUSH0 DUP1 PUSH1 0x80 DUP6 DUP8 SUB SLT ISZERO PUSH2 0x4132 JUMPI PUSH0 DUP1 REVERT JUMPDEST PUSH2 0x413B DUP6 PUSH2 0x3DC7 JUMP JUMPDEST SWAP4 POP PUSH2 0x4149 PUSH1 0x20 DUP7 ADD PUSH2 0x3DC7 JUMP JUMPDEST SWAP4 SWAP7 SWAP4 SWAP6 POP POP POP POP PUSH1 0x40 DUP3 ADD CALLDATALOAD SWAP2 PUSH1 0x60 ADD CALLDATALOAD SWAP1 JUMP JUMPDEST PUSH0 PUSH1 0x20 DUP3 DUP5 SUB SLT ISZERO PUSH2 0x416E JUMPI PUSH0 DUP1 REVERT JUMPDEST PUSH2 0x78A DUP3 PUSH2 0x3DC7 JUMP JUMPDEST PUSH0 DUP1 PUSH0 PUSH1 0x60 DUP5 DUP7 SUB SLT ISZERO PUSH2 0x4189 JUMPI PUSH0 DUP1 REVERT JUMPDEST PUSH2 0x4192 DUP5 PUSH2 0x3DC7 JUMP JUMPDEST SWAP3 POP PUSH2 0x41A0 PUSH1 0x20 DUP6 ADD PUSH2 0x3DC7 JUMP JUMPDEST SWAP2 POP PUSH1 0x40 DUP5 ADD CALLDATALOAD SWAP1 POP SWAP3 POP SWAP3 POP SWAP3 JUMP JUMPDEST PUSH4 0x4E487B71 PUSH1 0xE0 SHL PUSH0 MSTORE PUSH1 0x32 PUSH1 0x4 MSTORE PUSH1 0x24 PUSH0 REVERT JUMPDEST PUSH4 0x4E487B71 PUSH1 0xE0 SHL PUSH0 MSTORE PUSH1 0x11 PUSH1 0x4 MSTORE PUSH1 0x24 PUSH0 REVERT JUMPDEST DUP2 DUP2 SUB DUP2 DUP2 GT ISZERO PUSH2 0x63C JUMPI PUSH2 0x63C PUSH2 0x41C4 JUMP JUMPDEST PUSH0 PUSH1 0x1 DUP3 ADD PUSH2 0x41FC JUMPI PUSH2 0x41FC PUSH2 0x41C4 JUMP JUMPDEST POP PUSH1 0x1 ADD SWAP1 JUMP JUMPDEST PUSH0 DUP2 PUSH2 0x4211 JUMPI PUSH2 0x4211 PUSH2 0x41C4 JUMP JUMPDEST POP PUSH0 NOT ADD SWAP1 JUMP JUMPDEST DUP1 DUP3 ADD DUP1 DUP3 GT ISZERO PUSH2 0x63C JUMPI PUSH2 0x63C PUSH2 0x41C4 JUMP JUMPDEST PUSH0 PUSH1 0x20 DUP3 DUP5 SUB SLT ISZERO PUSH2 0x423B JUMPI PUSH0 DUP1 REVERT JUMPDEST POP MLOAD SWAP2 SWAP1 POP JUMP JUMPDEST PUSH1 0x1 DUP2 DUP2 SHR SWAP1 DUP3 AND DUP1 PUSH2 0x4256 JUMPI PUSH1 0x7F DUP3 AND SWAP2 POP JUMPDEST PUSH1 0x20 DUP3 LT DUP2 SUB PUSH2 0x4274 JUMPI PUSH4 0x4E487B71 PUSH1 0xE0 SHL PUSH0 MSTORE PUSH1 0x22 PUSH1 0x4 MSTORE PUSH1 0x24 PUSH0 REVERT JUMPDEST POP SWAP2 SWAP1 POP JUMP JUMPDEST PUSH0 PUSH1 0x20 DUP3 DUP5 SUB SLT ISZERO PUSH2 0x428A JUMPI PUSH0 DUP1 REVERT JUMPDEST DUP2 MLOAD PUSH8 0xFFFFFFFFFFFFFFFF DUP2 GT ISZERO PUSH2 0x42A0 JUMPI PUSH0 DUP1 REVERT JUMPDEST DUP3 ADD PUSH1 0x1F DUP2 ADD DUP5 SGT PUSH2 0x42B0 JUMPI PUSH0 DUP1 REVERT JUMPDEST DUP1 MLOAD PUSH2 0x42BE PUSH2 0x40E5 DUP3 PUSH2 0x405B JUMP JUMPDEST DUP2 DUP2 MSTORE DUP6 PUSH1 0x20 DUP4 DUP6 ADD ADD GT ISZERO PUSH2 0x42D2 JUMPI PUSH0 DUP1 REVERT JUMPDEST PUSH2 0x42E3 DUP3 PUSH1 0x20 DUP4 ADD PUSH1 0x20 DUP7 ADD PUSH2 0x3E96 JUMP JUMPDEST SWAP6 SWAP5 POP POP POP POP POP JUMP JUMPDEST PUSH0 PUSH1 0x20 DUP3 DUP5 SUB SLT ISZERO PUSH2 0x42FC JUMPI PUSH0 DUP1 REVERT JUMPDEST DUP2 MLOAD PUSH2 0x78A DUP2 PUSH2 0x3FD4 JUMP JUMPDEST DUP1 DUP3 MUL DUP2 ISZERO DUP3 DUP3 DIV DUP5 EQ OR PUSH2 0x63C JUMPI PUSH2 0x63C PUSH2 0x41C4 JUMP JUMPDEST PUSH4 0x4E487B71 PUSH1 0xE0 SHL PUSH0 MSTORE PUSH1 0x12 PUSH1 0x4 MSTORE PUSH1 0x24 PUSH0 REVERT JUMPDEST PUSH0 DUP3 PUSH2 0x434C JUMPI PUSH4 0x4E487B71 PUSH1 0xE0 SHL PUSH0 MSTORE PUSH1 0x12 PUSH1 0x4 MSTORE PUSH1 0x24 PUSH0 REVERT JUMPDEST POP DIV SWAP1 JUMP JUMPDEST PUSH0 PUSH1 0x20 DUP3 DUP5 SUB SLT ISZERO PUSH2 0x4361 JUMPI PUSH0 DUP1 REVERT JUMPDEST DUP2 MLOAD PUSH1 0xFF DUP2 AND DUP2 EQ PUSH2 0x78A JUMPI PUSH0 DUP1 REVERT JUMPDEST PUSH1 0x1F DUP3 GT ISZERO PUSH2 0xDDE JUMPI DUP1 PUSH0 MSTORE PUSH1 0x20 PUSH0 KECCAK256 PUSH1 0x1F DUP5 ADD PUSH1 0x5 SHR DUP2 ADD PUSH1 0x20 DUP6 LT ISZERO PUSH2 0x4396 JUMPI POP DUP1 JUMPDEST PUSH1 0x1F DUP5 ADD PUSH1 0x5 SHR DUP3 ADD SWAP2 POP JUMPDEST DUP2 DUP2 LT ISZERO PUSH2 0x971 JUMPI PUSH0 DUP2 SSTORE PUSH1 0x1 ADD PUSH2 0x43A2 JUMP JUMPDEST DUP2 MLOAD PUSH8 0xFFFFFFFFFFFFFFFF DUP2 GT ISZERO PUSH2 0x43CF JUMPI PUSH2 0x43CF PUSH2 0x4016 JUMP JUMPDEST PUSH2 0x43E3 DUP2 PUSH2 0x43DD DUP5 SLOAD PUSH2 0x4242 JUMP JUMPDEST DUP5 PUSH2 0x4371 JUMP JUMPDEST PUSH1 0x20 DUP1 PUSH1 0x1F DUP4 GT PUSH1 0x1 DUP2 EQ PUSH2 0x4416 JUMPI PUSH0 DUP5 ISZERO PUSH2 0x43FF JUMPI POP DUP6 DUP4 ADD MLOAD JUMPDEST PUSH0 NOT PUSH1 0x3 DUP7 SWAP1 SHL SHR NOT AND PUSH1 0x1 DUP6 SWAP1 SHL OR DUP6 SSTORE PUSH2 0x1350 JUMP JUMPDEST PUSH0 DUP6 DUP2 MSTORE PUSH1 0x20 DUP2 KECCAK256 PUSH1 0x1F NOT DUP7 AND SWAP2 JUMPDEST DUP3 DUP2 LT ISZERO PUSH2 0x4444 JUMPI DUP9 DUP7 ADD MLOAD DUP3 SSTORE SWAP5 DUP5 ADD SWAP5 PUSH1 0x1 SWAP1 SWAP2 ADD SWAP1 DUP5 ADD PUSH2 0x4425 JUMP JUMPDEST POP DUP6 DUP3 LT ISZERO PUSH2 0x4461 JUMPI DUP8 DUP6 ADD MLOAD PUSH0 NOT PUSH1 0x3 DUP9 SWAP1 SHL PUSH1 0xF8 AND SHR NOT AND DUP2 SSTORE JUMPDEST POP POP POP POP POP PUSH1 0x1 SWAP1 DUP2 SHL ADD SWAP1 SSTORE POP JUMP JUMPDEST PUSH0 DUP3 MLOAD PUSH2 0x4482 DUP2 DUP5 PUSH1 0x20 DUP8 ADD PUSH2 0x3E96 JUMP JUMPDEST SWAP2 SWAP1 SWAP2 ADD SWAP3 SWAP2 POP POP JUMP JUMPDEST PUSH1 0x60 DUP2 ADD PUSH2 0x449A DUP3 DUP7 PUSH2 0x3EF7 JUMP JUMPDEST PUSH1 0x1 PUSH1 0x1 PUSH1 0xA0 SHL SUB SWAP4 SWAP1 SWAP4 AND PUSH1 0x20 DUP3 ADD MSTORE PUSH1 0x40 ADD MSTORE SWAP2 SWAP1 POP JUMP JUMPDEST PUSH0 PUSH1 0xFF DUP3 AND DUP1 PUSH2 0x44C6 JUMPI PUSH2 0x44C6 PUSH2 0x41C4 JUMP JUMPDEST PUSH0 NOT ADD SWAP3 SWAP2 POP POP JUMP JUMPDEST PUSH1 0x1 DUP2 DUP2 JUMPDEST DUP1 DUP6 GT ISZERO PUSH2 0x4509 JUMPI DUP2 PUSH0 NOT DIV DUP3 GT ISZERO PUSH2 0x44EF JUMPI PUSH2 0x44EF PUSH2 0x41C4 JUMP JUMPDEST DUP1 DUP6 AND ISZERO PUSH2 0x44FC JUMPI SWAP2 DUP2 MUL SWAP2 JUMPDEST SWAP4 DUP5 SHR SWAP4 SWAP1 DUP1 MUL SWAP1 PUSH2 0x44D4 JUMP JUMPDEST POP SWAP3 POP SWAP3 SWAP1 POP JUMP JUMPDEST PUSH0 DUP3 PUSH2 0x451F JUMPI POP PUSH1 0x1 PUSH2 0x63C JUMP JUMPDEST DUP2 PUSH2 0x452B JUMPI POP PUSH0 PUSH2 0x63C JUMP JUMPDEST DUP2 PUSH1 0x1 DUP2 EQ PUSH2 0x4541 JUMPI PUSH1 0x2 DUP2 EQ PUSH2 0x454B JUMPI PUSH2 0x4567 JUMP JUMPDEST PUSH1 0x1 SWAP2 POP POP PUSH2 0x63C JUMP JUMPDEST PUSH1 0xFF DUP5 GT ISZERO PUSH2 0x455C JUMPI PUSH2 0x455C PUSH2 0x41C4 JUMP JUMPDEST POP POP PUSH1 0x1 DUP3 SHL PUSH2 0x63C JUMP JUMPDEST POP PUSH1 0x20 DUP4 LT PUSH2 0x133 DUP4 LT AND PUSH1 0x4E DUP5 LT PUSH1 0xB DUP5 LT AND OR ISZERO PUSH2 0x458A JUMPI POP DUP2 DUP2 EXP PUSH2 0x63C JUMP JUMPDEST PUSH2 0x4594 DUP4 DUP4 PUSH2 0x44CF JUMP JUMPDEST DUP1 PUSH0 NOT DIV DUP3 GT ISZERO PUSH2 0x45A7 JUMPI PUSH2 0x45A7 PUSH2 0x41C4 JUMP JUMPDEST MUL SWAP4 SWAP3 POP POP POP JUMP JUMPDEST PUSH0 PUSH2 0x78A PUSH1 0xFF DUP5 AND DUP4 PUSH2 0x4511 JUMP JUMPDEST PUSH1 0xFF DUP3 DUP2 AND DUP3 DUP3 AND SUB SWAP1 DUP2 GT ISZERO PUSH2 0x63C JUMPI PUSH2 0x63C PUSH2 0x41C4 JUMP JUMPDEST PUSH4 0x4E487B71 PUSH1 0xE0 SHL PUSH0 MSTORE PUSH1 0x31 PUSH1 0x4 MSTORE PUSH1 0x24 PUSH0 REVERT INVALID LOG2 PUSH5 0x6970667358 0x22 SLT KECCAK256 MOD 0xAF 0xD4 0xE8 LT ISZERO CALLER CALLER PUSH20 0x4CB2A48B73A073859C1E5A39D857652CF88DEAF7 0xED 0xC7 EXTCODEHASH PUSH5 0x736F6C6343 STOP ADDMOD AND STOP CALLER "
		},
		"gasEstimates": {
			"creation": {
				"codeDepositCost": "3590400",
				"executionCost": "infinite",
				"totalCost": "infinite"
			},
			"external": {
				"assignPriceDAO(address)": "infinite",
				"clearOrders()": "infinite",
				"clearTokenOrders(address)": "infinite",
				"createBuyOrder(address)": "infinite",
				"createSellOrder(address,uint256)": "infinite",
				"deposit(address)": "24776",
				"depositToken(address,uint256)": "infinite",
				"depositTokenFrom(address,address,uint256)": "infinite",
				"getBalance()": "228",
				"listParityToken(address,address,uint256,uint256)": "infinite",
				"listToken(address,uint256,uint256,string)": "infinite",
				"listingCost()": "2427",
				"orders(uint256)": "19690",
				"owner()": "2380",
				"queryBalance(address,bool)": "2793",
				"settleOrders(address,bool)": "infinite",
				"takeBuyOrder(address,uint256)": "infinite",
				"takeSellOrder(address)": "infinite",
				"transferOwnership(address)": "28169",
				"updateTokenBalance(address)": "infinite",
				"viewOrder(uint256)": "22374",
				"viewOrderByMaker(address,uint256)": "infinite",
				"viewOrderByToken(address,uint256)": "infinite",
				"viewPrice()": "2335",
				"viewToken(address)": "infinite",
				"viewTokenByIndex(uint256)": "infinite"
			},
			"internal": {
				"_chargeForListing()": "infinite",
				"_createOrder(struct DexhuneExchangeBase.Token storage pointer,bool,uint256)": "infinite",
				"_depositToken(address,address,uint256)": "infinite",
				"_displayToken(uint256)": "infinite",
				"_ensurePrice()": "infinite",
				"_fetchStorageToken(address)": "infinite",
				"_fetchToken(address)": "infinite",
				"_findSuitableOrder(address,uint256)": "infinite",
				"_listToken(address,enum DexhuneExchangeBase.PricingScheme,uint256,uint256,address,string memory)": "infinite",
				"_makeOrderPayments(struct DexhuneExchangeBase.Order memory,struct DexhuneExchangeBase.Token memory,uint256,uint256)": "infinite",
				"_prepareToken(address,uint256,enum DexhuneExchangeBase.PricingScheme,address,uint256,uint256)": "infinite",
				"_removeOrder(struct DexhuneExchangeBase.Order memory,uint256)": "infinite",
				"_revertOrder(struct DexhuneExchangeBase.Order memory,uint256)": "infinite",
				"_rewardTaker(struct DexhuneExchangeBase.Token memory,uint256)": "infinite",
				"_settleBuyOrder(struct DexhuneExchangeBase.Token memory,struct DexhuneExchangeBase.Order storage pointer,uint256,uint256)": "infinite",
				"_settleSellOrder(struct DexhuneExchangeBase.Token memory,struct DexhuneExchangeBase.Order storage pointer,uint256,uint256)": "infinite",
				"_takeOrder(struct DexhuneExchangeBase.Order storage pointer,bool,uint256,uint256,address)": "infinite"
			}
		},
		"methodIdentifiers": {
			"assignPriceDAO(address)": "86f179d2",
			"clearOrders()": "9351769f",
			"clearTokenOrders(address)": "6aafbddd",
			"createBuyOrder(address)": "d2980065",
			"createSellOrder(address,uint256)": "a262b73f",
			"deposit(address)": "f340fa01",
			"depositToken(address,uint256)": "338b5dea",
			"depositTokenFrom(address,address,uint256)": "a08b5bba",
			"getBalance()": "12065fe0",
			"listParityToken(address,address,uint256,uint256)": "5264c8d9",
			"listToken(address,uint256,uint256,string)": "4d9ea07d",
			"listingCost()": "a5b6f92a",
			"orders(uint256)": "a85c38ef",
			"owner()": "8da5cb5b",
			"queryBalance(address,bool)": "3b174f0f",
			"settleOrders(address,bool)": "c201e47c",
			"takeBuyOrder(address,uint256)": "db34a679",
			"takeSellOrder(address)": "6daf6945",
			"transferOwnership(address)": "f2fde38b",
			"updateTokenBalance(address)": "87b337e8",
			"viewOrder(uint256)": "7c38d663",
			"viewOrderByMaker(address,uint256)": "076d782e",
			"viewOrderByToken(address,uint256)": "3ef73856",
			"viewPrice()": "d7dcdcec",
			"viewToken(address)": "673cf82a",
			"viewTokenByIndex(uint256)": "1f5d2641"
		}
	},
	"abi": [
		{
			"inputs": [],
			"stateMutability": "nonpayable",
			"type": "constructor"
		},
		{
			"inputs": [],
			"name": "DepositFailed",
			"type": "error"
		},
		{
			"inputs": [],
			"name": "FailedStringToNumberConversion",
			"type": "error"
		},
		{
			"inputs": [],
			"name": "FailedToSendReward",
			"type": "error"
		},
		{
			"inputs": [],
			"name": "FailedToTakeOrder",
			"type": "error"
		},
		{
			"inputs": [
				{
					"internalType": "uint256",
					"name": "balance",
					"type": "uint256"
				}
			],
			"name": "InsufficientBalance",
			"type": "error"
		},
		{
			"inputs": [
				{
					"internalType": "uint256",
					"name": "listingPrice",
					"type": "uint256"
				}
			],
			"name": "InsufficientBalanceForListing",
			"type": "error"
		},
		{
			"inputs": [],
			"name": "InvalidTokenContract",
			"type": "error"
		},
		{
			"inputs": [
				{
					"internalType": "uint256",
					"name": "x",
					"type": "uint256"
				},
				{
					"internalType": "uint256",
					"name": "y",
					"type": "uint256"
				}
			],
			"name": "MulDiv18Overflow",
			"type": "error"
		},
		{
			"inputs": [
				{
					"internalType": "uint256",
					"name": "x",
					"type": "uint256"
				},
				{
					"internalType": "uint256",
					"name": "y",
					"type": "uint256"
				},
				{
					"internalType": "uint256",
					"name": "denominator",
					"type": "uint256"
				}
			],
			"name": "MulDivOverflow",
			"type": "error"
		},
		{
			"inputs": [],
			"name": "NoSuitableOrderFound",
			"type": "error"
		},
		{
			"inputs": [],
			"name": "OnlyOwnerMustSetDefaultToken",
			"type": "error"
		},
		{
			"inputs": [],
			"name": "OrderDoesNotExist",
			"type": "error"
		},
		{
			"inputs": [],
			"name": "ParityShouldNotHavePrice",
			"type": "error"
		},
		{
			"inputs": [],
			"name": "RejectedZeroAmount",
			"type": "error"
		},
		{
			"inputs": [
				{
					"internalType": "address",
					"name": "contractAddr",
					"type": "address"
				}
			],
			"name": "TokenAlreadyExists",
			"type": "error"
		},
		{
			"inputs": [],
			"name": "TokenLimitReached",
			"type": "error"
		},
		{
			"inputs": [],
			"name": "TokenNotListed",
			"type": "error"
		},
		{
			"inputs": [],
			"name": "TokenNotSupported_TooManyDecimals",
			"type": "error"
		},
		{
			"inputs": [],
			"name": "TokenOrderLimitReachedRetryOrClear",
			"type": "error"
		},
		{
			"inputs": [
				{
					"internalType": "address",
					"name": "account",
					"type": "address"
				}
			],
			"name": "UnauthorizedAccount",
			"type": "error"
		},
		{
			"anonymous": false,
			"inputs": [
				{
					"indexed": false,
					"internalType": "uint256",
					"name": "amount",
					"type": "uint256"
				},
				{
					"indexed": false,
					"internalType": "address",
					"name": "targetAddr",
					"type": "address"
				}
			],
			"name": "AVAXTransferred",
			"type": "event"
		},
		{
			"anonymous": false,
			"inputs": [
				{
					"indexed": false,
					"internalType": "address",
					"name": "addr",
					"type": "address"
				}
			],
			"name": "AssignedPriceDAO",
			"type": "event"
		},
		{
			"anonymous": false,
			"inputs": [
				{
					"indexed": false,
					"internalType": "uint256",
					"name": "index",
					"type": "uint256"
				},
				{
					"indexed": false,
					"internalType": "bool",
					"name": "orderType",
					"type": "bool"
				},
				{
					"indexed": false,
					"internalType": "address",
					"name": "tokenAddr",
					"type": "address"
				},
				{
					"indexed": false,
					"internalType": "uint256",
					"name": "amount",
					"type": "uint256"
				},
				{
					"indexed": false,
					"internalType": "uint256",
					"name": "price",
					"type": "uint256"
				}
			],
			"name": "OrderCreated",
			"type": "event"
		},
		{
			"anonymous": false,
			"inputs": [
				{
					"indexed": false,
					"internalType": "uint256",
					"name": "index",
					"type": "uint256"
				},
				{
					"indexed": false,
					"internalType": "bool",
					"name": "orderType",
					"type": "bool"
				},
				{
					"indexed": false,
					"internalType": "address",
					"name": "maker",
					"type": "address"
				}
			],
			"name": "OrderReverted",
			"type": "event"
		},
		{
			"anonymous": false,
			"inputs": [
				{
					"indexed": false,
					"internalType": "uint256",
					"name": "index",
					"type": "uint256"
				},
				{
					"indexed": false,
					"internalType": "bool",
					"name": "orderType",
					"type": "bool"
				},
				{
					"indexed": false,
					"internalType": "address",
					"name": "maker",
					"type": "address"
				},
				{
					"indexed": false,
					"internalType": "bool",
					"name": "isPartial",
					"type": "bool"
				}
			],
			"name": "OrderSettled",
			"type": "event"
		},
		{
			"anonymous": false,
			"inputs": [
				{
					"indexed": false,
					"internalType": "uint256",
					"name": "index",
					"type": "uint256"
				},
				{
					"indexed": false,
					"internalType": "bool",
					"name": "orderType",
					"type": "bool"
				},
				{
					"indexed": false,
					"internalType": "address",
					"name": "maker",
					"type": "address"
				},
				{
					"indexed": false,
					"internalType": "address",
					"name": "taker",
					"type": "address"
				},
				{
					"indexed": false,
					"internalType": "address",
					"name": "token",
					"type": "address"
				},
				{
					"indexed": false,
					"internalType": "uint256",
					"name": "amount",
					"type": "uint256"
				},
				{
					"indexed": false,
					"internalType": "bool",
					"name": "isPartial",
					"type": "bool"
				}
			],
			"name": "OrderTaken",
			"type": "event"
		},
		{
			"anonymous": false,
			"inputs": [
				{
					"indexed": true,
					"internalType": "string",
					"name": "name",
					"type": "string"
				},
				{
					"indexed": true,
					"internalType": "string",
					"name": "symbol",
					"type": "string"
				},
				{
					"indexed": false,
					"internalType": "enum DexhuneExchangeBase.PricingScheme",
					"name": "pricingScheme",
					"type": "uint8"
				},
				{
					"indexed": false,
					"internalType": "address",
					"name": "addr",
					"type": "address"
				},
				{
					"indexed": false,
					"internalType": "uint256",
					"name": "index",
					"type": "uint256"
				}
			],
			"name": "TokenListed",
			"type": "event"
		},
		{
			"anonymous": false,
			"inputs": [
				{
					"indexed": false,
					"internalType": "uint256",
					"name": "amount",
					"type": "uint256"
				},
				{
					"indexed": false,
					"internalType": "address",
					"name": "targetAddr",
					"type": "address"
				},
				{
					"indexed": false,
					"internalType": "address",
					"name": "tokenAddr",
					"type": "address"
				}
			],
			"name": "TokenTransferred",
			"type": "event"
		},
		{
			"anonymous": false,
			"inputs": [
				{
					"indexed": false,
					"internalType": "address",
					"name": "oldOwner",
					"type": "address"
				},
				{
					"indexed": false,
					"internalType": "address",
					"name": "newOwner",
					"type": "address"
				}
			],
			"name": "TransferredOwnership",
			"type": "event"
		},
		{
			"inputs": [
				{
					"internalType": "address",
					"name": "addr",
					"type": "address"
				}
			],
			"name": "assignPriceDAO",
			"outputs": [],
			"stateMutability": "nonpayable",
			"type": "function"
		},
		{
			"inputs": [],
			"name": "clearOrders",
			"outputs": [],
			"stateMutability": "nonpayable",
			"type": "function"
		},
		{
			"inputs": [
				{
					"internalType": "address",
					"name": "tokenAddr",
					"type": "address"
				}
			],
			"name": "clearTokenOrders",
			"outputs": [],
			"stateMutability": "nonpayable",
			"type": "function"
		},
		{
			"inputs": [
				{
					"internalType": "address",
					"name": "tokenAddr",
					"type": "address"
				}
			],
			"name": "createBuyOrder",
			"outputs": [],
			"stateMutability": "payable",
			"type": "function"
		},
		{
			"inputs": [
				{
					"internalType": "address",
					"name": "tokenAddr",
					"type": "address"
				},
				{
					"internalType": "uint256",
					"name": "amount",
					"type": "uint256"
				}
			],
			"name": "createSellOrder",
			"outputs": [],
			"stateMutability": "nonpayable",
			"type": "function"
		},
		{
			"inputs": [
				{
					"internalType": "address",
					"name": "tokenAddr",
					"type": "address"
				}
			],
			"name": "deposit",
			"outputs": [],
			"stateMutability": "payable",
			"type": "function"
		},
		{
			"inputs": [
				{
					"internalType": "address",
					"name": "tokenAddr",
					"type": "address"
				},
				{
					"internalType": "uint256",
					"name": "amount",
					"type": "uint256"
				}
			],
			"name": "depositToken",
			"outputs": [],
			"stateMutability": "nonpayable",
			"type": "function"
		},
		{
			"inputs": [
				{
					"internalType": "address",
					"name": "tokenAddr",
					"type": "address"
				},
				{
					"internalType": "address",
					"name": "fromAddress",
					"type": "address"
				},
				{
					"internalType": "uint256",
					"name": "amount",
					"type": "uint256"
				}
			],
			"name": "depositTokenFrom",
			"outputs": [],
			"stateMutability": "nonpayable",
			"type": "function"
		},
		{
			"inputs": [],
			"name": "getBalance",
			"outputs": [
				{
					"internalType": "uint256",
					"name": "",
					"type": "uint256"
				}
			],
			"stateMutability": "view",
			"type": "function"
		},
		{
			"inputs": [
				{
					"internalType": "address",
					"name": "tokenAddr",
					"type": "address"
				},
				{
					"internalType": "address",
					"name": "parityAddr",
					"type": "address"
				},
				{
					"internalType": "uint256",
					"name": "reward",
					"type": "uint256"
				},
				{
					"internalType": "uint256",
					"name": "rewardThreshold",
					"type": "uint256"
				}
			],
			"name": "listParityToken",
			"outputs": [],
			"stateMutability": "nonpayable",
			"type": "function"
		},
		{
			"inputs": [
				{
					"internalType": "address",
					"name": "tokenAddr",
					"type": "address"
				},
				{
					"internalType": "uint256",
					"name": "reward",
					"type": "uint256"
				},
				{
					"internalType": "uint256",
					"name": "rewardThreshold",
					"type": "uint256"
				},
				{
					"internalType": "string",
					"name": "price",
					"type": "string"
				}
			],
			"name": "listToken",
			"outputs": [],
			"stateMutability": "nonpayable",
			"type": "function"
		},
		{
			"inputs": [],
			"name": "listingCost",
			"outputs": [
				{
					"internalType": "uint256",
					"name": "",
					"type": "uint256"
				}
			],
			"stateMutability": "view",
			"type": "function"
		},
		{
			"inputs": [
				{
					"internalType": "uint256",
					"name": "",
					"type": "uint256"
				}
			],
			"name": "orders",
			"outputs": [
				{
					"internalType": "address payable",
					"name": "makerAddr",
					"type": "address"
				},
				{
					"internalType": "address",
					"name": "tokenAddr",
					"type": "address"
				},
				{
					"internalType": "bool",
					"name": "orderType",
					"type": "bool"
				},
				{
					"internalType": "uint256",
					"name": "created",
					"type": "uint256"
				},
				{
					"internalType": "uint256",
					"name": "price",
					"type": "uint256"
				},
				{
					"internalType": "uint256",
					"name": "principal",
					"type": "uint256"
				},
				{
					"internalType": "uint256",
					"name": "pending",
					"type": "uint256"
				},
				{
					"internalType": "uint256",
					"name": "tokenIndex",
					"type": "uint256"
				},
				{
					"internalType": "uint256",
					"name": "userIndex",
					"type": "uint256"
				}
			],
			"stateMutability": "view",
			"type": "function"
		},
		{
			"inputs": [],
			"name": "owner",
			"outputs": [
				{
					"internalType": "address",
					"name": "",
					"type": "address"
				}
			],
			"stateMutability": "view",
			"type": "function"
		},
		{
			"inputs": [
				{
					"internalType": "address",
					"name": "tokenAddr",
					"type": "address"
				},
				{
					"internalType": "bool",
					"name": "isAVAX",
					"type": "bool"
				}
			],
			"name": "queryBalance",
			"outputs": [
				{
					"internalType": "uint256",
					"name": "",
					"type": "uint256"
				}
			],
			"stateMutability": "view",
			"type": "function"
		},
		{
			"inputs": [
				{
					"internalType": "address",
					"name": "tokenAddr",
					"type": "address"
				},
				{
					"internalType": "bool",
					"name": "orderType",
					"type": "bool"
				}
			],
			"name": "settleOrders",
			"outputs": [],
			"stateMutability": "nonpayable",
			"type": "function"
		},
		{
			"inputs": [
				{
					"internalType": "address",
					"name": "tokenAddr",
					"type": "address"
				},
				{
					"internalType": "uint256",
					"name": "amount",
					"type": "uint256"
				}
			],
			"name": "takeBuyOrder",
			"outputs": [],
			"stateMutability": "nonpayable",
			"type": "function"
		},
		{
			"inputs": [
				{
					"internalType": "address",
					"name": "tokenAddr",
					"type": "address"
				}
			],
			"name": "takeSellOrder",
			"outputs": [],
			"stateMutability": "payable",
			"type": "function"
		},
		{
			"inputs": [
				{
					"internalType": "address",
					"name": "_address",
					"type": "address"
				}
			],
			"name": "transferOwnership",
			"outputs": [],
			"stateMutability": "nonpayable",
			"type": "function"
		},
		{
			"inputs": [
				{
					"internalType": "address",
					"name": "tokenAddr",
					"type": "address"
				}
			],
			"name": "updateTokenBalance",
			"outputs": [],
			"stateMutability": "nonpayable",
			"type": "function"
		},
		{
			"inputs": [
				{
					"internalType": "uint256",
					"name": "index",
					"type": "uint256"
				}
			],
			"name": "viewOrder",
			"outputs": [
				{
					"components": [
						{
							"internalType": "address payable",
							"name": "makerAddr",
							"type": "address"
						},
						{
							"internalType": "address",
							"name": "tokenAddr",
							"type": "address"
						},
						{
							"internalType": "bool",
							"name": "orderType",
							"type": "bool"
						},
						{
							"internalType": "uint256",
							"name": "created",
							"type": "uint256"
						},
						{
							"internalType": "uint256",
							"name": "price",
							"type": "uint256"
						},
						{
							"internalType": "uint256",
							"name": "principal",
							"type": "uint256"
						},
						{
							"internalType": "uint256",
							"name": "pending",
							"type": "uint256"
						},
						{
							"internalType": "uint256",
							"name": "tokenIndex",
							"type": "uint256"
						},
						{
							"internalType": "uint256",
							"name": "userIndex",
							"type": "uint256"
						}
					],
					"internalType": "struct DexhuneExchangeBase.Order",
					"name": "",
					"type": "tuple"
				}
			],
			"stateMutability": "view",
			"type": "function"
		},
		{
			"inputs": [
				{
					"internalType": "address",
					"name": "makerAddr",
					"type": "address"
				},
				{
					"internalType": "uint256",
					"name": "index",
					"type": "uint256"
				}
			],
			"name": "viewOrderByMaker",
			"outputs": [
				{
					"components": [
						{
							"internalType": "address payable",
							"name": "makerAddr",
							"type": "address"
						},
						{
							"internalType": "address",
							"name": "tokenAddr",
							"type": "address"
						},
						{
							"internalType": "bool",
							"name": "orderType",
							"type": "bool"
						},
						{
							"internalType": "uint256",
							"name": "created",
							"type": "uint256"
						},
						{
							"internalType": "uint256",
							"name": "price",
							"type": "uint256"
						},
						{
							"internalType": "uint256",
							"name": "principal",
							"type": "uint256"
						},
						{
							"internalType": "uint256",
							"name": "pending",
							"type": "uint256"
						},
						{
							"internalType": "uint256",
							"name": "tokenIndex",
							"type": "uint256"
						},
						{
							"internalType": "uint256",
							"name": "userIndex",
							"type": "uint256"
						}
					],
					"internalType": "struct DexhuneExchangeBase.Order",
					"name": "",
					"type": "tuple"
				}
			],
			"stateMutability": "view",
			"type": "function"
		},
		{
			"inputs": [
				{
					"internalType": "address",
					"name": "tokenAddr",
					"type": "address"
				},
				{
					"internalType": "uint256",
					"name": "index",
					"type": "uint256"
				}
			],
			"name": "viewOrderByToken",
			"outputs": [
				{
					"components": [
						{
							"internalType": "address payable",
							"name": "makerAddr",
							"type": "address"
						},
						{
							"internalType": "address",
							"name": "tokenAddr",
							"type": "address"
						},
						{
							"internalType": "bool",
							"name": "orderType",
							"type": "bool"
						},
						{
							"internalType": "uint256",
							"name": "created",
							"type": "uint256"
						},
						{
							"internalType": "uint256",
							"name": "price",
							"type": "uint256"
						},
						{
							"internalType": "uint256",
							"name": "principal",
							"type": "uint256"
						},
						{
							"internalType": "uint256",
							"name": "pending",
							"type": "uint256"
						},
						{
							"internalType": "uint256",
							"name": "tokenIndex",
							"type": "uint256"
						},
						{
							"internalType": "uint256",
							"name": "userIndex",
							"type": "uint256"
						}
					],
					"internalType": "struct DexhuneExchangeBase.Order",
					"name": "",
					"type": "tuple"
				}
			],
			"stateMutability": "view",
			"type": "function"
		},
		{
			"inputs": [],
			"name": "viewPrice",
			"outputs": [
				{
					"internalType": "uint256",
					"name": "",
					"type": "uint256"
				}
			],
			"stateMutability": "view",
			"type": "function"
		},
		{
			"inputs": [
				{
					"internalType": "address",
					"name": "tokenAddr",
					"type": "address"
				}
			],
			"name": "viewToken",
			"outputs": [
				{
					"components": [
						{
							"internalType": "uint256",
							"name": "tokenNo",
							"type": "uint256"
						},
						{
							"internalType": "string",
							"name": "name",
							"type": "string"
						},
						{
							"internalType": "string",
							"name": "sym",
							"type": "string"
						},
						{
							"internalType": "address",
							"name": "addr",
							"type": "address"
						},
						{
							"internalType": "address",
							"name": "parityAddr",
							"type": "address"
						},
						{
							"internalType": "uint256",
							"name": "reward",
							"type": "uint256"
						},
						{
							"internalType": "uint256",
							"name": "rewardThreshold",
							"type": "uint256"
						},
						{
							"internalType": "enum DexhuneExchangeBase.PricingScheme",
							"name": "scheme",
							"type": "uint8"
						},
						{
							"internalType": "uint256",
							"name": "price",
							"type": "uint256"
						},
						{
							"internalType": "uint256",
							"name": "orders",
							"type": "uint256"
						}
					],
					"internalType": "struct DexhuneExchangeBase.TokenDataModel",
					"name": "",
					"type": "tuple"
				}
			],
			"stateMutability": "view",
			"type": "function"
		},
		{
			"inputs": [
				{
					"internalType": "uint256",
					"name": "tokenNo",
					"type": "uint256"
				}
			],
			"name": "viewTokenByIndex",
			"outputs": [
				{
					"components": [
						{
							"internalType": "uint256",
							"name": "tokenNo",
							"type": "uint256"
						},
						{
							"internalType": "string",
							"name": "name",
							"type": "string"
						},
						{
							"internalType": "string",
							"name": "sym",
							"type": "string"
						},
						{
							"internalType": "address",
							"name": "addr",
							"type": "address"
						},
						{
							"internalType": "address",
							"name": "parityAddr",
							"type": "address"
						},
						{
							"internalType": "uint256",
							"name": "reward",
							"type": "uint256"
						},
						{
							"internalType": "uint256",
							"name": "rewardThreshold",
							"type": "uint256"
						},
						{
							"internalType": "enum DexhuneExchangeBase.PricingScheme",
							"name": "scheme",
							"type": "uint8"
						},
						{
							"internalType": "uint256",
							"name": "price",
							"type": "uint256"
						},
						{
							"internalType": "uint256",
							"name": "orders",
							"type": "uint256"
						}
					],
					"internalType": "struct DexhuneExchangeBase.TokenDataModel",
					"name": "",
					"type": "tuple"
				}
			],
			"stateMutability": "view",
			"type": "function"
		}
	]
}