{
	"data": {
		"bytecode": {
			"linkReferences": {},
			"object": "60806040526103e8600555600780546200001c9160089162000043565b503480156200002a57600080fd5b50600080546001600160a01b0319163317905562000167565b828054828255906000526020600020906006028101928215620001065760005260206000209160060282015b828111156200010657825482546001600160a01b03199081166001600160a01b039283161784556001808601805491860180549384169290941691821784555460ff600160a01b91829004161515026001600160a81b03199092161717905560028084015490830155600380840154908301556004808401549083015560058084015490830155600692830192909101906200006f565b506200011492915062000118565b5090565b5b80821115620001145780546001600160a01b03191681556001810180546001600160a81b03191690556000600282018190556003820181905560048201819055600582015560060162000119565b6141c280620001776000396000f3fe6080604052600436106101665760003560e01c806387b337e8116100d1578063a85c38ef1161008a578063d7dcdcec11610064578063d7dcdcec146104b0578063db34a679146104c5578063f2fde38b146104e5578063f340fa011461050557600080fd5b8063a85c38ef14610417578063c201e47c1461047d578063d29800651461049d57600080fd5b806387b337e8146103545780638da5cb5b146103745780639351769f146103ac578063a08b5bba146103c1578063a262b73f146103e1578063a5b6f92a1461040157600080fd5b80634d9ea07d116101235780634d9ea07d146102a15780635264c8d9146102c1578063673cf82a146102e15780636daf6945146103015780637c38d6631461031457806386f179d21461033457600080fd5b8063076d782e1461016b57806312065fe0146101f55780631f5d264114610212578063338b5dea1461023f5780633b174f0f146102615780633ef7385614610281575b600080fd5b34801561017757600080fd5b5061018b6101863660046139a9565b610518565b6040516101ec919081516001600160a01b03908116825260208084015190911690820152604080830151151590820152606080830151908201526080808301519082015260a0828101519082015260c0918201519181019190915260e00190565b60405180910390f35b34801561020157600080fd5b50475b6040519081526020016101ec565b34801561021e57600080fd5b5061023261022d3660046139d3565b61065a565b6040516101ec9190613a74565b34801561024b57600080fd5b5061025f61025a3660046139a9565b61066b565b005b34801561026d57600080fd5b5061020461027c366004613b43565b61067a565b34801561028d57600080fd5b5061018b61029c3660046139a9565b6106c0565b3480156102ad57600080fd5b5061025f6102bc366004613be9565b61074e565b3480156102cd57600080fd5b5061025f6102dc366004613c8d565b610764565b3480156102ed57600080fd5b506102326102fc366004613ccf565b610782565b61025f61030f366004613ccf565b6107b3565b34801561032057600080fd5b5061018b61032f3660046139d3565b61084a565b34801561034057600080fd5b5061025f61034f366004613ccf565b610903565b34801561036057600080fd5b5061025f61036f366004613ccf565b61096d565b34801561038057600080fd5b50600054610394906001600160a01b031681565b6040516001600160a01b0390911681526020016101ec565b3480156103b857600080fd5b5061025f610a0e565b3480156103cd57600080fd5b5061025f6103dc366004613cea565b610c7c565b3480156103ed57600080fd5b5061025f6103fc3660046139a9565b610c8c565b34801561040d57600080fd5b5061020460055481565b34801561042357600080fd5b506104376104323660046139d3565b610ebe565b604080516001600160a01b039889168152979096166020880152931515948601949094526060850191909152608084015260a083019190915260c082015260e0016101ec565b34801561048957600080fd5b5061025f610498366004613b43565b610f1e565b61025f6104ab366004613ccf565b611071565b3480156104bc57600080fd5b50600c54610204565b3480156104d157600080fd5b5061025f6104e03660046139a9565b6110da565b3480156104f157600080fd5b5061025f610500366004613ccf565b611179565b61025f610513366004613ccf565b6111e2565b6105206138cb565b6001600160a01b0383166000908152600b602090815260408083208054825181850281018501909352808352919290919083018282801561058057602002820191906000526020600020905b81548152602001906001019080831161056c575b50505050509050805183106105a857604051635dcaf2d760e01b815260040160405180910390fd5b60008184815181106105bc576105bc613d26565b60200260200101519050600781815481106105d9576105d9613d26565b60009182526020918290206040805160e08101825260069390930290910180546001600160a01b039081168452600182015490811694840194909452600160a01b90930460ff161515908201526002820154606082015260038201546080820152600482015460a082015260059091015460c0820152925050505b92915050565b61066261391c565b61065482611212565b610676823383611522565b5050565b600081156106a157506001600160a01b038216600090815260016020526040902054610654565b506001600160a01b038216600090815260026020526040902054610654565b6106c86138cb565b6001600160a01b0383166000908152600a6020908152604080832080548251818502810185019093528083529192909190830182828015610580576020028201919060005260206000209081548152602001906001019080831161056c5750505050509050805183106105a857604051635dcaf2d760e01b815260040160405180910390fd5b61075e8460008585600086611557565b50505050565b61075e84600184848760405180602001604052806000815250611557565b61078a61391c565b6001600160a01b0382166000908152600960205260409020546107ac81611212565b9392505050565b34600080806107c2858561166b565b92509050806107e457604051632050d62b60e01b815260040160405180910390fd5b6001600160a01b0385166000908152600160205260408120805486929061080c908490613d52565b9091555050600780548390811061082557610825613d26565b906000526020600020906006020192506108438360008487896117b7565b5050505050565b6108526138cb565b600754821061087457604051635dcaf2d760e01b815260040160405180910390fd5b6007828154811061088757610887613d26565b60009182526020918290206040805160e08101825260069390930290910180546001600160a01b039081168452600182015490811694840194909452600160a01b90930460ff161515908201526002820154606082015260038201546080820152600482015460a082015260059091015460c082015292915050565b61090b611a02565b600e80546001600160a01b0319166001600160a01b03831617905561092e611a31565b6040516001600160a01b03821681527f15b49408719c001f91d2ec31b653d0929170f69ff422ef39920e9c280910115e9060200160405180910390a150565b600061097882611aee565b6101408101516040516370a0823160e01b81523060048201529192506000916001600160a01b03909116906370a0823190602401602060405180830381865afa1580156109c9573d6000803e3d6000fd5b505050506040513d601f19601f820116820180604052508101906109ed9190613d65565b6001600160a01b039093166000908152600260205260409020929092555050565b336000908152600b6020526040812080549091901515908082610a32576064610a35565b60325b9050600042610a426138cb565b600754610a525750505050505050565b6000808715610b8557885491505b600082118015610a705750858711155b15610b7a57610a80600183613d7e565b9050888181548110610a9457610a94613d26565b9060005260206000200154945060078581548110610ab457610ab4613d26565b60009182526020918290206040805160e08101825260069390930290910180546001600160a01b039081168452600182015490811694840194909452600160a01b90930460ff1615159082015260028201546060820181905260038301546080830152600483015460a083015260059092015460c08201529350602890610b3b9086613d7e565b1115610b6857610b4b8386611d9b565b15610b6857610b5a8982611e61565b86610b6481613d91565b9750505b81610b7281613daa565b925050610a60565b505050505050505050565b60075491505b600082118015610b9b5750858711155b15610b7a57610bab600183613d7e565b905060078181548110610bc057610bc0613d26565b60009182526020918290206040805160e08101825260069390930290910180546001600160a01b039081168452600182015490811694840194909452600160a01b90930460ff1615159082015260028201546060820181905260038301546080830152600483015460a083015260059092015460c08201529350602890610c479086613d7e565b1115610c6a57610c578382611d9b565b15610c6a5786610c6681613d91565b9750505b81610c7481613daa565b925050610b8b565b610c87838383611522565b505050565b60008111610cad576040516342257ced60e11b815260040160405180910390fd5b6000610cb883611ee2565b9050610e958160405180610160016040529081600082018054610cda90613dc1565b80601f0160208091040260200160405190810160405280929190818152602001828054610d0690613dc1565b8015610d535780601f10610d2857610100808354040283529160200191610d53565b820191906000526020600020905b815481529060010190602001808311610d3657829003601f168201915b50505050508152602001600182018054610d6c90613dc1565b80601f0160208091040260200160405190810160405280929190818152602001828054610d9890613dc1565b8015610de55780601f10610dba57610100808354040283529160200191610de5565b820191906000526020600020905b815481529060010190602001808311610dc857829003601f168201915b5050509183525050600282015460ff80821660208401526001600160a01b036101009092048216604084015260038401549182166060840152608090920191600160a01b909104166001811115610e3e57610e3e613a3c565b6001811115610e4f57610e4f613a3c565b8152600482015460208201526005820154604082015260068201546060820152600782015460808201526008909101546001600160a01b031660a0909101523384611f5a565b610eb2576040516379cacff160e01b815260040160405180910390fd5b610c8781600084611faa565b60088181548110610ece57600080fd5b60009182526020909120600690910201805460018201546002830154600384015460048501546005909501546001600160a01b03948516965093831694600160a01b90930460ff16939192909187565b6000610f2983611aee565b60608101516001600160a01b03166000908152600a6020526040812080549293509181908190815b8115610b7a57610f62600183613d7e565b90506000868281548110610f7857610f78613d26565b9060005260206000200154905060078181548110610f9857610f98613d26565b9060005260206000209060060201955088610fcb576001600160a01b038a16600090815260016020526040902054610fe5565b6001600160a01b038a166000908152600260205260409020545b935060008411610ff55750610b7a565b600186015460ff600160a01b90910416151589151514611015575061105f565b881561102e576110278887848761261f565b945061103d565b61103a88878487612795565b94505b84611048575061105f565b6110528783611e61565b61105d6007826128a7565b505b8161106981613daa565b925050610f51565b3480611090576040516342257ced60e11b815260040160405180910390fd5b600061109b83611ee2565b6001600160a01b0384166000908152600160205260408120805492935084929091906110c8908490613d52565b90915550610c87905081600184611faa565b60006110e583611aee565b905060008060006110f6868661166b565b925090508061111857604051632050d62b60e01b815260040160405180910390fd5b611123843387611f5a565b611140576040516379cacff160e01b815260040160405180910390fd5b6007828154811061115357611153613d26565b9060005260206000209060060201925061117183600184888a6117b7565b505050505050565b611181611a02565b600080546001600160a01b038381166001600160a01b031983168117909355604080519190921680825260208201939093527f850b3df64837d7d518b45f5aa64d104652c3b80eb5b34a8e3d9eb666cb7cdea5910160405180910390a15050565b6001600160a01b0381166000908152600160205260408120805434929061120a908490613d52565b909155505050565b61121a61391c565b811580611228575060065482115b15611246576040516362f850f760e11b815260040160405180910390fd5b60006006611255600185613d7e565b8154811061126557611265613d26565b90600052602060002090600902016040518061016001604052908160008201805461128f90613dc1565b80601f01602080910402602001604051908101604052809291908181526020018280546112bb90613dc1565b80156113085780601f106112dd57610100808354040283529160200191611308565b820191906000526020600020905b8154815290600101906020018083116112eb57829003601f168201915b5050505050815260200160018201805461132190613dc1565b80601f016020809104026020016040519081016040528092919081815260200182805461134d90613dc1565b801561139a5780601f1061136f5761010080835404028352916020019161139a565b820191906000526020600020905b81548152906001019060200180831161137d57829003601f168201915b5050509183525050600282015460ff80821660208401526001600160a01b036101009092048216604084015260038401549182166060840152608090920191600160a01b9091041660018111156113f3576113f3613a3c565b600181111561140457611404613a3c565b8152602001600482015481526020016005820154815260200160068201548152602001600782015481526020016008820160009054906101000a90046001600160a01b03166001600160a01b03166001600160a01b03168152505090506000600a600083606001516001600160a01b03166001600160a01b03168152602001908152602001600020805490509050604051806101400160405280858152602001836000015181526020018360200151815260200183606001516001600160a01b0316815260200183608001516001600160a01b031681526020018360c0015181526020018360e0015181526020018360a00151600181111561150857611508613a3c565b815261010090930151602084015260409092015292915050565b600061152d84611aee565b905061153a8184846129e7565b61075e576040516379cacff160e01b815260040160405180910390fd5b600654158015611591576000546001600160a01b0316331461158c5760405163564b352960e11b815260040160405180910390fd5b600095505b6001600160a01b038716600090815260096020526040902054879080158015906115bc575060065415155b156115ea576040516315ef3a5760e01b81526001600160a01b03831660048201526024015b60405180910390fd5b600654620f42401161160f576040516353bb24f960e01b815260040160405180910390fd5b60008089600181111561162457611624613a3c565b03611649578361163e5761163785612aab565b9050611649565b50670de0b6b3a76400005b611651612ae2565b61165f83828b898c8c612d40565b50505050505050505050565b6000806116766138cb565b6001600160a01b0385166000908152600a602052604081208054909190815b6000821180156116a3575082155b156117a9576116b3600183613d7e565b905060008482815481106116c9576116c9613d26565b90600052602060002001549050600781815481106116e9576116e9613d26565b60009182526020918290206040805160e08101825260069390930290910180546001600160a01b039081168452600182015490811694840194909452600160a01b90930460ff161515908201526002820154606082015260038201546080820152600482015460a082015260059091015460c082018190529096508990036117775760019350809650611796565b831580156117895750888660c0015110155b1561179657600193508096505b50816117a181613daa565b925050611695565b509094505050509250929050565b60006117c282611aee565b9050600784815481106117d7576117d7613d26565b600091825260209091206006909102016004810154600582015482546040850151939950919290918683148015926001600160a01b039092169160019189919061186e578b1561185057600061182d878361318e565b9050600061183b8c8461318e565b905061184781836131ba565b9450505061185d565b61185a8a876131ba565b92505b61186b8d60040154846131c6565b96505b6119268d6040518060e00160405290816000820160009054906101000a90046001600160a01b03166001600160a01b03166001600160a01b031681526020016001820160009054906101000a90046001600160a01b03166001600160a01b03166001600160a01b031681526020016001820160149054906101000a900460ff1615151515815260200160028201548152602001600382015481526020016004820154815260200160058201548152505089848a6131d2565b60008c6119335787611935565b825b90508515611977578a8e60050160008282546119519190613d7e565b92505081905550878e600401600082825461196c9190613d7e565b909155506119829050565b61198260078d6128a7565b61198c8982613259565b604080518d81528e151560208201526001600160a01b03878116828401523360608301528c16608082015260a0810185905287151560c082015290517fd18715c1e0d5b06959a9b12a3c5d857ce3698a58f6ac5bc7726bd7df86476f409181900360e00190a15050505050505050505050505050565b6000546001600160a01b03163314611a2f576040516332b2baa360e01b81523360048201526024016115e1565b565b600d5415801590611a4f575060f0600d5442611a4d9190613d7e565b105b15611a5657565b600e5460408051634c6afee560e11b815290516000926001600160a01b0316916398d5fdca91600480830192869291908290030181865afa158015611a9f573d6000803e3d6000fd5b505050506040513d6000823e601f3d908101601f19168201604052611ac79190810190613dfb565b9050600080611ad5836132ea565b915091508015611ae557600c8290555b505042600d5550565b611b54604080516101608101825260608082526020820181905260009282018390528101829052608081018290529060a082019081526020016000815260200160008152602001600081526020016000815260200160006001600160a01b031681525090565b6001600160a01b038216600090815260096020526040902054801580611b7b575060065481115b15611b99576040516362f850f760e11b815260040160405180910390fd5b6006611ba6600183613d7e565b81548110611bb657611bb6613d26565b906000526020600020906009020160405180610160016040529081600082018054611be090613dc1565b80601f0160208091040260200160405190810160405280929190818152602001828054611c0c90613dc1565b8015611c595780601f10611c2e57610100808354040283529160200191611c59565b820191906000526020600020905b815481529060010190602001808311611c3c57829003601f168201915b50505050508152602001600182018054611c7290613dc1565b80601f0160208091040260200160405190810160405280929190818152602001828054611c9e90613dc1565b8015611ceb5780601f10611cc057610100808354040283529160200191611ceb565b820191906000526020600020905b815481529060010190602001808311611cce57829003601f168201915b5050509183525050600282015460ff80821660208401526001600160a01b036101009092048216604084015260038401549182166060840152608090920191600160a01b909104166001811115611d4457611d44613a3c565b6001811115611d5557611d55613a3c565b8152600482015460208201526005820154604082015260068201546060820152600782015460808201526008909101546001600160a01b031660a0909101529392505050565b600080611dab8460200151611aee565b9050836040015115611ddd57611dca8185600001518660a0015161341c565b611dd8576000915050610654565b611dfe565b611df08185600001518660a001516134ce565b611dfe576000915050610654565b6040848101518551825186815291151560208301526001600160a01b03168183015290517f3d8da260c5e35dcba4a38c844b979a7c70c6fdbed58be53da6e817ef6a2541e09181900360600190a1611e576007846128a7565b5060019392505050565b8154600090611e7290600190613d7e565b9050808214611eb757828181548110611e8d57611e8d613d26565b9060005260206000200154838381548110611eaa57611eaa613d26565b6000918252602090912001555b82805480611ec757611ec7613e72565b60019003818190600052602060002001600090559055505050565b6001600160a01b038116600090815260096020526040812054801580611f09575060065481115b15611f27576040516362f850f760e11b815260040160405180910390fd5b6006611f34600183613d7e565b81548110611f4457611f44613d26565b9060005260206000209060090201915050919050565b600080611f688585856129e7565b90508015611fa25760608501516001600160a01b031660009081526003602052604081208054859290611f9c908490613d52565b90915550505b949350505050565b6000806003850154600160a01b900460ff166001811115611fcd57611fcd613a3c565b03611ff157611fda611a31565b611fea600c5485600601546131ba565b905061238a565b60016003850154600160a01b900460ff16600181111561201357612013613a3c565b0361238a57600084600701546000148061203d575060f085600701544261203a9190613d7e565b10155b90508015612380576000600660008154811061205b5761205b613d26565b90600052602060002090600902016040518061016001604052908160008201805461208590613dc1565b80601f01602080910402602001604051908101604052809291908181526020018280546120b190613dc1565b80156120fe5780601f106120d3576101008083540402835291602001916120fe565b820191906000526020600020905b8154815290600101906020018083116120e157829003601f168201915b5050505050815260200160018201805461211790613dc1565b80601f016020809104026020016040519081016040528092919081815260200182805461214390613dc1565b80156121905780601f1061216557610100808354040283529160200191612190565b820191906000526020600020905b81548152906001019060200180831161217357829003601f168201915b5050509183525050600282015460ff80821660208401526001600160a01b036101009092048216604084015260038401549182166060840152608090920191600160a01b9091041660018111156121e9576121e9613a3c565b60018111156121fa576121fa613a3c565b81526004828101546020830152600583015460408084019190915260068401546060840152600784015460808401526008938401546001600160a01b0390811660a090940193909352928a015461014085015160038c015494516370a0823160e01b8152948416928501929092529394509216919060009083906370a0823190602401602060405180830381865afa15801561229a573d6000803e3d6000fd5b505050506040513d601f19601f820116820180604052508101906122be9190613d65565b60038a01546040516370a0823160e01b81526001600160a01b039182166004820152919250600091908416906370a0823190602401602060405180830381865afa158015612310573d6000803e3d6000fd5b505050506040513d601f19601f820116820180604052508101906123349190613d65565b60028b015490915061234a90839060ff1661318e565b915061235a81866040015161318e565b905061236681836131ba565b60068b018190554260078c01559650612388945050505050565b846006015491505b505b600083156123b3576123ac61239f84846131c6565b600287015460ff1661360b565b90506123d3565b60028501546123d0906123ca90859060ff1661318e565b836131ba565b90505b6040805160e081018252338152600287015461010090046001600160a01b039081166020830190815287151593830193845242606084019081526080840187815260a0850189815260c08601888152600780546001818101835560008381528a5160069093027fa66cc928b5edb82af9bd49922954155ab7b0942694bea4ce44661d9a8736c68881018054948c166001600160a01b03199095169490941790935597517fa66cc928b5edb82af9bd49922954155ab7b0942694bea4ce44661d9a8736c689830180549c511515600160a01b026001600160a81b0319909d1691909a16179a909a1790975593517fa66cc928b5edb82af9bd49922954155ab7b0942694bea4ce44661d9a8736c68a87015591517fa66cc928b5edb82af9bd49922954155ab7b0942694bea4ce44661d9a8736c68b860155517fa66cc928b5edb82af9bd49922954155ab7b0942694bea4ce44661d9a8736c68c850155517fa66cc928b5edb82af9bd49922954155ab7b0942694bea4ce44661d9a8736c68d909301929092559054919290916125679190613d7e565b336000908152600b602090815260408083208054600180820183559185528385200185905560028c018054610100908190046001600160a01b039081168752600a8652848720805494850181558752958590209092018690555482518681528c1515948101949094520490921681830152606081018890526080810187905290519192507f96d694e92c01c8197b4cf2ecb0ec03be940cc6e384cbdfb2afb329375a0be252919081900360a00190a150505050505050565b600080600080866005015485109050801561263c57849150612644565b866005015491505b60608801516001600160a01b0316600090815260036020526040902054821161268557865461267e9089906001600160a01b0316846134ce565b925061269f565b865461269c9089906001600160a01b03168461362b565b92505b826126b05760009350505050611fa2565b80156127255760006126e06126c9848b6040015161318e565b6126db8a600501548c6040015161318e565b6131ba565b90506126f08860040154826131c6565b8860040160008282546127039190613d7e565b925050819055508288600501600082825461271e9190613d7e565b9091555050505b6001870154875460408051898152600160a01b90930460ff16151560208401526001600160a01b039091169082015281151560608201527fbdb78cc9b5d01bdac074df120cc9776d231060cdcdcc8c7f6c2039f67a5e626f9060800160405180910390a115979650505050505050565b60058301546000908190831080156127af578391506127b7565b856005015491505b85546127ce9088906001600160a01b03168461341c565b6127dd57600092505050611fa2565b80156128385760006127f38388600501546131ba565b90506128038760040154826131c6565b8760040160008282546128169190613d7e565b92505081905550828760050160008282546128319190613d7e565b9091555050505b6001860154865460408051888152600160a01b90930460ff16151560208401526001600160a01b039091169082015281151560608201527fbdb78cc9b5d01bdac074df120cc9776d231060cdcdcc8c7f6c2039f67a5e626f9060800160405180910390a1159695505050505050565b81546000906128b890600190613d7e565b9050808214612982578281815481106128d3576128d3613d26565b90600052602060002090600602018383815481106128f3576128f3613d26565b60009182526020909120825460069092020180546001600160a01b03199081166001600160a01b039384161782556001808501805491840180549384169290951691821785555460ff600160a01b91829004161515026001600160a81b031990921617179091556002808301549082015560038083015490820155600480830154908201556005918201549101555b8280548061299257612992613e72565b60008281526020812060066000199093019283020180546001600160a01b03191681556001810180546001600160a81b0319169055600281018290556003810182905560048101829055600501559055505050565b6101408301516040516323b872dd60e01b81526001600160a01b0384811660048301523060248301526044820184905260009216906323b872dd906064016020604051808303816000875af1925050508015612a60575060408051601f3d908101601f19168201909252612a5d91810190613e88565b60015b612a6c575060006107ac565b8015612aa45760608501516001600160a01b031660009081526002602052604081208054859290612a9e908490613d52565b90915550505b90506107ac565b6000806000612ab9846132ea565b9150915080612adb5760405163e6f7d2c760e01b815260040160405180910390fd5b5092915050565b600654600003612aee57565b612cec6006600081548110612b0557612b05613d26565b906000526020600020906009020160405180610160016040529081600082018054612b2f90613dc1565b80601f0160208091040260200160405190810160405280929190818152602001828054612b5b90613dc1565b8015612ba85780601f10612b7d57610100808354040283529160200191612ba8565b820191906000526020600020905b815481529060010190602001808311612b8b57829003601f168201915b50505050508152602001600182018054612bc190613dc1565b80601f0160208091040260200160405190810160405280929190818152602001828054612bed90613dc1565b8015612c3a5780601f10612c0f57610100808354040283529160200191612c3a565b820191906000526020600020905b815481529060010190602001808311612c1d57829003601f168201915b5050509183525050600282015460ff80821660208401526001600160a01b036101009092048216604084015260038401549182166060840152608090920191600160a01b909104166001811115612c9357612c93613a3c565b6001811115612ca457612ca4613a3c565b815260048201546020820152600580830154604083015260068301546060830152600783015460808301526008909201546001600160a01b031660a0909101525433906129e7565b612d0f57600554604051636508a50160e11b81526004016115e191815260200190565b60006103e860058054612d229190613ea5565b612d2c9190613ed2565b9050806005600082825461120a9190613d52565b6040516370a0823160e01b81523060048201528690606090819060009081906001600160a01b038616906370a0823190602401602060405180830381865afa925050508015612dac575060408051601f3d908101601f19168201909252612da991810190613d65565b60015b612dc957604051630a6f7ecd60e21b815260040160405180910390fd5b809250856001600160a01b031663313ce5676040518163ffffffff1660e01b8152600401602060405180830381865afa925050508015612e26575060408051601f3d908101601f19168201909252612e2391810190613ef4565b60015b612e335760129150612e36565b91505b601260ff83161115612e5b5760405163432c0a5d60e01b815260040160405180910390fd5b856001600160a01b03166306fdde036040518163ffffffff1660e01b8152600401600060405180830381865afa925050508015612eba57506040513d6000823e601f3d908101601f19168201604052612eb79190810190613dfb565b60015b15612ec25794505b856001600160a01b03166395d89b416040518163ffffffff1660e01b8152600401600060405180830381865afa925050508015612f2157506040513d6000823e601f3d908101601f19168201604052612f1e9190810190613dfb565b60015b15612f295793505b5060006040518061016001604052808681526020018581526020018360ff1681526020018d6001600160a01b031681526020018a6001600160a01b031681526020018b6001811115612f7d57612f7d613a3c565b8152602081018a905260408101899052606081018d90526000608082018190526001600160a01b03891660a0909201919091526006805460018101825591528151919250829160099091027ff652222313e28459528d920b65115c16c04f3efc82aaedc97be59f3f377c0d3f01908190612ff79082613f5f565b506020820151600182019061300c9082613f5f565b506040820151600282018054606085015160ff9093166001600160a81b0319918216176101006001600160a01b03948516021790915560808401516003840180546001600160a01b0319811692909416918217815560a08601519390921617600160a01b83600181111561308257613082613a3c565b021790555060c0820151600482015560e08201516005820155610100820151600680830191909155610120830151600783015561014090920151600890910180546001600160a01b0319166001600160a01b039283161790559054606083018051831660009081526009602090815260408083209490945591519093168352600281529181902085905590820151905161311c919061401f565b60405190819003812082519091613133919061401f565b60405190819003812060a0840151606085015160065492937f2b9a73ecc76ebad22366f66b2436a1725cc4f39aa579663fc941863779316b1b9361317893929161403b565b60405180910390a3505050505050505050505050565b60008160ff166001146131b3576131a4826136dc565b6131ae9084613ea5565b6107ac565b5090919050565b60006107ac8383613720565b60006107ac8383613735565b6000806000808760400151156131f3575050855183925084915033906131ff565b50508551849250839150335b61320a8782856134ce565b613227576040516304de4e1d60e41b815260040160405180910390fd5b61323287838661341c565b61324f576040516304de4e1d60e41b815260040160405180910390fd5b5050505050505050565b60c08201516000811580159061327357508360e001518310155b9050801561075e576060840180516001600160a01b0390811660009081526003602090815260408083205494519093168252600290529081205490916132b891613d7e565b905082811115610843576132cd85338561362b565b6108435760405163c96d18b560e01b815260040160405180910390fd5b60008080808481808080805b855181108015613304575083155b156133f15785818151811061331b5761331b613d26565b016020015160f81c94506030851080159061333a575060398560ff1611155b156133a957869750821561335a578161335281614063565b925050613368565b613365600a88613ea5565b96505b61337382600a614164565b61337e603087614173565b60ff1661338b9190613ea5565b6133959088613d52565b9650868811156133a457600193505b6133df565b8460ff16602e036133df5782156133bf57600193505b60019250601291506133d282600a614164565b6133dc9088613ea5565b96505b806133e981613d91565b9150506132f6565b508161340c57613409670de0b6b3a764000087613ea5565b95505b5093989015975095505050505050565b6040516000906001600160a01b0384169083156108fc0290849084818181858888f19350505050156134c457604080518381526001600160a01b03851660208201527f0897f9f8697c0fee5acfc2c885618e98d4f0882e71e35d182faccc1915c01ecb910160405180910390a160608401516001600160a01b0316600090815260016020526040812080548492906134b5908490613d7e565b90915550600191506107ac9050565b5060009392505050565b61014083015160405163a9059cbb60e01b81526001600160a01b03848116600483015260248201849052600092169063a9059cbb906044016020604051808303816000875af1925050508015613541575060408051601f3d908101601f1916820190925261353e91810190613e88565b60015b61354d575060006107ac565b8015612aa45760608501516001600160a01b03166000908152600260205260408120805485929061357f908490613d7e565b909155505060608501516001600160a01b0316600090815260036020526040812080548592906135b0908490613d7e565b9091555050606085810151604080518681526001600160a01b038089166020830152909216908201527fa84f763be5bb36163517fb87c7af39f875a97866fdf7806eb1b3eac837ae35ea910160405180910390a190506107ac565b60008160ff166001146131b357613621826136dc565b6131ae9084613ed2565b61014083015160405163a9059cbb60e01b81526001600160a01b03848116600483015260248201849052600092169063a9059cbb906044016020604051808303816000875af192505050801561369e575060408051601f3d908101601f1916820190925261369b91810190613e88565b60015b6136aa575060006107ac565b8015612aa45760608501516001600160a01b0316600090815260026020526040812080548592906135b0908490613d7e565b60ff81166000908152600460205260408120549081900361371b575060ff81811660009081526004602052604090206012839003909116600a0a908190555b919050565b60006107ac83670de0b6b3a764000084613741565b60006107ac8383613815565b600080806000198587098587029250828110838203039150508060000361377b5783828161377157613771613ebc565b04925050506107ac565b8381106137ac5760405163362ced0960e11b81526004810187905260248101869052604481018590526064016115e1565b60008486880960026001871981018816978890046003810283188082028403028082028403028082028403028082028403028082028403029081029092039091026000889003889004909101858311909403939093029303949094049190911702949350505050565b60008080600019848609848602925082811083820303915050806000036138495750670de0b6b3a764000090049050610654565b670de0b6b3a7640000811061387b576040516369e06faf60e11b815260048101869052602481018590526044016115e1565b6000670de0b6b3a764000085870962040000818503049310909103600160ee1b02919091177faccb18165bd6fe31ae1cf318dc5b51eee0e1ba569b88cd74c1773b91fac106690291505092915050565b6040518060e0016040528060006001600160a01b0316815260200160006001600160a01b03168152602001600015158152602001600081526020016000815260200160008152602001600081525090565b60405180610140016040528060008152602001606081526020016060815260200160006001600160a01b0316815260200160006001600160a01b0316815260200160008152602001600081526020016000600181111561397e5761397e613a3c565b815260200160008152602001600081525090565b80356001600160a01b038116811461371b57600080fd5b600080604083850312156139bc57600080fd5b6139c583613992565b946020939093013593505050565b6000602082840312156139e557600080fd5b5035919050565b60005b83811015613a075781810151838201526020016139ef565b50506000910152565b60008151808452613a288160208601602086016139ec565b601f01601f19169290920160200192915050565b634e487b7160e01b600052602160045260246000fd5b60028110613a7057634e487b7160e01b600052602160045260246000fd5b9052565b602081528151602082015260006020830151610140806040850152613a9d610160850183613a10565b91506040850151601f19858403016060860152613aba8382613a10565b9250506060850151613ad760808601826001600160a01b03169052565b5060808501516001600160a01b03811660a08601525060a085015160c085015260c085015160e085015260e0850151610100613b1581870183613a52565b860151610120868101919091529095015193019290925250919050565b8015158114613b4057600080fd5b50565b60008060408385031215613b5657600080fd5b613b5f83613992565b91506020830135613b6f81613b32565b809150509250929050565b634e487b7160e01b600052604160045260246000fd5b604051601f8201601f1916810167ffffffffffffffff81118282101715613bb957613bb9613b7a565b604052919050565b600067ffffffffffffffff821115613bdb57613bdb613b7a565b50601f01601f191660200190565b60008060008060808587031215613bff57600080fd5b613c0885613992565b93506020850135925060408501359150606085013567ffffffffffffffff811115613c3257600080fd5b8501601f81018713613c4357600080fd5b8035613c56613c5182613bc1565b613b90565b818152886020838501011115613c6b57600080fd5b8160208401602083013760006020838301015280935050505092959194509250565b60008060008060808587031215613ca357600080fd5b613cac85613992565b9350613cba60208601613992565b93969395505050506040820135916060013590565b600060208284031215613ce157600080fd5b6107ac82613992565b600080600060608486031215613cff57600080fd5b613d0884613992565b9250613d1660208501613992565b9150604084013590509250925092565b634e487b7160e01b600052603260045260246000fd5b634e487b7160e01b600052601160045260246000fd5b8082018082111561065457610654613d3c565b600060208284031215613d7757600080fd5b5051919050565b8181038181111561065457610654613d3c565b600060018201613da357613da3613d3c565b5060010190565b600081613db957613db9613d3c565b506000190190565b600181811c90821680613dd557607f821691505b602082108103613df557634e487b7160e01b600052602260045260246000fd5b50919050565b600060208284031215613e0d57600080fd5b815167ffffffffffffffff811115613e2457600080fd5b8201601f81018413613e3557600080fd5b8051613e43613c5182613bc1565b818152856020838501011115613e5857600080fd5b613e698260208301602086016139ec565b95945050505050565b634e487b7160e01b600052603160045260246000fd5b600060208284031215613e9a57600080fd5b81516107ac81613b32565b808202811582820484141761065457610654613d3c565b634e487b7160e01b600052601260045260246000fd5b600082613eef57634e487b7160e01b600052601260045260246000fd5b500490565b600060208284031215613f0657600080fd5b815160ff811681146107ac57600080fd5b601f821115610c87576000816000526020600020601f850160051c81016020861015613f405750805b601f850160051c820191505b8181101561117157828155600101613f4c565b815167ffffffffffffffff811115613f7957613f79613b7a565b613f8d81613f878454613dc1565b84613f17565b602080601f831160018114613fc25760008415613faa5750858301515b600019600386901b1c1916600185901b178555611171565b600085815260208120601f198616915b82811015613ff157888601518255948401946001909101908401613fd2565b508582101561400f5787850151600019600388901b60f8161c191681555b5050505050600190811b01905550565b600082516140318184602087016139ec565b9190910192915050565b606081016140498286613a52565b6001600160a01b0393909316602082015260400152919050565b600060ff82168061407657614076613d3c565b6000190192915050565b600181815b808511156140bb5781600019048211156140a1576140a1613d3c565b808516156140ae57918102915b93841c9390800290614085565b509250929050565b6000826140d257506001610654565b816140df57506000610654565b81600181146140f557600281146140ff5761411b565b6001915050610654565b60ff84111561411057614110613d3c565b50506001821b610654565b5060208310610133831016604e8410600b841016171561413e575081810a610654565b6141488383614080565b806000190482111561415c5761415c613d3c565b029392505050565b60006107ac60ff8416836140c3565b60ff828116828216039081111561065457610654613d3c56fea2646970667358221220ed7ba15f84e44a8cbdc50b1d89f40d2d65d904d2581d98d138eb24909845170164736f6c63430008160033",
			"opcodes": "PUSH1 0x80 PUSH1 0x40 MSTORE PUSH2 0x3E8 PUSH1 0x5 SSTORE PUSH1 0x7 DUP1 SLOAD PUSH3 0x1C SWAP2 PUSH1 0x8 SWAP2 PUSH3 0x43 JUMP JUMPDEST POP CALLVALUE DUP1 ISZERO PUSH3 0x2A JUMPI PUSH1 0x0 DUP1 REVERT JUMPDEST POP PUSH1 0x0 DUP1 SLOAD PUSH1 0x1 PUSH1 0x1 PUSH1 0xA0 SHL SUB NOT AND CALLER OR SWAP1 SSTORE PUSH3 0x167 JUMP JUMPDEST DUP3 DUP1 SLOAD DUP3 DUP3 SSTORE SWAP1 PUSH1 0x0 MSTORE PUSH1 0x20 PUSH1 0x0 KECCAK256 SWAP1 PUSH1 0x6 MUL DUP2 ADD SWAP3 DUP3 ISZERO PUSH3 0x106 JUMPI PUSH1 0x0 MSTORE PUSH1 0x20 PUSH1 0x0 KECCAK256 SWAP2 PUSH1 0x6 MUL DUP3 ADD JUMPDEST DUP3 DUP2 GT ISZERO PUSH3 0x106 JUMPI DUP3 SLOAD DUP3 SLOAD PUSH1 0x1 PUSH1 0x1 PUSH1 0xA0 SHL SUB NOT SWAP1 DUP2 AND PUSH1 0x1 PUSH1 0x1 PUSH1 0xA0 SHL SUB SWAP3 DUP4 AND OR DUP5 SSTORE PUSH1 0x1 DUP1 DUP7 ADD DUP1 SLOAD SWAP2 DUP7 ADD DUP1 SLOAD SWAP4 DUP5 AND SWAP3 SWAP1 SWAP5 AND SWAP2 DUP3 OR DUP5 SSTORE SLOAD PUSH1 0xFF PUSH1 0x1 PUSH1 0xA0 SHL SWAP2 DUP3 SWAP1 DIV AND ISZERO ISZERO MUL PUSH1 0x1 PUSH1 0x1 PUSH1 0xA8 SHL SUB NOT SWAP1 SWAP3 AND OR OR SWAP1 SSTORE PUSH1 0x2 DUP1 DUP5 ADD SLOAD SWAP1 DUP4 ADD SSTORE PUSH1 0x3 DUP1 DUP5 ADD SLOAD SWAP1 DUP4 ADD SSTORE PUSH1 0x4 DUP1 DUP5 ADD SLOAD SWAP1 DUP4 ADD SSTORE PUSH1 0x5 DUP1 DUP5 ADD SLOAD SWAP1 DUP4 ADD SSTORE PUSH1 0x6 SWAP3 DUP4 ADD SWAP3 SWAP1 SWAP2 ADD SWAP1 PUSH3 0x6F JUMP JUMPDEST POP PUSH3 0x114 SWAP3 SWAP2 POP PUSH3 0x118 JUMP JUMPDEST POP SWAP1 JUMP JUMPDEST JUMPDEST DUP1 DUP3 GT ISZERO PUSH3 0x114 JUMPI DUP1 SLOAD PUSH1 0x1 PUSH1 0x1 PUSH1 0xA0 SHL SUB NOT AND DUP2 SSTORE PUSH1 0x1 DUP2 ADD DUP1 SLOAD PUSH1 0x1 PUSH1 0x1 PUSH1 0xA8 SHL SUB NOT AND SWAP1 SSTORE PUSH1 0x0 PUSH1 0x2 DUP3 ADD DUP2 SWAP1 SSTORE PUSH1 0x3 DUP3 ADD DUP2 SWAP1 SSTORE PUSH1 0x4 DUP3 ADD DUP2 SWAP1 SSTORE PUSH1 0x5 DUP3 ADD SSTORE PUSH1 0x6 ADD PUSH3 0x119 JUMP JUMPDEST PUSH2 0x41C2 DUP1 PUSH3 0x177 PUSH1 0x0 CODECOPY PUSH1 0x0 RETURN INVALID PUSH1 0x80 PUSH1 0x40 MSTORE PUSH1 0x4 CALLDATASIZE LT PUSH2 0x166 JUMPI PUSH1 0x0 CALLDATALOAD PUSH1 0xE0 SHR DUP1 PUSH4 0x87B337E8 GT PUSH2 0xD1 JUMPI DUP1 PUSH4 0xA85C38EF GT PUSH2 0x8A JUMPI DUP1 PUSH4 0xD7DCDCEC GT PUSH2 0x64 JUMPI DUP1 PUSH4 0xD7DCDCEC EQ PUSH2 0x4B0 JUMPI DUP1 PUSH4 0xDB34A679 EQ PUSH2 0x4C5 JUMPI DUP1 PUSH4 0xF2FDE38B EQ PUSH2 0x4E5 JUMPI DUP1 PUSH4 0xF340FA01 EQ PUSH2 0x505 JUMPI PUSH1 0x0 DUP1 REVERT JUMPDEST DUP1 PUSH4 0xA85C38EF EQ PUSH2 0x417 JUMPI DUP1 PUSH4 0xC201E47C EQ PUSH2 0x47D JUMPI DUP1 PUSH4 0xD2980065 EQ PUSH2 0x49D JUMPI PUSH1 0x0 DUP1 REVERT JUMPDEST DUP1 PUSH4 0x87B337E8 EQ PUSH2 0x354 JUMPI DUP1 PUSH4 0x8DA5CB5B EQ PUSH2 0x374 JUMPI DUP1 PUSH4 0x9351769F EQ PUSH2 0x3AC JUMPI DUP1 PUSH4 0xA08B5BBA EQ PUSH2 0x3C1 JUMPI DUP1 PUSH4 0xA262B73F EQ PUSH2 0x3E1 JUMPI DUP1 PUSH4 0xA5B6F92A EQ PUSH2 0x401 JUMPI PUSH1 0x0 DUP1 REVERT JUMPDEST DUP1 PUSH4 0x4D9EA07D GT PUSH2 0x123 JUMPI DUP1 PUSH4 0x4D9EA07D EQ PUSH2 0x2A1 JUMPI DUP1 PUSH4 0x5264C8D9 EQ PUSH2 0x2C1 JUMPI DUP1 PUSH4 0x673CF82A EQ PUSH2 0x2E1 JUMPI DUP1 PUSH4 0x6DAF6945 EQ PUSH2 0x301 JUMPI DUP1 PUSH4 0x7C38D663 EQ PUSH2 0x314 JUMPI DUP1 PUSH4 0x86F179D2 EQ PUSH2 0x334 JUMPI PUSH1 0x0 DUP1 REVERT JUMPDEST DUP1 PUSH4 0x76D782E EQ PUSH2 0x16B JUMPI DUP1 PUSH4 0x12065FE0 EQ PUSH2 0x1F5 JUMPI DUP1 PUSH4 0x1F5D2641 EQ PUSH2 0x212 JUMPI DUP1 PUSH4 0x338B5DEA EQ PUSH2 0x23F JUMPI DUP1 PUSH4 0x3B174F0F EQ PUSH2 0x261 JUMPI DUP1 PUSH4 0x3EF73856 EQ PUSH2 0x281 JUMPI JUMPDEST PUSH1 0x0 DUP1 REVERT JUMPDEST CALLVALUE DUP1 ISZERO PUSH2 0x177 JUMPI PUSH1 0x0 DUP1 REVERT JUMPDEST POP PUSH2 0x18B PUSH2 0x186 CALLDATASIZE PUSH1 0x4 PUSH2 0x39A9 JUMP JUMPDEST PUSH2 0x518 JUMP JUMPDEST PUSH1 0x40 MLOAD PUSH2 0x1EC SWAP2 SWAP1 DUP2 MLOAD PUSH1 0x1 PUSH1 0x1 PUSH1 0xA0 SHL SUB SWAP1 DUP2 AND DUP3 MSTORE PUSH1 0x20 DUP1 DUP5 ADD MLOAD SWAP1 SWAP2 AND SWAP1 DUP3 ADD MSTORE PUSH1 0x40 DUP1 DUP4 ADD MLOAD ISZERO ISZERO SWAP1 DUP3 ADD MSTORE PUSH1 0x60 DUP1 DUP4 ADD MLOAD SWAP1 DUP3 ADD MSTORE PUSH1 0x80 DUP1 DUP4 ADD MLOAD SWAP1 DUP3 ADD MSTORE PUSH1 0xA0 DUP3 DUP2 ADD MLOAD SWAP1 DUP3 ADD MSTORE PUSH1 0xC0 SWAP2 DUP3 ADD MLOAD SWAP2 DUP2 ADD SWAP2 SWAP1 SWAP2 MSTORE PUSH1 0xE0 ADD SWAP1 JUMP JUMPDEST PUSH1 0x40 MLOAD DUP1 SWAP2 SUB SWAP1 RETURN JUMPDEST CALLVALUE DUP1 ISZERO PUSH2 0x201 JUMPI PUSH1 0x0 DUP1 REVERT JUMPDEST POP SELFBALANCE JUMPDEST PUSH1 0x40 MLOAD SWAP1 DUP2 MSTORE PUSH1 0x20 ADD PUSH2 0x1EC JUMP JUMPDEST CALLVALUE DUP1 ISZERO PUSH2 0x21E JUMPI PUSH1 0x0 DUP1 REVERT JUMPDEST POP PUSH2 0x232 PUSH2 0x22D CALLDATASIZE PUSH1 0x4 PUSH2 0x39D3 JUMP JUMPDEST PUSH2 0x65A JUMP JUMPDEST PUSH1 0x40 MLOAD PUSH2 0x1EC SWAP2 SWAP1 PUSH2 0x3A74 JUMP JUMPDEST CALLVALUE DUP1 ISZERO PUSH2 0x24B JUMPI PUSH1 0x0 DUP1 REVERT JUMPDEST POP PUSH2 0x25F PUSH2 0x25A CALLDATASIZE PUSH1 0x4 PUSH2 0x39A9 JUMP JUMPDEST PUSH2 0x66B JUMP JUMPDEST STOP JUMPDEST CALLVALUE DUP1 ISZERO PUSH2 0x26D JUMPI PUSH1 0x0 DUP1 REVERT JUMPDEST POP PUSH2 0x204 PUSH2 0x27C CALLDATASIZE PUSH1 0x4 PUSH2 0x3B43 JUMP JUMPDEST PUSH2 0x67A JUMP JUMPDEST CALLVALUE DUP1 ISZERO PUSH2 0x28D JUMPI PUSH1 0x0 DUP1 REVERT JUMPDEST POP PUSH2 0x18B PUSH2 0x29C CALLDATASIZE PUSH1 0x4 PUSH2 0x39A9 JUMP JUMPDEST PUSH2 0x6C0 JUMP JUMPDEST CALLVALUE DUP1 ISZERO PUSH2 0x2AD JUMPI PUSH1 0x0 DUP1 REVERT JUMPDEST POP PUSH2 0x25F PUSH2 0x2BC CALLDATASIZE PUSH1 0x4 PUSH2 0x3BE9 JUMP JUMPDEST PUSH2 0x74E JUMP JUMPDEST CALLVALUE DUP1 ISZERO PUSH2 0x2CD JUMPI PUSH1 0x0 DUP1 REVERT JUMPDEST POP PUSH2 0x25F PUSH2 0x2DC CALLDATASIZE PUSH1 0x4 PUSH2 0x3C8D JUMP JUMPDEST PUSH2 0x764 JUMP JUMPDEST CALLVALUE DUP1 ISZERO PUSH2 0x2ED JUMPI PUSH1 0x0 DUP1 REVERT JUMPDEST POP PUSH2 0x232 PUSH2 0x2FC CALLDATASIZE PUSH1 0x4 PUSH2 0x3CCF JUMP JUMPDEST PUSH2 0x782 JUMP JUMPDEST PUSH2 0x25F PUSH2 0x30F CALLDATASIZE PUSH1 0x4 PUSH2 0x3CCF JUMP JUMPDEST PUSH2 0x7B3 JUMP JUMPDEST CALLVALUE DUP1 ISZERO PUSH2 0x320 JUMPI PUSH1 0x0 DUP1 REVERT JUMPDEST POP PUSH2 0x18B PUSH2 0x32F CALLDATASIZE PUSH1 0x4 PUSH2 0x39D3 JUMP JUMPDEST PUSH2 0x84A JUMP JUMPDEST CALLVALUE DUP1 ISZERO PUSH2 0x340 JUMPI PUSH1 0x0 DUP1 REVERT JUMPDEST POP PUSH2 0x25F PUSH2 0x34F CALLDATASIZE PUSH1 0x4 PUSH2 0x3CCF JUMP JUMPDEST PUSH2 0x903 JUMP JUMPDEST CALLVALUE DUP1 ISZERO PUSH2 0x360 JUMPI PUSH1 0x0 DUP1 REVERT JUMPDEST POP PUSH2 0x25F PUSH2 0x36F CALLDATASIZE PUSH1 0x4 PUSH2 0x3CCF JUMP JUMPDEST PUSH2 0x96D JUMP JUMPDEST CALLVALUE DUP1 ISZERO PUSH2 0x380 JUMPI PUSH1 0x0 DUP1 REVERT JUMPDEST POP PUSH1 0x0 SLOAD PUSH2 0x394 SWAP1 PUSH1 0x1 PUSH1 0x1 PUSH1 0xA0 SHL SUB AND DUP2 JUMP JUMPDEST PUSH1 0x40 MLOAD PUSH1 0x1 PUSH1 0x1 PUSH1 0xA0 SHL SUB SWAP1 SWAP2 AND DUP2 MSTORE PUSH1 0x20 ADD PUSH2 0x1EC JUMP JUMPDEST CALLVALUE DUP1 ISZERO PUSH2 0x3B8 JUMPI PUSH1 0x0 DUP1 REVERT JUMPDEST POP PUSH2 0x25F PUSH2 0xA0E JUMP JUMPDEST CALLVALUE DUP1 ISZERO PUSH2 0x3CD JUMPI PUSH1 0x0 DUP1 REVERT JUMPDEST POP PUSH2 0x25F PUSH2 0x3DC CALLDATASIZE PUSH1 0x4 PUSH2 0x3CEA JUMP JUMPDEST PUSH2 0xC7C JUMP JUMPDEST CALLVALUE DUP1 ISZERO PUSH2 0x3ED JUMPI PUSH1 0x0 DUP1 REVERT JUMPDEST POP PUSH2 0x25F PUSH2 0x3FC CALLDATASIZE PUSH1 0x4 PUSH2 0x39A9 JUMP JUMPDEST PUSH2 0xC8C JUMP JUMPDEST CALLVALUE DUP1 ISZERO PUSH2 0x40D JUMPI PUSH1 0x0 DUP1 REVERT JUMPDEST POP PUSH2 0x204 PUSH1 0x5 SLOAD DUP2 JUMP JUMPDEST CALLVALUE DUP1 ISZERO PUSH2 0x423 JUMPI PUSH1 0x0 DUP1 REVERT JUMPDEST POP PUSH2 0x437 PUSH2 0x432 CALLDATASIZE PUSH1 0x4 PUSH2 0x39D3 JUMP JUMPDEST PUSH2 0xEBE JUMP JUMPDEST PUSH1 0x40 DUP1 MLOAD PUSH1 0x1 PUSH1 0x1 PUSH1 0xA0 SHL SUB SWAP9 DUP10 AND DUP2 MSTORE SWAP8 SWAP1 SWAP7 AND PUSH1 0x20 DUP9 ADD MSTORE SWAP4 ISZERO ISZERO SWAP5 DUP7 ADD SWAP5 SWAP1 SWAP5 MSTORE PUSH1 0x60 DUP6 ADD SWAP2 SWAP1 SWAP2 MSTORE PUSH1 0x80 DUP5 ADD MSTORE PUSH1 0xA0 DUP4 ADD SWAP2 SWAP1 SWAP2 MSTORE PUSH1 0xC0 DUP3 ADD MSTORE PUSH1 0xE0 ADD PUSH2 0x1EC JUMP JUMPDEST CALLVALUE DUP1 ISZERO PUSH2 0x489 JUMPI PUSH1 0x0 DUP1 REVERT JUMPDEST POP PUSH2 0x25F PUSH2 0x498 CALLDATASIZE PUSH1 0x4 PUSH2 0x3B43 JUMP JUMPDEST PUSH2 0xF1E JUMP JUMPDEST PUSH2 0x25F PUSH2 0x4AB CALLDATASIZE PUSH1 0x4 PUSH2 0x3CCF JUMP JUMPDEST PUSH2 0x1071 JUMP JUMPDEST CALLVALUE DUP1 ISZERO PUSH2 0x4BC JUMPI PUSH1 0x0 DUP1 REVERT JUMPDEST POP PUSH1 0xC SLOAD PUSH2 0x204 JUMP JUMPDEST CALLVALUE DUP1 ISZERO PUSH2 0x4D1 JUMPI PUSH1 0x0 DUP1 REVERT JUMPDEST POP PUSH2 0x25F PUSH2 0x4E0 CALLDATASIZE PUSH1 0x4 PUSH2 0x39A9 JUMP JUMPDEST PUSH2 0x10DA JUMP JUMPDEST CALLVALUE DUP1 ISZERO PUSH2 0x4F1 JUMPI PUSH1 0x0 DUP1 REVERT JUMPDEST POP PUSH2 0x25F PUSH2 0x500 CALLDATASIZE PUSH1 0x4 PUSH2 0x3CCF JUMP JUMPDEST PUSH2 0x1179 JUMP JUMPDEST PUSH2 0x25F PUSH2 0x513 CALLDATASIZE PUSH1 0x4 PUSH2 0x3CCF JUMP JUMPDEST PUSH2 0x11E2 JUMP JUMPDEST PUSH2 0x520 PUSH2 0x38CB JUMP JUMPDEST PUSH1 0x1 PUSH1 0x1 PUSH1 0xA0 SHL SUB DUP4 AND PUSH1 0x0 SWAP1 DUP2 MSTORE PUSH1 0xB PUSH1 0x20 SWAP1 DUP2 MSTORE PUSH1 0x40 DUP1 DUP4 KECCAK256 DUP1 SLOAD DUP3 MLOAD DUP2 DUP6 MUL DUP2 ADD DUP6 ADD SWAP1 SWAP4 MSTORE DUP1 DUP4 MSTORE SWAP2 SWAP3 SWAP1 SWAP2 SWAP1 DUP4 ADD DUP3 DUP3 DUP1 ISZERO PUSH2 0x580 JUMPI PUSH1 0x20 MUL DUP3 ADD SWAP2 SWAP1 PUSH1 0x0 MSTORE PUSH1 0x20 PUSH1 0x0 KECCAK256 SWAP1 JUMPDEST DUP2 SLOAD DUP2 MSTORE PUSH1 0x20 ADD SWAP1 PUSH1 0x1 ADD SWAP1 DUP1 DUP4 GT PUSH2 0x56C JUMPI JUMPDEST POP POP POP POP POP SWAP1 POP DUP1 MLOAD DUP4 LT PUSH2 0x5A8 JUMPI PUSH1 0x40 MLOAD PUSH4 0x5DCAF2D7 PUSH1 0xE0 SHL DUP2 MSTORE PUSH1 0x4 ADD PUSH1 0x40 MLOAD DUP1 SWAP2 SUB SWAP1 REVERT JUMPDEST PUSH1 0x0 DUP2 DUP5 DUP2 MLOAD DUP2 LT PUSH2 0x5BC JUMPI PUSH2 0x5BC PUSH2 0x3D26 JUMP JUMPDEST PUSH1 0x20 MUL PUSH1 0x20 ADD ADD MLOAD SWAP1 POP PUSH1 0x7 DUP2 DUP2 SLOAD DUP2 LT PUSH2 0x5D9 JUMPI PUSH2 0x5D9 PUSH2 0x3D26 JUMP JUMPDEST PUSH1 0x0 SWAP2 DUP3 MSTORE PUSH1 0x20 SWAP2 DUP3 SWAP1 KECCAK256 PUSH1 0x40 DUP1 MLOAD PUSH1 0xE0 DUP2 ADD DUP3 MSTORE PUSH1 0x6 SWAP4 SWAP1 SWAP4 MUL SWAP1 SWAP2 ADD DUP1 SLOAD PUSH1 0x1 PUSH1 0x1 PUSH1 0xA0 SHL SUB SWAP1 DUP2 AND DUP5 MSTORE PUSH1 0x1 DUP3 ADD SLOAD SWAP1 DUP2 AND SWAP5 DUP5 ADD SWAP5 SWAP1 SWAP5 MSTORE PUSH1 0x1 PUSH1 0xA0 SHL SWAP1 SWAP4 DIV PUSH1 0xFF AND ISZERO ISZERO SWAP1 DUP3 ADD MSTORE PUSH1 0x2 DUP3 ADD SLOAD PUSH1 0x60 DUP3 ADD MSTORE PUSH1 0x3 DUP3 ADD SLOAD PUSH1 0x80 DUP3 ADD MSTORE PUSH1 0x4 DUP3 ADD SLOAD PUSH1 0xA0 DUP3 ADD MSTORE PUSH1 0x5 SWAP1 SWAP2 ADD SLOAD PUSH1 0xC0 DUP3 ADD MSTORE SWAP3 POP POP POP JUMPDEST SWAP3 SWAP2 POP POP JUMP JUMPDEST PUSH2 0x662 PUSH2 0x391C JUMP JUMPDEST PUSH2 0x654 DUP3 PUSH2 0x1212 JUMP JUMPDEST PUSH2 0x676 DUP3 CALLER DUP4 PUSH2 0x1522 JUMP JUMPDEST POP POP JUMP JUMPDEST PUSH1 0x0 DUP2 ISZERO PUSH2 0x6A1 JUMPI POP PUSH1 0x1 PUSH1 0x1 PUSH1 0xA0 SHL SUB DUP3 AND PUSH1 0x0 SWAP1 DUP2 MSTORE PUSH1 0x1 PUSH1 0x20 MSTORE PUSH1 0x40 SWAP1 KECCAK256 SLOAD PUSH2 0x654 JUMP JUMPDEST POP PUSH1 0x1 PUSH1 0x1 PUSH1 0xA0 SHL SUB DUP3 AND PUSH1 0x0 SWAP1 DUP2 MSTORE PUSH1 0x2 PUSH1 0x20 MSTORE PUSH1 0x40 SWAP1 KECCAK256 SLOAD PUSH2 0x654 JUMP JUMPDEST PUSH2 0x6C8 PUSH2 0x38CB JUMP JUMPDEST PUSH1 0x1 PUSH1 0x1 PUSH1 0xA0 SHL SUB DUP4 AND PUSH1 0x0 SWAP1 DUP2 MSTORE PUSH1 0xA PUSH1 0x20 SWAP1 DUP2 MSTORE PUSH1 0x40 DUP1 DUP4 KECCAK256 DUP1 SLOAD DUP3 MLOAD DUP2 DUP6 MUL DUP2 ADD DUP6 ADD SWAP1 SWAP4 MSTORE DUP1 DUP4 MSTORE SWAP2 SWAP3 SWAP1 SWAP2 SWAP1 DUP4 ADD DUP3 DUP3 DUP1 ISZERO PUSH2 0x580 JUMPI PUSH1 0x20 MUL DUP3 ADD SWAP2 SWAP1 PUSH1 0x0 MSTORE PUSH1 0x20 PUSH1 0x0 KECCAK256 SWAP1 DUP2 SLOAD DUP2 MSTORE PUSH1 0x20 ADD SWAP1 PUSH1 0x1 ADD SWAP1 DUP1 DUP4 GT PUSH2 0x56C JUMPI POP POP POP POP POP SWAP1 POP DUP1 MLOAD DUP4 LT PUSH2 0x5A8 JUMPI PUSH1 0x40 MLOAD PUSH4 0x5DCAF2D7 PUSH1 0xE0 SHL DUP2 MSTORE PUSH1 0x4 ADD PUSH1 0x40 MLOAD DUP1 SWAP2 SUB SWAP1 REVERT JUMPDEST PUSH2 0x75E DUP5 PUSH1 0x0 DUP6 DUP6 PUSH1 0x0 DUP7 PUSH2 0x1557 JUMP JUMPDEST POP POP POP POP JUMP JUMPDEST PUSH2 0x75E DUP5 PUSH1 0x1 DUP5 DUP5 DUP8 PUSH1 0x40 MLOAD DUP1 PUSH1 0x20 ADD PUSH1 0x40 MSTORE DUP1 PUSH1 0x0 DUP2 MSTORE POP PUSH2 0x1557 JUMP JUMPDEST PUSH2 0x78A PUSH2 0x391C JUMP JUMPDEST PUSH1 0x1 PUSH1 0x1 PUSH1 0xA0 SHL SUB DUP3 AND PUSH1 0x0 SWAP1 DUP2 MSTORE PUSH1 0x9 PUSH1 0x20 MSTORE PUSH1 0x40 SWAP1 KECCAK256 SLOAD PUSH2 0x7AC DUP2 PUSH2 0x1212 JUMP JUMPDEST SWAP4 SWAP3 POP POP POP JUMP JUMPDEST CALLVALUE PUSH1 0x0 DUP1 DUP1 PUSH2 0x7C2 DUP6 DUP6 PUSH2 0x166B JUMP JUMPDEST SWAP3 POP SWAP1 POP DUP1 PUSH2 0x7E4 JUMPI PUSH1 0x40 MLOAD PUSH4 0x2050D62B PUSH1 0xE0 SHL DUP2 MSTORE PUSH1 0x4 ADD PUSH1 0x40 MLOAD DUP1 SWAP2 SUB SWAP1 REVERT JUMPDEST PUSH1 0x1 PUSH1 0x1 PUSH1 0xA0 SHL SUB DUP6 AND PUSH1 0x0 SWAP1 DUP2 MSTORE PUSH1 0x1 PUSH1 0x20 MSTORE PUSH1 0x40 DUP2 KECCAK256 DUP1 SLOAD DUP7 SWAP3 SWAP1 PUSH2 0x80C SWAP1 DUP5 SWAP1 PUSH2 0x3D52 JUMP JUMPDEST SWAP1 SWAP2 SSTORE POP POP PUSH1 0x7 DUP1 SLOAD DUP4 SWAP1 DUP2 LT PUSH2 0x825 JUMPI PUSH2 0x825 PUSH2 0x3D26 JUMP JUMPDEST SWAP1 PUSH1 0x0 MSTORE PUSH1 0x20 PUSH1 0x0 KECCAK256 SWAP1 PUSH1 0x6 MUL ADD SWAP3 POP PUSH2 0x843 DUP4 PUSH1 0x0 DUP5 DUP8 DUP10 PUSH2 0x17B7 JUMP JUMPDEST POP POP POP POP POP JUMP JUMPDEST PUSH2 0x852 PUSH2 0x38CB JUMP JUMPDEST PUSH1 0x7 SLOAD DUP3 LT PUSH2 0x874 JUMPI PUSH1 0x40 MLOAD PUSH4 0x5DCAF2D7 PUSH1 0xE0 SHL DUP2 MSTORE PUSH1 0x4 ADD PUSH1 0x40 MLOAD DUP1 SWAP2 SUB SWAP1 REVERT JUMPDEST PUSH1 0x7 DUP3 DUP2 SLOAD DUP2 LT PUSH2 0x887 JUMPI PUSH2 0x887 PUSH2 0x3D26 JUMP JUMPDEST PUSH1 0x0 SWAP2 DUP3 MSTORE PUSH1 0x20 SWAP2 DUP3 SWAP1 KECCAK256 PUSH1 0x40 DUP1 MLOAD PUSH1 0xE0 DUP2 ADD DUP3 MSTORE PUSH1 0x6 SWAP4 SWAP1 SWAP4 MUL SWAP1 SWAP2 ADD DUP1 SLOAD PUSH1 0x1 PUSH1 0x1 PUSH1 0xA0 SHL SUB SWAP1 DUP2 AND DUP5 MSTORE PUSH1 0x1 DUP3 ADD SLOAD SWAP1 DUP2 AND SWAP5 DUP5 ADD SWAP5 SWAP1 SWAP5 MSTORE PUSH1 0x1 PUSH1 0xA0 SHL SWAP1 SWAP4 DIV PUSH1 0xFF AND ISZERO ISZERO SWAP1 DUP3 ADD MSTORE PUSH1 0x2 DUP3 ADD SLOAD PUSH1 0x60 DUP3 ADD MSTORE PUSH1 0x3 DUP3 ADD SLOAD PUSH1 0x80 DUP3 ADD MSTORE PUSH1 0x4 DUP3 ADD SLOAD PUSH1 0xA0 DUP3 ADD MSTORE PUSH1 0x5 SWAP1 SWAP2 ADD SLOAD PUSH1 0xC0 DUP3 ADD MSTORE SWAP3 SWAP2 POP POP JUMP JUMPDEST PUSH2 0x90B PUSH2 0x1A02 JUMP JUMPDEST PUSH1 0xE DUP1 SLOAD PUSH1 0x1 PUSH1 0x1 PUSH1 0xA0 SHL SUB NOT AND PUSH1 0x1 PUSH1 0x1 PUSH1 0xA0 SHL SUB DUP4 AND OR SWAP1 SSTORE PUSH2 0x92E PUSH2 0x1A31 JUMP JUMPDEST PUSH1 0x40 MLOAD PUSH1 0x1 PUSH1 0x1 PUSH1 0xA0 SHL SUB DUP3 AND DUP2 MSTORE PUSH32 0x15B49408719C001F91D2EC31B653D0929170F69FF422EF39920E9C280910115E SWAP1 PUSH1 0x20 ADD PUSH1 0x40 MLOAD DUP1 SWAP2 SUB SWAP1 LOG1 POP JUMP JUMPDEST PUSH1 0x0 PUSH2 0x978 DUP3 PUSH2 0x1AEE JUMP JUMPDEST PUSH2 0x140 DUP2 ADD MLOAD PUSH1 0x40 MLOAD PUSH4 0x70A08231 PUSH1 0xE0 SHL DUP2 MSTORE ADDRESS PUSH1 0x4 DUP3 ADD MSTORE SWAP2 SWAP3 POP PUSH1 0x0 SWAP2 PUSH1 0x1 PUSH1 0x1 PUSH1 0xA0 SHL SUB SWAP1 SWAP2 AND SWAP1 PUSH4 0x70A08231 SWAP1 PUSH1 0x24 ADD PUSH1 0x20 PUSH1 0x40 MLOAD DUP1 DUP4 SUB DUP2 DUP7 GAS STATICCALL ISZERO DUP1 ISZERO PUSH2 0x9C9 JUMPI RETURNDATASIZE PUSH1 0x0 DUP1 RETURNDATACOPY RETURNDATASIZE PUSH1 0x0 REVERT JUMPDEST POP POP POP POP PUSH1 0x40 MLOAD RETURNDATASIZE PUSH1 0x1F NOT PUSH1 0x1F DUP3 ADD AND DUP3 ADD DUP1 PUSH1 0x40 MSTORE POP DUP2 ADD SWAP1 PUSH2 0x9ED SWAP2 SWAP1 PUSH2 0x3D65 JUMP JUMPDEST PUSH1 0x1 PUSH1 0x1 PUSH1 0xA0 SHL SUB SWAP1 SWAP4 AND PUSH1 0x0 SWAP1 DUP2 MSTORE PUSH1 0x2 PUSH1 0x20 MSTORE PUSH1 0x40 SWAP1 KECCAK256 SWAP3 SWAP1 SWAP3 SSTORE POP POP JUMP JUMPDEST CALLER PUSH1 0x0 SWAP1 DUP2 MSTORE PUSH1 0xB PUSH1 0x20 MSTORE PUSH1 0x40 DUP2 KECCAK256 DUP1 SLOAD SWAP1 SWAP2 SWAP1 ISZERO ISZERO SWAP1 DUP1 DUP3 PUSH2 0xA32 JUMPI PUSH1 0x64 PUSH2 0xA35 JUMP JUMPDEST PUSH1 0x32 JUMPDEST SWAP1 POP PUSH1 0x0 TIMESTAMP PUSH2 0xA42 PUSH2 0x38CB JUMP JUMPDEST PUSH1 0x7 SLOAD PUSH2 0xA52 JUMPI POP POP POP POP POP POP POP JUMP JUMPDEST PUSH1 0x0 DUP1 DUP8 ISZERO PUSH2 0xB85 JUMPI DUP9 SLOAD SWAP2 POP JUMPDEST PUSH1 0x0 DUP3 GT DUP1 ISZERO PUSH2 0xA70 JUMPI POP DUP6 DUP8 GT ISZERO JUMPDEST ISZERO PUSH2 0xB7A JUMPI PUSH2 0xA80 PUSH1 0x1 DUP4 PUSH2 0x3D7E JUMP JUMPDEST SWAP1 POP DUP9 DUP2 DUP2 SLOAD DUP2 LT PUSH2 0xA94 JUMPI PUSH2 0xA94 PUSH2 0x3D26 JUMP JUMPDEST SWAP1 PUSH1 0x0 MSTORE PUSH1 0x20 PUSH1 0x0 KECCAK256 ADD SLOAD SWAP5 POP PUSH1 0x7 DUP6 DUP2 SLOAD DUP2 LT PUSH2 0xAB4 JUMPI PUSH2 0xAB4 PUSH2 0x3D26 JUMP JUMPDEST PUSH1 0x0 SWAP2 DUP3 MSTORE PUSH1 0x20 SWAP2 DUP3 SWAP1 KECCAK256 PUSH1 0x40 DUP1 MLOAD PUSH1 0xE0 DUP2 ADD DUP3 MSTORE PUSH1 0x6 SWAP4 SWAP1 SWAP4 MUL SWAP1 SWAP2 ADD DUP1 SLOAD PUSH1 0x1 PUSH1 0x1 PUSH1 0xA0 SHL SUB SWAP1 DUP2 AND DUP5 MSTORE PUSH1 0x1 DUP3 ADD SLOAD SWAP1 DUP2 AND SWAP5 DUP5 ADD SWAP5 SWAP1 SWAP5 MSTORE PUSH1 0x1 PUSH1 0xA0 SHL SWAP1 SWAP4 DIV PUSH1 0xFF AND ISZERO ISZERO SWAP1 DUP3 ADD MSTORE PUSH1 0x2 DUP3 ADD SLOAD PUSH1 0x60 DUP3 ADD DUP2 SWAP1 MSTORE PUSH1 0x3 DUP4 ADD SLOAD PUSH1 0x80 DUP4 ADD MSTORE PUSH1 0x4 DUP4 ADD SLOAD PUSH1 0xA0 DUP4 ADD MSTORE PUSH1 0x5 SWAP1 SWAP3 ADD SLOAD PUSH1 0xC0 DUP3 ADD MSTORE SWAP4 POP PUSH1 0x28 SWAP1 PUSH2 0xB3B SWAP1 DUP7 PUSH2 0x3D7E JUMP JUMPDEST GT ISZERO PUSH2 0xB68 JUMPI PUSH2 0xB4B DUP4 DUP7 PUSH2 0x1D9B JUMP JUMPDEST ISZERO PUSH2 0xB68 JUMPI PUSH2 0xB5A DUP10 DUP3 PUSH2 0x1E61 JUMP JUMPDEST DUP7 PUSH2 0xB64 DUP2 PUSH2 0x3D91 JUMP JUMPDEST SWAP8 POP POP JUMPDEST DUP2 PUSH2 0xB72 DUP2 PUSH2 0x3DAA JUMP JUMPDEST SWAP3 POP POP PUSH2 0xA60 JUMP JUMPDEST POP POP POP POP POP POP POP POP POP JUMP JUMPDEST PUSH1 0x7 SLOAD SWAP2 POP JUMPDEST PUSH1 0x0 DUP3 GT DUP1 ISZERO PUSH2 0xB9B JUMPI POP DUP6 DUP8 GT ISZERO JUMPDEST ISZERO PUSH2 0xB7A JUMPI PUSH2 0xBAB PUSH1 0x1 DUP4 PUSH2 0x3D7E JUMP JUMPDEST SWAP1 POP PUSH1 0x7 DUP2 DUP2 SLOAD DUP2 LT PUSH2 0xBC0 JUMPI PUSH2 0xBC0 PUSH2 0x3D26 JUMP JUMPDEST PUSH1 0x0 SWAP2 DUP3 MSTORE PUSH1 0x20 SWAP2 DUP3 SWAP1 KECCAK256 PUSH1 0x40 DUP1 MLOAD PUSH1 0xE0 DUP2 ADD DUP3 MSTORE PUSH1 0x6 SWAP4 SWAP1 SWAP4 MUL SWAP1 SWAP2 ADD DUP1 SLOAD PUSH1 0x1 PUSH1 0x1 PUSH1 0xA0 SHL SUB SWAP1 DUP2 AND DUP5 MSTORE PUSH1 0x1 DUP3 ADD SLOAD SWAP1 DUP2 AND SWAP5 DUP5 ADD SWAP5 SWAP1 SWAP5 MSTORE PUSH1 0x1 PUSH1 0xA0 SHL SWAP1 SWAP4 DIV PUSH1 0xFF AND ISZERO ISZERO SWAP1 DUP3 ADD MSTORE PUSH1 0x2 DUP3 ADD SLOAD PUSH1 0x60 DUP3 ADD DUP2 SWAP1 MSTORE PUSH1 0x3 DUP4 ADD SLOAD PUSH1 0x80 DUP4 ADD MSTORE PUSH1 0x4 DUP4 ADD SLOAD PUSH1 0xA0 DUP4 ADD MSTORE PUSH1 0x5 SWAP1 SWAP3 ADD SLOAD PUSH1 0xC0 DUP3 ADD MSTORE SWAP4 POP PUSH1 0x28 SWAP1 PUSH2 0xC47 SWAP1 DUP7 PUSH2 0x3D7E JUMP JUMPDEST GT ISZERO PUSH2 0xC6A JUMPI PUSH2 0xC57 DUP4 DUP3 PUSH2 0x1D9B JUMP JUMPDEST ISZERO PUSH2 0xC6A JUMPI DUP7 PUSH2 0xC66 DUP2 PUSH2 0x3D91 JUMP JUMPDEST SWAP8 POP POP JUMPDEST DUP2 PUSH2 0xC74 DUP2 PUSH2 0x3DAA JUMP JUMPDEST SWAP3 POP POP PUSH2 0xB8B JUMP JUMPDEST PUSH2 0xC87 DUP4 DUP4 DUP4 PUSH2 0x1522 JUMP JUMPDEST POP POP POP JUMP JUMPDEST PUSH1 0x0 DUP2 GT PUSH2 0xCAD JUMPI PUSH1 0x40 MLOAD PUSH4 0x42257CED PUSH1 0xE1 SHL DUP2 MSTORE PUSH1 0x4 ADD PUSH1 0x40 MLOAD DUP1 SWAP2 SUB SWAP1 REVERT JUMPDEST PUSH1 0x0 PUSH2 0xCB8 DUP4 PUSH2 0x1EE2 JUMP JUMPDEST SWAP1 POP PUSH2 0xE95 DUP2 PUSH1 0x40 MLOAD DUP1 PUSH2 0x160 ADD PUSH1 0x40 MSTORE SWAP1 DUP2 PUSH1 0x0 DUP3 ADD DUP1 SLOAD PUSH2 0xCDA SWAP1 PUSH2 0x3DC1 JUMP JUMPDEST DUP1 PUSH1 0x1F ADD PUSH1 0x20 DUP1 SWAP2 DIV MUL PUSH1 0x20 ADD PUSH1 0x40 MLOAD SWAP1 DUP2 ADD PUSH1 0x40 MSTORE DUP1 SWAP3 SWAP2 SWAP1 DUP2 DUP2 MSTORE PUSH1 0x20 ADD DUP3 DUP1 SLOAD PUSH2 0xD06 SWAP1 PUSH2 0x3DC1 JUMP JUMPDEST DUP1 ISZERO PUSH2 0xD53 JUMPI DUP1 PUSH1 0x1F LT PUSH2 0xD28 JUMPI PUSH2 0x100 DUP1 DUP4 SLOAD DIV MUL DUP4 MSTORE SWAP2 PUSH1 0x20 ADD SWAP2 PUSH2 0xD53 JUMP JUMPDEST DUP3 ADD SWAP2 SWAP1 PUSH1 0x0 MSTORE PUSH1 0x20 PUSH1 0x0 KECCAK256 SWAP1 JUMPDEST DUP2 SLOAD DUP2 MSTORE SWAP1 PUSH1 0x1 ADD SWAP1 PUSH1 0x20 ADD DUP1 DUP4 GT PUSH2 0xD36 JUMPI DUP3 SWAP1 SUB PUSH1 0x1F AND DUP3 ADD SWAP2 JUMPDEST POP POP POP POP POP DUP2 MSTORE PUSH1 0x20 ADD PUSH1 0x1 DUP3 ADD DUP1 SLOAD PUSH2 0xD6C SWAP1 PUSH2 0x3DC1 JUMP JUMPDEST DUP1 PUSH1 0x1F ADD PUSH1 0x20 DUP1 SWAP2 DIV MUL PUSH1 0x20 ADD PUSH1 0x40 MLOAD SWAP1 DUP2 ADD PUSH1 0x40 MSTORE DUP1 SWAP3 SWAP2 SWAP1 DUP2 DUP2 MSTORE PUSH1 0x20 ADD DUP3 DUP1 SLOAD PUSH2 0xD98 SWAP1 PUSH2 0x3DC1 JUMP JUMPDEST DUP1 ISZERO PUSH2 0xDE5 JUMPI DUP1 PUSH1 0x1F LT PUSH2 0xDBA JUMPI PUSH2 0x100 DUP1 DUP4 SLOAD DIV MUL DUP4 MSTORE SWAP2 PUSH1 0x20 ADD SWAP2 PUSH2 0xDE5 JUMP JUMPDEST DUP3 ADD SWAP2 SWAP1 PUSH1 0x0 MSTORE PUSH1 0x20 PUSH1 0x0 KECCAK256 SWAP1 JUMPDEST DUP2 SLOAD DUP2 MSTORE SWAP1 PUSH1 0x1 ADD SWAP1 PUSH1 0x20 ADD DUP1 DUP4 GT PUSH2 0xDC8 JUMPI DUP3 SWAP1 SUB PUSH1 0x1F AND DUP3 ADD SWAP2 JUMPDEST POP POP POP SWAP2 DUP4 MSTORE POP POP PUSH1 0x2 DUP3 ADD SLOAD PUSH1 0xFF DUP1 DUP3 AND PUSH1 0x20 DUP5 ADD MSTORE PUSH1 0x1 PUSH1 0x1 PUSH1 0xA0 SHL SUB PUSH2 0x100 SWAP1 SWAP3 DIV DUP3 AND PUSH1 0x40 DUP5 ADD MSTORE PUSH1 0x3 DUP5 ADD SLOAD SWAP2 DUP3 AND PUSH1 0x60 DUP5 ADD MSTORE PUSH1 0x80 SWAP1 SWAP3 ADD SWAP2 PUSH1 0x1 PUSH1 0xA0 SHL SWAP1 SWAP2 DIV AND PUSH1 0x1 DUP2 GT ISZERO PUSH2 0xE3E JUMPI PUSH2 0xE3E PUSH2 0x3A3C JUMP JUMPDEST PUSH1 0x1 DUP2 GT ISZERO PUSH2 0xE4F JUMPI PUSH2 0xE4F PUSH2 0x3A3C JUMP JUMPDEST DUP2 MSTORE PUSH1 0x4 DUP3 ADD SLOAD PUSH1 0x20 DUP3 ADD MSTORE PUSH1 0x5 DUP3 ADD SLOAD PUSH1 0x40 DUP3 ADD MSTORE PUSH1 0x6 DUP3 ADD SLOAD PUSH1 0x60 DUP3 ADD MSTORE PUSH1 0x7 DUP3 ADD SLOAD PUSH1 0x80 DUP3 ADD MSTORE PUSH1 0x8 SWAP1 SWAP2 ADD SLOAD PUSH1 0x1 PUSH1 0x1 PUSH1 0xA0 SHL SUB AND PUSH1 0xA0 SWAP1 SWAP2 ADD MSTORE CALLER DUP5 PUSH2 0x1F5A JUMP JUMPDEST PUSH2 0xEB2 JUMPI PUSH1 0x40 MLOAD PUSH4 0x79CACFF1 PUSH1 0xE0 SHL DUP2 MSTORE PUSH1 0x4 ADD PUSH1 0x40 MLOAD DUP1 SWAP2 SUB SWAP1 REVERT JUMPDEST PUSH2 0xC87 DUP2 PUSH1 0x0 DUP5 PUSH2 0x1FAA JUMP JUMPDEST PUSH1 0x8 DUP2 DUP2 SLOAD DUP2 LT PUSH2 0xECE JUMPI PUSH1 0x0 DUP1 REVERT JUMPDEST PUSH1 0x0 SWAP2 DUP3 MSTORE PUSH1 0x20 SWAP1 SWAP2 KECCAK256 PUSH1 0x6 SWAP1 SWAP2 MUL ADD DUP1 SLOAD PUSH1 0x1 DUP3 ADD SLOAD PUSH1 0x2 DUP4 ADD SLOAD PUSH1 0x3 DUP5 ADD SLOAD PUSH1 0x4 DUP6 ADD SLOAD PUSH1 0x5 SWAP1 SWAP6 ADD SLOAD PUSH1 0x1 PUSH1 0x1 PUSH1 0xA0 SHL SUB SWAP5 DUP6 AND SWAP7 POP SWAP4 DUP4 AND SWAP5 PUSH1 0x1 PUSH1 0xA0 SHL SWAP1 SWAP4 DIV PUSH1 0xFF AND SWAP4 SWAP2 SWAP3 SWAP1 SWAP2 DUP8 JUMP JUMPDEST PUSH1 0x0 PUSH2 0xF29 DUP4 PUSH2 0x1AEE JUMP JUMPDEST PUSH1 0x60 DUP2 ADD MLOAD PUSH1 0x1 PUSH1 0x1 PUSH1 0xA0 SHL SUB AND PUSH1 0x0 SWAP1 DUP2 MSTORE PUSH1 0xA PUSH1 0x20 MSTORE PUSH1 0x40 DUP2 KECCAK256 DUP1 SLOAD SWAP3 SWAP4 POP SWAP2 DUP2 SWAP1 DUP2 SWAP1 DUP2 JUMPDEST DUP2 ISZERO PUSH2 0xB7A JUMPI PUSH2 0xF62 PUSH1 0x1 DUP4 PUSH2 0x3D7E JUMP JUMPDEST SWAP1 POP PUSH1 0x0 DUP7 DUP3 DUP2 SLOAD DUP2 LT PUSH2 0xF78 JUMPI PUSH2 0xF78 PUSH2 0x3D26 JUMP JUMPDEST SWAP1 PUSH1 0x0 MSTORE PUSH1 0x20 PUSH1 0x0 KECCAK256 ADD SLOAD SWAP1 POP PUSH1 0x7 DUP2 DUP2 SLOAD DUP2 LT PUSH2 0xF98 JUMPI PUSH2 0xF98 PUSH2 0x3D26 JUMP JUMPDEST SWAP1 PUSH1 0x0 MSTORE PUSH1 0x20 PUSH1 0x0 KECCAK256 SWAP1 PUSH1 0x6 MUL ADD SWAP6 POP DUP9 PUSH2 0xFCB JUMPI PUSH1 0x1 PUSH1 0x1 PUSH1 0xA0 SHL SUB DUP11 AND PUSH1 0x0 SWAP1 DUP2 MSTORE PUSH1 0x1 PUSH1 0x20 MSTORE PUSH1 0x40 SWAP1 KECCAK256 SLOAD PUSH2 0xFE5 JUMP JUMPDEST PUSH1 0x1 PUSH1 0x1 PUSH1 0xA0 SHL SUB DUP11 AND PUSH1 0x0 SWAP1 DUP2 MSTORE PUSH1 0x2 PUSH1 0x20 MSTORE PUSH1 0x40 SWAP1 KECCAK256 SLOAD JUMPDEST SWAP4 POP PUSH1 0x0 DUP5 GT PUSH2 0xFF5 JUMPI POP PUSH2 0xB7A JUMP JUMPDEST PUSH1 0x1 DUP7 ADD SLOAD PUSH1 0xFF PUSH1 0x1 PUSH1 0xA0 SHL SWAP1 SWAP2 DIV AND ISZERO ISZERO DUP10 ISZERO ISZERO EQ PUSH2 0x1015 JUMPI POP PUSH2 0x105F JUMP JUMPDEST DUP9 ISZERO PUSH2 0x102E JUMPI PUSH2 0x1027 DUP9 DUP8 DUP5 DUP8 PUSH2 0x261F JUMP JUMPDEST SWAP5 POP PUSH2 0x103D JUMP JUMPDEST PUSH2 0x103A DUP9 DUP8 DUP5 DUP8 PUSH2 0x2795 JUMP JUMPDEST SWAP5 POP JUMPDEST DUP5 PUSH2 0x1048 JUMPI POP PUSH2 0x105F JUMP JUMPDEST PUSH2 0x1052 DUP8 DUP4 PUSH2 0x1E61 JUMP JUMPDEST PUSH2 0x105D PUSH1 0x7 DUP3 PUSH2 0x28A7 JUMP JUMPDEST POP JUMPDEST DUP2 PUSH2 0x1069 DUP2 PUSH2 0x3DAA JUMP JUMPDEST SWAP3 POP POP PUSH2 0xF51 JUMP JUMPDEST CALLVALUE DUP1 PUSH2 0x1090 JUMPI PUSH1 0x40 MLOAD PUSH4 0x42257CED PUSH1 0xE1 SHL DUP2 MSTORE PUSH1 0x4 ADD PUSH1 0x40 MLOAD DUP1 SWAP2 SUB SWAP1 REVERT JUMPDEST PUSH1 0x0 PUSH2 0x109B DUP4 PUSH2 0x1EE2 JUMP JUMPDEST PUSH1 0x1 PUSH1 0x1 PUSH1 0xA0 SHL SUB DUP5 AND PUSH1 0x0 SWAP1 DUP2 MSTORE PUSH1 0x1 PUSH1 0x20 MSTORE PUSH1 0x40 DUP2 KECCAK256 DUP1 SLOAD SWAP3 SWAP4 POP DUP5 SWAP3 SWAP1 SWAP2 SWAP1 PUSH2 0x10C8 SWAP1 DUP5 SWAP1 PUSH2 0x3D52 JUMP JUMPDEST SWAP1 SWAP2 SSTORE POP PUSH2 0xC87 SWAP1 POP DUP2 PUSH1 0x1 DUP5 PUSH2 0x1FAA JUMP JUMPDEST PUSH1 0x0 PUSH2 0x10E5 DUP4 PUSH2 0x1AEE JUMP JUMPDEST SWAP1 POP PUSH1 0x0 DUP1 PUSH1 0x0 PUSH2 0x10F6 DUP7 DUP7 PUSH2 0x166B JUMP JUMPDEST SWAP3 POP SWAP1 POP DUP1 PUSH2 0x1118 JUMPI PUSH1 0x40 MLOAD PUSH4 0x2050D62B PUSH1 0xE0 SHL DUP2 MSTORE PUSH1 0x4 ADD PUSH1 0x40 MLOAD DUP1 SWAP2 SUB SWAP1 REVERT JUMPDEST PUSH2 0x1123 DUP5 CALLER DUP8 PUSH2 0x1F5A JUMP JUMPDEST PUSH2 0x1140 JUMPI PUSH1 0x40 MLOAD PUSH4 0x79CACFF1 PUSH1 0xE0 SHL DUP2 MSTORE PUSH1 0x4 ADD PUSH1 0x40 MLOAD DUP1 SWAP2 SUB SWAP1 REVERT JUMPDEST PUSH1 0x7 DUP3 DUP2 SLOAD DUP2 LT PUSH2 0x1153 JUMPI PUSH2 0x1153 PUSH2 0x3D26 JUMP JUMPDEST SWAP1 PUSH1 0x0 MSTORE PUSH1 0x20 PUSH1 0x0 KECCAK256 SWAP1 PUSH1 0x6 MUL ADD SWAP3 POP PUSH2 0x1171 DUP4 PUSH1 0x1 DUP5 DUP9 DUP11 PUSH2 0x17B7 JUMP JUMPDEST POP POP POP POP POP POP JUMP JUMPDEST PUSH2 0x1181 PUSH2 0x1A02 JUMP JUMPDEST PUSH1 0x0 DUP1 SLOAD PUSH1 0x1 PUSH1 0x1 PUSH1 0xA0 SHL SUB DUP4 DUP2 AND PUSH1 0x1 PUSH1 0x1 PUSH1 0xA0 SHL SUB NOT DUP4 AND DUP2 OR SWAP1 SWAP4 SSTORE PUSH1 0x40 DUP1 MLOAD SWAP2 SWAP1 SWAP3 AND DUP1 DUP3 MSTORE PUSH1 0x20 DUP3 ADD SWAP4 SWAP1 SWAP4 MSTORE PUSH32 0x850B3DF64837D7D518B45F5AA64D104652C3B80EB5B34A8E3D9EB666CB7CDEA5 SWAP2 ADD PUSH1 0x40 MLOAD DUP1 SWAP2 SUB SWAP1 LOG1 POP POP JUMP JUMPDEST PUSH1 0x1 PUSH1 0x1 PUSH1 0xA0 SHL SUB DUP2 AND PUSH1 0x0 SWAP1 DUP2 MSTORE PUSH1 0x1 PUSH1 0x20 MSTORE PUSH1 0x40 DUP2 KECCAK256 DUP1 SLOAD CALLVALUE SWAP3 SWAP1 PUSH2 0x120A SWAP1 DUP5 SWAP1 PUSH2 0x3D52 JUMP JUMPDEST SWAP1 SWAP2 SSTORE POP POP POP JUMP JUMPDEST PUSH2 0x121A PUSH2 0x391C JUMP JUMPDEST DUP2 ISZERO DUP1 PUSH2 0x1228 JUMPI POP PUSH1 0x6 SLOAD DUP3 GT JUMPDEST ISZERO PUSH2 0x1246 JUMPI PUSH1 0x40 MLOAD PUSH4 0x62F850F7 PUSH1 0xE1 SHL DUP2 MSTORE PUSH1 0x4 ADD PUSH1 0x40 MLOAD DUP1 SWAP2 SUB SWAP1 REVERT JUMPDEST PUSH1 0x0 PUSH1 0x6 PUSH2 0x1255 PUSH1 0x1 DUP6 PUSH2 0x3D7E JUMP JUMPDEST DUP2 SLOAD DUP2 LT PUSH2 0x1265 JUMPI PUSH2 0x1265 PUSH2 0x3D26 JUMP JUMPDEST SWAP1 PUSH1 0x0 MSTORE PUSH1 0x20 PUSH1 0x0 KECCAK256 SWAP1 PUSH1 0x9 MUL ADD PUSH1 0x40 MLOAD DUP1 PUSH2 0x160 ADD PUSH1 0x40 MSTORE SWAP1 DUP2 PUSH1 0x0 DUP3 ADD DUP1 SLOAD PUSH2 0x128F SWAP1 PUSH2 0x3DC1 JUMP JUMPDEST DUP1 PUSH1 0x1F ADD PUSH1 0x20 DUP1 SWAP2 DIV MUL PUSH1 0x20 ADD PUSH1 0x40 MLOAD SWAP1 DUP2 ADD PUSH1 0x40 MSTORE DUP1 SWAP3 SWAP2 SWAP1 DUP2 DUP2 MSTORE PUSH1 0x20 ADD DUP3 DUP1 SLOAD PUSH2 0x12BB SWAP1 PUSH2 0x3DC1 JUMP JUMPDEST DUP1 ISZERO PUSH2 0x1308 JUMPI DUP1 PUSH1 0x1F LT PUSH2 0x12DD JUMPI PUSH2 0x100 DUP1 DUP4 SLOAD DIV MUL DUP4 MSTORE SWAP2 PUSH1 0x20 ADD SWAP2 PUSH2 0x1308 JUMP JUMPDEST DUP3 ADD SWAP2 SWAP1 PUSH1 0x0 MSTORE PUSH1 0x20 PUSH1 0x0 KECCAK256 SWAP1 JUMPDEST DUP2 SLOAD DUP2 MSTORE SWAP1 PUSH1 0x1 ADD SWAP1 PUSH1 0x20 ADD DUP1 DUP4 GT PUSH2 0x12EB JUMPI DUP3 SWAP1 SUB PUSH1 0x1F AND DUP3 ADD SWAP2 JUMPDEST POP POP POP POP POP DUP2 MSTORE PUSH1 0x20 ADD PUSH1 0x1 DUP3 ADD DUP1 SLOAD PUSH2 0x1321 SWAP1 PUSH2 0x3DC1 JUMP JUMPDEST DUP1 PUSH1 0x1F ADD PUSH1 0x20 DUP1 SWAP2 DIV MUL PUSH1 0x20 ADD PUSH1 0x40 MLOAD SWAP1 DUP2 ADD PUSH1 0x40 MSTORE DUP1 SWAP3 SWAP2 SWAP1 DUP2 DUP2 MSTORE PUSH1 0x20 ADD DUP3 DUP1 SLOAD PUSH2 0x134D SWAP1 PUSH2 0x3DC1 JUMP JUMPDEST DUP1 ISZERO PUSH2 0x139A JUMPI DUP1 PUSH1 0x1F LT PUSH2 0x136F JUMPI PUSH2 0x100 DUP1 DUP4 SLOAD DIV MUL DUP4 MSTORE SWAP2 PUSH1 0x20 ADD SWAP2 PUSH2 0x139A JUMP JUMPDEST DUP3 ADD SWAP2 SWAP1 PUSH1 0x0 MSTORE PUSH1 0x20 PUSH1 0x0 KECCAK256 SWAP1 JUMPDEST DUP2 SLOAD DUP2 MSTORE SWAP1 PUSH1 0x1 ADD SWAP1 PUSH1 0x20 ADD DUP1 DUP4 GT PUSH2 0x137D JUMPI DUP3 SWAP1 SUB PUSH1 0x1F AND DUP3 ADD SWAP2 JUMPDEST POP POP POP SWAP2 DUP4 MSTORE POP POP PUSH1 0x2 DUP3 ADD SLOAD PUSH1 0xFF DUP1 DUP3 AND PUSH1 0x20 DUP5 ADD MSTORE PUSH1 0x1 PUSH1 0x1 PUSH1 0xA0 SHL SUB PUSH2 0x100 SWAP1 SWAP3 DIV DUP3 AND PUSH1 0x40 DUP5 ADD MSTORE PUSH1 0x3 DUP5 ADD SLOAD SWAP2 DUP3 AND PUSH1 0x60 DUP5 ADD MSTORE PUSH1 0x80 SWAP1 SWAP3 ADD SWAP2 PUSH1 0x1 PUSH1 0xA0 SHL SWAP1 SWAP2 DIV AND PUSH1 0x1 DUP2 GT ISZERO PUSH2 0x13F3 JUMPI PUSH2 0x13F3 PUSH2 0x3A3C JUMP JUMPDEST PUSH1 0x1 DUP2 GT ISZERO PUSH2 0x1404 JUMPI PUSH2 0x1404 PUSH2 0x3A3C JUMP JUMPDEST DUP2 MSTORE PUSH1 0x20 ADD PUSH1 0x4 DUP3 ADD SLOAD DUP2 MSTORE PUSH1 0x20 ADD PUSH1 0x5 DUP3 ADD SLOAD DUP2 MSTORE PUSH1 0x20 ADD PUSH1 0x6 DUP3 ADD SLOAD DUP2 MSTORE PUSH1 0x20 ADD PUSH1 0x7 DUP3 ADD SLOAD DUP2 MSTORE PUSH1 0x20 ADD PUSH1 0x8 DUP3 ADD PUSH1 0x0 SWAP1 SLOAD SWAP1 PUSH2 0x100 EXP SWAP1 DIV PUSH1 0x1 PUSH1 0x1 PUSH1 0xA0 SHL SUB AND PUSH1 0x1 PUSH1 0x1 PUSH1 0xA0 SHL SUB AND PUSH1 0x1 PUSH1 0x1 PUSH1 0xA0 SHL SUB AND DUP2 MSTORE POP POP SWAP1 POP PUSH1 0x0 PUSH1 0xA PUSH1 0x0 DUP4 PUSH1 0x60 ADD MLOAD PUSH1 0x1 PUSH1 0x1 PUSH1 0xA0 SHL SUB AND PUSH1 0x1 PUSH1 0x1 PUSH1 0xA0 SHL SUB AND DUP2 MSTORE PUSH1 0x20 ADD SWAP1 DUP2 MSTORE PUSH1 0x20 ADD PUSH1 0x0 KECCAK256 DUP1 SLOAD SWAP1 POP SWAP1 POP PUSH1 0x40 MLOAD DUP1 PUSH2 0x140 ADD PUSH1 0x40 MSTORE DUP1 DUP6 DUP2 MSTORE PUSH1 0x20 ADD DUP4 PUSH1 0x0 ADD MLOAD DUP2 MSTORE PUSH1 0x20 ADD DUP4 PUSH1 0x20 ADD MLOAD DUP2 MSTORE PUSH1 0x20 ADD DUP4 PUSH1 0x60 ADD MLOAD PUSH1 0x1 PUSH1 0x1 PUSH1 0xA0 SHL SUB AND DUP2 MSTORE PUSH1 0x20 ADD DUP4 PUSH1 0x80 ADD MLOAD PUSH1 0x1 PUSH1 0x1 PUSH1 0xA0 SHL SUB AND DUP2 MSTORE PUSH1 0x20 ADD DUP4 PUSH1 0xC0 ADD MLOAD DUP2 MSTORE PUSH1 0x20 ADD DUP4 PUSH1 0xE0 ADD MLOAD DUP2 MSTORE PUSH1 0x20 ADD DUP4 PUSH1 0xA0 ADD MLOAD PUSH1 0x1 DUP2 GT ISZERO PUSH2 0x1508 JUMPI PUSH2 0x1508 PUSH2 0x3A3C JUMP JUMPDEST DUP2 MSTORE PUSH2 0x100 SWAP1 SWAP4 ADD MLOAD PUSH1 0x20 DUP5 ADD MSTORE PUSH1 0x40 SWAP1 SWAP3 ADD MSTORE SWAP3 SWAP2 POP POP JUMP JUMPDEST PUSH1 0x0 PUSH2 0x152D DUP5 PUSH2 0x1AEE JUMP JUMPDEST SWAP1 POP PUSH2 0x153A DUP2 DUP5 DUP5 PUSH2 0x29E7 JUMP JUMPDEST PUSH2 0x75E JUMPI PUSH1 0x40 MLOAD PUSH4 0x79CACFF1 PUSH1 0xE0 SHL DUP2 MSTORE PUSH1 0x4 ADD PUSH1 0x40 MLOAD DUP1 SWAP2 SUB SWAP1 REVERT JUMPDEST PUSH1 0x6 SLOAD ISZERO DUP1 ISZERO PUSH2 0x1591 JUMPI PUSH1 0x0 SLOAD PUSH1 0x1 PUSH1 0x1 PUSH1 0xA0 SHL SUB AND CALLER EQ PUSH2 0x158C JUMPI PUSH1 0x40 MLOAD PUSH4 0x564B3529 PUSH1 0xE1 SHL DUP2 MSTORE PUSH1 0x4 ADD PUSH1 0x40 MLOAD DUP1 SWAP2 SUB SWAP1 REVERT JUMPDEST PUSH1 0x0 SWAP6 POP JUMPDEST PUSH1 0x1 PUSH1 0x1 PUSH1 0xA0 SHL SUB DUP8 AND PUSH1 0x0 SWAP1 DUP2 MSTORE PUSH1 0x9 PUSH1 0x20 MSTORE PUSH1 0x40 SWAP1 KECCAK256 SLOAD DUP8 SWAP1 DUP1 ISZERO DUP1 ISZERO SWAP1 PUSH2 0x15BC JUMPI POP PUSH1 0x6 SLOAD ISZERO ISZERO JUMPDEST ISZERO PUSH2 0x15EA JUMPI PUSH1 0x40 MLOAD PUSH4 0x15EF3A57 PUSH1 0xE0 SHL DUP2 MSTORE PUSH1 0x1 PUSH1 0x1 PUSH1 0xA0 SHL SUB DUP4 AND PUSH1 0x4 DUP3 ADD MSTORE PUSH1 0x24 ADD JUMPDEST PUSH1 0x40 MLOAD DUP1 SWAP2 SUB SWAP1 REVERT JUMPDEST PUSH1 0x6 SLOAD PUSH3 0xF4240 GT PUSH2 0x160F JUMPI PUSH1 0x40 MLOAD PUSH4 0x53BB24F9 PUSH1 0xE0 SHL DUP2 MSTORE PUSH1 0x4 ADD PUSH1 0x40 MLOAD DUP1 SWAP2 SUB SWAP1 REVERT JUMPDEST PUSH1 0x0 DUP1 DUP10 PUSH1 0x1 DUP2 GT ISZERO PUSH2 0x1624 JUMPI PUSH2 0x1624 PUSH2 0x3A3C JUMP JUMPDEST SUB PUSH2 0x1649 JUMPI DUP4 PUSH2 0x163E JUMPI PUSH2 0x1637 DUP6 PUSH2 0x2AAB JUMP JUMPDEST SWAP1 POP PUSH2 0x1649 JUMP JUMPDEST POP PUSH8 0xDE0B6B3A7640000 JUMPDEST PUSH2 0x1651 PUSH2 0x2AE2 JUMP JUMPDEST PUSH2 0x165F DUP4 DUP3 DUP12 DUP10 DUP13 DUP13 PUSH2 0x2D40 JUMP JUMPDEST POP POP POP POP POP POP POP POP POP POP JUMP JUMPDEST PUSH1 0x0 DUP1 PUSH2 0x1676 PUSH2 0x38CB JUMP JUMPDEST PUSH1 0x1 PUSH1 0x1 PUSH1 0xA0 SHL SUB DUP6 AND PUSH1 0x0 SWAP1 DUP2 MSTORE PUSH1 0xA PUSH1 0x20 MSTORE PUSH1 0x40 DUP2 KECCAK256 DUP1 SLOAD SWAP1 SWAP2 SWAP1 DUP2 JUMPDEST PUSH1 0x0 DUP3 GT DUP1 ISZERO PUSH2 0x16A3 JUMPI POP DUP3 ISZERO JUMPDEST ISZERO PUSH2 0x17A9 JUMPI PUSH2 0x16B3 PUSH1 0x1 DUP4 PUSH2 0x3D7E JUMP JUMPDEST SWAP1 POP PUSH1 0x0 DUP5 DUP3 DUP2 SLOAD DUP2 LT PUSH2 0x16C9 JUMPI PUSH2 0x16C9 PUSH2 0x3D26 JUMP JUMPDEST SWAP1 PUSH1 0x0 MSTORE PUSH1 0x20 PUSH1 0x0 KECCAK256 ADD SLOAD SWAP1 POP PUSH1 0x7 DUP2 DUP2 SLOAD DUP2 LT PUSH2 0x16E9 JUMPI PUSH2 0x16E9 PUSH2 0x3D26 JUMP JUMPDEST PUSH1 0x0 SWAP2 DUP3 MSTORE PUSH1 0x20 SWAP2 DUP3 SWAP1 KECCAK256 PUSH1 0x40 DUP1 MLOAD PUSH1 0xE0 DUP2 ADD DUP3 MSTORE PUSH1 0x6 SWAP4 SWAP1 SWAP4 MUL SWAP1 SWAP2 ADD DUP1 SLOAD PUSH1 0x1 PUSH1 0x1 PUSH1 0xA0 SHL SUB SWAP1 DUP2 AND DUP5 MSTORE PUSH1 0x1 DUP3 ADD SLOAD SWAP1 DUP2 AND SWAP5 DUP5 ADD SWAP5 SWAP1 SWAP5 MSTORE PUSH1 0x1 PUSH1 0xA0 SHL SWAP1 SWAP4 DIV PUSH1 0xFF AND ISZERO ISZERO SWAP1 DUP3 ADD MSTORE PUSH1 0x2 DUP3 ADD SLOAD PUSH1 0x60 DUP3 ADD MSTORE PUSH1 0x3 DUP3 ADD SLOAD PUSH1 0x80 DUP3 ADD MSTORE PUSH1 0x4 DUP3 ADD SLOAD PUSH1 0xA0 DUP3 ADD MSTORE PUSH1 0x5 SWAP1 SWAP2 ADD SLOAD PUSH1 0xC0 DUP3 ADD DUP2 SWAP1 MSTORE SWAP1 SWAP7 POP DUP10 SWAP1 SUB PUSH2 0x1777 JUMPI PUSH1 0x1 SWAP4 POP DUP1 SWAP7 POP PUSH2 0x1796 JUMP JUMPDEST DUP4 ISZERO DUP1 ISZERO PUSH2 0x1789 JUMPI POP DUP9 DUP7 PUSH1 0xC0 ADD MLOAD LT ISZERO JUMPDEST ISZERO PUSH2 0x1796 JUMPI PUSH1 0x1 SWAP4 POP DUP1 SWAP7 POP JUMPDEST POP DUP2 PUSH2 0x17A1 DUP2 PUSH2 0x3DAA JUMP JUMPDEST SWAP3 POP POP PUSH2 0x1695 JUMP JUMPDEST POP SWAP1 SWAP5 POP POP POP POP SWAP3 POP SWAP3 SWAP1 POP JUMP JUMPDEST PUSH1 0x0 PUSH2 0x17C2 DUP3 PUSH2 0x1AEE JUMP JUMPDEST SWAP1 POP PUSH1 0x7 DUP5 DUP2 SLOAD DUP2 LT PUSH2 0x17D7 JUMPI PUSH2 0x17D7 PUSH2 0x3D26 JUMP JUMPDEST PUSH1 0x0 SWAP2 DUP3 MSTORE PUSH1 0x20 SWAP1 SWAP2 KECCAK256 PUSH1 0x6 SWAP1 SWAP2 MUL ADD PUSH1 0x4 DUP2 ADD SLOAD PUSH1 0x5 DUP3 ADD SLOAD DUP3 SLOAD PUSH1 0x40 DUP6 ADD MLOAD SWAP4 SWAP10 POP SWAP2 SWAP3 SWAP1 SWAP2 DUP7 DUP4 EQ DUP1 ISZERO SWAP3 PUSH1 0x1 PUSH1 0x1 PUSH1 0xA0 SHL SUB SWAP1 SWAP3 AND SWAP2 PUSH1 0x1 SWAP2 DUP10 SWAP2 SWAP1 PUSH2 0x186E JUMPI DUP12 ISZERO PUSH2 0x1850 JUMPI PUSH1 0x0 PUSH2 0x182D DUP8 DUP4 PUSH2 0x318E JUMP JUMPDEST SWAP1 POP PUSH1 0x0 PUSH2 0x183B DUP13 DUP5 PUSH2 0x318E JUMP JUMPDEST SWAP1 POP PUSH2 0x1847 DUP2 DUP4 PUSH2 0x31BA JUMP JUMPDEST SWAP5 POP POP POP PUSH2 0x185D JUMP JUMPDEST PUSH2 0x185A DUP11 DUP8 PUSH2 0x31BA JUMP JUMPDEST SWAP3 POP JUMPDEST PUSH2 0x186B DUP14 PUSH1 0x4 ADD SLOAD DUP5 PUSH2 0x31C6 JUMP JUMPDEST SWAP7 POP JUMPDEST PUSH2 0x1926 DUP14 PUSH1 0x40 MLOAD DUP1 PUSH1 0xE0 ADD PUSH1 0x40 MSTORE SWAP1 DUP2 PUSH1 0x0 DUP3 ADD PUSH1 0x0 SWAP1 SLOAD SWAP1 PUSH2 0x100 EXP SWAP1 DIV PUSH1 0x1 PUSH1 0x1 PUSH1 0xA0 SHL SUB AND PUSH1 0x1 PUSH1 0x1 PUSH1 0xA0 SHL SUB AND PUSH1 0x1 PUSH1 0x1 PUSH1 0xA0 SHL SUB AND DUP2 MSTORE PUSH1 0x20 ADD PUSH1 0x1 DUP3 ADD PUSH1 0x0 SWAP1 SLOAD SWAP1 PUSH2 0x100 EXP SWAP1 DIV PUSH1 0x1 PUSH1 0x1 PUSH1 0xA0 SHL SUB AND PUSH1 0x1 PUSH1 0x1 PUSH1 0xA0 SHL SUB AND PUSH1 0x1 PUSH1 0x1 PUSH1 0xA0 SHL SUB AND DUP2 MSTORE PUSH1 0x20 ADD PUSH1 0x1 DUP3 ADD PUSH1 0x14 SWAP1 SLOAD SWAP1 PUSH2 0x100 EXP SWAP1 DIV PUSH1 0xFF AND ISZERO ISZERO ISZERO ISZERO DUP2 MSTORE PUSH1 0x20 ADD PUSH1 0x2 DUP3 ADD SLOAD DUP2 MSTORE PUSH1 0x20 ADD PUSH1 0x3 DUP3 ADD SLOAD DUP2 MSTORE PUSH1 0x20 ADD PUSH1 0x4 DUP3 ADD SLOAD DUP2 MSTORE PUSH1 0x20 ADD PUSH1 0x5 DUP3 ADD SLOAD DUP2 MSTORE POP POP DUP10 DUP5 DUP11 PUSH2 0x31D2 JUMP JUMPDEST PUSH1 0x0 DUP13 PUSH2 0x1933 JUMPI DUP8 PUSH2 0x1935 JUMP JUMPDEST DUP3 JUMPDEST SWAP1 POP DUP6 ISZERO PUSH2 0x1977 JUMPI DUP11 DUP15 PUSH1 0x5 ADD PUSH1 0x0 DUP3 DUP3 SLOAD PUSH2 0x1951 SWAP2 SWAP1 PUSH2 0x3D7E JUMP JUMPDEST SWAP3 POP POP DUP2 SWAP1 SSTORE POP DUP8 DUP15 PUSH1 0x4 ADD PUSH1 0x0 DUP3 DUP3 SLOAD PUSH2 0x196C SWAP2 SWAP1 PUSH2 0x3D7E JUMP JUMPDEST SWAP1 SWAP2 SSTORE POP PUSH2 0x1982 SWAP1 POP JUMP JUMPDEST PUSH2 0x1982 PUSH1 0x7 DUP14 PUSH2 0x28A7 JUMP JUMPDEST PUSH2 0x198C DUP10 DUP3 PUSH2 0x3259 JUMP JUMPDEST PUSH1 0x40 DUP1 MLOAD DUP14 DUP2 MSTORE DUP15 ISZERO ISZERO PUSH1 0x20 DUP3 ADD MSTORE PUSH1 0x1 PUSH1 0x1 PUSH1 0xA0 SHL SUB DUP8 DUP2 AND DUP3 DUP5 ADD MSTORE CALLER PUSH1 0x60 DUP4 ADD MSTORE DUP13 AND PUSH1 0x80 DUP3 ADD MSTORE PUSH1 0xA0 DUP2 ADD DUP6 SWAP1 MSTORE DUP8 ISZERO ISZERO PUSH1 0xC0 DUP3 ADD MSTORE SWAP1 MLOAD PUSH32 0xD18715C1E0D5B06959A9B12A3C5D857CE3698A58F6AC5BC7726BD7DF86476F40 SWAP2 DUP2 SWAP1 SUB PUSH1 0xE0 ADD SWAP1 LOG1 POP POP POP POP POP POP POP POP POP POP POP POP POP POP JUMP JUMPDEST PUSH1 0x0 SLOAD PUSH1 0x1 PUSH1 0x1 PUSH1 0xA0 SHL SUB AND CALLER EQ PUSH2 0x1A2F JUMPI PUSH1 0x40 MLOAD PUSH4 0x32B2BAA3 PUSH1 0xE0 SHL DUP2 MSTORE CALLER PUSH1 0x4 DUP3 ADD MSTORE PUSH1 0x24 ADD PUSH2 0x15E1 JUMP JUMPDEST JUMP JUMPDEST PUSH1 0xD SLOAD ISZERO DUP1 ISZERO SWAP1 PUSH2 0x1A4F JUMPI POP PUSH1 0xF0 PUSH1 0xD SLOAD TIMESTAMP PUSH2 0x1A4D SWAP2 SWAP1 PUSH2 0x3D7E JUMP JUMPDEST LT JUMPDEST ISZERO PUSH2 0x1A56 JUMPI JUMP JUMPDEST PUSH1 0xE SLOAD PUSH1 0x40 DUP1 MLOAD PUSH4 0x4C6AFEE5 PUSH1 0xE1 SHL DUP2 MSTORE SWAP1 MLOAD PUSH1 0x0 SWAP3 PUSH1 0x1 PUSH1 0x1 PUSH1 0xA0 SHL SUB AND SWAP2 PUSH4 0x98D5FDCA SWAP2 PUSH1 0x4 DUP1 DUP4 ADD SWAP3 DUP7 SWAP3 SWAP2 SWAP1 DUP3 SWAP1 SUB ADD DUP2 DUP7 GAS STATICCALL ISZERO DUP1 ISZERO PUSH2 0x1A9F JUMPI RETURNDATASIZE PUSH1 0x0 DUP1 RETURNDATACOPY RETURNDATASIZE PUSH1 0x0 REVERT JUMPDEST POP POP POP POP PUSH1 0x40 MLOAD RETURNDATASIZE PUSH1 0x0 DUP3 RETURNDATACOPY PUSH1 0x1F RETURNDATASIZE SWAP1 DUP2 ADD PUSH1 0x1F NOT AND DUP3 ADD PUSH1 0x40 MSTORE PUSH2 0x1AC7 SWAP2 SWAP1 DUP2 ADD SWAP1 PUSH2 0x3DFB JUMP JUMPDEST SWAP1 POP PUSH1 0x0 DUP1 PUSH2 0x1AD5 DUP4 PUSH2 0x32EA JUMP JUMPDEST SWAP2 POP SWAP2 POP DUP1 ISZERO PUSH2 0x1AE5 JUMPI PUSH1 0xC DUP3 SWAP1 SSTORE JUMPDEST POP POP TIMESTAMP PUSH1 0xD SSTORE POP JUMP JUMPDEST PUSH2 0x1B54 PUSH1 0x40 DUP1 MLOAD PUSH2 0x160 DUP2 ADD DUP3 MSTORE PUSH1 0x60 DUP1 DUP3 MSTORE PUSH1 0x20 DUP3 ADD DUP2 SWAP1 MSTORE PUSH1 0x0 SWAP3 DUP3 ADD DUP4 SWAP1 MSTORE DUP2 ADD DUP3 SWAP1 MSTORE PUSH1 0x80 DUP2 ADD DUP3 SWAP1 MSTORE SWAP1 PUSH1 0xA0 DUP3 ADD SWAP1 DUP2 MSTORE PUSH1 0x20 ADD PUSH1 0x0 DUP2 MSTORE PUSH1 0x20 ADD PUSH1 0x0 DUP2 MSTORE PUSH1 0x20 ADD PUSH1 0x0 DUP2 MSTORE PUSH1 0x20 ADD PUSH1 0x0 DUP2 MSTORE PUSH1 0x20 ADD PUSH1 0x0 PUSH1 0x1 PUSH1 0x1 PUSH1 0xA0 SHL SUB AND DUP2 MSTORE POP SWAP1 JUMP JUMPDEST PUSH1 0x1 PUSH1 0x1 PUSH1 0xA0 SHL SUB DUP3 AND PUSH1 0x0 SWAP1 DUP2 MSTORE PUSH1 0x9 PUSH1 0x20 MSTORE PUSH1 0x40 SWAP1 KECCAK256 SLOAD DUP1 ISZERO DUP1 PUSH2 0x1B7B JUMPI POP PUSH1 0x6 SLOAD DUP2 GT JUMPDEST ISZERO PUSH2 0x1B99 JUMPI PUSH1 0x40 MLOAD PUSH4 0x62F850F7 PUSH1 0xE1 SHL DUP2 MSTORE PUSH1 0x4 ADD PUSH1 0x40 MLOAD DUP1 SWAP2 SUB SWAP1 REVERT JUMPDEST PUSH1 0x6 PUSH2 0x1BA6 PUSH1 0x1 DUP4 PUSH2 0x3D7E JUMP JUMPDEST DUP2 SLOAD DUP2 LT PUSH2 0x1BB6 JUMPI PUSH2 0x1BB6 PUSH2 0x3D26 JUMP JUMPDEST SWAP1 PUSH1 0x0 MSTORE PUSH1 0x20 PUSH1 0x0 KECCAK256 SWAP1 PUSH1 0x9 MUL ADD PUSH1 0x40 MLOAD DUP1 PUSH2 0x160 ADD PUSH1 0x40 MSTORE SWAP1 DUP2 PUSH1 0x0 DUP3 ADD DUP1 SLOAD PUSH2 0x1BE0 SWAP1 PUSH2 0x3DC1 JUMP JUMPDEST DUP1 PUSH1 0x1F ADD PUSH1 0x20 DUP1 SWAP2 DIV MUL PUSH1 0x20 ADD PUSH1 0x40 MLOAD SWAP1 DUP2 ADD PUSH1 0x40 MSTORE DUP1 SWAP3 SWAP2 SWAP1 DUP2 DUP2 MSTORE PUSH1 0x20 ADD DUP3 DUP1 SLOAD PUSH2 0x1C0C SWAP1 PUSH2 0x3DC1 JUMP JUMPDEST DUP1 ISZERO PUSH2 0x1C59 JUMPI DUP1 PUSH1 0x1F LT PUSH2 0x1C2E JUMPI PUSH2 0x100 DUP1 DUP4 SLOAD DIV MUL DUP4 MSTORE SWAP2 PUSH1 0x20 ADD SWAP2 PUSH2 0x1C59 JUMP JUMPDEST DUP3 ADD SWAP2 SWAP1 PUSH1 0x0 MSTORE PUSH1 0x20 PUSH1 0x0 KECCAK256 SWAP1 JUMPDEST DUP2 SLOAD DUP2 MSTORE SWAP1 PUSH1 0x1 ADD SWAP1 PUSH1 0x20 ADD DUP1 DUP4 GT PUSH2 0x1C3C JUMPI DUP3 SWAP1 SUB PUSH1 0x1F AND DUP3 ADD SWAP2 JUMPDEST POP POP POP POP POP DUP2 MSTORE PUSH1 0x20 ADD PUSH1 0x1 DUP3 ADD DUP1 SLOAD PUSH2 0x1C72 SWAP1 PUSH2 0x3DC1 JUMP JUMPDEST DUP1 PUSH1 0x1F ADD PUSH1 0x20 DUP1 SWAP2 DIV MUL PUSH1 0x20 ADD PUSH1 0x40 MLOAD SWAP1 DUP2 ADD PUSH1 0x40 MSTORE DUP1 SWAP3 SWAP2 SWAP1 DUP2 DUP2 MSTORE PUSH1 0x20 ADD DUP3 DUP1 SLOAD PUSH2 0x1C9E SWAP1 PUSH2 0x3DC1 JUMP JUMPDEST DUP1 ISZERO PUSH2 0x1CEB JUMPI DUP1 PUSH1 0x1F LT PUSH2 0x1CC0 JUMPI PUSH2 0x100 DUP1 DUP4 SLOAD DIV MUL DUP4 MSTORE SWAP2 PUSH1 0x20 ADD SWAP2 PUSH2 0x1CEB JUMP JUMPDEST DUP3 ADD SWAP2 SWAP1 PUSH1 0x0 MSTORE PUSH1 0x20 PUSH1 0x0 KECCAK256 SWAP1 JUMPDEST DUP2 SLOAD DUP2 MSTORE SWAP1 PUSH1 0x1 ADD SWAP1 PUSH1 0x20 ADD DUP1 DUP4 GT PUSH2 0x1CCE JUMPI DUP3 SWAP1 SUB PUSH1 0x1F AND DUP3 ADD SWAP2 JUMPDEST POP POP POP SWAP2 DUP4 MSTORE POP POP PUSH1 0x2 DUP3 ADD SLOAD PUSH1 0xFF DUP1 DUP3 AND PUSH1 0x20 DUP5 ADD MSTORE PUSH1 0x1 PUSH1 0x1 PUSH1 0xA0 SHL SUB PUSH2 0x100 SWAP1 SWAP3 DIV DUP3 AND PUSH1 0x40 DUP5 ADD MSTORE PUSH1 0x3 DUP5 ADD SLOAD SWAP2 DUP3 AND PUSH1 0x60 DUP5 ADD MSTORE PUSH1 0x80 SWAP1 SWAP3 ADD SWAP2 PUSH1 0x1 PUSH1 0xA0 SHL SWAP1 SWAP2 DIV AND PUSH1 0x1 DUP2 GT ISZERO PUSH2 0x1D44 JUMPI PUSH2 0x1D44 PUSH2 0x3A3C JUMP JUMPDEST PUSH1 0x1 DUP2 GT ISZERO PUSH2 0x1D55 JUMPI PUSH2 0x1D55 PUSH2 0x3A3C JUMP JUMPDEST DUP2 MSTORE PUSH1 0x4 DUP3 ADD SLOAD PUSH1 0x20 DUP3 ADD MSTORE PUSH1 0x5 DUP3 ADD SLOAD PUSH1 0x40 DUP3 ADD MSTORE PUSH1 0x6 DUP3 ADD SLOAD PUSH1 0x60 DUP3 ADD MSTORE PUSH1 0x7 DUP3 ADD SLOAD PUSH1 0x80 DUP3 ADD MSTORE PUSH1 0x8 SWAP1 SWAP2 ADD SLOAD PUSH1 0x1 PUSH1 0x1 PUSH1 0xA0 SHL SUB AND PUSH1 0xA0 SWAP1 SWAP2 ADD MSTORE SWAP4 SWAP3 POP POP POP JUMP JUMPDEST PUSH1 0x0 DUP1 PUSH2 0x1DAB DUP5 PUSH1 0x20 ADD MLOAD PUSH2 0x1AEE JUMP JUMPDEST SWAP1 POP DUP4 PUSH1 0x40 ADD MLOAD ISZERO PUSH2 0x1DDD JUMPI PUSH2 0x1DCA DUP2 DUP6 PUSH1 0x0 ADD MLOAD DUP7 PUSH1 0xA0 ADD MLOAD PUSH2 0x341C JUMP JUMPDEST PUSH2 0x1DD8 JUMPI PUSH1 0x0 SWAP2 POP POP PUSH2 0x654 JUMP JUMPDEST PUSH2 0x1DFE JUMP JUMPDEST PUSH2 0x1DF0 DUP2 DUP6 PUSH1 0x0 ADD MLOAD DUP7 PUSH1 0xA0 ADD MLOAD PUSH2 0x34CE JUMP JUMPDEST PUSH2 0x1DFE JUMPI PUSH1 0x0 SWAP2 POP POP PUSH2 0x654 JUMP JUMPDEST PUSH1 0x40 DUP5 DUP2 ADD MLOAD DUP6 MLOAD DUP3 MLOAD DUP7 DUP2 MSTORE SWAP2 ISZERO ISZERO PUSH1 0x20 DUP4 ADD MSTORE PUSH1 0x1 PUSH1 0x1 PUSH1 0xA0 SHL SUB AND DUP2 DUP4 ADD MSTORE SWAP1 MLOAD PUSH32 0x3D8DA260C5E35DCBA4A38C844B979A7C70C6FDBED58BE53DA6E817EF6A2541E0 SWAP2 DUP2 SWAP1 SUB PUSH1 0x60 ADD SWAP1 LOG1 PUSH2 0x1E57 PUSH1 0x7 DUP5 PUSH2 0x28A7 JUMP JUMPDEST POP PUSH1 0x1 SWAP4 SWAP3 POP POP POP JUMP JUMPDEST DUP2 SLOAD PUSH1 0x0 SWAP1 PUSH2 0x1E72 SWAP1 PUSH1 0x1 SWAP1 PUSH2 0x3D7E JUMP JUMPDEST SWAP1 POP DUP1 DUP3 EQ PUSH2 0x1EB7 JUMPI DUP3 DUP2 DUP2 SLOAD DUP2 LT PUSH2 0x1E8D JUMPI PUSH2 0x1E8D PUSH2 0x3D26 JUMP JUMPDEST SWAP1 PUSH1 0x0 MSTORE PUSH1 0x20 PUSH1 0x0 KECCAK256 ADD SLOAD DUP4 DUP4 DUP2 SLOAD DUP2 LT PUSH2 0x1EAA JUMPI PUSH2 0x1EAA PUSH2 0x3D26 JUMP JUMPDEST PUSH1 0x0 SWAP2 DUP3 MSTORE PUSH1 0x20 SWAP1 SWAP2 KECCAK256 ADD SSTORE JUMPDEST DUP3 DUP1 SLOAD DUP1 PUSH2 0x1EC7 JUMPI PUSH2 0x1EC7 PUSH2 0x3E72 JUMP JUMPDEST PUSH1 0x1 SWAP1 SUB DUP2 DUP2 SWAP1 PUSH1 0x0 MSTORE PUSH1 0x20 PUSH1 0x0 KECCAK256 ADD PUSH1 0x0 SWAP1 SSTORE SWAP1 SSTORE POP POP POP JUMP JUMPDEST PUSH1 0x1 PUSH1 0x1 PUSH1 0xA0 SHL SUB DUP2 AND PUSH1 0x0 SWAP1 DUP2 MSTORE PUSH1 0x9 PUSH1 0x20 MSTORE PUSH1 0x40 DUP2 KECCAK256 SLOAD DUP1 ISZERO DUP1 PUSH2 0x1F09 JUMPI POP PUSH1 0x6 SLOAD DUP2 GT JUMPDEST ISZERO PUSH2 0x1F27 JUMPI PUSH1 0x40 MLOAD PUSH4 0x62F850F7 PUSH1 0xE1 SHL DUP2 MSTORE PUSH1 0x4 ADD PUSH1 0x40 MLOAD DUP1 SWAP2 SUB SWAP1 REVERT JUMPDEST PUSH1 0x6 PUSH2 0x1F34 PUSH1 0x1 DUP4 PUSH2 0x3D7E JUMP JUMPDEST DUP2 SLOAD DUP2 LT PUSH2 0x1F44 JUMPI PUSH2 0x1F44 PUSH2 0x3D26 JUMP JUMPDEST SWAP1 PUSH1 0x0 MSTORE PUSH1 0x20 PUSH1 0x0 KECCAK256 SWAP1 PUSH1 0x9 MUL ADD SWAP2 POP POP SWAP2 SWAP1 POP JUMP JUMPDEST PUSH1 0x0 DUP1 PUSH2 0x1F68 DUP6 DUP6 DUP6 PUSH2 0x29E7 JUMP JUMPDEST SWAP1 POP DUP1 ISZERO PUSH2 0x1FA2 JUMPI PUSH1 0x60 DUP6 ADD MLOAD PUSH1 0x1 PUSH1 0x1 PUSH1 0xA0 SHL SUB AND PUSH1 0x0 SWAP1 DUP2 MSTORE PUSH1 0x3 PUSH1 0x20 MSTORE PUSH1 0x40 DUP2 KECCAK256 DUP1 SLOAD DUP6 SWAP3 SWAP1 PUSH2 0x1F9C SWAP1 DUP5 SWAP1 PUSH2 0x3D52 JUMP JUMPDEST SWAP1 SWAP2 SSTORE POP POP JUMPDEST SWAP5 SWAP4 POP POP POP POP JUMP JUMPDEST PUSH1 0x0 DUP1 PUSH1 0x3 DUP6 ADD SLOAD PUSH1 0x1 PUSH1 0xA0 SHL SWAP1 DIV PUSH1 0xFF AND PUSH1 0x1 DUP2 GT ISZERO PUSH2 0x1FCD JUMPI PUSH2 0x1FCD PUSH2 0x3A3C JUMP JUMPDEST SUB PUSH2 0x1FF1 JUMPI PUSH2 0x1FDA PUSH2 0x1A31 JUMP JUMPDEST PUSH2 0x1FEA PUSH1 0xC SLOAD DUP6 PUSH1 0x6 ADD SLOAD PUSH2 0x31BA JUMP JUMPDEST SWAP1 POP PUSH2 0x238A JUMP JUMPDEST PUSH1 0x1 PUSH1 0x3 DUP6 ADD SLOAD PUSH1 0x1 PUSH1 0xA0 SHL SWAP1 DIV PUSH1 0xFF AND PUSH1 0x1 DUP2 GT ISZERO PUSH2 0x2013 JUMPI PUSH2 0x2013 PUSH2 0x3A3C JUMP JUMPDEST SUB PUSH2 0x238A JUMPI PUSH1 0x0 DUP5 PUSH1 0x7 ADD SLOAD PUSH1 0x0 EQ DUP1 PUSH2 0x203D JUMPI POP PUSH1 0xF0 DUP6 PUSH1 0x7 ADD SLOAD TIMESTAMP PUSH2 0x203A SWAP2 SWAP1 PUSH2 0x3D7E JUMP JUMPDEST LT ISZERO JUMPDEST SWAP1 POP DUP1 ISZERO PUSH2 0x2380 JUMPI PUSH1 0x0 PUSH1 0x6 PUSH1 0x0 DUP2 SLOAD DUP2 LT PUSH2 0x205B JUMPI PUSH2 0x205B PUSH2 0x3D26 JUMP JUMPDEST SWAP1 PUSH1 0x0 MSTORE PUSH1 0x20 PUSH1 0x0 KECCAK256 SWAP1 PUSH1 0x9 MUL ADD PUSH1 0x40 MLOAD DUP1 PUSH2 0x160 ADD PUSH1 0x40 MSTORE SWAP1 DUP2 PUSH1 0x0 DUP3 ADD DUP1 SLOAD PUSH2 0x2085 SWAP1 PUSH2 0x3DC1 JUMP JUMPDEST DUP1 PUSH1 0x1F ADD PUSH1 0x20 DUP1 SWAP2 DIV MUL PUSH1 0x20 ADD PUSH1 0x40 MLOAD SWAP1 DUP2 ADD PUSH1 0x40 MSTORE DUP1 SWAP3 SWAP2 SWAP1 DUP2 DUP2 MSTORE PUSH1 0x20 ADD DUP3 DUP1 SLOAD PUSH2 0x20B1 SWAP1 PUSH2 0x3DC1 JUMP JUMPDEST DUP1 ISZERO PUSH2 0x20FE JUMPI DUP1 PUSH1 0x1F LT PUSH2 0x20D3 JUMPI PUSH2 0x100 DUP1 DUP4 SLOAD DIV MUL DUP4 MSTORE SWAP2 PUSH1 0x20 ADD SWAP2 PUSH2 0x20FE JUMP JUMPDEST DUP3 ADD SWAP2 SWAP1 PUSH1 0x0 MSTORE PUSH1 0x20 PUSH1 0x0 KECCAK256 SWAP1 JUMPDEST DUP2 SLOAD DUP2 MSTORE SWAP1 PUSH1 0x1 ADD SWAP1 PUSH1 0x20 ADD DUP1 DUP4 GT PUSH2 0x20E1 JUMPI DUP3 SWAP1 SUB PUSH1 0x1F AND DUP3 ADD SWAP2 JUMPDEST POP POP POP POP POP DUP2 MSTORE PUSH1 0x20 ADD PUSH1 0x1 DUP3 ADD DUP1 SLOAD PUSH2 0x2117 SWAP1 PUSH2 0x3DC1 JUMP JUMPDEST DUP1 PUSH1 0x1F ADD PUSH1 0x20 DUP1 SWAP2 DIV MUL PUSH1 0x20 ADD PUSH1 0x40 MLOAD SWAP1 DUP2 ADD PUSH1 0x40 MSTORE DUP1 SWAP3 SWAP2 SWAP1 DUP2 DUP2 MSTORE PUSH1 0x20 ADD DUP3 DUP1 SLOAD PUSH2 0x2143 SWAP1 PUSH2 0x3DC1 JUMP JUMPDEST DUP1 ISZERO PUSH2 0x2190 JUMPI DUP1 PUSH1 0x1F LT PUSH2 0x2165 JUMPI PUSH2 0x100 DUP1 DUP4 SLOAD DIV MUL DUP4 MSTORE SWAP2 PUSH1 0x20 ADD SWAP2 PUSH2 0x2190 JUMP JUMPDEST DUP3 ADD SWAP2 SWAP1 PUSH1 0x0 MSTORE PUSH1 0x20 PUSH1 0x0 KECCAK256 SWAP1 JUMPDEST DUP2 SLOAD DUP2 MSTORE SWAP1 PUSH1 0x1 ADD SWAP1 PUSH1 0x20 ADD DUP1 DUP4 GT PUSH2 0x2173 JUMPI DUP3 SWAP1 SUB PUSH1 0x1F AND DUP3 ADD SWAP2 JUMPDEST POP POP POP SWAP2 DUP4 MSTORE POP POP PUSH1 0x2 DUP3 ADD SLOAD PUSH1 0xFF DUP1 DUP3 AND PUSH1 0x20 DUP5 ADD MSTORE PUSH1 0x1 PUSH1 0x1 PUSH1 0xA0 SHL SUB PUSH2 0x100 SWAP1 SWAP3 DIV DUP3 AND PUSH1 0x40 DUP5 ADD MSTORE PUSH1 0x3 DUP5 ADD SLOAD SWAP2 DUP3 AND PUSH1 0x60 DUP5 ADD MSTORE PUSH1 0x80 SWAP1 SWAP3 ADD SWAP2 PUSH1 0x1 PUSH1 0xA0 SHL SWAP1 SWAP2 DIV AND PUSH1 0x1 DUP2 GT ISZERO PUSH2 0x21E9 JUMPI PUSH2 0x21E9 PUSH2 0x3A3C JUMP JUMPDEST PUSH1 0x1 DUP2 GT ISZERO PUSH2 0x21FA JUMPI PUSH2 0x21FA PUSH2 0x3A3C JUMP JUMPDEST DUP2 MSTORE PUSH1 0x4 DUP3 DUP2 ADD SLOAD PUSH1 0x20 DUP4 ADD MSTORE PUSH1 0x5 DUP4 ADD SLOAD PUSH1 0x40 DUP1 DUP5 ADD SWAP2 SWAP1 SWAP2 MSTORE PUSH1 0x6 DUP5 ADD SLOAD PUSH1 0x60 DUP5 ADD MSTORE PUSH1 0x7 DUP5 ADD SLOAD PUSH1 0x80 DUP5 ADD MSTORE PUSH1 0x8 SWAP4 DUP5 ADD SLOAD PUSH1 0x1 PUSH1 0x1 PUSH1 0xA0 SHL SUB SWAP1 DUP2 AND PUSH1 0xA0 SWAP1 SWAP5 ADD SWAP4 SWAP1 SWAP4 MSTORE SWAP3 DUP11 ADD SLOAD PUSH2 0x140 DUP6 ADD MLOAD PUSH1 0x3 DUP13 ADD SLOAD SWAP5 MLOAD PUSH4 0x70A08231 PUSH1 0xE0 SHL DUP2 MSTORE SWAP5 DUP5 AND SWAP3 DUP6 ADD SWAP3 SWAP1 SWAP3 MSTORE SWAP4 SWAP5 POP SWAP3 AND SWAP2 SWAP1 PUSH1 0x0 SWAP1 DUP4 SWAP1 PUSH4 0x70A08231 SWAP1 PUSH1 0x24 ADD PUSH1 0x20 PUSH1 0x40 MLOAD DUP1 DUP4 SUB DUP2 DUP7 GAS STATICCALL ISZERO DUP1 ISZERO PUSH2 0x229A JUMPI RETURNDATASIZE PUSH1 0x0 DUP1 RETURNDATACOPY RETURNDATASIZE PUSH1 0x0 REVERT JUMPDEST POP POP POP POP PUSH1 0x40 MLOAD RETURNDATASIZE PUSH1 0x1F NOT PUSH1 0x1F DUP3 ADD AND DUP3 ADD DUP1 PUSH1 0x40 MSTORE POP DUP2 ADD SWAP1 PUSH2 0x22BE SWAP2 SWAP1 PUSH2 0x3D65 JUMP JUMPDEST PUSH1 0x3 DUP11 ADD SLOAD PUSH1 0x40 MLOAD PUSH4 0x70A08231 PUSH1 0xE0 SHL DUP2 MSTORE PUSH1 0x1 PUSH1 0x1 PUSH1 0xA0 SHL SUB SWAP2 DUP3 AND PUSH1 0x4 DUP3 ADD MSTORE SWAP2 SWAP3 POP PUSH1 0x0 SWAP2 SWAP1 DUP5 AND SWAP1 PUSH4 0x70A08231 SWAP1 PUSH1 0x24 ADD PUSH1 0x20 PUSH1 0x40 MLOAD DUP1 DUP4 SUB DUP2 DUP7 GAS STATICCALL ISZERO DUP1 ISZERO PUSH2 0x2310 JUMPI RETURNDATASIZE PUSH1 0x0 DUP1 RETURNDATACOPY RETURNDATASIZE PUSH1 0x0 REVERT JUMPDEST POP POP POP POP PUSH1 0x40 MLOAD RETURNDATASIZE PUSH1 0x1F NOT PUSH1 0x1F DUP3 ADD AND DUP3 ADD DUP1 PUSH1 0x40 MSTORE POP DUP2 ADD SWAP1 PUSH2 0x2334 SWAP2 SWAP1 PUSH2 0x3D65 JUMP JUMPDEST PUSH1 0x2 DUP12 ADD SLOAD SWAP1 SWAP2 POP PUSH2 0x234A SWAP1 DUP4 SWAP1 PUSH1 0xFF AND PUSH2 0x318E JUMP JUMPDEST SWAP2 POP PUSH2 0x235A DUP2 DUP7 PUSH1 0x40 ADD MLOAD PUSH2 0x318E JUMP JUMPDEST SWAP1 POP PUSH2 0x2366 DUP2 DUP4 PUSH2 0x31BA JUMP JUMPDEST PUSH1 0x6 DUP12 ADD DUP2 SWAP1 SSTORE TIMESTAMP PUSH1 0x7 DUP13 ADD SSTORE SWAP7 POP PUSH2 0x2388 SWAP5 POP POP POP POP POP JUMP JUMPDEST DUP5 PUSH1 0x6 ADD SLOAD SWAP2 POP JUMPDEST POP JUMPDEST PUSH1 0x0 DUP4 ISZERO PUSH2 0x23B3 JUMPI PUSH2 0x23AC PUSH2 0x239F DUP5 DUP5 PUSH2 0x31C6 JUMP JUMPDEST PUSH1 0x2 DUP8 ADD SLOAD PUSH1 0xFF AND PUSH2 0x360B JUMP JUMPDEST SWAP1 POP PUSH2 0x23D3 JUMP JUMPDEST PUSH1 0x2 DUP6 ADD SLOAD PUSH2 0x23D0 SWAP1 PUSH2 0x23CA SWAP1 DUP6 SWAP1 PUSH1 0xFF AND PUSH2 0x318E JUMP JUMPDEST DUP4 PUSH2 0x31BA JUMP JUMPDEST SWAP1 POP JUMPDEST PUSH1 0x40 DUP1 MLOAD PUSH1 0xE0 DUP2 ADD DUP3 MSTORE CALLER DUP2 MSTORE PUSH1 0x2 DUP8 ADD SLOAD PUSH2 0x100 SWAP1 DIV PUSH1 0x1 PUSH1 0x1 PUSH1 0xA0 SHL SUB SWAP1 DUP2 AND PUSH1 0x20 DUP4 ADD SWAP1 DUP2 MSTORE DUP8 ISZERO ISZERO SWAP4 DUP4 ADD SWAP4 DUP5 MSTORE TIMESTAMP PUSH1 0x60 DUP5 ADD SWAP1 DUP2 MSTORE PUSH1 0x80 DUP5 ADD DUP8 DUP2 MSTORE PUSH1 0xA0 DUP6 ADD DUP10 DUP2 MSTORE PUSH1 0xC0 DUP7 ADD DUP9 DUP2 MSTORE PUSH1 0x7 DUP1 SLOAD PUSH1 0x1 DUP2 DUP2 ADD DUP4 SSTORE PUSH1 0x0 DUP4 DUP2 MSTORE DUP11 MLOAD PUSH1 0x6 SWAP1 SWAP4 MUL PUSH32 0xA66CC928B5EDB82AF9BD49922954155AB7B0942694BEA4CE44661D9A8736C688 DUP2 ADD DUP1 SLOAD SWAP5 DUP13 AND PUSH1 0x1 PUSH1 0x1 PUSH1 0xA0 SHL SUB NOT SWAP1 SWAP6 AND SWAP5 SWAP1 SWAP5 OR SWAP1 SWAP4 SSTORE SWAP8 MLOAD PUSH32 0xA66CC928B5EDB82AF9BD49922954155AB7B0942694BEA4CE44661D9A8736C689 DUP4 ADD DUP1 SLOAD SWAP13 MLOAD ISZERO ISZERO PUSH1 0x1 PUSH1 0xA0 SHL MUL PUSH1 0x1 PUSH1 0x1 PUSH1 0xA8 SHL SUB NOT SWAP1 SWAP14 AND SWAP2 SWAP1 SWAP11 AND OR SWAP11 SWAP1 SWAP11 OR SWAP1 SWAP8 SSTORE SWAP4 MLOAD PUSH32 0xA66CC928B5EDB82AF9BD49922954155AB7B0942694BEA4CE44661D9A8736C68A DUP8 ADD SSTORE SWAP2 MLOAD PUSH32 0xA66CC928B5EDB82AF9BD49922954155AB7B0942694BEA4CE44661D9A8736C68B DUP7 ADD SSTORE MLOAD PUSH32 0xA66CC928B5EDB82AF9BD49922954155AB7B0942694BEA4CE44661D9A8736C68C DUP6 ADD SSTORE MLOAD PUSH32 0xA66CC928B5EDB82AF9BD49922954155AB7B0942694BEA4CE44661D9A8736C68D SWAP1 SWAP4 ADD SWAP3 SWAP1 SWAP3 SSTORE SWAP1 SLOAD SWAP2 SWAP3 SWAP1 SWAP2 PUSH2 0x2567 SWAP2 SWAP1 PUSH2 0x3D7E JUMP JUMPDEST CALLER PUSH1 0x0 SWAP1 DUP2 MSTORE PUSH1 0xB PUSH1 0x20 SWAP1 DUP2 MSTORE PUSH1 0x40 DUP1 DUP4 KECCAK256 DUP1 SLOAD PUSH1 0x1 DUP1 DUP3 ADD DUP4 SSTORE SWAP2 DUP6 MSTORE DUP4 DUP6 KECCAK256 ADD DUP6 SWAP1 SSTORE PUSH1 0x2 DUP13 ADD DUP1 SLOAD PUSH2 0x100 SWAP1 DUP2 SWAP1 DIV PUSH1 0x1 PUSH1 0x1 PUSH1 0xA0 SHL SUB SWAP1 DUP2 AND DUP8 MSTORE PUSH1 0xA DUP7 MSTORE DUP5 DUP8 KECCAK256 DUP1 SLOAD SWAP5 DUP6 ADD DUP2 SSTORE DUP8 MSTORE SWAP6 DUP6 SWAP1 KECCAK256 SWAP1 SWAP3 ADD DUP7 SWAP1 SSTORE SLOAD DUP3 MLOAD DUP7 DUP2 MSTORE DUP13 ISZERO ISZERO SWAP5 DUP2 ADD SWAP5 SWAP1 SWAP5 MSTORE DIV SWAP1 SWAP3 AND DUP2 DUP4 ADD MSTORE PUSH1 0x60 DUP2 ADD DUP9 SWAP1 MSTORE PUSH1 0x80 DUP2 ADD DUP8 SWAP1 MSTORE SWAP1 MLOAD SWAP2 SWAP3 POP PUSH32 0x96D694E92C01C8197B4CF2ECB0EC03BE940CC6E384CBDFB2AFB329375A0BE252 SWAP2 SWAP1 DUP2 SWAP1 SUB PUSH1 0xA0 ADD SWAP1 LOG1 POP POP POP POP POP POP POP JUMP JUMPDEST PUSH1 0x0 DUP1 PUSH1 0x0 DUP1 DUP7 PUSH1 0x5 ADD SLOAD DUP6 LT SWAP1 POP DUP1 ISZERO PUSH2 0x263C JUMPI DUP5 SWAP2 POP PUSH2 0x2644 JUMP JUMPDEST DUP7 PUSH1 0x5 ADD SLOAD SWAP2 POP JUMPDEST PUSH1 0x60 DUP9 ADD MLOAD PUSH1 0x1 PUSH1 0x1 PUSH1 0xA0 SHL SUB AND PUSH1 0x0 SWAP1 DUP2 MSTORE PUSH1 0x3 PUSH1 0x20 MSTORE PUSH1 0x40 SWAP1 KECCAK256 SLOAD DUP3 GT PUSH2 0x2685 JUMPI DUP7 SLOAD PUSH2 0x267E SWAP1 DUP10 SWAP1 PUSH1 0x1 PUSH1 0x1 PUSH1 0xA0 SHL SUB AND DUP5 PUSH2 0x34CE JUMP JUMPDEST SWAP3 POP PUSH2 0x269F JUMP JUMPDEST DUP7 SLOAD PUSH2 0x269C SWAP1 DUP10 SWAP1 PUSH1 0x1 PUSH1 0x1 PUSH1 0xA0 SHL SUB AND DUP5 PUSH2 0x362B JUMP JUMPDEST SWAP3 POP JUMPDEST DUP3 PUSH2 0x26B0 JUMPI PUSH1 0x0 SWAP4 POP POP POP POP PUSH2 0x1FA2 JUMP JUMPDEST DUP1 ISZERO PUSH2 0x2725 JUMPI PUSH1 0x0 PUSH2 0x26E0 PUSH2 0x26C9 DUP5 DUP12 PUSH1 0x40 ADD MLOAD PUSH2 0x318E JUMP JUMPDEST PUSH2 0x26DB DUP11 PUSH1 0x5 ADD SLOAD DUP13 PUSH1 0x40 ADD MLOAD PUSH2 0x318E JUMP JUMPDEST PUSH2 0x31BA JUMP JUMPDEST SWAP1 POP PUSH2 0x26F0 DUP9 PUSH1 0x4 ADD SLOAD DUP3 PUSH2 0x31C6 JUMP JUMPDEST DUP9 PUSH1 0x4 ADD PUSH1 0x0 DUP3 DUP3 SLOAD PUSH2 0x2703 SWAP2 SWAP1 PUSH2 0x3D7E JUMP JUMPDEST SWAP3 POP POP DUP2 SWAP1 SSTORE POP DUP3 DUP9 PUSH1 0x5 ADD PUSH1 0x0 DUP3 DUP3 SLOAD PUSH2 0x271E SWAP2 SWAP1 PUSH2 0x3D7E JUMP JUMPDEST SWAP1 SWAP2 SSTORE POP POP POP JUMPDEST PUSH1 0x1 DUP8 ADD SLOAD DUP8 SLOAD PUSH1 0x40 DUP1 MLOAD DUP10 DUP2 MSTORE PUSH1 0x1 PUSH1 0xA0 SHL SWAP1 SWAP4 DIV PUSH1 0xFF AND ISZERO ISZERO PUSH1 0x20 DUP5 ADD MSTORE PUSH1 0x1 PUSH1 0x1 PUSH1 0xA0 SHL SUB SWAP1 SWAP2 AND SWAP1 DUP3 ADD MSTORE DUP2 ISZERO ISZERO PUSH1 0x60 DUP3 ADD MSTORE PUSH32 0xBDB78CC9B5D01BDAC074DF120CC9776D231060CDCDCC8C7F6C2039F67A5E626F SWAP1 PUSH1 0x80 ADD PUSH1 0x40 MLOAD DUP1 SWAP2 SUB SWAP1 LOG1 ISZERO SWAP8 SWAP7 POP POP POP POP POP POP POP JUMP JUMPDEST PUSH1 0x5 DUP4 ADD SLOAD PUSH1 0x0 SWAP1 DUP2 SWAP1 DUP4 LT DUP1 ISZERO PUSH2 0x27AF JUMPI DUP4 SWAP2 POP PUSH2 0x27B7 JUMP JUMPDEST DUP6 PUSH1 0x5 ADD SLOAD SWAP2 POP JUMPDEST DUP6 SLOAD PUSH2 0x27CE SWAP1 DUP9 SWAP1 PUSH1 0x1 PUSH1 0x1 PUSH1 0xA0 SHL SUB AND DUP5 PUSH2 0x341C JUMP JUMPDEST PUSH2 0x27DD JUMPI PUSH1 0x0 SWAP3 POP POP POP PUSH2 0x1FA2 JUMP JUMPDEST DUP1 ISZERO PUSH2 0x2838 JUMPI PUSH1 0x0 PUSH2 0x27F3 DUP4 DUP9 PUSH1 0x5 ADD SLOAD PUSH2 0x31BA JUMP JUMPDEST SWAP1 POP PUSH2 0x2803 DUP8 PUSH1 0x4 ADD SLOAD DUP3 PUSH2 0x31C6 JUMP JUMPDEST DUP8 PUSH1 0x4 ADD PUSH1 0x0 DUP3 DUP3 SLOAD PUSH2 0x2816 SWAP2 SWAP1 PUSH2 0x3D7E JUMP JUMPDEST SWAP3 POP POP DUP2 SWAP1 SSTORE POP DUP3 DUP8 PUSH1 0x5 ADD PUSH1 0x0 DUP3 DUP3 SLOAD PUSH2 0x2831 SWAP2 SWAP1 PUSH2 0x3D7E JUMP JUMPDEST SWAP1 SWAP2 SSTORE POP POP POP JUMPDEST PUSH1 0x1 DUP7 ADD SLOAD DUP7 SLOAD PUSH1 0x40 DUP1 MLOAD DUP9 DUP2 MSTORE PUSH1 0x1 PUSH1 0xA0 SHL SWAP1 SWAP4 DIV PUSH1 0xFF AND ISZERO ISZERO PUSH1 0x20 DUP5 ADD MSTORE PUSH1 0x1 PUSH1 0x1 PUSH1 0xA0 SHL SUB SWAP1 SWAP2 AND SWAP1 DUP3 ADD MSTORE DUP2 ISZERO ISZERO PUSH1 0x60 DUP3 ADD MSTORE PUSH32 0xBDB78CC9B5D01BDAC074DF120CC9776D231060CDCDCC8C7F6C2039F67A5E626F SWAP1 PUSH1 0x80 ADD PUSH1 0x40 MLOAD DUP1 SWAP2 SUB SWAP1 LOG1 ISZERO SWAP7 SWAP6 POP POP POP POP POP POP JUMP JUMPDEST DUP2 SLOAD PUSH1 0x0 SWAP1 PUSH2 0x28B8 SWAP1 PUSH1 0x1 SWAP1 PUSH2 0x3D7E JUMP JUMPDEST SWAP1 POP DUP1 DUP3 EQ PUSH2 0x2982 JUMPI DUP3 DUP2 DUP2 SLOAD DUP2 LT PUSH2 0x28D3 JUMPI PUSH2 0x28D3 PUSH2 0x3D26 JUMP JUMPDEST SWAP1 PUSH1 0x0 MSTORE PUSH1 0x20 PUSH1 0x0 KECCAK256 SWAP1 PUSH1 0x6 MUL ADD DUP4 DUP4 DUP2 SLOAD DUP2 LT PUSH2 0x28F3 JUMPI PUSH2 0x28F3 PUSH2 0x3D26 JUMP JUMPDEST PUSH1 0x0 SWAP2 DUP3 MSTORE PUSH1 0x20 SWAP1 SWAP2 KECCAK256 DUP3 SLOAD PUSH1 0x6 SWAP1 SWAP3 MUL ADD DUP1 SLOAD PUSH1 0x1 PUSH1 0x1 PUSH1 0xA0 SHL SUB NOT SWAP1 DUP2 AND PUSH1 0x1 PUSH1 0x1 PUSH1 0xA0 SHL SUB SWAP4 DUP5 AND OR DUP3 SSTORE PUSH1 0x1 DUP1 DUP6 ADD DUP1 SLOAD SWAP2 DUP5 ADD DUP1 SLOAD SWAP4 DUP5 AND SWAP3 SWAP1 SWAP6 AND SWAP2 DUP3 OR DUP6 SSTORE SLOAD PUSH1 0xFF PUSH1 0x1 PUSH1 0xA0 SHL SWAP2 DUP3 SWAP1 DIV AND ISZERO ISZERO MUL PUSH1 0x1 PUSH1 0x1 PUSH1 0xA8 SHL SUB NOT SWAP1 SWAP3 AND OR OR SWAP1 SWAP2 SSTORE PUSH1 0x2 DUP1 DUP4 ADD SLOAD SWAP1 DUP3 ADD SSTORE PUSH1 0x3 DUP1 DUP4 ADD SLOAD SWAP1 DUP3 ADD SSTORE PUSH1 0x4 DUP1 DUP4 ADD SLOAD SWAP1 DUP3 ADD SSTORE PUSH1 0x5 SWAP2 DUP3 ADD SLOAD SWAP2 ADD SSTORE JUMPDEST DUP3 DUP1 SLOAD DUP1 PUSH2 0x2992 JUMPI PUSH2 0x2992 PUSH2 0x3E72 JUMP JUMPDEST PUSH1 0x0 DUP3 DUP2 MSTORE PUSH1 0x20 DUP2 KECCAK256 PUSH1 0x6 PUSH1 0x0 NOT SWAP1 SWAP4 ADD SWAP3 DUP4 MUL ADD DUP1 SLOAD PUSH1 0x1 PUSH1 0x1 PUSH1 0xA0 SHL SUB NOT AND DUP2 SSTORE PUSH1 0x1 DUP2 ADD DUP1 SLOAD PUSH1 0x1 PUSH1 0x1 PUSH1 0xA8 SHL SUB NOT AND SWAP1 SSTORE PUSH1 0x2 DUP2 ADD DUP3 SWAP1 SSTORE PUSH1 0x3 DUP2 ADD DUP3 SWAP1 SSTORE PUSH1 0x4 DUP2 ADD DUP3 SWAP1 SSTORE PUSH1 0x5 ADD SSTORE SWAP1 SSTORE POP POP POP JUMP JUMPDEST PUSH2 0x140 DUP4 ADD MLOAD PUSH1 0x40 MLOAD PUSH4 0x23B872DD PUSH1 0xE0 SHL DUP2 MSTORE PUSH1 0x1 PUSH1 0x1 PUSH1 0xA0 SHL SUB DUP5 DUP2 AND PUSH1 0x4 DUP4 ADD MSTORE ADDRESS PUSH1 0x24 DUP4 ADD MSTORE PUSH1 0x44 DUP3 ADD DUP5 SWAP1 MSTORE PUSH1 0x0 SWAP3 AND SWAP1 PUSH4 0x23B872DD SWAP1 PUSH1 0x64 ADD PUSH1 0x20 PUSH1 0x40 MLOAD DUP1 DUP4 SUB DUP2 PUSH1 0x0 DUP8 GAS CALL SWAP3 POP POP POP DUP1 ISZERO PUSH2 0x2A60 JUMPI POP PUSH1 0x40 DUP1 MLOAD PUSH1 0x1F RETURNDATASIZE SWAP1 DUP2 ADD PUSH1 0x1F NOT AND DUP3 ADD SWAP1 SWAP3 MSTORE PUSH2 0x2A5D SWAP2 DUP2 ADD SWAP1 PUSH2 0x3E88 JUMP JUMPDEST PUSH1 0x1 JUMPDEST PUSH2 0x2A6C JUMPI POP PUSH1 0x0 PUSH2 0x7AC JUMP JUMPDEST DUP1 ISZERO PUSH2 0x2AA4 JUMPI PUSH1 0x60 DUP6 ADD MLOAD PUSH1 0x1 PUSH1 0x1 PUSH1 0xA0 SHL SUB AND PUSH1 0x0 SWAP1 DUP2 MSTORE PUSH1 0x2 PUSH1 0x20 MSTORE PUSH1 0x40 DUP2 KECCAK256 DUP1 SLOAD DUP6 SWAP3 SWAP1 PUSH2 0x2A9E SWAP1 DUP5 SWAP1 PUSH2 0x3D52 JUMP JUMPDEST SWAP1 SWAP2 SSTORE POP POP JUMPDEST SWAP1 POP PUSH2 0x7AC JUMP JUMPDEST PUSH1 0x0 DUP1 PUSH1 0x0 PUSH2 0x2AB9 DUP5 PUSH2 0x32EA JUMP JUMPDEST SWAP2 POP SWAP2 POP DUP1 PUSH2 0x2ADB JUMPI PUSH1 0x40 MLOAD PUSH4 0xE6F7D2C7 PUSH1 0xE0 SHL DUP2 MSTORE PUSH1 0x4 ADD PUSH1 0x40 MLOAD DUP1 SWAP2 SUB SWAP1 REVERT JUMPDEST POP SWAP3 SWAP2 POP POP JUMP JUMPDEST PUSH1 0x6 SLOAD PUSH1 0x0 SUB PUSH2 0x2AEE JUMPI JUMP JUMPDEST PUSH2 0x2CEC PUSH1 0x6 PUSH1 0x0 DUP2 SLOAD DUP2 LT PUSH2 0x2B05 JUMPI PUSH2 0x2B05 PUSH2 0x3D26 JUMP JUMPDEST SWAP1 PUSH1 0x0 MSTORE PUSH1 0x20 PUSH1 0x0 KECCAK256 SWAP1 PUSH1 0x9 MUL ADD PUSH1 0x40 MLOAD DUP1 PUSH2 0x160 ADD PUSH1 0x40 MSTORE SWAP1 DUP2 PUSH1 0x0 DUP3 ADD DUP1 SLOAD PUSH2 0x2B2F SWAP1 PUSH2 0x3DC1 JUMP JUMPDEST DUP1 PUSH1 0x1F ADD PUSH1 0x20 DUP1 SWAP2 DIV MUL PUSH1 0x20 ADD PUSH1 0x40 MLOAD SWAP1 DUP2 ADD PUSH1 0x40 MSTORE DUP1 SWAP3 SWAP2 SWAP1 DUP2 DUP2 MSTORE PUSH1 0x20 ADD DUP3 DUP1 SLOAD PUSH2 0x2B5B SWAP1 PUSH2 0x3DC1 JUMP JUMPDEST DUP1 ISZERO PUSH2 0x2BA8 JUMPI DUP1 PUSH1 0x1F LT PUSH2 0x2B7D JUMPI PUSH2 0x100 DUP1 DUP4 SLOAD DIV MUL DUP4 MSTORE SWAP2 PUSH1 0x20 ADD SWAP2 PUSH2 0x2BA8 JUMP JUMPDEST DUP3 ADD SWAP2 SWAP1 PUSH1 0x0 MSTORE PUSH1 0x20 PUSH1 0x0 KECCAK256 SWAP1 JUMPDEST DUP2 SLOAD DUP2 MSTORE SWAP1 PUSH1 0x1 ADD SWAP1 PUSH1 0x20 ADD DUP1 DUP4 GT PUSH2 0x2B8B JUMPI DUP3 SWAP1 SUB PUSH1 0x1F AND DUP3 ADD SWAP2 JUMPDEST POP POP POP POP POP DUP2 MSTORE PUSH1 0x20 ADD PUSH1 0x1 DUP3 ADD DUP1 SLOAD PUSH2 0x2BC1 SWAP1 PUSH2 0x3DC1 JUMP JUMPDEST DUP1 PUSH1 0x1F ADD PUSH1 0x20 DUP1 SWAP2 DIV MUL PUSH1 0x20 ADD PUSH1 0x40 MLOAD SWAP1 DUP2 ADD PUSH1 0x40 MSTORE DUP1 SWAP3 SWAP2 SWAP1 DUP2 DUP2 MSTORE PUSH1 0x20 ADD DUP3 DUP1 SLOAD PUSH2 0x2BED SWAP1 PUSH2 0x3DC1 JUMP JUMPDEST DUP1 ISZERO PUSH2 0x2C3A JUMPI DUP1 PUSH1 0x1F LT PUSH2 0x2C0F JUMPI PUSH2 0x100 DUP1 DUP4 SLOAD DIV MUL DUP4 MSTORE SWAP2 PUSH1 0x20 ADD SWAP2 PUSH2 0x2C3A JUMP JUMPDEST DUP3 ADD SWAP2 SWAP1 PUSH1 0x0 MSTORE PUSH1 0x20 PUSH1 0x0 KECCAK256 SWAP1 JUMPDEST DUP2 SLOAD DUP2 MSTORE SWAP1 PUSH1 0x1 ADD SWAP1 PUSH1 0x20 ADD DUP1 DUP4 GT PUSH2 0x2C1D JUMPI DUP3 SWAP1 SUB PUSH1 0x1F AND DUP3 ADD SWAP2 JUMPDEST POP POP POP SWAP2 DUP4 MSTORE POP POP PUSH1 0x2 DUP3 ADD SLOAD PUSH1 0xFF DUP1 DUP3 AND PUSH1 0x20 DUP5 ADD MSTORE PUSH1 0x1 PUSH1 0x1 PUSH1 0xA0 SHL SUB PUSH2 0x100 SWAP1 SWAP3 DIV DUP3 AND PUSH1 0x40 DUP5 ADD MSTORE PUSH1 0x3 DUP5 ADD SLOAD SWAP2 DUP3 AND PUSH1 0x60 DUP5 ADD MSTORE PUSH1 0x80 SWAP1 SWAP3 ADD SWAP2 PUSH1 0x1 PUSH1 0xA0 SHL SWAP1 SWAP2 DIV AND PUSH1 0x1 DUP2 GT ISZERO PUSH2 0x2C93 JUMPI PUSH2 0x2C93 PUSH2 0x3A3C JUMP JUMPDEST PUSH1 0x1 DUP2 GT ISZERO PUSH2 0x2CA4 JUMPI PUSH2 0x2CA4 PUSH2 0x3A3C JUMP JUMPDEST DUP2 MSTORE PUSH1 0x4 DUP3 ADD SLOAD PUSH1 0x20 DUP3 ADD MSTORE PUSH1 0x5 DUP1 DUP4 ADD SLOAD PUSH1 0x40 DUP4 ADD MSTORE PUSH1 0x6 DUP4 ADD SLOAD PUSH1 0x60 DUP4 ADD MSTORE PUSH1 0x7 DUP4 ADD SLOAD PUSH1 0x80 DUP4 ADD MSTORE PUSH1 0x8 SWAP1 SWAP3 ADD SLOAD PUSH1 0x1 PUSH1 0x1 PUSH1 0xA0 SHL SUB AND PUSH1 0xA0 SWAP1 SWAP2 ADD MSTORE SLOAD CALLER SWAP1 PUSH2 0x29E7 JUMP JUMPDEST PUSH2 0x2D0F JUMPI PUSH1 0x5 SLOAD PUSH1 0x40 MLOAD PUSH4 0x6508A501 PUSH1 0xE1 SHL DUP2 MSTORE PUSH1 0x4 ADD PUSH2 0x15E1 SWAP2 DUP2 MSTORE PUSH1 0x20 ADD SWAP1 JUMP JUMPDEST PUSH1 0x0 PUSH2 0x3E8 PUSH1 0x5 DUP1 SLOAD PUSH2 0x2D22 SWAP2 SWAP1 PUSH2 0x3EA5 JUMP JUMPDEST PUSH2 0x2D2C SWAP2 SWAP1 PUSH2 0x3ED2 JUMP JUMPDEST SWAP1 POP DUP1 PUSH1 0x5 PUSH1 0x0 DUP3 DUP3 SLOAD PUSH2 0x120A SWAP2 SWAP1 PUSH2 0x3D52 JUMP JUMPDEST PUSH1 0x40 MLOAD PUSH4 0x70A08231 PUSH1 0xE0 SHL DUP2 MSTORE ADDRESS PUSH1 0x4 DUP3 ADD MSTORE DUP7 SWAP1 PUSH1 0x60 SWAP1 DUP2 SWAP1 PUSH1 0x0 SWAP1 DUP2 SWAP1 PUSH1 0x1 PUSH1 0x1 PUSH1 0xA0 SHL SUB DUP7 AND SWAP1 PUSH4 0x70A08231 SWAP1 PUSH1 0x24 ADD PUSH1 0x20 PUSH1 0x40 MLOAD DUP1 DUP4 SUB DUP2 DUP7 GAS STATICCALL SWAP3 POP POP POP DUP1 ISZERO PUSH2 0x2DAC JUMPI POP PUSH1 0x40 DUP1 MLOAD PUSH1 0x1F RETURNDATASIZE SWAP1 DUP2 ADD PUSH1 0x1F NOT AND DUP3 ADD SWAP1 SWAP3 MSTORE PUSH2 0x2DA9 SWAP2 DUP2 ADD SWAP1 PUSH2 0x3D65 JUMP JUMPDEST PUSH1 0x1 JUMPDEST PUSH2 0x2DC9 JUMPI PUSH1 0x40 MLOAD PUSH4 0xA6F7ECD PUSH1 0xE2 SHL DUP2 MSTORE PUSH1 0x4 ADD PUSH1 0x40 MLOAD DUP1 SWAP2 SUB SWAP1 REVERT JUMPDEST DUP1 SWAP3 POP DUP6 PUSH1 0x1 PUSH1 0x1 PUSH1 0xA0 SHL SUB AND PUSH4 0x313CE567 PUSH1 0x40 MLOAD DUP2 PUSH4 0xFFFFFFFF AND PUSH1 0xE0 SHL DUP2 MSTORE PUSH1 0x4 ADD PUSH1 0x20 PUSH1 0x40 MLOAD DUP1 DUP4 SUB DUP2 DUP7 GAS STATICCALL SWAP3 POP POP POP DUP1 ISZERO PUSH2 0x2E26 JUMPI POP PUSH1 0x40 DUP1 MLOAD PUSH1 0x1F RETURNDATASIZE SWAP1 DUP2 ADD PUSH1 0x1F NOT AND DUP3 ADD SWAP1 SWAP3 MSTORE PUSH2 0x2E23 SWAP2 DUP2 ADD SWAP1 PUSH2 0x3EF4 JUMP JUMPDEST PUSH1 0x1 JUMPDEST PUSH2 0x2E33 JUMPI PUSH1 0x12 SWAP2 POP PUSH2 0x2E36 JUMP JUMPDEST SWAP2 POP JUMPDEST PUSH1 0x12 PUSH1 0xFF DUP4 AND GT ISZERO PUSH2 0x2E5B JUMPI PUSH1 0x40 MLOAD PUSH4 0x432C0A5D PUSH1 0xE0 SHL DUP2 MSTORE PUSH1 0x4 ADD PUSH1 0x40 MLOAD DUP1 SWAP2 SUB SWAP1 REVERT JUMPDEST DUP6 PUSH1 0x1 PUSH1 0x1 PUSH1 0xA0 SHL SUB AND PUSH4 0x6FDDE03 PUSH1 0x40 MLOAD DUP2 PUSH4 0xFFFFFFFF AND PUSH1 0xE0 SHL DUP2 MSTORE PUSH1 0x4 ADD PUSH1 0x0 PUSH1 0x40 MLOAD DUP1 DUP4 SUB DUP2 DUP7 GAS STATICCALL SWAP3 POP POP POP DUP1 ISZERO PUSH2 0x2EBA JUMPI POP PUSH1 0x40 MLOAD RETURNDATASIZE PUSH1 0x0 DUP3 RETURNDATACOPY PUSH1 0x1F RETURNDATASIZE SWAP1 DUP2 ADD PUSH1 0x1F NOT AND DUP3 ADD PUSH1 0x40 MSTORE PUSH2 0x2EB7 SWAP2 SWAP1 DUP2 ADD SWAP1 PUSH2 0x3DFB JUMP JUMPDEST PUSH1 0x1 JUMPDEST ISZERO PUSH2 0x2EC2 JUMPI SWAP5 POP JUMPDEST DUP6 PUSH1 0x1 PUSH1 0x1 PUSH1 0xA0 SHL SUB AND PUSH4 0x95D89B41 PUSH1 0x40 MLOAD DUP2 PUSH4 0xFFFFFFFF AND PUSH1 0xE0 SHL DUP2 MSTORE PUSH1 0x4 ADD PUSH1 0x0 PUSH1 0x40 MLOAD DUP1 DUP4 SUB DUP2 DUP7 GAS STATICCALL SWAP3 POP POP POP DUP1 ISZERO PUSH2 0x2F21 JUMPI POP PUSH1 0x40 MLOAD RETURNDATASIZE PUSH1 0x0 DUP3 RETURNDATACOPY PUSH1 0x1F RETURNDATASIZE SWAP1 DUP2 ADD PUSH1 0x1F NOT AND DUP3 ADD PUSH1 0x40 MSTORE PUSH2 0x2F1E SWAP2 SWAP1 DUP2 ADD SWAP1 PUSH2 0x3DFB JUMP JUMPDEST PUSH1 0x1 JUMPDEST ISZERO PUSH2 0x2F29 JUMPI SWAP4 POP JUMPDEST POP PUSH1 0x0 PUSH1 0x40 MLOAD DUP1 PUSH2 0x160 ADD PUSH1 0x40 MSTORE DUP1 DUP7 DUP2 MSTORE PUSH1 0x20 ADD DUP6 DUP2 MSTORE PUSH1 0x20 ADD DUP4 PUSH1 0xFF AND DUP2 MSTORE PUSH1 0x20 ADD DUP14 PUSH1 0x1 PUSH1 0x1 PUSH1 0xA0 SHL SUB AND DUP2 MSTORE PUSH1 0x20 ADD DUP11 PUSH1 0x1 PUSH1 0x1 PUSH1 0xA0 SHL SUB AND DUP2 MSTORE PUSH1 0x20 ADD DUP12 PUSH1 0x1 DUP2 GT ISZERO PUSH2 0x2F7D JUMPI PUSH2 0x2F7D PUSH2 0x3A3C JUMP JUMPDEST DUP2 MSTORE PUSH1 0x20 DUP2 ADD DUP11 SWAP1 MSTORE PUSH1 0x40 DUP2 ADD DUP10 SWAP1 MSTORE PUSH1 0x60 DUP2 ADD DUP14 SWAP1 MSTORE PUSH1 0x0 PUSH1 0x80 DUP3 ADD DUP2 SWAP1 MSTORE PUSH1 0x1 PUSH1 0x1 PUSH1 0xA0 SHL SUB DUP10 AND PUSH1 0xA0 SWAP1 SWAP3 ADD SWAP2 SWAP1 SWAP2 MSTORE PUSH1 0x6 DUP1 SLOAD PUSH1 0x1 DUP2 ADD DUP3 SSTORE SWAP2 MSTORE DUP2 MLOAD SWAP2 SWAP3 POP DUP3 SWAP2 PUSH1 0x9 SWAP1 SWAP2 MUL PUSH32 0xF652222313E28459528D920B65115C16C04F3EFC82AAEDC97BE59F3F377C0D3F ADD SWAP1 DUP2 SWAP1 PUSH2 0x2FF7 SWAP1 DUP3 PUSH2 0x3F5F JUMP JUMPDEST POP PUSH1 0x20 DUP3 ADD MLOAD PUSH1 0x1 DUP3 ADD SWAP1 PUSH2 0x300C SWAP1 DUP3 PUSH2 0x3F5F JUMP JUMPDEST POP PUSH1 0x40 DUP3 ADD MLOAD PUSH1 0x2 DUP3 ADD DUP1 SLOAD PUSH1 0x60 DUP6 ADD MLOAD PUSH1 0xFF SWAP1 SWAP4 AND PUSH1 0x1 PUSH1 0x1 PUSH1 0xA8 SHL SUB NOT SWAP2 DUP3 AND OR PUSH2 0x100 PUSH1 0x1 PUSH1 0x1 PUSH1 0xA0 SHL SUB SWAP5 DUP6 AND MUL OR SWAP1 SWAP2 SSTORE PUSH1 0x80 DUP5 ADD MLOAD PUSH1 0x3 DUP5 ADD DUP1 SLOAD PUSH1 0x1 PUSH1 0x1 PUSH1 0xA0 SHL SUB NOT DUP2 AND SWAP3 SWAP1 SWAP5 AND SWAP2 DUP3 OR DUP2 SSTORE PUSH1 0xA0 DUP7 ADD MLOAD SWAP4 SWAP1 SWAP3 AND OR PUSH1 0x1 PUSH1 0xA0 SHL DUP4 PUSH1 0x1 DUP2 GT ISZERO PUSH2 0x3082 JUMPI PUSH2 0x3082 PUSH2 0x3A3C JUMP JUMPDEST MUL OR SWAP1 SSTORE POP PUSH1 0xC0 DUP3 ADD MLOAD PUSH1 0x4 DUP3 ADD SSTORE PUSH1 0xE0 DUP3 ADD MLOAD PUSH1 0x5 DUP3 ADD SSTORE PUSH2 0x100 DUP3 ADD MLOAD PUSH1 0x6 DUP1 DUP4 ADD SWAP2 SWAP1 SWAP2 SSTORE PUSH2 0x120 DUP4 ADD MLOAD PUSH1 0x7 DUP4 ADD SSTORE PUSH2 0x140 SWAP1 SWAP3 ADD MLOAD PUSH1 0x8 SWAP1 SWAP2 ADD DUP1 SLOAD PUSH1 0x1 PUSH1 0x1 PUSH1 0xA0 SHL SUB NOT AND PUSH1 0x1 PUSH1 0x1 PUSH1 0xA0 SHL SUB SWAP3 DUP4 AND OR SWAP1 SSTORE SWAP1 SLOAD PUSH1 0x60 DUP4 ADD DUP1 MLOAD DUP4 AND PUSH1 0x0 SWAP1 DUP2 MSTORE PUSH1 0x9 PUSH1 0x20 SWAP1 DUP2 MSTORE PUSH1 0x40 DUP1 DUP4 KECCAK256 SWAP5 SWAP1 SWAP5 SSTORE SWAP2 MLOAD SWAP1 SWAP4 AND DUP4 MSTORE PUSH1 0x2 DUP2 MSTORE SWAP2 DUP2 SWAP1 KECCAK256 DUP6 SWAP1 SSTORE SWAP1 DUP3 ADD MLOAD SWAP1 MLOAD PUSH2 0x311C SWAP2 SWAP1 PUSH2 0x401F JUMP JUMPDEST PUSH1 0x40 MLOAD SWAP1 DUP2 SWAP1 SUB DUP2 KECCAK256 DUP3 MLOAD SWAP1 SWAP2 PUSH2 0x3133 SWAP2 SWAP1 PUSH2 0x401F JUMP JUMPDEST PUSH1 0x40 MLOAD SWAP1 DUP2 SWAP1 SUB DUP2 KECCAK256 PUSH1 0xA0 DUP5 ADD MLOAD PUSH1 0x60 DUP6 ADD MLOAD PUSH1 0x6 SLOAD SWAP3 SWAP4 PUSH32 0x2B9A73ECC76EBAD22366F66B2436A1725CC4F39AA579663FC941863779316B1B SWAP4 PUSH2 0x3178 SWAP4 SWAP3 SWAP2 PUSH2 0x403B JUMP JUMPDEST PUSH1 0x40 MLOAD DUP1 SWAP2 SUB SWAP1 LOG3 POP POP POP POP POP POP POP POP POP POP POP POP JUMP JUMPDEST PUSH1 0x0 DUP2 PUSH1 0xFF AND PUSH1 0x1 EQ PUSH2 0x31B3 JUMPI PUSH2 0x31A4 DUP3 PUSH2 0x36DC JUMP JUMPDEST PUSH2 0x31AE SWAP1 DUP5 PUSH2 0x3EA5 JUMP JUMPDEST PUSH2 0x7AC JUMP JUMPDEST POP SWAP1 SWAP2 SWAP1 POP JUMP JUMPDEST PUSH1 0x0 PUSH2 0x7AC DUP4 DUP4 PUSH2 0x3720 JUMP JUMPDEST PUSH1 0x0 PUSH2 0x7AC DUP4 DUP4 PUSH2 0x3735 JUMP JUMPDEST PUSH1 0x0 DUP1 PUSH1 0x0 DUP1 DUP8 PUSH1 0x40 ADD MLOAD ISZERO PUSH2 0x31F3 JUMPI POP POP DUP6 MLOAD DUP4 SWAP3 POP DUP5 SWAP2 POP CALLER SWAP1 PUSH2 0x31FF JUMP JUMPDEST POP POP DUP6 MLOAD DUP5 SWAP3 POP DUP4 SWAP2 POP CALLER JUMPDEST PUSH2 0x320A DUP8 DUP3 DUP6 PUSH2 0x34CE JUMP JUMPDEST PUSH2 0x3227 JUMPI PUSH1 0x40 MLOAD PUSH4 0x4DE4E1D PUSH1 0xE4 SHL DUP2 MSTORE PUSH1 0x4 ADD PUSH1 0x40 MLOAD DUP1 SWAP2 SUB SWAP1 REVERT JUMPDEST PUSH2 0x3232 DUP8 DUP4 DUP7 PUSH2 0x341C JUMP JUMPDEST PUSH2 0x324F JUMPI PUSH1 0x40 MLOAD PUSH4 0x4DE4E1D PUSH1 0xE4 SHL DUP2 MSTORE PUSH1 0x4 ADD PUSH1 0x40 MLOAD DUP1 SWAP2 SUB SWAP1 REVERT JUMPDEST POP POP POP POP POP POP POP POP JUMP JUMPDEST PUSH1 0xC0 DUP3 ADD MLOAD PUSH1 0x0 DUP2 ISZERO DUP1 ISZERO SWAP1 PUSH2 0x3273 JUMPI POP DUP4 PUSH1 0xE0 ADD MLOAD DUP4 LT ISZERO JUMPDEST SWAP1 POP DUP1 ISZERO PUSH2 0x75E JUMPI PUSH1 0x60 DUP5 ADD DUP1 MLOAD PUSH1 0x1 PUSH1 0x1 PUSH1 0xA0 SHL SUB SWAP1 DUP2 AND PUSH1 0x0 SWAP1 DUP2 MSTORE PUSH1 0x3 PUSH1 0x20 SWAP1 DUP2 MSTORE PUSH1 0x40 DUP1 DUP4 KECCAK256 SLOAD SWAP5 MLOAD SWAP1 SWAP4 AND DUP3 MSTORE PUSH1 0x2 SWAP1 MSTORE SWAP1 DUP2 KECCAK256 SLOAD SWAP1 SWAP2 PUSH2 0x32B8 SWAP2 PUSH2 0x3D7E JUMP JUMPDEST SWAP1 POP DUP3 DUP2 GT ISZERO PUSH2 0x843 JUMPI PUSH2 0x32CD DUP6 CALLER DUP6 PUSH2 0x362B JUMP JUMPDEST PUSH2 0x843 JUMPI PUSH1 0x40 MLOAD PUSH4 0xC96D18B5 PUSH1 0xE0 SHL DUP2 MSTORE PUSH1 0x4 ADD PUSH1 0x40 MLOAD DUP1 SWAP2 SUB SWAP1 REVERT JUMPDEST PUSH1 0x0 DUP1 DUP1 DUP1 DUP5 DUP2 DUP1 DUP1 DUP1 DUP1 JUMPDEST DUP6 MLOAD DUP2 LT DUP1 ISZERO PUSH2 0x3304 JUMPI POP DUP4 ISZERO JUMPDEST ISZERO PUSH2 0x33F1 JUMPI DUP6 DUP2 DUP2 MLOAD DUP2 LT PUSH2 0x331B JUMPI PUSH2 0x331B PUSH2 0x3D26 JUMP JUMPDEST ADD PUSH1 0x20 ADD MLOAD PUSH1 0xF8 SHR SWAP5 POP PUSH1 0x30 DUP6 LT DUP1 ISZERO SWAP1 PUSH2 0x333A JUMPI POP PUSH1 0x39 DUP6 PUSH1 0xFF AND GT ISZERO JUMPDEST ISZERO PUSH2 0x33A9 JUMPI DUP7 SWAP8 POP DUP3 ISZERO PUSH2 0x335A JUMPI DUP2 PUSH2 0x3352 DUP2 PUSH2 0x4063 JUMP JUMPDEST SWAP3 POP POP PUSH2 0x3368 JUMP JUMPDEST PUSH2 0x3365 PUSH1 0xA DUP9 PUSH2 0x3EA5 JUMP JUMPDEST SWAP7 POP JUMPDEST PUSH2 0x3373 DUP3 PUSH1 0xA PUSH2 0x4164 JUMP JUMPDEST PUSH2 0x337E PUSH1 0x30 DUP8 PUSH2 0x4173 JUMP JUMPDEST PUSH1 0xFF AND PUSH2 0x338B SWAP2 SWAP1 PUSH2 0x3EA5 JUMP JUMPDEST PUSH2 0x3395 SWAP1 DUP9 PUSH2 0x3D52 JUMP JUMPDEST SWAP7 POP DUP7 DUP9 GT ISZERO PUSH2 0x33A4 JUMPI PUSH1 0x1 SWAP4 POP JUMPDEST PUSH2 0x33DF JUMP JUMPDEST DUP5 PUSH1 0xFF AND PUSH1 0x2E SUB PUSH2 0x33DF JUMPI DUP3 ISZERO PUSH2 0x33BF JUMPI PUSH1 0x1 SWAP4 POP JUMPDEST PUSH1 0x1 SWAP3 POP PUSH1 0x12 SWAP2 POP PUSH2 0x33D2 DUP3 PUSH1 0xA PUSH2 0x4164 JUMP JUMPDEST PUSH2 0x33DC SWAP1 DUP9 PUSH2 0x3EA5 JUMP JUMPDEST SWAP7 POP JUMPDEST DUP1 PUSH2 0x33E9 DUP2 PUSH2 0x3D91 JUMP JUMPDEST SWAP2 POP POP PUSH2 0x32F6 JUMP JUMPDEST POP DUP2 PUSH2 0x340C JUMPI PUSH2 0x3409 PUSH8 0xDE0B6B3A7640000 DUP8 PUSH2 0x3EA5 JUMP JUMPDEST SWAP6 POP JUMPDEST POP SWAP4 SWAP9 SWAP1 ISZERO SWAP8 POP SWAP6 POP POP POP POP POP POP JUMP JUMPDEST PUSH1 0x40 MLOAD PUSH1 0x0 SWAP1 PUSH1 0x1 PUSH1 0x1 PUSH1 0xA0 SHL SUB DUP5 AND SWAP1 DUP4 ISZERO PUSH2 0x8FC MUL SWAP1 DUP5 SWAP1 DUP5 DUP2 DUP2 DUP2 DUP6 DUP9 DUP9 CALL SWAP4 POP POP POP POP ISZERO PUSH2 0x34C4 JUMPI PUSH1 0x40 DUP1 MLOAD DUP4 DUP2 MSTORE PUSH1 0x1 PUSH1 0x1 PUSH1 0xA0 SHL SUB DUP6 AND PUSH1 0x20 DUP3 ADD MSTORE PUSH32 0x897F9F8697C0FEE5ACFC2C885618E98D4F0882E71E35D182FACCC1915C01ECB SWAP2 ADD PUSH1 0x40 MLOAD DUP1 SWAP2 SUB SWAP1 LOG1 PUSH1 0x60 DUP5 ADD MLOAD PUSH1 0x1 PUSH1 0x1 PUSH1 0xA0 SHL SUB AND PUSH1 0x0 SWAP1 DUP2 MSTORE PUSH1 0x1 PUSH1 0x20 MSTORE PUSH1 0x40 DUP2 KECCAK256 DUP1 SLOAD DUP5 SWAP3 SWAP1 PUSH2 0x34B5 SWAP1 DUP5 SWAP1 PUSH2 0x3D7E JUMP JUMPDEST SWAP1 SWAP2 SSTORE POP PUSH1 0x1 SWAP2 POP PUSH2 0x7AC SWAP1 POP JUMP JUMPDEST POP PUSH1 0x0 SWAP4 SWAP3 POP POP POP JUMP JUMPDEST PUSH2 0x140 DUP4 ADD MLOAD PUSH1 0x40 MLOAD PUSH4 0xA9059CBB PUSH1 0xE0 SHL DUP2 MSTORE PUSH1 0x1 PUSH1 0x1 PUSH1 0xA0 SHL SUB DUP5 DUP2 AND PUSH1 0x4 DUP4 ADD MSTORE PUSH1 0x24 DUP3 ADD DUP5 SWAP1 MSTORE PUSH1 0x0 SWAP3 AND SWAP1 PUSH4 0xA9059CBB SWAP1 PUSH1 0x44 ADD PUSH1 0x20 PUSH1 0x40 MLOAD DUP1 DUP4 SUB DUP2 PUSH1 0x0 DUP8 GAS CALL SWAP3 POP POP POP DUP1 ISZERO PUSH2 0x3541 JUMPI POP PUSH1 0x40 DUP1 MLOAD PUSH1 0x1F RETURNDATASIZE SWAP1 DUP2 ADD PUSH1 0x1F NOT AND DUP3 ADD SWAP1 SWAP3 MSTORE PUSH2 0x353E SWAP2 DUP2 ADD SWAP1 PUSH2 0x3E88 JUMP JUMPDEST PUSH1 0x1 JUMPDEST PUSH2 0x354D JUMPI POP PUSH1 0x0 PUSH2 0x7AC JUMP JUMPDEST DUP1 ISZERO PUSH2 0x2AA4 JUMPI PUSH1 0x60 DUP6 ADD MLOAD PUSH1 0x1 PUSH1 0x1 PUSH1 0xA0 SHL SUB AND PUSH1 0x0 SWAP1 DUP2 MSTORE PUSH1 0x2 PUSH1 0x20 MSTORE PUSH1 0x40 DUP2 KECCAK256 DUP1 SLOAD DUP6 SWAP3 SWAP1 PUSH2 0x357F SWAP1 DUP5 SWAP1 PUSH2 0x3D7E JUMP JUMPDEST SWAP1 SWAP2 SSTORE POP POP PUSH1 0x60 DUP6 ADD MLOAD PUSH1 0x1 PUSH1 0x1 PUSH1 0xA0 SHL SUB AND PUSH1 0x0 SWAP1 DUP2 MSTORE PUSH1 0x3 PUSH1 0x20 MSTORE PUSH1 0x40 DUP2 KECCAK256 DUP1 SLOAD DUP6 SWAP3 SWAP1 PUSH2 0x35B0 SWAP1 DUP5 SWAP1 PUSH2 0x3D7E JUMP JUMPDEST SWAP1 SWAP2 SSTORE POP POP PUSH1 0x60 DUP6 DUP2 ADD MLOAD PUSH1 0x40 DUP1 MLOAD DUP7 DUP2 MSTORE PUSH1 0x1 PUSH1 0x1 PUSH1 0xA0 SHL SUB DUP1 DUP10 AND PUSH1 0x20 DUP4 ADD MSTORE SWAP1 SWAP3 AND SWAP1 DUP3 ADD MSTORE PUSH32 0xA84F763BE5BB36163517FB87C7AF39F875A97866FDF7806EB1B3EAC837AE35EA SWAP2 ADD PUSH1 0x40 MLOAD DUP1 SWAP2 SUB SWAP1 LOG1 SWAP1 POP PUSH2 0x7AC JUMP JUMPDEST PUSH1 0x0 DUP2 PUSH1 0xFF AND PUSH1 0x1 EQ PUSH2 0x31B3 JUMPI PUSH2 0x3621 DUP3 PUSH2 0x36DC JUMP JUMPDEST PUSH2 0x31AE SWAP1 DUP5 PUSH2 0x3ED2 JUMP JUMPDEST PUSH2 0x140 DUP4 ADD MLOAD PUSH1 0x40 MLOAD PUSH4 0xA9059CBB PUSH1 0xE0 SHL DUP2 MSTORE PUSH1 0x1 PUSH1 0x1 PUSH1 0xA0 SHL SUB DUP5 DUP2 AND PUSH1 0x4 DUP4 ADD MSTORE PUSH1 0x24 DUP3 ADD DUP5 SWAP1 MSTORE PUSH1 0x0 SWAP3 AND SWAP1 PUSH4 0xA9059CBB SWAP1 PUSH1 0x44 ADD PUSH1 0x20 PUSH1 0x40 MLOAD DUP1 DUP4 SUB DUP2 PUSH1 0x0 DUP8 GAS CALL SWAP3 POP POP POP DUP1 ISZERO PUSH2 0x369E JUMPI POP PUSH1 0x40 DUP1 MLOAD PUSH1 0x1F RETURNDATASIZE SWAP1 DUP2 ADD PUSH1 0x1F NOT AND DUP3 ADD SWAP1 SWAP3 MSTORE PUSH2 0x369B SWAP2 DUP2 ADD SWAP1 PUSH2 0x3E88 JUMP JUMPDEST PUSH1 0x1 JUMPDEST PUSH2 0x36AA JUMPI POP PUSH1 0x0 PUSH2 0x7AC JUMP JUMPDEST DUP1 ISZERO PUSH2 0x2AA4 JUMPI PUSH1 0x60 DUP6 ADD MLOAD PUSH1 0x1 PUSH1 0x1 PUSH1 0xA0 SHL SUB AND PUSH1 0x0 SWAP1 DUP2 MSTORE PUSH1 0x2 PUSH1 0x20 MSTORE PUSH1 0x40 DUP2 KECCAK256 DUP1 SLOAD DUP6 SWAP3 SWAP1 PUSH2 0x35B0 SWAP1 DUP5 SWAP1 PUSH2 0x3D7E JUMP JUMPDEST PUSH1 0xFF DUP2 AND PUSH1 0x0 SWAP1 DUP2 MSTORE PUSH1 0x4 PUSH1 0x20 MSTORE PUSH1 0x40 DUP2 KECCAK256 SLOAD SWAP1 DUP2 SWAP1 SUB PUSH2 0x371B JUMPI POP PUSH1 0xFF DUP2 DUP2 AND PUSH1 0x0 SWAP1 DUP2 MSTORE PUSH1 0x4 PUSH1 0x20 MSTORE PUSH1 0x40 SWAP1 KECCAK256 PUSH1 0x12 DUP4 SWAP1 SUB SWAP1 SWAP2 AND PUSH1 0xA EXP SWAP1 DUP2 SWAP1 SSTORE JUMPDEST SWAP2 SWAP1 POP JUMP JUMPDEST PUSH1 0x0 PUSH2 0x7AC DUP4 PUSH8 0xDE0B6B3A7640000 DUP5 PUSH2 0x3741 JUMP JUMPDEST PUSH1 0x0 PUSH2 0x7AC DUP4 DUP4 PUSH2 0x3815 JUMP JUMPDEST PUSH1 0x0 DUP1 DUP1 PUSH1 0x0 NOT DUP6 DUP8 MULMOD DUP6 DUP8 MUL SWAP3 POP DUP3 DUP2 LT DUP4 DUP3 SUB SUB SWAP2 POP POP DUP1 PUSH1 0x0 SUB PUSH2 0x377B JUMPI DUP4 DUP3 DUP2 PUSH2 0x3771 JUMPI PUSH2 0x3771 PUSH2 0x3EBC JUMP JUMPDEST DIV SWAP3 POP POP POP PUSH2 0x7AC JUMP JUMPDEST DUP4 DUP2 LT PUSH2 0x37AC JUMPI PUSH1 0x40 MLOAD PUSH4 0x362CED09 PUSH1 0xE1 SHL DUP2 MSTORE PUSH1 0x4 DUP2 ADD DUP8 SWAP1 MSTORE PUSH1 0x24 DUP2 ADD DUP7 SWAP1 MSTORE PUSH1 0x44 DUP2 ADD DUP6 SWAP1 MSTORE PUSH1 0x64 ADD PUSH2 0x15E1 JUMP JUMPDEST PUSH1 0x0 DUP5 DUP7 DUP9 MULMOD PUSH1 0x2 PUSH1 0x1 DUP8 NOT DUP2 ADD DUP9 AND SWAP8 DUP9 SWAP1 DIV PUSH1 0x3 DUP2 MUL DUP4 XOR DUP1 DUP3 MUL DUP5 SUB MUL DUP1 DUP3 MUL DUP5 SUB MUL DUP1 DUP3 MUL DUP5 SUB MUL DUP1 DUP3 MUL DUP5 SUB MUL DUP1 DUP3 MUL DUP5 SUB MUL SWAP1 DUP2 MUL SWAP1 SWAP3 SUB SWAP1 SWAP2 MUL PUSH1 0x0 DUP9 SWAP1 SUB DUP9 SWAP1 DIV SWAP1 SWAP2 ADD DUP6 DUP4 GT SWAP1 SWAP5 SUB SWAP4 SWAP1 SWAP4 MUL SWAP4 SUB SWAP5 SWAP1 SWAP5 DIV SWAP2 SWAP1 SWAP2 OR MUL SWAP5 SWAP4 POP POP POP POP JUMP JUMPDEST PUSH1 0x0 DUP1 DUP1 PUSH1 0x0 NOT DUP5 DUP7 MULMOD DUP5 DUP7 MUL SWAP3 POP DUP3 DUP2 LT DUP4 DUP3 SUB SUB SWAP2 POP POP DUP1 PUSH1 0x0 SUB PUSH2 0x3849 JUMPI POP PUSH8 0xDE0B6B3A7640000 SWAP1 DIV SWAP1 POP PUSH2 0x654 JUMP JUMPDEST PUSH8 0xDE0B6B3A7640000 DUP2 LT PUSH2 0x387B JUMPI PUSH1 0x40 MLOAD PUSH4 0x69E06FAF PUSH1 0xE1 SHL DUP2 MSTORE PUSH1 0x4 DUP2 ADD DUP7 SWAP1 MSTORE PUSH1 0x24 DUP2 ADD DUP6 SWAP1 MSTORE PUSH1 0x44 ADD PUSH2 0x15E1 JUMP JUMPDEST PUSH1 0x0 PUSH8 0xDE0B6B3A7640000 DUP6 DUP8 MULMOD PUSH3 0x40000 DUP2 DUP6 SUB DIV SWAP4 LT SWAP1 SWAP2 SUB PUSH1 0x1 PUSH1 0xEE SHL MUL SWAP2 SWAP1 SWAP2 OR PUSH32 0xACCB18165BD6FE31AE1CF318DC5B51EEE0E1BA569B88CD74C1773B91FAC10669 MUL SWAP2 POP POP SWAP3 SWAP2 POP POP JUMP JUMPDEST PUSH1 0x40 MLOAD DUP1 PUSH1 0xE0 ADD PUSH1 0x40 MSTORE DUP1 PUSH1 0x0 PUSH1 0x1 PUSH1 0x1 PUSH1 0xA0 SHL SUB AND DUP2 MSTORE PUSH1 0x20 ADD PUSH1 0x0 PUSH1 0x1 PUSH1 0x1 PUSH1 0xA0 SHL SUB AND DUP2 MSTORE PUSH1 0x20 ADD PUSH1 0x0 ISZERO ISZERO DUP2 MSTORE PUSH1 0x20 ADD PUSH1 0x0 DUP2 MSTORE PUSH1 0x20 ADD PUSH1 0x0 DUP2 MSTORE PUSH1 0x20 ADD PUSH1 0x0 DUP2 MSTORE PUSH1 0x20 ADD PUSH1 0x0 DUP2 MSTORE POP SWAP1 JUMP JUMPDEST PUSH1 0x40 MLOAD DUP1 PUSH2 0x140 ADD PUSH1 0x40 MSTORE DUP1 PUSH1 0x0 DUP2 MSTORE PUSH1 0x20 ADD PUSH1 0x60 DUP2 MSTORE PUSH1 0x20 ADD PUSH1 0x60 DUP2 MSTORE PUSH1 0x20 ADD PUSH1 0x0 PUSH1 0x1 PUSH1 0x1 PUSH1 0xA0 SHL SUB AND DUP2 MSTORE PUSH1 0x20 ADD PUSH1 0x0 PUSH1 0x1 PUSH1 0x1 PUSH1 0xA0 SHL SUB AND DUP2 MSTORE PUSH1 0x20 ADD PUSH1 0x0 DUP2 MSTORE PUSH1 0x20 ADD PUSH1 0x0 DUP2 MSTORE PUSH1 0x20 ADD PUSH1 0x0 PUSH1 0x1 DUP2 GT ISZERO PUSH2 0x397E JUMPI PUSH2 0x397E PUSH2 0x3A3C JUMP JUMPDEST DUP2 MSTORE PUSH1 0x20 ADD PUSH1 0x0 DUP2 MSTORE PUSH1 0x20 ADD PUSH1 0x0 DUP2 MSTORE POP SWAP1 JUMP JUMPDEST DUP1 CALLDATALOAD PUSH1 0x1 PUSH1 0x1 PUSH1 0xA0 SHL SUB DUP2 AND DUP2 EQ PUSH2 0x371B JUMPI PUSH1 0x0 DUP1 REVERT JUMPDEST PUSH1 0x0 DUP1 PUSH1 0x40 DUP4 DUP6 SUB SLT ISZERO PUSH2 0x39BC JUMPI PUSH1 0x0 DUP1 REVERT JUMPDEST PUSH2 0x39C5 DUP4 PUSH2 0x3992 JUMP JUMPDEST SWAP5 PUSH1 0x20 SWAP4 SWAP1 SWAP4 ADD CALLDATALOAD SWAP4 POP POP POP JUMP JUMPDEST PUSH1 0x0 PUSH1 0x20 DUP3 DUP5 SUB SLT ISZERO PUSH2 0x39E5 JUMPI PUSH1 0x0 DUP1 REVERT JUMPDEST POP CALLDATALOAD SWAP2 SWAP1 POP JUMP JUMPDEST PUSH1 0x0 JUMPDEST DUP4 DUP2 LT ISZERO PUSH2 0x3A07 JUMPI DUP2 DUP2 ADD MLOAD DUP4 DUP3 ADD MSTORE PUSH1 0x20 ADD PUSH2 0x39EF JUMP JUMPDEST POP POP PUSH1 0x0 SWAP2 ADD MSTORE JUMP JUMPDEST PUSH1 0x0 DUP2 MLOAD DUP1 DUP5 MSTORE PUSH2 0x3A28 DUP2 PUSH1 0x20 DUP7 ADD PUSH1 0x20 DUP7 ADD PUSH2 0x39EC JUMP JUMPDEST PUSH1 0x1F ADD PUSH1 0x1F NOT AND SWAP3 SWAP1 SWAP3 ADD PUSH1 0x20 ADD SWAP3 SWAP2 POP POP JUMP JUMPDEST PUSH4 0x4E487B71 PUSH1 0xE0 SHL PUSH1 0x0 MSTORE PUSH1 0x21 PUSH1 0x4 MSTORE PUSH1 0x24 PUSH1 0x0 REVERT JUMPDEST PUSH1 0x2 DUP2 LT PUSH2 0x3A70 JUMPI PUSH4 0x4E487B71 PUSH1 0xE0 SHL PUSH1 0x0 MSTORE PUSH1 0x21 PUSH1 0x4 MSTORE PUSH1 0x24 PUSH1 0x0 REVERT JUMPDEST SWAP1 MSTORE JUMP JUMPDEST PUSH1 0x20 DUP2 MSTORE DUP2 MLOAD PUSH1 0x20 DUP3 ADD MSTORE PUSH1 0x0 PUSH1 0x20 DUP4 ADD MLOAD PUSH2 0x140 DUP1 PUSH1 0x40 DUP6 ADD MSTORE PUSH2 0x3A9D PUSH2 0x160 DUP6 ADD DUP4 PUSH2 0x3A10 JUMP JUMPDEST SWAP2 POP PUSH1 0x40 DUP6 ADD MLOAD PUSH1 0x1F NOT DUP6 DUP5 SUB ADD PUSH1 0x60 DUP7 ADD MSTORE PUSH2 0x3ABA DUP4 DUP3 PUSH2 0x3A10 JUMP JUMPDEST SWAP3 POP POP PUSH1 0x60 DUP6 ADD MLOAD PUSH2 0x3AD7 PUSH1 0x80 DUP7 ADD DUP3 PUSH1 0x1 PUSH1 0x1 PUSH1 0xA0 SHL SUB AND SWAP1 MSTORE JUMP JUMPDEST POP PUSH1 0x80 DUP6 ADD MLOAD PUSH1 0x1 PUSH1 0x1 PUSH1 0xA0 SHL SUB DUP2 AND PUSH1 0xA0 DUP7 ADD MSTORE POP PUSH1 0xA0 DUP6 ADD MLOAD PUSH1 0xC0 DUP6 ADD MSTORE PUSH1 0xC0 DUP6 ADD MLOAD PUSH1 0xE0 DUP6 ADD MSTORE PUSH1 0xE0 DUP6 ADD MLOAD PUSH2 0x100 PUSH2 0x3B15 DUP2 DUP8 ADD DUP4 PUSH2 0x3A52 JUMP JUMPDEST DUP7 ADD MLOAD PUSH2 0x120 DUP7 DUP2 ADD SWAP2 SWAP1 SWAP2 MSTORE SWAP1 SWAP6 ADD MLOAD SWAP4 ADD SWAP3 SWAP1 SWAP3 MSTORE POP SWAP2 SWAP1 POP JUMP JUMPDEST DUP1 ISZERO ISZERO DUP2 EQ PUSH2 0x3B40 JUMPI PUSH1 0x0 DUP1 REVERT JUMPDEST POP JUMP JUMPDEST PUSH1 0x0 DUP1 PUSH1 0x40 DUP4 DUP6 SUB SLT ISZERO PUSH2 0x3B56 JUMPI PUSH1 0x0 DUP1 REVERT JUMPDEST PUSH2 0x3B5F DUP4 PUSH2 0x3992 JUMP JUMPDEST SWAP2 POP PUSH1 0x20 DUP4 ADD CALLDATALOAD PUSH2 0x3B6F DUP2 PUSH2 0x3B32 JUMP JUMPDEST DUP1 SWAP2 POP POP SWAP3 POP SWAP3 SWAP1 POP JUMP JUMPDEST PUSH4 0x4E487B71 PUSH1 0xE0 SHL PUSH1 0x0 MSTORE PUSH1 0x41 PUSH1 0x4 MSTORE PUSH1 0x24 PUSH1 0x0 REVERT JUMPDEST PUSH1 0x40 MLOAD PUSH1 0x1F DUP3 ADD PUSH1 0x1F NOT AND DUP2 ADD PUSH8 0xFFFFFFFFFFFFFFFF DUP2 GT DUP3 DUP3 LT OR ISZERO PUSH2 0x3BB9 JUMPI PUSH2 0x3BB9 PUSH2 0x3B7A JUMP JUMPDEST PUSH1 0x40 MSTORE SWAP2 SWAP1 POP JUMP JUMPDEST PUSH1 0x0 PUSH8 0xFFFFFFFFFFFFFFFF DUP3 GT ISZERO PUSH2 0x3BDB JUMPI PUSH2 0x3BDB PUSH2 0x3B7A JUMP JUMPDEST POP PUSH1 0x1F ADD PUSH1 0x1F NOT AND PUSH1 0x20 ADD SWAP1 JUMP JUMPDEST PUSH1 0x0 DUP1 PUSH1 0x0 DUP1 PUSH1 0x80 DUP6 DUP8 SUB SLT ISZERO PUSH2 0x3BFF JUMPI PUSH1 0x0 DUP1 REVERT JUMPDEST PUSH2 0x3C08 DUP6 PUSH2 0x3992 JUMP JUMPDEST SWAP4 POP PUSH1 0x20 DUP6 ADD CALLDATALOAD SWAP3 POP PUSH1 0x40 DUP6 ADD CALLDATALOAD SWAP2 POP PUSH1 0x60 DUP6 ADD CALLDATALOAD PUSH8 0xFFFFFFFFFFFFFFFF DUP2 GT ISZERO PUSH2 0x3C32 JUMPI PUSH1 0x0 DUP1 REVERT JUMPDEST DUP6 ADD PUSH1 0x1F DUP2 ADD DUP8 SGT PUSH2 0x3C43 JUMPI PUSH1 0x0 DUP1 REVERT JUMPDEST DUP1 CALLDATALOAD PUSH2 0x3C56 PUSH2 0x3C51 DUP3 PUSH2 0x3BC1 JUMP JUMPDEST PUSH2 0x3B90 JUMP JUMPDEST DUP2 DUP2 MSTORE DUP9 PUSH1 0x20 DUP4 DUP6 ADD ADD GT ISZERO PUSH2 0x3C6B JUMPI PUSH1 0x0 DUP1 REVERT JUMPDEST DUP2 PUSH1 0x20 DUP5 ADD PUSH1 0x20 DUP4 ADD CALLDATACOPY PUSH1 0x0 PUSH1 0x20 DUP4 DUP4 ADD ADD MSTORE DUP1 SWAP4 POP POP POP POP SWAP3 SWAP6 SWAP2 SWAP5 POP SWAP3 POP JUMP JUMPDEST PUSH1 0x0 DUP1 PUSH1 0x0 DUP1 PUSH1 0x80 DUP6 DUP8 SUB SLT ISZERO PUSH2 0x3CA3 JUMPI PUSH1 0x0 DUP1 REVERT JUMPDEST PUSH2 0x3CAC DUP6 PUSH2 0x3992 JUMP JUMPDEST SWAP4 POP PUSH2 0x3CBA PUSH1 0x20 DUP7 ADD PUSH2 0x3992 JUMP JUMPDEST SWAP4 SWAP7 SWAP4 SWAP6 POP POP POP POP PUSH1 0x40 DUP3 ADD CALLDATALOAD SWAP2 PUSH1 0x60 ADD CALLDATALOAD SWAP1 JUMP JUMPDEST PUSH1 0x0 PUSH1 0x20 DUP3 DUP5 SUB SLT ISZERO PUSH2 0x3CE1 JUMPI PUSH1 0x0 DUP1 REVERT JUMPDEST PUSH2 0x7AC DUP3 PUSH2 0x3992 JUMP JUMPDEST PUSH1 0x0 DUP1 PUSH1 0x0 PUSH1 0x60 DUP5 DUP7 SUB SLT ISZERO PUSH2 0x3CFF JUMPI PUSH1 0x0 DUP1 REVERT JUMPDEST PUSH2 0x3D08 DUP5 PUSH2 0x3992 JUMP JUMPDEST SWAP3 POP PUSH2 0x3D16 PUSH1 0x20 DUP6 ADD PUSH2 0x3992 JUMP JUMPDEST SWAP2 POP PUSH1 0x40 DUP5 ADD CALLDATALOAD SWAP1 POP SWAP3 POP SWAP3 POP SWAP3 JUMP JUMPDEST PUSH4 0x4E487B71 PUSH1 0xE0 SHL PUSH1 0x0 MSTORE PUSH1 0x32 PUSH1 0x4 MSTORE PUSH1 0x24 PUSH1 0x0 REVERT JUMPDEST PUSH4 0x4E487B71 PUSH1 0xE0 SHL PUSH1 0x0 MSTORE PUSH1 0x11 PUSH1 0x4 MSTORE PUSH1 0x24 PUSH1 0x0 REVERT JUMPDEST DUP1 DUP3 ADD DUP1 DUP3 GT ISZERO PUSH2 0x654 JUMPI PUSH2 0x654 PUSH2 0x3D3C JUMP JUMPDEST PUSH1 0x0 PUSH1 0x20 DUP3 DUP5 SUB SLT ISZERO PUSH2 0x3D77 JUMPI PUSH1 0x0 DUP1 REVERT JUMPDEST POP MLOAD SWAP2 SWAP1 POP JUMP JUMPDEST DUP2 DUP2 SUB DUP2 DUP2 GT ISZERO PUSH2 0x654 JUMPI PUSH2 0x654 PUSH2 0x3D3C JUMP JUMPDEST PUSH1 0x0 PUSH1 0x1 DUP3 ADD PUSH2 0x3DA3 JUMPI PUSH2 0x3DA3 PUSH2 0x3D3C JUMP JUMPDEST POP PUSH1 0x1 ADD SWAP1 JUMP JUMPDEST PUSH1 0x0 DUP2 PUSH2 0x3DB9 JUMPI PUSH2 0x3DB9 PUSH2 0x3D3C JUMP JUMPDEST POP PUSH1 0x0 NOT ADD SWAP1 JUMP JUMPDEST PUSH1 0x1 DUP2 DUP2 SHR SWAP1 DUP3 AND DUP1 PUSH2 0x3DD5 JUMPI PUSH1 0x7F DUP3 AND SWAP2 POP JUMPDEST PUSH1 0x20 DUP3 LT DUP2 SUB PUSH2 0x3DF5 JUMPI PUSH4 0x4E487B71 PUSH1 0xE0 SHL PUSH1 0x0 MSTORE PUSH1 0x22 PUSH1 0x4 MSTORE PUSH1 0x24 PUSH1 0x0 REVERT JUMPDEST POP SWAP2 SWAP1 POP JUMP JUMPDEST PUSH1 0x0 PUSH1 0x20 DUP3 DUP5 SUB SLT ISZERO PUSH2 0x3E0D JUMPI PUSH1 0x0 DUP1 REVERT JUMPDEST DUP2 MLOAD PUSH8 0xFFFFFFFFFFFFFFFF DUP2 GT ISZERO PUSH2 0x3E24 JUMPI PUSH1 0x0 DUP1 REVERT JUMPDEST DUP3 ADD PUSH1 0x1F DUP2 ADD DUP5 SGT PUSH2 0x3E35 JUMPI PUSH1 0x0 DUP1 REVERT JUMPDEST DUP1 MLOAD PUSH2 0x3E43 PUSH2 0x3C51 DUP3 PUSH2 0x3BC1 JUMP JUMPDEST DUP2 DUP2 MSTORE DUP6 PUSH1 0x20 DUP4 DUP6 ADD ADD GT ISZERO PUSH2 0x3E58 JUMPI PUSH1 0x0 DUP1 REVERT JUMPDEST PUSH2 0x3E69 DUP3 PUSH1 0x20 DUP4 ADD PUSH1 0x20 DUP7 ADD PUSH2 0x39EC JUMP JUMPDEST SWAP6 SWAP5 POP POP POP POP POP JUMP JUMPDEST PUSH4 0x4E487B71 PUSH1 0xE0 SHL PUSH1 0x0 MSTORE PUSH1 0x31 PUSH1 0x4 MSTORE PUSH1 0x24 PUSH1 0x0 REVERT JUMPDEST PUSH1 0x0 PUSH1 0x20 DUP3 DUP5 SUB SLT ISZERO PUSH2 0x3E9A JUMPI PUSH1 0x0 DUP1 REVERT JUMPDEST DUP2 MLOAD PUSH2 0x7AC DUP2 PUSH2 0x3B32 JUMP JUMPDEST DUP1 DUP3 MUL DUP2 ISZERO DUP3 DUP3 DIV DUP5 EQ OR PUSH2 0x654 JUMPI PUSH2 0x654 PUSH2 0x3D3C JUMP JUMPDEST PUSH4 0x4E487B71 PUSH1 0xE0 SHL PUSH1 0x0 MSTORE PUSH1 0x12 PUSH1 0x4 MSTORE PUSH1 0x24 PUSH1 0x0 REVERT JUMPDEST PUSH1 0x0 DUP3 PUSH2 0x3EEF JUMPI PUSH4 0x4E487B71 PUSH1 0xE0 SHL PUSH1 0x0 MSTORE PUSH1 0x12 PUSH1 0x4 MSTORE PUSH1 0x24 PUSH1 0x0 REVERT JUMPDEST POP DIV SWAP1 JUMP JUMPDEST PUSH1 0x0 PUSH1 0x20 DUP3 DUP5 SUB SLT ISZERO PUSH2 0x3F06 JUMPI PUSH1 0x0 DUP1 REVERT JUMPDEST DUP2 MLOAD PUSH1 0xFF DUP2 AND DUP2 EQ PUSH2 0x7AC JUMPI PUSH1 0x0 DUP1 REVERT JUMPDEST PUSH1 0x1F DUP3 GT ISZERO PUSH2 0xC87 JUMPI PUSH1 0x0 DUP2 PUSH1 0x0 MSTORE PUSH1 0x20 PUSH1 0x0 KECCAK256 PUSH1 0x1F DUP6 ADD PUSH1 0x5 SHR DUP2 ADD PUSH1 0x20 DUP7 LT ISZERO PUSH2 0x3F40 JUMPI POP DUP1 JUMPDEST PUSH1 0x1F DUP6 ADD PUSH1 0x5 SHR DUP3 ADD SWAP2 POP JUMPDEST DUP2 DUP2 LT ISZERO PUSH2 0x1171 JUMPI DUP3 DUP2 SSTORE PUSH1 0x1 ADD PUSH2 0x3F4C JUMP JUMPDEST DUP2 MLOAD PUSH8 0xFFFFFFFFFFFFFFFF DUP2 GT ISZERO PUSH2 0x3F79 JUMPI PUSH2 0x3F79 PUSH2 0x3B7A JUMP JUMPDEST PUSH2 0x3F8D DUP2 PUSH2 0x3F87 DUP5 SLOAD PUSH2 0x3DC1 JUMP JUMPDEST DUP5 PUSH2 0x3F17 JUMP JUMPDEST PUSH1 0x20 DUP1 PUSH1 0x1F DUP4 GT PUSH1 0x1 DUP2 EQ PUSH2 0x3FC2 JUMPI PUSH1 0x0 DUP5 ISZERO PUSH2 0x3FAA JUMPI POP DUP6 DUP4 ADD MLOAD JUMPDEST PUSH1 0x0 NOT PUSH1 0x3 DUP7 SWAP1 SHL SHR NOT AND PUSH1 0x1 DUP6 SWAP1 SHL OR DUP6 SSTORE PUSH2 0x1171 JUMP JUMPDEST PUSH1 0x0 DUP6 DUP2 MSTORE PUSH1 0x20 DUP2 KECCAK256 PUSH1 0x1F NOT DUP7 AND SWAP2 JUMPDEST DUP3 DUP2 LT ISZERO PUSH2 0x3FF1 JUMPI DUP9 DUP7 ADD MLOAD DUP3 SSTORE SWAP5 DUP5 ADD SWAP5 PUSH1 0x1 SWAP1 SWAP2 ADD SWAP1 DUP5 ADD PUSH2 0x3FD2 JUMP JUMPDEST POP DUP6 DUP3 LT ISZERO PUSH2 0x400F JUMPI DUP8 DUP6 ADD MLOAD PUSH1 0x0 NOT PUSH1 0x3 DUP9 SWAP1 SHL PUSH1 0xF8 AND SHR NOT AND DUP2 SSTORE JUMPDEST POP POP POP POP POP PUSH1 0x1 SWAP1 DUP2 SHL ADD SWAP1 SSTORE POP JUMP JUMPDEST PUSH1 0x0 DUP3 MLOAD PUSH2 0x4031 DUP2 DUP5 PUSH1 0x20 DUP8 ADD PUSH2 0x39EC JUMP JUMPDEST SWAP2 SWAP1 SWAP2 ADD SWAP3 SWAP2 POP POP JUMP JUMPDEST PUSH1 0x60 DUP2 ADD PUSH2 0x4049 DUP3 DUP7 PUSH2 0x3A52 JUMP JUMPDEST PUSH1 0x1 PUSH1 0x1 PUSH1 0xA0 SHL SUB SWAP4 SWAP1 SWAP4 AND PUSH1 0x20 DUP3 ADD MSTORE PUSH1 0x40 ADD MSTORE SWAP2 SWAP1 POP JUMP JUMPDEST PUSH1 0x0 PUSH1 0xFF DUP3 AND DUP1 PUSH2 0x4076 JUMPI PUSH2 0x4076 PUSH2 0x3D3C JUMP JUMPDEST PUSH1 0x0 NOT ADD SWAP3 SWAP2 POP POP JUMP JUMPDEST PUSH1 0x1 DUP2 DUP2 JUMPDEST DUP1 DUP6 GT ISZERO PUSH2 0x40BB JUMPI DUP2 PUSH1 0x0 NOT DIV DUP3 GT ISZERO PUSH2 0x40A1 JUMPI PUSH2 0x40A1 PUSH2 0x3D3C JUMP JUMPDEST DUP1 DUP6 AND ISZERO PUSH2 0x40AE JUMPI SWAP2 DUP2 MUL SWAP2 JUMPDEST SWAP4 DUP5 SHR SWAP4 SWAP1 DUP1 MUL SWAP1 PUSH2 0x4085 JUMP JUMPDEST POP SWAP3 POP SWAP3 SWAP1 POP JUMP JUMPDEST PUSH1 0x0 DUP3 PUSH2 0x40D2 JUMPI POP PUSH1 0x1 PUSH2 0x654 JUMP JUMPDEST DUP2 PUSH2 0x40DF JUMPI POP PUSH1 0x0 PUSH2 0x654 JUMP JUMPDEST DUP2 PUSH1 0x1 DUP2 EQ PUSH2 0x40F5 JUMPI PUSH1 0x2 DUP2 EQ PUSH2 0x40FF JUMPI PUSH2 0x411B JUMP JUMPDEST PUSH1 0x1 SWAP2 POP POP PUSH2 0x654 JUMP JUMPDEST PUSH1 0xFF DUP5 GT ISZERO PUSH2 0x4110 JUMPI PUSH2 0x4110 PUSH2 0x3D3C JUMP JUMPDEST POP POP PUSH1 0x1 DUP3 SHL PUSH2 0x654 JUMP JUMPDEST POP PUSH1 0x20 DUP4 LT PUSH2 0x133 DUP4 LT AND PUSH1 0x4E DUP5 LT PUSH1 0xB DUP5 LT AND OR ISZERO PUSH2 0x413E JUMPI POP DUP2 DUP2 EXP PUSH2 0x654 JUMP JUMPDEST PUSH2 0x4148 DUP4 DUP4 PUSH2 0x4080 JUMP JUMPDEST DUP1 PUSH1 0x0 NOT DIV DUP3 GT ISZERO PUSH2 0x415C JUMPI PUSH2 0x415C PUSH2 0x3D3C JUMP JUMPDEST MUL SWAP4 SWAP3 POP POP POP JUMP JUMPDEST PUSH1 0x0 PUSH2 0x7AC PUSH1 0xFF DUP5 AND DUP4 PUSH2 0x40C3 JUMP JUMPDEST PUSH1 0xFF DUP3 DUP2 AND DUP3 DUP3 AND SUB SWAP1 DUP2 GT ISZERO PUSH2 0x654 JUMPI PUSH2 0x654 PUSH2 0x3D3C JUMP INVALID LOG2 PUSH5 0x6970667358 0x22 SLT KECCAK256 0xED PUSH28 0xA15F84E44A8CBDC50B1D89F40D2D65D904D2581D98D138EB24909845 OR ADD PUSH5 0x736F6C6343 STOP ADDMOD AND STOP CALLER "
		},
		"gasEstimates": {
			"creation": {
				"codeDepositCost": "3366800",
				"executionCost": "infinite",
				"totalCost": "infinite"
			},
			"external": {
				"assignPriceDAO(address)": "infinite",
				"clearOrders()": "infinite",
				"createBuyOrder(address)": "infinite",
				"createSellOrder(address,uint256)": "infinite",
				"deposit(address)": "24779",
				"depositToken(address,uint256)": "infinite",
				"depositTokenFrom(address,address,uint256)": "infinite",
				"getBalance()": "229",
				"listParityToken(address,address,uint256,uint256)": "infinite",
				"listToken(address,uint256,uint256,string)": "infinite",
				"listingCost()": "2428",
				"orders(uint256)": "15424",
				"owner()": "2382",
				"queryBalance(address,bool)": "2797",
				"settleOrders(address,bool)": "infinite",
				"takeBuyOrder(address,uint256)": "infinite",
				"takeSellOrder(address)": "infinite",
				"transferOwnership(address)": "28173",
				"updateTokenBalance(address)": "infinite",
				"viewOrder(uint256)": "18041",
				"viewOrderByMaker(address,uint256)": "infinite",
				"viewOrderByToken(address,uint256)": "infinite",
				"viewPrice()": "2336",
				"viewToken(address)": "infinite",
				"viewTokenByIndex(uint256)": "infinite"
			},
			"internal": {
				"_chargeForListing()": "infinite",
				"_createOrder(struct DexhuneExchangeBase.Token storage pointer,bool,uint256)": "infinite",
				"_depositToken(address,address,uint256)": "infinite",
				"_displayToken(uint256)": "infinite",
				"_ensurePrice()": "infinite",
				"_fetchStorageToken(address)": "infinite",
				"_fetchToken(address)": "infinite",
				"_findSuitableOrder(address,uint256)": "infinite",
				"_listToken(address,enum DexhuneExchangeBase.PricingScheme,uint256,uint256,address,string memory)": "infinite",
				"_makeOrderPayments(struct DexhuneExchangeBase.Order memory,struct DexhuneExchangeBase.Token memory,uint256,uint256)": "infinite",
				"_prepareToken(address,uint256,enum DexhuneExchangeBase.PricingScheme,address,uint256,uint256)": "infinite",
				"_revertOrder(struct DexhuneExchangeBase.Order memory,uint256)": "infinite",
				"_rewardTaker(struct DexhuneExchangeBase.Token memory,uint256)": "infinite",
				"_settleBuyOrder(struct DexhuneExchangeBase.Token memory,struct DexhuneExchangeBase.Order storage pointer,uint256,uint256)": "infinite",
				"_settleSellOrder(struct DexhuneExchangeBase.Token memory,struct DexhuneExchangeBase.Order storage pointer,uint256,uint256)": "infinite",
				"_takeOrder(struct DexhuneExchangeBase.Order storage pointer,bool,uint256,uint256,address)": "infinite"
			}
		},
		"methodIdentifiers": {
			"assignPriceDAO(address)": "86f179d2",
			"clearOrders()": "9351769f",
			"createBuyOrder(address)": "d2980065",
			"createSellOrder(address,uint256)": "a262b73f",
			"deposit(address)": "f340fa01",
			"depositToken(address,uint256)": "338b5dea",
			"depositTokenFrom(address,address,uint256)": "a08b5bba",
			"getBalance()": "12065fe0",
			"listParityToken(address,address,uint256,uint256)": "5264c8d9",
			"listToken(address,uint256,uint256,string)": "4d9ea07d",
			"listingCost()": "a5b6f92a",
			"orders(uint256)": "a85c38ef",
			"owner()": "8da5cb5b",
			"queryBalance(address,bool)": "3b174f0f",
			"settleOrders(address,bool)": "c201e47c",
			"takeBuyOrder(address,uint256)": "db34a679",
			"takeSellOrder(address)": "6daf6945",
			"transferOwnership(address)": "f2fde38b",
			"updateTokenBalance(address)": "87b337e8",
			"viewOrder(uint256)": "7c38d663",
			"viewOrderByMaker(address,uint256)": "076d782e",
			"viewOrderByToken(address,uint256)": "3ef73856",
			"viewPrice()": "d7dcdcec",
			"viewToken(address)": "673cf82a",
			"viewTokenByIndex(uint256)": "1f5d2641"
		}
	},
	"abi": [
		{
			"inputs": [],
			"stateMutability": "nonpayable",
			"type": "constructor"
		},
		{
			"inputs": [],
			"name": "DepositFailed",
			"type": "error"
		},
		{
			"inputs": [],
			"name": "FailedStringToNumberConversion",
			"type": "error"
		},
		{
			"inputs": [],
			"name": "FailedToSendReward",
			"type": "error"
		},
		{
			"inputs": [],
			"name": "FailedToTakeOrder",
			"type": "error"
		},
		{
			"inputs": [
				{
					"internalType": "uint256",
					"name": "balance",
					"type": "uint256"
				}
			],
			"name": "InsufficientBalance",
			"type": "error"
		},
		{
			"inputs": [
				{
					"internalType": "uint256",
					"name": "listingPrice",
					"type": "uint256"
				}
			],
			"name": "InsufficientBalanceForListing",
			"type": "error"
		},
		{
			"inputs": [],
			"name": "InvalidTokenContract",
			"type": "error"
		},
		{
			"inputs": [
				{
					"internalType": "uint256",
					"name": "x",
					"type": "uint256"
				},
				{
					"internalType": "uint256",
					"name": "y",
					"type": "uint256"
				}
			],
			"name": "MulDiv18Overflow",
			"type": "error"
		},
		{
			"inputs": [
				{
					"internalType": "uint256",
					"name": "x",
					"type": "uint256"
				},
				{
					"internalType": "uint256",
					"name": "y",
					"type": "uint256"
				},
				{
					"internalType": "uint256",
					"name": "denominator",
					"type": "uint256"
				}
			],
			"name": "MulDivOverflow",
			"type": "error"
		},
		{
			"inputs": [],
			"name": "NoSuitableOrderFound",
			"type": "error"
		},
		{
			"inputs": [],
			"name": "OnlyOwnerMustSetDefaultToken",
			"type": "error"
		},
		{
			"inputs": [],
			"name": "OrderDoesNotExist",
			"type": "error"
		},
		{
			"inputs": [],
			"name": "OrderLimitReachedTryLater",
			"type": "error"
		},
		{
			"inputs": [],
			"name": "ParityShouldNotHavePrice",
			"type": "error"
		},
		{
			"inputs": [],
			"name": "RejectedZeroAmount",
			"type": "error"
		},
		{
			"inputs": [
				{
					"internalType": "address",
					"name": "contractAddr",
					"type": "address"
				}
			],
			"name": "TokenAlreadyExists",
			"type": "error"
		},
		{
			"inputs": [],
			"name": "TokenLimitReached",
			"type": "error"
		},
		{
			"inputs": [],
			"name": "TokenNotListed",
			"type": "error"
		},
		{
			"inputs": [],
			"name": "TokenNotSupported_TooManyDecimals",
			"type": "error"
		},
		{
			"inputs": [
				{
					"internalType": "address",
					"name": "account",
					"type": "address"
				}
			],
			"name": "UnauthorizedAccount",
			"type": "error"
		},
		{
			"anonymous": false,
			"inputs": [
				{
					"indexed": false,
					"internalType": "uint256",
					"name": "amount",
					"type": "uint256"
				},
				{
					"indexed": false,
					"internalType": "address",
					"name": "targetAddr",
					"type": "address"
				}
			],
			"name": "AVAXTransferred",
			"type": "event"
		},
		{
			"anonymous": false,
			"inputs": [
				{
					"indexed": false,
					"internalType": "address",
					"name": "addr",
					"type": "address"
				}
			],
			"name": "AssignedPriceDAO",
			"type": "event"
		},
		{
			"anonymous": false,
			"inputs": [
				{
					"indexed": false,
					"internalType": "uint256",
					"name": "index",
					"type": "uint256"
				},
				{
					"indexed": false,
					"internalType": "bool",
					"name": "orderType",
					"type": "bool"
				},
				{
					"indexed": false,
					"internalType": "address",
					"name": "tokenAddr",
					"type": "address"
				},
				{
					"indexed": false,
					"internalType": "uint256",
					"name": "amount",
					"type": "uint256"
				},
				{
					"indexed": false,
					"internalType": "uint256",
					"name": "price",
					"type": "uint256"
				}
			],
			"name": "OrderCreated",
			"type": "event"
		},
		{
			"anonymous": false,
			"inputs": [
				{
					"indexed": false,
					"internalType": "uint256",
					"name": "index",
					"type": "uint256"
				},
				{
					"indexed": false,
					"internalType": "bool",
					"name": "orderType",
					"type": "bool"
				},
				{
					"indexed": false,
					"internalType": "address",
					"name": "maker",
					"type": "address"
				}
			],
			"name": "OrderReverted",
			"type": "event"
		},
		{
			"anonymous": false,
			"inputs": [
				{
					"indexed": false,
					"internalType": "uint256",
					"name": "index",
					"type": "uint256"
				},
				{
					"indexed": false,
					"internalType": "bool",
					"name": "orderType",
					"type": "bool"
				},
				{
					"indexed": false,
					"internalType": "address",
					"name": "maker",
					"type": "address"
				},
				{
					"indexed": false,
					"internalType": "bool",
					"name": "isPartial",
					"type": "bool"
				}
			],
			"name": "OrderSettled",
			"type": "event"
		},
		{
			"anonymous": false,
			"inputs": [
				{
					"indexed": false,
					"internalType": "uint256",
					"name": "index",
					"type": "uint256"
				},
				{
					"indexed": false,
					"internalType": "bool",
					"name": "orderType",
					"type": "bool"
				},
				{
					"indexed": false,
					"internalType": "address",
					"name": "maker",
					"type": "address"
				},
				{
					"indexed": false,
					"internalType": "address",
					"name": "taker",
					"type": "address"
				},
				{
					"indexed": false,
					"internalType": "address",
					"name": "token",
					"type": "address"
				},
				{
					"indexed": false,
					"internalType": "uint256",
					"name": "amount",
					"type": "uint256"
				},
				{
					"indexed": false,
					"internalType": "bool",
					"name": "isPartial",
					"type": "bool"
				}
			],
			"name": "OrderTaken",
			"type": "event"
		},
		{
			"anonymous": false,
			"inputs": [
				{
					"indexed": true,
					"internalType": "string",
					"name": "name",
					"type": "string"
				},
				{
					"indexed": true,
					"internalType": "string",
					"name": "symbol",
					"type": "string"
				},
				{
					"indexed": false,
					"internalType": "enum DexhuneExchangeBase.PricingScheme",
					"name": "pricingScheme",
					"type": "uint8"
				},
				{
					"indexed": false,
					"internalType": "address",
					"name": "addr",
					"type": "address"
				},
				{
					"indexed": false,
					"internalType": "uint256",
					"name": "index",
					"type": "uint256"
				}
			],
			"name": "TokenListed",
			"type": "event"
		},
		{
			"anonymous": false,
			"inputs": [
				{
					"indexed": false,
					"internalType": "uint256",
					"name": "amount",
					"type": "uint256"
				},
				{
					"indexed": false,
					"internalType": "address",
					"name": "targetAddr",
					"type": "address"
				},
				{
					"indexed": false,
					"internalType": "address",
					"name": "tokenAddr",
					"type": "address"
				}
			],
			"name": "TokenTransferred",
			"type": "event"
		},
		{
			"anonymous": false,
			"inputs": [
				{
					"indexed": false,
					"internalType": "address",
					"name": "oldOwner",
					"type": "address"
				},
				{
					"indexed": false,
					"internalType": "address",
					"name": "newOwner",
					"type": "address"
				}
			],
			"name": "TransferredOwnership",
			"type": "event"
		},
		{
			"inputs": [
				{
					"internalType": "address",
					"name": "addr",
					"type": "address"
				}
			],
			"name": "assignPriceDAO",
			"outputs": [],
			"stateMutability": "nonpayable",
			"type": "function"
		},
		{
			"inputs": [],
			"name": "clearOrders",
			"outputs": [],
			"stateMutability": "nonpayable",
			"type": "function"
		},
		{
			"inputs": [
				{
					"internalType": "address",
					"name": "tokenAddr",
					"type": "address"
				}
			],
			"name": "createBuyOrder",
			"outputs": [],
			"stateMutability": "payable",
			"type": "function"
		},
		{
			"inputs": [
				{
					"internalType": "address",
					"name": "tokenAddr",
					"type": "address"
				},
				{
					"internalType": "uint256",
					"name": "amount",
					"type": "uint256"
				}
			],
			"name": "createSellOrder",
			"outputs": [],
			"stateMutability": "nonpayable",
			"type": "function"
		},
		{
			"inputs": [
				{
					"internalType": "address",
					"name": "tokenAddr",
					"type": "address"
				}
			],
			"name": "deposit",
			"outputs": [],
			"stateMutability": "payable",
			"type": "function"
		},
		{
			"inputs": [
				{
					"internalType": "address",
					"name": "tokenAddr",
					"type": "address"
				},
				{
					"internalType": "uint256",
					"name": "amount",
					"type": "uint256"
				}
			],
			"name": "depositToken",
			"outputs": [],
			"stateMutability": "nonpayable",
			"type": "function"
		},
		{
			"inputs": [
				{
					"internalType": "address",
					"name": "tokenAddr",
					"type": "address"
				},
				{
					"internalType": "address",
					"name": "fromAddress",
					"type": "address"
				},
				{
					"internalType": "uint256",
					"name": "amount",
					"type": "uint256"
				}
			],
			"name": "depositTokenFrom",
			"outputs": [],
			"stateMutability": "nonpayable",
			"type": "function"
		},
		{
			"inputs": [],
			"name": "getBalance",
			"outputs": [
				{
					"internalType": "uint256",
					"name": "",
					"type": "uint256"
				}
			],
			"stateMutability": "view",
			"type": "function"
		},
		{
			"inputs": [
				{
					"internalType": "address",
					"name": "tokenAddr",
					"type": "address"
				},
				{
					"internalType": "address",
					"name": "parityAddr",
					"type": "address"
				},
				{
					"internalType": "uint256",
					"name": "reward",
					"type": "uint256"
				},
				{
					"internalType": "uint256",
					"name": "rewardThreshold",
					"type": "uint256"
				}
			],
			"name": "listParityToken",
			"outputs": [],
			"stateMutability": "nonpayable",
			"type": "function"
		},
		{
			"inputs": [
				{
					"internalType": "address",
					"name": "tokenAddr",
					"type": "address"
				},
				{
					"internalType": "uint256",
					"name": "reward",
					"type": "uint256"
				},
				{
					"internalType": "uint256",
					"name": "rewardThreshold",
					"type": "uint256"
				},
				{
					"internalType": "string",
					"name": "price",
					"type": "string"
				}
			],
			"name": "listToken",
			"outputs": [],
			"stateMutability": "nonpayable",
			"type": "function"
		},
		{
			"inputs": [],
			"name": "listingCost",
			"outputs": [
				{
					"internalType": "uint256",
					"name": "",
					"type": "uint256"
				}
			],
			"stateMutability": "view",
			"type": "function"
		},
		{
			"inputs": [
				{
					"internalType": "uint256",
					"name": "",
					"type": "uint256"
				}
			],
			"name": "orders",
			"outputs": [
				{
					"internalType": "address payable",
					"name": "makerAddr",
					"type": "address"
				},
				{
					"internalType": "address",
					"name": "tokenAddr",
					"type": "address"
				},
				{
					"internalType": "bool",
					"name": "orderType",
					"type": "bool"
				},
				{
					"internalType": "uint256",
					"name": "created",
					"type": "uint256"
				},
				{
					"internalType": "uint256",
					"name": "price",
					"type": "uint256"
				},
				{
					"internalType": "uint256",
					"name": "principal",
					"type": "uint256"
				},
				{
					"internalType": "uint256",
					"name": "pending",
					"type": "uint256"
				}
			],
			"stateMutability": "view",
			"type": "function"
		},
		{
			"inputs": [],
			"name": "owner",
			"outputs": [
				{
					"internalType": "address",
					"name": "",
					"type": "address"
				}
			],
			"stateMutability": "view",
			"type": "function"
		},
		{
			"inputs": [
				{
					"internalType": "address",
					"name": "tokenAddr",
					"type": "address"
				},
				{
					"internalType": "bool",
					"name": "isAVAX",
					"type": "bool"
				}
			],
			"name": "queryBalance",
			"outputs": [
				{
					"internalType": "uint256",
					"name": "",
					"type": "uint256"
				}
			],
			"stateMutability": "view",
			"type": "function"
		},
		{
			"inputs": [
				{
					"internalType": "address",
					"name": "tokenAddr",
					"type": "address"
				},
				{
					"internalType": "bool",
					"name": "orderType",
					"type": "bool"
				}
			],
			"name": "settleOrders",
			"outputs": [],
			"stateMutability": "nonpayable",
			"type": "function"
		},
		{
			"inputs": [
				{
					"internalType": "address",
					"name": "tokenAddr",
					"type": "address"
				},
				{
					"internalType": "uint256",
					"name": "amount",
					"type": "uint256"
				}
			],
			"name": "takeBuyOrder",
			"outputs": [],
			"stateMutability": "nonpayable",
			"type": "function"
		},
		{
			"inputs": [
				{
					"internalType": "address",
					"name": "tokenAddr",
					"type": "address"
				}
			],
			"name": "takeSellOrder",
			"outputs": [],
			"stateMutability": "payable",
			"type": "function"
		},
		{
			"inputs": [
				{
					"internalType": "address",
					"name": "_address",
					"type": "address"
				}
			],
			"name": "transferOwnership",
			"outputs": [],
			"stateMutability": "nonpayable",
			"type": "function"
		},
		{
			"inputs": [
				{
					"internalType": "address",
					"name": "tokenAddr",
					"type": "address"
				}
			],
			"name": "updateTokenBalance",
			"outputs": [],
			"stateMutability": "nonpayable",
			"type": "function"
		},
		{
			"inputs": [
				{
					"internalType": "uint256",
					"name": "index",
					"type": "uint256"
				}
			],
			"name": "viewOrder",
			"outputs": [
				{
					"components": [
						{
							"internalType": "address payable",
							"name": "makerAddr",
							"type": "address"
						},
						{
							"internalType": "address",
							"name": "tokenAddr",
							"type": "address"
						},
						{
							"internalType": "bool",
							"name": "orderType",
							"type": "bool"
						},
						{
							"internalType": "uint256",
							"name": "created",
							"type": "uint256"
						},
						{
							"internalType": "uint256",
							"name": "price",
							"type": "uint256"
						},
						{
							"internalType": "uint256",
							"name": "principal",
							"type": "uint256"
						},
						{
							"internalType": "uint256",
							"name": "pending",
							"type": "uint256"
						}
					],
					"internalType": "struct DexhuneExchangeBase.Order",
					"name": "",
					"type": "tuple"
				}
			],
			"stateMutability": "view",
			"type": "function"
		},
		{
			"inputs": [
				{
					"internalType": "address",
					"name": "makerAddr",
					"type": "address"
				},
				{
					"internalType": "uint256",
					"name": "index",
					"type": "uint256"
				}
			],
			"name": "viewOrderByMaker",
			"outputs": [
				{
					"components": [
						{
							"internalType": "address payable",
							"name": "makerAddr",
							"type": "address"
						},
						{
							"internalType": "address",
							"name": "tokenAddr",
							"type": "address"
						},
						{
							"internalType": "bool",
							"name": "orderType",
							"type": "bool"
						},
						{
							"internalType": "uint256",
							"name": "created",
							"type": "uint256"
						},
						{
							"internalType": "uint256",
							"name": "price",
							"type": "uint256"
						},
						{
							"internalType": "uint256",
							"name": "principal",
							"type": "uint256"
						},
						{
							"internalType": "uint256",
							"name": "pending",
							"type": "uint256"
						}
					],
					"internalType": "struct DexhuneExchangeBase.Order",
					"name": "",
					"type": "tuple"
				}
			],
			"stateMutability": "view",
			"type": "function"
		},
		{
			"inputs": [
				{
					"internalType": "address",
					"name": "tokenAddr",
					"type": "address"
				},
				{
					"internalType": "uint256",
					"name": "index",
					"type": "uint256"
				}
			],
			"name": "viewOrderByToken",
			"outputs": [
				{
					"components": [
						{
							"internalType": "address payable",
							"name": "makerAddr",
							"type": "address"
						},
						{
							"internalType": "address",
							"name": "tokenAddr",
							"type": "address"
						},
						{
							"internalType": "bool",
							"name": "orderType",
							"type": "bool"
						},
						{
							"internalType": "uint256",
							"name": "created",
							"type": "uint256"
						},
						{
							"internalType": "uint256",
							"name": "price",
							"type": "uint256"
						},
						{
							"internalType": "uint256",
							"name": "principal",
							"type": "uint256"
						},
						{
							"internalType": "uint256",
							"name": "pending",
							"type": "uint256"
						}
					],
					"internalType": "struct DexhuneExchangeBase.Order",
					"name": "",
					"type": "tuple"
				}
			],
			"stateMutability": "view",
			"type": "function"
		},
		{
			"inputs": [],
			"name": "viewPrice",
			"outputs": [
				{
					"internalType": "uint256",
					"name": "",
					"type": "uint256"
				}
			],
			"stateMutability": "view",
			"type": "function"
		},
		{
			"inputs": [
				{
					"internalType": "address",
					"name": "tokenAddr",
					"type": "address"
				}
			],
			"name": "viewToken",
			"outputs": [
				{
					"components": [
						{
							"internalType": "uint256",
							"name": "tokenNo",
							"type": "uint256"
						},
						{
							"internalType": "string",
							"name": "name",
							"type": "string"
						},
						{
							"internalType": "string",
							"name": "sym",
							"type": "string"
						},
						{
							"internalType": "address",
							"name": "addr",
							"type": "address"
						},
						{
							"internalType": "address",
							"name": "parityAddr",
							"type": "address"
						},
						{
							"internalType": "uint256",
							"name": "reward",
							"type": "uint256"
						},
						{
							"internalType": "uint256",
							"name": "rewardThreshold",
							"type": "uint256"
						},
						{
							"internalType": "enum DexhuneExchangeBase.PricingScheme",
							"name": "scheme",
							"type": "uint8"
						},
						{
							"internalType": "uint256",
							"name": "price",
							"type": "uint256"
						},
						{
							"internalType": "uint256",
							"name": "orders",
							"type": "uint256"
						}
					],
					"internalType": "struct DexhuneExchangeBase.TokenDataModel",
					"name": "",
					"type": "tuple"
				}
			],
			"stateMutability": "view",
			"type": "function"
		},
		{
			"inputs": [
				{
					"internalType": "uint256",
					"name": "tokenNo",
					"type": "uint256"
				}
			],
			"name": "viewTokenByIndex",
			"outputs": [
				{
					"components": [
						{
							"internalType": "uint256",
							"name": "tokenNo",
							"type": "uint256"
						},
						{
							"internalType": "string",
							"name": "name",
							"type": "string"
						},
						{
							"internalType": "string",
							"name": "sym",
							"type": "string"
						},
						{
							"internalType": "address",
							"name": "addr",
							"type": "address"
						},
						{
							"internalType": "address",
							"name": "parityAddr",
							"type": "address"
						},
						{
							"internalType": "uint256",
							"name": "reward",
							"type": "uint256"
						},
						{
							"internalType": "uint256",
							"name": "rewardThreshold",
							"type": "uint256"
						},
						{
							"internalType": "enum DexhuneExchangeBase.PricingScheme",
							"name": "scheme",
							"type": "uint8"
						},
						{
							"internalType": "uint256",
							"name": "price",
							"type": "uint256"
						},
						{
							"internalType": "uint256",
							"name": "orders",
							"type": "uint256"
						}
					],
					"internalType": "struct DexhuneExchangeBase.TokenDataModel",
					"name": "",
					"type": "tuple"
				}
			],
			"stateMutability": "view",
			"type": "function"
		}
	]
}