{
	"data": {
		"bytecode": {
			"linkReferences": {},
			"object": "60806040525f805460ff1916600117905561001c6002603c610042565b60015534801561002a575f80fd5b50600280546001600160a01b0319163317905561006b565b808202811582820484141761006557634e487b7160e01b5f52601160045260245ffd5b92915050565b6110ac806100785f395ff3fe608060405234801561000f575f80fd5b50600436106100e5575f3560e01c806398d5fdca11610088578063befd9bc111610063578063befd9bc1146101dc578063c2d52751146101ef578063f2fde38b14610202578063fdbda0ec14610215575f80fd5b806398d5fdca146101ae5780639d6a6d5d146101c0578063bbf79246146101d3575f80fd5b806368f16293116100c357806368f16293146101415780637c14a4181461015d5780638b98ecaa146101705780638da5cb5b14610183575f80fd5b80631068779e146100e95780635a05db15146100fe578063605c736e14610111575b5f80fd5b6100fc6100f7366004610ce9565b61023d565b005b6100fc61010c366004610d7d565b6103c6565b61012461011f366004610d7d565b610634565b604051610138989796959493929190610dd7565b60405180910390f35b5f5461014d9060ff1681565b6040519015158152602001610138565b6100fc61016b366004610e39565b610700565b6100fc61017e366004610d7d565b61071a565b600254610196906001600160a01b031681565b6040516001600160a01b039091168152602001610138565b6005545b604051908152602001610138565b6100fc6101ce366004610e59565b610870565b6101b260015481565b6100fc6101ea366004610e99565b610a1b565b6100fc6101fd366004610d7d565b610b72565b6100fc610210366004610f54565b610b7f565b610196610223366004610d7d565b60046020525f90815260409020546001600160a01b031681565b5f60075f60065481526020019081526020015f20604051806101000160405290815f820154815260200160018201805461027690610f6d565b80601f01602080910402602001604051908101604052809291908181526020018280546102a290610f6d565b80156102ed5780601f106102c4576101008083540402835291602001916102ed565b820191905f5260205f20905b8154815290600101906020018083116102d057829003601f168201915b505050918352505060028281015460208084019190915260038401546040840152600484015460608401526005840154608084015260068085015460a085015260079094015460ff16151560c09384015292548452918301869052820184905290915061035d9061012c90610fb9565b6103679043610fd6565b8160400181815250507fc8c078bfee58e5822588f08b4509ed1eb5058e03f666cca84dd2d44bf5c288a860065484336040516103a593929190610fe9565b60405180910390a160068054905f6103bc83611019565b9190505550505050565b5f60075f8381526020019081526020015f20604051806101000160405290815f82015481526020016001820180546103fd90610f6d565b80601f016020809104026020016040519081016040528092919081815260200182805461042990610f6d565b80156104745780601f1061044b57610100808354040283529160200191610474565b820191905f5260205f20905b81548152906001019060200180831161045757829003601f168201915b50505091835250506002820154602082015260038201546040808301919091526004830154606083015260058301546080830152600683015460a083015260079092015460ff16151560c090910152810151909150156104ef5760405162461bcd60e51b81526004016104e690611031565b60405180910390fd5b806040015143106105515760405162461bcd60e51b815260206004820152602660248201527f546865207265717565737465642070726f706f73616c206973207374696c6c2060448201526561637469766560d01b60648201526084016104e6565b8060e001511561055f575050565b8060800151816060015111156105f7576005805460c083015190915560408051848152600160208201527fb5ac567fcf1b069e0235e4f16734625c6cf54c1b40517fd9eb85517f6e1265a7910160405180910390a16005546040805183815260208101929092527f945c1c4e99aa89f648fbfe3df471b916f719e16d960fcec0737d4d56bd69683891015b60405180910390a1505050565b604080518381525f60208201527fb5ac567fcf1b069e0235e4f16734625c6cf54c1b40517fd9eb85517f6e1265a791015b60405180910390a15050565b60076020525f90815260409020805460018201805491929161065590610f6d565b80601f016020809104026020016040519081016040528092919081815260200182805461068190610f6d565b80156106cc5780601f106106a3576101008083540402835291602001916106cc565b820191905f5260205f20905b8154815290600101906020018083116106af57829003601f168201915b5050506002840154600385015460048601546005870154600688015460079098015496979396929550909350919060ff1688565b610708610be1565b5f805460ff1916911515919091179055565b610722610be1565b5f8181526004602090815260408083208151808301835281546001600160a01b03168152600182018054845181870281018701909552808552919492938584019390929083018282801561079d57602002820191905f5260205f20905b81546001600160a01b0316815260019091019060200180831161077f575b5050509190925250508151919250506001600160a01b0316156108155760405162461bcd60e51b815260206004820152602a60248201527f5468652070726f7669646564204e465420636f6c6c656374696f6e20646f6573604482015269081b9bdd08195e1a5cdd60b21b60648201526084016104e6565b5f82815260046020526040812080546001600160a01b03191681559061083e6001830182610c6e565b50506040518281527f8c74e0ebf8a931dc8bf3bb8645415e579244a93c7523a035a3773983a2097b3d90602001610628565b60405162461bcd60e51b815260206004820152601d60248201527f596f7520617265206e6f7420656c696769626c6520746f20766f74652e00000060448201526064016104e6565b8154815290600101906020018083116108b85750505091835250506002820154602082015260038201546040808301919091526004830154606083015260058301546080830152600683015460a083015260079092015460ff16151560c0909101528101519091501561093d5760405162461bcd60e51b81526004016104e690611031565b80604001514310156109a75760405162461bcd60e51b815260206004820152602d60248201527f566f74696e6720686173206265656e20646561637469766174656420666f722060448201526c1d1a1a5cc81c1c9bdc1bdcd85b609a1b60648201526084016104e6565b81156109c557606081018051906109bd82611019565b9052506109d9565b608081018051906109d582611019565b9052505b6040805133815260208101859052831515918101919091527fd356173ae8eeea8691aee4c1be712c314a975a3d43ebc48b08ca54d0dac91228906060016105ea565b610a23610be1565b6001600160a01b038216610a905760405162461bcd60e51b815260206004820152602e60248201527f416e204e465420636f6c6c656374696f6e2063616e6e6f74206861766520616e60448201526d20656d707479206164647265737360901b60648201526084016104e6565b6003545f9081526004602090815260408083208151808301835281546001600160a01b031681526001820180548451818702810187019095528085529194929385840193909290830182828015610b0e57602002820191905f5260205f20905b81546001600160a01b03168152600190910190602001808311610af0575b505050919092525050506001600160a01b038416815260208082018490526003546040519081529192507f9f90aaa1d3087c2bda1b0861ea1f4a397f9abbb0fb2ad64794fc4d0b1c9bff34910160405180910390a160038054905f6103bc83611019565b610b7a610be1565b600155565b610b87610be1565b600280546001600160a01b038381166001600160a01b031983168117909355604080519190921680825260208201939093527fa77b1597453f945cb89178ec89d7d37698b9f9b07adbbb854775e48131186d259101610628565b6002546001600160a01b03163314610c6c5760405162461bcd60e51b815260206004820152604260248201527f54686973206d6574686f642063616e206f6e6c792062652063616c6c6564206260448201527f7920746865206f776e6572206f66207468697320736d61727420636f6e74726160648201526118dd60f21b608482015260a4016104e6565b565b5080545f8255905f5260205f2090810190610c899190610c8c565b50565b5b80821115610ca0575f8155600101610c8d565b5090565b634e487b7160e01b5f52604160045260245ffd5b604051601f8201601f1916810167ffffffffffffffff81118282101715610ce157610ce1610ca4565b604052919050565b5f8060408385031215610cfa575f80fd5b823567ffffffffffffffff80821115610d11575f80fd5b818501915085601f830112610d24575f80fd5b8135602082821115610d3857610d38610ca4565b610d4a601f8301601f19168201610cb8565b92508183528781838601011115610d5f575f80fd5b81818501828501375f91830181019190915290969401359450505050565b5f60208284031215610d8d575f80fd5b5035919050565b5f81518084525f5b81811015610db857602081850181015186830182015201610d9c565b505f602082860101526020601f19601f83011685010191505092915050565b5f6101008a8352806020840152610df08184018b610d94565b604084019990995250506060810195909552608085019390935260a084019190915260c0830152151560e09091015292915050565b80358015158114610e34575f80fd5b919050565b5f60208284031215610e49575f80fd5b610e5282610e25565b9392505050565b5f8060408385031215610e6a575f80fd5b82359150610e7a60208401610e25565b90509250929050565b80356001600160a01b0381168114610e34575f80fd5b5f8060408385031215610eaa575f80fd5b610eb383610e83565b915060208084013567ffffffffffffffff80821115610ed0575f80fd5b818601915086601f830112610ee3575f80fd5b813581811115610ef557610ef5610ca4565b8060051b9150610f06848301610cb8565b8181529183018401918481019089841115610f1f575f80fd5b938501935b83851015610f4457610f3585610e83565b82529385019390850190610f24565b8096505050505050509250929050565b5f60208284031215610f64575f80fd5b610e5282610e83565b600181811c90821680610f8157607f821691505b602082108103610f9f57634e487b7160e01b5f52602260045260245ffd5b50919050565b634e487b7160e01b5f52601160045260245ffd5b8082028115828204841417610fd057610fd0610fa5565b92915050565b80820180821115610fd057610fd0610fa5565b838152606060208201525f6110016060830185610d94565b905060018060a01b0383166040830152949350505050565b5f6001820161102a5761102a610fa5565b5060010190565b60208082526025908201527f546865207265717565737465642070726f706f73616c20646f6573206e6f7420604082015264195e1a5cdd60da1b60608201526080019056fea2646970667358221220f5999ac3101719bc17cf4ab7f47b6ad57e804dae549f4728e7e65b6432e6c21164736f6c63430008150033",
			"opcodes": "PUSH1 0x80 PUSH1 0x40 MSTORE PUSH0 DUP1 SLOAD PUSH1 0xFF NOT AND PUSH1 0x1 OR SWAP1 SSTORE PUSH2 0x1C PUSH1 0x2 PUSH1 0x3C PUSH2 0x42 JUMP JUMPDEST PUSH1 0x1 SSTORE CALLVALUE DUP1 ISZERO PUSH2 0x2A JUMPI PUSH0 DUP1 REVERT JUMPDEST POP PUSH1 0x2 DUP1 SLOAD PUSH1 0x1 PUSH1 0x1 PUSH1 0xA0 SHL SUB NOT AND CALLER OR SWAP1 SSTORE PUSH2 0x6B JUMP JUMPDEST DUP1 DUP3 MUL DUP2 ISZERO DUP3 DUP3 DIV DUP5 EQ OR PUSH2 0x65 JUMPI PUSH4 0x4E487B71 PUSH1 0xE0 SHL PUSH0 MSTORE PUSH1 0x11 PUSH1 0x4 MSTORE PUSH1 0x24 PUSH0 REVERT JUMPDEST SWAP3 SWAP2 POP POP JUMP JUMPDEST PUSH2 0x10AC DUP1 PUSH2 0x78 PUSH0 CODECOPY PUSH0 RETURN INVALID PUSH1 0x80 PUSH1 0x40 MSTORE CALLVALUE DUP1 ISZERO PUSH2 0xF JUMPI PUSH0 DUP1 REVERT JUMPDEST POP PUSH1 0x4 CALLDATASIZE LT PUSH2 0xE5 JUMPI PUSH0 CALLDATALOAD PUSH1 0xE0 SHR DUP1 PUSH4 0x98D5FDCA GT PUSH2 0x88 JUMPI DUP1 PUSH4 0xBEFD9BC1 GT PUSH2 0x63 JUMPI DUP1 PUSH4 0xBEFD9BC1 EQ PUSH2 0x1DC JUMPI DUP1 PUSH4 0xC2D52751 EQ PUSH2 0x1EF JUMPI DUP1 PUSH4 0xF2FDE38B EQ PUSH2 0x202 JUMPI DUP1 PUSH4 0xFDBDA0EC EQ PUSH2 0x215 JUMPI PUSH0 DUP1 REVERT JUMPDEST DUP1 PUSH4 0x98D5FDCA EQ PUSH2 0x1AE JUMPI DUP1 PUSH4 0x9D6A6D5D EQ PUSH2 0x1C0 JUMPI DUP1 PUSH4 0xBBF79246 EQ PUSH2 0x1D3 JUMPI PUSH0 DUP1 REVERT JUMPDEST DUP1 PUSH4 0x68F16293 GT PUSH2 0xC3 JUMPI DUP1 PUSH4 0x68F16293 EQ PUSH2 0x141 JUMPI DUP1 PUSH4 0x7C14A418 EQ PUSH2 0x15D JUMPI DUP1 PUSH4 0x8B98ECAA EQ PUSH2 0x170 JUMPI DUP1 PUSH4 0x8DA5CB5B EQ PUSH2 0x183 JUMPI PUSH0 DUP1 REVERT JUMPDEST DUP1 PUSH4 0x1068779E EQ PUSH2 0xE9 JUMPI DUP1 PUSH4 0x5A05DB15 EQ PUSH2 0xFE JUMPI DUP1 PUSH4 0x605C736E EQ PUSH2 0x111 JUMPI JUMPDEST PUSH0 DUP1 REVERT JUMPDEST PUSH2 0xFC PUSH2 0xF7 CALLDATASIZE PUSH1 0x4 PUSH2 0xCE9 JUMP JUMPDEST PUSH2 0x23D JUMP JUMPDEST STOP JUMPDEST PUSH2 0xFC PUSH2 0x10C CALLDATASIZE PUSH1 0x4 PUSH2 0xD7D JUMP JUMPDEST PUSH2 0x3C6 JUMP JUMPDEST PUSH2 0x124 PUSH2 0x11F CALLDATASIZE PUSH1 0x4 PUSH2 0xD7D JUMP JUMPDEST PUSH2 0x634 JUMP JUMPDEST PUSH1 0x40 MLOAD PUSH2 0x138 SWAP9 SWAP8 SWAP7 SWAP6 SWAP5 SWAP4 SWAP3 SWAP2 SWAP1 PUSH2 0xDD7 JUMP JUMPDEST PUSH1 0x40 MLOAD DUP1 SWAP2 SUB SWAP1 RETURN JUMPDEST PUSH0 SLOAD PUSH2 0x14D SWAP1 PUSH1 0xFF AND DUP2 JUMP JUMPDEST PUSH1 0x40 MLOAD SWAP1 ISZERO ISZERO DUP2 MSTORE PUSH1 0x20 ADD PUSH2 0x138 JUMP JUMPDEST PUSH2 0xFC PUSH2 0x16B CALLDATASIZE PUSH1 0x4 PUSH2 0xE39 JUMP JUMPDEST PUSH2 0x700 JUMP JUMPDEST PUSH2 0xFC PUSH2 0x17E CALLDATASIZE PUSH1 0x4 PUSH2 0xD7D JUMP JUMPDEST PUSH2 0x71A JUMP JUMPDEST PUSH1 0x2 SLOAD PUSH2 0x196 SWAP1 PUSH1 0x1 PUSH1 0x1 PUSH1 0xA0 SHL SUB AND DUP2 JUMP JUMPDEST PUSH1 0x40 MLOAD PUSH1 0x1 PUSH1 0x1 PUSH1 0xA0 SHL SUB SWAP1 SWAP2 AND DUP2 MSTORE PUSH1 0x20 ADD PUSH2 0x138 JUMP JUMPDEST PUSH1 0x5 SLOAD JUMPDEST PUSH1 0x40 MLOAD SWAP1 DUP2 MSTORE PUSH1 0x20 ADD PUSH2 0x138 JUMP JUMPDEST PUSH2 0xFC PUSH2 0x1CE CALLDATASIZE PUSH1 0x4 PUSH2 0xE59 JUMP JUMPDEST PUSH2 0x870 JUMP JUMPDEST PUSH2 0x1B2 PUSH1 0x1 SLOAD DUP2 JUMP JUMPDEST PUSH2 0xFC PUSH2 0x1EA CALLDATASIZE PUSH1 0x4 PUSH2 0xE99 JUMP JUMPDEST PUSH2 0xA1B JUMP JUMPDEST PUSH2 0xFC PUSH2 0x1FD CALLDATASIZE PUSH1 0x4 PUSH2 0xD7D JUMP JUMPDEST PUSH2 0xB72 JUMP JUMPDEST PUSH2 0xFC PUSH2 0x210 CALLDATASIZE PUSH1 0x4 PUSH2 0xF54 JUMP JUMPDEST PUSH2 0xB7F JUMP JUMPDEST PUSH2 0x196 PUSH2 0x223 CALLDATASIZE PUSH1 0x4 PUSH2 0xD7D JUMP JUMPDEST PUSH1 0x4 PUSH1 0x20 MSTORE PUSH0 SWAP1 DUP2 MSTORE PUSH1 0x40 SWAP1 KECCAK256 SLOAD PUSH1 0x1 PUSH1 0x1 PUSH1 0xA0 SHL SUB AND DUP2 JUMP JUMPDEST PUSH0 PUSH1 0x7 PUSH0 PUSH1 0x6 SLOAD DUP2 MSTORE PUSH1 0x20 ADD SWAP1 DUP2 MSTORE PUSH1 0x20 ADD PUSH0 KECCAK256 PUSH1 0x40 MLOAD DUP1 PUSH2 0x100 ADD PUSH1 0x40 MSTORE SWAP1 DUP2 PUSH0 DUP3 ADD SLOAD DUP2 MSTORE PUSH1 0x20 ADD PUSH1 0x1 DUP3 ADD DUP1 SLOAD PUSH2 0x276 SWAP1 PUSH2 0xF6D JUMP JUMPDEST DUP1 PUSH1 0x1F ADD PUSH1 0x20 DUP1 SWAP2 DIV MUL PUSH1 0x20 ADD PUSH1 0x40 MLOAD SWAP1 DUP2 ADD PUSH1 0x40 MSTORE DUP1 SWAP3 SWAP2 SWAP1 DUP2 DUP2 MSTORE PUSH1 0x20 ADD DUP3 DUP1 SLOAD PUSH2 0x2A2 SWAP1 PUSH2 0xF6D JUMP JUMPDEST DUP1 ISZERO PUSH2 0x2ED JUMPI DUP1 PUSH1 0x1F LT PUSH2 0x2C4 JUMPI PUSH2 0x100 DUP1 DUP4 SLOAD DIV MUL DUP4 MSTORE SWAP2 PUSH1 0x20 ADD SWAP2 PUSH2 0x2ED JUMP JUMPDEST DUP3 ADD SWAP2 SWAP1 PUSH0 MSTORE PUSH1 0x20 PUSH0 KECCAK256 SWAP1 JUMPDEST DUP2 SLOAD DUP2 MSTORE SWAP1 PUSH1 0x1 ADD SWAP1 PUSH1 0x20 ADD DUP1 DUP4 GT PUSH2 0x2D0 JUMPI DUP3 SWAP1 SUB PUSH1 0x1F AND DUP3 ADD SWAP2 JUMPDEST POP POP POP SWAP2 DUP4 MSTORE POP POP PUSH1 0x2 DUP3 DUP2 ADD SLOAD PUSH1 0x20 DUP1 DUP5 ADD SWAP2 SWAP1 SWAP2 MSTORE PUSH1 0x3 DUP5 ADD SLOAD PUSH1 0x40 DUP5 ADD MSTORE PUSH1 0x4 DUP5 ADD SLOAD PUSH1 0x60 DUP5 ADD MSTORE PUSH1 0x5 DUP5 ADD SLOAD PUSH1 0x80 DUP5 ADD MSTORE PUSH1 0x6 DUP1 DUP6 ADD SLOAD PUSH1 0xA0 DUP6 ADD MSTORE PUSH1 0x7 SWAP1 SWAP5 ADD SLOAD PUSH1 0xFF AND ISZERO ISZERO PUSH1 0xC0 SWAP4 DUP5 ADD MSTORE SWAP3 SLOAD DUP5 MSTORE SWAP2 DUP4 ADD DUP7 SWAP1 MSTORE DUP3 ADD DUP5 SWAP1 MSTORE SWAP1 SWAP2 POP PUSH2 0x35D SWAP1 PUSH2 0x12C SWAP1 PUSH2 0xFB9 JUMP JUMPDEST PUSH2 0x367 SWAP1 NUMBER PUSH2 0xFD6 JUMP JUMPDEST DUP2 PUSH1 0x40 ADD DUP2 DUP2 MSTORE POP POP PUSH32 0xC8C078BFEE58E5822588F08B4509ED1EB5058E03F666CCA84DD2D44BF5C288A8 PUSH1 0x6 SLOAD DUP5 CALLER PUSH1 0x40 MLOAD PUSH2 0x3A5 SWAP4 SWAP3 SWAP2 SWAP1 PUSH2 0xFE9 JUMP JUMPDEST PUSH1 0x40 MLOAD DUP1 SWAP2 SUB SWAP1 LOG1 PUSH1 0x6 DUP1 SLOAD SWAP1 PUSH0 PUSH2 0x3BC DUP4 PUSH2 0x1019 JUMP JUMPDEST SWAP2 SWAP1 POP SSTORE POP POP POP POP JUMP JUMPDEST PUSH0 PUSH1 0x7 PUSH0 DUP4 DUP2 MSTORE PUSH1 0x20 ADD SWAP1 DUP2 MSTORE PUSH1 0x20 ADD PUSH0 KECCAK256 PUSH1 0x40 MLOAD DUP1 PUSH2 0x100 ADD PUSH1 0x40 MSTORE SWAP1 DUP2 PUSH0 DUP3 ADD SLOAD DUP2 MSTORE PUSH1 0x20 ADD PUSH1 0x1 DUP3 ADD DUP1 SLOAD PUSH2 0x3FD SWAP1 PUSH2 0xF6D JUMP JUMPDEST DUP1 PUSH1 0x1F ADD PUSH1 0x20 DUP1 SWAP2 DIV MUL PUSH1 0x20 ADD PUSH1 0x40 MLOAD SWAP1 DUP2 ADD PUSH1 0x40 MSTORE DUP1 SWAP3 SWAP2 SWAP1 DUP2 DUP2 MSTORE PUSH1 0x20 ADD DUP3 DUP1 SLOAD PUSH2 0x429 SWAP1 PUSH2 0xF6D JUMP JUMPDEST DUP1 ISZERO PUSH2 0x474 JUMPI DUP1 PUSH1 0x1F LT PUSH2 0x44B JUMPI PUSH2 0x100 DUP1 DUP4 SLOAD DIV MUL DUP4 MSTORE SWAP2 PUSH1 0x20 ADD SWAP2 PUSH2 0x474 JUMP JUMPDEST DUP3 ADD SWAP2 SWAP1 PUSH0 MSTORE PUSH1 0x20 PUSH0 KECCAK256 SWAP1 JUMPDEST DUP2 SLOAD DUP2 MSTORE SWAP1 PUSH1 0x1 ADD SWAP1 PUSH1 0x20 ADD DUP1 DUP4 GT PUSH2 0x457 JUMPI DUP3 SWAP1 SUB PUSH1 0x1F AND DUP3 ADD SWAP2 JUMPDEST POP POP POP SWAP2 DUP4 MSTORE POP POP PUSH1 0x2 DUP3 ADD SLOAD PUSH1 0x20 DUP3 ADD MSTORE PUSH1 0x3 DUP3 ADD SLOAD PUSH1 0x40 DUP1 DUP4 ADD SWAP2 SWAP1 SWAP2 MSTORE PUSH1 0x4 DUP4 ADD SLOAD PUSH1 0x60 DUP4 ADD MSTORE PUSH1 0x5 DUP4 ADD SLOAD PUSH1 0x80 DUP4 ADD MSTORE PUSH1 0x6 DUP4 ADD SLOAD PUSH1 0xA0 DUP4 ADD MSTORE PUSH1 0x7 SWAP1 SWAP3 ADD SLOAD PUSH1 0xFF AND ISZERO ISZERO PUSH1 0xC0 SWAP1 SWAP2 ADD MSTORE DUP2 ADD MLOAD SWAP1 SWAP2 POP ISZERO PUSH2 0x4EF JUMPI PUSH1 0x40 MLOAD PUSH3 0x461BCD PUSH1 0xE5 SHL DUP2 MSTORE PUSH1 0x4 ADD PUSH2 0x4E6 SWAP1 PUSH2 0x1031 JUMP JUMPDEST PUSH1 0x40 MLOAD DUP1 SWAP2 SUB SWAP1 REVERT JUMPDEST DUP1 PUSH1 0x40 ADD MLOAD NUMBER LT PUSH2 0x551 JUMPI PUSH1 0x40 MLOAD PUSH3 0x461BCD PUSH1 0xE5 SHL DUP2 MSTORE PUSH1 0x20 PUSH1 0x4 DUP3 ADD MSTORE PUSH1 0x26 PUSH1 0x24 DUP3 ADD MSTORE PUSH32 0x546865207265717565737465642070726F706F73616C206973207374696C6C20 PUSH1 0x44 DUP3 ADD MSTORE PUSH6 0x616374697665 PUSH1 0xD0 SHL PUSH1 0x64 DUP3 ADD MSTORE PUSH1 0x84 ADD PUSH2 0x4E6 JUMP JUMPDEST DUP1 PUSH1 0xE0 ADD MLOAD ISZERO PUSH2 0x55F JUMPI POP POP JUMP JUMPDEST DUP1 PUSH1 0x80 ADD MLOAD DUP2 PUSH1 0x60 ADD MLOAD GT ISZERO PUSH2 0x5F7 JUMPI PUSH1 0x5 DUP1 SLOAD PUSH1 0xC0 DUP4 ADD MLOAD SWAP1 SWAP2 SSTORE PUSH1 0x40 DUP1 MLOAD DUP5 DUP2 MSTORE PUSH1 0x1 PUSH1 0x20 DUP3 ADD MSTORE PUSH32 0xB5AC567FCF1B069E0235E4F16734625C6CF54C1B40517FD9EB85517F6E1265A7 SWAP2 ADD PUSH1 0x40 MLOAD DUP1 SWAP2 SUB SWAP1 LOG1 PUSH1 0x5 SLOAD PUSH1 0x40 DUP1 MLOAD DUP4 DUP2 MSTORE PUSH1 0x20 DUP2 ADD SWAP3 SWAP1 SWAP3 MSTORE PUSH32 0x945C1C4E99AA89F648FBFE3DF471B916F719E16D960FCEC0737D4D56BD696838 SWAP2 ADD JUMPDEST PUSH1 0x40 MLOAD DUP1 SWAP2 SUB SWAP1 LOG1 POP POP POP JUMP JUMPDEST PUSH1 0x40 DUP1 MLOAD DUP4 DUP2 MSTORE PUSH0 PUSH1 0x20 DUP3 ADD MSTORE PUSH32 0xB5AC567FCF1B069E0235E4F16734625C6CF54C1B40517FD9EB85517F6E1265A7 SWAP2 ADD JUMPDEST PUSH1 0x40 MLOAD DUP1 SWAP2 SUB SWAP1 LOG1 POP POP JUMP JUMPDEST PUSH1 0x7 PUSH1 0x20 MSTORE PUSH0 SWAP1 DUP2 MSTORE PUSH1 0x40 SWAP1 KECCAK256 DUP1 SLOAD PUSH1 0x1 DUP3 ADD DUP1 SLOAD SWAP2 SWAP3 SWAP2 PUSH2 0x655 SWAP1 PUSH2 0xF6D JUMP JUMPDEST DUP1 PUSH1 0x1F ADD PUSH1 0x20 DUP1 SWAP2 DIV MUL PUSH1 0x20 ADD PUSH1 0x40 MLOAD SWAP1 DUP2 ADD PUSH1 0x40 MSTORE DUP1 SWAP3 SWAP2 SWAP1 DUP2 DUP2 MSTORE PUSH1 0x20 ADD DUP3 DUP1 SLOAD PUSH2 0x681 SWAP1 PUSH2 0xF6D JUMP JUMPDEST DUP1 ISZERO PUSH2 0x6CC JUMPI DUP1 PUSH1 0x1F LT PUSH2 0x6A3 JUMPI PUSH2 0x100 DUP1 DUP4 SLOAD DIV MUL DUP4 MSTORE SWAP2 PUSH1 0x20 ADD SWAP2 PUSH2 0x6CC JUMP JUMPDEST DUP3 ADD SWAP2 SWAP1 PUSH0 MSTORE PUSH1 0x20 PUSH0 KECCAK256 SWAP1 JUMPDEST DUP2 SLOAD DUP2 MSTORE SWAP1 PUSH1 0x1 ADD SWAP1 PUSH1 0x20 ADD DUP1 DUP4 GT PUSH2 0x6AF JUMPI DUP3 SWAP1 SUB PUSH1 0x1F AND DUP3 ADD SWAP2 JUMPDEST POP POP POP PUSH1 0x2 DUP5 ADD SLOAD PUSH1 0x3 DUP6 ADD SLOAD PUSH1 0x4 DUP7 ADD SLOAD PUSH1 0x5 DUP8 ADD SLOAD PUSH1 0x6 DUP9 ADD SLOAD PUSH1 0x7 SWAP1 SWAP9 ADD SLOAD SWAP7 SWAP8 SWAP4 SWAP7 SWAP3 SWAP6 POP SWAP1 SWAP4 POP SWAP2 SWAP1 PUSH1 0xFF AND DUP9 JUMP JUMPDEST PUSH2 0x708 PUSH2 0xBE1 JUMP JUMPDEST PUSH0 DUP1 SLOAD PUSH1 0xFF NOT AND SWAP2 ISZERO ISZERO SWAP2 SWAP1 SWAP2 OR SWAP1 SSTORE JUMP JUMPDEST PUSH2 0x722 PUSH2 0xBE1 JUMP JUMPDEST PUSH0 DUP2 DUP2 MSTORE PUSH1 0x4 PUSH1 0x20 SWAP1 DUP2 MSTORE PUSH1 0x40 DUP1 DUP4 KECCAK256 DUP2 MLOAD DUP1 DUP4 ADD DUP4 MSTORE DUP2 SLOAD PUSH1 0x1 PUSH1 0x1 PUSH1 0xA0 SHL SUB AND DUP2 MSTORE PUSH1 0x1 DUP3 ADD DUP1 SLOAD DUP5 MLOAD DUP2 DUP8 MUL DUP2 ADD DUP8 ADD SWAP1 SWAP6 MSTORE DUP1 DUP6 MSTORE SWAP2 SWAP5 SWAP3 SWAP4 DUP6 DUP5 ADD SWAP4 SWAP1 SWAP3 SWAP1 DUP4 ADD DUP3 DUP3 DUP1 ISZERO PUSH2 0x79D JUMPI PUSH1 0x20 MUL DUP3 ADD SWAP2 SWAP1 PUSH0 MSTORE PUSH1 0x20 PUSH0 KECCAK256 SWAP1 JUMPDEST DUP2 SLOAD PUSH1 0x1 PUSH1 0x1 PUSH1 0xA0 SHL SUB AND DUP2 MSTORE PUSH1 0x1 SWAP1 SWAP2 ADD SWAP1 PUSH1 0x20 ADD DUP1 DUP4 GT PUSH2 0x77F JUMPI JUMPDEST POP POP POP SWAP2 SWAP1 SWAP3 MSTORE POP POP DUP2 MLOAD SWAP2 SWAP3 POP POP PUSH1 0x1 PUSH1 0x1 PUSH1 0xA0 SHL SUB AND ISZERO PUSH2 0x815 JUMPI PUSH1 0x40 MLOAD PUSH3 0x461BCD PUSH1 0xE5 SHL DUP2 MSTORE PUSH1 0x20 PUSH1 0x4 DUP3 ADD MSTORE PUSH1 0x2A PUSH1 0x24 DUP3 ADD MSTORE PUSH32 0x5468652070726F7669646564204E465420636F6C6C656374696F6E20646F6573 PUSH1 0x44 DUP3 ADD MSTORE PUSH10 0x81B9BDD08195E1A5CDD PUSH1 0xB2 SHL PUSH1 0x64 DUP3 ADD MSTORE PUSH1 0x84 ADD PUSH2 0x4E6 JUMP JUMPDEST PUSH0 DUP3 DUP2 MSTORE PUSH1 0x4 PUSH1 0x20 MSTORE PUSH1 0x40 DUP2 KECCAK256 DUP1 SLOAD PUSH1 0x1 PUSH1 0x1 PUSH1 0xA0 SHL SUB NOT AND DUP2 SSTORE SWAP1 PUSH2 0x83E PUSH1 0x1 DUP4 ADD DUP3 PUSH2 0xC6E JUMP JUMPDEST POP POP PUSH1 0x40 MLOAD DUP3 DUP2 MSTORE PUSH32 0x8C74E0EBF8A931DC8BF3BB8645415E579244A93C7523A035A3773983A2097B3D SWAP1 PUSH1 0x20 ADD PUSH2 0x628 JUMP JUMPDEST PUSH1 0x40 MLOAD PUSH3 0x461BCD PUSH1 0xE5 SHL DUP2 MSTORE PUSH1 0x20 PUSH1 0x4 DUP3 ADD MSTORE PUSH1 0x1D PUSH1 0x24 DUP3 ADD MSTORE PUSH32 0x596F7520617265206E6F7420656C696769626C6520746F20766F74652E000000 PUSH1 0x44 DUP3 ADD MSTORE PUSH1 0x64 ADD PUSH2 0x4E6 JUMP JUMPDEST DUP2 SLOAD DUP2 MSTORE SWAP1 PUSH1 0x1 ADD SWAP1 PUSH1 0x20 ADD DUP1 DUP4 GT PUSH2 0x8B8 JUMPI POP POP POP SWAP2 DUP4 MSTORE POP POP PUSH1 0x2 DUP3 ADD SLOAD PUSH1 0x20 DUP3 ADD MSTORE PUSH1 0x3 DUP3 ADD SLOAD PUSH1 0x40 DUP1 DUP4 ADD SWAP2 SWAP1 SWAP2 MSTORE PUSH1 0x4 DUP4 ADD SLOAD PUSH1 0x60 DUP4 ADD MSTORE PUSH1 0x5 DUP4 ADD SLOAD PUSH1 0x80 DUP4 ADD MSTORE PUSH1 0x6 DUP4 ADD SLOAD PUSH1 0xA0 DUP4 ADD MSTORE PUSH1 0x7 SWAP1 SWAP3 ADD SLOAD PUSH1 0xFF AND ISZERO ISZERO PUSH1 0xC0 SWAP1 SWAP2 ADD MSTORE DUP2 ADD MLOAD SWAP1 SWAP2 POP ISZERO PUSH2 0x93D JUMPI PUSH1 0x40 MLOAD PUSH3 0x461BCD PUSH1 0xE5 SHL DUP2 MSTORE PUSH1 0x4 ADD PUSH2 0x4E6 SWAP1 PUSH2 0x1031 JUMP JUMPDEST DUP1 PUSH1 0x40 ADD MLOAD NUMBER LT ISZERO PUSH2 0x9A7 JUMPI PUSH1 0x40 MLOAD PUSH3 0x461BCD PUSH1 0xE5 SHL DUP2 MSTORE PUSH1 0x20 PUSH1 0x4 DUP3 ADD MSTORE PUSH1 0x2D PUSH1 0x24 DUP3 ADD MSTORE PUSH32 0x566F74696E6720686173206265656E20646561637469766174656420666F7220 PUSH1 0x44 DUP3 ADD MSTORE PUSH13 0x1D1A1A5CC81C1C9BDC1BDCD85B PUSH1 0x9A SHL PUSH1 0x64 DUP3 ADD MSTORE PUSH1 0x84 ADD PUSH2 0x4E6 JUMP JUMPDEST DUP2 ISZERO PUSH2 0x9C5 JUMPI PUSH1 0x60 DUP2 ADD DUP1 MLOAD SWAP1 PUSH2 0x9BD DUP3 PUSH2 0x1019 JUMP JUMPDEST SWAP1 MSTORE POP PUSH2 0x9D9 JUMP JUMPDEST PUSH1 0x80 DUP2 ADD DUP1 MLOAD SWAP1 PUSH2 0x9D5 DUP3 PUSH2 0x1019 JUMP JUMPDEST SWAP1 MSTORE POP JUMPDEST PUSH1 0x40 DUP1 MLOAD CALLER DUP2 MSTORE PUSH1 0x20 DUP2 ADD DUP6 SWAP1 MSTORE DUP4 ISZERO ISZERO SWAP2 DUP2 ADD SWAP2 SWAP1 SWAP2 MSTORE PUSH32 0xD356173AE8EEEA8691AEE4C1BE712C314A975A3D43EBC48B08CA54D0DAC91228 SWAP1 PUSH1 0x60 ADD PUSH2 0x5EA JUMP JUMPDEST PUSH2 0xA23 PUSH2 0xBE1 JUMP JUMPDEST PUSH1 0x1 PUSH1 0x1 PUSH1 0xA0 SHL SUB DUP3 AND PUSH2 0xA90 JUMPI PUSH1 0x40 MLOAD PUSH3 0x461BCD PUSH1 0xE5 SHL DUP2 MSTORE PUSH1 0x20 PUSH1 0x4 DUP3 ADD MSTORE PUSH1 0x2E PUSH1 0x24 DUP3 ADD MSTORE PUSH32 0x416E204E465420636F6C6C656374696F6E2063616E6E6F74206861766520616E PUSH1 0x44 DUP3 ADD MSTORE PUSH14 0x20656D7074792061646472657373 PUSH1 0x90 SHL PUSH1 0x64 DUP3 ADD MSTORE PUSH1 0x84 ADD PUSH2 0x4E6 JUMP JUMPDEST PUSH1 0x3 SLOAD PUSH0 SWAP1 DUP2 MSTORE PUSH1 0x4 PUSH1 0x20 SWAP1 DUP2 MSTORE PUSH1 0x40 DUP1 DUP4 KECCAK256 DUP2 MLOAD DUP1 DUP4 ADD DUP4 MSTORE DUP2 SLOAD PUSH1 0x1 PUSH1 0x1 PUSH1 0xA0 SHL SUB AND DUP2 MSTORE PUSH1 0x1 DUP3 ADD DUP1 SLOAD DUP5 MLOAD DUP2 DUP8 MUL DUP2 ADD DUP8 ADD SWAP1 SWAP6 MSTORE DUP1 DUP6 MSTORE SWAP2 SWAP5 SWAP3 SWAP4 DUP6 DUP5 ADD SWAP4 SWAP1 SWAP3 SWAP1 DUP4 ADD DUP3 DUP3 DUP1 ISZERO PUSH2 0xB0E JUMPI PUSH1 0x20 MUL DUP3 ADD SWAP2 SWAP1 PUSH0 MSTORE PUSH1 0x20 PUSH0 KECCAK256 SWAP1 JUMPDEST DUP2 SLOAD PUSH1 0x1 PUSH1 0x1 PUSH1 0xA0 SHL SUB AND DUP2 MSTORE PUSH1 0x1 SWAP1 SWAP2 ADD SWAP1 PUSH1 0x20 ADD DUP1 DUP4 GT PUSH2 0xAF0 JUMPI JUMPDEST POP POP POP SWAP2 SWAP1 SWAP3 MSTORE POP POP POP PUSH1 0x1 PUSH1 0x1 PUSH1 0xA0 SHL SUB DUP5 AND DUP2 MSTORE PUSH1 0x20 DUP1 DUP3 ADD DUP5 SWAP1 MSTORE PUSH1 0x3 SLOAD PUSH1 0x40 MLOAD SWAP1 DUP2 MSTORE SWAP2 SWAP3 POP PUSH32 0x9F90AAA1D3087C2BDA1B0861EA1F4A397F9ABBB0FB2AD64794FC4D0B1C9BFF34 SWAP2 ADD PUSH1 0x40 MLOAD DUP1 SWAP2 SUB SWAP1 LOG1 PUSH1 0x3 DUP1 SLOAD SWAP1 PUSH0 PUSH2 0x3BC DUP4 PUSH2 0x1019 JUMP JUMPDEST PUSH2 0xB7A PUSH2 0xBE1 JUMP JUMPDEST PUSH1 0x1 SSTORE JUMP JUMPDEST PUSH2 0xB87 PUSH2 0xBE1 JUMP JUMPDEST PUSH1 0x2 DUP1 SLOAD PUSH1 0x1 PUSH1 0x1 PUSH1 0xA0 SHL SUB DUP4 DUP2 AND PUSH1 0x1 PUSH1 0x1 PUSH1 0xA0 SHL SUB NOT DUP4 AND DUP2 OR SWAP1 SWAP4 SSTORE PUSH1 0x40 DUP1 MLOAD SWAP2 SWAP1 SWAP3 AND DUP1 DUP3 MSTORE PUSH1 0x20 DUP3 ADD SWAP4 SWAP1 SWAP4 MSTORE PUSH32 0xA77B1597453F945CB89178EC89D7D37698B9F9B07ADBBB854775E48131186D25 SWAP2 ADD PUSH2 0x628 JUMP JUMPDEST PUSH1 0x2 SLOAD PUSH1 0x1 PUSH1 0x1 PUSH1 0xA0 SHL SUB AND CALLER EQ PUSH2 0xC6C JUMPI PUSH1 0x40 MLOAD PUSH3 0x461BCD PUSH1 0xE5 SHL DUP2 MSTORE PUSH1 0x20 PUSH1 0x4 DUP3 ADD MSTORE PUSH1 0x42 PUSH1 0x24 DUP3 ADD MSTORE PUSH32 0x54686973206D6574686F642063616E206F6E6C792062652063616C6C65642062 PUSH1 0x44 DUP3 ADD MSTORE PUSH32 0x7920746865206F776E6572206F66207468697320736D61727420636F6E747261 PUSH1 0x64 DUP3 ADD MSTORE PUSH2 0x18DD PUSH1 0xF2 SHL PUSH1 0x84 DUP3 ADD MSTORE PUSH1 0xA4 ADD PUSH2 0x4E6 JUMP JUMPDEST JUMP JUMPDEST POP DUP1 SLOAD PUSH0 DUP3 SSTORE SWAP1 PUSH0 MSTORE PUSH1 0x20 PUSH0 KECCAK256 SWAP1 DUP2 ADD SWAP1 PUSH2 0xC89 SWAP2 SWAP1 PUSH2 0xC8C JUMP JUMPDEST POP JUMP JUMPDEST JUMPDEST DUP1 DUP3 GT ISZERO PUSH2 0xCA0 JUMPI PUSH0 DUP2 SSTORE PUSH1 0x1 ADD PUSH2 0xC8D JUMP JUMPDEST POP SWAP1 JUMP JUMPDEST PUSH4 0x4E487B71 PUSH1 0xE0 SHL PUSH0 MSTORE PUSH1 0x41 PUSH1 0x4 MSTORE PUSH1 0x24 PUSH0 REVERT JUMPDEST PUSH1 0x40 MLOAD PUSH1 0x1F DUP3 ADD PUSH1 0x1F NOT AND DUP2 ADD PUSH8 0xFFFFFFFFFFFFFFFF DUP2 GT DUP3 DUP3 LT OR ISZERO PUSH2 0xCE1 JUMPI PUSH2 0xCE1 PUSH2 0xCA4 JUMP JUMPDEST PUSH1 0x40 MSTORE SWAP2 SWAP1 POP JUMP JUMPDEST PUSH0 DUP1 PUSH1 0x40 DUP4 DUP6 SUB SLT ISZERO PUSH2 0xCFA JUMPI PUSH0 DUP1 REVERT JUMPDEST DUP3 CALLDATALOAD PUSH8 0xFFFFFFFFFFFFFFFF DUP1 DUP3 GT ISZERO PUSH2 0xD11 JUMPI PUSH0 DUP1 REVERT JUMPDEST DUP2 DUP6 ADD SWAP2 POP DUP6 PUSH1 0x1F DUP4 ADD SLT PUSH2 0xD24 JUMPI PUSH0 DUP1 REVERT JUMPDEST DUP2 CALLDATALOAD PUSH1 0x20 DUP3 DUP3 GT ISZERO PUSH2 0xD38 JUMPI PUSH2 0xD38 PUSH2 0xCA4 JUMP JUMPDEST PUSH2 0xD4A PUSH1 0x1F DUP4 ADD PUSH1 0x1F NOT AND DUP3 ADD PUSH2 0xCB8 JUMP JUMPDEST SWAP3 POP DUP2 DUP4 MSTORE DUP8 DUP2 DUP4 DUP7 ADD ADD GT ISZERO PUSH2 0xD5F JUMPI PUSH0 DUP1 REVERT JUMPDEST DUP2 DUP2 DUP6 ADD DUP3 DUP6 ADD CALLDATACOPY PUSH0 SWAP2 DUP4 ADD DUP2 ADD SWAP2 SWAP1 SWAP2 MSTORE SWAP1 SWAP7 SWAP5 ADD CALLDATALOAD SWAP5 POP POP POP POP JUMP JUMPDEST PUSH0 PUSH1 0x20 DUP3 DUP5 SUB SLT ISZERO PUSH2 0xD8D JUMPI PUSH0 DUP1 REVERT JUMPDEST POP CALLDATALOAD SWAP2 SWAP1 POP JUMP JUMPDEST PUSH0 DUP2 MLOAD DUP1 DUP5 MSTORE PUSH0 JUMPDEST DUP2 DUP2 LT ISZERO PUSH2 0xDB8 JUMPI PUSH1 0x20 DUP2 DUP6 ADD DUP2 ADD MLOAD DUP7 DUP4 ADD DUP3 ADD MSTORE ADD PUSH2 0xD9C JUMP JUMPDEST POP PUSH0 PUSH1 0x20 DUP3 DUP7 ADD ADD MSTORE PUSH1 0x20 PUSH1 0x1F NOT PUSH1 0x1F DUP4 ADD AND DUP6 ADD ADD SWAP2 POP POP SWAP3 SWAP2 POP POP JUMP JUMPDEST PUSH0 PUSH2 0x100 DUP11 DUP4 MSTORE DUP1 PUSH1 0x20 DUP5 ADD MSTORE PUSH2 0xDF0 DUP2 DUP5 ADD DUP12 PUSH2 0xD94 JUMP JUMPDEST PUSH1 0x40 DUP5 ADD SWAP10 SWAP1 SWAP10 MSTORE POP POP PUSH1 0x60 DUP2 ADD SWAP6 SWAP1 SWAP6 MSTORE PUSH1 0x80 DUP6 ADD SWAP4 SWAP1 SWAP4 MSTORE PUSH1 0xA0 DUP5 ADD SWAP2 SWAP1 SWAP2 MSTORE PUSH1 0xC0 DUP4 ADD MSTORE ISZERO ISZERO PUSH1 0xE0 SWAP1 SWAP2 ADD MSTORE SWAP3 SWAP2 POP POP JUMP JUMPDEST DUP1 CALLDATALOAD DUP1 ISZERO ISZERO DUP2 EQ PUSH2 0xE34 JUMPI PUSH0 DUP1 REVERT JUMPDEST SWAP2 SWAP1 POP JUMP JUMPDEST PUSH0 PUSH1 0x20 DUP3 DUP5 SUB SLT ISZERO PUSH2 0xE49 JUMPI PUSH0 DUP1 REVERT JUMPDEST PUSH2 0xE52 DUP3 PUSH2 0xE25 JUMP JUMPDEST SWAP4 SWAP3 POP POP POP JUMP JUMPDEST PUSH0 DUP1 PUSH1 0x40 DUP4 DUP6 SUB SLT ISZERO PUSH2 0xE6A JUMPI PUSH0 DUP1 REVERT JUMPDEST DUP3 CALLDATALOAD SWAP2 POP PUSH2 0xE7A PUSH1 0x20 DUP5 ADD PUSH2 0xE25 JUMP JUMPDEST SWAP1 POP SWAP3 POP SWAP3 SWAP1 POP JUMP JUMPDEST DUP1 CALLDATALOAD PUSH1 0x1 PUSH1 0x1 PUSH1 0xA0 SHL SUB DUP2 AND DUP2 EQ PUSH2 0xE34 JUMPI PUSH0 DUP1 REVERT JUMPDEST PUSH0 DUP1 PUSH1 0x40 DUP4 DUP6 SUB SLT ISZERO PUSH2 0xEAA JUMPI PUSH0 DUP1 REVERT JUMPDEST PUSH2 0xEB3 DUP4 PUSH2 0xE83 JUMP JUMPDEST SWAP2 POP PUSH1 0x20 DUP1 DUP5 ADD CALLDATALOAD PUSH8 0xFFFFFFFFFFFFFFFF DUP1 DUP3 GT ISZERO PUSH2 0xED0 JUMPI PUSH0 DUP1 REVERT JUMPDEST DUP2 DUP7 ADD SWAP2 POP DUP7 PUSH1 0x1F DUP4 ADD SLT PUSH2 0xEE3 JUMPI PUSH0 DUP1 REVERT JUMPDEST DUP2 CALLDATALOAD DUP2 DUP2 GT ISZERO PUSH2 0xEF5 JUMPI PUSH2 0xEF5 PUSH2 0xCA4 JUMP JUMPDEST DUP1 PUSH1 0x5 SHL SWAP2 POP PUSH2 0xF06 DUP5 DUP4 ADD PUSH2 0xCB8 JUMP JUMPDEST DUP2 DUP2 MSTORE SWAP2 DUP4 ADD DUP5 ADD SWAP2 DUP5 DUP2 ADD SWAP1 DUP10 DUP5 GT ISZERO PUSH2 0xF1F JUMPI PUSH0 DUP1 REVERT JUMPDEST SWAP4 DUP6 ADD SWAP4 JUMPDEST DUP4 DUP6 LT ISZERO PUSH2 0xF44 JUMPI PUSH2 0xF35 DUP6 PUSH2 0xE83 JUMP JUMPDEST DUP3 MSTORE SWAP4 DUP6 ADD SWAP4 SWAP1 DUP6 ADD SWAP1 PUSH2 0xF24 JUMP JUMPDEST DUP1 SWAP7 POP POP POP POP POP POP POP SWAP3 POP SWAP3 SWAP1 POP JUMP JUMPDEST PUSH0 PUSH1 0x20 DUP3 DUP5 SUB SLT ISZERO PUSH2 0xF64 JUMPI PUSH0 DUP1 REVERT JUMPDEST PUSH2 0xE52 DUP3 PUSH2 0xE83 JUMP JUMPDEST PUSH1 0x1 DUP2 DUP2 SHR SWAP1 DUP3 AND DUP1 PUSH2 0xF81 JUMPI PUSH1 0x7F DUP3 AND SWAP2 POP JUMPDEST PUSH1 0x20 DUP3 LT DUP2 SUB PUSH2 0xF9F JUMPI PUSH4 0x4E487B71 PUSH1 0xE0 SHL PUSH0 MSTORE PUSH1 0x22 PUSH1 0x4 MSTORE PUSH1 0x24 PUSH0 REVERT JUMPDEST POP SWAP2 SWAP1 POP JUMP JUMPDEST PUSH4 0x4E487B71 PUSH1 0xE0 SHL PUSH0 MSTORE PUSH1 0x11 PUSH1 0x4 MSTORE PUSH1 0x24 PUSH0 REVERT JUMPDEST DUP1 DUP3 MUL DUP2 ISZERO DUP3 DUP3 DIV DUP5 EQ OR PUSH2 0xFD0 JUMPI PUSH2 0xFD0 PUSH2 0xFA5 JUMP JUMPDEST SWAP3 SWAP2 POP POP JUMP JUMPDEST DUP1 DUP3 ADD DUP1 DUP3 GT ISZERO PUSH2 0xFD0 JUMPI PUSH2 0xFD0 PUSH2 0xFA5 JUMP JUMPDEST DUP4 DUP2 MSTORE PUSH1 0x60 PUSH1 0x20 DUP3 ADD MSTORE PUSH0 PUSH2 0x1001 PUSH1 0x60 DUP4 ADD DUP6 PUSH2 0xD94 JUMP JUMPDEST SWAP1 POP PUSH1 0x1 DUP1 PUSH1 0xA0 SHL SUB DUP4 AND PUSH1 0x40 DUP4 ADD MSTORE SWAP5 SWAP4 POP POP POP POP JUMP JUMPDEST PUSH0 PUSH1 0x1 DUP3 ADD PUSH2 0x102A JUMPI PUSH2 0x102A PUSH2 0xFA5 JUMP JUMPDEST POP PUSH1 0x1 ADD SWAP1 JUMP JUMPDEST PUSH1 0x20 DUP1 DUP3 MSTORE PUSH1 0x25 SWAP1 DUP3 ADD MSTORE PUSH32 0x546865207265717565737465642070726F706F73616C20646F6573206E6F7420 PUSH1 0x40 DUP3 ADD MSTORE PUSH5 0x195E1A5CDD PUSH1 0xDA SHL PUSH1 0x60 DUP3 ADD MSTORE PUSH1 0x80 ADD SWAP1 JUMP INVALID LOG2 PUSH5 0x6970667358 0x22 SLT KECCAK256 CREATE2 SWAP10 SWAP11 0xC3 LT OR NOT 0xBC OR 0xCF 0x4A 0xB7 DELEGATECALL PUSH28 0x6AD57E804DAE549F4728E7E65B6432E6C21164736F6C634300081500 CALLER "
		},
		"gasEstimates": {
			"creation": {
				"codeDepositCost": "853600",
				"executionCost": "71552",
				"totalCost": "925152"
			},
			"external": {
				"PriceProposals(uint256)": "infinite",
				"addNFTCollection(address,address[])": "infinite",
				"castPriceVote(uint256,bool)": "467",
				"collections(uint256)": "2562",
				"cooldownTimeout()": "2361",
				"finalizePriceProposal(uint256)": "infinite",
				"getPrice()": "2303",
				"owner()": "2425",
				"proposePrice(string,uint256)": "infinite",
				"removeNFTCollection(uint256)": "infinite",
				"setCooldownTimeout(uint256)": "24530",
				"setTransferTimeout(bool)": "26735",
				"transferCooldown()": "2331",
				"transferOwnership(address)": "28161"
			}
		},
		"methodIdentifiers": {
			"PriceProposals(uint256)": "605c736e",
			"addNFTCollection(address,address[])": "befd9bc1",
			"castPriceVote(uint256,bool)": "9d6a6d5d",
			"collections(uint256)": "fdbda0ec",
			"cooldownTimeout()": "bbf79246",
			"finalizePriceProposal(uint256)": "5a05db15",
			"getPrice()": "98d5fdca",
			"owner()": "8da5cb5b",
			"proposePrice(string,uint256)": "1068779e",
			"removeNFTCollection(uint256)": "8b98ecaa",
			"setCooldownTimeout(uint256)": "c2d52751",
			"setTransferTimeout(bool)": "7c14a418",
			"transferCooldown()": "68f16293",
			"transferOwnership(address)": "f2fde38b"
		}
	},
	"abi": [
		{
			"anonymous": false,
			"inputs": [
				{
					"indexed": false,
					"internalType": "uint256",
					"name": "oldPrice",
					"type": "uint256"
				},
				{
					"indexed": false,
					"internalType": "uint256",
					"name": "newPrice",
					"type": "uint256"
				}
			],
			"name": "PriceUpdated",
			"type": "event"
		},
		{
			"anonymous": false,
			"inputs": [
				{
					"indexed": false,
					"internalType": "uint256",
					"name": "id",
					"type": "uint256"
				},
				{
					"indexed": false,
					"internalType": "string",
					"name": "description",
					"type": "string"
				},
				{
					"indexed": false,
					"internalType": "address",
					"name": "proposer",
					"type": "address"
				}
			],
			"name": "ProposalCreated",
			"type": "event"
		},
		{
			"anonymous": false,
			"inputs": [
				{
					"indexed": false,
					"internalType": "uint256",
					"name": "id",
					"type": "uint256"
				},
				{
					"indexed": false,
					"internalType": "bool",
					"name": "passed",
					"type": "bool"
				}
			],
			"name": "ProposalFinalized",
			"type": "event"
		},
		{
			"anonymous": false,
			"inputs": [
				{
					"indexed": false,
					"internalType": "address",
					"name": "voter",
					"type": "address"
				},
				{
					"indexed": false,
					"internalType": "uint256",
					"name": "proposal",
					"type": "uint256"
				},
				{
					"indexed": false,
					"internalType": "bool",
					"name": "votedFor",
					"type": "bool"
				}
			],
			"name": "VoteCast",
			"type": "event"
		},
		{
			"anonymous": false,
			"inputs": [
				{
					"indexed": false,
					"internalType": "uint256",
					"name": "id",
					"type": "uint256"
				}
			],
			"name": "addedNFTCollection",
			"type": "event"
		},
		{
			"anonymous": false,
			"inputs": [
				{
					"indexed": false,
					"internalType": "uint256",
					"name": "id",
					"type": "uint256"
				}
			],
			"name": "removedNFTCollection",
			"type": "event"
		},
		{
			"anonymous": false,
			"inputs": [
				{
					"indexed": false,
					"internalType": "address",
					"name": "from",
					"type": "address"
				},
				{
					"indexed": false,
					"internalType": "address",
					"name": "to",
					"type": "address"
				}
			],
			"name": "transferredOwnership",
			"type": "event"
		},
		{
			"inputs": [
				{
					"internalType": "uint256",
					"name": "",
					"type": "uint256"
				}
			],
			"name": "PriceProposals",
			"outputs": [
				{
					"internalType": "uint256",
					"name": "id",
					"type": "uint256"
				},
				{
					"internalType": "string",
					"name": "description",
					"type": "string"
				},
				{
					"internalType": "uint256",
					"name": "deadline",
					"type": "uint256"
				},
				{
					"internalType": "uint256",
					"name": "votesUp",
					"type": "uint256"
				},
				{
					"internalType": "uint256",
					"name": "votesDown",
					"type": "uint256"
				},
				{
					"internalType": "uint256",
					"name": "maxVotes",
					"type": "uint256"
				},
				{
					"internalType": "uint256",
					"name": "value",
					"type": "uint256"
				},
				{
					"internalType": "bool",
					"name": "finalized",
					"type": "bool"
				}
			],
			"stateMutability": "view",
			"type": "function"
		},
		{
			"inputs": [
				{
					"internalType": "address",
					"name": "_contractAddress",
					"type": "address"
				},
				{
					"internalType": "address[]",
					"name": "nfts",
					"type": "address[]"
				}
			],
			"name": "addNFTCollection",
			"outputs": [],
			"stateMutability": "nonpayable",
			"type": "function"
		},
		{
			"inputs": [
				{
					"internalType": "uint256",
					"name": "_id",
					"type": "uint256"
				},
				{
					"internalType": "bool",
					"name": "_vote",
					"type": "bool"
				}
			],
			"name": "castPriceVote",
			"outputs": [],
			"stateMutability": "nonpayable",
			"type": "function"
		},
		{
			"inputs": [
				{
					"internalType": "uint256",
					"name": "",
					"type": "uint256"
				}
			],
			"name": "collections",
			"outputs": [
				{
					"internalType": "address",
					"name": "contractAddr",
					"type": "address"
				}
			],
			"stateMutability": "view",
			"type": "function"
		},
		{
			"inputs": [],
			"name": "cooldownTimeout",
			"outputs": [
				{
					"internalType": "uint256",
					"name": "",
					"type": "uint256"
				}
			],
			"stateMutability": "view",
			"type": "function"
		},
		{
			"inputs": [
				{
					"internalType": "uint256",
					"name": "_id",
					"type": "uint256"
				}
			],
			"name": "finalizePriceProposal",
			"outputs": [],
			"stateMutability": "nonpayable",
			"type": "function"
		},
		{
			"inputs": [],
			"name": "getPrice",
			"outputs": [
				{
					"internalType": "uint256",
					"name": "",
					"type": "uint256"
				}
			],
			"stateMutability": "view",
			"type": "function"
		},
		{
			"inputs": [],
			"name": "owner",
			"outputs": [
				{
					"internalType": "address",
					"name": "",
					"type": "address"
				}
			],
			"stateMutability": "view",
			"type": "function"
		},
		{
			"inputs": [
				{
					"internalType": "string",
					"name": "_desc",
					"type": "string"
				},
				{
					"internalType": "uint256",
					"name": "_price",
					"type": "uint256"
				}
			],
			"name": "proposePrice",
			"outputs": [],
			"stateMutability": "nonpayable",
			"type": "function"
		},
		{
			"inputs": [
				{
					"internalType": "uint256",
					"name": "_id",
					"type": "uint256"
				}
			],
			"name": "removeNFTCollection",
			"outputs": [],
			"stateMutability": "nonpayable",
			"type": "function"
		},
		{
			"inputs": [
				{
					"internalType": "uint256",
					"name": "_timeout",
					"type": "uint256"
				}
			],
			"name": "setCooldownTimeout",
			"outputs": [],
			"stateMutability": "nonpayable",
			"type": "function"
		},
		{
			"inputs": [
				{
					"internalType": "bool",
					"name": "_enabled",
					"type": "bool"
				}
			],
			"name": "setTransferTimeout",
			"outputs": [],
			"stateMutability": "nonpayable",
			"type": "function"
		},
		{
			"inputs": [],
			"name": "transferCooldown",
			"outputs": [
				{
					"internalType": "bool",
					"name": "",
					"type": "bool"
				}
			],
			"stateMutability": "view",
			"type": "function"
		},
		{
			"inputs": [
				{
					"internalType": "address",
					"name": "_address",
					"type": "address"
				}
			],
			"name": "transferOwnership",
			"outputs": [],
			"stateMutability": "nonpayable",
			"type": "function"
		}
	]
}