{
	"data": {
		"bytecode": {
			"linkReferences": {},
			"object": "60806040526103e8600155600380546200001c9160049162000041565b5034801562000029575f80fd5b505f80546001600160a01b0319163317905562000171565b828054828255905f5260205f209060070281019282156200010a575f5260205f209160070282015b828111156200010a57825482546001600160a01b03199081166001600160a01b039283161784556001808601805491860180549384169290941691821784555460ff600160a01b91829004161515026001600160a81b03199092161717905560028084015490830155600380840154908301556004808401549083015560058084015490830155600680840154908301556007928301929091019062000069565b50620001189291506200011c565b5090565b5b80821115620001185780546001600160a01b03191681556001810180546001600160a81b03191690555f6002820181905560038201819055600482018190556005820181905560068201556007016200011d565b613e59806200017f5f395ff3fe608060405260043610610147575f3560e01c80638da5cb5b116100b3578063c201e47c1161006d578063c201e47c1461043a578063d298006514610459578063d7dcdcec1461046c578063db34a67914610480578063f2fde38b1461049f578063f340fa01146104be575f80fd5b80638da5cb5b146103325780639351769f14610368578063a08b5bba1461037c578063a262b73f1461039b578063a5b6f92a146103ba578063a85c38ef146103cf575f80fd5b80634d9ea07d116101045780634d9ea07d14610284578063673cf82a146102a35780636daf6945146102c25780637c38d663146102d557806386f179d2146102f457806387b337e814610313575f80fd5b806312065fe01461014b5780631f5d26411461016c5780632e12841714610198578063338b5dea146101b95780633b174f0f146101d85780633ef73856146101f7575b5f80fd5b348015610156575f80fd5b50475b6040519081526020015b60405180910390f35b348015610177575f80fd5b5061018b610186366004613637565b6104d1565b60405161016391906136cf565b3480156101a3575f80fd5b506101b76101b2366004613860565b6104e8565b005b3480156101c4575f80fd5b506101b76101d33660046138cd565b6104fe565b3480156101e3575f80fd5b506101596101f2366004613905565b61050d565b348015610202575f80fd5b506102166102113660046138cd565b61054e565b60405161016391905f6101008201905060018060a01b0380845116835280602085015116602084015250604083015115156040830152606083015160608301526080830151608083015260a083015160a083015260c083015160c083015260e083015160e083015292915050565b34801561028f575f80fd5b506101b761029e36600461393a565b61064a565b3480156102ae575f80fd5b5061018b6102bd366004613997565b61065e565b6101b76102d0366004613997565b61068e565b3480156102e0575f80fd5b506102166102ef366004613637565b6106ec565b3480156102ff575f80fd5b506101b761030e366004613997565b6107af565b34801561031e575f80fd5b506101b761032d366004613997565b610819565b34801561033d575f80fd5b505f54610350906001600160a01b031681565b6040516001600160a01b039091168152602001610163565b348015610373575f80fd5b506101b76108b5565b348015610387575f80fd5b506101b76103963660046139b0565b610b0f565b3480156103a6575f80fd5b506101b76103b53660046138cd565b610b1f565b3480156103c5575f80fd5b5061015960015481565b3480156103da575f80fd5b506103ee6103e9366004613637565b610be6565b604080516001600160a01b03998a168152989097166020890152941515958701959095526060860192909252608085015260a084015260c083019190915260e082015261010001610163565b348015610445575f80fd5b506101b7610454366004613905565b610c4c565b6101b7610467366004613997565b610dde565b348015610477575f80fd5b50600b54610159565b34801561048b575f80fd5b506101b761049a3660046138cd565b610e45565b3480156104aa575f80fd5b506101b76104b9366004613997565b610ee4565b6101b76104cc366004613997565b610f4c565b6104d9613578565b6104e282610f7b565b92915050565b6104f785600185858886611288565b5050505050565b61050982338361137e565b5050565b5f811561053257506001600160a01b0382165f908152600860205260409020546104e2565b50506001600160a01b03165f9081526009602052604090205490565b6105566135e6565b6001600160a01b0383165f9081526006602052604090208054831061058e57604051635dcaf2d760e01b815260040160405180910390fd5b5f8184815481106105a1576105a16139e9565b905f5260205f20015490505f600382815481106105c0576105c06139e9565b5f918252602091829020604080516101008101825260079390930290910180546001600160a01b039081168452600182015490811694840194909452600160a01b90930460ff161515908201526002820154606082015260038201546080820152600482015460a0820152600582015460c082015260069091015460e08201529695505050505050565b610658845f85855f86611288565b50505050565b610666613578565b6001600160a01b0382165f9081526005602052604090205461068781610f7b565b9392505050565b345f808061069c85856113e9565b92509050806106be57604051632050d62b60e01b815260040160405180910390fd5b600382815481106106d1576106d16139e9565b905f5260205f20906007020192506104f7835f848789611529565b6106f46135e6565b600354821061071657604051635dcaf2d760e01b815260040160405180910390fd5b60038281548110610729576107296139e9565b5f918252602091829020604080516101008101825260079390930290910180546001600160a01b039081168452600182015490811694840194909452600160a01b90930460ff161515908201526002820154606082015260038201546080820152600482015460a0820152600582015460c082015260069091015460e082015292915050565b6107b76117b0565b600d80546001600160a01b0319166001600160a01b0383161790556107da6117de565b6040516001600160a01b03821681527f15b49408719c001f91d2ec31b653d0929170f69ff422ef39920e9c280910115e9060200160405180910390a150565b5f61082382611896565b6101608101516040516370a0823160e01b81523060048201529192505f916001600160a01b03909116906370a0823190602401602060405180830381865afa158015610871573d5f803e3d5ffd5b505050506040513d601f19601f8201168201806040525081019061089591906139fd565b6001600160a01b039093165f908152600960205260409020929092555050565b335f908152600760205260408120805490919015159080826108d85760646108db565b60325b90505f426108e76135e6565b6003546108f75750505050505050565b8515610a1e5786545b5f8111801561090f5750848611155b15610a1457878181548110610926576109266139e9565b905f5260205f200154935060038481548110610944576109446139e9565b5f918252602091829020604080516101008101825260079390930290910180546001600160a01b039081168452600182015490811694840194909452600160a01b90930460ff1615159082015260028201546060820181905260038301546080830152600483015460a0830152600583015460c083015260069092015460e082015292506028906109d59085613a28565b1115610a02576109e58285611b45565b15610a02576109f48882611ca6565b856109fe81613a3b565b9650505b80610a0c81613a53565b915050610900565b5050505050505050565b6003545b5f81118015610a315750848611155b15610a145760038181548110610a4957610a496139e9565b5f918252602091829020604080516101008101825260079390930290910180546001600160a01b039081168452600182015490811694840194909452600160a01b90930460ff1615159082015260028201546060820181905260038301546080830152600483015460a0830152600583015460c083015260069092015460e08201529250602890610ada9085613a28565b1115610afd57610aea8285611b45565b15610afd5785610af981613a3b565b9650505b80610b0781613a53565b915050610a22565b610b1a83838361137e565b505050565b5f8111610b3f576040516342257ced60e11b815260040160405180910390fd5b5f610b4983611d20565b600a810154909150610b65906001600160a01b03163384611d95565b610b82576040516379cacff160e01b815260040160405180910390fd5b6001600160a01b0383165f908152600a602052604081208054849290610ba9908490613a68565b90915550506001600160a01b0383165f9081526009602052604081208054849290610bd5908490613a68565b90915550610b1a9050815f84611e1b565b60048181548110610bf5575f80fd5b5f91825260209091206007909102018054600182015460028301546003840154600485015460058601546006909601546001600160a01b03958616975094841695600160a01b90940460ff16949293919290919088565b5f610c5683611896565b60808101516001600160a01b03165f908152600660205260408120919250808085610c98576001600160a01b0387165f90815260086020526040902054610cb1565b6001600160a01b0387165f908152600960205260409020545b84549091505b5f82118015610cc557505f81115b15610d8c575f858281548110610cdd57610cdd6139e9565b905f5260205f200154905060038181548110610cfb57610cfb6139e9565b905f5260205f20906007020194508715158560010160149054906101000a900460ff16151514610d2b5750610d7a565b8715610d4757610d3d878684866124bb565b9094509250610d58565b610d528584846125c5565b90945092505b83610d635750610d7a565b610d6d8683611ca6565b610d786003826126c8565b505b80610d8481613a53565b915050610cb7565b508515610db65760808501516001600160a01b03165f908152600960205260409020819055610dd5565b60808501516001600160a01b03165f9081526008602052604090208190555b50505050505050565b3480610dfd576040516342257ced60e11b815260040160405180910390fd5b5f610e0783611d20565b6001600160a01b0384165f90815260086020526040812080549293508492909190610e33908490613a68565b90915550610b1a905081600184611e1b565b5f610e4f83611896565b90505f805f610e5e86866113e9565b9250905080610e8057604051632050d62b60e01b815260040160405180910390fd5b610e908461016001518787611d95565b610ead576040516379cacff160e01b815260040160405180910390fd5b60038281548110610ec057610ec06139e9565b905f5260205f2090600702019250610edc83600184888a611529565b505050505050565b610eec6117b0565b5f80546001600160a01b038381166001600160a01b031983168117909355604080519190921680825260208201939093527f850b3df64837d7d518b45f5aa64d104652c3b80eb5b34a8e3d9eb666cb7cdea5910160405180910390a15050565b6001600160a01b0381165f9081526008602052604081208054349290610f73908490613a68565b909155505050565b610f83613578565b811580610f91575060025482115b15610faf576040516362f850f760e11b815260040160405180910390fd5b5f6002610fbd600185613a28565b81548110610fcd57610fcd6139e9565b905f5260205f2090600b0201604051806101800160405290815f82018054610ff490613a7b565b80601f016020809104026020016040519081016040528092919081815260200182805461102090613a7b565b801561106b5780601f106110425761010080835404028352916020019161106b565b820191905f5260205f20905b81548152906001019060200180831161104e57829003601f168201915b5050505050815260200160018201805461108490613a7b565b80601f01602080910402602001604051908101604052809291908181526020018280546110b090613a7b565b80156110fb5780601f106110d2576101008083540402835291602001916110fb565b820191905f5260205f20905b8154815290600101906020018083116110de57829003601f168201915b5050509183525050600282015460ff90811660208301526003830154604083015260048301546001600160a01b0390811660608401526005840154908116608084015260a090920191600160a01b900416600181111561115d5761115d61369b565b600181111561116e5761116e61369b565b815260200160068201548152602001600782015481526020016008820154815260200160098201548152602001600a82015f9054906101000a90046001600160a01b03166001600160a01b03166001600160a01b03168152505090505f60065f83608001516001600160a01b03166001600160a01b031681526020019081526020015f20805490509050604051806101400160405280858152602001835f015181526020018360200151815260200183608001516001600160a01b031681526020018360a001516001600160a01b031681526020018360e00151815260200183610100015181526020018360c00151600181111561126e5761126e61369b565b815261012090930151602084015260409092015292915050565b6002545f036112bb575f546001600160a01b031633146112bb5760405163564b352960e11b815260040160405180910390fd5b6001600160a01b0386165f90815260056020526040902054869080158015906112e5575060025415155b15611313576040516315ef3a5760e01b81526001600160a01b03831660048201526024015b60405180910390fd5b600254620f424011611338576040516353bb24f960e01b815260040160405180910390fd5b5f8088600181111561134c5761134c61369b565b0361135d5761135a84612813565b90505b611365612848565b61137383828a888b8b612aef565b505050505050505050565b5f61138884611896565b905061139a8161016001518484611d95565b6113b7576040516379cacff160e01b815260040160405180910390fd5b6001600160a01b0384165f90815260096020526040812080548492906113de908490613a68565b909155505050505050565b5f806113f36135e6565b6001600160a01b0385165f90815260066020526040812080549091905b5f8111801561141d575081155b1561151d575f838281548110611435576114356139e9565b905f5260205f200154905060038181548110611453576114536139e9565b5f918252602091829020604080516101008101825260079390930290910180546001600160a01b039081168452600182015490811694840194909452600160a01b90930460ff161515908201526002820154606082015260038201546080820152600482015460a0820152600582015460c082015260069091015460e082018190529095508890036114eb576001925080955061150a565b821580156114fd5750878560e0015110155b1561150a57600192508095505b508061151581613a53565b915050611410565b50935050509250929050565b5f61153382611896565b90508280866115505761154d85846040015160ff16612f97565b91505b60038681548110611563576115636139e9565b5f9182526020909120600790910201600481015460058201548254929a5090918482148015916001600160a01b0316906115bb578a156115ae576115a78685612fbf565b92506115bb565b6115b88685612fca565b92505b60408051610100810182528d546001600160a01b03908116825260018f01549081166020830152600160a01b900460ff1615159181019190915260028d0154606082015260038d0154608082015260048d015460a082015260058d015460c082015260068d015460e082015261163390888886612fd5565b5f8b61163f5783611641565b865b9050821561168157868d6006015f82825461165c9190613a28565b92505081905550838d6005015f8282546116769190613a28565b9091555061168c9050565b61168c60038c6126c8565b60e08801515f81158015906116a657508961010001518310155b905080156117205760808a0180516001600160a01b039081165f908152600a6020908152604080832054945190931682526009905290812054906116ea8383613a28565b90508481111561171c576116ff8d338761310f565b61171c5760405163c96d18b560e01b815260040160405180910390fd5b5050505b7fd18715c1e0d5b06959a9b12a3c5d857ce3698a58f6ac5bc7726bd7df86476f408d8f86338e608001518d8b604051611797979695949392919096875294151560208701526001600160a01b0393841660408701529183166060860152909116608084015260a0830152151560c082015260e00190565b60405180910390a1505050505050505050505050505050565b5f546001600160a01b031633146117dc576040516332b2baa360e01b815233600482015260240161130a565b565b600c54158015906117fc575060f0600c54426117fa9190613a28565b105b1561180357565b600d5460408051634c6afee560e11b815290515f926001600160a01b0316916398d5fdca91600480830192869291908290030181865afa158015611849573d5f803e3d5ffd5b505050506040513d5f823e601f3d908101601f191682016040526118709190810190613ab3565b90505f8061187d836131e6565b91509150801561188d57600b8290555b505042600c5550565b6118fd60408051610180810182526060808252602082018190525f92820183905281018290526080810182905260a081018290529060c082019081526020015f81526020015f81526020015f81526020015f81526020015f6001600160a01b031681525090565b6001600160a01b0382165f90815260056020526040902054801580611923575060025481115b15611941576040516362f850f760e11b815260040160405180910390fd5b600261194e600183613a28565b8154811061195e5761195e6139e9565b905f5260205f2090600b0201604051806101800160405290815f8201805461198590613a7b565b80601f01602080910402602001604051908101604052809291908181526020018280546119b190613a7b565b80156119fc5780601f106119d3576101008083540402835291602001916119fc565b820191905f5260205f20905b8154815290600101906020018083116119df57829003601f168201915b50505050508152602001600182018054611a1590613a7b565b80601f0160208091040260200160405190810160405280929190818152602001828054611a4190613a7b565b8015611a8c5780601f10611a6357610100808354040283529160200191611a8c565b820191905f5260205f20905b815481529060010190602001808311611a6f57829003601f168201915b5050509183525050600282015460ff90811660208301526003830154604083015260048301546001600160a01b0390811660608401526005840154908116608084015260a090920191600160a01b9004166001811115611aee57611aee61369b565b6001811115611aff57611aff61369b565b815260068201546020820152600782015460408201526008820154606082015260098201546080820152600a909101546001600160a01b031660a0909101529392505050565b5f80611b548460200151611896565b9050836040015115611bb957611b71845f01518560c00151613317565b611b7e575f9150506104e2565b60c084015160808201516001600160a01b03165f9081526008602052604081208054909190611bae908490613a28565b90915550611c439050565b611bcb81855f01518660c0015161310f565b611bd8575f9150506104e2565b60c084015160808201516001600160a01b03165f908152600a602052604081208054909190611c08908490613a28565b909155505060c084015160808201516001600160a01b03165f9081526009602052604081208054909190611c3d908490613a28565b90915550505b6040848101518551825186815291151560208301526001600160a01b03168183015290517f3d8da260c5e35dcba4a38c844b979a7c70c6fdbed58be53da6e817ef6a2541e09181900360600190a1611c9c6003846126c8565b5060019392505050565b81545f90611cb690600190613a28565b9050808214611cf857828181548110611cd157611cd16139e9565b905f5260205f200154838381548110611cec57611cec6139e9565b5f918252602090912001555b82805480611d0857611d08613b25565b600190038181905f5260205f20015f90559055505050565b6001600160a01b0381165f90815260056020526040812054801580611d46575060025481115b15611d64576040516362f850f760e11b815260040160405180910390fd5b6002611d71600183613a28565b81548110611d8157611d816139e9565b905f5260205f2090600b0201915050919050565b6040516323b872dd60e01b81526001600160a01b038381166004830152306024830152604482018390525f91908516906323b872dd906064016020604051808303815f875af1925050508015611e08575060408051601f3d908101601f19168201909252611e0591810190613b39565b60015b611e1357505f610687565b949350505050565b5f806005850154600160a01b900460ff166001811115611e3d57611e3d61369b565b03611e6157611e4a6117de565b611e5a600b548560080154612fca565b90506121f1565b60016005850154600160a01b900460ff166001811115611e8357611e8361369b565b036121f1575f84600901545f1480611eab575060f0856009015442611ea89190613a28565b10155b905080156121e7575f60025f81548110611ec757611ec76139e9565b905f5260205f2090600b0201604051806101800160405290815f82018054611eee90613a7b565b80601f0160208091040260200160405190810160405280929190818152602001828054611f1a90613a7b565b8015611f655780601f10611f3c57610100808354040283529160200191611f65565b820191905f5260205f20905b815481529060010190602001808311611f4857829003601f168201915b50505050508152602001600182018054611f7e90613a7b565b80601f0160208091040260200160405190810160405280929190818152602001828054611faa90613a7b565b8015611ff55780601f10611fcc57610100808354040283529160200191611ff5565b820191905f5260205f20905b815481529060010190602001808311611fd857829003601f168201915b5050509183525050600282015460ff90811660208301526003830154604083015260048301546001600160a01b0390811660608401526005840154908116608084015260a090920191600160a01b90041660018111156120575761205761369b565b60018111156120685761206861369b565b81526006820154602082015260078201546040808301919091526008830154606083015260098301546080830152600a928301546001600160a01b0390811660a0909301929092529189015461016084015160058b015493516370a0823160e01b815293831660048501529394501691905f9083906370a0823190602401602060405180830381865afa158015612101573d5f803e3d5ffd5b505050506040513d601f19601f8201168201806040525081019061212591906139fd565b60058a01546040516370a0823160e01b81526001600160a01b0391821660048201529192505f91908416906370a0823190602401602060405180830381865afa158015612174573d5f803e3d5ffd5b505050506040513d601f19601f8201168201806040525081019061219891906139fd565b60028b01549091506121ae90839060ff16612f97565b91506121c181866040015160ff16612f97565b90506121cd8183612fca565b60088b018190554260098c015596506121ef945050505050565b846008015491505b505b5f831561221c5760028501546122159061220f90859060ff16612f97565b83612fca565b905061223c565b60028501546122399061223390859060ff16612f97565b83612fbf565b90505b5f8560070154831061224f575060068501545b604080516101008101825233815260048801546001600160a01b039081166020830190815288151593830193845242606084019081526080840186815260a0850189815260c086018b815260e087018a815260038054600181810183555f8381528b5160079093027fc2575a0e9e593c00f959f8c92f12db2869c3395a3b0502d05e2516446f71f85b81018054948d166001600160a01b03199095169490941790935598517fc2575a0e9e593c00f959f8c92f12db2869c3395a3b0502d05e2516446f71f85c830180549d511515600160a01b026001600160a81b0319909e1691909b16179b909b1790985594517fc2575a0e9e593c00f959f8c92f12db2869c3395a3b0502d05e2516446f71f85d88015592517fc2575a0e9e593c00f959f8c92f12db2869c3395a3b0502d05e2516446f71f85e87015590517fc2575a0e9e593c00f959f8c92f12db2869c3395a3b0502d05e2516446f71f85f860155517fc2575a0e9e593c00f959f8c92f12db2869c3395a3b0502d05e2516446f71f860850155517fc2575a0e9e593c00f959f8c92f12db2869c3395a3b0502d05e2516446f71f8619093019290925590549192909161240b9190613a28565b335f9081526007602090815260408083208054600180820183559185528385200185905560048d0180546001600160a01b03908116865260068552838620805493840181558652948490209091018590555481518581528c15159381019390935290921681830152606081018990526080810188905290519192507f96d694e92c01c8197b4cf2ecb0ec03be940cc6e384cbdfb2afb329375a0be252919081900360a00190a15050505050505050565b5f805f8086600601548510905080156124d6578491506124de565b866006015491505b86546124f59089906001600160a01b03168461310f565b15612543576125048286613a28565b9450801561253e5781876006015f82825461251f9190613a28565b9250508190555061253887600601548860040154612fbf565b60058801555b612550565b5f859350935050506125bc565b6001870154875460408051898152600160a01b90930460ff16151560208401526001600160a01b039091169082015281151560608201527fbdb78cc9b5d01bdac074df120cc9776d231060cdcdcc8c7f6c2039f67a5e626f9060800160405180910390a1159250839150505b94509492505050565b5f805f8086600601548610905080156125e0578591506125e8565b866006015491505b86546125fd906001600160a01b031683613317565b156126b75761260c8287613a28565b955080156126465781876006015f8282546126279190613a28565b9250508190555061264087600601548860040154612fca565b60058801555b6001870154875460408051888152600160a01b90930460ff16151560208401526001600160a01b039091169082015281151560608201527fbdb78cc9b5d01bdac074df120cc9776d231060cdcdcc8c7f6c2039f67a5e626f9060800160405180910390a11592508491506126c09050565b5f869350935050505b935093915050565b81545f906126d890600190613a28565b90508082146127a9578281815481106126f3576126f36139e9565b905f5260205f209060070201838381548110612711576127116139e9565b5f9182526020909120825460079092020180546001600160a01b03199081166001600160a01b039384161782556001808501805491840180549384169290951691821785555460ff600160a01b91829004161515026001600160a81b03199092161717909155600280830154908201556003808301549082015560048083015490820155600580830154908201556006918201549101555b828054806127b9576127b9613b25565b5f8281526020812060075f199093019283020180546001600160a01b03191681556001810180546001600160a81b031916905560028101829055600381018290556004810182905560058101829055600601559055505050565b5f805f61281f846131e6565b91509150806128415760405163e6f7d2c760e01b815260040160405180910390fd5b5092915050565b6002545f0361285357565b5f60025f81548110612867576128676139e9565b905f5260205f2090600b0201604051806101800160405290815f8201805461288e90613a7b565b80601f01602080910402602001604051908101604052809291908181526020018280546128ba90613a7b565b80156129055780601f106128dc57610100808354040283529160200191612905565b820191905f5260205f20905b8154815290600101906020018083116128e857829003601f168201915b5050505050815260200160018201805461291e90613a7b565b80601f016020809104026020016040519081016040528092919081815260200182805461294a90613a7b565b80156129955780601f1061296c57610100808354040283529160200191612995565b820191905f5260205f20905b81548152906001019060200180831161297857829003601f168201915b5050509183525050600282015460ff90811660208301526003830154604083015260048301546001600160a01b0390811660608401526005840154908116608084015260a090920191600160a01b90041660018111156129f7576129f761369b565b6001811115612a0857612a0861369b565b815260068201546020820152600782015460408201526008820154606082015260098201546080820152600a909101546001600160a01b031660a090910152610160810151600154919250612a5e913390611d95565b612a8157600154604051636508a50160e11b815260040161130a91815260200190565b60015460808201516001600160a01b03165f9081526009602052604081208054909190612aaf908490613a68565b925050819055505f6103e86005600154612ac99190613b54565b612ad39190613b7f565b90508060015f828254612ae69190613a68565b90915550505050565b6040516370a0823160e01b8152306004820152869060609081905f90819081906001600160a01b038716906370a0823190602401602060405180830381865afa925050508015612b5c575060408051601f3d908101601f19168201909252612b59918101906139fd565b60015b612b7957604051630a6f7ecd60e21b815260040160405180910390fd5b809250866001600160a01b031663313ce5676040518163ffffffff1660e01b8152600401602060405180830381865afa925050508015612bd6575060408051601f3d908101601f19168201909252612bd391810190613b9e565b60015b612be35760129150612be6565b91505b601260ff83161115612c0b5760405163432c0a5d60e01b815260040160405180910390fd5b612c178260ff166133b8565b9350866001600160a01b03166306fdde036040518163ffffffff1660e01b81526004015f60405180830381865afa925050508015612c7657506040513d5f823e601f3d908101601f19168201604052612c739190810190613ab3565b60015b15612c7e5795505b866001600160a01b03166395d89b416040518163ffffffff1660e01b81526004015f60405180830381865afa925050508015612cdb57506040513d5f823e601f3d908101601f19168201604052612cd89190810190613ab3565b60015b15612ce35794505b506001600160a01b03891615801590612cfb57505f8b115b15612d19576040516327bd783560e11b815260040160405180910390fd5b5f6040518061018001604052808781526020018681526020018360ff1681526020018581526020018e6001600160a01b031681526020018b6001600160a01b031681526020018c6001811115612d7157612d7161369b565b8152602081018b9052604081018a9052606081018e90525f608082018190526001600160a01b038a1660a09092019190915260028054600181018255915281519192508291600b9091027f405787fa12a823e0f2b7631cc41b3ba8828b3321ca811111fa75cd3aa3bb5ace01908190612dea9082613c02565b5060208201516001820190612dff9082613c02565b50604082015160028201805460ff191660ff9092169190911790556060820151600382015560808201516004820180546001600160a01b03199081166001600160a01b039384161790915560a084015160058401805492831691909316908117835560c085015192916001600160a81b03191617600160a01b836001811115612e8a57612e8a61369b565b021790555060e082015160068201556101008201516007820155610120820151600882015561014082015160098083019190915561016090920151600a90910180546001600160a01b0319166001600160a01b0392831617905560025460808401805183165f908152600560209081526040808320949094559151909316835292835290819020859055908201519051612f249190613cbe565b60405190819003812082519091612f3b9190613cbe565b60405190819003812060c0840151608085015160025492937f2b9a73ecc76ebad22366f66b2436a1725cc4f39aa579663fc941863779316b1b93612f80939291613cd9565b60405180910390a350505050505050505050505050565b5f81600114612fb857612fa9826133b8565b612fb39084613b54565b610687565b5090919050565b5f61068783836133d8565b5f61068783836133e3565b5f805f80876040015115612ff3575050855183925084915033613000565b5050855184925083915033905b61300b87828561310f565b613028576040516304de4e1d60e41b815260040160405180910390fd5b6130328285613317565b61304f576040516304de4e1d60e41b815260040160405180910390fd5b60808701516001600160a01b03165f908152600860205260408120805486929061307a908490613a28565b909155505060808701516001600160a01b03165f908152600a6020526040902054831080156130d45760808801516001600160a01b03165f908152600a6020526040812080548692906130ce908490613a28565b90915550505b60808801516001600160a01b03165f90815260096020526040812080548692906130ff908490613a28565b9091555050505050505050505050565b61016083015160405163a9059cbb60e01b81526001600160a01b038481166004830152602482018490525f92169063a9059cbb906044016020604051808303815f875af1925050508015613180575060408051601f3d908101601f1916820190925261317d91810190613b39565b60015b61318b57505f610687565b8015611e13576080850151604080518581526001600160a01b03878116602083015290921682820152517fa84f763be5bb36163517fb87c7af39f875a97866fdf7806eb1b3eac837ae35ea9181900360600190a19050610687565b5f8080808481808080805b8551811080156131ff575083155b156132ec57858181518110613216576132166139e9565b016020015160f81c945060308510801590613235575060398560ff1611155b156132a4578697508215613255578161324d81613d01565b925050613263565b613260600a88613b54565b96505b61326e82600a613dfc565b613279603087613e0a565b60ff166132869190613b54565b6132909088613a68565b96508688111561329f57600193505b6132da565b8460ff16602e036132da5782156132ba57600193505b60019250601291506132cd82600a613dfc565b6132d79088613b54565b96505b806132e481613a3b565b9150506131f1565b508161330757613304670de0b6b3a764000087613b54565b95505b5093989015975095505050505050565b5f80836001600160a01b0316836040515f6040518083038185875af1925050503d805f8114613361576040519150601f19603f3d011682016040523d82523d5f602084013e613366565b606091505b50509050801561068757604080518481526001600160a01b03861660208201527f0897f9f8697c0fee5acfc2c885618e98d4f0882e71e35d182faccc1915c01ecb910160405180910390a19392505050565b5f816012036133c957506001919050565b81601203600a0a90505b919050565b5f61068783836133f7565b5f61068783670de0b6b3a7640000846134a9565b5f80805f19848609848602925082811083820303915050805f036134285750670de0b6b3a7640000900490506104e2565b670de0b6b3a7640000811061345a576040516369e06faf60e11b8152600481018690526024810185905260440161130a565b5f670de0b6b3a764000085870962040000818503049310909103600160ee1b02919091177faccb18165bd6fe31ae1cf318dc5b51eee0e1ba569b88cd74c1773b91fac106690291505092915050565b5f80805f19858709858702925082811083820303915050805f036134e0578382816134d6576134d6613b6b565b0492505050610687565b8381106135115760405163362ced0960e11b815260048101879052602481018690526044810185905260640161130a565b5f8486880960026001871981018816978890046003810283188082028403028082028403028082028403028082028403028082028403029081029092039091025f889003889004909101858311909403939093029303949094049190911702949350505050565b6040518061014001604052805f815260200160608152602001606081526020015f6001600160a01b031681526020015f6001600160a01b031681526020015f81526020015f81526020015f60018111156135d4576135d461369b565b81526020015f81526020015f81525090565b6040518061010001604052805f6001600160a01b031681526020015f6001600160a01b031681526020015f151581526020015f81526020015f81526020015f81526020015f81526020015f81525090565b5f60208284031215613647575f80fd5b5035919050565b5f5b83811015613668578181015183820152602001613650565b50505f910152565b5f815180845261368781602086016020860161364e565b601f01601f19169290920160200192915050565b634e487b7160e01b5f52602160045260245ffd5b600281106136cb57634e487b7160e01b5f52602160045260245ffd5b9052565b60208152815160208201525f60208301516101408060408501526136f7610160850183613670565b91506040850151601f198584030160608601526137148382613670565b925050606085015161373160808601826001600160a01b03169052565b5060808501516001600160a01b03811660a08601525060a085015160c085015260c085015160e085015260e085015161010061376f818701836136af565b860151610120868101919091529095015193019290925250919050565b80356001600160a01b03811681146133d3575f80fd5b634e487b7160e01b5f52604160045260245ffd5b604051601f8201601f1916810167ffffffffffffffff811182821017156137df576137df6137a2565b604052919050565b5f67ffffffffffffffff821115613800576138006137a2565b50601f01601f191660200190565b5f82601f83011261381d575f80fd5b813561383061382b826137e7565b6137b6565b818152846020838601011115613844575f80fd5b816020850160208301375f918101602001919091529392505050565b5f805f805f60a08688031215613874575f80fd5b61387d8661378c565b945061388b6020870161378c565b93506040860135925060608601359150608086013567ffffffffffffffff8111156138b4575f80fd5b6138c08882890161380e565b9150509295509295909350565b5f80604083850312156138de575f80fd5b6138e78361378c565b946020939093013593505050565b8015158114613902575f80fd5b50565b5f8060408385031215613916575f80fd5b61391f8361378c565b9150602083013561392f816138f5565b809150509250929050565b5f805f806080858703121561394d575f80fd5b6139568561378c565b93506020850135925060408501359150606085013567ffffffffffffffff81111561397f575f80fd5b61398b8782880161380e565b91505092959194509250565b5f602082840312156139a7575f80fd5b6106878261378c565b5f805f606084860312156139c2575f80fd5b6139cb8461378c565b92506139d96020850161378c565b9150604084013590509250925092565b634e487b7160e01b5f52603260045260245ffd5b5f60208284031215613a0d575f80fd5b5051919050565b634e487b7160e01b5f52601160045260245ffd5b818103818111156104e2576104e2613a14565b5f60018201613a4c57613a4c613a14565b5060010190565b5f81613a6157613a61613a14565b505f190190565b808201808211156104e2576104e2613a14565b600181811c90821680613a8f57607f821691505b602082108103613aad57634e487b7160e01b5f52602260045260245ffd5b50919050565b5f60208284031215613ac3575f80fd5b815167ffffffffffffffff811115613ad9575f80fd5b8201601f81018413613ae9575f80fd5b8051613af761382b826137e7565b818152856020838501011115613b0b575f80fd5b613b1c82602083016020860161364e565b95945050505050565b634e487b7160e01b5f52603160045260245ffd5b5f60208284031215613b49575f80fd5b8151610687816138f5565b80820281158282048414176104e2576104e2613a14565b634e487b7160e01b5f52601260045260245ffd5b5f82613b9957634e487b7160e01b5f52601260045260245ffd5b500490565b5f60208284031215613bae575f80fd5b815160ff81168114610687575f80fd5b601f821115610b1a57805f5260205f20601f840160051c81016020851015613be35750805b601f840160051c820191505b818110156104f7575f8155600101613bef565b815167ffffffffffffffff811115613c1c57613c1c6137a2565b613c3081613c2a8454613a7b565b84613bbe565b602080601f831160018114613c63575f8415613c4c5750858301515b5f19600386901b1c1916600185901b178555610edc565b5f85815260208120601f198616915b82811015613c9157888601518255948401946001909101908401613c72565b5085821015613cae57878501515f19600388901b60f8161c191681555b5050505050600190811b01905550565b5f8251613ccf81846020870161364e565b9190910192915050565b60608101613ce782866136af565b6001600160a01b0393909316602082015260400152919050565b5f60ff821680613d1357613d13613a14565b5f190192915050565b600181815b80851115613d5657815f1904821115613d3c57613d3c613a14565b80851615613d4957918102915b93841c9390800290613d21565b509250929050565b5f82613d6c575060016104e2565b81613d7857505f6104e2565b8160018114613d8e5760028114613d9857613db4565b60019150506104e2565b60ff841115613da957613da9613a14565b50506001821b6104e2565b5060208310610133831016604e8410600b8410161715613dd7575081810a6104e2565b613de18383613d1c565b805f1904821115613df457613df4613a14565b029392505050565b5f61068760ff841683613d5e565b60ff82811682821603908111156104e2576104e2613a1456fea2646970667358221220507766ee354d221cc1116a1944a0cdd8975f9c40ca768e0d7f3bd18feb134ec664736f6c63430008160033",
			"opcodes": "PUSH1 0x80 PUSH1 0x40 MSTORE PUSH2 0x3E8 PUSH1 0x1 SSTORE PUSH1 0x3 DUP1 SLOAD PUSH3 0x1C SWAP2 PUSH1 0x4 SWAP2 PUSH3 0x41 JUMP JUMPDEST POP CALLVALUE DUP1 ISZERO PUSH3 0x29 JUMPI PUSH0 DUP1 REVERT JUMPDEST POP PUSH0 DUP1 SLOAD PUSH1 0x1 PUSH1 0x1 PUSH1 0xA0 SHL SUB NOT AND CALLER OR SWAP1 SSTORE PUSH3 0x171 JUMP JUMPDEST DUP3 DUP1 SLOAD DUP3 DUP3 SSTORE SWAP1 PUSH0 MSTORE PUSH1 0x20 PUSH0 KECCAK256 SWAP1 PUSH1 0x7 MUL DUP2 ADD SWAP3 DUP3 ISZERO PUSH3 0x10A JUMPI PUSH0 MSTORE PUSH1 0x20 PUSH0 KECCAK256 SWAP2 PUSH1 0x7 MUL DUP3 ADD JUMPDEST DUP3 DUP2 GT ISZERO PUSH3 0x10A JUMPI DUP3 SLOAD DUP3 SLOAD PUSH1 0x1 PUSH1 0x1 PUSH1 0xA0 SHL SUB NOT SWAP1 DUP2 AND PUSH1 0x1 PUSH1 0x1 PUSH1 0xA0 SHL SUB SWAP3 DUP4 AND OR DUP5 SSTORE PUSH1 0x1 DUP1 DUP7 ADD DUP1 SLOAD SWAP2 DUP7 ADD DUP1 SLOAD SWAP4 DUP5 AND SWAP3 SWAP1 SWAP5 AND SWAP2 DUP3 OR DUP5 SSTORE SLOAD PUSH1 0xFF PUSH1 0x1 PUSH1 0xA0 SHL SWAP2 DUP3 SWAP1 DIV AND ISZERO ISZERO MUL PUSH1 0x1 PUSH1 0x1 PUSH1 0xA8 SHL SUB NOT SWAP1 SWAP3 AND OR OR SWAP1 SSTORE PUSH1 0x2 DUP1 DUP5 ADD SLOAD SWAP1 DUP4 ADD SSTORE PUSH1 0x3 DUP1 DUP5 ADD SLOAD SWAP1 DUP4 ADD SSTORE PUSH1 0x4 DUP1 DUP5 ADD SLOAD SWAP1 DUP4 ADD SSTORE PUSH1 0x5 DUP1 DUP5 ADD SLOAD SWAP1 DUP4 ADD SSTORE PUSH1 0x6 DUP1 DUP5 ADD SLOAD SWAP1 DUP4 ADD SSTORE PUSH1 0x7 SWAP3 DUP4 ADD SWAP3 SWAP1 SWAP2 ADD SWAP1 PUSH3 0x69 JUMP JUMPDEST POP PUSH3 0x118 SWAP3 SWAP2 POP PUSH3 0x11C JUMP JUMPDEST POP SWAP1 JUMP JUMPDEST JUMPDEST DUP1 DUP3 GT ISZERO PUSH3 0x118 JUMPI DUP1 SLOAD PUSH1 0x1 PUSH1 0x1 PUSH1 0xA0 SHL SUB NOT AND DUP2 SSTORE PUSH1 0x1 DUP2 ADD DUP1 SLOAD PUSH1 0x1 PUSH1 0x1 PUSH1 0xA8 SHL SUB NOT AND SWAP1 SSTORE PUSH0 PUSH1 0x2 DUP3 ADD DUP2 SWAP1 SSTORE PUSH1 0x3 DUP3 ADD DUP2 SWAP1 SSTORE PUSH1 0x4 DUP3 ADD DUP2 SWAP1 SSTORE PUSH1 0x5 DUP3 ADD DUP2 SWAP1 SSTORE PUSH1 0x6 DUP3 ADD SSTORE PUSH1 0x7 ADD PUSH3 0x11D JUMP JUMPDEST PUSH2 0x3E59 DUP1 PUSH3 0x17F PUSH0 CODECOPY PUSH0 RETURN INVALID PUSH1 0x80 PUSH1 0x40 MSTORE PUSH1 0x4 CALLDATASIZE LT PUSH2 0x147 JUMPI PUSH0 CALLDATALOAD PUSH1 0xE0 SHR DUP1 PUSH4 0x8DA5CB5B GT PUSH2 0xB3 JUMPI DUP1 PUSH4 0xC201E47C GT PUSH2 0x6D JUMPI DUP1 PUSH4 0xC201E47C EQ PUSH2 0x43A JUMPI DUP1 PUSH4 0xD2980065 EQ PUSH2 0x459 JUMPI DUP1 PUSH4 0xD7DCDCEC EQ PUSH2 0x46C JUMPI DUP1 PUSH4 0xDB34A679 EQ PUSH2 0x480 JUMPI DUP1 PUSH4 0xF2FDE38B EQ PUSH2 0x49F JUMPI DUP1 PUSH4 0xF340FA01 EQ PUSH2 0x4BE JUMPI PUSH0 DUP1 REVERT JUMPDEST DUP1 PUSH4 0x8DA5CB5B EQ PUSH2 0x332 JUMPI DUP1 PUSH4 0x9351769F EQ PUSH2 0x368 JUMPI DUP1 PUSH4 0xA08B5BBA EQ PUSH2 0x37C JUMPI DUP1 PUSH4 0xA262B73F EQ PUSH2 0x39B JUMPI DUP1 PUSH4 0xA5B6F92A EQ PUSH2 0x3BA JUMPI DUP1 PUSH4 0xA85C38EF EQ PUSH2 0x3CF JUMPI PUSH0 DUP1 REVERT JUMPDEST DUP1 PUSH4 0x4D9EA07D GT PUSH2 0x104 JUMPI DUP1 PUSH4 0x4D9EA07D EQ PUSH2 0x284 JUMPI DUP1 PUSH4 0x673CF82A EQ PUSH2 0x2A3 JUMPI DUP1 PUSH4 0x6DAF6945 EQ PUSH2 0x2C2 JUMPI DUP1 PUSH4 0x7C38D663 EQ PUSH2 0x2D5 JUMPI DUP1 PUSH4 0x86F179D2 EQ PUSH2 0x2F4 JUMPI DUP1 PUSH4 0x87B337E8 EQ PUSH2 0x313 JUMPI PUSH0 DUP1 REVERT JUMPDEST DUP1 PUSH4 0x12065FE0 EQ PUSH2 0x14B JUMPI DUP1 PUSH4 0x1F5D2641 EQ PUSH2 0x16C JUMPI DUP1 PUSH4 0x2E128417 EQ PUSH2 0x198 JUMPI DUP1 PUSH4 0x338B5DEA EQ PUSH2 0x1B9 JUMPI DUP1 PUSH4 0x3B174F0F EQ PUSH2 0x1D8 JUMPI DUP1 PUSH4 0x3EF73856 EQ PUSH2 0x1F7 JUMPI JUMPDEST PUSH0 DUP1 REVERT JUMPDEST CALLVALUE DUP1 ISZERO PUSH2 0x156 JUMPI PUSH0 DUP1 REVERT JUMPDEST POP SELFBALANCE JUMPDEST PUSH1 0x40 MLOAD SWAP1 DUP2 MSTORE PUSH1 0x20 ADD JUMPDEST PUSH1 0x40 MLOAD DUP1 SWAP2 SUB SWAP1 RETURN JUMPDEST CALLVALUE DUP1 ISZERO PUSH2 0x177 JUMPI PUSH0 DUP1 REVERT JUMPDEST POP PUSH2 0x18B PUSH2 0x186 CALLDATASIZE PUSH1 0x4 PUSH2 0x3637 JUMP JUMPDEST PUSH2 0x4D1 JUMP JUMPDEST PUSH1 0x40 MLOAD PUSH2 0x163 SWAP2 SWAP1 PUSH2 0x36CF JUMP JUMPDEST CALLVALUE DUP1 ISZERO PUSH2 0x1A3 JUMPI PUSH0 DUP1 REVERT JUMPDEST POP PUSH2 0x1B7 PUSH2 0x1B2 CALLDATASIZE PUSH1 0x4 PUSH2 0x3860 JUMP JUMPDEST PUSH2 0x4E8 JUMP JUMPDEST STOP JUMPDEST CALLVALUE DUP1 ISZERO PUSH2 0x1C4 JUMPI PUSH0 DUP1 REVERT JUMPDEST POP PUSH2 0x1B7 PUSH2 0x1D3 CALLDATASIZE PUSH1 0x4 PUSH2 0x38CD JUMP JUMPDEST PUSH2 0x4FE JUMP JUMPDEST CALLVALUE DUP1 ISZERO PUSH2 0x1E3 JUMPI PUSH0 DUP1 REVERT JUMPDEST POP PUSH2 0x159 PUSH2 0x1F2 CALLDATASIZE PUSH1 0x4 PUSH2 0x3905 JUMP JUMPDEST PUSH2 0x50D JUMP JUMPDEST CALLVALUE DUP1 ISZERO PUSH2 0x202 JUMPI PUSH0 DUP1 REVERT JUMPDEST POP PUSH2 0x216 PUSH2 0x211 CALLDATASIZE PUSH1 0x4 PUSH2 0x38CD JUMP JUMPDEST PUSH2 0x54E JUMP JUMPDEST PUSH1 0x40 MLOAD PUSH2 0x163 SWAP2 SWAP1 PUSH0 PUSH2 0x100 DUP3 ADD SWAP1 POP PUSH1 0x1 DUP1 PUSH1 0xA0 SHL SUB DUP1 DUP5 MLOAD AND DUP4 MSTORE DUP1 PUSH1 0x20 DUP6 ADD MLOAD AND PUSH1 0x20 DUP5 ADD MSTORE POP PUSH1 0x40 DUP4 ADD MLOAD ISZERO ISZERO PUSH1 0x40 DUP4 ADD MSTORE PUSH1 0x60 DUP4 ADD MLOAD PUSH1 0x60 DUP4 ADD MSTORE PUSH1 0x80 DUP4 ADD MLOAD PUSH1 0x80 DUP4 ADD MSTORE PUSH1 0xA0 DUP4 ADD MLOAD PUSH1 0xA0 DUP4 ADD MSTORE PUSH1 0xC0 DUP4 ADD MLOAD PUSH1 0xC0 DUP4 ADD MSTORE PUSH1 0xE0 DUP4 ADD MLOAD PUSH1 0xE0 DUP4 ADD MSTORE SWAP3 SWAP2 POP POP JUMP JUMPDEST CALLVALUE DUP1 ISZERO PUSH2 0x28F JUMPI PUSH0 DUP1 REVERT JUMPDEST POP PUSH2 0x1B7 PUSH2 0x29E CALLDATASIZE PUSH1 0x4 PUSH2 0x393A JUMP JUMPDEST PUSH2 0x64A JUMP JUMPDEST CALLVALUE DUP1 ISZERO PUSH2 0x2AE JUMPI PUSH0 DUP1 REVERT JUMPDEST POP PUSH2 0x18B PUSH2 0x2BD CALLDATASIZE PUSH1 0x4 PUSH2 0x3997 JUMP JUMPDEST PUSH2 0x65E JUMP JUMPDEST PUSH2 0x1B7 PUSH2 0x2D0 CALLDATASIZE PUSH1 0x4 PUSH2 0x3997 JUMP JUMPDEST PUSH2 0x68E JUMP JUMPDEST CALLVALUE DUP1 ISZERO PUSH2 0x2E0 JUMPI PUSH0 DUP1 REVERT JUMPDEST POP PUSH2 0x216 PUSH2 0x2EF CALLDATASIZE PUSH1 0x4 PUSH2 0x3637 JUMP JUMPDEST PUSH2 0x6EC JUMP JUMPDEST CALLVALUE DUP1 ISZERO PUSH2 0x2FF JUMPI PUSH0 DUP1 REVERT JUMPDEST POP PUSH2 0x1B7 PUSH2 0x30E CALLDATASIZE PUSH1 0x4 PUSH2 0x3997 JUMP JUMPDEST PUSH2 0x7AF JUMP JUMPDEST CALLVALUE DUP1 ISZERO PUSH2 0x31E JUMPI PUSH0 DUP1 REVERT JUMPDEST POP PUSH2 0x1B7 PUSH2 0x32D CALLDATASIZE PUSH1 0x4 PUSH2 0x3997 JUMP JUMPDEST PUSH2 0x819 JUMP JUMPDEST CALLVALUE DUP1 ISZERO PUSH2 0x33D JUMPI PUSH0 DUP1 REVERT JUMPDEST POP PUSH0 SLOAD PUSH2 0x350 SWAP1 PUSH1 0x1 PUSH1 0x1 PUSH1 0xA0 SHL SUB AND DUP2 JUMP JUMPDEST PUSH1 0x40 MLOAD PUSH1 0x1 PUSH1 0x1 PUSH1 0xA0 SHL SUB SWAP1 SWAP2 AND DUP2 MSTORE PUSH1 0x20 ADD PUSH2 0x163 JUMP JUMPDEST CALLVALUE DUP1 ISZERO PUSH2 0x373 JUMPI PUSH0 DUP1 REVERT JUMPDEST POP PUSH2 0x1B7 PUSH2 0x8B5 JUMP JUMPDEST CALLVALUE DUP1 ISZERO PUSH2 0x387 JUMPI PUSH0 DUP1 REVERT JUMPDEST POP PUSH2 0x1B7 PUSH2 0x396 CALLDATASIZE PUSH1 0x4 PUSH2 0x39B0 JUMP JUMPDEST PUSH2 0xB0F JUMP JUMPDEST CALLVALUE DUP1 ISZERO PUSH2 0x3A6 JUMPI PUSH0 DUP1 REVERT JUMPDEST POP PUSH2 0x1B7 PUSH2 0x3B5 CALLDATASIZE PUSH1 0x4 PUSH2 0x38CD JUMP JUMPDEST PUSH2 0xB1F JUMP JUMPDEST CALLVALUE DUP1 ISZERO PUSH2 0x3C5 JUMPI PUSH0 DUP1 REVERT JUMPDEST POP PUSH2 0x159 PUSH1 0x1 SLOAD DUP2 JUMP JUMPDEST CALLVALUE DUP1 ISZERO PUSH2 0x3DA JUMPI PUSH0 DUP1 REVERT JUMPDEST POP PUSH2 0x3EE PUSH2 0x3E9 CALLDATASIZE PUSH1 0x4 PUSH2 0x3637 JUMP JUMPDEST PUSH2 0xBE6 JUMP JUMPDEST PUSH1 0x40 DUP1 MLOAD PUSH1 0x1 PUSH1 0x1 PUSH1 0xA0 SHL SUB SWAP10 DUP11 AND DUP2 MSTORE SWAP9 SWAP1 SWAP8 AND PUSH1 0x20 DUP10 ADD MSTORE SWAP5 ISZERO ISZERO SWAP6 DUP8 ADD SWAP6 SWAP1 SWAP6 MSTORE PUSH1 0x60 DUP7 ADD SWAP3 SWAP1 SWAP3 MSTORE PUSH1 0x80 DUP6 ADD MSTORE PUSH1 0xA0 DUP5 ADD MSTORE PUSH1 0xC0 DUP4 ADD SWAP2 SWAP1 SWAP2 MSTORE PUSH1 0xE0 DUP3 ADD MSTORE PUSH2 0x100 ADD PUSH2 0x163 JUMP JUMPDEST CALLVALUE DUP1 ISZERO PUSH2 0x445 JUMPI PUSH0 DUP1 REVERT JUMPDEST POP PUSH2 0x1B7 PUSH2 0x454 CALLDATASIZE PUSH1 0x4 PUSH2 0x3905 JUMP JUMPDEST PUSH2 0xC4C JUMP JUMPDEST PUSH2 0x1B7 PUSH2 0x467 CALLDATASIZE PUSH1 0x4 PUSH2 0x3997 JUMP JUMPDEST PUSH2 0xDDE JUMP JUMPDEST CALLVALUE DUP1 ISZERO PUSH2 0x477 JUMPI PUSH0 DUP1 REVERT JUMPDEST POP PUSH1 0xB SLOAD PUSH2 0x159 JUMP JUMPDEST CALLVALUE DUP1 ISZERO PUSH2 0x48B JUMPI PUSH0 DUP1 REVERT JUMPDEST POP PUSH2 0x1B7 PUSH2 0x49A CALLDATASIZE PUSH1 0x4 PUSH2 0x38CD JUMP JUMPDEST PUSH2 0xE45 JUMP JUMPDEST CALLVALUE DUP1 ISZERO PUSH2 0x4AA JUMPI PUSH0 DUP1 REVERT JUMPDEST POP PUSH2 0x1B7 PUSH2 0x4B9 CALLDATASIZE PUSH1 0x4 PUSH2 0x3997 JUMP JUMPDEST PUSH2 0xEE4 JUMP JUMPDEST PUSH2 0x1B7 PUSH2 0x4CC CALLDATASIZE PUSH1 0x4 PUSH2 0x3997 JUMP JUMPDEST PUSH2 0xF4C JUMP JUMPDEST PUSH2 0x4D9 PUSH2 0x3578 JUMP JUMPDEST PUSH2 0x4E2 DUP3 PUSH2 0xF7B JUMP JUMPDEST SWAP3 SWAP2 POP POP JUMP JUMPDEST PUSH2 0x4F7 DUP6 PUSH1 0x1 DUP6 DUP6 DUP9 DUP7 PUSH2 0x1288 JUMP JUMPDEST POP POP POP POP POP JUMP JUMPDEST PUSH2 0x509 DUP3 CALLER DUP4 PUSH2 0x137E JUMP JUMPDEST POP POP JUMP JUMPDEST PUSH0 DUP2 ISZERO PUSH2 0x532 JUMPI POP PUSH1 0x1 PUSH1 0x1 PUSH1 0xA0 SHL SUB DUP3 AND PUSH0 SWAP1 DUP2 MSTORE PUSH1 0x8 PUSH1 0x20 MSTORE PUSH1 0x40 SWAP1 KECCAK256 SLOAD PUSH2 0x4E2 JUMP JUMPDEST POP POP PUSH1 0x1 PUSH1 0x1 PUSH1 0xA0 SHL SUB AND PUSH0 SWAP1 DUP2 MSTORE PUSH1 0x9 PUSH1 0x20 MSTORE PUSH1 0x40 SWAP1 KECCAK256 SLOAD SWAP1 JUMP JUMPDEST PUSH2 0x556 PUSH2 0x35E6 JUMP JUMPDEST PUSH1 0x1 PUSH1 0x1 PUSH1 0xA0 SHL SUB DUP4 AND PUSH0 SWAP1 DUP2 MSTORE PUSH1 0x6 PUSH1 0x20 MSTORE PUSH1 0x40 SWAP1 KECCAK256 DUP1 SLOAD DUP4 LT PUSH2 0x58E JUMPI PUSH1 0x40 MLOAD PUSH4 0x5DCAF2D7 PUSH1 0xE0 SHL DUP2 MSTORE PUSH1 0x4 ADD PUSH1 0x40 MLOAD DUP1 SWAP2 SUB SWAP1 REVERT JUMPDEST PUSH0 DUP2 DUP5 DUP2 SLOAD DUP2 LT PUSH2 0x5A1 JUMPI PUSH2 0x5A1 PUSH2 0x39E9 JUMP JUMPDEST SWAP1 PUSH0 MSTORE PUSH1 0x20 PUSH0 KECCAK256 ADD SLOAD SWAP1 POP PUSH0 PUSH1 0x3 DUP3 DUP2 SLOAD DUP2 LT PUSH2 0x5C0 JUMPI PUSH2 0x5C0 PUSH2 0x39E9 JUMP JUMPDEST PUSH0 SWAP2 DUP3 MSTORE PUSH1 0x20 SWAP2 DUP3 SWAP1 KECCAK256 PUSH1 0x40 DUP1 MLOAD PUSH2 0x100 DUP2 ADD DUP3 MSTORE PUSH1 0x7 SWAP4 SWAP1 SWAP4 MUL SWAP1 SWAP2 ADD DUP1 SLOAD PUSH1 0x1 PUSH1 0x1 PUSH1 0xA0 SHL SUB SWAP1 DUP2 AND DUP5 MSTORE PUSH1 0x1 DUP3 ADD SLOAD SWAP1 DUP2 AND SWAP5 DUP5 ADD SWAP5 SWAP1 SWAP5 MSTORE PUSH1 0x1 PUSH1 0xA0 SHL SWAP1 SWAP4 DIV PUSH1 0xFF AND ISZERO ISZERO SWAP1 DUP3 ADD MSTORE PUSH1 0x2 DUP3 ADD SLOAD PUSH1 0x60 DUP3 ADD MSTORE PUSH1 0x3 DUP3 ADD SLOAD PUSH1 0x80 DUP3 ADD MSTORE PUSH1 0x4 DUP3 ADD SLOAD PUSH1 0xA0 DUP3 ADD MSTORE PUSH1 0x5 DUP3 ADD SLOAD PUSH1 0xC0 DUP3 ADD MSTORE PUSH1 0x6 SWAP1 SWAP2 ADD SLOAD PUSH1 0xE0 DUP3 ADD MSTORE SWAP7 SWAP6 POP POP POP POP POP POP JUMP JUMPDEST PUSH2 0x658 DUP5 PUSH0 DUP6 DUP6 PUSH0 DUP7 PUSH2 0x1288 JUMP JUMPDEST POP POP POP POP JUMP JUMPDEST PUSH2 0x666 PUSH2 0x3578 JUMP JUMPDEST PUSH1 0x1 PUSH1 0x1 PUSH1 0xA0 SHL SUB DUP3 AND PUSH0 SWAP1 DUP2 MSTORE PUSH1 0x5 PUSH1 0x20 MSTORE PUSH1 0x40 SWAP1 KECCAK256 SLOAD PUSH2 0x687 DUP2 PUSH2 0xF7B JUMP JUMPDEST SWAP4 SWAP3 POP POP POP JUMP JUMPDEST CALLVALUE PUSH0 DUP1 DUP1 PUSH2 0x69C DUP6 DUP6 PUSH2 0x13E9 JUMP JUMPDEST SWAP3 POP SWAP1 POP DUP1 PUSH2 0x6BE JUMPI PUSH1 0x40 MLOAD PUSH4 0x2050D62B PUSH1 0xE0 SHL DUP2 MSTORE PUSH1 0x4 ADD PUSH1 0x40 MLOAD DUP1 SWAP2 SUB SWAP1 REVERT JUMPDEST PUSH1 0x3 DUP3 DUP2 SLOAD DUP2 LT PUSH2 0x6D1 JUMPI PUSH2 0x6D1 PUSH2 0x39E9 JUMP JUMPDEST SWAP1 PUSH0 MSTORE PUSH1 0x20 PUSH0 KECCAK256 SWAP1 PUSH1 0x7 MUL ADD SWAP3 POP PUSH2 0x4F7 DUP4 PUSH0 DUP5 DUP8 DUP10 PUSH2 0x1529 JUMP JUMPDEST PUSH2 0x6F4 PUSH2 0x35E6 JUMP JUMPDEST PUSH1 0x3 SLOAD DUP3 LT PUSH2 0x716 JUMPI PUSH1 0x40 MLOAD PUSH4 0x5DCAF2D7 PUSH1 0xE0 SHL DUP2 MSTORE PUSH1 0x4 ADD PUSH1 0x40 MLOAD DUP1 SWAP2 SUB SWAP1 REVERT JUMPDEST PUSH1 0x3 DUP3 DUP2 SLOAD DUP2 LT PUSH2 0x729 JUMPI PUSH2 0x729 PUSH2 0x39E9 JUMP JUMPDEST PUSH0 SWAP2 DUP3 MSTORE PUSH1 0x20 SWAP2 DUP3 SWAP1 KECCAK256 PUSH1 0x40 DUP1 MLOAD PUSH2 0x100 DUP2 ADD DUP3 MSTORE PUSH1 0x7 SWAP4 SWAP1 SWAP4 MUL SWAP1 SWAP2 ADD DUP1 SLOAD PUSH1 0x1 PUSH1 0x1 PUSH1 0xA0 SHL SUB SWAP1 DUP2 AND DUP5 MSTORE PUSH1 0x1 DUP3 ADD SLOAD SWAP1 DUP2 AND SWAP5 DUP5 ADD SWAP5 SWAP1 SWAP5 MSTORE PUSH1 0x1 PUSH1 0xA0 SHL SWAP1 SWAP4 DIV PUSH1 0xFF AND ISZERO ISZERO SWAP1 DUP3 ADD MSTORE PUSH1 0x2 DUP3 ADD SLOAD PUSH1 0x60 DUP3 ADD MSTORE PUSH1 0x3 DUP3 ADD SLOAD PUSH1 0x80 DUP3 ADD MSTORE PUSH1 0x4 DUP3 ADD SLOAD PUSH1 0xA0 DUP3 ADD MSTORE PUSH1 0x5 DUP3 ADD SLOAD PUSH1 0xC0 DUP3 ADD MSTORE PUSH1 0x6 SWAP1 SWAP2 ADD SLOAD PUSH1 0xE0 DUP3 ADD MSTORE SWAP3 SWAP2 POP POP JUMP JUMPDEST PUSH2 0x7B7 PUSH2 0x17B0 JUMP JUMPDEST PUSH1 0xD DUP1 SLOAD PUSH1 0x1 PUSH1 0x1 PUSH1 0xA0 SHL SUB NOT AND PUSH1 0x1 PUSH1 0x1 PUSH1 0xA0 SHL SUB DUP4 AND OR SWAP1 SSTORE PUSH2 0x7DA PUSH2 0x17DE JUMP JUMPDEST PUSH1 0x40 MLOAD PUSH1 0x1 PUSH1 0x1 PUSH1 0xA0 SHL SUB DUP3 AND DUP2 MSTORE PUSH32 0x15B49408719C001F91D2EC31B653D0929170F69FF422EF39920E9C280910115E SWAP1 PUSH1 0x20 ADD PUSH1 0x40 MLOAD DUP1 SWAP2 SUB SWAP1 LOG1 POP JUMP JUMPDEST PUSH0 PUSH2 0x823 DUP3 PUSH2 0x1896 JUMP JUMPDEST PUSH2 0x160 DUP2 ADD MLOAD PUSH1 0x40 MLOAD PUSH4 0x70A08231 PUSH1 0xE0 SHL DUP2 MSTORE ADDRESS PUSH1 0x4 DUP3 ADD MSTORE SWAP2 SWAP3 POP PUSH0 SWAP2 PUSH1 0x1 PUSH1 0x1 PUSH1 0xA0 SHL SUB SWAP1 SWAP2 AND SWAP1 PUSH4 0x70A08231 SWAP1 PUSH1 0x24 ADD PUSH1 0x20 PUSH1 0x40 MLOAD DUP1 DUP4 SUB DUP2 DUP7 GAS STATICCALL ISZERO DUP1 ISZERO PUSH2 0x871 JUMPI RETURNDATASIZE PUSH0 DUP1 RETURNDATACOPY RETURNDATASIZE PUSH0 REVERT JUMPDEST POP POP POP POP PUSH1 0x40 MLOAD RETURNDATASIZE PUSH1 0x1F NOT PUSH1 0x1F DUP3 ADD AND DUP3 ADD DUP1 PUSH1 0x40 MSTORE POP DUP2 ADD SWAP1 PUSH2 0x895 SWAP2 SWAP1 PUSH2 0x39FD JUMP JUMPDEST PUSH1 0x1 PUSH1 0x1 PUSH1 0xA0 SHL SUB SWAP1 SWAP4 AND PUSH0 SWAP1 DUP2 MSTORE PUSH1 0x9 PUSH1 0x20 MSTORE PUSH1 0x40 SWAP1 KECCAK256 SWAP3 SWAP1 SWAP3 SSTORE POP POP JUMP JUMPDEST CALLER PUSH0 SWAP1 DUP2 MSTORE PUSH1 0x7 PUSH1 0x20 MSTORE PUSH1 0x40 DUP2 KECCAK256 DUP1 SLOAD SWAP1 SWAP2 SWAP1 ISZERO ISZERO SWAP1 DUP1 DUP3 PUSH2 0x8D8 JUMPI PUSH1 0x64 PUSH2 0x8DB JUMP JUMPDEST PUSH1 0x32 JUMPDEST SWAP1 POP PUSH0 TIMESTAMP PUSH2 0x8E7 PUSH2 0x35E6 JUMP JUMPDEST PUSH1 0x3 SLOAD PUSH2 0x8F7 JUMPI POP POP POP POP POP POP POP JUMP JUMPDEST DUP6 ISZERO PUSH2 0xA1E JUMPI DUP7 SLOAD JUMPDEST PUSH0 DUP2 GT DUP1 ISZERO PUSH2 0x90F JUMPI POP DUP5 DUP7 GT ISZERO JUMPDEST ISZERO PUSH2 0xA14 JUMPI DUP8 DUP2 DUP2 SLOAD DUP2 LT PUSH2 0x926 JUMPI PUSH2 0x926 PUSH2 0x39E9 JUMP JUMPDEST SWAP1 PUSH0 MSTORE PUSH1 0x20 PUSH0 KECCAK256 ADD SLOAD SWAP4 POP PUSH1 0x3 DUP5 DUP2 SLOAD DUP2 LT PUSH2 0x944 JUMPI PUSH2 0x944 PUSH2 0x39E9 JUMP JUMPDEST PUSH0 SWAP2 DUP3 MSTORE PUSH1 0x20 SWAP2 DUP3 SWAP1 KECCAK256 PUSH1 0x40 DUP1 MLOAD PUSH2 0x100 DUP2 ADD DUP3 MSTORE PUSH1 0x7 SWAP4 SWAP1 SWAP4 MUL SWAP1 SWAP2 ADD DUP1 SLOAD PUSH1 0x1 PUSH1 0x1 PUSH1 0xA0 SHL SUB SWAP1 DUP2 AND DUP5 MSTORE PUSH1 0x1 DUP3 ADD SLOAD SWAP1 DUP2 AND SWAP5 DUP5 ADD SWAP5 SWAP1 SWAP5 MSTORE PUSH1 0x1 PUSH1 0xA0 SHL SWAP1 SWAP4 DIV PUSH1 0xFF AND ISZERO ISZERO SWAP1 DUP3 ADD MSTORE PUSH1 0x2 DUP3 ADD SLOAD PUSH1 0x60 DUP3 ADD DUP2 SWAP1 MSTORE PUSH1 0x3 DUP4 ADD SLOAD PUSH1 0x80 DUP4 ADD MSTORE PUSH1 0x4 DUP4 ADD SLOAD PUSH1 0xA0 DUP4 ADD MSTORE PUSH1 0x5 DUP4 ADD SLOAD PUSH1 0xC0 DUP4 ADD MSTORE PUSH1 0x6 SWAP1 SWAP3 ADD SLOAD PUSH1 0xE0 DUP3 ADD MSTORE SWAP3 POP PUSH1 0x28 SWAP1 PUSH2 0x9D5 SWAP1 DUP6 PUSH2 0x3A28 JUMP JUMPDEST GT ISZERO PUSH2 0xA02 JUMPI PUSH2 0x9E5 DUP3 DUP6 PUSH2 0x1B45 JUMP JUMPDEST ISZERO PUSH2 0xA02 JUMPI PUSH2 0x9F4 DUP9 DUP3 PUSH2 0x1CA6 JUMP JUMPDEST DUP6 PUSH2 0x9FE DUP2 PUSH2 0x3A3B JUMP JUMPDEST SWAP7 POP POP JUMPDEST DUP1 PUSH2 0xA0C DUP2 PUSH2 0x3A53 JUMP JUMPDEST SWAP2 POP POP PUSH2 0x900 JUMP JUMPDEST POP POP POP POP POP POP POP POP JUMP JUMPDEST PUSH1 0x3 SLOAD JUMPDEST PUSH0 DUP2 GT DUP1 ISZERO PUSH2 0xA31 JUMPI POP DUP5 DUP7 GT ISZERO JUMPDEST ISZERO PUSH2 0xA14 JUMPI PUSH1 0x3 DUP2 DUP2 SLOAD DUP2 LT PUSH2 0xA49 JUMPI PUSH2 0xA49 PUSH2 0x39E9 JUMP JUMPDEST PUSH0 SWAP2 DUP3 MSTORE PUSH1 0x20 SWAP2 DUP3 SWAP1 KECCAK256 PUSH1 0x40 DUP1 MLOAD PUSH2 0x100 DUP2 ADD DUP3 MSTORE PUSH1 0x7 SWAP4 SWAP1 SWAP4 MUL SWAP1 SWAP2 ADD DUP1 SLOAD PUSH1 0x1 PUSH1 0x1 PUSH1 0xA0 SHL SUB SWAP1 DUP2 AND DUP5 MSTORE PUSH1 0x1 DUP3 ADD SLOAD SWAP1 DUP2 AND SWAP5 DUP5 ADD SWAP5 SWAP1 SWAP5 MSTORE PUSH1 0x1 PUSH1 0xA0 SHL SWAP1 SWAP4 DIV PUSH1 0xFF AND ISZERO ISZERO SWAP1 DUP3 ADD MSTORE PUSH1 0x2 DUP3 ADD SLOAD PUSH1 0x60 DUP3 ADD DUP2 SWAP1 MSTORE PUSH1 0x3 DUP4 ADD SLOAD PUSH1 0x80 DUP4 ADD MSTORE PUSH1 0x4 DUP4 ADD SLOAD PUSH1 0xA0 DUP4 ADD MSTORE PUSH1 0x5 DUP4 ADD SLOAD PUSH1 0xC0 DUP4 ADD MSTORE PUSH1 0x6 SWAP1 SWAP3 ADD SLOAD PUSH1 0xE0 DUP3 ADD MSTORE SWAP3 POP PUSH1 0x28 SWAP1 PUSH2 0xADA SWAP1 DUP6 PUSH2 0x3A28 JUMP JUMPDEST GT ISZERO PUSH2 0xAFD JUMPI PUSH2 0xAEA DUP3 DUP6 PUSH2 0x1B45 JUMP JUMPDEST ISZERO PUSH2 0xAFD JUMPI DUP6 PUSH2 0xAF9 DUP2 PUSH2 0x3A3B JUMP JUMPDEST SWAP7 POP POP JUMPDEST DUP1 PUSH2 0xB07 DUP2 PUSH2 0x3A53 JUMP JUMPDEST SWAP2 POP POP PUSH2 0xA22 JUMP JUMPDEST PUSH2 0xB1A DUP4 DUP4 DUP4 PUSH2 0x137E JUMP JUMPDEST POP POP POP JUMP JUMPDEST PUSH0 DUP2 GT PUSH2 0xB3F JUMPI PUSH1 0x40 MLOAD PUSH4 0x42257CED PUSH1 0xE1 SHL DUP2 MSTORE PUSH1 0x4 ADD PUSH1 0x40 MLOAD DUP1 SWAP2 SUB SWAP1 REVERT JUMPDEST PUSH0 PUSH2 0xB49 DUP4 PUSH2 0x1D20 JUMP JUMPDEST PUSH1 0xA DUP2 ADD SLOAD SWAP1 SWAP2 POP PUSH2 0xB65 SWAP1 PUSH1 0x1 PUSH1 0x1 PUSH1 0xA0 SHL SUB AND CALLER DUP5 PUSH2 0x1D95 JUMP JUMPDEST PUSH2 0xB82 JUMPI PUSH1 0x40 MLOAD PUSH4 0x79CACFF1 PUSH1 0xE0 SHL DUP2 MSTORE PUSH1 0x4 ADD PUSH1 0x40 MLOAD DUP1 SWAP2 SUB SWAP1 REVERT JUMPDEST PUSH1 0x1 PUSH1 0x1 PUSH1 0xA0 SHL SUB DUP4 AND PUSH0 SWAP1 DUP2 MSTORE PUSH1 0xA PUSH1 0x20 MSTORE PUSH1 0x40 DUP2 KECCAK256 DUP1 SLOAD DUP5 SWAP3 SWAP1 PUSH2 0xBA9 SWAP1 DUP5 SWAP1 PUSH2 0x3A68 JUMP JUMPDEST SWAP1 SWAP2 SSTORE POP POP PUSH1 0x1 PUSH1 0x1 PUSH1 0xA0 SHL SUB DUP4 AND PUSH0 SWAP1 DUP2 MSTORE PUSH1 0x9 PUSH1 0x20 MSTORE PUSH1 0x40 DUP2 KECCAK256 DUP1 SLOAD DUP5 SWAP3 SWAP1 PUSH2 0xBD5 SWAP1 DUP5 SWAP1 PUSH2 0x3A68 JUMP JUMPDEST SWAP1 SWAP2 SSTORE POP PUSH2 0xB1A SWAP1 POP DUP2 PUSH0 DUP5 PUSH2 0x1E1B JUMP JUMPDEST PUSH1 0x4 DUP2 DUP2 SLOAD DUP2 LT PUSH2 0xBF5 JUMPI PUSH0 DUP1 REVERT JUMPDEST PUSH0 SWAP2 DUP3 MSTORE PUSH1 0x20 SWAP1 SWAP2 KECCAK256 PUSH1 0x7 SWAP1 SWAP2 MUL ADD DUP1 SLOAD PUSH1 0x1 DUP3 ADD SLOAD PUSH1 0x2 DUP4 ADD SLOAD PUSH1 0x3 DUP5 ADD SLOAD PUSH1 0x4 DUP6 ADD SLOAD PUSH1 0x5 DUP7 ADD SLOAD PUSH1 0x6 SWAP1 SWAP7 ADD SLOAD PUSH1 0x1 PUSH1 0x1 PUSH1 0xA0 SHL SUB SWAP6 DUP7 AND SWAP8 POP SWAP5 DUP5 AND SWAP6 PUSH1 0x1 PUSH1 0xA0 SHL SWAP1 SWAP5 DIV PUSH1 0xFF AND SWAP5 SWAP3 SWAP4 SWAP2 SWAP3 SWAP1 SWAP2 SWAP1 DUP9 JUMP JUMPDEST PUSH0 PUSH2 0xC56 DUP4 PUSH2 0x1896 JUMP JUMPDEST PUSH1 0x80 DUP2 ADD MLOAD PUSH1 0x1 PUSH1 0x1 PUSH1 0xA0 SHL SUB AND PUSH0 SWAP1 DUP2 MSTORE PUSH1 0x6 PUSH1 0x20 MSTORE PUSH1 0x40 DUP2 KECCAK256 SWAP2 SWAP3 POP DUP1 DUP1 DUP6 PUSH2 0xC98 JUMPI PUSH1 0x1 PUSH1 0x1 PUSH1 0xA0 SHL SUB DUP8 AND PUSH0 SWAP1 DUP2 MSTORE PUSH1 0x8 PUSH1 0x20 MSTORE PUSH1 0x40 SWAP1 KECCAK256 SLOAD PUSH2 0xCB1 JUMP JUMPDEST PUSH1 0x1 PUSH1 0x1 PUSH1 0xA0 SHL SUB DUP8 AND PUSH0 SWAP1 DUP2 MSTORE PUSH1 0x9 PUSH1 0x20 MSTORE PUSH1 0x40 SWAP1 KECCAK256 SLOAD JUMPDEST DUP5 SLOAD SWAP1 SWAP2 POP JUMPDEST PUSH0 DUP3 GT DUP1 ISZERO PUSH2 0xCC5 JUMPI POP PUSH0 DUP2 GT JUMPDEST ISZERO PUSH2 0xD8C JUMPI PUSH0 DUP6 DUP3 DUP2 SLOAD DUP2 LT PUSH2 0xCDD JUMPI PUSH2 0xCDD PUSH2 0x39E9 JUMP JUMPDEST SWAP1 PUSH0 MSTORE PUSH1 0x20 PUSH0 KECCAK256 ADD SLOAD SWAP1 POP PUSH1 0x3 DUP2 DUP2 SLOAD DUP2 LT PUSH2 0xCFB JUMPI PUSH2 0xCFB PUSH2 0x39E9 JUMP JUMPDEST SWAP1 PUSH0 MSTORE PUSH1 0x20 PUSH0 KECCAK256 SWAP1 PUSH1 0x7 MUL ADD SWAP5 POP DUP8 ISZERO ISZERO DUP6 PUSH1 0x1 ADD PUSH1 0x14 SWAP1 SLOAD SWAP1 PUSH2 0x100 EXP SWAP1 DIV PUSH1 0xFF AND ISZERO ISZERO EQ PUSH2 0xD2B JUMPI POP PUSH2 0xD7A JUMP JUMPDEST DUP8 ISZERO PUSH2 0xD47 JUMPI PUSH2 0xD3D DUP8 DUP7 DUP5 DUP7 PUSH2 0x24BB JUMP JUMPDEST SWAP1 SWAP5 POP SWAP3 POP PUSH2 0xD58 JUMP JUMPDEST PUSH2 0xD52 DUP6 DUP5 DUP5 PUSH2 0x25C5 JUMP JUMPDEST SWAP1 SWAP5 POP SWAP3 POP JUMPDEST DUP4 PUSH2 0xD63 JUMPI POP PUSH2 0xD7A JUMP JUMPDEST PUSH2 0xD6D DUP7 DUP4 PUSH2 0x1CA6 JUMP JUMPDEST PUSH2 0xD78 PUSH1 0x3 DUP3 PUSH2 0x26C8 JUMP JUMPDEST POP JUMPDEST DUP1 PUSH2 0xD84 DUP2 PUSH2 0x3A53 JUMP JUMPDEST SWAP2 POP POP PUSH2 0xCB7 JUMP JUMPDEST POP DUP6 ISZERO PUSH2 0xDB6 JUMPI PUSH1 0x80 DUP6 ADD MLOAD PUSH1 0x1 PUSH1 0x1 PUSH1 0xA0 SHL SUB AND PUSH0 SWAP1 DUP2 MSTORE PUSH1 0x9 PUSH1 0x20 MSTORE PUSH1 0x40 SWAP1 KECCAK256 DUP2 SWAP1 SSTORE PUSH2 0xDD5 JUMP JUMPDEST PUSH1 0x80 DUP6 ADD MLOAD PUSH1 0x1 PUSH1 0x1 PUSH1 0xA0 SHL SUB AND PUSH0 SWAP1 DUP2 MSTORE PUSH1 0x8 PUSH1 0x20 MSTORE PUSH1 0x40 SWAP1 KECCAK256 DUP2 SWAP1 SSTORE JUMPDEST POP POP POP POP POP POP POP JUMP JUMPDEST CALLVALUE DUP1 PUSH2 0xDFD JUMPI PUSH1 0x40 MLOAD PUSH4 0x42257CED PUSH1 0xE1 SHL DUP2 MSTORE PUSH1 0x4 ADD PUSH1 0x40 MLOAD DUP1 SWAP2 SUB SWAP1 REVERT JUMPDEST PUSH0 PUSH2 0xE07 DUP4 PUSH2 0x1D20 JUMP JUMPDEST PUSH1 0x1 PUSH1 0x1 PUSH1 0xA0 SHL SUB DUP5 AND PUSH0 SWAP1 DUP2 MSTORE PUSH1 0x8 PUSH1 0x20 MSTORE PUSH1 0x40 DUP2 KECCAK256 DUP1 SLOAD SWAP3 SWAP4 POP DUP5 SWAP3 SWAP1 SWAP2 SWAP1 PUSH2 0xE33 SWAP1 DUP5 SWAP1 PUSH2 0x3A68 JUMP JUMPDEST SWAP1 SWAP2 SSTORE POP PUSH2 0xB1A SWAP1 POP DUP2 PUSH1 0x1 DUP5 PUSH2 0x1E1B JUMP JUMPDEST PUSH0 PUSH2 0xE4F DUP4 PUSH2 0x1896 JUMP JUMPDEST SWAP1 POP PUSH0 DUP1 PUSH0 PUSH2 0xE5E DUP7 DUP7 PUSH2 0x13E9 JUMP JUMPDEST SWAP3 POP SWAP1 POP DUP1 PUSH2 0xE80 JUMPI PUSH1 0x40 MLOAD PUSH4 0x2050D62B PUSH1 0xE0 SHL DUP2 MSTORE PUSH1 0x4 ADD PUSH1 0x40 MLOAD DUP1 SWAP2 SUB SWAP1 REVERT JUMPDEST PUSH2 0xE90 DUP5 PUSH2 0x160 ADD MLOAD DUP8 DUP8 PUSH2 0x1D95 JUMP JUMPDEST PUSH2 0xEAD JUMPI PUSH1 0x40 MLOAD PUSH4 0x79CACFF1 PUSH1 0xE0 SHL DUP2 MSTORE PUSH1 0x4 ADD PUSH1 0x40 MLOAD DUP1 SWAP2 SUB SWAP1 REVERT JUMPDEST PUSH1 0x3 DUP3 DUP2 SLOAD DUP2 LT PUSH2 0xEC0 JUMPI PUSH2 0xEC0 PUSH2 0x39E9 JUMP JUMPDEST SWAP1 PUSH0 MSTORE PUSH1 0x20 PUSH0 KECCAK256 SWAP1 PUSH1 0x7 MUL ADD SWAP3 POP PUSH2 0xEDC DUP4 PUSH1 0x1 DUP5 DUP9 DUP11 PUSH2 0x1529 JUMP JUMPDEST POP POP POP POP POP POP JUMP JUMPDEST PUSH2 0xEEC PUSH2 0x17B0 JUMP JUMPDEST PUSH0 DUP1 SLOAD PUSH1 0x1 PUSH1 0x1 PUSH1 0xA0 SHL SUB DUP4 DUP2 AND PUSH1 0x1 PUSH1 0x1 PUSH1 0xA0 SHL SUB NOT DUP4 AND DUP2 OR SWAP1 SWAP4 SSTORE PUSH1 0x40 DUP1 MLOAD SWAP2 SWAP1 SWAP3 AND DUP1 DUP3 MSTORE PUSH1 0x20 DUP3 ADD SWAP4 SWAP1 SWAP4 MSTORE PUSH32 0x850B3DF64837D7D518B45F5AA64D104652C3B80EB5B34A8E3D9EB666CB7CDEA5 SWAP2 ADD PUSH1 0x40 MLOAD DUP1 SWAP2 SUB SWAP1 LOG1 POP POP JUMP JUMPDEST PUSH1 0x1 PUSH1 0x1 PUSH1 0xA0 SHL SUB DUP2 AND PUSH0 SWAP1 DUP2 MSTORE PUSH1 0x8 PUSH1 0x20 MSTORE PUSH1 0x40 DUP2 KECCAK256 DUP1 SLOAD CALLVALUE SWAP3 SWAP1 PUSH2 0xF73 SWAP1 DUP5 SWAP1 PUSH2 0x3A68 JUMP JUMPDEST SWAP1 SWAP2 SSTORE POP POP POP JUMP JUMPDEST PUSH2 0xF83 PUSH2 0x3578 JUMP JUMPDEST DUP2 ISZERO DUP1 PUSH2 0xF91 JUMPI POP PUSH1 0x2 SLOAD DUP3 GT JUMPDEST ISZERO PUSH2 0xFAF JUMPI PUSH1 0x40 MLOAD PUSH4 0x62F850F7 PUSH1 0xE1 SHL DUP2 MSTORE PUSH1 0x4 ADD PUSH1 0x40 MLOAD DUP1 SWAP2 SUB SWAP1 REVERT JUMPDEST PUSH0 PUSH1 0x2 PUSH2 0xFBD PUSH1 0x1 DUP6 PUSH2 0x3A28 JUMP JUMPDEST DUP2 SLOAD DUP2 LT PUSH2 0xFCD JUMPI PUSH2 0xFCD PUSH2 0x39E9 JUMP JUMPDEST SWAP1 PUSH0 MSTORE PUSH1 0x20 PUSH0 KECCAK256 SWAP1 PUSH1 0xB MUL ADD PUSH1 0x40 MLOAD DUP1 PUSH2 0x180 ADD PUSH1 0x40 MSTORE SWAP1 DUP2 PUSH0 DUP3 ADD DUP1 SLOAD PUSH2 0xFF4 SWAP1 PUSH2 0x3A7B JUMP JUMPDEST DUP1 PUSH1 0x1F ADD PUSH1 0x20 DUP1 SWAP2 DIV MUL PUSH1 0x20 ADD PUSH1 0x40 MLOAD SWAP1 DUP2 ADD PUSH1 0x40 MSTORE DUP1 SWAP3 SWAP2 SWAP1 DUP2 DUP2 MSTORE PUSH1 0x20 ADD DUP3 DUP1 SLOAD PUSH2 0x1020 SWAP1 PUSH2 0x3A7B JUMP JUMPDEST DUP1 ISZERO PUSH2 0x106B JUMPI DUP1 PUSH1 0x1F LT PUSH2 0x1042 JUMPI PUSH2 0x100 DUP1 DUP4 SLOAD DIV MUL DUP4 MSTORE SWAP2 PUSH1 0x20 ADD SWAP2 PUSH2 0x106B JUMP JUMPDEST DUP3 ADD SWAP2 SWAP1 PUSH0 MSTORE PUSH1 0x20 PUSH0 KECCAK256 SWAP1 JUMPDEST DUP2 SLOAD DUP2 MSTORE SWAP1 PUSH1 0x1 ADD SWAP1 PUSH1 0x20 ADD DUP1 DUP4 GT PUSH2 0x104E JUMPI DUP3 SWAP1 SUB PUSH1 0x1F AND DUP3 ADD SWAP2 JUMPDEST POP POP POP POP POP DUP2 MSTORE PUSH1 0x20 ADD PUSH1 0x1 DUP3 ADD DUP1 SLOAD PUSH2 0x1084 SWAP1 PUSH2 0x3A7B JUMP JUMPDEST DUP1 PUSH1 0x1F ADD PUSH1 0x20 DUP1 SWAP2 DIV MUL PUSH1 0x20 ADD PUSH1 0x40 MLOAD SWAP1 DUP2 ADD PUSH1 0x40 MSTORE DUP1 SWAP3 SWAP2 SWAP1 DUP2 DUP2 MSTORE PUSH1 0x20 ADD DUP3 DUP1 SLOAD PUSH2 0x10B0 SWAP1 PUSH2 0x3A7B JUMP JUMPDEST DUP1 ISZERO PUSH2 0x10FB JUMPI DUP1 PUSH1 0x1F LT PUSH2 0x10D2 JUMPI PUSH2 0x100 DUP1 DUP4 SLOAD DIV MUL DUP4 MSTORE SWAP2 PUSH1 0x20 ADD SWAP2 PUSH2 0x10FB JUMP JUMPDEST DUP3 ADD SWAP2 SWAP1 PUSH0 MSTORE PUSH1 0x20 PUSH0 KECCAK256 SWAP1 JUMPDEST DUP2 SLOAD DUP2 MSTORE SWAP1 PUSH1 0x1 ADD SWAP1 PUSH1 0x20 ADD DUP1 DUP4 GT PUSH2 0x10DE JUMPI DUP3 SWAP1 SUB PUSH1 0x1F AND DUP3 ADD SWAP2 JUMPDEST POP POP POP SWAP2 DUP4 MSTORE POP POP PUSH1 0x2 DUP3 ADD SLOAD PUSH1 0xFF SWAP1 DUP2 AND PUSH1 0x20 DUP4 ADD MSTORE PUSH1 0x3 DUP4 ADD SLOAD PUSH1 0x40 DUP4 ADD MSTORE PUSH1 0x4 DUP4 ADD SLOAD PUSH1 0x1 PUSH1 0x1 PUSH1 0xA0 SHL SUB SWAP1 DUP2 AND PUSH1 0x60 DUP5 ADD MSTORE PUSH1 0x5 DUP5 ADD SLOAD SWAP1 DUP2 AND PUSH1 0x80 DUP5 ADD MSTORE PUSH1 0xA0 SWAP1 SWAP3 ADD SWAP2 PUSH1 0x1 PUSH1 0xA0 SHL SWAP1 DIV AND PUSH1 0x1 DUP2 GT ISZERO PUSH2 0x115D JUMPI PUSH2 0x115D PUSH2 0x369B JUMP JUMPDEST PUSH1 0x1 DUP2 GT ISZERO PUSH2 0x116E JUMPI PUSH2 0x116E PUSH2 0x369B JUMP JUMPDEST DUP2 MSTORE PUSH1 0x20 ADD PUSH1 0x6 DUP3 ADD SLOAD DUP2 MSTORE PUSH1 0x20 ADD PUSH1 0x7 DUP3 ADD SLOAD DUP2 MSTORE PUSH1 0x20 ADD PUSH1 0x8 DUP3 ADD SLOAD DUP2 MSTORE PUSH1 0x20 ADD PUSH1 0x9 DUP3 ADD SLOAD DUP2 MSTORE PUSH1 0x20 ADD PUSH1 0xA DUP3 ADD PUSH0 SWAP1 SLOAD SWAP1 PUSH2 0x100 EXP SWAP1 DIV PUSH1 0x1 PUSH1 0x1 PUSH1 0xA0 SHL SUB AND PUSH1 0x1 PUSH1 0x1 PUSH1 0xA0 SHL SUB AND PUSH1 0x1 PUSH1 0x1 PUSH1 0xA0 SHL SUB AND DUP2 MSTORE POP POP SWAP1 POP PUSH0 PUSH1 0x6 PUSH0 DUP4 PUSH1 0x80 ADD MLOAD PUSH1 0x1 PUSH1 0x1 PUSH1 0xA0 SHL SUB AND PUSH1 0x1 PUSH1 0x1 PUSH1 0xA0 SHL SUB AND DUP2 MSTORE PUSH1 0x20 ADD SWAP1 DUP2 MSTORE PUSH1 0x20 ADD PUSH0 KECCAK256 DUP1 SLOAD SWAP1 POP SWAP1 POP PUSH1 0x40 MLOAD DUP1 PUSH2 0x140 ADD PUSH1 0x40 MSTORE DUP1 DUP6 DUP2 MSTORE PUSH1 0x20 ADD DUP4 PUSH0 ADD MLOAD DUP2 MSTORE PUSH1 0x20 ADD DUP4 PUSH1 0x20 ADD MLOAD DUP2 MSTORE PUSH1 0x20 ADD DUP4 PUSH1 0x80 ADD MLOAD PUSH1 0x1 PUSH1 0x1 PUSH1 0xA0 SHL SUB AND DUP2 MSTORE PUSH1 0x20 ADD DUP4 PUSH1 0xA0 ADD MLOAD PUSH1 0x1 PUSH1 0x1 PUSH1 0xA0 SHL SUB AND DUP2 MSTORE PUSH1 0x20 ADD DUP4 PUSH1 0xE0 ADD MLOAD DUP2 MSTORE PUSH1 0x20 ADD DUP4 PUSH2 0x100 ADD MLOAD DUP2 MSTORE PUSH1 0x20 ADD DUP4 PUSH1 0xC0 ADD MLOAD PUSH1 0x1 DUP2 GT ISZERO PUSH2 0x126E JUMPI PUSH2 0x126E PUSH2 0x369B JUMP JUMPDEST DUP2 MSTORE PUSH2 0x120 SWAP1 SWAP4 ADD MLOAD PUSH1 0x20 DUP5 ADD MSTORE PUSH1 0x40 SWAP1 SWAP3 ADD MSTORE SWAP3 SWAP2 POP POP JUMP JUMPDEST PUSH1 0x2 SLOAD PUSH0 SUB PUSH2 0x12BB JUMPI PUSH0 SLOAD PUSH1 0x1 PUSH1 0x1 PUSH1 0xA0 SHL SUB AND CALLER EQ PUSH2 0x12BB JUMPI PUSH1 0x40 MLOAD PUSH4 0x564B3529 PUSH1 0xE1 SHL DUP2 MSTORE PUSH1 0x4 ADD PUSH1 0x40 MLOAD DUP1 SWAP2 SUB SWAP1 REVERT JUMPDEST PUSH1 0x1 PUSH1 0x1 PUSH1 0xA0 SHL SUB DUP7 AND PUSH0 SWAP1 DUP2 MSTORE PUSH1 0x5 PUSH1 0x20 MSTORE PUSH1 0x40 SWAP1 KECCAK256 SLOAD DUP7 SWAP1 DUP1 ISZERO DUP1 ISZERO SWAP1 PUSH2 0x12E5 JUMPI POP PUSH1 0x2 SLOAD ISZERO ISZERO JUMPDEST ISZERO PUSH2 0x1313 JUMPI PUSH1 0x40 MLOAD PUSH4 0x15EF3A57 PUSH1 0xE0 SHL DUP2 MSTORE PUSH1 0x1 PUSH1 0x1 PUSH1 0xA0 SHL SUB DUP4 AND PUSH1 0x4 DUP3 ADD MSTORE PUSH1 0x24 ADD JUMPDEST PUSH1 0x40 MLOAD DUP1 SWAP2 SUB SWAP1 REVERT JUMPDEST PUSH1 0x2 SLOAD PUSH3 0xF4240 GT PUSH2 0x1338 JUMPI PUSH1 0x40 MLOAD PUSH4 0x53BB24F9 PUSH1 0xE0 SHL DUP2 MSTORE PUSH1 0x4 ADD PUSH1 0x40 MLOAD DUP1 SWAP2 SUB SWAP1 REVERT JUMPDEST PUSH0 DUP1 DUP9 PUSH1 0x1 DUP2 GT ISZERO PUSH2 0x134C JUMPI PUSH2 0x134C PUSH2 0x369B JUMP JUMPDEST SUB PUSH2 0x135D JUMPI PUSH2 0x135A DUP5 PUSH2 0x2813 JUMP JUMPDEST SWAP1 POP JUMPDEST PUSH2 0x1365 PUSH2 0x2848 JUMP JUMPDEST PUSH2 0x1373 DUP4 DUP3 DUP11 DUP9 DUP12 DUP12 PUSH2 0x2AEF JUMP JUMPDEST POP POP POP POP POP POP POP POP POP JUMP JUMPDEST PUSH0 PUSH2 0x1388 DUP5 PUSH2 0x1896 JUMP JUMPDEST SWAP1 POP PUSH2 0x139A DUP2 PUSH2 0x160 ADD MLOAD DUP5 DUP5 PUSH2 0x1D95 JUMP JUMPDEST PUSH2 0x13B7 JUMPI PUSH1 0x40 MLOAD PUSH4 0x79CACFF1 PUSH1 0xE0 SHL DUP2 MSTORE PUSH1 0x4 ADD PUSH1 0x40 MLOAD DUP1 SWAP2 SUB SWAP1 REVERT JUMPDEST PUSH1 0x1 PUSH1 0x1 PUSH1 0xA0 SHL SUB DUP5 AND PUSH0 SWAP1 DUP2 MSTORE PUSH1 0x9 PUSH1 0x20 MSTORE PUSH1 0x40 DUP2 KECCAK256 DUP1 SLOAD DUP5 SWAP3 SWAP1 PUSH2 0x13DE SWAP1 DUP5 SWAP1 PUSH2 0x3A68 JUMP JUMPDEST SWAP1 SWAP2 SSTORE POP POP POP POP POP POP JUMP JUMPDEST PUSH0 DUP1 PUSH2 0x13F3 PUSH2 0x35E6 JUMP JUMPDEST PUSH1 0x1 PUSH1 0x1 PUSH1 0xA0 SHL SUB DUP6 AND PUSH0 SWAP1 DUP2 MSTORE PUSH1 0x6 PUSH1 0x20 MSTORE PUSH1 0x40 DUP2 KECCAK256 DUP1 SLOAD SWAP1 SWAP2 SWAP1 JUMPDEST PUSH0 DUP2 GT DUP1 ISZERO PUSH2 0x141D JUMPI POP DUP2 ISZERO JUMPDEST ISZERO PUSH2 0x151D JUMPI PUSH0 DUP4 DUP3 DUP2 SLOAD DUP2 LT PUSH2 0x1435 JUMPI PUSH2 0x1435 PUSH2 0x39E9 JUMP JUMPDEST SWAP1 PUSH0 MSTORE PUSH1 0x20 PUSH0 KECCAK256 ADD SLOAD SWAP1 POP PUSH1 0x3 DUP2 DUP2 SLOAD DUP2 LT PUSH2 0x1453 JUMPI PUSH2 0x1453 PUSH2 0x39E9 JUMP JUMPDEST PUSH0 SWAP2 DUP3 MSTORE PUSH1 0x20 SWAP2 DUP3 SWAP1 KECCAK256 PUSH1 0x40 DUP1 MLOAD PUSH2 0x100 DUP2 ADD DUP3 MSTORE PUSH1 0x7 SWAP4 SWAP1 SWAP4 MUL SWAP1 SWAP2 ADD DUP1 SLOAD PUSH1 0x1 PUSH1 0x1 PUSH1 0xA0 SHL SUB SWAP1 DUP2 AND DUP5 MSTORE PUSH1 0x1 DUP3 ADD SLOAD SWAP1 DUP2 AND SWAP5 DUP5 ADD SWAP5 SWAP1 SWAP5 MSTORE PUSH1 0x1 PUSH1 0xA0 SHL SWAP1 SWAP4 DIV PUSH1 0xFF AND ISZERO ISZERO SWAP1 DUP3 ADD MSTORE PUSH1 0x2 DUP3 ADD SLOAD PUSH1 0x60 DUP3 ADD MSTORE PUSH1 0x3 DUP3 ADD SLOAD PUSH1 0x80 DUP3 ADD MSTORE PUSH1 0x4 DUP3 ADD SLOAD PUSH1 0xA0 DUP3 ADD MSTORE PUSH1 0x5 DUP3 ADD SLOAD PUSH1 0xC0 DUP3 ADD MSTORE PUSH1 0x6 SWAP1 SWAP2 ADD SLOAD PUSH1 0xE0 DUP3 ADD DUP2 SWAP1 MSTORE SWAP1 SWAP6 POP DUP9 SWAP1 SUB PUSH2 0x14EB JUMPI PUSH1 0x1 SWAP3 POP DUP1 SWAP6 POP PUSH2 0x150A JUMP JUMPDEST DUP3 ISZERO DUP1 ISZERO PUSH2 0x14FD JUMPI POP DUP8 DUP6 PUSH1 0xE0 ADD MLOAD LT ISZERO JUMPDEST ISZERO PUSH2 0x150A JUMPI PUSH1 0x1 SWAP3 POP DUP1 SWAP6 POP JUMPDEST POP DUP1 PUSH2 0x1515 DUP2 PUSH2 0x3A53 JUMP JUMPDEST SWAP2 POP POP PUSH2 0x1410 JUMP JUMPDEST POP SWAP4 POP POP POP SWAP3 POP SWAP3 SWAP1 POP JUMP JUMPDEST PUSH0 PUSH2 0x1533 DUP3 PUSH2 0x1896 JUMP JUMPDEST SWAP1 POP DUP3 DUP1 DUP7 PUSH2 0x1550 JUMPI PUSH2 0x154D DUP6 DUP5 PUSH1 0x40 ADD MLOAD PUSH1 0xFF AND PUSH2 0x2F97 JUMP JUMPDEST SWAP2 POP JUMPDEST PUSH1 0x3 DUP7 DUP2 SLOAD DUP2 LT PUSH2 0x1563 JUMPI PUSH2 0x1563 PUSH2 0x39E9 JUMP JUMPDEST PUSH0 SWAP2 DUP3 MSTORE PUSH1 0x20 SWAP1 SWAP2 KECCAK256 PUSH1 0x7 SWAP1 SWAP2 MUL ADD PUSH1 0x4 DUP2 ADD SLOAD PUSH1 0x5 DUP3 ADD SLOAD DUP3 SLOAD SWAP3 SWAP11 POP SWAP1 SWAP2 DUP5 DUP3 EQ DUP1 ISZERO SWAP2 PUSH1 0x1 PUSH1 0x1 PUSH1 0xA0 SHL SUB AND SWAP1 PUSH2 0x15BB JUMPI DUP11 ISZERO PUSH2 0x15AE JUMPI PUSH2 0x15A7 DUP7 DUP6 PUSH2 0x2FBF JUMP JUMPDEST SWAP3 POP PUSH2 0x15BB JUMP JUMPDEST PUSH2 0x15B8 DUP7 DUP6 PUSH2 0x2FCA JUMP JUMPDEST SWAP3 POP JUMPDEST PUSH1 0x40 DUP1 MLOAD PUSH2 0x100 DUP2 ADD DUP3 MSTORE DUP14 SLOAD PUSH1 0x1 PUSH1 0x1 PUSH1 0xA0 SHL SUB SWAP1 DUP2 AND DUP3 MSTORE PUSH1 0x1 DUP16 ADD SLOAD SWAP1 DUP2 AND PUSH1 0x20 DUP4 ADD MSTORE PUSH1 0x1 PUSH1 0xA0 SHL SWAP1 DIV PUSH1 0xFF AND ISZERO ISZERO SWAP2 DUP2 ADD SWAP2 SWAP1 SWAP2 MSTORE PUSH1 0x2 DUP14 ADD SLOAD PUSH1 0x60 DUP3 ADD MSTORE PUSH1 0x3 DUP14 ADD SLOAD PUSH1 0x80 DUP3 ADD MSTORE PUSH1 0x4 DUP14 ADD SLOAD PUSH1 0xA0 DUP3 ADD MSTORE PUSH1 0x5 DUP14 ADD SLOAD PUSH1 0xC0 DUP3 ADD MSTORE PUSH1 0x6 DUP14 ADD SLOAD PUSH1 0xE0 DUP3 ADD MSTORE PUSH2 0x1633 SWAP1 DUP9 DUP9 DUP7 PUSH2 0x2FD5 JUMP JUMPDEST PUSH0 DUP12 PUSH2 0x163F JUMPI DUP4 PUSH2 0x1641 JUMP JUMPDEST DUP7 JUMPDEST SWAP1 POP DUP3 ISZERO PUSH2 0x1681 JUMPI DUP7 DUP14 PUSH1 0x6 ADD PUSH0 DUP3 DUP3 SLOAD PUSH2 0x165C SWAP2 SWAP1 PUSH2 0x3A28 JUMP JUMPDEST SWAP3 POP POP DUP2 SWAP1 SSTORE POP DUP4 DUP14 PUSH1 0x5 ADD PUSH0 DUP3 DUP3 SLOAD PUSH2 0x1676 SWAP2 SWAP1 PUSH2 0x3A28 JUMP JUMPDEST SWAP1 SWAP2 SSTORE POP PUSH2 0x168C SWAP1 POP JUMP JUMPDEST PUSH2 0x168C PUSH1 0x3 DUP13 PUSH2 0x26C8 JUMP JUMPDEST PUSH1 0xE0 DUP9 ADD MLOAD PUSH0 DUP2 ISZERO DUP1 ISZERO SWAP1 PUSH2 0x16A6 JUMPI POP DUP10 PUSH2 0x100 ADD MLOAD DUP4 LT ISZERO JUMPDEST SWAP1 POP DUP1 ISZERO PUSH2 0x1720 JUMPI PUSH1 0x80 DUP11 ADD DUP1 MLOAD PUSH1 0x1 PUSH1 0x1 PUSH1 0xA0 SHL SUB SWAP1 DUP2 AND PUSH0 SWAP1 DUP2 MSTORE PUSH1 0xA PUSH1 0x20 SWAP1 DUP2 MSTORE PUSH1 0x40 DUP1 DUP4 KECCAK256 SLOAD SWAP5 MLOAD SWAP1 SWAP4 AND DUP3 MSTORE PUSH1 0x9 SWAP1 MSTORE SWAP1 DUP2 KECCAK256 SLOAD SWAP1 PUSH2 0x16EA DUP4 DUP4 PUSH2 0x3A28 JUMP JUMPDEST SWAP1 POP DUP5 DUP2 GT ISZERO PUSH2 0x171C JUMPI PUSH2 0x16FF DUP14 CALLER DUP8 PUSH2 0x310F JUMP JUMPDEST PUSH2 0x171C JUMPI PUSH1 0x40 MLOAD PUSH4 0xC96D18B5 PUSH1 0xE0 SHL DUP2 MSTORE PUSH1 0x4 ADD PUSH1 0x40 MLOAD DUP1 SWAP2 SUB SWAP1 REVERT JUMPDEST POP POP POP JUMPDEST PUSH32 0xD18715C1E0D5B06959A9B12A3C5D857CE3698A58F6AC5BC7726BD7DF86476F40 DUP14 DUP16 DUP7 CALLER DUP15 PUSH1 0x80 ADD MLOAD DUP14 DUP12 PUSH1 0x40 MLOAD PUSH2 0x1797 SWAP8 SWAP7 SWAP6 SWAP5 SWAP4 SWAP3 SWAP2 SWAP1 SWAP7 DUP8 MSTORE SWAP5 ISZERO ISZERO PUSH1 0x20 DUP8 ADD MSTORE PUSH1 0x1 PUSH1 0x1 PUSH1 0xA0 SHL SUB SWAP4 DUP5 AND PUSH1 0x40 DUP8 ADD MSTORE SWAP2 DUP4 AND PUSH1 0x60 DUP7 ADD MSTORE SWAP1 SWAP2 AND PUSH1 0x80 DUP5 ADD MSTORE PUSH1 0xA0 DUP4 ADD MSTORE ISZERO ISZERO PUSH1 0xC0 DUP3 ADD MSTORE PUSH1 0xE0 ADD SWAP1 JUMP JUMPDEST PUSH1 0x40 MLOAD DUP1 SWAP2 SUB SWAP1 LOG1 POP POP POP POP POP POP POP POP POP POP POP POP POP POP POP JUMP JUMPDEST PUSH0 SLOAD PUSH1 0x1 PUSH1 0x1 PUSH1 0xA0 SHL SUB AND CALLER EQ PUSH2 0x17DC JUMPI PUSH1 0x40 MLOAD PUSH4 0x32B2BAA3 PUSH1 0xE0 SHL DUP2 MSTORE CALLER PUSH1 0x4 DUP3 ADD MSTORE PUSH1 0x24 ADD PUSH2 0x130A JUMP JUMPDEST JUMP JUMPDEST PUSH1 0xC SLOAD ISZERO DUP1 ISZERO SWAP1 PUSH2 0x17FC JUMPI POP PUSH1 0xF0 PUSH1 0xC SLOAD TIMESTAMP PUSH2 0x17FA SWAP2 SWAP1 PUSH2 0x3A28 JUMP JUMPDEST LT JUMPDEST ISZERO PUSH2 0x1803 JUMPI JUMP JUMPDEST PUSH1 0xD SLOAD PUSH1 0x40 DUP1 MLOAD PUSH4 0x4C6AFEE5 PUSH1 0xE1 SHL DUP2 MSTORE SWAP1 MLOAD PUSH0 SWAP3 PUSH1 0x1 PUSH1 0x1 PUSH1 0xA0 SHL SUB AND SWAP2 PUSH4 0x98D5FDCA SWAP2 PUSH1 0x4 DUP1 DUP4 ADD SWAP3 DUP7 SWAP3 SWAP2 SWAP1 DUP3 SWAP1 SUB ADD DUP2 DUP7 GAS STATICCALL ISZERO DUP1 ISZERO PUSH2 0x1849 JUMPI RETURNDATASIZE PUSH0 DUP1 RETURNDATACOPY RETURNDATASIZE PUSH0 REVERT JUMPDEST POP POP POP POP PUSH1 0x40 MLOAD RETURNDATASIZE PUSH0 DUP3 RETURNDATACOPY PUSH1 0x1F RETURNDATASIZE SWAP1 DUP2 ADD PUSH1 0x1F NOT AND DUP3 ADD PUSH1 0x40 MSTORE PUSH2 0x1870 SWAP2 SWAP1 DUP2 ADD SWAP1 PUSH2 0x3AB3 JUMP JUMPDEST SWAP1 POP PUSH0 DUP1 PUSH2 0x187D DUP4 PUSH2 0x31E6 JUMP JUMPDEST SWAP2 POP SWAP2 POP DUP1 ISZERO PUSH2 0x188D JUMPI PUSH1 0xB DUP3 SWAP1 SSTORE JUMPDEST POP POP TIMESTAMP PUSH1 0xC SSTORE POP JUMP JUMPDEST PUSH2 0x18FD PUSH1 0x40 DUP1 MLOAD PUSH2 0x180 DUP2 ADD DUP3 MSTORE PUSH1 0x60 DUP1 DUP3 MSTORE PUSH1 0x20 DUP3 ADD DUP2 SWAP1 MSTORE PUSH0 SWAP3 DUP3 ADD DUP4 SWAP1 MSTORE DUP2 ADD DUP3 SWAP1 MSTORE PUSH1 0x80 DUP2 ADD DUP3 SWAP1 MSTORE PUSH1 0xA0 DUP2 ADD DUP3 SWAP1 MSTORE SWAP1 PUSH1 0xC0 DUP3 ADD SWAP1 DUP2 MSTORE PUSH1 0x20 ADD PUSH0 DUP2 MSTORE PUSH1 0x20 ADD PUSH0 DUP2 MSTORE PUSH1 0x20 ADD PUSH0 DUP2 MSTORE PUSH1 0x20 ADD PUSH0 DUP2 MSTORE PUSH1 0x20 ADD PUSH0 PUSH1 0x1 PUSH1 0x1 PUSH1 0xA0 SHL SUB AND DUP2 MSTORE POP SWAP1 JUMP JUMPDEST PUSH1 0x1 PUSH1 0x1 PUSH1 0xA0 SHL SUB DUP3 AND PUSH0 SWAP1 DUP2 MSTORE PUSH1 0x5 PUSH1 0x20 MSTORE PUSH1 0x40 SWAP1 KECCAK256 SLOAD DUP1 ISZERO DUP1 PUSH2 0x1923 JUMPI POP PUSH1 0x2 SLOAD DUP2 GT JUMPDEST ISZERO PUSH2 0x1941 JUMPI PUSH1 0x40 MLOAD PUSH4 0x62F850F7 PUSH1 0xE1 SHL DUP2 MSTORE PUSH1 0x4 ADD PUSH1 0x40 MLOAD DUP1 SWAP2 SUB SWAP1 REVERT JUMPDEST PUSH1 0x2 PUSH2 0x194E PUSH1 0x1 DUP4 PUSH2 0x3A28 JUMP JUMPDEST DUP2 SLOAD DUP2 LT PUSH2 0x195E JUMPI PUSH2 0x195E PUSH2 0x39E9 JUMP JUMPDEST SWAP1 PUSH0 MSTORE PUSH1 0x20 PUSH0 KECCAK256 SWAP1 PUSH1 0xB MUL ADD PUSH1 0x40 MLOAD DUP1 PUSH2 0x180 ADD PUSH1 0x40 MSTORE SWAP1 DUP2 PUSH0 DUP3 ADD DUP1 SLOAD PUSH2 0x1985 SWAP1 PUSH2 0x3A7B JUMP JUMPDEST DUP1 PUSH1 0x1F ADD PUSH1 0x20 DUP1 SWAP2 DIV MUL PUSH1 0x20 ADD PUSH1 0x40 MLOAD SWAP1 DUP2 ADD PUSH1 0x40 MSTORE DUP1 SWAP3 SWAP2 SWAP1 DUP2 DUP2 MSTORE PUSH1 0x20 ADD DUP3 DUP1 SLOAD PUSH2 0x19B1 SWAP1 PUSH2 0x3A7B JUMP JUMPDEST DUP1 ISZERO PUSH2 0x19FC JUMPI DUP1 PUSH1 0x1F LT PUSH2 0x19D3 JUMPI PUSH2 0x100 DUP1 DUP4 SLOAD DIV MUL DUP4 MSTORE SWAP2 PUSH1 0x20 ADD SWAP2 PUSH2 0x19FC JUMP JUMPDEST DUP3 ADD SWAP2 SWAP1 PUSH0 MSTORE PUSH1 0x20 PUSH0 KECCAK256 SWAP1 JUMPDEST DUP2 SLOAD DUP2 MSTORE SWAP1 PUSH1 0x1 ADD SWAP1 PUSH1 0x20 ADD DUP1 DUP4 GT PUSH2 0x19DF JUMPI DUP3 SWAP1 SUB PUSH1 0x1F AND DUP3 ADD SWAP2 JUMPDEST POP POP POP POP POP DUP2 MSTORE PUSH1 0x20 ADD PUSH1 0x1 DUP3 ADD DUP1 SLOAD PUSH2 0x1A15 SWAP1 PUSH2 0x3A7B JUMP JUMPDEST DUP1 PUSH1 0x1F ADD PUSH1 0x20 DUP1 SWAP2 DIV MUL PUSH1 0x20 ADD PUSH1 0x40 MLOAD SWAP1 DUP2 ADD PUSH1 0x40 MSTORE DUP1 SWAP3 SWAP2 SWAP1 DUP2 DUP2 MSTORE PUSH1 0x20 ADD DUP3 DUP1 SLOAD PUSH2 0x1A41 SWAP1 PUSH2 0x3A7B JUMP JUMPDEST DUP1 ISZERO PUSH2 0x1A8C JUMPI DUP1 PUSH1 0x1F LT PUSH2 0x1A63 JUMPI PUSH2 0x100 DUP1 DUP4 SLOAD DIV MUL DUP4 MSTORE SWAP2 PUSH1 0x20 ADD SWAP2 PUSH2 0x1A8C JUMP JUMPDEST DUP3 ADD SWAP2 SWAP1 PUSH0 MSTORE PUSH1 0x20 PUSH0 KECCAK256 SWAP1 JUMPDEST DUP2 SLOAD DUP2 MSTORE SWAP1 PUSH1 0x1 ADD SWAP1 PUSH1 0x20 ADD DUP1 DUP4 GT PUSH2 0x1A6F JUMPI DUP3 SWAP1 SUB PUSH1 0x1F AND DUP3 ADD SWAP2 JUMPDEST POP POP POP SWAP2 DUP4 MSTORE POP POP PUSH1 0x2 DUP3 ADD SLOAD PUSH1 0xFF SWAP1 DUP2 AND PUSH1 0x20 DUP4 ADD MSTORE PUSH1 0x3 DUP4 ADD SLOAD PUSH1 0x40 DUP4 ADD MSTORE PUSH1 0x4 DUP4 ADD SLOAD PUSH1 0x1 PUSH1 0x1 PUSH1 0xA0 SHL SUB SWAP1 DUP2 AND PUSH1 0x60 DUP5 ADD MSTORE PUSH1 0x5 DUP5 ADD SLOAD SWAP1 DUP2 AND PUSH1 0x80 DUP5 ADD MSTORE PUSH1 0xA0 SWAP1 SWAP3 ADD SWAP2 PUSH1 0x1 PUSH1 0xA0 SHL SWAP1 DIV AND PUSH1 0x1 DUP2 GT ISZERO PUSH2 0x1AEE JUMPI PUSH2 0x1AEE PUSH2 0x369B JUMP JUMPDEST PUSH1 0x1 DUP2 GT ISZERO PUSH2 0x1AFF JUMPI PUSH2 0x1AFF PUSH2 0x369B JUMP JUMPDEST DUP2 MSTORE PUSH1 0x6 DUP3 ADD SLOAD PUSH1 0x20 DUP3 ADD MSTORE PUSH1 0x7 DUP3 ADD SLOAD PUSH1 0x40 DUP3 ADD MSTORE PUSH1 0x8 DUP3 ADD SLOAD PUSH1 0x60 DUP3 ADD MSTORE PUSH1 0x9 DUP3 ADD SLOAD PUSH1 0x80 DUP3 ADD MSTORE PUSH1 0xA SWAP1 SWAP2 ADD SLOAD PUSH1 0x1 PUSH1 0x1 PUSH1 0xA0 SHL SUB AND PUSH1 0xA0 SWAP1 SWAP2 ADD MSTORE SWAP4 SWAP3 POP POP POP JUMP JUMPDEST PUSH0 DUP1 PUSH2 0x1B54 DUP5 PUSH1 0x20 ADD MLOAD PUSH2 0x1896 JUMP JUMPDEST SWAP1 POP DUP4 PUSH1 0x40 ADD MLOAD ISZERO PUSH2 0x1BB9 JUMPI PUSH2 0x1B71 DUP5 PUSH0 ADD MLOAD DUP6 PUSH1 0xC0 ADD MLOAD PUSH2 0x3317 JUMP JUMPDEST PUSH2 0x1B7E JUMPI PUSH0 SWAP2 POP POP PUSH2 0x4E2 JUMP JUMPDEST PUSH1 0xC0 DUP5 ADD MLOAD PUSH1 0x80 DUP3 ADD MLOAD PUSH1 0x1 PUSH1 0x1 PUSH1 0xA0 SHL SUB AND PUSH0 SWAP1 DUP2 MSTORE PUSH1 0x8 PUSH1 0x20 MSTORE PUSH1 0x40 DUP2 KECCAK256 DUP1 SLOAD SWAP1 SWAP2 SWAP1 PUSH2 0x1BAE SWAP1 DUP5 SWAP1 PUSH2 0x3A28 JUMP JUMPDEST SWAP1 SWAP2 SSTORE POP PUSH2 0x1C43 SWAP1 POP JUMP JUMPDEST PUSH2 0x1BCB DUP2 DUP6 PUSH0 ADD MLOAD DUP7 PUSH1 0xC0 ADD MLOAD PUSH2 0x310F JUMP JUMPDEST PUSH2 0x1BD8 JUMPI PUSH0 SWAP2 POP POP PUSH2 0x4E2 JUMP JUMPDEST PUSH1 0xC0 DUP5 ADD MLOAD PUSH1 0x80 DUP3 ADD MLOAD PUSH1 0x1 PUSH1 0x1 PUSH1 0xA0 SHL SUB AND PUSH0 SWAP1 DUP2 MSTORE PUSH1 0xA PUSH1 0x20 MSTORE PUSH1 0x40 DUP2 KECCAK256 DUP1 SLOAD SWAP1 SWAP2 SWAP1 PUSH2 0x1C08 SWAP1 DUP5 SWAP1 PUSH2 0x3A28 JUMP JUMPDEST SWAP1 SWAP2 SSTORE POP POP PUSH1 0xC0 DUP5 ADD MLOAD PUSH1 0x80 DUP3 ADD MLOAD PUSH1 0x1 PUSH1 0x1 PUSH1 0xA0 SHL SUB AND PUSH0 SWAP1 DUP2 MSTORE PUSH1 0x9 PUSH1 0x20 MSTORE PUSH1 0x40 DUP2 KECCAK256 DUP1 SLOAD SWAP1 SWAP2 SWAP1 PUSH2 0x1C3D SWAP1 DUP5 SWAP1 PUSH2 0x3A28 JUMP JUMPDEST SWAP1 SWAP2 SSTORE POP POP JUMPDEST PUSH1 0x40 DUP5 DUP2 ADD MLOAD DUP6 MLOAD DUP3 MLOAD DUP7 DUP2 MSTORE SWAP2 ISZERO ISZERO PUSH1 0x20 DUP4 ADD MSTORE PUSH1 0x1 PUSH1 0x1 PUSH1 0xA0 SHL SUB AND DUP2 DUP4 ADD MSTORE SWAP1 MLOAD PUSH32 0x3D8DA260C5E35DCBA4A38C844B979A7C70C6FDBED58BE53DA6E817EF6A2541E0 SWAP2 DUP2 SWAP1 SUB PUSH1 0x60 ADD SWAP1 LOG1 PUSH2 0x1C9C PUSH1 0x3 DUP5 PUSH2 0x26C8 JUMP JUMPDEST POP PUSH1 0x1 SWAP4 SWAP3 POP POP POP JUMP JUMPDEST DUP2 SLOAD PUSH0 SWAP1 PUSH2 0x1CB6 SWAP1 PUSH1 0x1 SWAP1 PUSH2 0x3A28 JUMP JUMPDEST SWAP1 POP DUP1 DUP3 EQ PUSH2 0x1CF8 JUMPI DUP3 DUP2 DUP2 SLOAD DUP2 LT PUSH2 0x1CD1 JUMPI PUSH2 0x1CD1 PUSH2 0x39E9 JUMP JUMPDEST SWAP1 PUSH0 MSTORE PUSH1 0x20 PUSH0 KECCAK256 ADD SLOAD DUP4 DUP4 DUP2 SLOAD DUP2 LT PUSH2 0x1CEC JUMPI PUSH2 0x1CEC PUSH2 0x39E9 JUMP JUMPDEST PUSH0 SWAP2 DUP3 MSTORE PUSH1 0x20 SWAP1 SWAP2 KECCAK256 ADD SSTORE JUMPDEST DUP3 DUP1 SLOAD DUP1 PUSH2 0x1D08 JUMPI PUSH2 0x1D08 PUSH2 0x3B25 JUMP JUMPDEST PUSH1 0x1 SWAP1 SUB DUP2 DUP2 SWAP1 PUSH0 MSTORE PUSH1 0x20 PUSH0 KECCAK256 ADD PUSH0 SWAP1 SSTORE SWAP1 SSTORE POP POP POP JUMP JUMPDEST PUSH1 0x1 PUSH1 0x1 PUSH1 0xA0 SHL SUB DUP2 AND PUSH0 SWAP1 DUP2 MSTORE PUSH1 0x5 PUSH1 0x20 MSTORE PUSH1 0x40 DUP2 KECCAK256 SLOAD DUP1 ISZERO DUP1 PUSH2 0x1D46 JUMPI POP PUSH1 0x2 SLOAD DUP2 GT JUMPDEST ISZERO PUSH2 0x1D64 JUMPI PUSH1 0x40 MLOAD PUSH4 0x62F850F7 PUSH1 0xE1 SHL DUP2 MSTORE PUSH1 0x4 ADD PUSH1 0x40 MLOAD DUP1 SWAP2 SUB SWAP1 REVERT JUMPDEST PUSH1 0x2 PUSH2 0x1D71 PUSH1 0x1 DUP4 PUSH2 0x3A28 JUMP JUMPDEST DUP2 SLOAD DUP2 LT PUSH2 0x1D81 JUMPI PUSH2 0x1D81 PUSH2 0x39E9 JUMP JUMPDEST SWAP1 PUSH0 MSTORE PUSH1 0x20 PUSH0 KECCAK256 SWAP1 PUSH1 0xB MUL ADD SWAP2 POP POP SWAP2 SWAP1 POP JUMP JUMPDEST PUSH1 0x40 MLOAD PUSH4 0x23B872DD PUSH1 0xE0 SHL DUP2 MSTORE PUSH1 0x1 PUSH1 0x1 PUSH1 0xA0 SHL SUB DUP4 DUP2 AND PUSH1 0x4 DUP4 ADD MSTORE ADDRESS PUSH1 0x24 DUP4 ADD MSTORE PUSH1 0x44 DUP3 ADD DUP4 SWAP1 MSTORE PUSH0 SWAP2 SWAP1 DUP6 AND SWAP1 PUSH4 0x23B872DD SWAP1 PUSH1 0x64 ADD PUSH1 0x20 PUSH1 0x40 MLOAD DUP1 DUP4 SUB DUP2 PUSH0 DUP8 GAS CALL SWAP3 POP POP POP DUP1 ISZERO PUSH2 0x1E08 JUMPI POP PUSH1 0x40 DUP1 MLOAD PUSH1 0x1F RETURNDATASIZE SWAP1 DUP2 ADD PUSH1 0x1F NOT AND DUP3 ADD SWAP1 SWAP3 MSTORE PUSH2 0x1E05 SWAP2 DUP2 ADD SWAP1 PUSH2 0x3B39 JUMP JUMPDEST PUSH1 0x1 JUMPDEST PUSH2 0x1E13 JUMPI POP PUSH0 PUSH2 0x687 JUMP JUMPDEST SWAP5 SWAP4 POP POP POP POP JUMP JUMPDEST PUSH0 DUP1 PUSH1 0x5 DUP6 ADD SLOAD PUSH1 0x1 PUSH1 0xA0 SHL SWAP1 DIV PUSH1 0xFF AND PUSH1 0x1 DUP2 GT ISZERO PUSH2 0x1E3D JUMPI PUSH2 0x1E3D PUSH2 0x369B JUMP JUMPDEST SUB PUSH2 0x1E61 JUMPI PUSH2 0x1E4A PUSH2 0x17DE JUMP JUMPDEST PUSH2 0x1E5A PUSH1 0xB SLOAD DUP6 PUSH1 0x8 ADD SLOAD PUSH2 0x2FCA JUMP JUMPDEST SWAP1 POP PUSH2 0x21F1 JUMP JUMPDEST PUSH1 0x1 PUSH1 0x5 DUP6 ADD SLOAD PUSH1 0x1 PUSH1 0xA0 SHL SWAP1 DIV PUSH1 0xFF AND PUSH1 0x1 DUP2 GT ISZERO PUSH2 0x1E83 JUMPI PUSH2 0x1E83 PUSH2 0x369B JUMP JUMPDEST SUB PUSH2 0x21F1 JUMPI PUSH0 DUP5 PUSH1 0x9 ADD SLOAD PUSH0 EQ DUP1 PUSH2 0x1EAB JUMPI POP PUSH1 0xF0 DUP6 PUSH1 0x9 ADD SLOAD TIMESTAMP PUSH2 0x1EA8 SWAP2 SWAP1 PUSH2 0x3A28 JUMP JUMPDEST LT ISZERO JUMPDEST SWAP1 POP DUP1 ISZERO PUSH2 0x21E7 JUMPI PUSH0 PUSH1 0x2 PUSH0 DUP2 SLOAD DUP2 LT PUSH2 0x1EC7 JUMPI PUSH2 0x1EC7 PUSH2 0x39E9 JUMP JUMPDEST SWAP1 PUSH0 MSTORE PUSH1 0x20 PUSH0 KECCAK256 SWAP1 PUSH1 0xB MUL ADD PUSH1 0x40 MLOAD DUP1 PUSH2 0x180 ADD PUSH1 0x40 MSTORE SWAP1 DUP2 PUSH0 DUP3 ADD DUP1 SLOAD PUSH2 0x1EEE SWAP1 PUSH2 0x3A7B JUMP JUMPDEST DUP1 PUSH1 0x1F ADD PUSH1 0x20 DUP1 SWAP2 DIV MUL PUSH1 0x20 ADD PUSH1 0x40 MLOAD SWAP1 DUP2 ADD PUSH1 0x40 MSTORE DUP1 SWAP3 SWAP2 SWAP1 DUP2 DUP2 MSTORE PUSH1 0x20 ADD DUP3 DUP1 SLOAD PUSH2 0x1F1A SWAP1 PUSH2 0x3A7B JUMP JUMPDEST DUP1 ISZERO PUSH2 0x1F65 JUMPI DUP1 PUSH1 0x1F LT PUSH2 0x1F3C JUMPI PUSH2 0x100 DUP1 DUP4 SLOAD DIV MUL DUP4 MSTORE SWAP2 PUSH1 0x20 ADD SWAP2 PUSH2 0x1F65 JUMP JUMPDEST DUP3 ADD SWAP2 SWAP1 PUSH0 MSTORE PUSH1 0x20 PUSH0 KECCAK256 SWAP1 JUMPDEST DUP2 SLOAD DUP2 MSTORE SWAP1 PUSH1 0x1 ADD SWAP1 PUSH1 0x20 ADD DUP1 DUP4 GT PUSH2 0x1F48 JUMPI DUP3 SWAP1 SUB PUSH1 0x1F AND DUP3 ADD SWAP2 JUMPDEST POP POP POP POP POP DUP2 MSTORE PUSH1 0x20 ADD PUSH1 0x1 DUP3 ADD DUP1 SLOAD PUSH2 0x1F7E SWAP1 PUSH2 0x3A7B JUMP JUMPDEST DUP1 PUSH1 0x1F ADD PUSH1 0x20 DUP1 SWAP2 DIV MUL PUSH1 0x20 ADD PUSH1 0x40 MLOAD SWAP1 DUP2 ADD PUSH1 0x40 MSTORE DUP1 SWAP3 SWAP2 SWAP1 DUP2 DUP2 MSTORE PUSH1 0x20 ADD DUP3 DUP1 SLOAD PUSH2 0x1FAA SWAP1 PUSH2 0x3A7B JUMP JUMPDEST DUP1 ISZERO PUSH2 0x1FF5 JUMPI DUP1 PUSH1 0x1F LT PUSH2 0x1FCC JUMPI PUSH2 0x100 DUP1 DUP4 SLOAD DIV MUL DUP4 MSTORE SWAP2 PUSH1 0x20 ADD SWAP2 PUSH2 0x1FF5 JUMP JUMPDEST DUP3 ADD SWAP2 SWAP1 PUSH0 MSTORE PUSH1 0x20 PUSH0 KECCAK256 SWAP1 JUMPDEST DUP2 SLOAD DUP2 MSTORE SWAP1 PUSH1 0x1 ADD SWAP1 PUSH1 0x20 ADD DUP1 DUP4 GT PUSH2 0x1FD8 JUMPI DUP3 SWAP1 SUB PUSH1 0x1F AND DUP3 ADD SWAP2 JUMPDEST POP POP POP SWAP2 DUP4 MSTORE POP POP PUSH1 0x2 DUP3 ADD SLOAD PUSH1 0xFF SWAP1 DUP2 AND PUSH1 0x20 DUP4 ADD MSTORE PUSH1 0x3 DUP4 ADD SLOAD PUSH1 0x40 DUP4 ADD MSTORE PUSH1 0x4 DUP4 ADD SLOAD PUSH1 0x1 PUSH1 0x1 PUSH1 0xA0 SHL SUB SWAP1 DUP2 AND PUSH1 0x60 DUP5 ADD MSTORE PUSH1 0x5 DUP5 ADD SLOAD SWAP1 DUP2 AND PUSH1 0x80 DUP5 ADD MSTORE PUSH1 0xA0 SWAP1 SWAP3 ADD SWAP2 PUSH1 0x1 PUSH1 0xA0 SHL SWAP1 DIV AND PUSH1 0x1 DUP2 GT ISZERO PUSH2 0x2057 JUMPI PUSH2 0x2057 PUSH2 0x369B JUMP JUMPDEST PUSH1 0x1 DUP2 GT ISZERO PUSH2 0x2068 JUMPI PUSH2 0x2068 PUSH2 0x369B JUMP JUMPDEST DUP2 MSTORE PUSH1 0x6 DUP3 ADD SLOAD PUSH1 0x20 DUP3 ADD MSTORE PUSH1 0x7 DUP3 ADD SLOAD PUSH1 0x40 DUP1 DUP4 ADD SWAP2 SWAP1 SWAP2 MSTORE PUSH1 0x8 DUP4 ADD SLOAD PUSH1 0x60 DUP4 ADD MSTORE PUSH1 0x9 DUP4 ADD SLOAD PUSH1 0x80 DUP4 ADD MSTORE PUSH1 0xA SWAP3 DUP4 ADD SLOAD PUSH1 0x1 PUSH1 0x1 PUSH1 0xA0 SHL SUB SWAP1 DUP2 AND PUSH1 0xA0 SWAP1 SWAP4 ADD SWAP3 SWAP1 SWAP3 MSTORE SWAP2 DUP10 ADD SLOAD PUSH2 0x160 DUP5 ADD MLOAD PUSH1 0x5 DUP12 ADD SLOAD SWAP4 MLOAD PUSH4 0x70A08231 PUSH1 0xE0 SHL DUP2 MSTORE SWAP4 DUP4 AND PUSH1 0x4 DUP6 ADD MSTORE SWAP4 SWAP5 POP AND SWAP2 SWAP1 PUSH0 SWAP1 DUP4 SWAP1 PUSH4 0x70A08231 SWAP1 PUSH1 0x24 ADD PUSH1 0x20 PUSH1 0x40 MLOAD DUP1 DUP4 SUB DUP2 DUP7 GAS STATICCALL ISZERO DUP1 ISZERO PUSH2 0x2101 JUMPI RETURNDATASIZE PUSH0 DUP1 RETURNDATACOPY RETURNDATASIZE PUSH0 REVERT JUMPDEST POP POP POP POP PUSH1 0x40 MLOAD RETURNDATASIZE PUSH1 0x1F NOT PUSH1 0x1F DUP3 ADD AND DUP3 ADD DUP1 PUSH1 0x40 MSTORE POP DUP2 ADD SWAP1 PUSH2 0x2125 SWAP2 SWAP1 PUSH2 0x39FD JUMP JUMPDEST PUSH1 0x5 DUP11 ADD SLOAD PUSH1 0x40 MLOAD PUSH4 0x70A08231 PUSH1 0xE0 SHL DUP2 MSTORE PUSH1 0x1 PUSH1 0x1 PUSH1 0xA0 SHL SUB SWAP2 DUP3 AND PUSH1 0x4 DUP3 ADD MSTORE SWAP2 SWAP3 POP PUSH0 SWAP2 SWAP1 DUP5 AND SWAP1 PUSH4 0x70A08231 SWAP1 PUSH1 0x24 ADD PUSH1 0x20 PUSH1 0x40 MLOAD DUP1 DUP4 SUB DUP2 DUP7 GAS STATICCALL ISZERO DUP1 ISZERO PUSH2 0x2174 JUMPI RETURNDATASIZE PUSH0 DUP1 RETURNDATACOPY RETURNDATASIZE PUSH0 REVERT JUMPDEST POP POP POP POP PUSH1 0x40 MLOAD RETURNDATASIZE PUSH1 0x1F NOT PUSH1 0x1F DUP3 ADD AND DUP3 ADD DUP1 PUSH1 0x40 MSTORE POP DUP2 ADD SWAP1 PUSH2 0x2198 SWAP2 SWAP1 PUSH2 0x39FD JUMP JUMPDEST PUSH1 0x2 DUP12 ADD SLOAD SWAP1 SWAP2 POP PUSH2 0x21AE SWAP1 DUP4 SWAP1 PUSH1 0xFF AND PUSH2 0x2F97 JUMP JUMPDEST SWAP2 POP PUSH2 0x21C1 DUP2 DUP7 PUSH1 0x40 ADD MLOAD PUSH1 0xFF AND PUSH2 0x2F97 JUMP JUMPDEST SWAP1 POP PUSH2 0x21CD DUP2 DUP4 PUSH2 0x2FCA JUMP JUMPDEST PUSH1 0x8 DUP12 ADD DUP2 SWAP1 SSTORE TIMESTAMP PUSH1 0x9 DUP13 ADD SSTORE SWAP7 POP PUSH2 0x21EF SWAP5 POP POP POP POP POP JUMP JUMPDEST DUP5 PUSH1 0x8 ADD SLOAD SWAP2 POP JUMPDEST POP JUMPDEST PUSH0 DUP4 ISZERO PUSH2 0x221C JUMPI PUSH1 0x2 DUP6 ADD SLOAD PUSH2 0x2215 SWAP1 PUSH2 0x220F SWAP1 DUP6 SWAP1 PUSH1 0xFF AND PUSH2 0x2F97 JUMP JUMPDEST DUP4 PUSH2 0x2FCA JUMP JUMPDEST SWAP1 POP PUSH2 0x223C JUMP JUMPDEST PUSH1 0x2 DUP6 ADD SLOAD PUSH2 0x2239 SWAP1 PUSH2 0x2233 SWAP1 DUP6 SWAP1 PUSH1 0xFF AND PUSH2 0x2F97 JUMP JUMPDEST DUP4 PUSH2 0x2FBF JUMP JUMPDEST SWAP1 POP JUMPDEST PUSH0 DUP6 PUSH1 0x7 ADD SLOAD DUP4 LT PUSH2 0x224F JUMPI POP PUSH1 0x6 DUP6 ADD SLOAD JUMPDEST PUSH1 0x40 DUP1 MLOAD PUSH2 0x100 DUP2 ADD DUP3 MSTORE CALLER DUP2 MSTORE PUSH1 0x4 DUP9 ADD SLOAD PUSH1 0x1 PUSH1 0x1 PUSH1 0xA0 SHL SUB SWAP1 DUP2 AND PUSH1 0x20 DUP4 ADD SWAP1 DUP2 MSTORE DUP9 ISZERO ISZERO SWAP4 DUP4 ADD SWAP4 DUP5 MSTORE TIMESTAMP PUSH1 0x60 DUP5 ADD SWAP1 DUP2 MSTORE PUSH1 0x80 DUP5 ADD DUP7 DUP2 MSTORE PUSH1 0xA0 DUP6 ADD DUP10 DUP2 MSTORE PUSH1 0xC0 DUP7 ADD DUP12 DUP2 MSTORE PUSH1 0xE0 DUP8 ADD DUP11 DUP2 MSTORE PUSH1 0x3 DUP1 SLOAD PUSH1 0x1 DUP2 DUP2 ADD DUP4 SSTORE PUSH0 DUP4 DUP2 MSTORE DUP12 MLOAD PUSH1 0x7 SWAP1 SWAP4 MUL PUSH32 0xC2575A0E9E593C00F959F8C92F12DB2869C3395A3B0502D05E2516446F71F85B DUP2 ADD DUP1 SLOAD SWAP5 DUP14 AND PUSH1 0x1 PUSH1 0x1 PUSH1 0xA0 SHL SUB NOT SWAP1 SWAP6 AND SWAP5 SWAP1 SWAP5 OR SWAP1 SWAP4 SSTORE SWAP9 MLOAD PUSH32 0xC2575A0E9E593C00F959F8C92F12DB2869C3395A3B0502D05E2516446F71F85C DUP4 ADD DUP1 SLOAD SWAP14 MLOAD ISZERO ISZERO PUSH1 0x1 PUSH1 0xA0 SHL MUL PUSH1 0x1 PUSH1 0x1 PUSH1 0xA8 SHL SUB NOT SWAP1 SWAP15 AND SWAP2 SWAP1 SWAP12 AND OR SWAP12 SWAP1 SWAP12 OR SWAP1 SWAP9 SSTORE SWAP5 MLOAD PUSH32 0xC2575A0E9E593C00F959F8C92F12DB2869C3395A3B0502D05E2516446F71F85D DUP9 ADD SSTORE SWAP3 MLOAD PUSH32 0xC2575A0E9E593C00F959F8C92F12DB2869C3395A3B0502D05E2516446F71F85E DUP8 ADD SSTORE SWAP1 MLOAD PUSH32 0xC2575A0E9E593C00F959F8C92F12DB2869C3395A3B0502D05E2516446F71F85F DUP7 ADD SSTORE MLOAD PUSH32 0xC2575A0E9E593C00F959F8C92F12DB2869C3395A3B0502D05E2516446F71F860 DUP6 ADD SSTORE MLOAD PUSH32 0xC2575A0E9E593C00F959F8C92F12DB2869C3395A3B0502D05E2516446F71F861 SWAP1 SWAP4 ADD SWAP3 SWAP1 SWAP3 SSTORE SWAP1 SLOAD SWAP2 SWAP3 SWAP1 SWAP2 PUSH2 0x240B SWAP2 SWAP1 PUSH2 0x3A28 JUMP JUMPDEST CALLER PUSH0 SWAP1 DUP2 MSTORE PUSH1 0x7 PUSH1 0x20 SWAP1 DUP2 MSTORE PUSH1 0x40 DUP1 DUP4 KECCAK256 DUP1 SLOAD PUSH1 0x1 DUP1 DUP3 ADD DUP4 SSTORE SWAP2 DUP6 MSTORE DUP4 DUP6 KECCAK256 ADD DUP6 SWAP1 SSTORE PUSH1 0x4 DUP14 ADD DUP1 SLOAD PUSH1 0x1 PUSH1 0x1 PUSH1 0xA0 SHL SUB SWAP1 DUP2 AND DUP7 MSTORE PUSH1 0x6 DUP6 MSTORE DUP4 DUP7 KECCAK256 DUP1 SLOAD SWAP4 DUP5 ADD DUP2 SSTORE DUP7 MSTORE SWAP5 DUP5 SWAP1 KECCAK256 SWAP1 SWAP2 ADD DUP6 SWAP1 SSTORE SLOAD DUP2 MLOAD DUP6 DUP2 MSTORE DUP13 ISZERO ISZERO SWAP4 DUP2 ADD SWAP4 SWAP1 SWAP4 MSTORE SWAP1 SWAP3 AND DUP2 DUP4 ADD MSTORE PUSH1 0x60 DUP2 ADD DUP10 SWAP1 MSTORE PUSH1 0x80 DUP2 ADD DUP9 SWAP1 MSTORE SWAP1 MLOAD SWAP2 SWAP3 POP PUSH32 0x96D694E92C01C8197B4CF2ECB0EC03BE940CC6E384CBDFB2AFB329375A0BE252 SWAP2 SWAP1 DUP2 SWAP1 SUB PUSH1 0xA0 ADD SWAP1 LOG1 POP POP POP POP POP POP POP POP JUMP JUMPDEST PUSH0 DUP1 PUSH0 DUP1 DUP7 PUSH1 0x6 ADD SLOAD DUP6 LT SWAP1 POP DUP1 ISZERO PUSH2 0x24D6 JUMPI DUP5 SWAP2 POP PUSH2 0x24DE JUMP JUMPDEST DUP7 PUSH1 0x6 ADD SLOAD SWAP2 POP JUMPDEST DUP7 SLOAD PUSH2 0x24F5 SWAP1 DUP10 SWAP1 PUSH1 0x1 PUSH1 0x1 PUSH1 0xA0 SHL SUB AND DUP5 PUSH2 0x310F JUMP JUMPDEST ISZERO PUSH2 0x2543 JUMPI PUSH2 0x2504 DUP3 DUP7 PUSH2 0x3A28 JUMP JUMPDEST SWAP5 POP DUP1 ISZERO PUSH2 0x253E JUMPI DUP2 DUP8 PUSH1 0x6 ADD PUSH0 DUP3 DUP3 SLOAD PUSH2 0x251F SWAP2 SWAP1 PUSH2 0x3A28 JUMP JUMPDEST SWAP3 POP POP DUP2 SWAP1 SSTORE POP PUSH2 0x2538 DUP8 PUSH1 0x6 ADD SLOAD DUP9 PUSH1 0x4 ADD SLOAD PUSH2 0x2FBF JUMP JUMPDEST PUSH1 0x5 DUP9 ADD SSTORE JUMPDEST PUSH2 0x2550 JUMP JUMPDEST PUSH0 DUP6 SWAP4 POP SWAP4 POP POP POP PUSH2 0x25BC JUMP JUMPDEST PUSH1 0x1 DUP8 ADD SLOAD DUP8 SLOAD PUSH1 0x40 DUP1 MLOAD DUP10 DUP2 MSTORE PUSH1 0x1 PUSH1 0xA0 SHL SWAP1 SWAP4 DIV PUSH1 0xFF AND ISZERO ISZERO PUSH1 0x20 DUP5 ADD MSTORE PUSH1 0x1 PUSH1 0x1 PUSH1 0xA0 SHL SUB SWAP1 SWAP2 AND SWAP1 DUP3 ADD MSTORE DUP2 ISZERO ISZERO PUSH1 0x60 DUP3 ADD MSTORE PUSH32 0xBDB78CC9B5D01BDAC074DF120CC9776D231060CDCDCC8C7F6C2039F67A5E626F SWAP1 PUSH1 0x80 ADD PUSH1 0x40 MLOAD DUP1 SWAP2 SUB SWAP1 LOG1 ISZERO SWAP3 POP DUP4 SWAP2 POP POP JUMPDEST SWAP5 POP SWAP5 SWAP3 POP POP POP JUMP JUMPDEST PUSH0 DUP1 PUSH0 DUP1 DUP7 PUSH1 0x6 ADD SLOAD DUP7 LT SWAP1 POP DUP1 ISZERO PUSH2 0x25E0 JUMPI DUP6 SWAP2 POP PUSH2 0x25E8 JUMP JUMPDEST DUP7 PUSH1 0x6 ADD SLOAD SWAP2 POP JUMPDEST DUP7 SLOAD PUSH2 0x25FD SWAP1 PUSH1 0x1 PUSH1 0x1 PUSH1 0xA0 SHL SUB AND DUP4 PUSH2 0x3317 JUMP JUMPDEST ISZERO PUSH2 0x26B7 JUMPI PUSH2 0x260C DUP3 DUP8 PUSH2 0x3A28 JUMP JUMPDEST SWAP6 POP DUP1 ISZERO PUSH2 0x2646 JUMPI DUP2 DUP8 PUSH1 0x6 ADD PUSH0 DUP3 DUP3 SLOAD PUSH2 0x2627 SWAP2 SWAP1 PUSH2 0x3A28 JUMP JUMPDEST SWAP3 POP POP DUP2 SWAP1 SSTORE POP PUSH2 0x2640 DUP8 PUSH1 0x6 ADD SLOAD DUP9 PUSH1 0x4 ADD SLOAD PUSH2 0x2FCA JUMP JUMPDEST PUSH1 0x5 DUP9 ADD SSTORE JUMPDEST PUSH1 0x1 DUP8 ADD SLOAD DUP8 SLOAD PUSH1 0x40 DUP1 MLOAD DUP9 DUP2 MSTORE PUSH1 0x1 PUSH1 0xA0 SHL SWAP1 SWAP4 DIV PUSH1 0xFF AND ISZERO ISZERO PUSH1 0x20 DUP5 ADD MSTORE PUSH1 0x1 PUSH1 0x1 PUSH1 0xA0 SHL SUB SWAP1 SWAP2 AND SWAP1 DUP3 ADD MSTORE DUP2 ISZERO ISZERO PUSH1 0x60 DUP3 ADD MSTORE PUSH32 0xBDB78CC9B5D01BDAC074DF120CC9776D231060CDCDCC8C7F6C2039F67A5E626F SWAP1 PUSH1 0x80 ADD PUSH1 0x40 MLOAD DUP1 SWAP2 SUB SWAP1 LOG1 ISZERO SWAP3 POP DUP5 SWAP2 POP PUSH2 0x26C0 SWAP1 POP JUMP JUMPDEST PUSH0 DUP7 SWAP4 POP SWAP4 POP POP POP JUMPDEST SWAP4 POP SWAP4 SWAP2 POP POP JUMP JUMPDEST DUP2 SLOAD PUSH0 SWAP1 PUSH2 0x26D8 SWAP1 PUSH1 0x1 SWAP1 PUSH2 0x3A28 JUMP JUMPDEST SWAP1 POP DUP1 DUP3 EQ PUSH2 0x27A9 JUMPI DUP3 DUP2 DUP2 SLOAD DUP2 LT PUSH2 0x26F3 JUMPI PUSH2 0x26F3 PUSH2 0x39E9 JUMP JUMPDEST SWAP1 PUSH0 MSTORE PUSH1 0x20 PUSH0 KECCAK256 SWAP1 PUSH1 0x7 MUL ADD DUP4 DUP4 DUP2 SLOAD DUP2 LT PUSH2 0x2711 JUMPI PUSH2 0x2711 PUSH2 0x39E9 JUMP JUMPDEST PUSH0 SWAP2 DUP3 MSTORE PUSH1 0x20 SWAP1 SWAP2 KECCAK256 DUP3 SLOAD PUSH1 0x7 SWAP1 SWAP3 MUL ADD DUP1 SLOAD PUSH1 0x1 PUSH1 0x1 PUSH1 0xA0 SHL SUB NOT SWAP1 DUP2 AND PUSH1 0x1 PUSH1 0x1 PUSH1 0xA0 SHL SUB SWAP4 DUP5 AND OR DUP3 SSTORE PUSH1 0x1 DUP1 DUP6 ADD DUP1 SLOAD SWAP2 DUP5 ADD DUP1 SLOAD SWAP4 DUP5 AND SWAP3 SWAP1 SWAP6 AND SWAP2 DUP3 OR DUP6 SSTORE SLOAD PUSH1 0xFF PUSH1 0x1 PUSH1 0xA0 SHL SWAP2 DUP3 SWAP1 DIV AND ISZERO ISZERO MUL PUSH1 0x1 PUSH1 0x1 PUSH1 0xA8 SHL SUB NOT SWAP1 SWAP3 AND OR OR SWAP1 SWAP2 SSTORE PUSH1 0x2 DUP1 DUP4 ADD SLOAD SWAP1 DUP3 ADD SSTORE PUSH1 0x3 DUP1 DUP4 ADD SLOAD SWAP1 DUP3 ADD SSTORE PUSH1 0x4 DUP1 DUP4 ADD SLOAD SWAP1 DUP3 ADD SSTORE PUSH1 0x5 DUP1 DUP4 ADD SLOAD SWAP1 DUP3 ADD SSTORE PUSH1 0x6 SWAP2 DUP3 ADD SLOAD SWAP2 ADD SSTORE JUMPDEST DUP3 DUP1 SLOAD DUP1 PUSH2 0x27B9 JUMPI PUSH2 0x27B9 PUSH2 0x3B25 JUMP JUMPDEST PUSH0 DUP3 DUP2 MSTORE PUSH1 0x20 DUP2 KECCAK256 PUSH1 0x7 PUSH0 NOT SWAP1 SWAP4 ADD SWAP3 DUP4 MUL ADD DUP1 SLOAD PUSH1 0x1 PUSH1 0x1 PUSH1 0xA0 SHL SUB NOT AND DUP2 SSTORE PUSH1 0x1 DUP2 ADD DUP1 SLOAD PUSH1 0x1 PUSH1 0x1 PUSH1 0xA8 SHL SUB NOT AND SWAP1 SSTORE PUSH1 0x2 DUP2 ADD DUP3 SWAP1 SSTORE PUSH1 0x3 DUP2 ADD DUP3 SWAP1 SSTORE PUSH1 0x4 DUP2 ADD DUP3 SWAP1 SSTORE PUSH1 0x5 DUP2 ADD DUP3 SWAP1 SSTORE PUSH1 0x6 ADD SSTORE SWAP1 SSTORE POP POP POP JUMP JUMPDEST PUSH0 DUP1 PUSH0 PUSH2 0x281F DUP5 PUSH2 0x31E6 JUMP JUMPDEST SWAP2 POP SWAP2 POP DUP1 PUSH2 0x2841 JUMPI PUSH1 0x40 MLOAD PUSH4 0xE6F7D2C7 PUSH1 0xE0 SHL DUP2 MSTORE PUSH1 0x4 ADD PUSH1 0x40 MLOAD DUP1 SWAP2 SUB SWAP1 REVERT JUMPDEST POP SWAP3 SWAP2 POP POP JUMP JUMPDEST PUSH1 0x2 SLOAD PUSH0 SUB PUSH2 0x2853 JUMPI JUMP JUMPDEST PUSH0 PUSH1 0x2 PUSH0 DUP2 SLOAD DUP2 LT PUSH2 0x2867 JUMPI PUSH2 0x2867 PUSH2 0x39E9 JUMP JUMPDEST SWAP1 PUSH0 MSTORE PUSH1 0x20 PUSH0 KECCAK256 SWAP1 PUSH1 0xB MUL ADD PUSH1 0x40 MLOAD DUP1 PUSH2 0x180 ADD PUSH1 0x40 MSTORE SWAP1 DUP2 PUSH0 DUP3 ADD DUP1 SLOAD PUSH2 0x288E SWAP1 PUSH2 0x3A7B JUMP JUMPDEST DUP1 PUSH1 0x1F ADD PUSH1 0x20 DUP1 SWAP2 DIV MUL PUSH1 0x20 ADD PUSH1 0x40 MLOAD SWAP1 DUP2 ADD PUSH1 0x40 MSTORE DUP1 SWAP3 SWAP2 SWAP1 DUP2 DUP2 MSTORE PUSH1 0x20 ADD DUP3 DUP1 SLOAD PUSH2 0x28BA SWAP1 PUSH2 0x3A7B JUMP JUMPDEST DUP1 ISZERO PUSH2 0x2905 JUMPI DUP1 PUSH1 0x1F LT PUSH2 0x28DC JUMPI PUSH2 0x100 DUP1 DUP4 SLOAD DIV MUL DUP4 MSTORE SWAP2 PUSH1 0x20 ADD SWAP2 PUSH2 0x2905 JUMP JUMPDEST DUP3 ADD SWAP2 SWAP1 PUSH0 MSTORE PUSH1 0x20 PUSH0 KECCAK256 SWAP1 JUMPDEST DUP2 SLOAD DUP2 MSTORE SWAP1 PUSH1 0x1 ADD SWAP1 PUSH1 0x20 ADD DUP1 DUP4 GT PUSH2 0x28E8 JUMPI DUP3 SWAP1 SUB PUSH1 0x1F AND DUP3 ADD SWAP2 JUMPDEST POP POP POP POP POP DUP2 MSTORE PUSH1 0x20 ADD PUSH1 0x1 DUP3 ADD DUP1 SLOAD PUSH2 0x291E SWAP1 PUSH2 0x3A7B JUMP JUMPDEST DUP1 PUSH1 0x1F ADD PUSH1 0x20 DUP1 SWAP2 DIV MUL PUSH1 0x20 ADD PUSH1 0x40 MLOAD SWAP1 DUP2 ADD PUSH1 0x40 MSTORE DUP1 SWAP3 SWAP2 SWAP1 DUP2 DUP2 MSTORE PUSH1 0x20 ADD DUP3 DUP1 SLOAD PUSH2 0x294A SWAP1 PUSH2 0x3A7B JUMP JUMPDEST DUP1 ISZERO PUSH2 0x2995 JUMPI DUP1 PUSH1 0x1F LT PUSH2 0x296C JUMPI PUSH2 0x100 DUP1 DUP4 SLOAD DIV MUL DUP4 MSTORE SWAP2 PUSH1 0x20 ADD SWAP2 PUSH2 0x2995 JUMP JUMPDEST DUP3 ADD SWAP2 SWAP1 PUSH0 MSTORE PUSH1 0x20 PUSH0 KECCAK256 SWAP1 JUMPDEST DUP2 SLOAD DUP2 MSTORE SWAP1 PUSH1 0x1 ADD SWAP1 PUSH1 0x20 ADD DUP1 DUP4 GT PUSH2 0x2978 JUMPI DUP3 SWAP1 SUB PUSH1 0x1F AND DUP3 ADD SWAP2 JUMPDEST POP POP POP SWAP2 DUP4 MSTORE POP POP PUSH1 0x2 DUP3 ADD SLOAD PUSH1 0xFF SWAP1 DUP2 AND PUSH1 0x20 DUP4 ADD MSTORE PUSH1 0x3 DUP4 ADD SLOAD PUSH1 0x40 DUP4 ADD MSTORE PUSH1 0x4 DUP4 ADD SLOAD PUSH1 0x1 PUSH1 0x1 PUSH1 0xA0 SHL SUB SWAP1 DUP2 AND PUSH1 0x60 DUP5 ADD MSTORE PUSH1 0x5 DUP5 ADD SLOAD SWAP1 DUP2 AND PUSH1 0x80 DUP5 ADD MSTORE PUSH1 0xA0 SWAP1 SWAP3 ADD SWAP2 PUSH1 0x1 PUSH1 0xA0 SHL SWAP1 DIV AND PUSH1 0x1 DUP2 GT ISZERO PUSH2 0x29F7 JUMPI PUSH2 0x29F7 PUSH2 0x369B JUMP JUMPDEST PUSH1 0x1 DUP2 GT ISZERO PUSH2 0x2A08 JUMPI PUSH2 0x2A08 PUSH2 0x369B JUMP JUMPDEST DUP2 MSTORE PUSH1 0x6 DUP3 ADD SLOAD PUSH1 0x20 DUP3 ADD MSTORE PUSH1 0x7 DUP3 ADD SLOAD PUSH1 0x40 DUP3 ADD MSTORE PUSH1 0x8 DUP3 ADD SLOAD PUSH1 0x60 DUP3 ADD MSTORE PUSH1 0x9 DUP3 ADD SLOAD PUSH1 0x80 DUP3 ADD MSTORE PUSH1 0xA SWAP1 SWAP2 ADD SLOAD PUSH1 0x1 PUSH1 0x1 PUSH1 0xA0 SHL SUB AND PUSH1 0xA0 SWAP1 SWAP2 ADD MSTORE PUSH2 0x160 DUP2 ADD MLOAD PUSH1 0x1 SLOAD SWAP2 SWAP3 POP PUSH2 0x2A5E SWAP2 CALLER SWAP1 PUSH2 0x1D95 JUMP JUMPDEST PUSH2 0x2A81 JUMPI PUSH1 0x1 SLOAD PUSH1 0x40 MLOAD PUSH4 0x6508A501 PUSH1 0xE1 SHL DUP2 MSTORE PUSH1 0x4 ADD PUSH2 0x130A SWAP2 DUP2 MSTORE PUSH1 0x20 ADD SWAP1 JUMP JUMPDEST PUSH1 0x1 SLOAD PUSH1 0x80 DUP3 ADD MLOAD PUSH1 0x1 PUSH1 0x1 PUSH1 0xA0 SHL SUB AND PUSH0 SWAP1 DUP2 MSTORE PUSH1 0x9 PUSH1 0x20 MSTORE PUSH1 0x40 DUP2 KECCAK256 DUP1 SLOAD SWAP1 SWAP2 SWAP1 PUSH2 0x2AAF SWAP1 DUP5 SWAP1 PUSH2 0x3A68 JUMP JUMPDEST SWAP3 POP POP DUP2 SWAP1 SSTORE POP PUSH0 PUSH2 0x3E8 PUSH1 0x5 PUSH1 0x1 SLOAD PUSH2 0x2AC9 SWAP2 SWAP1 PUSH2 0x3B54 JUMP JUMPDEST PUSH2 0x2AD3 SWAP2 SWAP1 PUSH2 0x3B7F JUMP JUMPDEST SWAP1 POP DUP1 PUSH1 0x1 PUSH0 DUP3 DUP3 SLOAD PUSH2 0x2AE6 SWAP2 SWAP1 PUSH2 0x3A68 JUMP JUMPDEST SWAP1 SWAP2 SSTORE POP POP POP POP JUMP JUMPDEST PUSH1 0x40 MLOAD PUSH4 0x70A08231 PUSH1 0xE0 SHL DUP2 MSTORE ADDRESS PUSH1 0x4 DUP3 ADD MSTORE DUP7 SWAP1 PUSH1 0x60 SWAP1 DUP2 SWAP1 PUSH0 SWAP1 DUP2 SWAP1 DUP2 SWAP1 PUSH1 0x1 PUSH1 0x1 PUSH1 0xA0 SHL SUB DUP8 AND SWAP1 PUSH4 0x70A08231 SWAP1 PUSH1 0x24 ADD PUSH1 0x20 PUSH1 0x40 MLOAD DUP1 DUP4 SUB DUP2 DUP7 GAS STATICCALL SWAP3 POP POP POP DUP1 ISZERO PUSH2 0x2B5C JUMPI POP PUSH1 0x40 DUP1 MLOAD PUSH1 0x1F RETURNDATASIZE SWAP1 DUP2 ADD PUSH1 0x1F NOT AND DUP3 ADD SWAP1 SWAP3 MSTORE PUSH2 0x2B59 SWAP2 DUP2 ADD SWAP1 PUSH2 0x39FD JUMP JUMPDEST PUSH1 0x1 JUMPDEST PUSH2 0x2B79 JUMPI PUSH1 0x40 MLOAD PUSH4 0xA6F7ECD PUSH1 0xE2 SHL DUP2 MSTORE PUSH1 0x4 ADD PUSH1 0x40 MLOAD DUP1 SWAP2 SUB SWAP1 REVERT JUMPDEST DUP1 SWAP3 POP DUP7 PUSH1 0x1 PUSH1 0x1 PUSH1 0xA0 SHL SUB AND PUSH4 0x313CE567 PUSH1 0x40 MLOAD DUP2 PUSH4 0xFFFFFFFF AND PUSH1 0xE0 SHL DUP2 MSTORE PUSH1 0x4 ADD PUSH1 0x20 PUSH1 0x40 MLOAD DUP1 DUP4 SUB DUP2 DUP7 GAS STATICCALL SWAP3 POP POP POP DUP1 ISZERO PUSH2 0x2BD6 JUMPI POP PUSH1 0x40 DUP1 MLOAD PUSH1 0x1F RETURNDATASIZE SWAP1 DUP2 ADD PUSH1 0x1F NOT AND DUP3 ADD SWAP1 SWAP3 MSTORE PUSH2 0x2BD3 SWAP2 DUP2 ADD SWAP1 PUSH2 0x3B9E JUMP JUMPDEST PUSH1 0x1 JUMPDEST PUSH2 0x2BE3 JUMPI PUSH1 0x12 SWAP2 POP PUSH2 0x2BE6 JUMP JUMPDEST SWAP2 POP JUMPDEST PUSH1 0x12 PUSH1 0xFF DUP4 AND GT ISZERO PUSH2 0x2C0B JUMPI PUSH1 0x40 MLOAD PUSH4 0x432C0A5D PUSH1 0xE0 SHL DUP2 MSTORE PUSH1 0x4 ADD PUSH1 0x40 MLOAD DUP1 SWAP2 SUB SWAP1 REVERT JUMPDEST PUSH2 0x2C17 DUP3 PUSH1 0xFF AND PUSH2 0x33B8 JUMP JUMPDEST SWAP4 POP DUP7 PUSH1 0x1 PUSH1 0x1 PUSH1 0xA0 SHL SUB AND PUSH4 0x6FDDE03 PUSH1 0x40 MLOAD DUP2 PUSH4 0xFFFFFFFF AND PUSH1 0xE0 SHL DUP2 MSTORE PUSH1 0x4 ADD PUSH0 PUSH1 0x40 MLOAD DUP1 DUP4 SUB DUP2 DUP7 GAS STATICCALL SWAP3 POP POP POP DUP1 ISZERO PUSH2 0x2C76 JUMPI POP PUSH1 0x40 MLOAD RETURNDATASIZE PUSH0 DUP3 RETURNDATACOPY PUSH1 0x1F RETURNDATASIZE SWAP1 DUP2 ADD PUSH1 0x1F NOT AND DUP3 ADD PUSH1 0x40 MSTORE PUSH2 0x2C73 SWAP2 SWAP1 DUP2 ADD SWAP1 PUSH2 0x3AB3 JUMP JUMPDEST PUSH1 0x1 JUMPDEST ISZERO PUSH2 0x2C7E JUMPI SWAP6 POP JUMPDEST DUP7 PUSH1 0x1 PUSH1 0x1 PUSH1 0xA0 SHL SUB AND PUSH4 0x95D89B41 PUSH1 0x40 MLOAD DUP2 PUSH4 0xFFFFFFFF AND PUSH1 0xE0 SHL DUP2 MSTORE PUSH1 0x4 ADD PUSH0 PUSH1 0x40 MLOAD DUP1 DUP4 SUB DUP2 DUP7 GAS STATICCALL SWAP3 POP POP POP DUP1 ISZERO PUSH2 0x2CDB JUMPI POP PUSH1 0x40 MLOAD RETURNDATASIZE PUSH0 DUP3 RETURNDATACOPY PUSH1 0x1F RETURNDATASIZE SWAP1 DUP2 ADD PUSH1 0x1F NOT AND DUP3 ADD PUSH1 0x40 MSTORE PUSH2 0x2CD8 SWAP2 SWAP1 DUP2 ADD SWAP1 PUSH2 0x3AB3 JUMP JUMPDEST PUSH1 0x1 JUMPDEST ISZERO PUSH2 0x2CE3 JUMPI SWAP5 POP JUMPDEST POP PUSH1 0x1 PUSH1 0x1 PUSH1 0xA0 SHL SUB DUP10 AND ISZERO DUP1 ISZERO SWAP1 PUSH2 0x2CFB JUMPI POP PUSH0 DUP12 GT JUMPDEST ISZERO PUSH2 0x2D19 JUMPI PUSH1 0x40 MLOAD PUSH4 0x27BD7835 PUSH1 0xE1 SHL DUP2 MSTORE PUSH1 0x4 ADD PUSH1 0x40 MLOAD DUP1 SWAP2 SUB SWAP1 REVERT JUMPDEST PUSH0 PUSH1 0x40 MLOAD DUP1 PUSH2 0x180 ADD PUSH1 0x40 MSTORE DUP1 DUP8 DUP2 MSTORE PUSH1 0x20 ADD DUP7 DUP2 MSTORE PUSH1 0x20 ADD DUP4 PUSH1 0xFF AND DUP2 MSTORE PUSH1 0x20 ADD DUP6 DUP2 MSTORE PUSH1 0x20 ADD DUP15 PUSH1 0x1 PUSH1 0x1 PUSH1 0xA0 SHL SUB AND DUP2 MSTORE PUSH1 0x20 ADD DUP12 PUSH1 0x1 PUSH1 0x1 PUSH1 0xA0 SHL SUB AND DUP2 MSTORE PUSH1 0x20 ADD DUP13 PUSH1 0x1 DUP2 GT ISZERO PUSH2 0x2D71 JUMPI PUSH2 0x2D71 PUSH2 0x369B JUMP JUMPDEST DUP2 MSTORE PUSH1 0x20 DUP2 ADD DUP12 SWAP1 MSTORE PUSH1 0x40 DUP2 ADD DUP11 SWAP1 MSTORE PUSH1 0x60 DUP2 ADD DUP15 SWAP1 MSTORE PUSH0 PUSH1 0x80 DUP3 ADD DUP2 SWAP1 MSTORE PUSH1 0x1 PUSH1 0x1 PUSH1 0xA0 SHL SUB DUP11 AND PUSH1 0xA0 SWAP1 SWAP3 ADD SWAP2 SWAP1 SWAP2 MSTORE PUSH1 0x2 DUP1 SLOAD PUSH1 0x1 DUP2 ADD DUP3 SSTORE SWAP2 MSTORE DUP2 MLOAD SWAP2 SWAP3 POP DUP3 SWAP2 PUSH1 0xB SWAP1 SWAP2 MUL PUSH32 0x405787FA12A823E0F2B7631CC41B3BA8828B3321CA811111FA75CD3AA3BB5ACE ADD SWAP1 DUP2 SWAP1 PUSH2 0x2DEA SWAP1 DUP3 PUSH2 0x3C02 JUMP JUMPDEST POP PUSH1 0x20 DUP3 ADD MLOAD PUSH1 0x1 DUP3 ADD SWAP1 PUSH2 0x2DFF SWAP1 DUP3 PUSH2 0x3C02 JUMP JUMPDEST POP PUSH1 0x40 DUP3 ADD MLOAD PUSH1 0x2 DUP3 ADD DUP1 SLOAD PUSH1 0xFF NOT AND PUSH1 0xFF SWAP1 SWAP3 AND SWAP2 SWAP1 SWAP2 OR SWAP1 SSTORE PUSH1 0x60 DUP3 ADD MLOAD PUSH1 0x3 DUP3 ADD SSTORE PUSH1 0x80 DUP3 ADD MLOAD PUSH1 0x4 DUP3 ADD DUP1 SLOAD PUSH1 0x1 PUSH1 0x1 PUSH1 0xA0 SHL SUB NOT SWAP1 DUP2 AND PUSH1 0x1 PUSH1 0x1 PUSH1 0xA0 SHL SUB SWAP4 DUP5 AND OR SWAP1 SWAP2 SSTORE PUSH1 0xA0 DUP5 ADD MLOAD PUSH1 0x5 DUP5 ADD DUP1 SLOAD SWAP3 DUP4 AND SWAP2 SWAP1 SWAP4 AND SWAP1 DUP2 OR DUP4 SSTORE PUSH1 0xC0 DUP6 ADD MLOAD SWAP3 SWAP2 PUSH1 0x1 PUSH1 0x1 PUSH1 0xA8 SHL SUB NOT AND OR PUSH1 0x1 PUSH1 0xA0 SHL DUP4 PUSH1 0x1 DUP2 GT ISZERO PUSH2 0x2E8A JUMPI PUSH2 0x2E8A PUSH2 0x369B JUMP JUMPDEST MUL OR SWAP1 SSTORE POP PUSH1 0xE0 DUP3 ADD MLOAD PUSH1 0x6 DUP3 ADD SSTORE PUSH2 0x100 DUP3 ADD MLOAD PUSH1 0x7 DUP3 ADD SSTORE PUSH2 0x120 DUP3 ADD MLOAD PUSH1 0x8 DUP3 ADD SSTORE PUSH2 0x140 DUP3 ADD MLOAD PUSH1 0x9 DUP1 DUP4 ADD SWAP2 SWAP1 SWAP2 SSTORE PUSH2 0x160 SWAP1 SWAP3 ADD MLOAD PUSH1 0xA SWAP1 SWAP2 ADD DUP1 SLOAD PUSH1 0x1 PUSH1 0x1 PUSH1 0xA0 SHL SUB NOT AND PUSH1 0x1 PUSH1 0x1 PUSH1 0xA0 SHL SUB SWAP3 DUP4 AND OR SWAP1 SSTORE PUSH1 0x2 SLOAD PUSH1 0x80 DUP5 ADD DUP1 MLOAD DUP4 AND PUSH0 SWAP1 DUP2 MSTORE PUSH1 0x5 PUSH1 0x20 SWAP1 DUP2 MSTORE PUSH1 0x40 DUP1 DUP4 KECCAK256 SWAP5 SWAP1 SWAP5 SSTORE SWAP2 MLOAD SWAP1 SWAP4 AND DUP4 MSTORE SWAP3 DUP4 MSTORE SWAP1 DUP2 SWAP1 KECCAK256 DUP6 SWAP1 SSTORE SWAP1 DUP3 ADD MLOAD SWAP1 MLOAD PUSH2 0x2F24 SWAP2 SWAP1 PUSH2 0x3CBE JUMP JUMPDEST PUSH1 0x40 MLOAD SWAP1 DUP2 SWAP1 SUB DUP2 KECCAK256 DUP3 MLOAD SWAP1 SWAP2 PUSH2 0x2F3B SWAP2 SWAP1 PUSH2 0x3CBE JUMP JUMPDEST PUSH1 0x40 MLOAD SWAP1 DUP2 SWAP1 SUB DUP2 KECCAK256 PUSH1 0xC0 DUP5 ADD MLOAD PUSH1 0x80 DUP6 ADD MLOAD PUSH1 0x2 SLOAD SWAP3 SWAP4 PUSH32 0x2B9A73ECC76EBAD22366F66B2436A1725CC4F39AA579663FC941863779316B1B SWAP4 PUSH2 0x2F80 SWAP4 SWAP3 SWAP2 PUSH2 0x3CD9 JUMP JUMPDEST PUSH1 0x40 MLOAD DUP1 SWAP2 SUB SWAP1 LOG3 POP POP POP POP POP POP POP POP POP POP POP POP POP JUMP JUMPDEST PUSH0 DUP2 PUSH1 0x1 EQ PUSH2 0x2FB8 JUMPI PUSH2 0x2FA9 DUP3 PUSH2 0x33B8 JUMP JUMPDEST PUSH2 0x2FB3 SWAP1 DUP5 PUSH2 0x3B54 JUMP JUMPDEST PUSH2 0x687 JUMP JUMPDEST POP SWAP1 SWAP2 SWAP1 POP JUMP JUMPDEST PUSH0 PUSH2 0x687 DUP4 DUP4 PUSH2 0x33D8 JUMP JUMPDEST PUSH0 PUSH2 0x687 DUP4 DUP4 PUSH2 0x33E3 JUMP JUMPDEST PUSH0 DUP1 PUSH0 DUP1 DUP8 PUSH1 0x40 ADD MLOAD ISZERO PUSH2 0x2FF3 JUMPI POP POP DUP6 MLOAD DUP4 SWAP3 POP DUP5 SWAP2 POP CALLER PUSH2 0x3000 JUMP JUMPDEST POP POP DUP6 MLOAD DUP5 SWAP3 POP DUP4 SWAP2 POP CALLER SWAP1 JUMPDEST PUSH2 0x300B DUP8 DUP3 DUP6 PUSH2 0x310F JUMP JUMPDEST PUSH2 0x3028 JUMPI PUSH1 0x40 MLOAD PUSH4 0x4DE4E1D PUSH1 0xE4 SHL DUP2 MSTORE PUSH1 0x4 ADD PUSH1 0x40 MLOAD DUP1 SWAP2 SUB SWAP1 REVERT JUMPDEST PUSH2 0x3032 DUP3 DUP6 PUSH2 0x3317 JUMP JUMPDEST PUSH2 0x304F JUMPI PUSH1 0x40 MLOAD PUSH4 0x4DE4E1D PUSH1 0xE4 SHL DUP2 MSTORE PUSH1 0x4 ADD PUSH1 0x40 MLOAD DUP1 SWAP2 SUB SWAP1 REVERT JUMPDEST PUSH1 0x80 DUP8 ADD MLOAD PUSH1 0x1 PUSH1 0x1 PUSH1 0xA0 SHL SUB AND PUSH0 SWAP1 DUP2 MSTORE PUSH1 0x8 PUSH1 0x20 MSTORE PUSH1 0x40 DUP2 KECCAK256 DUP1 SLOAD DUP7 SWAP3 SWAP1 PUSH2 0x307A SWAP1 DUP5 SWAP1 PUSH2 0x3A28 JUMP JUMPDEST SWAP1 SWAP2 SSTORE POP POP PUSH1 0x80 DUP8 ADD MLOAD PUSH1 0x1 PUSH1 0x1 PUSH1 0xA0 SHL SUB AND PUSH0 SWAP1 DUP2 MSTORE PUSH1 0xA PUSH1 0x20 MSTORE PUSH1 0x40 SWAP1 KECCAK256 SLOAD DUP4 LT DUP1 ISZERO PUSH2 0x30D4 JUMPI PUSH1 0x80 DUP9 ADD MLOAD PUSH1 0x1 PUSH1 0x1 PUSH1 0xA0 SHL SUB AND PUSH0 SWAP1 DUP2 MSTORE PUSH1 0xA PUSH1 0x20 MSTORE PUSH1 0x40 DUP2 KECCAK256 DUP1 SLOAD DUP7 SWAP3 SWAP1 PUSH2 0x30CE SWAP1 DUP5 SWAP1 PUSH2 0x3A28 JUMP JUMPDEST SWAP1 SWAP2 SSTORE POP POP JUMPDEST PUSH1 0x80 DUP9 ADD MLOAD PUSH1 0x1 PUSH1 0x1 PUSH1 0xA0 SHL SUB AND PUSH0 SWAP1 DUP2 MSTORE PUSH1 0x9 PUSH1 0x20 MSTORE PUSH1 0x40 DUP2 KECCAK256 DUP1 SLOAD DUP7 SWAP3 SWAP1 PUSH2 0x30FF SWAP1 DUP5 SWAP1 PUSH2 0x3A28 JUMP JUMPDEST SWAP1 SWAP2 SSTORE POP POP POP POP POP POP POP POP POP POP POP JUMP JUMPDEST PUSH2 0x160 DUP4 ADD MLOAD PUSH1 0x40 MLOAD PUSH4 0xA9059CBB PUSH1 0xE0 SHL DUP2 MSTORE PUSH1 0x1 PUSH1 0x1 PUSH1 0xA0 SHL SUB DUP5 DUP2 AND PUSH1 0x4 DUP4 ADD MSTORE PUSH1 0x24 DUP3 ADD DUP5 SWAP1 MSTORE PUSH0 SWAP3 AND SWAP1 PUSH4 0xA9059CBB SWAP1 PUSH1 0x44 ADD PUSH1 0x20 PUSH1 0x40 MLOAD DUP1 DUP4 SUB DUP2 PUSH0 DUP8 GAS CALL SWAP3 POP POP POP DUP1 ISZERO PUSH2 0x3180 JUMPI POP PUSH1 0x40 DUP1 MLOAD PUSH1 0x1F RETURNDATASIZE SWAP1 DUP2 ADD PUSH1 0x1F NOT AND DUP3 ADD SWAP1 SWAP3 MSTORE PUSH2 0x317D SWAP2 DUP2 ADD SWAP1 PUSH2 0x3B39 JUMP JUMPDEST PUSH1 0x1 JUMPDEST PUSH2 0x318B JUMPI POP PUSH0 PUSH2 0x687 JUMP JUMPDEST DUP1 ISZERO PUSH2 0x1E13 JUMPI PUSH1 0x80 DUP6 ADD MLOAD PUSH1 0x40 DUP1 MLOAD DUP6 DUP2 MSTORE PUSH1 0x1 PUSH1 0x1 PUSH1 0xA0 SHL SUB DUP8 DUP2 AND PUSH1 0x20 DUP4 ADD MSTORE SWAP1 SWAP3 AND DUP3 DUP3 ADD MSTORE MLOAD PUSH32 0xA84F763BE5BB36163517FB87C7AF39F875A97866FDF7806EB1B3EAC837AE35EA SWAP2 DUP2 SWAP1 SUB PUSH1 0x60 ADD SWAP1 LOG1 SWAP1 POP PUSH2 0x687 JUMP JUMPDEST PUSH0 DUP1 DUP1 DUP1 DUP5 DUP2 DUP1 DUP1 DUP1 DUP1 JUMPDEST DUP6 MLOAD DUP2 LT DUP1 ISZERO PUSH2 0x31FF JUMPI POP DUP4 ISZERO JUMPDEST ISZERO PUSH2 0x32EC JUMPI DUP6 DUP2 DUP2 MLOAD DUP2 LT PUSH2 0x3216 JUMPI PUSH2 0x3216 PUSH2 0x39E9 JUMP JUMPDEST ADD PUSH1 0x20 ADD MLOAD PUSH1 0xF8 SHR SWAP5 POP PUSH1 0x30 DUP6 LT DUP1 ISZERO SWAP1 PUSH2 0x3235 JUMPI POP PUSH1 0x39 DUP6 PUSH1 0xFF AND GT ISZERO JUMPDEST ISZERO PUSH2 0x32A4 JUMPI DUP7 SWAP8 POP DUP3 ISZERO PUSH2 0x3255 JUMPI DUP2 PUSH2 0x324D DUP2 PUSH2 0x3D01 JUMP JUMPDEST SWAP3 POP POP PUSH2 0x3263 JUMP JUMPDEST PUSH2 0x3260 PUSH1 0xA DUP9 PUSH2 0x3B54 JUMP JUMPDEST SWAP7 POP JUMPDEST PUSH2 0x326E DUP3 PUSH1 0xA PUSH2 0x3DFC JUMP JUMPDEST PUSH2 0x3279 PUSH1 0x30 DUP8 PUSH2 0x3E0A JUMP JUMPDEST PUSH1 0xFF AND PUSH2 0x3286 SWAP2 SWAP1 PUSH2 0x3B54 JUMP JUMPDEST PUSH2 0x3290 SWAP1 DUP9 PUSH2 0x3A68 JUMP JUMPDEST SWAP7 POP DUP7 DUP9 GT ISZERO PUSH2 0x329F JUMPI PUSH1 0x1 SWAP4 POP JUMPDEST PUSH2 0x32DA JUMP JUMPDEST DUP5 PUSH1 0xFF AND PUSH1 0x2E SUB PUSH2 0x32DA JUMPI DUP3 ISZERO PUSH2 0x32BA JUMPI PUSH1 0x1 SWAP4 POP JUMPDEST PUSH1 0x1 SWAP3 POP PUSH1 0x12 SWAP2 POP PUSH2 0x32CD DUP3 PUSH1 0xA PUSH2 0x3DFC JUMP JUMPDEST PUSH2 0x32D7 SWAP1 DUP9 PUSH2 0x3B54 JUMP JUMPDEST SWAP7 POP JUMPDEST DUP1 PUSH2 0x32E4 DUP2 PUSH2 0x3A3B JUMP JUMPDEST SWAP2 POP POP PUSH2 0x31F1 JUMP JUMPDEST POP DUP2 PUSH2 0x3307 JUMPI PUSH2 0x3304 PUSH8 0xDE0B6B3A7640000 DUP8 PUSH2 0x3B54 JUMP JUMPDEST SWAP6 POP JUMPDEST POP SWAP4 SWAP9 SWAP1 ISZERO SWAP8 POP SWAP6 POP POP POP POP POP POP JUMP JUMPDEST PUSH0 DUP1 DUP4 PUSH1 0x1 PUSH1 0x1 PUSH1 0xA0 SHL SUB AND DUP4 PUSH1 0x40 MLOAD PUSH0 PUSH1 0x40 MLOAD DUP1 DUP4 SUB DUP2 DUP6 DUP8 GAS CALL SWAP3 POP POP POP RETURNDATASIZE DUP1 PUSH0 DUP2 EQ PUSH2 0x3361 JUMPI PUSH1 0x40 MLOAD SWAP2 POP PUSH1 0x1F NOT PUSH1 0x3F RETURNDATASIZE ADD AND DUP3 ADD PUSH1 0x40 MSTORE RETURNDATASIZE DUP3 MSTORE RETURNDATASIZE PUSH0 PUSH1 0x20 DUP5 ADD RETURNDATACOPY PUSH2 0x3366 JUMP JUMPDEST PUSH1 0x60 SWAP2 POP JUMPDEST POP POP SWAP1 POP DUP1 ISZERO PUSH2 0x687 JUMPI PUSH1 0x40 DUP1 MLOAD DUP5 DUP2 MSTORE PUSH1 0x1 PUSH1 0x1 PUSH1 0xA0 SHL SUB DUP7 AND PUSH1 0x20 DUP3 ADD MSTORE PUSH32 0x897F9F8697C0FEE5ACFC2C885618E98D4F0882E71E35D182FACCC1915C01ECB SWAP2 ADD PUSH1 0x40 MLOAD DUP1 SWAP2 SUB SWAP1 LOG1 SWAP4 SWAP3 POP POP POP JUMP JUMPDEST PUSH0 DUP2 PUSH1 0x12 SUB PUSH2 0x33C9 JUMPI POP PUSH1 0x1 SWAP2 SWAP1 POP JUMP JUMPDEST DUP2 PUSH1 0x12 SUB PUSH1 0xA EXP SWAP1 POP JUMPDEST SWAP2 SWAP1 POP JUMP JUMPDEST PUSH0 PUSH2 0x687 DUP4 DUP4 PUSH2 0x33F7 JUMP JUMPDEST PUSH0 PUSH2 0x687 DUP4 PUSH8 0xDE0B6B3A7640000 DUP5 PUSH2 0x34A9 JUMP JUMPDEST PUSH0 DUP1 DUP1 PUSH0 NOT DUP5 DUP7 MULMOD DUP5 DUP7 MUL SWAP3 POP DUP3 DUP2 LT DUP4 DUP3 SUB SUB SWAP2 POP POP DUP1 PUSH0 SUB PUSH2 0x3428 JUMPI POP PUSH8 0xDE0B6B3A7640000 SWAP1 DIV SWAP1 POP PUSH2 0x4E2 JUMP JUMPDEST PUSH8 0xDE0B6B3A7640000 DUP2 LT PUSH2 0x345A JUMPI PUSH1 0x40 MLOAD PUSH4 0x69E06FAF PUSH1 0xE1 SHL DUP2 MSTORE PUSH1 0x4 DUP2 ADD DUP7 SWAP1 MSTORE PUSH1 0x24 DUP2 ADD DUP6 SWAP1 MSTORE PUSH1 0x44 ADD PUSH2 0x130A JUMP JUMPDEST PUSH0 PUSH8 0xDE0B6B3A7640000 DUP6 DUP8 MULMOD PUSH3 0x40000 DUP2 DUP6 SUB DIV SWAP4 LT SWAP1 SWAP2 SUB PUSH1 0x1 PUSH1 0xEE SHL MUL SWAP2 SWAP1 SWAP2 OR PUSH32 0xACCB18165BD6FE31AE1CF318DC5B51EEE0E1BA569B88CD74C1773B91FAC10669 MUL SWAP2 POP POP SWAP3 SWAP2 POP POP JUMP JUMPDEST PUSH0 DUP1 DUP1 PUSH0 NOT DUP6 DUP8 MULMOD DUP6 DUP8 MUL SWAP3 POP DUP3 DUP2 LT DUP4 DUP3 SUB SUB SWAP2 POP POP DUP1 PUSH0 SUB PUSH2 0x34E0 JUMPI DUP4 DUP3 DUP2 PUSH2 0x34D6 JUMPI PUSH2 0x34D6 PUSH2 0x3B6B JUMP JUMPDEST DIV SWAP3 POP POP POP PUSH2 0x687 JUMP JUMPDEST DUP4 DUP2 LT PUSH2 0x3511 JUMPI PUSH1 0x40 MLOAD PUSH4 0x362CED09 PUSH1 0xE1 SHL DUP2 MSTORE PUSH1 0x4 DUP2 ADD DUP8 SWAP1 MSTORE PUSH1 0x24 DUP2 ADD DUP7 SWAP1 MSTORE PUSH1 0x44 DUP2 ADD DUP6 SWAP1 MSTORE PUSH1 0x64 ADD PUSH2 0x130A JUMP JUMPDEST PUSH0 DUP5 DUP7 DUP9 MULMOD PUSH1 0x2 PUSH1 0x1 DUP8 NOT DUP2 ADD DUP9 AND SWAP8 DUP9 SWAP1 DIV PUSH1 0x3 DUP2 MUL DUP4 XOR DUP1 DUP3 MUL DUP5 SUB MUL DUP1 DUP3 MUL DUP5 SUB MUL DUP1 DUP3 MUL DUP5 SUB MUL DUP1 DUP3 MUL DUP5 SUB MUL DUP1 DUP3 MUL DUP5 SUB MUL SWAP1 DUP2 MUL SWAP1 SWAP3 SUB SWAP1 SWAP2 MUL PUSH0 DUP9 SWAP1 SUB DUP9 SWAP1 DIV SWAP1 SWAP2 ADD DUP6 DUP4 GT SWAP1 SWAP5 SUB SWAP4 SWAP1 SWAP4 MUL SWAP4 SUB SWAP5 SWAP1 SWAP5 DIV SWAP2 SWAP1 SWAP2 OR MUL SWAP5 SWAP4 POP POP POP POP JUMP JUMPDEST PUSH1 0x40 MLOAD DUP1 PUSH2 0x140 ADD PUSH1 0x40 MSTORE DUP1 PUSH0 DUP2 MSTORE PUSH1 0x20 ADD PUSH1 0x60 DUP2 MSTORE PUSH1 0x20 ADD PUSH1 0x60 DUP2 MSTORE PUSH1 0x20 ADD PUSH0 PUSH1 0x1 PUSH1 0x1 PUSH1 0xA0 SHL SUB AND DUP2 MSTORE PUSH1 0x20 ADD PUSH0 PUSH1 0x1 PUSH1 0x1 PUSH1 0xA0 SHL SUB AND DUP2 MSTORE PUSH1 0x20 ADD PUSH0 DUP2 MSTORE PUSH1 0x20 ADD PUSH0 DUP2 MSTORE PUSH1 0x20 ADD PUSH0 PUSH1 0x1 DUP2 GT ISZERO PUSH2 0x35D4 JUMPI PUSH2 0x35D4 PUSH2 0x369B JUMP JUMPDEST DUP2 MSTORE PUSH1 0x20 ADD PUSH0 DUP2 MSTORE PUSH1 0x20 ADD PUSH0 DUP2 MSTORE POP SWAP1 JUMP JUMPDEST PUSH1 0x40 MLOAD DUP1 PUSH2 0x100 ADD PUSH1 0x40 MSTORE DUP1 PUSH0 PUSH1 0x1 PUSH1 0x1 PUSH1 0xA0 SHL SUB AND DUP2 MSTORE PUSH1 0x20 ADD PUSH0 PUSH1 0x1 PUSH1 0x1 PUSH1 0xA0 SHL SUB AND DUP2 MSTORE PUSH1 0x20 ADD PUSH0 ISZERO ISZERO DUP2 MSTORE PUSH1 0x20 ADD PUSH0 DUP2 MSTORE PUSH1 0x20 ADD PUSH0 DUP2 MSTORE PUSH1 0x20 ADD PUSH0 DUP2 MSTORE PUSH1 0x20 ADD PUSH0 DUP2 MSTORE PUSH1 0x20 ADD PUSH0 DUP2 MSTORE POP SWAP1 JUMP JUMPDEST PUSH0 PUSH1 0x20 DUP3 DUP5 SUB SLT ISZERO PUSH2 0x3647 JUMPI PUSH0 DUP1 REVERT JUMPDEST POP CALLDATALOAD SWAP2 SWAP1 POP JUMP JUMPDEST PUSH0 JUMPDEST DUP4 DUP2 LT ISZERO PUSH2 0x3668 JUMPI DUP2 DUP2 ADD MLOAD DUP4 DUP3 ADD MSTORE PUSH1 0x20 ADD PUSH2 0x3650 JUMP JUMPDEST POP POP PUSH0 SWAP2 ADD MSTORE JUMP JUMPDEST PUSH0 DUP2 MLOAD DUP1 DUP5 MSTORE PUSH2 0x3687 DUP2 PUSH1 0x20 DUP7 ADD PUSH1 0x20 DUP7 ADD PUSH2 0x364E JUMP JUMPDEST PUSH1 0x1F ADD PUSH1 0x1F NOT AND SWAP3 SWAP1 SWAP3 ADD PUSH1 0x20 ADD SWAP3 SWAP2 POP POP JUMP JUMPDEST PUSH4 0x4E487B71 PUSH1 0xE0 SHL PUSH0 MSTORE PUSH1 0x21 PUSH1 0x4 MSTORE PUSH1 0x24 PUSH0 REVERT JUMPDEST PUSH1 0x2 DUP2 LT PUSH2 0x36CB JUMPI PUSH4 0x4E487B71 PUSH1 0xE0 SHL PUSH0 MSTORE PUSH1 0x21 PUSH1 0x4 MSTORE PUSH1 0x24 PUSH0 REVERT JUMPDEST SWAP1 MSTORE JUMP JUMPDEST PUSH1 0x20 DUP2 MSTORE DUP2 MLOAD PUSH1 0x20 DUP3 ADD MSTORE PUSH0 PUSH1 0x20 DUP4 ADD MLOAD PUSH2 0x140 DUP1 PUSH1 0x40 DUP6 ADD MSTORE PUSH2 0x36F7 PUSH2 0x160 DUP6 ADD DUP4 PUSH2 0x3670 JUMP JUMPDEST SWAP2 POP PUSH1 0x40 DUP6 ADD MLOAD PUSH1 0x1F NOT DUP6 DUP5 SUB ADD PUSH1 0x60 DUP7 ADD MSTORE PUSH2 0x3714 DUP4 DUP3 PUSH2 0x3670 JUMP JUMPDEST SWAP3 POP POP PUSH1 0x60 DUP6 ADD MLOAD PUSH2 0x3731 PUSH1 0x80 DUP7 ADD DUP3 PUSH1 0x1 PUSH1 0x1 PUSH1 0xA0 SHL SUB AND SWAP1 MSTORE JUMP JUMPDEST POP PUSH1 0x80 DUP6 ADD MLOAD PUSH1 0x1 PUSH1 0x1 PUSH1 0xA0 SHL SUB DUP2 AND PUSH1 0xA0 DUP7 ADD MSTORE POP PUSH1 0xA0 DUP6 ADD MLOAD PUSH1 0xC0 DUP6 ADD MSTORE PUSH1 0xC0 DUP6 ADD MLOAD PUSH1 0xE0 DUP6 ADD MSTORE PUSH1 0xE0 DUP6 ADD MLOAD PUSH2 0x100 PUSH2 0x376F DUP2 DUP8 ADD DUP4 PUSH2 0x36AF JUMP JUMPDEST DUP7 ADD MLOAD PUSH2 0x120 DUP7 DUP2 ADD SWAP2 SWAP1 SWAP2 MSTORE SWAP1 SWAP6 ADD MLOAD SWAP4 ADD SWAP3 SWAP1 SWAP3 MSTORE POP SWAP2 SWAP1 POP JUMP JUMPDEST DUP1 CALLDATALOAD PUSH1 0x1 PUSH1 0x1 PUSH1 0xA0 SHL SUB DUP2 AND DUP2 EQ PUSH2 0x33D3 JUMPI PUSH0 DUP1 REVERT JUMPDEST PUSH4 0x4E487B71 PUSH1 0xE0 SHL PUSH0 MSTORE PUSH1 0x41 PUSH1 0x4 MSTORE PUSH1 0x24 PUSH0 REVERT JUMPDEST PUSH1 0x40 MLOAD PUSH1 0x1F DUP3 ADD PUSH1 0x1F NOT AND DUP2 ADD PUSH8 0xFFFFFFFFFFFFFFFF DUP2 GT DUP3 DUP3 LT OR ISZERO PUSH2 0x37DF JUMPI PUSH2 0x37DF PUSH2 0x37A2 JUMP JUMPDEST PUSH1 0x40 MSTORE SWAP2 SWAP1 POP JUMP JUMPDEST PUSH0 PUSH8 0xFFFFFFFFFFFFFFFF DUP3 GT ISZERO PUSH2 0x3800 JUMPI PUSH2 0x3800 PUSH2 0x37A2 JUMP JUMPDEST POP PUSH1 0x1F ADD PUSH1 0x1F NOT AND PUSH1 0x20 ADD SWAP1 JUMP JUMPDEST PUSH0 DUP3 PUSH1 0x1F DUP4 ADD SLT PUSH2 0x381D JUMPI PUSH0 DUP1 REVERT JUMPDEST DUP2 CALLDATALOAD PUSH2 0x3830 PUSH2 0x382B DUP3 PUSH2 0x37E7 JUMP JUMPDEST PUSH2 0x37B6 JUMP JUMPDEST DUP2 DUP2 MSTORE DUP5 PUSH1 0x20 DUP4 DUP7 ADD ADD GT ISZERO PUSH2 0x3844 JUMPI PUSH0 DUP1 REVERT JUMPDEST DUP2 PUSH1 0x20 DUP6 ADD PUSH1 0x20 DUP4 ADD CALLDATACOPY PUSH0 SWAP2 DUP2 ADD PUSH1 0x20 ADD SWAP2 SWAP1 SWAP2 MSTORE SWAP4 SWAP3 POP POP POP JUMP JUMPDEST PUSH0 DUP1 PUSH0 DUP1 PUSH0 PUSH1 0xA0 DUP7 DUP9 SUB SLT ISZERO PUSH2 0x3874 JUMPI PUSH0 DUP1 REVERT JUMPDEST PUSH2 0x387D DUP7 PUSH2 0x378C JUMP JUMPDEST SWAP5 POP PUSH2 0x388B PUSH1 0x20 DUP8 ADD PUSH2 0x378C JUMP JUMPDEST SWAP4 POP PUSH1 0x40 DUP7 ADD CALLDATALOAD SWAP3 POP PUSH1 0x60 DUP7 ADD CALLDATALOAD SWAP2 POP PUSH1 0x80 DUP7 ADD CALLDATALOAD PUSH8 0xFFFFFFFFFFFFFFFF DUP2 GT ISZERO PUSH2 0x38B4 JUMPI PUSH0 DUP1 REVERT JUMPDEST PUSH2 0x38C0 DUP9 DUP3 DUP10 ADD PUSH2 0x380E JUMP JUMPDEST SWAP2 POP POP SWAP3 SWAP6 POP SWAP3 SWAP6 SWAP1 SWAP4 POP JUMP JUMPDEST PUSH0 DUP1 PUSH1 0x40 DUP4 DUP6 SUB SLT ISZERO PUSH2 0x38DE JUMPI PUSH0 DUP1 REVERT JUMPDEST PUSH2 0x38E7 DUP4 PUSH2 0x378C JUMP JUMPDEST SWAP5 PUSH1 0x20 SWAP4 SWAP1 SWAP4 ADD CALLDATALOAD SWAP4 POP POP POP JUMP JUMPDEST DUP1 ISZERO ISZERO DUP2 EQ PUSH2 0x3902 JUMPI PUSH0 DUP1 REVERT JUMPDEST POP JUMP JUMPDEST PUSH0 DUP1 PUSH1 0x40 DUP4 DUP6 SUB SLT ISZERO PUSH2 0x3916 JUMPI PUSH0 DUP1 REVERT JUMPDEST PUSH2 0x391F DUP4 PUSH2 0x378C JUMP JUMPDEST SWAP2 POP PUSH1 0x20 DUP4 ADD CALLDATALOAD PUSH2 0x392F DUP2 PUSH2 0x38F5 JUMP JUMPDEST DUP1 SWAP2 POP POP SWAP3 POP SWAP3 SWAP1 POP JUMP JUMPDEST PUSH0 DUP1 PUSH0 DUP1 PUSH1 0x80 DUP6 DUP8 SUB SLT ISZERO PUSH2 0x394D JUMPI PUSH0 DUP1 REVERT JUMPDEST PUSH2 0x3956 DUP6 PUSH2 0x378C JUMP JUMPDEST SWAP4 POP PUSH1 0x20 DUP6 ADD CALLDATALOAD SWAP3 POP PUSH1 0x40 DUP6 ADD CALLDATALOAD SWAP2 POP PUSH1 0x60 DUP6 ADD CALLDATALOAD PUSH8 0xFFFFFFFFFFFFFFFF DUP2 GT ISZERO PUSH2 0x397F JUMPI PUSH0 DUP1 REVERT JUMPDEST PUSH2 0x398B DUP8 DUP3 DUP9 ADD PUSH2 0x380E JUMP JUMPDEST SWAP2 POP POP SWAP3 SWAP6 SWAP2 SWAP5 POP SWAP3 POP JUMP JUMPDEST PUSH0 PUSH1 0x20 DUP3 DUP5 SUB SLT ISZERO PUSH2 0x39A7 JUMPI PUSH0 DUP1 REVERT JUMPDEST PUSH2 0x687 DUP3 PUSH2 0x378C JUMP JUMPDEST PUSH0 DUP1 PUSH0 PUSH1 0x60 DUP5 DUP7 SUB SLT ISZERO PUSH2 0x39C2 JUMPI PUSH0 DUP1 REVERT JUMPDEST PUSH2 0x39CB DUP5 PUSH2 0x378C JUMP JUMPDEST SWAP3 POP PUSH2 0x39D9 PUSH1 0x20 DUP6 ADD PUSH2 0x378C JUMP JUMPDEST SWAP2 POP PUSH1 0x40 DUP5 ADD CALLDATALOAD SWAP1 POP SWAP3 POP SWAP3 POP SWAP3 JUMP JUMPDEST PUSH4 0x4E487B71 PUSH1 0xE0 SHL PUSH0 MSTORE PUSH1 0x32 PUSH1 0x4 MSTORE PUSH1 0x24 PUSH0 REVERT JUMPDEST PUSH0 PUSH1 0x20 DUP3 DUP5 SUB SLT ISZERO PUSH2 0x3A0D JUMPI PUSH0 DUP1 REVERT JUMPDEST POP MLOAD SWAP2 SWAP1 POP JUMP JUMPDEST PUSH4 0x4E487B71 PUSH1 0xE0 SHL PUSH0 MSTORE PUSH1 0x11 PUSH1 0x4 MSTORE PUSH1 0x24 PUSH0 REVERT JUMPDEST DUP2 DUP2 SUB DUP2 DUP2 GT ISZERO PUSH2 0x4E2 JUMPI PUSH2 0x4E2 PUSH2 0x3A14 JUMP JUMPDEST PUSH0 PUSH1 0x1 DUP3 ADD PUSH2 0x3A4C JUMPI PUSH2 0x3A4C PUSH2 0x3A14 JUMP JUMPDEST POP PUSH1 0x1 ADD SWAP1 JUMP JUMPDEST PUSH0 DUP2 PUSH2 0x3A61 JUMPI PUSH2 0x3A61 PUSH2 0x3A14 JUMP JUMPDEST POP PUSH0 NOT ADD SWAP1 JUMP JUMPDEST DUP1 DUP3 ADD DUP1 DUP3 GT ISZERO PUSH2 0x4E2 JUMPI PUSH2 0x4E2 PUSH2 0x3A14 JUMP JUMPDEST PUSH1 0x1 DUP2 DUP2 SHR SWAP1 DUP3 AND DUP1 PUSH2 0x3A8F JUMPI PUSH1 0x7F DUP3 AND SWAP2 POP JUMPDEST PUSH1 0x20 DUP3 LT DUP2 SUB PUSH2 0x3AAD JUMPI PUSH4 0x4E487B71 PUSH1 0xE0 SHL PUSH0 MSTORE PUSH1 0x22 PUSH1 0x4 MSTORE PUSH1 0x24 PUSH0 REVERT JUMPDEST POP SWAP2 SWAP1 POP JUMP JUMPDEST PUSH0 PUSH1 0x20 DUP3 DUP5 SUB SLT ISZERO PUSH2 0x3AC3 JUMPI PUSH0 DUP1 REVERT JUMPDEST DUP2 MLOAD PUSH8 0xFFFFFFFFFFFFFFFF DUP2 GT ISZERO PUSH2 0x3AD9 JUMPI PUSH0 DUP1 REVERT JUMPDEST DUP3 ADD PUSH1 0x1F DUP2 ADD DUP5 SGT PUSH2 0x3AE9 JUMPI PUSH0 DUP1 REVERT JUMPDEST DUP1 MLOAD PUSH2 0x3AF7 PUSH2 0x382B DUP3 PUSH2 0x37E7 JUMP JUMPDEST DUP2 DUP2 MSTORE DUP6 PUSH1 0x20 DUP4 DUP6 ADD ADD GT ISZERO PUSH2 0x3B0B JUMPI PUSH0 DUP1 REVERT JUMPDEST PUSH2 0x3B1C DUP3 PUSH1 0x20 DUP4 ADD PUSH1 0x20 DUP7 ADD PUSH2 0x364E JUMP JUMPDEST SWAP6 SWAP5 POP POP POP POP POP JUMP JUMPDEST PUSH4 0x4E487B71 PUSH1 0xE0 SHL PUSH0 MSTORE PUSH1 0x31 PUSH1 0x4 MSTORE PUSH1 0x24 PUSH0 REVERT JUMPDEST PUSH0 PUSH1 0x20 DUP3 DUP5 SUB SLT ISZERO PUSH2 0x3B49 JUMPI PUSH0 DUP1 REVERT JUMPDEST DUP2 MLOAD PUSH2 0x687 DUP2 PUSH2 0x38F5 JUMP JUMPDEST DUP1 DUP3 MUL DUP2 ISZERO DUP3 DUP3 DIV DUP5 EQ OR PUSH2 0x4E2 JUMPI PUSH2 0x4E2 PUSH2 0x3A14 JUMP JUMPDEST PUSH4 0x4E487B71 PUSH1 0xE0 SHL PUSH0 MSTORE PUSH1 0x12 PUSH1 0x4 MSTORE PUSH1 0x24 PUSH0 REVERT JUMPDEST PUSH0 DUP3 PUSH2 0x3B99 JUMPI PUSH4 0x4E487B71 PUSH1 0xE0 SHL PUSH0 MSTORE PUSH1 0x12 PUSH1 0x4 MSTORE PUSH1 0x24 PUSH0 REVERT JUMPDEST POP DIV SWAP1 JUMP JUMPDEST PUSH0 PUSH1 0x20 DUP3 DUP5 SUB SLT ISZERO PUSH2 0x3BAE JUMPI PUSH0 DUP1 REVERT JUMPDEST DUP2 MLOAD PUSH1 0xFF DUP2 AND DUP2 EQ PUSH2 0x687 JUMPI PUSH0 DUP1 REVERT JUMPDEST PUSH1 0x1F DUP3 GT ISZERO PUSH2 0xB1A JUMPI DUP1 PUSH0 MSTORE PUSH1 0x20 PUSH0 KECCAK256 PUSH1 0x1F DUP5 ADD PUSH1 0x5 SHR DUP2 ADD PUSH1 0x20 DUP6 LT ISZERO PUSH2 0x3BE3 JUMPI POP DUP1 JUMPDEST PUSH1 0x1F DUP5 ADD PUSH1 0x5 SHR DUP3 ADD SWAP2 POP JUMPDEST DUP2 DUP2 LT ISZERO PUSH2 0x4F7 JUMPI PUSH0 DUP2 SSTORE PUSH1 0x1 ADD PUSH2 0x3BEF JUMP JUMPDEST DUP2 MLOAD PUSH8 0xFFFFFFFFFFFFFFFF DUP2 GT ISZERO PUSH2 0x3C1C JUMPI PUSH2 0x3C1C PUSH2 0x37A2 JUMP JUMPDEST PUSH2 0x3C30 DUP2 PUSH2 0x3C2A DUP5 SLOAD PUSH2 0x3A7B JUMP JUMPDEST DUP5 PUSH2 0x3BBE JUMP JUMPDEST PUSH1 0x20 DUP1 PUSH1 0x1F DUP4 GT PUSH1 0x1 DUP2 EQ PUSH2 0x3C63 JUMPI PUSH0 DUP5 ISZERO PUSH2 0x3C4C JUMPI POP DUP6 DUP4 ADD MLOAD JUMPDEST PUSH0 NOT PUSH1 0x3 DUP7 SWAP1 SHL SHR NOT AND PUSH1 0x1 DUP6 SWAP1 SHL OR DUP6 SSTORE PUSH2 0xEDC JUMP JUMPDEST PUSH0 DUP6 DUP2 MSTORE PUSH1 0x20 DUP2 KECCAK256 PUSH1 0x1F NOT DUP7 AND SWAP2 JUMPDEST DUP3 DUP2 LT ISZERO PUSH2 0x3C91 JUMPI DUP9 DUP7 ADD MLOAD DUP3 SSTORE SWAP5 DUP5 ADD SWAP5 PUSH1 0x1 SWAP1 SWAP2 ADD SWAP1 DUP5 ADD PUSH2 0x3C72 JUMP JUMPDEST POP DUP6 DUP3 LT ISZERO PUSH2 0x3CAE JUMPI DUP8 DUP6 ADD MLOAD PUSH0 NOT PUSH1 0x3 DUP9 SWAP1 SHL PUSH1 0xF8 AND SHR NOT AND DUP2 SSTORE JUMPDEST POP POP POP POP POP PUSH1 0x1 SWAP1 DUP2 SHL ADD SWAP1 SSTORE POP JUMP JUMPDEST PUSH0 DUP3 MLOAD PUSH2 0x3CCF DUP2 DUP5 PUSH1 0x20 DUP8 ADD PUSH2 0x364E JUMP JUMPDEST SWAP2 SWAP1 SWAP2 ADD SWAP3 SWAP2 POP POP JUMP JUMPDEST PUSH1 0x60 DUP2 ADD PUSH2 0x3CE7 DUP3 DUP7 PUSH2 0x36AF JUMP JUMPDEST PUSH1 0x1 PUSH1 0x1 PUSH1 0xA0 SHL SUB SWAP4 SWAP1 SWAP4 AND PUSH1 0x20 DUP3 ADD MSTORE PUSH1 0x40 ADD MSTORE SWAP2 SWAP1 POP JUMP JUMPDEST PUSH0 PUSH1 0xFF DUP3 AND DUP1 PUSH2 0x3D13 JUMPI PUSH2 0x3D13 PUSH2 0x3A14 JUMP JUMPDEST PUSH0 NOT ADD SWAP3 SWAP2 POP POP JUMP JUMPDEST PUSH1 0x1 DUP2 DUP2 JUMPDEST DUP1 DUP6 GT ISZERO PUSH2 0x3D56 JUMPI DUP2 PUSH0 NOT DIV DUP3 GT ISZERO PUSH2 0x3D3C JUMPI PUSH2 0x3D3C PUSH2 0x3A14 JUMP JUMPDEST DUP1 DUP6 AND ISZERO PUSH2 0x3D49 JUMPI SWAP2 DUP2 MUL SWAP2 JUMPDEST SWAP4 DUP5 SHR SWAP4 SWAP1 DUP1 MUL SWAP1 PUSH2 0x3D21 JUMP JUMPDEST POP SWAP3 POP SWAP3 SWAP1 POP JUMP JUMPDEST PUSH0 DUP3 PUSH2 0x3D6C JUMPI POP PUSH1 0x1 PUSH2 0x4E2 JUMP JUMPDEST DUP2 PUSH2 0x3D78 JUMPI POP PUSH0 PUSH2 0x4E2 JUMP JUMPDEST DUP2 PUSH1 0x1 DUP2 EQ PUSH2 0x3D8E JUMPI PUSH1 0x2 DUP2 EQ PUSH2 0x3D98 JUMPI PUSH2 0x3DB4 JUMP JUMPDEST PUSH1 0x1 SWAP2 POP POP PUSH2 0x4E2 JUMP JUMPDEST PUSH1 0xFF DUP5 GT ISZERO PUSH2 0x3DA9 JUMPI PUSH2 0x3DA9 PUSH2 0x3A14 JUMP JUMPDEST POP POP PUSH1 0x1 DUP3 SHL PUSH2 0x4E2 JUMP JUMPDEST POP PUSH1 0x20 DUP4 LT PUSH2 0x133 DUP4 LT AND PUSH1 0x4E DUP5 LT PUSH1 0xB DUP5 LT AND OR ISZERO PUSH2 0x3DD7 JUMPI POP DUP2 DUP2 EXP PUSH2 0x4E2 JUMP JUMPDEST PUSH2 0x3DE1 DUP4 DUP4 PUSH2 0x3D1C JUMP JUMPDEST DUP1 PUSH0 NOT DIV DUP3 GT ISZERO PUSH2 0x3DF4 JUMPI PUSH2 0x3DF4 PUSH2 0x3A14 JUMP JUMPDEST MUL SWAP4 SWAP3 POP POP POP JUMP JUMPDEST PUSH0 PUSH2 0x687 PUSH1 0xFF DUP5 AND DUP4 PUSH2 0x3D5E JUMP JUMPDEST PUSH1 0xFF DUP3 DUP2 AND DUP3 DUP3 AND SUB SWAP1 DUP2 GT ISZERO PUSH2 0x4E2 JUMPI PUSH2 0x4E2 PUSH2 0x3A14 JUMP INVALID LOG2 PUSH5 0x6970667358 0x22 SLT KECCAK256 POP PUSH24 0x66EE354D221CC1116A1944A0CDD8975F9C40CA768E0D7F3B 0xD1 DUP16 0xEB SGT 0x4E 0xC6 PUSH5 0x736F6C6343 STOP ADDMOD AND STOP CALLER "
		},
		"gasEstimates": {
			"creation": {
				"codeDepositCost": "3192200",
				"executionCost": "infinite",
				"totalCost": "infinite"
			},
			"external": {
				"assignPriceDAO(address)": "infinite",
				"clearOrders()": "9111",
				"createBuyOrder(address)": "infinite",
				"createSellOrder(address,uint256)": "infinite",
				"deposit(address)": "24798",
				"depositToken(address,uint256)": "infinite",
				"depositTokenFrom(address,address,uint256)": "infinite",
				"getBalance()": "195",
				"listParityToken(address,address,uint256,uint256,string)": "infinite",
				"listToken(address,uint256,uint256,string)": "infinite",
				"listingCost()": "2394",
				"orders(uint256)": "17642",
				"owner()": "2358",
				"queryBalance(address,bool)": "2781",
				"settleOrders(address,bool)": "infinite",
				"takeBuyOrder(address,uint256)": "infinite",
				"takeSellOrder(address)": "5025",
				"transferOwnership(address)": "28191",
				"updateTokenBalance(address)": "infinite",
				"viewOrder(uint256)": "20163",
				"viewOrderByToken(address,uint256)": "24697",
				"viewPrice()": "2346",
				"viewToken(address)": "infinite",
				"viewTokenByIndex(uint256)": "infinite"
			},
			"internal": {
				"_chargeForListing()": "infinite",
				"_createOrder(struct DexhuneExchangeBase.Token storage pointer,bool,uint256)": "infinite",
				"_depositToken(address,address,uint256)": "infinite",
				"_displayToken(uint256)": "infinite",
				"_ensurePrice()": "infinite",
				"_fetchStorageToken(address)": "infinite",
				"_fetchToken(address)": "infinite",
				"_findSuitableOrder(address,uint256)": "infinite",
				"_listToken(address,enum DexhuneExchangeBase.PricingScheme,uint256,uint256,address,string memory)": "infinite",
				"_makeOrderPayments(struct DexhuneExchangeBase.Order memory,struct DexhuneExchangeBase.Token memory,uint256,uint256)": "infinite",
				"_prepareToken(address,uint256,enum DexhuneExchangeBase.PricingScheme,address,uint256,uint256)": "infinite",
				"_revertOrder(struct DexhuneExchangeBase.Order memory,uint256)": "infinite",
				"_settleBuyOrder(struct DexhuneExchangeBase.Token memory,struct DexhuneExchangeBase.Order storage pointer,uint256,uint256)": "infinite",
				"_settleSellOrder(struct DexhuneExchangeBase.Order storage pointer,uint256,uint256)": "infinite",
				"_takeOrder(struct DexhuneExchangeBase.Order storage pointer,bool,uint256,uint256,address)": "infinite"
			}
		},
		"methodIdentifiers": {
			"assignPriceDAO(address)": "86f179d2",
			"clearOrders()": "9351769f",
			"createBuyOrder(address)": "d2980065",
			"createSellOrder(address,uint256)": "a262b73f",
			"deposit(address)": "f340fa01",
			"depositToken(address,uint256)": "338b5dea",
			"depositTokenFrom(address,address,uint256)": "a08b5bba",
			"getBalance()": "12065fe0",
			"listParityToken(address,address,uint256,uint256,string)": "2e128417",
			"listToken(address,uint256,uint256,string)": "4d9ea07d",
			"listingCost()": "a5b6f92a",
			"orders(uint256)": "a85c38ef",
			"owner()": "8da5cb5b",
			"queryBalance(address,bool)": "3b174f0f",
			"settleOrders(address,bool)": "c201e47c",
			"takeBuyOrder(address,uint256)": "db34a679",
			"takeSellOrder(address)": "6daf6945",
			"transferOwnership(address)": "f2fde38b",
			"updateTokenBalance(address)": "87b337e8",
			"viewOrder(uint256)": "7c38d663",
			"viewOrderByToken(address,uint256)": "3ef73856",
			"viewPrice()": "d7dcdcec",
			"viewToken(address)": "673cf82a",
			"viewTokenByIndex(uint256)": "1f5d2641"
		}
	},
	"abi": [
		{
			"inputs": [],
			"stateMutability": "nonpayable",
			"type": "constructor"
		},
		{
			"inputs": [],
			"name": "DepositFailed",
			"type": "error"
		},
		{
			"inputs": [],
			"name": "FailedStringToNumberConversion",
			"type": "error"
		},
		{
			"inputs": [],
			"name": "FailedToSendReward",
			"type": "error"
		},
		{
			"inputs": [],
			"name": "FailedToTakeOrder",
			"type": "error"
		},
		{
			"inputs": [
				{
					"internalType": "uint256",
					"name": "balance",
					"type": "uint256"
				}
			],
			"name": "InsufficientBalance",
			"type": "error"
		},
		{
			"inputs": [
				{
					"internalType": "uint256",
					"name": "listingPrice",
					"type": "uint256"
				}
			],
			"name": "InsufficientBalanceForListing",
			"type": "error"
		},
		{
			"inputs": [],
			"name": "InvalidTokenContract",
			"type": "error"
		},
		{
			"inputs": [
				{
					"internalType": "uint256",
					"name": "x",
					"type": "uint256"
				},
				{
					"internalType": "uint256",
					"name": "y",
					"type": "uint256"
				}
			],
			"name": "MulDiv18Overflow",
			"type": "error"
		},
		{
			"inputs": [
				{
					"internalType": "uint256",
					"name": "x",
					"type": "uint256"
				},
				{
					"internalType": "uint256",
					"name": "y",
					"type": "uint256"
				},
				{
					"internalType": "uint256",
					"name": "denominator",
					"type": "uint256"
				}
			],
			"name": "MulDivOverflow",
			"type": "error"
		},
		{
			"inputs": [],
			"name": "NoSuitableOrderFound",
			"type": "error"
		},
		{
			"inputs": [],
			"name": "OnlyOwnerMustSetDefaultToken",
			"type": "error"
		},
		{
			"inputs": [],
			"name": "OrderDoesNotExist",
			"type": "error"
		},
		{
			"inputs": [],
			"name": "OrderLimitReachedTryLater",
			"type": "error"
		},
		{
			"inputs": [],
			"name": "ParityShouldNotHavePrice",
			"type": "error"
		},
		{
			"inputs": [],
			"name": "RejectedZeroAmount",
			"type": "error"
		},
		{
			"inputs": [
				{
					"internalType": "address",
					"name": "contractAddr",
					"type": "address"
				}
			],
			"name": "TokenAlreadyExists",
			"type": "error"
		},
		{
			"inputs": [],
			"name": "TokenLimitReached",
			"type": "error"
		},
		{
			"inputs": [],
			"name": "TokenNotListed",
			"type": "error"
		},
		{
			"inputs": [],
			"name": "TokenNotSupported_TooManyDecimals",
			"type": "error"
		},
		{
			"inputs": [
				{
					"internalType": "address",
					"name": "account",
					"type": "address"
				}
			],
			"name": "UnauthorizedAccount",
			"type": "error"
		},
		{
			"anonymous": false,
			"inputs": [
				{
					"indexed": false,
					"internalType": "uint256",
					"name": "amount",
					"type": "uint256"
				},
				{
					"indexed": false,
					"internalType": "address",
					"name": "targetAddr",
					"type": "address"
				}
			],
			"name": "AVAXTransferred",
			"type": "event"
		},
		{
			"anonymous": false,
			"inputs": [
				{
					"indexed": false,
					"internalType": "address",
					"name": "addr",
					"type": "address"
				}
			],
			"name": "AssignedPriceDAO",
			"type": "event"
		},
		{
			"anonymous": false,
			"inputs": [
				{
					"indexed": false,
					"internalType": "uint256",
					"name": "index",
					"type": "uint256"
				},
				{
					"indexed": false,
					"internalType": "bool",
					"name": "orderType",
					"type": "bool"
				},
				{
					"indexed": false,
					"internalType": "address",
					"name": "tokenAddr",
					"type": "address"
				},
				{
					"indexed": false,
					"internalType": "uint256",
					"name": "amount",
					"type": "uint256"
				},
				{
					"indexed": false,
					"internalType": "uint256",
					"name": "price",
					"type": "uint256"
				}
			],
			"name": "OrderCreated",
			"type": "event"
		},
		{
			"anonymous": false,
			"inputs": [
				{
					"indexed": false,
					"internalType": "uint256",
					"name": "index",
					"type": "uint256"
				},
				{
					"indexed": false,
					"internalType": "bool",
					"name": "orderType",
					"type": "bool"
				},
				{
					"indexed": false,
					"internalType": "address",
					"name": "maker",
					"type": "address"
				}
			],
			"name": "OrderReverted",
			"type": "event"
		},
		{
			"anonymous": false,
			"inputs": [
				{
					"indexed": false,
					"internalType": "uint256",
					"name": "index",
					"type": "uint256"
				},
				{
					"indexed": false,
					"internalType": "bool",
					"name": "orderType",
					"type": "bool"
				},
				{
					"indexed": false,
					"internalType": "address",
					"name": "maker",
					"type": "address"
				},
				{
					"indexed": false,
					"internalType": "bool",
					"name": "isPartial",
					"type": "bool"
				}
			],
			"name": "OrderSettled",
			"type": "event"
		},
		{
			"anonymous": false,
			"inputs": [
				{
					"indexed": false,
					"internalType": "uint256",
					"name": "index",
					"type": "uint256"
				},
				{
					"indexed": false,
					"internalType": "bool",
					"name": "orderType",
					"type": "bool"
				},
				{
					"indexed": false,
					"internalType": "address",
					"name": "maker",
					"type": "address"
				},
				{
					"indexed": false,
					"internalType": "address",
					"name": "taker",
					"type": "address"
				},
				{
					"indexed": false,
					"internalType": "address",
					"name": "token",
					"type": "address"
				},
				{
					"indexed": false,
					"internalType": "uint256",
					"name": "amount",
					"type": "uint256"
				},
				{
					"indexed": false,
					"internalType": "bool",
					"name": "isPartial",
					"type": "bool"
				}
			],
			"name": "OrderTaken",
			"type": "event"
		},
		{
			"anonymous": false,
			"inputs": [
				{
					"indexed": true,
					"internalType": "string",
					"name": "name",
					"type": "string"
				},
				{
					"indexed": true,
					"internalType": "string",
					"name": "symbol",
					"type": "string"
				},
				{
					"indexed": false,
					"internalType": "enum DexhuneExchangeBase.PricingScheme",
					"name": "pricingScheme",
					"type": "uint8"
				},
				{
					"indexed": false,
					"internalType": "address",
					"name": "addr",
					"type": "address"
				},
				{
					"indexed": false,
					"internalType": "uint256",
					"name": "index",
					"type": "uint256"
				}
			],
			"name": "TokenListed",
			"type": "event"
		},
		{
			"anonymous": false,
			"inputs": [
				{
					"indexed": false,
					"internalType": "uint256",
					"name": "amount",
					"type": "uint256"
				},
				{
					"indexed": false,
					"internalType": "address",
					"name": "targetAddr",
					"type": "address"
				},
				{
					"indexed": false,
					"internalType": "address",
					"name": "tokenAddr",
					"type": "address"
				}
			],
			"name": "TokenTransferred",
			"type": "event"
		},
		{
			"anonymous": false,
			"inputs": [
				{
					"indexed": false,
					"internalType": "address",
					"name": "oldOwner",
					"type": "address"
				},
				{
					"indexed": false,
					"internalType": "address",
					"name": "newOwner",
					"type": "address"
				}
			],
			"name": "TransferredOwnership",
			"type": "event"
		},
		{
			"inputs": [
				{
					"internalType": "address",
					"name": "addr",
					"type": "address"
				}
			],
			"name": "assignPriceDAO",
			"outputs": [],
			"stateMutability": "nonpayable",
			"type": "function"
		},
		{
			"inputs": [],
			"name": "clearOrders",
			"outputs": [],
			"stateMutability": "nonpayable",
			"type": "function"
		},
		{
			"inputs": [
				{
					"internalType": "address",
					"name": "tokenAddr",
					"type": "address"
				}
			],
			"name": "createBuyOrder",
			"outputs": [],
			"stateMutability": "payable",
			"type": "function"
		},
		{
			"inputs": [
				{
					"internalType": "address",
					"name": "tokenAddr",
					"type": "address"
				},
				{
					"internalType": "uint256",
					"name": "amount",
					"type": "uint256"
				}
			],
			"name": "createSellOrder",
			"outputs": [],
			"stateMutability": "nonpayable",
			"type": "function"
		},
		{
			"inputs": [
				{
					"internalType": "address",
					"name": "tokenAddr",
					"type": "address"
				}
			],
			"name": "deposit",
			"outputs": [],
			"stateMutability": "payable",
			"type": "function"
		},
		{
			"inputs": [
				{
					"internalType": "address",
					"name": "tokenAddr",
					"type": "address"
				},
				{
					"internalType": "uint256",
					"name": "amount",
					"type": "uint256"
				}
			],
			"name": "depositToken",
			"outputs": [],
			"stateMutability": "nonpayable",
			"type": "function"
		},
		{
			"inputs": [
				{
					"internalType": "address",
					"name": "tokenAddr",
					"type": "address"
				},
				{
					"internalType": "address",
					"name": "fromAddress",
					"type": "address"
				},
				{
					"internalType": "uint256",
					"name": "amount",
					"type": "uint256"
				}
			],
			"name": "depositTokenFrom",
			"outputs": [],
			"stateMutability": "nonpayable",
			"type": "function"
		},
		{
			"inputs": [],
			"name": "getBalance",
			"outputs": [
				{
					"internalType": "uint256",
					"name": "",
					"type": "uint256"
				}
			],
			"stateMutability": "view",
			"type": "function"
		},
		{
			"inputs": [
				{
					"internalType": "address",
					"name": "tokenAddr",
					"type": "address"
				},
				{
					"internalType": "address",
					"name": "parityAddr",
					"type": "address"
				},
				{
					"internalType": "uint256",
					"name": "reward",
					"type": "uint256"
				},
				{
					"internalType": "uint256",
					"name": "rewardThreshold",
					"type": "uint256"
				},
				{
					"internalType": "string",
					"name": "price",
					"type": "string"
				}
			],
			"name": "listParityToken",
			"outputs": [],
			"stateMutability": "nonpayable",
			"type": "function"
		},
		{
			"inputs": [
				{
					"internalType": "address",
					"name": "tokenAddr",
					"type": "address"
				},
				{
					"internalType": "uint256",
					"name": "reward",
					"type": "uint256"
				},
				{
					"internalType": "uint256",
					"name": "rewardThreshold",
					"type": "uint256"
				},
				{
					"internalType": "string",
					"name": "price",
					"type": "string"
				}
			],
			"name": "listToken",
			"outputs": [],
			"stateMutability": "nonpayable",
			"type": "function"
		},
		{
			"inputs": [],
			"name": "listingCost",
			"outputs": [
				{
					"internalType": "uint256",
					"name": "",
					"type": "uint256"
				}
			],
			"stateMutability": "view",
			"type": "function"
		},
		{
			"inputs": [
				{
					"internalType": "uint256",
					"name": "",
					"type": "uint256"
				}
			],
			"name": "orders",
			"outputs": [
				{
					"internalType": "address payable",
					"name": "makerAddr",
					"type": "address"
				},
				{
					"internalType": "address",
					"name": "tokenAddr",
					"type": "address"
				},
				{
					"internalType": "bool",
					"name": "orderType",
					"type": "bool"
				},
				{
					"internalType": "uint256",
					"name": "created",
					"type": "uint256"
				},
				{
					"internalType": "uint256",
					"name": "rewardAmount",
					"type": "uint256"
				},
				{
					"internalType": "uint256",
					"name": "price",
					"type": "uint256"
				},
				{
					"internalType": "uint256",
					"name": "principal",
					"type": "uint256"
				},
				{
					"internalType": "uint256",
					"name": "pending",
					"type": "uint256"
				}
			],
			"stateMutability": "view",
			"type": "function"
		},
		{
			"inputs": [],
			"name": "owner",
			"outputs": [
				{
					"internalType": "address",
					"name": "",
					"type": "address"
				}
			],
			"stateMutability": "view",
			"type": "function"
		},
		{
			"inputs": [
				{
					"internalType": "address",
					"name": "tokenAddr",
					"type": "address"
				},
				{
					"internalType": "bool",
					"name": "isAVAX",
					"type": "bool"
				}
			],
			"name": "queryBalance",
			"outputs": [
				{
					"internalType": "uint256",
					"name": "",
					"type": "uint256"
				}
			],
			"stateMutability": "view",
			"type": "function"
		},
		{
			"inputs": [
				{
					"internalType": "address",
					"name": "tokenAddr",
					"type": "address"
				},
				{
					"internalType": "bool",
					"name": "orderType",
					"type": "bool"
				}
			],
			"name": "settleOrders",
			"outputs": [],
			"stateMutability": "nonpayable",
			"type": "function"
		},
		{
			"inputs": [
				{
					"internalType": "address",
					"name": "tokenAddr",
					"type": "address"
				},
				{
					"internalType": "uint256",
					"name": "amount",
					"type": "uint256"
				}
			],
			"name": "takeBuyOrder",
			"outputs": [],
			"stateMutability": "nonpayable",
			"type": "function"
		},
		{
			"inputs": [
				{
					"internalType": "address",
					"name": "tokenAddr",
					"type": "address"
				}
			],
			"name": "takeSellOrder",
			"outputs": [],
			"stateMutability": "payable",
			"type": "function"
		},
		{
			"inputs": [
				{
					"internalType": "address",
					"name": "_address",
					"type": "address"
				}
			],
			"name": "transferOwnership",
			"outputs": [],
			"stateMutability": "nonpayable",
			"type": "function"
		},
		{
			"inputs": [
				{
					"internalType": "address",
					"name": "tokenAddr",
					"type": "address"
				}
			],
			"name": "updateTokenBalance",
			"outputs": [],
			"stateMutability": "nonpayable",
			"type": "function"
		},
		{
			"inputs": [
				{
					"internalType": "uint256",
					"name": "index",
					"type": "uint256"
				}
			],
			"name": "viewOrder",
			"outputs": [
				{
					"components": [
						{
							"internalType": "address payable",
							"name": "makerAddr",
							"type": "address"
						},
						{
							"internalType": "address",
							"name": "tokenAddr",
							"type": "address"
						},
						{
							"internalType": "bool",
							"name": "orderType",
							"type": "bool"
						},
						{
							"internalType": "uint256",
							"name": "created",
							"type": "uint256"
						},
						{
							"internalType": "uint256",
							"name": "rewardAmount",
							"type": "uint256"
						},
						{
							"internalType": "uint256",
							"name": "price",
							"type": "uint256"
						},
						{
							"internalType": "uint256",
							"name": "principal",
							"type": "uint256"
						},
						{
							"internalType": "uint256",
							"name": "pending",
							"type": "uint256"
						}
					],
					"internalType": "struct DexhuneExchangeBase.Order",
					"name": "",
					"type": "tuple"
				}
			],
			"stateMutability": "view",
			"type": "function"
		},
		{
			"inputs": [
				{
					"internalType": "address",
					"name": "tokenAddr",
					"type": "address"
				},
				{
					"internalType": "uint256",
					"name": "index",
					"type": "uint256"
				}
			],
			"name": "viewOrderByToken",
			"outputs": [
				{
					"components": [
						{
							"internalType": "address payable",
							"name": "makerAddr",
							"type": "address"
						},
						{
							"internalType": "address",
							"name": "tokenAddr",
							"type": "address"
						},
						{
							"internalType": "bool",
							"name": "orderType",
							"type": "bool"
						},
						{
							"internalType": "uint256",
							"name": "created",
							"type": "uint256"
						},
						{
							"internalType": "uint256",
							"name": "rewardAmount",
							"type": "uint256"
						},
						{
							"internalType": "uint256",
							"name": "price",
							"type": "uint256"
						},
						{
							"internalType": "uint256",
							"name": "principal",
							"type": "uint256"
						},
						{
							"internalType": "uint256",
							"name": "pending",
							"type": "uint256"
						}
					],
					"internalType": "struct DexhuneExchangeBase.Order",
					"name": "",
					"type": "tuple"
				}
			],
			"stateMutability": "view",
			"type": "function"
		},
		{
			"inputs": [],
			"name": "viewPrice",
			"outputs": [
				{
					"internalType": "uint256",
					"name": "",
					"type": "uint256"
				}
			],
			"stateMutability": "view",
			"type": "function"
		},
		{
			"inputs": [
				{
					"internalType": "address",
					"name": "tokenAddr",
					"type": "address"
				}
			],
			"name": "viewToken",
			"outputs": [
				{
					"components": [
						{
							"internalType": "uint256",
							"name": "tokenNo",
							"type": "uint256"
						},
						{
							"internalType": "string",
							"name": "name",
							"type": "string"
						},
						{
							"internalType": "string",
							"name": "sym",
							"type": "string"
						},
						{
							"internalType": "address",
							"name": "addr",
							"type": "address"
						},
						{
							"internalType": "address",
							"name": "parityAddr",
							"type": "address"
						},
						{
							"internalType": "uint256",
							"name": "reward",
							"type": "uint256"
						},
						{
							"internalType": "uint256",
							"name": "rewardThreshold",
							"type": "uint256"
						},
						{
							"internalType": "enum DexhuneExchangeBase.PricingScheme",
							"name": "scheme",
							"type": "uint8"
						},
						{
							"internalType": "uint256",
							"name": "price",
							"type": "uint256"
						},
						{
							"internalType": "uint256",
							"name": "orders",
							"type": "uint256"
						}
					],
					"internalType": "struct DexhuneExchangeBase.TokenDataModel",
					"name": "",
					"type": "tuple"
				}
			],
			"stateMutability": "view",
			"type": "function"
		},
		{
			"inputs": [
				{
					"internalType": "uint256",
					"name": "tokenNo",
					"type": "uint256"
				}
			],
			"name": "viewTokenByIndex",
			"outputs": [
				{
					"components": [
						{
							"internalType": "uint256",
							"name": "tokenNo",
							"type": "uint256"
						},
						{
							"internalType": "string",
							"name": "name",
							"type": "string"
						},
						{
							"internalType": "string",
							"name": "sym",
							"type": "string"
						},
						{
							"internalType": "address",
							"name": "addr",
							"type": "address"
						},
						{
							"internalType": "address",
							"name": "parityAddr",
							"type": "address"
						},
						{
							"internalType": "uint256",
							"name": "reward",
							"type": "uint256"
						},
						{
							"internalType": "uint256",
							"name": "rewardThreshold",
							"type": "uint256"
						},
						{
							"internalType": "enum DexhuneExchangeBase.PricingScheme",
							"name": "scheme",
							"type": "uint8"
						},
						{
							"internalType": "uint256",
							"name": "price",
							"type": "uint256"
						},
						{
							"internalType": "uint256",
							"name": "orders",
							"type": "uint256"
						}
					],
					"internalType": "struct DexhuneExchangeBase.TokenDataModel",
					"name": "",
					"type": "tuple"
				}
			],
			"stateMutability": "view",
			"type": "function"
		}
	]
}