{
	"contracts/mockups/MockOracle.sol": {
		"MockOracle": {
			"abi": [
				{
					"inputs": [],
					"name": "getPrice",
					"outputs": [
						{
							"internalType": "string",
							"name": "",
							"type": "string"
						}
					],
					"stateMutability": "view",
					"type": "function"
				},
				{
					"inputs": [
						{
							"internalType": "string",
							"name": "price",
							"type": "string"
						}
					],
					"name": "setPrice",
					"outputs": [],
					"stateMutability": "nonpayable",
					"type": "function"
				}
			],
			"devdoc": {
				"kind": "dev",
				"methods": {},
				"version": 1
			},
			"evm": {
				"assembly": "    /* \"contracts/mockups/MockOracle.sol\":658:910  contract MockOracle is IPriceDAO {... */\n  mstore(0x40, 0x80)\n  callvalue\n  dup1\n  iszero\n  tag_1\n  jumpi\n  0x00\n  dup1\n  revert\ntag_1:\n  pop\n  dataSize(sub_0)\n  dup1\n  dataOffset(sub_0)\n  0x00\n  codecopy\n  0x00\n  return\nstop\n\nsub_0: assembly {\n        /* \"contracts/mockups/MockOracle.sol\":658:910  contract MockOracle is IPriceDAO {... */\n      mstore(0x40, 0x80)\n      callvalue\n      dup1\n      iszero\n      tag_1\n      jumpi\n      0x00\n      dup1\n      revert\n    tag_1:\n      pop\n      jumpi(tag_2, lt(calldatasize, 0x04))\n      shr(0xe0, calldataload(0x00))\n      dup1\n      0x98d5fdca\n      eq\n      tag_3\n      jumpi\n      dup1\n      0x99f486bc\n      eq\n      tag_4\n      jumpi\n    tag_2:\n      0x00\n      dup1\n      revert\n        /* \"contracts/mockups/MockOracle.sol\":728:818  function getPrice() external view returns (string memory) {... */\n    tag_3:\n      tag_5\n      tag_6\n      jump\t// in\n    tag_5:\n      mload(0x40)\n      tag_7\n      swap2\n      swap1\n      tag_8\n      jump\t// in\n    tag_7:\n      mload(0x40)\n      dup1\n      swap2\n      sub\n      swap1\n      return\n        /* \"contracts/mockups/MockOracle.sol\":826:907  function setPrice(string memory price) external {... */\n    tag_4:\n      tag_9\n      tag_10\n      calldatasize\n      0x04\n      tag_11\n      jump\t// in\n    tag_10:\n      tag_12\n      jump\t// in\n    tag_9:\n      stop\n        /* \"contracts/mockups/MockOracle.sol\":728:818  function getPrice() external view returns (string memory) {... */\n    tag_6:\n        /* \"contracts/mockups/MockOracle.sol\":771:784  string memory */\n      0x60\n        /* \"contracts/mockups/MockOracle.sol\":804:810  _price */\n      0x00\n        /* \"contracts/mockups/MockOracle.sol\":797:810  return _price */\n      dup1\n      sload\n      tag_14\n      swap1\n      tag_15\n      jump\t// in\n    tag_14:\n      dup1\n      0x1f\n      add\n      0x20\n      dup1\n      swap2\n      div\n      mul\n      0x20\n      add\n      mload(0x40)\n      swap1\n      dup2\n      add\n      0x40\n      mstore\n      dup1\n      swap3\n      swap2\n      swap1\n      dup2\n      dup2\n      mstore\n      0x20\n      add\n      dup3\n      dup1\n      sload\n      tag_16\n      swap1\n      tag_15\n      jump\t// in\n    tag_16:\n      dup1\n      iszero\n      tag_17\n      jumpi\n      dup1\n      0x1f\n      lt\n      tag_18\n      jumpi\n      0x0100\n      dup1\n      dup4\n      sload\n      div\n      mul\n      dup4\n      mstore\n      swap2\n      0x20\n      add\n      swap2\n      jump(tag_17)\n    tag_18:\n      dup3\n      add\n      swap2\n      swap1\n      0x00\n      mstore\n      keccak256(0x00, 0x20)\n      swap1\n    tag_19:\n      dup2\n      sload\n      dup2\n      mstore\n      swap1\n      0x01\n      add\n      swap1\n      0x20\n      add\n      dup1\n      dup4\n      gt\n      tag_19\n      jumpi\n      dup3\n      swap1\n      sub\n      0x1f\n      and\n      dup3\n      add\n      swap2\n    tag_17:\n      pop\n      pop\n      pop\n      pop\n      pop\n      swap1\n      pop\n        /* \"contracts/mockups/MockOracle.sol\":728:818  function getPrice() external view returns (string memory) {... */\n      swap1\n      jump\t// out\n        /* \"contracts/mockups/MockOracle.sol\":826:907  function setPrice(string memory price) external {... */\n    tag_12:\n        /* \"contracts/mockups/MockOracle.sol\":885:891  _price */\n      0x00\n        /* \"contracts/mockups/MockOracle.sol\":885:899  _price = price */\n      tag_21\n        /* \"contracts/mockups/MockOracle.sol\":894:899  price */\n      dup3\n        /* \"contracts/mockups/MockOracle.sol\":885:891  _price */\n      dup3\n        /* \"contracts/mockups/MockOracle.sol\":885:899  _price = price */\n      tag_22\n      jump\t// in\n    tag_21:\n      pop\n        /* \"contracts/mockups/MockOracle.sol\":826:907  function setPrice(string memory price) external {... */\n      pop\n      jump\t// out\n        /* \"#utility.yul\":14:562   */\n    tag_8:\n        /* \"#utility.yul\":126:130   */\n      0x00\n        /* \"#utility.yul\":155:157   */\n      0x20\n        /* \"#utility.yul\":184:186   */\n      dup1\n        /* \"#utility.yul\":173:182   */\n      dup4\n        /* \"#utility.yul\":166:187   */\n      mstore\n        /* \"#utility.yul\":216:222   */\n      dup4\n        /* \"#utility.yul\":210:223   */\n      mload\n        /* \"#utility.yul\":259:265   */\n      dup1\n        /* \"#utility.yul\":254:256   */\n      0x20\n        /* \"#utility.yul\":243:252   */\n      dup6\n        /* \"#utility.yul\":239:257   */\n      add\n        /* \"#utility.yul\":232:266   */\n      mstore\n        /* \"#utility.yul\":284:285   */\n      0x00\n        /* \"#utility.yul\":294:434   */\n    tag_29:\n        /* \"#utility.yul\":308:314   */\n      dup2\n        /* \"#utility.yul\":305:306   */\n      dup2\n        /* \"#utility.yul\":302:315   */\n      lt\n        /* \"#utility.yul\":294:434   */\n      iszero\n      tag_31\n      jumpi\n        /* \"#utility.yul\":403:417   */\n      dup6\n      dup2\n      add\n        /* \"#utility.yul\":399:422   */\n      dup4\n      add\n        /* \"#utility.yul\":393:423   */\n      mload\n        /* \"#utility.yul\":369:386   */\n      dup6\n      dup3\n      add\n        /* \"#utility.yul\":388:390   */\n      0x40\n        /* \"#utility.yul\":365:391   */\n      add\n        /* \"#utility.yul\":358:424   */\n      mstore\n        /* \"#utility.yul\":323:333   */\n      dup3\n      add\n        /* \"#utility.yul\":294:434   */\n      jump(tag_29)\n    tag_31:\n        /* \"#utility.yul\":298:301   */\n      pop\n        /* \"#utility.yul\":483:484   */\n      0x00\n        /* \"#utility.yul\":478:480   */\n      0x40\n        /* \"#utility.yul\":469:475   */\n      dup3\n        /* \"#utility.yul\":458:467   */\n      dup7\n        /* \"#utility.yul\":454:476   */\n      add\n        /* \"#utility.yul\":450:481   */\n      add\n        /* \"#utility.yul\":443:485   */\n      mstore\n        /* \"#utility.yul\":553:555   */\n      0x40\n        /* \"#utility.yul\":546:548   */\n      0x1f\n        /* \"#utility.yul\":542:549   */\n      not\n        /* \"#utility.yul\":537:539   */\n      0x1f\n        /* \"#utility.yul\":529:535   */\n      dup4\n        /* \"#utility.yul\":525:540   */\n      add\n        /* \"#utility.yul\":521:550   */\n      and\n        /* \"#utility.yul\":510:519   */\n      dup6\n        /* \"#utility.yul\":506:551   */\n      add\n        /* \"#utility.yul\":502:556   */\n      add\n        /* \"#utility.yul\":494:556   */\n      swap3\n      pop\n      pop\n      pop\n        /* \"#utility.yul\":14:562   */\n      swap3\n      swap2\n      pop\n      pop\n      jump\t// out\n        /* \"#utility.yul\":567:751   */\n    tag_23:\n      shl(0xe0, 0x4e487b71)\n        /* \"#utility.yul\":616:617   */\n      0x00\n        /* \"#utility.yul\":609:697   */\n      mstore\n        /* \"#utility.yul\":716:720   */\n      0x41\n        /* \"#utility.yul\":713:714   */\n      0x04\n        /* \"#utility.yul\":706:721   */\n      mstore\n        /* \"#utility.yul\":740:744   */\n      0x24\n        /* \"#utility.yul\":737:738   */\n      0x00\n        /* \"#utility.yul\":730:745   */\n      revert\n        /* \"#utility.yul\":756:1678   */\n    tag_11:\n        /* \"#utility.yul\":825:831   */\n      0x00\n        /* \"#utility.yul\":878:880   */\n      0x20\n        /* \"#utility.yul\":866:875   */\n      dup3\n        /* \"#utility.yul\":857:864   */\n      dup5\n        /* \"#utility.yul\":853:876   */\n      sub\n        /* \"#utility.yul\":849:881   */\n      slt\n        /* \"#utility.yul\":846:898   */\n      iszero\n      tag_34\n      jumpi\n        /* \"#utility.yul\":894:895   */\n      0x00\n        /* \"#utility.yul\":891:892   */\n      dup1\n        /* \"#utility.yul\":884:896   */\n      revert\n        /* \"#utility.yul\":846:898   */\n    tag_34:\n        /* \"#utility.yul\":934:943   */\n      dup2\n        /* \"#utility.yul\":921:944   */\n      calldataload\n        /* \"#utility.yul\":963:981   */\n      0xffffffffffffffff\n        /* \"#utility.yul\":1004:1006   */\n      dup1\n        /* \"#utility.yul\":996:1002   */\n      dup3\n        /* \"#utility.yul\":993:1007   */\n      gt\n        /* \"#utility.yul\":990:1024   */\n      iszero\n      tag_35\n      jumpi\n        /* \"#utility.yul\":1020:1021   */\n      0x00\n        /* \"#utility.yul\":1017:1018   */\n      dup1\n        /* \"#utility.yul\":1010:1022   */\n      revert\n        /* \"#utility.yul\":990:1024   */\n    tag_35:\n        /* \"#utility.yul\":1058:1064   */\n      dup2\n        /* \"#utility.yul\":1047:1056   */\n      dup5\n        /* \"#utility.yul\":1043:1065   */\n      add\n        /* \"#utility.yul\":1033:1065   */\n      swap2\n      pop\n        /* \"#utility.yul\":1103:1110   */\n      dup5\n        /* \"#utility.yul\":1096:1100   */\n      0x1f\n        /* \"#utility.yul\":1092:1094   */\n      dup4\n        /* \"#utility.yul\":1088:1101   */\n      add\n        /* \"#utility.yul\":1084:1111   */\n      slt\n        /* \"#utility.yul\":1074:1129   */\n      tag_36\n      jumpi\n        /* \"#utility.yul\":1125:1126   */\n      0x00\n        /* \"#utility.yul\":1122:1123   */\n      dup1\n        /* \"#utility.yul\":1115:1127   */\n      revert\n        /* \"#utility.yul\":1074:1129   */\n    tag_36:\n        /* \"#utility.yul\":1161:1163   */\n      dup2\n        /* \"#utility.yul\":1148:1164   */\n      calldataload\n        /* \"#utility.yul\":1183:1185   */\n      dup2\n        /* \"#utility.yul\":1179:1181   */\n      dup2\n        /* \"#utility.yul\":1176:1186   */\n      gt\n        /* \"#utility.yul\":1173:1209   */\n      iszero\n      tag_38\n      jumpi\n        /* \"#utility.yul\":1189:1207   */\n      tag_38\n      tag_23\n      jump\t// in\n    tag_38:\n        /* \"#utility.yul\":1264:1266   */\n      0x40\n        /* \"#utility.yul\":1258:1267   */\n      mload\n        /* \"#utility.yul\":1232:1234   */\n      0x1f\n        /* \"#utility.yul\":1318:1331   */\n      dup3\n      add\n      not(0x1f)\n        /* \"#utility.yul\":1314:1336   */\n      swap1\n      dup2\n      and\n        /* \"#utility.yul\":1338:1340   */\n      0x3f\n        /* \"#utility.yul\":1310:1341   */\n      add\n        /* \"#utility.yul\":1306:1346   */\n      and\n        /* \"#utility.yul\":1294:1347   */\n      dup2\n      add\n      swap1\n        /* \"#utility.yul\":1362:1380   */\n      dup4\n      dup3\n      gt\n        /* \"#utility.yul\":1382:1404   */\n      dup2\n      dup4\n      lt\n        /* \"#utility.yul\":1359:1405   */\n      or\n        /* \"#utility.yul\":1356:1428   */\n      iszero\n      tag_40\n      jumpi\n        /* \"#utility.yul\":1408:1426   */\n      tag_40\n      tag_23\n      jump\t// in\n    tag_40:\n        /* \"#utility.yul\":1448:1458   */\n      dup2\n        /* \"#utility.yul\":1444:1446   */\n      0x40\n        /* \"#utility.yul\":1437:1459   */\n      mstore\n        /* \"#utility.yul\":1483:1485   */\n      dup3\n        /* \"#utility.yul\":1475:1481   */\n      dup2\n        /* \"#utility.yul\":1468:1486   */\n      mstore\n        /* \"#utility.yul\":1523:1530   */\n      dup8\n        /* \"#utility.yul\":1518:1520   */\n      0x20\n        /* \"#utility.yul\":1513:1515   */\n      dup5\n        /* \"#utility.yul\":1509:1511   */\n      dup8\n        /* \"#utility.yul\":1505:1516   */\n      add\n        /* \"#utility.yul\":1501:1521   */\n      add\n        /* \"#utility.yul\":1498:1531   */\n      gt\n        /* \"#utility.yul\":1495:1548   */\n      iszero\n      tag_41\n      jumpi\n        /* \"#utility.yul\":1544:1545   */\n      0x00\n        /* \"#utility.yul\":1541:1542   */\n      dup1\n        /* \"#utility.yul\":1534:1546   */\n      revert\n        /* \"#utility.yul\":1495:1548   */\n    tag_41:\n        /* \"#utility.yul\":1600:1602   */\n      dup3\n        /* \"#utility.yul\":1595:1597   */\n      0x20\n        /* \"#utility.yul\":1591:1593   */\n      dup7\n        /* \"#utility.yul\":1587:1598   */\n      add\n        /* \"#utility.yul\":1582:1584   */\n      0x20\n        /* \"#utility.yul\":1574:1580   */\n      dup4\n        /* \"#utility.yul\":1570:1585   */\n      add\n        /* \"#utility.yul\":1557:1603   */\n      calldatacopy\n        /* \"#utility.yul\":1645:1646   */\n      0x00\n        /* \"#utility.yul\":1623:1638   */\n      swap3\n      dup2\n      add\n        /* \"#utility.yul\":1640:1642   */\n      0x20\n        /* \"#utility.yul\":1619:1643   */\n      add\n        /* \"#utility.yul\":1612:1647   */\n      swap3\n      swap1\n      swap3\n      mstore\n      pop\n        /* \"#utility.yul\":1627:1633   */\n      swap6\n        /* \"#utility.yul\":756:1678   */\n      swap5\n      pop\n      pop\n      pop\n      pop\n      pop\n      jump\t// out\n        /* \"#utility.yul\":1683:2120   */\n    tag_15:\n        /* \"#utility.yul\":1762:1763   */\n      0x01\n        /* \"#utility.yul\":1758:1770   */\n      dup2\n      dup2\n      shr\n      swap1\n        /* \"#utility.yul\":1805:1817   */\n      dup3\n      and\n      dup1\n        /* \"#utility.yul\":1826:1887   */\n      tag_43\n      jumpi\n        /* \"#utility.yul\":1880:1884   */\n      0x7f\n        /* \"#utility.yul\":1872:1878   */\n      dup3\n        /* \"#utility.yul\":1868:1885   */\n      and\n        /* \"#utility.yul\":1858:1885   */\n      swap2\n      pop\n        /* \"#utility.yul\":1826:1887   */\n    tag_43:\n        /* \"#utility.yul\":1933:1935   */\n      0x20\n        /* \"#utility.yul\":1925:1931   */\n      dup3\n        /* \"#utility.yul\":1922:1936   */\n      lt\n        /* \"#utility.yul\":1902:1920   */\n      dup2\n        /* \"#utility.yul\":1899:1937   */\n      sub\n        /* \"#utility.yul\":1896:2114   */\n      tag_44\n      jumpi\n      shl(0xe0, 0x4e487b71)\n        /* \"#utility.yul\":1967:1968   */\n      0x00\n        /* \"#utility.yul\":1960:2048   */\n      mstore\n        /* \"#utility.yul\":2071:2075   */\n      0x22\n        /* \"#utility.yul\":2068:2069   */\n      0x04\n        /* \"#utility.yul\":2061:2076   */\n      mstore\n        /* \"#utility.yul\":2099:2103   */\n      0x24\n        /* \"#utility.yul\":2096:2097   */\n      0x00\n        /* \"#utility.yul\":2089:2104   */\n      revert\n        /* \"#utility.yul\":1896:2114   */\n    tag_44:\n      pop\n        /* \"#utility.yul\":1683:2120   */\n      swap2\n      swap1\n      pop\n      jump\t// out\n        /* \"#utility.yul\":2251:2769   */\n    tag_25:\n        /* \"#utility.yul\":2353:2355   */\n      0x1f\n        /* \"#utility.yul\":2348:2351   */\n      dup3\n        /* \"#utility.yul\":2345:2356   */\n      gt\n        /* \"#utility.yul\":2342:2763   */\n      iszero\n      tag_47\n      jumpi\n        /* \"#utility.yul\":2389:2394   */\n      dup1\n        /* \"#utility.yul\":2386:2387   */\n      0x00\n        /* \"#utility.yul\":2379:2395   */\n      mstore\n        /* \"#utility.yul\":2433:2437   */\n      0x20\n        /* \"#utility.yul\":2430:2431   */\n      0x00\n        /* \"#utility.yul\":2420:2438   */\n      keccak256\n        /* \"#utility.yul\":2503:2505   */\n      0x1f\n        /* \"#utility.yul\":2491:2501   */\n      dup5\n        /* \"#utility.yul\":2487:2506   */\n      add\n        /* \"#utility.yul\":2484:2485   */\n      0x05\n        /* \"#utility.yul\":2480:2507   */\n      shr\n        /* \"#utility.yul\":2474:2478   */\n      dup2\n        /* \"#utility.yul\":2470:2508   */\n      add\n        /* \"#utility.yul\":2539:2543   */\n      0x20\n        /* \"#utility.yul\":2527:2537   */\n      dup6\n        /* \"#utility.yul\":2524:2544   */\n      lt\n        /* \"#utility.yul\":2521:2568   */\n      iszero\n      tag_48\n      jumpi\n      pop\n        /* \"#utility.yul\":2562:2566   */\n      dup1\n        /* \"#utility.yul\":2521:2568   */\n    tag_48:\n        /* \"#utility.yul\":2617:2619   */\n      0x1f\n        /* \"#utility.yul\":2612:2615   */\n      dup5\n        /* \"#utility.yul\":2608:2620   */\n      add\n        /* \"#utility.yul\":2605:2606   */\n      0x05\n        /* \"#utility.yul\":2601:2621   */\n      shr\n        /* \"#utility.yul\":2595:2599   */\n      dup3\n        /* \"#utility.yul\":2591:2622   */\n      add\n        /* \"#utility.yul\":2581:2622   */\n      swap2\n      pop\n        /* \"#utility.yul\":2672:2753   */\n    tag_49:\n        /* \"#utility.yul\":2690:2692   */\n      dup2\n        /* \"#utility.yul\":2683:2688   */\n      dup2\n        /* \"#utility.yul\":2680:2693   */\n      lt\n        /* \"#utility.yul\":2672:2753   */\n      iszero\n      tag_51\n      jumpi\n        /* \"#utility.yul\":2749:2750   */\n      0x00\n        /* \"#utility.yul\":2735:2751   */\n      dup2\n      sstore\n        /* \"#utility.yul\":2716:2717   */\n      0x01\n        /* \"#utility.yul\":2705:2718   */\n      add\n        /* \"#utility.yul\":2672:2753   */\n      jump(tag_49)\n    tag_51:\n        /* \"#utility.yul\":2676:2679   */\n      pop\n      pop\n        /* \"#utility.yul\":2342:2763   */\n    tag_47:\n        /* \"#utility.yul\":2251:2769   */\n      pop\n      pop\n      pop\n      jump\t// out\n        /* \"#utility.yul\":2945:4290   */\n    tag_22:\n        /* \"#utility.yul\":3071:3074   */\n      dup2\n        /* \"#utility.yul\":3065:3075   */\n      mload\n        /* \"#utility.yul\":3098:3116   */\n      0xffffffffffffffff\n        /* \"#utility.yul\":3090:3096   */\n      dup2\n        /* \"#utility.yul\":3087:3117   */\n      gt\n        /* \"#utility.yul\":3084:3140   */\n      iszero\n      tag_55\n      jumpi\n        /* \"#utility.yul\":3120:3138   */\n      tag_55\n      tag_23\n      jump\t// in\n    tag_55:\n        /* \"#utility.yul\":3149:3246   */\n      tag_56\n        /* \"#utility.yul\":3239:3245   */\n      dup2\n        /* \"#utility.yul\":3199:3237   */\n      tag_57\n        /* \"#utility.yul\":3231:3235   */\n      dup5\n        /* \"#utility.yul\":3225:3236   */\n      sload\n        /* \"#utility.yul\":3199:3237   */\n      tag_15\n      jump\t// in\n    tag_57:\n        /* \"#utility.yul\":3193:3197   */\n      dup5\n        /* \"#utility.yul\":3149:3246   */\n      tag_25\n      jump\t// in\n    tag_56:\n        /* \"#utility.yul\":3301:3305   */\n      0x20\n      dup1\n        /* \"#utility.yul\":3358:3360   */\n      0x1f\n        /* \"#utility.yul\":3347:3361   */\n      dup4\n      gt\n        /* \"#utility.yul\":3375:3376   */\n      0x01\n        /* \"#utility.yul\":3370:4033   */\n      dup2\n      eq\n      tag_59\n      jumpi\n        /* \"#utility.yul\":4077:4078   */\n      0x00\n        /* \"#utility.yul\":4094:4100   */\n      dup5\n        /* \"#utility.yul\":4091:4180   */\n      iszero\n      tag_60\n      jumpi\n      pop\n        /* \"#utility.yul\":4146:4165   */\n      dup6\n      dup4\n      add\n        /* \"#utility.yul\":4140:4166   */\n      mload\n        /* \"#utility.yul\":4091:4180   */\n    tag_60:\n      not(0x00)\n        /* \"#utility.yul\":2902:2903   */\n      0x03\n        /* \"#utility.yul\":2898:2909   */\n      dup7\n      swap1\n      shl\n        /* \"#utility.yul\":2894:2918   */\n      shr\n        /* \"#utility.yul\":2890:2919   */\n      not\n        /* \"#utility.yul\":2880:2920   */\n      and\n        /* \"#utility.yul\":2926:2927   */\n      0x01\n        /* \"#utility.yul\":2922:2933   */\n      dup6\n      swap1\n      shl\n        /* \"#utility.yul\":2877:2934   */\n      or\n        /* \"#utility.yul\":4193:4274   */\n      dup6\n      sstore\n        /* \"#utility.yul\":3340:4284   */\n      jump(tag_58)\n        /* \"#utility.yul\":3370:4033   */\n    tag_59:\n        /* \"#utility.yul\":2198:2199   */\n      0x00\n        /* \"#utility.yul\":2191:2205   */\n      dup6\n      dup2\n      mstore\n        /* \"#utility.yul\":2235:2239   */\n      0x20\n        /* \"#utility.yul\":2222:2240   */\n      dup2\n      keccak256\n      not(0x1f)\n        /* \"#utility.yul\":3406:3426   */\n      dup7\n      and\n      swap2\n        /* \"#utility.yul\":3524:3760   */\n    tag_63:\n        /* \"#utility.yul\":3538:3545   */\n      dup3\n        /* \"#utility.yul\":3535:3536   */\n      dup2\n        /* \"#utility.yul\":3532:3546   */\n      lt\n        /* \"#utility.yul\":3524:3760   */\n      iszero\n      tag_65\n      jumpi\n        /* \"#utility.yul\":3627:3646   */\n      dup9\n      dup7\n      add\n        /* \"#utility.yul\":3621:3647   */\n      mload\n        /* \"#utility.yul\":3606:3648   */\n      dup3\n      sstore\n        /* \"#utility.yul\":3719:3746   */\n      swap5\n      dup5\n      add\n      swap5\n        /* \"#utility.yul\":3687:3688   */\n      0x01\n        /* \"#utility.yul\":3675:3689   */\n      swap1\n      swap2\n      add\n      swap1\n        /* \"#utility.yul\":3554:3573   */\n      dup5\n      add\n        /* \"#utility.yul\":3524:3760   */\n      jump(tag_63)\n    tag_65:\n        /* \"#utility.yul\":3528:3531   */\n      pop\n        /* \"#utility.yul\":3788:3794   */\n      dup6\n        /* \"#utility.yul\":3779:3786   */\n      dup3\n        /* \"#utility.yul\":3776:3795   */\n      lt\n        /* \"#utility.yul\":3773:3974   */\n      iszero\n      tag_66\n      jumpi\n        /* \"#utility.yul\":3849:3868   */\n      dup8\n      dup6\n      add\n        /* \"#utility.yul\":3843:3869   */\n      mload\n      not(0x00)\n        /* \"#utility.yul\":3932:3933   */\n      0x03\n        /* \"#utility.yul\":3928:3942   */\n      dup9\n      swap1\n      shl\n        /* \"#utility.yul\":3944:3947   */\n      0xf8\n        /* \"#utility.yul\":3924:3948   */\n      and\n        /* \"#utility.yul\":3920:3957   */\n      shr\n        /* \"#utility.yul\":3916:3958   */\n      not\n        /* \"#utility.yul\":3901:3959   */\n      and\n        /* \"#utility.yul\":3886:3960   */\n      dup2\n      sstore\n        /* \"#utility.yul\":3773:3974   */\n    tag_66:\n      pop\n      pop\n        /* \"#utility.yul\":4020:4021   */\n      0x01\n        /* \"#utility.yul\":4011:4017   */\n      dup5\n        /* \"#utility.yul\":4008:4009   */\n      0x01\n        /* \"#utility.yul\":4004:4018   */\n      shl\n        /* \"#utility.yul\":4000:4022   */\n      add\n        /* \"#utility.yul\":3994:3998   */\n      dup6\n        /* \"#utility.yul\":3987:4023   */\n      sstore\n        /* \"#utility.yul\":3340:4284   */\n    tag_58:\n      pop\n      pop\n      pop\n      pop\n        /* \"#utility.yul\":2945:4290   */\n      pop\n      pop\n      jump\t// out\n\n    auxdata: 0xa2646970667358221220f3b372e0418e3ead85ce7f7663046f079169e866c733ba314e5f3f2a56c42bce64736f6c63430008160033\n}\n",
				"bytecode": {
					"linkReferences": {},
					"object": "608060405234801561000f575f80fd5b5061038e8061001d5f395ff3fe608060405234801561000f575f80fd5b5060043610610034575f3560e01c806398d5fdca1461003857806399f486bc14610056575b5f80fd5b61004061006b565b60405161004d9190610109565b60405180910390f35b610069610064366004610169565b6100fa565b005b60605f805461007990610214565b80601f01602080910402602001604051908101604052809291908181526020018280546100a590610214565b80156100f05780601f106100c7576101008083540402835291602001916100f0565b820191905f5260205f20905b8154815290600101906020018083116100d357829003601f168201915b5050505050905090565b5f6101058282610298565b5050565b5f602080835283518060208501525f5b8181101561013557858101830151858201604001528201610119565b505f604082860101526040601f19601f8301168501019250505092915050565b634e487b7160e01b5f52604160045260245ffd5b5f60208284031215610179575f80fd5b813567ffffffffffffffff80821115610190575f80fd5b818401915084601f8301126101a3575f80fd5b8135818111156101b5576101b5610155565b604051601f8201601f19908116603f011681019083821181831017156101dd576101dd610155565b816040528281528760208487010111156101f5575f80fd5b826020860160208301375f928101602001929092525095945050505050565b600181811c9082168061022857607f821691505b60208210810361024657634e487b7160e01b5f52602260045260245ffd5b50919050565b601f82111561029357805f5260205f20601f840160051c810160208510156102715750805b601f840160051c820191505b81811015610290575f815560010161027d565b50505b505050565b815167ffffffffffffffff8111156102b2576102b2610155565b6102c6816102c08454610214565b8461024c565b602080601f8311600181146102f9575f84156102e25750858301515b5f19600386901b1c1916600185901b178555610350565b5f85815260208120601f198616915b8281101561032757888601518255948401946001909101908401610308565b508582101561034457878501515f19600388901b60f8161c191681555b505060018460011b0185555b50505050505056fea2646970667358221220f3b372e0418e3ead85ce7f7663046f079169e866c733ba314e5f3f2a56c42bce64736f6c63430008160033",
					"opcodes": "PUSH1 0x80 PUSH1 0x40 MSTORE CALLVALUE DUP1 ISZERO PUSH2 0xF JUMPI PUSH0 DUP1 REVERT JUMPDEST POP PUSH2 0x38E DUP1 PUSH2 0x1D PUSH0 CODECOPY PUSH0 RETURN INVALID PUSH1 0x80 PUSH1 0x40 MSTORE CALLVALUE DUP1 ISZERO PUSH2 0xF JUMPI PUSH0 DUP1 REVERT JUMPDEST POP PUSH1 0x4 CALLDATASIZE LT PUSH2 0x34 JUMPI PUSH0 CALLDATALOAD PUSH1 0xE0 SHR DUP1 PUSH4 0x98D5FDCA EQ PUSH2 0x38 JUMPI DUP1 PUSH4 0x99F486BC EQ PUSH2 0x56 JUMPI JUMPDEST PUSH0 DUP1 REVERT JUMPDEST PUSH2 0x40 PUSH2 0x6B JUMP JUMPDEST PUSH1 0x40 MLOAD PUSH2 0x4D SWAP2 SWAP1 PUSH2 0x109 JUMP JUMPDEST PUSH1 0x40 MLOAD DUP1 SWAP2 SUB SWAP1 RETURN JUMPDEST PUSH2 0x69 PUSH2 0x64 CALLDATASIZE PUSH1 0x4 PUSH2 0x169 JUMP JUMPDEST PUSH2 0xFA JUMP JUMPDEST STOP JUMPDEST PUSH1 0x60 PUSH0 DUP1 SLOAD PUSH2 0x79 SWAP1 PUSH2 0x214 JUMP JUMPDEST DUP1 PUSH1 0x1F ADD PUSH1 0x20 DUP1 SWAP2 DIV MUL PUSH1 0x20 ADD PUSH1 0x40 MLOAD SWAP1 DUP2 ADD PUSH1 0x40 MSTORE DUP1 SWAP3 SWAP2 SWAP1 DUP2 DUP2 MSTORE PUSH1 0x20 ADD DUP3 DUP1 SLOAD PUSH2 0xA5 SWAP1 PUSH2 0x214 JUMP JUMPDEST DUP1 ISZERO PUSH2 0xF0 JUMPI DUP1 PUSH1 0x1F LT PUSH2 0xC7 JUMPI PUSH2 0x100 DUP1 DUP4 SLOAD DIV MUL DUP4 MSTORE SWAP2 PUSH1 0x20 ADD SWAP2 PUSH2 0xF0 JUMP JUMPDEST DUP3 ADD SWAP2 SWAP1 PUSH0 MSTORE PUSH1 0x20 PUSH0 KECCAK256 SWAP1 JUMPDEST DUP2 SLOAD DUP2 MSTORE SWAP1 PUSH1 0x1 ADD SWAP1 PUSH1 0x20 ADD DUP1 DUP4 GT PUSH2 0xD3 JUMPI DUP3 SWAP1 SUB PUSH1 0x1F AND DUP3 ADD SWAP2 JUMPDEST POP POP POP POP POP SWAP1 POP SWAP1 JUMP JUMPDEST PUSH0 PUSH2 0x105 DUP3 DUP3 PUSH2 0x298 JUMP JUMPDEST POP POP JUMP JUMPDEST PUSH0 PUSH1 0x20 DUP1 DUP4 MSTORE DUP4 MLOAD DUP1 PUSH1 0x20 DUP6 ADD MSTORE PUSH0 JUMPDEST DUP2 DUP2 LT ISZERO PUSH2 0x135 JUMPI DUP6 DUP2 ADD DUP4 ADD MLOAD DUP6 DUP3 ADD PUSH1 0x40 ADD MSTORE DUP3 ADD PUSH2 0x119 JUMP JUMPDEST POP PUSH0 PUSH1 0x40 DUP3 DUP7 ADD ADD MSTORE PUSH1 0x40 PUSH1 0x1F NOT PUSH1 0x1F DUP4 ADD AND DUP6 ADD ADD SWAP3 POP POP POP SWAP3 SWAP2 POP POP JUMP JUMPDEST PUSH4 0x4E487B71 PUSH1 0xE0 SHL PUSH0 MSTORE PUSH1 0x41 PUSH1 0x4 MSTORE PUSH1 0x24 PUSH0 REVERT JUMPDEST PUSH0 PUSH1 0x20 DUP3 DUP5 SUB SLT ISZERO PUSH2 0x179 JUMPI PUSH0 DUP1 REVERT JUMPDEST DUP2 CALLDATALOAD PUSH8 0xFFFFFFFFFFFFFFFF DUP1 DUP3 GT ISZERO PUSH2 0x190 JUMPI PUSH0 DUP1 REVERT JUMPDEST DUP2 DUP5 ADD SWAP2 POP DUP5 PUSH1 0x1F DUP4 ADD SLT PUSH2 0x1A3 JUMPI PUSH0 DUP1 REVERT JUMPDEST DUP2 CALLDATALOAD DUP2 DUP2 GT ISZERO PUSH2 0x1B5 JUMPI PUSH2 0x1B5 PUSH2 0x155 JUMP JUMPDEST PUSH1 0x40 MLOAD PUSH1 0x1F DUP3 ADD PUSH1 0x1F NOT SWAP1 DUP2 AND PUSH1 0x3F ADD AND DUP2 ADD SWAP1 DUP4 DUP3 GT DUP2 DUP4 LT OR ISZERO PUSH2 0x1DD JUMPI PUSH2 0x1DD PUSH2 0x155 JUMP JUMPDEST DUP2 PUSH1 0x40 MSTORE DUP3 DUP2 MSTORE DUP8 PUSH1 0x20 DUP5 DUP8 ADD ADD GT ISZERO PUSH2 0x1F5 JUMPI PUSH0 DUP1 REVERT JUMPDEST DUP3 PUSH1 0x20 DUP7 ADD PUSH1 0x20 DUP4 ADD CALLDATACOPY PUSH0 SWAP3 DUP2 ADD PUSH1 0x20 ADD SWAP3 SWAP1 SWAP3 MSTORE POP SWAP6 SWAP5 POP POP POP POP POP JUMP JUMPDEST PUSH1 0x1 DUP2 DUP2 SHR SWAP1 DUP3 AND DUP1 PUSH2 0x228 JUMPI PUSH1 0x7F DUP3 AND SWAP2 POP JUMPDEST PUSH1 0x20 DUP3 LT DUP2 SUB PUSH2 0x246 JUMPI PUSH4 0x4E487B71 PUSH1 0xE0 SHL PUSH0 MSTORE PUSH1 0x22 PUSH1 0x4 MSTORE PUSH1 0x24 PUSH0 REVERT JUMPDEST POP SWAP2 SWAP1 POP JUMP JUMPDEST PUSH1 0x1F DUP3 GT ISZERO PUSH2 0x293 JUMPI DUP1 PUSH0 MSTORE PUSH1 0x20 PUSH0 KECCAK256 PUSH1 0x1F DUP5 ADD PUSH1 0x5 SHR DUP2 ADD PUSH1 0x20 DUP6 LT ISZERO PUSH2 0x271 JUMPI POP DUP1 JUMPDEST PUSH1 0x1F DUP5 ADD PUSH1 0x5 SHR DUP3 ADD SWAP2 POP JUMPDEST DUP2 DUP2 LT ISZERO PUSH2 0x290 JUMPI PUSH0 DUP2 SSTORE PUSH1 0x1 ADD PUSH2 0x27D JUMP JUMPDEST POP POP JUMPDEST POP POP POP JUMP JUMPDEST DUP2 MLOAD PUSH8 0xFFFFFFFFFFFFFFFF DUP2 GT ISZERO PUSH2 0x2B2 JUMPI PUSH2 0x2B2 PUSH2 0x155 JUMP JUMPDEST PUSH2 0x2C6 DUP2 PUSH2 0x2C0 DUP5 SLOAD PUSH2 0x214 JUMP JUMPDEST DUP5 PUSH2 0x24C JUMP JUMPDEST PUSH1 0x20 DUP1 PUSH1 0x1F DUP4 GT PUSH1 0x1 DUP2 EQ PUSH2 0x2F9 JUMPI PUSH0 DUP5 ISZERO PUSH2 0x2E2 JUMPI POP DUP6 DUP4 ADD MLOAD JUMPDEST PUSH0 NOT PUSH1 0x3 DUP7 SWAP1 SHL SHR NOT AND PUSH1 0x1 DUP6 SWAP1 SHL OR DUP6 SSTORE PUSH2 0x350 JUMP JUMPDEST PUSH0 DUP6 DUP2 MSTORE PUSH1 0x20 DUP2 KECCAK256 PUSH1 0x1F NOT DUP7 AND SWAP2 JUMPDEST DUP3 DUP2 LT ISZERO PUSH2 0x327 JUMPI DUP9 DUP7 ADD MLOAD DUP3 SSTORE SWAP5 DUP5 ADD SWAP5 PUSH1 0x1 SWAP1 SWAP2 ADD SWAP1 DUP5 ADD PUSH2 0x308 JUMP JUMPDEST POP DUP6 DUP3 LT ISZERO PUSH2 0x344 JUMPI DUP8 DUP6 ADD MLOAD PUSH0 NOT PUSH1 0x3 DUP9 SWAP1 SHL PUSH1 0xF8 AND SHR NOT AND DUP2 SSTORE JUMPDEST POP POP PUSH1 0x1 DUP5 PUSH1 0x1 SHL ADD DUP6 SSTORE JUMPDEST POP POP POP POP POP POP JUMP INVALID LOG2 PUSH5 0x6970667358 0x22 SLT KECCAK256 RETURN 0xB3 PUSH19 0xE0418E3EAD85CE7F7663046F079169E866C733 0xBA BALANCE 0x4E PUSH0 EXTCODEHASH 0x2A JUMP 0xC4 0x2B 0xCE PUSH5 0x736F6C6343 STOP ADDMOD AND STOP CALLER "
				},
				"gasEstimates": {
					"creation": {
						"codeDepositCost": "182000",
						"executionCost": "224",
						"totalCost": "182224"
					},
					"external": {
						"getPrice()": "infinite",
						"setPrice(string)": "infinite"
					}
				},
				"methodIdentifiers": {
					"getPrice()": "98d5fdca",
					"setPrice(string)": "99f486bc"
				}
			},
			"storageLayout": {
				"storage": [
					{
						"astId": 15,
						"contract": "contracts/mockups/MockOracle.sol:MockOracle",
						"label": "_price",
						"offset": 0,
						"slot": "0",
						"type": "t_string_storage"
					}
				],
				"types": {
					"t_string_storage": {
						"encoding": "bytes",
						"label": "string",
						"numberOfBytes": "32"
					}
				}
			},
			"userdoc": {
				"kind": "user",
				"methods": {
					"getPrice()": {
						"notice": "Get the current price"
					}
				},
				"version": 1
			}
		}
	}
}