{
  "_format": "hh-sol-artifact-1",
  "contractName": "DexhuneERC20",
  "sourceName": "contracts/DexhuneERC20.sol",
  "abi": [
    {
      "inputs": [],
      "name": "DuplicateTransferAddress",
      "type": "error"
    },
    {
      "inputs": [],
      "name": "ExchangeAddressNotSet",
      "type": "error"
    },
    {
      "inputs": [],
      "name": "InsufficientBalance",
      "type": "error"
    },
    {
      "inputs": [
        {
          "internalType": "address",
          "name": "addr",
          "type": "address"
        },
        {
          "internalType": "int128",
          "name": "balance",
          "type": "int128"
        }
      ],
      "name": "InvalidBalance",
      "type": "error"
    },
    {
      "inputs": [],
      "name": "InvalidTransferAddress",
      "type": "error"
    },
    {
      "inputs": [],
      "name": "MintLimitReached",
      "type": "error"
    },
    {
      "inputs": [
        {
          "internalType": "uint256",
          "name": "timeRemaining",
          "type": "uint256"
        }
      ],
      "name": "MintedTooEarly",
      "type": "error"
    },
    {
      "inputs": [
        {
          "internalType": "uint256",
          "name": "allowance",
          "type": "uint256"
        },
        {
          "internalType": "uint256",
          "name": "expectedAllowance",
          "type": "uint256"
        }
      ],
      "name": "NotEnoughAllowance",
      "type": "error"
    },
    {
      "inputs": [],
      "name": "PriceDaoAddressNotSet",
      "type": "error"
    },
    {
      "inputs": [
        {
          "internalType": "address",
          "name": "account",
          "type": "address"
        }
      ],
      "name": "UnauthorizedAccount",
      "type": "error"
    },
    {
      "anonymous": false,
      "inputs": [
        {
          "indexed": true,
          "internalType": "address",
          "name": "owner",
          "type": "address"
        },
        {
          "indexed": true,
          "internalType": "address",
          "name": "spender",
          "type": "address"
        },
        {
          "indexed": false,
          "internalType": "uint256",
          "name": "value",
          "type": "uint256"
        }
      ],
      "name": "Approval",
      "type": "event"
    },
    {
      "anonymous": false,
      "inputs": [
        {
          "indexed": true,
          "internalType": "address",
          "name": "from",
          "type": "address"
        },
        {
          "indexed": true,
          "internalType": "address",
          "name": "to",
          "type": "address"
        },
        {
          "indexed": false,
          "internalType": "uint256",
          "name": "value",
          "type": "uint256"
        }
      ],
      "name": "Transfer",
      "type": "event"
    },
    {
      "inputs": [
        {
          "internalType": "address",
          "name": "_owner",
          "type": "address"
        },
        {
          "internalType": "address",
          "name": "_spender",
          "type": "address"
        }
      ],
      "name": "allowance",
      "outputs": [
        {
          "internalType": "uint256",
          "name": "remaining",
          "type": "uint256"
        }
      ],
      "stateMutability": "view",
      "type": "function"
    },
    {
      "inputs": [
        {
          "internalType": "address",
          "name": "_spender",
          "type": "address"
        },
        {
          "internalType": "uint256",
          "name": "_amount",
          "type": "uint256"
        }
      ],
      "name": "approve",
      "outputs": [
        {
          "internalType": "bool",
          "name": "",
          "type": "bool"
        }
      ],
      "stateMutability": "nonpayable",
      "type": "function"
    },
    {
      "inputs": [
        {
          "internalType": "address",
          "name": "owner",
          "type": "address"
        }
      ],
      "name": "balanceOf",
      "outputs": [
        {
          "internalType": "uint256",
          "name": "balance",
          "type": "uint256"
        }
      ],
      "stateMutability": "view",
      "type": "function"
    },
    {
      "inputs": [],
      "name": "daoMintingStartsAfter",
      "outputs": [
        {
          "internalType": "uint256",
          "name": "",
          "type": "uint256"
        }
      ],
      "stateMutability": "view",
      "type": "function"
    },
    {
      "inputs": [],
      "name": "decimals",
      "outputs": [
        {
          "internalType": "uint8",
          "name": "",
          "type": "uint8"
        }
      ],
      "stateMutability": "pure",
      "type": "function"
    },
    {
      "inputs": [],
      "name": "exchangeMintingStartsAfter",
      "outputs": [
        {
          "internalType": "uint256",
          "name": "",
          "type": "uint256"
        }
      ],
      "stateMutability": "view",
      "type": "function"
    },
    {
      "inputs": [],
      "name": "getOwner",
      "outputs": [
        {
          "internalType": "address",
          "name": "",
          "type": "address"
        }
      ],
      "stateMutability": "view",
      "type": "function"
    },
    {
      "inputs": [],
      "name": "mint",
      "outputs": [],
      "stateMutability": "nonpayable",
      "type": "function"
    },
    {
      "inputs": [],
      "name": "mintToDao",
      "outputs": [],
      "stateMutability": "nonpayable",
      "type": "function"
    },
    {
      "inputs": [],
      "name": "mintToExchange",
      "outputs": [],
      "stateMutability": "nonpayable",
      "type": "function"
    },
    {
      "inputs": [],
      "name": "mintingStartsAfter",
      "outputs": [
        {
          "internalType": "uint256",
          "name": "",
          "type": "uint256"
        }
      ],
      "stateMutability": "view",
      "type": "function"
    },
    {
      "inputs": [],
      "name": "name",
      "outputs": [
        {
          "internalType": "string",
          "name": "",
          "type": "string"
        }
      ],
      "stateMutability": "pure",
      "type": "function"
    },
    {
      "inputs": [
        {
          "internalType": "address",
          "name": "addr",
          "type": "address"
        }
      ],
      "name": "setDaoAddress",
      "outputs": [],
      "stateMutability": "nonpayable",
      "type": "function"
    },
    {
      "inputs": [
        {
          "internalType": "address",
          "name": "addr",
          "type": "address"
        }
      ],
      "name": "setExchangeAddress",
      "outputs": [],
      "stateMutability": "nonpayable",
      "type": "function"
    },
    {
      "inputs": [],
      "name": "symbol",
      "outputs": [
        {
          "internalType": "string",
          "name": "",
          "type": "string"
        }
      ],
      "stateMutability": "pure",
      "type": "function"
    },
    {
      "inputs": [],
      "name": "totalSupply",
      "outputs": [
        {
          "internalType": "uint256",
          "name": "",
          "type": "uint256"
        }
      ],
      "stateMutability": "view",
      "type": "function"
    },
    {
      "inputs": [
        {
          "internalType": "address",
          "name": "_to",
          "type": "address"
        },
        {
          "internalType": "uint256",
          "name": "_value",
          "type": "uint256"
        }
      ],
      "name": "transfer",
      "outputs": [
        {
          "internalType": "bool",
          "name": "",
          "type": "bool"
        }
      ],
      "stateMutability": "nonpayable",
      "type": "function"
    },
    {
      "inputs": [
        {
          "internalType": "address",
          "name": "from",
          "type": "address"
        },
        {
          "internalType": "address",
          "name": "to",
          "type": "address"
        },
        {
          "internalType": "uint256",
          "name": "value",
          "type": "uint256"
        }
      ],
      "name": "transferFrom",
      "outputs": [
        {
          "internalType": "bool",
          "name": "",
          "type": "bool"
        }
      ],
      "stateMutability": "nonpayable",
      "type": "function"
    }
  ],
  "bytecode": "0x6080604052600180546001600160a01b0319908116909155600280549091169055600680546001600160901b03191690556000600781905560088190556009553480156200004c57600080fd5b50600080546001600160a01b03191633908117909155600680546001600160801b031916629896801790819055620000889190600f0b6200008e565b6200021e565b6001600160a01b038216600090815260056020526040812054600f0b90819003620000ff57600480546001810182556000919091527f8a35acfbc15ff81a39ae7d344fd709f28e8600b4aa8c65c6b64bfe7fe36bd19b0180546001600160a01b0319166001600160a01b0385161790555b6200010b828262000197565b6001600160a01b0384166000818152600560205260409081902080546001600160801b0319166001600160801b038516179055519192509030907fddf252ad1be2c89b69c2b068fc378daa952ba7f163c4a11628f55a4df523b3ef90620001749086906200020e565b60405180910390a3505050565b634e487b7160e01b600052601160045260246000fd5b6000620001a482600f0b90565b9150620001b183600f0b90565b92505080820160016001607f1b03811360016001607f1b031982121715620001dd57620001dd62000181565b92915050565b6000620001dd620001fa6001600160801b03841681565b90565b6200020881620001e3565b82525050565b60208101620001dd8284620001fd565b611042806200022e6000396000f3fe608060405234801561001057600080fd5b50600436106101165760003560e01c806370a08231116100a2578063a9059cbb11610071578063a9059cbb14610230578063d082ea8c14610243578063d20a02cf14610256578063dd62ed3e1461025e578063f8f4c3431461029757600080fd5b806370a08231146101d2578063893d20e8146101e557806395d89b41146101fe5780639a3cac6a1461021d57600080fd5b806318160ddd116100e957806318160ddd1461018f57806323b872dd146101a0578063313ce567146101b35780633808721d146101c25780636f01f40e146101ca57600080fd5b806306fdde031461011b578063095ea7b3146101505780631249c58b146101705780631275d2a91461017a575b600080fd5b60408051808201909152600781526644657868756e6560c81b60208201525b6040516101479190610c6f565b60405180910390f35b61016361015e366004610cc1565b61029f565b6040516101479190610d08565b61017861030a565b005b6101826104b2565b6040516101479190610d1c565b6006546001600160801b0316610182565b6101636101ae366004610d2a565b6104de565b60006040516101479190610d83565b610178610571565b6101786105dd565b6101826101e0366004610d91565b610645565b6000546001600160a01b03166040516101479190610dc3565b604080518082019091526003815262088b0960eb1b602082015261013a565b61017861022b366004610d91565b610650565b61016361023e366004610cc1565b61069d565b610178610251366004610d91565b6106b3565b6101826106fd565b61018261026c366004610dd1565b6001600160a01b039182166000908152600a6020908152604080832093909416825291909152205490565b610182610723565b336000818152600a602090815260408083206001600160a01b038716808552925280832085905551919290917f8c5be1e5ebec7d5bd14f71427d1e84f3dd0314c0f7b2291e5b200ac8c7c3b925906102f8908690610d1c565b60405180910390a35060015b92915050565b600654610e42600160801b90910460010b126103395760405163303b682f60e01b815260040160405180910390fd5b600754421015610373576007546103509042610e1a565b60405163f461f5dd60e01b815260040161036a9190610d1c565b60405180910390fd5b60068054600160801b900460010b90601061038d83610e2d565b825461ffff9182166101009390930a9283029190920219909116179055506103b86205460042610e53565b600755600654600f0b60006127106103d1600c84610e66565b6103db9190610ebb565b905060006103e882610749565b905060006103f68284610f05565b9050600081600f0b131561046d576001546001600160a01b0316156104305760015461042b906001600160a01b03168261086a565b61046d565b6002546001600160a01b0316156104575760025461042b906001600160a01b03168261086a565b60005461046d906001600160a01b03168261086a565b60068054849190600090610485908490600f0b610f46565b92506101000a8154816001600160801b030219169083600f0b6001600160801b0316021790555050505050565b6000804290508060095410156104ca57600091505090565b806009546104d89190610e1a565b91505090565b6001600160a01b0383166000908152600a602090815260408083203384529091528120548083111561052757828160405163460c66b360e01b815260040161036a929190610f87565b6105318382610e1a565b6001600160a01b0386166000908152600a6020908152604080832033845290915290208190559050610564858585610958565b60019150505b9392505050565b42600854111561058957426008546103509190610e1a565b6001546001600160a01b03166105b25760405163099fd12960e31b815260040160405180910390fd5b6105bf6201518042610e53565b6008556001546105db906001600160a01b0316620493e061086a565b565b6009544210156105f4576009546103509042610e1a565b6002546001600160a01b031661061d576040516337a7527b60e01b815260040160405180910390fd5b61062a6201518042610e53565b6009556002546105db906001600160a01b031661168061086a565b600061030482610a95565b610658610aaf565b600280546001600160a01b0319166001600160a01b0383811691909117909155600154161561069a5761069a600080546001600160a01b03191661dead179055565b50565b60006106aa338484610958565b50600192915050565b6106bb610aaf565b600180546001600160a01b0319166001600160a01b0383811691909117909155600254161561069a5761069a600080546001600160a01b03191661dead179055565b60008042905080600854101561071557600091505090565b806008546104d89190610e1a565b60008042905080600754101561073b57600091505090565b806007546104d89190610e1a565b600080808080805b600454811015610860576004818154811061076e5761076e610fa2565b60009182526020808320909101546001600160a01b03168083526005909152604090912054600654919650600f90810b95500b6107ab8886610e66565b6107b59190610ebb565b92506107c18385610f46565b93506107cd8383610f46565b6001600160a01b038616600090815260056020526040812080546001600160801b0319166001600160801b038816179055909250600f84900b131561085857846001600160a01b0316306001600160a01b03167fddf252ad1be2c89b69c2b068fc378daa952ba7f163c4a11628f55a4df523b3ef8560405161084f9190610fd9565b60405180910390a35b600101610751565b5095945050505050565b6001600160a01b038216600090815260056020526040812054600f0b908190036108da57600480546001810182556000919091527f8a35acfbc15ff81a39ae7d344fd709f28e8600b4aa8c65c6b64bfe7fe36bd19b0180546001600160a01b0319166001600160a01b0385161790555b6108e48282610f46565b6001600160a01b0384166000818152600560205260409081902080546001600160801b0319166001600160801b038516179055519192509030907fddf252ad1be2c89b69c2b068fc378daa952ba7f163c4a11628f55a4df523b3ef9061094b908690610fd9565b60405180910390a3505050565b600061096384610a95565b90508082111561098657604051631e9acf1760e31b815260040160405180910390fd5b826001600160a01b0316846001600160a01b0316036109b8576040516388e2993360e01b815260040160405180910390fd5b306001600160a01b038516036109e15760405163293adf9760e01b815260040160405180910390fd5b306001600160a01b03841603610a0a5760405163293adf9760e01b815260040160405180910390fd5b610a148282610e1a565b90506000610a2184610a95565b9050610a2d8382610e53565b9050610a398583610adc565b610a438482610adc565b836001600160a01b0316856001600160a01b03167fddf252ad1be2c89b69c2b068fc378daa952ba7f163c4a11628f55a4df523b3ef85604051610a869190610d1c565b60405180910390a35050505050565b6000610aa082610aea565b6001600160801b031692915050565b6000546001600160a01b031633146105db57336040516332b2baa360e01b815260040161036a9190610dc3565b610ae68282610b17565b5050565b6001600160a01b038116600090815260056020526040812054600f0b818112156103045750600092915050565b600081600f0b1215610b4057818160405163244da4cd60e11b815260040161036a929190610ff1565b80600f0b600003610b5057506000195b6001600160a01b038216600090815260056020526040902054600f0b80158015610b7e575081600f0b600019145b15610b8857505050565b80600f0b600003610bdf57600480546001810182556000919091527f8a35acfbc15ff81a39ae7d344fd709f28e8600b4aa8c65c6b64bfe7fe36bd19b0180546001600160a01b0319166001600160a01b0385161790555b506001600160a01b0391909116600090815260056020526040902080546001600160801b0319166001600160801b03909216919091179055565b60005b83811015610c34578181015183820152602001610c1c565b50506000910152565b6000610c47825190565b808452602084019350610c5e818560208601610c19565b601f01601f19169290920192915050565b6020808252810161056a8184610c3d565b60006001600160a01b038216610304565b610c9a81610c80565b811461069a57600080fd5b803561030481610c91565b80610c9a565b803561030481610cb0565b60008060408385031215610cd757610cd7600080fd5b6000610ce38585610ca5565b9250506020610cf485828601610cb6565b9150509250929050565b8015155b82525050565b602081016103048284610cfe565b80610d02565b602081016103048284610d16565b600080600060608486031215610d4257610d42600080fd5b6000610d4e8686610ca5565b9350506020610d5f86828701610ca5565b9250506040610d7086828701610cb6565b9150509250925092565b60ff8116610d02565b602081016103048284610d7a565b600060208284031215610da657610da6600080fd5b6000610db28484610ca5565b949350505050565b610d0281610c80565b602081016103048284610dba565b60008060408385031215610de757610de7600080fd5b6000610df38585610ca5565b9250506020610cf485828601610ca5565b634e487b7160e01b600052601160045260246000fd5b8181038181111561030457610304610e04565b6000610e398260010b90565b9150617fff8203610e4c57610e4c610e04565b5060010190565b8082018082111561030457610304610e04565b6000610e7282600f0b90565b9150610e7e83600f0b90565b9250828202610e8d81600f0b90565b9150808214610e9e57610e9e610e04565b5092915050565b634e487b7160e01b600052601260045260246000fd5b6000610ec782600f0b90565b9150610ed383600f0b90565b925082610ee257610ee2610ea5565b60016001607f1b0319821460001984141615610f0057610f00610e04565b500590565b6000610f1182600f0b90565b9150610f1d83600f0b90565b92505081810360016001607f1b0319811260016001607f1b038213171561030457610304610e04565b6000610f5282600f0b90565b9150610f5e83600f0b90565b92505080820160016001607f1b03811360016001607f1b03198212171561030457610304610e04565b60408101610f958285610d16565b61056a6020830184610d16565b634e487b7160e01b600052603260045260246000fd5b6000610304610fcd6001600160801b03841681565b90565b610d0281610fb8565b602081016103048284610fd0565b610d0281600f0b90565b60408101610fff8285610dba565b61056a6020830184610fe756fea26469706673582212202ccc8067cf750ac802685becd23912798a2acb4be2747030849f397831283eb164736f6c63430008160033",
  "linkReferences": {},
  "deployedLinkReferences": {}
}