{
  "_format": "hh-sol-artifact-1",
  "contractName": "DexhuneERC20",
  "sourceName": "contracts/DexhuneERC20.sol",
  "abi": [
    {
      "inputs": [],
      "name": "DuplicateTransferAddress",
      "type": "error"
    },
    {
      "inputs": [],
      "name": "ExchangeAddressNotSet",
      "type": "error"
    },
    {
      "inputs": [],
      "name": "InsufficientBalance",
      "type": "error"
    },
    {
      "inputs": [
        {
          "internalType": "address",
          "name": "addr",
          "type": "address"
        },
        {
          "internalType": "int128",
          "name": "balance",
          "type": "int128"
        }
      ],
      "name": "InvalidBalance",
      "type": "error"
    },
    {
      "inputs": [],
      "name": "InvalidTransferAddress",
      "type": "error"
    },
    {
      "inputs": [],
      "name": "MintLimitReached",
      "type": "error"
    },
    {
      "inputs": [
        {
          "internalType": "uint256",
          "name": "timeRemaining",
          "type": "uint256"
        }
      ],
      "name": "MintedTooEarly",
      "type": "error"
    },
    {
      "inputs": [
        {
          "internalType": "uint256",
          "name": "allowance",
          "type": "uint256"
        },
        {
          "internalType": "uint256",
          "name": "expectedAllowance",
          "type": "uint256"
        }
      ],
      "name": "NotEnoughAllowance",
      "type": "error"
    },
    {
      "inputs": [],
      "name": "PriceDaoAddressNotSet",
      "type": "error"
    },
    {
      "inputs": [
        {
          "internalType": "address",
          "name": "account",
          "type": "address"
        }
      ],
      "name": "UnauthorizedAccount",
      "type": "error"
    },
    {
      "anonymous": false,
      "inputs": [
        {
          "indexed": true,
          "internalType": "address",
          "name": "owner",
          "type": "address"
        },
        {
          "indexed": true,
          "internalType": "address",
          "name": "spender",
          "type": "address"
        },
        {
          "indexed": false,
          "internalType": "uint256",
          "name": "value",
          "type": "uint256"
        }
      ],
      "name": "Approval",
      "type": "event"
    },
    {
      "anonymous": false,
      "inputs": [
        {
          "indexed": true,
          "internalType": "address",
          "name": "from",
          "type": "address"
        },
        {
          "indexed": true,
          "internalType": "address",
          "name": "to",
          "type": "address"
        },
        {
          "indexed": false,
          "internalType": "uint256",
          "name": "value",
          "type": "uint256"
        }
      ],
      "name": "Transfer",
      "type": "event"
    },
    {
      "inputs": [
        {
          "internalType": "address",
          "name": "_owner",
          "type": "address"
        },
        {
          "internalType": "address",
          "name": "_spender",
          "type": "address"
        }
      ],
      "name": "allowance",
      "outputs": [
        {
          "internalType": "uint256",
          "name": "remaining",
          "type": "uint256"
        }
      ],
      "stateMutability": "view",
      "type": "function"
    },
    {
      "inputs": [
        {
          "internalType": "address",
          "name": "_spender",
          "type": "address"
        },
        {
          "internalType": "uint256",
          "name": "_amount",
          "type": "uint256"
        }
      ],
      "name": "approve",
      "outputs": [
        {
          "internalType": "bool",
          "name": "",
          "type": "bool"
        }
      ],
      "stateMutability": "nonpayable",
      "type": "function"
    },
    {
      "inputs": [
        {
          "internalType": "address",
          "name": "owner",
          "type": "address"
        }
      ],
      "name": "balanceOf",
      "outputs": [
        {
          "internalType": "uint256",
          "name": "balance",
          "type": "uint256"
        }
      ],
      "stateMutability": "view",
      "type": "function"
    },
    {
      "inputs": [],
      "name": "daoMintingStartsAfter",
      "outputs": [
        {
          "internalType": "uint256",
          "name": "",
          "type": "uint256"
        }
      ],
      "stateMutability": "view",
      "type": "function"
    },
    {
      "inputs": [],
      "name": "decimals",
      "outputs": [
        {
          "internalType": "uint8",
          "name": "",
          "type": "uint8"
        }
      ],
      "stateMutability": "pure",
      "type": "function"
    },
    {
      "inputs": [],
      "name": "exchangeMintingStartsAfter",
      "outputs": [
        {
          "internalType": "uint256",
          "name": "",
          "type": "uint256"
        }
      ],
      "stateMutability": "view",
      "type": "function"
    },
    {
      "inputs": [],
      "name": "getOwner",
      "outputs": [
        {
          "internalType": "address",
          "name": "",
          "type": "address"
        }
      ],
      "stateMutability": "view",
      "type": "function"
    },
    {
      "inputs": [],
      "name": "mint",
      "outputs": [],
      "stateMutability": "nonpayable",
      "type": "function"
    },
    {
      "inputs": [],
      "name": "mintToDao",
      "outputs": [],
      "stateMutability": "nonpayable",
      "type": "function"
    },
    {
      "inputs": [],
      "name": "mintToExchange",
      "outputs": [],
      "stateMutability": "nonpayable",
      "type": "function"
    },
    {
      "inputs": [],
      "name": "mintingStartsAfter",
      "outputs": [
        {
          "internalType": "uint256",
          "name": "",
          "type": "uint256"
        }
      ],
      "stateMutability": "view",
      "type": "function"
    },
    {
      "inputs": [],
      "name": "name",
      "outputs": [
        {
          "internalType": "string",
          "name": "",
          "type": "string"
        }
      ],
      "stateMutability": "pure",
      "type": "function"
    },
    {
      "inputs": [
        {
          "internalType": "address",
          "name": "addr",
          "type": "address"
        }
      ],
      "name": "setDaoAddress",
      "outputs": [],
      "stateMutability": "nonpayable",
      "type": "function"
    },
    {
      "inputs": [
        {
          "internalType": "address",
          "name": "addr",
          "type": "address"
        }
      ],
      "name": "setExchangeAddress",
      "outputs": [],
      "stateMutability": "nonpayable",
      "type": "function"
    },
    {
      "inputs": [],
      "name": "symbol",
      "outputs": [
        {
          "internalType": "string",
          "name": "",
          "type": "string"
        }
      ],
      "stateMutability": "pure",
      "type": "function"
    },
    {
      "inputs": [],
      "name": "totalSupply",
      "outputs": [
        {
          "internalType": "uint256",
          "name": "",
          "type": "uint256"
        }
      ],
      "stateMutability": "view",
      "type": "function"
    },
    {
      "inputs": [
        {
          "internalType": "address",
          "name": "_to",
          "type": "address"
        },
        {
          "internalType": "uint256",
          "name": "_value",
          "type": "uint256"
        }
      ],
      "name": "transfer",
      "outputs": [
        {
          "internalType": "bool",
          "name": "",
          "type": "bool"
        }
      ],
      "stateMutability": "nonpayable",
      "type": "function"
    },
    {
      "inputs": [
        {
          "internalType": "address",
          "name": "from",
          "type": "address"
        },
        {
          "internalType": "address",
          "name": "to",
          "type": "address"
        },
        {
          "internalType": "uint256",
          "name": "value",
          "type": "uint256"
        }
      ],
      "name": "transferFrom",
      "outputs": [
        {
          "internalType": "bool",
          "name": "",
          "type": "bool"
        }
      ],
      "stateMutability": "nonpayable",
      "type": "function"
    }
  ],
  "bytecode": "0x60806040526000600160006101000a81548173ffffffffffffffffffffffffffffffffffffffff021916908373ffffffffffffffffffffffffffffffffffffffff1602179055506000600260006101000a81548173ffffffffffffffffffffffffffffffffffffffff021916908373ffffffffffffffffffffffffffffffffffffffff1602179055506000600660006101000a8154816fffffffffffffffffffffffffffffffff0219169083600f0b6fffffffffffffffffffffffffffffffff1602179055506000600660106101000a81548161ffff021916908360010b61ffff1602179055506000600755600060085560006009553480156200010257600080fd5b50336000806101000a81548173ffffffffffffffffffffffffffffffffffffffff021916908373ffffffffffffffffffffffffffffffffffffffff1602179055506298968060030b600660006101000a8154816fffffffffffffffffffffffffffffffff0219169083600f0b6fffffffffffffffffffffffffffffffff160217905550620001c660008054906101000a900473ffffffffffffffffffffffffffffffffffffffff16600660009054906101000a9004600f0b620001cc60201b60201c565b620004b3565b6000600560008473ffffffffffffffffffffffffffffffffffffffff1673ffffffffffffffffffffffffffffffffffffffff16815260200190815260200160002060009054906101000a9004600f0b9050600081600f0b036200028d576004839080600181540180825580915050600190039060005260206000200160009091909190916101000a81548173ffffffffffffffffffffffffffffffffffffffff021916908373ffffffffffffffffffffffffffffffffffffffff1602179055505b81816200029b9190620003be565b905080600560008573ffffffffffffffffffffffffffffffffffffffff1673ffffffffffffffffffffffffffffffffffffffff16815260200190815260200160002060006101000a8154816fffffffffffffffffffffffffffffffff0219169083600f0b6fffffffffffffffffffffffffffffffff1602179055508273ffffffffffffffffffffffffffffffffffffffff163073ffffffffffffffffffffffffffffffffffffffff167fddf252ad1be2c89b69c2b068fc378daa952ba7f163c4a11628f55a4df523b3ef8460405162000375919062000496565b60405180910390a3505050565b600081600f0b9050919050565b7f4e487b7100000000000000000000000000000000000000000000000000000000600052601160045260246000fd5b6000620003cb8262000382565b9150620003d88362000382565b925082820190507fffffffffffffffffffffffffffffffff8000000000000000000000000000000081126f7fffffffffffffffffffffffffffffff821317156200042757620004266200038f565b5b92915050565b60006fffffffffffffffffffffffffffffffff82169050919050565b6000819050919050565b6000819050919050565b60006200047e6200047862000472846200042d565b62000453565b62000449565b9050919050565b62000490816200045d565b82525050565b6000602082019050620004ad600083018462000485565b92915050565b611ea180620004c36000396000f3fe608060405234801561001057600080fd5b50600436106101165760003560e01c806370a08231116100a2578063a9059cbb11610071578063a9059cbb14610299578063d082ea8c146102c9578063d20a02cf146102e5578063dd62ed3e14610303578063f8f4c3431461033357610116565b806370a0823114610211578063893d20e81461024157806395d89b411461025f5780639a3cac6a1461027d57610116565b806318160ddd116100e957806318160ddd1461019157806323b872dd146101af578063313ce567146101df5780633808721d146101fd5780636f01f40e1461020757610116565b806306fdde031461011b578063095ea7b3146101395780631249c58b146101695780631275d2a914610173575b600080fd5b610123610351565b6040516101309190611824565b60405180910390f35b610153600480360381019061014e91906118df565b61038e565b604051610160919061193a565b60405180910390f35b610171610480565b005b61017b610772565b6040516101889190611964565b60405180910390f35b6101996107a1565b6040516101a69190611964565b60405180910390f35b6101c960048036038101906101c4919061197f565b6107ca565b6040516101d6919061193a565b60405180910390f35b6101e7610939565b6040516101f491906119ee565b60405180910390f35b61020561093e565b005b61020f610a69565b005b61022b60048036038101906102269190611a09565b610b93565b6040516102389190611964565b60405180910390f35b610249610ba5565b6040516102569190611a45565b60405180910390f35b610267610bce565b6040516102749190611824565b60405180910390f35b61029760048036038101906102929190611a09565b610c0b565b005b6102b360048036038101906102ae91906118df565b610cb6565b6040516102c0919061193a565b60405180910390f35b6102e360048036038101906102de9190611a09565b610ccd565b005b6102ed610d78565b6040516102fa9190611964565b60405180910390f35b61031d60048036038101906103189190611a60565b610da7565b60405161032a9190611964565b60405180910390f35b61033b610e2e565b6040516103489190611964565b60405180910390f35b60606040518060400160405280600781526020017f44657868756e6500000000000000000000000000000000000000000000000000815250905090565b600081600a60003373ffffffffffffffffffffffffffffffffffffffff1673ffffffffffffffffffffffffffffffffffffffff16815260200190815260200160002060008573ffffffffffffffffffffffffffffffffffffffff1673ffffffffffffffffffffffffffffffffffffffff168152602001908152602001600020819055508273ffffffffffffffffffffffffffffffffffffffff163373ffffffffffffffffffffffffffffffffffffffff167f8c5be1e5ebec7d5bd14f71427d1e84f3dd0314c0f7b2291e5b200ac8c7c3b9258460405161046e9190611964565b60405180910390a36001905092915050565b610e4260010b600660109054906101000a900460010b60010b126104d0576040517f303b682f00000000000000000000000000000000000000000000000000000000815260040160405180910390fd5b60075442101561052457600754426104e89190611acf565b6040517ff461f5dd00000000000000000000000000000000000000000000000000000000815260040161051b9190611964565b60405180910390fd5b6006601081819054906101000a900460010b8092919061054390611b10565b91906101000a81548161ffff021916908360010b61ffff160217905550506205460063ffffffff16426105769190611b3a565b6007819055506000600660009054906101000a9004600f0b90506000612710600c60000b836105a59190611b7b565b6105af9190611be7565b905060006105bc82610e5d565b9050600081836105cc9190611c51565b9050600081600f0b131561071557600073ffffffffffffffffffffffffffffffffffffffff16600160009054906101000a900473ffffffffffffffffffffffffffffffffffffffff1673ffffffffffffffffffffffffffffffffffffffff16146106615761065c600160009054906101000a900473ffffffffffffffffffffffffffffffffffffffff1682611057565b610714565b600073ffffffffffffffffffffffffffffffffffffffff16600260009054906101000a900473ffffffffffffffffffffffffffffffffffffffff1673ffffffffffffffffffffffffffffffffffffffff16146106e8576106e3600260009054906101000a900473ffffffffffffffffffffffffffffffffffffffff1682611057565b610713565b61071260008054906101000a900473ffffffffffffffffffffffffffffffffffffffff1682611057565b5b5b5b82600660008282829054906101000a9004600f0b6107339190611cb9565b92506101000a8154816fffffffffffffffffffffffffffffffff0219169083600f0b6fffffffffffffffffffffffffffffffff16021790555050505050565b60008042905080600954101561078c57600091505061079e565b8060095461079a9190611acf565b9150505b90565b6000600660009054906101000a9004600f0b6fffffffffffffffffffffffffffffffff16905090565b600080600a60008673ffffffffffffffffffffffffffffffffffffffff1673ffffffffffffffffffffffffffffffffffffffff16815260200190815260200160002060003373ffffffffffffffffffffffffffffffffffffffff1673ffffffffffffffffffffffffffffffffffffffff168152602001908152602001600020549050808311156108935782816040517f460c66b300000000000000000000000000000000000000000000000000000000815260040161088a929190611d21565b60405180910390fd5b828161089f9190611acf565b905080600a60008773ffffffffffffffffffffffffffffffffffffffff1673ffffffffffffffffffffffffffffffffffffffff16815260200190815260200160002060003373ffffffffffffffffffffffffffffffffffffffff1673ffffffffffffffffffffffffffffffffffffffff1681526020019081526020016000208190555061092d858585611208565b60019150509392505050565b600090565b42600854111561099257426008546109569190611acf565b6040517ff461f5dd0000000000000000000000000000000000000000000000000000000081526004016109899190611964565b60405180910390fd5b600073ffffffffffffffffffffffffffffffffffffffff16600160009054906101000a900473ffffffffffffffffffffffffffffffffffffffff1673ffffffffffffffffffffffffffffffffffffffff1603610a1a576040517f4cfe894800000000000000000000000000000000000000000000000000000000815260040160405180910390fd5b6201518063ffffffff1642610a2f9190611b3a565b600881905550610a67600160009054906101000a900473ffffffffffffffffffffffffffffffffffffffff16620493e060030b611057565b565b600954421015610abd5760095442610a819190611acf565b6040517ff461f5dd000000000000000000000000000000000000000000000000000000008152600401610ab49190611964565b60405180910390fd5b600073ffffffffffffffffffffffffffffffffffffffff16600260009054906101000a900473ffffffffffffffffffffffffffffffffffffffff1673ffffffffffffffffffffffffffffffffffffffff1603610b45576040517f37a7527b00000000000000000000000000000000000000000000000000000000815260040160405180910390fd5b6201518063ffffffff1642610b5a9190611b3a565b600981905550610b91600260009054906101000a900473ffffffffffffffffffffffffffffffffffffffff1661168060030b611057565b565b6000610b9e82611427565b9050919050565b60008060009054906101000a900473ffffffffffffffffffffffffffffffffffffffff16905090565b60606040518060400160405280600381526020017f4458480000000000000000000000000000000000000000000000000000000000815250905090565b610c1361144b565b80600260006101000a81548173ffffffffffffffffffffffffffffffffffffffff021916908373ffffffffffffffffffffffffffffffffffffffff160217905550600073ffffffffffffffffffffffffffffffffffffffff16600160009054906101000a900473ffffffffffffffffffffffffffffffffffffffff1673ffffffffffffffffffffffffffffffffffffffff1614610cb357610cb26114dd565b5b50565b6000610cc3338484611208565b6001905092915050565b610cd561144b565b80600160006101000a81548173ffffffffffffffffffffffffffffffffffffffff021916908373ffffffffffffffffffffffffffffffffffffffff160217905550600073ffffffffffffffffffffffffffffffffffffffff16600260009054906101000a900473ffffffffffffffffffffffffffffffffffffffff1673ffffffffffffffffffffffffffffffffffffffff1614610d7557610d746114dd565b5b50565b600080429050806008541015610d92576000915050610da4565b80600854610da09190611acf565b9150505b90565b6000600a60008473ffffffffffffffffffffffffffffffffffffffff1673ffffffffffffffffffffffffffffffffffffffff16815260200190815260200160002060008373ffffffffffffffffffffffffffffffffffffffff1673ffffffffffffffffffffffffffffffffffffffff16815260200190815260200160002054905092915050565b600080429050806007541015610e48576000915050610e5a565b80600754610e569190611acf565b9150505b90565b600080600080600080600090505b60048054905081101561104a5760048181548110610e8c57610e8b611d4a565b5b9060005260206000200160009054906101000a900473ffffffffffffffffffffffffffffffffffffffff169450600560008673ffffffffffffffffffffffffffffffffffffffff1673ffffffffffffffffffffffffffffffffffffffff16815260200190815260200160002060009054906101000a9004600f0b9350600660009054906101000a9004600f0b8785610f249190611b7b565b610f2e9190611be7565b92508284610f3c9190611cb9565b93508282610f4a9190611cb9565b915083600560008773ffffffffffffffffffffffffffffffffffffffff1673ffffffffffffffffffffffffffffffffffffffff16815260200190815260200160002060006101000a8154816fffffffffffffffffffffffffffffffff0219169083600f0b6fffffffffffffffffffffffffffffffff160217905550600083600f0b1315611037578473ffffffffffffffffffffffffffffffffffffffff163073ffffffffffffffffffffffffffffffffffffffff167fddf252ad1be2c89b69c2b068fc378daa952ba7f163c4a11628f55a4df523b3ef8560405161102e9190611dd0565b60405180910390a35b808061104290611deb565b915050610e6b565b5080945050505050919050565b6000600560008473ffffffffffffffffffffffffffffffffffffffff1673ffffffffffffffffffffffffffffffffffffffff16815260200190815260200160002060009054906101000a9004600f0b9050600081600f0b03611117576004839080600181540180825580915050600190039060005260206000200160009091909190916101000a81548173ffffffffffffffffffffffffffffffffffffffff021916908373ffffffffffffffffffffffffffffffffffffffff1602179055505b81816111239190611cb9565b905080600560008573ffffffffffffffffffffffffffffffffffffffff1673ffffffffffffffffffffffffffffffffffffffff16815260200190815260200160002060006101000a8154816fffffffffffffffffffffffffffffffff0219169083600f0b6fffffffffffffffffffffffffffffffff1602179055508273ffffffffffffffffffffffffffffffffffffffff163073ffffffffffffffffffffffffffffffffffffffff167fddf252ad1be2c89b69c2b068fc378daa952ba7f163c4a11628f55a4df523b3ef846040516111fb9190611dd0565b60405180910390a3505050565b600061121384611427565b90508082111561124f576040517ff4d678b800000000000000000000000000000000000000000000000000000000815260040160405180910390fd5b8273ffffffffffffffffffffffffffffffffffffffff168473ffffffffffffffffffffffffffffffffffffffff16036112b4576040517f88e2993300000000000000000000000000000000000000000000000000000000815260040160405180910390fd5b3073ffffffffffffffffffffffffffffffffffffffff168473ffffffffffffffffffffffffffffffffffffffff1603611319576040517f293adf9700000000000000000000000000000000000000000000000000000000815260040160405180910390fd5b3073ffffffffffffffffffffffffffffffffffffffff168373ffffffffffffffffffffffffffffffffffffffff160361137e576040517f293adf9700000000000000000000000000000000000000000000000000000000815260040160405180910390fd5b818161138a9190611acf565b9050600061139784611427565b905082816113a59190611b3a565b90506113b18583611521565b6113bb8482611521565b8373ffffffffffffffffffffffffffffffffffffffff168573ffffffffffffffffffffffffffffffffffffffff167fddf252ad1be2c89b69c2b068fc378daa952ba7f163c4a11628f55a4df523b3ef856040516114189190611964565b60405180910390a35050505050565b60006114328261152f565b6fffffffffffffffffffffffffffffffff169050919050565b60008054906101000a900473ffffffffffffffffffffffffffffffffffffffff1673ffffffffffffffffffffffffffffffffffffffff163373ffffffffffffffffffffffffffffffffffffffff16146114db57336040517f32b2baa30000000000000000000000000000000000000000000000000000000081526004016114d29190611a45565b60405180910390fd5b565b61dead6000806101000a81548173ffffffffffffffffffffffffffffffffffffffff021916908373ffffffffffffffffffffffffffffffffffffffff160217905550565b61152b828261159b565b5050565b600080600560008473ffffffffffffffffffffffffffffffffffffffff1673ffffffffffffffffffffffffffffffffffffffff16815260200190815260200160002060009054906101000a9004600f0b9050600081600f0b121561159257600090505b80915050919050565b600081600f0b12156115e65781816040517f489b499a0000000000000000000000000000000000000000000000000000000081526004016115dd929190611e42565b60405180910390fd5b600081600f0b03611615577fffffffffffffffffffffffffffffffffffffffffffffffffffffffffffffffff90505b6000600560008473ffffffffffffffffffffffffffffffffffffffff1673ffffffffffffffffffffffffffffffffffffffff16815260200190815260200160002060009054906101000a9004600f0b9050600081600f0b14801561169b57507fffffffffffffffffffffffffffffffffffffffffffffffffffffffffffffffff82600f0b145b156116a65750611790565b600081600f0b03611715576004839080600181540180825580915050600190039060005260206000200160009091909190916101000a81548173ffffffffffffffffffffffffffffffffffffffff021916908373ffffffffffffffffffffffffffffffffffffffff1602179055505b81600560008573ffffffffffffffffffffffffffffffffffffffff1673ffffffffffffffffffffffffffffffffffffffff16815260200190815260200160002060006101000a8154816fffffffffffffffffffffffffffffffff0219169083600f0b6fffffffffffffffffffffffffffffffff160217905550505b5050565b600081519050919050565b600082825260208201905092915050565b60005b838110156117ce5780820151818401526020810190506117b3565b60008484015250505050565b6000601f19601f8301169050919050565b60006117f682611794565b611800818561179f565b93506118108185602086016117b0565b611819816117da565b840191505092915050565b6000602082019050818103600083015261183e81846117eb565b905092915050565b600080fd5b600073ffffffffffffffffffffffffffffffffffffffff82169050919050565b60006118768261184b565b9050919050565b6118868161186b565b811461189157600080fd5b50565b6000813590506118a38161187d565b92915050565b6000819050919050565b6118bc816118a9565b81146118c757600080fd5b50565b6000813590506118d9816118b3565b92915050565b600080604083850312156118f6576118f5611846565b5b600061190485828601611894565b9250506020611915858286016118ca565b9150509250929050565b60008115159050919050565b6119348161191f565b82525050565b600060208201905061194f600083018461192b565b92915050565b61195e816118a9565b82525050565b60006020820190506119796000830184611955565b92915050565b60008060006060848603121561199857611997611846565b5b60006119a686828701611894565b93505060206119b786828701611894565b92505060406119c8868287016118ca565b9150509250925092565b600060ff82169050919050565b6119e8816119d2565b82525050565b6000602082019050611a0360008301846119df565b92915050565b600060208284031215611a1f57611a1e611846565b5b6000611a2d84828501611894565b91505092915050565b611a3f8161186b565b82525050565b6000602082019050611a5a6000830184611a36565b92915050565b60008060408385031215611a7757611a76611846565b5b6000611a8585828601611894565b9250506020611a9685828601611894565b9150509250929050565b7f4e487b7100000000000000000000000000000000000000000000000000000000600052601160045260246000fd5b6000611ada826118a9565b9150611ae5836118a9565b9250828203905081811115611afd57611afc611aa0565b5b92915050565b60008160010b9050919050565b6000611b1b82611b03565b9150617fff8203611b2f57611b2e611aa0565b5b600182019050919050565b6000611b45826118a9565b9150611b50836118a9565b9250828201905080821115611b6857611b67611aa0565b5b92915050565b600081600f0b9050919050565b6000611b8682611b6e565b9150611b9183611b6e565b9250828202611b9f81611b6e565b9150808214611bb157611bb0611aa0565b5b5092915050565b7f4e487b7100000000000000000000000000000000000000000000000000000000600052601260045260246000fd5b6000611bf282611b6e565b9150611bfd83611b6e565b925082611c0d57611c0c611bb8565b5b600160000383147fffffffffffffffffffffffffffffffff8000000000000000000000000000000083141615611c4657611c45611aa0565b5b828205905092915050565b6000611c5c82611b6e565b9150611c6783611b6e565b925082820390506f7fffffffffffffffffffffffffffffff81137fffffffffffffffffffffffffffffffff8000000000000000000000000000000082121715611cb357611cb2611aa0565b5b92915050565b6000611cc482611b6e565b9150611ccf83611b6e565b925082820190507fffffffffffffffffffffffffffffffff8000000000000000000000000000000081126f7fffffffffffffffffffffffffffffff82131715611d1b57611d1a611aa0565b5b92915050565b6000604082019050611d366000830185611955565b611d436020830184611955565b9392505050565b7f4e487b7100000000000000000000000000000000000000000000000000000000600052603260045260246000fd5b60006fffffffffffffffffffffffffffffffff82169050919050565b6000819050919050565b6000611dba611db5611db084611d79565b611d95565b6118a9565b9050919050565b611dca81611d9f565b82525050565b6000602082019050611de56000830184611dc1565b92915050565b6000611df6826118a9565b91507fffffffffffffffffffffffffffffffffffffffffffffffffffffffffffffffff8203611e2857611e27611aa0565b5b600182019050919050565b611e3c81611b6e565b82525050565b6000604082019050611e576000830185611a36565b611e646020830184611e33565b939250505056fea26469706673582212200760561a49d62b82c637907a10900c61aa9b8b05a909d8f5d41730fd50560e7a64736f6c63430008150033",
  "linkReferences": {},
  "deployedLinkReferences": {}
}