{
  "_format": "hh-sol-artifact-1",
  "contractName": "DexhuneERC20",
  "sourceName": "contracts/DexhuneERC20.sol",
  "abi": [
    {
      "inputs": [],
      "name": "DuplicateTransferAddress",
      "type": "error"
    },
    {
      "inputs": [],
      "name": "ExchangeAddressNotSet",
      "type": "error"
    },
    {
      "inputs": [],
      "name": "InsufficientBalance",
      "type": "error"
    },
    {
      "inputs": [
        {
          "internalType": "address",
          "name": "addr",
          "type": "address"
        },
        {
          "internalType": "int128",
          "name": "balance",
          "type": "int128"
        }
      ],
      "name": "InvalidBalance",
      "type": "error"
    },
    {
      "inputs": [],
      "name": "MintLimitReached",
      "type": "error"
    },
    {
      "inputs": [
        {
          "internalType": "uint256",
          "name": "timeRemaining",
          "type": "uint256"
        }
      ],
      "name": "MintedTooEarly",
      "type": "error"
    },
    {
      "inputs": [
        {
          "internalType": "uint256",
          "name": "allowance",
          "type": "uint256"
        },
        {
          "internalType": "uint256",
          "name": "expectedAllowance",
          "type": "uint256"
        }
      ],
      "name": "NotEnoughAllowance",
      "type": "error"
    },
    {
      "inputs": [],
      "name": "PriceDaoAddressNotSet",
      "type": "error"
    },
    {
      "inputs": [
        {
          "internalType": "address",
          "name": "account",
          "type": "address"
        }
      ],
      "name": "UnauthorizedAccount",
      "type": "error"
    },
    {
      "anonymous": false,
      "inputs": [
        {
          "indexed": false,
          "internalType": "address",
          "name": "addr",
          "type": "address"
        },
        {
          "indexed": false,
          "internalType": "int128",
          "name": "funds",
          "type": "int128"
        }
      ],
      "name": "Alloc",
      "type": "event"
    },
    {
      "anonymous": false,
      "inputs": [
        {
          "indexed": true,
          "internalType": "address",
          "name": "owner",
          "type": "address"
        },
        {
          "indexed": true,
          "internalType": "address",
          "name": "spender",
          "type": "address"
        },
        {
          "indexed": false,
          "internalType": "uint256",
          "name": "value",
          "type": "uint256"
        }
      ],
      "name": "Approval",
      "type": "event"
    },
    {
      "anonymous": false,
      "inputs": [
        {
          "indexed": true,
          "internalType": "address",
          "name": "from",
          "type": "address"
        },
        {
          "indexed": true,
          "internalType": "address",
          "name": "to",
          "type": "address"
        },
        {
          "indexed": false,
          "internalType": "uint256",
          "name": "value",
          "type": "uint256"
        }
      ],
      "name": "Transfer",
      "type": "event"
    },
    {
      "inputs": [
        {
          "internalType": "uint256",
          "name": "",
          "type": "uint256"
        }
      ],
      "name": "_holders",
      "outputs": [
        {
          "internalType": "address",
          "name": "",
          "type": "address"
        }
      ],
      "stateMutability": "view",
      "type": "function"
    },
    {
      "inputs": [
        {
          "internalType": "address",
          "name": "_owner",
          "type": "address"
        },
        {
          "internalType": "address",
          "name": "_spender",
          "type": "address"
        }
      ],
      "name": "allowance",
      "outputs": [
        {
          "internalType": "uint256",
          "name": "remaining",
          "type": "uint256"
        }
      ],
      "stateMutability": "view",
      "type": "function"
    },
    {
      "inputs": [
        {
          "internalType": "address",
          "name": "_spender",
          "type": "address"
        },
        {
          "internalType": "uint256",
          "name": "_amount",
          "type": "uint256"
        }
      ],
      "name": "approve",
      "outputs": [
        {
          "internalType": "bool",
          "name": "",
          "type": "bool"
        }
      ],
      "stateMutability": "nonpayable",
      "type": "function"
    },
    {
      "inputs": [
        {
          "internalType": "address",
          "name": "owner",
          "type": "address"
        }
      ],
      "name": "balanceOf",
      "outputs": [
        {
          "internalType": "uint256",
          "name": "balance",
          "type": "uint256"
        }
      ],
      "stateMutability": "view",
      "type": "function"
    },
    {
      "inputs": [],
      "name": "daoMintingStartsAfter",
      "outputs": [
        {
          "internalType": "uint256",
          "name": "",
          "type": "uint256"
        }
      ],
      "stateMutability": "view",
      "type": "function"
    },
    {
      "inputs": [],
      "name": "decimals",
      "outputs": [
        {
          "internalType": "uint8",
          "name": "",
          "type": "uint8"
        }
      ],
      "stateMutability": "pure",
      "type": "function"
    },
    {
      "inputs": [],
      "name": "exchangeMintingStartsAfter",
      "outputs": [
        {
          "internalType": "uint256",
          "name": "",
          "type": "uint256"
        }
      ],
      "stateMutability": "view",
      "type": "function"
    },
    {
      "inputs": [],
      "name": "getOwner",
      "outputs": [
        {
          "internalType": "address",
          "name": "",
          "type": "address"
        }
      ],
      "stateMutability": "view",
      "type": "function"
    },
    {
      "inputs": [],
      "name": "mint",
      "outputs": [],
      "stateMutability": "nonpayable",
      "type": "function"
    },
    {
      "inputs": [],
      "name": "mintToDao",
      "outputs": [],
      "stateMutability": "nonpayable",
      "type": "function"
    },
    {
      "inputs": [],
      "name": "mintToExchange",
      "outputs": [],
      "stateMutability": "nonpayable",
      "type": "function"
    },
    {
      "inputs": [],
      "name": "mintingStartsAfter",
      "outputs": [
        {
          "internalType": "uint256",
          "name": "",
          "type": "uint256"
        }
      ],
      "stateMutability": "view",
      "type": "function"
    },
    {
      "inputs": [],
      "name": "name",
      "outputs": [
        {
          "internalType": "string",
          "name": "",
          "type": "string"
        }
      ],
      "stateMutability": "pure",
      "type": "function"
    },
    {
      "inputs": [
        {
          "internalType": "address",
          "name": "addr",
          "type": "address"
        }
      ],
      "name": "setDaoAddress",
      "outputs": [],
      "stateMutability": "nonpayable",
      "type": "function"
    },
    {
      "inputs": [
        {
          "internalType": "address",
          "name": "addr",
          "type": "address"
        }
      ],
      "name": "setExchangeAddress",
      "outputs": [],
      "stateMutability": "nonpayable",
      "type": "function"
    },
    {
      "inputs": [],
      "name": "symbol",
      "outputs": [
        {
          "internalType": "string",
          "name": "",
          "type": "string"
        }
      ],
      "stateMutability": "pure",
      "type": "function"
    },
    {
      "inputs": [],
      "name": "totalSupply",
      "outputs": [
        {
          "internalType": "uint256",
          "name": "",
          "type": "uint256"
        }
      ],
      "stateMutability": "view",
      "type": "function"
    },
    {
      "inputs": [
        {
          "internalType": "address",
          "name": "_to",
          "type": "address"
        },
        {
          "internalType": "uint256",
          "name": "_value",
          "type": "uint256"
        }
      ],
      "name": "transfer",
      "outputs": [
        {
          "internalType": "bool",
          "name": "",
          "type": "bool"
        }
      ],
      "stateMutability": "nonpayable",
      "type": "function"
    },
    {
      "inputs": [
        {
          "internalType": "address",
          "name": "from",
          "type": "address"
        },
        {
          "internalType": "address",
          "name": "to",
          "type": "address"
        },
        {
          "internalType": "uint256",
          "name": "value",
          "type": "uint256"
        }
      ],
      "name": "transferFrom",
      "outputs": [
        {
          "internalType": "bool",
          "name": "",
          "type": "bool"
        }
      ],
      "stateMutability": "nonpayable",
      "type": "function"
    }
  ],
  "bytecode": "0x60806040526000600160006101000a81548173ffffffffffffffffffffffffffffffffffffffff021916908373ffffffffffffffffffffffffffffffffffffffff1602179055506000600260006101000a81548173ffffffffffffffffffffffffffffffffffffffff021916908373ffffffffffffffffffffffffffffffffffffffff1602179055506000600660006101000a8154816fffffffffffffffffffffffffffffffff0219169083600f0b6fffffffffffffffffffffffffffffffff1602179055506000600660106101000a81548161ffff021916908360010b61ffff1602179055506000600755600060085560006009553480156200010257600080fd5b50336000806101000a81548173ffffffffffffffffffffffffffffffffffffffff021916908373ffffffffffffffffffffffffffffffffffffffff1602179055506298968060030b600660006101000a8154816fffffffffffffffffffffffffffffffff0219169083600f0b6fffffffffffffffffffffffffffffffff160217905550620001c660008054906101000a900473ffffffffffffffffffffffffffffffffffffffff16600660009054906101000a9004600f0b620001cc60201b60201c565b6200045d565b600081600f0b12156200021a5781816040517f489b499a0000000000000000000000000000000000000000000000000000000081526004016200021192919062000430565b60405180910390fd5b600081600f0b036200024a577fffffffffffffffffffffffffffffffffffffffffffffffffffffffffffffffff90505b6000600560008473ffffffffffffffffffffffffffffffffffffffff1673ffffffffffffffffffffffffffffffffffffffff16815260200190815260200160002060009054906101000a9004600f0b9050600081600f0b148015620002d157507fffffffffffffffffffffffffffffffffffffffffffffffffffffffffffffffff82600f0b145b15620002de5750620003c9565b600081600f0b036200034e576004839080600181540180825580915050600190039060005260206000200160009091909190916101000a81548173ffffffffffffffffffffffffffffffffffffffff021916908373ffffffffffffffffffffffffffffffffffffffff1602179055505b81600560008573ffffffffffffffffffffffffffffffffffffffff1673ffffffffffffffffffffffffffffffffffffffff16815260200190815260200160002060006101000a8154816fffffffffffffffffffffffffffffffff0219169083600f0b6fffffffffffffffffffffffffffffffff160217905550505b5050565b600073ffffffffffffffffffffffffffffffffffffffff82169050919050565b6000620003fa82620003cd565b9050919050565b6200040c81620003ed565b82525050565b600081600f0b9050919050565b6200042a8162000412565b82525050565b600060408201905062000447600083018562000401565b6200045660208301846200041f565b9392505050565b611d6e806200046d6000396000f3fe608060405234801561001057600080fd5b50600436106101215760003560e01c806370a08231116100ad578063d082ea8c11610071578063d082ea8c146102d4578063d20a02cf146102f0578063dd2cec7f1461030e578063dd62ed3e1461033e578063f8f4c3431461036e57610121565b806370a082311461021c578063893d20e81461024c57806395d89b411461026a5780639a3cac6a14610288578063a9059cbb146102a457610121565b806318160ddd116100f457806318160ddd1461019c57806323b872dd146101ba578063313ce567146101ea5780633808721d146102085780636f01f40e1461021257610121565b806306fdde0314610126578063095ea7b3146101445780631249c58b146101745780631275d2a91461017e575b600080fd5b61012e61038c565b60405161013b9190611736565b60405180910390f35b61015e600480360381019061015991906117f1565b6103c9565b60405161016b919061184c565b60405180910390f35b61017c6104bb565b005b6101866107ad565b6040516101939190611876565b60405180910390f35b6101a46107dc565b6040516101b19190611876565b60405180910390f35b6101d460048036038101906101cf9190611891565b610805565b6040516101e1919061184c565b60405180910390f35b6101f2610974565b6040516101ff9190611900565b60405180910390f35b610210610979565b005b61021a610aa4565b005b6102366004803603810190610231919061191b565b610bce565b6040516102439190611876565b60405180910390f35b610254610be0565b6040516102619190611957565b60405180910390f35b610272610c09565b60405161027f9190611736565b60405180910390f35b6102a2600480360381019061029d919061191b565b610c46565b005b6102be60048036038101906102b991906117f1565b610cf1565b6040516102cb919061184c565b60405180910390f35b6102ee60048036038101906102e9919061191b565b610d08565b005b6102f8610db3565b6040516103059190611876565b60405180910390f35b61032860048036038101906103239190611972565b610de2565b6040516103359190611957565b60405180910390f35b6103586004803603810190610353919061199f565b610e21565b6040516103659190611876565b60405180910390f35b610376610ea8565b6040516103839190611876565b60405180910390f35b60606040518060400160405280600781526020017f44657868756e6500000000000000000000000000000000000000000000000000815250905090565b600081600a60003373ffffffffffffffffffffffffffffffffffffffff1673ffffffffffffffffffffffffffffffffffffffff16815260200190815260200160002060008573ffffffffffffffffffffffffffffffffffffffff1673ffffffffffffffffffffffffffffffffffffffff168152602001908152602001600020819055508273ffffffffffffffffffffffffffffffffffffffff163373ffffffffffffffffffffffffffffffffffffffff167f8c5be1e5ebec7d5bd14f71427d1e84f3dd0314c0f7b2291e5b200ac8c7c3b925846040516104a99190611876565b60405180910390a36001905092915050565b610e4260010b600660109054906101000a900460010b60010b1261050b576040517f303b682f00000000000000000000000000000000000000000000000000000000815260040160405180910390fd5b60075442101561055f57600754426105239190611a0e565b6040517ff461f5dd0000000000000000000000000000000000000000000000000000000081526004016105569190611876565b60405180910390fd5b6006601081819054906101000a900460010b8092919061057e90611a4f565b91906101000a81548161ffff021916908360010b61ffff160217905550506205460063ffffffff16426105b19190611a79565b6007819055506000600660009054906101000a9004600f0b90506000612710600c60000b836105e09190611aba565b6105ea9190611b26565b905060006105f782610ed7565b9050600081836106079190611b90565b9050600081600f0b131561075057600073ffffffffffffffffffffffffffffffffffffffff16600160009054906101000a900473ffffffffffffffffffffffffffffffffffffffff1673ffffffffffffffffffffffffffffffffffffffff161461069c57610697600160009054906101000a900473ffffffffffffffffffffffffffffffffffffffff1682611098565b61074f565b600073ffffffffffffffffffffffffffffffffffffffff16600260009054906101000a900473ffffffffffffffffffffffffffffffffffffffff1673ffffffffffffffffffffffffffffffffffffffff16146107235761071e600260009054906101000a900473ffffffffffffffffffffffffffffffffffffffff1682611098565b61074e565b61074d60008054906101000a900473ffffffffffffffffffffffffffffffffffffffff1682611098565b5b5b5b82600660008282829054906101000a9004600f0b61076e9190611bf8565b92506101000a8154816fffffffffffffffffffffffffffffffff0219169083600f0b6fffffffffffffffffffffffffffffffff16021790555050505050565b6000804290508060095410156107c75760009150506107d9565b806009546107d59190611a0e565b9150505b90565b6000600660009054906101000a9004600f0b6fffffffffffffffffffffffffffffffff16905090565b600080600a60008673ffffffffffffffffffffffffffffffffffffffff1673ffffffffffffffffffffffffffffffffffffffff16815260200190815260200160002060003373ffffffffffffffffffffffffffffffffffffffff1673ffffffffffffffffffffffffffffffffffffffff168152602001908152602001600020549050808311156108ce5782816040517f460c66b30000000000000000000000000000000000000000000000000000000081526004016108c5929190611c60565b60405180910390fd5b82816108da9190611a0e565b905080600a60008773ffffffffffffffffffffffffffffffffffffffff1673ffffffffffffffffffffffffffffffffffffffff16815260200190815260200160002060003373ffffffffffffffffffffffffffffffffffffffff1673ffffffffffffffffffffffffffffffffffffffff168152602001908152602001600020819055506109688585856111e4565b60019150509392505050565b600090565b4260085411156109cd57426008546109919190611a0e565b6040517ff461f5dd0000000000000000000000000000000000000000000000000000000081526004016109c49190611876565b60405180910390fd5b600073ffffffffffffffffffffffffffffffffffffffff16600160009054906101000a900473ffffffffffffffffffffffffffffffffffffffff1673ffffffffffffffffffffffffffffffffffffffff1603610a55576040517f4cfe894800000000000000000000000000000000000000000000000000000000815260040160405180910390fd5b6201518063ffffffff1642610a6a9190611a79565b600881905550610aa2600160009054906101000a900473ffffffffffffffffffffffffffffffffffffffff16620493e060030b611098565b565b600954421015610af85760095442610abc9190611a0e565b6040517ff461f5dd000000000000000000000000000000000000000000000000000000008152600401610aef9190611876565b60405180910390fd5b600073ffffffffffffffffffffffffffffffffffffffff16600260009054906101000a900473ffffffffffffffffffffffffffffffffffffffff1673ffffffffffffffffffffffffffffffffffffffff1603610b80576040517f37a7527b00000000000000000000000000000000000000000000000000000000815260040160405180910390fd5b6201518063ffffffff1642610b959190611a79565b600981905550610bcc600260009054906101000a900473ffffffffffffffffffffffffffffffffffffffff1661168060030b611098565b565b6000610bd982611339565b9050919050565b60008060009054906101000a900473ffffffffffffffffffffffffffffffffffffffff16905090565b60606040518060400160405280600381526020017f4458480000000000000000000000000000000000000000000000000000000000815250905090565b610c4e61135d565b80600260006101000a81548173ffffffffffffffffffffffffffffffffffffffff021916908373ffffffffffffffffffffffffffffffffffffffff160217905550600073ffffffffffffffffffffffffffffffffffffffff16600160009054906101000a900473ffffffffffffffffffffffffffffffffffffffff1673ffffffffffffffffffffffffffffffffffffffff1614610cee57610ced6113ef565b5b50565b6000610cfe3384846111e4565b6001905092915050565b610d1061135d565b80600160006101000a81548173ffffffffffffffffffffffffffffffffffffffff021916908373ffffffffffffffffffffffffffffffffffffffff160217905550600073ffffffffffffffffffffffffffffffffffffffff16600260009054906101000a900473ffffffffffffffffffffffffffffffffffffffff1673ffffffffffffffffffffffffffffffffffffffff1614610db057610daf6113ef565b5b50565b600080429050806008541015610dcd576000915050610ddf565b80600854610ddb9190611a0e565b9150505b90565b60048181548110610df257600080fd5b906000526020600020016000915054906101000a900473ffffffffffffffffffffffffffffffffffffffff1681565b6000600a60008473ffffffffffffffffffffffffffffffffffffffff1673ffffffffffffffffffffffffffffffffffffffff16815260200190815260200160002060008373ffffffffffffffffffffffffffffffffffffffff1673ffffffffffffffffffffffffffffffffffffffff16815260200190815260200160002054905092915050565b600080429050806007541015610ec2576000915050610ed4565b80600754610ed09190611a0e565b9150505b90565b600080600080600080600090505b60048054905081101561108b5760048181548110610f0657610f05611c89565b5b9060005260206000200160009054906101000a900473ffffffffffffffffffffffffffffffffffffffff169450600560008673ffffffffffffffffffffffffffffffffffffffff1673ffffffffffffffffffffffffffffffffffffffff16815260200190815260200160002060009054906101000a9004600f0b9350600660009054906101000a9004600f0b8785610f9e9190611aba565b610fa89190611b26565b92508284610fb69190611bf8565b93508282610fc49190611bf8565b915083600560008773ffffffffffffffffffffffffffffffffffffffff1673ffffffffffffffffffffffffffffffffffffffff16815260200190815260200160002060006101000a8154816fffffffffffffffffffffffffffffffff0219169083600f0b6fffffffffffffffffffffffffffffffff1602179055507fb71bcb8fffeb745df80831753390e133c8b6549b8be2c5ae6a203b0ec87d4cf28585604051611070929190611cc7565b60405180910390a1808061108390611cf0565b915050610ee5565b5080945050505050919050565b6000600560008473ffffffffffffffffffffffffffffffffffffffff1673ffffffffffffffffffffffffffffffffffffffff16815260200190815260200160002060009054906101000a9004600f0b9050600081600f0b03611158576004839080600181540180825580915050600190039060005260206000200160009091909190916101000a81548173ffffffffffffffffffffffffffffffffffffffff021916908373ffffffffffffffffffffffffffffffffffffffff1602179055505b81816111649190611bf8565b905080600560008573ffffffffffffffffffffffffffffffffffffffff1673ffffffffffffffffffffffffffffffffffffffff16815260200190815260200160002060006101000a8154816fffffffffffffffffffffffffffffffff0219169083600f0b6fffffffffffffffffffffffffffffffff160217905550505050565b60006111ef84611339565b90508082111561122b576040517ff4d678b800000000000000000000000000000000000000000000000000000000815260040160405180910390fd5b8273ffffffffffffffffffffffffffffffffffffffff168473ffffffffffffffffffffffffffffffffffffffff1603611290576040517f88e2993300000000000000000000000000000000000000000000000000000000815260040160405180910390fd5b818161129c9190611a0e565b905060006112a984611339565b905082816112b79190611a79565b90506112c38583611433565b6112cd8482611433565b8373ffffffffffffffffffffffffffffffffffffffff168573ffffffffffffffffffffffffffffffffffffffff167fddf252ad1be2c89b69c2b068fc378daa952ba7f163c4a11628f55a4df523b3ef8560405161132a9190611876565b60405180910390a35050505050565b600061134482611441565b6fffffffffffffffffffffffffffffffff169050919050565b60008054906101000a900473ffffffffffffffffffffffffffffffffffffffff1673ffffffffffffffffffffffffffffffffffffffff163373ffffffffffffffffffffffffffffffffffffffff16146113ed57336040517f32b2baa30000000000000000000000000000000000000000000000000000000081526004016113e49190611957565b60405180910390fd5b565b61dead6000806101000a81548173ffffffffffffffffffffffffffffffffffffffff021916908373ffffffffffffffffffffffffffffffffffffffff160217905550565b61143d82826114ad565b5050565b600080600560008473ffffffffffffffffffffffffffffffffffffffff1673ffffffffffffffffffffffffffffffffffffffff16815260200190815260200160002060009054906101000a9004600f0b9050600081600f0b12156114a457600090505b80915050919050565b600081600f0b12156114f85781816040517f489b499a0000000000000000000000000000000000000000000000000000000081526004016114ef929190611cc7565b60405180910390fd5b600081600f0b03611527577fffffffffffffffffffffffffffffffffffffffffffffffffffffffffffffffff90505b6000600560008473ffffffffffffffffffffffffffffffffffffffff1673ffffffffffffffffffffffffffffffffffffffff16815260200190815260200160002060009054906101000a9004600f0b9050600081600f0b1480156115ad57507fffffffffffffffffffffffffffffffffffffffffffffffffffffffffffffffff82600f0b145b156115b857506116a2565b600081600f0b03611627576004839080600181540180825580915050600190039060005260206000200160009091909190916101000a81548173ffffffffffffffffffffffffffffffffffffffff021916908373ffffffffffffffffffffffffffffffffffffffff1602179055505b81600560008573ffffffffffffffffffffffffffffffffffffffff1673ffffffffffffffffffffffffffffffffffffffff16815260200190815260200160002060006101000a8154816fffffffffffffffffffffffffffffffff0219169083600f0b6fffffffffffffffffffffffffffffffff160217905550505b5050565b600081519050919050565b600082825260208201905092915050565b60005b838110156116e05780820151818401526020810190506116c5565b60008484015250505050565b6000601f19601f8301169050919050565b6000611708826116a6565b61171281856116b1565b93506117228185602086016116c2565b61172b816116ec565b840191505092915050565b6000602082019050818103600083015261175081846116fd565b905092915050565b600080fd5b600073ffffffffffffffffffffffffffffffffffffffff82169050919050565b60006117888261175d565b9050919050565b6117988161177d565b81146117a357600080fd5b50565b6000813590506117b58161178f565b92915050565b6000819050919050565b6117ce816117bb565b81146117d957600080fd5b50565b6000813590506117eb816117c5565b92915050565b6000806040838503121561180857611807611758565b5b6000611816858286016117a6565b9250506020611827858286016117dc565b9150509250929050565b60008115159050919050565b61184681611831565b82525050565b6000602082019050611861600083018461183d565b92915050565b611870816117bb565b82525050565b600060208201905061188b6000830184611867565b92915050565b6000806000606084860312156118aa576118a9611758565b5b60006118b8868287016117a6565b93505060206118c9868287016117a6565b92505060406118da868287016117dc565b9150509250925092565b600060ff82169050919050565b6118fa816118e4565b82525050565b600060208201905061191560008301846118f1565b92915050565b60006020828403121561193157611930611758565b5b600061193f848285016117a6565b91505092915050565b6119518161177d565b82525050565b600060208201905061196c6000830184611948565b92915050565b60006020828403121561198857611987611758565b5b6000611996848285016117dc565b91505092915050565b600080604083850312156119b6576119b5611758565b5b60006119c4858286016117a6565b92505060206119d5858286016117a6565b9150509250929050565b7f4e487b7100000000000000000000000000000000000000000000000000000000600052601160045260246000fd5b6000611a19826117bb565b9150611a24836117bb565b9250828203905081811115611a3c57611a3b6119df565b5b92915050565b60008160010b9050919050565b6000611a5a82611a42565b9150617fff8203611a6e57611a6d6119df565b5b600182019050919050565b6000611a84826117bb565b9150611a8f836117bb565b9250828201905080821115611aa757611aa66119df565b5b92915050565b600081600f0b9050919050565b6000611ac582611aad565b9150611ad083611aad565b9250828202611ade81611aad565b9150808214611af057611aef6119df565b5b5092915050565b7f4e487b7100000000000000000000000000000000000000000000000000000000600052601260045260246000fd5b6000611b3182611aad565b9150611b3c83611aad565b925082611b4c57611b4b611af7565b5b600160000383147fffffffffffffffffffffffffffffffff8000000000000000000000000000000083141615611b8557611b846119df565b5b828205905092915050565b6000611b9b82611aad565b9150611ba683611aad565b925082820390506f7fffffffffffffffffffffffffffffff81137fffffffffffffffffffffffffffffffff8000000000000000000000000000000082121715611bf257611bf16119df565b5b92915050565b6000611c0382611aad565b9150611c0e83611aad565b925082820190507fffffffffffffffffffffffffffffffff8000000000000000000000000000000081126f7fffffffffffffffffffffffffffffff82131715611c5a57611c596119df565b5b92915050565b6000604082019050611c756000830185611867565b611c826020830184611867565b9392505050565b7f4e487b7100000000000000000000000000000000000000000000000000000000600052603260045260246000fd5b611cc181611aad565b82525050565b6000604082019050611cdc6000830185611948565b611ce96020830184611cb8565b9392505050565b6000611cfb826117bb565b91507fffffffffffffffffffffffffffffffffffffffffffffffffffffffffffffffff8203611d2d57611d2c6119df565b5b60018201905091905056fea2646970667358221220429313f5e64955186010c63c451770435cfa6eefb3ce0ebb3a23994840eb56c564736f6c63430008120033",
  "linkReferences": {},
  "deployedLinkReferences": {}
}