{
  "_format": "hh-sol-artifact-1",
  "contractName": "DexhuneERC20",
  "sourceName": "contracts/DexhuneERC20.sol",
  "abi": [
    {
      "inputs": [],
      "name": "ExchangeAddressNotSet",
      "type": "error"
    },
    {
      "inputs": [],
      "name": "InsufficientBalance",
      "type": "error"
    },
    {
      "inputs": [
        {
          "internalType": "address",
          "name": "addr",
          "type": "address"
        },
        {
          "internalType": "int128",
          "name": "balance",
          "type": "int128"
        }
      ],
      "name": "InvalidBalance",
      "type": "error"
    },
    {
      "inputs": [],
      "name": "MintLimitReached",
      "type": "error"
    },
    {
      "inputs": [
        {
          "internalType": "uint256",
          "name": "timeRemaining",
          "type": "uint256"
        }
      ],
      "name": "MintedTooEarly",
      "type": "error"
    },
    {
      "inputs": [
        {
          "internalType": "uint256",
          "name": "allowance",
          "type": "uint256"
        },
        {
          "internalType": "uint256",
          "name": "expectedAllowance",
          "type": "uint256"
        }
      ],
      "name": "NotEnoughAllowance",
      "type": "error"
    },
    {
      "inputs": [],
      "name": "PriceDaoAddressNotSet",
      "type": "error"
    },
    {
      "inputs": [
        {
          "internalType": "address",
          "name": "account",
          "type": "address"
        }
      ],
      "name": "UnauthorizedAccount",
      "type": "error"
    },
    {
      "anonymous": false,
      "inputs": [
        {
          "indexed": true,
          "internalType": "address",
          "name": "owner",
          "type": "address"
        },
        {
          "indexed": true,
          "internalType": "address",
          "name": "spender",
          "type": "address"
        },
        {
          "indexed": false,
          "internalType": "uint256",
          "name": "value",
          "type": "uint256"
        }
      ],
      "name": "Approval",
      "type": "event"
    },
    {
      "anonymous": false,
      "inputs": [
        {
          "indexed": true,
          "internalType": "address",
          "name": "from",
          "type": "address"
        },
        {
          "indexed": true,
          "internalType": "address",
          "name": "to",
          "type": "address"
        },
        {
          "indexed": false,
          "internalType": "uint256",
          "name": "value",
          "type": "uint256"
        }
      ],
      "name": "Transfer",
      "type": "event"
    },
    {
      "inputs": [
        {
          "internalType": "address",
          "name": "_owner",
          "type": "address"
        },
        {
          "internalType": "address",
          "name": "_spender",
          "type": "address"
        }
      ],
      "name": "allowance",
      "outputs": [
        {
          "internalType": "uint256",
          "name": "remaining",
          "type": "uint256"
        }
      ],
      "stateMutability": "view",
      "type": "function"
    },
    {
      "inputs": [
        {
          "internalType": "address",
          "name": "_spender",
          "type": "address"
        },
        {
          "internalType": "uint256",
          "name": "_amount",
          "type": "uint256"
        }
      ],
      "name": "approve",
      "outputs": [
        {
          "internalType": "bool",
          "name": "",
          "type": "bool"
        }
      ],
      "stateMutability": "nonpayable",
      "type": "function"
    },
    {
      "inputs": [
        {
          "internalType": "address",
          "name": "owner",
          "type": "address"
        }
      ],
      "name": "balanceOf",
      "outputs": [
        {
          "internalType": "uint256",
          "name": "balance",
          "type": "uint256"
        }
      ],
      "stateMutability": "view",
      "type": "function"
    },
    {
      "inputs": [],
      "name": "decimals",
      "outputs": [
        {
          "internalType": "uint8",
          "name": "",
          "type": "uint8"
        }
      ],
      "stateMutability": "pure",
      "type": "function"
    },
    {
      "inputs": [],
      "name": "getOwner",
      "outputs": [
        {
          "internalType": "address",
          "name": "",
          "type": "address"
        }
      ],
      "stateMutability": "view",
      "type": "function"
    },
    {
      "inputs": [],
      "name": "mint",
      "outputs": [],
      "stateMutability": "nonpayable",
      "type": "function"
    },
    {
      "inputs": [],
      "name": "mintToDao",
      "outputs": [],
      "stateMutability": "nonpayable",
      "type": "function"
    },
    {
      "inputs": [],
      "name": "mintToExchange",
      "outputs": [],
      "stateMutability": "nonpayable",
      "type": "function"
    },
    {
      "inputs": [],
      "name": "name",
      "outputs": [
        {
          "internalType": "string",
          "name": "",
          "type": "string"
        }
      ],
      "stateMutability": "pure",
      "type": "function"
    },
    {
      "inputs": [
        {
          "internalType": "address",
          "name": "addr",
          "type": "address"
        }
      ],
      "name": "setDaoAddress",
      "outputs": [],
      "stateMutability": "nonpayable",
      "type": "function"
    },
    {
      "inputs": [
        {
          "internalType": "address",
          "name": "addr",
          "type": "address"
        }
      ],
      "name": "setExchangeAddress",
      "outputs": [],
      "stateMutability": "nonpayable",
      "type": "function"
    },
    {
      "inputs": [],
      "name": "symbol",
      "outputs": [
        {
          "internalType": "string",
          "name": "",
          "type": "string"
        }
      ],
      "stateMutability": "pure",
      "type": "function"
    },
    {
      "inputs": [],
      "name": "totalSupply",
      "outputs": [
        {
          "internalType": "uint256",
          "name": "",
          "type": "uint256"
        }
      ],
      "stateMutability": "view",
      "type": "function"
    },
    {
      "inputs": [
        {
          "internalType": "address",
          "name": "_to",
          "type": "address"
        },
        {
          "internalType": "uint256",
          "name": "_value",
          "type": "uint256"
        }
      ],
      "name": "transfer",
      "outputs": [
        {
          "internalType": "bool",
          "name": "",
          "type": "bool"
        }
      ],
      "stateMutability": "nonpayable",
      "type": "function"
    },
    {
      "inputs": [
        {
          "internalType": "address",
          "name": "from",
          "type": "address"
        },
        {
          "internalType": "address",
          "name": "to",
          "type": "address"
        },
        {
          "internalType": "uint256",
          "name": "value",
          "type": "uint256"
        }
      ],
      "name": "transferFrom",
      "outputs": [
        {
          "internalType": "bool",
          "name": "",
          "type": "bool"
        }
      ],
      "stateMutability": "nonpayable",
      "type": "function"
    }
  ],
  "bytecode": "0x60806040526000600160006101000a81548173ffffffffffffffffffffffffffffffffffffffff021916908373ffffffffffffffffffffffffffffffffffffffff1602179055506000600260006101000a81548173ffffffffffffffffffffffffffffffffffffffff021916908373ffffffffffffffffffffffffffffffffffffffff1602179055506000600660006101000a8154816fffffffffffffffffffffffffffffffff0219169083600f0b6fffffffffffffffffffffffffffffffff1602179055506000600660106101000a81548161ffff021916908360010b61ffff1602179055506000600755600060085560006009553480156200010257600080fd5b50336000806101000a81548173ffffffffffffffffffffffffffffffffffffffff021916908373ffffffffffffffffffffffffffffffffffffffff1602179055506298968060030b600660006101000a8154816fffffffffffffffffffffffffffffffff0219169083600f0b6fffffffffffffffffffffffffffffffff160217905550620001c660008054906101000a900473ffffffffffffffffffffffffffffffffffffffff16600660009054906101000a9004600f0b620001cc60201b60201c565b6200045d565b600081600f0b12156200021a5781816040517f489b499a0000000000000000000000000000000000000000000000000000000081526004016200021192919062000430565b60405180910390fd5b600081600f0b036200024a577fffffffffffffffffffffffffffffffffffffffffffffffffffffffffffffffff90505b6000600560008473ffffffffffffffffffffffffffffffffffffffff1673ffffffffffffffffffffffffffffffffffffffff16815260200190815260200160002060009054906101000a9004600f0b9050600081600f0b148015620002d157507fffffffffffffffffffffffffffffffffffffffffffffffffffffffffffffffff82600f0b145b15620002de5750620003c9565b600081600f0b036200034e576004839080600181540180825580915050600190039060005260206000200160009091909190916101000a81548173ffffffffffffffffffffffffffffffffffffffff021916908373ffffffffffffffffffffffffffffffffffffffff1602179055505b81600560008573ffffffffffffffffffffffffffffffffffffffff1673ffffffffffffffffffffffffffffffffffffffff16815260200190815260200160002060006101000a8154816fffffffffffffffffffffffffffffffff0219169083600f0b6fffffffffffffffffffffffffffffffff160217905550505b5050565b600073ffffffffffffffffffffffffffffffffffffffff82169050919050565b6000620003fa82620003cd565b9050919050565b6200040c81620003ed565b82525050565b600081600f0b9050919050565b6200042a8162000412565b82525050565b600060408201905062000447600083018562000401565b6200045660208301846200041f565b9392505050565b611889806200046d6000396000f3fe608060405234801561001057600080fd5b50600436106100f55760003560e01c80636f01f40e116100975780639a3cac6a116100665780639a3cac6a1461023e578063a9059cbb1461025a578063d082ea8c1461028a578063dd62ed3e146102a6576100f5565b80636f01f40e146101c857806370a08231146101d2578063893d20e81461020257806395d89b4114610220576100f5565b806318160ddd116100d357806318160ddd1461015257806323b872dd14610170578063313ce567146101a05780633808721d146101be576100f5565b806306fdde03146100fa578063095ea7b3146101185780631249c58b14610148575b600080fd5b6101026102d6565b60405161010f91906113c4565b60405180910390f35b610132600480360381019061012d919061147f565b610313565b60405161013f91906114da565b60405180910390f35b610150610405565b005b61015a61054b565b6040516101679190611504565b60405180910390f35b61018a6004803603810190610185919061151f565b610574565b60405161019791906114da565b60405180910390f35b6101a8610654565b6040516101b5919061158e565b60405180910390f35b6101c6610659565b005b6101d0610806565b005b6101ec60048036038101906101e791906115a9565b6109b2565b6040516101f99190611504565b60405180910390f35b61020a6109c4565b60405161021791906115e5565b60405180910390f35b6102286109ed565b60405161023591906113c4565b60405180910390f35b610258600480360381019061025391906115a9565b610a2a565b005b610274600480360381019061026f919061147f565b610ad5565b60405161028191906114da565b60405180910390f35b6102a4600480360381019061029f91906115a9565b610aec565b005b6102c060048036038101906102bb9190611600565b610b97565b6040516102cd9190611504565b60405180910390f35b60606040518060400160405280600781526020017f44657868756e6500000000000000000000000000000000000000000000000000815250905090565b600081600a60003373ffffffffffffffffffffffffffffffffffffffff1673ffffffffffffffffffffffffffffffffffffffff16815260200190815260200160002060008573ffffffffffffffffffffffffffffffffffffffff1673ffffffffffffffffffffffffffffffffffffffff168152602001908152602001600020819055508273ffffffffffffffffffffffffffffffffffffffff163373ffffffffffffffffffffffffffffffffffffffff167f8c5be1e5ebec7d5bd14f71427d1e84f3dd0314c0f7b2291e5b200ac8c7c3b925846040516103f39190611504565b60405180910390a36001905092915050565b610e4260010b600660109054906101000a900460010b60010b12610455576040517f303b682f00000000000000000000000000000000000000000000000000000000815260040160405180910390fd5b6007544210156104a9576007544261046d919061166f565b6040517ff461f5dd0000000000000000000000000000000000000000000000000000000081526004016104a09190611504565b60405180910390fd5b6205460063ffffffff16426104be91906116a3565b6007819055506000600660009054906101000a9004600f0b905060006104e582600c610c1e565b90506104f081610c48565b80600660008282829054906101000a9004600f0b61050e91906116e4565b92506101000a8154816fffffffffffffffffffffffffffffffff0219169083600f0b6fffffffffffffffffffffffffffffffff1602179055505050565b6000600660009054906101000a9004600f0b6fffffffffffffffffffffffffffffffff16905090565b600080600a60008673ffffffffffffffffffffffffffffffffffffffff1673ffffffffffffffffffffffffffffffffffffffff16815260200190815260200160002060003373ffffffffffffffffffffffffffffffffffffffff1673ffffffffffffffffffffffffffffffffffffffff1681526020019081526020016000205490508083111561063d5782816040517f460c66b300000000000000000000000000000000000000000000000000000000815260040161063492919061174c565b60405180910390fd5b610648858585610db7565b60019150509392505050565b600090565b6008544210156106ad5760085442610671919061166f565b6040517ff461f5dd0000000000000000000000000000000000000000000000000000000081526004016106a49190611504565b60405180910390fd5b600073ffffffffffffffffffffffffffffffffffffffff16600160009054906101000a900473ffffffffffffffffffffffffffffffffffffffff1673ffffffffffffffffffffffffffffffffffffffff1603610735576040517f4cfe894800000000000000000000000000000000000000000000000000000000815260040160405180910390fd5b6201518063ffffffff164261074a91906116a3565b600881905550600060056000600160009054906101000a900473ffffffffffffffffffffffffffffffffffffffff1673ffffffffffffffffffffffffffffffffffffffff1673ffffffffffffffffffffffffffffffffffffffff16815260200190815260200160002060009054906101000a9004600f0b905062155cc060030b816107d591906116e4565b9050610803600160009054906101000a900473ffffffffffffffffffffffffffffffffffffffff1682610ea8565b50565b60095442101561085a576009544261081e919061166f565b6040517ff461f5dd0000000000000000000000000000000000000000000000000000000081526004016108519190611504565b60405180910390fd5b600073ffffffffffffffffffffffffffffffffffffffff16600260009054906101000a900473ffffffffffffffffffffffffffffffffffffffff1673ffffffffffffffffffffffffffffffffffffffff16036108e2576040517f37a7527b00000000000000000000000000000000000000000000000000000000815260040160405180910390fd5b6201518063ffffffff16426108f791906116a3565b600981905550600060056000600260009054906101000a900473ffffffffffffffffffffffffffffffffffffffff1673ffffffffffffffffffffffffffffffffffffffff1673ffffffffffffffffffffffffffffffffffffffff16815260200190815260200160002060009054906101000a9004600f0b905061168060030b8161098191906116e4565b90506109af600260009054906101000a900473ffffffffffffffffffffffffffffffffffffffff1682610ea8565b50565b60006109bd826110a1565b9050919050565b60008060009054906101000a900473ffffffffffffffffffffffffffffffffffffffff16905090565b60606040518060400160405280600381526020017f4458480000000000000000000000000000000000000000000000000000000000815250905090565b610a326110c5565b80600260006101000a81548173ffffffffffffffffffffffffffffffffffffffff021916908373ffffffffffffffffffffffffffffffffffffffff160217905550600073ffffffffffffffffffffffffffffffffffffffff16600160009054906101000a900473ffffffffffffffffffffffffffffffffffffffff1673ffffffffffffffffffffffffffffffffffffffff1614610ad257610ad1611157565b5b50565b6000610ae2338484610db7565b6001905092915050565b610af46110c5565b80600160006101000a81548173ffffffffffffffffffffffffffffffffffffffff021916908373ffffffffffffffffffffffffffffffffffffffff160217905550600073ffffffffffffffffffffffffffffffffffffffff16600260009054906101000a900473ffffffffffffffffffffffffffffffffffffffff1673ffffffffffffffffffffffffffffffffffffffff1614610b9457610b93611157565b5b50565b6000600a60008473ffffffffffffffffffffffffffffffffffffffff1673ffffffffffffffffffffffffffffffffffffffff16815260200190815260200160002060008373ffffffffffffffffffffffffffffffffffffffff1673ffffffffffffffffffffffffffffffffffffffff16815260200190815260200160002054905092915050565b600080610c2e848460000b61119b565b9050610c3c81612710611206565b90508091505092915050565b60008060008060005b600480549050811015610daf5760048181548110610c7257610c71611775565b5b9060005260206000200160009054906101000a900473ffffffffffffffffffffffffffffffffffffffff169450600560008673ffffffffffffffffffffffffffffffffffffffff1673ffffffffffffffffffffffffffffffffffffffff16815260200190815260200160002060009054906101000a9004600f0b9350610d0784600660009054906101000a9004600f0b611206565b9250610d13838761119b565b91508184610d2191906116e4565b935083600560008773ffffffffffffffffffffffffffffffffffffffff1673ffffffffffffffffffffffffffffffffffffffff16815260200190815260200160002060006101000a8154816fffffffffffffffffffffffffffffffff0219169083600f0b6fffffffffffffffffffffffffffffffff1602179055508080610da7906117a4565b915050610c51565b505050505050565b6000610dc2846110a1565b90508181610dd0919061166f565b90506000811015610e0d576040517ff4d678b800000000000000000000000000000000000000000000000000000000815260040160405180910390fd5b6000610e18846110a1565b90508281610e2691906116a3565b9050610e32858361128f565b610e3c848261128f565b8373ffffffffffffffffffffffffffffffffffffffff168573ffffffffffffffffffffffffffffffffffffffff167fddf252ad1be2c89b69c2b068fc378daa952ba7f163c4a11628f55a4df523b3ef85604051610e999190611504565b60405180910390a35050505050565b600081600f0b1215610ef35781816040517f489b499a000000000000000000000000000000000000000000000000000000008152600401610eea9291906117fb565b60405180910390fd5b600081600f0b03610f22577fffffffffffffffffffffffffffffffffffffffffffffffffffffffffffffffff90505b6000600560008473ffffffffffffffffffffffffffffffffffffffff1673ffffffffffffffffffffffffffffffffffffffff16815260200190815260200160002060009054906101000a9004600f0b9050600081600f0b148015610fa857507fffffffffffffffffffffffffffffffffffffffffffffffffffffffffffffffff82600f0b145b15610fb3575061109d565b600081600f0b03611022576004839080600181540180825580915050600190039060005260206000200160009091909190916101000a81548173ffffffffffffffffffffffffffffffffffffffff021916908373ffffffffffffffffffffffffffffffffffffffff1602179055505b81600560008573ffffffffffffffffffffffffffffffffffffffff1673ffffffffffffffffffffffffffffffffffffffff16815260200190815260200160002060006101000a8154816fffffffffffffffffffffffffffffffff0219169083600f0b6fffffffffffffffffffffffffffffffff160217905550505b5050565b60006110ac826112a5565b6fffffffffffffffffffffffffffffffff169050919050565b60008054906101000a900473ffffffffffffffffffffffffffffffffffffffff1673ffffffffffffffffffffffffffffffffffffffff163373ffffffffffffffffffffffffffffffffffffffff161461115557336040517f32b2baa300000000000000000000000000000000000000000000000000000000815260040161114c91906115e5565b60405180910390fd5b565b61dead6000806101000a81548173ffffffffffffffffffffffffffffffffffffffff021916908373ffffffffffffffffffffffffffffffffffffffff160217905550565b600080604083600f0b85600f0b02901d90507fffffffffffffffffffffffffffffffff80000000000000000000000000000000600f0b81121580156111f357506f7fffffffffffffffffffffffffffffff600f0b8113155b6111fc57600080fd5b8091505092915050565b60008082600f0b0361121757600080fd5b600082600f0b604085600f0b901b8161123357611232611824565b5b0590507fffffffffffffffffffffffffffffffff80000000000000000000000000000000600f0b811215801561127c57506f7fffffffffffffffffffffffffffffff600f0b8113155b61128557600080fd5b8091505092915050565b6112a18261129c83611311565b610ea8565b5050565b600080600560008473ffffffffffffffffffffffffffffffffffffffff1673ffffffffffffffffffffffffffffffffffffffff16815260200190815260200160002060009054906101000a9004600f0b9050600081600f0b121561130857600090505b80915050919050565b6000677fffffffffffffff82111561132857600080fd5b604082901b9050919050565b600081519050919050565b600082825260208201905092915050565b60005b8381101561136e578082015181840152602081019050611353565b60008484015250505050565b6000601f19601f8301169050919050565b600061139682611334565b6113a0818561133f565b93506113b0818560208601611350565b6113b98161137a565b840191505092915050565b600060208201905081810360008301526113de818461138b565b905092915050565b600080fd5b600073ffffffffffffffffffffffffffffffffffffffff82169050919050565b6000611416826113eb565b9050919050565b6114268161140b565b811461143157600080fd5b50565b6000813590506114438161141d565b92915050565b6000819050919050565b61145c81611449565b811461146757600080fd5b50565b60008135905061147981611453565b92915050565b60008060408385031215611496576114956113e6565b5b60006114a485828601611434565b92505060206114b58582860161146a565b9150509250929050565b60008115159050919050565b6114d4816114bf565b82525050565b60006020820190506114ef60008301846114cb565b92915050565b6114fe81611449565b82525050565b600060208201905061151960008301846114f5565b92915050565b600080600060608486031215611538576115376113e6565b5b600061154686828701611434565b935050602061155786828701611434565b92505060406115688682870161146a565b9150509250925092565b600060ff82169050919050565b61158881611572565b82525050565b60006020820190506115a3600083018461157f565b92915050565b6000602082840312156115bf576115be6113e6565b5b60006115cd84828501611434565b91505092915050565b6115df8161140b565b82525050565b60006020820190506115fa60008301846115d6565b92915050565b60008060408385031215611617576116166113e6565b5b600061162585828601611434565b925050602061163685828601611434565b9150509250929050565b7f4e487b7100000000000000000000000000000000000000000000000000000000600052601160045260246000fd5b600061167a82611449565b915061168583611449565b925082820390508181111561169d5761169c611640565b5b92915050565b60006116ae82611449565b91506116b983611449565b92508282019050808211156116d1576116d0611640565b5b92915050565b600081600f0b9050919050565b60006116ef826116d7565b91506116fa836116d7565b925082820190507fffffffffffffffffffffffffffffffff8000000000000000000000000000000081126f7fffffffffffffffffffffffffffffff8213171561174657611745611640565b5b92915050565b600060408201905061176160008301856114f5565b61176e60208301846114f5565b9392505050565b7f4e487b7100000000000000000000000000000000000000000000000000000000600052603260045260246000fd5b60006117af82611449565b91507fffffffffffffffffffffffffffffffffffffffffffffffffffffffffffffffff82036117e1576117e0611640565b5b600182019050919050565b6117f5816116d7565b82525050565b600060408201905061181060008301856115d6565b61181d60208301846117ec565b9392505050565b7f4e487b7100000000000000000000000000000000000000000000000000000000600052601260045260246000fdfea2646970667358221220a5f4e69f82ca29af7690300015f84f98ff6ba27dba9f324d945be3367231e07664736f6c63430008120033",
  "linkReferences": {},
  "deployedLinkReferences": {}
}