{
  "_format": "hh-sol-artifact-1",
  "contractName": "DexhuneERC20",
  "sourceName": "contracts/DexhuneERC20.sol",
  "abi": [
    {
      "inputs": [],
      "name": "InsufficientBalance",
      "type": "error"
    },
    {
      "inputs": [
        {
          "internalType": "address",
          "name": "addr",
          "type": "address"
        },
        {
          "internalType": "int128",
          "name": "balance",
          "type": "int128"
        }
      ],
      "name": "InvalidBalance",
      "type": "error"
    },
    {
      "inputs": [],
      "name": "MintLimitReached",
      "type": "error"
    },
    {
      "inputs": [
        {
          "internalType": "uint256",
          "name": "timeRemaining",
          "type": "uint256"
        }
      ],
      "name": "MintedTooEarly",
      "type": "error"
    },
    {
      "inputs": [
        {
          "internalType": "uint256",
          "name": "allowance",
          "type": "uint256"
        },
        {
          "internalType": "uint256",
          "name": "expectedAllowance",
          "type": "uint256"
        }
      ],
      "name": "NotEnoughAllowance",
      "type": "error"
    },
    {
      "inputs": [
        {
          "internalType": "address",
          "name": "account",
          "type": "address"
        }
      ],
      "name": "UnauthorizedAccount",
      "type": "error"
    },
    {
      "anonymous": false,
      "inputs": [
        {
          "indexed": true,
          "internalType": "address",
          "name": "owner",
          "type": "address"
        },
        {
          "indexed": true,
          "internalType": "address",
          "name": "spender",
          "type": "address"
        },
        {
          "indexed": false,
          "internalType": "uint256",
          "name": "value",
          "type": "uint256"
        }
      ],
      "name": "Approval",
      "type": "event"
    },
    {
      "anonymous": false,
      "inputs": [
        {
          "indexed": true,
          "internalType": "address",
          "name": "from",
          "type": "address"
        },
        {
          "indexed": true,
          "internalType": "address",
          "name": "to",
          "type": "address"
        },
        {
          "indexed": false,
          "internalType": "uint256",
          "name": "value",
          "type": "uint256"
        }
      ],
      "name": "Transfer",
      "type": "event"
    },
    {
      "inputs": [
        {
          "internalType": "address",
          "name": "_owner",
          "type": "address"
        },
        {
          "internalType": "address",
          "name": "_spender",
          "type": "address"
        }
      ],
      "name": "allowance",
      "outputs": [
        {
          "internalType": "uint256",
          "name": "remaining",
          "type": "uint256"
        }
      ],
      "stateMutability": "view",
      "type": "function"
    },
    {
      "inputs": [
        {
          "internalType": "address",
          "name": "_spender",
          "type": "address"
        },
        {
          "internalType": "uint256",
          "name": "_amount",
          "type": "uint256"
        }
      ],
      "name": "approve",
      "outputs": [
        {
          "internalType": "bool",
          "name": "",
          "type": "bool"
        }
      ],
      "stateMutability": "nonpayable",
      "type": "function"
    },
    {
      "inputs": [
        {
          "internalType": "address",
          "name": "owner",
          "type": "address"
        }
      ],
      "name": "balanceOf",
      "outputs": [
        {
          "internalType": "uint256",
          "name": "balance",
          "type": "uint256"
        }
      ],
      "stateMutability": "view",
      "type": "function"
    },
    {
      "inputs": [],
      "name": "decimals",
      "outputs": [
        {
          "internalType": "uint8",
          "name": "",
          "type": "uint8"
        }
      ],
      "stateMutability": "pure",
      "type": "function"
    },
    {
      "inputs": [],
      "name": "mint",
      "outputs": [],
      "stateMutability": "nonpayable",
      "type": "function"
    },
    {
      "inputs": [],
      "name": "mintToDao",
      "outputs": [],
      "stateMutability": "nonpayable",
      "type": "function"
    },
    {
      "inputs": [],
      "name": "mintToExchange",
      "outputs": [],
      "stateMutability": "nonpayable",
      "type": "function"
    },
    {
      "inputs": [],
      "name": "name",
      "outputs": [
        {
          "internalType": "string",
          "name": "",
          "type": "string"
        }
      ],
      "stateMutability": "pure",
      "type": "function"
    },
    {
      "inputs": [
        {
          "internalType": "address",
          "name": "addr",
          "type": "address"
        }
      ],
      "name": "setDaoAddress",
      "outputs": [],
      "stateMutability": "nonpayable",
      "type": "function"
    },
    {
      "inputs": [
        {
          "internalType": "address",
          "name": "addr",
          "type": "address"
        }
      ],
      "name": "setExchangeAddress",
      "outputs": [],
      "stateMutability": "nonpayable",
      "type": "function"
    },
    {
      "inputs": [],
      "name": "symbol",
      "outputs": [
        {
          "internalType": "string",
          "name": "",
          "type": "string"
        }
      ],
      "stateMutability": "pure",
      "type": "function"
    },
    {
      "inputs": [],
      "name": "totalSupply",
      "outputs": [
        {
          "internalType": "uint256",
          "name": "",
          "type": "uint256"
        }
      ],
      "stateMutability": "view",
      "type": "function"
    },
    {
      "inputs": [
        {
          "internalType": "address",
          "name": "_to",
          "type": "address"
        },
        {
          "internalType": "uint256",
          "name": "_value",
          "type": "uint256"
        }
      ],
      "name": "transfer",
      "outputs": [
        {
          "internalType": "bool",
          "name": "",
          "type": "bool"
        }
      ],
      "stateMutability": "nonpayable",
      "type": "function"
    },
    {
      "inputs": [
        {
          "internalType": "address",
          "name": "from",
          "type": "address"
        },
        {
          "internalType": "address",
          "name": "to",
          "type": "address"
        },
        {
          "internalType": "uint256",
          "name": "value",
          "type": "uint256"
        }
      ],
      "name": "transferFrom",
      "outputs": [
        {
          "internalType": "bool",
          "name": "",
          "type": "bool"
        }
      ],
      "stateMutability": "nonpayable",
      "type": "function"
    }
  ],
  "bytecode": "0x60806040526000600660006101000a8154816fffffffffffffffffffffffffffffffff0219169083600f0b6fffffffffffffffffffffffffffffffff1602179055506000600660106101000a81548161ffff021916908360010b61ffff16021790555060006007556000600855600060095534801561007d57600080fd5b50336000806101000a81548173ffffffffffffffffffffffffffffffffffffffff021916908373ffffffffffffffffffffffffffffffffffffffff160217905550611653806100cd6000396000f3fe608060405234801561001057600080fd5b50600436106100ea5760003560e01c80636f01f40e1161008c5780639a3cac6a116100665780639a3cac6a14610215578063a9059cbb14610231578063d082ea8c14610261578063dd62ed3e1461027d576100ea565b80636f01f40e146101bd57806370a08231146101c757806395d89b41146101f7576100ea565b806318160ddd116100c857806318160ddd1461014757806323b872dd14610165578063313ce567146101955780633808721d146101b3576100ea565b806306fdde03146100ef578063095ea7b31461010d5780631249c58b1461013d575b600080fd5b6100f76102ad565b604051610104919061118e565b60405180910390f35b61012760048036038101906101229190611249565b6102ea565b60405161013491906112a4565b60405180910390f35b6101456103dc565b005b61014f610522565b60405161015c91906112ce565b60405180910390f35b61017f600480360381019061017a91906112e9565b610541565b60405161018c91906112a4565b60405180910390f35b61019d610621565b6040516101aa9190611358565b60405180910390f35b6101bb610626565b005b6101c561074b565b005b6101e160048036038101906101dc9190611373565b61086f565b6040516101ee91906112ce565b60405180910390f35b6101ff610881565b60405161020c919061118e565b60405180910390f35b61022f600480360381019061022a9190611373565b6108be565b005b61024b60048036038101906102469190611249565b61090a565b60405161025891906112a4565b60405180910390f35b61027b60048036038101906102769190611373565b610921565b005b610297600480360381019061029291906113a0565b61096d565b6040516102a491906112ce565b60405180910390f35b60606040518060400160405280600781526020017f44657868756e6500000000000000000000000000000000000000000000000000815250905090565b600081600a60003373ffffffffffffffffffffffffffffffffffffffff1673ffffffffffffffffffffffffffffffffffffffff16815260200190815260200160002060008573ffffffffffffffffffffffffffffffffffffffff1673ffffffffffffffffffffffffffffffffffffffff168152602001908152602001600020819055508273ffffffffffffffffffffffffffffffffffffffff163373ffffffffffffffffffffffffffffffffffffffff167f8c5be1e5ebec7d5bd14f71427d1e84f3dd0314c0f7b2291e5b200ac8c7c3b925846040516103ca91906112ce565b60405180910390a36001905092915050565b610e4260010b600660109054906101000a900460010b60010b1261042c576040517f303b682f00000000000000000000000000000000000000000000000000000000815260040160405180910390fd5b6007544210156104805760075442610444919061140f565b6040517ff461f5dd00000000000000000000000000000000000000000000000000000000815260040161047791906112ce565b60405180910390fd5b6205460063ffffffff16426104959190611443565b6007819055506000600660009054906101000a9004600f0b905060006104bc82600c6109f4565b90506104c781610a1e565b80600660008282829054906101000a9004600f0b6104e59190611484565b92506101000a8154816fffffffffffffffffffffffffffffffff0219169083600f0b6fffffffffffffffffffffffffffffffff1602179055505050565b600061053c600660009054906101000a9004600f0b610b8d565b905090565b600080600a60008673ffffffffffffffffffffffffffffffffffffffff1673ffffffffffffffffffffffffffffffffffffffff16815260200190815260200160002060003373ffffffffffffffffffffffffffffffffffffffff1673ffffffffffffffffffffffffffffffffffffffff1681526020019081526020016000205490508083111561060a5782816040517f460c66b30000000000000000000000000000000000000000000000000000000081526004016106019291906114ec565b60405180910390fd5b610615858585610ba9565b60019150509392505050565b600090565b60085442101561067a576008544261063e919061140f565b6040517ff461f5dd00000000000000000000000000000000000000000000000000000000815260040161067191906112ce565b60405180910390fd5b6201518063ffffffff164261068f9190611443565b600881905550600060056000600160009054906101000a900473ffffffffffffffffffffffffffffffffffffffff1673ffffffffffffffffffffffffffffffffffffffff1673ffffffffffffffffffffffffffffffffffffffff16815260200190815260200160002060009054906101000a9004600f0b905062155cc060030b8161071a9190611484565b9050610748600160009054906101000a900473ffffffffffffffffffffffffffffffffffffffff1682610c9a565b50565b60095442101561079f5760095442610763919061140f565b6040517ff461f5dd00000000000000000000000000000000000000000000000000000000815260040161079691906112ce565b60405180910390fd5b6201518063ffffffff16426107b49190611443565b600981905550600060056000600260009054906101000a900473ffffffffffffffffffffffffffffffffffffffff1673ffffffffffffffffffffffffffffffffffffffff1673ffffffffffffffffffffffffffffffffffffffff16815260200190815260200160002060009054906101000a9004600f0b905061168060030b8161083e9190611484565b905061086c600260009054906101000a900473ffffffffffffffffffffffffffffffffffffffff1682610c9a565b50565b600061087a82610e93565b9050919050565b60606040518060400160405280600381526020017f4458480000000000000000000000000000000000000000000000000000000000815250905090565b6108c6610eb2565b80600260006101000a81548173ffffffffffffffffffffffffffffffffffffffff021916908373ffffffffffffffffffffffffffffffffffffffff16021790555050565b6000610917338484610ba9565b6001905092915050565b610929610eb2565b80600160006101000a81548173ffffffffffffffffffffffffffffffffffffffff021916908373ffffffffffffffffffffffffffffffffffffffff16021790555050565b6000600a60008473ffffffffffffffffffffffffffffffffffffffff1673ffffffffffffffffffffffffffffffffffffffff16815260200190815260200160002060008373ffffffffffffffffffffffffffffffffffffffff1673ffffffffffffffffffffffffffffffffffffffff16815260200190815260200160002054905092915050565b600080610a04848460000b610f44565b9050610a1281612710610faf565b90508091505092915050565b60008060008060005b600480549050811015610b855760048181548110610a4857610a47611515565b5b9060005260206000200160009054906101000a900473ffffffffffffffffffffffffffffffffffffffff169450600560008673ffffffffffffffffffffffffffffffffffffffff1673ffffffffffffffffffffffffffffffffffffffff16815260200190815260200160002060009054906101000a9004600f0b9350610add84600660009054906101000a9004600f0b610faf565b9250610ae98387610f44565b91508184610af79190611484565b935083600560008773ffffffffffffffffffffffffffffffffffffffff1673ffffffffffffffffffffffffffffffffffffffff16815260200190815260200160002060006101000a8154816fffffffffffffffffffffffffffffffff0219169083600f0b6fffffffffffffffffffffffffffffffff1602179055508080610b7d90611544565b915050610a27565b505050505050565b6000610b9882611038565b67ffffffffffffffff169050919050565b6000610bb484610e93565b90508181610bc2919061140f565b90506000811015610bff576040517ff4d678b800000000000000000000000000000000000000000000000000000000815260040160405180910390fd5b6000610c0a84610e93565b90508281610c189190611443565b9050610c248583611059565b610c2e8482611059565b8373ffffffffffffffffffffffffffffffffffffffff168573ffffffffffffffffffffffffffffffffffffffff167fddf252ad1be2c89b69c2b068fc378daa952ba7f163c4a11628f55a4df523b3ef85604051610c8b91906112ce565b60405180910390a35050505050565b600081600f0b1215610ce55781816040517f489b499a000000000000000000000000000000000000000000000000000000008152600401610cdc9291906115aa565b60405180910390fd5b600081600f0b03610d14577fffffffffffffffffffffffffffffffffffffffffffffffffffffffffffffffff90505b6000600560008473ffffffffffffffffffffffffffffffffffffffff1673ffffffffffffffffffffffffffffffffffffffff16815260200190815260200160002060009054906101000a9004600f0b9050600081600f0b148015610d9a57507fffffffffffffffffffffffffffffffffffffffffffffffffffffffffffffffff82600f0b145b15610da55750610e8f565b600081600f0b03610e14576004839080600181540180825580915050600190039060005260206000200160009091909190916101000a81548173ffffffffffffffffffffffffffffffffffffffff021916908373ffffffffffffffffffffffffffffffffffffffff1602179055505b81600560008573ffffffffffffffffffffffffffffffffffffffff1673ffffffffffffffffffffffffffffffffffffffff16815260200190815260200160002060006101000a8154816fffffffffffffffffffffffffffffffff0219169083600f0b6fffffffffffffffffffffffffffffffff160217905550505b5050565b600080610e9f8361106f565b9050610eaa81610b8d565b915050919050565b60008054906101000a900473ffffffffffffffffffffffffffffffffffffffff1673ffffffffffffffffffffffffffffffffffffffff163373ffffffffffffffffffffffffffffffffffffffff1614610f4257336040517f32b2baa3000000000000000000000000000000000000000000000000000000008152600401610f3991906115d3565b60405180910390fd5b565b600080604083600f0b85600f0b02901d90507fffffffffffffffffffffffffffffffff80000000000000000000000000000000600f0b8112158015610f9c57506f7fffffffffffffffffffffffffffffff600f0b8113155b610fa557600080fd5b8091505092915050565b60008082600f0b03610fc057600080fd5b600082600f0b604085600f0b901b81610fdc57610fdb6115ee565b5b0590507fffffffffffffffffffffffffffffffff80000000000000000000000000000000600f0b811215801561102557506f7fffffffffffffffffffffffffffffff600f0b8113155b61102e57600080fd5b8091505092915050565b60008082600f0b121561104a57600080fd5b604082600f0b901d9050919050565b61106b82611066836110db565b610c9a565b5050565b600080600560008473ffffffffffffffffffffffffffffffffffffffff1673ffffffffffffffffffffffffffffffffffffffff16815260200190815260200160002060009054906101000a9004600f0b9050600081600f0b12156110d257600090505b80915050919050565b6000677fffffffffffffff8211156110f257600080fd5b604082901b9050919050565b600081519050919050565b600082825260208201905092915050565b60005b8381101561113857808201518184015260208101905061111d565b60008484015250505050565b6000601f19601f8301169050919050565b6000611160826110fe565b61116a8185611109565b935061117a81856020860161111a565b61118381611144565b840191505092915050565b600060208201905081810360008301526111a88184611155565b905092915050565b600080fd5b600073ffffffffffffffffffffffffffffffffffffffff82169050919050565b60006111e0826111b5565b9050919050565b6111f0816111d5565b81146111fb57600080fd5b50565b60008135905061120d816111e7565b92915050565b6000819050919050565b61122681611213565b811461123157600080fd5b50565b6000813590506112438161121d565b92915050565b600080604083850312156112605761125f6111b0565b5b600061126e858286016111fe565b925050602061127f85828601611234565b9150509250929050565b60008115159050919050565b61129e81611289565b82525050565b60006020820190506112b96000830184611295565b92915050565b6112c881611213565b82525050565b60006020820190506112e360008301846112bf565b92915050565b600080600060608486031215611302576113016111b0565b5b6000611310868287016111fe565b9350506020611321868287016111fe565b925050604061133286828701611234565b9150509250925092565b600060ff82169050919050565b6113528161133c565b82525050565b600060208201905061136d6000830184611349565b92915050565b600060208284031215611389576113886111b0565b5b6000611397848285016111fe565b91505092915050565b600080604083850312156113b7576113b66111b0565b5b60006113c5858286016111fe565b92505060206113d6858286016111fe565b9150509250929050565b7f4e487b7100000000000000000000000000000000000000000000000000000000600052601160045260246000fd5b600061141a82611213565b915061142583611213565b925082820390508181111561143d5761143c6113e0565b5b92915050565b600061144e82611213565b915061145983611213565b9250828201905080821115611471576114706113e0565b5b92915050565b600081600f0b9050919050565b600061148f82611477565b915061149a83611477565b925082820190507fffffffffffffffffffffffffffffffff8000000000000000000000000000000081126f7fffffffffffffffffffffffffffffff821317156114e6576114e56113e0565b5b92915050565b600060408201905061150160008301856112bf565b61150e60208301846112bf565b9392505050565b7f4e487b7100000000000000000000000000000000000000000000000000000000600052603260045260246000fd5b600061154f82611213565b91507fffffffffffffffffffffffffffffffffffffffffffffffffffffffffffffffff8203611581576115806113e0565b5b600182019050919050565b611595816111d5565b82525050565b6115a481611477565b82525050565b60006040820190506115bf600083018561158c565b6115cc602083018461159b565b9392505050565b60006020820190506115e8600083018461158c565b92915050565b7f4e487b7100000000000000000000000000000000000000000000000000000000600052601260045260246000fdfea264697066735822122064ce94b92fc1d8faf9b72778cb21b9c0c9fb1bece7fe9a03449eab5ba65f869464736f6c63430008120033",
  "linkReferences": {},
  "deployedLinkReferences": {}
}