{
  "_format": "hh-sol-artifact-1",
  "contractName": "MockOracle",
  "sourceName": "contracts/mockups/MockOracle.sol",
  "abi": [
    {
      "inputs": [],
      "name": "getPrice",
      "outputs": [
        {
          "internalType": "string",
          "name": "",
          "type": "string"
        }
      ],
      "stateMutability": "view",
      "type": "function"
    },
    {
      "inputs": [
        {
          "internalType": "string",
          "name": "price",
          "type": "string"
        }
      ],
      "name": "setPrice",
      "outputs": [],
      "stateMutability": "nonpayable",
      "type": "function"
    }
  ],
  "bytecode": "0x608060405234801561001057600080fd5b5061049e806100206000396000f3fe608060405234801561001057600080fd5b50600436106100365760003560e01c806398d5fdca1461003b57806399f486bc14610059575b600080fd5b61004361006e565b6040516100509190610166565b60405180910390f35b61006c610067366004610281565b610100565b005b60606000805461007d906102d2565b80601f01602080910402602001604051908101604052809291908181526020018280546100a9906102d2565b80156100f65780601f106100cb576101008083540402835291602001916100f6565b820191906000526020600020905b8154815290600101906020018083116100d957829003601f168201915b5050505050905090565b600061010c82826103a4565b5050565b60005b8381101561012b578181015183820152602001610113565b50506000910152565b600061013e825190565b808452602084019350610155818560208601610110565b601f01601f19169290920192915050565b602080825281016101778184610134565b9392505050565b634e487b7160e01b600052604160045260246000fd5b601f19601f830116810181811067ffffffffffffffff821117156101ba576101ba61017e565b6040525050565b60006101cc60405190565b90506101d88282610194565b919050565b600067ffffffffffffffff8211156101f7576101f761017e565b601f19601f83011660200192915050565b82818337506000910152565b6000610227610222846101dd565b6101c1565b90508281526020810184848401111561024257610242600080fd5b61024d848285610208565b509392505050565b600082601f83011261026957610269600080fd5b8135610279848260208601610214565b949350505050565b60006020828403121561029657610296600080fd5b813567ffffffffffffffff8111156102b0576102b0600080fd5b61027984828501610255565b634e487b7160e01b600052602260045260246000fd5b6002810460018216806102e657607f821691505b6020821081036102f8576102f86102bc565b50919050565b600061030d61030a8381565b90565b92915050565b61031c836102fe565b815460001960089490940293841b1916921b91909117905550565b6000610344818484610313565b505050565b8181101561010c5761035c600082610337565b600101610349565b601f821115610344576000818152602090206020601f8501048101602085101561038b5750805b61039d6020601f860104830182610349565b5050505050565b815167ffffffffffffffff8111156103be576103be61017e565b6103c882546102d2565b6103d3828285610364565b6020601f83116001811461040757600084156103ef5750858201515b600019600886021c1981166002860217865550610460565b600085815260208120601f198616915b828110156104375788850151825560209485019460019092019101610417565b868310156104535784890151600019601f89166008021c191682555b6001600288020188555050505b50505050505056fea26469706673582212203ffa5a75c9d9b3b1bf8d095769093de5bcc30cd7b21abde4e1b75104c5edaa9d64736f6c63430008160033",
  "linkReferences": {},
  "deployedLinkReferences": {}
}